{
  "contractName": "RandomNumberConsumer",
  "abi": [
    {
      "inputs": [
        {
          "internalType": "address",
          "name": "_packAddr",
          "type": "address"
        }
      ],
      "stateMutability": "nonpayable",
      "type": "constructor"
    },
    {
      "anonymous": false,
      "inputs": [
        {
          "indexed": true,
          "internalType": "address",
          "name": "previousOwner",
          "type": "address"
        },
        {
          "indexed": true,
          "internalType": "address",
          "name": "newOwner",
          "type": "address"
        }
      ],
      "name": "OwnershipTransferred",
      "type": "event"
    },
    {
      "anonymous": false,
      "inputs": [
        {
          "indexed": false,
          "internalType": "uint256",
          "name": "tokenId",
          "type": "uint256"
        }
      ],
      "name": "RandomnessFulfilled",
      "type": "event"
    },
    {
      "inputs": [
        {
          "internalType": "address",
          "name": "forwarder",
          "type": "address"
        }
      ],
      "name": "isTrustedForwarder",
      "outputs": [
        {
          "internalType": "bool",
          "name": "",
          "type": "bool"
        }
      ],
      "stateMutability": "view",
      "type": "function",
      "constant": true
    },
    {
      "inputs": [],
      "name": "maxRange",
      "outputs": [
        {
          "internalType": "uint256",
          "name": "",
          "type": "uint256"
        }
      ],
      "stateMutability": "view",
      "type": "function",
      "constant": true
    },
    {
      "inputs": [],
      "name": "maxRange1",
      "outputs": [
        {
          "internalType": "uint256",
          "name": "",
          "type": "uint256"
        }
      ],
      "stateMutability": "view",
      "type": "function",
      "constant": true
    },
    {
      "inputs": [],
      "name": "owner",
      "outputs": [
        {
          "internalType": "address",
          "name": "",
          "type": "address"
        }
      ],
      "stateMutability": "view",
      "type": "function",
      "constant": true
    },
    {
      "inputs": [
        {
          "internalType": "bytes32",
          "name": "requestId",
          "type": "bytes32"
        },
        {
          "internalType": "uint256",
          "name": "randomness",
          "type": "uint256"
        }
      ],
      "name": "rawFulfillRandomness",
      "outputs": [],
      "stateMutability": "nonpayable",
      "type": "function"
    },
    {
      "inputs": [],
      "name": "renounceOwnership",
      "outputs": [],
      "stateMutability": "nonpayable",
      "type": "function"
    },
    {
      "inputs": [
        {
          "internalType": "bytes32",
          "name": "",
          "type": "bytes32"
        }
      ],
      "name": "requestIdRawResults",
      "outputs": [
        {
          "internalType": "uint256",
          "name": "",
          "type": "uint256"
        }
      ],
      "stateMutability": "view",
      "type": "function",
      "constant": true
    },
    {
      "inputs": [
        {
          "internalType": "bytes32",
          "name": "",
          "type": "bytes32"
        }
      ],
      "name": "requestIdResults",
      "outputs": [
        {
          "internalType": "uint256",
          "name": "",
          "type": "uint256"
        }
      ],
      "stateMutability": "view",
      "type": "function",
      "constant": true
    },
    {
      "inputs": [
        {
          "internalType": "bytes32",
          "name": "",
          "type": "bytes32"
        }
      ],
      "name": "requestTokenIds",
      "outputs": [
        {
          "internalType": "uint256",
          "name": "",
          "type": "uint256"
        }
      ],
      "stateMutability": "view",
      "type": "function",
      "constant": true
    },
    {
      "inputs": [
        {
          "internalType": "uint256",
          "name": "",
          "type": "uint256"
        }
      ],
      "name": "tokenRequestIds",
      "outputs": [
        {
          "internalType": "bytes32",
          "name": "",
          "type": "bytes32"
        }
      ],
      "stateMutability": "view",
      "type": "function",
      "constant": true
    },
    {
      "inputs": [
        {
          "internalType": "address",
          "name": "newOwner",
          "type": "address"
        }
      ],
      "name": "transferOwnership",
      "outputs": [],
      "stateMutability": "nonpayable",
      "type": "function"
    },
    {
      "inputs": [],
      "name": "trustedForwarder",
      "outputs": [
        {
          "internalType": "address",
          "name": "",
          "type": "address"
        }
      ],
      "stateMutability": "view",
      "type": "function",
      "constant": true
    },
    {
      "inputs": [],
      "name": "versionRecipient",
      "outputs": [
        {
          "internalType": "string",
          "name": "",
          "type": "string"
        }
      ],
      "stateMutability": "view",
      "type": "function",
      "constant": true
    },
    {
      "inputs": [
        {
          "internalType": "address",
          "name": "_forwarder",
          "type": "address"
        }
      ],
      "name": "setTrustedForwarder",
      "outputs": [],
      "stateMutability": "nonpayable",
      "type": "function"
    },
    {
      "inputs": [
        {
          "internalType": "address",
          "name": "_newAdmin",
          "type": "address"
        }
      ],
      "name": "addAdmin",
      "outputs": [],
      "stateMutability": "nonpayable",
      "type": "function"
    },
    {
      "inputs": [
        {
          "internalType": "address",
          "name": "_newAdmin",
          "type": "address"
        }
      ],
      "name": "removeAdmin",
      "outputs": [],
      "stateMutability": "nonpayable",
      "type": "function"
    },
    {
      "inputs": [
        {
          "internalType": "uint256",
          "name": "_tokenId",
          "type": "uint256"
        }
      ],
      "name": "getRandomNumber",
      "outputs": [
        {
          "internalType": "bytes32",
          "name": "requestId",
          "type": "bytes32"
        }
      ],
      "stateMutability": "nonpayable",
      "type": "function"
    },
    {
      "inputs": [
        {
          "internalType": "uint256",
          "name": "_maxRange",
          "type": "uint256"
        }
      ],
      "name": "setMaxRange",
      "outputs": [
        {
          "internalType": "uint256",
          "name": "",
          "type": "uint256"
        }
      ],
      "stateMutability": "nonpayable",
      "type": "function"
    },
    {
      "inputs": [
        {
          "internalType": "uint256",
          "name": "_tokenId",
          "type": "uint256"
        }
      ],
      "name": "getRandomResultForToken",
      "outputs": [
        {
          "internalType": "uint256",
          "name": "",
          "type": "uint256"
        }
      ],
      "stateMutability": "view",
      "type": "function",
      "constant": true
    },
    {
      "inputs": [
        {
          "internalType": "uint256",
          "name": "_tokenId",
          "type": "uint256"
        }
      ],
      "name": "getRandomRawResultForToken",
      "outputs": [
        {
          "internalType": "uint256",
          "name": "",
          "type": "uint256"
        }
      ],
      "stateMutability": "view",
      "type": "function",
      "constant": true
    },
    {
      "inputs": [],
      "name": "withdrawLink",
      "outputs": [],
      "stateMutability": "nonpayable",
      "type": "function"
    }
  ],
  "bytecode": "0x60c06040526040518060400160405280600581526020017f322e322e30000000000000000000000000000000000000000000000000000000815250600c908051906020019062000051929190620003bd565b503480156200005f57600080fd5b506040516200220f3803806200220f8339818101604052810190620000859190620004d7565b738c7382f9d8f56b33781fe506e897a4f1e2d1725573326c977e6efc84e512bb9c30f76e30c160ed06fb8173ffffffffffffffffffffffffffffffffffffffff1660a08173ffffffffffffffffffffffffffffffffffffffff16815250508073ffffffffffffffffffffffffffffffffffffffff1660808173ffffffffffffffffffffffffffffffffffffffff16815250505050620001396200012d6200023f60201b60201c565b6200025b60201b60201c565b6001600360006200014f6200023f60201b60201c565b73ffffffffffffffffffffffffffffffffffffffff1673ffffffffffffffffffffffffffffffffffffffff16815260200190815260200160002060006101000a81548160ff0219169083151502179055506001600360008373ffffffffffffffffffffffffffffffffffffffff1673ffffffffffffffffffffffffffffffffffffffff16815260200190815260200160002060006101000a81548160ff0219169083151502179055507f6e75b569a01ef56d18cab6a8e71e6600d6ce853834d4a5748b720d06f878b3a460001b600481905550655af3107a40006005819055506103e8600681905550506200056e565b6000620002566200032160201b62000f101760201c565b905090565b6000600160009054906101000a900473ffffffffffffffffffffffffffffffffffffffff16905081600160006101000a81548173ffffffffffffffffffffffffffffffffffffffff021916908373ffffffffffffffffffffffffffffffffffffffff1602179055508173ffffffffffffffffffffffffffffffffffffffff168173ffffffffffffffffffffffffffffffffffffffff167f8be0079c531659141344cd1fd0a4f28419497f9722a3daafe3b4186f6b6457e060405160405180910390a35050565b6000601460003690501015801562000346575062000345336200036360201b60201c565b5b156200035c57601436033560601c905062000360565b3390505b90565b6000600260009054906101000a900473ffffffffffffffffffffffffffffffffffffffff1673ffffffffffffffffffffffffffffffffffffffff168273ffffffffffffffffffffffffffffffffffffffff16149050919050565b828054620003cb9062000538565b90600052602060002090601f016020900481019282620003ef57600085556200043b565b82601f106200040a57805160ff19168380011785556200043b565b828001600101855582156200043b579182015b828111156200043a5782518255916020019190600101906200041d565b5b5090506200044a91906200044e565b5090565b5b80821115620004695760008160009055506001016200044f565b5090565b600080fd5b600073ffffffffffffffffffffffffffffffffffffffff82169050919050565b60006200049f8262000472565b9050919050565b620004b18162000492565b8114620004bd57600080fd5b50565b600081519050620004d181620004a6565b92915050565b600060208284031215620004f057620004ef6200046d565b5b60006200050084828501620004c0565b91505092915050565b7f4e487b7100000000000000000000000000000000000000000000000000000000600052602260045260246000fd5b600060028204905060018216806200055157607f821691505b6020821081141562000568576200056762000509565b5b50919050565b60805160a051611c6d620005a26000396000818161092f01526110ff015260008181610b3401526110c30152611c6d6000f3fe608060405234801561001057600080fd5b50600436106101375760003560e01c806385da735a116100b857806397597bfd1161007c57806397597bfd1461032a578063b37217a41461035a578063b85bc05c1461038a578063d972fa1c146103ba578063da742228146103ea578063f2fde38b1461040657610137565b806385da735a1461029857806389ce16cc146102c85780638da5cb5b146102e65780638dc654a21461030457806394985ddd1461030e57610137565b8063572b6c05116100ff578063572b6c05146101f45780637048027514610224578063715018a61461024057806374f4e7ef1461024a5780637da0a8771461027a57610137565b80631785f53c1461013c5780632a0b4f911461015857806331455f6414610188578063486ff0cd146101b85780635022e5ed146101d6575b600080fd5b61015660048036038101906101519190611325565b610422565b005b610172600480360381019061016d9190611388565b6104f9565b60405161017f91906113ce565b60405180910390f35b6101a2600480360381019061019d9190611388565b610511565b6040516101af91906113ce565b60405180910390f35b6101c0610529565b6040516101cd9190611482565b60405180910390f35b6101de6105b7565b6040516101eb91906113ce565b60405180910390f35b61020e60048036038101906102099190611325565b6105bd565b60405161021b91906114bf565b60405180910390f35b61023e60048036038101906102399190611325565b610617565b005b6102486106ee565b005b610264600480360381019061025f9190611506565b610776565b6040516102719190611542565b60405180910390f35b61028261078e565b60405161028f919061156c565b60405180910390f35b6102b260048036038101906102ad9190611506565b6107b8565b6040516102bf91906113ce565b60405180910390f35b6102d0610861565b6040516102dd91906113ce565b60405180910390f35b6102ee610867565b6040516102fb919061156c565b60405180910390f35b61030c610891565b005b61032860048036038101906103239190611587565b61092d565b005b610344600480360381019061033f9190611506565b6109c9565b60405161035191906113ce565b60405180910390f35b610374600480360381019061036f9190611506565b610a93565b6040516103819190611542565b60405180910390f35b6103a4600480360381019061039f9190611388565b610cae565b6040516103b191906113ce565b60405180910390f35b6103d460048036038101906103cf9190611506565b610cc6565b6040516103e191906113ce565b60405180910390f35b61040460048036038101906103ff9190611325565b610d90565b005b610420600480360381019061041b9190611325565b610e18565b005b61042a610f47565b73ffffffffffffffffffffffffffffffffffffffff16610448610867565b73ffffffffffffffffffffffffffffffffffffffff161461049e576040517f08c379a000000000000000000000000000000000000000000000000000000000815260040161049590611613565b60405180910390fd5b6000600360008373ffffffffffffffffffffffffffffffffffffffff1673ffffffffffffffffffffffffffffffffffffffff16815260200190815260200160002060006101000a81548160ff02191690831515021790555050565b60096020528060005260406000206000915090505481565b600a6020528060005260406000206000915090505481565b600c805461053690611662565b80601f016020809104026020016040519081016040528092919081815260200182805461056290611662565b80156105af5780601f10610584576101008083540402835291602001916105af565b820191906000526020600020905b81548152906001019060200180831161059257829003601f168201915b505050505081565b60075481565b6000600260009054906101000a900473ffffffffffffffffffffffffffffffffffffffff1673ffffffffffffffffffffffffffffffffffffffff168273ffffffffffffffffffffffffffffffffffffffff16149050919050565b61061f610f47565b73ffffffffffffffffffffffffffffffffffffffff1661063d610867565b73ffffffffffffffffffffffffffffffffffffffff1614610693576040517f08c379a000000000000000000000000000000000000000000000000000000000815260040161068a90611613565b60405180910390fd5b6001600360008373ffffffffffffffffffffffffffffffffffffffff1673ffffffffffffffffffffffffffffffffffffffff16815260200190815260200160002060006101000a81548160ff02191690831515021790555050565b6106f6610f47565b73ffffffffffffffffffffffffffffffffffffffff16610714610867565b73ffffffffffffffffffffffffffffffffffffffff161461076a576040517f08c379a000000000000000000000000000000000000000000000000000000000815260040161076190611613565b60405180910390fd5b6107746000610f56565b565b600b6020528060005260406000206000915090505481565b6000600260009054906101000a900473ffffffffffffffffffffffffffffffffffffffff16905090565b600060011515600360006107ca610f47565b73ffffffffffffffffffffffffffffffffffffffff1673ffffffffffffffffffffffffffffffffffffffff16815260200190815260200160002060009054906101000a900460ff16151514610854576040517f08c379a000000000000000000000000000000000000000000000000000000000815260040161084b90611706565b60405180910390fd5b8160068190559050919050565b60065481565b6000600160009054906101000a900473ffffffffffffffffffffffffffffffffffffffff16905090565b60011515600360006108a1610f47565b73ffffffffffffffffffffffffffffffffffffffff1673ffffffffffffffffffffffffffffffffffffffff16815260200190815260200160002060009054906101000a900460ff1615151461092b576040517f08c379a000000000000000000000000000000000000000000000000000000000815260040161092290611706565b60405180910390fd5b565b7f000000000000000000000000000000000000000000000000000000000000000073ffffffffffffffffffffffffffffffffffffffff163373ffffffffffffffffffffffffffffffffffffffff16146109bb576040517f08c379a00000000000000000000000000000000000000000000000000000000081526004016109b290611772565b60405180910390fd5b6109c5828261101c565b5050565b600060011515600360006109db610f47565b73ffffffffffffffffffffffffffffffffffffffff1673ffffffffffffffffffffffffffffffffffffffff16815260200190815260200160002060009054906101000a900460ff16151514610a65576040517f08c379a0000000000000000000000000000000000000000000000000000000008152600401610a5c90611706565b60405180910390fd5b600a6000600b6000858152602001908152602001600020548152602001908152602001600020549050919050565b60006001151560036000610aa5610f47565b73ffffffffffffffffffffffffffffffffffffffff1673ffffffffffffffffffffffffffffffffffffffff16815260200190815260200160002060009054906101000a900460ff16151514610b2f576040517f08c379a0000000000000000000000000000000000000000000000000000000008152600401610b2690611706565b60405180910390fd5b6005547f000000000000000000000000000000000000000000000000000000000000000073ffffffffffffffffffffffffffffffffffffffff166370a08231306040518263ffffffff1660e01b8152600401610b8b919061156c565b602060405180830381865afa158015610ba8573d6000803e3d6000fd5b505050506040513d601f19601f82011682018060405250810190610bcc91906117a7565b1015610c0d576040517f08c379a0000000000000000000000000000000000000000000000000000000008152600401610c0490611846565b60405180910390fd5b6000610c1d6004546005546110bf565b905080600b6000858152602001908152602001600020541415610c75576040517f08c379a0000000000000000000000000000000000000000000000000000000008152600401610c6c906118d8565b60405180910390fd5b80600b60008581526020019081526020016000208190555082600860008381526020019081526020016000208190555080915050919050565b60086020528060005260406000206000915090505481565b60006001151560036000610cd8610f47565b73ffffffffffffffffffffffffffffffffffffffff1673ffffffffffffffffffffffffffffffffffffffff16815260200190815260200160002060009054906101000a900460ff16151514610d62576040517f08c379a0000000000000000000000000000000000000000000000000000000008152600401610d5990611706565b60405180910390fd5b60096000600b6000858152602001908152602001600020548152602001908152602001600020549050919050565b610d98610f47565b73ffffffffffffffffffffffffffffffffffffffff16610db6610867565b73ffffffffffffffffffffffffffffffffffffffff1614610e0c576040517f08c379a0000000000000000000000000000000000000000000000000000000008152600401610e0390611613565b60405180910390fd5b610e158161120f565b50565b610e20610f47565b73ffffffffffffffffffffffffffffffffffffffff16610e3e610867565b73ffffffffffffffffffffffffffffffffffffffff1614610e94576040517f08c379a0000000000000000000000000000000000000000000000000000000008152600401610e8b90611613565b60405180910390fd5b600073ffffffffffffffffffffffffffffffffffffffff168173ffffffffffffffffffffffffffffffffffffffff161415610f04576040517f08c379a0000000000000000000000000000000000000000000000000000000008152600401610efb9061196a565b60405180910390fd5b610f0d81610f56565b50565b60006014600036905010158015610f2c5750610f2b336105bd565b5b15610f4057601436033560601c9050610f44565b3390505b90565b6000610f51610f10565b905090565b6000600160009054906101000a900473ffffffffffffffffffffffffffffffffffffffff16905081600160006101000a81548173ffffffffffffffffffffffffffffffffffffffff021916908373ffffffffffffffffffffffffffffffffffffffff1602179055508173ffffffffffffffffffffffffffffffffffffffff168173ffffffffffffffffffffffffffffffffffffffff167f8be0079c531659141344cd1fd0a4f28419497f9722a3daafe3b4186f6b6457e060405160405180910390a35050565b60016006548261102c91906119b9565b6110369190611a19565b600960008481526020019081526020016000208190555060018161105a9190611a19565b600a6000848152602001908152602001600020819055507f0678731ae5818cd1d7fea152b34c7ce35819233a9559e8b988bc2b7d7d216a4f60086000848152602001908152602001600020546040516110b391906113ce565b60405180910390a15050565b60007f000000000000000000000000000000000000000000000000000000000000000073ffffffffffffffffffffffffffffffffffffffff16634000aea07f000000000000000000000000000000000000000000000000000000000000000084866000604051602001611133929190611a6f565b6040516020818303038152906040526040518463ffffffff1660e01b815260040161116093929190611aed565b6020604051808303816000875af115801561117f573d6000803e3d6000fd5b505050506040513d601f19601f820116820180604052508101906111a39190611b57565b5060006111c58460003060008089815260200190815260200160002054611253565b90506001600080868152602001908152602001600020546111e69190611a19565b60008086815260200190815260200160002081905550611206848261128f565b91505092915050565b80600260006101000a81548173ffffffffffffffffffffffffffffffffffffffff021916908373ffffffffffffffffffffffffffffffffffffffff16021790555050565b60008484848460405160200161126c9493929190611b84565b6040516020818303038152906040528051906020012060001c9050949350505050565b600082826040516020016112a4929190611c0b565b60405160208183030381529060405280519060200120905092915050565b600080fd5b600073ffffffffffffffffffffffffffffffffffffffff82169050919050565b60006112f2826112c7565b9050919050565b611302816112e7565b811461130d57600080fd5b50565b60008135905061131f816112f9565b92915050565b60006020828403121561133b5761133a6112c2565b5b600061134984828501611310565b91505092915050565b6000819050919050565b61136581611352565b811461137057600080fd5b50565b6000813590506113828161135c565b92915050565b60006020828403121561139e5761139d6112c2565b5b60006113ac84828501611373565b91505092915050565b6000819050919050565b6113c8816113b5565b82525050565b60006020820190506113e360008301846113bf565b92915050565b600081519050919050565b600082825260208201905092915050565b60005b83811015611423578082015181840152602081019050611408565b83811115611432576000848401525b50505050565b6000601f19601f8301169050919050565b6000611454826113e9565b61145e81856113f4565b935061146e818560208601611405565b61147781611438565b840191505092915050565b6000602082019050818103600083015261149c8184611449565b905092915050565b60008115159050919050565b6114b9816114a4565b82525050565b60006020820190506114d460008301846114b0565b92915050565b6114e3816113b5565b81146114ee57600080fd5b50565b600081359050611500816114da565b92915050565b60006020828403121561151c5761151b6112c2565b5b600061152a848285016114f1565b91505092915050565b61153c81611352565b82525050565b60006020820190506115576000830184611533565b92915050565b611566816112e7565b82525050565b6000602082019050611581600083018461155d565b92915050565b6000806040838503121561159e5761159d6112c2565b5b60006115ac85828601611373565b92505060206115bd858286016114f1565b9150509250929050565b7f4f776e61626c653a2063616c6c6572206973206e6f7420746865206f776e6572600082015250565b60006115fd6020836113f4565b9150611608826115c7565b602082019050919050565b6000602082019050818103600083015261162c816115f0565b9050919050565b7f4e487b7100000000000000000000000000000000000000000000000000000000600052602260045260246000fd5b6000600282049050600182168061167a57607f821691505b6020821081141561168e5761168d611633565b5b50919050565b7f4f6e6c792061646d696e732063616e2063616c6c20746869732066756e63746960008201527f6f6e000000000000000000000000000000000000000000000000000000000000602082015250565b60006116f06022836113f4565b91506116fb82611694565b604082019050919050565b6000602082019050818103600083015261171f816116e3565b9050919050565b7f4f6e6c7920565246436f6f7264696e61746f722063616e2066756c66696c6c00600082015250565b600061175c601f836113f4565b915061176782611726565b602082019050919050565b6000602082019050818103600083015261178b8161174f565b9050919050565b6000815190506117a1816114da565b92915050565b6000602082840312156117bd576117bc6112c2565b5b60006117cb84828501611792565b91505092915050565b7f4e6f7420656e6f756768204c494e4b202d2066696c6c20636f6e74726163742060008201527f7769746820666175636574000000000000000000000000000000000000000000602082015250565b6000611830602b836113f4565b915061183b826117d4565b604082019050919050565b6000602082019050818103600083015261185f81611823565b9050919050565b7f52657175657374204964206e756d62657220666f7220746f6b656e20616c726560008201527f616479206c6f636b656420696e00000000000000000000000000000000000000602082015250565b60006118c2602d836113f4565b91506118cd82611866565b604082019050919050565b600060208201905081810360008301526118f1816118b5565b9050919050565b7f4f776e61626c653a206e6577206f776e657220697320746865207a65726f206160008201527f6464726573730000000000000000000000000000000000000000000000000000602082015250565b60006119546026836113f4565b915061195f826118f8565b604082019050919050565b6000602082019050818103600083015261198381611947565b9050919050565b7f4e487b7100000000000000000000000000000000000000000000000000000000600052601260045260246000fd5b60006119c4826113b5565b91506119cf836113b5565b9250826119df576119de61198a565b5b828206905092915050565b7f4e487b7100000000000000000000000000000000000000000000000000000000600052601160045260246000fd5b6000611a24826113b5565b9150611a2f836113b5565b9250827fffffffffffffffffffffffffffffffffffffffffffffffffffffffffffffffff03821115611a6457611a636119ea565b5b828201905092915050565b6000604082019050611a846000830185611533565b611a9160208301846113bf565b9392505050565b600081519050919050565b600082825260208201905092915050565b6000611abf82611a98565b611ac98185611aa3565b9350611ad9818560208601611405565b611ae281611438565b840191505092915050565b6000606082019050611b02600083018661155d565b611b0f60208301856113bf565b8181036040830152611b218184611ab4565b9050949350505050565b611b34816114a4565b8114611b3f57600080fd5b50565b600081519050611b5181611b2b565b92915050565b600060208284031215611b6d57611b6c6112c2565b5b6000611b7b84828501611b42565b91505092915050565b6000608082019050611b996000830187611533565b611ba660208301866113bf565b611bb3604083018561155d565b611bc060608301846113bf565b95945050505050565b6000819050919050565b611be4611bdf82611352565b611bc9565b82525050565b6000819050919050565b611c05611c00826113b5565b611bea565b82525050565b6000611c178285611bd3565b602082019150611c278284611bf4565b602082019150819050939250505056fea2646970667358221220fcbfad7b73193df7ccaa44448107bd3a644c4e8c8aecaee1731ef6aaae825a8e64736f6c634300080b0033",
  "immutableReferences": {
    "5513": [
      {
        "length": 32,
        "start": 2868
      },
      {
        "length": 32,
        "start": 4291
      }
    ],
    "5515": [
      {
        "length": 32,
        "start": 2351
      },
      {
        "length": 32,
        "start": 4351
      }
    ]
  },
  "source": "// SPDX-License-Identifier: UNLICENSED\npragma solidity ^0.8.0;\n\nimport \"@chainlink/contracts/src/v0.8/VRFConsumerBase.sol\";\nimport \"@openzeppelin/contracts/access/Ownable.sol\";\nimport \"@opengsn/contracts/src/BaseRelayRecipient.sol\";\n\ncontract RandomNumberConsumer is VRFConsumerBase, Ownable, BaseRelayRecipient {\n    \n    mapping(address => bool) admins;\n\n    bytes32 internal keyHash;\n    uint256 internal fee;\n    uint256 public maxRange;\n    uint256 public maxRange1;\n    \n    mapping(bytes32 => uint256) public requestTokenIds;\n    mapping(bytes32 => uint256) public requestIdResults;\n    mapping(bytes32 => uint256) public requestIdRawResults;\n    mapping(uint256 => bytes32) public tokenRequestIds;\n\n    //mapping(uint256 => uint256) private rarityResult;\n    \n    /**\n     * Constructor inherits VRFConsumerBase\n     * \n     * Network: Polygon Mumbai\n     * Chainlink VRF Coordinator address: 0x8C7382F9D8f56b33781fE506E897a4F1e2d17255\n     * LINK token address:                0x326C977E6efc84E512bB9C30f76E30c160eD06FB\n     * Key Hash: 0x6e75b569a01ef56d18cab6a8e71e6600d6ce853834d4a5748b720d06f878b3a4\n     */\n    constructor(address _packAddr) VRFConsumerBase(\n            0x8C7382F9D8f56b33781fE506E897a4F1e2d17255, // VRF Coordinator\n            0x326C977E6efc84E512bB9C30f76E30c160eD06FB  // LINK Token\n        ) {\n        admins[_msgSender()] = true;\n        admins[_packAddr] = true;\n        keyHash = 0x6e75b569a01ef56d18cab6a8e71e6600d6ce853834d4a5748b720d06f878b3a4;\n        fee = 0.0001 * 10 ** 18; // 0.0001 LINK (Varies by network)\n        maxRange = 1000;\n    }\n\n    event RandomnessFulfilled(uint256 tokenId);\n\n    string public override versionRecipient = \"2.2.0\";\n\n    function setTrustedForwarder(address _forwarder) public onlyOwner() {\n        _setTrustedForwarder(_forwarder);\n    }\n\n    function _msgSender() internal view override(Context, BaseRelayRecipient) returns (address) {\n        return BaseRelayRecipient._msgSender();\n    }\n\n    function _msgData() internal view override(Context, BaseRelayRecipient) returns (bytes memory) {\n        return BaseRelayRecipient._msgData();\n    } \n\n    modifier onlyAdmin() {\n        require(admins[_msgSender()] == true, 'Only admins can call this function');\n            _;\n    }\n\n    function addAdmin(address _newAdmin) external onlyOwner() {\n        admins[_newAdmin] = true;\n    }\n\n    function removeAdmin(address _newAdmin) external onlyOwner() {\n        admins[_newAdmin] = false;\n    }\n\n    /**\n     * Requests randomness\n     */\n    function getRandomNumber(uint256 _tokenId) public onlyAdmin() returns (bytes32 requestId) {\n        require(LINK.balanceOf(address(this)) >= fee, \"Not enough LINK - fill contract with faucet\");\n        bytes32 _requestId = requestRandomness(keyHash, fee);\n        require(tokenRequestIds[_tokenId] != _requestId, \"Request Id number for token already locked in\");\n        tokenRequestIds[_tokenId] = _requestId;\n        requestTokenIds[_requestId] = _tokenId;\n        return _requestId;\n    }\n\n    /**\n     * Callback function used by VRF Coordinator\n     */\n    function fulfillRandomness(bytes32 requestId, uint256 randomness) internal override {\n        requestIdResults[requestId] = (randomness % maxRange) + 1;\n        requestIdRawResults[requestId] = randomness + 1;\n\n        emit RandomnessFulfilled(requestTokenIds[requestId]);\n    }\n\n    function setMaxRange(uint256 _maxRange) public onlyAdmin() returns (uint256) {\n        return maxRange = _maxRange;\n    }\n\n    function getRandomResultForToken(uint256 _tokenId) public view onlyAdmin() returns (uint256) {\n        return requestIdResults[tokenRequestIds[_tokenId]];\n    }\n\n    function getRandomRawResultForToken(uint256 _tokenId) public view onlyAdmin() returns (uint256) {\n        return requestIdRawResults[tokenRequestIds[_tokenId]];\n    }\n\n    function withdrawLink() external onlyAdmin() {} // - Implement a withdraw function to avoid locking your LINK in the contract\n}",
  "sourcePath": "/Users/blakehatch/Viridian-Exchange-Contracts/contracts/RandomNumber.sol",
  "compiler": {
    "name": "solc",
    "version": "0.8.11+commit.d7f03943.Emscripten.clang"
  },
  "schemaVersion": "3.4.1",
  "updatedAt": "2022-01-01T21:48:31.964Z",
  "networkType": "ethereum",
  "devdoc": {
    "kind": "dev",
    "methods": {
      "owner()": {
        "details": "Returns the address of the current owner."
      },
      "renounceOwnership()": {
        "details": "Leaves the contract without owner. It will not be possible to call `onlyOwner` functions anymore. Can only be called by the current owner. NOTE: Renouncing ownership will leave the contract without an owner, thereby removing any functionality that is only available to the owner."
      },
      "transferOwnership(address)": {
        "details": "Transfers ownership of the contract to a new account (`newOwner`). Can only be called by the current owner."
      }
    },
    "version": 1
  },
  "userdoc": {
    "kind": "user",
    "methods": {
      "constructor": {
        "notice": "Constructor inherits VRFConsumerBase  Network: Polygon Mumbai Chainlink VRF Coordinator address: 0x8C7382F9D8f56b33781fE506E897a4F1e2d17255 LINK token address:                0x326C977E6efc84E512bB9C30f76E30c160eD06FB Key Hash: 0x6e75b569a01ef56d18cab6a8e71e6600d6ce853834d4a5748b720d06f878b3a4"
      },
      "getRandomNumber(uint256)": {
        "notice": "Requests randomness"
      },
      "isTrustedForwarder(address)": {
        "notice": "return if the forwarder is trusted to forward relayed transactions to us. the forwarder is required to verify the sender's signature, and verify the call is not a replay."
      }
    },
    "version": 1
  }
}