{
  "contractName": "ViridianExchange",
  "abi": [
    {
      "inputs": [
        {
          "internalType": "uint256",
          "name": "",
          "type": "uint256"
        }
      ],
      "name": "users",
      "outputs": [
        {
          "internalType": "address",
          "name": "wallet",
          "type": "address"
        },
        {
          "internalType": "string",
          "name": "displayName",
          "type": "string"
        },
        {
          "internalType": "string",
          "name": "coverPhotoURL",
          "type": "string"
        },
        {
          "internalType": "string",
          "name": "profilePhotoURL",
          "type": "string"
        },
        {
          "internalType": "string",
          "name": "bio",
          "type": "string"
        }
      ],
      "stateMutability": "view",
      "type": "function",
      "constant": true
    },
    {
      "inputs": [],
      "name": "getListings",
      "outputs": [
        {
          "components": [
            {
              "internalType": "uint256",
              "name": "listingId",
              "type": "uint256"
            },
            {
              "internalType": "uint256",
              "name": "tokenId",
              "type": "uint256"
            },
            {
              "internalType": "address",
              "name": "owner",
              "type": "address"
            },
            {
              "internalType": "uint256",
              "name": "price",
              "type": "uint256"
            },
            {
              "internalType": "bool",
              "name": "purchased",
              "type": "bool"
            },
            {
              "internalType": "uint256",
              "name": "royalty",
              "type": "uint256"
            },
            {
              "internalType": "bool",
              "name": "isAuction",
              "type": "bool"
            },
            {
              "internalType": "uint256",
              "name": "endTime",
              "type": "uint256"
            }
          ],
          "internalType": "struct ViridianExchange.Listing[]",
          "name": "",
          "type": "tuple[]"
        }
      ],
      "stateMutability": "view",
      "type": "function",
      "constant": true
    },
    {
      "inputs": [
        {
          "internalType": "uint256",
          "name": "_nftId",
          "type": "uint256"
        },
        {
          "internalType": "uint256",
          "name": "_price",
          "type": "uint256"
        },
        {
          "internalType": "uint256",
          "name": "_royalty",
          "type": "uint256"
        },
        {
          "internalType": "bool",
          "name": "_isAuction",
          "type": "bool"
        },
        {
          "internalType": "uint256",
          "name": "_endTime",
          "type": "uint256"
        },
        {
          "internalType": "address",
          "name": "vnftAddr",
          "type": "address"
        }
      ],
      "name": "putUpForSale",
      "outputs": [],
      "stateMutability": "payable",
      "type": "function",
      "payable": true
    },
    {
      "inputs": [
        {
          "components": [
            {
              "internalType": "uint256",
              "name": "listingId",
              "type": "uint256"
            },
            {
              "internalType": "uint256",
              "name": "tokenId",
              "type": "uint256"
            },
            {
              "internalType": "address",
              "name": "owner",
              "type": "address"
            },
            {
              "internalType": "uint256",
              "name": "price",
              "type": "uint256"
            },
            {
              "internalType": "bool",
              "name": "purchased",
              "type": "bool"
            },
            {
              "internalType": "uint256",
              "name": "royalty",
              "type": "uint256"
            },
            {
              "internalType": "bool",
              "name": "isAuction",
              "type": "bool"
            },
            {
              "internalType": "uint256",
              "name": "endTime",
              "type": "uint256"
            }
          ],
          "internalType": "struct ViridianExchange.Listing",
          "name": "_listing",
          "type": "tuple"
        }
      ],
      "name": "pullFromSale",
      "outputs": [],
      "stateMutability": "nonpayable",
      "type": "function"
    },
    {
      "inputs": [],
      "name": "withdrawNFT",
      "outputs": [],
      "stateMutability": "nonpayable",
      "type": "function"
    }
  ],
  "bytecode": "0x608060405234801561001057600080fd5b506114c8806100206000396000f3fe60806040526004361061004a5760003560e01c806333b1fc9f1461004f578063365b98b21461006b5780635e38c954146100ac578063ad2f00d4146100c3578063f1b2d6a3146100ec575b600080fd5b61006960048036038101906100649190610ec6565b610117565b005b34801561007757600080fd5b50610092600480360381019061008d9190610e99565b61039d565b6040516100a39594939291906110e1565b60405180910390f35b3480156100b857600080fd5b506100c1610623565b005b3480156100cf57600080fd5b506100ea60048036038101906100e59190610e6b565b610625565b005b3480156100f857600080fd5b50610101610a47565b60405161010e9190611150565b60405180910390f35b6101216000610b65565b600061012d6000610b7b565b905060006040518061010001604052808381526020018981526020013373ffffffffffffffffffffffffffffffffffffffff1681526020018881526020016000151581526020018781526020018615158152602001858152509050600260003373ffffffffffffffffffffffffffffffffffffffff1673ffffffffffffffffffffffffffffffffffffffff168152602001908152602001600020819080600181540180825580915050600190039060005260206000209060080201600090919091909150600082015181600001556020820151816001015560408201518160020160006101000a81548173ffffffffffffffffffffffffffffffffffffffff021916908373ffffffffffffffffffffffffffffffffffffffff1602179055506060820151816003015560808201518160040160006101000a81548160ff02191690831515021790555060a0820151816005015560c08201518160060160006101000a81548160ff02191690831515021790555060e0820151816007015550506003819080600181540180825580915050600190039060005260206000209060080201600090919091909150600082015181600001556020820151816001015560408201518160020160006101000a81548173ffffffffffffffffffffffffffffffffffffffff021916908373ffffffffffffffffffffffffffffffffffffffff1602179055506060820151816003015560808201518160040160006101000a81548160ff02191690831515021790555060a0820151816005015560c08201518160060160006101000a81548160ff02191690831515021790555060e0820151816007015550505050505050505050565b600481815481106103ad57600080fd5b90600052602060002090600802016000915090508060000160009054906101000a900473ffffffffffffffffffffffffffffffffffffffff16908060010180546103f69061129b565b80601f01602080910402602001604051908101604052809291908181526020018280546104229061129b565b801561046f5780601f106104445761010080835404028352916020019161046f565b820191906000526020600020905b81548152906001019060200180831161045257829003601f168201915b5050505050908060020180546104849061129b565b80601f01602080910402602001604051908101604052809291908181526020018280546104b09061129b565b80156104fd5780601f106104d2576101008083540402835291602001916104fd565b820191906000526020600020905b8154815290600101906020018083116104e057829003601f168201915b5050505050908060030180546105129061129b565b80601f016020809104026020016040519081016040528092919081815260200182805461053e9061129b565b801561058b5780601f106105605761010080835404028352916020019161058b565b820191906000526020600020905b81548152906001019060200180831161056e57829003601f168201915b5050505050908060040180546105a09061129b565b80601f01602080910402602001604051908101604052809291908181526020018280546105cc9061129b565b80156106195780601f106105ee57610100808354040283529160200191610619565b820191906000526020600020905b8154815290600101906020018083116105fc57829003601f168201915b5050505050905085565b565b3373ffffffffffffffffffffffffffffffffffffffff16816040015173ffffffffffffffffffffffffffffffffffffffff161461066157600080fd5b6000600260003373ffffffffffffffffffffffffffffffffffffffff1673ffffffffffffffffffffffffffffffffffffffff168152602001908152602001600020905060005b8180549050811015610a425760008282815481106106c8576106c76113d4565b5b90600052602060002090600802016040518061010001604052908160008201548152602001600182015481526020016002820160009054906101000a900473ffffffffffffffffffffffffffffffffffffffff1673ffffffffffffffffffffffffffffffffffffffff1673ffffffffffffffffffffffffffffffffffffffff168152602001600382015481526020016004820160009054906101000a900460ff16151515158152602001600582015481526020016006820160009054906101000a900460ff161515151581526020016007820154815250509050836000015181600001511415610a2e5782600184805490506107c491906111ec565b815481106107d5576107d46113d4565b5b90600052602060002090600802018383815481106107f6576107f56113d4565b5b906000526020600020906008020160008201548160000155600182015481600101556002820160009054906101000a900473ffffffffffffffffffffffffffffffffffffffff168160020160006101000a81548173ffffffffffffffffffffffffffffffffffffffff021916908373ffffffffffffffffffffffffffffffffffffffff160217905550600382015481600301556004820160009054906101000a900460ff168160040160006101000a81548160ff021916908315150217905550600582015481600501556006820160009054906101000a900460ff168160060160006101000a81548160ff0219169083151502179055506007820154816007015590505082600260003373ffffffffffffffffffffffffffffffffffffffff1673ffffffffffffffffffffffffffffffffffffffff168152602001908152602001600020908054610948929190610b89565b50600260003373ffffffffffffffffffffffffffffffffffffffff1673ffffffffffffffffffffffffffffffffffffffff168152602001908152602001600020805480610998576109976113a5565b5b600190038181906000526020600020906008020160008082016000905560018201600090556002820160006101000a81549073ffffffffffffffffffffffffffffffffffffffff021916905560038201600090556004820160006101000a81549060ff021916905560058201600090556006820160006101000a81549060ff021916905560078201600090555050905550610a42565b508080610a3a906112fe565b9150506106a7565b505050565b60606003805480602002602001604051908101604052809291908181526020016000905b82821015610b5c57838290600052602060002090600802016040518061010001604052908160008201548152602001600182015481526020016002820160009054906101000a900473ffffffffffffffffffffffffffffffffffffffff1673ffffffffffffffffffffffffffffffffffffffff1673ffffffffffffffffffffffffffffffffffffffff168152602001600382015481526020016004820160009054906101000a900460ff16151515158152602001600582015481526020016006820160009054906101000a900460ff1615151515815260200160078201548152505081526020019060010190610a6b565b50505050905090565b6001816000016000828254019250508190555050565b600081600001549050919050565b828054828255906000526020600020906008028101928215610cc35760005260206000209160080282015b82811115610cc257828260008201548160000155600182015481600101556002820160009054906101000a900473ffffffffffffffffffffffffffffffffffffffff168160020160006101000a81548173ffffffffffffffffffffffffffffffffffffffff021916908373ffffffffffffffffffffffffffffffffffffffff160217905550600382015481600301556004820160009054906101000a900460ff168160040160006101000a81548160ff021916908315150217905550600582015481600501556006820160009054906101000a900460ff168160060160006101000a81548160ff02191690831515021790555060078201548160070155505091600801919060080190610bb4565b5b509050610cd09190610cd4565b5090565b5b80821115610d5e5760008082016000905560018201600090556002820160006101000a81549073ffffffffffffffffffffffffffffffffffffffff021916905560038201600090556004820160006101000a81549060ff021916905560058201600090556006820160006101000a81549060ff0219169055600782016000905550600801610cd5565b5090565b600081359050610d718161144d565b92915050565b600081359050610d8681611464565b92915050565b60006101008284031215610da357610da2611432565b5b610dae610100611172565b90506000610dbe84828501610e56565b6000830152506020610dd284828501610e56565b6020830152506040610de684828501610d62565b6040830152506060610dfa84828501610e56565b6060830152506080610e0e84828501610d77565b60808301525060a0610e2284828501610e56565b60a08301525060c0610e3684828501610d77565b60c08301525060e0610e4a84828501610e56565b60e08301525092915050565b600081359050610e658161147b565b92915050565b60006101008284031215610e8257610e81611437565b5b6000610e9084828501610d8c565b91505092915050565b600060208284031215610eaf57610eae611437565b5b6000610ebd84828501610e56565b91505092915050565b60008060008060008060c08789031215610ee357610ee2611437565b5b6000610ef189828a01610e56565b9650506020610f0289828a01610e56565b9550506040610f1389828a01610e56565b9450506060610f2489828a01610d77565b9350506080610f3589828a01610e56565b92505060a0610f4689828a01610d62565b9150509295509295509295565b6000610f5f8383611030565b6101008301905092915050565b610f7581611220565b82525050565b610f8481611220565b82525050565b6000610f95826111a7565b610f9f81856111ca565b9350610faa83611197565b8060005b83811015610fdb578151610fc28882610f53565b9750610fcd836111bd565b925050600181019050610fae565b5085935050505092915050565b610ff181611232565b82525050565b6000611002826111b2565b61100c81856111db565b935061101c818560208601611268565b6110258161143c565b840191505092915050565b6101008201600082015161104760008501826110d2565b50602082015161105a60208501826110d2565b50604082015161106d6040850182610f6c565b50606082015161108060608501826110d2565b5060808201516110936080850182610fe8565b5060a08201516110a660a08501826110d2565b5060c08201516110b960c0850182610fe8565b5060e08201516110cc60e08501826110d2565b50505050565b6110db8161125e565b82525050565b600060a0820190506110f66000830188610f7b565b81810360208301526111088187610ff7565b9050818103604083015261111c8186610ff7565b905081810360608301526111308185610ff7565b905081810360808301526111448184610ff7565b90509695505050505050565b6000602082019050818103600083015261116a8184610f8a565b905092915050565b600061117c61118d565b905061118882826112cd565b919050565b6000604051905090565b6000819050602082019050919050565b600081519050919050565b600081519050919050565b6000602082019050919050565b600082825260208201905092915050565b600082825260208201905092915050565b60006111f78261125e565b91506112028361125e565b92508282101561121557611214611347565b5b828203905092915050565b600061122b8261123e565b9050919050565b60008115159050919050565b600073ffffffffffffffffffffffffffffffffffffffff82169050919050565b6000819050919050565b60005b8381101561128657808201518184015260208101905061126b565b83811115611295576000848401525b50505050565b600060028204905060018216806112b357607f821691505b602082108114156112c7576112c6611376565b5b50919050565b6112d68261143c565b810181811067ffffffffffffffff821117156112f5576112f4611403565b5b80604052505050565b60006113098261125e565b91507fffffffffffffffffffffffffffffffffffffffffffffffffffffffffffffffff82141561133c5761133b611347565b5b600182019050919050565b7f4e487b7100000000000000000000000000000000000000000000000000000000600052601160045260246000fd5b7f4e487b7100000000000000000000000000000000000000000000000000000000600052602260045260246000fd5b7f4e487b7100000000000000000000000000000000000000000000000000000000600052603160045260246000fd5b7f4e487b7100000000000000000000000000000000000000000000000000000000600052603260045260246000fd5b7f4e487b7100000000000000000000000000000000000000000000000000000000600052604160045260246000fd5b600080fd5b600080fd5b6000601f19601f8301169050919050565b61145681611220565b811461146157600080fd5b50565b61146d81611232565b811461147857600080fd5b50565b6114848161125e565b811461148f57600080fd5b5056fea2646970667358221220bb78de6bd536767da4f0785ae74fabe23d47eb04514b97626308a8c0ac03b6fd64736f6c63430008060033",
  "immutableReferences": {},
  "source": "pragma solidity ^0.8.0;\n\nimport \"@openzeppelin/contracts/access/Ownable.sol\";\nimport \"@openzeppelin/contracts/token/ERC721/ERC721.sol\";\nimport \"@openzeppelin/contracts/token/ERC20/IERC20.sol\";\nimport \"./ViridianNFT.sol\";\n\ncontract ViridianExchange {\n\n    struct User {\n        address wallet;\n        string displayName;\n        string coverPhotoURL;\n        string profilePhotoURL;\n        string bio;\n        User[] following;\n        User[] followers;\n        uint256[] likes;\n    }\n\n    struct Trade {\n        uint256[] nftIds;\n        uint vextAmt;\n        address _to;\n        address _from;\n        bool pending;\n    }\n\n    using Counters for Counters.Counter;\n    Counters.Counter private _listingIds;\n\n    //address vNFTContract = \n    \n    struct Listing {\n        uint256 listingId;\n        uint256 tokenId;\n        address owner;\n        uint256 price;\n        bool purchased;\n        uint256 royalty;\n        bool isAuction;\n        uint256 endTime;\n    }\n\n    struct Collection {\n        string description;\n        uint256[] collectionNFTs;\n    }\n\n    //string[] public nftIds;\n    mapping (address => Collection) displayCases;\n    mapping (address => Listing[]) userListings;\n    Listing[] private listings;\n    User[] public users;\n\n    function getListings() public view returns (Listing[] memory) {\n        return listings;\n    }\n\n    // function getNftOwner(address vnftAddr, uint256 _nftId) public payable returns (bytes memory) {\n    //     (bool success, bytes memory data) = vnftAddr.call{value: msg.value, gas: 100000}(\n    //             abi.encodeWithSignature(\"ownerOf(uint256)\", _nftId));\n        \n    //     return data;\n    // }\n\n    function putUpForSale(uint256 _nftId, uint256 _price, uint256 _royalty, bool _isAuction, uint256 _endTime, address vnftAddr) public payable {\n        //require(nftOwner == msg.sender);\n        // Figure out a way to get this require to work\n        _listingIds.increment();\n        uint256 _listingId = _listingIds.current();\n        Listing memory saleListing = Listing(_listingId, _nftId, msg.sender, _price, false, _royalty, _isAuction, _endTime);\n        userListings[msg.sender].push(saleListing);\n        listings.push(saleListing);\n    }\n\n    function pullFromSale(Listing memory _listing) public {\n        require(_listing.owner == msg.sender);\n        Listing[] storage curUserListings = userListings[msg.sender];\n        for (uint i = 0; i < curUserListings.length; i++) {\n            Listing memory listing = curUserListings[i];\n            if (listing.listingId == _listing.listingId) {\n                curUserListings[i] = curUserListings[curUserListings.length - 1];\n                userListings[msg.sender] = curUserListings;\n                userListings[msg.sender].pop();\n                break;\n            }\n        }\n    }\n\n    function withdrawNFT() public {\n        //Burn NFT\n        //Send message to prompt front-end email sending\n    }\n}",
  "sourcePath": "/Users/blakehatch/Viridian-Exchange-Contracts/contracts/ViridianExchange.sol",
  "compiler": {
    "name": "solc",
    "version": "0.8.6+commit.11564f7e.Emscripten.clang"
  },
  "schemaVersion": "3.4.1",
  "updatedAt": "2021-07-18T18:09:32.813Z",
  "networkType": "ethereum",
  "devdoc": {
    "kind": "dev",
    "methods": {},
    "version": 1
  },
  "userdoc": {
    "kind": "user",
    "methods": {},
    "version": 1
  }
}