{
  "contractName": "ViridianExchangeOffers",
  "abi": [
    {
      "inputs": [
        {
          "internalType": "address",
          "name": "_viridianToken",
          "type": "address"
        },
        {
          "internalType": "address",
          "name": "_viridianNFT",
          "type": "address"
        },
        {
          "internalType": "address",
          "name": "_viridianPack",
          "type": "address"
        }
      ],
      "stateMutability": "nonpayable",
      "type": "constructor"
    },
    {
      "anonymous": false,
      "inputs": [
        {
          "indexed": true,
          "internalType": "address",
          "name": "previousOwner",
          "type": "address"
        },
        {
          "indexed": true,
          "internalType": "address",
          "name": "newOwner",
          "type": "address"
        }
      ],
      "name": "OwnershipTransferred",
      "type": "event"
    },
    {
      "inputs": [],
      "name": "owner",
      "outputs": [
        {
          "internalType": "address",
          "name": "",
          "type": "address"
        }
      ],
      "stateMutability": "view",
      "type": "function",
      "constant": true
    },
    {
      "inputs": [],
      "name": "renounceOwnership",
      "outputs": [],
      "stateMutability": "nonpayable",
      "type": "function"
    },
    {
      "inputs": [
        {
          "internalType": "address",
          "name": "newOwner",
          "type": "address"
        }
      ],
      "name": "transferOwnership",
      "outputs": [],
      "stateMutability": "nonpayable",
      "type": "function"
    },
    {
      "inputs": [],
      "name": "viridianNFT",
      "outputs": [
        {
          "internalType": "address",
          "name": "",
          "type": "address"
        }
      ],
      "stateMutability": "view",
      "type": "function",
      "constant": true
    },
    {
      "inputs": [],
      "name": "viridianPack",
      "outputs": [
        {
          "internalType": "address",
          "name": "",
          "type": "address"
        }
      ],
      "stateMutability": "view",
      "type": "function",
      "constant": true
    },
    {
      "inputs": [],
      "name": "viridianToken",
      "outputs": [
        {
          "internalType": "address",
          "name": "",
          "type": "address"
        }
      ],
      "stateMutability": "view",
      "type": "function",
      "constant": true
    },
    {
      "stateMutability": "payable",
      "type": "receive",
      "payable": true
    },
    {
      "inputs": [],
      "name": "getOffers",
      "outputs": [
        {
          "internalType": "uint256[]",
          "name": "",
          "type": "uint256[]"
        }
      ],
      "stateMutability": "view",
      "type": "function",
      "constant": true
    },
    {
      "inputs": [
        {
          "internalType": "uint256",
          "name": "_offerId",
          "type": "uint256"
        }
      ],
      "name": "getOffersFromId",
      "outputs": [
        {
          "components": [
            {
              "internalType": "uint256",
              "name": "offerId",
              "type": "uint256"
            },
            {
              "internalType": "uint256[]",
              "name": "toNftIds",
              "type": "uint256[]"
            },
            {
              "internalType": "uint256[]",
              "name": "toPackIds",
              "type": "uint256[]"
            },
            {
              "internalType": "uint256",
              "name": "toAmt",
              "type": "uint256"
            },
            {
              "internalType": "uint256[]",
              "name": "fromNftIds",
              "type": "uint256[]"
            },
            {
              "internalType": "uint256[]",
              "name": "fromPackIds",
              "type": "uint256[]"
            },
            {
              "internalType": "uint256",
              "name": "fromAmt",
              "type": "uint256"
            },
            {
              "internalType": "address payable",
              "name": "to",
              "type": "address"
            },
            {
              "internalType": "address payable",
              "name": "from",
              "type": "address"
            },
            {
              "internalType": "bool",
              "name": "isVEXT",
              "type": "bool"
            },
            {
              "internalType": "bool",
              "name": "pending",
              "type": "bool"
            },
            {
              "internalType": "bool",
              "name": "toAccepted",
              "type": "bool"
            },
            {
              "internalType": "bool",
              "name": "fromAccepted",
              "type": "bool"
            },
            {
              "internalType": "uint256",
              "name": "startTime",
              "type": "uint256"
            },
            {
              "internalType": "uint256",
              "name": "endTime",
              "type": "uint256"
            }
          ],
          "internalType": "struct ViridianExchangeOffers.Offer",
          "name": "",
          "type": "tuple"
        }
      ],
      "stateMutability": "view",
      "type": "function",
      "constant": true
    },
    {
      "inputs": [
        {
          "internalType": "address",
          "name": "_userAddr",
          "type": "address"
        }
      ],
      "name": "getOffersFromUser",
      "outputs": [
        {
          "components": [
            {
              "internalType": "uint256",
              "name": "offerId",
              "type": "uint256"
            },
            {
              "internalType": "uint256[]",
              "name": "toNftIds",
              "type": "uint256[]"
            },
            {
              "internalType": "uint256[]",
              "name": "toPackIds",
              "type": "uint256[]"
            },
            {
              "internalType": "uint256",
              "name": "toAmt",
              "type": "uint256"
            },
            {
              "internalType": "uint256[]",
              "name": "fromNftIds",
              "type": "uint256[]"
            },
            {
              "internalType": "uint256[]",
              "name": "fromPackIds",
              "type": "uint256[]"
            },
            {
              "internalType": "uint256",
              "name": "fromAmt",
              "type": "uint256"
            },
            {
              "internalType": "address payable",
              "name": "to",
              "type": "address"
            },
            {
              "internalType": "address payable",
              "name": "from",
              "type": "address"
            },
            {
              "internalType": "bool",
              "name": "isVEXT",
              "type": "bool"
            },
            {
              "internalType": "bool",
              "name": "pending",
              "type": "bool"
            },
            {
              "internalType": "bool",
              "name": "toAccepted",
              "type": "bool"
            },
            {
              "internalType": "bool",
              "name": "fromAccepted",
              "type": "bool"
            },
            {
              "internalType": "uint256",
              "name": "startTime",
              "type": "uint256"
            },
            {
              "internalType": "uint256",
              "name": "endTime",
              "type": "uint256"
            }
          ],
          "internalType": "struct ViridianExchangeOffers.Offer[]",
          "name": "",
          "type": "tuple[]"
        }
      ],
      "stateMutability": "view",
      "type": "function",
      "constant": true
    },
    {
      "inputs": [
        {
          "internalType": "uint256",
          "name": "_offerId",
          "type": "uint256"
        }
      ],
      "name": "hasOfferExpired",
      "outputs": [
        {
          "internalType": "bool",
          "name": "",
          "type": "bool"
        }
      ],
      "stateMutability": "view",
      "type": "function",
      "constant": true
    },
    {
      "inputs": [
        {
          "internalType": "address payable",
          "name": "_to",
          "type": "address"
        },
        {
          "internalType": "uint256[]",
          "name": "_nftIds",
          "type": "uint256[]"
        },
        {
          "internalType": "uint256[]",
          "name": "_packIds",
          "type": "uint256[]"
        },
        {
          "internalType": "uint256",
          "name": "_amount",
          "type": "uint256"
        },
        {
          "internalType": "uint256[]",
          "name": "_recNftIds",
          "type": "uint256[]"
        },
        {
          "internalType": "uint256[]",
          "name": "_recPackIds",
          "type": "uint256[]"
        },
        {
          "internalType": "uint256",
          "name": "_recAmount",
          "type": "uint256"
        },
        {
          "internalType": "bool",
          "name": "isVEXT",
          "type": "bool"
        },
        {
          "internalType": "uint256",
          "name": "_daysValid",
          "type": "uint256"
        }
      ],
      "name": "makeOffer",
      "outputs": [],
      "stateMutability": "nonpayable",
      "type": "function"
    },
    {
      "inputs": [
        {
          "internalType": "uint256",
          "name": "_offerId",
          "type": "uint256"
        }
      ],
      "name": "cancelOffer",
      "outputs": [],
      "stateMutability": "nonpayable",
      "type": "function"
    },
    {
      "inputs": [
        {
          "internalType": "uint256",
          "name": "_offerId",
          "type": "uint256"
        }
      ],
      "name": "cancelAcceptedETHOffer",
      "outputs": [],
      "stateMutability": "payable",
      "type": "function",
      "payable": true
    },
    {
      "inputs": [
        {
          "internalType": "uint256",
          "name": "_offerId",
          "type": "uint256"
        }
      ],
      "name": "acceptOfferWithVEXT",
      "outputs": [],
      "stateMutability": "nonpayable",
      "type": "function"
    },
    {
      "inputs": [
        {
          "internalType": "uint256",
          "name": "_offerId",
          "type": "uint256"
        }
      ],
      "name": "acceptOfferWithETH",
      "outputs": [],
      "stateMutability": "payable",
      "type": "function",
      "payable": true
    },
    {
      "inputs": [
        {
          "internalType": "uint256",
          "name": "_offerId",
          "type": "uint256"
        }
      ],
      "name": "finalApprovalWithETH",
      "outputs": [],
      "stateMutability": "payable",
      "type": "function",
      "payable": true
    }
  ],
  "bytecode": "0x60806040523480156200001157600080fd5b5060405162005e8a38038062005e8a83398181016040528101906200003791906200038c565b620000576200004b6200025660201b60201c565b6200025e60201b60201c565b600073ffffffffffffffffffffffffffffffffffffffff168373ffffffffffffffffffffffffffffffffffffffff1614156200009257600080fd5b600073ffffffffffffffffffffffffffffffffffffffff168273ffffffffffffffffffffffffffffffffffffffff161415620000cd57600080fd5b600073ffffffffffffffffffffffffffffffffffffffff168173ffffffffffffffffffffffffffffffffffffffff1614156200010857600080fd5b82600a60006101000a81548173ffffffffffffffffffffffffffffffffffffffff021916908373ffffffffffffffffffffffffffffffffffffffff16021790555081600860006101000a81548173ffffffffffffffffffffffffffffffffffffffff021916908373ffffffffffffffffffffffffffffffffffffffff16021790555080600960006101000a81548173ffffffffffffffffffffffffffffffffffffffff021916908373ffffffffffffffffffffffffffffffffffffffff16021790555081600260006101000a81548173ffffffffffffffffffffffffffffffffffffffff021916908373ffffffffffffffffffffffffffffffffffffffff16021790555080600360006101000a81548173ffffffffffffffffffffffffffffffffffffffff021916908373ffffffffffffffffffffffffffffffffffffffff160217905550505050620003e8565b600033905090565b60008060009054906101000a900473ffffffffffffffffffffffffffffffffffffffff169050816000806101000a81548173ffffffffffffffffffffffffffffffffffffffff021916908373ffffffffffffffffffffffffffffffffffffffff1602179055508173ffffffffffffffffffffffffffffffffffffffff168173ffffffffffffffffffffffffffffffffffffffff167f8be0079c531659141344cd1fd0a4f28419497f9722a3daafe3b4186f6b6457e060405160405180910390a35050565b600080fd5b600073ffffffffffffffffffffffffffffffffffffffff82169050919050565b6000620003548262000327565b9050919050565b620003668162000347565b81146200037257600080fd5b50565b60008151905062000386816200035b565b92915050565b600080600060608486031215620003a857620003a762000322565b5b6000620003b88682870162000375565b9350506020620003cb8682870162000375565b9250506040620003de8682870162000375565b9150509250925092565b615a9280620003f86000396000f3fe6080604052600436106100f75760003560e01c8063aec99da21161008a578063f2f57e9511610059578063f2f57e95146102e4578063f2fde38b1461030f578063fe257afc14610338578063ff1080df14610363576100fe565b8063aec99da214610239578063d382335a14610262578063e48bac9b1461029f578063ef706adf146102bb576100fe565b8063715018a6116100c6578063715018a6146101b057806374ecfaf6146101c75780638da5cb5b146101e35780639a7012881461020e576100fe565b8063273e287e146101035780632da967c11461011f5780633eaf56b0146101485780633ee992ee14610185576100fe565b366100fe57005b600080fd5b61011d600480360381019061011891906144f5565b6103a0565b005b34801561012b57600080fd5b5061014660048036038101906101419190614711565b6105a6565b005b34801561015457600080fd5b5061016f600480360381019061016a91906144f5565b610d09565b60405161017c9190614a7f565b60405180910390f35b34801561019157600080fd5b5061019a610fe1565b6040516101a79190614b10565b60405180910390f35b3480156101bc57600080fd5b506101c5611039565b005b6101e160048036038101906101dc91906144f5565b6110c1565b005b3480156101ef57600080fd5b506101f86113c6565b6040516102059190614b53565b60405180910390f35b34801561021a57600080fd5b506102236113ef565b6040516102309190614b53565b60405180910390f35b34801561024557600080fd5b50610260600480360381019061025b91906144f5565b611415565b005b34801561026e57600080fd5b5061028960048036038101906102849190614b9a565b611736565b6040516102969190614de1565b60405180910390f35b6102b960048036038101906102b491906144f5565b611a7f565b005b3480156102c757600080fd5b506102e260048036038101906102dd91906144f5565b6126c8565b005b3480156102f057600080fd5b506102f961325d565b6040516103069190614b53565b60405180910390f35b34801561031b57600080fd5b5061033660048036038101906103319190614b9a565b613283565b005b34801561034457600080fd5b5061034d61337b565b60405161035a9190614b53565b60405180910390f35b34801561036f57600080fd5b5061038a600480360381019061038591906144f5565b6133a1565b6040516103979190614e12565b60405180910390f35b60006005600083815260200190815260200160002090503373ffffffffffffffffffffffffffffffffffffffff168160070160009054906101000a900473ffffffffffffffffffffffffffffffffffffffff1673ffffffffffffffffffffffffffffffffffffffff1614610449576040517f08c379a000000000000000000000000000000000000000000000000000000000815260040161044090614eb0565b60405180910390fd5b610452826133a1565b15610492576040517f08c379a000000000000000000000000000000000000000000000000000000000815260040161048990614f1c565b60405180910390fd5b348160060154146104d8576040517f08c379a00000000000000000000000000000000000000000000000000000000081526004016104cf90614fd4565b60405180910390fd5b8060080160179054906101000a900460ff161561052a576040517f08c379a000000000000000000000000000000000000000000000000000000000815260040161052190615066565b60405180910390fd5b8060080160169054906101000a900460ff161561057c576040517f08c379a00000000000000000000000000000000000000000000000000000000081526004016105739061511e565b60405180910390fd5b60018160080160166101000a81548160ff0219169083151502179055506105a281613425565b5050565b3373ffffffffffffffffffffffffffffffffffffffff168973ffffffffffffffffffffffffffffffffffffffff1614156105df57600080fd5b6105e96001613a30565b60006105f56001613a46565b905060006201518083610608919061516d565b4261061391906151c7565b90506000604051806101e001604052808481526020018c81526020018b81526020018a81526020018981526020018881526020018781526020018d73ffffffffffffffffffffffffffffffffffffffff1681526020013373ffffffffffffffffffffffffffffffffffffffff1681526020018615158152602001600115158152602001600015158152602001600015158152602001428152602001838152509050600460008d73ffffffffffffffffffffffffffffffffffffffff1673ffffffffffffffffffffffffffffffffffffffff1681526020019081526020016000208190806001815401808255809150506001900390600052602060002090600b0201600090919091909150600082015181600001556020820151816001019080519060200190610743929190613f9f565b506040820151816002019080519060200190610760929190613f9f565b50606082015181600301556080820151816004019080519060200190610787929190613f9f565b5060a08201518160050190805190602001906107a4929190613f9f565b5060c0820151816006015560e08201518160070160006101000a81548173ffffffffffffffffffffffffffffffffffffffff021916908373ffffffffffffffffffffffffffffffffffffffff1602179055506101008201518160080160006101000a81548173ffffffffffffffffffffffffffffffffffffffff021916908373ffffffffffffffffffffffffffffffffffffffff1602179055506101208201518160080160146101000a81548160ff0219169083151502179055506101408201518160080160156101000a81548160ff0219169083151502179055506101608201518160080160166101000a81548160ff0219169083151502179055506101808201518160080160176101000a81548160ff0219169083151502179055506101a082015181600901556101c082015181600a01555050600460003373ffffffffffffffffffffffffffffffffffffffff1673ffffffffffffffffffffffffffffffffffffffff1681526020019081526020016000208190806001815401808255809150506001900390600052602060002090600b0201600090919091909150600082015181600001556020820151816001019080519060200190610969929190613f9f565b506040820151816002019080519060200190610986929190613f9f565b506060820151816003015560808201518160040190805190602001906109ad929190613f9f565b5060a08201518160050190805190602001906109ca929190613f9f565b5060c0820151816006015560e08201518160070160006101000a81548173ffffffffffffffffffffffffffffffffffffffff021916908373ffffffffffffffffffffffffffffffffffffffff1602179055506101008201518160080160006101000a81548173ffffffffffffffffffffffffffffffffffffffff021916908373ffffffffffffffffffffffffffffffffffffffff1602179055506101208201518160080160146101000a81548160ff0219169083151502179055506101408201518160080160156101000a81548160ff0219169083151502179055506101608201518160080160166101000a81548160ff0219169083151502179055506101808201518160080160176101000a81548160ff0219169083151502179055506101a082015181600901556101c082015181600a015550508060056000858152602001908152602001600020600082015181600001556020820151816001019080519060200190610b3a929190613f9f565b506040820151816002019080519060200190610b57929190613f9f565b50606082015181600301556080820151816004019080519060200190610b7e929190613f9f565b5060a0820151816005019080519060200190610b9b929190613f9f565b5060c0820151816006015560e08201518160070160006101000a81548173ffffffffffffffffffffffffffffffffffffffff021916908373ffffffffffffffffffffffffffffffffffffffff1602179055506101008201518160080160006101000a81548173ffffffffffffffffffffffffffffffffffffffff021916908373ffffffffffffffffffffffffffffffffffffffff1602179055506101208201518160080160146101000a81548160ff0219169083151502179055506101408201518160080160156101000a81548160ff0219169083151502179055506101608201518160080160166101000a81548160ff0219169083151502179055506101808201518160080160176101000a81548160ff0219169083151502179055506101a082015181600901556101c082015181600a01559050506006839080600181540180825580915050600190039060005260206000200160009091909190915055505050505050505050505050565b610d11613fec565b60056000838152602001908152602001600020604051806101e00160405290816000820154815260200160018201805480602002602001604051908101604052809291908181526020018280548015610d8957602002820191906000526020600020905b815481526020019060010190808311610d75575b5050505050815260200160028201805480602002602001604051908101604052809291908181526020018280548015610de157602002820191906000526020600020905b815481526020019060010190808311610dcd575b505050505081526020016003820154815260200160048201805480602002602001604051908101604052809291908181526020018280548015610e4357602002820191906000526020600020905b815481526020019060010190808311610e2f575b5050505050815260200160058201805480602002602001604051908101604052809291908181526020018280548015610e9b57602002820191906000526020600020905b815481526020019060010190808311610e87575b50505050508152602001600682015481526020016007820160009054906101000a900473ffffffffffffffffffffffffffffffffffffffff1673ffffffffffffffffffffffffffffffffffffffff1673ffffffffffffffffffffffffffffffffffffffff1681526020016008820160009054906101000a900473ffffffffffffffffffffffffffffffffffffffff1673ffffffffffffffffffffffffffffffffffffffff1673ffffffffffffffffffffffffffffffffffffffff1681526020016008820160149054906101000a900460ff161515151581526020016008820160159054906101000a900460ff161515151581526020016008820160169054906101000a900460ff161515151581526020016008820160179054906101000a900460ff1615151515815260200160098201548152602001600a820154815250509050919050565b6060600680548060200260200160405190810160405280929190818152602001828054801561102f57602002820191906000526020600020905b81548152602001906001019080831161101b575b5050505050905090565b611041613a54565b73ffffffffffffffffffffffffffffffffffffffff1661105f6113c6565b73ffffffffffffffffffffffffffffffffffffffff16146110b5576040517f08c379a00000000000000000000000000000000000000000000000000000000081526004016110ac90615269565b60405180910390fd5b6110bf6000613a5c565b565b60006005600083815260200190815260200160002090503373ffffffffffffffffffffffffffffffffffffffff168160080160009054906101000a900473ffffffffffffffffffffffffffffffffffffffff1673ffffffffffffffffffffffffffffffffffffffff161461116a576040517f08c379a0000000000000000000000000000000000000000000000000000000008152600401611161906152fb565b60405180910390fd5b8060080160169054906101000a900460ff166111bb576040517f08c379a00000000000000000000000000000000000000000000000000000000081526004016111b29061538d565b60405180910390fd5b8060080160179054906101000a900460ff161561120d576040517f08c379a00000000000000000000000000000000000000000000000000000000081526004016112049061541f565b60405180910390fd5b611216826133a1565b15611256576040517f08c379a000000000000000000000000000000000000000000000000000000000815260040161124d90614f1c565b60405180910390fd5b60008160080160156101000a81548160ff02191690831515021790555060018160080160176101000a81548160ff02191690831515021790555061129981613425565b8060080160009054906101000a900473ffffffffffffffffffffffffffffffffffffffff1673ffffffffffffffffffffffffffffffffffffffff166108fc82600601549081150290604051600060405180830381858888f19350505050158015611307573d6000803e3d6000fd5b503481600301541461134e576040517f08c379a0000000000000000000000000000000000000000000000000000000008152600401611345906154b1565b60405180910390fd5b8060070160009054906101000a900473ffffffffffffffffffffffffffffffffffffffff1673ffffffffffffffffffffffffffffffffffffffff166108fc349081150290604051600060405180830381858888f193505050501580156113b8573d6000803e3d6000fd5b506113c281613b20565b5050565b60008060009054906101000a900473ffffffffffffffffffffffffffffffffffffffff16905090565b600860009054906101000a900473ffffffffffffffffffffffffffffffffffffffff1681565b60006005600083815260200190815260200160002090503373ffffffffffffffffffffffffffffffffffffffff168160070160009054906101000a900473ffffffffffffffffffffffffffffffffffffffff1673ffffffffffffffffffffffffffffffffffffffff16146114be576040517f08c379a00000000000000000000000000000000000000000000000000000000081526004016114b590614eb0565b60405180910390fd5b6114c7826133a1565b15611507576040517f08c379a00000000000000000000000000000000000000000000000000000000081526004016114fe90614f1c565b60405180910390fd5b60008160080160156101000a81548160ff02191690831515021790555061152d81613425565b600a60009054906101000a900473ffffffffffffffffffffffffffffffffffffffff1673ffffffffffffffffffffffffffffffffffffffff166323b872dd8260080160009054906101000a900473ffffffffffffffffffffffffffffffffffffffff168360070160009054906101000a900473ffffffffffffffffffffffffffffffffffffffff1684600301546040518463ffffffff1660e01b81526004016115d89392919061553f565b602060405180830381600087803b1580156115f257600080fd5b505af1158015611606573d6000803e3d6000fd5b505050506040513d601f19601f8201168201806040525081019061162a919061558b565b50600a60009054906101000a900473ffffffffffffffffffffffffffffffffffffffff1673ffffffffffffffffffffffffffffffffffffffff166323b872dd8260070160009054906101000a900473ffffffffffffffffffffffffffffffffffffffff168360080160009054906101000a900473ffffffffffffffffffffffffffffffffffffffff1684600601546040518463ffffffff1660e01b81526004016116d69392919061553f565b602060405180830381600087803b1580156116f057600080fd5b505af1158015611704573d6000803e3d6000fd5b505050506040513d601f19601f82011682018060405250810190611728919061558b565b5061173281613b20565b5050565b6060600460008373ffffffffffffffffffffffffffffffffffffffff1673ffffffffffffffffffffffffffffffffffffffff168152602001908152602001600020805480602002602001604051908101604052809291908181526020016000905b82821015611a7457838290600052602060002090600b0201604051806101e0016040529081600082015481526020016001820180548060200260200160405190810160405280929190818152602001828054801561181457602002820191906000526020600020905b815481526020019060010190808311611800575b505050505081526020016002820180548060200260200160405190810160405280929190818152602001828054801561186c57602002820191906000526020600020905b815481526020019060010190808311611858575b5050505050815260200160038201548152602001600482018054806020026020016040519081016040528092919081815260200182805480156118ce57602002820191906000526020600020905b8154815260200190600101908083116118ba575b505050505081526020016005820180548060200260200160405190810160405280929190818152602001828054801561192657602002820191906000526020600020905b815481526020019060010190808311611912575b50505050508152602001600682015481526020016007820160009054906101000a900473ffffffffffffffffffffffffffffffffffffffff1673ffffffffffffffffffffffffffffffffffffffff1673ffffffffffffffffffffffffffffffffffffffff1681526020016008820160009054906101000a900473ffffffffffffffffffffffffffffffffffffffff1673ffffffffffffffffffffffffffffffffffffffff1673ffffffffffffffffffffffffffffffffffffffff1681526020016008820160149054906101000a900460ff161515151581526020016008820160159054906101000a900460ff161515151581526020016008820160169054906101000a900460ff161515151581526020016008820160179054906101000a900460ff1615151515815260200160098201548152602001600a8201548152505081526020019060010190611797565b505050509050919050565b60006005600083815260200190815260200160002090503373ffffffffffffffffffffffffffffffffffffffff168160080160009054906101000a900473ffffffffffffffffffffffffffffffffffffffff1673ffffffffffffffffffffffffffffffffffffffff161480611b4357503373ffffffffffffffffffffffffffffffffffffffff168160070160009054906101000a900473ffffffffffffffffffffffffffffffffffffffff1673ffffffffffffffffffffffffffffffffffffffff16145b611b4c57600080fd5b611b55826133a1565b15611b95576040517f08c379a0000000000000000000000000000000000000000000000000000000008152600401611b8c90614f1c565b60405180910390fd5b8060080160179054906101000a900460ff1615611be7576040517f08c379a0000000000000000000000000000000000000000000000000000000008152600401611bde9061562a565b60405180910390fd5b8060080160169054906101000a900460ff16611c38576040517f08c379a0000000000000000000000000000000000000000000000000000000008152600401611c2f906156bc565b60405180910390fd5b6000600460008360070160009054906101000a900473ffffffffffffffffffffffffffffffffffffffff1673ffffffffffffffffffffffffffffffffffffffff1673ffffffffffffffffffffffffffffffffffffffff168152602001908152602001600020905034826006015414611ce5576040517f08c379a0000000000000000000000000000000000000000000000000000000008152600401611cdc9061574e565b60405180910390fd5b8160070160009054906101000a900473ffffffffffffffffffffffffffffffffffffffff1673ffffffffffffffffffffffffffffffffffffffff166108fc83600601549081150290604051600060405180830381858888f19350505050158015611d53573d6000803e3d6000fd5b5060005b81805490508110156124d2576000828281548110611d7857611d7761576e565b5b90600052602060002090600b0201604051806101e00160405290816000820154815260200160018201805480602002602001604051908101604052809291908181526020018280548015611deb57602002820191906000526020600020905b815481526020019060010190808311611dd7575b5050505050815260200160028201805480602002602001604051908101604052809291908181526020018280548015611e4357602002820191906000526020600020905b815481526020019060010190808311611e2f575b505050505081526020016003820154815260200160048201805480602002602001604051908101604052809291908181526020018280548015611ea557602002820191906000526020600020905b815481526020019060010190808311611e91575b5050505050815260200160058201805480602002602001604051908101604052809291908181526020018280548015611efd57602002820191906000526020600020905b815481526020019060010190808311611ee9575b50505050508152602001600682015481526020016007820160009054906101000a900473ffffffffffffffffffffffffffffffffffffffff1673ffffffffffffffffffffffffffffffffffffffff1673ffffffffffffffffffffffffffffffffffffffff1681526020016008820160009054906101000a900473ffffffffffffffffffffffffffffffffffffffff1673ffffffffffffffffffffffffffffffffffffffff1673ffffffffffffffffffffffffffffffffffffffff1681526020016008820160149054906101000a900460ff161515151581526020016008820160159054906101000a900460ff161515151581526020016008820160169054906101000a900460ff161515151581526020016008820160179054906101000a900460ff1615151515815260200160098201548152602001600a8201548152505090508360000154816000015114156124be578260018480549050612060919061579d565b815481106120715761207061576e565b5b90600052602060002090600b02018383815481106120925761209161576e565b5b90600052602060002090600b02016000820154816000015560018201816001019080546120c0929190614096565b5060028201816002019080546120d7929190614096565b506003820154816003015560048201816004019080546120f8929190614096565b50600582018160050190805461210f929190614096565b50600682015481600601556007820160009054906101000a900473ffffffffffffffffffffffffffffffffffffffff168160070160006101000a81548173ffffffffffffffffffffffffffffffffffffffff021916908373ffffffffffffffffffffffffffffffffffffffff1602179055506008820160009054906101000a900473ffffffffffffffffffffffffffffffffffffffff168160080160006101000a81548173ffffffffffffffffffffffffffffffffffffffff021916908373ffffffffffffffffffffffffffffffffffffffff1602179055506008820160149054906101000a900460ff168160080160146101000a81548160ff0219169083151502179055506008820160159054906101000a900460ff168160080160156101000a81548160ff0219169083151502179055506008820160169054906101000a900460ff168160080160166101000a81548160ff0219169083151502179055506008820160179054906101000a900460ff168160080160176101000a81548160ff02191690831515021790555060098201548160090155600a82015481600a015590505082600460008660070160009054906101000a900473ffffffffffffffffffffffffffffffffffffffff1673ffffffffffffffffffffffffffffffffffffffff1673ffffffffffffffffffffffffffffffffffffffff1681526020019081526020016000209080546123259291906140e8565b50600460008560070160009054906101000a900473ffffffffffffffffffffffffffffffffffffffff1673ffffffffffffffffffffffffffffffffffffffff1673ffffffffffffffffffffffffffffffffffffffff168152602001908152602001600020805480612399576123986157d1565b5b60019003818190600052602060002090600b02016000808201600090556001820160006123c69190614350565b6002820160006123d69190614350565b60038201600090556004820160006123ee9190614350565b6005820160006123fe9190614350565b60068201600090556007820160006101000a81549073ffffffffffffffffffffffffffffffffffffffff02191690556008820160006101000a81549073ffffffffffffffffffffffffffffffffffffffff02191690556008820160146101000a81549060ff02191690556008820160156101000a81549060ff02191690556008820160166101000a81549060ff02191690556008820160176101000a81549060ff02191690556009820160009055600a82016000905550509055506124d2565b5080806124ca90615800565b915050611d57565b5060005b6006805490508110156125a6576000600682815481106124f9576124f861576e565b5b9060005260206000200154905083600001548114156125925760066001600680549050612526919061579d565b815481106125375761253661576e565b5b9060005260206000200154600683815481106125565761255561576e565b5b90600052602060002001819055506006805480612576576125756157d1565b5b60019003818190600052602060002001600090559055506125a6565b50808061259e90615800565b9150506124d6565b50600560008481526020019081526020016000206000808201600090556001820160006125d39190614350565b6002820160006125e39190614350565b60038201600090556004820160006125fb9190614350565b60058201600061260b9190614350565b60068201600090556007820160006101000a81549073ffffffffffffffffffffffffffffffffffffffff02191690556008820160006101000a81549073ffffffffffffffffffffffffffffffffffffffff02191690556008820160146101000a81549060ff02191690556008820160156101000a81549060ff02191690556008820160166101000a81549060ff02191690556008820160176101000a81549060ff02191690556009820160009055600a8201600090555050505050565b60006005600083815260200190815260200160002090503373ffffffffffffffffffffffffffffffffffffffff168160080160009054906101000a900473ffffffffffffffffffffffffffffffffffffffff1673ffffffffffffffffffffffffffffffffffffffff16148061278c57503373ffffffffffffffffffffffffffffffffffffffff168160070160009054906101000a900473ffffffffffffffffffffffffffffffffffffffff1673ffffffffffffffffffffffffffffffffffffffff16145b61279557600080fd5b61279e826133a1565b156127de576040517f08c379a00000000000000000000000000000000000000000000000000000000081526004016127d590614f1c565b60405180910390fd5b8060080160179054906101000a900460ff1615612830576040517f08c379a00000000000000000000000000000000000000000000000000000000081526004016128279061562a565b60405180910390fd5b8060080160169054906101000a900460ff1615612882576040517f08c379a0000000000000000000000000000000000000000000000000000000008152600401612879906156bc565b60405180910390fd5b6000600460008360070160009054906101000a900473ffffffffffffffffffffffffffffffffffffffff1673ffffffffffffffffffffffffffffffffffffffff1673ffffffffffffffffffffffffffffffffffffffff168152602001908152602001600020905060005b818054905081101561306757600082828154811061290d5761290c61576e565b5b90600052602060002090600b0201604051806101e0016040529081600082015481526020016001820180548060200260200160405190810160405280929190818152602001828054801561298057602002820191906000526020600020905b81548152602001906001019080831161296c575b50505050508152602001600282018054806020026020016040519081016040528092919081815260200182805480156129d857602002820191906000526020600020905b8154815260200190600101908083116129c4575b505050505081526020016003820154815260200160048201805480602002602001604051908101604052809291908181526020018280548015612a3a57602002820191906000526020600020905b815481526020019060010190808311612a26575b5050505050815260200160058201805480602002602001604051908101604052809291908181526020018280548015612a9257602002820191906000526020600020905b815481526020019060010190808311612a7e575b50505050508152602001600682015481526020016007820160009054906101000a900473ffffffffffffffffffffffffffffffffffffffff1673ffffffffffffffffffffffffffffffffffffffff1673ffffffffffffffffffffffffffffffffffffffff1681526020016008820160009054906101000a900473ffffffffffffffffffffffffffffffffffffffff1673ffffffffffffffffffffffffffffffffffffffff1673ffffffffffffffffffffffffffffffffffffffff1681526020016008820160149054906101000a900460ff161515151581526020016008820160159054906101000a900460ff161515151581526020016008820160169054906101000a900460ff161515151581526020016008820160179054906101000a900460ff1615151515815260200160098201548152602001600a820154815250509050836000015481600001511415613053578260018480549050612bf5919061579d565b81548110612c0657612c0561576e565b5b90600052602060002090600b0201838381548110612c2757612c2661576e565b5b90600052602060002090600b0201600082015481600001556001820181600101908054612c55929190614096565b506002820181600201908054612c6c929190614096565b50600382015481600301556004820181600401908054612c8d929190614096565b506005820181600501908054612ca4929190614096565b50600682015481600601556007820160009054906101000a900473ffffffffffffffffffffffffffffffffffffffff168160070160006101000a81548173ffffffffffffffffffffffffffffffffffffffff021916908373ffffffffffffffffffffffffffffffffffffffff1602179055506008820160009054906101000a900473ffffffffffffffffffffffffffffffffffffffff168160080160006101000a81548173ffffffffffffffffffffffffffffffffffffffff021916908373ffffffffffffffffffffffffffffffffffffffff1602179055506008820160149054906101000a900460ff168160080160146101000a81548160ff0219169083151502179055506008820160159054906101000a900460ff168160080160156101000a81548160ff0219169083151502179055506008820160169054906101000a900460ff168160080160166101000a81548160ff0219169083151502179055506008820160179054906101000a900460ff168160080160176101000a81548160ff02191690831515021790555060098201548160090155600a82015481600a015590505082600460008660070160009054906101000a900473ffffffffffffffffffffffffffffffffffffffff1673ffffffffffffffffffffffffffffffffffffffff1673ffffffffffffffffffffffffffffffffffffffff168152602001908152602001600020908054612eba9291906140e8565b50600460008560070160009054906101000a900473ffffffffffffffffffffffffffffffffffffffff1673ffffffffffffffffffffffffffffffffffffffff1673ffffffffffffffffffffffffffffffffffffffff168152602001908152602001600020805480612f2e57612f2d6157d1565b5b60019003818190600052602060002090600b0201600080820160009055600182016000612f5b9190614350565b600282016000612f6b9190614350565b6003820160009055600482016000612f839190614350565b600582016000612f939190614350565b60068201600090556007820160006101000a81549073ffffffffffffffffffffffffffffffffffffffff02191690556008820160006101000a81549073ffffffffffffffffffffffffffffffffffffffff02191690556008820160146101000a81549060ff02191690556008820160156101000a81549060ff02191690556008820160166101000a81549060ff02191690556008820160176101000a81549060ff02191690556009820160009055600a8201600090555050905550613067565b50808061305f90615800565b9150506128ec565b5060005b60068054905081101561313b5760006006828154811061308e5761308d61576e565b5b90600052602060002001549050836000015481141561312757600660016006805490506130bb919061579d565b815481106130cc576130cb61576e565b5b9060005260206000200154600683815481106130eb576130ea61576e565b5b9060005260206000200181905550600680548061310b5761310a6157d1565b5b600190038181906000526020600020016000905590555061313b565b50808061313390615800565b91505061306b565b50600560008481526020019081526020016000206000808201600090556001820160006131689190614350565b6002820160006131789190614350565b60038201600090556004820160006131909190614350565b6005820160006131a09190614350565b60068201600090556007820160006101000a81549073ffffffffffffffffffffffffffffffffffffffff02191690556008820160006101000a81549073ffffffffffffffffffffffffffffffffffffffff02191690556008820160146101000a81549060ff02191690556008820160156101000a81549060ff02191690556008820160166101000a81549060ff02191690556008820160176101000a81549060ff02191690556009820160009055600a8201600090555050505050565b600a60009054906101000a900473ffffffffffffffffffffffffffffffffffffffff1681565b61328b613a54565b73ffffffffffffffffffffffffffffffffffffffff166132a96113c6565b73ffffffffffffffffffffffffffffffffffffffff16146132ff576040517f08c379a00000000000000000000000000000000000000000000000000000000081526004016132f690615269565b60405180910390fd5b600073ffffffffffffffffffffffffffffffffffffffff168173ffffffffffffffffffffffffffffffffffffffff16141561336f576040517f08c379a0000000000000000000000000000000000000000000000000000000008152600401613366906158bb565b60405180910390fd5b61337881613a5c565b50565b600960009054906101000a900473ffffffffffffffffffffffffffffffffffffffff1681565b6000806005600084815260200190815260200160002090508060080160169054906101000a900460ff1680156133e657508060080160179054906101000a900460ff16155b156133f5576000915050613420565b8060080160159054906101000a900460ff16613415576001915050613420565b4281600a0154109150505b919050565b60005b81600101805490508110156135a6578160080160009054906101000a900473ffffffffffffffffffffffffffffffffffffffff1673ffffffffffffffffffffffffffffffffffffffff16600860009054906101000a900473ffffffffffffffffffffffffffffffffffffffff1673ffffffffffffffffffffffffffffffffffffffff16636352211e8460010184815481106134c6576134c561576e565b5b90600052602060002001546040518263ffffffff1660e01b81526004016134ed91906158db565b60206040518083038186803b15801561350557600080fd5b505afa158015613519573d6000803e3d6000fd5b505050506040513d601f19601f8201168201806040525081019061353d919061590b565b73ffffffffffffffffffffffffffffffffffffffff1614613593576040517f08c379a000000000000000000000000000000000000000000000000000000000815260040161358a906159aa565b60405180910390fd5b808061359e90615800565b915050613428565b5060005b8160040180549050811015613728578160070160009054906101000a900473ffffffffffffffffffffffffffffffffffffffff1673ffffffffffffffffffffffffffffffffffffffff16600860009054906101000a900473ffffffffffffffffffffffffffffffffffffffff1673ffffffffffffffffffffffffffffffffffffffff16636352211e8460040184815481106136485761364761576e565b5b90600052602060002001546040518263ffffffff1660e01b815260040161366f91906158db565b60206040518083038186803b15801561368757600080fd5b505afa15801561369b573d6000803e3d6000fd5b505050506040513d601f19601f820116820180604052508101906136bf919061590b565b73ffffffffffffffffffffffffffffffffffffffff1614613715576040517f08c379a000000000000000000000000000000000000000000000000000000000815260040161370c90615a3c565b60405180910390fd5b808061372090615800565b9150506135aa565b5060005b81600201805490508110156138aa578160080160009054906101000a900473ffffffffffffffffffffffffffffffffffffffff1673ffffffffffffffffffffffffffffffffffffffff16600960009054906101000a900473ffffffffffffffffffffffffffffffffffffffff1673ffffffffffffffffffffffffffffffffffffffff16636352211e8460020184815481106137ca576137c961576e565b5b90600052602060002001546040518263ffffffff1660e01b81526004016137f191906158db565b60206040518083038186803b15801561380957600080fd5b505afa15801561381d573d6000803e3d6000fd5b505050506040513d601f19601f82011682018060405250810190613841919061590b565b73ffffffffffffffffffffffffffffffffffffffff1614613897576040517f08c379a000000000000000000000000000000000000000000000000000000000815260040161388e906159aa565b60405180910390fd5b80806138a290615800565b91505061372c565b5060005b8160050180549050811015613a2c578160070160009054906101000a900473ffffffffffffffffffffffffffffffffffffffff1673ffffffffffffffffffffffffffffffffffffffff16600960009054906101000a900473ffffffffffffffffffffffffffffffffffffffff1673ffffffffffffffffffffffffffffffffffffffff16636352211e84600501848154811061394c5761394b61576e565b5b90600052602060002001546040518263ffffffff1660e01b815260040161397391906158db565b60206040518083038186803b15801561398b57600080fd5b505afa15801561399f573d6000803e3d6000fd5b505050506040513d601f19601f820116820180604052508101906139c3919061590b565b73ffffffffffffffffffffffffffffffffffffffff1614613a19576040517f08c379a0000000000000000000000000000000000000000000000000000000008152600401613a1090615a3c565b60405180910390fd5b8080613a2490615800565b9150506138ae565b5050565b6001816000016000828254019250508190555050565b600081600001549050919050565b600033905090565b60008060009054906101000a900473ffffffffffffffffffffffffffffffffffffffff169050816000806101000a81548173ffffffffffffffffffffffffffffffffffffffff021916908373ffffffffffffffffffffffffffffffffffffffff1602179055508173ffffffffffffffffffffffffffffffffffffffff168173ffffffffffffffffffffffffffffffffffffffff167f8be0079c531659141344cd1fd0a4f28419497f9722a3daafe3b4186f6b6457e060405160405180910390a35050565b60005b8160010180549050811015613c3e57600860009054906101000a900473ffffffffffffffffffffffffffffffffffffffff1673ffffffffffffffffffffffffffffffffffffffff166342842e0e8360080160009054906101000a900473ffffffffffffffffffffffffffffffffffffffff168460070160009054906101000a900473ffffffffffffffffffffffffffffffffffffffff16856001018581548110613bd057613bcf61576e565b5b90600052602060002001546040518463ffffffff1660e01b8152600401613bf99392919061553f565b600060405180830381600087803b158015613c1357600080fd5b505af1158015613c27573d6000803e3d6000fd5b505050508080613c3690615800565b915050613b23565b5060005b8160040180549050811015613d5d57600860009054906101000a900473ffffffffffffffffffffffffffffffffffffffff1673ffffffffffffffffffffffffffffffffffffffff166342842e0e8360070160009054906101000a900473ffffffffffffffffffffffffffffffffffffffff168460080160009054906101000a900473ffffffffffffffffffffffffffffffffffffffff16856004018581548110613cef57613cee61576e565b5b90600052602060002001546040518463ffffffff1660e01b8152600401613d189392919061553f565b600060405180830381600087803b158015613d3257600080fd5b505af1158015613d46573d6000803e3d6000fd5b505050508080613d5590615800565b915050613c42565b5060005b8160020180549050811015613e7c57600960009054906101000a900473ffffffffffffffffffffffffffffffffffffffff1673ffffffffffffffffffffffffffffffffffffffff166342842e0e8360080160009054906101000a900473ffffffffffffffffffffffffffffffffffffffff168460070160009054906101000a900473ffffffffffffffffffffffffffffffffffffffff16856002018581548110613e0e57613e0d61576e565b5b90600052602060002001546040518463ffffffff1660e01b8152600401613e379392919061553f565b600060405180830381600087803b158015613e5157600080fd5b505af1158015613e65573d6000803e3d6000fd5b505050508080613e7490615800565b915050613d61565b5060005b8160050180549050811015613f9b57600960009054906101000a900473ffffffffffffffffffffffffffffffffffffffff1673ffffffffffffffffffffffffffffffffffffffff166342842e0e8360070160009054906101000a900473ffffffffffffffffffffffffffffffffffffffff168460080160009054906101000a900473ffffffffffffffffffffffffffffffffffffffff16856005018581548110613f2d57613f2c61576e565b5b90600052602060002001546040518463ffffffff1660e01b8152600401613f569392919061553f565b600060405180830381600087803b158015613f7057600080fd5b505af1158015613f84573d6000803e3d6000fd5b505050508080613f9390615800565b915050613e80565b5050565b828054828255906000526020600020908101928215613fdb579160200282015b82811115613fda578251825591602001919060010190613fbf565b5b509050613fe89190614371565b5090565b604051806101e0016040528060008152602001606081526020016060815260200160008152602001606081526020016060815260200160008152602001600073ffffffffffffffffffffffffffffffffffffffff168152602001600073ffffffffffffffffffffffffffffffffffffffff16815260200160001515815260200160001515815260200160001515815260200160001515815260200160008152602001600081525090565b8280548282559060005260206000209081019282156140d75760005260206000209182015b828111156140d65782548255916001019190600101906140bb565b5b5090506140e49190614371565b5090565b82805482825590600052602060002090600b02810192821561433f57600052602060002091600b0282015b8281111561433e57828260008201548160000155600182018160010190805461413d929190614096565b506002820181600201908054614154929190614096565b50600382015481600301556004820181600401908054614175929190614096565b50600582018160050190805461418c929190614096565b50600682015481600601556007820160009054906101000a900473ffffffffffffffffffffffffffffffffffffffff168160070160006101000a81548173ffffffffffffffffffffffffffffffffffffffff021916908373ffffffffffffffffffffffffffffffffffffffff1602179055506008820160009054906101000a900473ffffffffffffffffffffffffffffffffffffffff168160080160006101000a81548173ffffffffffffffffffffffffffffffffffffffff021916908373ffffffffffffffffffffffffffffffffffffffff1602179055506008820160149054906101000a900460ff168160080160146101000a81548160ff0219169083151502179055506008820160159054906101000a900460ff168160080160156101000a81548160ff0219169083151502179055506008820160169054906101000a900460ff168160080160166101000a81548160ff0219169083151502179055506008820160179054906101000a900460ff168160080160176101000a81548160ff02191690831515021790555060098201548160090155600a82015481600a0155505091600b019190600b0190614113565b5b50905061434c919061438e565b5090565b508054600082559060005260206000209081019061436e9190614371565b50565b5b8082111561438a576000816000905550600101614372565b5090565b5b808211156144a7576000808201600090556001820160006143b09190614350565b6002820160006143c09190614350565b60038201600090556004820160006143d89190614350565b6005820160006143e89190614350565b60068201600090556007820160006101000a81549073ffffffffffffffffffffffffffffffffffffffff02191690556008820160006101000a81549073ffffffffffffffffffffffffffffffffffffffff02191690556008820160146101000a81549060ff02191690556008820160156101000a81549060ff02191690556008820160166101000a81549060ff02191690556008820160176101000a81549060ff02191690556009820160009055600a82016000905550600b0161438f565b5090565b6000604051905090565b600080fd5b600080fd5b6000819050919050565b6144d2816144bf565b81146144dd57600080fd5b50565b6000813590506144ef816144c9565b92915050565b60006020828403121561450b5761450a6144b5565b5b6000614519848285016144e0565b91505092915050565b600073ffffffffffffffffffffffffffffffffffffffff82169050919050565b600061454d82614522565b9050919050565b61455d81614542565b811461456857600080fd5b50565b60008135905061457a81614554565b92915050565b600080fd5b6000601f19601f8301169050919050565b7f4e487b7100000000000000000000000000000000000000000000000000000000600052604160045260246000fd5b6145ce82614585565b810181811067ffffffffffffffff821117156145ed576145ec614596565b5b80604052505050565b60006146006144ab565b905061460c82826145c5565b919050565b600067ffffffffffffffff82111561462c5761462b614596565b5b602082029050602081019050919050565b600080fd5b600061465561465084614611565b6145f6565b905080838252602082019050602084028301858111156146785761467761463d565b5b835b818110156146a1578061468d88826144e0565b84526020840193505060208101905061467a565b5050509392505050565b600082601f8301126146c0576146bf614580565b5b81356146d0848260208601614642565b91505092915050565b60008115159050919050565b6146ee816146d9565b81146146f957600080fd5b50565b60008135905061470b816146e5565b92915050565b60008060008060008060008060006101208a8c031215614734576147336144b5565b5b60006147428c828d0161456b565b99505060208a013567ffffffffffffffff811115614763576147626144ba565b5b61476f8c828d016146ab565b98505060408a013567ffffffffffffffff8111156147905761478f6144ba565b5b61479c8c828d016146ab565b97505060606147ad8c828d016144e0565b96505060808a013567ffffffffffffffff8111156147ce576147cd6144ba565b5b6147da8c828d016146ab565b95505060a08a013567ffffffffffffffff8111156147fb576147fa6144ba565b5b6148078c828d016146ab565b94505060c06148188c828d016144e0565b93505060e06148298c828d016146fc565b92505061010061483b8c828d016144e0565b9150509295985092959850929598565b614854816144bf565b82525050565b600081519050919050565b600082825260208201905092915050565b6000819050602082019050919050565b6000614892838361484b565b60208301905092915050565b6000602082019050919050565b60006148b68261485a565b6148c08185614865565b93506148cb83614876565b8060005b838110156148fc5781516148e38882614886565b97506148ee8361489e565b9250506001810190506148cf565b5085935050505092915050565b61491281614542565b82525050565b614921816146d9565b82525050565b60006101e083016000830151614940600086018261484b565b506020830151848203602086015261495882826148ab565b9150506040830151848203604086015261497282826148ab565b9150506060830151614987606086018261484b565b506080830151848203608086015261499f82826148ab565b91505060a083015184820360a08601526149b982826148ab565b91505060c08301516149ce60c086018261484b565b5060e08301516149e160e0860182614909565b506101008301516149f6610100860182614909565b50610120830151614a0b610120860182614918565b50610140830151614a20610140860182614918565b50610160830151614a35610160860182614918565b50610180830151614a4a610180860182614918565b506101a0830151614a5f6101a086018261484b565b506101c0830151614a746101c086018261484b565b508091505092915050565b60006020820190508181036000830152614a998184614927565b905092915050565b600082825260208201905092915050565b6000614abd8261485a565b614ac78185614aa1565b9350614ad283614876565b8060005b83811015614b03578151614aea8882614886565b9750614af58361489e565b925050600181019050614ad6565b5085935050505092915050565b60006020820190508181036000830152614b2a8184614ab2565b905092915050565b6000614b3d82614522565b9050919050565b614b4d81614b32565b82525050565b6000602082019050614b686000830184614b44565b92915050565b614b7781614b32565b8114614b8257600080fd5b50565b600081359050614b9481614b6e565b92915050565b600060208284031215614bb057614baf6144b5565b5b6000614bbe84828501614b85565b91505092915050565b600081519050919050565b600082825260208201905092915050565b6000819050602082019050919050565b60006101e083016000830151614c0c600086018261484b565b5060208301518482036020860152614c2482826148ab565b91505060408301518482036040860152614c3e82826148ab565b9150506060830151614c53606086018261484b565b5060808301518482036080860152614c6b82826148ab565b91505060a083015184820360a0860152614c8582826148ab565b91505060c0830151614c9a60c086018261484b565b5060e0830151614cad60e0860182614909565b50610100830151614cc2610100860182614909565b50610120830151614cd7610120860182614918565b50610140830151614cec610140860182614918565b50610160830151614d01610160860182614918565b50610180830151614d16610180860182614918565b506101a0830151614d2b6101a086018261484b565b506101c0830151614d406101c086018261484b565b508091505092915050565b6000614d578383614bf3565b905092915050565b6000602082019050919050565b6000614d7782614bc7565b614d818185614bd2565b935083602082028501614d9385614be3565b8060005b85811015614dcf5784840389528151614db08582614d4b565b9450614dbb83614d5f565b925060208a01995050600181019050614d97565b50829750879550505050505092915050565b60006020820190508181036000830152614dfb8184614d6c565b905092915050565b614e0c816146d9565b82525050565b6000602082019050614e276000830184614e03565b92915050565b600082825260208201905092915050565b7f4f6e6c79206f666665726564206163636f756e742063616e206163636570742060008201527f6f66666572000000000000000000000000000000000000000000000000000000602082015250565b6000614e9a602583614e2d565b9150614ea582614e3e565b604082019050919050565b60006020820190508181036000830152614ec981614e8d565b9050919050565b7f4f66666572206861732065787069726564000000000000000000000000000000600082015250565b6000614f06601183614e2d565b9150614f1182614ed0565b602082019050919050565b60006020820190508181036000830152614f3581614ef9565b9050919050565b7f4d7573742073656e6420636f727265637420616d6f756e74206f66204554482060008201527f746f2074686520736d61727420636f6e747261637420666f7220686f6c64696e60208201527f6700000000000000000000000000000000000000000000000000000000000000604082015250565b6000614fbe604183614e2d565b9150614fc982614f3c565b606082019050919050565b60006020820190508181036000830152614fed81614fb1565b9050919050565b7f4f6666657220697320616c726561647920616363657074656420616e6420617060008201527f70726f7665640000000000000000000000000000000000000000000000000000602082015250565b6000615050602683614e2d565b915061505b82614ff4565b604082019050919050565b6000602082019050818103600083015261507f81615043565b9050919050565b7f4f6666657265642070617274792068617320616c72656164792061636365707460008201527f65642c207761697420666f7220746865206f726967696e616c206f666665726560208201527f7220746f206d616b652066696e616c20617070726f76616c0000000000000000604082015250565b6000615108605883614e2d565b915061511382615086565b606082019050919050565b60006020820190508181036000830152615137816150fb565b9050919050565b7f4e487b7100000000000000000000000000000000000000000000000000000000600052601160045260246000fd5b6000615178826144bf565b9150615183836144bf565b9250817fffffffffffffffffffffffffffffffffffffffffffffffffffffffffffffffff04831182151516156151bc576151bb61513e565b5b828202905092915050565b60006151d2826144bf565b91506151dd836144bf565b9250827fffffffffffffffffffffffffffffffffffffffffffffffffffffffffffffffff038211156152125761521161513e565b5b828201905092915050565b7f4f776e61626c653a2063616c6c6572206973206e6f7420746865206f776e6572600082015250565b6000615253602083614e2d565b915061525e8261521d565b602082019050919050565b6000602082019050818103600083015261528281615246565b9050919050565b7f4f6e6c79206f66666572696e67206163636f756e742063616e206d616b65206660008201527f696e616c20617070726f76616c00000000000000000000000000000000000000602082015250565b60006152e5602d83614e2d565b91506152f082615289565b604082019050919050565b60006020820190508181036000830152615314816152d8565b9050919050565b7f4f666665726564207061727479206d75737420616363657074206265666f726560008201527f2066696e616c20617070726f76616c0000000000000000000000000000000000602082015250565b6000615377602f83614e2d565b91506153828261531b565b604082019050919050565b600060208201905081810360008301526153a68161536a565b9050919050565b7f4f66666572696e672070617274792068617320616c726561647920616363657060008201527f7465640000000000000000000000000000000000000000000000000000000000602082015250565b6000615409602383614e2d565b9150615414826153ad565b604082019050919050565b60006020820190508181036000830152615438816153fc565b9050919050565b7f4d7573742073656e6420636f727265637420616d6f756e74206f66204554482060008201527f746f20746865206f666665726564207061727479000000000000000000000000602082015250565b600061549b603483614e2d565b91506154a68261543f565b604082019050919050565b600060208201905081810360008301526154ca8161548e565b9050919050565b6000819050919050565b60006154f66154f16154ec84614522565b6154d1565b614522565b9050919050565b6000615508826154db565b9050919050565b600061551a826154fd565b9050919050565b61552a8161550f565b82525050565b615539816144bf565b82525050565b60006060820190506155546000830186615521565b6155616020830185615521565b61556e6040830184615530565b949350505050565b600081519050615585816146e5565b92915050565b6000602082840312156155a1576155a06144b5565b5b60006155af84828501615576565b91505092915050565b7f43616e6e6f7420726567756c61722063616e63656c207768656e2066726f6d2060008201527f7061727479206861732061636365707465640000000000000000000000000000602082015250565b6000615614603283614e2d565b915061561f826155b8565b604082019050919050565b6000602082019050818103600083015261564381615607565b9050919050565b7f43616e6e6f7420726567756c61722063616e63656c207768656e20746f20706160008201527f7274792068617320616363657074656400000000000000000000000000000000602082015250565b60006156a6603083614e2d565b91506156b18261564a565b604082019050919050565b600060208201905081810360008301526156d581615699565b9050919050565b7f4d7573742073656e6420636f727265637420616d6f756e74206f66204554482060008201527f746f206f776e6572206f66206c697374696e6700000000000000000000000000602082015250565b6000615738603383614e2d565b9150615743826156dc565b604082019050919050565b600060208201905081810360008301526157678161572b565b9050919050565b7f4e487b7100000000000000000000000000000000000000000000000000000000600052603260045260246000fd5b60006157a8826144bf565b91506157b3836144bf565b9250828210156157c6576157c561513e565b5b828203905092915050565b7f4e487b7100000000000000000000000000000000000000000000000000000000600052603160045260246000fd5b600061580b826144bf565b91507fffffffffffffffffffffffffffffffffffffffffffffffffffffffffffffffff82141561583e5761583d61513e565b5b600182019050919050565b7f4f776e61626c653a206e6577206f776e657220697320746865207a65726f206160008201527f6464726573730000000000000000000000000000000000000000000000000000602082015250565b60006158a5602683614e2d565b91506158b082615849565b604082019050919050565b600060208201905081810360008301526158d481615898565b9050919050565b60006020820190506158f06000830184615530565b92915050565b60008151905061590581614b6e565b92915050565b600060208284031215615921576159206144b5565b5b600061592f848285016158f6565b91505092915050565b7f4f666665726564206163636f756e74206d757374206f776e20616c6c2072657160008201527f756573746564204e465473000000000000000000000000000000000000000000602082015250565b6000615994602b83614e2d565b915061599f82615938565b604082019050919050565b600060208201905081810360008301526159c381615987565b9050919050565b7f4f66666572696e67206163636f756e74206d757374206f776e20616c6c206f6660008201527f6665726564204e46547300000000000000000000000000000000000000000000602082015250565b6000615a26602a83614e2d565b9150615a31826159ca565b604082019050919050565b60006020820190508181036000830152615a5581615a19565b905091905056fea26469706673582212203cc92012967aaec6b41b09351dc7aef16b43777db02647c6106db249ae84555264736f6c63430008090033",
  "immutableReferences": {},
  "source": "pragma solidity ^0.8.0;\n\nimport \"@openzeppelin/contracts/access/Ownable.sol\";\nimport \"@openzeppelin/contracts/token/ERC721/ERC721.sol\";\nimport \"@openzeppelin/contracts/token/ERC20/IERC20.sol\";\nimport \"@openzeppelin/contracts/token/ERC20/ERC20.sol\";\nimport \"@openzeppelin/contracts/token/ERC721/IERC721.sol\";\nimport \"@openzeppelin/contracts/utils/Counters.sol\";\n\nimport \"./ViridianNFT.sol\";\nimport \"./ViridianPack.sol\";\n\ncontract ViridianExchangeOffers is Ownable {\n\n    using Counters for Counters.Counter;\n    Counters.Counter private _offerIds;\n\n    ViridianNFT vNFT;\n    ViridianPack vPack;\n\n    struct Offer {\n        uint256 offerId;\n        uint256[] toNftIds;\n        uint256[] toPackIds;\n        uint toAmt;\n        uint256[] fromNftIds;\n        uint256[] fromPackIds;\n        uint fromAmt;\n        address payable to;\n        address payable from;\n        bool isVEXT;\n        bool pending;\n        bool toAccepted;\n        bool fromAccepted;\n        uint256 startTime;\n        uint256 endTime;\n    }\n\n    mapping (address => Offer[]) userOffers;\n    mapping (uint256 => Offer) offers;\n    uint256[] private offerIds;\n    mapping (uint256 => uint256) highestCardOffer;\n\n    address public viridianNFT;\n    address public viridianPack;\n    address public viridianToken;\n\n    constructor(address _viridianToken, address _viridianNFT, address _viridianPack) {\n        require(address(_viridianToken) != address(0));\n        require(address(_viridianNFT) != address(0));\n        require(address(_viridianPack) != address(0));\n\n        viridianToken = _viridianToken;\n        //address _ETH, ETH = _ETH;\n        viridianNFT = _viridianNFT;\n        viridianPack = _viridianPack;\n\n        vNFT = ViridianNFT(_viridianNFT);\n        vPack = ViridianPack(_viridianPack);\n    }\n\n    function getOffers() public view returns (uint256[] memory) {\n        return offerIds;\n    }\n\n    function getOffersFromId(uint256 _offerId) public view returns (Offer memory) {\n        return offers[_offerId];\n    }\n\n    function getOffersFromUser(address _userAddr) public view returns (Offer[] memory) {\n        return userOffers[_userAddr];\n    }\n\n    function hasOfferExpired(uint256 _offerId) public view returns (bool) {\n        Offer storage curOffer = offers[_offerId];\n\n        // Always return false if the current offer is pending final approval\n        if (curOffer.toAccepted && !curOffer.fromAccepted) {\n            return false;\n        }\n\n        if (!curOffer.pending) {\n            return true;\n        }\n        else {\n            return curOffer.endTime < block.timestamp;\n        }\n    }\n\n    function makeOffer(address payable _to, uint256[] memory _nftIds, uint256[] memory _packIds, uint256 _amount, uint256[] memory _recNftIds, uint256[] memory _recPackIds, uint256 _recAmount, bool isVEXT, uint256 _daysValid) public {\n        require(_to != msg.sender);\n\n        // if(!IERC721(viridianNFT).isApprovedForAll(msg.sender, address(this))) {\n        //     IERC721(viridianNFT).setApprovalForAll(address(this), true);\n        // }\n\n        _offerIds.increment();\n        uint256 _offerId = _offerIds.current();\n\n        uint256 endTime = block.timestamp + (_daysValid * 1 days);\n\n        Offer memory newOffer = Offer(_offerId, _nftIds, _packIds, _amount, _recNftIds, _recPackIds, _recAmount, _to, payable(msg.sender), isVEXT, true, false, false, block.timestamp, endTime);\n        \n        userOffers[_to].push(newOffer);\n        userOffers[msg.sender].push(newOffer);\n        offers[_offerId] = newOffer;\n        offerIds.push(_offerId);\n    }\n\n    function cancelOffer(uint256 _offerId) public {\n        Offer storage curOffer = offers[_offerId];\n        require(curOffer.from == msg.sender || curOffer.to == msg.sender);\n        require(!hasOfferExpired(_offerId), \"Offer has expired\");\n        require(!curOffer.fromAccepted, \"Cannot regular cancel when from party has accepted\");\n        require(!curOffer.toAccepted, \"Cannot regular cancel when to party has accepted\");\n\n        Offer[] storage curUserOffers = userOffers[curOffer.to];\n        \n        //TODO: Check who is cancelling and cancel that person's offers.\n\n        // Remove offer from current user's offers\n        for (uint i = 0; i < curUserOffers.length; i++) {\n            Offer memory offer = curUserOffers[i];\n            if (offer.offerId == curOffer.offerId) {\n                curUserOffers[i] = curUserOffers[curUserOffers.length - 1];\n                userOffers[curOffer.to] = curUserOffers;\n                userOffers[curOffer.to].pop();\n                break;\n            }\n        } \n\n        // Remove offer id from global list of offer ids\n        for (uint256 i = 0; i < offerIds.length; i++) {\n            uint256 offerId = offerIds[i];\n            if (offerId == curOffer.offerId) {\n                offerIds[i] = offerIds[offerIds.length - 1];\n                offerIds.pop();\n                break;\n            }\n        }\n\n        // Remove offer from global mapping of offers\n        delete offers[_offerId];\n    }\n\n    function cancelAcceptedETHOffer(uint256 _offerId) public payable {\n        Offer storage curOffer = offers[_offerId];\n        require(curOffer.from == msg.sender || curOffer.to == msg.sender);\n        require(!hasOfferExpired(_offerId), \"Offer has expired\");\n        require(!curOffer.fromAccepted, \"Cannot regular cancel when from party has accepted\");\n        require(curOffer.toAccepted, \"Cannot regular cancel when to party has accepted\");\n        Offer[] storage curUserOffers = userOffers[curOffer.to];\n        \n        //TODO: Check who is cancelling and cancel that person's offers.\n\n        //Send money back to acceptor\n        require(curOffer.fromAmt == msg.value, \"Must send correct amount of ETH to owner of listing\");\n            curOffer.to.transfer(curOffer.fromAmt);\n\n        // Remove offer from current user's offers\n        for (uint i = 0; i < curUserOffers.length; i++) {\n            Offer memory offer = curUserOffers[i];\n            if (offer.offerId == curOffer.offerId) {\n                curUserOffers[i] = curUserOffers[curUserOffers.length - 1];\n                userOffers[curOffer.to] = curUserOffers;\n                userOffers[curOffer.to].pop();\n                break;\n            }\n        } \n\n        // Remove offer id from global list of offer ids\n        for (uint256 i = 0; i < offerIds.length; i++) {\n            uint256 offerId = offerIds[i];\n            if (offerId == curOffer.offerId) {\n                offerIds[i] = offerIds[offerIds.length - 1];\n                offerIds.pop();\n                break;\n            }\n        }\n\n        // Remove offer from global mapping of offers\n        delete offers[_offerId];\n    }\n\n    function doOfferingPartiesOwnContents(Offer storage _curOffer) private view {\n        for (uint i = 0; i < _curOffer.toNftIds.length; i++) {\n            require(IERC721(viridianNFT).ownerOf(_curOffer.toNftIds[i]) == _curOffer.from, \"Offered account must own all requested NFTs\");\n        }\n\n        for (uint i = 0; i < _curOffer.fromNftIds.length; i++) {\n            require(IERC721(viridianNFT).ownerOf(_curOffer.fromNftIds[i]) == _curOffer.to, \"Offering account must own all offered NFTs\");\n        }\n\n        for (uint i = 0; i < _curOffer.toPackIds.length; i++) {\n            require(IERC721(viridianPack).ownerOf(_curOffer.toPackIds[i]) == _curOffer.from, \"Offered account must own all requested NFTs\");\n        }\n\n        for (uint i = 0; i < _curOffer.fromPackIds.length; i++) {\n            require(IERC721(viridianPack).ownerOf(_curOffer.fromPackIds[i]) == _curOffer.to, \"Offering account must own all offered NFTs\");\n        }\n    }\n\n    function transferAllOfferContents(Offer storage _curOffer) private {\n        // Loop through all of the to items in the offer.\n        for (uint i = 0; i < _curOffer.toNftIds.length; i++) {\n            //IERC721(viridianNFT).approve(curOffer.to, curOffer.fromNftIds[i]);\n            IERC721(viridianNFT).safeTransferFrom(_curOffer.from, _curOffer.to, _curOffer.toNftIds[i]);\n        }\n\n        // Loop through all of the from items in the offer.\n        for (uint i = 0; i < _curOffer.fromNftIds.length; i++) {\n            //IERC721(viridianNFT).approve(curOffer.to, curOffer.fromNftIds[i]);\n            IERC721(viridianNFT).safeTransferFrom(_curOffer.to, _curOffer.from, _curOffer.fromNftIds[i]);\n        }\n\n        for (uint i = 0; i < _curOffer.toPackIds.length; i++) {\n            //IERC721(viridianNFT).approve(curOffer.to, curOffer.fromNftIds[i]);\n            IERC721(viridianPack).safeTransferFrom(_curOffer.from, _curOffer.to, _curOffer.toPackIds[i]);\n        }\n\n        // Loop through all of the from items in the offer.\n        for (uint i = 0; i < _curOffer.fromPackIds.length; i++) {\n            //IERC721(viridianNFT).approve(curOffer.to, curOffer.fromNftIds[i]);\n            IERC721(viridianPack).safeTransferFrom(_curOffer.to, _curOffer.from, _curOffer.fromPackIds[i]);\n        }\n    }\n    \n    function acceptOfferWithVEXT(uint256 _offerId) public {\n        Offer storage curOffer = offers[_offerId];\n\n        require(curOffer.to == msg.sender, \"Only offered account can accept offer\");\n        require(!hasOfferExpired(_offerId), \"Offer has expired\");\n\n        curOffer.pending = false;\n\n        doOfferingPartiesOwnContents(curOffer);\n\n        // if(!IERC721(viridianNFT).isApprovedForAll(msg.sender, address(this))) {\n        //     IERC721(viridianNFT).setApprovalForAll(address(this), true);\n        // }\n\n        IERC20(viridianToken).transferFrom(curOffer.from, curOffer.to, curOffer.toAmt);\n        IERC20(viridianToken).transferFrom(curOffer.to, curOffer.from, curOffer.fromAmt);\n\n        transferAllOfferContents(curOffer);\n    }\n\n    function acceptOfferWithETH(uint256 _offerId) public payable {\n        Offer storage curOffer = offers[_offerId];\n\n        require(curOffer.to == msg.sender, \"Only offered account can accept offer\");\n        require(!hasOfferExpired(_offerId), \"Offer has expired\");\n        require(curOffer.fromAmt == msg.value, \"Must send correct amount of ETH to the smart contract for holding\");\n        require(!curOffer.fromAccepted, \"Offer is already accepted and approved\");\n        require(!curOffer.toAccepted, \"Offered party has already accepted, wait for the original offerer to make final approval\");\n\n        //curOffer.pending = true;\n        curOffer.toAccepted = true;\n\n        doOfferingPartiesOwnContents(curOffer);\n\n        // if(!IERC721(viridianNFT).isApprovedForAll(msg.sender, address(this))) {\n        //     IERC721(viridianNFT).setApprovalForAll(address(this), true);\n        // }\n\n        // IERC20(viridianToken).transferFrom(curOffer.from, curOffer.to, curOffer.toAmt);\n        // IERC20(viridianToken).transferFrom(curOffer.to, curOffer.from, curOffer.fromAmt);\n\n        // // Loop through all of the to items in the offer.\n        // for (uint i = 0; i < curOffer.toNftIds.length; i++) {\n        //     //IERC721(viridianNFT).approve(curOffer.to, curOffer.fromNftIds[i]);\n        //     IERC721(viridianNFT).safeTransferFrom(curOffer.from, curOffer.to, curOffer.toNftIds[i]);\n        // }\n\n        // // Loop through all of the from items in the offer.\n        // for (uint i = 0; i < curOffer.fromNftIds.length; i++) {\n        //     //IERC721(viridianNFT).approve(curOffer.to, curOffer.fromNftIds[i]);\n        //     IERC721(viridianNFT).safeTransferFrom(curOffer.to, curOffer.from, curOffer.fromNftIds[i]);\n        // }\n\n        // for (uint i = 0; i < curOffer.toPackIds.length; i++) {\n        //     //IERC721(viridianNFT).approve(curOffer.to, curOffer.fromNftIds[i]);\n        //     IERC721(viridianPack).safeTransferFrom(curOffer.from, curOffer.to, curOffer.toPackIds[i]);\n        // }\n\n        // // Loop through all of the from items in the offer.\n        // for (uint i = 0; i < curOffer.fromPackIds.length; i++) {\n        //     //IERC721(viridianNFT).approve(curOffer.to, curOffer.fromNftIds[i]);\n        //     IERC721(viridianPack).safeTransferFrom(curOffer.to, curOffer.from, curOffer.fromPackIds[i]);\n        // }\n    }\n\n    function finalApprovalWithETH(uint256 _offerId) public payable {\n        Offer storage curOffer = offers[_offerId];\n\n        require(curOffer.from == msg.sender, \"Only offering account can make final approval\");\n        require(curOffer.toAccepted, \"Offered party must accept before final approval\");\n        require(!curOffer.fromAccepted, \"Offering party has already accepted\");\n        require(!hasOfferExpired(_offerId), \"Offer has expired\");\n\n        curOffer.pending = false;\n        curOffer.fromAccepted = true;\n\n        doOfferingPartiesOwnContents(curOffer);\n\n        // if(!IERC721(viridianNFT).isApprovedForAll(msg.sender, address(this))) {\n        //     IERC721(viridianNFT).setApprovalForAll(address(this), true);\n        // }\n\n        // Transfer held ETH in smart contract to caller.\n        curOffer.from.transfer(curOffer.fromAmt);\n        \n        // Transfer to ETH to offered party.\n        require(curOffer.toAmt == msg.value, \"Must send correct amount of ETH to the offered party\");\n        curOffer.to.transfer(msg.value);\n\n\n        // IERC20(viridianToken).transferFrom(curOffer.from, curOffer.to, curOffer.toAmt);\n        // IERC20(viridianToken).transferFrom(curOffer.to, curOffer.from, curOffer.fromAmt);\n\n        // Loop through all of the to items in the offer.\n        transferAllOfferContents(curOffer);\n    }\n\n    receive() external payable {}\n}",
  "sourcePath": "/Users/blakehatch/Viridian-Exchange-Contracts/contracts/ViridianExchangeOffers.sol",
  "compiler": {
    "name": "solc",
    "version": "0.8.9+commit.e5eed63a.Emscripten.clang"
  },
  "schemaVersion": "3.4.1",
  "updatedAt": "2021-10-13T17:35:13.927Z",
  "networkType": "ethereum",
  "devdoc": {
    "kind": "dev",
    "methods": {
      "owner()": {
        "details": "Returns the address of the current owner."
      },
      "renounceOwnership()": {
        "details": "Leaves the contract without owner. It will not be possible to call `onlyOwner` functions anymore. Can only be called by the current owner. NOTE: Renouncing ownership will leave the contract without an owner, thereby removing any functionality that is only available to the owner."
      },
      "transferOwnership(address)": {
        "details": "Transfers ownership of the contract to a new account (`newOwner`). Can only be called by the current owner."
      }
    },
    "version": 1
  },
  "userdoc": {
    "kind": "user",
    "methods": {},
    "version": 1
  }
}