{
  "contractName": "ViridianExchange",
  "abi": [
    {
      "inputs": [
        {
          "internalType": "address",
          "name": "_erc20Token",
          "type": "address"
        },
        {
          "internalType": "address",
          "name": "_viridianNFT",
          "type": "address"
        },
        {
          "internalType": "address",
          "name": "_viridianPack",
          "type": "address"
        }
      ],
      "stateMutability": "nonpayable",
      "type": "constructor"
    },
    {
      "anonymous": false,
      "inputs": [
        {
          "indexed": false,
          "internalType": "uint256",
          "name": "tokenId",
          "type": "uint256"
        },
        {
          "indexed": false,
          "internalType": "string",
          "name": "uri",
          "type": "string"
        },
        {
          "indexed": false,
          "internalType": "address",
          "name": "wallet",
          "type": "address"
        },
        {
          "indexed": false,
          "internalType": "bool",
          "name": "listed",
          "type": "bool"
        }
      ],
      "name": "ItemListed",
      "type": "event"
    },
    {
      "anonymous": false,
      "inputs": [
        {
          "indexed": false,
          "internalType": "uint256",
          "name": "tokenId",
          "type": "uint256"
        },
        {
          "indexed": false,
          "internalType": "string",
          "name": "uri",
          "type": "string"
        },
        {
          "indexed": false,
          "internalType": "address",
          "name": "wallet",
          "type": "address"
        },
        {
          "indexed": false,
          "internalType": "bool",
          "name": "listed",
          "type": "bool"
        }
      ],
      "name": "ItemUnlisted",
      "type": "event"
    },
    {
      "anonymous": false,
      "inputs": [
        {
          "indexed": true,
          "internalType": "address",
          "name": "previousOwner",
          "type": "address"
        },
        {
          "indexed": true,
          "internalType": "address",
          "name": "newOwner",
          "type": "address"
        }
      ],
      "name": "OwnershipTransferred",
      "type": "event"
    },
    {
      "anonymous": false,
      "inputs": [
        {
          "indexed": false,
          "internalType": "uint256",
          "name": "tokenId",
          "type": "uint256"
        },
        {
          "indexed": false,
          "internalType": "string",
          "name": "uri",
          "type": "string"
        },
        {
          "indexed": false,
          "internalType": "address",
          "name": "wallet",
          "type": "address"
        },
        {
          "indexed": false,
          "internalType": "bool",
          "name": "purchased",
          "type": "bool"
        }
      ],
      "name": "PurchasedListing",
      "type": "event"
    },
    {
      "inputs": [
        {
          "internalType": "address",
          "name": "",
          "type": "address"
        }
      ],
      "name": "approvedTokens",
      "outputs": [
        {
          "internalType": "bool",
          "name": "",
          "type": "bool"
        }
      ],
      "stateMutability": "view",
      "type": "function",
      "constant": true
    },
    {
      "inputs": [
        {
          "internalType": "address",
          "name": "forwarder",
          "type": "address"
        }
      ],
      "name": "isTrustedForwarder",
      "outputs": [
        {
          "internalType": "bool",
          "name": "",
          "type": "bool"
        }
      ],
      "stateMutability": "view",
      "type": "function",
      "constant": true
    },
    {
      "inputs": [],
      "name": "owner",
      "outputs": [
        {
          "internalType": "address",
          "name": "",
          "type": "address"
        }
      ],
      "stateMutability": "view",
      "type": "function",
      "constant": true
    },
    {
      "inputs": [],
      "name": "renounceOwnership",
      "outputs": [],
      "stateMutability": "nonpayable",
      "type": "function"
    },
    {
      "inputs": [
        {
          "internalType": "address",
          "name": "newOwner",
          "type": "address"
        }
      ],
      "name": "transferOwnership",
      "outputs": [],
      "stateMutability": "nonpayable",
      "type": "function"
    },
    {
      "inputs": [],
      "name": "trustedForwarder",
      "outputs": [
        {
          "internalType": "address",
          "name": "",
          "type": "address"
        }
      ],
      "stateMutability": "view",
      "type": "function",
      "constant": true
    },
    {
      "inputs": [],
      "name": "versionRecipient",
      "outputs": [
        {
          "internalType": "string",
          "name": "",
          "type": "string"
        }
      ],
      "stateMutability": "view",
      "type": "function",
      "constant": true
    },
    {
      "inputs": [],
      "name": "viridianNFT",
      "outputs": [
        {
          "internalType": "address",
          "name": "",
          "type": "address"
        }
      ],
      "stateMutability": "view",
      "type": "function",
      "constant": true
    },
    {
      "inputs": [],
      "name": "viridianPack",
      "outputs": [
        {
          "internalType": "address",
          "name": "",
          "type": "address"
        }
      ],
      "stateMutability": "view",
      "type": "function",
      "constant": true
    },
    {
      "inputs": [
        {
          "internalType": "address",
          "name": "_forwarder",
          "type": "address"
        }
      ],
      "name": "setTrustedForwarder",
      "outputs": [],
      "stateMutability": "nonpayable",
      "type": "function"
    },
    {
      "inputs": [
        {
          "internalType": "address",
          "name": "_erc20Address",
          "type": "address"
        }
      ],
      "name": "addERC20Token",
      "outputs": [],
      "stateMutability": "nonpayable",
      "type": "function"
    },
    {
      "inputs": [
        {
          "internalType": "address",
          "name": "_erc20Address",
          "type": "address"
        }
      ],
      "name": "isTokenApproved",
      "outputs": [
        {
          "internalType": "bool",
          "name": "",
          "type": "bool"
        }
      ],
      "stateMutability": "view",
      "type": "function",
      "constant": true
    },
    {
      "inputs": [],
      "name": "getBalance",
      "outputs": [
        {
          "internalType": "uint256",
          "name": "",
          "type": "uint256"
        }
      ],
      "stateMutability": "view",
      "type": "function",
      "constant": true
    },
    {
      "inputs": [],
      "name": "getListings",
      "outputs": [
        {
          "internalType": "uint256[]",
          "name": "",
          "type": "uint256[]"
        }
      ],
      "stateMutability": "view",
      "type": "function",
      "constant": true
    },
    {
      "inputs": [
        {
          "internalType": "uint256",
          "name": "_listingId",
          "type": "uint256"
        }
      ],
      "name": "getListingFromId",
      "outputs": [
        {
          "components": [
            {
              "internalType": "uint256",
              "name": "listingId",
              "type": "uint256"
            },
            {
              "internalType": "uint256",
              "name": "tokenId",
              "type": "uint256"
            },
            {
              "internalType": "address",
              "name": "owner",
              "type": "address"
            },
            {
              "internalType": "uint256",
              "name": "price",
              "type": "uint256"
            },
            {
              "internalType": "bool",
              "name": "purchased",
              "type": "bool"
            },
            {
              "internalType": "uint256",
              "name": "royalty",
              "type": "uint256"
            },
            {
              "internalType": "uint256",
              "name": "endTime",
              "type": "uint256"
            },
            {
              "internalType": "bool",
              "name": "sold",
              "type": "bool"
            },
            {
              "internalType": "address",
              "name": "erc20Address",
              "type": "address"
            },
            {
              "internalType": "bool",
              "name": "isVNFT",
              "type": "bool"
            },
            {
              "internalType": "uint256",
              "name": "timeListed",
              "type": "uint256"
            }
          ],
          "internalType": "struct ViridianExchange.Listing",
          "name": "",
          "type": "tuple"
        }
      ],
      "stateMutability": "view",
      "type": "function",
      "constant": true
    },
    {
      "inputs": [
        {
          "internalType": "address",
          "name": "_userAddr",
          "type": "address"
        }
      ],
      "name": "getListingsFromUser",
      "outputs": [
        {
          "components": [
            {
              "internalType": "uint256",
              "name": "listingId",
              "type": "uint256"
            },
            {
              "internalType": "uint256",
              "name": "tokenId",
              "type": "uint256"
            },
            {
              "internalType": "address",
              "name": "owner",
              "type": "address"
            },
            {
              "internalType": "uint256",
              "name": "price",
              "type": "uint256"
            },
            {
              "internalType": "bool",
              "name": "purchased",
              "type": "bool"
            },
            {
              "internalType": "uint256",
              "name": "royalty",
              "type": "uint256"
            },
            {
              "internalType": "uint256",
              "name": "endTime",
              "type": "uint256"
            },
            {
              "internalType": "bool",
              "name": "sold",
              "type": "bool"
            },
            {
              "internalType": "address",
              "name": "erc20Address",
              "type": "address"
            },
            {
              "internalType": "bool",
              "name": "isVNFT",
              "type": "bool"
            },
            {
              "internalType": "uint256",
              "name": "timeListed",
              "type": "uint256"
            }
          ],
          "internalType": "struct ViridianExchange.Listing[]",
          "name": "",
          "type": "tuple[]"
        }
      ],
      "stateMutability": "view",
      "type": "function",
      "constant": true
    },
    {
      "inputs": [
        {
          "internalType": "uint256",
          "name": "_nftId",
          "type": "uint256"
        }
      ],
      "name": "getNftOwner",
      "outputs": [
        {
          "internalType": "address",
          "name": "",
          "type": "address"
        }
      ],
      "stateMutability": "view",
      "type": "function",
      "constant": true
    },
    {
      "inputs": [
        {
          "internalType": "uint256",
          "name": "_nftId",
          "type": "uint256"
        }
      ],
      "name": "getPackOwner",
      "outputs": [
        {
          "internalType": "address",
          "name": "",
          "type": "address"
        }
      ],
      "stateMutability": "view",
      "type": "function",
      "constant": true
    },
    {
      "inputs": [
        {
          "internalType": "uint256",
          "name": "_nftId",
          "type": "uint256"
        },
        {
          "internalType": "uint256",
          "name": "_price",
          "type": "uint256"
        },
        {
          "internalType": "uint256",
          "name": "_royalty",
          "type": "uint256"
        },
        {
          "internalType": "uint256",
          "name": "_endTime",
          "type": "uint256"
        },
        {
          "internalType": "address",
          "name": "_erc20Address",
          "type": "address"
        },
        {
          "internalType": "bool",
          "name": "_isVNFT",
          "type": "bool"
        }
      ],
      "name": "putUpForSale",
      "outputs": [],
      "stateMutability": "nonpayable",
      "type": "function"
    },
    {
      "inputs": [
        {
          "internalType": "uint256",
          "name": "_listingId",
          "type": "uint256"
        },
        {
          "internalType": "uint256",
          "name": "_newPrice",
          "type": "uint256"
        }
      ],
      "name": "changeSalePrice",
      "outputs": [],
      "stateMutability": "nonpayable",
      "type": "function"
    },
    {
      "inputs": [
        {
          "internalType": "uint256",
          "name": "_listingId",
          "type": "uint256"
        }
      ],
      "name": "pullFromSale",
      "outputs": [],
      "stateMutability": "nonpayable",
      "type": "function"
    },
    {
      "inputs": [
        {
          "internalType": "uint256",
          "name": "_listingId",
          "type": "uint256"
        }
      ],
      "name": "buyNFTWithERC20",
      "outputs": [],
      "stateMutability": "nonpayable",
      "type": "function"
    }
  ],
  "bytecode": "0x60806040526040518060400160405280600581526020017f322e322e30000000000000000000000000000000000000000000000000000000815250600c908051906020019062000051929190620004e0565b503480156200005f57600080fd5b5060405162004d7738038062004d778339818101604052810190620000859190620005fa565b620000a5620000996200036360201b60201c565b6200037f60201b60201c565b600073ffffffffffffffffffffffffffffffffffffffff168373ffffffffffffffffffffffffffffffffffffffff16141562000118576040517f08c379a00000000000000000000000000000000000000000000000000000000081526004016200010f90620006dd565b60405180910390fd5b600073ffffffffffffffffffffffffffffffffffffffff168273ffffffffffffffffffffffffffffffffffffffff1614156200018b576040517f08c379a00000000000000000000000000000000000000000000000000000000081526004016200018290620006dd565b60405180910390fd5b600073ffffffffffffffffffffffffffffffffffffffff168173ffffffffffffffffffffffffffffffffffffffff161415620001fe576040517f08c379a0000000000000000000000000000000000000000000000000000000008152600401620001f590620006dd565b60405180910390fd5b6001600b60008573ffffffffffffffffffffffffffffffffffffffff1673ffffffffffffffffffffffffffffffffffffffff16815260200190815260200160002060006101000a81548160ff02191690831515021790555081600960006101000a81548173ffffffffffffffffffffffffffffffffffffffff021916908373ffffffffffffffffffffffffffffffffffffffff16021790555080600a60006101000a81548173ffffffffffffffffffffffffffffffffffffffff021916908373ffffffffffffffffffffffffffffffffffffffff16021790555081600360006101000a81548173ffffffffffffffffffffffffffffffffffffffff021916908373ffffffffffffffffffffffffffffffffffffffff16021790555080600460006101000a81548173ffffffffffffffffffffffffffffffffffffffff021916908373ffffffffffffffffffffffffffffffffffffffff16021790555050505062000764565b60006200037a6200044560201b620029af1760201c565b905090565b6000600160009054906101000a900473ffffffffffffffffffffffffffffffffffffffff16905081600160006101000a81548173ffffffffffffffffffffffffffffffffffffffff021916908373ffffffffffffffffffffffffffffffffffffffff1602179055508173ffffffffffffffffffffffffffffffffffffffff168173ffffffffffffffffffffffffffffffffffffffff167f8be0079c531659141344cd1fd0a4f28419497f9722a3daafe3b4186f6b6457e060405160405180910390a35050565b600060146000369050101580156200046a575062000469336200048760201b60201c565b5b156200048057601436033560601c905062000484565b3390505b90565b60008060009054906101000a900473ffffffffffffffffffffffffffffffffffffffff1673ffffffffffffffffffffffffffffffffffffffff168273ffffffffffffffffffffffffffffffffffffffff16149050919050565b828054620004ee906200072e565b90600052602060002090601f0160209004810192826200051257600085556200055e565b82601f106200052d57805160ff19168380011785556200055e565b828001600101855582156200055e579182015b828111156200055d57825182559160200191906001019062000540565b5b5090506200056d919062000571565b5090565b5b808211156200058c57600081600090555060010162000572565b5090565b600080fd5b600073ffffffffffffffffffffffffffffffffffffffff82169050919050565b6000620005c28262000595565b9050919050565b620005d481620005b5565b8114620005e057600080fd5b50565b600081519050620005f481620005c9565b92915050565b60008060006060848603121562000616576200061562000590565b5b60006200062686828701620005e3565b93505060206200063986828701620005e3565b92505060406200064c86828701620005e3565b9150509250925092565b600082825260208201905092915050565b7f546f6b656e2061646472657373206d757374206e6f742062652074686520302060008201527f6164647265737300000000000000000000000000000000000000000000000000602082015250565b6000620006c560278362000656565b9150620006d28262000667565b604082019050919050565b60006020820190508181036000830152620006f881620006b6565b9050919050565b7f4e487b7100000000000000000000000000000000000000000000000000000000600052602260045260246000fd5b600060028204905060018216806200074757607f821691505b602082108114156200075e576200075d620006ff565b5b50919050565b61460380620007746000396000f3fe608060405234801561001057600080fd5b50600436106101425760003560e01c80639d93d352116100b8578063c82e474b1161007c578063c82e474b14610377578063d3e6a7ad14610393578063da742228146103c3578063f1b2d6a3146103df578063f2fde38b146103fd578063fe257afc1461041957610142565b80639d93d352146102af5780639dfc183a146102df578063a19b56ac146102fb578063af62c6841461032b578063bddb06f31461035b57610142565b8063715018a61161010a578063715018a6146101ff5780637da0a877146102095780638ad2d5a7146102275780638da5cb5b14610257578063971ccc16146102755780639a7012881461029157610142565b806312065fe014610147578063486ff0cd14610165578063572b6c051461018357806366e3e122146101b35780636d1ea3fa146101cf575b600080fd5b61014f610437565b60405161015c91906136d0565b60405180910390f35b61016d61043f565b60405161017a9190613784565b60405180910390f35b61019d60048036038101906101989190613818565b6104cd565b6040516101aa9190613860565b60405180910390f35b6101cd60048036038101906101c891906138a7565b610526565b005b6101e960048036038101906101e49190613818565b610c56565b6040516101f69190613860565b60405180910390f35b610207610c76565b005b610211610cfe565b60405161021e91906138e3565b60405180910390f35b610241600480360381019061023c91906138a7565b610d27565b60405161024e91906138e3565b60405180910390f35b61025f610dcc565b60405161026c91906138e3565b60405180910390f35b61028f600480360381019061028a9190613818565b610df6565b005b610299610ecd565b6040516102a691906138e3565b60405180910390f35b6102c960048036038101906102c49190613818565b610ef3565b6040516102d69190613860565b60405180910390f35b6102f960048036038101906102f4919061392a565b610f49565b005b610315600480360381019061031091906138a7565b6118bd565b6040516103229190613ac5565b60405180910390f35b61034560048036038101906103409190613818565b611a24565b6040516103529190613c72565b60405180910390f35b610375600480360381019061037091906138a7565b611bfc565b005b610391600480360381019061038c9190613c94565b6126ed565b005b6103ad60048036038101906103a891906138a7565b61270c565b6040516103ba91906138e3565b60405180910390f35b6103dd60048036038101906103d89190613818565b6127b1565b005b6103e7612839565b6040516103f49190613d83565b60405180910390f35b61041760048036038101906104129190613818565b612891565b005b610421612989565b60405161042e91906138e3565b60405180910390f35b600047905090565b600c805461044c90613dd4565b80601f016020809104026020016040519081016040528092919081815260200182805461047890613dd4565b80156104c55780601f1061049a576101008083540402835291602001916104c5565b820191906000526020600020905b8154815290600101906020018083116104a857829003601f168201915b505050505081565b60008060009054906101000a900473ffffffffffffffffffffffffffffffffffffffff1673ffffffffffffffffffffffffffffffffffffffff168273ffffffffffffffffffffffffffffffffffffffff16149050919050565b6000600660008381526020019081526020016000206040518061016001604052908160008201548152602001600182015481526020016002820160009054906101000a900473ffffffffffffffffffffffffffffffffffffffff1673ffffffffffffffffffffffffffffffffffffffff1673ffffffffffffffffffffffffffffffffffffffff168152602001600382015481526020016004820160009054906101000a900460ff1615151515815260200160058201548152602001600682015481526020016007820160009054906101000a900460ff161515151581526020016007820160019054906101000a900473ffffffffffffffffffffffffffffffffffffffff1673ffffffffffffffffffffffffffffffffffffffff1673ffffffffffffffffffffffffffffffffffffffff1681526020016007820160159054906101000a900460ff161515151581526020016008820154815250509050806101200151156108fb57600360009054906101000a900473ffffffffffffffffffffffffffffffffffffffff1673ffffffffffffffffffffffffffffffffffffffff1663ad3a358c82602001516040518263ffffffff1660e01b81526004016106ec91906136d0565b600060405180830381600087803b15801561070657600080fd5b505af115801561071a573d6000803e3d6000fd5b5050505080610100015173ffffffffffffffffffffffffffffffffffffffff166323b872dd6107476129e6565b836040015184606001516040518463ffffffff1660e01b815260040161076f93929190613e06565b6020604051808303816000875af115801561078e573d6000803e3d6000fd5b505050506040513d601f19601f820116820180604052508101906107b29190613e52565b50600960009054906101000a900473ffffffffffffffffffffffffffffffffffffffff1673ffffffffffffffffffffffffffffffffffffffff1663095ea7b36107f96129e6565b83602001516040518363ffffffff1660e01b815260040161081b929190613e7f565b600060405180830381600087803b15801561083557600080fd5b505af1158015610849573d6000803e3d6000fd5b50505050600960009054906101000a900473ffffffffffffffffffffffffffffffffffffffff1673ffffffffffffffffffffffffffffffffffffffff166342842e0e82604001516108986129e6565b84602001516040518463ffffffff1660e01b81526004016108bb93929190613e06565b600060405180830381600087803b1580156108d557600080fd5b505af11580156108e9573d6000803e3d6000fd5b505050506108f6826129f5565b610b65565b600460009054906101000a900473ffffffffffffffffffffffffffffffffffffffff1673ffffffffffffffffffffffffffffffffffffffff1663ad3a358c82602001516040518263ffffffff1660e01b815260040161095a91906136d0565b600060405180830381600087803b15801561097457600080fd5b505af1158015610988573d6000803e3d6000fd5b5050505080610100015173ffffffffffffffffffffffffffffffffffffffff166323b872dd6109b56129e6565b836040015184606001516040518463ffffffff1660e01b81526004016109dd93929190613e06565b6020604051808303816000875af11580156109fc573d6000803e3d6000fd5b505050506040513d601f19601f82011682018060405250810190610a209190613e52565b50600a60009054906101000a900473ffffffffffffffffffffffffffffffffffffffff1673ffffffffffffffffffffffffffffffffffffffff1663095ea7b3610a676129e6565b83602001516040518363ffffffff1660e01b8152600401610a89929190613e7f565b600060405180830381600087803b158015610aa357600080fd5b505af1158015610ab7573d6000803e3d6000fd5b50505050600a60009054906101000a900473ffffffffffffffffffffffffffffffffffffffff1673ffffffffffffffffffffffffffffffffffffffff166342842e0e8260400151610b066129e6565b84602001516040518463ffffffff1660e01b8152600401610b2993929190613e06565b600060405180830381600087803b158015610b4357600080fd5b505af1158015610b57573d6000803e3d6000fd5b50505050610b64826129f5565b5b7f9bca374bf5d43e80e0d2b146bd06c1437a8ce7aba0adf81b1c86799a961354e68160200151600360009054906101000a900473ffffffffffffffffffffffffffffffffffffffff1673ffffffffffffffffffffffffffffffffffffffff1663c87b56dd84602001516040518263ffffffff1660e01b8152600401610bea91906136d0565b600060405180830381865afa158015610c07573d6000803e3d6000fd5b505050506040513d6000823e3d601f19601f82011682018060405250810190610c309190613fce565b610c386129e6565b6001604051610c4a9493929190614017565b60405180910390a15050565b600b6020528060005260406000206000915054906101000a900460ff1681565b610c7e6129e6565b73ffffffffffffffffffffffffffffffffffffffff16610c9c610dcc565b73ffffffffffffffffffffffffffffffffffffffff1614610cf2576040517f08c379a0000000000000000000000000000000000000000000000000000000008152600401610ce9906140af565b60405180910390fd5b610cfc6000613244565b565b60008060009054906101000a900473ffffffffffffffffffffffffffffffffffffffff16905090565b6000600960009054906101000a900473ffffffffffffffffffffffffffffffffffffffff1673ffffffffffffffffffffffffffffffffffffffff16636352211e836040518263ffffffff1660e01b8152600401610d8491906136d0565b602060405180830381865afa158015610da1573d6000803e3d6000fd5b505050506040513d601f19601f82011682018060405250810190610dc591906140e4565b9050919050565b6000600160009054906101000a900473ffffffffffffffffffffffffffffffffffffffff16905090565b610dfe6129e6565b73ffffffffffffffffffffffffffffffffffffffff16610e1c610dcc565b73ffffffffffffffffffffffffffffffffffffffff1614610e72576040517f08c379a0000000000000000000000000000000000000000000000000000000008152600401610e69906140af565b60405180910390fd5b6001600b60008373ffffffffffffffffffffffffffffffffffffffff1673ffffffffffffffffffffffffffffffffffffffff16815260200190815260200160002060006101000a81548160ff02191690831515021790555050565b600960009054906101000a900473ffffffffffffffffffffffffffffffffffffffff1681565b6000600b60008373ffffffffffffffffffffffffffffffffffffffff1673ffffffffffffffffffffffffffffffffffffffff16815260200190815260200160002060009054906101000a900460ff169050919050565b600b60008373ffffffffffffffffffffffffffffffffffffffff1673ffffffffffffffffffffffffffffffffffffffff16815260200190815260200160002060009054906101000a900460ff16610fd5576040517f08c379a0000000000000000000000000000000000000000000000000000000008152600401610fcc90614183565b60405180910390fd5b801561113957610fe36129e6565b73ffffffffffffffffffffffffffffffffffffffff1661100287610d27565b73ffffffffffffffffffffffffffffffffffffffff1614611058576040517f08c379a000000000000000000000000000000000000000000000000000000000815260040161104f906141ef565b60405180910390fd5b600360009054906101000a900473ffffffffffffffffffffffffffffffffffffffff1673ffffffffffffffffffffffffffffffffffffffff1663fcce4883876040518263ffffffff1660e01b81526004016110b391906136d0565b602060405180830381865afa1580156110d0573d6000803e3d6000fd5b505050506040513d601f19601f820116820180604052508101906110f49190613e52565b15611134576040517f08c379a000000000000000000000000000000000000000000000000000000000815260040161112b90614281565b60405180910390fd5b611293565b6111416129e6565b73ffffffffffffffffffffffffffffffffffffffff166111608761270c565b73ffffffffffffffffffffffffffffffffffffffff16146111b6576040517f08c379a00000000000000000000000000000000000000000000000000000000081526004016111ad906142ed565b60405180910390fd5b600460009054906101000a900473ffffffffffffffffffffffffffffffffffffffff1673ffffffffffffffffffffffffffffffffffffffff1663fcce4883876040518263ffffffff1660e01b815260040161121191906136d0565b602060405180830381865afa15801561122e573d6000803e3d6000fd5b505050506040513d601f19601f820116820180604052508101906112529190613e52565b15611292576040517f08c379a00000000000000000000000000000000000000000000000000000000081526004016112899061437f565b60405180910390fd5b5b61129d600261330a565b60006112a96002613320565b90506112b3613371565b81816000018181525050878160200181815250506112cf6129e6565b816040019073ffffffffffffffffffffffffffffffffffffffff16908173ffffffffffffffffffffffffffffffffffffffff1681525050868160600181815250506000816080019015159081151581525050858160a0018181525050848160c001818152505060008160e00190151590811515815250508381610100019073ffffffffffffffffffffffffffffffffffffffff16908173ffffffffffffffffffffffffffffffffffffffff168152505082816101200190151590811515815250504281610140018181525050600560006113a76129e6565b73ffffffffffffffffffffffffffffffffffffffff1673ffffffffffffffffffffffffffffffffffffffff168152602001908152602001600020819080600181540180825580915050600190039060005260206000209060090201600090919091909150600082015181600001556020820151816001015560408201518160020160006101000a81548173ffffffffffffffffffffffffffffffffffffffff021916908373ffffffffffffffffffffffffffffffffffffffff1602179055506060820151816003015560808201518160040160006101000a81548160ff02191690831515021790555060a0820151816005015560c0820151816006015560e08201518160070160006101000a81548160ff0219169083151502179055506101008201518160070160016101000a81548173ffffffffffffffffffffffffffffffffffffffff021916908373ffffffffffffffffffffffffffffffffffffffff1602179055506101208201518160070160156101000a81548160ff021916908315150217905550610140820151816008015550508060066000848152602001908152602001600020600082015181600001556020820151816001015560408201518160020160006101000a81548173ffffffffffffffffffffffffffffffffffffffff021916908373ffffffffffffffffffffffffffffffffffffffff1602179055506060820151816003015560808201518160040160006101000a81548160ff02191690831515021790555060a0820151816005015560c0820151816006015560e08201518160070160006101000a81548160ff0219169083151502179055506101008201518160070160016101000a81548173ffffffffffffffffffffffffffffffffffffffff021916908373ffffffffffffffffffffffffffffffffffffffff1602179055506101208201518160070160156101000a81548160ff0219169083151502179055506101408201518160080155905050600881600001519080600181540180825580915050600190039060005260206000200160009091909190915055821561174357600360009054906101000a900473ffffffffffffffffffffffffffffffffffffffff1673ffffffffffffffffffffffffffffffffffffffff1663e6148d5f896040518263ffffffff1660e01b815260040161170c91906136d0565b600060405180830381600087803b15801561172657600080fd5b505af115801561173a573d6000803e3d6000fd5b505050506117d1565b600460009054906101000a900473ffffffffffffffffffffffffffffffffffffffff1673ffffffffffffffffffffffffffffffffffffffff1663e6148d5f896040518263ffffffff1660e01b815260040161179e91906136d0565b600060405180830381600087803b1580156117b857600080fd5b505af11580156117cc573d6000803e3d6000fd5b505050505b7ff4fed5a4ea597a866c3bf2adb1d0e0334a9980d031fce4b5e174edb01d2fab9288600360009054906101000a900473ffffffffffffffffffffffffffffffffffffffff1673ffffffffffffffffffffffffffffffffffffffff1663c87b56dd8b6040518263ffffffff1660e01b815260040161184e91906136d0565b600060405180830381865afa15801561186b573d6000803e3d6000fd5b505050506040513d6000823e3d601f19601f820116820180604052508101906118949190613fce565b836040015160016040516118ab9493929190614017565b60405180910390a15050505050505050565b6118c5613371565b600660008381526020019081526020016000206040518061016001604052908160008201548152602001600182015481526020016002820160009054906101000a900473ffffffffffffffffffffffffffffffffffffffff1673ffffffffffffffffffffffffffffffffffffffff1673ffffffffffffffffffffffffffffffffffffffff168152602001600382015481526020016004820160009054906101000a900460ff1615151515815260200160058201548152602001600682015481526020016007820160009054906101000a900460ff161515151581526020016007820160019054906101000a900473ffffffffffffffffffffffffffffffffffffffff1673ffffffffffffffffffffffffffffffffffffffff1673ffffffffffffffffffffffffffffffffffffffff1681526020016007820160159054906101000a900460ff161515151581526020016008820154815250509050919050565b6060600560008373ffffffffffffffffffffffffffffffffffffffff1673ffffffffffffffffffffffffffffffffffffffff168152602001908152602001600020805480602002602001604051908101604052809291908181526020016000905b82821015611bf157838290600052602060002090600902016040518061016001604052908160008201548152602001600182015481526020016002820160009054906101000a900473ffffffffffffffffffffffffffffffffffffffff1673ffffffffffffffffffffffffffffffffffffffff1673ffffffffffffffffffffffffffffffffffffffff168152602001600382015481526020016004820160009054906101000a900460ff1615151515815260200160058201548152602001600682015481526020016007820160009054906101000a900460ff161515151581526020016007820160019054906101000a900473ffffffffffffffffffffffffffffffffffffffff1673ffffffffffffffffffffffffffffffffffffffff1673ffffffffffffffffffffffffffffffffffffffff1681526020016007820160159054906101000a900460ff1615151515815260200160088201548152505081526020019060010190611a85565b505050509050919050565b6000600660008381526020019081526020016000206040518061016001604052908160008201548152602001600182015481526020016002820160009054906101000a900473ffffffffffffffffffffffffffffffffffffffff1673ffffffffffffffffffffffffffffffffffffffff1673ffffffffffffffffffffffffffffffffffffffff168152602001600382015481526020016004820160009054906101000a900460ff1615151515815260200160058201548152602001600682015481526020016007820160009054906101000a900460ff161515151581526020016007820160019054906101000a900473ffffffffffffffffffffffffffffffffffffffff1673ffffffffffffffffffffffffffffffffffffffff1673ffffffffffffffffffffffffffffffffffffffff1681526020016007820160159054906101000a900460ff161515151581526020016008820154815250509050611d606129e6565b73ffffffffffffffffffffffffffffffffffffffff16816040015173ffffffffffffffffffffffffffffffffffffffff1614611dd1576040517f08c379a0000000000000000000000000000000000000000000000000000000008152600401611dc890614411565b60405180910390fd5b80610120015115611e7257600360009054906101000a900473ffffffffffffffffffffffffffffffffffffffff1673ffffffffffffffffffffffffffffffffffffffff1663ad3a358c82602001516040518263ffffffff1660e01b8152600401611e3b91906136d0565b600060405180830381600087803b158015611e5557600080fd5b505af1158015611e69573d6000803e3d6000fd5b50505050611f04565b600460009054906101000a900473ffffffffffffffffffffffffffffffffffffffff1673ffffffffffffffffffffffffffffffffffffffff1663ad3a358c82602001516040518263ffffffff1660e01b8152600401611ed191906136d0565b600060405180830381600087803b158015611eeb57600080fd5b505af1158015611eff573d6000803e3d6000fd5b505050505b600060056000611f126129e6565b73ffffffffffffffffffffffffffffffffffffffff1673ffffffffffffffffffffffffffffffffffffffff168152602001908152602001600020905060005b8180549050811015612456576000828281548110611f7257611f71614431565b5b90600052602060002090600902016040518061016001604052908160008201548152602001600182015481526020016002820160009054906101000a900473ffffffffffffffffffffffffffffffffffffffff1673ffffffffffffffffffffffffffffffffffffffff1673ffffffffffffffffffffffffffffffffffffffff168152602001600382015481526020016004820160009054906101000a900460ff1615151515815260200160058201548152602001600682015481526020016007820160009054906101000a900460ff161515151581526020016007820160019054906101000a900473ffffffffffffffffffffffffffffffffffffffff1673ffffffffffffffffffffffffffffffffffffffff1673ffffffffffffffffffffffffffffffffffffffff1681526020016007820160159054906101000a900460ff1615151515815260200160088201548152505090508360000151816000015114156124425782600184805490506120e9919061448f565b815481106120fa576120f9614431565b5b906000526020600020906009020183838154811061211b5761211a614431565b5b906000526020600020906009020160008201548160000155600182015481600101556002820160009054906101000a900473ffffffffffffffffffffffffffffffffffffffff168160020160006101000a81548173ffffffffffffffffffffffffffffffffffffffff021916908373ffffffffffffffffffffffffffffffffffffffff160217905550600382015481600301556004820160009054906101000a900460ff168160040160006101000a81548160ff02191690831515021790555060058201548160050155600682015481600601556007820160009054906101000a900460ff168160070160006101000a81548160ff0219169083151502179055506007820160019054906101000a900473ffffffffffffffffffffffffffffffffffffffff168160070160016101000a81548173ffffffffffffffffffffffffffffffffffffffff021916908373ffffffffffffffffffffffffffffffffffffffff1602179055506007820160159054906101000a900460ff168160070160156101000a81548160ff0219169083151502179055506008820154816008015590505082600560006122ca6129e6565b73ffffffffffffffffffffffffffffffffffffffff1673ffffffffffffffffffffffffffffffffffffffff1681526020019081526020016000209080546123129291906133fd565b506005600061231f6129e6565b73ffffffffffffffffffffffffffffffffffffffff1673ffffffffffffffffffffffffffffffffffffffff168152602001908152602001600020805480612369576123686144c3565b5b600190038181906000526020600020906009020160008082016000905560018201600090556002820160006101000a81549073ffffffffffffffffffffffffffffffffffffffff021916905560038201600090556004820160006101000a81549060ff0219169055600582016000905560068201600090556007820160006101000a81549060ff02191690556007820160016101000a81549073ffffffffffffffffffffffffffffffffffffffff02191690556007820160156101000a81549060ff021916905560088201600090555050905550612456565b50808061244e906144f2565b915050611f51565b5060005b60088054905081101561252a5760006008828154811061247d5761247c614431565b5b90600052602060002001549050836000015181141561251657600860016008805490506124aa919061448f565b815481106124bb576124ba614431565b5b9060005260206000200154600883815481106124da576124d9614431565b5b906000526020600020018190555060088054806124fa576124f96144c3565b5b600190038181906000526020600020016000905590555061252a565b508080612522906144f2565b91505061245a565b506006600084815260200190815260200160002060008082016000905560018201600090556002820160006101000a81549073ffffffffffffffffffffffffffffffffffffffff021916905560038201600090556004820160006101000a81549060ff0219169055600582016000905560068201600090556007820160006101000a81549060ff02191690556007820160016101000a81549073ffffffffffffffffffffffffffffffffffffffff02191690556007820160156101000a81549060ff0219169055600882016000905550507fd1542b8a62548de416836f4b86ab871dfb6a539e1c8290295e1e870e3f5b0fce8260200151600360009054906101000a900473ffffffffffffffffffffffffffffffffffffffff1673ffffffffffffffffffffffffffffffffffffffff1663c87b56dd85602001516040518263ffffffff1660e01b815260040161268091906136d0565b600060405180830381865afa15801561269d573d6000803e3d6000fd5b505050506040513d6000823e3d601f19601f820116820180604052508101906126c69190613fce565b6126ce6129e6565b60006040516126e09493929190614017565b60405180910390a1505050565b8060066000848152602001908152602001600020600301819055505050565b6000600a60009054906101000a900473ffffffffffffffffffffffffffffffffffffffff1673ffffffffffffffffffffffffffffffffffffffff16636352211e836040518263ffffffff1660e01b815260040161276991906136d0565b602060405180830381865afa158015612786573d6000803e3d6000fd5b505050506040513d601f19601f820116820180604052508101906127aa91906140e4565b9050919050565b6127b96129e6565b73ffffffffffffffffffffffffffffffffffffffff166127d7610dcc565b73ffffffffffffffffffffffffffffffffffffffff161461282d576040517f08c379a0000000000000000000000000000000000000000000000000000000008152600401612824906140af565b60405180910390fd5b6128368161332e565b50565b6060600880548060200260200160405190810160405280929190818152602001828054801561288757602002820191906000526020600020905b815481526020019060010190808311612873575b5050505050905090565b6128996129e6565b73ffffffffffffffffffffffffffffffffffffffff166128b7610dcc565b73ffffffffffffffffffffffffffffffffffffffff161461290d576040517f08c379a0000000000000000000000000000000000000000000000000000000008152600401612904906140af565b60405180910390fd5b600073ffffffffffffffffffffffffffffffffffffffff168173ffffffffffffffffffffffffffffffffffffffff16141561297d576040517f08c379a0000000000000000000000000000000000000000000000000000000008152600401612974906145ad565b60405180910390fd5b61298681613244565b50565b600a60009054906101000a900473ffffffffffffffffffffffffffffffffffffffff1681565b600060146000369050101580156129cb57506129ca336104cd565b5b156129df57601436033560601c90506129e3565b3390505b90565b60006129f06129af565b905090565b6000600660008381526020019081526020016000206040518061016001604052908160008201548152602001600182015481526020016002820160009054906101000a900473ffffffffffffffffffffffffffffffffffffffff1673ffffffffffffffffffffffffffffffffffffffff1673ffffffffffffffffffffffffffffffffffffffff168152602001600382015481526020016004820160009054906101000a900460ff1615151515815260200160058201548152602001600682015481526020016007820160009054906101000a900460ff161515151581526020016007820160019054906101000a900473ffffffffffffffffffffffffffffffffffffffff1673ffffffffffffffffffffffffffffffffffffffff1673ffffffffffffffffffffffffffffffffffffffff1681526020016007820160159054906101000a900460ff161515151581526020016008820154815250509050600060056000836040015173ffffffffffffffffffffffffffffffffffffffff1673ffffffffffffffffffffffffffffffffffffffff168152602001908152602001600020905060005b818054905081101561309a576000828281548110612bbc57612bbb614431565b5b90600052602060002090600902016040518061016001604052908160008201548152602001600182015481526020016002820160009054906101000a900473ffffffffffffffffffffffffffffffffffffffff1673ffffffffffffffffffffffffffffffffffffffff1673ffffffffffffffffffffffffffffffffffffffff168152602001600382015481526020016004820160009054906101000a900460ff1615151515815260200160058201548152602001600682015481526020016007820160009054906101000a900460ff161515151581526020016007820160019054906101000a900473ffffffffffffffffffffffffffffffffffffffff1673ffffffffffffffffffffffffffffffffffffffff1673ffffffffffffffffffffffffffffffffffffffff1681526020016007820160159054906101000a900460ff161515151581526020016008820154815250509050836000015181600001511415613086578260018480549050612d33919061448f565b81548110612d4457612d43614431565b5b9060005260206000209060090201838381548110612d6557612d64614431565b5b906000526020600020906009020160008201548160000155600182015481600101556002820160009054906101000a900473ffffffffffffffffffffffffffffffffffffffff168160020160006101000a81548173ffffffffffffffffffffffffffffffffffffffff021916908373ffffffffffffffffffffffffffffffffffffffff160217905550600382015481600301556004820160009054906101000a900460ff168160040160006101000a81548160ff02191690831515021790555060058201548160050155600682015481600601556007820160009054906101000a900460ff168160070160006101000a81548160ff0219169083151502179055506007820160019054906101000a900473ffffffffffffffffffffffffffffffffffffffff168160070160016101000a81548173ffffffffffffffffffffffffffffffffffffffff021916908373ffffffffffffffffffffffffffffffffffffffff1602179055506007820160159054906101000a900460ff168160070160156101000a81548160ff021916908315150217905550600882015481600801559050508260056000866040015173ffffffffffffffffffffffffffffffffffffffff1673ffffffffffffffffffffffffffffffffffffffff168152602001908152602001600020908054612f599291906133fd565b5060056000856040015173ffffffffffffffffffffffffffffffffffffffff1673ffffffffffffffffffffffffffffffffffffffff168152602001908152602001600020805480612fad57612fac6144c3565b5b600190038181906000526020600020906009020160008082016000905560018201600090556002820160006101000a81549073ffffffffffffffffffffffffffffffffffffffff021916905560038201600090556004820160006101000a81549060ff0219169055600582016000905560068201600090556007820160006101000a81549060ff02191690556007820160016101000a81549073ffffffffffffffffffffffffffffffffffffffff02191690556007820160156101000a81549060ff02191690556008820160009055505090555061309a565b508080613092906144f2565b915050612b9b565b5060005b60088054905081101561316e576000600882815481106130c1576130c0614431565b5b90600052602060002001549050836000015181141561315a57600860016008805490506130ee919061448f565b815481106130ff576130fe614431565b5b90600052602060002001546008838154811061311e5761311d614431565b5b9060005260206000200181905550600880548061313e5761313d6144c3565b5b600190038181906000526020600020016000905590555061316e565b508080613166906144f2565b91505061309e565b506006600084815260200190815260200160002060008082016000905560018201600090556002820160006101000a81549073ffffffffffffffffffffffffffffffffffffffff021916905560038201600090556004820160006101000a81549060ff0219169055600582016000905560068201600090556007820160006101000a81549060ff02191690556007820160016101000a81549073ffffffffffffffffffffffffffffffffffffffff02191690556007820160156101000a81549060ff021916905560088201600090555050505050565b6000600160009054906101000a900473ffffffffffffffffffffffffffffffffffffffff16905081600160006101000a81548173ffffffffffffffffffffffffffffffffffffffff021916908373ffffffffffffffffffffffffffffffffffffffff1602179055508173ffffffffffffffffffffffffffffffffffffffff168173ffffffffffffffffffffffffffffffffffffffff167f8be0079c531659141344cd1fd0a4f28419497f9722a3daafe3b4186f6b6457e060405160405180910390a35050565b6001816000016000828254019250508190555050565b600081600001549050919050565b806000806101000a81548173ffffffffffffffffffffffffffffffffffffffff021916908373ffffffffffffffffffffffffffffffffffffffff16021790555050565b6040518061016001604052806000815260200160008152602001600073ffffffffffffffffffffffffffffffffffffffff168152602001600081526020016000151581526020016000815260200160008152602001600015158152602001600073ffffffffffffffffffffffffffffffffffffffff168152602001600015158152602001600081525090565b8280548282559060005260206000209060090281019282156135d55760005260206000209160090282015b828111156135d457828260008201548160000155600182015481600101556002820160009054906101000a900473ffffffffffffffffffffffffffffffffffffffff168160020160006101000a81548173ffffffffffffffffffffffffffffffffffffffff021916908373ffffffffffffffffffffffffffffffffffffffff160217905550600382015481600301556004820160009054906101000a900460ff168160040160006101000a81548160ff02191690831515021790555060058201548160050155600682015481600601556007820160009054906101000a900460ff168160070160006101000a81548160ff0219169083151502179055506007820160019054906101000a900473ffffffffffffffffffffffffffffffffffffffff168160070160016101000a81548173ffffffffffffffffffffffffffffffffffffffff021916908373ffffffffffffffffffffffffffffffffffffffff1602179055506007820160159054906101000a900460ff168160070160156101000a81548160ff02191690831515021790555060088201548160080155505091600901919060090190613428565b5b5090506135e291906135e6565b5090565b5b808211156136b35760008082016000905560018201600090556002820160006101000a81549073ffffffffffffffffffffffffffffffffffffffff021916905560038201600090556004820160006101000a81549060ff0219169055600582016000905560068201600090556007820160006101000a81549060ff02191690556007820160016101000a81549073ffffffffffffffffffffffffffffffffffffffff02191690556007820160156101000a81549060ff02191690556008820160009055506009016135e7565b5090565b6000819050919050565b6136ca816136b7565b82525050565b60006020820190506136e560008301846136c1565b92915050565b600081519050919050565b600082825260208201905092915050565b60005b8381101561372557808201518184015260208101905061370a565b83811115613734576000848401525b50505050565b6000601f19601f8301169050919050565b6000613756826136eb565b61376081856136f6565b9350613770818560208601613707565b6137798161373a565b840191505092915050565b6000602082019050818103600083015261379e818461374b565b905092915050565b6000604051905090565b600080fd5b600080fd5b600073ffffffffffffffffffffffffffffffffffffffff82169050919050565b60006137e5826137ba565b9050919050565b6137f5816137da565b811461380057600080fd5b50565b600081359050613812816137ec565b92915050565b60006020828403121561382e5761382d6137b0565b5b600061383c84828501613803565b91505092915050565b60008115159050919050565b61385a81613845565b82525050565b60006020820190506138756000830184613851565b92915050565b613884816136b7565b811461388f57600080fd5b50565b6000813590506138a18161387b565b92915050565b6000602082840312156138bd576138bc6137b0565b5b60006138cb84828501613892565b91505092915050565b6138dd816137da565b82525050565b60006020820190506138f860008301846138d4565b92915050565b61390781613845565b811461391257600080fd5b50565b600081359050613924816138fe565b92915050565b60008060008060008060c08789031215613947576139466137b0565b5b600061395589828a01613892565b965050602061396689828a01613892565b955050604061397789828a01613892565b945050606061398889828a01613892565b935050608061399989828a01613803565b92505060a06139aa89828a01613915565b9150509295509295509295565b6139c0816136b7565b82525050565b6139cf816137da565b82525050565b6139de81613845565b82525050565b610160820160008201516139fb60008501826139b7565b506020820151613a0e60208501826139b7565b506040820151613a2160408501826139c6565b506060820151613a3460608501826139b7565b506080820151613a4760808501826139d5565b5060a0820151613a5a60a08501826139b7565b5060c0820151613a6d60c08501826139b7565b5060e0820151613a8060e08501826139d5565b50610100820151613a956101008501826139c6565b50610120820151613aaa6101208501826139d5565b50610140820151613abf6101408501826139b7565b50505050565b600061016082019050613adb60008301846139e4565b92915050565b600081519050919050565b600082825260208201905092915050565b6000819050602082019050919050565b61016082016000820151613b2460008501826139b7565b506020820151613b3760208501826139b7565b506040820151613b4a60408501826139c6565b506060820151613b5d60608501826139b7565b506080820151613b7060808501826139d5565b5060a0820151613b8360a08501826139b7565b5060c0820151613b9660c08501826139b7565b5060e0820151613ba960e08501826139d5565b50610100820151613bbe6101008501826139c6565b50610120820151613bd36101208501826139d5565b50610140820151613be86101408501826139b7565b50505050565b6000613bfa8383613b0d565b6101608301905092915050565b6000602082019050919050565b6000613c1f82613ae1565b613c298185613aec565b9350613c3483613afd565b8060005b83811015613c65578151613c4c8882613bee565b9750613c5783613c07565b925050600181019050613c38565b5085935050505092915050565b60006020820190508181036000830152613c8c8184613c14565b905092915050565b60008060408385031215613cab57613caa6137b0565b5b6000613cb985828601613892565b9250506020613cca85828601613892565b9150509250929050565b600081519050919050565b600082825260208201905092915050565b6000819050602082019050919050565b6000613d0c83836139b7565b60208301905092915050565b6000602082019050919050565b6000613d3082613cd4565b613d3a8185613cdf565b9350613d4583613cf0565b8060005b83811015613d76578151613d5d8882613d00565b9750613d6883613d18565b925050600181019050613d49565b5085935050505092915050565b60006020820190508181036000830152613d9d8184613d25565b905092915050565b7f4e487b7100000000000000000000000000000000000000000000000000000000600052602260045260246000fd5b60006002820490506001821680613dec57607f821691505b60208210811415613e0057613dff613da5565b5b50919050565b6000606082019050613e1b60008301866138d4565b613e2860208301856138d4565b613e3560408301846136c1565b949350505050565b600081519050613e4c816138fe565b92915050565b600060208284031215613e6857613e676137b0565b5b6000613e7684828501613e3d565b91505092915050565b6000604082019050613e9460008301856138d4565b613ea160208301846136c1565b9392505050565b600080fd5b600080fd5b7f4e487b7100000000000000000000000000000000000000000000000000000000600052604160045260246000fd5b613eea8261373a565b810181811067ffffffffffffffff82111715613f0957613f08613eb2565b5b80604052505050565b6000613f1c6137a6565b9050613f288282613ee1565b919050565b600067ffffffffffffffff821115613f4857613f47613eb2565b5b613f518261373a565b9050602081019050919050565b6000613f71613f6c84613f2d565b613f12565b905082815260208101848484011115613f8d57613f8c613ead565b5b613f98848285613707565b509392505050565b600082601f830112613fb557613fb4613ea8565b5b8151613fc5848260208601613f5e565b91505092915050565b600060208284031215613fe457613fe36137b0565b5b600082015167ffffffffffffffff811115614002576140016137b5565b5b61400e84828501613fa0565b91505092915050565b600060808201905061402c60008301876136c1565b818103602083015261403e818661374b565b905061404d60408301856138d4565b61405a6060830184613851565b95945050505050565b7f4f776e61626c653a2063616c6c6572206973206e6f7420746865206f776e6572600082015250565b60006140996020836136f6565b91506140a482614063565b602082019050919050565b600060208201905081810360008301526140c88161408c565b9050919050565b6000815190506140de816137ec565b92915050565b6000602082840312156140fa576140f96137b0565b5b6000614108848285016140cf565b91505092915050565b7f4d757374206265206c697374656420707269636520696e20617070726f76656460008201527f20746f6b656e0000000000000000000000000000000000000000000000000000602082015250565b600061416d6026836136f6565b915061417882614111565b604082019050919050565b6000602082019050818103600083015261419c81614160565b9050919050565b7f4d757374206265206f776e657220746f206c69737420766e6674000000000000600082015250565b60006141d9601a836136f6565b91506141e4826141a3565b602082019050919050565b60006020820190508181036000830152614208816141cc565b9050919050565b7f43616e6e6f7420637265617465206d756c7469706c65206c697374696e67732060008201527f666f72206f6e65206e6674000000000000000000000000000000000000000000602082015250565b600061426b602b836136f6565b91506142768261420f565b604082019050919050565b6000602082019050818103600083015261429a8161425e565b9050919050565b7f4d757374206265206f776e657220746f206c697374207061636b000000000000600082015250565b60006142d7601a836136f6565b91506142e2826142a1565b602082019050919050565b60006020820190508181036000830152614306816142ca565b9050919050565b7f43616e6e6f7420637265617465206d756c7469706c65206c697374696e67732060008201527f666f72206f6e65207061636b0000000000000000000000000000000000000000602082015250565b6000614369602c836136f6565b91506143748261430d565b604082019050919050565b600060208201905081810360008301526143988161435c565b9050919050565b7f4d75737420626520746865206f776e657220746f2070756c6c2066726f6d207360008201527f616c650000000000000000000000000000000000000000000000000000000000602082015250565b60006143fb6023836136f6565b91506144068261439f565b604082019050919050565b6000602082019050818103600083015261442a816143ee565b9050919050565b7f4e487b7100000000000000000000000000000000000000000000000000000000600052603260045260246000fd5b7f4e487b7100000000000000000000000000000000000000000000000000000000600052601160045260246000fd5b600061449a826136b7565b91506144a5836136b7565b9250828210156144b8576144b7614460565b5b828203905092915050565b7f4e487b7100000000000000000000000000000000000000000000000000000000600052603160045260246000fd5b60006144fd826136b7565b91507fffffffffffffffffffffffffffffffffffffffffffffffffffffffffffffffff8214156145305761452f614460565b5b600182019050919050565b7f4f776e61626c653a206e6577206f776e657220697320746865207a65726f206160008201527f6464726573730000000000000000000000000000000000000000000000000000602082015250565b60006145976026836136f6565b91506145a28261453b565b604082019050919050565b600060208201905081810360008301526145c68161458a565b905091905056fea2646970667358221220049025760577175fa40c875314f3b99fb7ecbe764a1136eaa87fc312d678855864736f6c634300080b0033",
  "immutableReferences": {},
  "source": "pragma solidity ^0.8.0;\n\nimport \"@openzeppelin/contracts/access/Ownable.sol\";\nimport \"@openzeppelin/contracts/token/ERC721/ERC721.sol\";\nimport \"@openzeppelin/contracts/token/ERC20/IERC20.sol\";\nimport \"@openzeppelin/contracts/token/ERC20/ERC20.sol\";\nimport \"@openzeppelin/contracts/token/ERC721/IERC721.sol\";\nimport \"@opengsn/contracts/src/BaseRelayRecipient.sol\";\n\nimport \"./ViridianNFT.sol\";\nimport \"./ViridianPack.sol\";\n\ncontract ViridianExchange is BaseRelayRecipient, Ownable {\n\n    event ItemListed(uint256 tokenId, string uri, address wallet, bool listed);\n    event ItemUnlisted(uint256 tokenId, string uri, address wallet, bool listed);\n    event PurchasedListing(uint256 tokenId, string uri, address wallet, bool purchased);\n\n    using Counters for Counters.Counter;\n    Counters.Counter private _listingIds;\n\n    ViridianNFT vNFT;\n    ViridianPack vPack;\n    \n    struct Listing {\n        uint256 listingId;\n        uint256 tokenId;\n        address owner;\n        uint256 price;\n        bool purchased;\n        uint256 royalty;\n        uint256 endTime;\n        bool sold;\n        address erc20Address;\n        bool isVNFT;\n        uint256 timeListed;\n    }\n\n    mapping (address => Listing[]) userListings;\n    mapping (uint256 => Listing) listings;\n    address[] private userAddresses;\n    uint256[] private listingIds;\n\n    address public viridianNFT;\n    address public viridianPack;\n    mapping (address => bool) public approvedTokens;\n\n    constructor(address _erc20Token, address _viridianNFT, address _viridianPack) {//, address _forwarder) {\n        require(address(_erc20Token) != address(0), \"Token address must not be the 0 address\");\n        require(address(_viridianNFT) != address(0), \"Token address must not be the 0 address\");\n        require(address(_viridianPack) != address(0), \"Token address must not be the 0 address\");\n\n        //_setTrustedForwarder(_forwarder);\n\n        approvedTokens[_erc20Token] = true;\n        viridianNFT = _viridianNFT;\n        viridianPack = _viridianPack;\n\n        vNFT = ViridianNFT(_viridianNFT);\n        vPack = ViridianPack(_viridianPack);\n    }\n\n    string public override versionRecipient = \"2.2.0\";\n\n    function setTrustedForwarder(address _forwarder) public onlyOwner() {\n        _setTrustedForwarder(_forwarder);\n    }\n\n\n    function _msgSender() internal view override(Context, BaseRelayRecipient) returns (address sender) {\n        sender = BaseRelayRecipient._msgSender();\n    }\n\n    function _msgData() internal view override(Context, BaseRelayRecipient) returns (bytes memory) {\n        return BaseRelayRecipient._msgData();\n    }\n\n    function addERC20Token(address _erc20Address) public onlyOwner() {\n        approvedTokens[_erc20Address] = true;\n    }\n\n    function isTokenApproved(address _erc20Address) public view returns (bool) {\n        return approvedTokens[_erc20Address];\n    }\n\n    function getBalance() public view returns (uint) {\n        return address(this).balance;\n    }\n\n    function getListings() public view returns (uint256[] memory) {\n        return listingIds;\n    }\n\n    function getListingFromId(uint256 _listingId) public view returns (Listing memory) {\n        return listings[_listingId];\n    }\n\n    function getListingsFromUser(address _userAddr) public view returns (Listing[] memory) {\n        return userListings[_userAddr];\n    }\n\n    function getNftOwner(uint256 _nftId) public view returns (address) {\n        return IERC721(viridianNFT).ownerOf(_nftId);\n    }\n\n    function getPackOwner(uint256 _nftId) public view returns (address) {\n        return IERC721(viridianPack).ownerOf(_nftId);\n    }\n\n    function putUpForSale(uint256 _nftId, uint256 _price, uint256 _royalty, uint256 _endTime, address _erc20Address, bool _isVNFT) public {\n        require(approvedTokens[_erc20Address], \"Must be listed price in approved token\");\n        if (_isVNFT) {\n            require(getNftOwner(_nftId) == _msgSender(), \"Must be owner to list vnft\");\n            require(!vNFT.isListed(_nftId), \"Cannot create multiple listings for one nft\");\n        }\n        else {\n            require(getPackOwner(_nftId) == _msgSender(), \"Must be owner to list pack\");\n            require(!vPack.isListed(_nftId), \"Cannot create multiple listings for one pack\");\n        }\n        \n        //TODO: Maybe put this back\n        // if(!IERC721(viridianNFT).isApprovedForAll(_msgSender(), address(this))) {\n        //     IERC721(viridianNFT).setApprovalForAll(address(this), true);\n        // }\n\n        // if(!IERC721(viridianPack).isApprovedForAll(_msgSender(), address(this))) {\n        //     IERC721(viridianPack).setApprovalForAll(address(this), true);\n        // }\n\n        _listingIds.increment();\n        uint256 _listingId = _listingIds.current();\n        Listing memory saleListing;\n        saleListing.listingId = _listingId;\n        saleListing.tokenId = _nftId;\n        saleListing.owner = _msgSender();\n        saleListing.price = _price;\n        saleListing.purchased = false;\n        saleListing.royalty = _royalty;\n        saleListing.endTime = _endTime;\n        saleListing.sold = false;\n        saleListing.erc20Address = _erc20Address;\n        saleListing.isVNFT = _isVNFT;\n        saleListing.timeListed = block.timestamp;\n\n\n        userListings[_msgSender()].push(saleListing);\n        listings[_listingId] = saleListing;\n        listingIds.push(saleListing.listingId);\n\n        if (_isVNFT) {\n            vNFT.listToken(_nftId);\n        }\n        else {\n            vPack.listToken(_nftId);\n        }\n\n        //ERC20(viridianToken).approve(address(this), _price);\n\n        //IERC721(viridianNFT).approve(address(this), _nftId);\n        //IERC721(viridianNFT).safeTransferFrom(_msgSender(), address(this), _nftId);\n\n        emit ItemListed(_nftId, vNFT.tokenURI(_nftId), saleListing.owner, true);\n    }\n\n    function changeSalePrice(uint256 _listingId, uint256 _newPrice) public {\n        listings[_listingId].price = _newPrice;\n    }\n    \n    function pullFromSale(uint256 _listingId) public {\n        Listing memory curListing = listings[_listingId];\n        require(curListing.owner == _msgSender(), \"Must be the owner to pull from sale\");\n        //IERC721(viridianNFT).safeTransferFrom(address(this), _msgSender(), curListing.tokenId);\n        if(curListing.isVNFT) {\n            vNFT.unlistToken(curListing.tokenId);\n        }\n        else {\n            vPack.unlistToken(curListing.tokenId);\n        }\n\n        Listing[] storage curUserListings = userListings[_msgSender()];\n        for (uint i = 0; i < curUserListings.length; i++) {\n            Listing memory listing = curUserListings[i];\n            if (listing.listingId == curListing.listingId) {\n                curUserListings[i] = curUserListings[curUserListings.length - 1];\n                userListings[_msgSender()] = curUserListings;\n                userListings[_msgSender()].pop();\n                break;\n            }\n        }\n\n        for (uint256 i = 0; i < listingIds.length; i++) {\n            uint256 listingId = listingIds[i];\n            if (listingId == curListing.listingId) {\n                listingIds[i] = listingIds[listingIds.length - 1];\n                listingIds.pop();\n                break;\n            }\n        }\n\n        delete listings[_listingId];\n\n        emit ItemUnlisted(curListing.tokenId, vNFT.tokenURI(curListing.tokenId), _msgSender(), false);\n    }\n\n    function pullFromSaleOnBuy(uint256 _listingId) private {\n        Listing memory curListing = listings[_listingId];\n        //IERC721(viridianNFT).safeTransferFrom(address(this), _msgSender(), curListing.tokenId);\n        Listing[] storage curUserListings = userListings[curListing.owner];\n        for (uint i = 0; i < curUserListings.length; i++) {\n            Listing memory listing = curUserListings[i];\n            if (listing.listingId == curListing.listingId) {\n                curUserListings[i] = curUserListings[curUserListings.length - 1];\n                userListings[curListing.owner] = curUserListings;\n                userListings[curListing.owner].pop();\n                break;\n            }\n        }\n\n        for (uint256 i = 0; i < listingIds.length; i++) {\n            uint256 listingId = listingIds[i];\n            if (listingId == curListing.listingId) {\n                listingIds[i] = listingIds[listingIds.length - 1];\n                listingIds.pop();\n                break;\n            }\n        }\n\n        delete listings[_listingId];\n    }\n\n    function buyNFTWithERC20(uint256 _listingId) public {\n        Listing memory curListing = listings[_listingId];\n\n        if(curListing.isVNFT) {\n            vNFT.unlistToken(curListing.tokenId);\n\n            IERC20(curListing.erc20Address).transferFrom(_msgSender(), curListing.owner, curListing.price);\n\n            IERC721(viridianNFT).approve(_msgSender(), curListing.tokenId);\n            IERC721(viridianNFT).safeTransferFrom(curListing.owner, _msgSender(), curListing.tokenId);\n            pullFromSaleOnBuy(_listingId);\n        }\n        else {\n            vPack.unlistToken(curListing.tokenId);\n\n            IERC20(curListing.erc20Address).transferFrom(_msgSender(), curListing.owner, curListing.price);\n\n            IERC721(viridianPack).approve(_msgSender(), curListing.tokenId);\n            IERC721(viridianPack).safeTransferFrom(curListing.owner, _msgSender(), curListing.tokenId);\n            pullFromSaleOnBuy(_listingId);\n        }\n        emit PurchasedListing(curListing.tokenId, vNFT.tokenURI(curListing.tokenId), _msgSender(), true);\n    }\n}",
  "sourcePath": "/Users/blakehatch/Viridian-Exchange-Contracts/contracts/ViridianExchange.sol",
  "compiler": {
    "name": "solc",
    "version": "0.8.11+commit.d7f03943.Emscripten.clang"
  },
  "schemaVersion": "3.4.1",
  "updatedAt": "2022-01-01T21:48:31.910Z",
  "networkType": "ethereum",
  "devdoc": {
    "kind": "dev",
    "methods": {
      "owner()": {
        "details": "Returns the address of the current owner."
      },
      "renounceOwnership()": {
        "details": "Leaves the contract without owner. It will not be possible to call `onlyOwner` functions anymore. Can only be called by the current owner. NOTE: Renouncing ownership will leave the contract without an owner, thereby removing any functionality that is only available to the owner."
      },
      "transferOwnership(address)": {
        "details": "Transfers ownership of the contract to a new account (`newOwner`). Can only be called by the current owner."
      }
    },
    "version": 1
  },
  "userdoc": {
    "kind": "user",
    "methods": {
      "isTrustedForwarder(address)": {
        "notice": "return if the forwarder is trusted to forward relayed transactions to us. the forwarder is required to verify the sender's signature, and verify the call is not a replay."
      }
    },
    "version": 1
  }
}