{
  "contractName": "ViridianNFT",
  "abi": [
    {
      "inputs": [],
      "stateMutability": "nonpayable",
      "type": "constructor"
    },
    {
      "anonymous": false,
      "inputs": [
        {
          "indexed": true,
          "internalType": "address",
          "name": "owner",
          "type": "address"
        },
        {
          "indexed": true,
          "internalType": "address",
          "name": "approved",
          "type": "address"
        },
        {
          "indexed": true,
          "internalType": "uint256",
          "name": "tokenId",
          "type": "uint256"
        }
      ],
      "name": "Approval",
      "type": "event"
    },
    {
      "anonymous": false,
      "inputs": [
        {
          "indexed": true,
          "internalType": "address",
          "name": "owner",
          "type": "address"
        },
        {
          "indexed": true,
          "internalType": "address",
          "name": "operator",
          "type": "address"
        },
        {
          "indexed": false,
          "internalType": "bool",
          "name": "approved",
          "type": "bool"
        }
      ],
      "name": "ApprovalForAll",
      "type": "event"
    },
    {
      "anonymous": false,
      "inputs": [
        {
          "indexed": true,
          "internalType": "address",
          "name": "previousOwner",
          "type": "address"
        },
        {
          "indexed": true,
          "internalType": "address",
          "name": "newOwner",
          "type": "address"
        }
      ],
      "name": "OwnershipTransferred",
      "type": "event"
    },
    {
      "anonymous": false,
      "inputs": [
        {
          "indexed": true,
          "internalType": "address",
          "name": "from",
          "type": "address"
        },
        {
          "indexed": true,
          "internalType": "address",
          "name": "to",
          "type": "address"
        },
        {
          "indexed": true,
          "internalType": "uint256",
          "name": "tokenId",
          "type": "uint256"
        }
      ],
      "name": "Transfer",
      "type": "event"
    },
    {
      "inputs": [
        {
          "internalType": "address",
          "name": "to",
          "type": "address"
        },
        {
          "internalType": "uint256",
          "name": "tokenId",
          "type": "uint256"
        }
      ],
      "name": "approve",
      "outputs": [],
      "stateMutability": "nonpayable",
      "type": "function"
    },
    {
      "inputs": [
        {
          "internalType": "address",
          "name": "owner",
          "type": "address"
        }
      ],
      "name": "balanceOf",
      "outputs": [
        {
          "internalType": "uint256",
          "name": "",
          "type": "uint256"
        }
      ],
      "stateMutability": "view",
      "type": "function",
      "constant": true
    },
    {
      "inputs": [
        {
          "internalType": "uint256",
          "name": "tokenId",
          "type": "uint256"
        }
      ],
      "name": "getApproved",
      "outputs": [
        {
          "internalType": "address",
          "name": "",
          "type": "address"
        }
      ],
      "stateMutability": "view",
      "type": "function",
      "constant": true
    },
    {
      "inputs": [
        {
          "internalType": "address",
          "name": "owner",
          "type": "address"
        },
        {
          "internalType": "address",
          "name": "operator",
          "type": "address"
        }
      ],
      "name": "isApprovedForAll",
      "outputs": [
        {
          "internalType": "bool",
          "name": "",
          "type": "bool"
        }
      ],
      "stateMutability": "view",
      "type": "function",
      "constant": true
    },
    {
      "inputs": [],
      "name": "name",
      "outputs": [
        {
          "internalType": "string",
          "name": "",
          "type": "string"
        }
      ],
      "stateMutability": "view",
      "type": "function",
      "constant": true
    },
    {
      "inputs": [],
      "name": "owner",
      "outputs": [
        {
          "internalType": "address",
          "name": "",
          "type": "address"
        }
      ],
      "stateMutability": "view",
      "type": "function",
      "constant": true
    },
    {
      "inputs": [
        {
          "internalType": "uint256",
          "name": "tokenId",
          "type": "uint256"
        }
      ],
      "name": "ownerOf",
      "outputs": [
        {
          "internalType": "address",
          "name": "",
          "type": "address"
        }
      ],
      "stateMutability": "view",
      "type": "function",
      "constant": true
    },
    {
      "inputs": [],
      "name": "renounceOwnership",
      "outputs": [],
      "stateMutability": "nonpayable",
      "type": "function"
    },
    {
      "inputs": [
        {
          "internalType": "address",
          "name": "operator",
          "type": "address"
        },
        {
          "internalType": "bool",
          "name": "approved",
          "type": "bool"
        }
      ],
      "name": "setApprovalForAll",
      "outputs": [],
      "stateMutability": "nonpayable",
      "type": "function"
    },
    {
      "inputs": [
        {
          "internalType": "bytes4",
          "name": "interfaceId",
          "type": "bytes4"
        }
      ],
      "name": "supportsInterface",
      "outputs": [
        {
          "internalType": "bool",
          "name": "",
          "type": "bool"
        }
      ],
      "stateMutability": "view",
      "type": "function",
      "constant": true
    },
    {
      "inputs": [],
      "name": "symbol",
      "outputs": [
        {
          "internalType": "string",
          "name": "",
          "type": "string"
        }
      ],
      "stateMutability": "view",
      "type": "function",
      "constant": true
    },
    {
      "inputs": [
        {
          "internalType": "address",
          "name": "newOwner",
          "type": "address"
        }
      ],
      "name": "transferOwnership",
      "outputs": [],
      "stateMutability": "nonpayable",
      "type": "function"
    },
    {
      "inputs": [
        {
          "internalType": "address",
          "name": "_newAdmin",
          "type": "address"
        }
      ],
      "name": "addAdmin",
      "outputs": [],
      "stateMutability": "nonpayable",
      "type": "function"
    },
    {
      "inputs": [
        {
          "internalType": "address",
          "name": "_newAdmin",
          "type": "address"
        }
      ],
      "name": "removeAdmin",
      "outputs": [],
      "stateMutability": "nonpayable",
      "type": "function"
    },
    {
      "inputs": [
        {
          "internalType": "string",
          "name": "baseURI_",
          "type": "string"
        }
      ],
      "name": "setBaseURI",
      "outputs": [],
      "stateMutability": "nonpayable",
      "type": "function"
    },
    {
      "inputs": [
        {
          "internalType": "uint256",
          "name": "tokenId",
          "type": "uint256"
        },
        {
          "internalType": "string",
          "name": "_tokenURI",
          "type": "string"
        }
      ],
      "name": "_setTokenURI",
      "outputs": [],
      "stateMutability": "nonpayable",
      "type": "function"
    },
    {
      "inputs": [
        {
          "internalType": "uint256",
          "name": "tokenId",
          "type": "uint256"
        }
      ],
      "name": "tokenURI",
      "outputs": [
        {
          "internalType": "string",
          "name": "",
          "type": "string"
        }
      ],
      "stateMutability": "view",
      "type": "function",
      "constant": true
    },
    {
      "inputs": [],
      "name": "getNumNFTs",
      "outputs": [
        {
          "internalType": "uint256",
          "name": "n",
          "type": "uint256"
        }
      ],
      "stateMutability": "view",
      "type": "function",
      "constant": true
    },
    {
      "inputs": [],
      "name": "getNumOwnedNFTs",
      "outputs": [
        {
          "internalType": "uint256",
          "name": "",
          "type": "uint256"
        }
      ],
      "stateMutability": "view",
      "type": "function",
      "constant": true
    },
    {
      "inputs": [],
      "name": "getOwnedNFTs",
      "outputs": [
        {
          "internalType": "uint256[]",
          "name": "",
          "type": "uint256[]"
        }
      ],
      "stateMutability": "view",
      "type": "function",
      "constant": true
    },
    {
      "inputs": [
        {
          "internalType": "address",
          "name": "_to",
          "type": "address"
        },
        {
          "internalType": "string",
          "name": "tokenURI_",
          "type": "string"
        }
      ],
      "name": "mint",
      "outputs": [],
      "stateMutability": "nonpayable",
      "type": "function"
    },
    {
      "inputs": [
        {
          "internalType": "uint256",
          "name": "tokenId",
          "type": "uint256"
        }
      ],
      "name": "isListed",
      "outputs": [
        {
          "internalType": "bool",
          "name": "",
          "type": "bool"
        }
      ],
      "stateMutability": "view",
      "type": "function",
      "constant": true
    },
    {
      "inputs": [
        {
          "internalType": "uint256",
          "name": "tokenId",
          "type": "uint256"
        }
      ],
      "name": "burn",
      "outputs": [],
      "stateMutability": "nonpayable",
      "type": "function"
    },
    {
      "inputs": [
        {
          "internalType": "address",
          "name": "recipient",
          "type": "address"
        },
        {
          "internalType": "string",
          "name": "hash",
          "type": "string"
        },
        {
          "internalType": "string",
          "name": "metadata",
          "type": "string"
        }
      ],
      "name": "awardItem",
      "outputs": [
        {
          "internalType": "uint256",
          "name": "",
          "type": "uint256"
        }
      ],
      "stateMutability": "nonpayable",
      "type": "function"
    },
    {
      "inputs": [
        {
          "internalType": "address",
          "name": "from",
          "type": "address"
        },
        {
          "internalType": "address",
          "name": "to",
          "type": "address"
        },
        {
          "internalType": "uint256",
          "name": "tokenId",
          "type": "uint256"
        }
      ],
      "name": "safeTransferFrom",
      "outputs": [],
      "stateMutability": "nonpayable",
      "type": "function"
    },
    {
      "inputs": [
        {
          "internalType": "address",
          "name": "from",
          "type": "address"
        },
        {
          "internalType": "address",
          "name": "to",
          "type": "address"
        },
        {
          "internalType": "uint256",
          "name": "tokenId",
          "type": "uint256"
        },
        {
          "internalType": "bytes",
          "name": "_data",
          "type": "bytes"
        }
      ],
      "name": "safeTransferFrom",
      "outputs": [],
      "stateMutability": "nonpayable",
      "type": "function"
    },
    {
      "inputs": [
        {
          "internalType": "address",
          "name": "from",
          "type": "address"
        },
        {
          "internalType": "address",
          "name": "to",
          "type": "address"
        },
        {
          "internalType": "uint256",
          "name": "tokenId",
          "type": "uint256"
        }
      ],
      "name": "transferFrom",
      "outputs": [],
      "stateMutability": "nonpayable",
      "type": "function"
    },
    {
      "inputs": [
        {
          "internalType": "uint256",
          "name": "_tokenId",
          "type": "uint256"
        }
      ],
      "name": "listToken",
      "outputs": [],
      "stateMutability": "nonpayable",
      "type": "function"
    },
    {
      "inputs": [
        {
          "internalType": "uint256",
          "name": "_tokenId",
          "type": "uint256"
        }
      ],
      "name": "unlistToken",
      "outputs": [],
      "stateMutability": "nonpayable",
      "type": "function"
    }
  ],
  "bytecode": "0x60806040523480156200001157600080fd5b506040518060400160405280600c81526020017f566972696469616e204e465400000000000000000000000000000000000000008152506040518060400160405280600481526020017f564e465400000000000000000000000000000000000000000000000000000000815250816000908051906020019062000096929190620001fe565b508060019080519060200190620000af929190620001fe565b505050620000d2620000c66200013060201b60201c565b6200013860201b60201c565b6001600960003373ffffffffffffffffffffffffffffffffffffffff1673ffffffffffffffffffffffffffffffffffffffff16815260200190815260200160002060006101000a81548160ff02191690831515021790555062000313565b600033905090565b6000600660009054906101000a900473ffffffffffffffffffffffffffffffffffffffff16905081600660006101000a81548173ffffffffffffffffffffffffffffffffffffffff021916908373ffffffffffffffffffffffffffffffffffffffff1602179055508173ffffffffffffffffffffffffffffffffffffffff168173ffffffffffffffffffffffffffffffffffffffff167f8be0079c531659141344cd1fd0a4f28419497f9722a3daafe3b4186f6b6457e060405160405180910390a35050565b8280546200020c90620002dd565b90600052602060002090601f0160209004810192826200023057600085556200027c565b82601f106200024b57805160ff19168380011785556200027c565b828001600101855582156200027c579182015b828111156200027b5782518255916020019190600101906200025e565b5b5090506200028b91906200028f565b5090565b5b80821115620002aa57600081600090555060010162000290565b5090565b7f4e487b7100000000000000000000000000000000000000000000000000000000600052602260045260246000fd5b60006002820490506001821680620002f657607f821691505b602082108114156200030d576200030c620002ae565b5b50919050565b613c7180620003236000396000f3fe608060405234801561001057600080fd5b50600436106101cf5760003560e01c8063715018a611610104578063bb92c248116100a2578063e6148d5f11610071578063e6148d5f14610502578063e985e9c51461051e578063f2fde38b1461054e578063fcce48831461056a576101cf565b8063bb92c2481461047a578063bda4e79714610498578063c87b56dd146104b6578063d0def521146104e6576101cf565b806395d89b41116100de57806395d89b4114610408578063a22cb46514610426578063ad3a358c14610442578063b88d4fde1461045e576101cf565b8063715018a6146103b05780638bfaf101146103ba5780638da5cb5b146103ea576101cf565b806342842e0e1161017157806355f804b31161014b57806355f804b3146103185780636352211e14610334578063704802751461036457806370a0823114610380576101cf565b806342842e0e146102c257806342966c68146102de5780634c0eb7d9146102fa576101cf565b8063081812fc116101ad578063081812fc1461023e578063095ea7b31461026e5780631785f53c1461028a57806323b872dd146102a6576101cf565b806301538868146101d457806301ffc9a7146101f057806306fdde0314610220575b600080fd5b6101ee60048036038101906101e991906127d2565b61059a565b005b61020a60048036038101906102059190612886565b61068a565b60405161021791906128ce565b60405180910390f35b61022861076c565b6040516102359190612971565b60405180910390f35b61025860048036038101906102539190612993565b6107fe565b6040516102659190612a01565b60405180910390f35b61028860048036038101906102839190612a48565b610883565b005b6102a4600480360381019061029f9190612a88565b61099b565b005b6102c060048036038101906102bb9190612ab5565b610a72565b005b6102dc60048036038101906102d79190612ab5565b610ae3565b005b6102f860048036038101906102f39190612993565b610b54565b005b610302610b81565b60405161030f9190612bc6565b60405180910390f35b610332600480360381019061032d9190612be8565b610c76565b005b61034e60048036038101906103499190612993565b610d0c565b60405161035b9190612a01565b60405180910390f35b61037e60048036038101906103799190612a88565b610dbe565b005b61039a60048036038101906103959190612a88565b610e95565b6040516103a79190612c40565b60405180910390f35b6103b8610f4d565b005b6103d460048036038101906103cf9190612c5b565b610fd5565b6040516103e19190612c40565b60405180910390f35b6103f2611082565b6040516103ff9190612a01565b60405180910390f35b6104106110ac565b60405161041d9190612971565b60405180910390f35b610440600480360381019061043b9190612d12565b61113e565b005b61045c60048036038101906104579190612993565b6112bf565b005b61047860048036038101906104739190612df3565b611301565b005b610482611363565b60405161048f9190612c40565b60405180910390f35b6104a06113e7565b6040516104ad9190612c40565b60405180910390f35b6104d060048036038101906104cb9190612993565b6113f8565b6040516104dd9190612971565b60405180910390f35b61050060048036038101906104fb9190612e76565b61156b565b005b61051c60048036038101906105179190612993565b611625565b005b61053860048036038101906105339190612ed2565b611667565b60405161054591906128ce565b60405180910390f35b61056860048036038101906105639190612a88565b6116fb565b005b610584600480360381019061057f9190612993565b6117f3565b60405161059191906128ce565b60405180910390f35b6105a261181d565b73ffffffffffffffffffffffffffffffffffffffff166105c0611082565b73ffffffffffffffffffffffffffffffffffffffff1614610616576040517f08c379a000000000000000000000000000000000000000000000000000000000815260040161060d90612f5e565b60405180910390fd5b61061f82611825565b61065e576040517f08c379a000000000000000000000000000000000000000000000000000000000815260040161065590612ff0565b60405180910390fd5b80600a6000848152602001908152602001600020908051906020019061068592919061259f565b505050565b60007f80ac58cd000000000000000000000000000000000000000000000000000000007bffffffffffffffffffffffffffffffffffffffffffffffffffffffff1916827bffffffffffffffffffffffffffffffffffffffffffffffffffffffff1916148061075557507f5b5e139f000000000000000000000000000000000000000000000000000000007bffffffffffffffffffffffffffffffffffffffffffffffffffffffff1916827bffffffffffffffffffffffffffffffffffffffffffffffffffffffff1916145b80610765575061076482611891565b5b9050919050565b60606000805461077b9061303f565b80601f01602080910402602001604051908101604052809291908181526020018280546107a79061303f565b80156107f45780601f106107c9576101008083540402835291602001916107f4565b820191906000526020600020905b8154815290600101906020018083116107d757829003601f168201915b5050505050905090565b600061080982611825565b610848576040517f08c379a000000000000000000000000000000000000000000000000000000000815260040161083f906130e3565b60405180910390fd5b6004600083815260200190815260200160002060009054906101000a900473ffffffffffffffffffffffffffffffffffffffff169050919050565b600061088e82610d0c565b90508073ffffffffffffffffffffffffffffffffffffffff168373ffffffffffffffffffffffffffffffffffffffff1614156108ff576040517f08c379a00000000000000000000000000000000000000000000000000000000081526004016108f690613175565b60405180910390fd5b8073ffffffffffffffffffffffffffffffffffffffff1661091e61181d565b73ffffffffffffffffffffffffffffffffffffffff16148061094d575061094c8161094761181d565b611667565b5b61098c576040517f08c379a000000000000000000000000000000000000000000000000000000000815260040161098390613207565b60405180910390fd5b61099683836118fb565b505050565b6109a361181d565b73ffffffffffffffffffffffffffffffffffffffff166109c1611082565b73ffffffffffffffffffffffffffffffffffffffff1614610a17576040517f08c379a0000000000000000000000000000000000000000000000000000000008152600401610a0e90612f5e565b60405180910390fd5b6000600960008373ffffffffffffffffffffffffffffffffffffffff1673ffffffffffffffffffffffffffffffffffffffff16815260200190815260200160002060006101000a81548160ff02191690831515021790555050565b600b600082815260200190815260200160002060009054906101000a900460ff1615610ad3576040517f08c379a0000000000000000000000000000000000000000000000000000000008152600401610aca90613299565b60405180910390fd5b610ade8383836119b4565b505050565b600b600082815260200190815260200160002060009054906101000a900460ff1615610b44576040517f08c379a0000000000000000000000000000000000000000000000000000000008152600401610b3b90613299565b60405180910390fd5b610b4f838383611a14565b505050565b610b5e3382611a34565b610b6757600080fd5b6000610b7282610d0c565b9050610b7d82611b12565b5050565b60606000610b8d611363565b67ffffffffffffffff811115610ba657610ba56126a7565b5b604051908082528060200260200182016040528015610bd45781602001602082028036833780820191505090505b509050600080600190505b610be96007611c23565b8111610c6d573373ffffffffffffffffffffffffffffffffffffffff16610c0f82610d0c565b73ffffffffffffffffffffffffffffffffffffffff161415610c5a5780838381518110610c3f57610c3e6132b9565b5b6020026020010181815250508180610c5690613317565b9250505b8080610c6590613317565b915050610bdf565b50819250505090565b610c7e61181d565b73ffffffffffffffffffffffffffffffffffffffff16610c9c611082565b73ffffffffffffffffffffffffffffffffffffffff1614610cf2576040517f08c379a0000000000000000000000000000000000000000000000000000000008152600401610ce990612f5e565b60405180910390fd5b80600c9080519060200190610d0892919061259f565b5050565b6000806002600084815260200190815260200160002060009054906101000a900473ffffffffffffffffffffffffffffffffffffffff169050600073ffffffffffffffffffffffffffffffffffffffff168173ffffffffffffffffffffffffffffffffffffffff161415610db5576040517f08c379a0000000000000000000000000000000000000000000000000000000008152600401610dac906133d2565b60405180910390fd5b80915050919050565b610dc661181d565b73ffffffffffffffffffffffffffffffffffffffff16610de4611082565b73ffffffffffffffffffffffffffffffffffffffff1614610e3a576040517f08c379a0000000000000000000000000000000000000000000000000000000008152600401610e3190612f5e565b60405180910390fd5b6001600960008373ffffffffffffffffffffffffffffffffffffffff1673ffffffffffffffffffffffffffffffffffffffff16815260200190815260200160002060006101000a81548160ff02191690831515021790555050565b60008073ffffffffffffffffffffffffffffffffffffffff168273ffffffffffffffffffffffffffffffffffffffff161415610f06576040517f08c379a0000000000000000000000000000000000000000000000000000000008152600401610efd90613464565b60405180910390fd5b600360008373ffffffffffffffffffffffffffffffffffffffff1673ffffffffffffffffffffffffffffffffffffffff168152602001908152602001600020549050919050565b610f5561181d565b73ffffffffffffffffffffffffffffffffffffffff16610f73611082565b73ffffffffffffffffffffffffffffffffffffffff1614610fc9576040517f08c379a0000000000000000000000000000000000000000000000000000000008152600401610fc090612f5e565b60405180910390fd5b610fd36000611c31565b565b60006001600884604051610fe991906134c0565b908152602001604051809103902060009054906101000a900460ff1660ff16141561101357600080fd5b600160088460405161102591906134c0565b908152602001604051809103902060006101000a81548160ff021916908360ff1602179055506110556007611cf7565b60006110616007611c23565b905061106d8582611d0d565b611077818461059a565b809150509392505050565b6000600660009054906101000a900473ffffffffffffffffffffffffffffffffffffffff16905090565b6060600180546110bb9061303f565b80601f01602080910402602001604051908101604052809291908181526020018280546110e79061303f565b80156111345780601f1061110957610100808354040283529160200191611134565b820191906000526020600020905b81548152906001019060200180831161111757829003601f168201915b5050505050905090565b61114661181d565b73ffffffffffffffffffffffffffffffffffffffff168273ffffffffffffffffffffffffffffffffffffffff1614156111b4576040517f08c379a00000000000000000000000000000000000000000000000000000000081526004016111ab90613523565b60405180910390fd5b80600560006111c161181d565b73ffffffffffffffffffffffffffffffffffffffff1673ffffffffffffffffffffffffffffffffffffffff16815260200190815260200160002060008473ffffffffffffffffffffffffffffffffffffffff1673ffffffffffffffffffffffffffffffffffffffff16815260200190815260200160002060006101000a81548160ff0219169083151502179055508173ffffffffffffffffffffffffffffffffffffffff1661126e61181d565b73ffffffffffffffffffffffffffffffffffffffff167f17307eab39ab6107e8899845ad3d59bd9653f200f220920489ca2b5937696c31836040516112b391906128ce565b60405180910390a35050565b6112c93382611a34565b6112d257600080fd5b6000600b600083815260200190815260200160002060006101000a81548160ff02191690831515021790555050565b61131261130c61181d565b83611a34565b611351576040517f08c379a0000000000000000000000000000000000000000000000000000000008152600401611348906135b5565b60405180910390fd5b61135d84848484611edb565b50505050565b600080600090506000600190505b61137b6007611c23565b81116113df573373ffffffffffffffffffffffffffffffffffffffff166113a182610d0c565b73ffffffffffffffffffffffffffffffffffffffff1614156113cc5781806113c890613317565b9250505b80806113d790613317565b915050611371565b508091505090565b60006113f36007611c23565b905090565b606061140382611825565b611442576040517f08c379a000000000000000000000000000000000000000000000000000000000815260040161143990613647565b60405180910390fd5b6000600a600084815260200190815260200160002080546114629061303f565b80601f016020809104026020016040519081016040528092919081815260200182805461148e9061303f565b80156114db5780601f106114b0576101008083540402835291602001916114db565b820191906000526020600020905b8154815290600101906020018083116114be57829003601f168201915b5050505050905060006114ec611f37565b9050600081511415611502578192505050611566565b60008251111561153757808260405160200161151f929190613667565b60405160208183030381529060405292505050611566565b8061154185611fc9565b604051602001611552929190613667565b604051602081830303815290604052925050505b919050565b60011515600960003373ffffffffffffffffffffffffffffffffffffffff1673ffffffffffffffffffffffffffffffffffffffff16815260200190815260200160002060009054906101000a900460ff161515146115c857600080fd5b6115d26007611cf7565b60006115de6007611c23565b90506115ea838261212a565b6000600b600083815260200190815260200160002060006101000a81548160ff021916908315150217905550611620818361059a565b505050565b61162f3382611a34565b61163857600080fd5b6001600b600083815260200190815260200160002060006101000a81548160ff02191690831515021790555050565b6000600560008473ffffffffffffffffffffffffffffffffffffffff1673ffffffffffffffffffffffffffffffffffffffff16815260200190815260200160002060008373ffffffffffffffffffffffffffffffffffffffff1673ffffffffffffffffffffffffffffffffffffffff16815260200190815260200160002060009054906101000a900460ff16905092915050565b61170361181d565b73ffffffffffffffffffffffffffffffffffffffff16611721611082565b73ffffffffffffffffffffffffffffffffffffffff1614611777576040517f08c379a000000000000000000000000000000000000000000000000000000000815260040161176e90612f5e565b60405180910390fd5b600073ffffffffffffffffffffffffffffffffffffffff168173ffffffffffffffffffffffffffffffffffffffff1614156117e7576040517f08c379a00000000000000000000000000000000000000000000000000000000081526004016117de906136fd565b60405180910390fd5b6117f081611c31565b50565b6000600b600083815260200190815260200160002060009054906101000a900460ff169050919050565b600033905090565b60008073ffffffffffffffffffffffffffffffffffffffff166002600084815260200190815260200160002060009054906101000a900473ffffffffffffffffffffffffffffffffffffffff1673ffffffffffffffffffffffffffffffffffffffff1614159050919050565b60007f01ffc9a7000000000000000000000000000000000000000000000000000000007bffffffffffffffffffffffffffffffffffffffffffffffffffffffff1916827bffffffffffffffffffffffffffffffffffffffffffffffffffffffff1916149050919050565b816004600083815260200190815260200160002060006101000a81548173ffffffffffffffffffffffffffffffffffffffff021916908373ffffffffffffffffffffffffffffffffffffffff160217905550808273ffffffffffffffffffffffffffffffffffffffff1661196e83610d0c565b73ffffffffffffffffffffffffffffffffffffffff167f8c5be1e5ebec7d5bd14f71427d1e84f3dd0314c0f7b2291e5b200ac8c7c3b92560405160405180910390a45050565b6119c56119bf61181d565b82611a34565b611a04576040517f08c379a00000000000000000000000000000000000000000000000000000000081526004016119fb906135b5565b60405180910390fd5b611a0f838383612148565b505050565b611a2f83838360405180602001604052806000815250611301565b505050565b6000611a3f82611825565b611a7e576040517f08c379a0000000000000000000000000000000000000000000000000000000008152600401611a759061378f565b60405180910390fd5b6000611a8983610d0c565b90508073ffffffffffffffffffffffffffffffffffffffff168473ffffffffffffffffffffffffffffffffffffffff161480611af857508373ffffffffffffffffffffffffffffffffffffffff16611ae0846107fe565b73ffffffffffffffffffffffffffffffffffffffff16145b80611b095750611b088185611667565b5b91505092915050565b6000611b1d82610d0c565b9050611b2b816000846123a4565b611b366000836118fb565b6001600360008373ffffffffffffffffffffffffffffffffffffffff1673ffffffffffffffffffffffffffffffffffffffff1681526020019081526020016000206000828254611b8691906137af565b925050819055506002600083815260200190815260200160002060006101000a81549073ffffffffffffffffffffffffffffffffffffffff021916905581600073ffffffffffffffffffffffffffffffffffffffff168273ffffffffffffffffffffffffffffffffffffffff167fddf252ad1be2c89b69c2b068fc378daa952ba7f163c4a11628f55a4df523b3ef60405160405180910390a45050565b600081600001549050919050565b6000600660009054906101000a900473ffffffffffffffffffffffffffffffffffffffff16905081600660006101000a81548173ffffffffffffffffffffffffffffffffffffffff021916908373ffffffffffffffffffffffffffffffffffffffff1602179055508173ffffffffffffffffffffffffffffffffffffffff168173ffffffffffffffffffffffffffffffffffffffff167f8be0079c531659141344cd1fd0a4f28419497f9722a3daafe3b4186f6b6457e060405160405180910390a35050565b6001816000016000828254019250508190555050565b600073ffffffffffffffffffffffffffffffffffffffff168273ffffffffffffffffffffffffffffffffffffffff161415611d7d576040517f08c379a0000000000000000000000000000000000000000000000000000000008152600401611d749061382f565b60405180910390fd5b611d8681611825565b15611dc6576040517f08c379a0000000000000000000000000000000000000000000000000000000008152600401611dbd9061389b565b60405180910390fd5b611dd2600083836123a4565b6001600360008473ffffffffffffffffffffffffffffffffffffffff1673ffffffffffffffffffffffffffffffffffffffff1681526020019081526020016000206000828254611e2291906138bb565b92505081905550816002600083815260200190815260200160002060006101000a81548173ffffffffffffffffffffffffffffffffffffffff021916908373ffffffffffffffffffffffffffffffffffffffff160217905550808273ffffffffffffffffffffffffffffffffffffffff16600073ffffffffffffffffffffffffffffffffffffffff167fddf252ad1be2c89b69c2b068fc378daa952ba7f163c4a11628f55a4df523b3ef60405160405180910390a45050565b611ee6848484612148565b611ef2848484846123a9565b611f31576040517f08c379a0000000000000000000000000000000000000000000000000000000008152600401611f2890613983565b60405180910390fd5b50505050565b6060600c8054611f469061303f565b80601f0160208091040260200160405190810160405280929190818152602001828054611f729061303f565b8015611fbf5780601f10611f9457610100808354040283529160200191611fbf565b820191906000526020600020905b815481529060010190602001808311611fa257829003601f168201915b5050505050905090565b60606000821415612011576040518060400160405280600181526020017f30000000000000000000000000000000000000000000000000000000000000008152509050612125565b600082905060005b6000821461204357808061202c90613317565b915050600a8261203c91906139d2565b9150612019565b60008167ffffffffffffffff81111561205f5761205e6126a7565b5b6040519080825280601f01601f1916602001820160405280156120915781602001600182028036833780820191505090505b5090505b6000851461211e576001826120aa91906137af565b9150600a856120b99190613a03565b60306120c591906138bb565b60f81b8183815181106120db576120da6132b9565b5b60200101907effffffffffffffffffffffffffffffffffffffffffffffffffffffffffffff1916908160001a905350600a8561211791906139d2565b9450612095565b8093505050505b919050565b612144828260405180602001604052806000815250612531565b5050565b8273ffffffffffffffffffffffffffffffffffffffff1661216882610d0c565b73ffffffffffffffffffffffffffffffffffffffff16146121be576040517f08c379a00000000000000000000000000000000000000000000000000000000081526004016121b590613aa6565b60405180910390fd5b600073ffffffffffffffffffffffffffffffffffffffff168273ffffffffffffffffffffffffffffffffffffffff16141561222e576040517f08c379a000000000000000000000000000000000000000000000000000000000815260040161222590613b38565b60405180910390fd5b6122398383836123a4565b6122446000826118fb565b6001600360008573ffffffffffffffffffffffffffffffffffffffff1673ffffffffffffffffffffffffffffffffffffffff168152602001908152602001600020600082825461229491906137af565b925050819055506001600360008473ffffffffffffffffffffffffffffffffffffffff1673ffffffffffffffffffffffffffffffffffffffff16815260200190815260200160002060008282546122eb91906138bb565b92505081905550816002600083815260200190815260200160002060006101000a81548173ffffffffffffffffffffffffffffffffffffffff021916908373ffffffffffffffffffffffffffffffffffffffff160217905550808273ffffffffffffffffffffffffffffffffffffffff168473ffffffffffffffffffffffffffffffffffffffff167fddf252ad1be2c89b69c2b068fc378daa952ba7f163c4a11628f55a4df523b3ef60405160405180910390a4505050565b505050565b60006123ca8473ffffffffffffffffffffffffffffffffffffffff1661258c565b15612524578373ffffffffffffffffffffffffffffffffffffffff1663150b7a026123f361181d565b8786866040518563ffffffff1660e01b81526004016124159493929190613bad565b6020604051808303816000875af192505050801561245157506040513d601f19601f8201168201806040525081019061244e9190613c0e565b60015b6124d4573d8060008114612481576040519150601f19603f3d011682016040523d82523d6000602084013e612486565b606091505b506000815114156124cc576040517f08c379a00000000000000000000000000000000000000000000000000000000081526004016124c390613983565b60405180910390fd5b805181602001fd5b63150b7a0260e01b7bffffffffffffffffffffffffffffffffffffffffffffffffffffffff1916817bffffffffffffffffffffffffffffffffffffffffffffffffffffffff191614915050612529565b600190505b949350505050565b61253b8383611d0d565b61254860008484846123a9565b612587576040517f08c379a000000000000000000000000000000000000000000000000000000000815260040161257e90613983565b60405180910390fd5b505050565b600080823b905060008111915050919050565b8280546125ab9061303f565b90600052602060002090601f0160209004810192826125cd5760008555612614565b82601f106125e657805160ff1916838001178555612614565b82800160010185558215612614579182015b828111156126135782518255916020019190600101906125f8565b5b5090506126219190612625565b5090565b5b8082111561263e576000816000905550600101612626565b5090565b6000604051905090565b600080fd5b600080fd5b6000819050919050565b61266981612656565b811461267457600080fd5b50565b60008135905061268681612660565b92915050565b600080fd5b600080fd5b6000601f19601f8301169050919050565b7f4e487b7100000000000000000000000000000000000000000000000000000000600052604160045260246000fd5b6126df82612696565b810181811067ffffffffffffffff821117156126fe576126fd6126a7565b5b80604052505050565b6000612711612642565b905061271d82826126d6565b919050565b600067ffffffffffffffff82111561273d5761273c6126a7565b5b61274682612696565b9050602081019050919050565b82818337600083830152505050565b600061277561277084612722565b612707565b90508281526020810184848401111561279157612790612691565b5b61279c848285612753565b509392505050565b600082601f8301126127b9576127b861268c565b5b81356127c9848260208601612762565b91505092915050565b600080604083850312156127e9576127e861264c565b5b60006127f785828601612677565b925050602083013567ffffffffffffffff81111561281857612817612651565b5b612824858286016127a4565b9150509250929050565b60007fffffffff0000000000000000000000000000000000000000000000000000000082169050919050565b6128638161282e565b811461286e57600080fd5b50565b6000813590506128808161285a565b92915050565b60006020828403121561289c5761289b61264c565b5b60006128aa84828501612871565b91505092915050565b60008115159050919050565b6128c8816128b3565b82525050565b60006020820190506128e360008301846128bf565b92915050565b600081519050919050565b600082825260208201905092915050565b60005b83811015612923578082015181840152602081019050612908565b83811115612932576000848401525b50505050565b6000612943826128e9565b61294d81856128f4565b935061295d818560208601612905565b61296681612696565b840191505092915050565b6000602082019050818103600083015261298b8184612938565b905092915050565b6000602082840312156129a9576129a861264c565b5b60006129b784828501612677565b91505092915050565b600073ffffffffffffffffffffffffffffffffffffffff82169050919050565b60006129eb826129c0565b9050919050565b6129fb816129e0565b82525050565b6000602082019050612a1660008301846129f2565b92915050565b612a25816129e0565b8114612a3057600080fd5b50565b600081359050612a4281612a1c565b92915050565b60008060408385031215612a5f57612a5e61264c565b5b6000612a6d85828601612a33565b9250506020612a7e85828601612677565b9150509250929050565b600060208284031215612a9e57612a9d61264c565b5b6000612aac84828501612a33565b91505092915050565b600080600060608486031215612ace57612acd61264c565b5b6000612adc86828701612a33565b9350506020612aed86828701612a33565b9250506040612afe86828701612677565b9150509250925092565b600081519050919050565b600082825260208201905092915050565b6000819050602082019050919050565b612b3d81612656565b82525050565b6000612b4f8383612b34565b60208301905092915050565b6000602082019050919050565b6000612b7382612b08565b612b7d8185612b13565b9350612b8883612b24565b8060005b83811015612bb9578151612ba08882612b43565b9750612bab83612b5b565b925050600181019050612b8c565b5085935050505092915050565b60006020820190508181036000830152612be08184612b68565b905092915050565b600060208284031215612bfe57612bfd61264c565b5b600082013567ffffffffffffffff811115612c1c57612c1b612651565b5b612c28848285016127a4565b91505092915050565b612c3a81612656565b82525050565b6000602082019050612c556000830184612c31565b92915050565b600080600060608486031215612c7457612c7361264c565b5b6000612c8286828701612a33565b935050602084013567ffffffffffffffff811115612ca357612ca2612651565b5b612caf868287016127a4565b925050604084013567ffffffffffffffff811115612cd057612ccf612651565b5b612cdc868287016127a4565b9150509250925092565b612cef816128b3565b8114612cfa57600080fd5b50565b600081359050612d0c81612ce6565b92915050565b60008060408385031215612d2957612d2861264c565b5b6000612d3785828601612a33565b9250506020612d4885828601612cfd565b9150509250929050565b600067ffffffffffffffff821115612d6d57612d6c6126a7565b5b612d7682612696565b9050602081019050919050565b6000612d96612d9184612d52565b612707565b905082815260208101848484011115612db257612db1612691565b5b612dbd848285612753565b509392505050565b600082601f830112612dda57612dd961268c565b5b8135612dea848260208601612d83565b91505092915050565b60008060008060808587031215612e0d57612e0c61264c565b5b6000612e1b87828801612a33565b9450506020612e2c87828801612a33565b9350506040612e3d87828801612677565b925050606085013567ffffffffffffffff811115612e5e57612e5d612651565b5b612e6a87828801612dc5565b91505092959194509250565b60008060408385031215612e8d57612e8c61264c565b5b6000612e9b85828601612a33565b925050602083013567ffffffffffffffff811115612ebc57612ebb612651565b5b612ec8858286016127a4565b9150509250929050565b60008060408385031215612ee957612ee861264c565b5b6000612ef785828601612a33565b9250506020612f0885828601612a33565b9150509250929050565b7f4f776e61626c653a2063616c6c6572206973206e6f7420746865206f776e6572600082015250565b6000612f486020836128f4565b9150612f5382612f12565b602082019050919050565b60006020820190508181036000830152612f7781612f3b565b9050919050565b7f4552433732314d657461646174613a2055524920736574206f66206e6f6e657860008201527f697374656e7420746f6b656e0000000000000000000000000000000000000000602082015250565b6000612fda602c836128f4565b9150612fe582612f7e565b604082019050919050565b6000602082019050818103600083015261300981612fcd565b9050919050565b7f4e487b7100000000000000000000000000000000000000000000000000000000600052602260045260246000fd5b6000600282049050600182168061305757607f821691505b6020821081141561306b5761306a613010565b5b50919050565b7f4552433732313a20617070726f76656420717565727920666f72206e6f6e657860008201527f697374656e7420746f6b656e0000000000000000000000000000000000000000602082015250565b60006130cd602c836128f4565b91506130d882613071565b604082019050919050565b600060208201905081810360008301526130fc816130c0565b9050919050565b7f4552433732313a20617070726f76616c20746f2063757272656e74206f776e6560008201527f7200000000000000000000000000000000000000000000000000000000000000602082015250565b600061315f6021836128f4565b915061316a82613103565b604082019050919050565b6000602082019050818103600083015261318e81613152565b9050919050565b7f4552433732313a20617070726f76652063616c6c6572206973206e6f74206f7760008201527f6e6572206e6f7220617070726f76656420666f7220616c6c0000000000000000602082015250565b60006131f16038836128f4565b91506131fc82613195565b604082019050919050565b60006020820190508181036000830152613220816131e4565b9050919050565b7f566972696469616e204e46543a2043616e6e6f74207472616e7366657220776860008201527f696c65206c6973746564206f6e20566972696469616e2045786368616e676500602082015250565b6000613283603f836128f4565b915061328e82613227565b604082019050919050565b600060208201905081810360008301526132b281613276565b9050919050565b7f4e487b7100000000000000000000000000000000000000000000000000000000600052603260045260246000fd5b7f4e487b7100000000000000000000000000000000000000000000000000000000600052601160045260246000fd5b600061332282612656565b91507fffffffffffffffffffffffffffffffffffffffffffffffffffffffffffffffff821415613355576133546132e8565b5b600182019050919050565b7f4552433732313a206f776e657220717565727920666f72206e6f6e657869737460008201527f656e7420746f6b656e0000000000000000000000000000000000000000000000602082015250565b60006133bc6029836128f4565b91506133c782613360565b604082019050919050565b600060208201905081810360008301526133eb816133af565b9050919050565b7f4552433732313a2062616c616e636520717565727920666f7220746865207a6560008201527f726f206164647265737300000000000000000000000000000000000000000000602082015250565b600061344e602a836128f4565b9150613459826133f2565b604082019050919050565b6000602082019050818103600083015261347d81613441565b9050919050565b600081905092915050565b600061349a826128e9565b6134a48185613484565b93506134b4818560208601612905565b80840191505092915050565b60006134cc828461348f565b915081905092915050565b7f4552433732313a20617070726f766520746f2063616c6c657200000000000000600082015250565b600061350d6019836128f4565b9150613518826134d7565b602082019050919050565b6000602082019050818103600083015261353c81613500565b9050919050565b7f4552433732313a207472616e736665722063616c6c6572206973206e6f74206f60008201527f776e6572206e6f7220617070726f766564000000000000000000000000000000602082015250565b600061359f6031836128f4565b91506135aa82613543565b604082019050919050565b600060208201905081810360008301526135ce81613592565b9050919050565b7f4552433732314d657461646174613a2055524920717565727920666f72206e6f60008201527f6e6578697374656e7420746f6b656e0000000000000000000000000000000000602082015250565b6000613631602f836128f4565b915061363c826135d5565b604082019050919050565b6000602082019050818103600083015261366081613624565b9050919050565b6000613673828561348f565b915061367f828461348f565b91508190509392505050565b7f4f776e61626c653a206e6577206f776e657220697320746865207a65726f206160008201527f6464726573730000000000000000000000000000000000000000000000000000602082015250565b60006136e76026836128f4565b91506136f28261368b565b604082019050919050565b60006020820190508181036000830152613716816136da565b9050919050565b7f4552433732313a206f70657261746f7220717565727920666f72206e6f6e657860008201527f697374656e7420746f6b656e0000000000000000000000000000000000000000602082015250565b6000613779602c836128f4565b91506137848261371d565b604082019050919050565b600060208201905081810360008301526137a88161376c565b9050919050565b60006137ba82612656565b91506137c583612656565b9250828210156137d8576137d76132e8565b5b828203905092915050565b7f4552433732313a206d696e7420746f20746865207a65726f2061646472657373600082015250565b60006138196020836128f4565b9150613824826137e3565b602082019050919050565b600060208201905081810360008301526138488161380c565b9050919050565b7f4552433732313a20746f6b656e20616c7265616479206d696e74656400000000600082015250565b6000613885601c836128f4565b91506138908261384f565b602082019050919050565b600060208201905081810360008301526138b481613878565b9050919050565b60006138c682612656565b91506138d183612656565b9250827fffffffffffffffffffffffffffffffffffffffffffffffffffffffffffffffff03821115613906576139056132e8565b5b828201905092915050565b7f4552433732313a207472616e7366657220746f206e6f6e20455243373231526560008201527f63656976657220696d706c656d656e7465720000000000000000000000000000602082015250565b600061396d6032836128f4565b915061397882613911565b604082019050919050565b6000602082019050818103600083015261399c81613960565b9050919050565b7f4e487b7100000000000000000000000000000000000000000000000000000000600052601260045260246000fd5b60006139dd82612656565b91506139e883612656565b9250826139f8576139f76139a3565b5b828204905092915050565b6000613a0e82612656565b9150613a1983612656565b925082613a2957613a286139a3565b5b828206905092915050565b7f4552433732313a207472616e73666572206f6620746f6b656e2074686174206960008201527f73206e6f74206f776e0000000000000000000000000000000000000000000000602082015250565b6000613a906029836128f4565b9150613a9b82613a34565b604082019050919050565b60006020820190508181036000830152613abf81613a83565b9050919050565b7f4552433732313a207472616e7366657220746f20746865207a65726f2061646460008201527f7265737300000000000000000000000000000000000000000000000000000000602082015250565b6000613b226024836128f4565b9150613b2d82613ac6565b604082019050919050565b60006020820190508181036000830152613b5181613b15565b9050919050565b600081519050919050565b600082825260208201905092915050565b6000613b7f82613b58565b613b898185613b63565b9350613b99818560208601612905565b613ba281612696565b840191505092915050565b6000608082019050613bc260008301876129f2565b613bcf60208301866129f2565b613bdc6040830185612c31565b8181036060830152613bee8184613b74565b905095945050505050565b600081519050613c088161285a565b92915050565b600060208284031215613c2457613c2361264c565b5b6000613c3284828501613bf9565b9150509291505056fea2646970667358221220fcdc2d32728260b416dc8584f2daa97cee032a26cff2afb49b6c8f4051758fbd64736f6c634300080a0033",
  "immutableReferences": {},
  "source": "pragma solidity ^0.8.0;\n\nimport \"@openzeppelin/contracts/token/ERC721/ERC721.sol\";\nimport \"@openzeppelin/contracts/utils/Counters.sol\";\nimport \"@openzeppelin/contracts/access/Ownable.sol\";\n\ncontract ViridianNFT is ERC721, Ownable {\n\n    using Counters for Counters.Counter;\n    Counters.Counter private _tokenIds;\n    mapping(string => uint8) hashes;\n    \n    mapping(address => bool) admins;\n    \n    // constructor(address _imx) ERC721(\"Viridian NFT\", \"VNFT\") Mintable(msg.sender, _imx) {\n    //     admins[msg.sender] = true;\n    // }\n\n    constructor() ERC721(\"Viridian NFT\", \"VNFT\") {\n        admins[msg.sender] = true;\n    }\n\n    using Strings for uint256;\n\n    //TODO: Maybe add restrictions to NFT usage when it is listed on the exchange, do not allow ownership transfer \n    // while it is listed for sale or offer to avoid issues with invalid purchasing, or just protect from transactions going through\n    // on exchange, ask someone about this scenario.\n\n\n    // Optional mapping for token URIs\n    mapping (uint256 => string) private _tokenURIs;\n\n    //mapping(uint256 => bytes) public blueprints;\n\n    mapping (uint256 => bool) private _tokensListed;\n\n    //address private viridianExchangeAddress;\n\n    // Base URI\n    string private _baseURIextended;\n\n    modifier onlyAdmin() {\n        require(admins[msg.sender] == true);\n            _;\n    }\n\n    function addAdmin(address _newAdmin) external onlyOwner() {\n        admins[_newAdmin] = true;\n    }\n\n    function removeAdmin(address _newAdmin) external onlyOwner() {\n        admins[_newAdmin] = false;\n    }\n\n    // function setExchangeAddress(address ea) public onlyOwner() {\n    //     viridianExchangeAddress = ea;\n    // }\n    \n    function setBaseURI(string memory baseURI_) external onlyOwner() {\n        _baseURIextended = baseURI_;\n    }\n    \n    function _setTokenURI(uint256 tokenId, string memory _tokenURI) public virtual onlyOwner() {\n        require(_exists(tokenId), \"ERC721Metadata: URI set of nonexistent token\");\n        _tokenURIs[tokenId] = _tokenURI;\n    }\n    \n    function _baseURI() internal view virtual override returns (string memory) {\n        return _baseURIextended;\n    }\n    \n    function tokenURI(uint256 tokenId) public view virtual override returns (string memory) {\n        require(_exists(tokenId), \"ERC721Metadata: URI query for nonexistent token\");\n\n        string memory _tokenURI = _tokenURIs[tokenId];\n        string memory base = _baseURI();\n        \n        // If there is no base URI, return the token URI.\n        if (bytes(base).length == 0) {\n            return _tokenURI;\n        }\n        // If both are set, concatenate the baseURI and tokenURI (via abi.encodePacked).\n        if (bytes(_tokenURI).length > 0) {\n            return string(abi.encodePacked(base, _tokenURI));\n        }\n        // If there is a baseURI but no tokenURI, concatenate the tokenID to the baseURI.\n        return string(abi.encodePacked(base, tokenId.toString()));\n    }\n\n    function getNumNFTs() public view returns (uint256 n) {\n        return _tokenIds.current();\n    }\n\n    function getNumOwnedNFTs() public view virtual returns (uint256) {\n        uint256 numOwnedNFTs = 0;\n\n        for (uint256 i = 1; i <= _tokenIds.current(); i++) {\n            if (ownerOf(i) == msg.sender) {\n                numOwnedNFTs++;\n            }\n        }\n\n        return numOwnedNFTs;\n    }\n \n    function getOwnedNFTs() public view virtual returns (uint256[] memory) {\n\n        uint256[] memory _tokens = new uint256[](getNumOwnedNFTs());\n\n        uint256 curIndex = 0;\n\n        for (uint256 i = 1; i <= _tokenIds.current(); i++) {\n            if (ownerOf(i) == msg.sender) {\n                _tokens[curIndex] = i;\n                curIndex++;\n            }\n        }\n        \n        return _tokens;\n    }\n\n    function mint(\n        address _to,\n        string memory tokenURI_\n    ) external onlyAdmin() {\n        _tokenIds.increment();\n        uint256 _tokenId = _tokenIds.current();\n\n        _safeMint(_to, _tokenId);\n        _tokensListed[_tokenId] = false;\n        _setTokenURI(_tokenId, tokenURI_);\n    }\n\n    function isListed(uint256 tokenId) public view returns (bool) {\n        return _tokensListed[tokenId];\n    }\n\n    function burn(uint256 tokenId) public {\n        require(_isApprovedOrOwner(msg.sender, tokenId));\n\n        address owner = ownerOf(tokenId);\n\n        _burn(tokenId);\n    }\n\n    function awardItem(address recipient, string memory hash, string memory metadata) public returns (uint256) {\n        require(hashes[hash] != 1);\n        hashes[hash] = 1;\n        _tokenIds.increment();\n        uint256 newItemId = _tokenIds.current();\n        _mint(recipient, newItemId);\n        _setTokenURI(newItemId, metadata);\n        return newItemId;\n    }\n\n    function safeTransferFrom(address from, address to, uint256 tokenId) public override {\n        require(!_tokensListed[tokenId], \"Viridian NFT: Cannot transfer while listed on Viridian Exchange\");\n\n        super.safeTransferFrom(from, to, tokenId);\n    }\n\n    function transferFrom(address from, address to, uint256 tokenId) public override {\n        require(!_tokensListed[tokenId], \"Viridian NFT: Cannot transfer while listed on Viridian Exchange\");\n\n        super.transferFrom(from, to, tokenId);\n    }\n\n    function listToken(uint256 _tokenId) public {\n        require(_isApprovedOrOwner(msg.sender, _tokenId));\n        _tokensListed[_tokenId] = true;\n    }\n\n    function unlistToken(uint256 _tokenId) public {\n        require(_isApprovedOrOwner(msg.sender, _tokenId));\n        _tokensListed[_tokenId] = false;\n    }\n}",
  "sourcePath": "/Users/blakehatch/Viridian-Exchange-Contracts/contracts/ViridianNFT.sol",
  "compiler": {
    "name": "solc",
    "version": "0.8.10+commit.fc410830.Emscripten.clang"
  },
  "schemaVersion": "3.4.1",
  "updatedAt": "2021-11-18T22:35:35.937Z",
  "networkType": "ethereum",
  "devdoc": {
    "kind": "dev",
    "methods": {
      "approve(address,uint256)": {
        "details": "See {IERC721-approve}."
      },
      "balanceOf(address)": {
        "details": "See {IERC721-balanceOf}."
      },
      "getApproved(uint256)": {
        "details": "See {IERC721-getApproved}."
      },
      "isApprovedForAll(address,address)": {
        "details": "See {IERC721-isApprovedForAll}."
      },
      "name()": {
        "details": "See {IERC721Metadata-name}."
      },
      "owner()": {
        "details": "Returns the address of the current owner."
      },
      "ownerOf(uint256)": {
        "details": "See {IERC721-ownerOf}."
      },
      "renounceOwnership()": {
        "details": "Leaves the contract without owner. It will not be possible to call `onlyOwner` functions anymore. Can only be called by the current owner. NOTE: Renouncing ownership will leave the contract without an owner, thereby removing any functionality that is only available to the owner."
      },
      "safeTransferFrom(address,address,uint256)": {
        "details": "See {IERC721-safeTransferFrom}."
      },
      "safeTransferFrom(address,address,uint256,bytes)": {
        "details": "See {IERC721-safeTransferFrom}."
      },
      "setApprovalForAll(address,bool)": {
        "details": "See {IERC721-setApprovalForAll}."
      },
      "supportsInterface(bytes4)": {
        "details": "See {IERC165-supportsInterface}."
      },
      "symbol()": {
        "details": "See {IERC721Metadata-symbol}."
      },
      "tokenURI(uint256)": {
        "details": "See {IERC721Metadata-tokenURI}."
      },
      "transferFrom(address,address,uint256)": {
        "details": "See {IERC721-transferFrom}."
      },
      "transferOwnership(address)": {
        "details": "Transfers ownership of the contract to a new account (`newOwner`). Can only be called by the current owner."
      }
    },
    "version": 1
  },
  "userdoc": {
    "kind": "user",
    "methods": {},
    "version": 1
  }
}