{
  "contractName": "ViridianPack",
  "abi": [
    {
      "inputs": [
        {
          "internalType": "address",
          "name": "_viridianNFT",
          "type": "address"
        }
      ],
      "stateMutability": "nonpayable",
      "type": "constructor"
    },
    {
      "anonymous": false,
      "inputs": [
        {
          "indexed": true,
          "internalType": "address",
          "name": "owner",
          "type": "address"
        },
        {
          "indexed": true,
          "internalType": "address",
          "name": "approved",
          "type": "address"
        },
        {
          "indexed": true,
          "internalType": "uint256",
          "name": "tokenId",
          "type": "uint256"
        }
      ],
      "name": "Approval",
      "type": "event"
    },
    {
      "anonymous": false,
      "inputs": [
        {
          "indexed": true,
          "internalType": "address",
          "name": "owner",
          "type": "address"
        },
        {
          "indexed": true,
          "internalType": "address",
          "name": "operator",
          "type": "address"
        },
        {
          "indexed": false,
          "internalType": "bool",
          "name": "approved",
          "type": "bool"
        }
      ],
      "name": "ApprovalForAll",
      "type": "event"
    },
    {
      "anonymous": false,
      "inputs": [
        {
          "indexed": false,
          "internalType": "string[10]",
          "name": "newUris",
          "type": "string[10]"
        }
      ],
      "name": "Open",
      "type": "event"
    },
    {
      "anonymous": false,
      "inputs": [
        {
          "indexed": true,
          "internalType": "address",
          "name": "previousOwner",
          "type": "address"
        },
        {
          "indexed": true,
          "internalType": "address",
          "name": "newOwner",
          "type": "address"
        }
      ],
      "name": "OwnershipTransferred",
      "type": "event"
    },
    {
      "anonymous": false,
      "inputs": [
        {
          "indexed": true,
          "internalType": "address",
          "name": "from",
          "type": "address"
        },
        {
          "indexed": true,
          "internalType": "address",
          "name": "to",
          "type": "address"
        },
        {
          "indexed": true,
          "internalType": "uint256",
          "name": "tokenId",
          "type": "uint256"
        }
      ],
      "name": "Transfer",
      "type": "event"
    },
    {
      "inputs": [
        {
          "internalType": "address",
          "name": "to",
          "type": "address"
        },
        {
          "internalType": "uint256",
          "name": "tokenId",
          "type": "uint256"
        }
      ],
      "name": "approve",
      "outputs": [],
      "stateMutability": "nonpayable",
      "type": "function"
    },
    {
      "inputs": [
        {
          "internalType": "address",
          "name": "owner",
          "type": "address"
        }
      ],
      "name": "balanceOf",
      "outputs": [
        {
          "internalType": "uint256",
          "name": "",
          "type": "uint256"
        }
      ],
      "stateMutability": "view",
      "type": "function",
      "constant": true
    },
    {
      "inputs": [
        {
          "internalType": "uint256",
          "name": "tokenId",
          "type": "uint256"
        }
      ],
      "name": "getApproved",
      "outputs": [
        {
          "internalType": "address",
          "name": "",
          "type": "address"
        }
      ],
      "stateMutability": "view",
      "type": "function",
      "constant": true
    },
    {
      "inputs": [
        {
          "internalType": "address",
          "name": "owner",
          "type": "address"
        },
        {
          "internalType": "address",
          "name": "operator",
          "type": "address"
        }
      ],
      "name": "isApprovedForAll",
      "outputs": [
        {
          "internalType": "bool",
          "name": "",
          "type": "bool"
        }
      ],
      "stateMutability": "view",
      "type": "function",
      "constant": true
    },
    {
      "inputs": [
        {
          "internalType": "address",
          "name": "forwarder",
          "type": "address"
        }
      ],
      "name": "isTrustedForwarder",
      "outputs": [
        {
          "internalType": "bool",
          "name": "",
          "type": "bool"
        }
      ],
      "stateMutability": "view",
      "type": "function",
      "constant": true
    },
    {
      "inputs": [],
      "name": "name",
      "outputs": [
        {
          "internalType": "string",
          "name": "",
          "type": "string"
        }
      ],
      "stateMutability": "view",
      "type": "function",
      "constant": true
    },
    {
      "inputs": [],
      "name": "owner",
      "outputs": [
        {
          "internalType": "address",
          "name": "",
          "type": "address"
        }
      ],
      "stateMutability": "view",
      "type": "function",
      "constant": true
    },
    {
      "inputs": [
        {
          "internalType": "uint256",
          "name": "tokenId",
          "type": "uint256"
        }
      ],
      "name": "ownerOf",
      "outputs": [
        {
          "internalType": "address",
          "name": "",
          "type": "address"
        }
      ],
      "stateMutability": "view",
      "type": "function",
      "constant": true
    },
    {
      "inputs": [],
      "name": "renounceOwnership",
      "outputs": [],
      "stateMutability": "nonpayable",
      "type": "function"
    },
    {
      "inputs": [
        {
          "internalType": "address",
          "name": "operator",
          "type": "address"
        },
        {
          "internalType": "bool",
          "name": "approved",
          "type": "bool"
        }
      ],
      "name": "setApprovalForAll",
      "outputs": [],
      "stateMutability": "nonpayable",
      "type": "function"
    },
    {
      "inputs": [
        {
          "internalType": "bytes4",
          "name": "interfaceId",
          "type": "bytes4"
        }
      ],
      "name": "supportsInterface",
      "outputs": [
        {
          "internalType": "bool",
          "name": "",
          "type": "bool"
        }
      ],
      "stateMutability": "view",
      "type": "function",
      "constant": true
    },
    {
      "inputs": [],
      "name": "symbol",
      "outputs": [
        {
          "internalType": "string",
          "name": "",
          "type": "string"
        }
      ],
      "stateMutability": "view",
      "type": "function",
      "constant": true
    },
    {
      "inputs": [
        {
          "internalType": "address",
          "name": "newOwner",
          "type": "address"
        }
      ],
      "name": "transferOwnership",
      "outputs": [],
      "stateMutability": "nonpayable",
      "type": "function"
    },
    {
      "inputs": [],
      "name": "trustedForwarder",
      "outputs": [
        {
          "internalType": "address",
          "name": "",
          "type": "address"
        }
      ],
      "stateMutability": "view",
      "type": "function",
      "constant": true
    },
    {
      "inputs": [],
      "name": "versionRecipient",
      "outputs": [
        {
          "internalType": "string",
          "name": "",
          "type": "string"
        }
      ],
      "stateMutability": "view",
      "type": "function",
      "constant": true
    },
    {
      "inputs": [],
      "name": "viridianNFTAddr",
      "outputs": [
        {
          "internalType": "address",
          "name": "",
          "type": "address"
        }
      ],
      "stateMutability": "view",
      "type": "function",
      "constant": true
    },
    {
      "inputs": [
        {
          "internalType": "address",
          "name": "_forwarder",
          "type": "address"
        }
      ],
      "name": "setTrustedForwarder",
      "outputs": [],
      "stateMutability": "nonpayable",
      "type": "function"
    },
    {
      "inputs": [
        {
          "internalType": "address",
          "name": "_newAdmin",
          "type": "address"
        }
      ],
      "name": "addAdmin",
      "outputs": [],
      "stateMutability": "nonpayable",
      "type": "function"
    },
    {
      "inputs": [
        {
          "internalType": "address",
          "name": "_newAdmin",
          "type": "address"
        }
      ],
      "name": "removeAdmin",
      "outputs": [],
      "stateMutability": "nonpayable",
      "type": "function"
    },
    {
      "inputs": [
        {
          "internalType": "string",
          "name": "baseURI_",
          "type": "string"
        }
      ],
      "name": "setBaseURI",
      "outputs": [],
      "stateMutability": "nonpayable",
      "type": "function"
    },
    {
      "inputs": [
        {
          "internalType": "uint256",
          "name": "tokenId",
          "type": "uint256"
        },
        {
          "internalType": "string",
          "name": "_tokenURI",
          "type": "string"
        }
      ],
      "name": "_setTokenURI",
      "outputs": [],
      "stateMutability": "nonpayable",
      "type": "function"
    },
    {
      "inputs": [
        {
          "internalType": "uint256",
          "name": "tokenId",
          "type": "uint256"
        }
      ],
      "name": "tokenURI",
      "outputs": [
        {
          "internalType": "string",
          "name": "",
          "type": "string"
        }
      ],
      "stateMutability": "view",
      "type": "function",
      "constant": true
    },
    {
      "inputs": [
        {
          "internalType": "uint256",
          "name": "_rarity",
          "type": "uint256"
        }
      ],
      "name": "getUriRarityPools",
      "outputs": [
        {
          "internalType": "string[]",
          "name": "",
          "type": "string[]"
        }
      ],
      "stateMutability": "view",
      "type": "function",
      "constant": true
    },
    {
      "inputs": [],
      "name": "getNumNFTs",
      "outputs": [
        {
          "internalType": "uint256",
          "name": "n",
          "type": "uint256"
        }
      ],
      "stateMutability": "view",
      "type": "function",
      "constant": true
    },
    {
      "inputs": [],
      "name": "getNumOwnedNFTs",
      "outputs": [
        {
          "internalType": "uint256",
          "name": "",
          "type": "uint256"
        }
      ],
      "stateMutability": "view",
      "type": "function",
      "constant": true
    },
    {
      "inputs": [],
      "name": "getOwnedNFTs",
      "outputs": [
        {
          "internalType": "uint256[]",
          "name": "",
          "type": "uint256[]"
        }
      ],
      "stateMutability": "view",
      "type": "function",
      "constant": true
    },
    {
      "inputs": [
        {
          "internalType": "uint256",
          "name": "_rarity",
          "type": "uint256"
        },
        {
          "internalType": "uint256",
          "name": "_rarityOdd",
          "type": "uint256"
        },
        {
          "internalType": "uint256",
          "name": "_newOdds",
          "type": "uint256"
        }
      ],
      "name": "setRarityOdds",
      "outputs": [],
      "stateMutability": "nonpayable",
      "type": "function"
    },
    {
      "inputs": [
        {
          "internalType": "uint256",
          "name": "tokenId",
          "type": "uint256"
        }
      ],
      "name": "isListed",
      "outputs": [
        {
          "internalType": "bool",
          "name": "",
          "type": "bool"
        }
      ],
      "stateMutability": "view",
      "type": "function",
      "constant": true
    },
    {
      "inputs": [
        {
          "internalType": "address",
          "name": "_to",
          "type": "address"
        },
        {
          "internalType": "string",
          "name": "tokenURI_",
          "type": "string"
        }
      ],
      "name": "mint",
      "outputs": [],
      "stateMutability": "nonpayable",
      "type": "function"
    },
    {
      "inputs": [
        {
          "internalType": "string",
          "name": "uri",
          "type": "string"
        },
        {
          "internalType": "uint256",
          "name": "rarity",
          "type": "uint256"
        }
      ],
      "name": "softMintNFT",
      "outputs": [],
      "stateMutability": "payable",
      "type": "function",
      "payable": true
    },
    {
      "inputs": [
        {
          "internalType": "uint256",
          "name": "rarity",
          "type": "uint256"
        },
        {
          "internalType": "uint256",
          "name": "index",
          "type": "uint256"
        }
      ],
      "name": "burnSoftMintedNFTAtRarityIndex",
      "outputs": [],
      "stateMutability": "payable",
      "type": "function",
      "payable": true
    },
    {
      "inputs": [
        {
          "internalType": "string",
          "name": "_s",
          "type": "string"
        },
        {
          "internalType": "string",
          "name": "_s1",
          "type": "string"
        }
      ],
      "name": "compareStrings",
      "outputs": [
        {
          "internalType": "bool",
          "name": "",
          "type": "bool"
        }
      ],
      "stateMutability": "pure",
      "type": "function",
      "constant": true
    },
    {
      "inputs": [
        {
          "internalType": "uint256",
          "name": "_tokenId",
          "type": "uint256"
        }
      ],
      "name": "lockInPackResult",
      "outputs": [],
      "stateMutability": "payable",
      "type": "function",
      "payable": true
    },
    {
      "inputs": [
        {
          "internalType": "uint256",
          "name": "_tokenId",
          "type": "uint256"
        }
      ],
      "name": "openPack",
      "outputs": [],
      "stateMutability": "payable",
      "type": "function",
      "payable": true
    },
    {
      "inputs": [
        {
          "internalType": "uint256",
          "name": "tokenId",
          "type": "uint256"
        }
      ],
      "name": "burn",
      "outputs": [],
      "stateMutability": "nonpayable",
      "type": "function"
    },
    {
      "inputs": [
        {
          "internalType": "address",
          "name": "recipient",
          "type": "address"
        },
        {
          "internalType": "string",
          "name": "hash",
          "type": "string"
        },
        {
          "internalType": "string",
          "name": "metadata",
          "type": "string"
        }
      ],
      "name": "awardItem",
      "outputs": [
        {
          "internalType": "uint256",
          "name": "",
          "type": "uint256"
        }
      ],
      "stateMutability": "nonpayable",
      "type": "function"
    },
    {
      "inputs": [
        {
          "internalType": "address",
          "name": "from",
          "type": "address"
        },
        {
          "internalType": "address",
          "name": "to",
          "type": "address"
        },
        {
          "internalType": "uint256",
          "name": "tokenId",
          "type": "uint256"
        }
      ],
      "name": "safeTransferFrom",
      "outputs": [],
      "stateMutability": "nonpayable",
      "type": "function"
    },
    {
      "inputs": [
        {
          "internalType": "address",
          "name": "from",
          "type": "address"
        },
        {
          "internalType": "address",
          "name": "to",
          "type": "address"
        },
        {
          "internalType": "uint256",
          "name": "tokenId",
          "type": "uint256"
        },
        {
          "internalType": "bytes",
          "name": "_data",
          "type": "bytes"
        }
      ],
      "name": "safeTransferFrom",
      "outputs": [],
      "stateMutability": "nonpayable",
      "type": "function"
    },
    {
      "inputs": [
        {
          "internalType": "address",
          "name": "from",
          "type": "address"
        },
        {
          "internalType": "address",
          "name": "to",
          "type": "address"
        },
        {
          "internalType": "uint256",
          "name": "tokenId",
          "type": "uint256"
        }
      ],
      "name": "transferFrom",
      "outputs": [],
      "stateMutability": "nonpayable",
      "type": "function"
    },
    {
      "inputs": [
        {
          "internalType": "uint256",
          "name": "_tokenId",
          "type": "uint256"
        }
      ],
      "name": "listToken",
      "outputs": [],
      "stateMutability": "nonpayable",
      "type": "function"
    },
    {
      "inputs": [
        {
          "internalType": "uint256",
          "name": "_tokenId",
          "type": "uint256"
        }
      ],
      "name": "unlistToken",
      "outputs": [],
      "stateMutability": "nonpayable",
      "type": "function"
    }
  ],
  "bytecode": "0x60806040526040518060400160405280600581526020017f322e322e3000000000000000000000000000000000000000000000000000000081525060169080519060200190620000519291906200077a565b503480156200005f57600080fd5b506040516200633c3803806200633c833981810160405281019062000085919062000894565b6040518060400160405280600d81526020017f566972696469616e205061636b000000000000000000000000000000000000008152506040518060400160405280600281526020017f56500000000000000000000000000000000000000000000000000000000000008152508160009080519060200190620001099291906200077a565b508060019080519060200190620001229291906200077a565b5050506200014562000139620005fc60201b60201c565b6200061860201b60201c565b600073ffffffffffffffffffffffffffffffffffffffff168173ffffffffffffffffffffffffffffffffffffffff1614156200018057600080fd5b80601360006101000a81548173ffffffffffffffffffffffffffffffffffffffff021916908373ffffffffffffffffffffffffffffffffffffffff160217905550601360009054906101000a900473ffffffffffffffffffffffffffffffffffffffff16601460006101000a81548173ffffffffffffffffffffffffffffffffffffffff021916908373ffffffffffffffffffffffffffffffffffffffff16021790555030601560006101000a81548173ffffffffffffffffffffffffffffffffffffffff021916908373ffffffffffffffffffffffffffffffffffffffff1602179055506019600b60008081526020019081526020016000206000808152602001908152602001600020819055506064600b60008081526020019081526020016000206000600181526020019081526020016000208190555061012c600b6000808152602001908152602001600020600060028152602001908152602001600020819055506103e8600b6000808152602001908152602001600020600060038152602001908152602001600020819055506003600c6000808152602001908152602001600020819055506001600b6000600181526020019081526020016000206000808152602001908152602001600020819055506032600b6000600181526020019081526020016000206000600181526020019081526020016000208190555060c8600b600060018152602001908152602001600020600060028152602001908152602001600020819055506103e8600b600060018152602001908152602001600020600060038152602001908152602001600020819055506003600c6000808152602001908152602001600020819055506000600b6000600281526020019081526020016000206000808152602001908152602001600020819055506032600b600060028152602001908152602001600020600060018152602001908152602001600020819055506064600b600060028152602001908152602001600020600060028152602001908152602001600020819055506103e8600b600060028152602001908152602001600020600060038152602001908152602001600020819055506003600c6000808152602001908152602001600020819055506000600b600060038152602001908152602001600020600080815260200190815260200160002081905550600a600b600060038152602001908152602001600020600060018152602001908152602001600020819055506032600b600060038152602001908152602001600020600060028152602001908152602001600020819055506103e8600b600060038152602001908152602001600020600060038152602001908152602001600020819055506003600c6000808152602001908152602001600020819055506003601081905550600160126000620005a4620005fc60201b60201c565b73ffffffffffffffffffffffffffffffffffffffff1673ffffffffffffffffffffffffffffffffffffffff16815260200190815260200160002060006101000a81548160ff021916908315150217905550506200092b565b600062000613620006de60201b62002d111760201c565b905090565b6000600660009054906101000a900473ffffffffffffffffffffffffffffffffffffffff16905081600660006101000a81548173ffffffffffffffffffffffffffffffffffffffff021916908373ffffffffffffffffffffffffffffffffffffffff1602179055508173ffffffffffffffffffffffffffffffffffffffff168173ffffffffffffffffffffffffffffffffffffffff167f8be0079c531659141344cd1fd0a4f28419497f9722a3daafe3b4186f6b6457e060405160405180910390a35050565b6000601460003690501015801562000703575062000702336200072060201b60201c565b5b156200071957601436033560601c90506200071d565b3390505b90565b6000600760009054906101000a900473ffffffffffffffffffffffffffffffffffffffff1673ffffffffffffffffffffffffffffffffffffffff168273ffffffffffffffffffffffffffffffffffffffff16149050919050565b8280546200078890620008f5565b90600052602060002090601f016020900481019282620007ac5760008555620007f8565b82601f10620007c757805160ff1916838001178555620007f8565b82800160010185558215620007f8579182015b82811115620007f7578251825591602001919060010190620007da565b5b5090506200080791906200080b565b5090565b5b80821115620008265760008160009055506001016200080c565b5090565b600080fd5b600073ffffffffffffffffffffffffffffffffffffffff82169050919050565b60006200085c826200082f565b9050919050565b6200086e816200084f565b81146200087a57600080fd5b50565b6000815190506200088e8162000863565b92915050565b600060208284031215620008ad57620008ac6200082a565b5b6000620008bd848285016200087d565b91505092915050565b7f4e487b7100000000000000000000000000000000000000000000000000000000600052602260045260246000fd5b600060028204905060018216806200090e57607f821691505b60208210811415620009255762000924620008c6565b5b50919050565b615a01806200093b6000396000f3fe6080604052600436106102465760003560e01c80638bfaf10111610139578063bda4e797116100b6578063dc5df54e1161007a578063dc5df54e14610880578063e6148d5f1461089c578063e985e9c5146108c5578063ece769e714610902578063f2fde38b1461091e578063fcce48831461094757610246565b8063bda4e79714610789578063bed34bba146107b4578063c87b56dd146107f1578063d0def5211461082e578063da7422281461085757610246565b8063a3524a04116100fd578063a3524a04146106b8578063a80f1e9c146106e3578063ad3a358c1461070c578063b88d4fde14610735578063bb92c2481461075e57610246565b80638bfaf101146105bf5780638da5cb5b146105fc57806395d89b4114610627578063a203428c14610652578063a22cb4651461068f57610246565b8063486ff0cd116101c75780636352211e1161018b5780636352211e146104da578063704802751461051757806370a0823114610540578063715018a61461057d5780637da0a8771461059457610246565b8063486ff0cd146104025780634c0eb7d91461042d57806350a88c7e1461045857806355f804b314610474578063572b6c051461049d57610246565b80630e0659311161020e5780630e065931146103425780631785f53c1461035e57806323b872dd1461038757806342842e0e146103b057806342966c68146103d957610246565b8063015388681461024b57806301ffc9a71461027457806306fdde03146102b1578063081812fc146102dc578063095ea7b314610319575b600080fd5b34801561025757600080fd5b50610272600480360381019061026d9190613e86565b610984565b005b34801561028057600080fd5b5061029b60048036038101906102969190613f3a565b610a74565b6040516102a89190613f82565b60405180910390f35b3480156102bd57600080fd5b506102c6610b56565b6040516102d39190614025565b60405180910390f35b3480156102e857600080fd5b5061030360048036038101906102fe9190614047565b610be8565b60405161031091906140b5565b60405180910390f35b34801561032557600080fd5b50610340600480360381019061033b91906140fc565b610c6d565b005b61035c6004803603810190610357919061413c565b610d85565b005b34801561036a57600080fd5b5061038560048036038101906103809190614198565b610e3a565b005b34801561039357600080fd5b506103ae60048036038101906103a991906141c5565b610f11565b005b3480156103bc57600080fd5b506103d760048036038101906103d291906141c5565b610fe3565b005b3480156103e557600080fd5b5061040060048036038101906103fb9190614047565b6110b5565b005b34801561040e57600080fd5b506104176110db565b6040516104249190614025565b60405180910390f35b34801561043957600080fd5b50610442611169565b60405161044f91906142d6565b60405180910390f35b610472600480360381019061046d9190614047565b611265565b005b34801561048057600080fd5b5061049b600480360381019061049691906142f8565b611a6f565b005b3480156104a957600080fd5b506104c460048036038101906104bf9190614198565b611aed565b6040516104d19190613f82565b60405180910390f35b3480156104e657600080fd5b5061050160048036038101906104fc9190614047565b611b47565b60405161050e91906140b5565b60405180910390f35b34801561052357600080fd5b5061053e60048036038101906105399190614198565b611bf9565b005b34801561054c57600080fd5b5061056760048036038101906105629190614198565b611cd0565b6040516105749190614350565b60405180910390f35b34801561058957600080fd5b50610592611d88565b005b3480156105a057600080fd5b506105a9611e10565b6040516105b691906140b5565b60405180910390f35b3480156105cb57600080fd5b506105e660048036038101906105e1919061436b565b611e3a565b6040516105f39190614350565b60405180910390f35b34801561060857600080fd5b50610611611ee7565b60405161061e91906140b5565b60405180910390f35b34801561063357600080fd5b5061063c611f11565b6040516106499190614025565b60405180910390f35b34801561065e57600080fd5b5061067960048036038101906106749190614047565b611fa3565b6040516106869190614502565b60405180910390f35b34801561069b57600080fd5b506106b660048036038101906106b19190614550565b6120f3565b005b3480156106c457600080fd5b506106cd612274565b6040516106da91906140b5565b60405180910390f35b3480156106ef57600080fd5b5061070a60048036038101906107059190614590565b61229a565b005b34801561071857600080fd5b50610733600480360381019061072e9190614047565b61232c565b005b34801561074157600080fd5b5061075c60048036038101906107579190614684565b612375565b005b34801561076a57600080fd5b506107736123d7565b6040516107809190614350565b60405180910390f35b34801561079557600080fd5b5061079e612462565b6040516107ab9190614350565b60405180910390f35b3480156107c057600080fd5b506107db60048036038101906107d69190614707565b612473565b6040516107e89190613f82565b60405180910390f35b3480156107fd57600080fd5b5061081860048036038101906108139190614047565b6124cc565b6040516108259190614025565b60405180910390f35b34801561083a57600080fd5b506108556004803603810190610850919061477f565b61263f565b005b34801561086357600080fd5b5061087e60048036038101906108799190614198565b612700565b005b61089a600480360381019061089591906147db565b612788565b005b3480156108a857600080fd5b506108c360048036038101906108be9190614047565b6129c9565b005b3480156108d157600080fd5b506108ec60048036038101906108e7919061481b565b612a12565b6040516108f99190613f82565b60405180910390f35b61091c60048036038101906109179190614047565b612aa6565b005b34801561092a57600080fd5b5061094560048036038101906109409190614198565b612bef565b005b34801561095357600080fd5b5061096e60048036038101906109699190614047565b612ce7565b60405161097b9190613f82565b60405180910390f35b61098c612d48565b73ffffffffffffffffffffffffffffffffffffffff166109aa611ee7565b73ffffffffffffffffffffffffffffffffffffffff1614610a00576040517f08c379a00000000000000000000000000000000000000000000000000000000081526004016109f7906148a7565b60405180910390fd5b610a0982612d57565b610a48576040517f08c379a0000000000000000000000000000000000000000000000000000000008152600401610a3f90614939565b60405180910390fd5b80601760008481526020019081526020016000209080519060200190610a6f929190613b67565b505050565b60007f80ac58cd000000000000000000000000000000000000000000000000000000007bffffffffffffffffffffffffffffffffffffffffffffffffffffffff1916827bffffffffffffffffffffffffffffffffffffffffffffffffffffffff19161480610b3f57507f5b5e139f000000000000000000000000000000000000000000000000000000007bffffffffffffffffffffffffffffffffffffffffffffffffffffffff1916827bffffffffffffffffffffffffffffffffffffffffffffffffffffffff1916145b80610b4f5750610b4e82612dc3565b5b9050919050565b606060008054610b6590614988565b80601f0160208091040260200160405190810160405280929190818152602001828054610b9190614988565b8015610bde5780601f10610bb357610100808354040283529160200191610bde565b820191906000526020600020905b815481529060010190602001808311610bc157829003601f168201915b5050505050905090565b6000610bf382612d57565b610c32576040517f08c379a0000000000000000000000000000000000000000000000000000000008152600401610c2990614a2c565b60405180910390fd5b6004600083815260200190815260200160002060009054906101000a900473ffffffffffffffffffffffffffffffffffffffff169050919050565b6000610c7882611b47565b90508073ffffffffffffffffffffffffffffffffffffffff168373ffffffffffffffffffffffffffffffffffffffff161415610ce9576040517f08c379a0000000000000000000000000000000000000000000000000000000008152600401610ce090614abe565b60405180910390fd5b8073ffffffffffffffffffffffffffffffffffffffff16610d08612d48565b73ffffffffffffffffffffffffffffffffffffffff161480610d375750610d3681610d31612d48565b612a12565b5b610d76576040517f08c379a0000000000000000000000000000000000000000000000000000000008152600401610d6d90614b50565b60405180910390fd5b610d808383612e2d565b505050565b6001151560126000610d95612d48565b73ffffffffffffffffffffffffffffffffffffffff1673ffffffffffffffffffffffffffffffffffffffff16815260200190815260200160002060009054906101000a900460ff16151514610de957600080fd5b600f600082815260200190815260200160002082908060018154018082558091505060019003906000526020600020016000909190919091509080519060200190610e35929190613b67565b505050565b610e42612d48565b73ffffffffffffffffffffffffffffffffffffffff16610e60611ee7565b73ffffffffffffffffffffffffffffffffffffffff1614610eb6576040517f08c379a0000000000000000000000000000000000000000000000000000000008152600401610ead906148a7565b60405180910390fd5b6000601260008373ffffffffffffffffffffffffffffffffffffffff1673ffffffffffffffffffffffffffffffffffffffff16815260200190815260200160002060006101000a81548160ff02191690831515021790555050565b600d600082815260200190815260200160002060009054906101000a900460ff1615610f72576040517f08c379a0000000000000000000000000000000000000000000000000000000008152600401610f6990614be2565b60405180910390fd5b6011600082815260200190815260200160002060009054906101000a900460ff1615610fd3576040517f08c379a0000000000000000000000000000000000000000000000000000000008152600401610fca90614c74565b60405180910390fd5b610fde838383612ee6565b505050565b600d600082815260200190815260200160002060009054906101000a900460ff1615611044576040517f08c379a000000000000000000000000000000000000000000000000000000000815260040161103b90614be2565b60405180910390fd5b6011600082815260200190815260200160002060009054906101000a900460ff16156110a5576040517f08c379a000000000000000000000000000000000000000000000000000000000815260040161109c90614c74565b60405180910390fd5b6110b0838383612f46565b505050565b6110c66110c0612d48565b82612f66565b6110cf57600080fd5b6110d881613044565b50565b601680546110e890614988565b80601f016020809104026020016040519081016040528092919081815260200182805461111490614988565b80156111615780601f1061113657610100808354040283529160200191611161565b820191906000526020600020905b81548152906001019060200180831161114457829003601f168201915b505050505081565b606060006111756123d7565b67ffffffffffffffff81111561118e5761118d613d5b565b5b6040519080825280602002602001820160405280156111bc5781602001602082028036833780820191505090505b509050600080600190505b6111d16008613155565b811161125c576111df612d48565b73ffffffffffffffffffffffffffffffffffffffff166111fe82611b47565b73ffffffffffffffffffffffffffffffffffffffff161415611249578083838151811061122e5761122d614c94565b5b602002602001018181525050818061124590614cf2565b9250505b808061125490614cf2565b9150506111c7565b50819250505090565b611276611270612d48565b82612f66565b61127f57600080fd5b6000601560009054906101000a900473ffffffffffffffffffffffffffffffffffffffff1673ffffffffffffffffffffffffffffffffffffffff166397597bfd836040518263ffffffff1660e01b81526004016112dc9190614350565b602060405180830381865afa1580156112f9573d6000803e3d6000fd5b505050506040513d601f19601f8201168201806040525081019061131d9190614d50565b1161135d576040517f08c379a000000000000000000000000000000000000000000000000000000000815260040161135490614def565b60405180910390fd5b6000601560009054906101000a900473ffffffffffffffffffffffffffffffffffffffff1673ffffffffffffffffffffffffffffffffffffffff1663d972fa1c836040518263ffffffff1660e01b81526004016113ba9190614350565b602060405180830381865afa1580156113d7573d6000803e3d6000fd5b505050506040513d601f19601f820116820180604052508101906113fb9190614d50565b1161143b576040517f08c379a000000000000000000000000000000000000000000000000000000000815260040161143290614e81565b60405180910390fd5b6000600e600083815260200190815260200160002054905061145b613bed565b60005b600c6000848152602001908152602001600020548160ff161015611a29576000611535601560009054906101000a900473ffffffffffffffffffffffffffffffffffffffff1673ffffffffffffffffffffffffffffffffffffffff1663d972fa1c876040518263ffffffff1660e01b81526004016114dc9190614350565b602060405180830381865afa1580156114f9573d6000803e3d6000fd5b505050506040513d601f19601f8201168201806040525081019061151d9190614d50565b600b6000878152602001908152602001600020613163565b905060006001600f60008481526020019081526020016000208054905061155c9190614ea1565b601560009054906101000a900473ffffffffffffffffffffffffffffffffffffffff1673ffffffffffffffffffffffffffffffffffffffff166397597bfd886040518263ffffffff1660e01b81526004016115b79190614350565b602060405180830381865afa1580156115d4573d6000803e3d6000fd5b505050506040513d601f19601f820116820180604052508101906115f89190614d50565b6116029190614f04565b90506000600f6000848152602001908152602001600020828154811061162b5761162a614c94565b5b90600052602060002001805461164090614988565b80601f016020809104026020016040519081016040528092919081815260200182805461166c90614988565b80156116b95780601f1061168e576101008083540402835291602001916116b9565b820191906000526020600020905b81548152906001019060200180831161169c57829003601f168201915b50505050509050601460009054906101000a900473ffffffffffffffffffffffffffffffffffffffff1673ffffffffffffffffffffffffffffffffffffffff1663d0def521611706612d48565b836040518363ffffffff1660e01b8152600401611724929190614f35565b600060405180830381600087803b15801561173e57600080fd5b505af1158015611752573d6000803e3d6000fd5b5050505080858560ff16600a811061176d5761176c614c94565b5b60200201819052506000600f6000858152602001908152602001600020805480602002602001604051908101604052809291908181526020016000905b828210156118565783829060005260206000200180546117c990614988565b80601f01602080910402602001604051908101604052809291908181526020018280546117f590614988565b80156118425780601f1061181757610100808354040283529160200191611842565b820191906000526020600020905b81548152906001019060200180831161182557829003601f168201915b5050505050815260200190600101906117aa565b50505050905060005b600f600086815260200190815260200160002080549050811015611a11576000600f600087815260200190815260200160002082815481106118a4576118a3614c94565b5b9060005260206000200180546118b990614988565b80601f01602080910402602001604051908101604052809291908181526020018280546118e590614988565b80156119325780601f1061190757610100808354040283529160200191611932565b820191906000526020600020905b81548152906001019060200180831161191557829003601f168201915b505050505090506119438185612473565b156119fd5782600184516119579190614ea1565b8151811061196857611967614c94565b5b602002602001015183838151811061198357611982614c94565b5b602002602001018190525082600f600088815260200190815260200160002090805190602001906119b5929190613c15565b50600f60008781526020019081526020016000208054806119d9576119d8614f65565b5b6001900381819060005260206000200160006119f59190613c75565b905550611a11565b508080611a0990614cf2565b91505061185f565b50505050508080611a2190614fa1565b91505061145e565b50611a33836110b5565b7f7a8f71ffa367c677061e81db64480595dffec51888e92c29fd97f628ad7be9bc81604051611a62919061506d565b60405180910390a1505050565b6001151560126000611a7f612d48565b73ffffffffffffffffffffffffffffffffffffffff1673ffffffffffffffffffffffffffffffffffffffff16815260200190815260200160002060009054906101000a900460ff16151514611ad357600080fd5b8060189080519060200190611ae9929190613b67565b5050565b6000600760009054906101000a900473ffffffffffffffffffffffffffffffffffffffff1673ffffffffffffffffffffffffffffffffffffffff168273ffffffffffffffffffffffffffffffffffffffff16149050919050565b6000806002600084815260200190815260200160002060009054906101000a900473ffffffffffffffffffffffffffffffffffffffff169050600073ffffffffffffffffffffffffffffffffffffffff168173ffffffffffffffffffffffffffffffffffffffff161415611bf0576040517f08c379a0000000000000000000000000000000000000000000000000000000008152600401611be790615101565b60405180910390fd5b80915050919050565b611c01612d48565b73ffffffffffffffffffffffffffffffffffffffff16611c1f611ee7565b73ffffffffffffffffffffffffffffffffffffffff1614611c75576040517f08c379a0000000000000000000000000000000000000000000000000000000008152600401611c6c906148a7565b60405180910390fd5b6001601260008373ffffffffffffffffffffffffffffffffffffffff1673ffffffffffffffffffffffffffffffffffffffff16815260200190815260200160002060006101000a81548160ff02191690831515021790555050565b60008073ffffffffffffffffffffffffffffffffffffffff168273ffffffffffffffffffffffffffffffffffffffff161415611d41576040517f08c379a0000000000000000000000000000000000000000000000000000000008152600401611d3890615193565b60405180910390fd5b600360008373ffffffffffffffffffffffffffffffffffffffff1673ffffffffffffffffffffffffffffffffffffffff168152602001908152602001600020549050919050565b611d90612d48565b73ffffffffffffffffffffffffffffffffffffffff16611dae611ee7565b73ffffffffffffffffffffffffffffffffffffffff1614611e04576040517f08c379a0000000000000000000000000000000000000000000000000000000008152600401611dfb906148a7565b60405180910390fd5b611e0e60006131b5565b565b6000600760009054906101000a900473ffffffffffffffffffffffffffffffffffffffff16905090565b60006001600a84604051611e4e91906151ef565b908152602001604051809103902060009054906101000a900460ff1660ff161415611e7857600080fd5b6001600a84604051611e8a91906151ef565b908152602001604051809103902060006101000a81548160ff021916908360ff160217905550611eba600861327b565b6000611ec66008613155565b9050611ed28582613291565b611edc8184610984565b809150509392505050565b6000600660009054906101000a900473ffffffffffffffffffffffffffffffffffffffff16905090565b606060018054611f2090614988565b80601f0160208091040260200160405190810160405280929190818152602001828054611f4c90614988565b8015611f995780601f10611f6e57610100808354040283529160200191611f99565b820191906000526020600020905b815481529060010190602001808311611f7c57829003601f168201915b5050505050905090565b60606001151560126000611fb5612d48565b73ffffffffffffffffffffffffffffffffffffffff1673ffffffffffffffffffffffffffffffffffffffff16815260200190815260200160002060009054906101000a900460ff1615151461200957600080fd5b600f6000838152602001908152602001600020805480602002602001604051908101604052809291908181526020016000905b828210156120e857838290600052602060002001805461205b90614988565b80601f016020809104026020016040519081016040528092919081815260200182805461208790614988565b80156120d45780601f106120a9576101008083540402835291602001916120d4565b820191906000526020600020905b8154815290600101906020018083116120b757829003601f168201915b50505050508152602001906001019061203c565b505050509050919050565b6120fb612d48565b73ffffffffffffffffffffffffffffffffffffffff168273ffffffffffffffffffffffffffffffffffffffff161415612169576040517f08c379a000000000000000000000000000000000000000000000000000000000815260040161216090615252565b60405180910390fd5b8060056000612176612d48565b73ffffffffffffffffffffffffffffffffffffffff1673ffffffffffffffffffffffffffffffffffffffff16815260200190815260200160002060008473ffffffffffffffffffffffffffffffffffffffff1673ffffffffffffffffffffffffffffffffffffffff16815260200190815260200160002060006101000a81548160ff0219169083151502179055508173ffffffffffffffffffffffffffffffffffffffff16612223612d48565b73ffffffffffffffffffffffffffffffffffffffff167f17307eab39ab6107e8899845ad3d59bd9653f200f220920489ca2b5937696c31836040516122689190613f82565b60405180910390a35050565b601360009054906101000a900473ffffffffffffffffffffffffffffffffffffffff1681565b60011515601260006122aa612d48565b73ffffffffffffffffffffffffffffffffffffffff1673ffffffffffffffffffffffffffffffffffffffff16815260200190815260200160002060009054906101000a900460ff161515146122fe57600080fd5b80600b6000858152602001908152602001600020600084815260200190815260200160002081905550505050565b61233d612337612d48565b82612f66565b61234657600080fd5b6000600d600083815260200190815260200160002060006101000a81548160ff02191690831515021790555050565b612386612380612d48565b83612f66565b6123c5576040517f08c379a00000000000000000000000000000000000000000000000000000000081526004016123bc906152e4565b60405180910390fd5b6123d18484848461345f565b50505050565b600080600090506000600190505b6123ef6008613155565b811161245a576123fd612d48565b73ffffffffffffffffffffffffffffffffffffffff1661241c82611b47565b73ffffffffffffffffffffffffffffffffffffffff16141561244757818061244390614cf2565b9250505b808061245290614cf2565b9150506123e5565b508091505090565b600061246e6008613155565b905090565b60008160405160200161248691906151ef565b60405160208183030381529060405280519060200120836040516020016124ad91906151ef565b6040516020818303038152906040528051906020012014905092915050565b60606124d782612d57565b612516576040517f08c379a000000000000000000000000000000000000000000000000000000000815260040161250d90615376565b60405180910390fd5b600060176000848152602001908152602001600020805461253690614988565b80601f016020809104026020016040519081016040528092919081815260200182805461256290614988565b80156125af5780601f10612584576101008083540402835291602001916125af565b820191906000526020600020905b81548152906001019060200180831161259257829003601f168201915b5050505050905060006125c06134bb565b90506000815114156125d657819250505061263a565b60008251111561260b5780826040516020016125f3929190615396565b6040516020818303038152906040529250505061263a565b806126158561354d565b604051602001612626929190615396565b604051602081830303815290604052925050505b919050565b600115156012600061264f612d48565b73ffffffffffffffffffffffffffffffffffffffff1673ffffffffffffffffffffffffffffffffffffffff16815260200190815260200160002060009054906101000a900460ff161515146126a357600080fd5b6126ad600861327b565b60006126b96008613155565b90506126c583826136ae565b6000600d600083815260200190815260200160002060006101000a81548160ff0219169083151502179055506126fb8183610984565b505050565b612708612d48565b73ffffffffffffffffffffffffffffffffffffffff16612726611ee7565b73ffffffffffffffffffffffffffffffffffffffff161461277c576040517f08c379a0000000000000000000000000000000000000000000000000000000008152600401612773906148a7565b60405180910390fd5b612785816136cc565b50565b6001151560126000612798612d48565b73ffffffffffffffffffffffffffffffffffffffff1673ffffffffffffffffffffffffffffffffffffffff16815260200190815260200160002060009054906101000a900460ff161515146127ec57600080fd5b6000600f6000848152602001908152602001600020805480602002602001604051908101604052809291908181526020016000905b828210156128cd57838290600052602060002001805461284090614988565b80601f016020809104026020016040519081016040528092919081815260200182805461286c90614988565b80156128b95780601f1061288e576101008083540402835291602001916128b9565b820191906000526020600020905b81548152906001019060200180831161289c57829003601f168201915b505050505081526020019060010190612821565b50505050905060005b600f6000858152602001908152602001600020805490508110156129c357828114156129b057816001835161290b9190614ea1565b8151811061291c5761291b614c94565b5b602002602001015182828151811061293757612936614c94565b5b602002602001018190525081600f60008681526020019081526020016000209080519060200190612969929190613c15565b50600f600085815260200190815260200160002080548061298d5761298c614f65565b5b6001900381819060005260206000200160006129a99190613c75565b90556129c3565b80806129bb90614cf2565b9150506128d6565b50505050565b6129da6129d4612d48565b82612f66565b6129e357600080fd5b6001600d600083815260200190815260200160002060006101000a81548160ff02191690831515021790555050565b6000600560008473ffffffffffffffffffffffffffffffffffffffff1673ffffffffffffffffffffffffffffffffffffffff16815260200190815260200160002060008373ffffffffffffffffffffffffffffffffffffffff1673ffffffffffffffffffffffffffffffffffffffff16815260200190815260200160002060009054906101000a900460ff16905092915050565b612ab7612ab1612d48565b82612f66565b612ac057600080fd5b6011600082815260200190815260200160002060009054906101000a900460ff1615612b21576040517f08c379a0000000000000000000000000000000000000000000000000000000008152600401612b189061542c565b60405180910390fd5b60016011600083815260200190815260200160002060006101000a81548160ff021916908315150217905550601560009054906101000a900473ffffffffffffffffffffffffffffffffffffffff1673ffffffffffffffffffffffffffffffffffffffff1663b37217a4826040518263ffffffff1660e01b8152600401612ba89190614350565b6020604051808303816000875af1158015612bc7573d6000803e3d6000fd5b505050506040513d601f19601f82011682018060405250810190612beb9190615482565b5050565b612bf7612d48565b73ffffffffffffffffffffffffffffffffffffffff16612c15611ee7565b73ffffffffffffffffffffffffffffffffffffffff1614612c6b576040517f08c379a0000000000000000000000000000000000000000000000000000000008152600401612c62906148a7565b60405180910390fd5b600073ffffffffffffffffffffffffffffffffffffffff168173ffffffffffffffffffffffffffffffffffffffff161415612cdb576040517f08c379a0000000000000000000000000000000000000000000000000000000008152600401612cd290615521565b60405180910390fd5b612ce4816131b5565b50565b6000600d600083815260200190815260200160002060009054906101000a900460ff169050919050565b60006014600036905010158015612d2d5750612d2c33611aed565b5b15612d4157601436033560601c9050612d45565b3390505b90565b6000612d52612d11565b905090565b60008073ffffffffffffffffffffffffffffffffffffffff166002600084815260200190815260200160002060009054906101000a900473ffffffffffffffffffffffffffffffffffffffff1673ffffffffffffffffffffffffffffffffffffffff1614159050919050565b60007f01ffc9a7000000000000000000000000000000000000000000000000000000007bffffffffffffffffffffffffffffffffffffffffffffffffffffffff1916827bffffffffffffffffffffffffffffffffffffffffffffffffffffffff1916149050919050565b816004600083815260200190815260200160002060006101000a81548173ffffffffffffffffffffffffffffffffffffffff021916908373ffffffffffffffffffffffffffffffffffffffff160217905550808273ffffffffffffffffffffffffffffffffffffffff16612ea083611b47565b73ffffffffffffffffffffffffffffffffffffffff167f8c5be1e5ebec7d5bd14f71427d1e84f3dd0314c0f7b2291e5b200ac8c7c3b92560405160405180910390a45050565b612ef7612ef1612d48565b82612f66565b612f36576040517f08c379a0000000000000000000000000000000000000000000000000000000008152600401612f2d906152e4565b60405180910390fd5b612f41838383613710565b505050565b612f6183838360405180602001604052806000815250612375565b505050565b6000612f7182612d57565b612fb0576040517f08c379a0000000000000000000000000000000000000000000000000000000008152600401612fa7906155b3565b60405180910390fd5b6000612fbb83611b47565b90508073ffffffffffffffffffffffffffffffffffffffff168473ffffffffffffffffffffffffffffffffffffffff16148061302a57508373ffffffffffffffffffffffffffffffffffffffff1661301284610be8565b73ffffffffffffffffffffffffffffffffffffffff16145b8061303b575061303a8185612a12565b5b91505092915050565b600061304f82611b47565b905061305d8160008461396c565b613068600083612e2d565b6001600360008373ffffffffffffffffffffffffffffffffffffffff1673ffffffffffffffffffffffffffffffffffffffff16815260200190815260200160002060008282546130b89190614ea1565b925050819055506002600083815260200190815260200160002060006101000a81549073ffffffffffffffffffffffffffffffffffffffff021916905581600073ffffffffffffffffffffffffffffffffffffffff168273ffffffffffffffffffffffffffffffffffffffff167fddf252ad1be2c89b69c2b068fc378daa952ba7f163c4a11628f55a4df523b3ef60405160405180910390a45050565b600081600001549050919050565b600080600090505b6010548112156131aa5782600082815260200190815260200160002054841161319757809150506131af565b80806131a290614cf2565b91505061316b565b809150505b92915050565b6000600660009054906101000a900473ffffffffffffffffffffffffffffffffffffffff16905081600660006101000a81548173ffffffffffffffffffffffffffffffffffffffff021916908373ffffffffffffffffffffffffffffffffffffffff1602179055508173ffffffffffffffffffffffffffffffffffffffff168173ffffffffffffffffffffffffffffffffffffffff167f8be0079c531659141344cd1fd0a4f28419497f9722a3daafe3b4186f6b6457e060405160405180910390a35050565b6001816000016000828254019250508190555050565b600073ffffffffffffffffffffffffffffffffffffffff168273ffffffffffffffffffffffffffffffffffffffff161415613301576040517f08c379a00000000000000000000000000000000000000000000000000000000081526004016132f89061561f565b60405180910390fd5b61330a81612d57565b1561334a576040517f08c379a00000000000000000000000000000000000000000000000000000000081526004016133419061568b565b60405180910390fd5b6133566000838361396c565b6001600360008473ffffffffffffffffffffffffffffffffffffffff1673ffffffffffffffffffffffffffffffffffffffff16815260200190815260200160002060008282546133a691906156ab565b92505081905550816002600083815260200190815260200160002060006101000a81548173ffffffffffffffffffffffffffffffffffffffff021916908373ffffffffffffffffffffffffffffffffffffffff160217905550808273ffffffffffffffffffffffffffffffffffffffff16600073ffffffffffffffffffffffffffffffffffffffff167fddf252ad1be2c89b69c2b068fc378daa952ba7f163c4a11628f55a4df523b3ef60405160405180910390a45050565b61346a848484613710565b61347684848484613971565b6134b5576040517f08c379a00000000000000000000000000000000000000000000000000000000081526004016134ac90615773565b60405180910390fd5b50505050565b6060601880546134ca90614988565b80601f01602080910402602001604051908101604052809291908181526020018280546134f690614988565b80156135435780601f1061351857610100808354040283529160200191613543565b820191906000526020600020905b81548152906001019060200180831161352657829003601f168201915b5050505050905090565b60606000821415613595576040518060400160405280600181526020017f300000000000000000000000000000000000000000000000000000000000000081525090506136a9565b600082905060005b600082146135c75780806135b090614cf2565b915050600a826135c09190615793565b915061359d565b60008167ffffffffffffffff8111156135e3576135e2613d5b565b5b6040519080825280601f01601f1916602001820160405280156136155781602001600182028036833780820191505090505b5090505b600085146136a25760018261362e9190614ea1565b9150600a8561363d9190614f04565b603061364991906156ab565b60f81b81838151811061365f5761365e614c94565b5b60200101907effffffffffffffffffffffffffffffffffffffffffffffffffffffffffffff1916908160001a905350600a8561369b9190615793565b9450613619565b8093505050505b919050565b6136c8828260405180602001604052806000815250613af9565b5050565b80600760006101000a81548173ffffffffffffffffffffffffffffffffffffffff021916908373ffffffffffffffffffffffffffffffffffffffff16021790555050565b8273ffffffffffffffffffffffffffffffffffffffff1661373082611b47565b73ffffffffffffffffffffffffffffffffffffffff1614613786576040517f08c379a000000000000000000000000000000000000000000000000000000000815260040161377d90615836565b60405180910390fd5b600073ffffffffffffffffffffffffffffffffffffffff168273ffffffffffffffffffffffffffffffffffffffff1614156137f6576040517f08c379a00000000000000000000000000000000000000000000000000000000081526004016137ed906158c8565b60405180910390fd5b61380183838361396c565b61380c600082612e2d565b6001600360008573ffffffffffffffffffffffffffffffffffffffff1673ffffffffffffffffffffffffffffffffffffffff168152602001908152602001600020600082825461385c9190614ea1565b925050819055506001600360008473ffffffffffffffffffffffffffffffffffffffff1673ffffffffffffffffffffffffffffffffffffffff16815260200190815260200160002060008282546138b391906156ab565b92505081905550816002600083815260200190815260200160002060006101000a81548173ffffffffffffffffffffffffffffffffffffffff021916908373ffffffffffffffffffffffffffffffffffffffff160217905550808273ffffffffffffffffffffffffffffffffffffffff168473ffffffffffffffffffffffffffffffffffffffff167fddf252ad1be2c89b69c2b068fc378daa952ba7f163c4a11628f55a4df523b3ef60405160405180910390a4505050565b505050565b60006139928473ffffffffffffffffffffffffffffffffffffffff16613b54565b15613aec578373ffffffffffffffffffffffffffffffffffffffff1663150b7a026139bb612d48565b8786866040518563ffffffff1660e01b81526004016139dd949392919061593d565b6020604051808303816000875af1925050508015613a1957506040513d601f19601f82011682018060405250810190613a16919061599e565b60015b613a9c573d8060008114613a49576040519150601f19603f3d011682016040523d82523d6000602084013e613a4e565b606091505b50600081511415613a94576040517f08c379a0000000000000000000000000000000000000000000000000000000008152600401613a8b90615773565b60405180910390fd5b805181602001fd5b63150b7a0260e01b7bffffffffffffffffffffffffffffffffffffffffffffffffffffffff1916817bffffffffffffffffffffffffffffffffffffffffffffffffffffffff191614915050613af1565b600190505b949350505050565b613b038383613291565b613b106000848484613971565b613b4f576040517f08c379a0000000000000000000000000000000000000000000000000000000008152600401613b4690615773565b60405180910390fd5b505050565b600080823b905060008111915050919050565b828054613b7390614988565b90600052602060002090601f016020900481019282613b955760008555613bdc565b82601f10613bae57805160ff1916838001178555613bdc565b82800160010185558215613bdc579182015b82811115613bdb578251825591602001919060010190613bc0565b5b509050613be99190613cb5565b5090565b604051806101400160405280600a905b6060815260200190600190039081613bfd5790505090565b828054828255906000526020600020908101928215613c64579160200282015b82811115613c63578251829080519060200190613c53929190613b67565b5091602001919060010190613c35565b5b509050613c719190613cd2565b5090565b508054613c8190614988565b6000825580601f10613c935750613cb2565b601f016020900490600052602060002090810190613cb19190613cb5565b5b50565b5b80821115613cce576000816000905550600101613cb6565b5090565b5b80821115613cf25760008181613ce99190613c75565b50600101613cd3565b5090565b6000604051905090565b600080fd5b600080fd5b6000819050919050565b613d1d81613d0a565b8114613d2857600080fd5b50565b600081359050613d3a81613d14565b92915050565b600080fd5b600080fd5b6000601f19601f8301169050919050565b7f4e487b7100000000000000000000000000000000000000000000000000000000600052604160045260246000fd5b613d9382613d4a565b810181811067ffffffffffffffff82111715613db257613db1613d5b565b5b80604052505050565b6000613dc5613cf6565b9050613dd18282613d8a565b919050565b600067ffffffffffffffff821115613df157613df0613d5b565b5b613dfa82613d4a565b9050602081019050919050565b82818337600083830152505050565b6000613e29613e2484613dd6565b613dbb565b905082815260208101848484011115613e4557613e44613d45565b5b613e50848285613e07565b509392505050565b600082601f830112613e6d57613e6c613d40565b5b8135613e7d848260208601613e16565b91505092915050565b60008060408385031215613e9d57613e9c613d00565b5b6000613eab85828601613d2b565b925050602083013567ffffffffffffffff811115613ecc57613ecb613d05565b5b613ed885828601613e58565b9150509250929050565b60007fffffffff0000000000000000000000000000000000000000000000000000000082169050919050565b613f1781613ee2565b8114613f2257600080fd5b50565b600081359050613f3481613f0e565b92915050565b600060208284031215613f5057613f4f613d00565b5b6000613f5e84828501613f25565b91505092915050565b60008115159050919050565b613f7c81613f67565b82525050565b6000602082019050613f976000830184613f73565b92915050565b600081519050919050565b600082825260208201905092915050565b60005b83811015613fd7578082015181840152602081019050613fbc565b83811115613fe6576000848401525b50505050565b6000613ff782613f9d565b6140018185613fa8565b9350614011818560208601613fb9565b61401a81613d4a565b840191505092915050565b6000602082019050818103600083015261403f8184613fec565b905092915050565b60006020828403121561405d5761405c613d00565b5b600061406b84828501613d2b565b91505092915050565b600073ffffffffffffffffffffffffffffffffffffffff82169050919050565b600061409f82614074565b9050919050565b6140af81614094565b82525050565b60006020820190506140ca60008301846140a6565b92915050565b6140d981614094565b81146140e457600080fd5b50565b6000813590506140f6816140d0565b92915050565b6000806040838503121561411357614112613d00565b5b6000614121858286016140e7565b925050602061413285828601613d2b565b9150509250929050565b6000806040838503121561415357614152613d00565b5b600083013567ffffffffffffffff81111561417157614170613d05565b5b61417d85828601613e58565b925050602061418e85828601613d2b565b9150509250929050565b6000602082840312156141ae576141ad613d00565b5b60006141bc848285016140e7565b91505092915050565b6000806000606084860312156141de576141dd613d00565b5b60006141ec868287016140e7565b93505060206141fd868287016140e7565b925050604061420e86828701613d2b565b9150509250925092565b600081519050919050565b600082825260208201905092915050565b6000819050602082019050919050565b61424d81613d0a565b82525050565b600061425f8383614244565b60208301905092915050565b6000602082019050919050565b600061428382614218565b61428d8185614223565b935061429883614234565b8060005b838110156142c95781516142b08882614253565b97506142bb8361426b565b92505060018101905061429c565b5085935050505092915050565b600060208201905081810360008301526142f08184614278565b905092915050565b60006020828403121561430e5761430d613d00565b5b600082013567ffffffffffffffff81111561432c5761432b613d05565b5b61433884828501613e58565b91505092915050565b61434a81613d0a565b82525050565b60006020820190506143656000830184614341565b92915050565b60008060006060848603121561438457614383613d00565b5b6000614392868287016140e7565b935050602084013567ffffffffffffffff8111156143b3576143b2613d05565b5b6143bf86828701613e58565b925050604084013567ffffffffffffffff8111156143e0576143df613d05565b5b6143ec86828701613e58565b9150509250925092565b600081519050919050565b600082825260208201905092915050565b6000819050602082019050919050565b600082825260208201905092915050565b600061443e82613f9d565b6144488185614422565b9350614458818560208601613fb9565b61446181613d4a565b840191505092915050565b60006144788383614433565b905092915050565b6000602082019050919050565b6000614498826143f6565b6144a28185614401565b9350836020820285016144b485614412565b8060005b858110156144f057848403895281516144d1858261446c565b94506144dc83614480565b925060208a019950506001810190506144b8565b50829750879550505050505092915050565b6000602082019050818103600083015261451c818461448d565b905092915050565b61452d81613f67565b811461453857600080fd5b50565b60008135905061454a81614524565b92915050565b6000806040838503121561456757614566613d00565b5b6000614575858286016140e7565b92505060206145868582860161453b565b9150509250929050565b6000806000606084860312156145a9576145a8613d00565b5b60006145b786828701613d2b565b93505060206145c886828701613d2b565b92505060406145d986828701613d2b565b9150509250925092565b600067ffffffffffffffff8211156145fe576145fd613d5b565b5b61460782613d4a565b9050602081019050919050565b6000614627614622846145e3565b613dbb565b90508281526020810184848401111561464357614642613d45565b5b61464e848285613e07565b509392505050565b600082601f83011261466b5761466a613d40565b5b813561467b848260208601614614565b91505092915050565b6000806000806080858703121561469e5761469d613d00565b5b60006146ac878288016140e7565b94505060206146bd878288016140e7565b93505060406146ce87828801613d2b565b925050606085013567ffffffffffffffff8111156146ef576146ee613d05565b5b6146fb87828801614656565b91505092959194509250565b6000806040838503121561471e5761471d613d00565b5b600083013567ffffffffffffffff81111561473c5761473b613d05565b5b61474885828601613e58565b925050602083013567ffffffffffffffff81111561476957614768613d05565b5b61477585828601613e58565b9150509250929050565b6000806040838503121561479657614795613d00565b5b60006147a4858286016140e7565b925050602083013567ffffffffffffffff8111156147c5576147c4613d05565b5b6147d185828601613e58565b9150509250929050565b600080604083850312156147f2576147f1613d00565b5b600061480085828601613d2b565b925050602061481185828601613d2b565b9150509250929050565b6000806040838503121561483257614831613d00565b5b6000614840858286016140e7565b9250506020614851858286016140e7565b9150509250929050565b7f4f776e61626c653a2063616c6c6572206973206e6f7420746865206f776e6572600082015250565b6000614891602083613fa8565b915061489c8261485b565b602082019050919050565b600060208201905081810360008301526148c081614884565b9050919050565b7f4552433732314d657461646174613a2055524920736574206f66206e6f6e657860008201527f697374656e7420746f6b656e0000000000000000000000000000000000000000602082015250565b6000614923602c83613fa8565b915061492e826148c7565b604082019050919050565b6000602082019050818103600083015261495281614916565b9050919050565b7f4e487b7100000000000000000000000000000000000000000000000000000000600052602260045260246000fd5b600060028204905060018216806149a057607f821691505b602082108114156149b4576149b3614959565b5b50919050565b7f4552433732313a20617070726f76656420717565727920666f72206e6f6e657860008201527f697374656e7420746f6b656e0000000000000000000000000000000000000000602082015250565b6000614a16602c83613fa8565b9150614a21826149ba565b604082019050919050565b60006020820190508181036000830152614a4581614a09565b9050919050565b7f4552433732313a20617070726f76616c20746f2063757272656e74206f776e6560008201527f7200000000000000000000000000000000000000000000000000000000000000602082015250565b6000614aa8602183613fa8565b9150614ab382614a4c565b604082019050919050565b60006020820190508181036000830152614ad781614a9b565b9050919050565b7f4552433732313a20617070726f76652063616c6c6572206973206e6f74206f7760008201527f6e6572206e6f7220617070726f76656420666f7220616c6c0000000000000000602082015250565b6000614b3a603883613fa8565b9150614b4582614ade565b604082019050919050565b60006020820190508181036000830152614b6981614b2d565b9050919050565b7f566972696469616e204e46543a2043616e6e6f74207472616e7366657220776860008201527f696c65206c6973746564206f6e20566972696469616e2045786368616e676500602082015250565b6000614bcc603f83613fa8565b9150614bd782614b70565b604082019050919050565b60006020820190508181036000830152614bfb81614bbf565b9050919050565b7f566972696469616e204e46543a2043616e206f6e6c79206f70656e207061636b60008201527f206f6e636520726573756c742069732064656369646564000000000000000000602082015250565b6000614c5e603783613fa8565b9150614c6982614c02565b604082019050919050565b60006020820190508181036000830152614c8d81614c51565b9050919050565b7f4e487b7100000000000000000000000000000000000000000000000000000000600052603260045260246000fd5b7f4e487b7100000000000000000000000000000000000000000000000000000000600052601160045260246000fd5b6000614cfd82613d0a565b91507fffffffffffffffffffffffffffffffffffffffffffffffffffffffffffffffff821415614d3057614d2f614cc3565b5b600182019050919050565b600081519050614d4a81613d14565b92915050565b600060208284031215614d6657614d65613d00565b5b6000614d7484828501614d3b565b91505092915050565b7f566972696469616e205061636b3a20565246206861736e27742067656e65726160008201527f7465642072616e646f6d2072617720726573756c742079657400000000000000602082015250565b6000614dd9603983613fa8565b9150614de482614d7d565b604082019050919050565b60006020820190508181036000830152614e0881614dcc565b9050919050565b7f566972696469616e205061636b3a20565246206861736e27742067656e65726160008201527f7465642072616e646f6d20726573756c74207965740000000000000000000000602082015250565b6000614e6b603583613fa8565b9150614e7682614e0f565b604082019050919050565b60006020820190508181036000830152614e9a81614e5e565b9050919050565b6000614eac82613d0a565b9150614eb783613d0a565b925082821015614eca57614ec9614cc3565b5b828203905092915050565b7f4e487b7100000000000000000000000000000000000000000000000000000000600052601260045260246000fd5b6000614f0f82613d0a565b9150614f1a83613d0a565b925082614f2a57614f29614ed5565b5b828206905092915050565b6000604082019050614f4a60008301856140a6565b8181036020830152614f5c8184613fec565b90509392505050565b7f4e487b7100000000000000000000000000000000000000000000000000000000600052603160045260246000fd5b600060ff82169050919050565b6000614fac82614f94565b915060ff821415614fc057614fbf614cc3565b5b600182019050919050565b6000600a9050919050565b600081905092915050565b6000819050919050565b6000602082019050919050565b600061500382614fcb565b61500d8185614fd6565b93508360208202850161501f85614fe1565b8060005b8581101561505b578484038952815161503c858261446c565b945061504783614feb565b925060208a01995050600181019050615023565b50829750879550505050505092915050565b600060208201905081810360008301526150878184614ff8565b905092915050565b7f4552433732313a206f776e657220717565727920666f72206e6f6e657869737460008201527f656e7420746f6b656e0000000000000000000000000000000000000000000000602082015250565b60006150eb602983613fa8565b91506150f68261508f565b604082019050919050565b6000602082019050818103600083015261511a816150de565b9050919050565b7f4552433732313a2062616c616e636520717565727920666f7220746865207a6560008201527f726f206164647265737300000000000000000000000000000000000000000000602082015250565b600061517d602a83613fa8565b915061518882615121565b604082019050919050565b600060208201905081810360008301526151ac81615170565b9050919050565b600081905092915050565b60006151c982613f9d565b6151d381856151b3565b93506151e3818560208601613fb9565b80840191505092915050565b60006151fb82846151be565b915081905092915050565b7f4552433732313a20617070726f766520746f2063616c6c657200000000000000600082015250565b600061523c601983613fa8565b915061524782615206565b602082019050919050565b6000602082019050818103600083015261526b8161522f565b9050919050565b7f4552433732313a207472616e736665722063616c6c6572206973206e6f74206f60008201527f776e6572206e6f7220617070726f766564000000000000000000000000000000602082015250565b60006152ce603183613fa8565b91506152d982615272565b604082019050919050565b600060208201905081810360008301526152fd816152c1565b9050919050565b7f4552433732314d657461646174613a2055524920717565727920666f72206e6f60008201527f6e6578697374656e7420746f6b656e0000000000000000000000000000000000602082015250565b6000615360602f83613fa8565b915061536b82615304565b604082019050919050565b6000602082019050818103600083015261538f81615353565b9050919050565b60006153a282856151be565b91506153ae82846151be565b91508190509392505050565b7f566972696469616e205061636b3a2043616e6e6f74207265646f207061636b2060008201527f726573756c740000000000000000000000000000000000000000000000000000602082015250565b6000615416602683613fa8565b9150615421826153ba565b604082019050919050565b6000602082019050818103600083015261544581615409565b9050919050565b6000819050919050565b61545f8161544c565b811461546a57600080fd5b50565b60008151905061547c81615456565b92915050565b60006020828403121561549857615497613d00565b5b60006154a68482850161546d565b91505092915050565b7f4f776e61626c653a206e6577206f776e657220697320746865207a65726f206160008201527f6464726573730000000000000000000000000000000000000000000000000000602082015250565b600061550b602683613fa8565b9150615516826154af565b604082019050919050565b6000602082019050818103600083015261553a816154fe565b9050919050565b7f4552433732313a206f70657261746f7220717565727920666f72206e6f6e657860008201527f697374656e7420746f6b656e0000000000000000000000000000000000000000602082015250565b600061559d602c83613fa8565b91506155a882615541565b604082019050919050565b600060208201905081810360008301526155cc81615590565b9050919050565b7f4552433732313a206d696e7420746f20746865207a65726f2061646472657373600082015250565b6000615609602083613fa8565b9150615614826155d3565b602082019050919050565b60006020820190508181036000830152615638816155fc565b9050919050565b7f4552433732313a20746f6b656e20616c7265616479206d696e74656400000000600082015250565b6000615675601c83613fa8565b91506156808261563f565b602082019050919050565b600060208201905081810360008301526156a481615668565b9050919050565b60006156b682613d0a565b91506156c183613d0a565b9250827fffffffffffffffffffffffffffffffffffffffffffffffffffffffffffffffff038211156156f6576156f5614cc3565b5b828201905092915050565b7f4552433732313a207472616e7366657220746f206e6f6e20455243373231526560008201527f63656976657220696d706c656d656e7465720000000000000000000000000000602082015250565b600061575d603283613fa8565b915061576882615701565b604082019050919050565b6000602082019050818103600083015261578c81615750565b9050919050565b600061579e82613d0a565b91506157a983613d0a565b9250826157b9576157b8614ed5565b5b828204905092915050565b7f4552433732313a207472616e73666572206f6620746f6b656e2074686174206960008201527f73206e6f74206f776e0000000000000000000000000000000000000000000000602082015250565b6000615820602983613fa8565b915061582b826157c4565b604082019050919050565b6000602082019050818103600083015261584f81615813565b9050919050565b7f4552433732313a207472616e7366657220746f20746865207a65726f2061646460008201527f7265737300000000000000000000000000000000000000000000000000000000602082015250565b60006158b2602483613fa8565b91506158bd82615856565b604082019050919050565b600060208201905081810360008301526158e1816158a5565b9050919050565b600081519050919050565b600082825260208201905092915050565b600061590f826158e8565b61591981856158f3565b9350615929818560208601613fb9565b61593281613d4a565b840191505092915050565b600060808201905061595260008301876140a6565b61595f60208301866140a6565b61596c6040830185614341565b818103606083015261597e8184615904565b905095945050505050565b60008151905061599881613f0e565b92915050565b6000602082840312156159b4576159b3613d00565b5b60006159c284828501615989565b9150509291505056fea2646970667358221220b8024edd8d462073832980725248eae054d0159960ab5cd73faf578cf3b9577264736f6c634300080a0033",
  "immutableReferences": {},
  "source": "pragma solidity ^0.8.0;\n\nimport \"@openzeppelin/contracts/token/ERC721/ERC721.sol\";\nimport \"@openzeppelin/contracts/utils/Counters.sol\";\nimport \"@openzeppelin/contracts/access/Ownable.sol\";\nimport \"@opengsn/contracts/src/BaseRelayRecipient.sol\";\n\nimport \"./RandomNumber.sol\";\nimport \"./ViridianNFT.sol\";\n\ncontract ViridianPack is ERC721, Ownable, BaseRelayRecipient {\n\n    using Counters for Counters.Counter;\n    Counters.Counter private _tokenIds;\n    Counters.Counter private _unmintedTokenIds;\n    mapping(string => uint8) hashes;\n    mapping(uint256 => mapping(uint256 => uint256)) private rarityOdds;\n    mapping(uint256 => uint256) private numNFTs;\n    //mapping(uint256 => string) private unmintedURIs;\n    mapping(uint256 => bool) private _tokensListed;\n    mapping(uint256 => uint256) tokenRarity;\n    mapping(uint256 => string[]) private uriRarityPools;\n    int private maxRarityIndex;\n\n    mapping(uint256 => bool) private packResultDecided;\n\n    mapping(address => bool) admins;\n\n    address public viridianNFTAddr;\n\n    ViridianNFT vNFT;\n    RandomNumberConsumer vrf;\n\n    using Strings for uint256;\n\n    constructor(address _viridianNFT/*, address _forwarder*/) ERC721(\"Viridian Pack\", \"VP\") {\n\n        require(address(_viridianNFT) != address(0));\n\n        viridianNFTAddr = _viridianNFT;\n\n        //_setTrustedForwarder(_forwarder);\n\n        vNFT = ViridianNFT(viridianNFTAddr);\n        vrf = RandomNumberConsumer(address(this));\n\n        //Set all beginning rarities\n\n        // Legendary rarity and cards in pack\n        rarityOdds[0][0] = 25;\n        rarityOdds[0][1] = 100;\n        rarityOdds[0][2] = 300;\n        rarityOdds[0][3] = 1000;\n        numNFTs[0] = 3;\n\n        // Mystical rarity and cards in pack\n        rarityOdds[1][0] = 1;\n        rarityOdds[1][1] = 50;\n        rarityOdds[1][2] = 200;\n        rarityOdds[1][3] = 1000;\n        numNFTs[0] = 3;\n\n        // Rare rarity and cards in pack\n        rarityOdds[2][0] = 0;\n        rarityOdds[2][1] = 50;\n        rarityOdds[2][2] = 100;\n        rarityOdds[2][3] = 1000;\n        numNFTs[0] = 3;\n\n        // Common rarity and cards in pack\n        rarityOdds[3][0] = 0;\n        rarityOdds[3][1] = 10;\n        rarityOdds[3][2] = 50;\n        rarityOdds[3][3] = 1000;\n        numNFTs[0] = 3;\n\n        maxRarityIndex = 3;\n\n        admins[_msgSender()] = true;\n    }\n\n    string public override versionRecipient = \"2.2.0\";\n\n    function setTrustedForwarder(address _forwarder) public onlyOwner() {\n        _setTrustedForwarder(_forwarder);\n    }\n\n    event Open(string[10] newUris);\n    \n    // Optional mapping for token URIs\n    mapping (uint256 => string) private _tokenURIs;\n\n    //address private viridianExchangeAddress;\n\n    // Base URI\n    string private _baseURIextended;\n\n    modifier onlyAdmin() {\n        require(admins[_msgSender()] == true);\n            _;\n    }\n\n    function _msgSender() internal view override(Context, BaseRelayRecipient) returns (address sender) {\n        sender = BaseRelayRecipient._msgSender();\n    }\n\n    function _msgData() internal view override(Context, BaseRelayRecipient) returns (bytes memory) {\n        return BaseRelayRecipient._msgData();\n    }\n\n    function addAdmin(address _newAdmin) external onlyOwner() {\n        admins[_newAdmin] = true;\n    }\n\n    function removeAdmin(address _newAdmin) external onlyOwner() {\n        admins[_newAdmin] = false;\n    }\n    \n    function setBaseURI(string memory baseURI_) external onlyAdmin() {\n        _baseURIextended = baseURI_;\n    }\n    \n    function _setTokenURI(uint256 tokenId, string memory _tokenURI) public virtual onlyOwner() {\n        require(_exists(tokenId), \"ERC721Metadata: URI set of nonexistent token\");\n        _tokenURIs[tokenId] = _tokenURI;\n    }\n    \n    function _baseURI() internal view virtual override returns (string memory) {\n        return _baseURIextended;\n    }\n    \n    function tokenURI(uint256 tokenId) public view virtual override returns (string memory) {\n        require(_exists(tokenId), \"ERC721Metadata: URI query for nonexistent token\");\n\n        string memory _tokenURI = _tokenURIs[tokenId];\n        string memory base = _baseURI();\n        \n        // If there is no base URI, return the token URI.\n        if (bytes(base).length == 0) {\n            return _tokenURI;\n        }\n        // If both are set, concatenate the baseURI and tokenURI (via abi.encodePacked).\n        if (bytes(_tokenURI).length > 0) {\n            return string(abi.encodePacked(base, _tokenURI));\n        }\n        // If there is a baseURI but no tokenURI, concatenate the tokenID to the baseURI.\n        return string(abi.encodePacked(base, tokenId.toString()));\n    }\n\n    function getUriRarityPools(uint256 _rarity) public view onlyAdmin() returns (string[] memory) {\n        return uriRarityPools[_rarity];\n    }\n\n    function getNumNFTs() public view returns (uint256 n) {\n        return _tokenIds.current();\n    }\n\n    function getNumOwnedNFTs() public view virtual returns (uint256) {\n        uint256 numOwnedNFTs = 0;\n\n        for (uint256 i = 1; i <= _tokenIds.current(); i++) {\n            if (ownerOf(i) == _msgSender()) {\n                numOwnedNFTs++;\n            }\n        }\n\n        return numOwnedNFTs;\n    }\n \n    function getOwnedNFTs() public view virtual returns (uint256[] memory) {\n\n        uint256[] memory _tokens = new uint256[](getNumOwnedNFTs());\n\n        uint256 curIndex = 0;\n\n        for (uint256 i = 1; i <= _tokenIds.current(); i++) {\n            if (ownerOf(i) == _msgSender()) {\n                _tokens[curIndex] = i;\n                curIndex++;\n            }\n        }\n        \n        return _tokens;\n    }\n\n    function setRarityOdds(uint256 _rarity, uint256 _rarityOdd, uint256 _newOdds) external onlyAdmin() {\n        rarityOdds[_rarity][_rarityOdd] = _newOdds;\n    }\n\n    function isListed(uint256 tokenId) public view returns (bool) {\n        return _tokensListed[tokenId];\n    }\n\n    function mint(\n        address _to,\n        string memory tokenURI_\n    ) external onlyAdmin() {\n        _tokenIds.increment();\n        uint256 _tokenId = _tokenIds.current();\n\n        _safeMint(_to, _tokenId);\n        _tokensListed[_tokenId] = false;\n        _setTokenURI(_tokenId, tokenURI_);\n    }\n\n    //TODO: THIS IS NOT TO BE USED IN FINAL DEPLOYED IMPLEMENTATION, convert to LINK VRF for TESTNET and ESPECIALLY MAINNET!!!\n    uint nonce;\n\n    function calculateWeightedOdds(uint256 randomNum, mapping(uint256 => uint256) storage rarityOdd) private view returns (uint) {\n        uint256 n;\n\n        for (n = 0; int(n) < int(maxRarityIndex); n++) {\n            if (randomNum <= rarityOdd[n]) {\n                return n;\n            }\n        }\n\n        return n;\n    }\n\n    function softMintNFT(string memory uri, uint256 rarity) public onlyAdmin() payable {\n        uriRarityPools[rarity].push(uri);\n    }\n\n    function burnSoftMintedNFTAtRarityIndex(uint256 rarity, uint256 index) public onlyAdmin() payable {\n        string[] memory curRarityPool = uriRarityPools[rarity];\n            for (uint i = 0; i < uriRarityPools[rarity].length; i++) {\n                if (i == index) {\n                    curRarityPool[i] = curRarityPool[curRarityPool.length - 1];\n                    uriRarityPools[rarity] = curRarityPool;\n                    uriRarityPools[rarity].pop();\n                    break;\n                }\n            }\n    }\n\n    function compareStrings(string memory _s, string memory _s1) public pure returns (bool) {\n        return (keccak256(abi.encodePacked((_s))) == keccak256(abi.encodePacked((_s1))));\n    }\n\n    function lockInPackResult(uint256 _tokenId) public payable {\n        require(_isApprovedOrOwner(_msgSender(), _tokenId));\n        require(!packResultDecided[_tokenId], \"Viridian Pack: Cannot redo pack result\");\n        packResultDecided[_tokenId] = true;\n        vrf.getRandomNumber(_tokenId);\n    }\n\n    function openPack(uint256 _tokenId) public payable {\n        // Randomly \n        require(_isApprovedOrOwner(_msgSender(), _tokenId));\n        require(vrf.getRandomRawResultForToken(_tokenId) > 0, \"Viridian Pack: VRF hasn't generated random raw result yet\");\n        require(vrf.getRandomResultForToken(_tokenId) > 0, \"Viridian Pack: VRF hasn't generated random result yet\");\n\n        uint256 tr = tokenRarity[_tokenId];\n\n        string[10] memory newUris;\n\n        //Need to delete the item from the rarity pool before minting happens again\n        for (uint8 n = 0; n < numNFTs[tr]; n++) {\n            uint256 randIndexWithPercentOdds = calculateWeightedOdds(vrf.getRandomResultForToken(_tokenId), rarityOdds[tr]);\n            uint256 randIndexInRarity = vrf.getRandomRawResultForToken(_tokenId) % (uriRarityPools[randIndexWithPercentOdds].length - 1);\n\n            string memory newURI = uriRarityPools[randIndexWithPercentOdds][randIndexInRarity];\n\n            vNFT.mint(_msgSender(), newURI);\n\n            newUris[n] = newURI;\n\n            string[] memory curRarityPool = uriRarityPools[randIndexWithPercentOdds];\n            for (uint i = 0; i < uriRarityPools[randIndexWithPercentOdds].length; i++) {\n                string memory uri = uriRarityPools[randIndexWithPercentOdds][i];\n                if (compareStrings(uri, newURI)) {\n                    curRarityPool[i] = curRarityPool[curRarityPool.length - 1];\n                    uriRarityPools[randIndexWithPercentOdds] = curRarityPool;\n                    uriRarityPools[randIndexWithPercentOdds].pop();\n                    break;\n                }\n            }\n        }\n\n        burn(_tokenId);\n\n        emit Open(newUris);\n    }\n\n    function burn(uint256 tokenId) public {\n        require(_isApprovedOrOwner(_msgSender(), tokenId));\n\n        _burn(tokenId);\n    }\n\n    function awardItem(address recipient, string memory hash, string memory metadata) public returns (uint256) {\n        require(hashes[hash] != 1);\n        hashes[hash] = 1;\n        _tokenIds.increment();\n        uint256 newItemId = _tokenIds.current();\n        _mint(recipient, newItemId);\n        _setTokenURI(newItemId, metadata);\n        return newItemId;\n    }\n\n    function safeTransferFrom(address from, address to, uint256 tokenId) public override {\n        require(!_tokensListed[tokenId], \"Viridian NFT: Cannot transfer while listed on Viridian Exchange\");\n        require(!packResultDecided[tokenId], \"Viridian NFT: Can only open pack once result is decided\");\n\n        super.safeTransferFrom(from, to, tokenId);\n    }\n\n    function transferFrom(address from, address to, uint256 tokenId) public override {\n        require(!_tokensListed[tokenId], \"Viridian NFT: Cannot transfer while listed on Viridian Exchange\");\n        require(!packResultDecided[tokenId], \"Viridian NFT: Can only open pack once result is decided\");\n\n        super.transferFrom(from, to, tokenId);\n    }\n\n    function listToken(uint256 _tokenId) public {\n        require(_isApprovedOrOwner(_msgSender(), _tokenId));\n        _tokensListed[_tokenId] = true;\n    }\n\n    function unlistToken(uint256 _tokenId) public {\n        require(_isApprovedOrOwner(_msgSender(), _tokenId));\n        _tokensListed[_tokenId] = false;\n    }\n}",
  "sourcePath": "/Users/blakehatch/Viridian-Exchange-Contracts/contracts/ViridianPack.sol",
  "compiler": {
    "name": "solc",
    "version": "0.8.10+commit.fc410830.Emscripten.clang"
  },
  "schemaVersion": "3.4.1",
  "updatedAt": "2021-12-14T19:36:43.537Z",
  "networkType": "ethereum",
  "devdoc": {
    "kind": "dev",
    "methods": {
      "approve(address,uint256)": {
        "details": "See {IERC721-approve}."
      },
      "balanceOf(address)": {
        "details": "See {IERC721-balanceOf}."
      },
      "getApproved(uint256)": {
        "details": "See {IERC721-getApproved}."
      },
      "isApprovedForAll(address,address)": {
        "details": "See {IERC721-isApprovedForAll}."
      },
      "name()": {
        "details": "See {IERC721Metadata-name}."
      },
      "owner()": {
        "details": "Returns the address of the current owner."
      },
      "ownerOf(uint256)": {
        "details": "See {IERC721-ownerOf}."
      },
      "renounceOwnership()": {
        "details": "Leaves the contract without owner. It will not be possible to call `onlyOwner` functions anymore. Can only be called by the current owner. NOTE: Renouncing ownership will leave the contract without an owner, thereby removing any functionality that is only available to the owner."
      },
      "safeTransferFrom(address,address,uint256)": {
        "details": "See {IERC721-safeTransferFrom}."
      },
      "safeTransferFrom(address,address,uint256,bytes)": {
        "details": "See {IERC721-safeTransferFrom}."
      },
      "setApprovalForAll(address,bool)": {
        "details": "See {IERC721-setApprovalForAll}."
      },
      "supportsInterface(bytes4)": {
        "details": "See {IERC165-supportsInterface}."
      },
      "symbol()": {
        "details": "See {IERC721Metadata-symbol}."
      },
      "tokenURI(uint256)": {
        "details": "See {IERC721Metadata-tokenURI}."
      },
      "transferFrom(address,address,uint256)": {
        "details": "See {IERC721-transferFrom}."
      },
      "transferOwnership(address)": {
        "details": "Transfers ownership of the contract to a new account (`newOwner`). Can only be called by the current owner."
      }
    },
    "version": 1
  },
  "userdoc": {
    "kind": "user",
    "methods": {
      "isTrustedForwarder(address)": {
        "notice": "return if the forwarder is trusted to forward relayed transactions to us. the forwarder is required to verify the sender's signature, and verify the call is not a replay."
      }
    },
    "version": 1
  }
}