{
  "contractName": "ViridianExchange",
  "abi": [
    {
      "inputs": [
        {
          "internalType": "address",
          "name": "_viridianToken",
          "type": "address"
        },
        {
          "internalType": "address",
          "name": "_viridianNFT",
          "type": "address"
        }
      ],
      "stateMutability": "nonpayable",
      "type": "constructor"
    },
    {
      "anonymous": false,
      "inputs": [
        {
          "indexed": true,
          "internalType": "address",
          "name": "previousOwner",
          "type": "address"
        },
        {
          "indexed": true,
          "internalType": "address",
          "name": "newOwner",
          "type": "address"
        }
      ],
      "name": "OwnershipTransferred",
      "type": "event"
    },
    {
      "stateMutability": "payable",
      "type": "fallback",
      "payable": true
    },
    {
      "inputs": [],
      "name": "ETH",
      "outputs": [
        {
          "internalType": "address",
          "name": "",
          "type": "address"
        }
      ],
      "stateMutability": "view",
      "type": "function",
      "constant": true
    },
    {
      "inputs": [],
      "name": "owner",
      "outputs": [
        {
          "internalType": "address",
          "name": "",
          "type": "address"
        }
      ],
      "stateMutability": "view",
      "type": "function",
      "constant": true
    },
    {
      "inputs": [],
      "name": "renounceOwnership",
      "outputs": [],
      "stateMutability": "nonpayable",
      "type": "function"
    },
    {
      "inputs": [
        {
          "internalType": "address",
          "name": "newOwner",
          "type": "address"
        }
      ],
      "name": "transferOwnership",
      "outputs": [],
      "stateMutability": "nonpayable",
      "type": "function"
    },
    {
      "inputs": [
        {
          "internalType": "uint256",
          "name": "",
          "type": "uint256"
        }
      ],
      "name": "users",
      "outputs": [
        {
          "internalType": "address",
          "name": "wallet",
          "type": "address"
        },
        {
          "internalType": "string",
          "name": "displayName",
          "type": "string"
        },
        {
          "internalType": "string",
          "name": "coverPhotoURL",
          "type": "string"
        },
        {
          "internalType": "string",
          "name": "profilePhotoURL",
          "type": "string"
        },
        {
          "internalType": "string",
          "name": "bio",
          "type": "string"
        }
      ],
      "stateMutability": "view",
      "type": "function",
      "constant": true
    },
    {
      "inputs": [],
      "name": "viridianNFT",
      "outputs": [
        {
          "internalType": "address",
          "name": "",
          "type": "address"
        }
      ],
      "stateMutability": "view",
      "type": "function",
      "constant": true
    },
    {
      "inputs": [],
      "name": "viridianToken",
      "outputs": [
        {
          "internalType": "address",
          "name": "",
          "type": "address"
        }
      ],
      "stateMutability": "view",
      "type": "function",
      "constant": true
    },
    {
      "stateMutability": "payable",
      "type": "receive",
      "payable": true
    },
    {
      "inputs": [],
      "name": "getBalance",
      "outputs": [
        {
          "internalType": "uint256",
          "name": "",
          "type": "uint256"
        }
      ],
      "stateMutability": "view",
      "type": "function",
      "constant": true
    },
    {
      "inputs": [],
      "name": "getListings",
      "outputs": [
        {
          "internalType": "uint256[]",
          "name": "",
          "type": "uint256[]"
        }
      ],
      "stateMutability": "view",
      "type": "function",
      "constant": true
    },
    {
      "inputs": [],
      "name": "getOffers",
      "outputs": [
        {
          "internalType": "uint256[]",
          "name": "",
          "type": "uint256[]"
        }
      ],
      "stateMutability": "view",
      "type": "function",
      "constant": true
    },
    {
      "inputs": [
        {
          "internalType": "uint256",
          "name": "_listingId",
          "type": "uint256"
        }
      ],
      "name": "getListingsFromId",
      "outputs": [
        {
          "components": [
            {
              "internalType": "uint256",
              "name": "listingId",
              "type": "uint256"
            },
            {
              "internalType": "uint256",
              "name": "tokenId",
              "type": "uint256"
            },
            {
              "internalType": "address",
              "name": "owner",
              "type": "address"
            },
            {
              "internalType": "uint256",
              "name": "price",
              "type": "uint256"
            },
            {
              "internalType": "bool",
              "name": "purchased",
              "type": "bool"
            },
            {
              "internalType": "uint256",
              "name": "royalty",
              "type": "uint256"
            },
            {
              "internalType": "uint256",
              "name": "endTime",
              "type": "uint256"
            },
            {
              "internalType": "bool",
              "name": "sold",
              "type": "bool"
            },
            {
              "internalType": "bool",
              "name": "isVEXT",
              "type": "bool"
            }
          ],
          "internalType": "struct ViridianExchange.Listing",
          "name": "",
          "type": "tuple"
        }
      ],
      "stateMutability": "view",
      "type": "function",
      "constant": true
    },
    {
      "inputs": [
        {
          "internalType": "uint256",
          "name": "_offerId",
          "type": "uint256"
        }
      ],
      "name": "getOffersFromId",
      "outputs": [
        {
          "components": [
            {
              "internalType": "uint256",
              "name": "offerId",
              "type": "uint256"
            },
            {
              "internalType": "uint256[]",
              "name": "toNftIds",
              "type": "uint256[]"
            },
            {
              "internalType": "uint256",
              "name": "toAmt",
              "type": "uint256"
            },
            {
              "internalType": "uint256[]",
              "name": "fromNftIds",
              "type": "uint256[]"
            },
            {
              "internalType": "uint256",
              "name": "fromAmt",
              "type": "uint256"
            },
            {
              "internalType": "address",
              "name": "to",
              "type": "address"
            },
            {
              "internalType": "address",
              "name": "from",
              "type": "address"
            },
            {
              "internalType": "bool",
              "name": "isVEXT",
              "type": "bool"
            },
            {
              "internalType": "bool",
              "name": "pending",
              "type": "bool"
            }
          ],
          "internalType": "struct ViridianExchange.Offer",
          "name": "",
          "type": "tuple"
        }
      ],
      "stateMutability": "view",
      "type": "function",
      "constant": true
    },
    {
      "inputs": [
        {
          "internalType": "address",
          "name": "_userAddr",
          "type": "address"
        }
      ],
      "name": "getListingsFromUser",
      "outputs": [
        {
          "components": [
            {
              "internalType": "uint256",
              "name": "listingId",
              "type": "uint256"
            },
            {
              "internalType": "uint256",
              "name": "tokenId",
              "type": "uint256"
            },
            {
              "internalType": "address",
              "name": "owner",
              "type": "address"
            },
            {
              "internalType": "uint256",
              "name": "price",
              "type": "uint256"
            },
            {
              "internalType": "bool",
              "name": "purchased",
              "type": "bool"
            },
            {
              "internalType": "uint256",
              "name": "royalty",
              "type": "uint256"
            },
            {
              "internalType": "uint256",
              "name": "endTime",
              "type": "uint256"
            },
            {
              "internalType": "bool",
              "name": "sold",
              "type": "bool"
            },
            {
              "internalType": "bool",
              "name": "isVEXT",
              "type": "bool"
            }
          ],
          "internalType": "struct ViridianExchange.Listing[]",
          "name": "",
          "type": "tuple[]"
        }
      ],
      "stateMutability": "view",
      "type": "function",
      "constant": true
    },
    {
      "inputs": [
        {
          "internalType": "address",
          "name": "_userAddr",
          "type": "address"
        }
      ],
      "name": "getOffersFromUser",
      "outputs": [
        {
          "components": [
            {
              "internalType": "uint256",
              "name": "offerId",
              "type": "uint256"
            },
            {
              "internalType": "uint256[]",
              "name": "toNftIds",
              "type": "uint256[]"
            },
            {
              "internalType": "uint256",
              "name": "toAmt",
              "type": "uint256"
            },
            {
              "internalType": "uint256[]",
              "name": "fromNftIds",
              "type": "uint256[]"
            },
            {
              "internalType": "uint256",
              "name": "fromAmt",
              "type": "uint256"
            },
            {
              "internalType": "address",
              "name": "to",
              "type": "address"
            },
            {
              "internalType": "address",
              "name": "from",
              "type": "address"
            },
            {
              "internalType": "bool",
              "name": "isVEXT",
              "type": "bool"
            },
            {
              "internalType": "bool",
              "name": "pending",
              "type": "bool"
            }
          ],
          "internalType": "struct ViridianExchange.Offer[]",
          "name": "",
          "type": "tuple[]"
        }
      ],
      "stateMutability": "view",
      "type": "function",
      "constant": true
    },
    {
      "inputs": [
        {
          "internalType": "uint256",
          "name": "_nftId",
          "type": "uint256"
        }
      ],
      "name": "getNftOwner",
      "outputs": [
        {
          "internalType": "address",
          "name": "",
          "type": "address"
        }
      ],
      "stateMutability": "view",
      "type": "function",
      "constant": true
    },
    {
      "inputs": [
        {
          "internalType": "address payable",
          "name": "_to",
          "type": "address"
        }
      ],
      "name": "sendEther",
      "outputs": [],
      "stateMutability": "payable",
      "type": "function",
      "payable": true
    },
    {
      "inputs": [
        {
          "internalType": "uint256",
          "name": "_nftId",
          "type": "uint256"
        },
        {
          "internalType": "uint256",
          "name": "_price",
          "type": "uint256"
        },
        {
          "internalType": "uint256",
          "name": "_royalty",
          "type": "uint256"
        },
        {
          "internalType": "uint256",
          "name": "_endTime",
          "type": "uint256"
        },
        {
          "internalType": "bool",
          "name": "_isVEXT",
          "type": "bool"
        }
      ],
      "name": "putUpForSale",
      "outputs": [],
      "stateMutability": "payable",
      "type": "function",
      "payable": true
    },
    {
      "inputs": [
        {
          "internalType": "uint256",
          "name": "_listingId",
          "type": "uint256"
        }
      ],
      "name": "pullFromSale",
      "outputs": [],
      "stateMutability": "payable",
      "type": "function",
      "payable": true
    },
    {
      "inputs": [
        {
          "internalType": "uint256",
          "name": "_listingId",
          "type": "uint256"
        }
      ],
      "name": "buyNFTWithETH",
      "outputs": [],
      "stateMutability": "payable",
      "type": "function",
      "payable": true
    },
    {
      "inputs": [
        {
          "internalType": "uint256",
          "name": "_listingId",
          "type": "uint256"
        }
      ],
      "name": "buyNFTWithVEXT",
      "outputs": [],
      "stateMutability": "payable",
      "type": "function",
      "payable": true
    },
    {
      "inputs": [
        {
          "internalType": "address",
          "name": "_to",
          "type": "address"
        },
        {
          "internalType": "uint256[]",
          "name": "_nftIds",
          "type": "uint256[]"
        },
        {
          "internalType": "uint256",
          "name": "_amount",
          "type": "uint256"
        },
        {
          "internalType": "uint256[]",
          "name": "_recNftIds",
          "type": "uint256[]"
        },
        {
          "internalType": "uint256",
          "name": "_recAmount",
          "type": "uint256"
        },
        {
          "internalType": "bool",
          "name": "isVEXT",
          "type": "bool"
        }
      ],
      "name": "makeOffer",
      "outputs": [],
      "stateMutability": "nonpayable",
      "type": "function"
    },
    {
      "inputs": [
        {
          "internalType": "uint256",
          "name": "_offerId",
          "type": "uint256"
        }
      ],
      "name": "cancelOffer",
      "outputs": [],
      "stateMutability": "nonpayable",
      "type": "function"
    },
    {
      "inputs": [
        {
          "internalType": "uint256",
          "name": "_offerId",
          "type": "uint256"
        }
      ],
      "name": "acceptOfferWithETH",
      "outputs": [],
      "stateMutability": "payable",
      "type": "function",
      "payable": true
    },
    {
      "inputs": [
        {
          "internalType": "uint256",
          "name": "_offerId",
          "type": "uint256"
        }
      ],
      "name": "acceptOfferWithVEXT",
      "outputs": [],
      "stateMutability": "nonpayable",
      "type": "function"
    }
  ],
  "bytecode": "0x60806040523480156200001157600080fd5b506040516200513c3803806200513c83398181016040528101906200003791906200023a565b620000576200004b6200015760201b60201c565b6200015f60201b60201c565b600073ffffffffffffffffffffffffffffffffffffffff168273ffffffffffffffffffffffffffffffffffffffff1614156200009257600080fd5b600073ffffffffffffffffffffffffffffffffffffffff168173ffffffffffffffffffffffffffffffffffffffff161415620000cd57600080fd5b81600d60006101000a81548173ffffffffffffffffffffffffffffffffffffffff021916908373ffffffffffffffffffffffffffffffffffffffff16021790555080600b60006101000a81548173ffffffffffffffffffffffffffffffffffffffff021916908373ffffffffffffffffffffffffffffffffffffffff1602179055505050620002d4565b600033905090565b60008060009054906101000a900473ffffffffffffffffffffffffffffffffffffffff169050816000806101000a81548173ffffffffffffffffffffffffffffffffffffffff021916908373ffffffffffffffffffffffffffffffffffffffff1602179055508173ffffffffffffffffffffffffffffffffffffffff168173ffffffffffffffffffffffffffffffffffffffff167f8be0079c531659141344cd1fd0a4f28419497f9722a3daafe3b4186f6b6457e060405160405180910390a35050565b6000815190506200023481620002ba565b92915050565b60008060408385031215620002545762000253620002b5565b5b6000620002648582860162000223565b9250506020620002778582860162000223565b9150509250929050565b60006200028e8262000295565b9050919050565b600073ffffffffffffffffffffffffffffffffffffffff82169050919050565b600080fd5b620002c58162000281565b8114620002d157600080fd5b50565b614e5880620002e46000396000f3fe60806040526004361061014f5760003560e01c80639cbccc2c116100b6578063dd42c3b31161006f578063dd42c3b31461047a578063ec186db314610496578063ef706adf146104b2578063f1b2d6a3146104db578063f2f57e9514610506578063f2fde38b1461053157610156565b80639cbccc2c14610376578063ac0b27c21461039f578063aec99da2146103bb578063af62c684146103e4578063bddb06f314610421578063d382335a1461043d57610156565b806348c981e21161010857806348c981e214610285578063715018a6146102a15780638322fff2146102b85780638ad2d5a7146102e35780638da5cb5b146103205780639a7012881461034b57610156565b806312065fe01461015857806313b2361e14610183578063273e287e146101c0578063365b98b2146101dc5780633eaf56b01461021d5780633ee992ee1461025a57610156565b3661015657005b005b34801561016457600080fd5b5061016d61055a565b60405161017a91906148b8565b60405180910390f35b34801561018f57600080fd5b506101aa60048036038101906101a59190613f70565b610562565b6040516101b7919061487a565b60405180910390f35b6101da60048036038101906101d59190613f70565b610669565b005b3480156101e857600080fd5b5061020360048036038101906101fe9190613f70565b61071d565b6040516102149594939291906146dc565b60405180910390f35b34801561022957600080fd5b50610244600480360381019061023f9190613f70565b6109a3565b6040516102519190614896565b60405180910390f35b34801561026657600080fd5b5061026f610b81565b60405161027c91906147b8565b60405180910390f35b61029f600480360381019061029a9190613e51565b610bd9565b005b3480156102ad57600080fd5b506102b6610c8c565b005b3480156102c457600080fd5b506102cd610d14565b6040516102da919061468a565b60405180910390f35b3480156102ef57600080fd5b5061030a60048036038101906103059190613f70565b610d3a565b604051610317919061468a565b60405180910390f35b34801561032c57600080fd5b50610335610dee565b604051610342919061468a565b60405180910390f35b34801561035757600080fd5b50610360610e17565b60405161036d919061468a565b60405180910390f35b34801561038257600080fd5b5061039d60048036038101906103989190613e7e565b610e3d565b005b6103b960048036038101906103b49190613f70565b611206565b005b3480156103c757600080fd5b506103e260048036038101906103dd9190613f70565b6115dd565b005b3480156103f057600080fd5b5061040b60048036038101906104069190613df7565b611b22565b6040516104189190614774565b60405180910390f35b61043b60048036038101906104369190613f70565b611c9a565b005b34801561044957600080fd5b50610464600480360381019061045f9190613df7565b61238a565b6040516104719190614796565b60405180910390f35b610494600480360381019061048f9190613fca565b6125d9565b005b6104b060048036038101906104ab9190613f70565b612942565b005b3480156104be57600080fd5b506104d960048036038101906104d49190613f70565b612b92565b005b3480156104e757600080fd5b506104f06133f4565b6040516104fd91906147b8565b60405180910390f35b34801561051257600080fd5b5061051b61344c565b604051610528919061468a565b60405180910390f35b34801561053d57600080fd5b5061055860048036038101906105539190613df7565b613472565b005b600047905090565b61056a61365a565b600760008381526020019081526020016000206040518061012001604052908160008201548152602001600182015481526020016002820160009054906101000a900473ffffffffffffffffffffffffffffffffffffffff1673ffffffffffffffffffffffffffffffffffffffff1673ffffffffffffffffffffffffffffffffffffffff168152602001600382015481526020016004820160009054906101000a900460ff1615151515815260200160058201548152602001600682015481526020016007820160009054906101000a900460ff161515151581526020016007820160019054906101000a900460ff1615151515815250509050919050565b60006006600083815260200190815260200160002090503373ffffffffffffffffffffffffffffffffffffffff168160050160009054906101000a900473ffffffffffffffffffffffffffffffffffffffff1673ffffffffffffffffffffffffffffffffffffffff1614156106dd57600080fd5b60008160060160009054906101000a900473ffffffffffffffffffffffffffffffffffffffff16905061070f81610bd9565b61071883612b92565b505050565b600a818154811061072d57600080fd5b90600052602060002090600802016000915090508060000160009054906101000a900473ffffffffffffffffffffffffffffffffffffffff169080600101805461077690614ac8565b80601f01602080910402602001604051908101604052809291908181526020018280546107a290614ac8565b80156107ef5780601f106107c4576101008083540402835291602001916107ef565b820191906000526020600020905b8154815290600101906020018083116107d257829003601f168201915b50505050509080600201805461080490614ac8565b80601f016020809104026020016040519081016040528092919081815260200182805461083090614ac8565b801561087d5780601f106108525761010080835404028352916020019161087d565b820191906000526020600020905b81548152906001019060200180831161086057829003601f168201915b50505050509080600301805461089290614ac8565b80601f01602080910402602001604051908101604052809291908181526020018280546108be90614ac8565b801561090b5780601f106108e05761010080835404028352916020019161090b565b820191906000526020600020905b8154815290600101906020018083116108ee57829003601f168201915b50505050509080600401805461092090614ac8565b80601f016020809104026020016040519081016040528092919081815260200182805461094c90614ac8565b80156109995780601f1061096e57610100808354040283529160200191610999565b820191906000526020600020905b81548152906001019060200180831161097c57829003601f168201915b5050505050905085565b6109ab6136c2565b60066000838152602001908152602001600020604051806101200160405290816000820154815260200160018201805480602002602001604051908101604052809291908181526020018280548015610a2357602002820191906000526020600020905b815481526020019060010190808311610a0f575b505050505081526020016002820154815260200160038201805480602002602001604051908101604052809291908181526020018280548015610a8557602002820191906000526020600020905b815481526020019060010190808311610a71575b50505050508152602001600482015481526020016005820160009054906101000a900473ffffffffffffffffffffffffffffffffffffffff1673ffffffffffffffffffffffffffffffffffffffff1673ffffffffffffffffffffffffffffffffffffffff1681526020016006820160009054906101000a900473ffffffffffffffffffffffffffffffffffffffff1673ffffffffffffffffffffffffffffffffffffffff1673ffffffffffffffffffffffffffffffffffffffff1681526020016006820160149054906101000a900460ff161515151581526020016006820160159054906101000a900460ff1615151515815250509050919050565b60606009805480602002602001604051908101604052809291908181526020018280548015610bcf57602002820191906000526020600020905b815481526020019060010190808311610bbb575b5050505050905090565b6000808273ffffffffffffffffffffffffffffffffffffffff1634604051610c0090614675565b60006040518083038185875af1925050503d8060008114610c3d576040519150601f19603f3d011682016040523d82523d6000602084013e610c42565b606091505b509150915081610c87576040517f08c379a0000000000000000000000000000000000000000000000000000000008152600401610c7e9061481a565b60405180910390fd5b505050565b610c9461356a565b73ffffffffffffffffffffffffffffffffffffffff16610cb2610dee565b73ffffffffffffffffffffffffffffffffffffffff1614610d08576040517f08c379a0000000000000000000000000000000000000000000000000000000008152600401610cff9061483a565b60405180910390fd5b610d126000613572565b565b600c60009054906101000a900473ffffffffffffffffffffffffffffffffffffffff1681565b6000600b60009054906101000a900473ffffffffffffffffffffffffffffffffffffffff1673ffffffffffffffffffffffffffffffffffffffff16636352211e836040518263ffffffff1660e01b8152600401610d9791906148b8565b60206040518083038186803b158015610daf57600080fd5b505afa158015610dc3573d6000803e3d6000fd5b505050506040513d601f19601f82011682018060405250810190610de79190613e24565b9050919050565b60008060009054906101000a900473ffffffffffffffffffffffffffffffffffffffff16905090565b600b60009054906101000a900473ffffffffffffffffffffffffffffffffffffffff1681565b3373ffffffffffffffffffffffffffffffffffffffff168673ffffffffffffffffffffffffffffffffffffffff161415610e7657600080fd5b610e806002613636565b6000610e8c600261364c565b905060006040518061012001604052808381526020018881526020018781526020018681526020018581526020018973ffffffffffffffffffffffffffffffffffffffff1681526020013373ffffffffffffffffffffffffffffffffffffffff1681526020018415158152602001600115158152509050600560008973ffffffffffffffffffffffffffffffffffffffff1673ffffffffffffffffffffffffffffffffffffffff168152602001908152602001600020819080600181540180825580915050600190039060005260206000209060070201600090919091909150600082015181600001556020820151816001019080519060200190610f9292919061373e565b50604082015181600201556060820151816003019080519060200190610fb992919061373e565b506080820151816004015560a08201518160050160006101000a81548173ffffffffffffffffffffffffffffffffffffffff021916908373ffffffffffffffffffffffffffffffffffffffff16021790555060c08201518160060160006101000a81548173ffffffffffffffffffffffffffffffffffffffff021916908373ffffffffffffffffffffffffffffffffffffffff16021790555060e08201518160060160146101000a81548160ff0219169083151502179055506101008201518160060160156101000a81548160ff021916908315150217905550505080600660008481526020019081526020016000206000820151816000015560208201518160010190805190602001906110cf92919061373e565b506040820151816002015560608201518160030190805190602001906110f692919061373e565b506080820151816004015560a08201518160050160006101000a81548173ffffffffffffffffffffffffffffffffffffffff021916908373ffffffffffffffffffffffffffffffffffffffff16021790555060c08201518160060160006101000a81548173ffffffffffffffffffffffffffffffffffffffff021916908373ffffffffffffffffffffffffffffffffffffffff16021790555060e08201518160060160146101000a81548160ff0219169083151502179055506101008201518160060160156101000a81548160ff02191690831515021790555090505060098290806001815401808255809150506001900390600052602060002001600090919091909150555050505050505050565b6000600760008381526020019081526020016000206040518061012001604052908160008201548152602001600182015481526020016002820160009054906101000a900473ffffffffffffffffffffffffffffffffffffffff1673ffffffffffffffffffffffffffffffffffffffff1673ffffffffffffffffffffffffffffffffffffffff168152602001600382015481526020016004820160009054906101000a900460ff1615151515815260200160058201548152602001600682015481526020016007820160009054906101000a900460ff161515151581526020016007820160019054906101000a900460ff16151515158152505090508060600151600d60009054906101000a900473ffffffffffffffffffffffffffffffffffffffff1673ffffffffffffffffffffffffffffffffffffffff166370a08231336040518263ffffffff1660e01b8152600401611362919061468a565b60206040518083038186803b15801561137a57600080fd5b505afa15801561138e573d6000803e3d6000fd5b505050506040513d601f19601f820116820180604052508101906113b29190613f9d565b10156113f3576040517f08c379a00000000000000000000000000000000000000000000000000000000081526004016113ea9061485a565b60405180910390fd5b600d60009054906101000a900473ffffffffffffffffffffffffffffffffffffffff1673ffffffffffffffffffffffffffffffffffffffff166323b872dd33836040015184606001516040518463ffffffff1660e01b815260040161145a939291906146a5565b602060405180830381600087803b15801561147457600080fd5b505af1158015611488573d6000803e3d6000fd5b505050506040513d601f19601f820116820180604052508101906114ac9190613f43565b50600b60009054906101000a900473ffffffffffffffffffffffffffffffffffffffff1673ffffffffffffffffffffffffffffffffffffffff1663095ea7b33383602001516040518363ffffffff1660e01b815260040161150e92919061474b565b600060405180830381600087803b15801561152857600080fd5b505af115801561153c573d6000803e3d6000fd5b50505050600b60009054906101000a900473ffffffffffffffffffffffffffffffffffffffff1673ffffffffffffffffffffffffffffffffffffffff166342842e0e82604001513384602001516040518463ffffffff1660e01b81526004016115a7939291906146a5565b600060405180830381600087803b1580156115c157600080fd5b505af11580156115d5573d6000803e3d6000fd5b505050505050565b6000600660008381526020019081526020016000209050600d60009054906101000a900473ffffffffffffffffffffffffffffffffffffffff1673ffffffffffffffffffffffffffffffffffffffff166323b872dd8260060160009054906101000a900473ffffffffffffffffffffffffffffffffffffffff163384600401546040518463ffffffff1660e01b815260040161167b939291906146a5565b602060405180830381600087803b15801561169557600080fd5b505af11580156116a9573d6000803e3d6000fd5b505050506040513d601f19601f820116820180604052508101906116cd9190613f43565b50600d60009054906101000a900473ffffffffffffffffffffffffffffffffffffffff1673ffffffffffffffffffffffffffffffffffffffff1663a9059cbb8260060160009054906101000a900473ffffffffffffffffffffffffffffffffffffffff1683600201546040518363ffffffff1660e01b815260040161175392919061474b565b602060405180830381600087803b15801561176d57600080fd5b505af1158015611781573d6000803e3d6000fd5b505050506040513d601f19601f820116820180604052508101906117a59190613f43565b5060005b816001018054905081101561194f57600b60009054906101000a900473ffffffffffffffffffffffffffffffffffffffff1673ffffffffffffffffffffffffffffffffffffffff1663095ea7b33384600301848154811061180d5761180c614c01565b5b90600052602060002001546040518363ffffffff1660e01b815260040161183592919061474b565b600060405180830381600087803b15801561184f57600080fd5b505af1158015611863573d6000803e3d6000fd5b50505050600b60009054906101000a900473ffffffffffffffffffffffffffffffffffffffff1673ffffffffffffffffffffffffffffffffffffffff166342842e0e8360060160009054906101000a900473ffffffffffffffffffffffffffffffffffffffff16338560010185815481106118e1576118e0614c01565b5b90600052602060002001546040518463ffffffff1660e01b815260040161190a939291906146a5565b600060405180830381600087803b15801561192457600080fd5b505af1158015611938573d6000803e3d6000fd5b50505050808061194790614b2b565b9150506117a9565b5060005b8160030180549050811015611b1d57600b60009054906101000a900473ffffffffffffffffffffffffffffffffffffffff1673ffffffffffffffffffffffffffffffffffffffff1663095ea7b3338460030184815481106119b7576119b6614c01565b5b90600052602060002001546040518363ffffffff1660e01b81526004016119df92919061474b565b600060405180830381600087803b1580156119f957600080fd5b505af1158015611a0d573d6000803e3d6000fd5b50505050600b60009054906101000a900473ffffffffffffffffffffffffffffffffffffffff1673ffffffffffffffffffffffffffffffffffffffff166342842e0e8360050160009054906101000a900473ffffffffffffffffffffffffffffffffffffffff168460060160009054906101000a900473ffffffffffffffffffffffffffffffffffffffff16856003018581548110611aaf57611aae614c01565b5b90600052602060002001546040518463ffffffff1660e01b8152600401611ad8939291906146a5565b600060405180830381600087803b158015611af257600080fd5b505af1158015611b06573d6000803e3d6000fd5b505050508080611b1590614b2b565b915050611953565b505050565b6060600460008373ffffffffffffffffffffffffffffffffffffffff1673ffffffffffffffffffffffffffffffffffffffff168152602001908152602001600020805480602002602001604051908101604052809291908181526020016000905b82821015611c8f57838290600052602060002090600802016040518061012001604052908160008201548152602001600182015481526020016002820160009054906101000a900473ffffffffffffffffffffffffffffffffffffffff1673ffffffffffffffffffffffffffffffffffffffff1673ffffffffffffffffffffffffffffffffffffffff168152602001600382015481526020016004820160009054906101000a900460ff1615151515815260200160058201548152602001600682015481526020016007820160009054906101000a900460ff161515151581526020016007820160019054906101000a900460ff16151515158152505081526020019060010190611b83565b505050509050919050565b6000600760008381526020019081526020016000206040518061012001604052908160008201548152602001600182015481526020016002820160009054906101000a900473ffffffffffffffffffffffffffffffffffffffff1673ffffffffffffffffffffffffffffffffffffffff1673ffffffffffffffffffffffffffffffffffffffff168152602001600382015481526020016004820160009054906101000a900460ff1615151515815260200160058201548152602001600682015481526020016007820160009054906101000a900460ff161515151581526020016007820160019054906101000a900460ff16151515158152505090503373ffffffffffffffffffffffffffffffffffffffff16816040015173ffffffffffffffffffffffffffffffffffffffff1614611dd257600080fd5b6000600460003373ffffffffffffffffffffffffffffffffffffffff1673ffffffffffffffffffffffffffffffffffffffff168152602001908152602001600020905060005b818054905081101561220f576000828281548110611e3957611e38614c01565b5b90600052602060002090600802016040518061012001604052908160008201548152602001600182015481526020016002820160009054906101000a900473ffffffffffffffffffffffffffffffffffffffff1673ffffffffffffffffffffffffffffffffffffffff1673ffffffffffffffffffffffffffffffffffffffff168152602001600382015481526020016004820160009054906101000a900460ff1615151515815260200160058201548152602001600682015481526020016007820160009054906101000a900460ff161515151581526020016007820160019054906101000a900460ff16151515158152505090508360000151816000015114156121fb578260018480549050611f509190614a07565b81548110611f6157611f60614c01565b5b9060005260206000209060080201838381548110611f8257611f81614c01565b5b906000526020600020906008020160008201548160000155600182015481600101556002820160009054906101000a900473ffffffffffffffffffffffffffffffffffffffff168160020160006101000a81548173ffffffffffffffffffffffffffffffffffffffff021916908373ffffffffffffffffffffffffffffffffffffffff160217905550600382015481600301556004820160009054906101000a900460ff168160040160006101000a81548160ff02191690831515021790555060058201548160050155600682015481600601556007820160009054906101000a900460ff168160070160006101000a81548160ff0219169083151502179055506007820160019054906101000a900460ff168160070160016101000a81548160ff02191690831515021790555090505082600460003373ffffffffffffffffffffffffffffffffffffffff1673ffffffffffffffffffffffffffffffffffffffff16815260200190815260200160002090805461210192919061378b565b50600460003373ffffffffffffffffffffffffffffffffffffffff1673ffffffffffffffffffffffffffffffffffffffff16815260200190815260200160002080548061215157612150614bd2565b5b600190038181906000526020600020906008020160008082016000905560018201600090556002820160006101000a81549073ffffffffffffffffffffffffffffffffffffffff021916905560038201600090556004820160006101000a81549060ff0219169055600582016000905560068201600090556007820160006101000a81549060ff02191690556007820160016101000a81549060ff0219169055505090555061220f565b50808061220790614b2b565b915050611e18565b5060005b6008805490508110156122e35760006008828154811061223657612235614c01565b5b9060005260206000200154905083600001518114156122cf57600860016008805490506122639190614a07565b8154811061227457612273614c01565b5b90600052602060002001546008838154811061229357612292614c01565b5b906000526020600020018190555060088054806122b3576122b2614bd2565b5b60019003818190600052602060002001600090559055506122e3565b5080806122db90614b2b565b915050612213565b506007600084815260200190815260200160002060008082016000905560018201600090556002820160006101000a81549073ffffffffffffffffffffffffffffffffffffffff021916905560038201600090556004820160006101000a81549060ff0219169055600582016000905560068201600090556007820160006101000a81549060ff02191690556007820160016101000a81549060ff02191690555050505050565b6060600560008373ffffffffffffffffffffffffffffffffffffffff1673ffffffffffffffffffffffffffffffffffffffff168152602001908152602001600020805480602002602001604051908101604052809291908181526020016000905b828210156125ce578382906000526020600020906007020160405180610120016040529081600082015481526020016001820180548060200260200160405190810160405280929190818152602001828054801561246857602002820191906000526020600020905b815481526020019060010190808311612454575b5050505050815260200160028201548152602001600382018054806020026020016040519081016040528092919081815260200182805480156124ca57602002820191906000526020600020905b8154815260200190600101908083116124b6575b50505050508152602001600482015481526020016005820160009054906101000a900473ffffffffffffffffffffffffffffffffffffffff1673ffffffffffffffffffffffffffffffffffffffff1673ffffffffffffffffffffffffffffffffffffffff1681526020016006820160009054906101000a900473ffffffffffffffffffffffffffffffffffffffff1673ffffffffffffffffffffffffffffffffffffffff1673ffffffffffffffffffffffffffffffffffffffff1681526020016006820160149054906101000a900460ff161515151581526020016006820160159054906101000a900460ff161515151581525050815260200190600101906123eb565b505050509050919050565b3373ffffffffffffffffffffffffffffffffffffffff166125f986610d3a565b73ffffffffffffffffffffffffffffffffffffffff161461261957600080fd5b6126236001613636565b600061262f600161364c565b905061263961365a565b818160000181815250508681602001818152505033816040019073ffffffffffffffffffffffffffffffffffffffff16908173ffffffffffffffffffffffffffffffffffffffff1681525050858160600181815250506000816080019015159081151581525050848160a0018181525050838160c001818152505060008160e00190151590811515815250508281610100019015159081151581525050600460003373ffffffffffffffffffffffffffffffffffffffff1673ffffffffffffffffffffffffffffffffffffffff168152602001908152602001600020819080600181540180825580915050600190039060005260206000209060080201600090919091909150600082015181600001556020820151816001015560408201518160020160006101000a81548173ffffffffffffffffffffffffffffffffffffffff021916908373ffffffffffffffffffffffffffffffffffffffff1602179055506060820151816003015560808201518160040160006101000a81548160ff02191690831515021790555060a0820151816005015560c0820151816006015560e08201518160070160006101000a81548160ff0219169083151502179055506101008201518160070160016101000a81548160ff02191690831515021790555050508060076000848152602001908152602001600020600082015181600001556020820151816001015560408201518160020160006101000a81548173ffffffffffffffffffffffffffffffffffffffff021916908373ffffffffffffffffffffffffffffffffffffffff1602179055506060820151816003015560808201518160040160006101000a81548160ff02191690831515021790555060a0820151816005015560c0820151816006015560e08201518160070160006101000a81548160ff0219169083151502179055506101008201518160070160016101000a81548160ff02191690831515021790555090505060088160000151908060018154018082558091505060019003906000526020600020016000909190919091505550505050505050565b6000600760008381526020019081526020016000206040518061012001604052908160008201548152602001600182015481526020016002820160009054906101000a900473ffffffffffffffffffffffffffffffffffffffff1673ffffffffffffffffffffffffffffffffffffffff1673ffffffffffffffffffffffffffffffffffffffff168152602001600382015481526020016004820160009054906101000a900460ff1615151515815260200160058201548152602001600682015481526020016007820160009054906101000a900460ff161515151581526020016007820160019054906101000a900460ff161515151581525050905080606001513373ffffffffffffffffffffffffffffffffffffffff16311015612a9c576040517f08c379a0000000000000000000000000000000000000000000000000000000008152600401612a939061485a565b60405180910390fd5b60008160400151905081606001513414612aeb576040517f08c379a0000000000000000000000000000000000000000000000000000000008152600401612ae2906147da565b60405180910390fd5b612af481610bd9565b600b60009054906101000a900473ffffffffffffffffffffffffffffffffffffffff1673ffffffffffffffffffffffffffffffffffffffff166342842e0e83604001513385602001516040518463ffffffff1660e01b8152600401612b5b939291906146a5565b600060405180830381600087803b158015612b7557600080fd5b505af1158015612b89573d6000803e3d6000fd5b50505050505050565b60006006600083815260200190815260200160002090503373ffffffffffffffffffffffffffffffffffffffff168160060160009054906101000a900473ffffffffffffffffffffffffffffffffffffffff1673ffffffffffffffffffffffffffffffffffffffff161480612c5657503373ffffffffffffffffffffffffffffffffffffffff168160050160009054906101000a900473ffffffffffffffffffffffffffffffffffffffff1673ffffffffffffffffffffffffffffffffffffffff16145b612c5f57600080fd5b6000600560008360050160009054906101000a900473ffffffffffffffffffffffffffffffffffffffff1673ffffffffffffffffffffffffffffffffffffffff1673ffffffffffffffffffffffffffffffffffffffff168152602001908152602001600020905060005b8180549050811015613256576000828281548110612cea57612ce9614c01565b5b9060005260206000209060070201604051806101200160405290816000820154815260200160018201805480602002602001604051908101604052809291908181526020018280548015612d5d57602002820191906000526020600020905b815481526020019060010190808311612d49575b505050505081526020016002820154815260200160038201805480602002602001604051908101604052809291908181526020018280548015612dbf57602002820191906000526020600020905b815481526020019060010190808311612dab575b50505050508152602001600482015481526020016005820160009054906101000a900473ffffffffffffffffffffffffffffffffffffffff1673ffffffffffffffffffffffffffffffffffffffff1673ffffffffffffffffffffffffffffffffffffffff1681526020016006820160009054906101000a900473ffffffffffffffffffffffffffffffffffffffff1673ffffffffffffffffffffffffffffffffffffffff1673ffffffffffffffffffffffffffffffffffffffff1681526020016006820160149054906101000a900460ff161515151581526020016006820160159054906101000a900460ff1615151515815250509050836000015481600001511415613242578260018480549050612ed89190614a07565b81548110612ee957612ee8614c01565b5b9060005260206000209060070201838381548110612f0a57612f09614c01565b5b9060005260206000209060070201600082015481600001556001820181600101908054612f38929190613903565b50600282015481600201556003820181600301908054612f59929190613903565b50600482015481600401556005820160009054906101000a900473ffffffffffffffffffffffffffffffffffffffff168160050160006101000a81548173ffffffffffffffffffffffffffffffffffffffff021916908373ffffffffffffffffffffffffffffffffffffffff1602179055506006820160009054906101000a900473ffffffffffffffffffffffffffffffffffffffff168160060160006101000a81548173ffffffffffffffffffffffffffffffffffffffff021916908373ffffffffffffffffffffffffffffffffffffffff1602179055506006820160149054906101000a900460ff168160060160146101000a81548160ff0219169083151502179055506006820160159054906101000a900460ff168160060160156101000a81548160ff02191690831515021790555090505082600560008660050160009054906101000a900473ffffffffffffffffffffffffffffffffffffffff1673ffffffffffffffffffffffffffffffffffffffff1673ffffffffffffffffffffffffffffffffffffffff168152602001908152602001600020908054613101929190613955565b50600560008560050160009054906101000a900473ffffffffffffffffffffffffffffffffffffffff1673ffffffffffffffffffffffffffffffffffffffff1673ffffffffffffffffffffffffffffffffffffffff16815260200190815260200160002080548061317557613174614bd2565b5b60019003818190600052602060002090600702016000808201600090556001820160006131a29190613b21565b60028201600090556003820160006131ba9190613b21565b60048201600090556005820160006101000a81549073ffffffffffffffffffffffffffffffffffffffff02191690556006820160006101000a81549073ffffffffffffffffffffffffffffffffffffffff02191690556006820160146101000a81549060ff02191690556006820160156101000a81549060ff02191690555050905550613256565b50808061324e90614b2b565b915050612cc9565b5060005b60098054905081101561332a5760006009828154811061327d5761327c614c01565b5b90600052602060002001549050836000015481141561331657600960016009805490506132aa9190614a07565b815481106132bb576132ba614c01565b5b9060005260206000200154600983815481106132da576132d9614c01565b5b906000526020600020018190555060098054806132fa576132f9614bd2565b5b600190038181906000526020600020016000905590555061332a565b50808061332290614b2b565b91505061325a565b50600660008481526020019081526020016000206000808201600090556001820160006133579190613b21565b600282016000905560038201600061336f9190613b21565b60048201600090556005820160006101000a81549073ffffffffffffffffffffffffffffffffffffffff02191690556006820160006101000a81549073ffffffffffffffffffffffffffffffffffffffff02191690556006820160146101000a81549060ff02191690556006820160156101000a81549060ff02191690555050505050565b6060600880548060200260200160405190810160405280929190818152602001828054801561344257602002820191906000526020600020905b81548152602001906001019080831161342e575b5050505050905090565b600d60009054906101000a900473ffffffffffffffffffffffffffffffffffffffff1681565b61347a61356a565b73ffffffffffffffffffffffffffffffffffffffff16613498610dee565b73ffffffffffffffffffffffffffffffffffffffff16146134ee576040517f08c379a00000000000000000000000000000000000000000000000000000000081526004016134e59061483a565b60405180910390fd5b600073ffffffffffffffffffffffffffffffffffffffff168173ffffffffffffffffffffffffffffffffffffffff16141561355e576040517f08c379a0000000000000000000000000000000000000000000000000000000008152600401613555906147fa565b60405180910390fd5b61356781613572565b50565b600033905090565b60008060009054906101000a900473ffffffffffffffffffffffffffffffffffffffff169050816000806101000a81548173ffffffffffffffffffffffffffffffffffffffff021916908373ffffffffffffffffffffffffffffffffffffffff1602179055508173ffffffffffffffffffffffffffffffffffffffff168173ffffffffffffffffffffffffffffffffffffffff167f8be0079c531659141344cd1fd0a4f28419497f9722a3daafe3b4186f6b6457e060405160405180910390a35050565b6001816000016000828254019250508190555050565b600081600001549050919050565b6040518061012001604052806000815260200160008152602001600073ffffffffffffffffffffffffffffffffffffffff1681526020016000815260200160001515815260200160008152602001600081526020016000151581526020016000151581525090565b6040518061012001604052806000815260200160608152602001600081526020016060815260200160008152602001600073ffffffffffffffffffffffffffffffffffffffff168152602001600073ffffffffffffffffffffffffffffffffffffffff1681526020016000151581526020016000151581525090565b82805482825590600052602060002090810192821561377a579160200282015b8281111561377957825182559160200191906001019061375e565b5b5090506137879190613b42565b5090565b8280548282559060005260206000209060080281019282156138f25760005260206000209160080282015b828111156138f157828260008201548160000155600182015481600101556002820160009054906101000a900473ffffffffffffffffffffffffffffffffffffffff168160020160006101000a81548173ffffffffffffffffffffffffffffffffffffffff021916908373ffffffffffffffffffffffffffffffffffffffff160217905550600382015481600301556004820160009054906101000a900460ff168160040160006101000a81548160ff02191690831515021790555060058201548160050155600682015481600601556007820160009054906101000a900460ff168160070160006101000a81548160ff0219169083151502179055506007820160019054906101000a900460ff168160070160016101000a81548160ff0219169083151502179055505050916008019190600801906137b6565b5b5090506138ff9190613b5f565b5090565b8280548282559060005260206000209081019282156139445760005260206000209182015b82811115613943578254825591600101919060010190613928565b5b5090506139519190613b42565b5090565b828054828255906000526020600020906007028101928215613b105760005260206000209160070282015b82811115613b0f5782826000820154816000015560018201816001019080546139aa929190613903565b506002820154816002015560038201816003019080546139cb929190613903565b50600482015481600401556005820160009054906101000a900473ffffffffffffffffffffffffffffffffffffffff168160050160006101000a81548173ffffffffffffffffffffffffffffffffffffffff021916908373ffffffffffffffffffffffffffffffffffffffff1602179055506006820160009054906101000a900473ffffffffffffffffffffffffffffffffffffffff168160060160006101000a81548173ffffffffffffffffffffffffffffffffffffffff021916908373ffffffffffffffffffffffffffffffffffffffff1602179055506006820160149054906101000a900460ff168160060160146101000a81548160ff0219169083151502179055506006820160159054906101000a900460ff168160060160156101000a81548160ff021916908315150217905550505091600701919060070190613980565b5b509050613b1d9190613c01565b5090565b5080546000825590600052602060002090810190613b3f9190613b42565b50565b5b80821115613b5b576000816000905550600101613b43565b5090565b5b80821115613bfd5760008082016000905560018201600090556002820160006101000a81549073ffffffffffffffffffffffffffffffffffffffff021916905560038201600090556004820160006101000a81549060ff0219169055600582016000905560068201600090556007820160006101000a81549060ff02191690556007820160016101000a81549060ff021916905550600801613b60565b5090565b5b80821115613cc257600080820160009055600182016000613c239190613b21565b6002820160009055600382016000613c3b9190613b21565b60048201600090556005820160006101000a81549073ffffffffffffffffffffffffffffffffffffffff02191690556006820160006101000a81549073ffffffffffffffffffffffffffffffffffffffff02191690556006820160146101000a81549060ff02191690556006820160156101000a81549060ff021916905550600701613c02565b5090565b6000613cd9613cd4846148f8565b6148d3565b90508083825260208201905082856020860282011115613cfc57613cfb614c64565b5b60005b85811015613d2c5781613d128882613dcd565b845260208401935060208301925050600181019050613cff565b5050509392505050565b600081359050613d4581614dc6565b92915050565b600081519050613d5a81614dc6565b92915050565b600081359050613d6f81614ddd565b92915050565b600082601f830112613d8a57613d89614c5f565b5b8135613d9a848260208601613cc6565b91505092915050565b600081359050613db281614df4565b92915050565b600081519050613dc781614df4565b92915050565b600081359050613ddc81614e0b565b92915050565b600081519050613df181614e0b565b92915050565b600060208284031215613e0d57613e0c614c6e565b5b6000613e1b84828501613d36565b91505092915050565b600060208284031215613e3a57613e39614c6e565b5b6000613e4884828501613d4b565b91505092915050565b600060208284031215613e6757613e66614c6e565b5b6000613e7584828501613d60565b91505092915050565b60008060008060008060c08789031215613e9b57613e9a614c6e565b5b6000613ea989828a01613d36565b965050602087013567ffffffffffffffff811115613eca57613ec9614c69565b5b613ed689828a01613d75565b9550506040613ee789828a01613dcd565b945050606087013567ffffffffffffffff811115613f0857613f07614c69565b5b613f1489828a01613d75565b9350506080613f2589828a01613dcd565b92505060a0613f3689828a01613da3565b9150509295509295509295565b600060208284031215613f5957613f58614c6e565b5b6000613f6784828501613db8565b91505092915050565b600060208284031215613f8657613f85614c6e565b5b6000613f9484828501613dcd565b91505092915050565b600060208284031215613fb357613fb2614c6e565b5b6000613fc184828501613de2565b91505092915050565b600080600080600060a08688031215613fe657613fe5614c6e565b5b6000613ff488828901613dcd565b955050602061400588828901613dcd565b945050604061401688828901613dcd565b935050606061402788828901613dcd565b925050608061403888828901613da3565b9150509295509295909350565b60006140518383614351565b6101208301905092915050565b600061406a83836144bf565b905092915050565b600061407e8383614657565b60208301905092915050565b61409381614a3b565b82525050565b6140a281614a3b565b82525050565b60006140b382614954565b6140bd81856149a7565b93506140c883614924565b8060005b838110156140f95781516140e08882614045565b97506140eb83614980565b9250506001810190506140cc565b5085935050505092915050565b60006141118261495f565b61411b81856149b8565b93508360208202850161412d85614934565b8060005b85811015614169578484038952815161414a858261405e565b94506141558361498d565b925060208a01995050600181019050614131565b50829750879550505050505092915050565b60006141868261496a565b61419081856149c9565b935061419b83614944565b8060005b838110156141cc5781516141b38882614072565b97506141be8361499a565b92505060018101905061419f565b5085935050505092915050565b60006141e48261496a565b6141ee81856149da565b93506141f983614944565b8060005b8381101561422a5781516142118882614072565b975061421c8361499a565b9250506001810190506141fd565b5085935050505092915050565b61424081614a5f565b82525050565b600061425182614975565b61425b81856149f6565b935061426b818560208601614a95565b61427481614c73565b840191505092915050565b600061428c6033836149f6565b915061429782614c84565b604082019050919050565b60006142af6026836149f6565b91506142ba82614cd3565b604082019050919050565b60006142d26014836149f6565b91506142dd82614d22565b602082019050919050565b60006142f56020836149f6565b915061430082614d4b565b602082019050919050565b60006143186000836149eb565b915061432382614d74565b600082019050919050565b600061433b6033836149f6565b915061434682614d77565b604082019050919050565b610120820160008201516143686000850182614657565b50602082015161437b6020850182614657565b50604082015161438e604085018261408a565b5060608201516143a16060850182614657565b5060808201516143b46080850182614237565b5060a08201516143c760a0850182614657565b5060c08201516143da60c0850182614657565b5060e08201516143ed60e0850182614237565b50610100820151614402610100850182614237565b50505050565b6101208201600082015161441f6000850182614657565b5060208201516144326020850182614657565b506040820151614445604085018261408a565b5060608201516144586060850182614657565b50608082015161446b6080850182614237565b5060a082015161447e60a0850182614657565b5060c082015161449160c0850182614657565b5060e08201516144a460e0850182614237565b506101008201516144b9610100850182614237565b50505050565b6000610120830160008301516144d86000860182614657565b50602083015184820360208601526144f0828261417b565b91505060408301516145056040860182614657565b506060830151848203606086015261451d828261417b565b91505060808301516145326080860182614657565b5060a083015161454560a086018261408a565b5060c083015161455860c086018261408a565b5060e083015161456b60e0860182614237565b50610100830151614580610100860182614237565b508091505092915050565b6000610120830160008301516145a46000860182614657565b50602083015184820360208601526145bc828261417b565b91505060408301516145d16040860182614657565b50606083015184820360608601526145e9828261417b565b91505060808301516145fe6080860182614657565b5060a083015161461160a086018261408a565b5060c083015161462460c086018261408a565b5060e083015161463760e0860182614237565b5061010083015161464c610100860182614237565b508091505092915050565b61466081614a8b565b82525050565b61466f81614a8b565b82525050565b60006146808261430b565b9150819050919050565b600060208201905061469f6000830184614099565b92915050565b60006060820190506146ba6000830186614099565b6146c76020830185614099565b6146d46040830184614666565b949350505050565b600060a0820190506146f16000830188614099565b81810360208301526147038187614246565b905081810360408301526147178186614246565b9050818103606083015261472b8185614246565b9050818103608083015261473f8184614246565b90509695505050505050565b60006040820190506147606000830185614099565b61476d6020830184614666565b9392505050565b6000602082019050818103600083015261478e81846140a8565b905092915050565b600060208201905081810360008301526147b08184614106565b905092915050565b600060208201905081810360008301526147d281846141d9565b905092915050565b600060208201905081810360008301526147f38161427f565b9050919050565b60006020820190508181036000830152614813816142a2565b9050919050565b60006020820190508181036000830152614833816142c5565b9050919050565b60006020820190508181036000830152614853816142e8565b9050919050565b600060208201905081810360008301526148738161432e565b9050919050565b6000610120820190506148906000830184614408565b92915050565b600060208201905081810360008301526148b0818461458b565b905092915050565b60006020820190506148cd6000830184614666565b92915050565b60006148dd6148ee565b90506148e98282614afa565b919050565b6000604051905090565b600067ffffffffffffffff82111561491357614912614c30565b5b602082029050602081019050919050565b6000819050602082019050919050565b6000819050602082019050919050565b6000819050602082019050919050565b600081519050919050565b600081519050919050565b600081519050919050565b600081519050919050565b6000602082019050919050565b6000602082019050919050565b6000602082019050919050565b600082825260208201905092915050565b600082825260208201905092915050565b600082825260208201905092915050565b600082825260208201905092915050565b600081905092915050565b600082825260208201905092915050565b6000614a1282614a8b565b9150614a1d83614a8b565b925082821015614a3057614a2f614b74565b5b828203905092915050565b6000614a4682614a6b565b9050919050565b6000614a5882614a6b565b9050919050565b60008115159050919050565b600073ffffffffffffffffffffffffffffffffffffffff82169050919050565b6000819050919050565b60005b83811015614ab3578082015181840152602081019050614a98565b83811115614ac2576000848401525b50505050565b60006002820490506001821680614ae057607f821691505b60208210811415614af457614af3614ba3565b5b50919050565b614b0382614c73565b810181811067ffffffffffffffff82111715614b2257614b21614c30565b5b80604052505050565b6000614b3682614a8b565b91507fffffffffffffffffffffffffffffffffffffffffffffffffffffffffffffffff821415614b6957614b68614b74565b5b600182019050919050565b7f4e487b7100000000000000000000000000000000000000000000000000000000600052601160045260246000fd5b7f4e487b7100000000000000000000000000000000000000000000000000000000600052602260045260246000fd5b7f4e487b7100000000000000000000000000000000000000000000000000000000600052603160045260246000fd5b7f4e487b7100000000000000000000000000000000000000000000000000000000600052603260045260246000fd5b7f4e487b7100000000000000000000000000000000000000000000000000000000600052604160045260246000fd5b600080fd5b600080fd5b600080fd5b600080fd5b6000601f19601f8301169050919050565b7f566972696469616e45786368616e67653a20496e636f727265637420616d6f7560008201527f6e74207061696420746f2066756e6374696f6e00000000000000000000000000602082015250565b7f4f776e61626c653a206e6577206f776e657220697320746865207a65726f206160008201527f6464726573730000000000000000000000000000000000000000000000000000602082015250565b7f4661696c656420746f2073656e64204574686572000000000000000000000000600082015250565b7f4f776e61626c653a2063616c6c6572206973206e6f7420746865206f776e6572600082015250565b50565b7f566972696469616e45786368616e67653a205573657220646f6573206e6f742060008201527f6861766520656e6f7567682062616c616e636500000000000000000000000000602082015250565b614dcf81614a3b565b8114614dda57600080fd5b50565b614de681614a4d565b8114614df157600080fd5b50565b614dfd81614a5f565b8114614e0857600080fd5b50565b614e1481614a8b565b8114614e1f57600080fd5b5056fea26469706673582212205ac0cbc2f817d184109e51d0f7485367d51eab30686725a12bd89ed2cc2305ac64736f6c63430008060033",
  "immutableReferences": {},
  "source": "pragma solidity ^0.8.0;\n\nimport \"@openzeppelin/contracts/access/Ownable.sol\";\nimport \"@openzeppelin/contracts/token/ERC721/ERC721.sol\";\nimport \"@openzeppelin/contracts/token/ERC20/IERC20.sol\";\nimport \"@openzeppelin/contracts/token/ERC20/ERC20.sol\";\nimport \"@openzeppelin/contracts/token/ERC721/IERC721.sol\";\n\nimport \"./ViridianNFT.sol\";\n\ncontract ViridianExchange is Ownable {\n\n    struct User {\n        address wallet;\n        string displayName;\n        string coverPhotoURL;\n        string profilePhotoURL;\n        string bio;\n        User[] following;\n        User[] followers;\n        uint256[] likes;\n    }\n\n    struct Offer {\n        uint256 offerId;\n        uint256[] toNftIds;\n        uint toAmt;\n        uint256[] fromNftIds;\n        uint fromAmt;\n        address to;\n        address from;\n        bool isVEXT;\n        bool pending;\n    }\n\n    using Counters for Counters.Counter;\n    Counters.Counter private _listingIds;\n    Counters.Counter private _offerIds;\n\n    //address vNFTContract = \n    \n    struct Listing {\n        uint256 listingId;\n        uint256 tokenId;\n        address owner;\n        uint256 price;\n        bool purchased;\n        uint256 royalty;\n        uint256 endTime;\n        bool sold;\n        bool isVEXT;\n    }\n\n    struct Collection {\n        string description;\n        uint256[] collectionNFTs;\n    }\n\n    //string[] public nftIds;\n    mapping (address => Collection) displayCases;\n    mapping (address => Listing[]) userListings;\n    mapping (address => Offer[]) userOffers;\n    mapping (uint256 => Offer) offers;\n    mapping (uint256 => Listing) listings;\n    uint256[] private listingIds;\n    uint256[] private offerIds;\n    User[] public users;\n\n    address public viridianNFT;\n    address public ETH;\n    address public viridianToken;\n\n    constructor(address _viridianToken, address _viridianNFT) {\n        require(address(_viridianToken) != address(0)); \n        //require(address(_ETH) != address(0));\n        require(address(_viridianNFT) != address(0));\n\n        viridianToken = _viridianToken;\n        //address _ETH, ETH = _ETH;\n        viridianNFT = _viridianNFT;\n    }\n\n    function getBalance() public view returns (uint) {\n        return address(this).balance;\n    }\n\n    function getListings() public view returns (uint256[] memory) {\n        return listingIds;\n    }\n\n    function getOffers() public view returns (uint256[] memory) {\n        return offerIds;\n    }\n\n    function getListingsFromId(uint256 _listingId) public view returns (Listing memory) {\n        return listings[_listingId];\n    }\n\n    function getOffersFromId(uint256 _offerId) public view returns (Offer memory) {\n        return offers[_offerId];\n    }\n\n    function getListingsFromUser(address _userAddr) public view returns (Listing[] memory) {\n        return userListings[_userAddr];\n    }\n\n    function getOffersFromUser(address _userAddr) public view returns (Offer[] memory) {\n        return userOffers[_userAddr];\n    }\n\n    function getNftOwner(uint256 _nftId) public view returns (address) {\n        return IERC721(viridianNFT).ownerOf(_nftId);\n    }\n\n    function sendEther(address payable _to) public payable {\n        // Call returns a boolean value indicating success or failure.\n        // This is the current recommended method to use.\n        (bool sent, bytes memory data) = _to.call{value: msg.value}(\"\");\n        require(sent, \"Failed to send Ether\");\n    }\n\n    function putUpForSale(uint256 _nftId, uint256 _price, uint256 _royalty, uint256 _endTime, bool _isVEXT) public payable {\n        require(getNftOwner(_nftId) == msg.sender);\n\n        _listingIds.increment();\n        uint256 _listingId = _listingIds.current();\n        Listing memory saleListing;\n        saleListing.listingId = _listingId;\n        saleListing.tokenId = _nftId;\n        saleListing.owner = msg.sender;\n        saleListing.price = _price;\n        saleListing.purchased = false;\n        saleListing.royalty = _royalty;\n        saleListing.endTime = _endTime;\n        saleListing.sold = false;\n        saleListing.isVEXT = _isVEXT;\n\n        //_listingId, _nftId, msg.sender, _price, false, \n        //                                    _royalty, _isAuction, _endTime, Bid(msg.sender, 0, _isVEXT), new Bid[](0), false, _isVEXT);\n        userListings[msg.sender].push(saleListing);\n        listings[_listingId] = saleListing;\n        listingIds.push(saleListing.listingId);\n\n        //IERC721(viridianNFT).approve(address(this), _nftId);\n        //IERC721(viridianNFT).safeTransferFrom(msg.sender, address(this), _nftId);\n    }\n    \n    function pullFromSale(uint256 _listingId) public payable {\n        Listing memory curListing = listings[_listingId];\n        require(curListing.owner == msg.sender);\n        //IERC721(viridianNFT).safeTransferFrom(address(this), msg.sender, curListing.tokenId);\n        Listing[] storage curUserListings = userListings[msg.sender];\n        for (uint i = 0; i < curUserListings.length; i++) {\n            Listing memory listing = curUserListings[i];\n            if (listing.listingId == curListing.listingId) {\n                curUserListings[i] = curUserListings[curUserListings.length - 1];\n                userListings[msg.sender] = curUserListings;\n                userListings[msg.sender].pop();\n                break;\n            }\n        }\n\n        for (uint256 i = 0; i < listingIds.length; i++) {\n            uint256 listingId = listingIds[i];\n            if (listingId == curListing.listingId) {\n                listingIds[i] = listingIds[listingIds.length - 1];\n                listingIds.pop();\n                break;\n            }\n        }\n\n        delete listings[_listingId];\n    }\n\n    function buyNFTWithETH(uint256 _listingId) public payable {\n        Listing memory curListing = listings[_listingId];\n\n        require(msg.sender.balance >= curListing.price, 'ViridianExchange: User does not have enough balance');\n        address payable ownerWallet = payable(curListing.owner);\n\n        require(msg.value == curListing.price, 'ViridianExchange: Incorrect amount paid to function');\n\n        sendEther(ownerWallet);\n        \n        IERC721(viridianNFT).safeTransferFrom(curListing.owner, msg.sender, curListing.tokenId);\n    }\n\n    function buyNFTWithVEXT(uint256 _listingId) public payable {\n        Listing memory curListing = listings[_listingId];\n\n        require(IERC20(viridianToken).balanceOf(msg.sender) >= curListing.price, 'ViridianExchange: User does not have enough balance');\n\n        // TODO: See if this implementation is preferrable\n        // // Approve and transfer VEXT from sender to contract\n        //IERC20(viridianToken).approve(msg.sender, curListing.price);\n        //IERC20(viridianToken).transferFrom(msg.sender, address(this), curListing.price);\n\n        // Approve and transfer VEXT from contract to listing owner\n        //IERC20(viridianToken).approve(address(this), curListing.price);\n        //IERC20(viridianToken).transfer(curListing.owner, curListing.price);\n\n        // Approve and transfer NFT from sender to contract\n        //IERC721(viridianNFT).approve(msg.sender, curListing.tokenId);\n\n        // Approve and transfer NFT from contract to listing owner\n        //IERC721(viridianNFT).approve(address(this), curListing.tokenId);\n        //IERC721(viridianNFT).safeTransferFrom(address(this), msg.sender, curListing.tokenId);\n\n        //IERC20(viridianToken).approve(msg.sender, curListing.price);\n        IERC20(viridianToken).transferFrom(msg.sender, curListing.owner, curListing.price);\n\n        IERC721(viridianNFT).approve(msg.sender, curListing.tokenId);\n        IERC721(viridianNFT).safeTransferFrom(curListing.owner, msg.sender, curListing.tokenId);\n    }\n\n    receive() external payable {}\n\n    // Fallback function is called when msg.data is not empty\n    fallback() external payable {}\n\n    function makeOffer(address _to, uint256[] memory _nftIds, uint256 _amount, uint256[] memory _recNftIds, uint256 _recAmount, bool isVEXT) public {\n        require(_to != msg.sender);\n\n        _offerIds.increment();\n        uint256 _offerId = _offerIds.current();\n\n        Offer memory newOffer = Offer(_offerId, _nftIds, _amount, _recNftIds, _recAmount, _to, msg.sender, isVEXT, true);\n        \n        userOffers[_to].push(newOffer);\n        offers[_offerId] = newOffer;\n        offerIds.push(_offerId);\n    }\n\n    function cancelOffer(uint256 _offerId) public {\n        Offer storage curOffer = offers[_offerId];\n        require(curOffer.from == msg.sender || curOffer.to == msg.sender);\n        Offer[] storage curUserOffers = userOffers[curOffer.to];\n        \n        //TODO: Check who is cancelling and cancel that person's offers.\n\n        // Remove offer from current user's offers\n        for (uint i = 0; i < curUserOffers.length; i++) {\n            Offer memory offer = curUserOffers[i];\n            if (offer.offerId == curOffer.offerId) {\n                curUserOffers[i] = curUserOffers[curUserOffers.length - 1];\n                userOffers[curOffer.to] = curUserOffers;\n                userOffers[curOffer.to].pop();\n                break;\n            }\n        } \n\n        // Remove offer id from global list of offer ids\n        for (uint256 i = 0; i < offerIds.length; i++) {\n            uint256 offerId = offerIds[i];\n            if (offerId == curOffer.offerId) {\n                offerIds[i] = offerIds[offerIds.length - 1];\n                offerIds.pop();\n                break;\n            }\n        }\n\n        // Remove offer from global mapping of offers\n        delete offers[_offerId];\n    }\n\n    //TODO: Figure out how to send eth from \"from\" wallet to \"to\" wallet.\n    function acceptOfferWithETH(uint256 _offerId) public payable {\n        Offer storage curOffer = offers[_offerId];\n\n        require(curOffer.to != msg.sender);\n\n        address payable ownerWallet = payable(curOffer.from);\n\n        sendEther(ownerWallet);\n\n        cancelOffer(_offerId);\n    }\n\n    function acceptOfferWithVEXT(uint256 _offerId) public {\n        Offer storage curOffer = offers[_offerId];\n\n        IERC20(viridianToken).transferFrom(curOffer.from, msg.sender, curOffer.fromAmt);\n        IERC20(viridianToken).transfer(curOffer.from, curOffer.toAmt);\n\n        // Loop through all of the to items in the offer.\n        for (uint i = 0; i < curOffer.toNftIds.length; i++) {\n            IERC721(viridianNFT).approve(msg.sender, curOffer.fromNftIds[i]);\n            IERC721(viridianNFT).safeTransferFrom(curOffer.from, msg.sender, curOffer.toNftIds[i]);\n        }\n\n        // Loop through all of the from items in the offer.\n        for (uint i = 0; i < curOffer.fromNftIds.length; i++) {\n            IERC721(viridianNFT).approve(msg.sender, curOffer.fromNftIds[i]);\n            IERC721(viridianNFT).safeTransferFrom(curOffer.to, curOffer.from, curOffer.fromNftIds[i]);\n        }\n    }\n}",
  "sourcePath": "/Users/blakehatch/Viridian-Exchange-Contracts/contracts/ViridianExchange.sol",
  "compiler": {
    "name": "solc",
    "version": "0.8.6+commit.11564f7e.Emscripten.clang"
  },
  "schemaVersion": "3.4.1",
  "updatedAt": "2021-08-04T16:02:38.227Z",
  "networkType": "ethereum",
  "devdoc": {
    "kind": "dev",
    "methods": {
      "owner()": {
        "details": "Returns the address of the current owner."
      },
      "renounceOwnership()": {
        "details": "Leaves the contract without owner. It will not be possible to call `onlyOwner` functions anymore. Can only be called by the current owner. NOTE: Renouncing ownership will leave the contract without an owner, thereby removing any functionality that is only available to the owner."
      },
      "transferOwnership(address)": {
        "details": "Transfers ownership of the contract to a new account (`newOwner`). Can only be called by the current owner."
      }
    },
    "version": 1
  },
  "userdoc": {
    "kind": "user",
    "methods": {},
    "version": 1
  }
}