{
  "contractName": "ViridianExchange",
  "abi": [
    {
      "inputs": [
        {
          "internalType": "address",
          "name": "_viridianToken",
          "type": "address"
        },
        {
          "internalType": "address",
          "name": "_viridianNFT",
          "type": "address"
        },
        {
          "internalType": "address",
          "name": "_viridianPack",
          "type": "address"
        }
      ],
      "stateMutability": "nonpayable",
      "type": "constructor"
    },
    {
      "anonymous": false,
      "inputs": [
        {
          "indexed": true,
          "internalType": "address",
          "name": "previousOwner",
          "type": "address"
        },
        {
          "indexed": true,
          "internalType": "address",
          "name": "newOwner",
          "type": "address"
        }
      ],
      "name": "OwnershipTransferred",
      "type": "event"
    },
    {
      "stateMutability": "payable",
      "type": "fallback",
      "payable": true
    },
    {
      "inputs": [],
      "name": "ETH",
      "outputs": [
        {
          "internalType": "address",
          "name": "",
          "type": "address"
        }
      ],
      "stateMutability": "view",
      "type": "function",
      "constant": true
    },
    {
      "inputs": [],
      "name": "owner",
      "outputs": [
        {
          "internalType": "address",
          "name": "",
          "type": "address"
        }
      ],
      "stateMutability": "view",
      "type": "function",
      "constant": true
    },
    {
      "inputs": [],
      "name": "renounceOwnership",
      "outputs": [],
      "stateMutability": "nonpayable",
      "type": "function"
    },
    {
      "inputs": [
        {
          "internalType": "address",
          "name": "newOwner",
          "type": "address"
        }
      ],
      "name": "transferOwnership",
      "outputs": [],
      "stateMutability": "nonpayable",
      "type": "function"
    },
    {
      "inputs": [],
      "name": "viridianNFT",
      "outputs": [
        {
          "internalType": "address",
          "name": "",
          "type": "address"
        }
      ],
      "stateMutability": "view",
      "type": "function",
      "constant": true
    },
    {
      "inputs": [],
      "name": "viridianPack",
      "outputs": [
        {
          "internalType": "address",
          "name": "",
          "type": "address"
        }
      ],
      "stateMutability": "view",
      "type": "function",
      "constant": true
    },
    {
      "inputs": [],
      "name": "viridianToken",
      "outputs": [
        {
          "internalType": "address",
          "name": "",
          "type": "address"
        }
      ],
      "stateMutability": "view",
      "type": "function",
      "constant": true
    },
    {
      "stateMutability": "payable",
      "type": "receive",
      "payable": true
    },
    {
      "inputs": [],
      "name": "getBalance",
      "outputs": [
        {
          "internalType": "uint256",
          "name": "",
          "type": "uint256"
        }
      ],
      "stateMutability": "view",
      "type": "function",
      "constant": true
    },
    {
      "inputs": [],
      "name": "getListings",
      "outputs": [
        {
          "internalType": "uint256[]",
          "name": "",
          "type": "uint256[]"
        }
      ],
      "stateMutability": "view",
      "type": "function",
      "constant": true
    },
    {
      "inputs": [
        {
          "internalType": "uint256",
          "name": "_listingId",
          "type": "uint256"
        }
      ],
      "name": "getListingFromId",
      "outputs": [
        {
          "components": [
            {
              "internalType": "uint256",
              "name": "listingId",
              "type": "uint256"
            },
            {
              "internalType": "uint256",
              "name": "tokenId",
              "type": "uint256"
            },
            {
              "internalType": "address",
              "name": "owner",
              "type": "address"
            },
            {
              "internalType": "uint256",
              "name": "price",
              "type": "uint256"
            },
            {
              "internalType": "bool",
              "name": "purchased",
              "type": "bool"
            },
            {
              "internalType": "uint256",
              "name": "royalty",
              "type": "uint256"
            },
            {
              "internalType": "uint256",
              "name": "endTime",
              "type": "uint256"
            },
            {
              "internalType": "bool",
              "name": "sold",
              "type": "bool"
            },
            {
              "internalType": "bool",
              "name": "isVEXT",
              "type": "bool"
            },
            {
              "internalType": "bool",
              "name": "isVNFT",
              "type": "bool"
            }
          ],
          "internalType": "struct ViridianExchange.Listing",
          "name": "",
          "type": "tuple"
        }
      ],
      "stateMutability": "view",
      "type": "function",
      "constant": true
    },
    {
      "inputs": [
        {
          "internalType": "address",
          "name": "_userAddr",
          "type": "address"
        }
      ],
      "name": "getListingsFromUser",
      "outputs": [
        {
          "components": [
            {
              "internalType": "uint256",
              "name": "listingId",
              "type": "uint256"
            },
            {
              "internalType": "uint256",
              "name": "tokenId",
              "type": "uint256"
            },
            {
              "internalType": "address",
              "name": "owner",
              "type": "address"
            },
            {
              "internalType": "uint256",
              "name": "price",
              "type": "uint256"
            },
            {
              "internalType": "bool",
              "name": "purchased",
              "type": "bool"
            },
            {
              "internalType": "uint256",
              "name": "royalty",
              "type": "uint256"
            },
            {
              "internalType": "uint256",
              "name": "endTime",
              "type": "uint256"
            },
            {
              "internalType": "bool",
              "name": "sold",
              "type": "bool"
            },
            {
              "internalType": "bool",
              "name": "isVEXT",
              "type": "bool"
            },
            {
              "internalType": "bool",
              "name": "isVNFT",
              "type": "bool"
            }
          ],
          "internalType": "struct ViridianExchange.Listing[]",
          "name": "",
          "type": "tuple[]"
        }
      ],
      "stateMutability": "view",
      "type": "function",
      "constant": true
    },
    {
      "inputs": [
        {
          "internalType": "uint256",
          "name": "_nftId",
          "type": "uint256"
        }
      ],
      "name": "getNftOwner",
      "outputs": [
        {
          "internalType": "address",
          "name": "",
          "type": "address"
        }
      ],
      "stateMutability": "view",
      "type": "function",
      "constant": true
    },
    {
      "inputs": [
        {
          "internalType": "uint256",
          "name": "_nftId",
          "type": "uint256"
        }
      ],
      "name": "getPackOwner",
      "outputs": [
        {
          "internalType": "address",
          "name": "",
          "type": "address"
        }
      ],
      "stateMutability": "view",
      "type": "function",
      "constant": true
    },
    {
      "inputs": [
        {
          "internalType": "address payable",
          "name": "_to",
          "type": "address"
        }
      ],
      "name": "sendEther",
      "outputs": [],
      "stateMutability": "payable",
      "type": "function",
      "payable": true
    },
    {
      "inputs": [
        {
          "internalType": "uint256",
          "name": "_nftId",
          "type": "uint256"
        },
        {
          "internalType": "uint256",
          "name": "_price",
          "type": "uint256"
        },
        {
          "internalType": "uint256",
          "name": "_royalty",
          "type": "uint256"
        },
        {
          "internalType": "uint256",
          "name": "_endTime",
          "type": "uint256"
        },
        {
          "internalType": "bool",
          "name": "_isVEXT",
          "type": "bool"
        },
        {
          "internalType": "bool",
          "name": "_isVNFT",
          "type": "bool"
        }
      ],
      "name": "putUpForSale",
      "outputs": [],
      "stateMutability": "payable",
      "type": "function",
      "payable": true
    },
    {
      "inputs": [
        {
          "internalType": "uint256",
          "name": "_listingId",
          "type": "uint256"
        }
      ],
      "name": "pullFromSale",
      "outputs": [],
      "stateMutability": "payable",
      "type": "function",
      "payable": true
    },
    {
      "inputs": [
        {
          "internalType": "uint256",
          "name": "_listingId",
          "type": "uint256"
        }
      ],
      "name": "buyNFTWithVEXT",
      "outputs": [],
      "stateMutability": "payable",
      "type": "function",
      "payable": true
    }
  ],
  "bytecode": "0x60806040523480156200001157600080fd5b5060405162003c4038038062003c40833981810160405281019062000037919062000339565b620000576200004b6200025660201b60201c565b6200025e60201b60201c565b600073ffffffffffffffffffffffffffffffffffffffff168373ffffffffffffffffffffffffffffffffffffffff1614156200009257600080fd5b600073ffffffffffffffffffffffffffffffffffffffff168273ffffffffffffffffffffffffffffffffffffffff161415620000cd57600080fd5b600073ffffffffffffffffffffffffffffffffffffffff168173ffffffffffffffffffffffffffffffffffffffff1614156200010857600080fd5b82600c60006101000a81548173ffffffffffffffffffffffffffffffffffffffff021916908373ffffffffffffffffffffffffffffffffffffffff16021790555081600960006101000a81548173ffffffffffffffffffffffffffffffffffffffff021916908373ffffffffffffffffffffffffffffffffffffffff16021790555080600a60006101000a81548173ffffffffffffffffffffffffffffffffffffffff021916908373ffffffffffffffffffffffffffffffffffffffff16021790555081600260006101000a81548173ffffffffffffffffffffffffffffffffffffffff021916908373ffffffffffffffffffffffffffffffffffffffff16021790555080600360006101000a81548173ffffffffffffffffffffffffffffffffffffffff021916908373ffffffffffffffffffffffffffffffffffffffff160217905550505050620003e8565b600033905090565b60008060009054906101000a900473ffffffffffffffffffffffffffffffffffffffff169050816000806101000a81548173ffffffffffffffffffffffffffffffffffffffff021916908373ffffffffffffffffffffffffffffffffffffffff1602179055508173ffffffffffffffffffffffffffffffffffffffff168173ffffffffffffffffffffffffffffffffffffffff167f8be0079c531659141344cd1fd0a4f28419497f9722a3daafe3b4186f6b6457e060405160405180910390a35050565b6000815190506200033381620003ce565b92915050565b600080600060608486031215620003555762000354620003c9565b5b6000620003658682870162000322565b9350506020620003788682870162000322565b92505060406200038b8682870162000322565b9150509250925092565b6000620003a282620003a9565b9050919050565b600073ffffffffffffffffffffffffffffffffffffffff82169050919050565b600080fd5b620003d98162000395565b8114620003e557600080fd5b50565b61384880620003f86000396000f3fe6080604052600436106101025760003560e01c8063a19b56ac11610095578063d3e6a7ad11610064578063d3e6a7ad146102f5578063f1b2d6a314610332578063f2f57e951461035d578063f2fde38b14610388578063fe257afc146103b157610109565b8063a19b56ac14610243578063ac0b27c214610280578063af62c6841461029c578063bddb06f3146102d957610109565b8063898dc3fd116100d1578063898dc3fd146101945780638ad2d5a7146101b05780638da5cb5b146101ed5780639a7012881461021857610109565b806312065fe01461010b57806348c981e214610136578063715018a6146101525780638322fff21461016957610109565b3661010957005b005b34801561011757600080fd5b506101206103dc565b60405161012d91906134b1565b60405180910390f35b610150600480360381019061014b9190612e4d565b6103e4565b005b34801561015e57600080fd5b50610167610497565b005b34801561017557600080fd5b5061017e61051f565b60405161018b9190613304565b60405180910390f35b6101ae60048036038101906101a99190612ed4565b610545565b005b3480156101bc57600080fd5b506101d760048036038101906101d29190612ea7565b610d8c565b6040516101e49190613304565b60405180910390f35b3480156101f957600080fd5b50610202610e40565b60405161020f9190613304565b60405180910390f35b34801561022457600080fd5b5061022d610e69565b60405161023a9190613304565b60405180910390f35b34801561024f57600080fd5b5061026a60048036038101906102659190612ea7565b610e8f565b6040516102779190613495565b60405180910390f35b61029a60048036038101906102959190612ea7565b610fb1565b005b3480156102a857600080fd5b506102c360048036038101906102be9190612df3565b6115dd565b6040516102d091906133d1565b60405180910390f35b6102f360048036038101906102ee9190612ea7565b611770565b005b34801561030157600080fd5b5061031c60048036038101906103179190612ea7565b61201e565b6040516103299190613304565b60405180910390f35b34801561033e57600080fd5b506103476120d2565b60405161035491906133f3565b60405180910390f35b34801561036957600080fd5b5061037261212a565b60405161037f9190613304565b60405180910390f35b34801561039457600080fd5b506103af60048036038101906103aa9190612df3565b612150565b005b3480156103bd57600080fd5b506103c6612248565b6040516103d39190613304565b60405180910390f35b600047905090565b6000808273ffffffffffffffffffffffffffffffffffffffff163460405161040b906132ef565b60006040518083038185875af1925050503d8060008114610448576040519150601f19603f3d011682016040523d82523d6000602084013e61044d565b606091505b509150915081610492576040517f08c379a000000000000000000000000000000000000000000000000000000000815260040161048990613435565b60405180910390fd5b505050565b61049f61226e565b73ffffffffffffffffffffffffffffffffffffffff166104bd610e40565b73ffffffffffffffffffffffffffffffffffffffff1614610513576040517f08c379a000000000000000000000000000000000000000000000000000000000815260040161050a90613455565b60405180910390fd5b61051d6000612276565b565b600b60009054906101000a900473ffffffffffffffffffffffffffffffffffffffff1681565b801561067b573373ffffffffffffffffffffffffffffffffffffffff1661056b87610d8c565b73ffffffffffffffffffffffffffffffffffffffff161461058b57600080fd5b600260009054906101000a900473ffffffffffffffffffffffffffffffffffffffff1673ffffffffffffffffffffffffffffffffffffffff1663fcce4883876040518263ffffffff1660e01b81526004016105e691906134b1565b60206040518083038186803b1580156105fe57600080fd5b505afa158015610612573d6000803e3d6000fd5b505050506040513d601f19601f820116820180604052508101906106369190612e7a565b15610676576040517f08c379a000000000000000000000000000000000000000000000000000000000815260040161066d90613475565b60405180910390fd5b6107a7565b3373ffffffffffffffffffffffffffffffffffffffff1661069b87610d8c565b73ffffffffffffffffffffffffffffffffffffffff16146106bb57600080fd5b600360009054906101000a900473ffffffffffffffffffffffffffffffffffffffff1673ffffffffffffffffffffffffffffffffffffffff1663fcce4883876040518263ffffffff1660e01b815260040161071691906134b1565b60206040518083038186803b15801561072e57600080fd5b505afa158015610742573d6000803e3d6000fd5b505050506040513d601f19601f820116820180604052508101906107669190612e7a565b156107a6576040517f08c379a000000000000000000000000000000000000000000000000000000000815260040161079d90613475565b60405180910390fd5b5b600960009054906101000a900473ffffffffffffffffffffffffffffffffffffffff1673ffffffffffffffffffffffffffffffffffffffff1663e985e9c533306040518363ffffffff1660e01b815260040161080492919061331f565b60206040518083038186803b15801561081c57600080fd5b505afa158015610830573d6000803e3d6000fd5b505050506040513d601f19601f820116820180604052508101906108549190612e7a565b6108e957600960009054906101000a900473ffffffffffffffffffffffffffffffffffffffff1673ffffffffffffffffffffffffffffffffffffffff1663a22cb4653060016040518363ffffffff1660e01b81526004016108b692919061337f565b600060405180830381600087803b1580156108d057600080fd5b505af11580156108e4573d6000803e3d6000fd5b505050505b6108f3600161233a565b60006108ff6001612350565b9050610909612aa9565b818160000181815250508781602001818152505033816040019073ffffffffffffffffffffffffffffffffffffffff16908173ffffffffffffffffffffffffffffffffffffffff1681525050868160600181815250506000816080019015159081151581525050858160a0018181525050848160c001818152505060008160e001901515908115158152505083816101000190151590811515815250508281610120019015159081151581525050600560003373ffffffffffffffffffffffffffffffffffffffff1673ffffffffffffffffffffffffffffffffffffffff168152602001908152602001600020819080600181540180825580915050600190039060005260206000209060080201600090919091909150600082015181600001556020820151816001015560408201518160020160006101000a81548173ffffffffffffffffffffffffffffffffffffffff021916908373ffffffffffffffffffffffffffffffffffffffff1602179055506060820151816003015560808201518160040160006101000a81548160ff02191690831515021790555060a0820151816005015560c0820151816006015560e08201518160070160006101000a81548160ff0219169083151502179055506101008201518160070160016101000a81548160ff0219169083151502179055506101208201518160070160026101000a81548160ff02191690831515021790555050508060066000848152602001908152602001600020600082015181600001556020820151816001015560408201518160020160006101000a81548173ffffffffffffffffffffffffffffffffffffffff021916908373ffffffffffffffffffffffffffffffffffffffff1602179055506060820151816003015560808201518160040160006101000a81548160ff02191690831515021790555060a0820151816005015560c0820151816006015560e08201518160070160006101000a81548160ff0219169083151502179055506101008201518160070160016101000a81548160ff0219169083151502179055506101208201518160070160026101000a81548160ff0219169083151502179055509050506008816000015190806001815401808255809150506001900390600052602060002001600090919091909150558215610cf457600260009054906101000a900473ffffffffffffffffffffffffffffffffffffffff1673ffffffffffffffffffffffffffffffffffffffff1663e6148d5f896040518263ffffffff1660e01b8152600401610cbd91906134b1565b600060405180830381600087803b158015610cd757600080fd5b505af1158015610ceb573d6000803e3d6000fd5b50505050610d82565b600260009054906101000a900473ffffffffffffffffffffffffffffffffffffffff1673ffffffffffffffffffffffffffffffffffffffff1663e6148d5f896040518263ffffffff1660e01b8152600401610d4f91906134b1565b600060405180830381600087803b158015610d6957600080fd5b505af1158015610d7d573d6000803e3d6000fd5b505050505b5050505050505050565b6000600960009054906101000a900473ffffffffffffffffffffffffffffffffffffffff1673ffffffffffffffffffffffffffffffffffffffff16636352211e836040518263ffffffff1660e01b8152600401610de991906134b1565b60206040518083038186803b158015610e0157600080fd5b505afa158015610e15573d6000803e3d6000fd5b505050506040513d601f19601f82011682018060405250810190610e399190612e20565b9050919050565b60008060009054906101000a900473ffffffffffffffffffffffffffffffffffffffff16905090565b600960009054906101000a900473ffffffffffffffffffffffffffffffffffffffff1681565b610e97612aa9565b600660008381526020019081526020016000206040518061014001604052908160008201548152602001600182015481526020016002820160009054906101000a900473ffffffffffffffffffffffffffffffffffffffff1673ffffffffffffffffffffffffffffffffffffffff1673ffffffffffffffffffffffffffffffffffffffff168152602001600382015481526020016004820160009054906101000a900460ff1615151515815260200160058201548152602001600682015481526020016007820160009054906101000a900460ff161515151581526020016007820160019054906101000a900460ff161515151581526020016007820160029054906101000a900460ff1615151515815250509050919050565b6000600660008381526020019081526020016000206040518061014001604052908160008201548152602001600182015481526020016002820160009054906101000a900473ffffffffffffffffffffffffffffffffffffffff1673ffffffffffffffffffffffffffffffffffffffff1673ffffffffffffffffffffffffffffffffffffffff168152602001600382015481526020016004820160009054906101000a900460ff1615151515815260200160058201548152602001600682015481526020016007820160009054906101000a900460ff161515151581526020016007820160019054906101000a900460ff161515151581526020016007820160029054906101000a900460ff16151515158152505090508061012001511561135857600260009054906101000a900473ffffffffffffffffffffffffffffffffffffffff1673ffffffffffffffffffffffffffffffffffffffff1663ad3a358c82602001516040518263ffffffff1660e01b815260040161113291906134b1565b600060405180830381600087803b15801561114c57600080fd5b505af1158015611160573d6000803e3d6000fd5b50505050600c60009054906101000a900473ffffffffffffffffffffffffffffffffffffffff1673ffffffffffffffffffffffffffffffffffffffff166323b872dd33836040015184606001516040518463ffffffff1660e01b81526004016111cb93929190613348565b602060405180830381600087803b1580156111e557600080fd5b505af11580156111f9573d6000803e3d6000fd5b505050506040513d601f19601f8201168201806040525081019061121d9190612e7a565b50600960009054906101000a900473ffffffffffffffffffffffffffffffffffffffff1673ffffffffffffffffffffffffffffffffffffffff1663095ea7b33383602001516040518363ffffffff1660e01b815260040161127f9291906133a8565b600060405180830381600087803b15801561129957600080fd5b505af11580156112ad573d6000803e3d6000fd5b50505050600960009054906101000a900473ffffffffffffffffffffffffffffffffffffffff1673ffffffffffffffffffffffffffffffffffffffff166342842e0e82604001513384602001516040518463ffffffff1660e01b815260040161131893929190613348565b600060405180830381600087803b15801561133257600080fd5b505af1158015611346573d6000803e3d6000fd5b505050506113538261235e565b6115d9565b600360009054906101000a900473ffffffffffffffffffffffffffffffffffffffff1673ffffffffffffffffffffffffffffffffffffffff1663ad3a358c82602001516040518263ffffffff1660e01b81526004016113b791906134b1565b600060405180830381600087803b1580156113d157600080fd5b505af11580156113e5573d6000803e3d6000fd5b50505050600c60009054906101000a900473ffffffffffffffffffffffffffffffffffffffff1673ffffffffffffffffffffffffffffffffffffffff166323b872dd33836040015184606001516040518463ffffffff1660e01b815260040161145093929190613348565b602060405180830381600087803b15801561146a57600080fd5b505af115801561147e573d6000803e3d6000fd5b505050506040513d601f19601f820116820180604052508101906114a29190612e7a565b50600a60009054906101000a900473ffffffffffffffffffffffffffffffffffffffff1673ffffffffffffffffffffffffffffffffffffffff1663095ea7b33383602001516040518363ffffffff1660e01b81526004016115049291906133a8565b600060405180830381600087803b15801561151e57600080fd5b505af1158015611532573d6000803e3d6000fd5b50505050600a60009054906101000a900473ffffffffffffffffffffffffffffffffffffffff1673ffffffffffffffffffffffffffffffffffffffff166342842e0e82604001513384602001516040518463ffffffff1660e01b815260040161159d93929190613348565b600060405180830381600087803b1580156115b757600080fd5b505af11580156115cb573d6000803e3d6000fd5b505050506115d88261235e565b5b5050565b6060600560008373ffffffffffffffffffffffffffffffffffffffff1673ffffffffffffffffffffffffffffffffffffffff168152602001908152602001600020805480602002602001604051908101604052809291908181526020016000905b8282101561176557838290600052602060002090600802016040518061014001604052908160008201548152602001600182015481526020016002820160009054906101000a900473ffffffffffffffffffffffffffffffffffffffff1673ffffffffffffffffffffffffffffffffffffffff1673ffffffffffffffffffffffffffffffffffffffff168152602001600382015481526020016004820160009054906101000a900460ff1615151515815260200160058201548152602001600682015481526020016007820160009054906101000a900460ff161515151581526020016007820160019054906101000a900460ff161515151581526020016007820160029054906101000a900460ff1615151515815250508152602001906001019061163e565b505050509050919050565b6000600660008381526020019081526020016000206040518061014001604052908160008201548152602001600182015481526020016002820160009054906101000a900473ffffffffffffffffffffffffffffffffffffffff1673ffffffffffffffffffffffffffffffffffffffff1673ffffffffffffffffffffffffffffffffffffffff168152602001600382015481526020016004820160009054906101000a900460ff1615151515815260200160058201548152602001600682015481526020016007820160009054906101000a900460ff161515151581526020016007820160019054906101000a900460ff161515151581526020016007820160029054906101000a900460ff16151515158152505090503373ffffffffffffffffffffffffffffffffffffffff16816040015173ffffffffffffffffffffffffffffffffffffffff16146118c357600080fd5b8061012001511561196457600260009054906101000a900473ffffffffffffffffffffffffffffffffffffffff1673ffffffffffffffffffffffffffffffffffffffff1663ad3a358c82602001516040518263ffffffff1660e01b815260040161192d91906134b1565b600060405180830381600087803b15801561194757600080fd5b505af115801561195b573d6000803e3d6000fd5b505050506119f6565b600360009054906101000a900473ffffffffffffffffffffffffffffffffffffffff1673ffffffffffffffffffffffffffffffffffffffff1663ad3a358c82602001516040518263ffffffff1660e01b81526004016119c391906134b1565b600060405180830381600087803b1580156119dd57600080fd5b505af11580156119f1573d6000803e3d6000fd5b505050505b6000600560003373ffffffffffffffffffffffffffffffffffffffff1673ffffffffffffffffffffffffffffffffffffffff168152602001908152602001600020905060005b8180549050811015611e8f576000828281548110611a5d57611a5c61368f565b5b90600052602060002090600802016040518061014001604052908160008201548152602001600182015481526020016002820160009054906101000a900473ffffffffffffffffffffffffffffffffffffffff1673ffffffffffffffffffffffffffffffffffffffff1673ffffffffffffffffffffffffffffffffffffffff168152602001600382015481526020016004820160009054906101000a900460ff1615151515815260200160058201548152602001600682015481526020016007820160009054906101000a900460ff161515151581526020016007820160019054906101000a900460ff161515151581526020016007820160029054906101000a900460ff1615151515815250509050836000015181600001511415611e7b578260018480549050611b8f919061355a565b81548110611ba057611b9f61368f565b5b9060005260206000209060080201838381548110611bc157611bc061368f565b5b906000526020600020906008020160008201548160000155600182015481600101556002820160009054906101000a900473ffffffffffffffffffffffffffffffffffffffff168160020160006101000a81548173ffffffffffffffffffffffffffffffffffffffff021916908373ffffffffffffffffffffffffffffffffffffffff160217905550600382015481600301556004820160009054906101000a900460ff168160040160006101000a81548160ff02191690831515021790555060058201548160050155600682015481600601556007820160009054906101000a900460ff168160070160006101000a81548160ff0219169083151502179055506007820160019054906101000a900460ff168160070160016101000a81548160ff0219169083151502179055506007820160029054906101000a900460ff168160070160026101000a81548160ff02191690831515021790555090505082600560003373ffffffffffffffffffffffffffffffffffffffff1673ffffffffffffffffffffffffffffffffffffffff168152602001908152602001600020908054611d6d929190612b1a565b50600560003373ffffffffffffffffffffffffffffffffffffffff1673ffffffffffffffffffffffffffffffffffffffff168152602001908152602001600020805480611dbd57611dbc613660565b5b600190038181906000526020600020906008020160008082016000905560018201600090556002820160006101000a81549073ffffffffffffffffffffffffffffffffffffffff021916905560038201600090556004820160006101000a81549060ff0219169055600582016000905560068201600090556007820160006101000a81549060ff02191690556007820160016101000a81549060ff02191690556007820160026101000a81549060ff02191690555050905550611e8f565b508080611e87906135e8565b915050611a3c565b5060005b600880549050811015611f6357600060088281548110611eb657611eb561368f565b5b906000526020600020015490508360000151811415611f4f5760086001600880549050611ee3919061355a565b81548110611ef457611ef361368f565b5b906000526020600020015460088381548110611f1357611f1261368f565b5b90600052602060002001819055506008805480611f3357611f32613660565b5b6001900381819060005260206000200160009055905550611f63565b508080611f5b906135e8565b915050611e93565b506006600084815260200190815260200160002060008082016000905560018201600090556002820160006101000a81549073ffffffffffffffffffffffffffffffffffffffff021916905560038201600090556004820160006101000a81549060ff0219169055600582016000905560068201600090556007820160006101000a81549060ff02191690556007820160016101000a81549060ff02191690556007820160026101000a81549060ff02191690555050505050565b6000600960009054906101000a900473ffffffffffffffffffffffffffffffffffffffff1673ffffffffffffffffffffffffffffffffffffffff16636352211e836040518263ffffffff1660e01b815260040161207b91906134b1565b60206040518083038186803b15801561209357600080fd5b505afa1580156120a7573d6000803e3d6000fd5b505050506040513d601f19601f820116820180604052508101906120cb9190612e20565b9050919050565b6060600880548060200260200160405190810160405280929190818152602001828054801561212057602002820191906000526020600020905b81548152602001906001019080831161210c575b5050505050905090565b600c60009054906101000a900473ffffffffffffffffffffffffffffffffffffffff1681565b61215861226e565b73ffffffffffffffffffffffffffffffffffffffff16612176610e40565b73ffffffffffffffffffffffffffffffffffffffff16146121cc576040517f08c379a00000000000000000000000000000000000000000000000000000000081526004016121c390613455565b60405180910390fd5b600073ffffffffffffffffffffffffffffffffffffffff168173ffffffffffffffffffffffffffffffffffffffff16141561223c576040517f08c379a000000000000000000000000000000000000000000000000000000000815260040161223390613415565b60405180910390fd5b61224581612276565b50565b600a60009054906101000a900473ffffffffffffffffffffffffffffffffffffffff1681565b600033905090565b60008060009054906101000a900473ffffffffffffffffffffffffffffffffffffffff169050816000806101000a81548173ffffffffffffffffffffffffffffffffffffffff021916908373ffffffffffffffffffffffffffffffffffffffff1602179055508173ffffffffffffffffffffffffffffffffffffffff168173ffffffffffffffffffffffffffffffffffffffff167f8be0079c531659141344cd1fd0a4f28419497f9722a3daafe3b4186f6b6457e060405160405180910390a35050565b6001816000016000828254019250508190555050565b600081600001549050919050565b6000600660008381526020019081526020016000206040518061014001604052908160008201548152602001600182015481526020016002820160009054906101000a900473ffffffffffffffffffffffffffffffffffffffff1673ffffffffffffffffffffffffffffffffffffffff1673ffffffffffffffffffffffffffffffffffffffff168152602001600382015481526020016004820160009054906101000a900460ff1615151515815260200160058201548152602001600682015481526020016007820160009054906101000a900460ff161515151581526020016007820160019054906101000a900460ff161515151581526020016007820160029054906101000a900460ff1615151515815250509050600060056000836040015173ffffffffffffffffffffffffffffffffffffffff1673ffffffffffffffffffffffffffffffffffffffff168152602001908152602001600020905060005b818054905081101561291a5760008282815481106124e0576124df61368f565b5b90600052602060002090600802016040518061014001604052908160008201548152602001600182015481526020016002820160009054906101000a900473ffffffffffffffffffffffffffffffffffffffff1673ffffffffffffffffffffffffffffffffffffffff1673ffffffffffffffffffffffffffffffffffffffff168152602001600382015481526020016004820160009054906101000a900460ff1615151515815260200160058201548152602001600682015481526020016007820160009054906101000a900460ff161515151581526020016007820160019054906101000a900460ff161515151581526020016007820160029054906101000a900460ff1615151515815250509050836000015181600001511415612906578260018480549050612612919061355a565b815481106126235761262261368f565b5b90600052602060002090600802018383815481106126445761264361368f565b5b906000526020600020906008020160008201548160000155600182015481600101556002820160009054906101000a900473ffffffffffffffffffffffffffffffffffffffff168160020160006101000a81548173ffffffffffffffffffffffffffffffffffffffff021916908373ffffffffffffffffffffffffffffffffffffffff160217905550600382015481600301556004820160009054906101000a900460ff168160040160006101000a81548160ff02191690831515021790555060058201548160050155600682015481600601556007820160009054906101000a900460ff168160070160006101000a81548160ff0219169083151502179055506007820160019054906101000a900460ff168160070160016101000a81548160ff0219169083151502179055506007820160029054906101000a900460ff168160070160026101000a81548160ff0219169083151502179055509050508260056000866040015173ffffffffffffffffffffffffffffffffffffffff1673ffffffffffffffffffffffffffffffffffffffff1681526020019081526020016000209080546127f4929190612b1a565b5060056000856040015173ffffffffffffffffffffffffffffffffffffffff1673ffffffffffffffffffffffffffffffffffffffff16815260200190815260200160002080548061284857612847613660565b5b600190038181906000526020600020906008020160008082016000905560018201600090556002820160006101000a81549073ffffffffffffffffffffffffffffffffffffffff021916905560038201600090556004820160006101000a81549060ff0219169055600582016000905560068201600090556007820160006101000a81549060ff02191690556007820160016101000a81549060ff02191690556007820160026101000a81549060ff0219169055505090555061291a565b508080612912906135e8565b9150506124bf565b5060005b6008805490508110156129ee576000600882815481106129415761294061368f565b5b9060005260206000200154905083600001518114156129da576008600160088054905061296e919061355a565b8154811061297f5761297e61368f565b5b90600052602060002001546008838154811061299e5761299d61368f565b5b906000526020600020018190555060088054806129be576129bd613660565b5b60019003818190600052602060002001600090559055506129ee565b5080806129e6906135e8565b91505061291e565b506006600084815260200190815260200160002060008082016000905560018201600090556002820160006101000a81549073ffffffffffffffffffffffffffffffffffffffff021916905560038201600090556004820160006101000a81549060ff0219169055600582016000905560068201600090556007820160006101000a81549060ff02191690556007820160016101000a81549060ff02191690556007820160026101000a81549060ff02191690555050505050565b6040518061014001604052806000815260200160008152602001600073ffffffffffffffffffffffffffffffffffffffff1681526020016000815260200160001515815260200160008152602001600081526020016000151581526020016000151581526020016000151581525090565b828054828255906000526020600020906008028101928215612cae5760005260206000209160080282015b82811115612cad57828260008201548160000155600182015481600101556002820160009054906101000a900473ffffffffffffffffffffffffffffffffffffffff168160020160006101000a81548173ffffffffffffffffffffffffffffffffffffffff021916908373ffffffffffffffffffffffffffffffffffffffff160217905550600382015481600301556004820160009054906101000a900460ff168160040160006101000a81548160ff02191690831515021790555060058201548160050155600682015481600601556007820160009054906101000a900460ff168160070160006101000a81548160ff0219169083151502179055506007820160019054906101000a900460ff168160070160016101000a81548160ff0219169083151502179055506007820160029054906101000a900460ff168160070160026101000a81548160ff021916908315150217905550505091600801919060080190612b45565b5b509050612cbb9190612cbf565b5090565b5b80821115612d715760008082016000905560018201600090556002820160006101000a81549073ffffffffffffffffffffffffffffffffffffffff021916905560038201600090556004820160006101000a81549060ff0219169055600582016000905560068201600090556007820160006101000a81549060ff02191690556007820160016101000a81549060ff02191690556007820160026101000a81549060ff021916905550600801612cc0565b5090565b600081359050612d84816137b6565b92915050565b600081519050612d99816137b6565b92915050565b600081359050612dae816137cd565b92915050565b600081359050612dc3816137e4565b92915050565b600081519050612dd8816137e4565b92915050565b600081359050612ded816137fb565b92915050565b600060208284031215612e0957612e086136be565b5b6000612e1784828501612d75565b91505092915050565b600060208284031215612e3657612e356136be565b5b6000612e4484828501612d8a565b91505092915050565b600060208284031215612e6357612e626136be565b5b6000612e7184828501612d9f565b91505092915050565b600060208284031215612e9057612e8f6136be565b5b6000612e9e84828501612dc9565b91505092915050565b600060208284031215612ebd57612ebc6136be565b5b6000612ecb84828501612dde565b91505092915050565b60008060008060008060c08789031215612ef157612ef06136be565b5b6000612eff89828a01612dde565b9650506020612f1089828a01612dde565b9550506040612f2189828a01612dde565b9450506060612f3289828a01612dde565b9350506080612f4389828a01612db4565b92505060a0612f5489828a01612db4565b9150509295509295509295565b6000612f6d8383613139565b6101408301905092915050565b6000612f8683836132d1565b60208301905092915050565b612f9b8161358e565b82525050565b612faa8161358e565b82525050565b6000612fbb826134ec565b612fc5818561351c565b9350612fd0836134cc565b8060005b83811015613001578151612fe88882612f61565b9750612ff383613502565b925050600181019050612fd4565b5085935050505092915050565b6000613019826134f7565b613023818561352d565b935061302e836134dc565b8060005b8381101561305f5781516130468882612f7a565b97506130518361350f565b925050600181019050613032565b5085935050505092915050565b613075816135b2565b82525050565b613084816135b2565b82525050565b6000613097602683613549565b91506130a2826136c3565b604082019050919050565b60006130ba601483613549565b91506130c582613712565b602082019050919050565b60006130dd602083613549565b91506130e88261373b565b602082019050919050565b600061310060008361353e565b915061310b82613764565b600082019050919050565b6000613123602b83613549565b915061312e82613767565b604082019050919050565b6101408201600082015161315060008501826132d1565b50602082015161316360208501826132d1565b5060408201516131766040850182612f92565b50606082015161318960608501826132d1565b50608082015161319c608085018261306c565b5060a08201516131af60a08501826132d1565b5060c08201516131c260c08501826132d1565b5060e08201516131d560e085018261306c565b506101008201516131ea61010085018261306c565b506101208201516131ff61012085018261306c565b50505050565b6101408201600082015161321c60008501826132d1565b50602082015161322f60208501826132d1565b5060408201516132426040850182612f92565b50606082015161325560608501826132d1565b506080820151613268608085018261306c565b5060a082015161327b60a08501826132d1565b5060c082015161328e60c08501826132d1565b5060e08201516132a160e085018261306c565b506101008201516132b661010085018261306c565b506101208201516132cb61012085018261306c565b50505050565b6132da816135de565b82525050565b6132e9816135de565b82525050565b60006132fa826130f3565b9150819050919050565b60006020820190506133196000830184612fa1565b92915050565b60006040820190506133346000830185612fa1565b6133416020830184612fa1565b9392505050565b600060608201905061335d6000830186612fa1565b61336a6020830185612fa1565b61337760408301846132e0565b949350505050565b60006040820190506133946000830185612fa1565b6133a1602083018461307b565b9392505050565b60006040820190506133bd6000830185612fa1565b6133ca60208301846132e0565b9392505050565b600060208201905081810360008301526133eb8184612fb0565b905092915050565b6000602082019050818103600083015261340d818461300e565b905092915050565b6000602082019050818103600083015261342e8161308a565b9050919050565b6000602082019050818103600083015261344e816130ad565b9050919050565b6000602082019050818103600083015261346e816130d0565b9050919050565b6000602082019050818103600083015261348e81613116565b9050919050565b6000610140820190506134ab6000830184613205565b92915050565b60006020820190506134c660008301846132e0565b92915050565b6000819050602082019050919050565b6000819050602082019050919050565b600081519050919050565b600081519050919050565b6000602082019050919050565b6000602082019050919050565b600082825260208201905092915050565b600082825260208201905092915050565b600081905092915050565b600082825260208201905092915050565b6000613565826135de565b9150613570836135de565b92508282101561358357613582613631565b5b828203905092915050565b6000613599826135be565b9050919050565b60006135ab826135be565b9050919050565b60008115159050919050565b600073ffffffffffffffffffffffffffffffffffffffff82169050919050565b6000819050919050565b60006135f3826135de565b91507fffffffffffffffffffffffffffffffffffffffffffffffffffffffffffffffff82141561362657613625613631565b5b600182019050919050565b7f4e487b7100000000000000000000000000000000000000000000000000000000600052601160045260246000fd5b7f4e487b7100000000000000000000000000000000000000000000000000000000600052603160045260246000fd5b7f4e487b7100000000000000000000000000000000000000000000000000000000600052603260045260246000fd5b600080fd5b7f4f776e61626c653a206e6577206f776e657220697320746865207a65726f206160008201527f6464726573730000000000000000000000000000000000000000000000000000602082015250565b7f4661696c656420746f2073656e64204574686572000000000000000000000000600082015250565b7f4f776e61626c653a2063616c6c6572206973206e6f7420746865206f776e6572600082015250565b50565b7f43616e6e6f7420637265617465206d756c7469706c65206c697374696e67732060008201527f666f72206f6e65206e6674000000000000000000000000000000000000000000602082015250565b6137bf8161358e565b81146137ca57600080fd5b50565b6137d6816135a0565b81146137e157600080fd5b50565b6137ed816135b2565b81146137f857600080fd5b50565b613804816135de565b811461380f57600080fd5b5056fea2646970667358221220a1a508c51c8c2b83e250e9fdb8cbc773795659fc02e3ff456eeb36b0d3c41b6464736f6c63430008070033",
  "immutableReferences": {},
  "source": "pragma solidity ^0.8.0;\n\nimport \"@openzeppelin/contracts/access/Ownable.sol\";\nimport \"@openzeppelin/contracts/token/ERC721/ERC721.sol\";\nimport \"@openzeppelin/contracts/token/ERC20/IERC20.sol\";\nimport \"@openzeppelin/contracts/token/ERC20/ERC20.sol\";\nimport \"@openzeppelin/contracts/token/ERC721/IERC721.sol\";\n\nimport \"./ViridianNFT.sol\";\nimport \"./ViridianPack.sol\";\n\ncontract ViridianExchange is Ownable {\n\n    using Counters for Counters.Counter;\n    Counters.Counter private _listingIds;\n\n    //address vNFTContract = \n\n    ViridianNFT vNFT;\n    ViridianPack vPack;\n    \n    struct Listing {\n        uint256 listingId;\n        uint256 tokenId;\n        address owner;\n        uint256 price;\n        bool purchased;\n        uint256 royalty;\n        uint256 endTime;\n        bool sold;\n        bool isVEXT;\n        bool isVNFT;\n    }\n\n    struct Collection {\n        string description;\n        uint256[] collectionNFTs;\n    }\n\n    //string[] public nftIds;\n    mapping (address => Collection) displayCases;\n    mapping (address => Listing[]) userListings;\n    mapping (uint256 => Listing) listings;\n    address[] private userAddresses;\n    uint256[] private listingIds;\n\n    address public viridianNFT;\n    address public viridianPack;\n    address public ETH;\n    address public viridianToken;\n\n    constructor(address _viridianToken, address _viridianNFT, address _viridianPack) {\n        require(address(_viridianToken) != address(0)); \n        //require(address(_ETH) != address(0));\n        require(address(_viridianNFT) != address(0));\n        require(address(_viridianPack) != address(0));\n\n        viridianToken = _viridianToken;\n        //address _ETH, ETH = _ETH;\n        viridianNFT = _viridianNFT;\n        viridianPack = _viridianPack;\n\n        vNFT = ViridianNFT(_viridianNFT);\n        vPack = ViridianPack(_viridianPack);\n    }\n\n    function getBalance() public view returns (uint) {\n        return address(this).balance;\n    }\n\n    function getListings() public view returns (uint256[] memory) {\n        return listingIds;\n    }\n\n    function getListingFromId(uint256 _listingId) public view returns (Listing memory) {\n        return listings[_listingId];\n    }\n\n    function getListingsFromUser(address _userAddr) public view returns (Listing[] memory) {\n        return userListings[_userAddr];\n    }\n\n    function getNftOwner(uint256 _nftId) public view returns (address) {\n        return IERC721(viridianNFT).ownerOf(_nftId);\n    }\n\n    function getPackOwner(uint256 _nftId) public view returns (address) {\n        return IERC721(viridianNFT).ownerOf(_nftId);\n    }\n\n    function sendEther(address payable _to) public payable {\n        // Call returns a boolean value indicating success or failure.\n        // This is the current recommended method to use.\n        (bool sent, bytes memory data) = _to.call{value: msg.value}(\"\");\n        require(sent, \"Failed to send Ether\");\n    }\n\n    function putUpForSale(uint256 _nftId, uint256 _price, uint256 _royalty, uint256 _endTime, bool _isVEXT, bool _isVNFT) public payable {\n        if (_isVNFT) {\n            require(getNftOwner(_nftId) == msg.sender);\n            require(!vNFT.isListed(_nftId), \"Cannot create multiple listings for one nft\");\n        }\n        else {\n            require(getNftOwner(_nftId) == msg.sender);\n            require(!vPack.isListed(_nftId), \"Cannot create multiple listings for one nft\");\n        }\n        \n        \n\n        //TODO: Maybe put this back\n        if(!IERC721(viridianNFT).isApprovedForAll(msg.sender, address(this))) {\n            IERC721(viridianNFT).setApprovalForAll(address(this), true);\n        }\n\n        _listingIds.increment();\n        uint256 _listingId = _listingIds.current();\n        Listing memory saleListing;\n        saleListing.listingId = _listingId;\n        saleListing.tokenId = _nftId;\n        saleListing.owner = msg.sender;\n        saleListing.price = _price;\n        saleListing.purchased = false;\n        saleListing.royalty = _royalty;\n        saleListing.endTime = _endTime;\n        saleListing.sold = false;\n        saleListing.isVEXT = _isVEXT;\n        saleListing.isVNFT = _isVNFT;\n\n        //_listingId, _nftId, msg.sender, _price, false, \n        //                                    _royalty, _isAuction, _endTime, Bid(msg.sender, 0, _isVEXT), new Bid[](0), false, _isVEXT);\n        userListings[msg.sender].push(saleListing);\n        listings[_listingId] = saleListing;\n        listingIds.push(saleListing.listingId);\n\n        if (_isVNFT) {\n            vNFT.listToken(_nftId);\n        }\n        else {\n            vNFT.listToken(_nftId);\n        }\n\n        //ERC20(viridianToken).approve(address(this), _price);\n\n        //IERC721(viridianNFT).approve(address(this), _nftId);\n        //IERC721(viridianNFT).safeTransferFrom(msg.sender, address(this), _nftId);\n    }\n    \n    function pullFromSale(uint256 _listingId) public payable {\n        Listing memory curListing = listings[_listingId];\n        require(curListing.owner == msg.sender);\n        //IERC721(viridianNFT).safeTransferFrom(address(this), msg.sender, curListing.tokenId);\n        if(curListing.isVNFT) {\n            vNFT.unlistToken(curListing.tokenId);\n        }\n        else {\n            vPack.unlistToken(curListing.tokenId);\n        }\n\n        Listing[] storage curUserListings = userListings[msg.sender];\n        for (uint i = 0; i < curUserListings.length; i++) {\n            Listing memory listing = curUserListings[i];\n            if (listing.listingId == curListing.listingId) {\n                curUserListings[i] = curUserListings[curUserListings.length - 1];\n                userListings[msg.sender] = curUserListings;\n                userListings[msg.sender].pop();\n                break;\n            }\n        }\n\n        for (uint256 i = 0; i < listingIds.length; i++) {\n            uint256 listingId = listingIds[i];\n            if (listingId == curListing.listingId) {\n                listingIds[i] = listingIds[listingIds.length - 1];\n                listingIds.pop();\n                break;\n            }\n        }\n\n        delete listings[_listingId];\n    }\n\n    function pullFromSaleOnBuy(uint256 _listingId) private {\n        Listing memory curListing = listings[_listingId];\n        //IERC721(viridianNFT).safeTransferFrom(address(this), msg.sender, curListing.tokenId);\n        Listing[] storage curUserListings = userListings[curListing.owner];\n        for (uint i = 0; i < curUserListings.length; i++) {\n            Listing memory listing = curUserListings[i];\n            if (listing.listingId == curListing.listingId) {\n                curUserListings[i] = curUserListings[curUserListings.length - 1];\n                userListings[curListing.owner] = curUserListings;\n                userListings[curListing.owner].pop();\n                break;\n            }\n        }\n\n        for (uint256 i = 0; i < listingIds.length; i++) {\n            uint256 listingId = listingIds[i];\n            if (listingId == curListing.listingId) {\n                listingIds[i] = listingIds[listingIds.length - 1];\n                listingIds.pop();\n                break;\n            }\n        }\n\n        delete listings[_listingId];\n    }\n\n    function buyNFTWithVEXT(uint256 _listingId) public payable {\n        Listing memory curListing = listings[_listingId];\n\n        if(curListing.isVNFT) {\n            vNFT.unlistToken(curListing.tokenId);\n\n            IERC20(viridianToken).transferFrom(msg.sender, curListing.owner, curListing.price);\n\n            IERC721(viridianNFT).approve(msg.sender, curListing.tokenId);\n            IERC721(viridianNFT).safeTransferFrom(curListing.owner, msg.sender, curListing.tokenId);\n            pullFromSaleOnBuy(_listingId);\n        }\n        else {\n            vPack.unlistToken(curListing.tokenId);\n\n            IERC20(viridianToken).transferFrom(msg.sender, curListing.owner, curListing.price);\n\n            IERC721(viridianPack).approve(msg.sender, curListing.tokenId);\n            IERC721(viridianPack).safeTransferFrom(curListing.owner, msg.sender, curListing.tokenId);\n            pullFromSaleOnBuy(_listingId);\n        }\n        \n    }\n\n    receive() external payable {}\n\n    // Fallback function is called when msg.data is not empty\n    fallback() external payable {}\n}",
  "sourcePath": "/Users/krishmoran/Documents/GitHub/Viridian-Exchange-Contracts/contracts/ViridianExchange.sol",
  "compiler": {
    "name": "solc",
    "version": "0.8.7+commit.e28d00a7.Emscripten.clang"
  },
  "schemaVersion": "3.4.1",
  "updatedAt": "2021-09-27T05:18:44.813Z",
  "networkType": "ethereum",
  "devdoc": {
    "kind": "dev",
    "methods": {
      "owner()": {
        "details": "Returns the address of the current owner."
      },
      "renounceOwnership()": {
        "details": "Leaves the contract without owner. It will not be possible to call `onlyOwner` functions anymore. Can only be called by the current owner. NOTE: Renouncing ownership will leave the contract without an owner, thereby removing any functionality that is only available to the owner."
      },
      "transferOwnership(address)": {
        "details": "Transfers ownership of the contract to a new account (`newOwner`). Can only be called by the current owner."
      }
    },
    "version": 1
  },
  "userdoc": {
    "kind": "user",
    "methods": {},
    "version": 1
  }
}