{
  "contractName": "ViridianPack",
  "abi": [
    {
      "inputs": [
        {
          "internalType": "address",
          "name": "_viridianNFT",
          "type": "address"
        }
      ],
      "stateMutability": "nonpayable",
      "type": "constructor"
    },
    {
      "anonymous": false,
      "inputs": [
        {
          "indexed": true,
          "internalType": "address",
          "name": "owner",
          "type": "address"
        },
        {
          "indexed": true,
          "internalType": "address",
          "name": "approved",
          "type": "address"
        },
        {
          "indexed": true,
          "internalType": "uint256",
          "name": "tokenId",
          "type": "uint256"
        }
      ],
      "name": "Approval",
      "type": "event"
    },
    {
      "anonymous": false,
      "inputs": [
        {
          "indexed": true,
          "internalType": "address",
          "name": "owner",
          "type": "address"
        },
        {
          "indexed": true,
          "internalType": "address",
          "name": "operator",
          "type": "address"
        },
        {
          "indexed": false,
          "internalType": "bool",
          "name": "approved",
          "type": "bool"
        }
      ],
      "name": "ApprovalForAll",
      "type": "event"
    },
    {
      "anonymous": false,
      "inputs": [
        {
          "indexed": false,
          "internalType": "string[10]",
          "name": "newUris",
          "type": "string[10]"
        }
      ],
      "name": "Open",
      "type": "event"
    },
    {
      "anonymous": false,
      "inputs": [
        {
          "indexed": true,
          "internalType": "address",
          "name": "previousOwner",
          "type": "address"
        },
        {
          "indexed": true,
          "internalType": "address",
          "name": "newOwner",
          "type": "address"
        }
      ],
      "name": "OwnershipTransferred",
      "type": "event"
    },
    {
      "anonymous": false,
      "inputs": [
        {
          "indexed": true,
          "internalType": "address",
          "name": "from",
          "type": "address"
        },
        {
          "indexed": true,
          "internalType": "address",
          "name": "to",
          "type": "address"
        },
        {
          "indexed": true,
          "internalType": "uint256",
          "name": "tokenId",
          "type": "uint256"
        }
      ],
      "name": "Transfer",
      "type": "event"
    },
    {
      "inputs": [
        {
          "internalType": "address",
          "name": "to",
          "type": "address"
        },
        {
          "internalType": "uint256",
          "name": "tokenId",
          "type": "uint256"
        }
      ],
      "name": "approve",
      "outputs": [],
      "stateMutability": "nonpayable",
      "type": "function"
    },
    {
      "inputs": [
        {
          "internalType": "address",
          "name": "owner",
          "type": "address"
        }
      ],
      "name": "balanceOf",
      "outputs": [
        {
          "internalType": "uint256",
          "name": "",
          "type": "uint256"
        }
      ],
      "stateMutability": "view",
      "type": "function",
      "constant": true
    },
    {
      "inputs": [
        {
          "internalType": "uint256",
          "name": "tokenId",
          "type": "uint256"
        }
      ],
      "name": "getApproved",
      "outputs": [
        {
          "internalType": "address",
          "name": "",
          "type": "address"
        }
      ],
      "stateMutability": "view",
      "type": "function",
      "constant": true
    },
    {
      "inputs": [
        {
          "internalType": "address",
          "name": "owner",
          "type": "address"
        },
        {
          "internalType": "address",
          "name": "operator",
          "type": "address"
        }
      ],
      "name": "isApprovedForAll",
      "outputs": [
        {
          "internalType": "bool",
          "name": "",
          "type": "bool"
        }
      ],
      "stateMutability": "view",
      "type": "function",
      "constant": true
    },
    {
      "inputs": [],
      "name": "name",
      "outputs": [
        {
          "internalType": "string",
          "name": "",
          "type": "string"
        }
      ],
      "stateMutability": "view",
      "type": "function",
      "constant": true
    },
    {
      "inputs": [],
      "name": "owner",
      "outputs": [
        {
          "internalType": "address",
          "name": "",
          "type": "address"
        }
      ],
      "stateMutability": "view",
      "type": "function",
      "constant": true
    },
    {
      "inputs": [
        {
          "internalType": "uint256",
          "name": "tokenId",
          "type": "uint256"
        }
      ],
      "name": "ownerOf",
      "outputs": [
        {
          "internalType": "address",
          "name": "",
          "type": "address"
        }
      ],
      "stateMutability": "view",
      "type": "function",
      "constant": true
    },
    {
      "inputs": [],
      "name": "renounceOwnership",
      "outputs": [],
      "stateMutability": "nonpayable",
      "type": "function"
    },
    {
      "inputs": [
        {
          "internalType": "address",
          "name": "operator",
          "type": "address"
        },
        {
          "internalType": "bool",
          "name": "approved",
          "type": "bool"
        }
      ],
      "name": "setApprovalForAll",
      "outputs": [],
      "stateMutability": "nonpayable",
      "type": "function"
    },
    {
      "inputs": [
        {
          "internalType": "bytes4",
          "name": "interfaceId",
          "type": "bytes4"
        }
      ],
      "name": "supportsInterface",
      "outputs": [
        {
          "internalType": "bool",
          "name": "",
          "type": "bool"
        }
      ],
      "stateMutability": "view",
      "type": "function",
      "constant": true
    },
    {
      "inputs": [],
      "name": "symbol",
      "outputs": [
        {
          "internalType": "string",
          "name": "",
          "type": "string"
        }
      ],
      "stateMutability": "view",
      "type": "function",
      "constant": true
    },
    {
      "inputs": [
        {
          "internalType": "address",
          "name": "newOwner",
          "type": "address"
        }
      ],
      "name": "transferOwnership",
      "outputs": [],
      "stateMutability": "nonpayable",
      "type": "function"
    },
    {
      "inputs": [],
      "name": "viridianNFTAddr",
      "outputs": [
        {
          "internalType": "address",
          "name": "",
          "type": "address"
        }
      ],
      "stateMutability": "view",
      "type": "function",
      "constant": true
    },
    {
      "inputs": [
        {
          "internalType": "string",
          "name": "baseURI_",
          "type": "string"
        }
      ],
      "name": "setBaseURI",
      "outputs": [],
      "stateMutability": "nonpayable",
      "type": "function"
    },
    {
      "inputs": [
        {
          "internalType": "uint256",
          "name": "tokenId",
          "type": "uint256"
        }
      ],
      "name": "tokenURI",
      "outputs": [
        {
          "internalType": "string",
          "name": "",
          "type": "string"
        }
      ],
      "stateMutability": "view",
      "type": "function",
      "constant": true
    },
    {
      "inputs": [
        {
          "internalType": "uint256",
          "name": "_rarity",
          "type": "uint256"
        }
      ],
      "name": "getUriRarityPools",
      "outputs": [
        {
          "internalType": "string[]",
          "name": "",
          "type": "string[]"
        }
      ],
      "stateMutability": "view",
      "type": "function",
      "constant": true
    },
    {
      "inputs": [],
      "name": "getOwnedNFTs",
      "outputs": [
        {
          "internalType": "uint256[]",
          "name": "",
          "type": "uint256[]"
        }
      ],
      "stateMutability": "view",
      "type": "function",
      "constant": true
    },
    {
      "inputs": [
        {
          "internalType": "uint256",
          "name": "_rarity",
          "type": "uint256"
        },
        {
          "internalType": "uint256",
          "name": "_rarityOdd",
          "type": "uint256"
        },
        {
          "internalType": "uint256",
          "name": "_newOdds",
          "type": "uint256"
        }
      ],
      "name": "setRarityOdds",
      "outputs": [],
      "stateMutability": "nonpayable",
      "type": "function"
    },
    {
      "inputs": [
        {
          "internalType": "uint256",
          "name": "tokenId",
          "type": "uint256"
        }
      ],
      "name": "isListed",
      "outputs": [
        {
          "internalType": "bool",
          "name": "",
          "type": "bool"
        }
      ],
      "stateMutability": "view",
      "type": "function",
      "constant": true
    },
    {
      "inputs": [
        {
          "internalType": "address",
          "name": "_to",
          "type": "address"
        },
        {
          "internalType": "string",
          "name": "tokenURI_",
          "type": "string"
        }
      ],
      "name": "mint",
      "outputs": [],
      "stateMutability": "nonpayable",
      "type": "function"
    },
    {
      "inputs": [
        {
          "internalType": "string",
          "name": "uri",
          "type": "string"
        },
        {
          "internalType": "uint256",
          "name": "rarity",
          "type": "uint256"
        }
      ],
      "name": "softMintNFT",
      "outputs": [],
      "stateMutability": "payable",
      "type": "function",
      "payable": true
    },
    {
      "inputs": [
        {
          "internalType": "uint256",
          "name": "rarity",
          "type": "uint256"
        },
        {
          "internalType": "uint256",
          "name": "index",
          "type": "uint256"
        }
      ],
      "name": "burnSoftMintedNFTAtRarityIndex",
      "outputs": [],
      "stateMutability": "payable",
      "type": "function",
      "payable": true
    },
    {
      "inputs": [
        {
          "internalType": "string",
          "name": "_s",
          "type": "string"
        },
        {
          "internalType": "string",
          "name": "_s1",
          "type": "string"
        }
      ],
      "name": "compareStrings",
      "outputs": [
        {
          "internalType": "bool",
          "name": "",
          "type": "bool"
        }
      ],
      "stateMutability": "pure",
      "type": "function",
      "constant": true
    },
    {
      "inputs": [
        {
          "internalType": "uint256",
          "name": "_tokenId",
          "type": "uint256"
        }
      ],
      "name": "openPack",
      "outputs": [],
      "stateMutability": "payable",
      "type": "function",
      "payable": true
    },
    {
      "inputs": [
        {
          "internalType": "uint256",
          "name": "tokenId",
          "type": "uint256"
        }
      ],
      "name": "burn",
      "outputs": [],
      "stateMutability": "nonpayable",
      "type": "function"
    },
    {
      "inputs": [
        {
          "internalType": "address",
          "name": "recipient",
          "type": "address"
        },
        {
          "internalType": "string",
          "name": "hash",
          "type": "string"
        },
        {
          "internalType": "string",
          "name": "metadata",
          "type": "string"
        }
      ],
      "name": "awardItem",
      "outputs": [
        {
          "internalType": "uint256",
          "name": "",
          "type": "uint256"
        }
      ],
      "stateMutability": "nonpayable",
      "type": "function"
    },
    {
      "inputs": [
        {
          "internalType": "address",
          "name": "from",
          "type": "address"
        },
        {
          "internalType": "address",
          "name": "to",
          "type": "address"
        },
        {
          "internalType": "uint256",
          "name": "tokenId",
          "type": "uint256"
        }
      ],
      "name": "safeTransferFrom",
      "outputs": [],
      "stateMutability": "nonpayable",
      "type": "function"
    },
    {
      "inputs": [
        {
          "internalType": "address",
          "name": "from",
          "type": "address"
        },
        {
          "internalType": "address",
          "name": "to",
          "type": "address"
        },
        {
          "internalType": "uint256",
          "name": "tokenId",
          "type": "uint256"
        },
        {
          "internalType": "bytes",
          "name": "_data",
          "type": "bytes"
        }
      ],
      "name": "safeTransferFrom",
      "outputs": [],
      "stateMutability": "nonpayable",
      "type": "function"
    },
    {
      "inputs": [
        {
          "internalType": "address",
          "name": "from",
          "type": "address"
        },
        {
          "internalType": "address",
          "name": "to",
          "type": "address"
        },
        {
          "internalType": "uint256",
          "name": "tokenId",
          "type": "uint256"
        }
      ],
      "name": "transferFrom",
      "outputs": [],
      "stateMutability": "nonpayable",
      "type": "function"
    },
    {
      "inputs": [
        {
          "internalType": "uint256",
          "name": "_tokenId",
          "type": "uint256"
        }
      ],
      "name": "listToken",
      "outputs": [],
      "stateMutability": "nonpayable",
      "type": "function"
    },
    {
      "inputs": [
        {
          "internalType": "uint256",
          "name": "_tokenId",
          "type": "uint256"
        }
      ],
      "name": "unlistToken",
      "outputs": [],
      "stateMutability": "nonpayable",
      "type": "function"
    }
  ],
  "bytecode": "0x60806040523480156200001157600080fd5b5060405162005a0d38038062005a0d8339818101604052810190620000379190620006ed565b6040518060400160405280600d81526020017f566972696469616e205061636b000000000000000000000000000000000000008152506040518060400160405280600281526020017f56500000000000000000000000000000000000000000000000000000000000008152508160009080519060200190620000bb929190620005d3565b508060019080519060200190620000d4929190620005d3565b505050620000f7620000eb6200050560201b60201c565b6200050d60201b60201c565b600073ffffffffffffffffffffffffffffffffffffffff168173ffffffffffffffffffffffffffffffffffffffff1614156200013257600080fd5b80601060006101000a81548173ffffffffffffffffffffffffffffffffffffffff021916908373ffffffffffffffffffffffffffffffffffffffff160217905550601060009054906101000a900473ffffffffffffffffffffffffffffffffffffffff16601160006101000a81548173ffffffffffffffffffffffffffffffffffffffff021916908373ffffffffffffffffffffffffffffffffffffffff1602179055506019600a60008081526020019081526020016000206000808152602001908152602001600020819055506064600a60008081526020019081526020016000206000600181526020019081526020016000208190555061012c600a6000808152602001908152602001600020600060028152602001908152602001600020819055506103e8600a6000808152602001908152602001600020600060038152602001908152602001600020819055506003600b6000808152602001908152602001600020819055506001600a6000600181526020019081526020016000206000808152602001908152602001600020819055506032600a6000600181526020019081526020016000206000600181526020019081526020016000208190555060c8600a600060018152602001908152602001600020600060028152602001908152602001600020819055506103e8600a600060018152602001908152602001600020600060038152602001908152602001600020819055506003600b6000808152602001908152602001600020819055506000600a6000600181526020019081526020016000206000808152602001908152602001600020819055506032600a600060018152602001908152602001600020600060018152602001908152602001600020819055506064600a600060018152602001908152602001600020600060028152602001908152602001600020819055506103e8600a600060018152602001908152602001600020600060038152602001908152602001600020819055506003600b6000808152602001908152602001600020819055506000600a600060028152602001908152602001600020600080815260200190815260200160002081905550600a80600060028152602001908152602001600020600060018152602001908152602001600020819055506032600a600060028152602001908152602001600020600060028152602001908152602001600020819055506103e8600a600060028152602001908152602001600020600060038152602001908152602001600020819055506003600b6000808152602001908152602001600020819055506003600f819055505062000784565b600033905090565b6000600660009054906101000a900473ffffffffffffffffffffffffffffffffffffffff16905081600660006101000a81548173ffffffffffffffffffffffffffffffffffffffff021916908373ffffffffffffffffffffffffffffffffffffffff1602179055508173ffffffffffffffffffffffffffffffffffffffff168173ffffffffffffffffffffffffffffffffffffffff167f8be0079c531659141344cd1fd0a4f28419497f9722a3daafe3b4186f6b6457e060405160405180910390a35050565b828054620005e1906200074e565b90600052602060002090601f01602090048101928262000605576000855562000651565b82601f106200062057805160ff191683800117855562000651565b8280016001018555821562000651579182015b828111156200065057825182559160200191906001019062000633565b5b50905062000660919062000664565b5090565b5b808211156200067f57600081600090555060010162000665565b5090565b600080fd5b600073ffffffffffffffffffffffffffffffffffffffff82169050919050565b6000620006b58262000688565b9050919050565b620006c781620006a8565b8114620006d357600080fd5b50565b600081519050620006e781620006bc565b92915050565b60006020828403121562000706576200070562000683565b5b60006200071684828501620006d6565b91505092915050565b7f4e487b7100000000000000000000000000000000000000000000000000000000600052602260045260246000fd5b600060028204905060018216806200076757607f821691505b602082108114156200077e576200077d6200071f565b5b50919050565b61527980620007946000396000f3fe6080604052600436106101d85760003560e01c80638da5cb5b11610102578063bed34bba11610095578063e6148d5f11610064578063e6148d5f146106a1578063e985e9c5146106ca578063f2fde38b14610707578063fcce488314610730576101d8565b8063bed34bba146105e2578063c87b56dd1461061f578063d0def5211461065c578063dc5df54e14610685576101d8565b8063a3524a04116100d1578063a3524a041461053c578063a80f1e9c14610567578063ad3a358c14610590578063b88d4fde146105b9576101d8565b80638da5cb5b1461048057806395d89b41146104ab578063a203428c146104d6578063a22cb46514610513576101d8565b806342966c681161017a5780636352211e116101495780636352211e146103b257806370a08231146103ef578063715018a61461042c5780638bfaf10114610443576101d8565b806342966c68146103195780634c0eb7d91461034257806350a88c7e1461036d57806355f804b314610389576101d8565b8063095ea7b3116101b6578063095ea7b3146102825780630e065931146102ab57806323b872dd146102c757806342842e0e146102f0576101d8565b806301ffc9a7146101dd57806306fdde031461021a578063081812fc14610245575b600080fd5b3480156101e957600080fd5b5061020460048036038101906101ff919061390f565b61076d565b6040516102119190613957565b60405180910390f35b34801561022657600080fd5b5061022f61084f565b60405161023c9190613a0b565b60405180910390f35b34801561025157600080fd5b5061026c60048036038101906102679190613a63565b6108e1565b6040516102799190613ad1565b60405180910390f35b34801561028e57600080fd5b506102a960048036038101906102a49190613b18565b610966565b005b6102c560048036038101906102c09190613c8d565b610a7e565b005b3480156102d357600080fd5b506102ee60048036038101906102e99190613ce9565b610b4b565b005b3480156102fc57600080fd5b5061031760048036038101906103129190613ce9565b610dfa565b005b34801561032557600080fd5b50610340600480360381019061033b9190613a63565b6110d4565b005b34801561034e57600080fd5b5061035761132c565b6040516103649190613dfa565b60405180910390f35b61038760048036038101906103829190613a63565b6113c7565b005b34801561039557600080fd5b506103b060048036038101906103ab9190613e1c565b6118d8565b005b3480156103be57600080fd5b506103d960048036038101906103d49190613a63565b61196e565b6040516103e69190613ad1565b60405180910390f35b3480156103fb57600080fd5b5061041660048036038101906104119190613e65565b611a20565b6040516104239190613ea1565b60405180910390f35b34801561043857600080fd5b50610441611ad8565b005b34801561044f57600080fd5b5061046a60048036038101906104659190613ebc565b611b60565b6040516104779190613ea1565b60405180910390f35b34801561048c57600080fd5b50610495611c0d565b6040516104a29190613ad1565b60405180910390f35b3480156104b757600080fd5b506104c0611c37565b6040516104cd9190613a0b565b60405180910390f35b3480156104e257600080fd5b506104fd60048036038101906104f89190613a63565b611cc9565b60405161050a9190614053565b60405180910390f35b34801561051f57600080fd5b5061053a600480360381019061053591906140a1565b611e31565b005b34801561054857600080fd5b50610551611fb2565b60405161055e9190613ad1565b60405180910390f35b34801561057357600080fd5b5061058e600480360381019061058991906140e1565b611fd8565b005b34801561059c57600080fd5b506105b760048036038101906105b29190613a63565b612082565b005b3480156105c557600080fd5b506105e060048036038101906105db91906141d5565b6120b1565b005b3480156105ee57600080fd5b5061060960048036038101906106049190614258565b612113565b6040516106169190613957565b60405180910390f35b34801561062b57600080fd5b5061064660048036038101906106419190613a63565b61216c565b6040516106539190613a0b565b60405180910390f35b34801561066857600080fd5b50610683600480360381019061067e91906142d0565b6122df565b005b61069f600480360381019061069a919061432c565b61241e565b005b3480156106ad57600080fd5b506106c860048036038101906106c39190613a63565b612677565b005b3480156106d657600080fd5b506106f160048036038101906106ec919061436c565b6126a6565b6040516106fe9190613957565b60405180910390f35b34801561071357600080fd5b5061072e60048036038101906107299190613e65565b61273a565b005b34801561073c57600080fd5b5061075760048036038101906107529190613a63565b612832565b6040516107649190613957565b60405180910390f35b60007f80ac58cd000000000000000000000000000000000000000000000000000000007bffffffffffffffffffffffffffffffffffffffffffffffffffffffff1916827bffffffffffffffffffffffffffffffffffffffffffffffffffffffff1916148061083857507f5b5e139f000000000000000000000000000000000000000000000000000000007bffffffffffffffffffffffffffffffffffffffffffffffffffffffff1916827bffffffffffffffffffffffffffffffffffffffffffffffffffffffff1916145b8061084857506108478261285c565b5b9050919050565b60606000805461085e906143db565b80601f016020809104026020016040519081016040528092919081815260200182805461088a906143db565b80156108d75780601f106108ac576101008083540402835291602001916108d7565b820191906000526020600020905b8154815290600101906020018083116108ba57829003601f168201915b5050505050905090565b60006108ec826128c6565b61092b576040517f08c379a00000000000000000000000000000000000000000000000000000000081526004016109229061447f565b60405180910390fd5b6004600083815260200190815260200160002060009054906101000a900473ffffffffffffffffffffffffffffffffffffffff169050919050565b60006109718261196e565b90508073ffffffffffffffffffffffffffffffffffffffff168373ffffffffffffffffffffffffffffffffffffffff1614156109e2576040517f08c379a00000000000000000000000000000000000000000000000000000000081526004016109d990614511565b60405180910390fd5b8073ffffffffffffffffffffffffffffffffffffffff16610a01612932565b73ffffffffffffffffffffffffffffffffffffffff161480610a305750610a2f81610a2a612932565b6126a6565b5b610a6f576040517f08c379a0000000000000000000000000000000000000000000000000000000008152600401610a66906145a3565b60405180910390fd5b610a79838361293a565b505050565b610a86612932565b73ffffffffffffffffffffffffffffffffffffffff16610aa4611c0d565b73ffffffffffffffffffffffffffffffffffffffff1614610afa576040517f08c379a0000000000000000000000000000000000000000000000000000000008152600401610af19061460f565b60405180910390fd5b600e600082815260200190815260200160002082908060018154018082558091505060019003906000526020600020016000909190919091509080519060200190610b46929190613714565b505050565b60005b601360003373ffffffffffffffffffffffffffffffffffffffff1673ffffffffffffffffffffffffffffffffffffffff16815260200190815260200160002080549050811015610d83576000601360003373ffffffffffffffffffffffffffffffffffffffff1673ffffffffffffffffffffffffffffffffffffffff1681526020019081526020016000208281548110610beb57610bea61462f565b5b9060005260206000200154905082811415610d6f57601360003373ffffffffffffffffffffffffffffffffffffffff1673ffffffffffffffffffffffffffffffffffffffff1681526020019081526020016000206001601360003373ffffffffffffffffffffffffffffffffffffffff1673ffffffffffffffffffffffffffffffffffffffff16815260200190815260200160002080549050610c8e919061468d565b81548110610c9f57610c9e61462f565b5b9060005260206000200154601360003373ffffffffffffffffffffffffffffffffffffffff1673ffffffffffffffffffffffffffffffffffffffff1681526020019081526020016000208381548110610cfb57610cfa61462f565b5b9060005260206000200181905550601360003373ffffffffffffffffffffffffffffffffffffffff1673ffffffffffffffffffffffffffffffffffffffff168152602001908152602001600020805480610d5857610d576146c1565b5b600190038181906000526020600020016000905590555b508080610d7b906146f0565b915050610b4e565b50601360008373ffffffffffffffffffffffffffffffffffffffff1673ffffffffffffffffffffffffffffffffffffffff168152602001908152602001600020819080600181540180825580915050600190039060005260206000200160009091909190915055610df58383836129f3565b505050565b600c600082815260200190815260200160002060009054906101000a900460ff1615610e2557600080fd5b60005b601360003373ffffffffffffffffffffffffffffffffffffffff1673ffffffffffffffffffffffffffffffffffffffff1681526020019081526020016000208054905081101561105d576000601360003373ffffffffffffffffffffffffffffffffffffffff1673ffffffffffffffffffffffffffffffffffffffff1681526020019081526020016000208281548110610ec557610ec461462f565b5b906000526020600020015490508281141561104957601360003373ffffffffffffffffffffffffffffffffffffffff1673ffffffffffffffffffffffffffffffffffffffff1681526020019081526020016000206001601360003373ffffffffffffffffffffffffffffffffffffffff1673ffffffffffffffffffffffffffffffffffffffff16815260200190815260200160002080549050610f68919061468d565b81548110610f7957610f7861462f565b5b9060005260206000200154601360003373ffffffffffffffffffffffffffffffffffffffff1673ffffffffffffffffffffffffffffffffffffffff1681526020019081526020016000208381548110610fd557610fd461462f565b5b9060005260206000200181905550601360003373ffffffffffffffffffffffffffffffffffffffff1673ffffffffffffffffffffffffffffffffffffffff168152602001908152602001600020805480611032576110316146c1565b5b600190038181906000526020600020016000905590555b508080611055906146f0565b915050610e28565b50601360008373ffffffffffffffffffffffffffffffffffffffff1673ffffffffffffffffffffffffffffffffffffffff1681526020019081526020016000208190806001815401808255809150506001900390600052602060002001600090919091909150556110cf838383612a53565b505050565b6110de3382612a73565b6110e757600080fd5b60005b601360003373ffffffffffffffffffffffffffffffffffffffff1673ffffffffffffffffffffffffffffffffffffffff1681526020019081526020016000208054905081101561131f576000601360003373ffffffffffffffffffffffffffffffffffffffff1673ffffffffffffffffffffffffffffffffffffffff16815260200190815260200160002082815481106111875761118661462f565b5b906000526020600020015490508281141561130b57601360003373ffffffffffffffffffffffffffffffffffffffff1673ffffffffffffffffffffffffffffffffffffffff1681526020019081526020016000206001601360003373ffffffffffffffffffffffffffffffffffffffff1673ffffffffffffffffffffffffffffffffffffffff1681526020019081526020016000208054905061122a919061468d565b8154811061123b5761123a61462f565b5b9060005260206000200154601360003373ffffffffffffffffffffffffffffffffffffffff1673ffffffffffffffffffffffffffffffffffffffff16815260200190815260200160002083815481106112975761129661462f565b5b9060005260206000200181905550601360003373ffffffffffffffffffffffffffffffffffffffff1673ffffffffffffffffffffffffffffffffffffffff1681526020019081526020016000208054806112f4576112f36146c1565b5b600190038181906000526020600020016000905590555b508080611317906146f0565b9150506110ea565b5061132981612b51565b50565b60606000601360003373ffffffffffffffffffffffffffffffffffffffff1673ffffffffffffffffffffffffffffffffffffffff1681526020019081526020016000208054806020026020016040519081016040528092919081815260200182805480156113b957602002820191906000526020600020905b8154815260200190600101908083116113a5575b505050505090508091505090565b6113d13382612a73565b6113da57600080fd5b6000600d60008381526020019081526020016000205490506113fa61379a565b60005b600b6000848152602001908152602001600020548160ff16101561189257600061144361142b6103e8612c62565b600a6000878152602001908152602001600020612cc3565b905060006114726001600e60008581526020019081526020016000208054905061146d919061468d565b612c62565b90506000600e6000848152602001908152602001600020828154811061149b5761149a61462f565b5b9060005260206000200180546114b0906143db565b80601f01602080910402602001604051908101604052809291908181526020018280546114dc906143db565b80156115295780601f106114fe57610100808354040283529160200191611529565b820191906000526020600020905b81548152906001019060200180831161150c57829003601f168201915b50505050509050601160009054906101000a900473ffffffffffffffffffffffffffffffffffffffff1673ffffffffffffffffffffffffffffffffffffffff1663d0def52133836040518363ffffffff1660e01b815260040161158d929190614739565b600060405180830381600087803b1580156115a757600080fd5b505af11580156115bb573d6000803e3d6000fd5b5050505080858560ff16600a81106115d6576115d561462f565b5b60200201819052506000600e6000858152602001908152602001600020805480602002602001604051908101604052809291908181526020016000905b828210156116bf578382906000526020600020018054611632906143db565b80601f016020809104026020016040519081016040528092919081815260200182805461165e906143db565b80156116ab5780601f10611680576101008083540402835291602001916116ab565b820191906000526020600020905b81548152906001019060200180831161168e57829003601f168201915b505050505081526020019060010190611613565b50505050905060005b600e60008681526020019081526020016000208054905081101561187a576000600e6000878152602001908152602001600020828154811061170d5761170c61462f565b5b906000526020600020018054611722906143db565b80601f016020809104026020016040519081016040528092919081815260200182805461174e906143db565b801561179b5780601f106117705761010080835404028352916020019161179b565b820191906000526020600020905b81548152906001019060200180831161177e57829003601f168201915b505050505090506117ac8185612113565b156118665782600184516117c0919061468d565b815181106117d1576117d061462f565b5b60200260200101518383815181106117ec576117eb61462f565b5b602002602001018190525082600e6000888152602001908152602001600020908051906020019061181e9291906137c2565b50600e6000878152602001908152602001600020805480611842576118416146c1565b5b60019003818190600052602060002001600061185e9190613822565b90555061187a565b508080611872906146f0565b9150506116c8565b5050505050808061188a90614776565b9150506113fd565b5061189c836110d4565b7f7a8f71ffa367c677061e81db64480595dffec51888e92c29fd97f628ad7be9bc816040516118cb9190614842565b60405180910390a1505050565b6118e0612932565b73ffffffffffffffffffffffffffffffffffffffff166118fe611c0d565b73ffffffffffffffffffffffffffffffffffffffff1614611954576040517f08c379a000000000000000000000000000000000000000000000000000000000815260040161194b9061460f565b60405180910390fd5b806014908051906020019061196a929190613714565b5050565b6000806002600084815260200190815260200160002060009054906101000a900473ffffffffffffffffffffffffffffffffffffffff169050600073ffffffffffffffffffffffffffffffffffffffff168173ffffffffffffffffffffffffffffffffffffffff161415611a17576040517f08c379a0000000000000000000000000000000000000000000000000000000008152600401611a0e906148d6565b60405180910390fd5b80915050919050565b60008073ffffffffffffffffffffffffffffffffffffffff168273ffffffffffffffffffffffffffffffffffffffff161415611a91576040517f08c379a0000000000000000000000000000000000000000000000000000000008152600401611a8890614968565b60405180910390fd5b600360008373ffffffffffffffffffffffffffffffffffffffff1673ffffffffffffffffffffffffffffffffffffffff168152602001908152602001600020549050919050565b611ae0612932565b73ffffffffffffffffffffffffffffffffffffffff16611afe611c0d565b73ffffffffffffffffffffffffffffffffffffffff1614611b54576040517f08c379a0000000000000000000000000000000000000000000000000000000008152600401611b4b9061460f565b60405180910390fd5b611b5e6000612d15565b565b60006001600984604051611b7491906149c4565b908152602001604051809103902060009054906101000a900460ff1660ff161415611b9e57600080fd5b6001600984604051611bb091906149c4565b908152602001604051809103902060006101000a81548160ff021916908360ff160217905550611be06007612ddb565b6000611bec6007612df1565b9050611bf88582612dff565b611c028184612fcd565b809150509392505050565b6000600660009054906101000a900473ffffffffffffffffffffffffffffffffffffffff16905090565b606060018054611c46906143db565b80601f0160208091040260200160405190810160405280929190818152602001828054611c72906143db565b8015611cbf5780601f10611c9457610100808354040283529160200191611cbf565b820191906000526020600020905b815481529060010190602001808311611ca257829003601f168201915b5050505050905090565b6060611cd3612932565b73ffffffffffffffffffffffffffffffffffffffff16611cf1611c0d565b73ffffffffffffffffffffffffffffffffffffffff1614611d47576040517f08c379a0000000000000000000000000000000000000000000000000000000008152600401611d3e9061460f565b60405180910390fd5b600e6000838152602001908152602001600020805480602002602001604051908101604052809291908181526020016000905b82821015611e26578382906000526020600020018054611d99906143db565b80601f0160208091040260200160405190810160405280929190818152602001828054611dc5906143db565b8015611e125780601f10611de757610100808354040283529160200191611e12565b820191906000526020600020905b815481529060010190602001808311611df557829003601f168201915b505050505081526020019060010190611d7a565b505050509050919050565b611e39612932565b73ffffffffffffffffffffffffffffffffffffffff168273ffffffffffffffffffffffffffffffffffffffff161415611ea7576040517f08c379a0000000000000000000000000000000000000000000000000000000008152600401611e9e90614a27565b60405180910390fd5b8060056000611eb4612932565b73ffffffffffffffffffffffffffffffffffffffff1673ffffffffffffffffffffffffffffffffffffffff16815260200190815260200160002060008473ffffffffffffffffffffffffffffffffffffffff1673ffffffffffffffffffffffffffffffffffffffff16815260200190815260200160002060006101000a81548160ff0219169083151502179055508173ffffffffffffffffffffffffffffffffffffffff16611f61612932565b73ffffffffffffffffffffffffffffffffffffffff167f17307eab39ab6107e8899845ad3d59bd9653f200f220920489ca2b5937696c3183604051611fa69190613957565b60405180910390a35050565b601060009054906101000a900473ffffffffffffffffffffffffffffffffffffffff1681565b611fe0612932565b73ffffffffffffffffffffffffffffffffffffffff16611ffe611c0d565b73ffffffffffffffffffffffffffffffffffffffff1614612054576040517f08c379a000000000000000000000000000000000000000000000000000000000815260040161204b9061460f565b60405180910390fd5b80600a6000858152602001908152602001600020600084815260200190815260200160002081905550505050565b6000600c600083815260200190815260200160002060006101000a81548160ff02191690831515021790555050565b6120c26120bc612932565b83612a73565b612101576040517f08c379a00000000000000000000000000000000000000000000000000000000081526004016120f890614ab9565b60405180910390fd5b61210d84848484613041565b50505050565b60008160405160200161212691906149c4565b604051602081830303815290604052805190602001208360405160200161214d91906149c4565b6040516020818303038152906040528051906020012014905092915050565b6060612177826128c6565b6121b6576040517f08c379a00000000000000000000000000000000000000000000000000000000081526004016121ad90614b4b565b60405180910390fd5b60006012600084815260200190815260200160002080546121d6906143db565b80601f0160208091040260200160405190810160405280929190818152602001828054612202906143db565b801561224f5780601f106122245761010080835404028352916020019161224f565b820191906000526020600020905b81548152906001019060200180831161223257829003601f168201915b50505050509050600061226061309d565b90506000815114156122765781925050506122da565b6000825111156122ab578082604051602001612293929190614b6b565b604051602081830303815290604052925050506122da565b806122b58561312f565b6040516020016122c6929190614b6b565b604051602081830303815290604052925050505b919050565b6122e7612932565b73ffffffffffffffffffffffffffffffffffffffff16612305611c0d565b73ffffffffffffffffffffffffffffffffffffffff161461235b576040517f08c379a00000000000000000000000000000000000000000000000000000000081526004016123529061460f565b60405180910390fd5b6123656007612ddb565b60006123716007612df1565b905061237d8382613290565b601360008473ffffffffffffffffffffffffffffffffffffffff1673ffffffffffffffffffffffffffffffffffffffff1681526020019081526020016000208190806001815401808255809150506001900390600052602060002001600090919091909150556000600c600083815260200190815260200160002060006101000a81548160ff0219169083151502179055506124198183612fcd565b505050565b612426612932565b73ffffffffffffffffffffffffffffffffffffffff16612444611c0d565b73ffffffffffffffffffffffffffffffffffffffff161461249a576040517f08c379a00000000000000000000000000000000000000000000000000000000081526004016124919061460f565b60405180910390fd5b6000600e6000848152602001908152602001600020805480602002602001604051908101604052809291908181526020016000905b8282101561257b5783829060005260206000200180546124ee906143db565b80601f016020809104026020016040519081016040528092919081815260200182805461251a906143db565b80156125675780601f1061253c57610100808354040283529160200191612567565b820191906000526020600020905b81548152906001019060200180831161254a57829003601f168201915b5050505050815260200190600101906124cf565b50505050905060005b600e600085815260200190815260200160002080549050811015612671578281141561265e5781600183516125b9919061468d565b815181106125ca576125c961462f565b5b60200260200101518282815181106125e5576125e461462f565b5b602002602001018190525081600e600086815260200190815260200160002090805190602001906126179291906137c2565b50600e600085815260200190815260200160002080548061263b5761263a6146c1565b5b6001900381819060005260206000200160006126579190613822565b9055612671565b8080612669906146f0565b915050612584565b50505050565b6001600c600083815260200190815260200160002060006101000a81548160ff02191690831515021790555050565b6000600560008473ffffffffffffffffffffffffffffffffffffffff1673ffffffffffffffffffffffffffffffffffffffff16815260200190815260200160002060008373ffffffffffffffffffffffffffffffffffffffff1673ffffffffffffffffffffffffffffffffffffffff16815260200190815260200160002060009054906101000a900460ff16905092915050565b612742612932565b73ffffffffffffffffffffffffffffffffffffffff16612760611c0d565b73ffffffffffffffffffffffffffffffffffffffff16146127b6576040517f08c379a00000000000000000000000000000000000000000000000000000000081526004016127ad9061460f565b60405180910390fd5b600073ffffffffffffffffffffffffffffffffffffffff168173ffffffffffffffffffffffffffffffffffffffff161415612826576040517f08c379a000000000000000000000000000000000000000000000000000000000815260040161281d90614c01565b60405180910390fd5b61282f81612d15565b50565b6000600c600083815260200190815260200160002060009054906101000a900460ff169050919050565b60007f01ffc9a7000000000000000000000000000000000000000000000000000000007bffffffffffffffffffffffffffffffffffffffffffffffffffffffff1916827bffffffffffffffffffffffffffffffffffffffffffffffffffffffff1916149050919050565b60008073ffffffffffffffffffffffffffffffffffffffff166002600084815260200190815260200160002060009054906101000a900473ffffffffffffffffffffffffffffffffffffffff1673ffffffffffffffffffffffffffffffffffffffff1614159050919050565b600033905090565b816004600083815260200190815260200160002060006101000a81548173ffffffffffffffffffffffffffffffffffffffff021916908373ffffffffffffffffffffffffffffffffffffffff160217905550808273ffffffffffffffffffffffffffffffffffffffff166129ad8361196e565b73ffffffffffffffffffffffffffffffffffffffff167f8c5be1e5ebec7d5bd14f71427d1e84f3dd0314c0f7b2291e5b200ac8c7c3b92560405160405180910390a45050565b612a046129fe612932565b82612a73565b612a43576040517f08c379a0000000000000000000000000000000000000000000000000000000008152600401612a3a90614ab9565b60405180910390fd5b612a4e8383836132ae565b505050565b612a6e838383604051806020016040528060008152506120b1565b505050565b6000612a7e826128c6565b612abd576040517f08c379a0000000000000000000000000000000000000000000000000000000008152600401612ab490614c93565b60405180910390fd5b6000612ac88361196e565b90508073ffffffffffffffffffffffffffffffffffffffff168473ffffffffffffffffffffffffffffffffffffffff161480612b3757508373ffffffffffffffffffffffffffffffffffffffff16612b1f846108e1565b73ffffffffffffffffffffffffffffffffffffffff16145b80612b485750612b4781856126a6565b5b91505092915050565b6000612b5c8261196e565b9050612b6a8160008461350a565b612b7560008361293a565b6001600360008373ffffffffffffffffffffffffffffffffffffffff1673ffffffffffffffffffffffffffffffffffffffff1681526020019081526020016000206000828254612bc5919061468d565b925050819055506002600083815260200190815260200160002060006101000a81549073ffffffffffffffffffffffffffffffffffffffff021916905581600073ffffffffffffffffffffffffffffffffffffffff168273ffffffffffffffffffffffffffffffffffffffff167fddf252ad1be2c89b69c2b068fc378daa952ba7f163c4a11628f55a4df523b3ef60405160405180910390a45050565b600080824233601554604051602001612c7d93929190614d1c565b6040516020818303038152906040528051906020012060001c612ca09190614d88565b905060156000815480929190612cb5906146f0565b919050555080915050919050565b600080600090505b600f54811215612d0a57826000828152602001908152602001600020548411612cf75780915050612d0f565b8080612d02906146f0565b915050612ccb565b809150505b92915050565b6000600660009054906101000a900473ffffffffffffffffffffffffffffffffffffffff16905081600660006101000a81548173ffffffffffffffffffffffffffffffffffffffff021916908373ffffffffffffffffffffffffffffffffffffffff1602179055508173ffffffffffffffffffffffffffffffffffffffff168173ffffffffffffffffffffffffffffffffffffffff167f8be0079c531659141344cd1fd0a4f28419497f9722a3daafe3b4186f6b6457e060405160405180910390a35050565b6001816000016000828254019250508190555050565b600081600001549050919050565b600073ffffffffffffffffffffffffffffffffffffffff168273ffffffffffffffffffffffffffffffffffffffff161415612e6f576040517f08c379a0000000000000000000000000000000000000000000000000000000008152600401612e6690614e05565b60405180910390fd5b612e78816128c6565b15612eb8576040517f08c379a0000000000000000000000000000000000000000000000000000000008152600401612eaf90614e71565b60405180910390fd5b612ec46000838361350a565b6001600360008473ffffffffffffffffffffffffffffffffffffffff1673ffffffffffffffffffffffffffffffffffffffff1681526020019081526020016000206000828254612f149190614e91565b92505081905550816002600083815260200190815260200160002060006101000a81548173ffffffffffffffffffffffffffffffffffffffff021916908373ffffffffffffffffffffffffffffffffffffffff160217905550808273ffffffffffffffffffffffffffffffffffffffff16600073ffffffffffffffffffffffffffffffffffffffff167fddf252ad1be2c89b69c2b068fc378daa952ba7f163c4a11628f55a4df523b3ef60405160405180910390a45050565b612fd6826128c6565b613015576040517f08c379a000000000000000000000000000000000000000000000000000000000815260040161300c90614f59565b60405180910390fd5b8060126000848152602001908152602001600020908051906020019061303c929190613714565b505050565b61304c8484846132ae565b6130588484848461350f565b613097576040517f08c379a000000000000000000000000000000000000000000000000000000000815260040161308e90614feb565b60405180910390fd5b50505050565b6060601480546130ac906143db565b80601f01602080910402602001604051908101604052809291908181526020018280546130d8906143db565b80156131255780601f106130fa57610100808354040283529160200191613125565b820191906000526020600020905b81548152906001019060200180831161310857829003601f168201915b5050505050905090565b60606000821415613177576040518060400160405280600181526020017f3000000000000000000000000000000000000000000000000000000000000000815250905061328b565b600082905060005b600082146131a9578080613192906146f0565b915050600a826131a2919061500b565b915061317f565b60008167ffffffffffffffff8111156131c5576131c4613b62565b5b6040519080825280601f01601f1916602001820160405280156131f75781602001600182028036833780820191505090505b5090505b6000851461328457600182613210919061468d565b9150600a8561321f9190614d88565b603061322b9190614e91565b60f81b8183815181106132415761324061462f565b5b60200101907effffffffffffffffffffffffffffffffffffffffffffffffffffffffffffff1916908160001a905350600a8561327d919061500b565b94506131fb565b8093505050505b919050565b6132aa8282604051806020016040528060008152506136a6565b5050565b8273ffffffffffffffffffffffffffffffffffffffff166132ce8261196e565b73ffffffffffffffffffffffffffffffffffffffff1614613324576040517f08c379a000000000000000000000000000000000000000000000000000000000815260040161331b906150ae565b60405180910390fd5b600073ffffffffffffffffffffffffffffffffffffffff168273ffffffffffffffffffffffffffffffffffffffff161415613394576040517f08c379a000000000000000000000000000000000000000000000000000000000815260040161338b90615140565b60405180910390fd5b61339f83838361350a565b6133aa60008261293a565b6001600360008573ffffffffffffffffffffffffffffffffffffffff1673ffffffffffffffffffffffffffffffffffffffff16815260200190815260200160002060008282546133fa919061468d565b925050819055506001600360008473ffffffffffffffffffffffffffffffffffffffff1673ffffffffffffffffffffffffffffffffffffffff16815260200190815260200160002060008282546134519190614e91565b92505081905550816002600083815260200190815260200160002060006101000a81548173ffffffffffffffffffffffffffffffffffffffff021916908373ffffffffffffffffffffffffffffffffffffffff160217905550808273ffffffffffffffffffffffffffffffffffffffff168473ffffffffffffffffffffffffffffffffffffffff167fddf252ad1be2c89b69c2b068fc378daa952ba7f163c4a11628f55a4df523b3ef60405160405180910390a4505050565b505050565b60006135308473ffffffffffffffffffffffffffffffffffffffff16613701565b15613699578373ffffffffffffffffffffffffffffffffffffffff1663150b7a02613559612932565b8786866040518563ffffffff1660e01b815260040161357b94939291906151b5565b602060405180830381600087803b15801561359557600080fd5b505af19250505080156135c657506040513d601f19601f820116820180604052508101906135c39190615216565b60015b613649573d80600081146135f6576040519150601f19603f3d011682016040523d82523d6000602084013e6135fb565b606091505b50600081511415613641576040517f08c379a000000000000000000000000000000000000000000000000000000000815260040161363890614feb565b60405180910390fd5b805181602001fd5b63150b7a0260e01b7bffffffffffffffffffffffffffffffffffffffffffffffffffffffff1916817bffffffffffffffffffffffffffffffffffffffffffffffffffffffff19161491505061369e565b600190505b949350505050565b6136b08383612dff565b6136bd600084848461350f565b6136fc576040517f08c379a00000000000000000000000000000000000000000000000000000000081526004016136f390614feb565b60405180910390fd5b505050565b600080823b905060008111915050919050565b828054613720906143db565b90600052602060002090601f0160209004810192826137425760008555613789565b82601f1061375b57805160ff1916838001178555613789565b82800160010185558215613789579182015b8281111561378857825182559160200191906001019061376d565b5b5090506137969190613862565b5090565b604051806101400160405280600a905b60608152602001906001900390816137aa5790505090565b828054828255906000526020600020908101928215613811579160200282015b82811115613810578251829080519060200190613800929190613714565b50916020019190600101906137e2565b5b50905061381e919061387f565b5090565b50805461382e906143db565b6000825580601f10613840575061385f565b601f01602090049060005260206000209081019061385e9190613862565b5b50565b5b8082111561387b576000816000905550600101613863565b5090565b5b8082111561389f57600081816138969190613822565b50600101613880565b5090565b6000604051905090565b600080fd5b600080fd5b60007fffffffff0000000000000000000000000000000000000000000000000000000082169050919050565b6138ec816138b7565b81146138f757600080fd5b50565b600081359050613909816138e3565b92915050565b600060208284031215613925576139246138ad565b5b6000613933848285016138fa565b91505092915050565b60008115159050919050565b6139518161393c565b82525050565b600060208201905061396c6000830184613948565b92915050565b600081519050919050565b600082825260208201905092915050565b60005b838110156139ac578082015181840152602081019050613991565b838111156139bb576000848401525b50505050565b6000601f19601f8301169050919050565b60006139dd82613972565b6139e7818561397d565b93506139f781856020860161398e565b613a00816139c1565b840191505092915050565b60006020820190508181036000830152613a2581846139d2565b905092915050565b6000819050919050565b613a4081613a2d565b8114613a4b57600080fd5b50565b600081359050613a5d81613a37565b92915050565b600060208284031215613a7957613a786138ad565b5b6000613a8784828501613a4e565b91505092915050565b600073ffffffffffffffffffffffffffffffffffffffff82169050919050565b6000613abb82613a90565b9050919050565b613acb81613ab0565b82525050565b6000602082019050613ae66000830184613ac2565b92915050565b613af581613ab0565b8114613b0057600080fd5b50565b600081359050613b1281613aec565b92915050565b60008060408385031215613b2f57613b2e6138ad565b5b6000613b3d85828601613b03565b9250506020613b4e85828601613a4e565b9150509250929050565b600080fd5b600080fd5b7f4e487b7100000000000000000000000000000000000000000000000000000000600052604160045260246000fd5b613b9a826139c1565b810181811067ffffffffffffffff82111715613bb957613bb8613b62565b5b80604052505050565b6000613bcc6138a3565b9050613bd88282613b91565b919050565b600067ffffffffffffffff821115613bf857613bf7613b62565b5b613c01826139c1565b9050602081019050919050565b82818337600083830152505050565b6000613c30613c2b84613bdd565b613bc2565b905082815260208101848484011115613c4c57613c4b613b5d565b5b613c57848285613c0e565b509392505050565b600082601f830112613c7457613c73613b58565b5b8135613c84848260208601613c1d565b91505092915050565b60008060408385031215613ca457613ca36138ad565b5b600083013567ffffffffffffffff811115613cc257613cc16138b2565b5b613cce85828601613c5f565b9250506020613cdf85828601613a4e565b9150509250929050565b600080600060608486031215613d0257613d016138ad565b5b6000613d1086828701613b03565b9350506020613d2186828701613b03565b9250506040613d3286828701613a4e565b9150509250925092565b600081519050919050565b600082825260208201905092915050565b6000819050602082019050919050565b613d7181613a2d565b82525050565b6000613d838383613d68565b60208301905092915050565b6000602082019050919050565b6000613da782613d3c565b613db18185613d47565b9350613dbc83613d58565b8060005b83811015613ded578151613dd48882613d77565b9750613ddf83613d8f565b925050600181019050613dc0565b5085935050505092915050565b60006020820190508181036000830152613e148184613d9c565b905092915050565b600060208284031215613e3257613e316138ad565b5b600082013567ffffffffffffffff811115613e5057613e4f6138b2565b5b613e5c84828501613c5f565b91505092915050565b600060208284031215613e7b57613e7a6138ad565b5b6000613e8984828501613b03565b91505092915050565b613e9b81613a2d565b82525050565b6000602082019050613eb66000830184613e92565b92915050565b600080600060608486031215613ed557613ed46138ad565b5b6000613ee386828701613b03565b935050602084013567ffffffffffffffff811115613f0457613f036138b2565b5b613f1086828701613c5f565b925050604084013567ffffffffffffffff811115613f3157613f306138b2565b5b613f3d86828701613c5f565b9150509250925092565b600081519050919050565b600082825260208201905092915050565b6000819050602082019050919050565b600082825260208201905092915050565b6000613f8f82613972565b613f998185613f73565b9350613fa981856020860161398e565b613fb2816139c1565b840191505092915050565b6000613fc98383613f84565b905092915050565b6000602082019050919050565b6000613fe982613f47565b613ff38185613f52565b93508360208202850161400585613f63565b8060005b8581101561404157848403895281516140228582613fbd565b945061402d83613fd1565b925060208a01995050600181019050614009565b50829750879550505050505092915050565b6000602082019050818103600083015261406d8184613fde565b905092915050565b61407e8161393c565b811461408957600080fd5b50565b60008135905061409b81614075565b92915050565b600080604083850312156140b8576140b76138ad565b5b60006140c685828601613b03565b92505060206140d78582860161408c565b9150509250929050565b6000806000606084860312156140fa576140f96138ad565b5b600061410886828701613a4e565b935050602061411986828701613a4e565b925050604061412a86828701613a4e565b9150509250925092565b600067ffffffffffffffff82111561414f5761414e613b62565b5b614158826139c1565b9050602081019050919050565b600061417861417384614134565b613bc2565b90508281526020810184848401111561419457614193613b5d565b5b61419f848285613c0e565b509392505050565b600082601f8301126141bc576141bb613b58565b5b81356141cc848260208601614165565b91505092915050565b600080600080608085870312156141ef576141ee6138ad565b5b60006141fd87828801613b03565b945050602061420e87828801613b03565b935050604061421f87828801613a4e565b925050606085013567ffffffffffffffff8111156142405761423f6138b2565b5b61424c878288016141a7565b91505092959194509250565b6000806040838503121561426f5761426e6138ad565b5b600083013567ffffffffffffffff81111561428d5761428c6138b2565b5b61429985828601613c5f565b925050602083013567ffffffffffffffff8111156142ba576142b96138b2565b5b6142c685828601613c5f565b9150509250929050565b600080604083850312156142e7576142e66138ad565b5b60006142f585828601613b03565b925050602083013567ffffffffffffffff811115614316576143156138b2565b5b61432285828601613c5f565b9150509250929050565b60008060408385031215614343576143426138ad565b5b600061435185828601613a4e565b925050602061436285828601613a4e565b9150509250929050565b60008060408385031215614383576143826138ad565b5b600061439185828601613b03565b92505060206143a285828601613b03565b9150509250929050565b7f4e487b7100000000000000000000000000000000000000000000000000000000600052602260045260246000fd5b600060028204905060018216806143f357607f821691505b60208210811415614407576144066143ac565b5b50919050565b7f4552433732313a20617070726f76656420717565727920666f72206e6f6e657860008201527f697374656e7420746f6b656e0000000000000000000000000000000000000000602082015250565b6000614469602c8361397d565b91506144748261440d565b604082019050919050565b600060208201905081810360008301526144988161445c565b9050919050565b7f4552433732313a20617070726f76616c20746f2063757272656e74206f776e6560008201527f7200000000000000000000000000000000000000000000000000000000000000602082015250565b60006144fb60218361397d565b91506145068261449f565b604082019050919050565b6000602082019050818103600083015261452a816144ee565b9050919050565b7f4552433732313a20617070726f76652063616c6c6572206973206e6f74206f7760008201527f6e6572206e6f7220617070726f76656420666f7220616c6c0000000000000000602082015250565b600061458d60388361397d565b915061459882614531565b604082019050919050565b600060208201905081810360008301526145bc81614580565b9050919050565b7f4f776e61626c653a2063616c6c6572206973206e6f7420746865206f776e6572600082015250565b60006145f960208361397d565b9150614604826145c3565b602082019050919050565b60006020820190508181036000830152614628816145ec565b9050919050565b7f4e487b7100000000000000000000000000000000000000000000000000000000600052603260045260246000fd5b7f4e487b7100000000000000000000000000000000000000000000000000000000600052601160045260246000fd5b600061469882613a2d565b91506146a383613a2d565b9250828210156146b6576146b561465e565b5b828203905092915050565b7f4e487b7100000000000000000000000000000000000000000000000000000000600052603160045260246000fd5b60006146fb82613a2d565b91507fffffffffffffffffffffffffffffffffffffffffffffffffffffffffffffffff82141561472e5761472d61465e565b5b600182019050919050565b600060408201905061474e6000830185613ac2565b818103602083015261476081846139d2565b90509392505050565b600060ff82169050919050565b600061478182614769565b915060ff8214156147955761479461465e565b5b600182019050919050565b6000600a9050919050565b600081905092915050565b6000819050919050565b6000602082019050919050565b60006147d8826147a0565b6147e281856147ab565b9350836020820285016147f4856147b6565b8060005b8581101561483057848403895281516148118582613fbd565b945061481c836147c0565b925060208a019950506001810190506147f8565b50829750879550505050505092915050565b6000602082019050818103600083015261485c81846147cd565b905092915050565b7f4552433732313a206f776e657220717565727920666f72206e6f6e657869737460008201527f656e7420746f6b656e0000000000000000000000000000000000000000000000602082015250565b60006148c060298361397d565b91506148cb82614864565b604082019050919050565b600060208201905081810360008301526148ef816148b3565b9050919050565b7f4552433732313a2062616c616e636520717565727920666f7220746865207a6560008201527f726f206164647265737300000000000000000000000000000000000000000000602082015250565b6000614952602a8361397d565b915061495d826148f6565b604082019050919050565b6000602082019050818103600083015261498181614945565b9050919050565b600081905092915050565b600061499e82613972565b6149a88185614988565b93506149b881856020860161398e565b80840191505092915050565b60006149d08284614993565b915081905092915050565b7f4552433732313a20617070726f766520746f2063616c6c657200000000000000600082015250565b6000614a1160198361397d565b9150614a1c826149db565b602082019050919050565b60006020820190508181036000830152614a4081614a04565b9050919050565b7f4552433732313a207472616e736665722063616c6c6572206973206e6f74206f60008201527f776e6572206e6f7220617070726f766564000000000000000000000000000000602082015250565b6000614aa360318361397d565b9150614aae82614a47565b604082019050919050565b60006020820190508181036000830152614ad281614a96565b9050919050565b7f4552433732314d657461646174613a2055524920717565727920666f72206e6f60008201527f6e6578697374656e7420746f6b656e0000000000000000000000000000000000602082015250565b6000614b35602f8361397d565b9150614b4082614ad9565b604082019050919050565b60006020820190508181036000830152614b6481614b28565b9050919050565b6000614b778285614993565b9150614b838284614993565b91508190509392505050565b7f4f776e61626c653a206e6577206f776e657220697320746865207a65726f206160008201527f6464726573730000000000000000000000000000000000000000000000000000602082015250565b6000614beb60268361397d565b9150614bf682614b8f565b604082019050919050565b60006020820190508181036000830152614c1a81614bde565b9050919050565b7f4552433732313a206f70657261746f7220717565727920666f72206e6f6e657860008201527f697374656e7420746f6b656e0000000000000000000000000000000000000000602082015250565b6000614c7d602c8361397d565b9150614c8882614c21565b604082019050919050565b60006020820190508181036000830152614cac81614c70565b9050919050565b6000819050919050565b614cce614cc982613a2d565b614cb3565b82525050565b60008160601b9050919050565b6000614cec82614cd4565b9050919050565b6000614cfe82614ce1565b9050919050565b614d16614d1182613ab0565b614cf3565b82525050565b6000614d288286614cbd565b602082019150614d388285614d05565b601482019150614d488284614cbd565b602082019150819050949350505050565b7f4e487b7100000000000000000000000000000000000000000000000000000000600052601260045260246000fd5b6000614d9382613a2d565b9150614d9e83613a2d565b925082614dae57614dad614d59565b5b828206905092915050565b7f4552433732313a206d696e7420746f20746865207a65726f2061646472657373600082015250565b6000614def60208361397d565b9150614dfa82614db9565b602082019050919050565b60006020820190508181036000830152614e1e81614de2565b9050919050565b7f4552433732313a20746f6b656e20616c7265616479206d696e74656400000000600082015250565b6000614e5b601c8361397d565b9150614e6682614e25565b602082019050919050565b60006020820190508181036000830152614e8a81614e4e565b9050919050565b6000614e9c82613a2d565b9150614ea783613a2d565b9250827fffffffffffffffffffffffffffffffffffffffffffffffffffffffffffffffff03821115614edc57614edb61465e565b5b828201905092915050565b7f4552433732314d657461646174613a2055524920736574206f66206e6f6e657860008201527f697374656e7420746f6b656e0000000000000000000000000000000000000000602082015250565b6000614f43602c8361397d565b9150614f4e82614ee7565b604082019050919050565b60006020820190508181036000830152614f7281614f36565b9050919050565b7f4552433732313a207472616e7366657220746f206e6f6e20455243373231526560008201527f63656976657220696d706c656d656e7465720000000000000000000000000000602082015250565b6000614fd560328361397d565b9150614fe082614f79565b604082019050919050565b6000602082019050818103600083015261500481614fc8565b9050919050565b600061501682613a2d565b915061502183613a2d565b92508261503157615030614d59565b5b828204905092915050565b7f4552433732313a207472616e73666572206f6620746f6b656e2074686174206960008201527f73206e6f74206f776e0000000000000000000000000000000000000000000000602082015250565b600061509860298361397d565b91506150a38261503c565b604082019050919050565b600060208201905081810360008301526150c78161508b565b9050919050565b7f4552433732313a207472616e7366657220746f20746865207a65726f2061646460008201527f7265737300000000000000000000000000000000000000000000000000000000602082015250565b600061512a60248361397d565b9150615135826150ce565b604082019050919050565b600060208201905081810360008301526151598161511d565b9050919050565b600081519050919050565b600082825260208201905092915050565b600061518782615160565b615191818561516b565b93506151a181856020860161398e565b6151aa816139c1565b840191505092915050565b60006080820190506151ca6000830187613ac2565b6151d76020830186613ac2565b6151e46040830185613e92565b81810360608301526151f6818461517c565b905095945050505050565b600081519050615210816138e3565b92915050565b60006020828403121561522c5761522b6138ad565b5b600061523a84828501615201565b9150509291505056fea2646970667358221220ab3097d8e1e6dbc33bda934a3d040964c40d463c14e8be14686f1e5e0bbd1f2864736f6c63430008090033",
  "immutableReferences": {},
  "source": "pragma solidity ^0.8.0;\n\nimport \"@openzeppelin/contracts/token/ERC721/ERC721.sol\";\nimport \"@openzeppelin/contracts/utils/Counters.sol\";\nimport \"@openzeppelin/contracts/access/Ownable.sol\";\nimport \"@imtbl/imx-contracts/contracts/Mintable.sol\";\n\nimport \"./RandomNumber.sol\";\nimport \"./ViridianNFT.sol\";\n\ncontract ViridianPack is ERC721, Ownable { //, Mintable {\n\n    using Counters for Counters.Counter;\n    Counters.Counter private _tokenIds;\n    Counters.Counter private _unmintedTokenIds;\n    mapping(string => uint8) hashes;\n    mapping(uint256 => mapping(uint256 => uint256)) private rarityOdds;\n    mapping(uint256 => uint256) private numNFTs;\n    //mapping(uint256 => string) private unmintedURIs;\n    mapping (uint256 => bool) private _tokensListed;\n    mapping(uint256 => uint256) tokenRarity;\n    mapping(uint256 => string[]) private uriRarityPools;\n    int private maxRarityIndex;\n\n    address public viridianNFTAddr;\n\n    ViridianNFT vNFT;\n\n    using Strings for uint256;\n\n    //constructor(address _imx) ERC721(\"Viridian Pack\", \"VP\") Mintable(msg.sender, _imx) {\n\n    constructor(address _viridianNFT) ERC721(\"Viridian Pack\", \"VP\") {\n\n        require(address(_viridianNFT) != address(0));\n\n        viridianNFTAddr = _viridianNFT;\n\n        vNFT = ViridianNFT(viridianNFTAddr);\n\n        //Set all beginning rarities\n\n        // Legendary rarity and cards in pack\n        rarityOdds[0][0] = 25;\n        rarityOdds[0][1] = 100;\n        rarityOdds[0][2] = 300;\n        rarityOdds[0][3] = 1000;\n        numNFTs[0] = 3;\n\n        // Mystical rarity and cards in pack\n        rarityOdds[1][0] = 1;\n        rarityOdds[1][1] = 50;\n        rarityOdds[1][2] = 200;\n        rarityOdds[1][3] = 1000;\n        numNFTs[0] = 3;\n\n        // Rare rarity and cards in pack\n        rarityOdds[1][0] = 0;\n        rarityOdds[1][1] = 50;\n        rarityOdds[1][2] = 100;\n        rarityOdds[1][3] = 1000;\n        numNFTs[0] = 3;\n\n        // Common rarity and cards in pack\n        rarityOdds[2][0] = 0;\n        rarityOdds[2][1] = 10;\n        rarityOdds[2][2] = 50;\n        rarityOdds[2][3] = 1000;\n        numNFTs[0] = 3;\n\n        maxRarityIndex = 3;\n    }\n\n    event Open(string[10] newUris);\n    \n    // Optional mapping for token URIs\n    mapping (uint256 => string) private _tokenURIs;\n\n    mapping (address => uint256[]) private _ownedNFTs;\n\n    //address private viridianExchangeAddress;\n\n    // Base URI\n    string private _baseURIextended;\n    \n    function setBaseURI(string memory baseURI_) external onlyOwner() {\n        _baseURIextended = baseURI_;\n    }\n    \n    function _setTokenURI(uint256 tokenId, string memory _tokenURI) internal virtual {\n        require(_exists(tokenId), \"ERC721Metadata: URI set of nonexistent token\");\n        _tokenURIs[tokenId] = _tokenURI;\n    }\n    \n    function _baseURI() internal view virtual override returns (string memory) {\n        return _baseURIextended;\n    }\n    \n    function tokenURI(uint256 tokenId) public view virtual override returns (string memory) {\n        require(_exists(tokenId), \"ERC721Metadata: URI query for nonexistent token\");\n\n        string memory _tokenURI = _tokenURIs[tokenId];\n        string memory base = _baseURI();\n        \n        // If there is no base URI, return the token URI.\n        if (bytes(base).length == 0) {\n            return _tokenURI;\n        }\n        // If both are set, concatenate the baseURI and tokenURI (via abi.encodePacked).\n        if (bytes(_tokenURI).length > 0) {\n            return string(abi.encodePacked(base, _tokenURI));\n        }\n        // If there is a baseURI but no tokenURI, concatenate the tokenID to the baseURI.\n        return string(abi.encodePacked(base, tokenId.toString()));\n    }\n\n    function getUriRarityPools(uint256 _rarity) public view onlyOwner() returns (string[] memory) {\n        return uriRarityPools[_rarity];\n    }\n\n    function getOwnedNFTs() public view virtual returns (uint256[] memory) {\n        uint256[] memory _tokens = _ownedNFTs[msg.sender];\n        \n        return _tokens;\n    }\n\n    function setRarityOdds(uint256 _rarity, uint256 _rarityOdd, uint256 _newOdds) external onlyOwner() {\n        rarityOdds[_rarity][_rarityOdd] = _newOdds;\n    }\n\n    function isListed(uint256 tokenId) public view returns (bool) {\n        return _tokensListed[tokenId];\n    }\n\n    function mint(\n        address _to,\n        string memory tokenURI_\n    ) external onlyOwner() {\n        _tokenIds.increment();\n        uint256 _tokenId = _tokenIds.current();\n\n        _safeMint(_to, _tokenId);\n        _ownedNFTs[_to].push(_tokenId);\n        _tokensListed[_tokenId] = false;\n        _setTokenURI(_tokenId, tokenURI_);\n    }\n\n    // function mintFor(\n    //     address user,\n    //     uint256 quantity,\n    //     bytes calldata mintingBlob\n    // ) external override onlyIMX {\n    //     require(quantity == 1, \"Mintable: invalid quantity\");\n    //     (uint256 id, bytes memory blueprint) = Minting.split(mintingBlob);\n    //     _mintFor(user, id, blueprint);\n    //     blueprints[id] = blueprint;\n    //     emit AssetMinted(user, id, blueprint);\n    // }\n\n    //TODO: THIS IS NOT TO BE USED IN FINAL DEPLOYED IMPLEMENTATION, convert to LINK VRF for TESTNET and ESPECIALLY MAINNET!!!\n    uint nonce;\n\n\n    function random(uint range) internal returns (uint) {\n        uint randomnumber = uint(keccak256(abi.encodePacked(block.timestamp, msg.sender, nonce))) % range;\n        randomnumber = randomnumber;\n        nonce++;\n\n        return randomnumber;\n    }\n\n    function calculateWeightedOdds(uint256 randomNum, mapping(uint256 => uint256) storage rarityOdd) private view returns (uint) {\n        uint256 n;\n\n        for (n = 0; int(n) < int(maxRarityIndex); n++) {\n            if (randomNum <= rarityOdd[n]) {\n                return n;\n            }\n        }\n\n        return n;\n    }\n\n    function softMintNFT(string memory uri, uint256 rarity) public onlyOwner() payable {\n        uriRarityPools[rarity].push(uri);\n    }\n\n    function burnSoftMintedNFTAtRarityIndex(uint256 rarity, uint256 index) public onlyOwner() payable {\n        string[] memory curRarityPool = uriRarityPools[rarity];\n            for (uint i = 0; i < uriRarityPools[rarity].length; i++) {\n                if (i == index) {\n                    curRarityPool[i] = curRarityPool[curRarityPool.length - 1];\n                    uriRarityPools[rarity] = curRarityPool;\n                    uriRarityPools[rarity].pop();\n                    break;\n                }\n            }\n    }\n\n    function compareStrings(string memory _s, string memory _s1) public pure returns (bool) {\n        return (keccak256(abi.encodePacked((_s))) == keccak256(abi.encodePacked((_s1))));\n    }\n\n    function openPack(uint256 _tokenId) public payable {\n        // Randomly \n        require(_isApprovedOrOwner(msg.sender, _tokenId));\n\n        uint256 tr = tokenRarity[_tokenId];\n\n        string[10] memory newUris;\n\n        //Need to delete the item from the rarity pool before minting happens again\n        for (uint8 n = 0; n < numNFTs[tr]; n++) {\n            uint256 randIndexWithPercentOdds = calculateWeightedOdds(random(1000), rarityOdds[tr]);\n            uint256 randIndexInRarity = random(uriRarityPools[randIndexWithPercentOdds].length - 1);\n\n            string memory newURI = uriRarityPools[randIndexWithPercentOdds][randIndexInRarity];\n\n            vNFT.mint(msg.sender, newURI);\n\n            newUris[n] = newURI;\n\n            string[] memory curRarityPool = uriRarityPools[randIndexWithPercentOdds];\n            for (uint i = 0; i < uriRarityPools[randIndexWithPercentOdds].length; i++) {\n                string memory uri = uriRarityPools[randIndexWithPercentOdds][i];\n                if (compareStrings(uri, newURI)) {\n                    curRarityPool[i] = curRarityPool[curRarityPool.length - 1];\n                    uriRarityPools[randIndexWithPercentOdds] = curRarityPool;\n                    uriRarityPools[randIndexWithPercentOdds].pop();\n                    break;\n                }\n            }\n        }\n\n        burn(_tokenId);\n\n        emit Open(newUris);\n    }\n\n    function burn(uint256 tokenId) public {\n        require(_isApprovedOrOwner(msg.sender, tokenId));\n\n        for (uint256 i = 0; i < _ownedNFTs[msg.sender].length; i++) {\n            uint256 ownedNFT = _ownedNFTs[msg.sender][i];\n            if (ownedNFT == tokenId) {\n                _ownedNFTs[msg.sender][i] = _ownedNFTs[msg.sender][_ownedNFTs[msg.sender].length - 1];\n                _ownedNFTs[msg.sender].pop();\n            }\n        }\n\n        _burn(tokenId);\n    }\n\n    function awardItem(address recipient, string memory hash, string memory metadata) public returns (uint256) {\n        require(hashes[hash] != 1);\n        hashes[hash] = 1;\n        _tokenIds.increment();\n        uint256 newItemId = _tokenIds.current();\n        _mint(recipient, newItemId);\n        _setTokenURI(newItemId, metadata);\n        return newItemId;\n    }\n\n    function safeTransferFrom(address from, address to, uint256 tokenId) public override {\n        require(!_tokensListed[tokenId]);\n        for (uint256 i = 0; i < _ownedNFTs[msg.sender].length; i++) {\n            uint256 ownedNFT = _ownedNFTs[msg.sender][i];\n            if (ownedNFT == tokenId) {\n                _ownedNFTs[msg.sender][i] = _ownedNFTs[msg.sender][_ownedNFTs[msg.sender].length - 1];\n                _ownedNFTs[msg.sender].pop();\n            }\n        }\n        _ownedNFTs[to].push(tokenId);\n\n        super.safeTransferFrom(from, to, tokenId);\n    }\n\n    function transferFrom(address from, address to, uint256 tokenId) public override {\n        for (uint256 i = 0; i < _ownedNFTs[msg.sender].length; i++) {\n            uint256 ownedNFT = _ownedNFTs[msg.sender][i];\n            if (ownedNFT == tokenId) {\n                _ownedNFTs[msg.sender][i] = _ownedNFTs[msg.sender][_ownedNFTs[msg.sender].length - 1];\n                _ownedNFTs[msg.sender].pop();\n            }\n        }\n        _ownedNFTs[to].push(tokenId);\n\n        super.transferFrom(from, to, tokenId);\n    }\n\n    function listToken(uint256 _tokenId) public {\n        _tokensListed[_tokenId] = true;\n    }\n\n    function unlistToken(uint256 _tokenId) public {\n        _tokensListed[_tokenId] = false;\n    }\n}",
  "sourcePath": "/Users/krishmoran/Documents/GitHub/Viridian-Exchange-Contracts/contracts/ViridianPack.sol",
  "compiler": {
    "name": "solc",
    "version": "0.8.9+commit.e5eed63a.Emscripten.clang"
  },
  "schemaVersion": "3.4.1",
  "updatedAt": "2021-10-14T01:19:12.949Z",
  "networkType": "ethereum",
  "devdoc": {
    "kind": "dev",
    "methods": {
      "approve(address,uint256)": {
        "details": "See {IERC721-approve}."
      },
      "balanceOf(address)": {
        "details": "See {IERC721-balanceOf}."
      },
      "getApproved(uint256)": {
        "details": "See {IERC721-getApproved}."
      },
      "isApprovedForAll(address,address)": {
        "details": "See {IERC721-isApprovedForAll}."
      },
      "name()": {
        "details": "See {IERC721Metadata-name}."
      },
      "owner()": {
        "details": "Returns the address of the current owner."
      },
      "ownerOf(uint256)": {
        "details": "See {IERC721-ownerOf}."
      },
      "renounceOwnership()": {
        "details": "Leaves the contract without owner. It will not be possible to call `onlyOwner` functions anymore. Can only be called by the current owner. NOTE: Renouncing ownership will leave the contract without an owner, thereby removing any functionality that is only available to the owner."
      },
      "safeTransferFrom(address,address,uint256)": {
        "details": "See {IERC721-safeTransferFrom}."
      },
      "safeTransferFrom(address,address,uint256,bytes)": {
        "details": "See {IERC721-safeTransferFrom}."
      },
      "setApprovalForAll(address,bool)": {
        "details": "See {IERC721-setApprovalForAll}."
      },
      "supportsInterface(bytes4)": {
        "details": "See {IERC165-supportsInterface}."
      },
      "symbol()": {
        "details": "See {IERC721Metadata-symbol}."
      },
      "tokenURI(uint256)": {
        "details": "See {IERC721Metadata-tokenURI}."
      },
      "transferFrom(address,address,uint256)": {
        "details": "See {IERC721-transferFrom}."
      },
      "transferOwnership(address)": {
        "details": "Transfers ownership of the contract to a new account (`newOwner`). Can only be called by the current owner."
      }
    },
    "version": 1
  },
  "userdoc": {
    "kind": "user",
    "methods": {},
    "version": 1
  }
}