{
  "contractName": "ViridianExchangeOffers",
  "abi": [
    {
      "inputs": [
        {
          "internalType": "address",
          "name": "_erc20Token",
          "type": "address"
        },
        {
          "internalType": "address",
          "name": "_viridianNFT",
          "type": "address"
        },
        {
          "internalType": "address",
          "name": "_viridianPack",
          "type": "address"
        }
      ],
      "stateMutability": "nonpayable",
      "type": "constructor"
    },
    {
      "anonymous": false,
      "inputs": [
        {
          "indexed": false,
          "internalType": "uint256",
          "name": "offerId",
          "type": "uint256"
        },
        {
          "indexed": false,
          "internalType": "address",
          "name": "wallet",
          "type": "address"
        },
        {
          "indexed": false,
          "internalType": "bool",
          "name": "accepted",
          "type": "bool"
        }
      ],
      "name": "AcceptedOffer",
      "type": "event"
    },
    {
      "anonymous": false,
      "inputs": [
        {
          "indexed": false,
          "internalType": "uint256",
          "name": "offerId",
          "type": "uint256"
        },
        {
          "indexed": false,
          "internalType": "address",
          "name": "wallet",
          "type": "address"
        },
        {
          "indexed": false,
          "internalType": "bool",
          "name": "cancelled",
          "type": "bool"
        }
      ],
      "name": "CancelledOffer",
      "type": "event"
    },
    {
      "anonymous": false,
      "inputs": [
        {
          "indexed": false,
          "internalType": "uint256",
          "name": "offerId",
          "type": "uint256"
        },
        {
          "indexed": false,
          "internalType": "address",
          "name": "wallet",
          "type": "address"
        },
        {
          "indexed": false,
          "internalType": "bool",
          "name": "created",
          "type": "bool"
        }
      ],
      "name": "CreatedOffer",
      "type": "event"
    },
    {
      "anonymous": false,
      "inputs": [
        {
          "indexed": true,
          "internalType": "address",
          "name": "previousOwner",
          "type": "address"
        },
        {
          "indexed": true,
          "internalType": "address",
          "name": "newOwner",
          "type": "address"
        }
      ],
      "name": "OwnershipTransferred",
      "type": "event"
    },
    {
      "inputs": [
        {
          "internalType": "address",
          "name": "",
          "type": "address"
        }
      ],
      "name": "approvedTokens",
      "outputs": [
        {
          "internalType": "bool",
          "name": "",
          "type": "bool"
        }
      ],
      "stateMutability": "view",
      "type": "function",
      "constant": true
    },
    {
      "inputs": [
        {
          "internalType": "address",
          "name": "forwarder",
          "type": "address"
        }
      ],
      "name": "isTrustedForwarder",
      "outputs": [
        {
          "internalType": "bool",
          "name": "",
          "type": "bool"
        }
      ],
      "stateMutability": "view",
      "type": "function",
      "constant": true
    },
    {
      "inputs": [],
      "name": "owner",
      "outputs": [
        {
          "internalType": "address",
          "name": "",
          "type": "address"
        }
      ],
      "stateMutability": "view",
      "type": "function",
      "constant": true
    },
    {
      "inputs": [],
      "name": "renounceOwnership",
      "outputs": [],
      "stateMutability": "nonpayable",
      "type": "function"
    },
    {
      "inputs": [
        {
          "internalType": "address",
          "name": "newOwner",
          "type": "address"
        }
      ],
      "name": "transferOwnership",
      "outputs": [],
      "stateMutability": "nonpayable",
      "type": "function"
    },
    {
      "inputs": [],
      "name": "trustedForwarder",
      "outputs": [
        {
          "internalType": "address",
          "name": "",
          "type": "address"
        }
      ],
      "stateMutability": "view",
      "type": "function",
      "constant": true
    },
    {
      "inputs": [],
      "name": "versionRecipient",
      "outputs": [
        {
          "internalType": "string",
          "name": "",
          "type": "string"
        }
      ],
      "stateMutability": "view",
      "type": "function",
      "constant": true
    },
    {
      "inputs": [],
      "name": "viridianNFT",
      "outputs": [
        {
          "internalType": "address",
          "name": "",
          "type": "address"
        }
      ],
      "stateMutability": "view",
      "type": "function",
      "constant": true
    },
    {
      "inputs": [],
      "name": "viridianPack",
      "outputs": [
        {
          "internalType": "address",
          "name": "",
          "type": "address"
        }
      ],
      "stateMutability": "view",
      "type": "function",
      "constant": true
    },
    {
      "inputs": [
        {
          "internalType": "address",
          "name": "_forwarder",
          "type": "address"
        }
      ],
      "name": "setTrustedForwarder",
      "outputs": [],
      "stateMutability": "nonpayable",
      "type": "function"
    },
    {
      "inputs": [
        {
          "internalType": "address",
          "name": "_erc20Address",
          "type": "address"
        }
      ],
      "name": "addERC20Token",
      "outputs": [],
      "stateMutability": "nonpayable",
      "type": "function"
    },
    {
      "inputs": [],
      "name": "getOffers",
      "outputs": [
        {
          "internalType": "uint256[]",
          "name": "",
          "type": "uint256[]"
        }
      ],
      "stateMutability": "view",
      "type": "function",
      "constant": true
    },
    {
      "inputs": [
        {
          "internalType": "uint256",
          "name": "_offerId",
          "type": "uint256"
        }
      ],
      "name": "getOffersFromId",
      "outputs": [
        {
          "components": [
            {
              "internalType": "uint256",
              "name": "offerId",
              "type": "uint256"
            },
            {
              "internalType": "uint256[]",
              "name": "toNftIds",
              "type": "uint256[]"
            },
            {
              "internalType": "uint256[]",
              "name": "toPackIds",
              "type": "uint256[]"
            },
            {
              "internalType": "uint256",
              "name": "toAmt",
              "type": "uint256"
            },
            {
              "internalType": "uint256[]",
              "name": "fromNftIds",
              "type": "uint256[]"
            },
            {
              "internalType": "uint256[]",
              "name": "fromPackIds",
              "type": "uint256[]"
            },
            {
              "internalType": "uint256",
              "name": "fromAmt",
              "type": "uint256"
            },
            {
              "internalType": "address",
              "name": "to",
              "type": "address"
            },
            {
              "internalType": "address",
              "name": "from",
              "type": "address"
            },
            {
              "internalType": "address",
              "name": "erc20Address",
              "type": "address"
            },
            {
              "internalType": "bool",
              "name": "pending",
              "type": "bool"
            },
            {
              "internalType": "bool",
              "name": "toAccepted",
              "type": "bool"
            },
            {
              "internalType": "bool",
              "name": "fromAccepted",
              "type": "bool"
            },
            {
              "internalType": "uint256",
              "name": "startTime",
              "type": "uint256"
            },
            {
              "internalType": "uint256",
              "name": "endTime",
              "type": "uint256"
            }
          ],
          "internalType": "struct ViridianExchangeOffers.Offer",
          "name": "",
          "type": "tuple"
        }
      ],
      "stateMutability": "view",
      "type": "function",
      "constant": true
    },
    {
      "inputs": [
        {
          "internalType": "address",
          "name": "_userAddr",
          "type": "address"
        }
      ],
      "name": "getOffersFromUser",
      "outputs": [
        {
          "components": [
            {
              "internalType": "uint256",
              "name": "offerId",
              "type": "uint256"
            },
            {
              "internalType": "uint256[]",
              "name": "toNftIds",
              "type": "uint256[]"
            },
            {
              "internalType": "uint256[]",
              "name": "toPackIds",
              "type": "uint256[]"
            },
            {
              "internalType": "uint256",
              "name": "toAmt",
              "type": "uint256"
            },
            {
              "internalType": "uint256[]",
              "name": "fromNftIds",
              "type": "uint256[]"
            },
            {
              "internalType": "uint256[]",
              "name": "fromPackIds",
              "type": "uint256[]"
            },
            {
              "internalType": "uint256",
              "name": "fromAmt",
              "type": "uint256"
            },
            {
              "internalType": "address",
              "name": "to",
              "type": "address"
            },
            {
              "internalType": "address",
              "name": "from",
              "type": "address"
            },
            {
              "internalType": "address",
              "name": "erc20Address",
              "type": "address"
            },
            {
              "internalType": "bool",
              "name": "pending",
              "type": "bool"
            },
            {
              "internalType": "bool",
              "name": "toAccepted",
              "type": "bool"
            },
            {
              "internalType": "bool",
              "name": "fromAccepted",
              "type": "bool"
            },
            {
              "internalType": "uint256",
              "name": "startTime",
              "type": "uint256"
            },
            {
              "internalType": "uint256",
              "name": "endTime",
              "type": "uint256"
            }
          ],
          "internalType": "struct ViridianExchangeOffers.Offer[]",
          "name": "",
          "type": "tuple[]"
        }
      ],
      "stateMutability": "view",
      "type": "function",
      "constant": true
    },
    {
      "inputs": [
        {
          "internalType": "uint256",
          "name": "_offerId",
          "type": "uint256"
        }
      ],
      "name": "hasOfferExpired",
      "outputs": [
        {
          "internalType": "bool",
          "name": "",
          "type": "bool"
        }
      ],
      "stateMutability": "view",
      "type": "function",
      "constant": true
    },
    {
      "inputs": [
        {
          "internalType": "address payable",
          "name": "_to",
          "type": "address"
        },
        {
          "internalType": "uint256[]",
          "name": "_nftIds",
          "type": "uint256[]"
        },
        {
          "internalType": "uint256[]",
          "name": "_packIds",
          "type": "uint256[]"
        },
        {
          "internalType": "uint256",
          "name": "_amount",
          "type": "uint256"
        },
        {
          "internalType": "uint256[]",
          "name": "_recNftIds",
          "type": "uint256[]"
        },
        {
          "internalType": "uint256[]",
          "name": "_recPackIds",
          "type": "uint256[]"
        },
        {
          "internalType": "uint256",
          "name": "_recAmount",
          "type": "uint256"
        },
        {
          "internalType": "address",
          "name": "_erc20Address",
          "type": "address"
        },
        {
          "internalType": "uint256",
          "name": "_daysValid",
          "type": "uint256"
        }
      ],
      "name": "makeOffer",
      "outputs": [],
      "stateMutability": "nonpayable",
      "type": "function"
    },
    {
      "inputs": [
        {
          "internalType": "uint256",
          "name": "_offerId",
          "type": "uint256"
        }
      ],
      "name": "cancelOffer",
      "outputs": [],
      "stateMutability": "nonpayable",
      "type": "function"
    },
    {
      "inputs": [
        {
          "internalType": "uint256",
          "name": "_offerId",
          "type": "uint256"
        }
      ],
      "name": "acceptOfferWithERC20",
      "outputs": [],
      "stateMutability": "nonpayable",
      "type": "function"
    }
  ],
  "bytecode": "0x60806040526040518060400160405280600581526020017f322e322e30000000000000000000000000000000000000000000000000000000815250600c90805190602001906200005192919062000438565b503480156200005f57600080fd5b50604051620057e9380380620057e9833981810160405281019062000085919062000552565b620000a562000099620002bb60201b60201c565b620002d760201b60201c565b600073ffffffffffffffffffffffffffffffffffffffff168373ffffffffffffffffffffffffffffffffffffffff161415620000e057600080fd5b600073ffffffffffffffffffffffffffffffffffffffff168273ffffffffffffffffffffffffffffffffffffffff1614156200011b57600080fd5b600073ffffffffffffffffffffffffffffffffffffffff168173ffffffffffffffffffffffffffffffffffffffff1614156200015657600080fd5b6001600b60008573ffffffffffffffffffffffffffffffffffffffff1673ffffffffffffffffffffffffffffffffffffffff16815260200190815260200160002060006101000a81548160ff02191690831515021790555081600960006101000a81548173ffffffffffffffffffffffffffffffffffffffff021916908373ffffffffffffffffffffffffffffffffffffffff16021790555080600a60006101000a81548173ffffffffffffffffffffffffffffffffffffffff021916908373ffffffffffffffffffffffffffffffffffffffff16021790555081600360006101000a81548173ffffffffffffffffffffffffffffffffffffffff021916908373ffffffffffffffffffffffffffffffffffffffff16021790555080600460006101000a81548173ffffffffffffffffffffffffffffffffffffffff021916908373ffffffffffffffffffffffffffffffffffffffff16021790555050505062000613565b6000620002d26200039d60201b620021fd1760201c565b905090565b6000600160009054906101000a900473ffffffffffffffffffffffffffffffffffffffff16905081600160006101000a81548173ffffffffffffffffffffffffffffffffffffffff021916908373ffffffffffffffffffffffffffffffffffffffff1602179055508173ffffffffffffffffffffffffffffffffffffffff168173ffffffffffffffffffffffffffffffffffffffff167f8be0079c531659141344cd1fd0a4f28419497f9722a3daafe3b4186f6b6457e060405160405180910390a35050565b60006014600036905010158015620003c25750620003c133620003df60201b60201c565b5b15620003d857601436033560601c9050620003dc565b3390505b90565b60008060009054906101000a900473ffffffffffffffffffffffffffffffffffffffff1673ffffffffffffffffffffffffffffffffffffffff168273ffffffffffffffffffffffffffffffffffffffff16149050919050565b8280546200044690620005dd565b90600052602060002090601f0160209004810192826200046a5760008555620004b6565b82601f106200048557805160ff1916838001178555620004b6565b82800160010185558215620004b6579182015b82811115620004b557825182559160200191906001019062000498565b5b509050620004c59190620004c9565b5090565b5b80821115620004e4576000816000905550600101620004ca565b5090565b600080fd5b600073ffffffffffffffffffffffffffffffffffffffff82169050919050565b60006200051a82620004ed565b9050919050565b6200052c816200050d565b81146200053857600080fd5b50565b6000815190506200054c8162000521565b92915050565b6000806000606084860312156200056e576200056d620004e8565b5b60006200057e868287016200053b565b935050602062000591868287016200053b565b9250506040620005a4868287016200053b565b9150509250925092565b7f4e487b7100000000000000000000000000000000000000000000000000000000600052602260045260246000fd5b60006002820490506001821680620005f657607f821691505b602082108114156200060d576200060c620005ae565b5b50919050565b6151c680620006236000396000f3fe608060405234801561001057600080fd5b50600436106101165760003560e01c80638da5cb5b116100a2578063da74222811610071578063da742228146102cf578063ef706adf146102eb578063f2fde38b14610307578063fe257afc14610323578063ff1080df1461034157610116565b80638da5cb5b14610247578063971ccc16146102655780639a70128814610281578063d382335a1461029f57610116565b8063572b6c05116100e9578063572b6c05146101a35780636d1ea3fa146101d3578063715018a6146102035780637da0a8771461020d5780638d9742071461022b57610116565b80633eaf56b01461011b5780633ee992ee1461014b57806342e1717c14610169578063486ff0cd14610185575b600080fd5b61013560048036038101906101309190613f24565b610371565b60405161014291906141c3565b60405180910390f35b610153610684565b6040516101609190614254565b60405180910390f35b610183600480360381019061017e9190614439565b6106dc565b005b61018d610fc7565b60405161019a91906145fb565b60405180910390f35b6101bd60048036038101906101b8919061461d565b611055565b6040516101ca9190614659565b60405180910390f35b6101ed60048036038101906101e8919061461d565b6110ae565b6040516101fa9190614659565b60405180910390f35b61020b6110ce565b005b610215611156565b6040516102229190614683565b60405180910390f35b61024560048036038101906102409190613f24565b61117f565b005b61024f6115f8565b60405161025c9190614683565b60405180910390f35b61027f600480360381019061027a919061461d565b611622565b005b6102896116f9565b6040516102969190614683565b60405180910390f35b6102b960048036038101906102b4919061461d565b61171f565b6040516102c691906148b8565b60405180910390f35b6102e960048036038101906102e4919061461d565b611aa3565b005b61030560048036038101906103009190613f24565b611b2b565b005b610321600480360381019061031c919061461d565b61205b565b005b61032b612153565b6040516103389190614683565b60405180910390f35b61035b60048036038101906103569190613f24565b612179565b6040516103689190614659565b60405180910390f35b61037961396d565b60066000838152602001908152602001600020604051806101e001604052908160008201548152602001600182018054806020026020016040519081016040528092919081815260200182805480156103f157602002820191906000526020600020905b8154815260200190600101908083116103dd575b505050505081526020016002820180548060200260200160405190810160405280929190818152602001828054801561044957602002820191906000526020600020905b815481526020019060010190808311610435575b5050505050815260200160038201548152602001600482018054806020026020016040519081016040528092919081815260200182805480156104ab57602002820191906000526020600020905b815481526020019060010190808311610497575b505050505081526020016005820180548060200260200160405190810160405280929190818152602001828054801561050357602002820191906000526020600020905b8154815260200190600101908083116104ef575b50505050508152602001600682015481526020016007820160009054906101000a900473ffffffffffffffffffffffffffffffffffffffff1673ffffffffffffffffffffffffffffffffffffffff1673ffffffffffffffffffffffffffffffffffffffff1681526020016008820160009054906101000a900473ffffffffffffffffffffffffffffffffffffffff1673ffffffffffffffffffffffffffffffffffffffff1673ffffffffffffffffffffffffffffffffffffffff1681526020016009820160009054906101000a900473ffffffffffffffffffffffffffffffffffffffff1673ffffffffffffffffffffffffffffffffffffffff1673ffffffffffffffffffffffffffffffffffffffff1681526020016009820160149054906101000a900460ff161515151581526020016009820160159054906101000a900460ff161515151581526020016009820160169054906101000a900460ff16151515158152602001600a8201548152602001600b820154815250509050919050565b606060078054806020026020016040519081016040528092919081815260200182805480156106d257602002820191906000526020600020905b8154815260200190600101908083116106be575b5050505050905090565b600b60008373ffffffffffffffffffffffffffffffffffffffff1673ffffffffffffffffffffffffffffffffffffffff16815260200190815260200160002060009054906101000a900460ff16610768576040517f08c379a000000000000000000000000000000000000000000000000000000000815260040161075f9061494c565b60405180910390fd5b610770612234565b73ffffffffffffffffffffffffffffffffffffffff168973ffffffffffffffffffffffffffffffffffffffff1614156107a857600080fd5b6107b26002612243565b60006107be6002612259565b9050600062015180836107d1919061499b565b426107dc91906149f5565b90506000604051806101e001604052808481526020018c81526020018b81526020018a81526020018981526020018881526020018781526020018d73ffffffffffffffffffffffffffffffffffffffff16815260200161083a612234565b73ffffffffffffffffffffffffffffffffffffffff1681526020018673ffffffffffffffffffffffffffffffffffffffff168152602001600115158152602001600015158152602001600015158152602001428152602001838152509050600560008d73ffffffffffffffffffffffffffffffffffffffff1673ffffffffffffffffffffffffffffffffffffffff1681526020019081526020016000208190806001815401808255809150506001900390600052602060002090600c0201600090919091909150600082015181600001556020820151816001019080519060200190610927929190613a2b565b506040820151816002019080519060200190610944929190613a2b565b5060608201518160030155608082015181600401908051906020019061096b929190613a2b565b5060a0820151816005019080519060200190610988929190613a2b565b5060c0820151816006015560e08201518160070160006101000a81548173ffffffffffffffffffffffffffffffffffffffff021916908373ffffffffffffffffffffffffffffffffffffffff1602179055506101008201518160080160006101000a81548173ffffffffffffffffffffffffffffffffffffffff021916908373ffffffffffffffffffffffffffffffffffffffff1602179055506101208201518160090160006101000a81548173ffffffffffffffffffffffffffffffffffffffff021916908373ffffffffffffffffffffffffffffffffffffffff1602179055506101408201518160090160146101000a81548160ff0219169083151502179055506101608201518160090160156101000a81548160ff0219169083151502179055506101808201518160090160166101000a81548160ff0219169083151502179055506101a082015181600a01556101c082015181600b0155505060056000610af1612234565b73ffffffffffffffffffffffffffffffffffffffff1673ffffffffffffffffffffffffffffffffffffffff1681526020019081526020016000208190806001815401808255809150506001900390600052602060002090600c0201600090919091909150600082015181600001556020820151816001019080519060200190610b7b929190613a2b565b506040820151816002019080519060200190610b98929190613a2b565b50606082015181600301556080820151816004019080519060200190610bbf929190613a2b565b5060a0820151816005019080519060200190610bdc929190613a2b565b5060c0820151816006015560e08201518160070160006101000a81548173ffffffffffffffffffffffffffffffffffffffff021916908373ffffffffffffffffffffffffffffffffffffffff1602179055506101008201518160080160006101000a81548173ffffffffffffffffffffffffffffffffffffffff021916908373ffffffffffffffffffffffffffffffffffffffff1602179055506101208201518160090160006101000a81548173ffffffffffffffffffffffffffffffffffffffff021916908373ffffffffffffffffffffffffffffffffffffffff1602179055506101408201518160090160146101000a81548160ff0219169083151502179055506101608201518160090160156101000a81548160ff0219169083151502179055506101808201518160090160166101000a81548160ff0219169083151502179055506101a082015181600a01556101c082015181600b015550508060066000858152602001908152602001600020600082015181600001556020820151816001019080519060200190610d73929190613a2b565b506040820151816002019080519060200190610d90929190613a2b565b50606082015181600301556080820151816004019080519060200190610db7929190613a2b565b5060a0820151816005019080519060200190610dd4929190613a2b565b5060c0820151816006015560e08201518160070160006101000a81548173ffffffffffffffffffffffffffffffffffffffff021916908373ffffffffffffffffffffffffffffffffffffffff1602179055506101008201518160080160006101000a81548173ffffffffffffffffffffffffffffffffffffffff021916908373ffffffffffffffffffffffffffffffffffffffff1602179055506101208201518160090160006101000a81548173ffffffffffffffffffffffffffffffffffffffff021916908373ffffffffffffffffffffffffffffffffffffffff1602179055506101408201518160090160146101000a81548160ff0219169083151502179055506101608201518160090160156101000a81548160ff0219169083151502179055506101808201518160090160166101000a81548160ff0219169083151502179055506101a082015181600a01556101c082015181600b0155905050610f4d60066000858152602001908152602001600020612267565b60078390806001815401808255809150506001900390600052602060002001600090919091909150557f0e1e6c2a26cf18d0005bc889ce86850afca20d6269a6a08aefa554b3a154b41c83610fa0612234565b6001604051610fb193929190614a5a565b60405180910390a1505050505050505050505050565b600c8054610fd490614ac0565b80601f016020809104026020016040519081016040528092919081815260200182805461100090614ac0565b801561104d5780601f106110225761010080835404028352916020019161104d565b820191906000526020600020905b81548152906001019060200180831161103057829003601f168201915b505050505081565b60008060009054906101000a900473ffffffffffffffffffffffffffffffffffffffff1673ffffffffffffffffffffffffffffffffffffffff168273ffffffffffffffffffffffffffffffffffffffff16149050919050565b600b6020528060005260406000206000915054906101000a900460ff1681565b6110d6612234565b73ffffffffffffffffffffffffffffffffffffffff166110f46115f8565b73ffffffffffffffffffffffffffffffffffffffff161461114a576040517f08c379a000000000000000000000000000000000000000000000000000000000815260040161114190614b3e565b60405180910390fd5b6111546000612836565b565b60008060009054906101000a900473ffffffffffffffffffffffffffffffffffffffff16905090565b600060066000838152602001908152602001600020905061119e612234565b73ffffffffffffffffffffffffffffffffffffffff168160070160009054906101000a900473ffffffffffffffffffffffffffffffffffffffff1673ffffffffffffffffffffffffffffffffffffffff161461122f576040517f08c379a000000000000000000000000000000000000000000000000000000000815260040161122690614bd0565b60405180910390fd5b61123882612179565b15611278576040517f08c379a000000000000000000000000000000000000000000000000000000000815260040161126f90614c3c565b60405180910390fd5b6000600560008360070160009054906101000a900473ffffffffffffffffffffffffffffffffffffffff1673ffffffffffffffffffffffffffffffffffffffff1673ffffffffffffffffffffffffffffffffffffffff16815260200190815260200160002090506000600560008460080160009054906101000a900473ffffffffffffffffffffffffffffffffffffffff1673ffffffffffffffffffffffffffffffffffffffff1673ffffffffffffffffffffffffffffffffffffffff1681526020019081526020016000209050600061135284846128fc565b9050600061136085846128fc565b905061136b85612267565b8460090160009054906101000a900473ffffffffffffffffffffffffffffffffffffffff1673ffffffffffffffffffffffffffffffffffffffff166323b872dd8660080160009054906101000a900473ffffffffffffffffffffffffffffffffffffffff168760070160009054906101000a900473ffffffffffffffffffffffffffffffffffffffff1688600301546040518463ffffffff1660e01b815260040161141893929190614c5c565b6020604051808303816000875af1158015611437573d6000803e3d6000fd5b505050506040513d601f19601f8201168201806040525081019061145b9190614cbf565b508460090160009054906101000a900473ffffffffffffffffffffffffffffffffffffffff1673ffffffffffffffffffffffffffffffffffffffff166323b872dd8660070160009054906101000a900473ffffffffffffffffffffffffffffffffffffffff168760080160009054906101000a900473ffffffffffffffffffffffffffffffffffffffff1688600601546040518463ffffffff1660e01b815260040161150993929190614c5c565b6020604051808303816000875af1158015611528573d6000803e3d6000fd5b505050506040513d601f19601f8201168201806040525081019061154c9190614cbf565b5061155685612ca0565b60008560090160146101000a81548160ff02191690831515021790555060008260090160146101000a81548160ff02191690831515021790555060008160090160146101000a81548160ff0219169083151502179055507f6e60cb526aec55a6ba5a6dc3ca50f55a218d217233703ba4088b0bf46ca1f3a0866115d7612234565b60016040516115e893929190614a5a565b60405180910390a1505050505050565b6000600160009054906101000a900473ffffffffffffffffffffffffffffffffffffffff16905090565b61162a612234565b73ffffffffffffffffffffffffffffffffffffffff166116486115f8565b73ffffffffffffffffffffffffffffffffffffffff161461169e576040517f08c379a000000000000000000000000000000000000000000000000000000000815260040161169590614b3e565b60405180910390fd5b6001600b60008373ffffffffffffffffffffffffffffffffffffffff1673ffffffffffffffffffffffffffffffffffffffff16815260200190815260200160002060006101000a81548160ff02191690831515021790555050565b600960009054906101000a900473ffffffffffffffffffffffffffffffffffffffff1681565b6060600560008373ffffffffffffffffffffffffffffffffffffffff1673ffffffffffffffffffffffffffffffffffffffff168152602001908152602001600020805480602002602001604051908101604052809291908181526020016000905b82821015611a9857838290600052602060002090600c0201604051806101e001604052908160008201548152602001600182018054806020026020016040519081016040528092919081815260200182805480156117fd57602002820191906000526020600020905b8154815260200190600101908083116117e9575b505050505081526020016002820180548060200260200160405190810160405280929190818152602001828054801561185557602002820191906000526020600020905b815481526020019060010190808311611841575b5050505050815260200160038201548152602001600482018054806020026020016040519081016040528092919081815260200182805480156118b757602002820191906000526020600020905b8154815260200190600101908083116118a3575b505050505081526020016005820180548060200260200160405190810160405280929190818152602001828054801561190f57602002820191906000526020600020905b8154815260200190600101908083116118fb575b50505050508152602001600682015481526020016007820160009054906101000a900473ffffffffffffffffffffffffffffffffffffffff1673ffffffffffffffffffffffffffffffffffffffff1673ffffffffffffffffffffffffffffffffffffffff1681526020016008820160009054906101000a900473ffffffffffffffffffffffffffffffffffffffff1673ffffffffffffffffffffffffffffffffffffffff1673ffffffffffffffffffffffffffffffffffffffff1681526020016009820160009054906101000a900473ffffffffffffffffffffffffffffffffffffffff1673ffffffffffffffffffffffffffffffffffffffff1673ffffffffffffffffffffffffffffffffffffffff1681526020016009820160149054906101000a900460ff161515151581526020016009820160159054906101000a900460ff161515151581526020016009820160169054906101000a900460ff16151515158152602001600a8201548152602001600b8201548152505081526020019060010190611780565b505050509050919050565b611aab612234565b73ffffffffffffffffffffffffffffffffffffffff16611ac96115f8565b73ffffffffffffffffffffffffffffffffffffffff1614611b1f576040517f08c379a0000000000000000000000000000000000000000000000000000000008152600401611b1690614b3e565b60405180910390fd5b611b288161311f565b50565b6000600660008381526020019081526020016000209050611b4a612234565b73ffffffffffffffffffffffffffffffffffffffff168160080160009054906101000a900473ffffffffffffffffffffffffffffffffffffffff1673ffffffffffffffffffffffffffffffffffffffff161480611bfd5750611baa612234565b73ffffffffffffffffffffffffffffffffffffffff168160070160009054906101000a900473ffffffffffffffffffffffffffffffffffffffff1673ffffffffffffffffffffffffffffffffffffffff16145b611c3c576040517f08c379a0000000000000000000000000000000000000000000000000000000008152600401611c3390614d5e565b60405180910390fd5b611c4582612179565b15611c85576040517f08c379a0000000000000000000000000000000000000000000000000000000008152600401611c7c90614c3c565b60405180910390fd5b8060090160169054906101000a900460ff1615611cd7576040517f08c379a0000000000000000000000000000000000000000000000000000000008152600401611cce90614df0565b60405180910390fd5b8060090160159054906101000a900460ff1615611d29576040517f08c379a0000000000000000000000000000000000000000000000000000000008152600401611d2090614e82565b60405180910390fd5b6000600560008360070160009054906101000a900473ffffffffffffffffffffffffffffffffffffffff1673ffffffffffffffffffffffffffffffffffffffff1673ffffffffffffffffffffffffffffffffffffffff16815260200190815260200160002090506000600560008460080160009054906101000a900473ffffffffffffffffffffffffffffffffffffffff1673ffffffffffffffffffffffffffffffffffffffff1673ffffffffffffffffffffffffffffffffffffffff1681526020019081526020016000209050611e018383613162565b611e0b8382613162565b60005b600780549050811015611ede57600060078281548110611e3157611e30614ea2565b5b906000526020600020015490508460000154811415611eca5760076001600780549050611e5e9190614ed1565b81548110611e6f57611e6e614ea2565b5b906000526020600020015460078381548110611e8e57611e8d614ea2565b5b90600052602060002001819055506007805480611eae57611ead614f05565b5b6001900381819060005260206000200160009055905550611ede565b508080611ed690614f34565b915050611e0e565b5060066000858152602001908152602001600020600080820160009055600182016000611f0b9190613a78565b600282016000611f1b9190613a78565b6003820160009055600482016000611f339190613a78565b600582016000611f439190613a78565b60068201600090556007820160006101000a81549073ffffffffffffffffffffffffffffffffffffffff02191690556008820160006101000a81549073ffffffffffffffffffffffffffffffffffffffff02191690556009820160006101000a81549073ffffffffffffffffffffffffffffffffffffffff02191690556009820160146101000a81549060ff02191690556009820160156101000a81549060ff02191690556009820160166101000a81549060ff0219169055600a820160009055600b82016000905550507fa79cbd780b972df9dc5822d85a863fda61705b34f061ccf817936889652190ca836000015461203c612234565b600160405161204d93929190614a5a565b60405180910390a150505050565b612063612234565b73ffffffffffffffffffffffffffffffffffffffff166120816115f8565b73ffffffffffffffffffffffffffffffffffffffff16146120d7576040517f08c379a00000000000000000000000000000000000000000000000000000000081526004016120ce90614b3e565b60405180910390fd5b600073ffffffffffffffffffffffffffffffffffffffff168173ffffffffffffffffffffffffffffffffffffffff161415612147576040517f08c379a000000000000000000000000000000000000000000000000000000000815260040161213e90614fef565b60405180910390fd5b61215081612836565b50565b600a60009054906101000a900473ffffffffffffffffffffffffffffffffffffffff1681565b6000806006600084815260200190815260200160002090508060090160159054906101000a900460ff1680156121be57508060090160169054906101000a900460ff16155b156121cd5760009150506121f8565b8060090160149054906101000a900460ff166121ed5760019150506121f8565b4281600b0154109150505b919050565b60006014600036905010158015612219575061221833611055565b5b1561222d57601436033560601c9050612231565b3390505b90565b600061223e6121fd565b905090565b6001816000016000828254019250508190555050565b600081600001549050919050565b60005b81600101805490508110156123d9578160080160009054906101000a900473ffffffffffffffffffffffffffffffffffffffff1673ffffffffffffffffffffffffffffffffffffffff16600960009054906101000a900473ffffffffffffffffffffffffffffffffffffffff1673ffffffffffffffffffffffffffffffffffffffff16636352211e84600101848154811061230857612307614ea2565b5b90600052602060002001546040518263ffffffff1660e01b815260040161232f919061500f565b602060405180830381865afa15801561234c573d6000803e3d6000fd5b505050506040513d601f19601f82011682018060405250810190612370919061503f565b73ffffffffffffffffffffffffffffffffffffffff16146123c6576040517f08c379a00000000000000000000000000000000000000000000000000000000081526004016123bd906150de565b60405180910390fd5b80806123d190614f34565b91505061226a565b5060005b816004018054905081101561254c578160070160009054906101000a900473ffffffffffffffffffffffffffffffffffffffff1673ffffffffffffffffffffffffffffffffffffffff16600960009054906101000a900473ffffffffffffffffffffffffffffffffffffffff1673ffffffffffffffffffffffffffffffffffffffff16636352211e84600401848154811061247b5761247a614ea2565b5b90600052602060002001546040518263ffffffff1660e01b81526004016124a2919061500f565b602060405180830381865afa1580156124bf573d6000803e3d6000fd5b505050506040513d601f19601f820116820180604052508101906124e3919061503f565b73ffffffffffffffffffffffffffffffffffffffff1614612539576040517f08c379a000000000000000000000000000000000000000000000000000000000815260040161253090615170565b60405180910390fd5b808061254490614f34565b9150506123dd565b5060005b81600201805490508110156126bf578160080160009054906101000a900473ffffffffffffffffffffffffffffffffffffffff1673ffffffffffffffffffffffffffffffffffffffff16600a60009054906101000a900473ffffffffffffffffffffffffffffffffffffffff1673ffffffffffffffffffffffffffffffffffffffff16636352211e8460020184815481106125ee576125ed614ea2565b5b90600052602060002001546040518263ffffffff1660e01b8152600401612615919061500f565b602060405180830381865afa158015612632573d6000803e3d6000fd5b505050506040513d601f19601f82011682018060405250810190612656919061503f565b73ffffffffffffffffffffffffffffffffffffffff16146126ac576040517f08c379a00000000000000000000000000000000000000000000000000000000081526004016126a3906150de565b60405180910390fd5b80806126b790614f34565b915050612550565b5060005b8160050180549050811015612832578160070160009054906101000a900473ffffffffffffffffffffffffffffffffffffffff1673ffffffffffffffffffffffffffffffffffffffff16600a60009054906101000a900473ffffffffffffffffffffffffffffffffffffffff1673ffffffffffffffffffffffffffffffffffffffff16636352211e84600501848154811061276157612760614ea2565b5b90600052602060002001546040518263ffffffff1660e01b8152600401612788919061500f565b602060405180830381865afa1580156127a5573d6000803e3d6000fd5b505050506040513d601f19601f820116820180604052508101906127c9919061503f565b73ffffffffffffffffffffffffffffffffffffffff161461281f576040517f08c379a000000000000000000000000000000000000000000000000000000000815260040161281690615170565b60405180910390fd5b808061282a90614f34565b9150506126c3565b5050565b6000600160009054906101000a900473ffffffffffffffffffffffffffffffffffffffff16905081600160006101000a81548173ffffffffffffffffffffffffffffffffffffffff021916908373ffffffffffffffffffffffffffffffffffffffff1602179055508173ffffffffffffffffffffffffffffffffffffffff168173ffffffffffffffffffffffffffffffffffffffff167f8be0079c531659141344cd1fd0a4f28419497f9722a3daafe3b4186f6b6457e060405160405180910390a35050565b600080600090505b8280549050811015612c7457600083828154811061292557612924614ea2565b5b90600052602060002090600c0201604051806101e0016040529081600082015481526020016001820180548060200260200160405190810160405280929190818152602001828054801561299857602002820191906000526020600020905b815481526020019060010190808311612984575b50505050508152602001600282018054806020026020016040519081016040528092919081815260200182805480156129f057602002820191906000526020600020905b8154815260200190600101908083116129dc575b505050505081526020016003820154815260200160048201805480602002602001604051908101604052809291908181526020018280548015612a5257602002820191906000526020600020905b815481526020019060010190808311612a3e575b5050505050815260200160058201805480602002602001604051908101604052809291908181526020018280548015612aaa57602002820191906000526020600020905b815481526020019060010190808311612a96575b50505050508152602001600682015481526020016007820160009054906101000a900473ffffffffffffffffffffffffffffffffffffffff1673ffffffffffffffffffffffffffffffffffffffff1673ffffffffffffffffffffffffffffffffffffffff1681526020016008820160009054906101000a900473ffffffffffffffffffffffffffffffffffffffff1673ffffffffffffffffffffffffffffffffffffffff1673ffffffffffffffffffffffffffffffffffffffff1681526020016009820160009054906101000a900473ffffffffffffffffffffffffffffffffffffffff1673ffffffffffffffffffffffffffffffffffffffff1673ffffffffffffffffffffffffffffffffffffffff1681526020016009820160149054906101000a900460ff161515151581526020016009820160159054906101000a900460ff161515151581526020016009820160169054906101000a900460ff16151515158152602001600a8201548152602001600b820154815250509050846000015481600001511415612c6057838281548110612c4957612c48614ea2565b5b90600052602060002090600c020192505050612c9a565b508080612c6c90614f34565b915050612904565b5081600081548110612c8957612c88614ea2565b5b90600052602060002090600c020190505b92915050565b60005b8160010180549050811015612dbe57600960009054906101000a900473ffffffffffffffffffffffffffffffffffffffff1673ffffffffffffffffffffffffffffffffffffffff166342842e0e8360080160009054906101000a900473ffffffffffffffffffffffffffffffffffffffff168460070160009054906101000a900473ffffffffffffffffffffffffffffffffffffffff16856001018581548110612d5057612d4f614ea2565b5b90600052602060002001546040518463ffffffff1660e01b8152600401612d7993929190614c5c565b600060405180830381600087803b158015612d9357600080fd5b505af1158015612da7573d6000803e3d6000fd5b505050508080612db690614f34565b915050612ca3565b5060005b8160040180549050811015612edd57600960009054906101000a900473ffffffffffffffffffffffffffffffffffffffff1673ffffffffffffffffffffffffffffffffffffffff166342842e0e8360070160009054906101000a900473ffffffffffffffffffffffffffffffffffffffff168460080160009054906101000a900473ffffffffffffffffffffffffffffffffffffffff16856004018581548110612e6f57612e6e614ea2565b5b90600052602060002001546040518463ffffffff1660e01b8152600401612e9893929190614c5c565b600060405180830381600087803b158015612eb257600080fd5b505af1158015612ec6573d6000803e3d6000fd5b505050508080612ed590614f34565b915050612dc2565b5060005b8160020180549050811015612ffc57600a60009054906101000a900473ffffffffffffffffffffffffffffffffffffffff1673ffffffffffffffffffffffffffffffffffffffff166342842e0e8360080160009054906101000a900473ffffffffffffffffffffffffffffffffffffffff168460070160009054906101000a900473ffffffffffffffffffffffffffffffffffffffff16856002018581548110612f8e57612f8d614ea2565b5b90600052602060002001546040518463ffffffff1660e01b8152600401612fb793929190614c5c565b600060405180830381600087803b158015612fd157600080fd5b505af1158015612fe5573d6000803e3d6000fd5b505050508080612ff490614f34565b915050612ee1565b5060005b816005018054905081101561311b57600a60009054906101000a900473ffffffffffffffffffffffffffffffffffffffff1673ffffffffffffffffffffffffffffffffffffffff166342842e0e8360070160009054906101000a900473ffffffffffffffffffffffffffffffffffffffff168460080160009054906101000a900473ffffffffffffffffffffffffffffffffffffffff168560050185815481106130ad576130ac614ea2565b5b90600052602060002001546040518463ffffffff1660e01b81526004016130d693929190614c5c565b600060405180830381600087803b1580156130f057600080fd5b505af1158015613104573d6000803e3d6000fd5b50505050808061311390614f34565b915050613000565b5050565b806000806101000a81548173ffffffffffffffffffffffffffffffffffffffff021916908373ffffffffffffffffffffffffffffffffffffffff16021790555050565b60005b818054905081101561396857600082828154811061318657613185614ea2565b5b90600052602060002090600c0201604051806101e001604052908160008201548152602001600182018054806020026020016040519081016040528092919081815260200182805480156131f957602002820191906000526020600020905b8154815260200190600101908083116131e5575b505050505081526020016002820180548060200260200160405190810160405280929190818152602001828054801561325157602002820191906000526020600020905b81548152602001906001019080831161323d575b5050505050815260200160038201548152602001600482018054806020026020016040519081016040528092919081815260200182805480156132b357602002820191906000526020600020905b81548152602001906001019080831161329f575b505050505081526020016005820180548060200260200160405190810160405280929190818152602001828054801561330b57602002820191906000526020600020905b8154815260200190600101908083116132f7575b50505050508152602001600682015481526020016007820160009054906101000a900473ffffffffffffffffffffffffffffffffffffffff1673ffffffffffffffffffffffffffffffffffffffff1673ffffffffffffffffffffffffffffffffffffffff1681526020016008820160009054906101000a900473ffffffffffffffffffffffffffffffffffffffff1673ffffffffffffffffffffffffffffffffffffffff1673ffffffffffffffffffffffffffffffffffffffff1681526020016009820160009054906101000a900473ffffffffffffffffffffffffffffffffffffffff1673ffffffffffffffffffffffffffffffffffffffff1673ffffffffffffffffffffffffffffffffffffffff1681526020016009820160149054906101000a900460ff161515151581526020016009820160159054906101000a900460ff161515151581526020016009820160169054906101000a900460ff16151515158152602001600a8201548152602001600b8201548152505090508360000154816000015114156139545782600184805490506134a99190614ed1565b815481106134ba576134b9614ea2565b5b90600052602060002090600c02018383815481106134db576134da614ea2565b5b90600052602060002090600c0201600082015481600001556001820181600101908054613509929190613a99565b506002820181600201908054613520929190613a99565b50600382015481600301556004820181600401908054613541929190613a99565b506005820181600501908054613558929190613a99565b50600682015481600601556007820160009054906101000a900473ffffffffffffffffffffffffffffffffffffffff168160070160006101000a81548173ffffffffffffffffffffffffffffffffffffffff021916908373ffffffffffffffffffffffffffffffffffffffff1602179055506008820160009054906101000a900473ffffffffffffffffffffffffffffffffffffffff168160080160006101000a81548173ffffffffffffffffffffffffffffffffffffffff021916908373ffffffffffffffffffffffffffffffffffffffff1602179055506009820160009054906101000a900473ffffffffffffffffffffffffffffffffffffffff168160090160006101000a81548173ffffffffffffffffffffffffffffffffffffffff021916908373ffffffffffffffffffffffffffffffffffffffff1602179055506009820160149054906101000a900460ff168160090160146101000a81548160ff0219169083151502179055506009820160159054906101000a900460ff168160090160156101000a81548160ff0219169083151502179055506009820160169054906101000a900460ff168160090160166101000a81548160ff021916908315150217905550600a82015481600a0155600b82015481600b015590505082600560008660070160009054906101000a900473ffffffffffffffffffffffffffffffffffffffff1673ffffffffffffffffffffffffffffffffffffffff1673ffffffffffffffffffffffffffffffffffffffff1681526020019081526020016000209080546137a8929190613aeb565b50600560008560070160009054906101000a900473ffffffffffffffffffffffffffffffffffffffff1673ffffffffffffffffffffffffffffffffffffffff1673ffffffffffffffffffffffffffffffffffffffff16815260200190815260200160002080548061381c5761381b614f05565b5b60019003818190600052602060002090600c02016000808201600090556001820160006138499190613a78565b6002820160006138599190613a78565b60038201600090556004820160006138719190613a78565b6005820160006138819190613a78565b60068201600090556007820160006101000a81549073ffffffffffffffffffffffffffffffffffffffff02191690556008820160006101000a81549073ffffffffffffffffffffffffffffffffffffffff02191690556009820160006101000a81549073ffffffffffffffffffffffffffffffffffffffff02191690556009820160146101000a81549060ff02191690556009820160156101000a81549060ff02191690556009820160166101000a81549060ff0219169055600a820160009055600b8201600090555050905550613968565b50808061396090614f34565b915050613165565b505050565b604051806101e0016040528060008152602001606081526020016060815260200160008152602001606081526020016060815260200160008152602001600073ffffffffffffffffffffffffffffffffffffffff168152602001600073ffffffffffffffffffffffffffffffffffffffff168152602001600073ffffffffffffffffffffffffffffffffffffffff16815260200160001515815260200160001515815260200160001515815260200160008152602001600081525090565b828054828255906000526020600020908101928215613a67579160200282015b82811115613a66578251825591602001919060010190613a4b565b5b509050613a749190613d8d565b5090565b5080546000825590600052602060002090810190613a969190613d8d565b50565b828054828255906000526020600020908101928215613ada5760005260206000209182015b82811115613ad9578254825591600101919060010190613abe565b5b509050613ae79190613d8d565b5090565b82805482825590600052602060002090600c028101928215613d7c57600052602060002091600c0282015b82811115613d7b578282600082015481600001556001820181600101908054613b40929190613a99565b506002820181600201908054613b57929190613a99565b50600382015481600301556004820181600401908054613b78929190613a99565b506005820181600501908054613b8f929190613a99565b50600682015481600601556007820160009054906101000a900473ffffffffffffffffffffffffffffffffffffffff168160070160006101000a81548173ffffffffffffffffffffffffffffffffffffffff021916908373ffffffffffffffffffffffffffffffffffffffff1602179055506008820160009054906101000a900473ffffffffffffffffffffffffffffffffffffffff168160080160006101000a81548173ffffffffffffffffffffffffffffffffffffffff021916908373ffffffffffffffffffffffffffffffffffffffff1602179055506009820160009054906101000a900473ffffffffffffffffffffffffffffffffffffffff168160090160006101000a81548173ffffffffffffffffffffffffffffffffffffffff021916908373ffffffffffffffffffffffffffffffffffffffff1602179055506009820160149054906101000a900460ff168160090160146101000a81548160ff0219169083151502179055506009820160159054906101000a900460ff168160090160156101000a81548160ff0219169083151502179055506009820160169054906101000a900460ff168160090160166101000a81548160ff021916908315150217905550600a82015481600a0155600b82015481600b0155505091600c019190600c0190613b16565b5b509050613d899190613daa565b5090565b5b80821115613da6576000816000905550600101613d8e565b5090565b5b80821115613ed657600080820160009055600182016000613dcc9190613a78565b600282016000613ddc9190613a78565b6003820160009055600482016000613df49190613a78565b600582016000613e049190613a78565b60068201600090556007820160006101000a81549073ffffffffffffffffffffffffffffffffffffffff02191690556008820160006101000a81549073ffffffffffffffffffffffffffffffffffffffff02191690556009820160006101000a81549073ffffffffffffffffffffffffffffffffffffffff02191690556009820160146101000a81549060ff02191690556009820160156101000a81549060ff02191690556009820160166101000a81549060ff0219169055600a820160009055600b82016000905550600c01613dab565b5090565b6000604051905090565b600080fd5b600080fd5b6000819050919050565b613f0181613eee565b8114613f0c57600080fd5b50565b600081359050613f1e81613ef8565b92915050565b600060208284031215613f3a57613f39613ee4565b5b6000613f4884828501613f0f565b91505092915050565b613f5a81613eee565b82525050565b600081519050919050565b600082825260208201905092915050565b6000819050602082019050919050565b6000613f988383613f51565b60208301905092915050565b6000602082019050919050565b6000613fbc82613f60565b613fc68185613f6b565b9350613fd183613f7c565b8060005b83811015614002578151613fe98882613f8c565b9750613ff483613fa4565b925050600181019050613fd5565b5085935050505092915050565b600073ffffffffffffffffffffffffffffffffffffffff82169050919050565b600061403a8261400f565b9050919050565b61404a8161402f565b82525050565b60008115159050919050565b61406581614050565b82525050565b60006101e0830160008301516140846000860182613f51565b506020830151848203602086015261409c8282613fb1565b915050604083015184820360408601526140b68282613fb1565b91505060608301516140cb6060860182613f51565b50608083015184820360808601526140e38282613fb1565b91505060a083015184820360a08601526140fd8282613fb1565b91505060c083015161411260c0860182613f51565b5060e083015161412560e0860182614041565b5061010083015161413a610100860182614041565b5061012083015161414f610120860182614041565b5061014083015161416461014086018261405c565b5061016083015161417961016086018261405c565b5061018083015161418e61018086018261405c565b506101a08301516141a36101a0860182613f51565b506101c08301516141b86101c0860182613f51565b508091505092915050565b600060208201905081810360008301526141dd818461406b565b905092915050565b600082825260208201905092915050565b600061420182613f60565b61420b81856141e5565b935061421683613f7c565b8060005b8381101561424757815161422e8882613f8c565b975061423983613fa4565b92505060018101905061421a565b5085935050505092915050565b6000602082019050818103600083015261426e81846141f6565b905092915050565b60006142818261400f565b9050919050565b61429181614276565b811461429c57600080fd5b50565b6000813590506142ae81614288565b92915050565b600080fd5b6000601f19601f8301169050919050565b7f4e487b7100000000000000000000000000000000000000000000000000000000600052604160045260246000fd5b614302826142b9565b810181811067ffffffffffffffff82111715614321576143206142ca565b5b80604052505050565b6000614334613eda565b905061434082826142f9565b919050565b600067ffffffffffffffff8211156143605761435f6142ca565b5b602082029050602081019050919050565b600080fd5b600061438961438484614345565b61432a565b905080838252602082019050602084028301858111156143ac576143ab614371565b5b835b818110156143d557806143c18882613f0f565b8452602084019350506020810190506143ae565b5050509392505050565b600082601f8301126143f4576143f36142b4565b5b8135614404848260208601614376565b91505092915050565b6144168161402f565b811461442157600080fd5b50565b6000813590506144338161440d565b92915050565b60008060008060008060008060006101208a8c03121561445c5761445b613ee4565b5b600061446a8c828d0161429f565b99505060208a013567ffffffffffffffff81111561448b5761448a613ee9565b5b6144978c828d016143df565b98505060408a013567ffffffffffffffff8111156144b8576144b7613ee9565b5b6144c48c828d016143df565b97505060606144d58c828d01613f0f565b96505060808a013567ffffffffffffffff8111156144f6576144f5613ee9565b5b6145028c828d016143df565b95505060a08a013567ffffffffffffffff81111561452357614522613ee9565b5b61452f8c828d016143df565b94505060c06145408c828d01613f0f565b93505060e06145518c828d01614424565b9250506101006145638c828d01613f0f565b9150509295985092959850929598565b600081519050919050565b600082825260208201905092915050565b60005b838110156145ad578082015181840152602081019050614592565b838111156145bc576000848401525b50505050565b60006145cd82614573565b6145d7818561457e565b93506145e781856020860161458f565b6145f0816142b9565b840191505092915050565b6000602082019050818103600083015261461581846145c2565b905092915050565b60006020828403121561463357614632613ee4565b5b600061464184828501614424565b91505092915050565b61465381614050565b82525050565b600060208201905061466e600083018461464a565b92915050565b61467d8161402f565b82525050565b60006020820190506146986000830184614674565b92915050565b600081519050919050565b600082825260208201905092915050565b6000819050602082019050919050565b60006101e0830160008301516146e36000860182613f51565b50602083015184820360208601526146fb8282613fb1565b915050604083015184820360408601526147158282613fb1565b915050606083015161472a6060860182613f51565b50608083015184820360808601526147428282613fb1565b91505060a083015184820360a086015261475c8282613fb1565b91505060c083015161477160c0860182613f51565b5060e083015161478460e0860182614041565b50610100830151614799610100860182614041565b506101208301516147ae610120860182614041565b506101408301516147c361014086018261405c565b506101608301516147d861016086018261405c565b506101808301516147ed61018086018261405c565b506101a08301516148026101a0860182613f51565b506101c08301516148176101c0860182613f51565b508091505092915050565b600061482e83836146ca565b905092915050565b6000602082019050919050565b600061484e8261469e565b61485881856146a9565b93508360208202850161486a856146ba565b8060005b858110156148a657848403895281516148878582614822565b945061489283614836565b925060208a0199505060018101905061486e565b50829750879550505050505092915050565b600060208201905081810360008301526148d28184614843565b905092915050565b7f4d757374206265206c697374656420707269636520696e20617070726f76656460008201527f20746f6b656e0000000000000000000000000000000000000000000000000000602082015250565b600061493660268361457e565b9150614941826148da565b604082019050919050565b6000602082019050818103600083015261496581614929565b9050919050565b7f4e487b7100000000000000000000000000000000000000000000000000000000600052601160045260246000fd5b60006149a682613eee565b91506149b183613eee565b9250817fffffffffffffffffffffffffffffffffffffffffffffffffffffffffffffffff04831182151516156149ea576149e961496c565b5b828202905092915050565b6000614a0082613eee565b9150614a0b83613eee565b9250827fffffffffffffffffffffffffffffffffffffffffffffffffffffffffffffffff03821115614a4057614a3f61496c565b5b828201905092915050565b614a5481613eee565b82525050565b6000606082019050614a6f6000830186614a4b565b614a7c6020830185614674565b614a89604083018461464a565b949350505050565b7f4e487b7100000000000000000000000000000000000000000000000000000000600052602260045260246000fd5b60006002820490506001821680614ad857607f821691505b60208210811415614aec57614aeb614a91565b5b50919050565b7f4f776e61626c653a2063616c6c6572206973206e6f7420746865206f776e6572600082015250565b6000614b2860208361457e565b9150614b3382614af2565b602082019050919050565b60006020820190508181036000830152614b5781614b1b565b9050919050565b7f4f6e6c79206f666665726564206163636f756e742063616e206163636570742060008201527f6f66666572000000000000000000000000000000000000000000000000000000602082015250565b6000614bba60258361457e565b9150614bc582614b5e565b604082019050919050565b60006020820190508181036000830152614be981614bad565b9050919050565b7f4f66666572206861732065787069726564000000000000000000000000000000600082015250565b6000614c2660118361457e565b9150614c3182614bf0565b602082019050919050565b60006020820190508181036000830152614c5581614c19565b9050919050565b6000606082019050614c716000830186614674565b614c7e6020830185614674565b614c8b6040830184614a4b565b949350505050565b614c9c81614050565b8114614ca757600080fd5b50565b600081519050614cb981614c93565b92915050565b600060208284031215614cd557614cd4613ee4565b5b6000614ce384828501614caa565b91505092915050565b7f43616e6e6f742062652063616e63656c6c6564206279206e6f6e20696e766f6c60008201527f7665642070617274696573000000000000000000000000000000000000000000602082015250565b6000614d48602b8361457e565b9150614d5382614cec565b604082019050919050565b60006020820190508181036000830152614d7781614d3b565b9050919050565b7f43616e6e6f7420726567756c61722063616e63656c207768656e2066726f6d2060008201527f7061727479206861732061636365707465640000000000000000000000000000602082015250565b6000614dda60328361457e565b9150614de582614d7e565b604082019050919050565b60006020820190508181036000830152614e0981614dcd565b9050919050565b7f43616e6e6f7420726567756c61722063616e63656c207768656e20746f20706160008201527f7274792068617320616363657074656400000000000000000000000000000000602082015250565b6000614e6c60308361457e565b9150614e7782614e10565b604082019050919050565b60006020820190508181036000830152614e9b81614e5f565b9050919050565b7f4e487b7100000000000000000000000000000000000000000000000000000000600052603260045260246000fd5b6000614edc82613eee565b9150614ee783613eee565b925082821015614efa57614ef961496c565b5b828203905092915050565b7f4e487b7100000000000000000000000000000000000000000000000000000000600052603160045260246000fd5b6000614f3f82613eee565b91507fffffffffffffffffffffffffffffffffffffffffffffffffffffffffffffffff821415614f7257614f7161496c565b5b600182019050919050565b7f4f776e61626c653a206e6577206f776e657220697320746865207a65726f206160008201527f6464726573730000000000000000000000000000000000000000000000000000602082015250565b6000614fd960268361457e565b9150614fe482614f7d565b604082019050919050565b6000602082019050818103600083015261500881614fcc565b9050919050565b60006020820190506150246000830184614a4b565b92915050565b6000815190506150398161440d565b92915050565b60006020828403121561505557615054613ee4565b5b60006150638482850161502a565b91505092915050565b7f4f666665726564206163636f756e74206d757374206f776e20616c6c2072657160008201527f756573746564204e465473000000000000000000000000000000000000000000602082015250565b60006150c8602b8361457e565b91506150d38261506c565b604082019050919050565b600060208201905081810360008301526150f7816150bb565b9050919050565b7f4f66666572696e67206163636f756e74206d757374206f776e20616c6c206f6660008201527f6665726564204e46547300000000000000000000000000000000000000000000602082015250565b600061515a602a8361457e565b9150615165826150fe565b604082019050919050565b600060208201905081810360008301526151898161514d565b905091905056fea2646970667358221220bc74b23abb721b2d66e41b6325f34c3ec4e60f891d3b23e8b6cc7fd97ccafded64736f6c634300080a0033",
  "immutableReferences": {},
  "source": "pragma solidity ^0.8.0;\n\nimport \"@openzeppelin/contracts/access/Ownable.sol\";\nimport \"@openzeppelin/contracts/token/ERC721/ERC721.sol\";\nimport \"@openzeppelin/contracts/token/ERC20/IERC20.sol\";\nimport \"@openzeppelin/contracts/token/ERC20/ERC20.sol\";\nimport \"@openzeppelin/contracts/token/ERC721/IERC721.sol\";\nimport \"@openzeppelin/contracts/utils/Counters.sol\";\nimport \"@opengsn/contracts/src/BaseRelayRecipient.sol\";\n\nimport \"./ViridianNFT.sol\";\nimport \"./ViridianPack.sol\";\n\ncontract ViridianExchangeOffers is BaseRelayRecipient, Ownable {\n\n    //EVENTS\n    event CreatedOffer(uint256 offerId, address wallet, bool created);\n    event CancelledOffer(uint256 offerId, address wallet, bool cancelled);\n    event AcceptedOffer(uint256 offerId, address wallet, bool accepted);\n\n\n    using Counters for Counters.Counter;\n    Counters.Counter private _offerIds;\n\n    ViridianNFT vNFT;\n    ViridianPack vPack;\n\n    struct Offer {\n        uint256 offerId;\n        uint256[] toNftIds;\n        uint256[] toPackIds;\n        uint toAmt;\n        uint256[] fromNftIds;\n        uint256[] fromPackIds;\n        uint fromAmt;\n        address to;\n        address from;\n        address erc20Address;\n        bool pending;\n        bool toAccepted;\n        bool fromAccepted;\n        uint256 startTime;\n        uint256 endTime;\n    }\n\n    mapping (address => Offer[]) userOffers;\n    mapping (uint256 => Offer) offers;\n    uint256[] private offerIds;\n    mapping (uint256 => uint256) highestCardOffer;\n\n    address public viridianNFT;\n    address public viridianPack;\n    mapping (address => bool) public approvedTokens;\n\n    constructor(address _erc20Token, address _viridianNFT, address _viridianPack) {//, address _forwarder) {\n        require(address(_erc20Token) != address(0));\n        require(address(_viridianNFT) != address(0));\n        require(address(_viridianPack) != address(0));\n\n        //_setTrustedForwarder(_forwarder);\n\n        approvedTokens[_erc20Token] = true;\n        //address _ETH, ETH = _ETH;\n        viridianNFT = _viridianNFT;\n        viridianPack = _viridianPack;\n\n        vNFT = ViridianNFT(_viridianNFT);\n        vPack = ViridianPack(_viridianPack);\n    }\n\n    string public override versionRecipient = \"2.2.0\";\n\n    function setTrustedForwarder(address _forwarder) public onlyOwner() {\n        _setTrustedForwarder(_forwarder);\n    }\n\n    function _msgSender() internal view override(Context, BaseRelayRecipient) returns (address sender) {\n        sender = BaseRelayRecipient._msgSender();\n    }\n\n    function _msgData() internal view override(Context, BaseRelayRecipient) returns (bytes memory) {\n        return BaseRelayRecipient._msgData();\n    }\n\n    function addERC20Token(address _erc20Address) public onlyOwner() {\n        approvedTokens[_erc20Address] = true;\n    }\n\n    function getOffers() public view returns (uint256[] memory) {\n        return offerIds;\n    }\n\n    function getOffersFromId(uint256 _offerId) public view returns (Offer memory) {\n        return offers[_offerId];\n    }\n\n    function getOffersFromUser(address _userAddr) public view returns (Offer[] memory) {\n        return userOffers[_userAddr];\n    }\n\n    function hasOfferExpired(uint256 _offerId) public view returns (bool) {\n        Offer storage curOffer = offers[_offerId];\n\n        // Always return false if the current offer is pending final approval\n        if (curOffer.toAccepted && !curOffer.fromAccepted) {\n            return false;\n        }\n\n        if (!curOffer.pending) {\n            return true;\n        }\n        else {\n            return curOffer.endTime < block.timestamp;\n        }\n    }\n\n    function makeOffer(address payable _to, uint256[] memory _nftIds, uint256[] memory _packIds, uint256 _amount, uint256[] memory _recNftIds, uint256[] memory _recPackIds, uint256 _recAmount, address _erc20Address, uint256 _daysValid) public {\n        require(approvedTokens[_erc20Address], \"Must be listed price in approved token\");\n        require(_to != _msgSender());\n\n        // if(!IERC721(viridianNFT).isApprovedForAll(_msgSender(), address(this))) {\n        //     IERC721(viridianNFT).setApprovalForAll(address(this), true);\n        // }\n\n        _offerIds.increment();\n        uint256 _offerId = _offerIds.current();\n\n        uint256 endTime = block.timestamp + (_daysValid * 1 days);\n\n        Offer memory newOffer = Offer(_offerId, _nftIds, _packIds, _amount, _recNftIds, _recPackIds, _recAmount, _to, payable(_msgSender()), _erc20Address, true, false, false, block.timestamp, endTime);\n        \n        userOffers[_to].push(newOffer);\n        userOffers[_msgSender()].push(newOffer);\n        offers[_offerId] = newOffer;\n\n        doOfferingPartiesOwnContents(offers[_offerId]);\n        offerIds.push(_offerId);\n\n        emit CreatedOffer(_offerId, _msgSender(), true);\n    }\n\n    function removeOffer(Offer storage curOffer, Offer[] storage curUserOffers) private {\n        for (uint i = 0; i < curUserOffers.length; i++) {\n            Offer memory offer = curUserOffers[i];\n            if (offer.offerId == curOffer.offerId) {\n                curUserOffers[i] = curUserOffers[curUserOffers.length - 1];\n                userOffers[curOffer.to] = curUserOffers;\n                userOffers[curOffer.to].pop();\n                break;\n            }\n        } \n    }\n \n    function cancelOffer(uint256 _offerId) public {\n        Offer storage curOffer = offers[_offerId];\n        require(curOffer.from == _msgSender() || curOffer.to == _msgSender(), \"Cannot be cancelled by non involved parties\");\n        require(!hasOfferExpired(_offerId), \"Offer has expired\");\n        require(!curOffer.fromAccepted, \"Cannot regular cancel when from party has accepted\");\n        require(!curOffer.toAccepted, \"Cannot regular cancel when to party has accepted\");\n\n        Offer[] storage curUserOffers = userOffers[curOffer.to];\n        Offer[] storage otherUserOffers = userOffers[curOffer.from];\n        \n        //TODO: Check who is cancelling and cancel that person's offers.\n\n        // Remove offer from current user's offers\n        removeOffer(curOffer, curUserOffers);\n\n        // Remove offer from other user's offers\n        removeOffer(curOffer, otherUserOffers);\n\n        // Remove offer id from global list of offer ids\n        for (uint256 i = 0; i < offerIds.length; i++) {\n            uint256 offerId = offerIds[i];\n            if (offerId == curOffer.offerId) {\n                offerIds[i] = offerIds[offerIds.length - 1];\n                offerIds.pop();\n                break;\n            }\n        }\n\n        // Remove offer from global mapping of offers\n        delete offers[_offerId];\n\n        emit CancelledOffer(curOffer.offerId, _msgSender(), true);\n    }\n\n    function doOfferingPartiesOwnContents(Offer storage _curOffer) private view {\n        for (uint i = 0; i < _curOffer.toNftIds.length; i++) {\n            require(IERC721(viridianNFT).ownerOf(_curOffer.toNftIds[i]) == _curOffer.from, \"Offered account must own all requested NFTs\");\n        }\n\n        for (uint i = 0; i < _curOffer.fromNftIds.length; i++) {\n            require(IERC721(viridianNFT).ownerOf(_curOffer.fromNftIds[i]) == _curOffer.to, \"Offering account must own all offered NFTs\");\n        }\n\n        for (uint i = 0; i < _curOffer.toPackIds.length; i++) {\n            require(IERC721(viridianPack).ownerOf(_curOffer.toPackIds[i]) == _curOffer.from, \"Offered account must own all requested NFTs\");\n        }\n\n        for (uint i = 0; i < _curOffer.fromPackIds.length; i++) {\n            require(IERC721(viridianPack).ownerOf(_curOffer.fromPackIds[i]) == _curOffer.to, \"Offering account must own all offered NFTs\");\n        }\n    }\n\n    function transferAllOfferContents(Offer storage _curOffer) private {\n        // Loop through all of the to items in the offer.\n        for (uint i = 0; i < _curOffer.toNftIds.length; i++) {\n            //IERC721(viridianNFT).approve(curOffer.to, curOffer.fromNftIds[i]);\n            IERC721(viridianNFT).safeTransferFrom(_curOffer.from, _curOffer.to, _curOffer.toNftIds[i]);\n        }\n\n        // Loop through all of the from items in the offer.\n        for (uint i = 0; i < _curOffer.fromNftIds.length; i++) {\n            //IERC721(viridianNFT).approve(curOffer.to, curOffer.fromNftIds[i]);\n            IERC721(viridianNFT).safeTransferFrom(_curOffer.to, _curOffer.from, _curOffer.fromNftIds[i]);\n        }\n\n        for (uint i = 0; i < _curOffer.toPackIds.length; i++) {\n            //IERC721(viridianNFT).approve(curOffer.to, curOffer.fromNftIds[i]);\n            IERC721(viridianPack).safeTransferFrom(_curOffer.from, _curOffer.to, _curOffer.toPackIds[i]);\n        }\n\n        // Loop through all of the from items in the offer.\n        for (uint i = 0; i < _curOffer.fromPackIds.length; i++) {\n            //IERC721(viridianNFT).approve(curOffer.to, curOffer.fromNftIds[i]);\n            IERC721(viridianPack).safeTransferFrom(_curOffer.to, _curOffer.from, _curOffer.fromPackIds[i]);\n        }\n    }\n\n    function getCurOffer(Offer storage curOffer, Offer[] storage curUserOffers) private view returns (Offer storage) {\n        for (uint i = 0; i < curUserOffers.length; i++) {\n            Offer memory offer = curUserOffers[i];\n            if (offer.offerId == curOffer.offerId) {\n                return curUserOffers[i]; //.pending = false;\n            }\n        }\n\n        return curUserOffers[0];\n    }\n    \n    function acceptOfferWithERC20(uint256 _offerId) public {\n        Offer storage curOffer = offers[_offerId];\n\n        require(curOffer.to == _msgSender(), \"Only offered account can accept offer\");\n        require(!hasOfferExpired(_offerId), \"Offer has expired\");\n\n        Offer[] storage curUserOffers = userOffers[curOffer.to];\n        Offer[] storage otherUserOffers = userOffers[curOffer.from];\n\n        // for (uint i = 0; i < curUserOffers.length; i++) {\n        //     Offer memory offer = curUserOffers[i];\n        //     if (offer.offerId == curOffer.offerId) {\n        //         curUserOffers[i].pending = false;\n        //         break;\n        //     }\n        // }\n\n        Offer storage setOffer = getCurOffer(curOffer, curUserOffers);\n\n        // for (uint i = 0; i < otherUserOffers.length; i++) {\n        //     Offer memory offer = otherUserOffers[i];\n        //     if (offer.offerId == curOffer.offerId) {\n        //         otherUserOffers[i].pending = false;\n        //         break;\n        //     }\n        // }\n\n        Offer storage setOfferO = getCurOffer(curOffer, otherUserOffers);\n\n        doOfferingPartiesOwnContents(curOffer);\n\n        // if(!IERC721(viridianNFT).isApprovedForAll(_msgSender(), address(this))) {\n        //     IERC721(viridianNFT).setApprovalForAll(address(this), true);\n        // }\n\n        IERC20(curOffer.erc20Address).transferFrom(curOffer.from, curOffer.to, curOffer.toAmt);\n        IERC20(curOffer.erc20Address).transferFrom(curOffer.to, curOffer.from, curOffer.fromAmt);\n\n        transferAllOfferContents(curOffer);\n\n        curOffer.pending = false;\n        setOffer.pending = false;\n        setOfferO.pending = false;\n        emit AcceptedOffer(_offerId, _msgSender(), true);\n    }\n}",
  "sourcePath": "/Users/blakehatch/Viridian-Exchange-Contracts/contracts/ViridianExchangeOffers.sol",
  "compiler": {
    "name": "solc",
    "version": "0.8.10+commit.fc410830.Emscripten.clang"
  },
  "schemaVersion": "3.4.1",
  "updatedAt": "2021-12-14T19:36:43.608Z",
  "networkType": "ethereum",
  "devdoc": {
    "kind": "dev",
    "methods": {
      "owner()": {
        "details": "Returns the address of the current owner."
      },
      "renounceOwnership()": {
        "details": "Leaves the contract without owner. It will not be possible to call `onlyOwner` functions anymore. Can only be called by the current owner. NOTE: Renouncing ownership will leave the contract without an owner, thereby removing any functionality that is only available to the owner."
      },
      "transferOwnership(address)": {
        "details": "Transfers ownership of the contract to a new account (`newOwner`). Can only be called by the current owner."
      }
    },
    "version": 1
  },
  "userdoc": {
    "kind": "user",
    "methods": {
      "isTrustedForwarder(address)": {
        "notice": "return if the forwarder is trusted to forward relayed transactions to us. the forwarder is required to verify the sender's signature, and verify the call is not a replay."
      }
    },
    "version": 1
  }
}