{
  "contractName": "ViridianPack",
  "abi": [
    {
      "inputs": [
        {
          "internalType": "address",
          "name": "_viridianNFT",
          "type": "address"
        }
      ],
      "stateMutability": "nonpayable",
      "type": "constructor"
    },
    {
      "anonymous": false,
      "inputs": [
        {
          "indexed": true,
          "internalType": "address",
          "name": "owner",
          "type": "address"
        },
        {
          "indexed": true,
          "internalType": "address",
          "name": "approved",
          "type": "address"
        },
        {
          "indexed": true,
          "internalType": "uint256",
          "name": "tokenId",
          "type": "uint256"
        }
      ],
      "name": "Approval",
      "type": "event"
    },
    {
      "anonymous": false,
      "inputs": [
        {
          "indexed": true,
          "internalType": "address",
          "name": "owner",
          "type": "address"
        },
        {
          "indexed": true,
          "internalType": "address",
          "name": "operator",
          "type": "address"
        },
        {
          "indexed": false,
          "internalType": "bool",
          "name": "approved",
          "type": "bool"
        }
      ],
      "name": "ApprovalForAll",
      "type": "event"
    },
    {
      "anonymous": false,
      "inputs": [
        {
          "indexed": false,
          "internalType": "string[10]",
          "name": "newUris",
          "type": "string[10]"
        }
      ],
      "name": "Open",
      "type": "event"
    },
    {
      "anonymous": false,
      "inputs": [
        {
          "indexed": true,
          "internalType": "address",
          "name": "previousOwner",
          "type": "address"
        },
        {
          "indexed": true,
          "internalType": "address",
          "name": "newOwner",
          "type": "address"
        }
      ],
      "name": "OwnershipTransferred",
      "type": "event"
    },
    {
      "anonymous": false,
      "inputs": [
        {
          "indexed": true,
          "internalType": "address",
          "name": "from",
          "type": "address"
        },
        {
          "indexed": true,
          "internalType": "address",
          "name": "to",
          "type": "address"
        },
        {
          "indexed": true,
          "internalType": "uint256",
          "name": "tokenId",
          "type": "uint256"
        }
      ],
      "name": "Transfer",
      "type": "event"
    },
    {
      "inputs": [
        {
          "internalType": "address",
          "name": "to",
          "type": "address"
        },
        {
          "internalType": "uint256",
          "name": "tokenId",
          "type": "uint256"
        }
      ],
      "name": "approve",
      "outputs": [],
      "stateMutability": "nonpayable",
      "type": "function"
    },
    {
      "inputs": [
        {
          "internalType": "address",
          "name": "owner",
          "type": "address"
        }
      ],
      "name": "balanceOf",
      "outputs": [
        {
          "internalType": "uint256",
          "name": "",
          "type": "uint256"
        }
      ],
      "stateMutability": "view",
      "type": "function",
      "constant": true
    },
    {
      "inputs": [
        {
          "internalType": "uint256",
          "name": "tokenId",
          "type": "uint256"
        }
      ],
      "name": "getApproved",
      "outputs": [
        {
          "internalType": "address",
          "name": "",
          "type": "address"
        }
      ],
      "stateMutability": "view",
      "type": "function",
      "constant": true
    },
    {
      "inputs": [
        {
          "internalType": "address",
          "name": "owner",
          "type": "address"
        },
        {
          "internalType": "address",
          "name": "operator",
          "type": "address"
        }
      ],
      "name": "isApprovedForAll",
      "outputs": [
        {
          "internalType": "bool",
          "name": "",
          "type": "bool"
        }
      ],
      "stateMutability": "view",
      "type": "function",
      "constant": true
    },
    {
      "inputs": [],
      "name": "name",
      "outputs": [
        {
          "internalType": "string",
          "name": "",
          "type": "string"
        }
      ],
      "stateMutability": "view",
      "type": "function",
      "constant": true
    },
    {
      "inputs": [],
      "name": "owner",
      "outputs": [
        {
          "internalType": "address",
          "name": "",
          "type": "address"
        }
      ],
      "stateMutability": "view",
      "type": "function",
      "constant": true
    },
    {
      "inputs": [
        {
          "internalType": "uint256",
          "name": "tokenId",
          "type": "uint256"
        }
      ],
      "name": "ownerOf",
      "outputs": [
        {
          "internalType": "address",
          "name": "",
          "type": "address"
        }
      ],
      "stateMutability": "view",
      "type": "function",
      "constant": true
    },
    {
      "inputs": [],
      "name": "renounceOwnership",
      "outputs": [],
      "stateMutability": "nonpayable",
      "type": "function"
    },
    {
      "inputs": [
        {
          "internalType": "address",
          "name": "operator",
          "type": "address"
        },
        {
          "internalType": "bool",
          "name": "approved",
          "type": "bool"
        }
      ],
      "name": "setApprovalForAll",
      "outputs": [],
      "stateMutability": "nonpayable",
      "type": "function"
    },
    {
      "inputs": [
        {
          "internalType": "bytes4",
          "name": "interfaceId",
          "type": "bytes4"
        }
      ],
      "name": "supportsInterface",
      "outputs": [
        {
          "internalType": "bool",
          "name": "",
          "type": "bool"
        }
      ],
      "stateMutability": "view",
      "type": "function",
      "constant": true
    },
    {
      "inputs": [],
      "name": "symbol",
      "outputs": [
        {
          "internalType": "string",
          "name": "",
          "type": "string"
        }
      ],
      "stateMutability": "view",
      "type": "function",
      "constant": true
    },
    {
      "inputs": [
        {
          "internalType": "address",
          "name": "newOwner",
          "type": "address"
        }
      ],
      "name": "transferOwnership",
      "outputs": [],
      "stateMutability": "nonpayable",
      "type": "function"
    },
    {
      "inputs": [],
      "name": "viridianNFTAddr",
      "outputs": [
        {
          "internalType": "address",
          "name": "",
          "type": "address"
        }
      ],
      "stateMutability": "view",
      "type": "function",
      "constant": true
    },
    {
      "inputs": [
        {
          "internalType": "address",
          "name": "_newAdmin",
          "type": "address"
        }
      ],
      "name": "addAdmin",
      "outputs": [],
      "stateMutability": "nonpayable",
      "type": "function"
    },
    {
      "inputs": [
        {
          "internalType": "address",
          "name": "_newAdmin",
          "type": "address"
        }
      ],
      "name": "removeAdmin",
      "outputs": [],
      "stateMutability": "nonpayable",
      "type": "function"
    },
    {
      "inputs": [
        {
          "internalType": "string",
          "name": "baseURI_",
          "type": "string"
        }
      ],
      "name": "setBaseURI",
      "outputs": [],
      "stateMutability": "nonpayable",
      "type": "function"
    },
    {
      "inputs": [
        {
          "internalType": "uint256",
          "name": "tokenId",
          "type": "uint256"
        },
        {
          "internalType": "string",
          "name": "_tokenURI",
          "type": "string"
        }
      ],
      "name": "_setTokenURI",
      "outputs": [],
      "stateMutability": "nonpayable",
      "type": "function"
    },
    {
      "inputs": [
        {
          "internalType": "uint256",
          "name": "tokenId",
          "type": "uint256"
        }
      ],
      "name": "tokenURI",
      "outputs": [
        {
          "internalType": "string",
          "name": "",
          "type": "string"
        }
      ],
      "stateMutability": "view",
      "type": "function",
      "constant": true
    },
    {
      "inputs": [
        {
          "internalType": "uint256",
          "name": "_rarity",
          "type": "uint256"
        }
      ],
      "name": "getUriRarityPools",
      "outputs": [
        {
          "internalType": "string[]",
          "name": "",
          "type": "string[]"
        }
      ],
      "stateMutability": "view",
      "type": "function",
      "constant": true
    },
    {
      "inputs": [],
      "name": "getNumNFTs",
      "outputs": [
        {
          "internalType": "uint256",
          "name": "n",
          "type": "uint256"
        }
      ],
      "stateMutability": "view",
      "type": "function",
      "constant": true
    },
    {
      "inputs": [],
      "name": "getNumOwnedNFTs",
      "outputs": [
        {
          "internalType": "uint256",
          "name": "",
          "type": "uint256"
        }
      ],
      "stateMutability": "view",
      "type": "function",
      "constant": true
    },
    {
      "inputs": [],
      "name": "getOwnedNFTs",
      "outputs": [
        {
          "internalType": "uint256[]",
          "name": "",
          "type": "uint256[]"
        }
      ],
      "stateMutability": "view",
      "type": "function",
      "constant": true
    },
    {
      "inputs": [
        {
          "internalType": "uint256",
          "name": "_rarity",
          "type": "uint256"
        },
        {
          "internalType": "uint256",
          "name": "_rarityOdd",
          "type": "uint256"
        },
        {
          "internalType": "uint256",
          "name": "_newOdds",
          "type": "uint256"
        }
      ],
      "name": "setRarityOdds",
      "outputs": [],
      "stateMutability": "nonpayable",
      "type": "function"
    },
    {
      "inputs": [
        {
          "internalType": "uint256",
          "name": "tokenId",
          "type": "uint256"
        }
      ],
      "name": "isListed",
      "outputs": [
        {
          "internalType": "bool",
          "name": "",
          "type": "bool"
        }
      ],
      "stateMutability": "view",
      "type": "function",
      "constant": true
    },
    {
      "inputs": [
        {
          "internalType": "address",
          "name": "_to",
          "type": "address"
        },
        {
          "internalType": "string",
          "name": "tokenURI_",
          "type": "string"
        }
      ],
      "name": "mint",
      "outputs": [],
      "stateMutability": "nonpayable",
      "type": "function"
    },
    {
      "inputs": [
        {
          "internalType": "string",
          "name": "uri",
          "type": "string"
        },
        {
          "internalType": "uint256",
          "name": "rarity",
          "type": "uint256"
        }
      ],
      "name": "softMintNFT",
      "outputs": [],
      "stateMutability": "payable",
      "type": "function",
      "payable": true
    },
    {
      "inputs": [
        {
          "internalType": "uint256",
          "name": "rarity",
          "type": "uint256"
        },
        {
          "internalType": "uint256",
          "name": "index",
          "type": "uint256"
        }
      ],
      "name": "burnSoftMintedNFTAtRarityIndex",
      "outputs": [],
      "stateMutability": "payable",
      "type": "function",
      "payable": true
    },
    {
      "inputs": [
        {
          "internalType": "string",
          "name": "_s",
          "type": "string"
        },
        {
          "internalType": "string",
          "name": "_s1",
          "type": "string"
        }
      ],
      "name": "compareStrings",
      "outputs": [
        {
          "internalType": "bool",
          "name": "",
          "type": "bool"
        }
      ],
      "stateMutability": "pure",
      "type": "function",
      "constant": true
    },
    {
      "inputs": [
        {
          "internalType": "uint256",
          "name": "_tokenId",
          "type": "uint256"
        }
      ],
      "name": "lockInPackResult",
      "outputs": [],
      "stateMutability": "payable",
      "type": "function",
      "payable": true
    },
    {
      "inputs": [
        {
          "internalType": "uint256",
          "name": "_tokenId",
          "type": "uint256"
        }
      ],
      "name": "openPack",
      "outputs": [],
      "stateMutability": "payable",
      "type": "function",
      "payable": true
    },
    {
      "inputs": [
        {
          "internalType": "uint256",
          "name": "tokenId",
          "type": "uint256"
        }
      ],
      "name": "burn",
      "outputs": [],
      "stateMutability": "nonpayable",
      "type": "function"
    },
    {
      "inputs": [
        {
          "internalType": "address",
          "name": "recipient",
          "type": "address"
        },
        {
          "internalType": "string",
          "name": "hash",
          "type": "string"
        },
        {
          "internalType": "string",
          "name": "metadata",
          "type": "string"
        }
      ],
      "name": "awardItem",
      "outputs": [
        {
          "internalType": "uint256",
          "name": "",
          "type": "uint256"
        }
      ],
      "stateMutability": "nonpayable",
      "type": "function"
    },
    {
      "inputs": [
        {
          "internalType": "address",
          "name": "from",
          "type": "address"
        },
        {
          "internalType": "address",
          "name": "to",
          "type": "address"
        },
        {
          "internalType": "uint256",
          "name": "tokenId",
          "type": "uint256"
        }
      ],
      "name": "safeTransferFrom",
      "outputs": [],
      "stateMutability": "nonpayable",
      "type": "function"
    },
    {
      "inputs": [
        {
          "internalType": "address",
          "name": "from",
          "type": "address"
        },
        {
          "internalType": "address",
          "name": "to",
          "type": "address"
        },
        {
          "internalType": "uint256",
          "name": "tokenId",
          "type": "uint256"
        },
        {
          "internalType": "bytes",
          "name": "_data",
          "type": "bytes"
        }
      ],
      "name": "safeTransferFrom",
      "outputs": [],
      "stateMutability": "nonpayable",
      "type": "function"
    },
    {
      "inputs": [
        {
          "internalType": "address",
          "name": "from",
          "type": "address"
        },
        {
          "internalType": "address",
          "name": "to",
          "type": "address"
        },
        {
          "internalType": "uint256",
          "name": "tokenId",
          "type": "uint256"
        }
      ],
      "name": "transferFrom",
      "outputs": [],
      "stateMutability": "nonpayable",
      "type": "function"
    },
    {
      "inputs": [
        {
          "internalType": "uint256",
          "name": "_tokenId",
          "type": "uint256"
        }
      ],
      "name": "listToken",
      "outputs": [],
      "stateMutability": "nonpayable",
      "type": "function"
    },
    {
      "inputs": [
        {
          "internalType": "uint256",
          "name": "_tokenId",
          "type": "uint256"
        }
      ],
      "name": "unlistToken",
      "outputs": [],
      "stateMutability": "nonpayable",
      "type": "function"
    }
  ],
  "bytecode": "0x60806040523480156200001157600080fd5b5060405162005e8c38038062005e8c833981810160405281019062000037919062000786565b6040518060400160405280600d81526020017f566972696469616e205061636b000000000000000000000000000000000000008152506040518060400160405280600281526020017f56500000000000000000000000000000000000000000000000000000000000008152508160009080519060200190620000bb9291906200066c565b508060019080519060200190620000d49291906200066c565b505050620000f7620000eb6200059e60201b60201c565b620005a660201b60201c565b600073ffffffffffffffffffffffffffffffffffffffff168173ffffffffffffffffffffffffffffffffffffffff1614156200013257600080fd5b80601260006101000a81548173ffffffffffffffffffffffffffffffffffffffff021916908373ffffffffffffffffffffffffffffffffffffffff160217905550601260009054906101000a900473ffffffffffffffffffffffffffffffffffffffff16601360006101000a81548173ffffffffffffffffffffffffffffffffffffffff021916908373ffffffffffffffffffffffffffffffffffffffff16021790555030601460006101000a81548173ffffffffffffffffffffffffffffffffffffffff021916908373ffffffffffffffffffffffffffffffffffffffff1602179055506019600a60008081526020019081526020016000206000808152602001908152602001600020819055506064600a60008081526020019081526020016000206000600181526020019081526020016000208190555061012c600a6000808152602001908152602001600020600060028152602001908152602001600020819055506103e8600a6000808152602001908152602001600020600060038152602001908152602001600020819055506003600b6000808152602001908152602001600020819055506001600a6000600181526020019081526020016000206000808152602001908152602001600020819055506032600a6000600181526020019081526020016000206000600181526020019081526020016000208190555060c8600a600060018152602001908152602001600020600060028152602001908152602001600020819055506103e8600a600060018152602001908152602001600020600060038152602001908152602001600020819055506003600b6000808152602001908152602001600020819055506000600a6000600281526020019081526020016000206000808152602001908152602001600020819055506032600a600060028152602001908152602001600020600060018152602001908152602001600020819055506064600a600060028152602001908152602001600020600060028152602001908152602001600020819055506103e8600a600060028152602001908152602001600020600060038152602001908152602001600020819055506003600b6000808152602001908152602001600020819055506000600a600060038152602001908152602001600020600080815260200190815260200160002081905550600a80600060038152602001908152602001600020600060018152602001908152602001600020819055506032600a600060038152602001908152602001600020600060028152602001908152602001600020819055506103e8600a600060038152602001908152602001600020600060038152602001908152602001600020819055506003600b6000808152602001908152602001600020819055506003600f819055506001601160003373ffffffffffffffffffffffffffffffffffffffff1673ffffffffffffffffffffffffffffffffffffffff16815260200190815260200160002060006101000a81548160ff021916908315150217905550506200081d565b600033905090565b6000600660009054906101000a900473ffffffffffffffffffffffffffffffffffffffff16905081600660006101000a81548173ffffffffffffffffffffffffffffffffffffffff021916908373ffffffffffffffffffffffffffffffffffffffff1602179055508173ffffffffffffffffffffffffffffffffffffffff168173ffffffffffffffffffffffffffffffffffffffff167f8be0079c531659141344cd1fd0a4f28419497f9722a3daafe3b4186f6b6457e060405160405180910390a35050565b8280546200067a90620007e7565b90600052602060002090601f0160209004810192826200069e5760008555620006ea565b82601f10620006b957805160ff1916838001178555620006ea565b82800160010185558215620006ea579182015b82811115620006e9578251825591602001919060010190620006cc565b5b509050620006f99190620006fd565b5090565b5b8082111562000718576000816000905550600101620006fe565b5090565b600080fd5b600073ffffffffffffffffffffffffffffffffffffffff82169050919050565b60006200074e8262000721565b9050919050565b620007608162000741565b81146200076c57600080fd5b50565b600081519050620007808162000755565b92915050565b6000602082840312156200079f576200079e6200071c565b5b6000620007af848285016200076f565b91505092915050565b7f4e487b7100000000000000000000000000000000000000000000000000000000600052602260045260246000fd5b600060028204905060018216806200080057607f821691505b60208210811415620008175762000816620007b8565b5b50919050565b61565f806200082d6000396000f3fe60806040526004361061021a5760003560e01c80638da5cb5b11610123578063bda4e797116100ab578063e6148d5f1161006f578063e6148d5f146107b4578063e985e9c5146107dd578063ece769e71461081a578063f2fde38b14610836578063fcce48831461085f5761021a565b8063bda4e797146106ca578063bed34bba146106f5578063c87b56dd14610732578063d0def5211461076f578063dc5df54e146107985761021a565b8063a3524a04116100f2578063a3524a04146105f9578063a80f1e9c14610624578063ad3a358c1461064d578063b88d4fde14610676578063bb92c2481461069f5761021a565b80638da5cb5b1461053d57806395d89b4114610568578063a203428c14610593578063a22cb465146105d05761021a565b806342966c68116101a65780636352211e116101755780636352211e14610446578063704802751461048357806370a08231146104ac578063715018a6146104e95780638bfaf101146105005761021a565b806342966c68146103ad5780634c0eb7d9146103d657806350a88c7e1461040157806355f804b31461041d5761021a565b8063095ea7b3116101ed578063095ea7b3146102ed5780630e065931146103165780631785f53c1461033257806323b872dd1461035b57806342842e0e146103845761021a565b8063015388681461021f57806301ffc9a71461024857806306fdde0314610285578063081812fc146102b0575b600080fd5b34801561022b57600080fd5b5061024660048036038101906102419190613ae4565b61089c565b005b34801561025457600080fd5b5061026f600480360381019061026a9190613b98565b61098c565b60405161027c9190613be0565b60405180910390f35b34801561029157600080fd5b5061029a610a6e565b6040516102a79190613c83565b60405180910390f35b3480156102bc57600080fd5b506102d760048036038101906102d29190613ca5565b610b00565b6040516102e49190613d13565b60405180910390f35b3480156102f957600080fd5b50610314600480360381019061030f9190613d5a565b610b85565b005b610330600480360381019061032b9190613d9a565b610c9d565b005b34801561033e57600080fd5b5061035960048036038101906103549190613df6565b610d4b565b005b34801561036757600080fd5b50610382600480360381019061037d9190613e23565b610e22565b005b34801561039057600080fd5b506103ab60048036038101906103a69190613e23565b610ef4565b005b3480156103b957600080fd5b506103d460048036038101906103cf9190613ca5565b610fc6565b005b3480156103e257600080fd5b506103eb610ff3565b6040516103f89190613f34565b60405180910390f35b61041b60048036038101906104169190613ca5565b6110e8565b005b34801561042957600080fd5b50610444600480360381019061043f9190613f56565b6118e4565b005b34801561045257600080fd5b5061046d60048036038101906104689190613ca5565b61195b565b60405161047a9190613d13565b60405180910390f35b34801561048f57600080fd5b506104aa60048036038101906104a59190613df6565b611a0d565b005b3480156104b857600080fd5b506104d360048036038101906104ce9190613df6565b611ae4565b6040516104e09190613fae565b60405180910390f35b3480156104f557600080fd5b506104fe611b9c565b005b34801561050c57600080fd5b5061052760048036038101906105229190613fc9565b611c24565b6040516105349190613fae565b60405180910390f35b34801561054957600080fd5b50610552611cd1565b60405161055f9190613d13565b60405180910390f35b34801561057457600080fd5b5061057d611cfb565b60405161058a9190613c83565b60405180910390f35b34801561059f57600080fd5b506105ba60048036038101906105b59190613ca5565b611d8d565b6040516105c79190614160565b60405180910390f35b3480156105dc57600080fd5b506105f760048036038101906105f291906141ae565b611ed6565b005b34801561060557600080fd5b5061060e612057565b60405161061b9190613d13565b60405180910390f35b34801561063057600080fd5b5061064b600480360381019061064691906141ee565b61207d565b005b34801561065957600080fd5b50610674600480360381019061066f9190613ca5565b612108565b005b34801561068257600080fd5b5061069d600480360381019061069891906142e2565b61214a565b005b3480156106ab57600080fd5b506106b46121ac565b6040516106c19190613fae565b60405180910390f35b3480156106d657600080fd5b506106df612230565b6040516106ec9190613fae565b60405180910390f35b34801561070157600080fd5b5061071c60048036038101906107179190614365565b612241565b6040516107299190613be0565b60405180910390f35b34801561073e57600080fd5b5061075960048036038101906107549190613ca5565b61229a565b6040516107669190613c83565b60405180910390f35b34801561077b57600080fd5b50610796600480360381019061079191906143dd565b61240d565b005b6107b260048036038101906107ad9190614439565b6124c7565b005b3480156107c057600080fd5b506107db60048036038101906107d69190613ca5565b612701565b005b3480156107e957600080fd5b5061080460048036038101906107ff9190614479565b612743565b6040516108119190613be0565b60405180910390f35b610834600480360381019061082f9190613ca5565b6127d7565b005b34801561084257600080fd5b5061085d60048036038101906108589190613df6565b6128cf565b005b34801561086b57600080fd5b5061088660048036038101906108819190613ca5565b6129c7565b6040516108939190613be0565b60405180910390f35b6108a46129f1565b73ffffffffffffffffffffffffffffffffffffffff166108c2611cd1565b73ffffffffffffffffffffffffffffffffffffffff1614610918576040517f08c379a000000000000000000000000000000000000000000000000000000000815260040161090f90614505565b60405180910390fd5b610921826129f9565b610960576040517f08c379a000000000000000000000000000000000000000000000000000000000815260040161095790614597565b60405180910390fd5b806015600084815260200190815260200160002090805190602001906109879291906137c5565b505050565b60007f80ac58cd000000000000000000000000000000000000000000000000000000007bffffffffffffffffffffffffffffffffffffffffffffffffffffffff1916827bffffffffffffffffffffffffffffffffffffffffffffffffffffffff19161480610a5757507f5b5e139f000000000000000000000000000000000000000000000000000000007bffffffffffffffffffffffffffffffffffffffffffffffffffffffff1916827bffffffffffffffffffffffffffffffffffffffffffffffffffffffff1916145b80610a675750610a6682612a65565b5b9050919050565b606060008054610a7d906145e6565b80601f0160208091040260200160405190810160405280929190818152602001828054610aa9906145e6565b8015610af65780601f10610acb57610100808354040283529160200191610af6565b820191906000526020600020905b815481529060010190602001808311610ad957829003601f168201915b5050505050905090565b6000610b0b826129f9565b610b4a576040517f08c379a0000000000000000000000000000000000000000000000000000000008152600401610b419061468a565b60405180910390fd5b6004600083815260200190815260200160002060009054906101000a900473ffffffffffffffffffffffffffffffffffffffff169050919050565b6000610b908261195b565b90508073ffffffffffffffffffffffffffffffffffffffff168373ffffffffffffffffffffffffffffffffffffffff161415610c01576040517f08c379a0000000000000000000000000000000000000000000000000000000008152600401610bf89061471c565b60405180910390fd5b8073ffffffffffffffffffffffffffffffffffffffff16610c206129f1565b73ffffffffffffffffffffffffffffffffffffffff161480610c4f5750610c4e81610c496129f1565b612743565b5b610c8e576040517f08c379a0000000000000000000000000000000000000000000000000000000008152600401610c85906147ae565b60405180910390fd5b610c988383612acf565b505050565b60011515601160003373ffffffffffffffffffffffffffffffffffffffff1673ffffffffffffffffffffffffffffffffffffffff16815260200190815260200160002060009054906101000a900460ff16151514610cfa57600080fd5b600e600082815260200190815260200160002082908060018154018082558091505060019003906000526020600020016000909190919091509080519060200190610d469291906137c5565b505050565b610d536129f1565b73ffffffffffffffffffffffffffffffffffffffff16610d71611cd1565b73ffffffffffffffffffffffffffffffffffffffff1614610dc7576040517f08c379a0000000000000000000000000000000000000000000000000000000008152600401610dbe90614505565b60405180910390fd5b6000601160008373ffffffffffffffffffffffffffffffffffffffff1673ffffffffffffffffffffffffffffffffffffffff16815260200190815260200160002060006101000a81548160ff02191690831515021790555050565b600c600082815260200190815260200160002060009054906101000a900460ff1615610e83576040517f08c379a0000000000000000000000000000000000000000000000000000000008152600401610e7a90614840565b60405180910390fd5b6010600082815260200190815260200160002060009054906101000a900460ff1615610ee4576040517f08c379a0000000000000000000000000000000000000000000000000000000008152600401610edb906148d2565b60405180910390fd5b610eef838383612b88565b505050565b600c600082815260200190815260200160002060009054906101000a900460ff1615610f55576040517f08c379a0000000000000000000000000000000000000000000000000000000008152600401610f4c90614840565b60405180910390fd5b6010600082815260200190815260200160002060009054906101000a900460ff1615610fb6576040517f08c379a0000000000000000000000000000000000000000000000000000000008152600401610fad906148d2565b60405180910390fd5b610fc1838383612be8565b505050565b610fd03382612c08565b610fd957600080fd5b6000610fe48261195b565b9050610fef82612ce6565b5050565b60606000610fff6121ac565b67ffffffffffffffff811115611018576110176139b9565b5b6040519080825280602002602001820160405280156110465781602001602082028036833780820191505090505b509050600080600190505b61105b6007612df7565b81116110df573373ffffffffffffffffffffffffffffffffffffffff166110818261195b565b73ffffffffffffffffffffffffffffffffffffffff1614156110cc57808383815181106110b1576110b06148f2565b5b60200260200101818152505081806110c890614950565b9250505b80806110d790614950565b915050611051565b50819250505090565b6110f23382612c08565b6110fb57600080fd5b6000601460009054906101000a900473ffffffffffffffffffffffffffffffffffffffff1673ffffffffffffffffffffffffffffffffffffffff166397597bfd836040518263ffffffff1660e01b81526004016111589190613fae565b602060405180830381865afa158015611175573d6000803e3d6000fd5b505050506040513d601f19601f8201168201806040525081019061119991906149ae565b116111d9576040517f08c379a00000000000000000000000000000000000000000000000000000000081526004016111d090614a4d565b60405180910390fd5b6000601460009054906101000a900473ffffffffffffffffffffffffffffffffffffffff1673ffffffffffffffffffffffffffffffffffffffff1663d972fa1c836040518263ffffffff1660e01b81526004016112369190613fae565b602060405180830381865afa158015611253573d6000803e3d6000fd5b505050506040513d601f19601f8201168201806040525081019061127791906149ae565b116112b7576040517f08c379a00000000000000000000000000000000000000000000000000000000081526004016112ae90614adf565b60405180910390fd5b6000600d60008381526020019081526020016000205490506112d761384b565b60005b600b6000848152602001908152602001600020548160ff16101561189e5760006113b1601460009054906101000a900473ffffffffffffffffffffffffffffffffffffffff1673ffffffffffffffffffffffffffffffffffffffff1663d972fa1c876040518263ffffffff1660e01b81526004016113589190613fae565b602060405180830381865afa158015611375573d6000803e3d6000fd5b505050506040513d601f19601f8201168201806040525081019061139991906149ae565b600a6000878152602001908152602001600020612e05565b905060006001600e6000848152602001908152602001600020805490506113d89190614aff565b601460009054906101000a900473ffffffffffffffffffffffffffffffffffffffff1673ffffffffffffffffffffffffffffffffffffffff166397597bfd886040518263ffffffff1660e01b81526004016114339190613fae565b602060405180830381865afa158015611450573d6000803e3d6000fd5b505050506040513d601f19601f8201168201806040525081019061147491906149ae565b61147e9190614b62565b90506000600e600084815260200190815260200160002082815481106114a7576114a66148f2565b5b9060005260206000200180546114bc906145e6565b80601f01602080910402602001604051908101604052809291908181526020018280546114e8906145e6565b80156115355780601f1061150a57610100808354040283529160200191611535565b820191906000526020600020905b81548152906001019060200180831161151857829003601f168201915b50505050509050601360009054906101000a900473ffffffffffffffffffffffffffffffffffffffff1673ffffffffffffffffffffffffffffffffffffffff1663d0def52133836040518363ffffffff1660e01b8152600401611599929190614b93565b600060405180830381600087803b1580156115b357600080fd5b505af11580156115c7573d6000803e3d6000fd5b5050505080858560ff16600a81106115e2576115e16148f2565b5b60200201819052506000600e6000858152602001908152602001600020805480602002602001604051908101604052809291908181526020016000905b828210156116cb57838290600052602060002001805461163e906145e6565b80601f016020809104026020016040519081016040528092919081815260200182805461166a906145e6565b80156116b75780601f1061168c576101008083540402835291602001916116b7565b820191906000526020600020905b81548152906001019060200180831161169a57829003601f168201915b50505050508152602001906001019061161f565b50505050905060005b600e600086815260200190815260200160002080549050811015611886576000600e60008781526020019081526020016000208281548110611719576117186148f2565b5b90600052602060002001805461172e906145e6565b80601f016020809104026020016040519081016040528092919081815260200182805461175a906145e6565b80156117a75780601f1061177c576101008083540402835291602001916117a7565b820191906000526020600020905b81548152906001019060200180831161178a57829003601f168201915b505050505090506117b88185612241565b156118725782600184516117cc9190614aff565b815181106117dd576117dc6148f2565b5b60200260200101518383815181106117f8576117f76148f2565b5b602002602001018190525082600e6000888152602001908152602001600020908051906020019061182a929190613873565b50600e600087815260200190815260200160002080548061184e5761184d614bc3565b5b60019003818190600052602060002001600061186a91906138d3565b905550611886565b50808061187e90614950565b9150506116d4565b5050505050808061189690614bff565b9150506112da565b506118a883610fc6565b7f7a8f71ffa367c677061e81db64480595dffec51888e92c29fd97f628ad7be9bc816040516118d79190614ccb565b60405180910390a1505050565b60011515601160003373ffffffffffffffffffffffffffffffffffffffff1673ffffffffffffffffffffffffffffffffffffffff16815260200190815260200160002060009054906101000a900460ff1615151461194157600080fd5b80601690805190602001906119579291906137c5565b5050565b6000806002600084815260200190815260200160002060009054906101000a900473ffffffffffffffffffffffffffffffffffffffff169050600073ffffffffffffffffffffffffffffffffffffffff168173ffffffffffffffffffffffffffffffffffffffff161415611a04576040517f08c379a00000000000000000000000000000000000000000000000000000000081526004016119fb90614d5f565b60405180910390fd5b80915050919050565b611a156129f1565b73ffffffffffffffffffffffffffffffffffffffff16611a33611cd1565b73ffffffffffffffffffffffffffffffffffffffff1614611a89576040517f08c379a0000000000000000000000000000000000000000000000000000000008152600401611a8090614505565b60405180910390fd5b6001601160008373ffffffffffffffffffffffffffffffffffffffff1673ffffffffffffffffffffffffffffffffffffffff16815260200190815260200160002060006101000a81548160ff02191690831515021790555050565b60008073ffffffffffffffffffffffffffffffffffffffff168273ffffffffffffffffffffffffffffffffffffffff161415611b55576040517f08c379a0000000000000000000000000000000000000000000000000000000008152600401611b4c90614df1565b60405180910390fd5b600360008373ffffffffffffffffffffffffffffffffffffffff1673ffffffffffffffffffffffffffffffffffffffff168152602001908152602001600020549050919050565b611ba46129f1565b73ffffffffffffffffffffffffffffffffffffffff16611bc2611cd1565b73ffffffffffffffffffffffffffffffffffffffff1614611c18576040517f08c379a0000000000000000000000000000000000000000000000000000000008152600401611c0f90614505565b60405180910390fd5b611c226000612e57565b565b60006001600984604051611c389190614e4d565b908152602001604051809103902060009054906101000a900460ff1660ff161415611c6257600080fd5b6001600984604051611c749190614e4d565b908152602001604051809103902060006101000a81548160ff021916908360ff160217905550611ca46007612f1d565b6000611cb06007612df7565b9050611cbc8582612f33565b611cc6818461089c565b809150509392505050565b6000600660009054906101000a900473ffffffffffffffffffffffffffffffffffffffff16905090565b606060018054611d0a906145e6565b80601f0160208091040260200160405190810160405280929190818152602001828054611d36906145e6565b8015611d835780601f10611d5857610100808354040283529160200191611d83565b820191906000526020600020905b815481529060010190602001808311611d6657829003601f168201915b5050505050905090565b606060011515601160003373ffffffffffffffffffffffffffffffffffffffff1673ffffffffffffffffffffffffffffffffffffffff16815260200190815260200160002060009054906101000a900460ff16151514611dec57600080fd5b600e6000838152602001908152602001600020805480602002602001604051908101604052809291908181526020016000905b82821015611ecb578382906000526020600020018054611e3e906145e6565b80601f0160208091040260200160405190810160405280929190818152602001828054611e6a906145e6565b8015611eb75780601f10611e8c57610100808354040283529160200191611eb7565b820191906000526020600020905b815481529060010190602001808311611e9a57829003601f168201915b505050505081526020019060010190611e1f565b505050509050919050565b611ede6129f1565b73ffffffffffffffffffffffffffffffffffffffff168273ffffffffffffffffffffffffffffffffffffffff161415611f4c576040517f08c379a0000000000000000000000000000000000000000000000000000000008152600401611f4390614eb0565b60405180910390fd5b8060056000611f596129f1565b73ffffffffffffffffffffffffffffffffffffffff1673ffffffffffffffffffffffffffffffffffffffff16815260200190815260200160002060008473ffffffffffffffffffffffffffffffffffffffff1673ffffffffffffffffffffffffffffffffffffffff16815260200190815260200160002060006101000a81548160ff0219169083151502179055508173ffffffffffffffffffffffffffffffffffffffff166120066129f1565b73ffffffffffffffffffffffffffffffffffffffff167f17307eab39ab6107e8899845ad3d59bd9653f200f220920489ca2b5937696c318360405161204b9190613be0565b60405180910390a35050565b601260009054906101000a900473ffffffffffffffffffffffffffffffffffffffff1681565b60011515601160003373ffffffffffffffffffffffffffffffffffffffff1673ffffffffffffffffffffffffffffffffffffffff16815260200190815260200160002060009054906101000a900460ff161515146120da57600080fd5b80600a6000858152602001908152602001600020600084815260200190815260200160002081905550505050565b6121123382612c08565b61211b57600080fd5b6000600c600083815260200190815260200160002060006101000a81548160ff02191690831515021790555050565b61215b6121556129f1565b83612c08565b61219a576040517f08c379a000000000000000000000000000000000000000000000000000000000815260040161219190614f42565b60405180910390fd5b6121a684848484613101565b50505050565b600080600090506000600190505b6121c46007612df7565b8111612228573373ffffffffffffffffffffffffffffffffffffffff166121ea8261195b565b73ffffffffffffffffffffffffffffffffffffffff16141561221557818061221190614950565b9250505b808061222090614950565b9150506121ba565b508091505090565b600061223c6007612df7565b905090565b6000816040516020016122549190614e4d565b604051602081830303815290604052805190602001208360405160200161227b9190614e4d565b6040516020818303038152906040528051906020012014905092915050565b60606122a5826129f9565b6122e4576040517f08c379a00000000000000000000000000000000000000000000000000000000081526004016122db90614fd4565b60405180910390fd5b6000601560008481526020019081526020016000208054612304906145e6565b80601f0160208091040260200160405190810160405280929190818152602001828054612330906145e6565b801561237d5780601f106123525761010080835404028352916020019161237d565b820191906000526020600020905b81548152906001019060200180831161236057829003601f168201915b50505050509050600061238e61315d565b90506000815114156123a4578192505050612408565b6000825111156123d95780826040516020016123c1929190614ff4565b60405160208183030381529060405292505050612408565b806123e3856131ef565b6040516020016123f4929190614ff4565b604051602081830303815290604052925050505b919050565b60011515601160003373ffffffffffffffffffffffffffffffffffffffff1673ffffffffffffffffffffffffffffffffffffffff16815260200190815260200160002060009054906101000a900460ff1615151461246a57600080fd5b6124746007612f1d565b60006124806007612df7565b905061248c8382613350565b6000600c600083815260200190815260200160002060006101000a81548160ff0219169083151502179055506124c2818361089c565b505050565b60011515601160003373ffffffffffffffffffffffffffffffffffffffff1673ffffffffffffffffffffffffffffffffffffffff16815260200190815260200160002060009054906101000a900460ff1615151461252457600080fd5b6000600e6000848152602001908152602001600020805480602002602001604051908101604052809291908181526020016000905b82821015612605578382906000526020600020018054612578906145e6565b80601f01602080910402602001604051908101604052809291908181526020018280546125a4906145e6565b80156125f15780601f106125c6576101008083540402835291602001916125f1565b820191906000526020600020905b8154815290600101906020018083116125d457829003601f168201915b505050505081526020019060010190612559565b50505050905060005b600e6000858152602001908152602001600020805490508110156126fb57828114156126e85781600183516126439190614aff565b81518110612654576126536148f2565b5b602002602001015182828151811061266f5761266e6148f2565b5b602002602001018190525081600e600086815260200190815260200160002090805190602001906126a1929190613873565b50600e60008581526020019081526020016000208054806126c5576126c4614bc3565b5b6001900381819060005260206000200160006126e191906138d3565b90556126fb565b80806126f390614950565b91505061260e565b50505050565b61270b3382612c08565b61271457600080fd5b6001600c600083815260200190815260200160002060006101000a81548160ff02191690831515021790555050565b6000600560008473ffffffffffffffffffffffffffffffffffffffff1673ffffffffffffffffffffffffffffffffffffffff16815260200190815260200160002060008373ffffffffffffffffffffffffffffffffffffffff1673ffffffffffffffffffffffffffffffffffffffff16815260200190815260200160002060009054906101000a900460ff16905092915050565b6010600082815260200190815260200160002060009054906101000a900460ff1615612838576040517f08c379a000000000000000000000000000000000000000000000000000000000815260040161282f9061508a565b60405180910390fd5b601460009054906101000a900473ffffffffffffffffffffffffffffffffffffffff1673ffffffffffffffffffffffffffffffffffffffff1663dbdff2c16040518163ffffffff1660e01b81526004016020604051808303816000875af11580156128a7573d6000803e3d6000fd5b505050506040513d601f19601f820116820180604052508101906128cb91906150e0565b5050565b6128d76129f1565b73ffffffffffffffffffffffffffffffffffffffff166128f5611cd1565b73ffffffffffffffffffffffffffffffffffffffff161461294b576040517f08c379a000000000000000000000000000000000000000000000000000000000815260040161294290614505565b60405180910390fd5b600073ffffffffffffffffffffffffffffffffffffffff168173ffffffffffffffffffffffffffffffffffffffff1614156129bb576040517f08c379a00000000000000000000000000000000000000000000000000000000081526004016129b29061517f565b60405180910390fd5b6129c481612e57565b50565b6000600c600083815260200190815260200160002060009054906101000a900460ff169050919050565b600033905090565b60008073ffffffffffffffffffffffffffffffffffffffff166002600084815260200190815260200160002060009054906101000a900473ffffffffffffffffffffffffffffffffffffffff1673ffffffffffffffffffffffffffffffffffffffff1614159050919050565b60007f01ffc9a7000000000000000000000000000000000000000000000000000000007bffffffffffffffffffffffffffffffffffffffffffffffffffffffff1916827bffffffffffffffffffffffffffffffffffffffffffffffffffffffff1916149050919050565b816004600083815260200190815260200160002060006101000a81548173ffffffffffffffffffffffffffffffffffffffff021916908373ffffffffffffffffffffffffffffffffffffffff160217905550808273ffffffffffffffffffffffffffffffffffffffff16612b428361195b565b73ffffffffffffffffffffffffffffffffffffffff167f8c5be1e5ebec7d5bd14f71427d1e84f3dd0314c0f7b2291e5b200ac8c7c3b92560405160405180910390a45050565b612b99612b936129f1565b82612c08565b612bd8576040517f08c379a0000000000000000000000000000000000000000000000000000000008152600401612bcf90614f42565b60405180910390fd5b612be383838361336e565b505050565b612c038383836040518060200160405280600081525061214a565b505050565b6000612c13826129f9565b612c52576040517f08c379a0000000000000000000000000000000000000000000000000000000008152600401612c4990615211565b60405180910390fd5b6000612c5d8361195b565b90508073ffffffffffffffffffffffffffffffffffffffff168473ffffffffffffffffffffffffffffffffffffffff161480612ccc57508373ffffffffffffffffffffffffffffffffffffffff16612cb484610b00565b73ffffffffffffffffffffffffffffffffffffffff16145b80612cdd5750612cdc8185612743565b5b91505092915050565b6000612cf18261195b565b9050612cff816000846135ca565b612d0a600083612acf565b6001600360008373ffffffffffffffffffffffffffffffffffffffff1673ffffffffffffffffffffffffffffffffffffffff1681526020019081526020016000206000828254612d5a9190614aff565b925050819055506002600083815260200190815260200160002060006101000a81549073ffffffffffffffffffffffffffffffffffffffff021916905581600073ffffffffffffffffffffffffffffffffffffffff168273ffffffffffffffffffffffffffffffffffffffff167fddf252ad1be2c89b69c2b068fc378daa952ba7f163c4a11628f55a4df523b3ef60405160405180910390a45050565b600081600001549050919050565b600080600090505b600f54811215612e4c57826000828152602001908152602001600020548411612e395780915050612e51565b8080612e4490614950565b915050612e0d565b809150505b92915050565b6000600660009054906101000a900473ffffffffffffffffffffffffffffffffffffffff16905081600660006101000a81548173ffffffffffffffffffffffffffffffffffffffff021916908373ffffffffffffffffffffffffffffffffffffffff1602179055508173ffffffffffffffffffffffffffffffffffffffff168173ffffffffffffffffffffffffffffffffffffffff167f8be0079c531659141344cd1fd0a4f28419497f9722a3daafe3b4186f6b6457e060405160405180910390a35050565b6001816000016000828254019250508190555050565b600073ffffffffffffffffffffffffffffffffffffffff168273ffffffffffffffffffffffffffffffffffffffff161415612fa3576040517f08c379a0000000000000000000000000000000000000000000000000000000008152600401612f9a9061527d565b60405180910390fd5b612fac816129f9565b15612fec576040517f08c379a0000000000000000000000000000000000000000000000000000000008152600401612fe3906152e9565b60405180910390fd5b612ff8600083836135ca565b6001600360008473ffffffffffffffffffffffffffffffffffffffff1673ffffffffffffffffffffffffffffffffffffffff16815260200190815260200160002060008282546130489190615309565b92505081905550816002600083815260200190815260200160002060006101000a81548173ffffffffffffffffffffffffffffffffffffffff021916908373ffffffffffffffffffffffffffffffffffffffff160217905550808273ffffffffffffffffffffffffffffffffffffffff16600073ffffffffffffffffffffffffffffffffffffffff167fddf252ad1be2c89b69c2b068fc378daa952ba7f163c4a11628f55a4df523b3ef60405160405180910390a45050565b61310c84848461336e565b613118848484846135cf565b613157576040517f08c379a000000000000000000000000000000000000000000000000000000000815260040161314e906153d1565b60405180910390fd5b50505050565b60606016805461316c906145e6565b80601f0160208091040260200160405190810160405280929190818152602001828054613198906145e6565b80156131e55780601f106131ba576101008083540402835291602001916131e5565b820191906000526020600020905b8154815290600101906020018083116131c857829003601f168201915b5050505050905090565b60606000821415613237576040518060400160405280600181526020017f3000000000000000000000000000000000000000000000000000000000000000815250905061334b565b600082905060005b6000821461326957808061325290614950565b915050600a8261326291906153f1565b915061323f565b60008167ffffffffffffffff811115613285576132846139b9565b5b6040519080825280601f01601f1916602001820160405280156132b75781602001600182028036833780820191505090505b5090505b60008514613344576001826132d09190614aff565b9150600a856132df9190614b62565b60306132eb9190615309565b60f81b818381518110613301576133006148f2565b5b60200101907effffffffffffffffffffffffffffffffffffffffffffffffffffffffffffff1916908160001a905350600a8561333d91906153f1565b94506132bb565b8093505050505b919050565b61336a828260405180602001604052806000815250613757565b5050565b8273ffffffffffffffffffffffffffffffffffffffff1661338e8261195b565b73ffffffffffffffffffffffffffffffffffffffff16146133e4576040517f08c379a00000000000000000000000000000000000000000000000000000000081526004016133db90615494565b60405180910390fd5b600073ffffffffffffffffffffffffffffffffffffffff168273ffffffffffffffffffffffffffffffffffffffff161415613454576040517f08c379a000000000000000000000000000000000000000000000000000000000815260040161344b90615526565b60405180910390fd5b61345f8383836135ca565b61346a600082612acf565b6001600360008573ffffffffffffffffffffffffffffffffffffffff1673ffffffffffffffffffffffffffffffffffffffff16815260200190815260200160002060008282546134ba9190614aff565b925050819055506001600360008473ffffffffffffffffffffffffffffffffffffffff1673ffffffffffffffffffffffffffffffffffffffff16815260200190815260200160002060008282546135119190615309565b92505081905550816002600083815260200190815260200160002060006101000a81548173ffffffffffffffffffffffffffffffffffffffff021916908373ffffffffffffffffffffffffffffffffffffffff160217905550808273ffffffffffffffffffffffffffffffffffffffff168473ffffffffffffffffffffffffffffffffffffffff167fddf252ad1be2c89b69c2b068fc378daa952ba7f163c4a11628f55a4df523b3ef60405160405180910390a4505050565b505050565b60006135f08473ffffffffffffffffffffffffffffffffffffffff166137b2565b1561374a578373ffffffffffffffffffffffffffffffffffffffff1663150b7a026136196129f1565b8786866040518563ffffffff1660e01b815260040161363b949392919061559b565b6020604051808303816000875af192505050801561367757506040513d601f19601f8201168201806040525081019061367491906155fc565b60015b6136fa573d80600081146136a7576040519150601f19603f3d011682016040523d82523d6000602084013e6136ac565b606091505b506000815114156136f2576040517f08c379a00000000000000000000000000000000000000000000000000000000081526004016136e9906153d1565b60405180910390fd5b805181602001fd5b63150b7a0260e01b7bffffffffffffffffffffffffffffffffffffffffffffffffffffffff1916817bffffffffffffffffffffffffffffffffffffffffffffffffffffffff19161491505061374f565b600190505b949350505050565b6137618383612f33565b61376e60008484846135cf565b6137ad576040517f08c379a00000000000000000000000000000000000000000000000000000000081526004016137a4906153d1565b60405180910390fd5b505050565b600080823b905060008111915050919050565b8280546137d1906145e6565b90600052602060002090601f0160209004810192826137f3576000855561383a565b82601f1061380c57805160ff191683800117855561383a565b8280016001018555821561383a579182015b8281111561383957825182559160200191906001019061381e565b5b5090506138479190613913565b5090565b604051806101400160405280600a905b606081526020019060019003908161385b5790505090565b8280548282559060005260206000209081019282156138c2579160200282015b828111156138c15782518290805190602001906138b19291906137c5565b5091602001919060010190613893565b5b5090506138cf9190613930565b5090565b5080546138df906145e6565b6000825580601f106138f15750613910565b601f01602090049060005260206000209081019061390f9190613913565b5b50565b5b8082111561392c576000816000905550600101613914565b5090565b5b80821115613950576000818161394791906138d3565b50600101613931565b5090565b6000604051905090565b600080fd5b600080fd5b6000819050919050565b61397b81613968565b811461398657600080fd5b50565b60008135905061399881613972565b92915050565b600080fd5b600080fd5b6000601f19601f8301169050919050565b7f4e487b7100000000000000000000000000000000000000000000000000000000600052604160045260246000fd5b6139f1826139a8565b810181811067ffffffffffffffff82111715613a1057613a0f6139b9565b5b80604052505050565b6000613a23613954565b9050613a2f82826139e8565b919050565b600067ffffffffffffffff821115613a4f57613a4e6139b9565b5b613a58826139a8565b9050602081019050919050565b82818337600083830152505050565b6000613a87613a8284613a34565b613a19565b905082815260208101848484011115613aa357613aa26139a3565b5b613aae848285613a65565b509392505050565b600082601f830112613acb57613aca61399e565b5b8135613adb848260208601613a74565b91505092915050565b60008060408385031215613afb57613afa61395e565b5b6000613b0985828601613989565b925050602083013567ffffffffffffffff811115613b2a57613b29613963565b5b613b3685828601613ab6565b9150509250929050565b60007fffffffff0000000000000000000000000000000000000000000000000000000082169050919050565b613b7581613b40565b8114613b8057600080fd5b50565b600081359050613b9281613b6c565b92915050565b600060208284031215613bae57613bad61395e565b5b6000613bbc84828501613b83565b91505092915050565b60008115159050919050565b613bda81613bc5565b82525050565b6000602082019050613bf56000830184613bd1565b92915050565b600081519050919050565b600082825260208201905092915050565b60005b83811015613c35578082015181840152602081019050613c1a565b83811115613c44576000848401525b50505050565b6000613c5582613bfb565b613c5f8185613c06565b9350613c6f818560208601613c17565b613c78816139a8565b840191505092915050565b60006020820190508181036000830152613c9d8184613c4a565b905092915050565b600060208284031215613cbb57613cba61395e565b5b6000613cc984828501613989565b91505092915050565b600073ffffffffffffffffffffffffffffffffffffffff82169050919050565b6000613cfd82613cd2565b9050919050565b613d0d81613cf2565b82525050565b6000602082019050613d286000830184613d04565b92915050565b613d3781613cf2565b8114613d4257600080fd5b50565b600081359050613d5481613d2e565b92915050565b60008060408385031215613d7157613d7061395e565b5b6000613d7f85828601613d45565b9250506020613d9085828601613989565b9150509250929050565b60008060408385031215613db157613db061395e565b5b600083013567ffffffffffffffff811115613dcf57613dce613963565b5b613ddb85828601613ab6565b9250506020613dec85828601613989565b9150509250929050565b600060208284031215613e0c57613e0b61395e565b5b6000613e1a84828501613d45565b91505092915050565b600080600060608486031215613e3c57613e3b61395e565b5b6000613e4a86828701613d45565b9350506020613e5b86828701613d45565b9250506040613e6c86828701613989565b9150509250925092565b600081519050919050565b600082825260208201905092915050565b6000819050602082019050919050565b613eab81613968565b82525050565b6000613ebd8383613ea2565b60208301905092915050565b6000602082019050919050565b6000613ee182613e76565b613eeb8185613e81565b9350613ef683613e92565b8060005b83811015613f27578151613f0e8882613eb1565b9750613f1983613ec9565b925050600181019050613efa565b5085935050505092915050565b60006020820190508181036000830152613f4e8184613ed6565b905092915050565b600060208284031215613f6c57613f6b61395e565b5b600082013567ffffffffffffffff811115613f8a57613f89613963565b5b613f9684828501613ab6565b91505092915050565b613fa881613968565b82525050565b6000602082019050613fc36000830184613f9f565b92915050565b600080600060608486031215613fe257613fe161395e565b5b6000613ff086828701613d45565b935050602084013567ffffffffffffffff81111561401157614010613963565b5b61401d86828701613ab6565b925050604084013567ffffffffffffffff81111561403e5761403d613963565b5b61404a86828701613ab6565b9150509250925092565b600081519050919050565b600082825260208201905092915050565b6000819050602082019050919050565b600082825260208201905092915050565b600061409c82613bfb565b6140a68185614080565b93506140b6818560208601613c17565b6140bf816139a8565b840191505092915050565b60006140d68383614091565b905092915050565b6000602082019050919050565b60006140f682614054565b614100818561405f565b93508360208202850161411285614070565b8060005b8581101561414e578484038952815161412f85826140ca565b945061413a836140de565b925060208a01995050600181019050614116565b50829750879550505050505092915050565b6000602082019050818103600083015261417a81846140eb565b905092915050565b61418b81613bc5565b811461419657600080fd5b50565b6000813590506141a881614182565b92915050565b600080604083850312156141c5576141c461395e565b5b60006141d385828601613d45565b92505060206141e485828601614199565b9150509250929050565b6000806000606084860312156142075761420661395e565b5b600061421586828701613989565b935050602061422686828701613989565b925050604061423786828701613989565b9150509250925092565b600067ffffffffffffffff82111561425c5761425b6139b9565b5b614265826139a8565b9050602081019050919050565b600061428561428084614241565b613a19565b9050828152602081018484840111156142a1576142a06139a3565b5b6142ac848285613a65565b509392505050565b600082601f8301126142c9576142c861399e565b5b81356142d9848260208601614272565b91505092915050565b600080600080608085870312156142fc576142fb61395e565b5b600061430a87828801613d45565b945050602061431b87828801613d45565b935050604061432c87828801613989565b925050606085013567ffffffffffffffff81111561434d5761434c613963565b5b614359878288016142b4565b91505092959194509250565b6000806040838503121561437c5761437b61395e565b5b600083013567ffffffffffffffff81111561439a57614399613963565b5b6143a685828601613ab6565b925050602083013567ffffffffffffffff8111156143c7576143c6613963565b5b6143d385828601613ab6565b9150509250929050565b600080604083850312156143f4576143f361395e565b5b600061440285828601613d45565b925050602083013567ffffffffffffffff81111561442357614422613963565b5b61442f85828601613ab6565b9150509250929050565b600080604083850312156144505761444f61395e565b5b600061445e85828601613989565b925050602061446f85828601613989565b9150509250929050565b600080604083850312156144905761448f61395e565b5b600061449e85828601613d45565b92505060206144af85828601613d45565b9150509250929050565b7f4f776e61626c653a2063616c6c6572206973206e6f7420746865206f776e6572600082015250565b60006144ef602083613c06565b91506144fa826144b9565b602082019050919050565b6000602082019050818103600083015261451e816144e2565b9050919050565b7f4552433732314d657461646174613a2055524920736574206f66206e6f6e657860008201527f697374656e7420746f6b656e0000000000000000000000000000000000000000602082015250565b6000614581602c83613c06565b915061458c82614525565b604082019050919050565b600060208201905081810360008301526145b081614574565b9050919050565b7f4e487b7100000000000000000000000000000000000000000000000000000000600052602260045260246000fd5b600060028204905060018216806145fe57607f821691505b60208210811415614612576146116145b7565b5b50919050565b7f4552433732313a20617070726f76656420717565727920666f72206e6f6e657860008201527f697374656e7420746f6b656e0000000000000000000000000000000000000000602082015250565b6000614674602c83613c06565b915061467f82614618565b604082019050919050565b600060208201905081810360008301526146a381614667565b9050919050565b7f4552433732313a20617070726f76616c20746f2063757272656e74206f776e6560008201527f7200000000000000000000000000000000000000000000000000000000000000602082015250565b6000614706602183613c06565b9150614711826146aa565b604082019050919050565b60006020820190508181036000830152614735816146f9565b9050919050565b7f4552433732313a20617070726f76652063616c6c6572206973206e6f74206f7760008201527f6e6572206e6f7220617070726f76656420666f7220616c6c0000000000000000602082015250565b6000614798603883613c06565b91506147a38261473c565b604082019050919050565b600060208201905081810360008301526147c78161478b565b9050919050565b7f566972696469616e204e46543a2043616e6e6f74207472616e7366657220776860008201527f696c65206c6973746564206f6e20566972696469616e2045786368616e676500602082015250565b600061482a603f83613c06565b9150614835826147ce565b604082019050919050565b600060208201905081810360008301526148598161481d565b9050919050565b7f566972696469616e204e46543a2043616e206f6e6c79206f70656e207061636b60008201527f206f6e636520726573756c742069732064656369646564000000000000000000602082015250565b60006148bc603783613c06565b91506148c782614860565b604082019050919050565b600060208201905081810360008301526148eb816148af565b9050919050565b7f4e487b7100000000000000000000000000000000000000000000000000000000600052603260045260246000fd5b7f4e487b7100000000000000000000000000000000000000000000000000000000600052601160045260246000fd5b600061495b82613968565b91507fffffffffffffffffffffffffffffffffffffffffffffffffffffffffffffffff82141561498e5761498d614921565b5b600182019050919050565b6000815190506149a881613972565b92915050565b6000602082840312156149c4576149c361395e565b5b60006149d284828501614999565b91505092915050565b7f566972696469616e205061636b3a20565246206861736e27742067656e65726160008201527f7465642072616e646f6d2072617720726573756c742079657400000000000000602082015250565b6000614a37603983613c06565b9150614a42826149db565b604082019050919050565b60006020820190508181036000830152614a6681614a2a565b9050919050565b7f566972696469616e205061636b3a20565246206861736e27742067656e65726160008201527f7465642072616e646f6d20726573756c74207965740000000000000000000000602082015250565b6000614ac9603583613c06565b9150614ad482614a6d565b604082019050919050565b60006020820190508181036000830152614af881614abc565b9050919050565b6000614b0a82613968565b9150614b1583613968565b925082821015614b2857614b27614921565b5b828203905092915050565b7f4e487b7100000000000000000000000000000000000000000000000000000000600052601260045260246000fd5b6000614b6d82613968565b9150614b7883613968565b925082614b8857614b87614b33565b5b828206905092915050565b6000604082019050614ba86000830185613d04565b8181036020830152614bba8184613c4a565b90509392505050565b7f4e487b7100000000000000000000000000000000000000000000000000000000600052603160045260246000fd5b600060ff82169050919050565b6000614c0a82614bf2565b915060ff821415614c1e57614c1d614921565b5b600182019050919050565b6000600a9050919050565b600081905092915050565b6000819050919050565b6000602082019050919050565b6000614c6182614c29565b614c6b8185614c34565b935083602082028501614c7d85614c3f565b8060005b85811015614cb95784840389528151614c9a85826140ca565b9450614ca583614c49565b925060208a01995050600181019050614c81565b50829750879550505050505092915050565b60006020820190508181036000830152614ce58184614c56565b905092915050565b7f4552433732313a206f776e657220717565727920666f72206e6f6e657869737460008201527f656e7420746f6b656e0000000000000000000000000000000000000000000000602082015250565b6000614d49602983613c06565b9150614d5482614ced565b604082019050919050565b60006020820190508181036000830152614d7881614d3c565b9050919050565b7f4552433732313a2062616c616e636520717565727920666f7220746865207a6560008201527f726f206164647265737300000000000000000000000000000000000000000000602082015250565b6000614ddb602a83613c06565b9150614de682614d7f565b604082019050919050565b60006020820190508181036000830152614e0a81614dce565b9050919050565b600081905092915050565b6000614e2782613bfb565b614e318185614e11565b9350614e41818560208601613c17565b80840191505092915050565b6000614e598284614e1c565b915081905092915050565b7f4552433732313a20617070726f766520746f2063616c6c657200000000000000600082015250565b6000614e9a601983613c06565b9150614ea582614e64565b602082019050919050565b60006020820190508181036000830152614ec981614e8d565b9050919050565b7f4552433732313a207472616e736665722063616c6c6572206973206e6f74206f60008201527f776e6572206e6f7220617070726f766564000000000000000000000000000000602082015250565b6000614f2c603183613c06565b9150614f3782614ed0565b604082019050919050565b60006020820190508181036000830152614f5b81614f1f565b9050919050565b7f4552433732314d657461646174613a2055524920717565727920666f72206e6f60008201527f6e6578697374656e7420746f6b656e0000000000000000000000000000000000602082015250565b6000614fbe602f83613c06565b9150614fc982614f62565b604082019050919050565b60006020820190508181036000830152614fed81614fb1565b9050919050565b60006150008285614e1c565b915061500c8284614e1c565b91508190509392505050565b7f566972696469616e205061636b3a2043616e6e6f74207265646f207061636b2060008201527f726573756c740000000000000000000000000000000000000000000000000000602082015250565b6000615074602683613c06565b915061507f82615018565b604082019050919050565b600060208201905081810360008301526150a381615067565b9050919050565b6000819050919050565b6150bd816150aa565b81146150c857600080fd5b50565b6000815190506150da816150b4565b92915050565b6000602082840312156150f6576150f561395e565b5b6000615104848285016150cb565b91505092915050565b7f4f776e61626c653a206e6577206f776e657220697320746865207a65726f206160008201527f6464726573730000000000000000000000000000000000000000000000000000602082015250565b6000615169602683613c06565b91506151748261510d565b604082019050919050565b600060208201905081810360008301526151988161515c565b9050919050565b7f4552433732313a206f70657261746f7220717565727920666f72206e6f6e657860008201527f697374656e7420746f6b656e0000000000000000000000000000000000000000602082015250565b60006151fb602c83613c06565b91506152068261519f565b604082019050919050565b6000602082019050818103600083015261522a816151ee565b9050919050565b7f4552433732313a206d696e7420746f20746865207a65726f2061646472657373600082015250565b6000615267602083613c06565b915061527282615231565b602082019050919050565b600060208201905081810360008301526152968161525a565b9050919050565b7f4552433732313a20746f6b656e20616c7265616479206d696e74656400000000600082015250565b60006152d3601c83613c06565b91506152de8261529d565b602082019050919050565b60006020820190508181036000830152615302816152c6565b9050919050565b600061531482613968565b915061531f83613968565b9250827fffffffffffffffffffffffffffffffffffffffffffffffffffffffffffffffff0382111561535457615353614921565b5b828201905092915050565b7f4552433732313a207472616e7366657220746f206e6f6e20455243373231526560008201527f63656976657220696d706c656d656e7465720000000000000000000000000000602082015250565b60006153bb603283613c06565b91506153c68261535f565b604082019050919050565b600060208201905081810360008301526153ea816153ae565b9050919050565b60006153fc82613968565b915061540783613968565b92508261541757615416614b33565b5b828204905092915050565b7f4552433732313a207472616e73666572206f6620746f6b656e2074686174206960008201527f73206e6f74206f776e0000000000000000000000000000000000000000000000602082015250565b600061547e602983613c06565b915061548982615422565b604082019050919050565b600060208201905081810360008301526154ad81615471565b9050919050565b7f4552433732313a207472616e7366657220746f20746865207a65726f2061646460008201527f7265737300000000000000000000000000000000000000000000000000000000602082015250565b6000615510602483613c06565b915061551b826154b4565b604082019050919050565b6000602082019050818103600083015261553f81615503565b9050919050565b600081519050919050565b600082825260208201905092915050565b600061556d82615546565b6155778185615551565b9350615587818560208601613c17565b615590816139a8565b840191505092915050565b60006080820190506155b06000830187613d04565b6155bd6020830186613d04565b6155ca6040830185613f9f565b81810360608301526155dc8184615562565b905095945050505050565b6000815190506155f681613b6c565b92915050565b6000602082840312156156125761561161395e565b5b6000615620848285016155e7565b9150509291505056fea264697066735822122007c884bc9bba4a8ef2e1ca953bb56f0aa64419b7aaed7ac85c14599a512c95f864736f6c634300080a0033",
  "immutableReferences": {},
  "source": "pragma solidity ^0.8.0;\n\nimport \"@openzeppelin/contracts/token/ERC721/ERC721.sol\";\nimport \"@openzeppelin/contracts/utils/Counters.sol\";\nimport \"@openzeppelin/contracts/access/Ownable.sol\";\n\nimport \"./RandomNumber.sol\";\nimport \"./ViridianNFT.sol\";\n\ncontract ViridianPack is ERC721, Ownable {\n\n    using Counters for Counters.Counter;\n    Counters.Counter private _tokenIds;\n    Counters.Counter private _unmintedTokenIds;\n    mapping(string => uint8) hashes;\n    mapping(uint256 => mapping(uint256 => uint256)) private rarityOdds;\n    mapping(uint256 => uint256) private numNFTs;\n    //mapping(uint256 => string) private unmintedURIs;\n    mapping(uint256 => bool) private _tokensListed;\n    mapping(uint256 => uint256) tokenRarity;\n    mapping(uint256 => string[]) private uriRarityPools;\n    int private maxRarityIndex;\n\n    mapping(uint256 => bool) private packResultDecided;\n\n    mapping(address => bool) admins;\n\n    address public viridianNFTAddr;\n\n    ViridianNFT vNFT;\n    RandomNumberConsumer vrf;\n\n    using Strings for uint256;\n\n    constructor(address _viridianNFT) ERC721(\"Viridian Pack\", \"VP\") {\n\n        require(address(_viridianNFT) != address(0));\n\n        viridianNFTAddr = _viridianNFT;\n\n        vNFT = ViridianNFT(viridianNFTAddr);\n        vrf = RandomNumberConsumer(address(this));\n\n        //Set all beginning rarities\n\n        // Legendary rarity and cards in pack\n        rarityOdds[0][0] = 25;\n        rarityOdds[0][1] = 100;\n        rarityOdds[0][2] = 300;\n        rarityOdds[0][3] = 1000;\n        numNFTs[0] = 3;\n\n        // Mystical rarity and cards in pack\n        rarityOdds[1][0] = 1;\n        rarityOdds[1][1] = 50;\n        rarityOdds[1][2] = 200;\n        rarityOdds[1][3] = 1000;\n        numNFTs[0] = 3;\n\n        // Rare rarity and cards in pack\n        rarityOdds[2][0] = 0;\n        rarityOdds[2][1] = 50;\n        rarityOdds[2][2] = 100;\n        rarityOdds[2][3] = 1000;\n        numNFTs[0] = 3;\n\n        // Common rarity and cards in pack\n        rarityOdds[3][0] = 0;\n        rarityOdds[3][1] = 10;\n        rarityOdds[3][2] = 50;\n        rarityOdds[3][3] = 1000;\n        numNFTs[0] = 3;\n\n        maxRarityIndex = 3;\n\n        admins[msg.sender] = true;\n    }\n\n    event Open(string[10] newUris);\n    \n    // Optional mapping for token URIs\n    mapping (uint256 => string) private _tokenURIs;\n\n    //address private viridianExchangeAddress;\n\n    // Base URI\n    string private _baseURIextended;\n\n    modifier onlyAdmin() {\n        require(admins[msg.sender] == true);\n            _;\n    }\n\n    function addAdmin(address _newAdmin) external onlyOwner() {\n        admins[_newAdmin] = true;\n    }\n\n    function removeAdmin(address _newAdmin) external onlyOwner() {\n        admins[_newAdmin] = false;\n    }\n    \n    function setBaseURI(string memory baseURI_) external onlyAdmin() {\n        _baseURIextended = baseURI_;\n    }\n    \n    function _setTokenURI(uint256 tokenId, string memory _tokenURI) public virtual onlyOwner() {\n        require(_exists(tokenId), \"ERC721Metadata: URI set of nonexistent token\");\n        _tokenURIs[tokenId] = _tokenURI;\n    }\n    \n    function _baseURI() internal view virtual override returns (string memory) {\n        return _baseURIextended;\n    }\n    \n    function tokenURI(uint256 tokenId) public view virtual override returns (string memory) {\n        require(_exists(tokenId), \"ERC721Metadata: URI query for nonexistent token\");\n\n        string memory _tokenURI = _tokenURIs[tokenId];\n        string memory base = _baseURI();\n        \n        // If there is no base URI, return the token URI.\n        if (bytes(base).length == 0) {\n            return _tokenURI;\n        }\n        // If both are set, concatenate the baseURI and tokenURI (via abi.encodePacked).\n        if (bytes(_tokenURI).length > 0) {\n            return string(abi.encodePacked(base, _tokenURI));\n        }\n        // If there is a baseURI but no tokenURI, concatenate the tokenID to the baseURI.\n        return string(abi.encodePacked(base, tokenId.toString()));\n    }\n\n    function getUriRarityPools(uint256 _rarity) public view onlyAdmin() returns (string[] memory) {\n        return uriRarityPools[_rarity];\n    }\n\n    function getNumNFTs() public view returns (uint256 n) {\n        return _tokenIds.current();\n    }\n\n    function getNumOwnedNFTs() public view virtual returns (uint256) {\n        uint256 numOwnedNFTs = 0;\n\n        for (uint256 i = 1; i <= _tokenIds.current(); i++) {\n            if (ownerOf(i) == msg.sender) {\n                numOwnedNFTs++;\n            }\n        }\n\n        return numOwnedNFTs;\n    }\n \n    function getOwnedNFTs() public view virtual returns (uint256[] memory) {\n\n        uint256[] memory _tokens = new uint256[](getNumOwnedNFTs());\n\n        uint256 curIndex = 0;\n\n        for (uint256 i = 1; i <= _tokenIds.current(); i++) {\n            if (ownerOf(i) == msg.sender) {\n                _tokens[curIndex] = i;\n                curIndex++;\n            }\n        }\n        \n        return _tokens;\n    }\n\n    function setRarityOdds(uint256 _rarity, uint256 _rarityOdd, uint256 _newOdds) external onlyAdmin() {\n        rarityOdds[_rarity][_rarityOdd] = _newOdds;\n    }\n\n    function isListed(uint256 tokenId) public view returns (bool) {\n        return _tokensListed[tokenId];\n    }\n\n    function mint(\n        address _to,\n        string memory tokenURI_\n    ) external onlyAdmin() {\n        _tokenIds.increment();\n        uint256 _tokenId = _tokenIds.current();\n\n        _safeMint(_to, _tokenId);\n        _tokensListed[_tokenId] = false;\n        _setTokenURI(_tokenId, tokenURI_);\n    }\n\n    //TODO: THIS IS NOT TO BE USED IN FINAL DEPLOYED IMPLEMENTATION, convert to LINK VRF for TESTNET and ESPECIALLY MAINNET!!!\n    uint nonce;\n\n    function calculateWeightedOdds(uint256 randomNum, mapping(uint256 => uint256) storage rarityOdd) private view returns (uint) {\n        uint256 n;\n\n        for (n = 0; int(n) < int(maxRarityIndex); n++) {\n            if (randomNum <= rarityOdd[n]) {\n                return n;\n            }\n        }\n\n        return n;\n    }\n\n    function softMintNFT(string memory uri, uint256 rarity) public onlyAdmin() payable {\n        uriRarityPools[rarity].push(uri);\n    }\n\n    function burnSoftMintedNFTAtRarityIndex(uint256 rarity, uint256 index) public onlyAdmin() payable {\n        string[] memory curRarityPool = uriRarityPools[rarity];\n            for (uint i = 0; i < uriRarityPools[rarity].length; i++) {\n                if (i == index) {\n                    curRarityPool[i] = curRarityPool[curRarityPool.length - 1];\n                    uriRarityPools[rarity] = curRarityPool;\n                    uriRarityPools[rarity].pop();\n                    break;\n                }\n            }\n    }\n\n    function compareStrings(string memory _s, string memory _s1) public pure returns (bool) {\n        return (keccak256(abi.encodePacked((_s))) == keccak256(abi.encodePacked((_s1))));\n    }\n\n    function lockInPackResult(uint256 _tokenId) public payable {\n        require(!packResultDecided[_tokenId], \"Viridian Pack: Cannot redo pack result\");\n        vrf.getRandomNumber();\n    }\n\n    function openPack(uint256 _tokenId) public payable {\n        // Randomly \n        require(_isApprovedOrOwner(msg.sender, _tokenId));\n        require(vrf.getRandomRawResultForToken(_tokenId) > 0, \"Viridian Pack: VRF hasn't generated random raw result yet\");\n        require(vrf.getRandomResultForToken(_tokenId) > 0, \"Viridian Pack: VRF hasn't generated random result yet\");\n\n        uint256 tr = tokenRarity[_tokenId];\n\n        string[10] memory newUris;\n\n        //Need to delete the item from the rarity pool before minting happens again\n        for (uint8 n = 0; n < numNFTs[tr]; n++) {\n            uint256 randIndexWithPercentOdds = calculateWeightedOdds(vrf.getRandomResultForToken(_tokenId), rarityOdds[tr]);\n            uint256 randIndexInRarity = vrf.getRandomRawResultForToken(_tokenId) % (uriRarityPools[randIndexWithPercentOdds].length - 1);\n\n            string memory newURI = uriRarityPools[randIndexWithPercentOdds][randIndexInRarity];\n\n            vNFT.mint(msg.sender, newURI);\n\n            newUris[n] = newURI;\n\n            string[] memory curRarityPool = uriRarityPools[randIndexWithPercentOdds];\n            for (uint i = 0; i < uriRarityPools[randIndexWithPercentOdds].length; i++) {\n                string memory uri = uriRarityPools[randIndexWithPercentOdds][i];\n                if (compareStrings(uri, newURI)) {\n                    curRarityPool[i] = curRarityPool[curRarityPool.length - 1];\n                    uriRarityPools[randIndexWithPercentOdds] = curRarityPool;\n                    uriRarityPools[randIndexWithPercentOdds].pop();\n                    break;\n                }\n            }\n        }\n\n        burn(_tokenId);\n\n        emit Open(newUris);\n    }\n\n    function burn(uint256 tokenId) public {\n        require(_isApprovedOrOwner(msg.sender, tokenId));\n\n        address owner = ownerOf(tokenId);\n\n        _burn(tokenId);\n    }\n\n    function awardItem(address recipient, string memory hash, string memory metadata) public returns (uint256) {\n        require(hashes[hash] != 1);\n        hashes[hash] = 1;\n        _tokenIds.increment();\n        uint256 newItemId = _tokenIds.current();\n        _mint(recipient, newItemId);\n        _setTokenURI(newItemId, metadata);\n        return newItemId;\n    }\n\n    function safeTransferFrom(address from, address to, uint256 tokenId) public override {\n        require(!_tokensListed[tokenId], \"Viridian NFT: Cannot transfer while listed on Viridian Exchange\");\n        require(!packResultDecided[tokenId], \"Viridian NFT: Can only open pack once result is decided\");\n\n        super.safeTransferFrom(from, to, tokenId);\n    }\n\n    function transferFrom(address from, address to, uint256 tokenId) public override {\n        require(!_tokensListed[tokenId], \"Viridian NFT: Cannot transfer while listed on Viridian Exchange\");\n        require(!packResultDecided[tokenId], \"Viridian NFT: Can only open pack once result is decided\");\n\n        super.transferFrom(from, to, tokenId);\n    }\n\n    function listToken(uint256 _tokenId) public {\n        require(_isApprovedOrOwner(msg.sender, _tokenId));\n        _tokensListed[_tokenId] = true;\n    }\n\n    function unlistToken(uint256 _tokenId) public {\n        require(_isApprovedOrOwner(msg.sender, _tokenId));\n        _tokensListed[_tokenId] = false;\n    }\n}",
  "sourcePath": "/Users/blakehatch/Viridian-Exchange-Contracts/contracts/ViridianPack.sol",
  "compiler": {
    "name": "solc",
    "version": "0.8.10+commit.fc410830.Emscripten.clang"
  },
  "schemaVersion": "3.4.1",
  "updatedAt": "2021-11-18T22:35:35.967Z",
  "networkType": "ethereum",
  "devdoc": {
    "kind": "dev",
    "methods": {
      "approve(address,uint256)": {
        "details": "See {IERC721-approve}."
      },
      "balanceOf(address)": {
        "details": "See {IERC721-balanceOf}."
      },
      "getApproved(uint256)": {
        "details": "See {IERC721-getApproved}."
      },
      "isApprovedForAll(address,address)": {
        "details": "See {IERC721-isApprovedForAll}."
      },
      "name()": {
        "details": "See {IERC721Metadata-name}."
      },
      "owner()": {
        "details": "Returns the address of the current owner."
      },
      "ownerOf(uint256)": {
        "details": "See {IERC721-ownerOf}."
      },
      "renounceOwnership()": {
        "details": "Leaves the contract without owner. It will not be possible to call `onlyOwner` functions anymore. Can only be called by the current owner. NOTE: Renouncing ownership will leave the contract without an owner, thereby removing any functionality that is only available to the owner."
      },
      "safeTransferFrom(address,address,uint256)": {
        "details": "See {IERC721-safeTransferFrom}."
      },
      "safeTransferFrom(address,address,uint256,bytes)": {
        "details": "See {IERC721-safeTransferFrom}."
      },
      "setApprovalForAll(address,bool)": {
        "details": "See {IERC721-setApprovalForAll}."
      },
      "supportsInterface(bytes4)": {
        "details": "See {IERC165-supportsInterface}."
      },
      "symbol()": {
        "details": "See {IERC721Metadata-symbol}."
      },
      "tokenURI(uint256)": {
        "details": "See {IERC721Metadata-tokenURI}."
      },
      "transferFrom(address,address,uint256)": {
        "details": "See {IERC721-transferFrom}."
      },
      "transferOwnership(address)": {
        "details": "Transfers ownership of the contract to a new account (`newOwner`). Can only be called by the current owner."
      }
    },
    "version": 1
  },
  "userdoc": {
    "kind": "user",
    "methods": {},
    "version": 1
  }
}