{
  "contractName": "ViridianPack",
  "abi": [
    {
      "inputs": [
        {
          "internalType": "address",
          "name": "_viridianNFT",
          "type": "address"
        }
      ],
      "stateMutability": "nonpayable",
      "type": "constructor"
    },
    {
      "anonymous": false,
      "inputs": [
        {
          "indexed": true,
          "internalType": "address",
          "name": "owner",
          "type": "address"
        },
        {
          "indexed": true,
          "internalType": "address",
          "name": "approved",
          "type": "address"
        },
        {
          "indexed": true,
          "internalType": "uint256",
          "name": "tokenId",
          "type": "uint256"
        }
      ],
      "name": "Approval",
      "type": "event"
    },
    {
      "anonymous": false,
      "inputs": [
        {
          "indexed": true,
          "internalType": "address",
          "name": "owner",
          "type": "address"
        },
        {
          "indexed": true,
          "internalType": "address",
          "name": "operator",
          "type": "address"
        },
        {
          "indexed": false,
          "internalType": "bool",
          "name": "approved",
          "type": "bool"
        }
      ],
      "name": "ApprovalForAll",
      "type": "event"
    },
    {
      "anonymous": false,
      "inputs": [
        {
          "indexed": false,
          "internalType": "string[10]",
          "name": "newUris",
          "type": "string[10]"
        }
      ],
      "name": "Open",
      "type": "event"
    },
    {
      "anonymous": false,
      "inputs": [
        {
          "indexed": true,
          "internalType": "address",
          "name": "previousOwner",
          "type": "address"
        },
        {
          "indexed": true,
          "internalType": "address",
          "name": "newOwner",
          "type": "address"
        }
      ],
      "name": "OwnershipTransferred",
      "type": "event"
    },
    {
      "anonymous": false,
      "inputs": [
        {
          "indexed": true,
          "internalType": "address",
          "name": "from",
          "type": "address"
        },
        {
          "indexed": true,
          "internalType": "address",
          "name": "to",
          "type": "address"
        },
        {
          "indexed": true,
          "internalType": "uint256",
          "name": "tokenId",
          "type": "uint256"
        }
      ],
      "name": "Transfer",
      "type": "event"
    },
    {
      "inputs": [
        {
          "internalType": "address",
          "name": "to",
          "type": "address"
        },
        {
          "internalType": "uint256",
          "name": "tokenId",
          "type": "uint256"
        }
      ],
      "name": "approve",
      "outputs": [],
      "stateMutability": "nonpayable",
      "type": "function"
    },
    {
      "inputs": [
        {
          "internalType": "address",
          "name": "owner",
          "type": "address"
        }
      ],
      "name": "balanceOf",
      "outputs": [
        {
          "internalType": "uint256",
          "name": "",
          "type": "uint256"
        }
      ],
      "stateMutability": "view",
      "type": "function",
      "constant": true
    },
    {
      "inputs": [
        {
          "internalType": "uint256",
          "name": "tokenId",
          "type": "uint256"
        }
      ],
      "name": "getApproved",
      "outputs": [
        {
          "internalType": "address",
          "name": "",
          "type": "address"
        }
      ],
      "stateMutability": "view",
      "type": "function",
      "constant": true
    },
    {
      "inputs": [
        {
          "internalType": "address",
          "name": "owner",
          "type": "address"
        },
        {
          "internalType": "address",
          "name": "operator",
          "type": "address"
        }
      ],
      "name": "isApprovedForAll",
      "outputs": [
        {
          "internalType": "bool",
          "name": "",
          "type": "bool"
        }
      ],
      "stateMutability": "view",
      "type": "function",
      "constant": true
    },
    {
      "inputs": [],
      "name": "name",
      "outputs": [
        {
          "internalType": "string",
          "name": "",
          "type": "string"
        }
      ],
      "stateMutability": "view",
      "type": "function",
      "constant": true
    },
    {
      "inputs": [],
      "name": "owner",
      "outputs": [
        {
          "internalType": "address",
          "name": "",
          "type": "address"
        }
      ],
      "stateMutability": "view",
      "type": "function",
      "constant": true
    },
    {
      "inputs": [
        {
          "internalType": "uint256",
          "name": "tokenId",
          "type": "uint256"
        }
      ],
      "name": "ownerOf",
      "outputs": [
        {
          "internalType": "address",
          "name": "",
          "type": "address"
        }
      ],
      "stateMutability": "view",
      "type": "function",
      "constant": true
    },
    {
      "inputs": [],
      "name": "renounceOwnership",
      "outputs": [],
      "stateMutability": "nonpayable",
      "type": "function"
    },
    {
      "inputs": [
        {
          "internalType": "address",
          "name": "operator",
          "type": "address"
        },
        {
          "internalType": "bool",
          "name": "approved",
          "type": "bool"
        }
      ],
      "name": "setApprovalForAll",
      "outputs": [],
      "stateMutability": "nonpayable",
      "type": "function"
    },
    {
      "inputs": [
        {
          "internalType": "bytes4",
          "name": "interfaceId",
          "type": "bytes4"
        }
      ],
      "name": "supportsInterface",
      "outputs": [
        {
          "internalType": "bool",
          "name": "",
          "type": "bool"
        }
      ],
      "stateMutability": "view",
      "type": "function",
      "constant": true
    },
    {
      "inputs": [],
      "name": "symbol",
      "outputs": [
        {
          "internalType": "string",
          "name": "",
          "type": "string"
        }
      ],
      "stateMutability": "view",
      "type": "function",
      "constant": true
    },
    {
      "inputs": [
        {
          "internalType": "address",
          "name": "newOwner",
          "type": "address"
        }
      ],
      "name": "transferOwnership",
      "outputs": [],
      "stateMutability": "nonpayable",
      "type": "function"
    },
    {
      "inputs": [],
      "name": "viridianNFTAddr",
      "outputs": [
        {
          "internalType": "address",
          "name": "",
          "type": "address"
        }
      ],
      "stateMutability": "view",
      "type": "function",
      "constant": true
    },
    {
      "inputs": [
        {
          "internalType": "string",
          "name": "baseURI_",
          "type": "string"
        }
      ],
      "name": "setBaseURI",
      "outputs": [],
      "stateMutability": "nonpayable",
      "type": "function"
    },
    {
      "inputs": [
        {
          "internalType": "uint256",
          "name": "tokenId",
          "type": "uint256"
        }
      ],
      "name": "tokenURI",
      "outputs": [
        {
          "internalType": "string",
          "name": "",
          "type": "string"
        }
      ],
      "stateMutability": "view",
      "type": "function",
      "constant": true
    },
    {
      "inputs": [
        {
          "internalType": "uint256",
          "name": "_rarity",
          "type": "uint256"
        }
      ],
      "name": "getUriRarityPools",
      "outputs": [
        {
          "internalType": "string[]",
          "name": "",
          "type": "string[]"
        }
      ],
      "stateMutability": "view",
      "type": "function",
      "constant": true
    },
    {
      "inputs": [],
      "name": "getOwnedNFTs",
      "outputs": [
        {
          "internalType": "uint256[]",
          "name": "",
          "type": "uint256[]"
        }
      ],
      "stateMutability": "view",
      "type": "function",
      "constant": true
    },
    {
      "inputs": [
        {
          "internalType": "uint256",
          "name": "_rarity",
          "type": "uint256"
        },
        {
          "internalType": "uint256",
          "name": "_rarityOdd",
          "type": "uint256"
        },
        {
          "internalType": "uint256",
          "name": "_newOdds",
          "type": "uint256"
        }
      ],
      "name": "setRarityOdds",
      "outputs": [],
      "stateMutability": "nonpayable",
      "type": "function"
    },
    {
      "inputs": [
        {
          "internalType": "uint256",
          "name": "tokenId",
          "type": "uint256"
        }
      ],
      "name": "isListed",
      "outputs": [
        {
          "internalType": "bool",
          "name": "",
          "type": "bool"
        }
      ],
      "stateMutability": "view",
      "type": "function",
      "constant": true
    },
    {
      "inputs": [
        {
          "internalType": "address",
          "name": "_to",
          "type": "address"
        },
        {
          "internalType": "string",
          "name": "tokenURI_",
          "type": "string"
        }
      ],
      "name": "mint",
      "outputs": [],
      "stateMutability": "nonpayable",
      "type": "function"
    },
    {
      "inputs": [
        {
          "internalType": "string",
          "name": "uri",
          "type": "string"
        },
        {
          "internalType": "uint256",
          "name": "rarity",
          "type": "uint256"
        }
      ],
      "name": "softMintNFT",
      "outputs": [],
      "stateMutability": "payable",
      "type": "function",
      "payable": true
    },
    {
      "inputs": [
        {
          "internalType": "string",
          "name": "_s",
          "type": "string"
        },
        {
          "internalType": "string",
          "name": "_s1",
          "type": "string"
        }
      ],
      "name": "compareStrings",
      "outputs": [
        {
          "internalType": "bool",
          "name": "",
          "type": "bool"
        }
      ],
      "stateMutability": "pure",
      "type": "function",
      "constant": true
    },
    {
      "inputs": [
        {
          "internalType": "uint256",
          "name": "_tokenId",
          "type": "uint256"
        }
      ],
      "name": "openPack",
      "outputs": [],
      "stateMutability": "payable",
      "type": "function",
      "payable": true
    },
    {
      "inputs": [
        {
          "internalType": "uint256",
          "name": "tokenId",
          "type": "uint256"
        }
      ],
      "name": "burn",
      "outputs": [],
      "stateMutability": "nonpayable",
      "type": "function"
    },
    {
      "inputs": [
        {
          "internalType": "address",
          "name": "recipient",
          "type": "address"
        },
        {
          "internalType": "string",
          "name": "hash",
          "type": "string"
        },
        {
          "internalType": "string",
          "name": "metadata",
          "type": "string"
        }
      ],
      "name": "awardItem",
      "outputs": [
        {
          "internalType": "uint256",
          "name": "",
          "type": "uint256"
        }
      ],
      "stateMutability": "nonpayable",
      "type": "function"
    },
    {
      "inputs": [
        {
          "internalType": "address",
          "name": "from",
          "type": "address"
        },
        {
          "internalType": "address",
          "name": "to",
          "type": "address"
        },
        {
          "internalType": "uint256",
          "name": "tokenId",
          "type": "uint256"
        }
      ],
      "name": "safeTransferFrom",
      "outputs": [],
      "stateMutability": "nonpayable",
      "type": "function"
    },
    {
      "inputs": [
        {
          "internalType": "address",
          "name": "from",
          "type": "address"
        },
        {
          "internalType": "address",
          "name": "to",
          "type": "address"
        },
        {
          "internalType": "uint256",
          "name": "tokenId",
          "type": "uint256"
        },
        {
          "internalType": "bytes",
          "name": "_data",
          "type": "bytes"
        }
      ],
      "name": "safeTransferFrom",
      "outputs": [],
      "stateMutability": "nonpayable",
      "type": "function"
    },
    {
      "inputs": [
        {
          "internalType": "address",
          "name": "from",
          "type": "address"
        },
        {
          "internalType": "address",
          "name": "to",
          "type": "address"
        },
        {
          "internalType": "uint256",
          "name": "tokenId",
          "type": "uint256"
        }
      ],
      "name": "transferFrom",
      "outputs": [],
      "stateMutability": "nonpayable",
      "type": "function"
    },
    {
      "inputs": [
        {
          "internalType": "uint256",
          "name": "_tokenId",
          "type": "uint256"
        }
      ],
      "name": "listToken",
      "outputs": [],
      "stateMutability": "nonpayable",
      "type": "function"
    },
    {
      "inputs": [
        {
          "internalType": "uint256",
          "name": "_tokenId",
          "type": "uint256"
        }
      ],
      "name": "unlistToken",
      "outputs": [],
      "stateMutability": "nonpayable",
      "type": "function"
    }
  ],
  "bytecode": "0x60806040523480156200001157600080fd5b506040516200574d3803806200574d83398181016040528101906200003791906200069a565b6040518060400160405280600d81526020017f566972696469616e205061636b000000000000000000000000000000000000008152506040518060400160405280600281526020017f56500000000000000000000000000000000000000000000000000000000000008152508160009080519060200190620000bb929190620005d3565b508060019080519060200190620000d4929190620005d3565b505050620000f7620000eb6200050560201b60201c565b6200050d60201b60201c565b600073ffffffffffffffffffffffffffffffffffffffff168173ffffffffffffffffffffffffffffffffffffffff1614156200013257600080fd5b80601060006101000a81548173ffffffffffffffffffffffffffffffffffffffff021916908373ffffffffffffffffffffffffffffffffffffffff160217905550601060009054906101000a900473ffffffffffffffffffffffffffffffffffffffff16601160006101000a81548173ffffffffffffffffffffffffffffffffffffffff021916908373ffffffffffffffffffffffffffffffffffffffff1602179055506019600a60008081526020019081526020016000206000808152602001908152602001600020819055506064600a60008081526020019081526020016000206000600181526020019081526020016000208190555061012c600a6000808152602001908152602001600020600060028152602001908152602001600020819055506103e8600a6000808152602001908152602001600020600060038152602001908152602001600020819055506003600b6000808152602001908152602001600020819055506001600a6000600181526020019081526020016000206000808152602001908152602001600020819055506032600a6000600181526020019081526020016000206000600181526020019081526020016000208190555060c8600a600060018152602001908152602001600020600060028152602001908152602001600020819055506103e8600a600060018152602001908152602001600020600060038152602001908152602001600020819055506003600b6000808152602001908152602001600020819055506000600a6000600181526020019081526020016000206000808152602001908152602001600020819055506032600a600060018152602001908152602001600020600060018152602001908152602001600020819055506064600a600060018152602001908152602001600020600060028152602001908152602001600020819055506103e8600a600060018152602001908152602001600020600060038152602001908152602001600020819055506003600b6000808152602001908152602001600020819055506000600a600060028152602001908152602001600020600080815260200190815260200160002081905550600a80600060028152602001908152602001600020600060018152602001908152602001600020819055506032600a600060028152602001908152602001600020600060028152602001908152602001600020819055506103e8600a600060028152602001908152602001600020600060038152602001908152602001600020819055506003600b6000808152602001908152602001600020819055506003600f819055505062000784565b600033905090565b6000600660009054906101000a900473ffffffffffffffffffffffffffffffffffffffff16905081600660006101000a81548173ffffffffffffffffffffffffffffffffffffffff021916908373ffffffffffffffffffffffffffffffffffffffff1602179055508173ffffffffffffffffffffffffffffffffffffffff168173ffffffffffffffffffffffffffffffffffffffff167f8be0079c531659141344cd1fd0a4f28419497f9722a3daafe3b4186f6b6457e060405160405180910390a35050565b828054620005e19062000700565b90600052602060002090601f01602090048101928262000605576000855562000651565b82601f106200062057805160ff191683800117855562000651565b8280016001018555821562000651579182015b828111156200065057825182559160200191906001019062000633565b5b50905062000660919062000664565b5090565b5b808211156200067f57600081600090555060010162000665565b5090565b60008151905062000694816200076a565b92915050565b600060208284031215620006b357620006b262000765565b5b6000620006c38482850162000683565b91505092915050565b6000620006d982620006e0565b9050919050565b600073ffffffffffffffffffffffffffffffffffffffff82169050919050565b600060028204905060018216806200071957607f821691505b6020821081141562000730576200072f62000736565b5b50919050565b7f4e487b7100000000000000000000000000000000000000000000000000000000600052602260045260246000fd5b600080fd5b6200077581620006cc565b81146200078157600080fd5b50565b614fb980620007946000396000f3fe6080604052600436106101cd5760003560e01c80638da5cb5b116100f7578063b88d4fde11610095578063e6148d5f11610064578063e6148d5f1461067a578063e985e9c5146106a3578063f2fde38b146106e0578063fcce488314610709576101cd565b8063b88d4fde146105ae578063bed34bba146105d7578063c87b56dd14610614578063d0def52114610651576101cd565b8063a22cb465116100d1578063a22cb46514610508578063a3524a0414610531578063a80f1e9c1461055c578063ad3a358c14610585576101cd565b80638da5cb5b1461047557806395d89b41146104a0578063a203428c146104cb576101cd565b806342966c681161016f5780636352211e1161013e5780636352211e146103a757806370a08231146103e4578063715018a6146104215780638bfaf10114610438576101cd565b806342966c681461030e5780634c0eb7d91461033757806350a88c7e1461036257806355f804b31461037e576101cd565b8063095ea7b3116101ab578063095ea7b3146102775780630e065931146102a057806323b872dd146102bc57806342842e0e146102e5576101cd565b806301ffc9a7146101d257806306fdde031461020f578063081812fc1461023a575b600080fd5b3480156101de57600080fd5b506101f960048036038101906101f49190613a16565b610746565b604051610206919061428f565b60405180910390f35b34801561021b57600080fd5b50610224610828565b60405161023191906142aa565b60405180910390f35b34801561024657600080fd5b50610261600480360381019061025c9190613b8d565b6108ba565b60405161026e9190614192565b60405180910390f35b34801561028357600080fd5b5061029e600480360381019061029991906139d6565b61093f565b005b6102ba60048036038101906102b59190613b31565b610a57565b005b3480156102c857600080fd5b506102e360048036038101906102de91906137d9565b610b24565b005b3480156102f157600080fd5b5061030c600480360381019061030791906137d9565b610dd3565b005b34801561031a57600080fd5b5061033560048036038101906103309190613b8d565b6110ad565b005b34801561034357600080fd5b5061034c611305565b604051610359919061426d565b60405180910390f35b61037c60048036038101906103779190613b8d565b6113a0565b005b34801561038a57600080fd5b506103a560048036038101906103a09190613a70565b6118b1565b005b3480156103b357600080fd5b506103ce60048036038101906103c99190613b8d565b611947565b6040516103db9190614192565b60405180910390f35b3480156103f057600080fd5b5061040b6004803603810190610406919061376c565b6119f9565b60405161041891906144ec565b60405180910390f35b34801561042d57600080fd5b50610436611ab1565b005b34801561044457600080fd5b5061045f600480360381019061045a919061394b565b611b39565b60405161046c91906144ec565b60405180910390f35b34801561048157600080fd5b5061048a611be6565b6040516104979190614192565b60405180910390f35b3480156104ac57600080fd5b506104b5611c10565b6040516104c291906142aa565b60405180910390f35b3480156104d757600080fd5b506104f260048036038101906104ed9190613b8d565b611ca2565b6040516104ff919061424b565b60405180910390f35b34801561051457600080fd5b5061052f600480360381019061052a91906138af565b611e0a565b005b34801561053d57600080fd5b50610546611f8b565b6040516105539190614192565b60405180910390f35b34801561056857600080fd5b50610583600480360381019061057e9190613bba565b611fb1565b005b34801561059157600080fd5b506105ac60048036038101906105a79190613b8d565b61205b565b005b3480156105ba57600080fd5b506105d560048036038101906105d0919061382c565b61208a565b005b3480156105e357600080fd5b506105fe60048036038101906105f99190613ab9565b6120ec565b60405161060b919061428f565b60405180910390f35b34801561062057600080fd5b5061063b60048036038101906106369190613b8d565b612145565b60405161064891906142aa565b60405180910390f35b34801561065d57600080fd5b50610678600480360381019061067391906138ef565b6122b8565b005b34801561068657600080fd5b506106a1600480360381019061069c9190613b8d565b6123f7565b005b3480156106af57600080fd5b506106ca60048036038101906106c59190613799565b612426565b6040516106d7919061428f565b60405180910390f35b3480156106ec57600080fd5b506107076004803603810190610702919061376c565b6124ba565b005b34801561071557600080fd5b50610730600480360381019061072b9190613b8d565b6125b2565b60405161073d919061428f565b60405180910390f35b60007f80ac58cd000000000000000000000000000000000000000000000000000000007bffffffffffffffffffffffffffffffffffffffffffffffffffffffff1916827bffffffffffffffffffffffffffffffffffffffffffffffffffffffff1916148061081157507f5b5e139f000000000000000000000000000000000000000000000000000000007bffffffffffffffffffffffffffffffffffffffffffffffffffffffff1916827bffffffffffffffffffffffffffffffffffffffffffffffffffffffff1916145b806108215750610820826125dc565b5b9050919050565b606060008054610837906147ff565b80601f0160208091040260200160405190810160405280929190818152602001828054610863906147ff565b80156108b05780601f10610885576101008083540402835291602001916108b0565b820191906000526020600020905b81548152906001019060200180831161089357829003601f168201915b5050505050905090565b60006108c582612646565b610904576040517f08c379a00000000000000000000000000000000000000000000000000000000081526004016108fb9061440c565b60405180910390fd5b6004600083815260200190815260200160002060009054906101000a900473ffffffffffffffffffffffffffffffffffffffff169050919050565b600061094a82611947565b90508073ffffffffffffffffffffffffffffffffffffffff168373ffffffffffffffffffffffffffffffffffffffff1614156109bb576040517f08c379a00000000000000000000000000000000000000000000000000000000081526004016109b2906144ac565b60405180910390fd5b8073ffffffffffffffffffffffffffffffffffffffff166109da6126b2565b73ffffffffffffffffffffffffffffffffffffffff161480610a095750610a0881610a036126b2565b612426565b5b610a48576040517f08c379a0000000000000000000000000000000000000000000000000000000008152600401610a3f9061438c565b60405180910390fd5b610a5283836126ba565b505050565b610a5f6126b2565b73ffffffffffffffffffffffffffffffffffffffff16610a7d611be6565b73ffffffffffffffffffffffffffffffffffffffff1614610ad3576040517f08c379a0000000000000000000000000000000000000000000000000000000008152600401610aca9061444c565b60405180910390fd5b600e600082815260200190815260200160002082908060018154018082558091505060019003906000526020600020016000909190919091509080519060200190610b1f929190613494565b505050565b60005b601360003373ffffffffffffffffffffffffffffffffffffffff1673ffffffffffffffffffffffffffffffffffffffff16815260200190815260200160002080549050811015610d5c576000601360003373ffffffffffffffffffffffffffffffffffffffff1673ffffffffffffffffffffffffffffffffffffffff1681526020019081526020016000208281548110610bc457610bc36149f0565b5b9060005260206000200154905082811415610d4857601360003373ffffffffffffffffffffffffffffffffffffffff1673ffffffffffffffffffffffffffffffffffffffff1681526020019081526020016000206001601360003373ffffffffffffffffffffffffffffffffffffffff1673ffffffffffffffffffffffffffffffffffffffff16815260200190815260200160002080549050610c679190614708565b81548110610c7857610c776149f0565b5b9060005260206000200154601360003373ffffffffffffffffffffffffffffffffffffffff1673ffffffffffffffffffffffffffffffffffffffff1681526020019081526020016000208381548110610cd457610cd36149f0565b5b9060005260206000200181905550601360003373ffffffffffffffffffffffffffffffffffffffff1673ffffffffffffffffffffffffffffffffffffffff168152602001908152602001600020805480610d3157610d306149c1565b5b600190038181906000526020600020016000905590555b508080610d5490614862565b915050610b27565b50601360008373ffffffffffffffffffffffffffffffffffffffff1673ffffffffffffffffffffffffffffffffffffffff168152602001908152602001600020819080600181540180825580915050600190039060005260206000200160009091909190915055610dce838383612773565b505050565b600c600082815260200190815260200160002060009054906101000a900460ff1615610dfe57600080fd5b60005b601360003373ffffffffffffffffffffffffffffffffffffffff1673ffffffffffffffffffffffffffffffffffffffff16815260200190815260200160002080549050811015611036576000601360003373ffffffffffffffffffffffffffffffffffffffff1673ffffffffffffffffffffffffffffffffffffffff1681526020019081526020016000208281548110610e9e57610e9d6149f0565b5b906000526020600020015490508281141561102257601360003373ffffffffffffffffffffffffffffffffffffffff1673ffffffffffffffffffffffffffffffffffffffff1681526020019081526020016000206001601360003373ffffffffffffffffffffffffffffffffffffffff1673ffffffffffffffffffffffffffffffffffffffff16815260200190815260200160002080549050610f419190614708565b81548110610f5257610f516149f0565b5b9060005260206000200154601360003373ffffffffffffffffffffffffffffffffffffffff1673ffffffffffffffffffffffffffffffffffffffff1681526020019081526020016000208381548110610fae57610fad6149f0565b5b9060005260206000200181905550601360003373ffffffffffffffffffffffffffffffffffffffff1673ffffffffffffffffffffffffffffffffffffffff16815260200190815260200160002080548061100b5761100a6149c1565b5b600190038181906000526020600020016000905590555b50808061102e90614862565b915050610e01565b50601360008373ffffffffffffffffffffffffffffffffffffffff1673ffffffffffffffffffffffffffffffffffffffff1681526020019081526020016000208190806001815401808255809150506001900390600052602060002001600090919091909150556110a88383836127d3565b505050565b6110b733826127f3565b6110c057600080fd5b60005b601360003373ffffffffffffffffffffffffffffffffffffffff1673ffffffffffffffffffffffffffffffffffffffff168152602001908152602001600020805490508110156112f8576000601360003373ffffffffffffffffffffffffffffffffffffffff1673ffffffffffffffffffffffffffffffffffffffff16815260200190815260200160002082815481106111605761115f6149f0565b5b90600052602060002001549050828114156112e457601360003373ffffffffffffffffffffffffffffffffffffffff1673ffffffffffffffffffffffffffffffffffffffff1681526020019081526020016000206001601360003373ffffffffffffffffffffffffffffffffffffffff1673ffffffffffffffffffffffffffffffffffffffff168152602001908152602001600020805490506112039190614708565b81548110611214576112136149f0565b5b9060005260206000200154601360003373ffffffffffffffffffffffffffffffffffffffff1673ffffffffffffffffffffffffffffffffffffffff16815260200190815260200160002083815481106112705761126f6149f0565b5b9060005260206000200181905550601360003373ffffffffffffffffffffffffffffffffffffffff1673ffffffffffffffffffffffffffffffffffffffff1681526020019081526020016000208054806112cd576112cc6149c1565b5b600190038181906000526020600020016000905590555b5080806112f090614862565b9150506110c3565b50611302816128d1565b50565b60606000601360003373ffffffffffffffffffffffffffffffffffffffff1673ffffffffffffffffffffffffffffffffffffffff16815260200190815260200160002080548060200260200160405190810160405280929190818152602001828054801561139257602002820191906000526020600020905b81548152602001906001019080831161137e575b505050505090508091505090565b6113aa33826127f3565b6113b357600080fd5b6000600d60008381526020019081526020016000205490506113d361351a565b60005b600b6000848152602001908152602001600020548160ff16101561186b57600061141c6114046103e86129e2565b600a6000878152602001908152602001600020612a43565b9050600061144b6001600e6000858152602001908152602001600020805490506114469190614708565b6129e2565b90506000600e60008481526020019081526020016000208281548110611474576114736149f0565b5b906000526020600020018054611489906147ff565b80601f01602080910402602001604051908101604052809291908181526020018280546114b5906147ff565b80156115025780601f106114d757610100808354040283529160200191611502565b820191906000526020600020905b8154815290600101906020018083116114e557829003601f168201915b50505050509050601160009054906101000a900473ffffffffffffffffffffffffffffffffffffffff1673ffffffffffffffffffffffffffffffffffffffff1663d0def52133836040518363ffffffff1660e01b81526004016115669291906141f9565b600060405180830381600087803b15801561158057600080fd5b505af1158015611594573d6000803e3d6000fd5b5050505080858560ff16600a81106115af576115ae6149f0565b5b60200201819052506000600e6000858152602001908152602001600020805480602002602001604051908101604052809291908181526020016000905b8282101561169857838290600052602060002001805461160b906147ff565b80601f0160208091040260200160405190810160405280929190818152602001828054611637906147ff565b80156116845780601f1061165957610100808354040283529160200191611684565b820191906000526020600020905b81548152906001019060200180831161166757829003601f168201915b5050505050815260200190600101906115ec565b50505050905060005b600e600086815260200190815260200160002080549050811015611853576000600e600087815260200190815260200160002082815481106116e6576116e56149f0565b5b9060005260206000200180546116fb906147ff565b80601f0160208091040260200160405190810160405280929190818152602001828054611727906147ff565b80156117745780601f1061174957610100808354040283529160200191611774565b820191906000526020600020905b81548152906001019060200180831161175757829003601f168201915b5050505050905061178581856120ec565b1561183f5782600184516117999190614708565b815181106117aa576117a96149f0565b5b60200260200101518383815181106117c5576117c46149f0565b5b602002602001018190525082600e600088815260200190815260200160002090805190602001906117f7929190613542565b50600e600087815260200190815260200160002080548061181b5761181a6149c1565b5b60019003818190600052602060002001600061183791906135a2565b905550611853565b50808061184b90614862565b9150506116a1565b50505050508080611863906148ab565b9150506113d6565b50611875836110ad565b7f7a8f71ffa367c677061e81db64480595dffec51888e92c29fd97f628ad7be9bc816040516118a49190614229565b60405180910390a1505050565b6118b96126b2565b73ffffffffffffffffffffffffffffffffffffffff166118d7611be6565b73ffffffffffffffffffffffffffffffffffffffff161461192d576040517f08c379a00000000000000000000000000000000000000000000000000000000081526004016119249061444c565b60405180910390fd5b8060149080519060200190611943929190613494565b5050565b6000806002600084815260200190815260200160002060009054906101000a900473ffffffffffffffffffffffffffffffffffffffff169050600073ffffffffffffffffffffffffffffffffffffffff168173ffffffffffffffffffffffffffffffffffffffff1614156119f0576040517f08c379a00000000000000000000000000000000000000000000000000000000081526004016119e7906143cc565b60405180910390fd5b80915050919050565b60008073ffffffffffffffffffffffffffffffffffffffff168273ffffffffffffffffffffffffffffffffffffffff161415611a6a576040517f08c379a0000000000000000000000000000000000000000000000000000000008152600401611a61906143ac565b60405180910390fd5b600360008373ffffffffffffffffffffffffffffffffffffffff1673ffffffffffffffffffffffffffffffffffffffff168152602001908152602001600020549050919050565b611ab96126b2565b73ffffffffffffffffffffffffffffffffffffffff16611ad7611be6565b73ffffffffffffffffffffffffffffffffffffffff1614611b2d576040517f08c379a0000000000000000000000000000000000000000000000000000000008152600401611b249061444c565b60405180910390fd5b611b376000612a95565b565b60006001600984604051611b4d919061411a565b908152602001604051809103902060009054906101000a900460ff1660ff161415611b7757600080fd5b6001600984604051611b89919061411a565b908152602001604051809103902060006101000a81548160ff021916908360ff160217905550611bb96007612b5b565b6000611bc56007612b71565b9050611bd18582612b7f565b611bdb8184612d4d565b809150509392505050565b6000600660009054906101000a900473ffffffffffffffffffffffffffffffffffffffff16905090565b606060018054611c1f906147ff565b80601f0160208091040260200160405190810160405280929190818152602001828054611c4b906147ff565b8015611c985780601f10611c6d57610100808354040283529160200191611c98565b820191906000526020600020905b815481529060010190602001808311611c7b57829003601f168201915b5050505050905090565b6060611cac6126b2565b73ffffffffffffffffffffffffffffffffffffffff16611cca611be6565b73ffffffffffffffffffffffffffffffffffffffff1614611d20576040517f08c379a0000000000000000000000000000000000000000000000000000000008152600401611d179061444c565b60405180910390fd5b600e6000838152602001908152602001600020805480602002602001604051908101604052809291908181526020016000905b82821015611dff578382906000526020600020018054611d72906147ff565b80601f0160208091040260200160405190810160405280929190818152602001828054611d9e906147ff565b8015611deb5780601f10611dc057610100808354040283529160200191611deb565b820191906000526020600020905b815481529060010190602001808311611dce57829003601f168201915b505050505081526020019060010190611d53565b505050509050919050565b611e126126b2565b73ffffffffffffffffffffffffffffffffffffffff168273ffffffffffffffffffffffffffffffffffffffff161415611e80576040517f08c379a0000000000000000000000000000000000000000000000000000000008152600401611e779061434c565b60405180910390fd5b8060056000611e8d6126b2565b73ffffffffffffffffffffffffffffffffffffffff1673ffffffffffffffffffffffffffffffffffffffff16815260200190815260200160002060008473ffffffffffffffffffffffffffffffffffffffff1673ffffffffffffffffffffffffffffffffffffffff16815260200190815260200160002060006101000a81548160ff0219169083151502179055508173ffffffffffffffffffffffffffffffffffffffff16611f3a6126b2565b73ffffffffffffffffffffffffffffffffffffffff167f17307eab39ab6107e8899845ad3d59bd9653f200f220920489ca2b5937696c3183604051611f7f919061428f565b60405180910390a35050565b601060009054906101000a900473ffffffffffffffffffffffffffffffffffffffff1681565b611fb96126b2565b73ffffffffffffffffffffffffffffffffffffffff16611fd7611be6565b73ffffffffffffffffffffffffffffffffffffffff161461202d576040517f08c379a00000000000000000000000000000000000000000000000000000000081526004016120249061444c565b60405180910390fd5b80600a6000858152602001908152602001600020600084815260200190815260200160002081905550505050565b6000600c600083815260200190815260200160002060006101000a81548160ff02191690831515021790555050565b61209b6120956126b2565b836127f3565b6120da576040517f08c379a00000000000000000000000000000000000000000000000000000000081526004016120d1906144cc565b60405180910390fd5b6120e684848484612dc1565b50505050565b6000816040516020016120ff919061411a565b6040516020818303038152906040528051906020012083604051602001612126919061411a565b6040516020818303038152906040528051906020012014905092915050565b606061215082612646565b61218f576040517f08c379a00000000000000000000000000000000000000000000000000000000081526004016121869061448c565b60405180910390fd5b60006012600084815260200190815260200160002080546121af906147ff565b80601f01602080910402602001604051908101604052809291908181526020018280546121db906147ff565b80156122285780601f106121fd57610100808354040283529160200191612228565b820191906000526020600020905b81548152906001019060200180831161220b57829003601f168201915b505050505090506000612239612e1d565b905060008151141561224f5781925050506122b3565b60008251111561228457808260405160200161226c929190614131565b604051602081830303815290604052925050506122b3565b8061228e85612eaf565b60405160200161229f929190614131565b604051602081830303815290604052925050505b919050565b6122c06126b2565b73ffffffffffffffffffffffffffffffffffffffff166122de611be6565b73ffffffffffffffffffffffffffffffffffffffff1614612334576040517f08c379a000000000000000000000000000000000000000000000000000000000815260040161232b9061444c565b60405180910390fd5b61233e6007612b5b565b600061234a6007612b71565b90506123568382613010565b601360008473ffffffffffffffffffffffffffffffffffffffff1673ffffffffffffffffffffffffffffffffffffffff1681526020019081526020016000208190806001815401808255809150506001900390600052602060002001600090919091909150556000600c600083815260200190815260200160002060006101000a81548160ff0219169083151502179055506123f28183612d4d565b505050565b6001600c600083815260200190815260200160002060006101000a81548160ff02191690831515021790555050565b6000600560008473ffffffffffffffffffffffffffffffffffffffff1673ffffffffffffffffffffffffffffffffffffffff16815260200190815260200160002060008373ffffffffffffffffffffffffffffffffffffffff1673ffffffffffffffffffffffffffffffffffffffff16815260200190815260200160002060009054906101000a900460ff16905092915050565b6124c26126b2565b73ffffffffffffffffffffffffffffffffffffffff166124e0611be6565b73ffffffffffffffffffffffffffffffffffffffff1614612536576040517f08c379a000000000000000000000000000000000000000000000000000000000815260040161252d9061444c565b60405180910390fd5b600073ffffffffffffffffffffffffffffffffffffffff168173ffffffffffffffffffffffffffffffffffffffff1614156125a6576040517f08c379a000000000000000000000000000000000000000000000000000000000815260040161259d906142ec565b60405180910390fd5b6125af81612a95565b50565b6000600c600083815260200190815260200160002060009054906101000a900460ff169050919050565b60007f01ffc9a7000000000000000000000000000000000000000000000000000000007bffffffffffffffffffffffffffffffffffffffffffffffffffffffff1916827bffffffffffffffffffffffffffffffffffffffffffffffffffffffff1916149050919050565b60008073ffffffffffffffffffffffffffffffffffffffff166002600084815260200190815260200160002060009054906101000a900473ffffffffffffffffffffffffffffffffffffffff1673ffffffffffffffffffffffffffffffffffffffff1614159050919050565b600033905090565b816004600083815260200190815260200160002060006101000a81548173ffffffffffffffffffffffffffffffffffffffff021916908373ffffffffffffffffffffffffffffffffffffffff160217905550808273ffffffffffffffffffffffffffffffffffffffff1661272d83611947565b73ffffffffffffffffffffffffffffffffffffffff167f8c5be1e5ebec7d5bd14f71427d1e84f3dd0314c0f7b2291e5b200ac8c7c3b92560405160405180910390a45050565b61278461277e6126b2565b826127f3565b6127c3576040517f08c379a00000000000000000000000000000000000000000000000000000000081526004016127ba906144cc565b60405180910390fd5b6127ce83838361302e565b505050565b6127ee8383836040518060200160405280600081525061208a565b505050565b60006127fe82612646565b61283d576040517f08c379a00000000000000000000000000000000000000000000000000000000081526004016128349061436c565b60405180910390fd5b600061284883611947565b90508073ffffffffffffffffffffffffffffffffffffffff168473ffffffffffffffffffffffffffffffffffffffff1614806128b757508373ffffffffffffffffffffffffffffffffffffffff1661289f846108ba565b73ffffffffffffffffffffffffffffffffffffffff16145b806128c857506128c78185612426565b5b91505092915050565b60006128dc82611947565b90506128ea8160008461328a565b6128f56000836126ba565b6001600360008373ffffffffffffffffffffffffffffffffffffffff1673ffffffffffffffffffffffffffffffffffffffff16815260200190815260200160002060008282546129459190614708565b925050819055506002600083815260200190815260200160002060006101000a81549073ffffffffffffffffffffffffffffffffffffffff021916905581600073ffffffffffffffffffffffffffffffffffffffff168273ffffffffffffffffffffffffffffffffffffffff167fddf252ad1be2c89b69c2b068fc378daa952ba7f163c4a11628f55a4df523b3ef60405160405180910390a45050565b6000808242336015546040516020016129fd93929190614155565b6040516020818303038152906040528051906020012060001c612a209190614903565b905060156000815480929190612a3590614862565b919050555080915050919050565b600080600090505b600f54811215612a8a57826000828152602001908152602001600020548411612a775780915050612a8f565b8080612a8290614862565b915050612a4b565b809150505b92915050565b6000600660009054906101000a900473ffffffffffffffffffffffffffffffffffffffff16905081600660006101000a81548173ffffffffffffffffffffffffffffffffffffffff021916908373ffffffffffffffffffffffffffffffffffffffff1602179055508173ffffffffffffffffffffffffffffffffffffffff168173ffffffffffffffffffffffffffffffffffffffff167f8be0079c531659141344cd1fd0a4f28419497f9722a3daafe3b4186f6b6457e060405160405180910390a35050565b6001816000016000828254019250508190555050565b600081600001549050919050565b600073ffffffffffffffffffffffffffffffffffffffff168273ffffffffffffffffffffffffffffffffffffffff161415612bef576040517f08c379a0000000000000000000000000000000000000000000000000000000008152600401612be6906143ec565b60405180910390fd5b612bf881612646565b15612c38576040517f08c379a0000000000000000000000000000000000000000000000000000000008152600401612c2f9061430c565b60405180910390fd5b612c446000838361328a565b6001600360008473ffffffffffffffffffffffffffffffffffffffff1673ffffffffffffffffffffffffffffffffffffffff1681526020019081526020016000206000828254612c949190614681565b92505081905550816002600083815260200190815260200160002060006101000a81548173ffffffffffffffffffffffffffffffffffffffff021916908373ffffffffffffffffffffffffffffffffffffffff160217905550808273ffffffffffffffffffffffffffffffffffffffff16600073ffffffffffffffffffffffffffffffffffffffff167fddf252ad1be2c89b69c2b068fc378daa952ba7f163c4a11628f55a4df523b3ef60405160405180910390a45050565b612d5682612646565b612d95576040517f08c379a0000000000000000000000000000000000000000000000000000000008152600401612d8c9061442c565b60405180910390fd5b80601260008481526020019081526020016000209080519060200190612dbc929190613494565b505050565b612dcc84848461302e565b612dd88484848461328f565b612e17576040517f08c379a0000000000000000000000000000000000000000000000000000000008152600401612e0e906142cc565b60405180910390fd5b50505050565b606060148054612e2c906147ff565b80601f0160208091040260200160405190810160405280929190818152602001828054612e58906147ff565b8015612ea55780601f10612e7a57610100808354040283529160200191612ea5565b820191906000526020600020905b815481529060010190602001808311612e8857829003601f168201915b5050505050905090565b60606000821415612ef7576040518060400160405280600181526020017f3000000000000000000000000000000000000000000000000000000000000000815250905061300b565b600082905060005b60008214612f29578080612f1290614862565b915050600a82612f2291906146d7565b9150612eff565b60008167ffffffffffffffff811115612f4557612f44614a1f565b5b6040519080825280601f01601f191660200182016040528015612f775781602001600182028036833780820191505090505b5090505b6000851461300457600182612f909190614708565b9150600a85612f9f9190614903565b6030612fab9190614681565b60f81b818381518110612fc157612fc06149f0565b5b60200101907effffffffffffffffffffffffffffffffffffffffffffffffffffffffffffff1916908160001a905350600a85612ffd91906146d7565b9450612f7b565b8093505050505b919050565b61302a828260405180602001604052806000815250613426565b5050565b8273ffffffffffffffffffffffffffffffffffffffff1661304e82611947565b73ffffffffffffffffffffffffffffffffffffffff16146130a4576040517f08c379a000000000000000000000000000000000000000000000000000000000815260040161309b9061446c565b60405180910390fd5b600073ffffffffffffffffffffffffffffffffffffffff168273ffffffffffffffffffffffffffffffffffffffff161415613114576040517f08c379a000000000000000000000000000000000000000000000000000000000815260040161310b9061432c565b60405180910390fd5b61311f83838361328a565b61312a6000826126ba565b6001600360008573ffffffffffffffffffffffffffffffffffffffff1673ffffffffffffffffffffffffffffffffffffffff168152602001908152602001600020600082825461317a9190614708565b925050819055506001600360008473ffffffffffffffffffffffffffffffffffffffff1673ffffffffffffffffffffffffffffffffffffffff16815260200190815260200160002060008282546131d19190614681565b92505081905550816002600083815260200190815260200160002060006101000a81548173ffffffffffffffffffffffffffffffffffffffff021916908373ffffffffffffffffffffffffffffffffffffffff160217905550808273ffffffffffffffffffffffffffffffffffffffff168473ffffffffffffffffffffffffffffffffffffffff167fddf252ad1be2c89b69c2b068fc378daa952ba7f163c4a11628f55a4df523b3ef60405160405180910390a4505050565b505050565b60006132b08473ffffffffffffffffffffffffffffffffffffffff16613481565b15613419578373ffffffffffffffffffffffffffffffffffffffff1663150b7a026132d96126b2565b8786866040518563ffffffff1660e01b81526004016132fb94939291906141ad565b602060405180830381600087803b15801561331557600080fd5b505af192505050801561334657506040513d601f19601f820116820180604052508101906133439190613a43565b60015b6133c9573d8060008114613376576040519150601f19603f3d011682016040523d82523d6000602084013e61337b565b606091505b506000815114156133c1576040517f08c379a00000000000000000000000000000000000000000000000000000000081526004016133b8906142cc565b60405180910390fd5b805181602001fd5b63150b7a0260e01b7bffffffffffffffffffffffffffffffffffffffffffffffffffffffff1916817bffffffffffffffffffffffffffffffffffffffffffffffffffffffff19161491505061341e565b600190505b949350505050565b6134308383612b7f565b61343d600084848461328f565b61347c576040517f08c379a0000000000000000000000000000000000000000000000000000000008152600401613473906142cc565b60405180910390fd5b505050565b600080823b905060008111915050919050565b8280546134a0906147ff565b90600052602060002090601f0160209004810192826134c25760008555613509565b82601f106134db57805160ff1916838001178555613509565b82800160010185558215613509579182015b828111156135085782518255916020019190600101906134ed565b5b50905061351691906135e2565b5090565b604051806101400160405280600a905b606081526020019060019003908161352a5790505090565b828054828255906000526020600020908101928215613591579160200282015b82811115613590578251829080519060200190613580929190613494565b5091602001919060010190613562565b5b50905061359e91906135ff565b5090565b5080546135ae906147ff565b6000825580601f106135c057506135df565b601f0160209004906000526020600020908101906135de91906135e2565b5b50565b5b808211156135fb5760008160009055506001016135e3565b5090565b5b8082111561361f576000818161361691906135a2565b50600101613600565b5090565b60006136366136318461452c565b614507565b90508281526020810184848401111561365257613651614a53565b5b61365d8482856147bd565b509392505050565b60006136786136738461455d565b614507565b90508281526020810184848401111561369457613693614a53565b5b61369f8482856147bd565b509392505050565b6000813590506136b681614f27565b92915050565b6000813590506136cb81614f3e565b92915050565b6000813590506136e081614f55565b92915050565b6000815190506136f581614f55565b92915050565b600082601f8301126137105761370f614a4e565b5b8135613720848260208601613623565b91505092915050565b600082601f83011261373e5761373d614a4e565b5b813561374e848260208601613665565b91505092915050565b60008135905061376681614f6c565b92915050565b60006020828403121561378257613781614a5d565b5b6000613790848285016136a7565b91505092915050565b600080604083850312156137b0576137af614a5d565b5b60006137be858286016136a7565b92505060206137cf858286016136a7565b9150509250929050565b6000806000606084860312156137f2576137f1614a5d565b5b6000613800868287016136a7565b9350506020613811868287016136a7565b925050604061382286828701613757565b9150509250925092565b6000806000806080858703121561384657613845614a5d565b5b6000613854878288016136a7565b9450506020613865878288016136a7565b935050604061387687828801613757565b925050606085013567ffffffffffffffff81111561389757613896614a58565b5b6138a3878288016136fb565b91505092959194509250565b600080604083850312156138c6576138c5614a5d565b5b60006138d4858286016136a7565b92505060206138e5858286016136bc565b9150509250929050565b6000806040838503121561390657613905614a5d565b5b6000613914858286016136a7565b925050602083013567ffffffffffffffff81111561393557613934614a58565b5b61394185828601613729565b9150509250929050565b60008060006060848603121561396457613963614a5d565b5b6000613972868287016136a7565b935050602084013567ffffffffffffffff81111561399357613992614a58565b5b61399f86828701613729565b925050604084013567ffffffffffffffff8111156139c0576139bf614a58565b5b6139cc86828701613729565b9150509250925092565b600080604083850312156139ed576139ec614a5d565b5b60006139fb858286016136a7565b9250506020613a0c85828601613757565b9150509250929050565b600060208284031215613a2c57613a2b614a5d565b5b6000613a3a848285016136d1565b91505092915050565b600060208284031215613a5957613a58614a5d565b5b6000613a67848285016136e6565b91505092915050565b600060208284031215613a8657613a85614a5d565b5b600082013567ffffffffffffffff811115613aa457613aa3614a58565b5b613ab084828501613729565b91505092915050565b60008060408385031215613ad057613acf614a5d565b5b600083013567ffffffffffffffff811115613aee57613aed614a58565b5b613afa85828601613729565b925050602083013567ffffffffffffffff811115613b1b57613b1a614a58565b5b613b2785828601613729565b9150509250929050565b60008060408385031215613b4857613b47614a5d565b5b600083013567ffffffffffffffff811115613b6657613b65614a58565b5b613b7285828601613729565b9250506020613b8385828601613757565b9150509250929050565b600060208284031215613ba357613ba2614a5d565b5b6000613bb184828501613757565b91505092915050565b600080600060608486031215613bd357613bd2614a5d565b5b6000613be186828701613757565b9350506020613bf286828701613757565b9250506040613c0386828701613757565b9150509250925092565b6000613c198383613def565b905092915050565b6000613c2d83836140e5565b60208301905092915050565b613c428161473c565b82525050565b613c59613c548261473c565b6148d5565b82525050565b6000613c6a826145b8565b613c748185614616565b935083602082028501613c868561458e565b8060005b85811015613cc25784840389528151613ca38582613c0d565b9450613cae836145ef565b925060208a01995050600181019050613c8a565b50829750879550505050505092915050565b6000613cdf826145c3565b613ce98185614621565b935083602082028501613cfb85614598565b8060005b85811015613d375784840389528151613d188582613c0d565b9450613d23836145fc565b925060208a01995050600181019050613cff565b50829750879550505050505092915050565b6000613d54826145ce565b613d5e8185614632565b9350613d69836145a8565b8060005b83811015613d9a578151613d818882613c21565b9750613d8c83614609565b925050600181019050613d6d565b5085935050505092915050565b613db08161474e565b82525050565b6000613dc1826145d9565b613dcb8185614643565b9350613ddb8185602086016147cc565b613de481614a62565b840191505092915050565b6000613dfa826145e4565b613e048185614654565b9350613e148185602086016147cc565b613e1d81614a62565b840191505092915050565b6000613e33826145e4565b613e3d8185614665565b9350613e4d8185602086016147cc565b613e5681614a62565b840191505092915050565b6000613e6c826145e4565b613e768185614676565b9350613e868185602086016147cc565b80840191505092915050565b6000613e9f603283614665565b9150613eaa82614a80565b604082019050919050565b6000613ec2602683614665565b9150613ecd82614acf565b604082019050919050565b6000613ee5601c83614665565b9150613ef082614b1e565b602082019050919050565b6000613f08602483614665565b9150613f1382614b47565b604082019050919050565b6000613f2b601983614665565b9150613f3682614b96565b602082019050919050565b6000613f4e602c83614665565b9150613f5982614bbf565b604082019050919050565b6000613f71603883614665565b9150613f7c82614c0e565b604082019050919050565b6000613f94602a83614665565b9150613f9f82614c5d565b604082019050919050565b6000613fb7602983614665565b9150613fc282614cac565b604082019050919050565b6000613fda602083614665565b9150613fe582614cfb565b602082019050919050565b6000613ffd602c83614665565b915061400882614d24565b604082019050919050565b6000614020602c83614665565b915061402b82614d73565b604082019050919050565b6000614043602083614665565b915061404e82614dc2565b602082019050919050565b6000614066602983614665565b915061407182614deb565b604082019050919050565b6000614089602f83614665565b915061409482614e3a565b604082019050919050565b60006140ac602183614665565b91506140b782614e89565b604082019050919050565b60006140cf603183614665565b91506140da82614ed8565b604082019050919050565b6140ee816147a6565b82525050565b6140fd816147a6565b82525050565b61411461410f826147a6565b6148f9565b82525050565b60006141268284613e61565b915081905092915050565b600061413d8285613e61565b91506141498284613e61565b91508190509392505050565b60006141618286614103565b6020820191506141718285613c48565b6014820191506141818284614103565b602082019150819050949350505050565b60006020820190506141a76000830184613c39565b92915050565b60006080820190506141c26000830187613c39565b6141cf6020830186613c39565b6141dc60408301856140f4565b81810360608301526141ee8184613db6565b905095945050505050565b600060408201905061420e6000830185613c39565b81810360208301526142208184613e28565b90509392505050565b600060208201905081810360008301526142438184613c5f565b905092915050565b600060208201905081810360008301526142658184613cd4565b905092915050565b600060208201905081810360008301526142878184613d49565b905092915050565b60006020820190506142a46000830184613da7565b92915050565b600060208201905081810360008301526142c48184613e28565b905092915050565b600060208201905081810360008301526142e581613e92565b9050919050565b6000602082019050818103600083015261430581613eb5565b9050919050565b6000602082019050818103600083015261432581613ed8565b9050919050565b6000602082019050818103600083015261434581613efb565b9050919050565b6000602082019050818103600083015261436581613f1e565b9050919050565b6000602082019050818103600083015261438581613f41565b9050919050565b600060208201905081810360008301526143a581613f64565b9050919050565b600060208201905081810360008301526143c581613f87565b9050919050565b600060208201905081810360008301526143e581613faa565b9050919050565b6000602082019050818103600083015261440581613fcd565b9050919050565b6000602082019050818103600083015261442581613ff0565b9050919050565b6000602082019050818103600083015261444581614013565b9050919050565b6000602082019050818103600083015261446581614036565b9050919050565b6000602082019050818103600083015261448581614059565b9050919050565b600060208201905081810360008301526144a58161407c565b9050919050565b600060208201905081810360008301526144c58161409f565b9050919050565b600060208201905081810360008301526144e5816140c2565b9050919050565b600060208201905061450160008301846140f4565b92915050565b6000614511614522565b905061451d8282614831565b919050565b6000604051905090565b600067ffffffffffffffff82111561454757614546614a1f565b5b61455082614a62565b9050602081019050919050565b600067ffffffffffffffff82111561457857614577614a1f565b5b61458182614a62565b9050602081019050919050565b6000819050919050565b6000819050602082019050919050565b6000819050602082019050919050565b6000600a9050919050565b600081519050919050565b600081519050919050565b600081519050919050565b600081519050919050565b6000602082019050919050565b6000602082019050919050565b6000602082019050919050565b600081905092915050565b600082825260208201905092915050565b600082825260208201905092915050565b600082825260208201905092915050565b600082825260208201905092915050565b600082825260208201905092915050565b600081905092915050565b600061468c826147a6565b9150614697836147a6565b9250827fffffffffffffffffffffffffffffffffffffffffffffffffffffffffffffffff038211156146cc576146cb614934565b5b828201905092915050565b60006146e2826147a6565b91506146ed836147a6565b9250826146fd576146fc614963565b5b828204905092915050565b6000614713826147a6565b915061471e836147a6565b92508282101561473157614730614934565b5b828203905092915050565b600061474782614786565b9050919050565b60008115159050919050565b60007fffffffff0000000000000000000000000000000000000000000000000000000082169050919050565b600073ffffffffffffffffffffffffffffffffffffffff82169050919050565b6000819050919050565b600060ff82169050919050565b82818337600083830152505050565b60005b838110156147ea5780820151818401526020810190506147cf565b838111156147f9576000848401525b50505050565b6000600282049050600182168061481757607f821691505b6020821081141561482b5761482a614992565b5b50919050565b61483a82614a62565b810181811067ffffffffffffffff8211171561485957614858614a1f565b5b80604052505050565b600061486d826147a6565b91507fffffffffffffffffffffffffffffffffffffffffffffffffffffffffffffffff8214156148a05761489f614934565b5b600182019050919050565b60006148b6826147b0565b915060ff8214156148ca576148c9614934565b5b600182019050919050565b60006148e0826148e7565b9050919050565b60006148f282614a73565b9050919050565b6000819050919050565b600061490e826147a6565b9150614919836147a6565b92508261492957614928614963565b5b828206905092915050565b7f4e487b7100000000000000000000000000000000000000000000000000000000600052601160045260246000fd5b7f4e487b7100000000000000000000000000000000000000000000000000000000600052601260045260246000fd5b7f4e487b7100000000000000000000000000000000000000000000000000000000600052602260045260246000fd5b7f4e487b7100000000000000000000000000000000000000000000000000000000600052603160045260246000fd5b7f4e487b7100000000000000000000000000000000000000000000000000000000600052603260045260246000fd5b7f4e487b7100000000000000000000000000000000000000000000000000000000600052604160045260246000fd5b600080fd5b600080fd5b600080fd5b600080fd5b6000601f19601f8301169050919050565b60008160601b9050919050565b7f4552433732313a207472616e7366657220746f206e6f6e20455243373231526560008201527f63656976657220696d706c656d656e7465720000000000000000000000000000602082015250565b7f4f776e61626c653a206e6577206f776e657220697320746865207a65726f206160008201527f6464726573730000000000000000000000000000000000000000000000000000602082015250565b7f4552433732313a20746f6b656e20616c7265616479206d696e74656400000000600082015250565b7f4552433732313a207472616e7366657220746f20746865207a65726f2061646460008201527f7265737300000000000000000000000000000000000000000000000000000000602082015250565b7f4552433732313a20617070726f766520746f2063616c6c657200000000000000600082015250565b7f4552433732313a206f70657261746f7220717565727920666f72206e6f6e657860008201527f697374656e7420746f6b656e0000000000000000000000000000000000000000602082015250565b7f4552433732313a20617070726f76652063616c6c6572206973206e6f74206f7760008201527f6e6572206e6f7220617070726f76656420666f7220616c6c0000000000000000602082015250565b7f4552433732313a2062616c616e636520717565727920666f7220746865207a6560008201527f726f206164647265737300000000000000000000000000000000000000000000602082015250565b7f4552433732313a206f776e657220717565727920666f72206e6f6e657869737460008201527f656e7420746f6b656e0000000000000000000000000000000000000000000000602082015250565b7f4552433732313a206d696e7420746f20746865207a65726f2061646472657373600082015250565b7f4552433732313a20617070726f76656420717565727920666f72206e6f6e657860008201527f697374656e7420746f6b656e0000000000000000000000000000000000000000602082015250565b7f4552433732314d657461646174613a2055524920736574206f66206e6f6e657860008201527f697374656e7420746f6b656e0000000000000000000000000000000000000000602082015250565b7f4f776e61626c653a2063616c6c6572206973206e6f7420746865206f776e6572600082015250565b7f4552433732313a207472616e73666572206f6620746f6b656e2074686174206960008201527f73206e6f74206f776e0000000000000000000000000000000000000000000000602082015250565b7f4552433732314d657461646174613a2055524920717565727920666f72206e6f60008201527f6e6578697374656e7420746f6b656e0000000000000000000000000000000000602082015250565b7f4552433732313a20617070726f76616c20746f2063757272656e74206f776e6560008201527f7200000000000000000000000000000000000000000000000000000000000000602082015250565b7f4552433732313a207472616e736665722063616c6c6572206973206e6f74206f60008201527f776e6572206e6f7220617070726f766564000000000000000000000000000000602082015250565b614f308161473c565b8114614f3b57600080fd5b50565b614f478161474e565b8114614f5257600080fd5b50565b614f5e8161475a565b8114614f6957600080fd5b50565b614f75816147a6565b8114614f8057600080fd5b5056fea26469706673582212202b023481b61fcbf7b6bdf96b37d4331b9f2fb7113ae6eb03ace2e3299183cf4964736f6c63430008070033",
  "immutableReferences": {},
  "source": "pragma solidity ^0.8.0;\n\nimport \"@openzeppelin/contracts/token/ERC721/ERC721.sol\";\nimport \"@openzeppelin/contracts/utils/Counters.sol\";\nimport \"@openzeppelin/contracts/access/Ownable.sol\";\n\nimport \"./RandomNumber.sol\";\nimport \"./ViridianNFT.sol\";\n\ncontract ViridianPack is ERC721, Ownable {\n\n    using Counters for Counters.Counter;\n    Counters.Counter private _tokenIds;\n    Counters.Counter private _unmintedTokenIds;\n    mapping(string => uint8) hashes;\n    mapping(uint256 => mapping(uint256 => uint256)) private rarityOdds;\n    mapping(uint256 => uint256) private numNFTs;\n    //mapping(uint256 => string) private unmintedURIs;\n    mapping (uint256 => bool) private _tokensListed;\n    mapping(uint256 => uint256) tokenRarity;\n    mapping(uint256 => string[]) private uriRarityPools;\n    int private maxRarityIndex;\n\n    address public viridianNFTAddr;\n\n    ViridianNFT vNFT;\n\n    using Strings for uint256;\n\n    constructor(address _viridianNFT) ERC721(\"Viridian Pack\", \"VP\") {\n\n        require(address(_viridianNFT) != address(0));\n\n        viridianNFTAddr = _viridianNFT;\n\n        vNFT = ViridianNFT(viridianNFTAddr);\n\n        //Set all beginning rarities\n\n        // Legendary rarity and cards in pack\n        rarityOdds[0][0] = 25;\n        rarityOdds[0][1] = 100;\n        rarityOdds[0][2] = 300;\n        rarityOdds[0][3] = 1000;\n        numNFTs[0] = 3;\n\n        // Mystical rarity and cards in pack\n        rarityOdds[1][0] = 1;\n        rarityOdds[1][1] = 50;\n        rarityOdds[1][2] = 200;\n        rarityOdds[1][3] = 1000;\n        numNFTs[0] = 3;\n\n        // Rare rarity and cards in pack\n        rarityOdds[1][0] = 0;\n        rarityOdds[1][1] = 50;\n        rarityOdds[1][2] = 100;\n        rarityOdds[1][3] = 1000;\n        numNFTs[0] = 3;\n\n        // Common rarity and cards in pack\n        rarityOdds[2][0] = 0;\n        rarityOdds[2][1] = 10;\n        rarityOdds[2][2] = 50;\n        rarityOdds[2][3] = 1000;\n        numNFTs[0] = 3;\n\n        maxRarityIndex = 3;\n    }\n\n    event Open(string[10] newUris);\n    \n    struct NFT {\n        uint256 id;\n        string uri;\n    }\n    \n    // Optional mapping for token URIs\n    mapping (uint256 => string) private _tokenURIs;\n\n    mapping (address => uint256[]) private _ownedNFTs;\n\n    //address private viridianExchangeAddress;\n\n    // Base URI\n    string private _baseURIextended;\n    \n    function setBaseURI(string memory baseURI_) external onlyOwner() {\n        _baseURIextended = baseURI_;\n    }\n    \n    function _setTokenURI(uint256 tokenId, string memory _tokenURI) internal virtual {\n        require(_exists(tokenId), \"ERC721Metadata: URI set of nonexistent token\");\n        _tokenURIs[tokenId] = _tokenURI;\n    }\n    \n    function _baseURI() internal view virtual override returns (string memory) {\n        return _baseURIextended;\n    }\n    \n    function tokenURI(uint256 tokenId) public view virtual override returns (string memory) {\n        require(_exists(tokenId), \"ERC721Metadata: URI query for nonexistent token\");\n\n        string memory _tokenURI = _tokenURIs[tokenId];\n        string memory base = _baseURI();\n        \n        // If there is no base URI, return the token URI.\n        if (bytes(base).length == 0) {\n            return _tokenURI;\n        }\n        // If both are set, concatenate the baseURI and tokenURI (via abi.encodePacked).\n        if (bytes(_tokenURI).length > 0) {\n            return string(abi.encodePacked(base, _tokenURI));\n        }\n        // If there is a baseURI but no tokenURI, concatenate the tokenID to the baseURI.\n        return string(abi.encodePacked(base, tokenId.toString()));\n    }\n\n    function getUriRarityPools(uint256 _rarity) public view onlyOwner() returns (string[] memory) {\n        return uriRarityPools[_rarity];\n    }\n\n    function getOwnedNFTs() public view virtual returns (uint256[] memory) {\n        uint256[] memory _tokens = _ownedNFTs[msg.sender];\n        \n        return _tokens;\n    }\n\n    function setRarityOdds(uint256 _rarity, uint256 _rarityOdd, uint256 _newOdds) external onlyOwner() {\n        rarityOdds[_rarity][_rarityOdd] = _newOdds;\n    }\n\n    function isListed(uint256 tokenId) public view returns (bool) {\n        return _tokensListed[tokenId];\n    }\n\n    function mint(\n        address _to,\n        string memory tokenURI_\n    ) external onlyOwner() {\n        _tokenIds.increment();\n        uint256 _tokenId = _tokenIds.current();\n\n        _safeMint(_to, _tokenId);\n        _ownedNFTs[_to].push(_tokenId);\n        _tokensListed[_tokenId] = false;\n        _setTokenURI(_tokenId, tokenURI_);\n    }\n\n    //TODO: THIS IS NOT TO BE USED IN FINAL DEPLOYED IMPLEMENTATION, convert to LINK VRF for TESTNET and ESPECIALLY MAINNET!!!\n    uint nonce;\n\n\n    function random(uint range) internal returns (uint) {\n        uint randomnumber = uint(keccak256(abi.encodePacked(block.timestamp, msg.sender, nonce))) % range;\n        randomnumber = randomnumber;\n        nonce++;\n\n        return randomnumber;\n    }\n\n    function calculateWeightedOdds(uint256 randomNum, mapping(uint256 => uint256) storage rarityOdd) private view returns (uint) {\n        uint256 n;\n\n        for (n = 0; int(n) < int(maxRarityIndex); n++) {\n            if (randomNum <= rarityOdd[n]) {\n                return n;\n            }\n        }\n\n        return n;\n    }\n\n    function softMintNFT(string memory uri, uint256 rarity) public onlyOwner() payable {\n        uriRarityPools[rarity].push(uri);\n    }\n\n    function compareStrings(string memory _s, string memory _s1) public pure returns (bool) {\n        return (keccak256(abi.encodePacked((_s))) == keccak256(abi.encodePacked((_s1))));\n    }\n\n    function openPack(uint256 _tokenId) public payable {\n        // Randomly \n        require(_isApprovedOrOwner(msg.sender, _tokenId));\n\n        uint256 tr = tokenRarity[_tokenId];\n\n        string[10] memory newUris;\n\n        for (uint8 n = 0; n < numNFTs[tr]; n++) {\n            uint256 randIndexWithPercentOdds = calculateWeightedOdds(random(1000), rarityOdds[tr]);\n            uint256 randIndexInRarity = random(uriRarityPools[randIndexWithPercentOdds].length - 1);\n\n            string memory newURI = uriRarityPools[randIndexWithPercentOdds][randIndexInRarity];\n\n            vNFT.mint(msg.sender, newURI);\n\n            newUris[n] = newURI;\n\n            string[] memory curRarityPool = uriRarityPools[randIndexWithPercentOdds];\n            for (uint i = 0; i < uriRarityPools[randIndexWithPercentOdds].length; i++) {\n                string memory uri = uriRarityPools[randIndexWithPercentOdds][i];\n                if (compareStrings(uri, newURI)) {\n                    curRarityPool[i] = curRarityPool[curRarityPool.length - 1];\n                    uriRarityPools[randIndexWithPercentOdds] = curRarityPool;\n                    uriRarityPools[randIndexWithPercentOdds].pop();\n                    break;\n                }\n            }\n        }\n\n        burn(_tokenId);\n\n        emit Open(newUris);\n    }\n\n    function burn(uint256 tokenId) public {\n        require(_isApprovedOrOwner(msg.sender, tokenId));\n\n        for (uint256 i = 0; i < _ownedNFTs[msg.sender].length; i++) {\n            uint256 ownedNFT = _ownedNFTs[msg.sender][i];\n            if (ownedNFT == tokenId) {\n                _ownedNFTs[msg.sender][i] = _ownedNFTs[msg.sender][_ownedNFTs[msg.sender].length - 1];\n                _ownedNFTs[msg.sender].pop();\n            }\n        }\n\n        _burn(tokenId);\n    }\n\n    function awardItem(address recipient, string memory hash, string memory metadata) public returns (uint256) {\n        require(hashes[hash] != 1);\n        hashes[hash] = 1;\n        _tokenIds.increment();\n        uint256 newItemId = _tokenIds.current();\n        _mint(recipient, newItemId);\n        _setTokenURI(newItemId, metadata);\n        return newItemId;\n    }\n\n    function safeTransferFrom(address from, address to, uint256 tokenId) public override {\n        require(!_tokensListed[tokenId]);\n        for (uint256 i = 0; i < _ownedNFTs[msg.sender].length; i++) {\n            uint256 ownedNFT = _ownedNFTs[msg.sender][i];\n            if (ownedNFT == tokenId) {\n                _ownedNFTs[msg.sender][i] = _ownedNFTs[msg.sender][_ownedNFTs[msg.sender].length - 1];\n                _ownedNFTs[msg.sender].pop();\n            }\n        }\n        _ownedNFTs[to].push(tokenId);\n\n        super.safeTransferFrom(from, to, tokenId);\n    }\n\n    function transferFrom(address from, address to, uint256 tokenId) public override {\n        for (uint256 i = 0; i < _ownedNFTs[msg.sender].length; i++) {\n            uint256 ownedNFT = _ownedNFTs[msg.sender][i];\n            if (ownedNFT == tokenId) {\n                _ownedNFTs[msg.sender][i] = _ownedNFTs[msg.sender][_ownedNFTs[msg.sender].length - 1];\n                _ownedNFTs[msg.sender].pop();\n            }\n        }\n        _ownedNFTs[to].push(tokenId);\n\n        super.transferFrom(from, to, tokenId);\n    }\n\n    function listToken(uint256 _tokenId) public {\n        _tokensListed[_tokenId] = true;\n    }\n\n    function unlistToken(uint256 _tokenId) public {\n        _tokensListed[_tokenId] = false;\n    }\n}",
  "sourcePath": "/Users/blakehatch/Viridian-Exchange-Contracts/contracts/ViridianPack.sol",
  "compiler": {
    "name": "solc",
    "version": "0.8.7+commit.e28d00a7.Emscripten.clang"
  },
  "schemaVersion": "3.4.1",
  "updatedAt": "2021-10-05T19:22:47.812Z",
  "networkType": "ethereum",
  "devdoc": {
    "kind": "dev",
    "methods": {
      "approve(address,uint256)": {
        "details": "See {IERC721-approve}."
      },
      "balanceOf(address)": {
        "details": "See {IERC721-balanceOf}."
      },
      "getApproved(uint256)": {
        "details": "See {IERC721-getApproved}."
      },
      "isApprovedForAll(address,address)": {
        "details": "See {IERC721-isApprovedForAll}."
      },
      "name()": {
        "details": "See {IERC721Metadata-name}."
      },
      "owner()": {
        "details": "Returns the address of the current owner."
      },
      "ownerOf(uint256)": {
        "details": "See {IERC721-ownerOf}."
      },
      "renounceOwnership()": {
        "details": "Leaves the contract without owner. It will not be possible to call `onlyOwner` functions anymore. Can only be called by the current owner. NOTE: Renouncing ownership will leave the contract without an owner, thereby removing any functionality that is only available to the owner."
      },
      "safeTransferFrom(address,address,uint256)": {
        "details": "See {IERC721-safeTransferFrom}."
      },
      "safeTransferFrom(address,address,uint256,bytes)": {
        "details": "See {IERC721-safeTransferFrom}."
      },
      "setApprovalForAll(address,bool)": {
        "details": "See {IERC721-setApprovalForAll}."
      },
      "supportsInterface(bytes4)": {
        "details": "See {IERC165-supportsInterface}."
      },
      "symbol()": {
        "details": "See {IERC721Metadata-symbol}."
      },
      "tokenURI(uint256)": {
        "details": "See {IERC721Metadata-tokenURI}."
      },
      "transferFrom(address,address,uint256)": {
        "details": "See {IERC721-transferFrom}."
      },
      "transferOwnership(address)": {
        "details": "Transfers ownership of the contract to a new account (`newOwner`). Can only be called by the current owner."
      }
    },
    "version": 1
  },
  "userdoc": {
    "kind": "user",
    "methods": {},
    "version": 1
  }
}