{
  "contractName": "ViridianPack",
  "abi": [
    {
      "inputs": [
        {
          "internalType": "address",
          "name": "_viridianNFT",
          "type": "address"
        }
      ],
      "stateMutability": "nonpayable",
      "type": "constructor"
    },
    {
      "anonymous": false,
      "inputs": [
        {
          "indexed": true,
          "internalType": "address",
          "name": "owner",
          "type": "address"
        },
        {
          "indexed": true,
          "internalType": "address",
          "name": "approved",
          "type": "address"
        },
        {
          "indexed": true,
          "internalType": "uint256",
          "name": "tokenId",
          "type": "uint256"
        }
      ],
      "name": "Approval",
      "type": "event"
    },
    {
      "anonymous": false,
      "inputs": [
        {
          "indexed": true,
          "internalType": "address",
          "name": "owner",
          "type": "address"
        },
        {
          "indexed": true,
          "internalType": "address",
          "name": "operator",
          "type": "address"
        },
        {
          "indexed": false,
          "internalType": "bool",
          "name": "approved",
          "type": "bool"
        }
      ],
      "name": "ApprovalForAll",
      "type": "event"
    },
    {
      "anonymous": false,
      "inputs": [
        {
          "indexed": false,
          "internalType": "string[10]",
          "name": "newUris",
          "type": "string[10]"
        }
      ],
      "name": "Open",
      "type": "event"
    },
    {
      "anonymous": false,
      "inputs": [
        {
          "indexed": true,
          "internalType": "address",
          "name": "previousOwner",
          "type": "address"
        },
        {
          "indexed": true,
          "internalType": "address",
          "name": "newOwner",
          "type": "address"
        }
      ],
      "name": "OwnershipTransferred",
      "type": "event"
    },
    {
      "anonymous": false,
      "inputs": [
        {
          "indexed": true,
          "internalType": "address",
          "name": "from",
          "type": "address"
        },
        {
          "indexed": true,
          "internalType": "address",
          "name": "to",
          "type": "address"
        },
        {
          "indexed": true,
          "internalType": "uint256",
          "name": "tokenId",
          "type": "uint256"
        }
      ],
      "name": "Transfer",
      "type": "event"
    },
    {
      "inputs": [
        {
          "internalType": "address",
          "name": "to",
          "type": "address"
        },
        {
          "internalType": "uint256",
          "name": "tokenId",
          "type": "uint256"
        }
      ],
      "name": "approve",
      "outputs": [],
      "stateMutability": "nonpayable",
      "type": "function"
    },
    {
      "inputs": [
        {
          "internalType": "address",
          "name": "owner",
          "type": "address"
        }
      ],
      "name": "balanceOf",
      "outputs": [
        {
          "internalType": "uint256",
          "name": "",
          "type": "uint256"
        }
      ],
      "stateMutability": "view",
      "type": "function",
      "constant": true
    },
    {
      "inputs": [
        {
          "internalType": "uint256",
          "name": "tokenId",
          "type": "uint256"
        }
      ],
      "name": "getApproved",
      "outputs": [
        {
          "internalType": "address",
          "name": "",
          "type": "address"
        }
      ],
      "stateMutability": "view",
      "type": "function",
      "constant": true
    },
    {
      "inputs": [
        {
          "internalType": "address",
          "name": "owner",
          "type": "address"
        },
        {
          "internalType": "address",
          "name": "operator",
          "type": "address"
        }
      ],
      "name": "isApprovedForAll",
      "outputs": [
        {
          "internalType": "bool",
          "name": "",
          "type": "bool"
        }
      ],
      "stateMutability": "view",
      "type": "function",
      "constant": true
    },
    {
      "inputs": [],
      "name": "name",
      "outputs": [
        {
          "internalType": "string",
          "name": "",
          "type": "string"
        }
      ],
      "stateMutability": "view",
      "type": "function",
      "constant": true
    },
    {
      "inputs": [],
      "name": "owner",
      "outputs": [
        {
          "internalType": "address",
          "name": "",
          "type": "address"
        }
      ],
      "stateMutability": "view",
      "type": "function",
      "constant": true
    },
    {
      "inputs": [
        {
          "internalType": "uint256",
          "name": "tokenId",
          "type": "uint256"
        }
      ],
      "name": "ownerOf",
      "outputs": [
        {
          "internalType": "address",
          "name": "",
          "type": "address"
        }
      ],
      "stateMutability": "view",
      "type": "function",
      "constant": true
    },
    {
      "inputs": [],
      "name": "renounceOwnership",
      "outputs": [],
      "stateMutability": "nonpayable",
      "type": "function"
    },
    {
      "inputs": [
        {
          "internalType": "address",
          "name": "operator",
          "type": "address"
        },
        {
          "internalType": "bool",
          "name": "approved",
          "type": "bool"
        }
      ],
      "name": "setApprovalForAll",
      "outputs": [],
      "stateMutability": "nonpayable",
      "type": "function"
    },
    {
      "inputs": [
        {
          "internalType": "bytes4",
          "name": "interfaceId",
          "type": "bytes4"
        }
      ],
      "name": "supportsInterface",
      "outputs": [
        {
          "internalType": "bool",
          "name": "",
          "type": "bool"
        }
      ],
      "stateMutability": "view",
      "type": "function",
      "constant": true
    },
    {
      "inputs": [],
      "name": "symbol",
      "outputs": [
        {
          "internalType": "string",
          "name": "",
          "type": "string"
        }
      ],
      "stateMutability": "view",
      "type": "function",
      "constant": true
    },
    {
      "inputs": [
        {
          "internalType": "address",
          "name": "newOwner",
          "type": "address"
        }
      ],
      "name": "transferOwnership",
      "outputs": [],
      "stateMutability": "nonpayable",
      "type": "function"
    },
    {
      "inputs": [],
      "name": "viridianNFTAddr",
      "outputs": [
        {
          "internalType": "address",
          "name": "",
          "type": "address"
        }
      ],
      "stateMutability": "view",
      "type": "function",
      "constant": true
    },
    {
      "inputs": [
        {
          "internalType": "string",
          "name": "baseURI_",
          "type": "string"
        }
      ],
      "name": "setBaseURI",
      "outputs": [],
      "stateMutability": "nonpayable",
      "type": "function"
    },
    {
      "inputs": [
        {
          "internalType": "uint256",
          "name": "tokenId",
          "type": "uint256"
        }
      ],
      "name": "tokenURI",
      "outputs": [
        {
          "internalType": "string",
          "name": "",
          "type": "string"
        }
      ],
      "stateMutability": "view",
      "type": "function",
      "constant": true
    },
    {
      "inputs": [
        {
          "internalType": "uint256",
          "name": "_rarity",
          "type": "uint256"
        }
      ],
      "name": "getUriRarityPools",
      "outputs": [
        {
          "internalType": "string[]",
          "name": "",
          "type": "string[]"
        }
      ],
      "stateMutability": "view",
      "type": "function",
      "constant": true
    },
    {
      "inputs": [],
      "name": "getOwnedNFTs",
      "outputs": [
        {
          "internalType": "uint256[]",
          "name": "",
          "type": "uint256[]"
        }
      ],
      "stateMutability": "view",
      "type": "function",
      "constant": true
    },
    {
      "inputs": [
        {
          "internalType": "uint256",
          "name": "_rarity",
          "type": "uint256"
        },
        {
          "internalType": "uint256",
          "name": "_rarityOdd",
          "type": "uint256"
        },
        {
          "internalType": "uint256",
          "name": "_newOdds",
          "type": "uint256"
        }
      ],
      "name": "setRarityOdds",
      "outputs": [],
      "stateMutability": "nonpayable",
      "type": "function"
    },
    {
      "inputs": [
        {
          "internalType": "address",
          "name": "_to",
          "type": "address"
        },
        {
          "internalType": "string",
          "name": "tokenURI_",
          "type": "string"
        }
      ],
      "name": "mint",
      "outputs": [],
      "stateMutability": "nonpayable",
      "type": "function"
    },
    {
      "inputs": [
        {
          "internalType": "string",
          "name": "uri",
          "type": "string"
        },
        {
          "internalType": "uint256",
          "name": "rarity",
          "type": "uint256"
        }
      ],
      "name": "softMintNFT",
      "outputs": [],
      "stateMutability": "payable",
      "type": "function",
      "payable": true
    },
    {
      "inputs": [
        {
          "internalType": "string",
          "name": "_s",
          "type": "string"
        },
        {
          "internalType": "string",
          "name": "_s1",
          "type": "string"
        }
      ],
      "name": "compareStrings",
      "outputs": [
        {
          "internalType": "bool",
          "name": "",
          "type": "bool"
        }
      ],
      "stateMutability": "pure",
      "type": "function",
      "constant": true
    },
    {
      "inputs": [
        {
          "internalType": "uint256",
          "name": "_tokenId",
          "type": "uint256"
        }
      ],
      "name": "openPack",
      "outputs": [],
      "stateMutability": "payable",
      "type": "function",
      "payable": true
    },
    {
      "inputs": [
        {
          "internalType": "uint256",
          "name": "tokenId",
          "type": "uint256"
        }
      ],
      "name": "burn",
      "outputs": [],
      "stateMutability": "nonpayable",
      "type": "function"
    },
    {
      "inputs": [
        {
          "internalType": "address",
          "name": "recipient",
          "type": "address"
        },
        {
          "internalType": "string",
          "name": "hash",
          "type": "string"
        },
        {
          "internalType": "string",
          "name": "metadata",
          "type": "string"
        }
      ],
      "name": "awardItem",
      "outputs": [
        {
          "internalType": "uint256",
          "name": "",
          "type": "uint256"
        }
      ],
      "stateMutability": "nonpayable",
      "type": "function"
    },
    {
      "inputs": [
        {
          "internalType": "address",
          "name": "from",
          "type": "address"
        },
        {
          "internalType": "address",
          "name": "to",
          "type": "address"
        },
        {
          "internalType": "uint256",
          "name": "tokenId",
          "type": "uint256"
        }
      ],
      "name": "safeTransferFrom",
      "outputs": [],
      "stateMutability": "nonpayable",
      "type": "function"
    },
    {
      "inputs": [
        {
          "internalType": "address",
          "name": "from",
          "type": "address"
        },
        {
          "internalType": "address",
          "name": "to",
          "type": "address"
        },
        {
          "internalType": "uint256",
          "name": "tokenId",
          "type": "uint256"
        },
        {
          "internalType": "bytes",
          "name": "_data",
          "type": "bytes"
        }
      ],
      "name": "safeTransferFrom",
      "outputs": [],
      "stateMutability": "nonpayable",
      "type": "function"
    },
    {
      "inputs": [
        {
          "internalType": "address",
          "name": "from",
          "type": "address"
        },
        {
          "internalType": "address",
          "name": "to",
          "type": "address"
        },
        {
          "internalType": "uint256",
          "name": "tokenId",
          "type": "uint256"
        }
      ],
      "name": "transferFrom",
      "outputs": [],
      "stateMutability": "nonpayable",
      "type": "function"
    }
  ],
  "bytecode": "0x60806040523480156200001157600080fd5b50604051620056053803806200560583398181016040528101906200003791906200069a565b6040518060400160405280600d81526020017f566972696469616e205061636b000000000000000000000000000000000000008152506040518060400160405280600281526020017f56500000000000000000000000000000000000000000000000000000000000008152508160009080519060200190620000bb929190620005d3565b508060019080519060200190620000d4929190620005d3565b505050620000f7620000eb6200050560201b60201c565b6200050d60201b60201c565b600073ffffffffffffffffffffffffffffffffffffffff168173ffffffffffffffffffffffffffffffffffffffff1614156200013257600080fd5b80600f60006101000a81548173ffffffffffffffffffffffffffffffffffffffff021916908373ffffffffffffffffffffffffffffffffffffffff160217905550600f60009054906101000a900473ffffffffffffffffffffffffffffffffffffffff16601060006101000a81548173ffffffffffffffffffffffffffffffffffffffff021916908373ffffffffffffffffffffffffffffffffffffffff1602179055506019600a60008081526020019081526020016000206000808152602001908152602001600020819055506064600a60008081526020019081526020016000206000600181526020019081526020016000208190555061012c600a6000808152602001908152602001600020600060028152602001908152602001600020819055506103e8600a6000808152602001908152602001600020600060038152602001908152602001600020819055506003600b6000808152602001908152602001600020819055506001600a6000600181526020019081526020016000206000808152602001908152602001600020819055506032600a6000600181526020019081526020016000206000600181526020019081526020016000208190555060c8600a600060018152602001908152602001600020600060028152602001908152602001600020819055506103e8600a600060018152602001908152602001600020600060038152602001908152602001600020819055506003600b6000808152602001908152602001600020819055506000600a6000600181526020019081526020016000206000808152602001908152602001600020819055506032600a600060018152602001908152602001600020600060018152602001908152602001600020819055506064600a600060018152602001908152602001600020600060028152602001908152602001600020819055506103e8600a600060018152602001908152602001600020600060038152602001908152602001600020819055506003600b6000808152602001908152602001600020819055506000600a600060028152602001908152602001600020600080815260200190815260200160002081905550600a80600060028152602001908152602001600020600060018152602001908152602001600020819055506032600a600060028152602001908152602001600020600060028152602001908152602001600020819055506103e8600a600060028152602001908152602001600020600060038152602001908152602001600020819055506003600b6000808152602001908152602001600020819055506003600e819055505062000784565b600033905090565b6000600660009054906101000a900473ffffffffffffffffffffffffffffffffffffffff16905081600660006101000a81548173ffffffffffffffffffffffffffffffffffffffff021916908373ffffffffffffffffffffffffffffffffffffffff1602179055508173ffffffffffffffffffffffffffffffffffffffff168173ffffffffffffffffffffffffffffffffffffffff167f8be0079c531659141344cd1fd0a4f28419497f9722a3daafe3b4186f6b6457e060405160405180910390a35050565b828054620005e19062000700565b90600052602060002090601f01602090048101928262000605576000855562000651565b82601f106200062057805160ff191683800117855562000651565b8280016001018555821562000651579182015b828111156200065057825182559160200191906001019062000633565b5b50905062000660919062000664565b5090565b5b808211156200067f57600081600090555060010162000665565b5090565b60008151905062000694816200076a565b92915050565b600060208284031215620006b357620006b262000765565b5b6000620006c38482850162000683565b91505092915050565b6000620006d982620006e0565b9050919050565b600073ffffffffffffffffffffffffffffffffffffffff82169050919050565b600060028204905060018216806200071957607f821691505b6020821081141562000730576200072f62000736565b5b50919050565b7f4e487b7100000000000000000000000000000000000000000000000000000000600052602260045260246000fd5b600080fd5b6200077581620006cc565b81146200078157600080fd5b50565b614e7180620007946000396000f3fe60806040526004361061019c5760003560e01c8063715018a6116100ec578063a80f1e9c1161008a578063c87b56dd11610064578063c87b56dd146105ba578063d0def521146105f7578063e985e9c514610620578063f2fde38b1461065d5761019c565b8063a80f1e9c1461052b578063b88d4fde14610554578063bed34bba1461057d5761019c565b806395d89b41116100c657806395d89b411461046f578063a203428c1461049a578063a22cb465146104d7578063a3524a04146105005761019c565b8063715018a6146103f05780638bfaf101146104075780638da5cb5b146104445761019c565b806342842e0e1161015957806350a88c7e1161013357806350a88c7e1461033157806355f804b31461034d5780636352211e1461037657806370a08231146103b35761019c565b806342842e0e146102b457806342966c68146102dd5780634c0eb7d9146103065761019c565b806301ffc9a7146101a157806306fdde03146101de578063081812fc14610209578063095ea7b3146102465780630e0659311461026f57806323b872dd1461028b575b600080fd5b3480156101ad57600080fd5b506101c860048036038101906101c391906138ce565b610686565b6040516101d59190614147565b60405180910390f35b3480156101ea57600080fd5b506101f3610768565b6040516102009190614162565b60405180910390f35b34801561021557600080fd5b50610230600480360381019061022b9190613a45565b6107fa565b60405161023d919061404a565b60405180910390f35b34801561025257600080fd5b5061026d6004803603810190610268919061388e565b61087f565b005b610289600480360381019061028491906139e9565b610997565b005b34801561029757600080fd5b506102b260048036038101906102ad9190613691565b610a64565b005b3480156102c057600080fd5b506102db60048036038101906102d69190613691565b610d13565b005b3480156102e957600080fd5b5061030460048036038101906102ff9190613a45565b610fed565b005b34801561031257600080fd5b5061031b611245565b6040516103289190614125565b60405180910390f35b61034b60048036038101906103469190613a45565b6112e0565b005b34801561035957600080fd5b50610374600480360381019061036f9190613928565b6117f1565b005b34801561038257600080fd5b5061039d60048036038101906103989190613a45565b611887565b6040516103aa919061404a565b60405180910390f35b3480156103bf57600080fd5b506103da60048036038101906103d59190613624565b611939565b6040516103e791906143a4565b60405180910390f35b3480156103fc57600080fd5b506104056119f1565b005b34801561041357600080fd5b5061042e60048036038101906104299190613803565b611a79565b60405161043b91906143a4565b60405180910390f35b34801561045057600080fd5b50610459611b26565b604051610466919061404a565b60405180910390f35b34801561047b57600080fd5b50610484611b50565b6040516104919190614162565b60405180910390f35b3480156104a657600080fd5b506104c160048036038101906104bc9190613a45565b611be2565b6040516104ce9190614103565b60405180910390f35b3480156104e357600080fd5b506104fe60048036038101906104f99190613767565b611d4a565b005b34801561050c57600080fd5b50610515611ecb565b604051610522919061404a565b60405180910390f35b34801561053757600080fd5b50610552600480360381019061054d9190613a72565b611ef1565b005b34801561056057600080fd5b5061057b600480360381019061057691906136e4565b611f9b565b005b34801561058957600080fd5b506105a4600480360381019061059f9190613971565b611ffd565b6040516105b19190614147565b60405180910390f35b3480156105c657600080fd5b506105e160048036038101906105dc9190613a45565b612056565b6040516105ee9190614162565b60405180910390f35b34801561060357600080fd5b5061061e600480360381019061061991906137a7565b6121c9565b005b34801561062c57600080fd5b5061064760048036038101906106429190613651565b612308565b6040516106549190614147565b60405180910390f35b34801561066957600080fd5b50610684600480360381019061067f9190613624565b61239c565b005b60007f80ac58cd000000000000000000000000000000000000000000000000000000007bffffffffffffffffffffffffffffffffffffffffffffffffffffffff1916827bffffffffffffffffffffffffffffffffffffffffffffffffffffffff1916148061075157507f5b5e139f000000000000000000000000000000000000000000000000000000007bffffffffffffffffffffffffffffffffffffffffffffffffffffffff1916827bffffffffffffffffffffffffffffffffffffffffffffffffffffffff1916145b80610761575061076082612494565b5b9050919050565b606060008054610777906146b7565b80601f01602080910402602001604051908101604052809291908181526020018280546107a3906146b7565b80156107f05780601f106107c5576101008083540402835291602001916107f0565b820191906000526020600020905b8154815290600101906020018083116107d357829003601f168201915b5050505050905090565b6000610805826124fe565b610844576040517f08c379a000000000000000000000000000000000000000000000000000000000815260040161083b906142c4565b60405180910390fd5b6004600083815260200190815260200160002060009054906101000a900473ffffffffffffffffffffffffffffffffffffffff169050919050565b600061088a82611887565b90508073ffffffffffffffffffffffffffffffffffffffff168373ffffffffffffffffffffffffffffffffffffffff1614156108fb576040517f08c379a00000000000000000000000000000000000000000000000000000000081526004016108f290614364565b60405180910390fd5b8073ffffffffffffffffffffffffffffffffffffffff1661091a61256a565b73ffffffffffffffffffffffffffffffffffffffff16148061094957506109488161094361256a565b612308565b5b610988576040517f08c379a000000000000000000000000000000000000000000000000000000000815260040161097f90614244565b60405180910390fd5b6109928383612572565b505050565b61099f61256a565b73ffffffffffffffffffffffffffffffffffffffff166109bd611b26565b73ffffffffffffffffffffffffffffffffffffffff1614610a13576040517f08c379a0000000000000000000000000000000000000000000000000000000008152600401610a0a90614304565b60405180910390fd5b600d600082815260200190815260200160002082908060018154018082558091505060019003906000526020600020016000909190919091509080519060200190610a5f92919061334c565b505050565b60005b601360003373ffffffffffffffffffffffffffffffffffffffff1673ffffffffffffffffffffffffffffffffffffffff16815260200190815260200160002080549050811015610c9c576000601360003373ffffffffffffffffffffffffffffffffffffffff1673ffffffffffffffffffffffffffffffffffffffff1681526020019081526020016000208281548110610b0457610b036148a8565b5b9060005260206000200154905082811415610c8857601360003373ffffffffffffffffffffffffffffffffffffffff1673ffffffffffffffffffffffffffffffffffffffff1681526020019081526020016000206001601360003373ffffffffffffffffffffffffffffffffffffffff1673ffffffffffffffffffffffffffffffffffffffff16815260200190815260200160002080549050610ba791906145c0565b81548110610bb857610bb76148a8565b5b9060005260206000200154601360003373ffffffffffffffffffffffffffffffffffffffff1673ffffffffffffffffffffffffffffffffffffffff1681526020019081526020016000208381548110610c1457610c136148a8565b5b9060005260206000200181905550601360003373ffffffffffffffffffffffffffffffffffffffff1673ffffffffffffffffffffffffffffffffffffffff168152602001908152602001600020805480610c7157610c70614879565b5b600190038181906000526020600020016000905590555b508080610c949061471a565b915050610a67565b50601360008373ffffffffffffffffffffffffffffffffffffffff1673ffffffffffffffffffffffffffffffffffffffff168152602001908152602001600020819080600181540180825580915050600190039060005260206000200160009091909190915055610d0e83838361262b565b505050565b6012600082815260200190815260200160002060009054906101000a900460ff1615610d3e57600080fd5b60005b601360003373ffffffffffffffffffffffffffffffffffffffff1673ffffffffffffffffffffffffffffffffffffffff16815260200190815260200160002080549050811015610f76576000601360003373ffffffffffffffffffffffffffffffffffffffff1673ffffffffffffffffffffffffffffffffffffffff1681526020019081526020016000208281548110610dde57610ddd6148a8565b5b9060005260206000200154905082811415610f6257601360003373ffffffffffffffffffffffffffffffffffffffff1673ffffffffffffffffffffffffffffffffffffffff1681526020019081526020016000206001601360003373ffffffffffffffffffffffffffffffffffffffff1673ffffffffffffffffffffffffffffffffffffffff16815260200190815260200160002080549050610e8191906145c0565b81548110610e9257610e916148a8565b5b9060005260206000200154601360003373ffffffffffffffffffffffffffffffffffffffff1673ffffffffffffffffffffffffffffffffffffffff1681526020019081526020016000208381548110610eee57610eed6148a8565b5b9060005260206000200181905550601360003373ffffffffffffffffffffffffffffffffffffffff1673ffffffffffffffffffffffffffffffffffffffff168152602001908152602001600020805480610f4b57610f4a614879565b5b600190038181906000526020600020016000905590555b508080610f6e9061471a565b915050610d41565b50601360008373ffffffffffffffffffffffffffffffffffffffff1673ffffffffffffffffffffffffffffffffffffffff168152602001908152602001600020819080600181540180825580915050600190039060005260206000200160009091909190915055610fe883838361268b565b505050565b610ff733826126ab565b61100057600080fd5b60005b601360003373ffffffffffffffffffffffffffffffffffffffff1673ffffffffffffffffffffffffffffffffffffffff16815260200190815260200160002080549050811015611238576000601360003373ffffffffffffffffffffffffffffffffffffffff1673ffffffffffffffffffffffffffffffffffffffff16815260200190815260200160002082815481106110a05761109f6148a8565b5b906000526020600020015490508281141561122457601360003373ffffffffffffffffffffffffffffffffffffffff1673ffffffffffffffffffffffffffffffffffffffff1681526020019081526020016000206001601360003373ffffffffffffffffffffffffffffffffffffffff1673ffffffffffffffffffffffffffffffffffffffff1681526020019081526020016000208054905061114391906145c0565b81548110611154576111536148a8565b5b9060005260206000200154601360003373ffffffffffffffffffffffffffffffffffffffff1673ffffffffffffffffffffffffffffffffffffffff16815260200190815260200160002083815481106111b0576111af6148a8565b5b9060005260206000200181905550601360003373ffffffffffffffffffffffffffffffffffffffff1673ffffffffffffffffffffffffffffffffffffffff16815260200190815260200160002080548061120d5761120c614879565b5b600190038181906000526020600020016000905590555b5080806112309061471a565b915050611003565b5061124281612789565b50565b60606000601360003373ffffffffffffffffffffffffffffffffffffffff1673ffffffffffffffffffffffffffffffffffffffff1681526020019081526020016000208054806020026020016040519081016040528092919081815260200182805480156112d257602002820191906000526020600020905b8154815260200190600101908083116112be575b505050505090508091505090565b6112ea33826126ab565b6112f357600080fd5b6000600c60008381526020019081526020016000205490506113136133d2565b60005b600b6000848152602001908152602001600020548160ff1610156117ab57600061135c6113446103e861289a565b600a60008781526020019081526020016000206128fb565b9050600061138b6001600d60008581526020019081526020016000208054905061138691906145c0565b61289a565b90506000600d600084815260200190815260200160002082815481106113b4576113b36148a8565b5b9060005260206000200180546113c9906146b7565b80601f01602080910402602001604051908101604052809291908181526020018280546113f5906146b7565b80156114425780601f1061141757610100808354040283529160200191611442565b820191906000526020600020905b81548152906001019060200180831161142557829003601f168201915b50505050509050601060009054906101000a900473ffffffffffffffffffffffffffffffffffffffff1673ffffffffffffffffffffffffffffffffffffffff1663d0def52133836040518363ffffffff1660e01b81526004016114a69291906140b1565b600060405180830381600087803b1580156114c057600080fd5b505af11580156114d4573d6000803e3d6000fd5b5050505080858560ff16600a81106114ef576114ee6148a8565b5b60200201819052506000600d6000858152602001908152602001600020805480602002602001604051908101604052809291908181526020016000905b828210156115d857838290600052602060002001805461154b906146b7565b80601f0160208091040260200160405190810160405280929190818152602001828054611577906146b7565b80156115c45780601f10611599576101008083540402835291602001916115c4565b820191906000526020600020905b8154815290600101906020018083116115a757829003601f168201915b50505050508152602001906001019061152c565b50505050905060005b600d600086815260200190815260200160002080549050811015611793576000600d60008781526020019081526020016000208281548110611626576116256148a8565b5b90600052602060002001805461163b906146b7565b80601f0160208091040260200160405190810160405280929190818152602001828054611667906146b7565b80156116b45780601f10611689576101008083540402835291602001916116b4565b820191906000526020600020905b81548152906001019060200180831161169757829003601f168201915b505050505090506116c58185611ffd565b1561177f5782600184516116d991906145c0565b815181106116ea576116e96148a8565b5b6020026020010151838381518110611705576117046148a8565b5b602002602001018190525082600d600088815260200190815260200160002090805190602001906117379291906133fa565b50600d600087815260200190815260200160002080548061175b5761175a614879565b5b600190038181906000526020600020016000611777919061345a565b905550611793565b50808061178b9061471a565b9150506115e1565b505050505080806117a390614763565b915050611316565b506117b583610fed565b7f7a8f71ffa367c677061e81db64480595dffec51888e92c29fd97f628ad7be9bc816040516117e491906140e1565b60405180910390a1505050565b6117f961256a565b73ffffffffffffffffffffffffffffffffffffffff16611817611b26565b73ffffffffffffffffffffffffffffffffffffffff161461186d576040517f08c379a000000000000000000000000000000000000000000000000000000000815260040161186490614304565b60405180910390fd5b806014908051906020019061188392919061334c565b5050565b6000806002600084815260200190815260200160002060009054906101000a900473ffffffffffffffffffffffffffffffffffffffff169050600073ffffffffffffffffffffffffffffffffffffffff168173ffffffffffffffffffffffffffffffffffffffff161415611930576040517f08c379a000000000000000000000000000000000000000000000000000000000815260040161192790614284565b60405180910390fd5b80915050919050565b60008073ffffffffffffffffffffffffffffffffffffffff168273ffffffffffffffffffffffffffffffffffffffff1614156119aa576040517f08c379a00000000000000000000000000000000000000000000000000000000081526004016119a190614264565b60405180910390fd5b600360008373ffffffffffffffffffffffffffffffffffffffff1673ffffffffffffffffffffffffffffffffffffffff168152602001908152602001600020549050919050565b6119f961256a565b73ffffffffffffffffffffffffffffffffffffffff16611a17611b26565b73ffffffffffffffffffffffffffffffffffffffff1614611a6d576040517f08c379a0000000000000000000000000000000000000000000000000000000008152600401611a6490614304565b60405180910390fd5b611a77600061294d565b565b60006001600984604051611a8d9190613fd2565b908152602001604051809103902060009054906101000a900460ff1660ff161415611ab757600080fd5b6001600984604051611ac99190613fd2565b908152602001604051809103902060006101000a81548160ff021916908360ff160217905550611af96007612a13565b6000611b056007612a29565b9050611b118582612a37565b611b1b8184612c05565b809150509392505050565b6000600660009054906101000a900473ffffffffffffffffffffffffffffffffffffffff16905090565b606060018054611b5f906146b7565b80601f0160208091040260200160405190810160405280929190818152602001828054611b8b906146b7565b8015611bd85780601f10611bad57610100808354040283529160200191611bd8565b820191906000526020600020905b815481529060010190602001808311611bbb57829003601f168201915b5050505050905090565b6060611bec61256a565b73ffffffffffffffffffffffffffffffffffffffff16611c0a611b26565b73ffffffffffffffffffffffffffffffffffffffff1614611c60576040517f08c379a0000000000000000000000000000000000000000000000000000000008152600401611c5790614304565b60405180910390fd5b600d6000838152602001908152602001600020805480602002602001604051908101604052809291908181526020016000905b82821015611d3f578382906000526020600020018054611cb2906146b7565b80601f0160208091040260200160405190810160405280929190818152602001828054611cde906146b7565b8015611d2b5780601f10611d0057610100808354040283529160200191611d2b565b820191906000526020600020905b815481529060010190602001808311611d0e57829003601f168201915b505050505081526020019060010190611c93565b505050509050919050565b611d5261256a565b73ffffffffffffffffffffffffffffffffffffffff168273ffffffffffffffffffffffffffffffffffffffff161415611dc0576040517f08c379a0000000000000000000000000000000000000000000000000000000008152600401611db790614204565b60405180910390fd5b8060056000611dcd61256a565b73ffffffffffffffffffffffffffffffffffffffff1673ffffffffffffffffffffffffffffffffffffffff16815260200190815260200160002060008473ffffffffffffffffffffffffffffffffffffffff1673ffffffffffffffffffffffffffffffffffffffff16815260200190815260200160002060006101000a81548160ff0219169083151502179055508173ffffffffffffffffffffffffffffffffffffffff16611e7a61256a565b73ffffffffffffffffffffffffffffffffffffffff167f17307eab39ab6107e8899845ad3d59bd9653f200f220920489ca2b5937696c3183604051611ebf9190614147565b60405180910390a35050565b600f60009054906101000a900473ffffffffffffffffffffffffffffffffffffffff1681565b611ef961256a565b73ffffffffffffffffffffffffffffffffffffffff16611f17611b26565b73ffffffffffffffffffffffffffffffffffffffff1614611f6d576040517f08c379a0000000000000000000000000000000000000000000000000000000008152600401611f6490614304565b60405180910390fd5b80600a6000858152602001908152602001600020600084815260200190815260200160002081905550505050565b611fac611fa661256a565b836126ab565b611feb576040517f08c379a0000000000000000000000000000000000000000000000000000000008152600401611fe290614384565b60405180910390fd5b611ff784848484612c79565b50505050565b6000816040516020016120109190613fd2565b60405160208183030381529060405280519060200120836040516020016120379190613fd2565b6040516020818303038152906040528051906020012014905092915050565b6060612061826124fe565b6120a0576040517f08c379a000000000000000000000000000000000000000000000000000000000815260040161209790614344565b60405180910390fd5b60006011600084815260200190815260200160002080546120c0906146b7565b80601f01602080910402602001604051908101604052809291908181526020018280546120ec906146b7565b80156121395780601f1061210e57610100808354040283529160200191612139565b820191906000526020600020905b81548152906001019060200180831161211c57829003601f168201915b50505050509050600061214a612cd5565b90506000815114156121605781925050506121c4565b60008251111561219557808260405160200161217d929190613fe9565b604051602081830303815290604052925050506121c4565b8061219f85612d67565b6040516020016121b0929190613fe9565b604051602081830303815290604052925050505b919050565b6121d161256a565b73ffffffffffffffffffffffffffffffffffffffff166121ef611b26565b73ffffffffffffffffffffffffffffffffffffffff1614612245576040517f08c379a000000000000000000000000000000000000000000000000000000000815260040161223c90614304565b60405180910390fd5b61224f6007612a13565b600061225b6007612a29565b90506122678382612ec8565b601360008473ffffffffffffffffffffffffffffffffffffffff1673ffffffffffffffffffffffffffffffffffffffff16815260200190815260200160002081908060018154018082558091505060019003906000526020600020016000909190919091505560006012600083815260200190815260200160002060006101000a81548160ff0219169083151502179055506123038183612c05565b505050565b6000600560008473ffffffffffffffffffffffffffffffffffffffff1673ffffffffffffffffffffffffffffffffffffffff16815260200190815260200160002060008373ffffffffffffffffffffffffffffffffffffffff1673ffffffffffffffffffffffffffffffffffffffff16815260200190815260200160002060009054906101000a900460ff16905092915050565b6123a461256a565b73ffffffffffffffffffffffffffffffffffffffff166123c2611b26565b73ffffffffffffffffffffffffffffffffffffffff1614612418576040517f08c379a000000000000000000000000000000000000000000000000000000000815260040161240f90614304565b60405180910390fd5b600073ffffffffffffffffffffffffffffffffffffffff168173ffffffffffffffffffffffffffffffffffffffff161415612488576040517f08c379a000000000000000000000000000000000000000000000000000000000815260040161247f906141a4565b60405180910390fd5b6124918161294d565b50565b60007f01ffc9a7000000000000000000000000000000000000000000000000000000007bffffffffffffffffffffffffffffffffffffffffffffffffffffffff1916827bffffffffffffffffffffffffffffffffffffffffffffffffffffffff1916149050919050565b60008073ffffffffffffffffffffffffffffffffffffffff166002600084815260200190815260200160002060009054906101000a900473ffffffffffffffffffffffffffffffffffffffff1673ffffffffffffffffffffffffffffffffffffffff1614159050919050565b600033905090565b816004600083815260200190815260200160002060006101000a81548173ffffffffffffffffffffffffffffffffffffffff021916908373ffffffffffffffffffffffffffffffffffffffff160217905550808273ffffffffffffffffffffffffffffffffffffffff166125e583611887565b73ffffffffffffffffffffffffffffffffffffffff167f8c5be1e5ebec7d5bd14f71427d1e84f3dd0314c0f7b2291e5b200ac8c7c3b92560405160405180910390a45050565b61263c61263661256a565b826126ab565b61267b576040517f08c379a000000000000000000000000000000000000000000000000000000000815260040161267290614384565b60405180910390fd5b612686838383612ee6565b505050565b6126a683838360405180602001604052806000815250611f9b565b505050565b60006126b6826124fe565b6126f5576040517f08c379a00000000000000000000000000000000000000000000000000000000081526004016126ec90614224565b60405180910390fd5b600061270083611887565b90508073ffffffffffffffffffffffffffffffffffffffff168473ffffffffffffffffffffffffffffffffffffffff16148061276f57508373ffffffffffffffffffffffffffffffffffffffff16612757846107fa565b73ffffffffffffffffffffffffffffffffffffffff16145b80612780575061277f8185612308565b5b91505092915050565b600061279482611887565b90506127a281600084613142565b6127ad600083612572565b6001600360008373ffffffffffffffffffffffffffffffffffffffff1673ffffffffffffffffffffffffffffffffffffffff16815260200190815260200160002060008282546127fd91906145c0565b925050819055506002600083815260200190815260200160002060006101000a81549073ffffffffffffffffffffffffffffffffffffffff021916905581600073ffffffffffffffffffffffffffffffffffffffff168273ffffffffffffffffffffffffffffffffffffffff167fddf252ad1be2c89b69c2b068fc378daa952ba7f163c4a11628f55a4df523b3ef60405160405180910390a45050565b6000808242336015546040516020016128b59392919061400d565b6040516020818303038152906040528051906020012060001c6128d891906147bb565b9050601560008154809291906128ed9061471a565b919050555080915050919050565b600080600090505b600e548112156129425782600082815260200190815260200160002054841161292f5780915050612947565b808061293a9061471a565b915050612903565b809150505b92915050565b6000600660009054906101000a900473ffffffffffffffffffffffffffffffffffffffff16905081600660006101000a81548173ffffffffffffffffffffffffffffffffffffffff021916908373ffffffffffffffffffffffffffffffffffffffff1602179055508173ffffffffffffffffffffffffffffffffffffffff168173ffffffffffffffffffffffffffffffffffffffff167f8be0079c531659141344cd1fd0a4f28419497f9722a3daafe3b4186f6b6457e060405160405180910390a35050565b6001816000016000828254019250508190555050565b600081600001549050919050565b600073ffffffffffffffffffffffffffffffffffffffff168273ffffffffffffffffffffffffffffffffffffffff161415612aa7576040517f08c379a0000000000000000000000000000000000000000000000000000000008152600401612a9e906142a4565b60405180910390fd5b612ab0816124fe565b15612af0576040517f08c379a0000000000000000000000000000000000000000000000000000000008152600401612ae7906141c4565b60405180910390fd5b612afc60008383613142565b6001600360008473ffffffffffffffffffffffffffffffffffffffff1673ffffffffffffffffffffffffffffffffffffffff1681526020019081526020016000206000828254612b4c9190614539565b92505081905550816002600083815260200190815260200160002060006101000a81548173ffffffffffffffffffffffffffffffffffffffff021916908373ffffffffffffffffffffffffffffffffffffffff160217905550808273ffffffffffffffffffffffffffffffffffffffff16600073ffffffffffffffffffffffffffffffffffffffff167fddf252ad1be2c89b69c2b068fc378daa952ba7f163c4a11628f55a4df523b3ef60405160405180910390a45050565b612c0e826124fe565b612c4d576040517f08c379a0000000000000000000000000000000000000000000000000000000008152600401612c44906142e4565b60405180910390fd5b80601160008481526020019081526020016000209080519060200190612c7492919061334c565b505050565b612c84848484612ee6565b612c9084848484613147565b612ccf576040517f08c379a0000000000000000000000000000000000000000000000000000000008152600401612cc690614184565b60405180910390fd5b50505050565b606060148054612ce4906146b7565b80601f0160208091040260200160405190810160405280929190818152602001828054612d10906146b7565b8015612d5d5780601f10612d3257610100808354040283529160200191612d5d565b820191906000526020600020905b815481529060010190602001808311612d4057829003601f168201915b5050505050905090565b60606000821415612daf576040518060400160405280600181526020017f30000000000000000000000000000000000000000000000000000000000000008152509050612ec3565b600082905060005b60008214612de1578080612dca9061471a565b915050600a82612dda919061458f565b9150612db7565b60008167ffffffffffffffff811115612dfd57612dfc6148d7565b5b6040519080825280601f01601f191660200182016040528015612e2f5781602001600182028036833780820191505090505b5090505b60008514612ebc57600182612e4891906145c0565b9150600a85612e5791906147bb565b6030612e639190614539565b60f81b818381518110612e7957612e786148a8565b5b60200101907effffffffffffffffffffffffffffffffffffffffffffffffffffffffffffff1916908160001a905350600a85612eb5919061458f565b9450612e33565b8093505050505b919050565b612ee28282604051806020016040528060008152506132de565b5050565b8273ffffffffffffffffffffffffffffffffffffffff16612f0682611887565b73ffffffffffffffffffffffffffffffffffffffff1614612f5c576040517f08c379a0000000000000000000000000000000000000000000000000000000008152600401612f5390614324565b60405180910390fd5b600073ffffffffffffffffffffffffffffffffffffffff168273ffffffffffffffffffffffffffffffffffffffff161415612fcc576040517f08c379a0000000000000000000000000000000000000000000000000000000008152600401612fc3906141e4565b60405180910390fd5b612fd7838383613142565b612fe2600082612572565b6001600360008573ffffffffffffffffffffffffffffffffffffffff1673ffffffffffffffffffffffffffffffffffffffff168152602001908152602001600020600082825461303291906145c0565b925050819055506001600360008473ffffffffffffffffffffffffffffffffffffffff1673ffffffffffffffffffffffffffffffffffffffff16815260200190815260200160002060008282546130899190614539565b92505081905550816002600083815260200190815260200160002060006101000a81548173ffffffffffffffffffffffffffffffffffffffff021916908373ffffffffffffffffffffffffffffffffffffffff160217905550808273ffffffffffffffffffffffffffffffffffffffff168473ffffffffffffffffffffffffffffffffffffffff167fddf252ad1be2c89b69c2b068fc378daa952ba7f163c4a11628f55a4df523b3ef60405160405180910390a4505050565b505050565b60006131688473ffffffffffffffffffffffffffffffffffffffff16613339565b156132d1578373ffffffffffffffffffffffffffffffffffffffff1663150b7a0261319161256a565b8786866040518563ffffffff1660e01b81526004016131b39493929190614065565b602060405180830381600087803b1580156131cd57600080fd5b505af19250505080156131fe57506040513d601f19601f820116820180604052508101906131fb91906138fb565b60015b613281573d806000811461322e576040519150601f19603f3d011682016040523d82523d6000602084013e613233565b606091505b50600081511415613279576040517f08c379a000000000000000000000000000000000000000000000000000000000815260040161327090614184565b60405180910390fd5b805181602001fd5b63150b7a0260e01b7bffffffffffffffffffffffffffffffffffffffffffffffffffffffff1916817bffffffffffffffffffffffffffffffffffffffffffffffffffffffff1916149150506132d6565b600190505b949350505050565b6132e88383612a37565b6132f56000848484613147565b613334576040517f08c379a000000000000000000000000000000000000000000000000000000000815260040161332b90614184565b60405180910390fd5b505050565b600080823b905060008111915050919050565b828054613358906146b7565b90600052602060002090601f01602090048101928261337a57600085556133c1565b82601f1061339357805160ff19168380011785556133c1565b828001600101855582156133c1579182015b828111156133c05782518255916020019190600101906133a5565b5b5090506133ce919061349a565b5090565b604051806101400160405280600a905b60608152602001906001900390816133e25790505090565b828054828255906000526020600020908101928215613449579160200282015b8281111561344857825182908051906020019061343892919061334c565b509160200191906001019061341a565b5b50905061345691906134b7565b5090565b508054613466906146b7565b6000825580601f106134785750613497565b601f016020900490600052602060002090810190613496919061349a565b5b50565b5b808211156134b357600081600090555060010161349b565b5090565b5b808211156134d757600081816134ce919061345a565b506001016134b8565b5090565b60006134ee6134e9846143e4565b6143bf565b90508281526020810184848401111561350a5761350961490b565b5b613515848285614675565b509392505050565b600061353061352b84614415565b6143bf565b90508281526020810184848401111561354c5761354b61490b565b5b613557848285614675565b509392505050565b60008135905061356e81614ddf565b92915050565b60008135905061358381614df6565b92915050565b60008135905061359881614e0d565b92915050565b6000815190506135ad81614e0d565b92915050565b600082601f8301126135c8576135c7614906565b5b81356135d88482602086016134db565b91505092915050565b600082601f8301126135f6576135f5614906565b5b813561360684826020860161351d565b91505092915050565b60008135905061361e81614e24565b92915050565b60006020828403121561363a57613639614915565b5b60006136488482850161355f565b91505092915050565b6000806040838503121561366857613667614915565b5b60006136768582860161355f565b92505060206136878582860161355f565b9150509250929050565b6000806000606084860312156136aa576136a9614915565b5b60006136b88682870161355f565b93505060206136c98682870161355f565b92505060406136da8682870161360f565b9150509250925092565b600080600080608085870312156136fe576136fd614915565b5b600061370c8782880161355f565b945050602061371d8782880161355f565b935050604061372e8782880161360f565b925050606085013567ffffffffffffffff81111561374f5761374e614910565b5b61375b878288016135b3565b91505092959194509250565b6000806040838503121561377e5761377d614915565b5b600061378c8582860161355f565b925050602061379d85828601613574565b9150509250929050565b600080604083850312156137be576137bd614915565b5b60006137cc8582860161355f565b925050602083013567ffffffffffffffff8111156137ed576137ec614910565b5b6137f9858286016135e1565b9150509250929050565b60008060006060848603121561381c5761381b614915565b5b600061382a8682870161355f565b935050602084013567ffffffffffffffff81111561384b5761384a614910565b5b613857868287016135e1565b925050604084013567ffffffffffffffff81111561387857613877614910565b5b613884868287016135e1565b9150509250925092565b600080604083850312156138a5576138a4614915565b5b60006138b38582860161355f565b92505060206138c48582860161360f565b9150509250929050565b6000602082840312156138e4576138e3614915565b5b60006138f284828501613589565b91505092915050565b60006020828403121561391157613910614915565b5b600061391f8482850161359e565b91505092915050565b60006020828403121561393e5761393d614915565b5b600082013567ffffffffffffffff81111561395c5761395b614910565b5b613968848285016135e1565b91505092915050565b6000806040838503121561398857613987614915565b5b600083013567ffffffffffffffff8111156139a6576139a5614910565b5b6139b2858286016135e1565b925050602083013567ffffffffffffffff8111156139d3576139d2614910565b5b6139df858286016135e1565b9150509250929050565b60008060408385031215613a00576139ff614915565b5b600083013567ffffffffffffffff811115613a1e57613a1d614910565b5b613a2a858286016135e1565b9250506020613a3b8582860161360f565b9150509250929050565b600060208284031215613a5b57613a5a614915565b5b6000613a698482850161360f565b91505092915050565b600080600060608486031215613a8b57613a8a614915565b5b6000613a998682870161360f565b9350506020613aaa8682870161360f565b9250506040613abb8682870161360f565b9150509250925092565b6000613ad18383613ca7565b905092915050565b6000613ae58383613f9d565b60208301905092915050565b613afa816145f4565b82525050565b613b11613b0c826145f4565b61478d565b82525050565b6000613b2282614470565b613b2c81856144ce565b935083602082028501613b3e85614446565b8060005b85811015613b7a5784840389528151613b5b8582613ac5565b9450613b66836144a7565b925060208a01995050600181019050613b42565b50829750879550505050505092915050565b6000613b978261447b565b613ba181856144d9565b935083602082028501613bb385614450565b8060005b85811015613bef5784840389528151613bd08582613ac5565b9450613bdb836144b4565b925060208a01995050600181019050613bb7565b50829750879550505050505092915050565b6000613c0c82614486565b613c1681856144ea565b9350613c2183614460565b8060005b83811015613c52578151613c398882613ad9565b9750613c44836144c1565b925050600181019050613c25565b5085935050505092915050565b613c6881614606565b82525050565b6000613c7982614491565b613c8381856144fb565b9350613c93818560208601614684565b613c9c8161491a565b840191505092915050565b6000613cb28261449c565b613cbc818561450c565b9350613ccc818560208601614684565b613cd58161491a565b840191505092915050565b6000613ceb8261449c565b613cf5818561451d565b9350613d05818560208601614684565b613d0e8161491a565b840191505092915050565b6000613d248261449c565b613d2e818561452e565b9350613d3e818560208601614684565b80840191505092915050565b6000613d5760328361451d565b9150613d6282614938565b604082019050919050565b6000613d7a60268361451d565b9150613d8582614987565b604082019050919050565b6000613d9d601c8361451d565b9150613da8826149d6565b602082019050919050565b6000613dc060248361451d565b9150613dcb826149ff565b604082019050919050565b6000613de360198361451d565b9150613dee82614a4e565b602082019050919050565b6000613e06602c8361451d565b9150613e1182614a77565b604082019050919050565b6000613e2960388361451d565b9150613e3482614ac6565b604082019050919050565b6000613e4c602a8361451d565b9150613e5782614b15565b604082019050919050565b6000613e6f60298361451d565b9150613e7a82614b64565b604082019050919050565b6000613e9260208361451d565b9150613e9d82614bb3565b602082019050919050565b6000613eb5602c8361451d565b9150613ec082614bdc565b604082019050919050565b6000613ed8602c8361451d565b9150613ee382614c2b565b604082019050919050565b6000613efb60208361451d565b9150613f0682614c7a565b602082019050919050565b6000613f1e60298361451d565b9150613f2982614ca3565b604082019050919050565b6000613f41602f8361451d565b9150613f4c82614cf2565b604082019050919050565b6000613f6460218361451d565b9150613f6f82614d41565b604082019050919050565b6000613f8760318361451d565b9150613f9282614d90565b604082019050919050565b613fa68161465e565b82525050565b613fb58161465e565b82525050565b613fcc613fc78261465e565b6147b1565b82525050565b6000613fde8284613d19565b915081905092915050565b6000613ff58285613d19565b91506140018284613d19565b91508190509392505050565b60006140198286613fbb565b6020820191506140298285613b00565b6014820191506140398284613fbb565b602082019150819050949350505050565b600060208201905061405f6000830184613af1565b92915050565b600060808201905061407a6000830187613af1565b6140876020830186613af1565b6140946040830185613fac565b81810360608301526140a68184613c6e565b905095945050505050565b60006040820190506140c66000830185613af1565b81810360208301526140d88184613ce0565b90509392505050565b600060208201905081810360008301526140fb8184613b17565b905092915050565b6000602082019050818103600083015261411d8184613b8c565b905092915050565b6000602082019050818103600083015261413f8184613c01565b905092915050565b600060208201905061415c6000830184613c5f565b92915050565b6000602082019050818103600083015261417c8184613ce0565b905092915050565b6000602082019050818103600083015261419d81613d4a565b9050919050565b600060208201905081810360008301526141bd81613d6d565b9050919050565b600060208201905081810360008301526141dd81613d90565b9050919050565b600060208201905081810360008301526141fd81613db3565b9050919050565b6000602082019050818103600083015261421d81613dd6565b9050919050565b6000602082019050818103600083015261423d81613df9565b9050919050565b6000602082019050818103600083015261425d81613e1c565b9050919050565b6000602082019050818103600083015261427d81613e3f565b9050919050565b6000602082019050818103600083015261429d81613e62565b9050919050565b600060208201905081810360008301526142bd81613e85565b9050919050565b600060208201905081810360008301526142dd81613ea8565b9050919050565b600060208201905081810360008301526142fd81613ecb565b9050919050565b6000602082019050818103600083015261431d81613eee565b9050919050565b6000602082019050818103600083015261433d81613f11565b9050919050565b6000602082019050818103600083015261435d81613f34565b9050919050565b6000602082019050818103600083015261437d81613f57565b9050919050565b6000602082019050818103600083015261439d81613f7a565b9050919050565b60006020820190506143b96000830184613fac565b92915050565b60006143c96143da565b90506143d582826146e9565b919050565b6000604051905090565b600067ffffffffffffffff8211156143ff576143fe6148d7565b5b6144088261491a565b9050602081019050919050565b600067ffffffffffffffff8211156144305761442f6148d7565b5b6144398261491a565b9050602081019050919050565b6000819050919050565b6000819050602082019050919050565b6000819050602082019050919050565b6000600a9050919050565b600081519050919050565b600081519050919050565b600081519050919050565b600081519050919050565b6000602082019050919050565b6000602082019050919050565b6000602082019050919050565b600081905092915050565b600082825260208201905092915050565b600082825260208201905092915050565b600082825260208201905092915050565b600082825260208201905092915050565b600082825260208201905092915050565b600081905092915050565b60006145448261465e565b915061454f8361465e565b9250827fffffffffffffffffffffffffffffffffffffffffffffffffffffffffffffffff03821115614584576145836147ec565b5b828201905092915050565b600061459a8261465e565b91506145a58361465e565b9250826145b5576145b461481b565b5b828204905092915050565b60006145cb8261465e565b91506145d68361465e565b9250828210156145e9576145e86147ec565b5b828203905092915050565b60006145ff8261463e565b9050919050565b60008115159050919050565b60007fffffffff0000000000000000000000000000000000000000000000000000000082169050919050565b600073ffffffffffffffffffffffffffffffffffffffff82169050919050565b6000819050919050565b600060ff82169050919050565b82818337600083830152505050565b60005b838110156146a2578082015181840152602081019050614687565b838111156146b1576000848401525b50505050565b600060028204905060018216806146cf57607f821691505b602082108114156146e3576146e261484a565b5b50919050565b6146f28261491a565b810181811067ffffffffffffffff82111715614711576147106148d7565b5b80604052505050565b60006147258261465e565b91507fffffffffffffffffffffffffffffffffffffffffffffffffffffffffffffffff821415614758576147576147ec565b5b600182019050919050565b600061476e82614668565b915060ff821415614782576147816147ec565b5b600182019050919050565b60006147988261479f565b9050919050565b60006147aa8261492b565b9050919050565b6000819050919050565b60006147c68261465e565b91506147d18361465e565b9250826147e1576147e061481b565b5b828206905092915050565b7f4e487b7100000000000000000000000000000000000000000000000000000000600052601160045260246000fd5b7f4e487b7100000000000000000000000000000000000000000000000000000000600052601260045260246000fd5b7f4e487b7100000000000000000000000000000000000000000000000000000000600052602260045260246000fd5b7f4e487b7100000000000000000000000000000000000000000000000000000000600052603160045260246000fd5b7f4e487b7100000000000000000000000000000000000000000000000000000000600052603260045260246000fd5b7f4e487b7100000000000000000000000000000000000000000000000000000000600052604160045260246000fd5b600080fd5b600080fd5b600080fd5b600080fd5b6000601f19601f8301169050919050565b60008160601b9050919050565b7f4552433732313a207472616e7366657220746f206e6f6e20455243373231526560008201527f63656976657220696d706c656d656e7465720000000000000000000000000000602082015250565b7f4f776e61626c653a206e6577206f776e657220697320746865207a65726f206160008201527f6464726573730000000000000000000000000000000000000000000000000000602082015250565b7f4552433732313a20746f6b656e20616c7265616479206d696e74656400000000600082015250565b7f4552433732313a207472616e7366657220746f20746865207a65726f2061646460008201527f7265737300000000000000000000000000000000000000000000000000000000602082015250565b7f4552433732313a20617070726f766520746f2063616c6c657200000000000000600082015250565b7f4552433732313a206f70657261746f7220717565727920666f72206e6f6e657860008201527f697374656e7420746f6b656e0000000000000000000000000000000000000000602082015250565b7f4552433732313a20617070726f76652063616c6c6572206973206e6f74206f7760008201527f6e6572206e6f7220617070726f76656420666f7220616c6c0000000000000000602082015250565b7f4552433732313a2062616c616e636520717565727920666f7220746865207a6560008201527f726f206164647265737300000000000000000000000000000000000000000000602082015250565b7f4552433732313a206f776e657220717565727920666f72206e6f6e657869737460008201527f656e7420746f6b656e0000000000000000000000000000000000000000000000602082015250565b7f4552433732313a206d696e7420746f20746865207a65726f2061646472657373600082015250565b7f4552433732313a20617070726f76656420717565727920666f72206e6f6e657860008201527f697374656e7420746f6b656e0000000000000000000000000000000000000000602082015250565b7f4552433732314d657461646174613a2055524920736574206f66206e6f6e657860008201527f697374656e7420746f6b656e0000000000000000000000000000000000000000602082015250565b7f4f776e61626c653a2063616c6c6572206973206e6f7420746865206f776e6572600082015250565b7f4552433732313a207472616e73666572206f6620746f6b656e2074686174206960008201527f73206e6f74206f776e0000000000000000000000000000000000000000000000602082015250565b7f4552433732314d657461646174613a2055524920717565727920666f72206e6f60008201527f6e6578697374656e7420746f6b656e0000000000000000000000000000000000602082015250565b7f4552433732313a20617070726f76616c20746f2063757272656e74206f776e6560008201527f7200000000000000000000000000000000000000000000000000000000000000602082015250565b7f4552433732313a207472616e736665722063616c6c6572206973206e6f74206f60008201527f776e6572206e6f7220617070726f766564000000000000000000000000000000602082015250565b614de8816145f4565b8114614df357600080fd5b50565b614dff81614606565b8114614e0a57600080fd5b50565b614e1681614612565b8114614e2157600080fd5b50565b614e2d8161465e565b8114614e3857600080fd5b5056fea26469706673582212204bb1f52b43cd8502167443a7344c5e51454a71620691756ffc85bcab346e7e9e64736f6c63430008070033",
  "immutableReferences": {},
  "source": "pragma solidity ^0.8.0;\n\nimport \"@openzeppelin/contracts/token/ERC721/ERC721.sol\";\nimport \"@openzeppelin/contracts/utils/Counters.sol\";\nimport \"@openzeppelin/contracts/access/Ownable.sol\";\n\nimport \"./RandomNumber.sol\";\nimport \"./ViridianNFT.sol\";\n\ncontract ViridianPack is ERC721, Ownable {\n\n    using Counters for Counters.Counter;\n    Counters.Counter private _tokenIds;\n    Counters.Counter private _unmintedTokenIds;\n    mapping(string => uint8) hashes;\n    mapping(uint256 => mapping(uint256 => uint256)) private rarityOdds;\n    mapping(uint256 => uint256) private numNFTs;\n    //mapping(uint256 => string) private unmintedURIs;\n    mapping(uint256 => uint256) tokenRarity;\n    mapping(uint256 => string[]) private uriRarityPools;\n    int private maxRarityIndex;\n\n    address public viridianNFTAddr;\n\n    ViridianNFT vNFT;\n\n    using Strings for uint256;\n\n    constructor(address _viridianNFT) ERC721(\"Viridian Pack\", \"VP\") {\n\n        require(address(_viridianNFT) != address(0));\n\n        viridianNFTAddr = _viridianNFT;\n\n        vNFT = ViridianNFT(viridianNFTAddr);\n\n        //Set all beginning rarities\n\n        // Legendary rarity and cards in pack\n        rarityOdds[0][0] = 25;\n        rarityOdds[0][1] = 100;\n        rarityOdds[0][2] = 300;\n        rarityOdds[0][3] = 1000;\n        numNFTs[0] = 3;\n\n        // Mystical rarity and cards in pack\n        rarityOdds[1][0] = 1;\n        rarityOdds[1][1] = 50;\n        rarityOdds[1][2] = 200;\n        rarityOdds[1][3] = 1000;\n        numNFTs[0] = 3;\n\n        // Rare rarity and cards in pack\n        rarityOdds[1][0] = 0;\n        rarityOdds[1][1] = 50;\n        rarityOdds[1][2] = 100;\n        rarityOdds[1][3] = 1000;\n        numNFTs[0] = 3;\n\n        // Common rarity and cards in pack\n        rarityOdds[2][0] = 0;\n        rarityOdds[2][1] = 10;\n        rarityOdds[2][2] = 50;\n        rarityOdds[2][3] = 1000;\n        numNFTs[0] = 3;\n\n        maxRarityIndex = 3;\n    }\n\n    event Open(string[10] newUris);\n    \n    struct NFT {\n        uint256 id;\n        string uri;\n    }\n    \n    // Optional mapping for token URIs\n    mapping (uint256 => string) private _tokenURIs;\n\n    mapping (uint256 => bool) private _tokensListed;\n\n    mapping (address => uint256[]) private _ownedNFTs;\n\n    //address private viridianExchangeAddress;\n\n    // Base URI\n    string private _baseURIextended;\n    \n    function setBaseURI(string memory baseURI_) external onlyOwner() {\n        _baseURIextended = baseURI_;\n    }\n    \n    function _setTokenURI(uint256 tokenId, string memory _tokenURI) internal virtual {\n        require(_exists(tokenId), \"ERC721Metadata: URI set of nonexistent token\");\n        _tokenURIs[tokenId] = _tokenURI;\n    }\n    \n    function _baseURI() internal view virtual override returns (string memory) {\n        return _baseURIextended;\n    }\n    \n    function tokenURI(uint256 tokenId) public view virtual override returns (string memory) {\n        require(_exists(tokenId), \"ERC721Metadata: URI query for nonexistent token\");\n\n        string memory _tokenURI = _tokenURIs[tokenId];\n        string memory base = _baseURI();\n        \n        // If there is no base URI, return the token URI.\n        if (bytes(base).length == 0) {\n            return _tokenURI;\n        }\n        // If both are set, concatenate the baseURI and tokenURI (via abi.encodePacked).\n        if (bytes(_tokenURI).length > 0) {\n            return string(abi.encodePacked(base, _tokenURI));\n        }\n        // If there is a baseURI but no tokenURI, concatenate the tokenID to the baseURI.\n        return string(abi.encodePacked(base, tokenId.toString()));\n    }\n\n    function getUriRarityPools(uint256 _rarity) public view onlyOwner() returns (string[] memory) {\n        return uriRarityPools[_rarity];\n    }\n\n    function getOwnedNFTs() public view virtual returns (uint256[] memory) {\n        uint256[] memory _tokens = _ownedNFTs[msg.sender];\n        \n        return _tokens;\n    }\n\n    function setRarityOdds(uint256 _rarity, uint256 _rarityOdd, uint256 _newOdds) external onlyOwner() {\n        rarityOdds[_rarity][_rarityOdd] = _newOdds;\n    }\n\n    function mint(\n        address _to,\n        string memory tokenURI_\n    ) external onlyOwner() {\n        _tokenIds.increment();\n        uint256 _tokenId = _tokenIds.current();\n\n        _safeMint(_to, _tokenId);\n        _ownedNFTs[_to].push(_tokenId);\n        _tokensListed[_tokenId] = false;\n        _setTokenURI(_tokenId, tokenURI_);\n    }\n\n    //TODO: THIS IS NOT TO BE USED IN FINAL DEPLOYED IMPLEMENTATION, convert to LINK VRF for TESTNET and ESPECIALLY MAINNET!!!\n    uint nonce;\n\n\n    function random(uint range) internal returns (uint) {\n        uint randomnumber = uint(keccak256(abi.encodePacked(block.timestamp, msg.sender, nonce))) % range;\n        randomnumber = randomnumber;\n        nonce++;\n\n        return randomnumber;\n    }\n\n    function calculateWeightedOdds(uint256 randomNum, mapping(uint256 => uint256) storage rarityOdd) private view returns (uint) {\n        uint256 n;\n\n        for (n = 0; int(n) < int(maxRarityIndex); n++) {\n            if (randomNum <= rarityOdd[n]) {\n                return n;\n            }\n        }\n\n        return n;\n    }\n\n    function softMintNFT(string memory uri, uint256 rarity) public onlyOwner() payable {\n        uriRarityPools[rarity].push(uri);\n    }\n\n    function compareStrings(string memory _s, string memory _s1) public pure returns (bool) {\n        return (keccak256(abi.encodePacked((_s))) == keccak256(abi.encodePacked((_s1))));\n    }\n\n    function openPack(uint256 _tokenId) public payable {\n        // Randomly \n        require(_isApprovedOrOwner(msg.sender, _tokenId));\n\n        uint256 tr = tokenRarity[_tokenId];\n\n        string[10] memory newUris;\n\n        for (uint8 n = 0; n < numNFTs[tr]; n++) {\n            uint256 randIndexWithPercentOdds = calculateWeightedOdds(random(1000), rarityOdds[tr]);\n            uint256 randIndexInRarity = random(uriRarityPools[randIndexWithPercentOdds].length - 1);\n\n            string memory newURI = uriRarityPools[randIndexWithPercentOdds][randIndexInRarity];\n\n            vNFT.mint(msg.sender, newURI);\n\n            newUris[n] = newURI;\n\n            string[] memory curRarityPool = uriRarityPools[randIndexWithPercentOdds];\n            for (uint i = 0; i < uriRarityPools[randIndexWithPercentOdds].length; i++) {\n                string memory uri = uriRarityPools[randIndexWithPercentOdds][i];\n                if (compareStrings(uri, newURI)) {\n                    curRarityPool[i] = curRarityPool[curRarityPool.length - 1];\n                    uriRarityPools[randIndexWithPercentOdds] = curRarityPool;\n                    uriRarityPools[randIndexWithPercentOdds].pop();\n                    break;\n                }\n            }\n        }\n\n        burn(_tokenId);\n\n        emit Open(newUris);\n    }\n\n    function burn(uint256 tokenId) public {\n        require(_isApprovedOrOwner(msg.sender, tokenId));\n\n        for (uint256 i = 0; i < _ownedNFTs[msg.sender].length; i++) {\n            uint256 ownedNFT = _ownedNFTs[msg.sender][i];\n            if (ownedNFT == tokenId) {\n                _ownedNFTs[msg.sender][i] = _ownedNFTs[msg.sender][_ownedNFTs[msg.sender].length - 1];\n                _ownedNFTs[msg.sender].pop();\n            }\n        }\n\n        _burn(tokenId);\n    }\n\n    function awardItem(address recipient, string memory hash, string memory metadata) public returns (uint256) {\n        require(hashes[hash] != 1);\n        hashes[hash] = 1;\n        _tokenIds.increment();\n        uint256 newItemId = _tokenIds.current();\n        _mint(recipient, newItemId);\n        _setTokenURI(newItemId, metadata);\n        return newItemId;\n    }\n\n    function safeTransferFrom(address from, address to, uint256 tokenId) public override {\n        require(!_tokensListed[tokenId]);\n        for (uint256 i = 0; i < _ownedNFTs[msg.sender].length; i++) {\n            uint256 ownedNFT = _ownedNFTs[msg.sender][i];\n            if (ownedNFT == tokenId) {\n                _ownedNFTs[msg.sender][i] = _ownedNFTs[msg.sender][_ownedNFTs[msg.sender].length - 1];\n                _ownedNFTs[msg.sender].pop();\n            }\n        }\n        _ownedNFTs[to].push(tokenId);\n\n        super.safeTransferFrom(from, to, tokenId);\n    }\n\n    function transferFrom(address from, address to, uint256 tokenId) public override {\n        for (uint256 i = 0; i < _ownedNFTs[msg.sender].length; i++) {\n            uint256 ownedNFT = _ownedNFTs[msg.sender][i];\n            if (ownedNFT == tokenId) {\n                _ownedNFTs[msg.sender][i] = _ownedNFTs[msg.sender][_ownedNFTs[msg.sender].length - 1];\n                _ownedNFTs[msg.sender].pop();\n            }\n        }\n        _ownedNFTs[to].push(tokenId);\n\n        super.transferFrom(from, to, tokenId);\n    }\n}",
  "sourcePath": "/Users/blakehatch/Viridian-Exchange-Contracts/contracts/ViridianPack.sol",
  "compiler": {
    "name": "solc",
    "version": "0.8.7+commit.e28d00a7.Emscripten.clang"
  },
  "schemaVersion": "3.4.1",
  "updatedAt": "2021-09-03T18:44:48.801Z",
  "networkType": "ethereum",
  "devdoc": {
    "kind": "dev",
    "methods": {
      "approve(address,uint256)": {
        "details": "See {IERC721-approve}."
      },
      "balanceOf(address)": {
        "details": "See {IERC721-balanceOf}."
      },
      "getApproved(uint256)": {
        "details": "See {IERC721-getApproved}."
      },
      "isApprovedForAll(address,address)": {
        "details": "See {IERC721-isApprovedForAll}."
      },
      "name()": {
        "details": "See {IERC721Metadata-name}."
      },
      "owner()": {
        "details": "Returns the address of the current owner."
      },
      "ownerOf(uint256)": {
        "details": "See {IERC721-ownerOf}."
      },
      "renounceOwnership()": {
        "details": "Leaves the contract without owner. It will not be possible to call `onlyOwner` functions anymore. Can only be called by the current owner. NOTE: Renouncing ownership will leave the contract without an owner, thereby removing any functionality that is only available to the owner."
      },
      "safeTransferFrom(address,address,uint256)": {
        "details": "See {IERC721-safeTransferFrom}."
      },
      "safeTransferFrom(address,address,uint256,bytes)": {
        "details": "See {IERC721-safeTransferFrom}."
      },
      "setApprovalForAll(address,bool)": {
        "details": "See {IERC721-setApprovalForAll}."
      },
      "supportsInterface(bytes4)": {
        "details": "See {IERC165-supportsInterface}."
      },
      "symbol()": {
        "details": "See {IERC721Metadata-symbol}."
      },
      "tokenURI(uint256)": {
        "details": "See {IERC721Metadata-tokenURI}."
      },
      "transferFrom(address,address,uint256)": {
        "details": "See {IERC721-transferFrom}."
      },
      "transferOwnership(address)": {
        "details": "Transfers ownership of the contract to a new account (`newOwner`). Can only be called by the current owner."
      }
    },
    "version": 1
  },
  "userdoc": {
    "kind": "user",
    "methods": {},
    "version": 1
  }
}