{
  "contractName": "ViridianExchangeOffers",
  "abi": [
    {
      "inputs": [
        {
          "internalType": "address",
          "name": "_erc20Token",
          "type": "address"
        },
        {
          "internalType": "address",
          "name": "_viridianNFT",
          "type": "address"
        },
        {
          "internalType": "address",
          "name": "_viridianPack",
          "type": "address"
        }
      ],
      "stateMutability": "nonpayable",
      "type": "constructor"
    },
    {
      "anonymous": false,
      "inputs": [
        {
          "indexed": false,
          "internalType": "uint256",
          "name": "offerId",
          "type": "uint256"
        },
        {
          "indexed": false,
          "internalType": "address",
          "name": "wallet",
          "type": "address"
        },
        {
          "indexed": false,
          "internalType": "bool",
          "name": "accepted",
          "type": "bool"
        }
      ],
      "name": "AcceptedOffer",
      "type": "event"
    },
    {
      "anonymous": false,
      "inputs": [
        {
          "indexed": false,
          "internalType": "uint256",
          "name": "offerId",
          "type": "uint256"
        },
        {
          "indexed": false,
          "internalType": "address",
          "name": "wallet",
          "type": "address"
        },
        {
          "indexed": false,
          "internalType": "bool",
          "name": "cancelled",
          "type": "bool"
        }
      ],
      "name": "CancelledOffer",
      "type": "event"
    },
    {
      "anonymous": false,
      "inputs": [
        {
          "indexed": false,
          "internalType": "uint256",
          "name": "offerId",
          "type": "uint256"
        },
        {
          "indexed": false,
          "internalType": "address",
          "name": "wallet",
          "type": "address"
        },
        {
          "indexed": false,
          "internalType": "bool",
          "name": "created",
          "type": "bool"
        }
      ],
      "name": "CreatedOffer",
      "type": "event"
    },
    {
      "anonymous": false,
      "inputs": [
        {
          "indexed": true,
          "internalType": "address",
          "name": "previousOwner",
          "type": "address"
        },
        {
          "indexed": true,
          "internalType": "address",
          "name": "newOwner",
          "type": "address"
        }
      ],
      "name": "OwnershipTransferred",
      "type": "event"
    },
    {
      "inputs": [
        {
          "internalType": "address",
          "name": "",
          "type": "address"
        }
      ],
      "name": "approvedTokens",
      "outputs": [
        {
          "internalType": "bool",
          "name": "",
          "type": "bool"
        }
      ],
      "stateMutability": "view",
      "type": "function",
      "constant": true
    },
    {
      "inputs": [
        {
          "internalType": "address",
          "name": "forwarder",
          "type": "address"
        }
      ],
      "name": "isTrustedForwarder",
      "outputs": [
        {
          "internalType": "bool",
          "name": "",
          "type": "bool"
        }
      ],
      "stateMutability": "view",
      "type": "function",
      "constant": true
    },
    {
      "inputs": [],
      "name": "owner",
      "outputs": [
        {
          "internalType": "address",
          "name": "",
          "type": "address"
        }
      ],
      "stateMutability": "view",
      "type": "function",
      "constant": true
    },
    {
      "inputs": [],
      "name": "renounceOwnership",
      "outputs": [],
      "stateMutability": "nonpayable",
      "type": "function"
    },
    {
      "inputs": [
        {
          "internalType": "address",
          "name": "newOwner",
          "type": "address"
        }
      ],
      "name": "transferOwnership",
      "outputs": [],
      "stateMutability": "nonpayable",
      "type": "function"
    },
    {
      "inputs": [],
      "name": "trustedForwarder",
      "outputs": [
        {
          "internalType": "address",
          "name": "",
          "type": "address"
        }
      ],
      "stateMutability": "view",
      "type": "function",
      "constant": true
    },
    {
      "inputs": [],
      "name": "versionRecipient",
      "outputs": [
        {
          "internalType": "string",
          "name": "",
          "type": "string"
        }
      ],
      "stateMutability": "view",
      "type": "function",
      "constant": true
    },
    {
      "inputs": [],
      "name": "viridianNFT",
      "outputs": [
        {
          "internalType": "address",
          "name": "",
          "type": "address"
        }
      ],
      "stateMutability": "view",
      "type": "function",
      "constant": true
    },
    {
      "inputs": [],
      "name": "viridianPack",
      "outputs": [
        {
          "internalType": "address",
          "name": "",
          "type": "address"
        }
      ],
      "stateMutability": "view",
      "type": "function",
      "constant": true
    },
    {
      "inputs": [
        {
          "internalType": "address",
          "name": "_forwarder",
          "type": "address"
        }
      ],
      "name": "setTrustedForwarder",
      "outputs": [],
      "stateMutability": "nonpayable",
      "type": "function"
    },
    {
      "inputs": [
        {
          "internalType": "address",
          "name": "_erc20Address",
          "type": "address"
        }
      ],
      "name": "addERC20Token",
      "outputs": [],
      "stateMutability": "nonpayable",
      "type": "function"
    },
    {
      "inputs": [],
      "name": "getOffers",
      "outputs": [
        {
          "internalType": "uint256[]",
          "name": "",
          "type": "uint256[]"
        }
      ],
      "stateMutability": "view",
      "type": "function",
      "constant": true
    },
    {
      "inputs": [
        {
          "internalType": "uint256",
          "name": "_offerId",
          "type": "uint256"
        }
      ],
      "name": "getOffersFromId",
      "outputs": [
        {
          "components": [
            {
              "internalType": "uint256",
              "name": "offerId",
              "type": "uint256"
            },
            {
              "internalType": "uint256[]",
              "name": "toNftIds",
              "type": "uint256[]"
            },
            {
              "internalType": "uint256[]",
              "name": "toPackIds",
              "type": "uint256[]"
            },
            {
              "internalType": "uint256",
              "name": "toAmt",
              "type": "uint256"
            },
            {
              "internalType": "uint256[]",
              "name": "fromNftIds",
              "type": "uint256[]"
            },
            {
              "internalType": "uint256[]",
              "name": "fromPackIds",
              "type": "uint256[]"
            },
            {
              "internalType": "uint256",
              "name": "fromAmt",
              "type": "uint256"
            },
            {
              "internalType": "address",
              "name": "to",
              "type": "address"
            },
            {
              "internalType": "address",
              "name": "from",
              "type": "address"
            },
            {
              "internalType": "address",
              "name": "erc20Address",
              "type": "address"
            },
            {
              "internalType": "bool",
              "name": "pending",
              "type": "bool"
            },
            {
              "internalType": "bool",
              "name": "toAccepted",
              "type": "bool"
            },
            {
              "internalType": "bool",
              "name": "fromAccepted",
              "type": "bool"
            },
            {
              "internalType": "uint256",
              "name": "startTime",
              "type": "uint256"
            },
            {
              "internalType": "uint256",
              "name": "endTime",
              "type": "uint256"
            }
          ],
          "internalType": "struct ViridianExchangeOffers.Offer",
          "name": "",
          "type": "tuple"
        }
      ],
      "stateMutability": "view",
      "type": "function",
      "constant": true
    },
    {
      "inputs": [
        {
          "internalType": "address",
          "name": "_userAddr",
          "type": "address"
        }
      ],
      "name": "getOffersFromUser",
      "outputs": [
        {
          "components": [
            {
              "internalType": "uint256",
              "name": "offerId",
              "type": "uint256"
            },
            {
              "internalType": "uint256[]",
              "name": "toNftIds",
              "type": "uint256[]"
            },
            {
              "internalType": "uint256[]",
              "name": "toPackIds",
              "type": "uint256[]"
            },
            {
              "internalType": "uint256",
              "name": "toAmt",
              "type": "uint256"
            },
            {
              "internalType": "uint256[]",
              "name": "fromNftIds",
              "type": "uint256[]"
            },
            {
              "internalType": "uint256[]",
              "name": "fromPackIds",
              "type": "uint256[]"
            },
            {
              "internalType": "uint256",
              "name": "fromAmt",
              "type": "uint256"
            },
            {
              "internalType": "address",
              "name": "to",
              "type": "address"
            },
            {
              "internalType": "address",
              "name": "from",
              "type": "address"
            },
            {
              "internalType": "address",
              "name": "erc20Address",
              "type": "address"
            },
            {
              "internalType": "bool",
              "name": "pending",
              "type": "bool"
            },
            {
              "internalType": "bool",
              "name": "toAccepted",
              "type": "bool"
            },
            {
              "internalType": "bool",
              "name": "fromAccepted",
              "type": "bool"
            },
            {
              "internalType": "uint256",
              "name": "startTime",
              "type": "uint256"
            },
            {
              "internalType": "uint256",
              "name": "endTime",
              "type": "uint256"
            }
          ],
          "internalType": "struct ViridianExchangeOffers.Offer[]",
          "name": "",
          "type": "tuple[]"
        }
      ],
      "stateMutability": "view",
      "type": "function",
      "constant": true
    },
    {
      "inputs": [
        {
          "internalType": "uint256",
          "name": "_offerId",
          "type": "uint256"
        }
      ],
      "name": "hasOfferExpired",
      "outputs": [
        {
          "internalType": "bool",
          "name": "",
          "type": "bool"
        }
      ],
      "stateMutability": "view",
      "type": "function",
      "constant": true
    },
    {
      "inputs": [
        {
          "internalType": "address payable",
          "name": "_to",
          "type": "address"
        },
        {
          "internalType": "uint256[]",
          "name": "_nftIds",
          "type": "uint256[]"
        },
        {
          "internalType": "uint256[]",
          "name": "_packIds",
          "type": "uint256[]"
        },
        {
          "internalType": "uint256",
          "name": "_amount",
          "type": "uint256"
        },
        {
          "internalType": "uint256[]",
          "name": "_recNftIds",
          "type": "uint256[]"
        },
        {
          "internalType": "uint256[]",
          "name": "_recPackIds",
          "type": "uint256[]"
        },
        {
          "internalType": "uint256",
          "name": "_recAmount",
          "type": "uint256"
        },
        {
          "internalType": "address",
          "name": "_erc20Address",
          "type": "address"
        },
        {
          "internalType": "uint256",
          "name": "_daysValid",
          "type": "uint256"
        }
      ],
      "name": "makeOffer",
      "outputs": [],
      "stateMutability": "nonpayable",
      "type": "function"
    },
    {
      "inputs": [
        {
          "internalType": "uint256",
          "name": "_offerId",
          "type": "uint256"
        }
      ],
      "name": "cancelOffer",
      "outputs": [],
      "stateMutability": "nonpayable",
      "type": "function"
    },
    {
      "inputs": [
        {
          "internalType": "uint256",
          "name": "_offerId",
          "type": "uint256"
        }
      ],
      "name": "acceptOfferWithERC20",
      "outputs": [],
      "stateMutability": "nonpayable",
      "type": "function"
    }
  ],
  "bytecode": "0x60806040526040518060400160405280600581526020017f322e322e30000000000000000000000000000000000000000000000000000000815250600c90805190602001906200005192919062000438565b503480156200005f57600080fd5b50604051620057aa380380620057aa833981810160405281019062000085919062000552565b620000a562000099620002bb60201b60201c565b620002d760201b60201c565b600073ffffffffffffffffffffffffffffffffffffffff168373ffffffffffffffffffffffffffffffffffffffff161415620000e057600080fd5b600073ffffffffffffffffffffffffffffffffffffffff168273ffffffffffffffffffffffffffffffffffffffff1614156200011b57600080fd5b600073ffffffffffffffffffffffffffffffffffffffff168173ffffffffffffffffffffffffffffffffffffffff1614156200015657600080fd5b6001600b60008573ffffffffffffffffffffffffffffffffffffffff1673ffffffffffffffffffffffffffffffffffffffff16815260200190815260200160002060006101000a81548160ff02191690831515021790555081600960006101000a81548173ffffffffffffffffffffffffffffffffffffffff021916908373ffffffffffffffffffffffffffffffffffffffff16021790555080600a60006101000a81548173ffffffffffffffffffffffffffffffffffffffff021916908373ffffffffffffffffffffffffffffffffffffffff16021790555081600360006101000a81548173ffffffffffffffffffffffffffffffffffffffff021916908373ffffffffffffffffffffffffffffffffffffffff16021790555080600460006101000a81548173ffffffffffffffffffffffffffffffffffffffff021916908373ffffffffffffffffffffffffffffffffffffffff16021790555050505062000613565b6000620002d26200039d60201b620021be1760201c565b905090565b6000600160009054906101000a900473ffffffffffffffffffffffffffffffffffffffff16905081600160006101000a81548173ffffffffffffffffffffffffffffffffffffffff021916908373ffffffffffffffffffffffffffffffffffffffff1602179055508173ffffffffffffffffffffffffffffffffffffffff168173ffffffffffffffffffffffffffffffffffffffff167f8be0079c531659141344cd1fd0a4f28419497f9722a3daafe3b4186f6b6457e060405160405180910390a35050565b60006014600036905010158015620003c25750620003c133620003df60201b60201c565b5b15620003d857601436033560601c9050620003dc565b3390505b90565b60008060009054906101000a900473ffffffffffffffffffffffffffffffffffffffff1673ffffffffffffffffffffffffffffffffffffffff168273ffffffffffffffffffffffffffffffffffffffff16149050919050565b8280546200044690620005dd565b90600052602060002090601f0160209004810192826200046a5760008555620004b6565b82601f106200048557805160ff1916838001178555620004b6565b82800160010185558215620004b6579182015b82811115620004b557825182559160200191906001019062000498565b5b509050620004c59190620004c9565b5090565b5b80821115620004e4576000816000905550600101620004ca565b5090565b600080fd5b600073ffffffffffffffffffffffffffffffffffffffff82169050919050565b60006200051a82620004ed565b9050919050565b6200052c816200050d565b81146200053857600080fd5b50565b6000815190506200054c8162000521565b92915050565b6000806000606084860312156200056e576200056d620004e8565b5b60006200057e868287016200053b565b935050602062000591868287016200053b565b9250506040620005a4868287016200053b565b9150509250925092565b7f4e487b7100000000000000000000000000000000000000000000000000000000600052602260045260246000fd5b60006002820490506001821680620005f657607f821691505b602082108114156200060d576200060c620005ae565b5b50919050565b61518780620006236000396000f3fe608060405234801561001057600080fd5b50600436106101165760003560e01c80638da5cb5b116100a2578063da74222811610071578063da742228146102cf578063ef706adf146102eb578063f2fde38b14610307578063fe257afc14610323578063ff1080df1461034157610116565b80638da5cb5b14610247578063971ccc16146102655780639a70128814610281578063d382335a1461029f57610116565b8063572b6c05116100e9578063572b6c05146101a35780636d1ea3fa146101d3578063715018a6146102035780637da0a8771461020d5780638d9742071461022b57610116565b80633eaf56b01461011b5780633ee992ee1461014b57806342e1717c14610169578063486ff0cd14610185575b600080fd5b61013560048036038101906101309190613ee5565b610371565b6040516101429190614184565b60405180910390f35b610153610684565b6040516101609190614215565b60405180910390f35b610183600480360381019061017e91906143fa565b6106dc565b005b61018d610fab565b60405161019a91906145bc565b60405180910390f35b6101bd60048036038101906101b891906145de565b611039565b6040516101ca919061461a565b60405180910390f35b6101ed60048036038101906101e891906145de565b611092565b6040516101fa919061461a565b60405180910390f35b61020b6110b2565b005b61021561113a565b6040516102229190614644565b60405180910390f35b61024560048036038101906102409190613ee5565b611163565b005b61024f6115ce565b60405161025c9190614644565b60405180910390f35b61027f600480360381019061027a91906145de565b6115f8565b005b6102896116cf565b6040516102969190614644565b60405180910390f35b6102b960048036038101906102b491906145de565b6116f5565b6040516102c69190614879565b60405180910390f35b6102e960048036038101906102e491906145de565b611a79565b005b61030560048036038101906103009190613ee5565b611b01565b005b610321600480360381019061031c91906145de565b61201c565b005b61032b612114565b6040516103389190614644565b60405180910390f35b61035b60048036038101906103569190613ee5565b61213a565b604051610368919061461a565b60405180910390f35b61037961392e565b60066000838152602001908152602001600020604051806101e001604052908160008201548152602001600182018054806020026020016040519081016040528092919081815260200182805480156103f157602002820191906000526020600020905b8154815260200190600101908083116103dd575b505050505081526020016002820180548060200260200160405190810160405280929190818152602001828054801561044957602002820191906000526020600020905b815481526020019060010190808311610435575b5050505050815260200160038201548152602001600482018054806020026020016040519081016040528092919081815260200182805480156104ab57602002820191906000526020600020905b815481526020019060010190808311610497575b505050505081526020016005820180548060200260200160405190810160405280929190818152602001828054801561050357602002820191906000526020600020905b8154815260200190600101908083116104ef575b50505050508152602001600682015481526020016007820160009054906101000a900473ffffffffffffffffffffffffffffffffffffffff1673ffffffffffffffffffffffffffffffffffffffff1673ffffffffffffffffffffffffffffffffffffffff1681526020016008820160009054906101000a900473ffffffffffffffffffffffffffffffffffffffff1673ffffffffffffffffffffffffffffffffffffffff1673ffffffffffffffffffffffffffffffffffffffff1681526020016009820160009054906101000a900473ffffffffffffffffffffffffffffffffffffffff1673ffffffffffffffffffffffffffffffffffffffff1673ffffffffffffffffffffffffffffffffffffffff1681526020016009820160149054906101000a900460ff161515151581526020016009820160159054906101000a900460ff161515151581526020016009820160169054906101000a900460ff16151515158152602001600a8201548152602001600b820154815250509050919050565b606060078054806020026020016040519081016040528092919081815260200182805480156106d257602002820191906000526020600020905b8154815260200190600101908083116106be575b5050505050905090565b600b60008373ffffffffffffffffffffffffffffffffffffffff1673ffffffffffffffffffffffffffffffffffffffff16815260200190815260200160002060009054906101000a900460ff16610768576040517f08c379a000000000000000000000000000000000000000000000000000000000815260040161075f9061490d565b60405180910390fd5b3373ffffffffffffffffffffffffffffffffffffffff168973ffffffffffffffffffffffffffffffffffffffff1614156107a157600080fd5b6107ab60026121f5565b60006107b7600261220b565b9050600062015180836107ca919061495c565b426107d591906149b6565b90506000604051806101e001604052808481526020018c81526020018b81526020018a81526020018981526020018881526020018781526020018d73ffffffffffffffffffffffffffffffffffffffff1681526020013373ffffffffffffffffffffffffffffffffffffffff1681526020018673ffffffffffffffffffffffffffffffffffffffff168152602001600115158152602001600015158152602001600015158152602001428152602001838152509050600560008d73ffffffffffffffffffffffffffffffffffffffff1673ffffffffffffffffffffffffffffffffffffffff1681526020019081526020016000208190806001815401808255809150506001900390600052602060002090600c02016000909190919091506000820151816000015560208201518160010190805190602001906109199291906139ec565b5060408201518160020190805190602001906109369291906139ec565b5060608201518160030155608082015181600401908051906020019061095d9291906139ec565b5060a082015181600501908051906020019061097a9291906139ec565b5060c0820151816006015560e08201518160070160006101000a81548173ffffffffffffffffffffffffffffffffffffffff021916908373ffffffffffffffffffffffffffffffffffffffff1602179055506101008201518160080160006101000a81548173ffffffffffffffffffffffffffffffffffffffff021916908373ffffffffffffffffffffffffffffffffffffffff1602179055506101208201518160090160006101000a81548173ffffffffffffffffffffffffffffffffffffffff021916908373ffffffffffffffffffffffffffffffffffffffff1602179055506101408201518160090160146101000a81548160ff0219169083151502179055506101608201518160090160156101000a81548160ff0219169083151502179055506101808201518160090160166101000a81548160ff0219169083151502179055506101a082015181600a01556101c082015181600b01555050600560003373ffffffffffffffffffffffffffffffffffffffff1673ffffffffffffffffffffffffffffffffffffffff1681526020019081526020016000208190806001815401808255809150506001900390600052602060002090600c0201600090919091909150600082015181600001556020820151816001019080519060200190610b669291906139ec565b506040820151816002019080519060200190610b839291906139ec565b50606082015181600301556080820151816004019080519060200190610baa9291906139ec565b5060a0820151816005019080519060200190610bc79291906139ec565b5060c0820151816006015560e08201518160070160006101000a81548173ffffffffffffffffffffffffffffffffffffffff021916908373ffffffffffffffffffffffffffffffffffffffff1602179055506101008201518160080160006101000a81548173ffffffffffffffffffffffffffffffffffffffff021916908373ffffffffffffffffffffffffffffffffffffffff1602179055506101208201518160090160006101000a81548173ffffffffffffffffffffffffffffffffffffffff021916908373ffffffffffffffffffffffffffffffffffffffff1602179055506101408201518160090160146101000a81548160ff0219169083151502179055506101608201518160090160156101000a81548160ff0219169083151502179055506101808201518160090160166101000a81548160ff0219169083151502179055506101a082015181600a01556101c082015181600b015550508060066000858152602001908152602001600020600082015181600001556020820151816001019080519060200190610d5e9291906139ec565b506040820151816002019080519060200190610d7b9291906139ec565b50606082015181600301556080820151816004019080519060200190610da29291906139ec565b5060a0820151816005019080519060200190610dbf9291906139ec565b5060c0820151816006015560e08201518160070160006101000a81548173ffffffffffffffffffffffffffffffffffffffff021916908373ffffffffffffffffffffffffffffffffffffffff1602179055506101008201518160080160006101000a81548173ffffffffffffffffffffffffffffffffffffffff021916908373ffffffffffffffffffffffffffffffffffffffff1602179055506101208201518160090160006101000a81548173ffffffffffffffffffffffffffffffffffffffff021916908373ffffffffffffffffffffffffffffffffffffffff1602179055506101408201518160090160146101000a81548160ff0219169083151502179055506101608201518160090160156101000a81548160ff0219169083151502179055506101808201518160090160166101000a81548160ff0219169083151502179055506101a082015181600a01556101c082015181600b0155905050610f3860066000858152602001908152602001600020612219565b60078390806001815401808255809150506001900390600052602060002001600090919091909150557f0e1e6c2a26cf18d0005bc889ce86850afca20d6269a6a08aefa554b3a154b41c83336001604051610f9593929190614a1b565b60405180910390a1505050505050505050505050565b600c8054610fb890614a81565b80601f0160208091040260200160405190810160405280929190818152602001828054610fe490614a81565b80156110315780601f1061100657610100808354040283529160200191611031565b820191906000526020600020905b81548152906001019060200180831161101457829003601f168201915b505050505081565b60008060009054906101000a900473ffffffffffffffffffffffffffffffffffffffff1673ffffffffffffffffffffffffffffffffffffffff168273ffffffffffffffffffffffffffffffffffffffff16149050919050565b600b6020528060005260406000206000915054906101000a900460ff1681565b6110ba6127e8565b73ffffffffffffffffffffffffffffffffffffffff166110d86115ce565b73ffffffffffffffffffffffffffffffffffffffff161461112e576040517f08c379a000000000000000000000000000000000000000000000000000000000815260040161112590614aff565b60405180910390fd5b61113860006127f7565b565b60008060009054906101000a900473ffffffffffffffffffffffffffffffffffffffff16905090565b60006006600083815260200190815260200160002090503373ffffffffffffffffffffffffffffffffffffffff168160070160009054906101000a900473ffffffffffffffffffffffffffffffffffffffff1673ffffffffffffffffffffffffffffffffffffffff161461120c576040517f08c379a000000000000000000000000000000000000000000000000000000000815260040161120390614b91565b60405180910390fd5b6112158261213a565b15611255576040517f08c379a000000000000000000000000000000000000000000000000000000000815260040161124c90614bfd565b60405180910390fd5b6000600560008360070160009054906101000a900473ffffffffffffffffffffffffffffffffffffffff1673ffffffffffffffffffffffffffffffffffffffff1673ffffffffffffffffffffffffffffffffffffffff16815260200190815260200160002090506000600560008460080160009054906101000a900473ffffffffffffffffffffffffffffffffffffffff1673ffffffffffffffffffffffffffffffffffffffff1673ffffffffffffffffffffffffffffffffffffffff1681526020019081526020016000209050600061132f84846128bd565b9050600061133d85846128bd565b905061134885612219565b8460090160009054906101000a900473ffffffffffffffffffffffffffffffffffffffff1673ffffffffffffffffffffffffffffffffffffffff166323b872dd8660080160009054906101000a900473ffffffffffffffffffffffffffffffffffffffff168760070160009054906101000a900473ffffffffffffffffffffffffffffffffffffffff1688600301546040518463ffffffff1660e01b81526004016113f593929190614c1d565b6020604051808303816000875af1158015611414573d6000803e3d6000fd5b505050506040513d601f19601f820116820180604052508101906114389190614c80565b508460090160009054906101000a900473ffffffffffffffffffffffffffffffffffffffff1673ffffffffffffffffffffffffffffffffffffffff166323b872dd8660070160009054906101000a900473ffffffffffffffffffffffffffffffffffffffff168760080160009054906101000a900473ffffffffffffffffffffffffffffffffffffffff1688600601546040518463ffffffff1660e01b81526004016114e693929190614c1d565b6020604051808303816000875af1158015611505573d6000803e3d6000fd5b505050506040513d601f19601f820116820180604052508101906115299190614c80565b5061153385612c61565b60008560090160146101000a81548160ff02191690831515021790555060008260090160146101000a81548160ff02191690831515021790555060008160090160146101000a81548160ff0219169083151502179055507f6e60cb526aec55a6ba5a6dc3ca50f55a218d217233703ba4088b0bf46ca1f3a0863360016040516115be93929190614a1b565b60405180910390a1505050505050565b6000600160009054906101000a900473ffffffffffffffffffffffffffffffffffffffff16905090565b6116006127e8565b73ffffffffffffffffffffffffffffffffffffffff1661161e6115ce565b73ffffffffffffffffffffffffffffffffffffffff1614611674576040517f08c379a000000000000000000000000000000000000000000000000000000000815260040161166b90614aff565b60405180910390fd5b6001600b60008373ffffffffffffffffffffffffffffffffffffffff1673ffffffffffffffffffffffffffffffffffffffff16815260200190815260200160002060006101000a81548160ff02191690831515021790555050565b600960009054906101000a900473ffffffffffffffffffffffffffffffffffffffff1681565b6060600560008373ffffffffffffffffffffffffffffffffffffffff1673ffffffffffffffffffffffffffffffffffffffff168152602001908152602001600020805480602002602001604051908101604052809291908181526020016000905b82821015611a6e57838290600052602060002090600c0201604051806101e001604052908160008201548152602001600182018054806020026020016040519081016040528092919081815260200182805480156117d357602002820191906000526020600020905b8154815260200190600101908083116117bf575b505050505081526020016002820180548060200260200160405190810160405280929190818152602001828054801561182b57602002820191906000526020600020905b815481526020019060010190808311611817575b50505050508152602001600382015481526020016004820180548060200260200160405190810160405280929190818152602001828054801561188d57602002820191906000526020600020905b815481526020019060010190808311611879575b50505050508152602001600582018054806020026020016040519081016040528092919081815260200182805480156118e557602002820191906000526020600020905b8154815260200190600101908083116118d1575b50505050508152602001600682015481526020016007820160009054906101000a900473ffffffffffffffffffffffffffffffffffffffff1673ffffffffffffffffffffffffffffffffffffffff1673ffffffffffffffffffffffffffffffffffffffff1681526020016008820160009054906101000a900473ffffffffffffffffffffffffffffffffffffffff1673ffffffffffffffffffffffffffffffffffffffff1673ffffffffffffffffffffffffffffffffffffffff1681526020016009820160009054906101000a900473ffffffffffffffffffffffffffffffffffffffff1673ffffffffffffffffffffffffffffffffffffffff1673ffffffffffffffffffffffffffffffffffffffff1681526020016009820160149054906101000a900460ff161515151581526020016009820160159054906101000a900460ff161515151581526020016009820160169054906101000a900460ff16151515158152602001600a8201548152602001600b8201548152505081526020019060010190611756565b505050509050919050565b611a816127e8565b73ffffffffffffffffffffffffffffffffffffffff16611a9f6115ce565b73ffffffffffffffffffffffffffffffffffffffff1614611af5576040517f08c379a0000000000000000000000000000000000000000000000000000000008152600401611aec90614aff565b60405180910390fd5b611afe816130e0565b50565b60006006600083815260200190815260200160002090503373ffffffffffffffffffffffffffffffffffffffff168160080160009054906101000a900473ffffffffffffffffffffffffffffffffffffffff1673ffffffffffffffffffffffffffffffffffffffff161480611bc557503373ffffffffffffffffffffffffffffffffffffffff168160070160009054906101000a900473ffffffffffffffffffffffffffffffffffffffff1673ffffffffffffffffffffffffffffffffffffffff16145b611c04576040517f08c379a0000000000000000000000000000000000000000000000000000000008152600401611bfb90614d1f565b60405180910390fd5b611c0d8261213a565b15611c4d576040517f08c379a0000000000000000000000000000000000000000000000000000000008152600401611c4490614bfd565b60405180910390fd5b8060090160169054906101000a900460ff1615611c9f576040517f08c379a0000000000000000000000000000000000000000000000000000000008152600401611c9690614db1565b60405180910390fd5b8060090160159054906101000a900460ff1615611cf1576040517f08c379a0000000000000000000000000000000000000000000000000000000008152600401611ce890614e43565b60405180910390fd5b6000600560008360070160009054906101000a900473ffffffffffffffffffffffffffffffffffffffff1673ffffffffffffffffffffffffffffffffffffffff1673ffffffffffffffffffffffffffffffffffffffff16815260200190815260200160002090506000600560008460080160009054906101000a900473ffffffffffffffffffffffffffffffffffffffff1673ffffffffffffffffffffffffffffffffffffffff1673ffffffffffffffffffffffffffffffffffffffff1681526020019081526020016000209050611dc98383613123565b611dd38382613123565b60005b600780549050811015611ea657600060078281548110611df957611df8614e63565b5b906000526020600020015490508460000154811415611e925760076001600780549050611e269190614e92565b81548110611e3757611e36614e63565b5b906000526020600020015460078381548110611e5657611e55614e63565b5b90600052602060002001819055506007805480611e7657611e75614ec6565b5b6001900381819060005260206000200160009055905550611ea6565b508080611e9e90614ef5565b915050611dd6565b5060066000858152602001908152602001600020600080820160009055600182016000611ed39190613a39565b600282016000611ee39190613a39565b6003820160009055600482016000611efb9190613a39565b600582016000611f0b9190613a39565b60068201600090556007820160006101000a81549073ffffffffffffffffffffffffffffffffffffffff02191690556008820160006101000a81549073ffffffffffffffffffffffffffffffffffffffff02191690556009820160006101000a81549073ffffffffffffffffffffffffffffffffffffffff02191690556009820160146101000a81549060ff02191690556009820160156101000a81549060ff02191690556009820160166101000a81549060ff0219169055600a820160009055600b82016000905550507fa79cbd780b972df9dc5822d85a863fda61705b34f061ccf817936889652190ca836000015433600160405161200e93929190614a1b565b60405180910390a150505050565b6120246127e8565b73ffffffffffffffffffffffffffffffffffffffff166120426115ce565b73ffffffffffffffffffffffffffffffffffffffff1614612098576040517f08c379a000000000000000000000000000000000000000000000000000000000815260040161208f90614aff565b60405180910390fd5b600073ffffffffffffffffffffffffffffffffffffffff168173ffffffffffffffffffffffffffffffffffffffff161415612108576040517f08c379a00000000000000000000000000000000000000000000000000000000081526004016120ff90614fb0565b60405180910390fd5b612111816127f7565b50565b600a60009054906101000a900473ffffffffffffffffffffffffffffffffffffffff1681565b6000806006600084815260200190815260200160002090508060090160159054906101000a900460ff16801561217f57508060090160169054906101000a900460ff16155b1561218e5760009150506121b9565b8060090160149054906101000a900460ff166121ae5760019150506121b9565b4281600b0154109150505b919050565b600060146000369050101580156121da57506121d933611039565b5b156121ee57601436033560601c90506121f2565b3390505b90565b6001816000016000828254019250508190555050565b600081600001549050919050565b60005b816001018054905081101561238b578160080160009054906101000a900473ffffffffffffffffffffffffffffffffffffffff1673ffffffffffffffffffffffffffffffffffffffff16600960009054906101000a900473ffffffffffffffffffffffffffffffffffffffff1673ffffffffffffffffffffffffffffffffffffffff16636352211e8460010184815481106122ba576122b9614e63565b5b90600052602060002001546040518263ffffffff1660e01b81526004016122e19190614fd0565b602060405180830381865afa1580156122fe573d6000803e3d6000fd5b505050506040513d601f19601f820116820180604052508101906123229190615000565b73ffffffffffffffffffffffffffffffffffffffff1614612378576040517f08c379a000000000000000000000000000000000000000000000000000000000815260040161236f9061509f565b60405180910390fd5b808061238390614ef5565b91505061221c565b5060005b81600401805490508110156124fe578160070160009054906101000a900473ffffffffffffffffffffffffffffffffffffffff1673ffffffffffffffffffffffffffffffffffffffff16600960009054906101000a900473ffffffffffffffffffffffffffffffffffffffff1673ffffffffffffffffffffffffffffffffffffffff16636352211e84600401848154811061242d5761242c614e63565b5b90600052602060002001546040518263ffffffff1660e01b81526004016124549190614fd0565b602060405180830381865afa158015612471573d6000803e3d6000fd5b505050506040513d601f19601f820116820180604052508101906124959190615000565b73ffffffffffffffffffffffffffffffffffffffff16146124eb576040517f08c379a00000000000000000000000000000000000000000000000000000000081526004016124e290615131565b60405180910390fd5b80806124f690614ef5565b91505061238f565b5060005b8160020180549050811015612671578160080160009054906101000a900473ffffffffffffffffffffffffffffffffffffffff1673ffffffffffffffffffffffffffffffffffffffff16600a60009054906101000a900473ffffffffffffffffffffffffffffffffffffffff1673ffffffffffffffffffffffffffffffffffffffff16636352211e8460020184815481106125a05761259f614e63565b5b90600052602060002001546040518263ffffffff1660e01b81526004016125c79190614fd0565b602060405180830381865afa1580156125e4573d6000803e3d6000fd5b505050506040513d601f19601f820116820180604052508101906126089190615000565b73ffffffffffffffffffffffffffffffffffffffff161461265e576040517f08c379a00000000000000000000000000000000000000000000000000000000081526004016126559061509f565b60405180910390fd5b808061266990614ef5565b915050612502565b5060005b81600501805490508110156127e4578160070160009054906101000a900473ffffffffffffffffffffffffffffffffffffffff1673ffffffffffffffffffffffffffffffffffffffff16600a60009054906101000a900473ffffffffffffffffffffffffffffffffffffffff1673ffffffffffffffffffffffffffffffffffffffff16636352211e84600501848154811061271357612712614e63565b5b90600052602060002001546040518263ffffffff1660e01b815260040161273a9190614fd0565b602060405180830381865afa158015612757573d6000803e3d6000fd5b505050506040513d601f19601f8201168201806040525081019061277b9190615000565b73ffffffffffffffffffffffffffffffffffffffff16146127d1576040517f08c379a00000000000000000000000000000000000000000000000000000000081526004016127c890615131565b60405180910390fd5b80806127dc90614ef5565b915050612675565b5050565b60006127f26121be565b905090565b6000600160009054906101000a900473ffffffffffffffffffffffffffffffffffffffff16905081600160006101000a81548173ffffffffffffffffffffffffffffffffffffffff021916908373ffffffffffffffffffffffffffffffffffffffff1602179055508173ffffffffffffffffffffffffffffffffffffffff168173ffffffffffffffffffffffffffffffffffffffff167f8be0079c531659141344cd1fd0a4f28419497f9722a3daafe3b4186f6b6457e060405160405180910390a35050565b600080600090505b8280549050811015612c355760008382815481106128e6576128e5614e63565b5b90600052602060002090600c0201604051806101e0016040529081600082015481526020016001820180548060200260200160405190810160405280929190818152602001828054801561295957602002820191906000526020600020905b815481526020019060010190808311612945575b50505050508152602001600282018054806020026020016040519081016040528092919081815260200182805480156129b157602002820191906000526020600020905b81548152602001906001019080831161299d575b505050505081526020016003820154815260200160048201805480602002602001604051908101604052809291908181526020018280548015612a1357602002820191906000526020600020905b8154815260200190600101908083116129ff575b5050505050815260200160058201805480602002602001604051908101604052809291908181526020018280548015612a6b57602002820191906000526020600020905b815481526020019060010190808311612a57575b50505050508152602001600682015481526020016007820160009054906101000a900473ffffffffffffffffffffffffffffffffffffffff1673ffffffffffffffffffffffffffffffffffffffff1673ffffffffffffffffffffffffffffffffffffffff1681526020016008820160009054906101000a900473ffffffffffffffffffffffffffffffffffffffff1673ffffffffffffffffffffffffffffffffffffffff1673ffffffffffffffffffffffffffffffffffffffff1681526020016009820160009054906101000a900473ffffffffffffffffffffffffffffffffffffffff1673ffffffffffffffffffffffffffffffffffffffff1673ffffffffffffffffffffffffffffffffffffffff1681526020016009820160149054906101000a900460ff161515151581526020016009820160159054906101000a900460ff161515151581526020016009820160169054906101000a900460ff16151515158152602001600a8201548152602001600b820154815250509050846000015481600001511415612c2157838281548110612c0a57612c09614e63565b5b90600052602060002090600c020192505050612c5b565b508080612c2d90614ef5565b9150506128c5565b5081600081548110612c4a57612c49614e63565b5b90600052602060002090600c020190505b92915050565b60005b8160010180549050811015612d7f57600960009054906101000a900473ffffffffffffffffffffffffffffffffffffffff1673ffffffffffffffffffffffffffffffffffffffff166342842e0e8360080160009054906101000a900473ffffffffffffffffffffffffffffffffffffffff168460070160009054906101000a900473ffffffffffffffffffffffffffffffffffffffff16856001018581548110612d1157612d10614e63565b5b90600052602060002001546040518463ffffffff1660e01b8152600401612d3a93929190614c1d565b600060405180830381600087803b158015612d5457600080fd5b505af1158015612d68573d6000803e3d6000fd5b505050508080612d7790614ef5565b915050612c64565b5060005b8160040180549050811015612e9e57600960009054906101000a900473ffffffffffffffffffffffffffffffffffffffff1673ffffffffffffffffffffffffffffffffffffffff166342842e0e8360070160009054906101000a900473ffffffffffffffffffffffffffffffffffffffff168460080160009054906101000a900473ffffffffffffffffffffffffffffffffffffffff16856004018581548110612e3057612e2f614e63565b5b90600052602060002001546040518463ffffffff1660e01b8152600401612e5993929190614c1d565b600060405180830381600087803b158015612e7357600080fd5b505af1158015612e87573d6000803e3d6000fd5b505050508080612e9690614ef5565b915050612d83565b5060005b8160020180549050811015612fbd57600a60009054906101000a900473ffffffffffffffffffffffffffffffffffffffff1673ffffffffffffffffffffffffffffffffffffffff166342842e0e8360080160009054906101000a900473ffffffffffffffffffffffffffffffffffffffff168460070160009054906101000a900473ffffffffffffffffffffffffffffffffffffffff16856002018581548110612f4f57612f4e614e63565b5b90600052602060002001546040518463ffffffff1660e01b8152600401612f7893929190614c1d565b600060405180830381600087803b158015612f9257600080fd5b505af1158015612fa6573d6000803e3d6000fd5b505050508080612fb590614ef5565b915050612ea2565b5060005b81600501805490508110156130dc57600a60009054906101000a900473ffffffffffffffffffffffffffffffffffffffff1673ffffffffffffffffffffffffffffffffffffffff166342842e0e8360070160009054906101000a900473ffffffffffffffffffffffffffffffffffffffff168460080160009054906101000a900473ffffffffffffffffffffffffffffffffffffffff1685600501858154811061306e5761306d614e63565b5b90600052602060002001546040518463ffffffff1660e01b815260040161309793929190614c1d565b600060405180830381600087803b1580156130b157600080fd5b505af11580156130c5573d6000803e3d6000fd5b5050505080806130d490614ef5565b915050612fc1565b5050565b806000806101000a81548173ffffffffffffffffffffffffffffffffffffffff021916908373ffffffffffffffffffffffffffffffffffffffff16021790555050565b60005b818054905081101561392957600082828154811061314757613146614e63565b5b90600052602060002090600c0201604051806101e001604052908160008201548152602001600182018054806020026020016040519081016040528092919081815260200182805480156131ba57602002820191906000526020600020905b8154815260200190600101908083116131a6575b505050505081526020016002820180548060200260200160405190810160405280929190818152602001828054801561321257602002820191906000526020600020905b8154815260200190600101908083116131fe575b50505050508152602001600382015481526020016004820180548060200260200160405190810160405280929190818152602001828054801561327457602002820191906000526020600020905b815481526020019060010190808311613260575b50505050508152602001600582018054806020026020016040519081016040528092919081815260200182805480156132cc57602002820191906000526020600020905b8154815260200190600101908083116132b8575b50505050508152602001600682015481526020016007820160009054906101000a900473ffffffffffffffffffffffffffffffffffffffff1673ffffffffffffffffffffffffffffffffffffffff1673ffffffffffffffffffffffffffffffffffffffff1681526020016008820160009054906101000a900473ffffffffffffffffffffffffffffffffffffffff1673ffffffffffffffffffffffffffffffffffffffff1673ffffffffffffffffffffffffffffffffffffffff1681526020016009820160009054906101000a900473ffffffffffffffffffffffffffffffffffffffff1673ffffffffffffffffffffffffffffffffffffffff1673ffffffffffffffffffffffffffffffffffffffff1681526020016009820160149054906101000a900460ff161515151581526020016009820160159054906101000a900460ff161515151581526020016009820160169054906101000a900460ff16151515158152602001600a8201548152602001600b82015481525050905083600001548160000151141561391557826001848054905061346a9190614e92565b8154811061347b5761347a614e63565b5b90600052602060002090600c020183838154811061349c5761349b614e63565b5b90600052602060002090600c02016000820154816000015560018201816001019080546134ca929190613a5a565b5060028201816002019080546134e1929190613a5a565b50600382015481600301556004820181600401908054613502929190613a5a565b506005820181600501908054613519929190613a5a565b50600682015481600601556007820160009054906101000a900473ffffffffffffffffffffffffffffffffffffffff168160070160006101000a81548173ffffffffffffffffffffffffffffffffffffffff021916908373ffffffffffffffffffffffffffffffffffffffff1602179055506008820160009054906101000a900473ffffffffffffffffffffffffffffffffffffffff168160080160006101000a81548173ffffffffffffffffffffffffffffffffffffffff021916908373ffffffffffffffffffffffffffffffffffffffff1602179055506009820160009054906101000a900473ffffffffffffffffffffffffffffffffffffffff168160090160006101000a81548173ffffffffffffffffffffffffffffffffffffffff021916908373ffffffffffffffffffffffffffffffffffffffff1602179055506009820160149054906101000a900460ff168160090160146101000a81548160ff0219169083151502179055506009820160159054906101000a900460ff168160090160156101000a81548160ff0219169083151502179055506009820160169054906101000a900460ff168160090160166101000a81548160ff021916908315150217905550600a82015481600a0155600b82015481600b015590505082600560008660070160009054906101000a900473ffffffffffffffffffffffffffffffffffffffff1673ffffffffffffffffffffffffffffffffffffffff1673ffffffffffffffffffffffffffffffffffffffff168152602001908152602001600020908054613769929190613aac565b50600560008560070160009054906101000a900473ffffffffffffffffffffffffffffffffffffffff1673ffffffffffffffffffffffffffffffffffffffff1673ffffffffffffffffffffffffffffffffffffffff1681526020019081526020016000208054806137dd576137dc614ec6565b5b60019003818190600052602060002090600c020160008082016000905560018201600061380a9190613a39565b60028201600061381a9190613a39565b60038201600090556004820160006138329190613a39565b6005820160006138429190613a39565b60068201600090556007820160006101000a81549073ffffffffffffffffffffffffffffffffffffffff02191690556008820160006101000a81549073ffffffffffffffffffffffffffffffffffffffff02191690556009820160006101000a81549073ffffffffffffffffffffffffffffffffffffffff02191690556009820160146101000a81549060ff02191690556009820160156101000a81549060ff02191690556009820160166101000a81549060ff0219169055600a820160009055600b8201600090555050905550613929565b50808061392190614ef5565b915050613126565b505050565b604051806101e0016040528060008152602001606081526020016060815260200160008152602001606081526020016060815260200160008152602001600073ffffffffffffffffffffffffffffffffffffffff168152602001600073ffffffffffffffffffffffffffffffffffffffff168152602001600073ffffffffffffffffffffffffffffffffffffffff16815260200160001515815260200160001515815260200160001515815260200160008152602001600081525090565b828054828255906000526020600020908101928215613a28579160200282015b82811115613a27578251825591602001919060010190613a0c565b5b509050613a359190613d4e565b5090565b5080546000825590600052602060002090810190613a579190613d4e565b50565b828054828255906000526020600020908101928215613a9b5760005260206000209182015b82811115613a9a578254825591600101919060010190613a7f565b5b509050613aa89190613d4e565b5090565b82805482825590600052602060002090600c028101928215613d3d57600052602060002091600c0282015b82811115613d3c578282600082015481600001556001820181600101908054613b01929190613a5a565b506002820181600201908054613b18929190613a5a565b50600382015481600301556004820181600401908054613b39929190613a5a565b506005820181600501908054613b50929190613a5a565b50600682015481600601556007820160009054906101000a900473ffffffffffffffffffffffffffffffffffffffff168160070160006101000a81548173ffffffffffffffffffffffffffffffffffffffff021916908373ffffffffffffffffffffffffffffffffffffffff1602179055506008820160009054906101000a900473ffffffffffffffffffffffffffffffffffffffff168160080160006101000a81548173ffffffffffffffffffffffffffffffffffffffff021916908373ffffffffffffffffffffffffffffffffffffffff1602179055506009820160009054906101000a900473ffffffffffffffffffffffffffffffffffffffff168160090160006101000a81548173ffffffffffffffffffffffffffffffffffffffff021916908373ffffffffffffffffffffffffffffffffffffffff1602179055506009820160149054906101000a900460ff168160090160146101000a81548160ff0219169083151502179055506009820160159054906101000a900460ff168160090160156101000a81548160ff0219169083151502179055506009820160169054906101000a900460ff168160090160166101000a81548160ff021916908315150217905550600a82015481600a0155600b82015481600b0155505091600c019190600c0190613ad7565b5b509050613d4a9190613d6b565b5090565b5b80821115613d67576000816000905550600101613d4f565b5090565b5b80821115613e9757600080820160009055600182016000613d8d9190613a39565b600282016000613d9d9190613a39565b6003820160009055600482016000613db59190613a39565b600582016000613dc59190613a39565b60068201600090556007820160006101000a81549073ffffffffffffffffffffffffffffffffffffffff02191690556008820160006101000a81549073ffffffffffffffffffffffffffffffffffffffff02191690556009820160006101000a81549073ffffffffffffffffffffffffffffffffffffffff02191690556009820160146101000a81549060ff02191690556009820160156101000a81549060ff02191690556009820160166101000a81549060ff0219169055600a820160009055600b82016000905550600c01613d6c565b5090565b6000604051905090565b600080fd5b600080fd5b6000819050919050565b613ec281613eaf565b8114613ecd57600080fd5b50565b600081359050613edf81613eb9565b92915050565b600060208284031215613efb57613efa613ea5565b5b6000613f0984828501613ed0565b91505092915050565b613f1b81613eaf565b82525050565b600081519050919050565b600082825260208201905092915050565b6000819050602082019050919050565b6000613f598383613f12565b60208301905092915050565b6000602082019050919050565b6000613f7d82613f21565b613f878185613f2c565b9350613f9283613f3d565b8060005b83811015613fc3578151613faa8882613f4d565b9750613fb583613f65565b925050600181019050613f96565b5085935050505092915050565b600073ffffffffffffffffffffffffffffffffffffffff82169050919050565b6000613ffb82613fd0565b9050919050565b61400b81613ff0565b82525050565b60008115159050919050565b61402681614011565b82525050565b60006101e0830160008301516140456000860182613f12565b506020830151848203602086015261405d8282613f72565b915050604083015184820360408601526140778282613f72565b915050606083015161408c6060860182613f12565b50608083015184820360808601526140a48282613f72565b91505060a083015184820360a08601526140be8282613f72565b91505060c08301516140d360c0860182613f12565b5060e08301516140e660e0860182614002565b506101008301516140fb610100860182614002565b50610120830151614110610120860182614002565b5061014083015161412561014086018261401d565b5061016083015161413a61016086018261401d565b5061018083015161414f61018086018261401d565b506101a08301516141646101a0860182613f12565b506101c08301516141796101c0860182613f12565b508091505092915050565b6000602082019050818103600083015261419e818461402c565b905092915050565b600082825260208201905092915050565b60006141c282613f21565b6141cc81856141a6565b93506141d783613f3d565b8060005b838110156142085781516141ef8882613f4d565b97506141fa83613f65565b9250506001810190506141db565b5085935050505092915050565b6000602082019050818103600083015261422f81846141b7565b905092915050565b600061424282613fd0565b9050919050565b61425281614237565b811461425d57600080fd5b50565b60008135905061426f81614249565b92915050565b600080fd5b6000601f19601f8301169050919050565b7f4e487b7100000000000000000000000000000000000000000000000000000000600052604160045260246000fd5b6142c38261427a565b810181811067ffffffffffffffff821117156142e2576142e161428b565b5b80604052505050565b60006142f5613e9b565b905061430182826142ba565b919050565b600067ffffffffffffffff8211156143215761432061428b565b5b602082029050602081019050919050565b600080fd5b600061434a61434584614306565b6142eb565b9050808382526020820190506020840283018581111561436d5761436c614332565b5b835b8181101561439657806143828882613ed0565b84526020840193505060208101905061436f565b5050509392505050565b600082601f8301126143b5576143b4614275565b5b81356143c5848260208601614337565b91505092915050565b6143d781613ff0565b81146143e257600080fd5b50565b6000813590506143f4816143ce565b92915050565b60008060008060008060008060006101208a8c03121561441d5761441c613ea5565b5b600061442b8c828d01614260565b99505060208a013567ffffffffffffffff81111561444c5761444b613eaa565b5b6144588c828d016143a0565b98505060408a013567ffffffffffffffff81111561447957614478613eaa565b5b6144858c828d016143a0565b97505060606144968c828d01613ed0565b96505060808a013567ffffffffffffffff8111156144b7576144b6613eaa565b5b6144c38c828d016143a0565b95505060a08a013567ffffffffffffffff8111156144e4576144e3613eaa565b5b6144f08c828d016143a0565b94505060c06145018c828d01613ed0565b93505060e06145128c828d016143e5565b9250506101006145248c828d01613ed0565b9150509295985092959850929598565b600081519050919050565b600082825260208201905092915050565b60005b8381101561456e578082015181840152602081019050614553565b8381111561457d576000848401525b50505050565b600061458e82614534565b614598818561453f565b93506145a8818560208601614550565b6145b18161427a565b840191505092915050565b600060208201905081810360008301526145d68184614583565b905092915050565b6000602082840312156145f4576145f3613ea5565b5b6000614602848285016143e5565b91505092915050565b61461481614011565b82525050565b600060208201905061462f600083018461460b565b92915050565b61463e81613ff0565b82525050565b60006020820190506146596000830184614635565b92915050565b600081519050919050565b600082825260208201905092915050565b6000819050602082019050919050565b60006101e0830160008301516146a46000860182613f12565b50602083015184820360208601526146bc8282613f72565b915050604083015184820360408601526146d68282613f72565b91505060608301516146eb6060860182613f12565b50608083015184820360808601526147038282613f72565b91505060a083015184820360a086015261471d8282613f72565b91505060c083015161473260c0860182613f12565b5060e083015161474560e0860182614002565b5061010083015161475a610100860182614002565b5061012083015161476f610120860182614002565b5061014083015161478461014086018261401d565b5061016083015161479961016086018261401d565b506101808301516147ae61018086018261401d565b506101a08301516147c36101a0860182613f12565b506101c08301516147d86101c0860182613f12565b508091505092915050565b60006147ef838361468b565b905092915050565b6000602082019050919050565b600061480f8261465f565b614819818561466a565b93508360208202850161482b8561467b565b8060005b85811015614867578484038952815161484885826147e3565b9450614853836147f7565b925060208a0199505060018101905061482f565b50829750879550505050505092915050565b600060208201905081810360008301526148938184614804565b905092915050565b7f4d757374206265206c697374656420707269636520696e20617070726f76656460008201527f20746f6b656e0000000000000000000000000000000000000000000000000000602082015250565b60006148f760268361453f565b91506149028261489b565b604082019050919050565b60006020820190508181036000830152614926816148ea565b9050919050565b7f4e487b7100000000000000000000000000000000000000000000000000000000600052601160045260246000fd5b600061496782613eaf565b915061497283613eaf565b9250817fffffffffffffffffffffffffffffffffffffffffffffffffffffffffffffffff04831182151516156149ab576149aa61492d565b5b828202905092915050565b60006149c182613eaf565b91506149cc83613eaf565b9250827fffffffffffffffffffffffffffffffffffffffffffffffffffffffffffffffff03821115614a0157614a0061492d565b5b828201905092915050565b614a1581613eaf565b82525050565b6000606082019050614a306000830186614a0c565b614a3d6020830185614635565b614a4a604083018461460b565b949350505050565b7f4e487b7100000000000000000000000000000000000000000000000000000000600052602260045260246000fd5b60006002820490506001821680614a9957607f821691505b60208210811415614aad57614aac614a52565b5b50919050565b7f4f776e61626c653a2063616c6c6572206973206e6f7420746865206f776e6572600082015250565b6000614ae960208361453f565b9150614af482614ab3565b602082019050919050565b60006020820190508181036000830152614b1881614adc565b9050919050565b7f4f6e6c79206f666665726564206163636f756e742063616e206163636570742060008201527f6f66666572000000000000000000000000000000000000000000000000000000602082015250565b6000614b7b60258361453f565b9150614b8682614b1f565b604082019050919050565b60006020820190508181036000830152614baa81614b6e565b9050919050565b7f4f66666572206861732065787069726564000000000000000000000000000000600082015250565b6000614be760118361453f565b9150614bf282614bb1565b602082019050919050565b60006020820190508181036000830152614c1681614bda565b9050919050565b6000606082019050614c326000830186614635565b614c3f6020830185614635565b614c4c6040830184614a0c565b949350505050565b614c5d81614011565b8114614c6857600080fd5b50565b600081519050614c7a81614c54565b92915050565b600060208284031215614c9657614c95613ea5565b5b6000614ca484828501614c6b565b91505092915050565b7f43616e6e6f742062652063616e63656c6c6564206279206e6f6e20696e766f6c60008201527f7665642070617274696573000000000000000000000000000000000000000000602082015250565b6000614d09602b8361453f565b9150614d1482614cad565b604082019050919050565b60006020820190508181036000830152614d3881614cfc565b9050919050565b7f43616e6e6f7420726567756c61722063616e63656c207768656e2066726f6d2060008201527f7061727479206861732061636365707465640000000000000000000000000000602082015250565b6000614d9b60328361453f565b9150614da682614d3f565b604082019050919050565b60006020820190508181036000830152614dca81614d8e565b9050919050565b7f43616e6e6f7420726567756c61722063616e63656c207768656e20746f20706160008201527f7274792068617320616363657074656400000000000000000000000000000000602082015250565b6000614e2d60308361453f565b9150614e3882614dd1565b604082019050919050565b60006020820190508181036000830152614e5c81614e20565b9050919050565b7f4e487b7100000000000000000000000000000000000000000000000000000000600052603260045260246000fd5b6000614e9d82613eaf565b9150614ea883613eaf565b925082821015614ebb57614eba61492d565b5b828203905092915050565b7f4e487b7100000000000000000000000000000000000000000000000000000000600052603160045260246000fd5b6000614f0082613eaf565b91507fffffffffffffffffffffffffffffffffffffffffffffffffffffffffffffffff821415614f3357614f3261492d565b5b600182019050919050565b7f4f776e61626c653a206e6577206f776e657220697320746865207a65726f206160008201527f6464726573730000000000000000000000000000000000000000000000000000602082015250565b6000614f9a60268361453f565b9150614fa582614f3e565b604082019050919050565b60006020820190508181036000830152614fc981614f8d565b9050919050565b6000602082019050614fe56000830184614a0c565b92915050565b600081519050614ffa816143ce565b92915050565b60006020828403121561501657615015613ea5565b5b600061502484828501614feb565b91505092915050565b7f4f666665726564206163636f756e74206d757374206f776e20616c6c2072657160008201527f756573746564204e465473000000000000000000000000000000000000000000602082015250565b6000615089602b8361453f565b91506150948261502d565b604082019050919050565b600060208201905081810360008301526150b88161507c565b9050919050565b7f4f66666572696e67206163636f756e74206d757374206f776e20616c6c206f6660008201527f6665726564204e46547300000000000000000000000000000000000000000000602082015250565b600061511b602a8361453f565b9150615126826150bf565b604082019050919050565b6000602082019050818103600083015261514a8161510e565b905091905056fea264697066735822122069d1586b35716003f603de70517bf4167274935084a9ce6a98c744c93b91cf7064736f6c634300080b0033",
  "immutableReferences": {},
  "source": "pragma solidity ^0.8.0;\n\nimport \"@openzeppelin/contracts/access/Ownable.sol\";\nimport \"@openzeppelin/contracts/token/ERC721/ERC721.sol\";\nimport \"@openzeppelin/contracts/token/ERC20/IERC20.sol\";\nimport \"@openzeppelin/contracts/token/ERC20/ERC20.sol\";\nimport \"@openzeppelin/contracts/token/ERC721/IERC721.sol\";\nimport \"@openzeppelin/contracts/utils/Counters.sol\";\nimport \"@opengsn/contracts/src/BaseRelayRecipient.sol\";\n\nimport \"./ViridianNFT.sol\";\nimport \"./ViridianPack.sol\";\n\ncontract ViridianExchangeOffers is BaseRelayRecipient, Ownable {\n\n    //EVENTS\n    event CreatedOffer(uint256 offerId, address wallet, bool created);\n    event CancelledOffer(uint256 offerId, address wallet, bool cancelled);\n    event AcceptedOffer(uint256 offerId, address wallet, bool accepted);\n\n\n    using Counters for Counters.Counter;\n    Counters.Counter private _offerIds;\n\n    ViridianNFT vNFT;\n    ViridianPack vPack;\n\n    struct Offer {\n        uint256 offerId;\n        uint256[] toNftIds;\n        uint256[] toPackIds;\n        uint toAmt;\n        uint256[] fromNftIds;\n        uint256[] fromPackIds;\n        uint fromAmt;\n        address to;\n        address from;\n        address erc20Address;\n        bool pending;\n        bool toAccepted;\n        bool fromAccepted;\n        uint256 startTime;\n        uint256 endTime;\n    }\n\n    mapping (address => Offer[]) userOffers;\n    mapping (uint256 => Offer) offers;\n    uint256[] private offerIds;\n    mapping (uint256 => uint256) highestCardOffer;\n\n    address public viridianNFT;\n    address public viridianPack;\n    mapping (address => bool) public approvedTokens;\n\n    constructor(address _erc20Token, address _viridianNFT, address _viridianPack) {//, address _forwarder) {\n        require(address(_erc20Token) != address(0));\n        require(address(_viridianNFT) != address(0));\n        require(address(_viridianPack) != address(0));\n\n        //_setTrustedForwarder(_forwarder);\n\n        approvedTokens[_erc20Token] = true;\n        //address _ETH, ETH = _ETH;\n        viridianNFT = _viridianNFT;\n        viridianPack = _viridianPack;\n\n        vNFT = ViridianNFT(_viridianNFT);\n        vPack = ViridianPack(_viridianPack);\n    }\n\n    string public override versionRecipient = \"2.2.0\";\n\n    function setTrustedForwarder(address _forwarder) public onlyOwner() {\n        _setTrustedForwarder(_forwarder);\n    }\n\n    function _msgSender() internal view override(Context, BaseRelayRecipient) returns (address sender) {\n        sender = BaseRelayRecipient._msgSender();\n    }\n\n    function _msgData() internal view override(Context, BaseRelayRecipient) returns (bytes memory) {\n        return BaseRelayRecipient._msgData();\n    }\n\n    function addERC20Token(address _erc20Address) public onlyOwner() {\n        approvedTokens[_erc20Address] = true;\n    }\n\n    function getOffers() public view returns (uint256[] memory) {\n        return offerIds;\n    }\n\n    function getOffersFromId(uint256 _offerId) public view returns (Offer memory) {\n        return offers[_offerId];\n    }\n\n    function getOffersFromUser(address _userAddr) public view returns (Offer[] memory) {\n        return userOffers[_userAddr];\n    }\n\n    function hasOfferExpired(uint256 _offerId) public view returns (bool) {\n        Offer storage curOffer = offers[_offerId];\n\n        // Always return false if the current offer is pending final approval\n        if (curOffer.toAccepted && !curOffer.fromAccepted) {\n            return false;\n        }\n\n        if (!curOffer.pending) {\n            return true;\n        }\n        else {\n            return curOffer.endTime < block.timestamp;\n        }\n    }\n\n    function makeOffer(address payable _to, uint256[] memory _nftIds, uint256[] memory _packIds, uint256 _amount, uint256[] memory _recNftIds, uint256[] memory _recPackIds, uint256 _recAmount, address _erc20Address, uint256 _daysValid) public {\n        require(approvedTokens[_erc20Address], \"Must be listed price in approved token\");\n        require(_to != msg.sender);\n\n        // if(!IERC721(viridianNFT).isApprovedForAll(msg.sender, address(this))) {\n        //     IERC721(viridianNFT).setApprovalForAll(address(this), true);\n        // }\n\n        _offerIds.increment();\n        uint256 _offerId = _offerIds.current();\n\n        uint256 endTime = block.timestamp + (_daysValid * 1 days);\n\n        Offer memory newOffer = Offer(_offerId, _nftIds, _packIds, _amount, _recNftIds, _recPackIds, _recAmount, _to, payable(msg.sender), _erc20Address, true, false, false, block.timestamp, endTime);\n        \n        userOffers[_to].push(newOffer);\n        userOffers[msg.sender].push(newOffer);\n        offers[_offerId] = newOffer;\n\n        doOfferingPartiesOwnContents(offers[_offerId]);\n        offerIds.push(_offerId);\n\n        emit CreatedOffer(_offerId, msg.sender, true);\n    }\n\n    function removeOffer(Offer storage curOffer, Offer[] storage curUserOffers) private {\n        for (uint i = 0; i < curUserOffers.length; i++) {\n            Offer memory offer = curUserOffers[i];\n            if (offer.offerId == curOffer.offerId) {\n                curUserOffers[i] = curUserOffers[curUserOffers.length - 1];\n                userOffers[curOffer.to] = curUserOffers;\n                userOffers[curOffer.to].pop();\n                break;\n            }\n        } \n    }\n \n    function cancelOffer(uint256 _offerId) public {\n        Offer storage curOffer = offers[_offerId];\n        require(curOffer.from == msg.sender || curOffer.to == msg.sender, \"Cannot be cancelled by non involved parties\");\n        require(!hasOfferExpired(_offerId), \"Offer has expired\");\n        require(!curOffer.fromAccepted, \"Cannot regular cancel when from party has accepted\");\n        require(!curOffer.toAccepted, \"Cannot regular cancel when to party has accepted\");\n\n        Offer[] storage curUserOffers = userOffers[curOffer.to];\n        Offer[] storage otherUserOffers = userOffers[curOffer.from];\n        \n        //TODO: Check who is cancelling and cancel that person's offers.\n\n        // Remove offer from current user's offers\n        removeOffer(curOffer, curUserOffers);\n\n        // Remove offer from other user's offers\n        removeOffer(curOffer, otherUserOffers);\n\n        // Remove offer id from global list of offer ids\n        for (uint256 i = 0; i < offerIds.length; i++) {\n            uint256 offerId = offerIds[i];\n            if (offerId == curOffer.offerId) {\n                offerIds[i] = offerIds[offerIds.length - 1];\n                offerIds.pop();\n                break;\n            }\n        }\n\n        // Remove offer from global mapping of offers\n        delete offers[_offerId];\n\n        emit CancelledOffer(curOffer.offerId, msg.sender, true);\n    }\n\n    function doOfferingPartiesOwnContents(Offer storage _curOffer) private view {\n        for (uint i = 0; i < _curOffer.toNftIds.length; i++) {\n            require(IERC721(viridianNFT).ownerOf(_curOffer.toNftIds[i]) == _curOffer.from, \"Offered account must own all requested NFTs\");\n        }\n\n        for (uint i = 0; i < _curOffer.fromNftIds.length; i++) {\n            require(IERC721(viridianNFT).ownerOf(_curOffer.fromNftIds[i]) == _curOffer.to, \"Offering account must own all offered NFTs\");\n        }\n\n        for (uint i = 0; i < _curOffer.toPackIds.length; i++) {\n            require(IERC721(viridianPack).ownerOf(_curOffer.toPackIds[i]) == _curOffer.from, \"Offered account must own all requested NFTs\");\n        }\n\n        for (uint i = 0; i < _curOffer.fromPackIds.length; i++) {\n            require(IERC721(viridianPack).ownerOf(_curOffer.fromPackIds[i]) == _curOffer.to, \"Offering account must own all offered NFTs\");\n        }\n    }\n\n    function transferAllOfferContents(Offer storage _curOffer) private {\n        // Loop through all of the to items in the offer.\n        for (uint i = 0; i < _curOffer.toNftIds.length; i++) {\n            //IERC721(viridianNFT).approve(curOffer.to, curOffer.fromNftIds[i]);\n            IERC721(viridianNFT).safeTransferFrom(_curOffer.from, _curOffer.to, _curOffer.toNftIds[i]);\n        }\n\n        // Loop through all of the from items in the offer.\n        for (uint i = 0; i < _curOffer.fromNftIds.length; i++) {\n            //IERC721(viridianNFT).approve(curOffer.to, curOffer.fromNftIds[i]);\n            IERC721(viridianNFT).safeTransferFrom(_curOffer.to, _curOffer.from, _curOffer.fromNftIds[i]);\n        }\n\n        for (uint i = 0; i < _curOffer.toPackIds.length; i++) {\n            //IERC721(viridianNFT).approve(curOffer.to, curOffer.fromNftIds[i]);\n            IERC721(viridianPack).safeTransferFrom(_curOffer.from, _curOffer.to, _curOffer.toPackIds[i]);\n        }\n\n        // Loop through all of the from items in the offer.\n        for (uint i = 0; i < _curOffer.fromPackIds.length; i++) {\n            //IERC721(viridianNFT).approve(curOffer.to, curOffer.fromNftIds[i]);\n            IERC721(viridianPack).safeTransferFrom(_curOffer.to, _curOffer.from, _curOffer.fromPackIds[i]);\n        }\n    }\n\n    function getCurOffer(Offer storage curOffer, Offer[] storage curUserOffers) private view returns (Offer storage) {\n        for (uint i = 0; i < curUserOffers.length; i++) {\n            Offer memory offer = curUserOffers[i];\n            if (offer.offerId == curOffer.offerId) {\n                return curUserOffers[i]; //.pending = false;\n            }\n        }\n\n        return curUserOffers[0];\n    }\n    \n    function acceptOfferWithERC20(uint256 _offerId) public {\n        Offer storage curOffer = offers[_offerId];\n\n        require(curOffer.to == msg.sender, \"Only offered account can accept offer\");\n        require(!hasOfferExpired(_offerId), \"Offer has expired\");\n\n        Offer[] storage curUserOffers = userOffers[curOffer.to];\n        Offer[] storage otherUserOffers = userOffers[curOffer.from];\n\n        // for (uint i = 0; i < curUserOffers.length; i++) {\n        //     Offer memory offer = curUserOffers[i];\n        //     if (offer.offerId == curOffer.offerId) {\n        //         curUserOffers[i].pending = false;\n        //         break;\n        //     }\n        // }\n\n        Offer storage setOffer = getCurOffer(curOffer, curUserOffers);\n\n        // for (uint i = 0; i < otherUserOffers.length; i++) {\n        //     Offer memory offer = otherUserOffers[i];\n        //     if (offer.offerId == curOffer.offerId) {\n        //         otherUserOffers[i].pending = false;\n        //         break;\n        //     }\n        // }\n\n        Offer storage setOfferO = getCurOffer(curOffer, otherUserOffers);\n\n        doOfferingPartiesOwnContents(curOffer);\n\n        // if(!IERC721(viridianNFT).isApprovedForAll(msg.sender, address(this))) {\n        //     IERC721(viridianNFT).setApprovalForAll(address(this), true);\n        // }\n\n        IERC20(curOffer.erc20Address).transferFrom(curOffer.from, curOffer.to, curOffer.toAmt);\n        IERC20(curOffer.erc20Address).transferFrom(curOffer.to, curOffer.from, curOffer.fromAmt);\n\n        transferAllOfferContents(curOffer);\n\n        curOffer.pending = false;\n        setOffer.pending = false;\n        setOfferO.pending = false;\n        emit AcceptedOffer(_offerId, msg.sender, true);\n    }\n}",
  "sourcePath": "/Users/blakehatch/Viridian-Exchange-Contracts/contracts/ViridianExchangeOffers.sol",
  "compiler": {
    "name": "solc",
    "version": "0.8.11+commit.d7f03943.Emscripten.clang"
  },
  "schemaVersion": "3.4.1",
  "updatedAt": "2021-12-28T17:51:30.646Z",
  "networkType": "ethereum",
  "devdoc": {
    "kind": "dev",
    "methods": {
      "owner()": {
        "details": "Returns the address of the current owner."
      },
      "renounceOwnership()": {
        "details": "Leaves the contract without owner. It will not be possible to call `onlyOwner` functions anymore. Can only be called by the current owner. NOTE: Renouncing ownership will leave the contract without an owner, thereby removing any functionality that is only available to the owner."
      },
      "transferOwnership(address)": {
        "details": "Transfers ownership of the contract to a new account (`newOwner`). Can only be called by the current owner."
      }
    },
    "version": 1
  },
  "userdoc": {
    "kind": "user",
    "methods": {
      "isTrustedForwarder(address)": {
        "notice": "return if the forwarder is trusted to forward relayed transactions to us. the forwarder is required to verify the sender's signature, and verify the call is not a replay."
      }
    },
    "version": 1
  }
}