{
  "contractName": "ViridianExchange",
  "abi": [
    {
      "inputs": [
        {
          "internalType": "uint256",
          "name": "",
          "type": "uint256"
        }
      ],
      "name": "users",
      "outputs": [
        {
          "internalType": "address",
          "name": "wallet",
          "type": "address"
        },
        {
          "internalType": "string",
          "name": "displayName",
          "type": "string"
        },
        {
          "internalType": "string",
          "name": "coverPhotoURL",
          "type": "string"
        },
        {
          "internalType": "string",
          "name": "profilePhotoURL",
          "type": "string"
        },
        {
          "internalType": "string",
          "name": "bio",
          "type": "string"
        }
      ],
      "stateMutability": "view",
      "type": "function",
      "constant": true
    },
    {
      "inputs": [
        {
          "internalType": "uint256",
          "name": "_nftId",
          "type": "uint256"
        },
        {
          "internalType": "uint256",
          "name": "_price",
          "type": "uint256"
        },
        {
          "internalType": "uint256",
          "name": "_royalty",
          "type": "uint256"
        },
        {
          "internalType": "bool",
          "name": "_isAuction",
          "type": "bool"
        },
        {
          "internalType": "uint256",
          "name": "_endTime",
          "type": "uint256"
        }
      ],
      "name": "putUpForSale",
      "outputs": [],
      "stateMutability": "nonpayable",
      "type": "function"
    },
    {
      "inputs": [
        {
          "components": [
            {
              "internalType": "uint256",
              "name": "listingId",
              "type": "uint256"
            },
            {
              "internalType": "uint256",
              "name": "tokenId",
              "type": "uint256"
            },
            {
              "internalType": "address",
              "name": "owner",
              "type": "address"
            },
            {
              "internalType": "uint256",
              "name": "price",
              "type": "uint256"
            },
            {
              "internalType": "bool",
              "name": "purchased",
              "type": "bool"
            },
            {
              "internalType": "uint256",
              "name": "royalty",
              "type": "uint256"
            },
            {
              "internalType": "bool",
              "name": "isAuction",
              "type": "bool"
            },
            {
              "internalType": "uint256",
              "name": "endTime",
              "type": "uint256"
            }
          ],
          "internalType": "struct ViridianExchange.Listing",
          "name": "_listing",
          "type": "tuple"
        }
      ],
      "name": "pullFromSale",
      "outputs": [],
      "stateMutability": "nonpayable",
      "type": "function"
    },
    {
      "inputs": [],
      "name": "withdrawNFT",
      "outputs": [],
      "stateMutability": "nonpayable",
      "type": "function"
    }
  ],
  "bytecode": "0x608060405234801561001057600080fd5b5061120d806100206000396000f3fe608060405234801561001057600080fd5b506004361061004c5760003560e01c80632f7cdce314610051578063365b98b21461006d5780635e38c954146100a1578063ad2f00d4146100ab575b600080fd5b61006b60048036038101906100669190610d94565b6100c7565b005b61008760048036038101906100829190610d67565b610347565b604051610098959493929190610e66565b60405180910390f35b6100a96105cd565b005b6100c560048036038101906100c09190610d39565b6105cf565b005b3373ffffffffffffffffffffffffffffffffffffffff16600160009054906101000a900473ffffffffffffffffffffffffffffffffffffffff1673ffffffffffffffffffffffffffffffffffffffff16636352211e876040518263ffffffff1660e01b81526004016101399190610ed5565b60206040518083038186803b15801561015157600080fd5b505afa158015610165573d6000803e3d6000fd5b505050506040513d601f19601f820116820180604052508101906101899190610d0c565b73ffffffffffffffffffffffffffffffffffffffff16146101a957600080fd5b6101b360006109f1565b60006101bf6000610a07565b905060006040518061010001604052808381526020018881526020013373ffffffffffffffffffffffffffffffffffffffff1681526020018781526020016000151581526020018681526020018515158152602001848152509050600360003373ffffffffffffffffffffffffffffffffffffffff1673ffffffffffffffffffffffffffffffffffffffff168152602001908152602001600020819080600181540180825580915050600190039060005260206000209060080201600090919091909150600082015181600001556020820151816001015560408201518160020160006101000a81548173ffffffffffffffffffffffffffffffffffffffff021916908373ffffffffffffffffffffffffffffffffffffffff1602179055506060820151816003015560808201518160040160006101000a81548160ff02191690831515021790555060a0820151816005015560c08201518160060160006101000a81548160ff02191690831515021790555060e08201518160070155505050505050505050565b6004818154811061035757600080fd5b90600052602060002090600802016000915090508060000160009054906101000a900473ffffffffffffffffffffffffffffffffffffffff16908060010180546103a090610fe0565b80601f01602080910402602001604051908101604052809291908181526020018280546103cc90610fe0565b80156104195780601f106103ee57610100808354040283529160200191610419565b820191906000526020600020905b8154815290600101906020018083116103fc57829003601f168201915b50505050509080600201805461042e90610fe0565b80601f016020809104026020016040519081016040528092919081815260200182805461045a90610fe0565b80156104a75780601f1061047c576101008083540402835291602001916104a7565b820191906000526020600020905b81548152906001019060200180831161048a57829003601f168201915b5050505050908060030180546104bc90610fe0565b80601f01602080910402602001604051908101604052809291908181526020018280546104e890610fe0565b80156105355780601f1061050a57610100808354040283529160200191610535565b820191906000526020600020905b81548152906001019060200180831161051857829003601f168201915b50505050509080600401805461054a90610fe0565b80601f016020809104026020016040519081016040528092919081815260200182805461057690610fe0565b80156105c35780601f10610598576101008083540402835291602001916105c3565b820191906000526020600020905b8154815290600101906020018083116105a657829003601f168201915b5050505050905085565b565b3373ffffffffffffffffffffffffffffffffffffffff16816040015173ffffffffffffffffffffffffffffffffffffffff161461060b57600080fd5b6000600360003373ffffffffffffffffffffffffffffffffffffffff1673ffffffffffffffffffffffffffffffffffffffff168152602001908152602001600020905060005b81805490508110156109ec57600082828154811061067257610671611119565b5b90600052602060002090600802016040518061010001604052908160008201548152602001600182015481526020016002820160009054906101000a900473ffffffffffffffffffffffffffffffffffffffff1673ffffffffffffffffffffffffffffffffffffffff1673ffffffffffffffffffffffffffffffffffffffff168152602001600382015481526020016004820160009054906101000a900460ff16151515158152602001600582015481526020016006820160009054906101000a900460ff1615151515815260200160078201548152505090508360000151816000015114156109d857826001848054905061076e9190610f31565b8154811061077f5761077e611119565b5b90600052602060002090600802018383815481106107a05761079f611119565b5b906000526020600020906008020160008201548160000155600182015481600101556002820160009054906101000a900473ffffffffffffffffffffffffffffffffffffffff168160020160006101000a81548173ffffffffffffffffffffffffffffffffffffffff021916908373ffffffffffffffffffffffffffffffffffffffff160217905550600382015481600301556004820160009054906101000a900460ff168160040160006101000a81548160ff021916908315150217905550600582015481600501556006820160009054906101000a900460ff168160060160006101000a81548160ff0219169083151502179055506007820154816007015590505082600360003373ffffffffffffffffffffffffffffffffffffffff1673ffffffffffffffffffffffffffffffffffffffff1681526020019081526020016000209080546108f2929190610a15565b50600360003373ffffffffffffffffffffffffffffffffffffffff1673ffffffffffffffffffffffffffffffffffffffff168152602001908152602001600020805480610942576109416110ea565b5b600190038181906000526020600020906008020160008082016000905560018201600090556002820160006101000a81549073ffffffffffffffffffffffffffffffffffffffff021916905560038201600090556004820160006101000a81549060ff021916905560058201600090556006820160006101000a81549060ff0219169055600782016000905550509055506109ec565b5080806109e490611043565b915050610651565b505050565b6001816000016000828254019250508190555050565b600081600001549050919050565b828054828255906000526020600020906008028101928215610b4f5760005260206000209160080282015b82811115610b4e57828260008201548160000155600182015481600101556002820160009054906101000a900473ffffffffffffffffffffffffffffffffffffffff168160020160006101000a81548173ffffffffffffffffffffffffffffffffffffffff021916908373ffffffffffffffffffffffffffffffffffffffff160217905550600382015481600301556004820160009054906101000a900460ff168160040160006101000a81548160ff021916908315150217905550600582015481600501556006820160009054906101000a900460ff168160060160006101000a81548160ff02191690831515021790555060078201548160070155505091600801919060080190610a40565b5b509050610b5c9190610b60565b5090565b5b80821115610bea5760008082016000905560018201600090556002820160006101000a81549073ffffffffffffffffffffffffffffffffffffffff021916905560038201600090556004820160006101000a81549060ff021916905560058201600090556006820160006101000a81549060ff0219169055600782016000905550600801610b61565b5090565b600081359050610bfd81611192565b92915050565b600081519050610c1281611192565b92915050565b600081359050610c27816111a9565b92915050565b60006101008284031215610c4457610c43611177565b5b610c4f610100610ef0565b90506000610c5f84828501610cf7565b6000830152506020610c7384828501610cf7565b6020830152506040610c8784828501610bee565b6040830152506060610c9b84828501610cf7565b6060830152506080610caf84828501610c18565b60808301525060a0610cc384828501610cf7565b60a08301525060c0610cd784828501610c18565b60c08301525060e0610ceb84828501610cf7565b60e08301525092915050565b600081359050610d06816111c0565b92915050565b600060208284031215610d2257610d2161117c565b5b6000610d3084828501610c03565b91505092915050565b60006101008284031215610d5057610d4f61117c565b5b6000610d5e84828501610c2d565b91505092915050565b600060208284031215610d7d57610d7c61117c565b5b6000610d8b84828501610cf7565b91505092915050565b600080600080600060a08688031215610db057610daf61117c565b5b6000610dbe88828901610cf7565b9550506020610dcf88828901610cf7565b9450506040610de088828901610cf7565b9350506060610df188828901610c18565b9250506080610e0288828901610cf7565b9150509295509295909350565b610e1881610f65565b82525050565b6000610e2982610f15565b610e338185610f20565b9350610e43818560208601610fad565b610e4c81611181565b840191505092915050565b610e6081610fa3565b82525050565b600060a082019050610e7b6000830188610e0f565b8181036020830152610e8d8187610e1e565b90508181036040830152610ea18186610e1e565b90508181036060830152610eb58185610e1e565b90508181036080830152610ec98184610e1e565b90509695505050505050565b6000602082019050610eea6000830184610e57565b92915050565b6000610efa610f0b565b9050610f068282611012565b919050565b6000604051905090565b600081519050919050565b600082825260208201905092915050565b6000610f3c82610fa3565b9150610f4783610fa3565b925082821015610f5a57610f5961108c565b5b828203905092915050565b6000610f7082610f83565b9050919050565b60008115159050919050565b600073ffffffffffffffffffffffffffffffffffffffff82169050919050565b6000819050919050565b60005b83811015610fcb578082015181840152602081019050610fb0565b83811115610fda576000848401525b50505050565b60006002820490506001821680610ff857607f821691505b6020821081141561100c5761100b6110bb565b5b50919050565b61101b82611181565b810181811067ffffffffffffffff8211171561103a57611039611148565b5b80604052505050565b600061104e82610fa3565b91507fffffffffffffffffffffffffffffffffffffffffffffffffffffffffffffffff8214156110815761108061108c565b5b600182019050919050565b7f4e487b7100000000000000000000000000000000000000000000000000000000600052601160045260246000fd5b7f4e487b7100000000000000000000000000000000000000000000000000000000600052602260045260246000fd5b7f4e487b7100000000000000000000000000000000000000000000000000000000600052603160045260246000fd5b7f4e487b7100000000000000000000000000000000000000000000000000000000600052603260045260246000fd5b7f4e487b7100000000000000000000000000000000000000000000000000000000600052604160045260246000fd5b600080fd5b600080fd5b6000601f19601f8301169050919050565b61119b81610f65565b81146111a657600080fd5b50565b6111b281610f77565b81146111bd57600080fd5b50565b6111c981610fa3565b81146111d457600080fd5b5056fea26469706673582212208b2b494b9394f57b422a647a39f2b80c6212e8edd7900f83b8832cd1183706c764736f6c63430008060033",
  "immutableReferences": {},
  "source": "pragma solidity ^0.8.0;\n\nimport \"@openzeppelin/contracts/access/Ownable.sol\";\nimport \"@openzeppelin/contracts/token/ERC721/ERC721.sol\";\nimport \"@openzeppelin/contracts/token/ERC20/IERC20.sol\";\nimport \"./ViridianNFT.sol\";\n\ncontract ViridianExchange {\n\n    struct User {\n        address wallet;\n        string displayName;\n        string coverPhotoURL;\n        string profilePhotoURL;\n        string bio;\n        User[] following;\n        User[] followers;\n        uint256[] likes;\n    }\n\n    struct Trade {\n        uint256[] nftIds;\n        uint vextAmt;\n        address _to;\n        address _from;\n        bool pending;\n    }\n\n    using Counters for Counters.Counter;\n    Counters.Counter private _listingIds;\n\n    ViridianNFT vNFTContract;\n    \n    struct Listing {\n        uint256 listingId;\n        uint256 tokenId;\n        address owner;\n        uint256 price;\n        bool purchased;\n        uint256 royalty;\n        bool isAuction;\n        uint256 endTime;\n    }\n\n    struct Collection {\n        string description;\n        uint256[] collectionNFTs;\n    }\n\n    //string[] public nftIds;\n    mapping (address => Collection) displayCases;\n    mapping (address => Listing[]) userListings;\n    User[] public users;\n\n    function putUpForSale(uint256 _nftId, uint256 _price, uint256 _royalty, bool _isAuction, uint256 _endTime) public {\n        require(vNFTContract.ownerOf(_nftId) == msg.sender);\n        _listingIds.increment();\n        uint256 _listingId = _listingIds.current();\n        Listing memory saleListing = Listing(_listingId, _nftId, msg.sender, _price, false, _royalty, _isAuction, _endTime);\n        userListings[msg.sender].push(saleListing);\n    }\n\n    function pullFromSale(Listing memory _listing) public {\n        require(_listing.owner == msg.sender);\n        Listing[] storage curUserListings = userListings[msg.sender];\n        for (uint i = 0; i < curUserListings.length; i++) {\n            Listing memory listing = curUserListings[i];\n            if (listing.listingId == _listing.listingId) {\n                curUserListings[i] = curUserListings[curUserListings.length - 1];\n                userListings[msg.sender] = curUserListings;\n                userListings[msg.sender].pop();\n                break;\n            }\n        }\n    }\n\n    function withdrawNFT() public {\n        //Burn NFT\n        //Send message to prompt front-end email sending\n    }\n}",
  "sourcePath": "/Users/blakehatch/Viridian-Exchange-Contracts/contracts/ViridianExchange.sol",
  "compiler": {
    "name": "solc",
    "version": "0.8.6+commit.11564f7e.Emscripten.clang"
  },
  "schemaVersion": "3.4.1",
  "updatedAt": "2021-07-14T16:31:41.896Z",
  "networkType": "ethereum",
  "devdoc": {
    "kind": "dev",
    "methods": {},
    "version": 1
  },
  "userdoc": {
    "kind": "user",
    "methods": {},
    "version": 1
  }
}