{
  "contractName": "ViridianExchangeOffers",
  "abi": [
    {
      "inputs": [
        {
          "internalType": "address",
          "name": "_viridianToken",
          "type": "address"
        },
        {
          "internalType": "address",
          "name": "_viridianNFT",
          "type": "address"
        },
        {
          "internalType": "address",
          "name": "_viridianPack",
          "type": "address"
        }
      ],
      "stateMutability": "nonpayable",
      "type": "constructor"
    },
    {
      "anonymous": false,
      "inputs": [
        {
          "indexed": true,
          "internalType": "address",
          "name": "previousOwner",
          "type": "address"
        },
        {
          "indexed": true,
          "internalType": "address",
          "name": "newOwner",
          "type": "address"
        }
      ],
      "name": "OwnershipTransferred",
      "type": "event"
    },
    {
      "inputs": [],
      "name": "ETH",
      "outputs": [
        {
          "internalType": "address",
          "name": "",
          "type": "address"
        }
      ],
      "stateMutability": "view",
      "type": "function",
      "constant": true
    },
    {
      "inputs": [],
      "name": "owner",
      "outputs": [
        {
          "internalType": "address",
          "name": "",
          "type": "address"
        }
      ],
      "stateMutability": "view",
      "type": "function",
      "constant": true
    },
    {
      "inputs": [],
      "name": "renounceOwnership",
      "outputs": [],
      "stateMutability": "nonpayable",
      "type": "function"
    },
    {
      "inputs": [
        {
          "internalType": "address",
          "name": "newOwner",
          "type": "address"
        }
      ],
      "name": "transferOwnership",
      "outputs": [],
      "stateMutability": "nonpayable",
      "type": "function"
    },
    {
      "inputs": [],
      "name": "viridianNFT",
      "outputs": [
        {
          "internalType": "address",
          "name": "",
          "type": "address"
        }
      ],
      "stateMutability": "view",
      "type": "function",
      "constant": true
    },
    {
      "inputs": [],
      "name": "viridianPack",
      "outputs": [
        {
          "internalType": "address",
          "name": "",
          "type": "address"
        }
      ],
      "stateMutability": "view",
      "type": "function",
      "constant": true
    },
    {
      "inputs": [],
      "name": "viridianToken",
      "outputs": [
        {
          "internalType": "address",
          "name": "",
          "type": "address"
        }
      ],
      "stateMutability": "view",
      "type": "function",
      "constant": true
    },
    {
      "inputs": [],
      "name": "getOffers",
      "outputs": [
        {
          "internalType": "uint256[]",
          "name": "",
          "type": "uint256[]"
        }
      ],
      "stateMutability": "view",
      "type": "function",
      "constant": true
    },
    {
      "inputs": [
        {
          "internalType": "uint256",
          "name": "_offerId",
          "type": "uint256"
        }
      ],
      "name": "getOffersFromId",
      "outputs": [
        {
          "components": [
            {
              "internalType": "uint256",
              "name": "offerId",
              "type": "uint256"
            },
            {
              "internalType": "uint256[]",
              "name": "toNftIds",
              "type": "uint256[]"
            },
            {
              "internalType": "uint256[]",
              "name": "toPackIds",
              "type": "uint256[]"
            },
            {
              "internalType": "uint256",
              "name": "toAmt",
              "type": "uint256"
            },
            {
              "internalType": "uint256[]",
              "name": "fromNftIds",
              "type": "uint256[]"
            },
            {
              "internalType": "uint256[]",
              "name": "fromPackIds",
              "type": "uint256[]"
            },
            {
              "internalType": "uint256",
              "name": "fromAmt",
              "type": "uint256"
            },
            {
              "internalType": "address",
              "name": "to",
              "type": "address"
            },
            {
              "internalType": "address",
              "name": "from",
              "type": "address"
            },
            {
              "internalType": "bool",
              "name": "isVEXT",
              "type": "bool"
            },
            {
              "internalType": "bool",
              "name": "pending",
              "type": "bool"
            },
            {
              "internalType": "uint256",
              "name": "startTime",
              "type": "uint256"
            },
            {
              "internalType": "uint256",
              "name": "endTime",
              "type": "uint256"
            }
          ],
          "internalType": "struct ViridianExchangeOffers.Offer",
          "name": "",
          "type": "tuple"
        }
      ],
      "stateMutability": "view",
      "type": "function",
      "constant": true
    },
    {
      "inputs": [
        {
          "internalType": "address",
          "name": "_userAddr",
          "type": "address"
        }
      ],
      "name": "getOffersFromUser",
      "outputs": [
        {
          "components": [
            {
              "internalType": "uint256",
              "name": "offerId",
              "type": "uint256"
            },
            {
              "internalType": "uint256[]",
              "name": "toNftIds",
              "type": "uint256[]"
            },
            {
              "internalType": "uint256[]",
              "name": "toPackIds",
              "type": "uint256[]"
            },
            {
              "internalType": "uint256",
              "name": "toAmt",
              "type": "uint256"
            },
            {
              "internalType": "uint256[]",
              "name": "fromNftIds",
              "type": "uint256[]"
            },
            {
              "internalType": "uint256[]",
              "name": "fromPackIds",
              "type": "uint256[]"
            },
            {
              "internalType": "uint256",
              "name": "fromAmt",
              "type": "uint256"
            },
            {
              "internalType": "address",
              "name": "to",
              "type": "address"
            },
            {
              "internalType": "address",
              "name": "from",
              "type": "address"
            },
            {
              "internalType": "bool",
              "name": "isVEXT",
              "type": "bool"
            },
            {
              "internalType": "bool",
              "name": "pending",
              "type": "bool"
            },
            {
              "internalType": "uint256",
              "name": "startTime",
              "type": "uint256"
            },
            {
              "internalType": "uint256",
              "name": "endTime",
              "type": "uint256"
            }
          ],
          "internalType": "struct ViridianExchangeOffers.Offer[]",
          "name": "",
          "type": "tuple[]"
        }
      ],
      "stateMutability": "view",
      "type": "function",
      "constant": true
    },
    {
      "inputs": [
        {
          "internalType": "uint256",
          "name": "_offerId",
          "type": "uint256"
        }
      ],
      "name": "hasOfferExpired",
      "outputs": [
        {
          "internalType": "bool",
          "name": "",
          "type": "bool"
        }
      ],
      "stateMutability": "view",
      "type": "function",
      "constant": true
    },
    {
      "inputs": [
        {
          "internalType": "address",
          "name": "_to",
          "type": "address"
        },
        {
          "internalType": "uint256[]",
          "name": "_nftIds",
          "type": "uint256[]"
        },
        {
          "internalType": "uint256[]",
          "name": "_packIds",
          "type": "uint256[]"
        },
        {
          "internalType": "uint256",
          "name": "_amount",
          "type": "uint256"
        },
        {
          "internalType": "uint256[]",
          "name": "_recNftIds",
          "type": "uint256[]"
        },
        {
          "internalType": "uint256[]",
          "name": "_recPackIds",
          "type": "uint256[]"
        },
        {
          "internalType": "uint256",
          "name": "_recAmount",
          "type": "uint256"
        },
        {
          "internalType": "bool",
          "name": "isVEXT",
          "type": "bool"
        },
        {
          "internalType": "uint256",
          "name": "_daysValid",
          "type": "uint256"
        }
      ],
      "name": "makeOffer",
      "outputs": [],
      "stateMutability": "nonpayable",
      "type": "function"
    },
    {
      "inputs": [
        {
          "internalType": "uint256",
          "name": "_offerId",
          "type": "uint256"
        }
      ],
      "name": "cancelOffer",
      "outputs": [],
      "stateMutability": "nonpayable",
      "type": "function"
    },
    {
      "inputs": [
        {
          "internalType": "uint256",
          "name": "_offerId",
          "type": "uint256"
        }
      ],
      "name": "acceptOfferWithVEXT",
      "outputs": [],
      "stateMutability": "nonpayable",
      "type": "function"
    }
  ],
  "bytecode": "0x60806040523480156200001157600080fd5b5060405162003f9a38038062003f9a83398181016040528101906200003791906200038c565b620000576200004b6200025660201b60201c565b6200025e60201b60201c565b600073ffffffffffffffffffffffffffffffffffffffff168373ffffffffffffffffffffffffffffffffffffffff1614156200009257600080fd5b600073ffffffffffffffffffffffffffffffffffffffff168273ffffffffffffffffffffffffffffffffffffffff161415620000cd57600080fd5b600073ffffffffffffffffffffffffffffffffffffffff168173ffffffffffffffffffffffffffffffffffffffff1614156200010857600080fd5b82600b60006101000a81548173ffffffffffffffffffffffffffffffffffffffff021916908373ffffffffffffffffffffffffffffffffffffffff16021790555081600860006101000a81548173ffffffffffffffffffffffffffffffffffffffff021916908373ffffffffffffffffffffffffffffffffffffffff16021790555080600960006101000a81548173ffffffffffffffffffffffffffffffffffffffff021916908373ffffffffffffffffffffffffffffffffffffffff16021790555081600260006101000a81548173ffffffffffffffffffffffffffffffffffffffff021916908373ffffffffffffffffffffffffffffffffffffffff16021790555080600360006101000a81548173ffffffffffffffffffffffffffffffffffffffff021916908373ffffffffffffffffffffffffffffffffffffffff160217905550505050620003e8565b600033905090565b60008060009054906101000a900473ffffffffffffffffffffffffffffffffffffffff169050816000806101000a81548173ffffffffffffffffffffffffffffffffffffffff021916908373ffffffffffffffffffffffffffffffffffffffff1602179055508173ffffffffffffffffffffffffffffffffffffffff168173ffffffffffffffffffffffffffffffffffffffff167f8be0079c531659141344cd1fd0a4f28419497f9722a3daafe3b4186f6b6457e060405160405180910390a35050565b600080fd5b600073ffffffffffffffffffffffffffffffffffffffff82169050919050565b6000620003548262000327565b9050919050565b620003668162000347565b81146200037257600080fd5b50565b60008151905062000386816200035b565b92915050565b600080600060608486031215620003a857620003a762000322565b5b6000620003b88682870162000375565b9350506020620003cb8682870162000375565b9250506040620003de8682870162000375565b9150509250925092565b613ba280620003f86000396000f3fe608060405234801561001057600080fd5b50600436106100ea5760003560e01c8063aec99da21161008c578063f2f57e9511610066578063f2f57e9514610225578063f2fde38b14610243578063fe257afc1461025f578063ff1080df1461027d576100ea565b8063aec99da2146101bd578063d382335a146101d9578063ef706adf14610209576100ea565b8063715018a6116100c8578063715018a6146101595780638322fff2146101635780638da5cb5b146101815780639a7012881461019f576100ea565b80632da967c1146100ef5780633eaf56b01461010b5780633ee992ee1461013b575b600080fd5b61010960048036038101906101049190612ee5565b6102ad565b005b6101256004803603810190610120919061301f565b610754565b6040516101329190613256565b60405180910390f35b6101436109f6565b60405161015091906132e7565b60405180910390f35b610161610a4e565b005b61016b610ad6565b6040516101789190613318565b60405180910390f35b610189610afc565b6040516101969190613318565b60405180910390f35b6101a7610b25565b6040516101b49190613318565b60405180910390f35b6101d760048036038101906101d2919061301f565b610b4b565b005b6101f360048036038101906101ee9190613333565b6118dd565b6040516102009190613550565b60405180910390f35b610223600480360381019061021e919061301f565b611bf0565b005b61022d6125b8565b60405161023a9190613318565b60405180910390f35b61025d60048036038101906102589190613333565b6125de565b005b6102676126d6565b6040516102749190613318565b60405180910390f35b6102976004803603810190610292919061301f565b6126fc565b6040516102a49190613581565b60405180910390f35b3373ffffffffffffffffffffffffffffffffffffffff168973ffffffffffffffffffffffffffffffffffffffff1614156102e657600080fd5b6102f06001612744565b60006102fc600161275a565b90506000620151808361030f91906135cb565b4261031a9190613625565b90506000604051806101a001604052808481526020018c81526020018b81526020018a81526020018981526020018881526020018781526020018d73ffffffffffffffffffffffffffffffffffffffff1681526020013373ffffffffffffffffffffffffffffffffffffffff1681526020018615158152602001600115158152602001428152602001838152509050600460008d73ffffffffffffffffffffffffffffffffffffffff1673ffffffffffffffffffffffffffffffffffffffff1681526020019081526020016000208190806001815401808255809150506001900390600052602060002090600b0201600090919091909150600082015181600001556020820151816001019080519060200190610438929190612834565b506040820151816002019080519060200190610455929190612834565b5060608201518160030155608082015181600401908051906020019061047c929190612834565b5060a0820151816005019080519060200190610499929190612834565b5060c0820151816006015560e08201518160070160006101000a81548173ffffffffffffffffffffffffffffffffffffffff021916908373ffffffffffffffffffffffffffffffffffffffff1602179055506101008201518160080160006101000a81548173ffffffffffffffffffffffffffffffffffffffff021916908373ffffffffffffffffffffffffffffffffffffffff1602179055506101208201518160080160146101000a81548160ff0219169083151502179055506101408201518160080160156101000a81548160ff021916908315150217905550610160820151816009015561018082015181600a0155505080600560008581526020019081526020016000206000820151816000015560208201518160010190805190602001906105c7929190612834565b5060408201518160020190805190602001906105e4929190612834565b5060608201518160030155608082015181600401908051906020019061060b929190612834565b5060a0820151816005019080519060200190610628929190612834565b5060c0820151816006015560e08201518160070160006101000a81548173ffffffffffffffffffffffffffffffffffffffff021916908373ffffffffffffffffffffffffffffffffffffffff1602179055506101008201518160080160006101000a81548173ffffffffffffffffffffffffffffffffffffffff021916908373ffffffffffffffffffffffffffffffffffffffff1602179055506101208201518160080160146101000a81548160ff0219169083151502179055506101408201518160080160156101000a81548160ff021916908315150217905550610160820151816009015561018082015181600a01559050506006839080600181540180825580915050600190039060005260206000200160009091909190915055505050505050505050505050565b61075c612881565b60056000838152602001908152602001600020604051806101a001604052908160008201548152602001600182018054806020026020016040519081016040528092919081815260200182805480156107d457602002820191906000526020600020905b8154815260200190600101908083116107c0575b505050505081526020016002820180548060200260200160405190810160405280929190818152602001828054801561082c57602002820191906000526020600020905b815481526020019060010190808311610818575b50505050508152602001600382015481526020016004820180548060200260200160405190810160405280929190818152602001828054801561088e57602002820191906000526020600020905b81548152602001906001019080831161087a575b50505050508152602001600582018054806020026020016040519081016040528092919081815260200182805480156108e657602002820191906000526020600020905b8154815260200190600101908083116108d2575b50505050508152602001600682015481526020016007820160009054906101000a900473ffffffffffffffffffffffffffffffffffffffff1673ffffffffffffffffffffffffffffffffffffffff1673ffffffffffffffffffffffffffffffffffffffff1681526020016008820160009054906101000a900473ffffffffffffffffffffffffffffffffffffffff1673ffffffffffffffffffffffffffffffffffffffff1673ffffffffffffffffffffffffffffffffffffffff1681526020016008820160149054906101000a900460ff161515151581526020016008820160159054906101000a900460ff1615151515815260200160098201548152602001600a820154815250509050919050565b60606006805480602002602001604051908101604052809291908181526020018280548015610a4457602002820191906000526020600020905b815481526020019060010190808311610a30575b5050505050905090565b610a56612768565b73ffffffffffffffffffffffffffffffffffffffff16610a74610afc565b73ffffffffffffffffffffffffffffffffffffffff1614610aca576040517f08c379a0000000000000000000000000000000000000000000000000000000008152600401610ac1906136d8565b60405180910390fd5b610ad46000612770565b565b600a60009054906101000a900473ffffffffffffffffffffffffffffffffffffffff1681565b60008060009054906101000a900473ffffffffffffffffffffffffffffffffffffffff16905090565b600860009054906101000a900473ffffffffffffffffffffffffffffffffffffffff1681565b60006005600083815260200190815260200160002090503373ffffffffffffffffffffffffffffffffffffffff168160070160009054906101000a900473ffffffffffffffffffffffffffffffffffffffff1673ffffffffffffffffffffffffffffffffffffffff1614610bf4576040517f08c379a0000000000000000000000000000000000000000000000000000000008152600401610beb9061376a565b60405180910390fd5b610bfd826126fc565b610c3c576040517f08c379a0000000000000000000000000000000000000000000000000000000008152600401610c33906137d6565b60405180910390fd5b60008160080160156101000a81548160ff02191690831515021790555060005b8160010180549050811015610dda578160080160009054906101000a900473ffffffffffffffffffffffffffffffffffffffff1673ffffffffffffffffffffffffffffffffffffffff16600860009054906101000a900473ffffffffffffffffffffffffffffffffffffffff1673ffffffffffffffffffffffffffffffffffffffff16636352211e846001018481548110610cfa57610cf96137f6565b5b90600052602060002001546040518263ffffffff1660e01b8152600401610d219190613834565b60206040518083038186803b158015610d3957600080fd5b505afa158015610d4d573d6000803e3d6000fd5b505050506040513d601f19601f82011682018060405250810190610d719190613864565b73ffffffffffffffffffffffffffffffffffffffff1614610dc7576040517f08c379a0000000000000000000000000000000000000000000000000000000008152600401610dbe90613903565b60405180910390fd5b8080610dd290613923565b915050610c5c565b5060005b8160040180549050811015610f5c578160070160009054906101000a900473ffffffffffffffffffffffffffffffffffffffff1673ffffffffffffffffffffffffffffffffffffffff16600860009054906101000a900473ffffffffffffffffffffffffffffffffffffffff1673ffffffffffffffffffffffffffffffffffffffff16636352211e846004018481548110610e7c57610e7b6137f6565b5b90600052602060002001546040518263ffffffff1660e01b8152600401610ea39190613834565b60206040518083038186803b158015610ebb57600080fd5b505afa158015610ecf573d6000803e3d6000fd5b505050506040513d601f19601f82011682018060405250810190610ef39190613864565b73ffffffffffffffffffffffffffffffffffffffff1614610f49576040517f08c379a0000000000000000000000000000000000000000000000000000000008152600401610f40906139de565b60405180910390fd5b8080610f5490613923565b915050610dde565b5060005b81600201805490508110156110de578160080160009054906101000a900473ffffffffffffffffffffffffffffffffffffffff1673ffffffffffffffffffffffffffffffffffffffff16600960009054906101000a900473ffffffffffffffffffffffffffffffffffffffff1673ffffffffffffffffffffffffffffffffffffffff16636352211e846002018481548110610ffe57610ffd6137f6565b5b90600052602060002001546040518263ffffffff1660e01b81526004016110259190613834565b60206040518083038186803b15801561103d57600080fd5b505afa158015611051573d6000803e3d6000fd5b505050506040513d601f19601f820116820180604052508101906110759190613864565b73ffffffffffffffffffffffffffffffffffffffff16146110cb576040517f08c379a00000000000000000000000000000000000000000000000000000000081526004016110c290613903565b60405180910390fd5b80806110d690613923565b915050610f60565b5060005b8160050180549050811015611260578160070160009054906101000a900473ffffffffffffffffffffffffffffffffffffffff1673ffffffffffffffffffffffffffffffffffffffff16600960009054906101000a900473ffffffffffffffffffffffffffffffffffffffff1673ffffffffffffffffffffffffffffffffffffffff16636352211e8460050184815481106111805761117f6137f6565b5b90600052602060002001546040518263ffffffff1660e01b81526004016111a79190613834565b60206040518083038186803b1580156111bf57600080fd5b505afa1580156111d3573d6000803e3d6000fd5b505050506040513d601f19601f820116820180604052508101906111f79190613864565b73ffffffffffffffffffffffffffffffffffffffff161461124d576040517f08c379a0000000000000000000000000000000000000000000000000000000008152600401611244906139de565b60405180910390fd5b808061125890613923565b9150506110e2565b50600b60009054906101000a900473ffffffffffffffffffffffffffffffffffffffff1673ffffffffffffffffffffffffffffffffffffffff166323b872dd8260080160009054906101000a900473ffffffffffffffffffffffffffffffffffffffff168360070160009054906101000a900473ffffffffffffffffffffffffffffffffffffffff1684600301546040518463ffffffff1660e01b815260040161130c939291906139fe565b602060405180830381600087803b15801561132657600080fd5b505af115801561133a573d6000803e3d6000fd5b505050506040513d601f19601f8201168201806040525081019061135e9190613a4a565b50600b60009054906101000a900473ffffffffffffffffffffffffffffffffffffffff1673ffffffffffffffffffffffffffffffffffffffff166323b872dd8260070160009054906101000a900473ffffffffffffffffffffffffffffffffffffffff168360080160009054906101000a900473ffffffffffffffffffffffffffffffffffffffff1684600601546040518463ffffffff1660e01b815260040161140a939291906139fe565b602060405180830381600087803b15801561142457600080fd5b505af1158015611438573d6000803e3d6000fd5b505050506040513d601f19601f8201168201806040525081019061145c9190613a4a565b5060005b816001018054905081101561157b57600860009054906101000a900473ffffffffffffffffffffffffffffffffffffffff1673ffffffffffffffffffffffffffffffffffffffff166342842e0e8360080160009054906101000a900473ffffffffffffffffffffffffffffffffffffffff168460070160009054906101000a900473ffffffffffffffffffffffffffffffffffffffff1685600101858154811061150d5761150c6137f6565b5b90600052602060002001546040518463ffffffff1660e01b8152600401611536939291906139fe565b600060405180830381600087803b15801561155057600080fd5b505af1158015611564573d6000803e3d6000fd5b50505050808061157390613923565b915050611460565b5060005b816004018054905081101561169a57600860009054906101000a900473ffffffffffffffffffffffffffffffffffffffff1673ffffffffffffffffffffffffffffffffffffffff166342842e0e8360070160009054906101000a900473ffffffffffffffffffffffffffffffffffffffff168460080160009054906101000a900473ffffffffffffffffffffffffffffffffffffffff1685600401858154811061162c5761162b6137f6565b5b90600052602060002001546040518463ffffffff1660e01b8152600401611655939291906139fe565b600060405180830381600087803b15801561166f57600080fd5b505af1158015611683573d6000803e3d6000fd5b50505050808061169290613923565b91505061157f565b5060005b81600201805490508110156117b957600960009054906101000a900473ffffffffffffffffffffffffffffffffffffffff1673ffffffffffffffffffffffffffffffffffffffff166342842e0e8360080160009054906101000a900473ffffffffffffffffffffffffffffffffffffffff168460070160009054906101000a900473ffffffffffffffffffffffffffffffffffffffff1685600201858154811061174b5761174a6137f6565b5b90600052602060002001546040518463ffffffff1660e01b8152600401611774939291906139fe565b600060405180830381600087803b15801561178e57600080fd5b505af11580156117a2573d6000803e3d6000fd5b5050505080806117b190613923565b91505061169e565b5060005b81600501805490508110156118d857600960009054906101000a900473ffffffffffffffffffffffffffffffffffffffff1673ffffffffffffffffffffffffffffffffffffffff166342842e0e8360070160009054906101000a900473ffffffffffffffffffffffffffffffffffffffff168460080160009054906101000a900473ffffffffffffffffffffffffffffffffffffffff1685600501858154811061186a576118696137f6565b5b90600052602060002001546040518463ffffffff1660e01b8152600401611893939291906139fe565b600060405180830381600087803b1580156118ad57600080fd5b505af11580156118c1573d6000803e3d6000fd5b5050505080806118d090613923565b9150506117bd565b505050565b6060600460008373ffffffffffffffffffffffffffffffffffffffff1673ffffffffffffffffffffffffffffffffffffffff168152602001908152602001600020805480602002602001604051908101604052809291908181526020016000905b82821015611be557838290600052602060002090600b0201604051806101a001604052908160008201548152602001600182018054806020026020016040519081016040528092919081815260200182805480156119bb57602002820191906000526020600020905b8154815260200190600101908083116119a7575b5050505050815260200160028201805480602002602001604051908101604052809291908181526020018280548015611a1357602002820191906000526020600020905b8154815260200190600101908083116119ff575b505050505081526020016003820154815260200160048201805480602002602001604051908101604052809291908181526020018280548015611a7557602002820191906000526020600020905b815481526020019060010190808311611a61575b5050505050815260200160058201805480602002602001604051908101604052809291908181526020018280548015611acd57602002820191906000526020600020905b815481526020019060010190808311611ab9575b50505050508152602001600682015481526020016007820160009054906101000a900473ffffffffffffffffffffffffffffffffffffffff1673ffffffffffffffffffffffffffffffffffffffff1673ffffffffffffffffffffffffffffffffffffffff1681526020016008820160009054906101000a900473ffffffffffffffffffffffffffffffffffffffff1673ffffffffffffffffffffffffffffffffffffffff1673ffffffffffffffffffffffffffffffffffffffff1681526020016008820160149054906101000a900460ff161515151581526020016008820160159054906101000a900460ff1615151515815260200160098201548152602001600a820154815250508152602001906001019061193e565b505050509050919050565b60006005600083815260200190815260200160002090503373ffffffffffffffffffffffffffffffffffffffff168160080160009054906101000a900473ffffffffffffffffffffffffffffffffffffffff1673ffffffffffffffffffffffffffffffffffffffff161480611cb457503373ffffffffffffffffffffffffffffffffffffffff168160070160009054906101000a900473ffffffffffffffffffffffffffffffffffffffff1673ffffffffffffffffffffffffffffffffffffffff16145b611cbd57600080fd5b6000600460008360070160009054906101000a900473ffffffffffffffffffffffffffffffffffffffff1673ffffffffffffffffffffffffffffffffffffffff1673ffffffffffffffffffffffffffffffffffffffff168152602001908152602001600020905060005b81805490508110156123ea576000828281548110611d4857611d476137f6565b5b90600052602060002090600b0201604051806101a00160405290816000820154815260200160018201805480602002602001604051908101604052809291908181526020018280548015611dbb57602002820191906000526020600020905b815481526020019060010190808311611da7575b5050505050815260200160028201805480602002602001604051908101604052809291908181526020018280548015611e1357602002820191906000526020600020905b815481526020019060010190808311611dff575b505050505081526020016003820154815260200160048201805480602002602001604051908101604052809291908181526020018280548015611e7557602002820191906000526020600020905b815481526020019060010190808311611e61575b5050505050815260200160058201805480602002602001604051908101604052809291908181526020018280548015611ecd57602002820191906000526020600020905b815481526020019060010190808311611eb9575b50505050508152602001600682015481526020016007820160009054906101000a900473ffffffffffffffffffffffffffffffffffffffff1673ffffffffffffffffffffffffffffffffffffffff1673ffffffffffffffffffffffffffffffffffffffff1681526020016008820160009054906101000a900473ffffffffffffffffffffffffffffffffffffffff1673ffffffffffffffffffffffffffffffffffffffff1673ffffffffffffffffffffffffffffffffffffffff1681526020016008820160149054906101000a900460ff161515151581526020016008820160159054906101000a900460ff1615151515815260200160098201548152602001600a8201548152505090508360000154816000015114156123d6578260018480549050611ffa9190613a77565b8154811061200b5761200a6137f6565b5b90600052602060002090600b020183838154811061202c5761202b6137f6565b5b90600052602060002090600b020160008201548160000155600182018160010190805461205a929190612919565b506002820181600201908054612071929190612919565b50600382015481600301556004820181600401908054612092929190612919565b5060058201816005019080546120a9929190612919565b50600682015481600601556007820160009054906101000a900473ffffffffffffffffffffffffffffffffffffffff168160070160006101000a81548173ffffffffffffffffffffffffffffffffffffffff021916908373ffffffffffffffffffffffffffffffffffffffff1602179055506008820160009054906101000a900473ffffffffffffffffffffffffffffffffffffffff168160080160006101000a81548173ffffffffffffffffffffffffffffffffffffffff021916908373ffffffffffffffffffffffffffffffffffffffff1602179055506008820160149054906101000a900460ff168160080160146101000a81548160ff0219169083151502179055506008820160159054906101000a900460ff168160080160156101000a81548160ff02191690831515021790555060098201548160090155600a82015481600a015590505082600460008660070160009054906101000a900473ffffffffffffffffffffffffffffffffffffffff1673ffffffffffffffffffffffffffffffffffffffff1673ffffffffffffffffffffffffffffffffffffffff16815260200190815260200160002090805461226592919061296b565b50600460008560070160009054906101000a900473ffffffffffffffffffffffffffffffffffffffff1673ffffffffffffffffffffffffffffffffffffffff1673ffffffffffffffffffffffffffffffffffffffff1681526020019081526020016000208054806122d9576122d8613aab565b5b60019003818190600052602060002090600b02016000808201600090556001820160006123069190612b79565b6002820160006123169190612b79565b600382016000905560048201600061232e9190612b79565b60058201600061233e9190612b79565b60068201600090556007820160006101000a81549073ffffffffffffffffffffffffffffffffffffffff02191690556008820160006101000a81549073ffffffffffffffffffffffffffffffffffffffff02191690556008820160146101000a81549060ff02191690556008820160156101000a81549060ff02191690556009820160009055600a82016000905550509055506123ea565b5080806123e290613923565b915050611d27565b5060005b6006805490508110156124be57600060068281548110612411576124106137f6565b5b9060005260206000200154905083600001548114156124aa576006600160068054905061243e9190613a77565b8154811061244f5761244e6137f6565b5b90600052602060002001546006838154811061246e5761246d6137f6565b5b9060005260206000200181905550600680548061248e5761248d613aab565b5b60019003818190600052602060002001600090559055506124be565b5080806124b690613923565b9150506123ee565b50600560008481526020019081526020016000206000808201600090556001820160006124eb9190612b79565b6002820160006124fb9190612b79565b60038201600090556004820160006125139190612b79565b6005820160006125239190612b79565b60068201600090556007820160006101000a81549073ffffffffffffffffffffffffffffffffffffffff02191690556008820160006101000a81549073ffffffffffffffffffffffffffffffffffffffff02191690556008820160146101000a81549060ff02191690556008820160156101000a81549060ff02191690556009820160009055600a8201600090555050505050565b600b60009054906101000a900473ffffffffffffffffffffffffffffffffffffffff1681565b6125e6612768565b73ffffffffffffffffffffffffffffffffffffffff16612604610afc565b73ffffffffffffffffffffffffffffffffffffffff161461265a576040517f08c379a0000000000000000000000000000000000000000000000000000000008152600401612651906136d8565b60405180910390fd5b600073ffffffffffffffffffffffffffffffffffffffff168173ffffffffffffffffffffffffffffffffffffffff1614156126ca576040517f08c379a00000000000000000000000000000000000000000000000000000000081526004016126c190613b4c565b60405180910390fd5b6126d381612770565b50565b600960009054906101000a900473ffffffffffffffffffffffffffffffffffffffff1681565b6000806005600084815260200190815260200160002090508060080160159054906101000a900460ff1661273457600091505061273f565b4281600a0154119150505b919050565b6001816000016000828254019250508190555050565b600081600001549050919050565b600033905090565b60008060009054906101000a900473ffffffffffffffffffffffffffffffffffffffff169050816000806101000a81548173ffffffffffffffffffffffffffffffffffffffff021916908373ffffffffffffffffffffffffffffffffffffffff1602179055508173ffffffffffffffffffffffffffffffffffffffff168173ffffffffffffffffffffffffffffffffffffffff167f8be0079c531659141344cd1fd0a4f28419497f9722a3daafe3b4186f6b6457e060405160405180910390a35050565b828054828255906000526020600020908101928215612870579160200282015b8281111561286f578251825591602001919060010190612854565b5b50905061287d9190612b9a565b5090565b604051806101a0016040528060008152602001606081526020016060815260200160008152602001606081526020016060815260200160008152602001600073ffffffffffffffffffffffffffffffffffffffff168152602001600073ffffffffffffffffffffffffffffffffffffffff16815260200160001515815260200160001515815260200160008152602001600081525090565b82805482825590600052602060002090810192821561295a5760005260206000209182015b8281111561295957825482559160010191906001019061293e565b5b5090506129679190612b9a565b5090565b82805482825590600052602060002090600b028101928215612b6857600052602060002091600b0282015b82811115612b675782826000820154816000015560018201816001019080546129c0929190612919565b5060028201816002019080546129d7929190612919565b506003820154816003015560048201816004019080546129f8929190612919565b506005820181600501908054612a0f929190612919565b50600682015481600601556007820160009054906101000a900473ffffffffffffffffffffffffffffffffffffffff168160070160006101000a81548173ffffffffffffffffffffffffffffffffffffffff021916908373ffffffffffffffffffffffffffffffffffffffff1602179055506008820160009054906101000a900473ffffffffffffffffffffffffffffffffffffffff168160080160006101000a81548173ffffffffffffffffffffffffffffffffffffffff021916908373ffffffffffffffffffffffffffffffffffffffff1602179055506008820160149054906101000a900460ff168160080160146101000a81548160ff0219169083151502179055506008820160159054906101000a900460ff168160080160156101000a81548160ff02191690831515021790555060098201548160090155600a82015481600a0155505091600b019190600b0190612996565b5b509050612b759190612bb7565b5090565b5080546000825590600052602060002090810190612b979190612b9a565b50565b5b80821115612bb3576000816000905550600101612b9b565b5090565b5b80821115612ca857600080820160009055600182016000612bd99190612b79565b600282016000612be99190612b79565b6003820160009055600482016000612c019190612b79565b600582016000612c119190612b79565b60068201600090556007820160006101000a81549073ffffffffffffffffffffffffffffffffffffffff02191690556008820160006101000a81549073ffffffffffffffffffffffffffffffffffffffff02191690556008820160146101000a81549060ff02191690556008820160156101000a81549060ff02191690556009820160009055600a82016000905550600b01612bb8565b5090565b6000604051905090565b600080fd5b600080fd5b600073ffffffffffffffffffffffffffffffffffffffff82169050919050565b6000612ceb82612cc0565b9050919050565b612cfb81612ce0565b8114612d0657600080fd5b50565b600081359050612d1881612cf2565b92915050565b600080fd5b6000601f19601f8301169050919050565b7f4e487b7100000000000000000000000000000000000000000000000000000000600052604160045260246000fd5b612d6c82612d23565b810181811067ffffffffffffffff82111715612d8b57612d8a612d34565b5b80604052505050565b6000612d9e612cac565b9050612daa8282612d63565b919050565b600067ffffffffffffffff821115612dca57612dc9612d34565b5b602082029050602081019050919050565b600080fd5b6000819050919050565b612df381612de0565b8114612dfe57600080fd5b50565b600081359050612e1081612dea565b92915050565b6000612e29612e2484612daf565b612d94565b90508083825260208201905060208402830185811115612e4c57612e4b612ddb565b5b835b81811015612e755780612e618882612e01565b845260208401935050602081019050612e4e565b5050509392505050565b600082601f830112612e9457612e93612d1e565b5b8135612ea4848260208601612e16565b91505092915050565b60008115159050919050565b612ec281612ead565b8114612ecd57600080fd5b50565b600081359050612edf81612eb9565b92915050565b60008060008060008060008060006101208a8c031215612f0857612f07612cb6565b5b6000612f168c828d01612d09565b99505060208a013567ffffffffffffffff811115612f3757612f36612cbb565b5b612f438c828d01612e7f565b98505060408a013567ffffffffffffffff811115612f6457612f63612cbb565b5b612f708c828d01612e7f565b9750506060612f818c828d01612e01565b96505060808a013567ffffffffffffffff811115612fa257612fa1612cbb565b5b612fae8c828d01612e7f565b95505060a08a013567ffffffffffffffff811115612fcf57612fce612cbb565b5b612fdb8c828d01612e7f565b94505060c0612fec8c828d01612e01565b93505060e0612ffd8c828d01612ed0565b92505061010061300f8c828d01612e01565b9150509295985092959850929598565b60006020828403121561303557613034612cb6565b5b600061304384828501612e01565b91505092915050565b61305581612de0565b82525050565b600081519050919050565b600082825260208201905092915050565b6000819050602082019050919050565b6000613093838361304c565b60208301905092915050565b6000602082019050919050565b60006130b78261305b565b6130c18185613066565b93506130cc83613077565b8060005b838110156130fd5781516130e48882613087565b97506130ef8361309f565b9250506001810190506130d0565b5085935050505092915050565b61311381612ce0565b82525050565b61312281612ead565b82525050565b60006101a083016000830151613141600086018261304c565b506020830151848203602086015261315982826130ac565b9150506040830151848203604086015261317382826130ac565b9150506060830151613188606086018261304c565b50608083015184820360808601526131a082826130ac565b91505060a083015184820360a08601526131ba82826130ac565b91505060c08301516131cf60c086018261304c565b5060e08301516131e260e086018261310a565b506101008301516131f761010086018261310a565b5061012083015161320c610120860182613119565b50610140830151613221610140860182613119565b5061016083015161323661016086018261304c565b5061018083015161324b61018086018261304c565b508091505092915050565b600060208201905081810360008301526132708184613128565b905092915050565b600082825260208201905092915050565b60006132948261305b565b61329e8185613278565b93506132a983613077565b8060005b838110156132da5781516132c18882613087565b97506132cc8361309f565b9250506001810190506132ad565b5085935050505092915050565b600060208201905081810360008301526133018184613289565b905092915050565b61331281612ce0565b82525050565b600060208201905061332d6000830184613309565b92915050565b60006020828403121561334957613348612cb6565b5b600061335784828501612d09565b91505092915050565b600081519050919050565b600082825260208201905092915050565b6000819050602082019050919050565b60006101a0830160008301516133a5600086018261304c565b50602083015184820360208601526133bd82826130ac565b915050604083015184820360408601526133d782826130ac565b91505060608301516133ec606086018261304c565b506080830151848203608086015261340482826130ac565b91505060a083015184820360a086015261341e82826130ac565b91505060c083015161343360c086018261304c565b5060e083015161344660e086018261310a565b5061010083015161345b61010086018261310a565b50610120830151613470610120860182613119565b50610140830151613485610140860182613119565b5061016083015161349a61016086018261304c565b506101808301516134af61018086018261304c565b508091505092915050565b60006134c6838361338c565b905092915050565b6000602082019050919050565b60006134e682613360565b6134f0818561336b565b9350836020820285016135028561337c565b8060005b8581101561353e578484038952815161351f85826134ba565b945061352a836134ce565b925060208a01995050600181019050613506565b50829750879550505050505092915050565b6000602082019050818103600083015261356a81846134db565b905092915050565b61357b81612ead565b82525050565b60006020820190506135966000830184613572565b92915050565b7f4e487b7100000000000000000000000000000000000000000000000000000000600052601160045260246000fd5b60006135d682612de0565b91506135e183612de0565b9250817fffffffffffffffffffffffffffffffffffffffffffffffffffffffffffffffff048311821515161561361a5761361961359c565b5b828202905092915050565b600061363082612de0565b915061363b83612de0565b9250827fffffffffffffffffffffffffffffffffffffffffffffffffffffffffffffffff038211156136705761366f61359c565b5b828201905092915050565b600082825260208201905092915050565b7f4f776e61626c653a2063616c6c6572206973206e6f7420746865206f776e6572600082015250565b60006136c260208361367b565b91506136cd8261368c565b602082019050919050565b600060208201905081810360008301526136f1816136b5565b9050919050565b7f4f6e6c79206f666665726564206163636f756e742063616e206163636570742060008201527f6f66666572000000000000000000000000000000000000000000000000000000602082015250565b600061375460258361367b565b915061375f826136f8565b604082019050919050565b6000602082019050818103600083015261378381613747565b9050919050565b7f4f66666572206861732065787069726564000000000000000000000000000000600082015250565b60006137c060118361367b565b91506137cb8261378a565b602082019050919050565b600060208201905081810360008301526137ef816137b3565b9050919050565b7f4e487b7100000000000000000000000000000000000000000000000000000000600052603260045260246000fd5b61382e81612de0565b82525050565b60006020820190506138496000830184613825565b92915050565b60008151905061385e81612cf2565b92915050565b60006020828403121561387a57613879612cb6565b5b60006138888482850161384f565b91505092915050565b7f4f666665726564206163636f756e74206d757374206f776e20616c6c2072657160008201527f756573746564204e465473000000000000000000000000000000000000000000602082015250565b60006138ed602b8361367b565b91506138f882613891565b604082019050919050565b6000602082019050818103600083015261391c816138e0565b9050919050565b600061392e82612de0565b91507fffffffffffffffffffffffffffffffffffffffffffffffffffffffffffffffff8214156139615761396061359c565b5b600182019050919050565b7f4f66666572696e67206163636f756e74206d757374206f776e20616c6c206f6660008201527f6665726564204e46547300000000000000000000000000000000000000000000602082015250565b60006139c8602a8361367b565b91506139d38261396c565b604082019050919050565b600060208201905081810360008301526139f7816139bb565b9050919050565b6000606082019050613a136000830186613309565b613a206020830185613309565b613a2d6040830184613825565b949350505050565b600081519050613a4481612eb9565b92915050565b600060208284031215613a6057613a5f612cb6565b5b6000613a6e84828501613a35565b91505092915050565b6000613a8282612de0565b9150613a8d83612de0565b925082821015613aa057613a9f61359c565b5b828203905092915050565b7f4e487b7100000000000000000000000000000000000000000000000000000000600052603160045260246000fd5b7f4f776e61626c653a206e6577206f776e657220697320746865207a65726f206160008201527f6464726573730000000000000000000000000000000000000000000000000000602082015250565b6000613b3660268361367b565b9150613b4182613ada565b604082019050919050565b60006020820190508181036000830152613b6581613b29565b905091905056fea2646970667358221220bb212f731990eba019bf6958d53d122f8046bacd5770aba14e97f48ef705407a64736f6c63430008090033",
  "immutableReferences": {},
  "source": "pragma solidity ^0.8.0;\n\nimport \"@openzeppelin/contracts/access/Ownable.sol\";\nimport \"@openzeppelin/contracts/token/ERC721/ERC721.sol\";\nimport \"@openzeppelin/contracts/token/ERC20/IERC20.sol\";\nimport \"@openzeppelin/contracts/token/ERC20/ERC20.sol\";\nimport \"@openzeppelin/contracts/token/ERC721/IERC721.sol\";\nimport \"@openzeppelin/contracts/utils/Counters.sol\";\n\nimport \"./ViridianNFT.sol\";\nimport \"./ViridianPack.sol\";\n\ncontract ViridianExchangeOffers is Ownable {\n\n    using Counters for Counters.Counter;\n    Counters.Counter private _offerIds;\n\n    ViridianNFT vNFT;\n    ViridianPack vPack;\n\n    struct Offer {\n        uint256 offerId;\n        uint256[] toNftIds;\n        uint256[] toPackIds;\n        uint toAmt;\n        uint256[] fromNftIds;\n        uint256[] fromPackIds;\n        uint fromAmt;\n        address to;\n        address from;\n        bool isVEXT;\n        bool pending;\n        uint256 startTime;\n        uint256 endTime;\n    }\n\n    mapping (address => Offer[]) userOffers;\n    mapping (uint256 => Offer) offers;\n    uint256[] private offerIds;\n    mapping (uint256 => uint256) highestCardOffer;\n\n    address public viridianNFT;\n    address public viridianPack;\n    address public ETH;\n    address public viridianToken;\n\n    constructor(address _viridianToken, address _viridianNFT, address _viridianPack) {\n        require(address(_viridianToken) != address(0));\n        //require(address(_ETH) != address(0));\n        require(address(_viridianNFT) != address(0));\n        require(address(_viridianPack) != address(0));\n\n        viridianToken = _viridianToken;\n        //address _ETH, ETH = _ETH;\n        viridianNFT = _viridianNFT;\n        viridianPack = _viridianPack;\n\n        vNFT = ViridianNFT(_viridianNFT);\n        vPack = ViridianPack(_viridianPack);\n    }\n\n    function getOffers() public view returns (uint256[] memory) {\n        return offerIds;\n    }\n\n    function getOffersFromId(uint256 _offerId) public view returns (Offer memory) {\n        return offers[_offerId];\n    }\n\n    function getOffersFromUser(address _userAddr) public view returns (Offer[] memory) {\n        return userOffers[_userAddr];\n    }\n\n    function hasOfferExpired(uint256 _offerId) public view returns (bool) {\n        Offer storage curOffer = offers[_offerId];\n\n        if (!curOffer.pending) {\n            return false;\n        }\n        else {\n            return curOffer.endTime > block.timestamp;\n        }\n    }\n\n    function makeOffer(address _to, uint256[] memory _nftIds, uint256[] memory _packIds, uint256 _amount, uint256[] memory _recNftIds, uint256[] memory _recPackIds, uint256 _recAmount, bool isVEXT, uint256 _daysValid) public {\n        require(_to != msg.sender);\n\n        // if(!IERC721(viridianNFT).isApprovedForAll(msg.sender, address(this))) {\n        //     IERC721(viridianNFT).setApprovalForAll(address(this), true);\n        // }\n\n        _offerIds.increment();\n        uint256 _offerId = _offerIds.current();\n\n        uint256 endTime = block.timestamp + (_daysValid * 1 days);\n\n        Offer memory newOffer = Offer(_offerId, _nftIds, _packIds, _amount, _recNftIds, _recPackIds, _recAmount, _to, msg.sender, isVEXT, true, block.timestamp, endTime);\n        \n        userOffers[_to].push(newOffer);\n        offers[_offerId] = newOffer;\n        offerIds.push(_offerId);\n    }\n\n    function cancelOffer(uint256 _offerId) public {\n        Offer storage curOffer = offers[_offerId];\n        require(curOffer.from == msg.sender || curOffer.to == msg.sender);\n        Offer[] storage curUserOffers = userOffers[curOffer.to];\n        \n        //TODO: Check who is cancelling and cancel that person's offers.\n\n        // Remove offer from current user's offers\n        for (uint i = 0; i < curUserOffers.length; i++) {\n            Offer memory offer = curUserOffers[i];\n            if (offer.offerId == curOffer.offerId) {\n                curUserOffers[i] = curUserOffers[curUserOffers.length - 1];\n                userOffers[curOffer.to] = curUserOffers;\n                userOffers[curOffer.to].pop();\n                break;\n            }\n        } \n\n        // Remove offer id from global list of offer ids\n        for (uint256 i = 0; i < offerIds.length; i++) {\n            uint256 offerId = offerIds[i];\n            if (offerId == curOffer.offerId) {\n                offerIds[i] = offerIds[offerIds.length - 1];\n                offerIds.pop();\n                break;\n            }\n        }\n\n        // Remove offer from global mapping of offers\n        delete offers[_offerId];\n    }\n    \n    function acceptOfferWithVEXT(uint256 _offerId) public {\n        Offer storage curOffer = offers[_offerId];\n\n        require(curOffer.to == msg.sender, \"Only offered account can accept offer\");\n        require(hasOfferExpired(_offerId), \"Offer has expired\");\n\n        curOffer.pending = false;\n\n        for (uint i = 0; i < curOffer.toNftIds.length; i++) {\n            require(IERC721(viridianNFT).ownerOf(curOffer.toNftIds[i]) == curOffer.from, \"Offered account must own all requested NFTs\");\n        }\n\n        for (uint i = 0; i < curOffer.fromNftIds.length; i++) {\n            require(IERC721(viridianNFT).ownerOf(curOffer.fromNftIds[i]) == curOffer.to, \"Offering account must own all offered NFTs\");\n        }\n\n        for (uint i = 0; i < curOffer.toPackIds.length; i++) {\n            require(IERC721(viridianPack).ownerOf(curOffer.toPackIds[i]) == curOffer.from, \"Offered account must own all requested NFTs\");\n        }\n\n        for (uint i = 0; i < curOffer.fromPackIds.length; i++) {\n            require(IERC721(viridianPack).ownerOf(curOffer.fromPackIds[i]) == curOffer.to, \"Offering account must own all offered NFTs\");\n        }\n        \n\n        // if(!IERC721(viridianNFT).isApprovedForAll(msg.sender, address(this))) {\n        //     IERC721(viridianNFT).setApprovalForAll(address(this), true);\n        // }\n\n        IERC20(viridianToken).transferFrom(curOffer.from, curOffer.to, curOffer.toAmt);\n        IERC20(viridianToken).transferFrom(curOffer.to, curOffer.from, curOffer.fromAmt);\n\n        // Loop through all of the to items in the offer.\n        for (uint i = 0; i < curOffer.toNftIds.length; i++) {\n            //IERC721(viridianNFT).approve(curOffer.to, curOffer.fromNftIds[i]);\n            IERC721(viridianNFT).safeTransferFrom(curOffer.from, curOffer.to, curOffer.toNftIds[i]);\n        }\n\n        // Loop through all of the from items in the offer.\n        for (uint i = 0; i < curOffer.fromNftIds.length; i++) {\n            //IERC721(viridianNFT).approve(curOffer.to, curOffer.fromNftIds[i]);\n            IERC721(viridianNFT).safeTransferFrom(curOffer.to, curOffer.from, curOffer.fromNftIds[i]);\n        }\n\n        for (uint i = 0; i < curOffer.toPackIds.length; i++) {\n            //IERC721(viridianNFT).approve(curOffer.to, curOffer.fromNftIds[i]);\n            IERC721(viridianPack).safeTransferFrom(curOffer.from, curOffer.to, curOffer.toPackIds[i]);\n        }\n\n        // Loop through all of the from items in the offer.\n        for (uint i = 0; i < curOffer.fromPackIds.length; i++) {\n            //IERC721(viridianNFT).approve(curOffer.to, curOffer.fromNftIds[i]);\n            IERC721(viridianPack).safeTransferFrom(curOffer.to, curOffer.from, curOffer.fromPackIds[i]);\n        }\n    }\n\n    //TODO: Maybe change this to MATIC?\n    // function buyNFTWithETH(uint256 _listingId) public payable {\n    //     Listing memory curListing = listings[_listingId];\n\n    //     vNFT.unlistToken(curListing.tokenId);\n\n    //     require(msg.sender.balance >= curListing.price, 'ViridianExchange: User does not have enough balance');\n    //     address payable ownerWallet = payable(curListing.owner);\n\n    //     require(msg.value == curListing.price, 'ViridianExchange: Incorrect amount paid to function');\n\n    //     if(!IERC721(viridianNFT).isApprovedForAll(msg.sender, address(this))) {\n    //         IERC721(viridianNFT).setApprovalForAll(address(this), true);\n    //     }\n\n    //     sendEther(ownerWallet);\n\n    //     pullFromSaleOnBuy(_listingId);\n        \n    //     IERC721(viridianNFT).safeTransferFrom(curListing.owner, msg.sender, curListing.tokenId);\n    // }\n\n    // //TODO: Figure out how to send eth from \"from\" wallet to \"to\" wallet.\n    //TODO: Figure out how to accept other cryptoCurrencies besides VEXT\n    // function acceptOfferWithETH(uint256 _offerId) public payable {\n    //     Offer storage curOffer = offers[_offerId];\n\n    //     require(curOffer.to != msg.sender);\n\n    //     // if(!IERC721(viridianNFT).isApprovedForAll(msg.sender, address(this))) {\n    //     //     IERC721(viridianNFT).setApprovalForAll(address(this), true);\n    //     // }\n\n    //     address payable ownerWallet = payable(curOffer.from);\n\n    //     sendEther(ownerWallet);\n\n    //     cancelOffer(_offerId);\n    // }\n}",
  "sourcePath": "/Users/blakehatch/Viridian-Exchange-Contracts/contracts/ViridianExchangeOffers.sol",
  "compiler": {
    "name": "solc",
    "version": "0.8.9+commit.e5eed63a.Emscripten.clang"
  },
  "schemaVersion": "3.4.1",
  "updatedAt": "2021-10-05T19:22:47.878Z",
  "networkType": "ethereum",
  "devdoc": {
    "kind": "dev",
    "methods": {
      "owner()": {
        "details": "Returns the address of the current owner."
      },
      "renounceOwnership()": {
        "details": "Leaves the contract without owner. It will not be possible to call `onlyOwner` functions anymore. Can only be called by the current owner. NOTE: Renouncing ownership will leave the contract without an owner, thereby removing any functionality that is only available to the owner."
      },
      "transferOwnership(address)": {
        "details": "Transfers ownership of the contract to a new account (`newOwner`). Can only be called by the current owner."
      }
    },
    "version": 1
  },
  "userdoc": {
    "kind": "user",
    "methods": {},
    "version": 1
  }
}