{
  "contractName": "ViridianNFT",
  "abi": [
    {
      "inputs": [],
      "stateMutability": "nonpayable",
      "type": "constructor"
    },
    {
      "anonymous": false,
      "inputs": [
        {
          "indexed": true,
          "internalType": "address",
          "name": "owner",
          "type": "address"
        },
        {
          "indexed": true,
          "internalType": "address",
          "name": "approved",
          "type": "address"
        },
        {
          "indexed": true,
          "internalType": "uint256",
          "name": "tokenId",
          "type": "uint256"
        }
      ],
      "name": "Approval",
      "type": "event"
    },
    {
      "anonymous": false,
      "inputs": [
        {
          "indexed": true,
          "internalType": "address",
          "name": "owner",
          "type": "address"
        },
        {
          "indexed": true,
          "internalType": "address",
          "name": "operator",
          "type": "address"
        },
        {
          "indexed": false,
          "internalType": "bool",
          "name": "approved",
          "type": "bool"
        }
      ],
      "name": "ApprovalForAll",
      "type": "event"
    },
    {
      "anonymous": false,
      "inputs": [
        {
          "indexed": true,
          "internalType": "address",
          "name": "previousOwner",
          "type": "address"
        },
        {
          "indexed": true,
          "internalType": "address",
          "name": "newOwner",
          "type": "address"
        }
      ],
      "name": "OwnershipTransferred",
      "type": "event"
    },
    {
      "anonymous": false,
      "inputs": [
        {
          "indexed": true,
          "internalType": "address",
          "name": "from",
          "type": "address"
        },
        {
          "indexed": true,
          "internalType": "address",
          "name": "to",
          "type": "address"
        },
        {
          "indexed": true,
          "internalType": "uint256",
          "name": "tokenId",
          "type": "uint256"
        }
      ],
      "name": "Transfer",
      "type": "event"
    },
    {
      "inputs": [
        {
          "internalType": "address",
          "name": "to",
          "type": "address"
        },
        {
          "internalType": "uint256",
          "name": "tokenId",
          "type": "uint256"
        }
      ],
      "name": "approve",
      "outputs": [],
      "stateMutability": "nonpayable",
      "type": "function"
    },
    {
      "inputs": [
        {
          "internalType": "address",
          "name": "owner",
          "type": "address"
        }
      ],
      "name": "balanceOf",
      "outputs": [
        {
          "internalType": "uint256",
          "name": "",
          "type": "uint256"
        }
      ],
      "stateMutability": "view",
      "type": "function",
      "constant": true
    },
    {
      "inputs": [
        {
          "internalType": "uint256",
          "name": "tokenId",
          "type": "uint256"
        }
      ],
      "name": "getApproved",
      "outputs": [
        {
          "internalType": "address",
          "name": "",
          "type": "address"
        }
      ],
      "stateMutability": "view",
      "type": "function",
      "constant": true
    },
    {
      "inputs": [
        {
          "internalType": "address",
          "name": "owner",
          "type": "address"
        },
        {
          "internalType": "address",
          "name": "operator",
          "type": "address"
        }
      ],
      "name": "isApprovedForAll",
      "outputs": [
        {
          "internalType": "bool",
          "name": "",
          "type": "bool"
        }
      ],
      "stateMutability": "view",
      "type": "function",
      "constant": true
    },
    {
      "inputs": [],
      "name": "name",
      "outputs": [
        {
          "internalType": "string",
          "name": "",
          "type": "string"
        }
      ],
      "stateMutability": "view",
      "type": "function",
      "constant": true
    },
    {
      "inputs": [],
      "name": "owner",
      "outputs": [
        {
          "internalType": "address",
          "name": "",
          "type": "address"
        }
      ],
      "stateMutability": "view",
      "type": "function",
      "constant": true
    },
    {
      "inputs": [
        {
          "internalType": "uint256",
          "name": "tokenId",
          "type": "uint256"
        }
      ],
      "name": "ownerOf",
      "outputs": [
        {
          "internalType": "address",
          "name": "",
          "type": "address"
        }
      ],
      "stateMutability": "view",
      "type": "function",
      "constant": true
    },
    {
      "inputs": [],
      "name": "renounceOwnership",
      "outputs": [],
      "stateMutability": "nonpayable",
      "type": "function"
    },
    {
      "inputs": [
        {
          "internalType": "address",
          "name": "operator",
          "type": "address"
        },
        {
          "internalType": "bool",
          "name": "approved",
          "type": "bool"
        }
      ],
      "name": "setApprovalForAll",
      "outputs": [],
      "stateMutability": "nonpayable",
      "type": "function"
    },
    {
      "inputs": [
        {
          "internalType": "bytes4",
          "name": "interfaceId",
          "type": "bytes4"
        }
      ],
      "name": "supportsInterface",
      "outputs": [
        {
          "internalType": "bool",
          "name": "",
          "type": "bool"
        }
      ],
      "stateMutability": "view",
      "type": "function",
      "constant": true
    },
    {
      "inputs": [],
      "name": "symbol",
      "outputs": [
        {
          "internalType": "string",
          "name": "",
          "type": "string"
        }
      ],
      "stateMutability": "view",
      "type": "function",
      "constant": true
    },
    {
      "inputs": [
        {
          "internalType": "address",
          "name": "newOwner",
          "type": "address"
        }
      ],
      "name": "transferOwnership",
      "outputs": [],
      "stateMutability": "nonpayable",
      "type": "function"
    },
    {
      "inputs": [
        {
          "internalType": "string",
          "name": "baseURI_",
          "type": "string"
        }
      ],
      "name": "setBaseURI",
      "outputs": [],
      "stateMutability": "nonpayable",
      "type": "function"
    },
    {
      "inputs": [
        {
          "internalType": "uint256",
          "name": "tokenId",
          "type": "uint256"
        }
      ],
      "name": "tokenURI",
      "outputs": [
        {
          "internalType": "string",
          "name": "",
          "type": "string"
        }
      ],
      "stateMutability": "view",
      "type": "function",
      "constant": true
    },
    {
      "inputs": [],
      "name": "getOwnedNFTs",
      "outputs": [
        {
          "internalType": "uint256[]",
          "name": "",
          "type": "uint256[]"
        }
      ],
      "stateMutability": "view",
      "type": "function",
      "constant": true
    },
    {
      "inputs": [
        {
          "internalType": "address",
          "name": "_to",
          "type": "address"
        },
        {
          "internalType": "string",
          "name": "tokenURI_",
          "type": "string"
        }
      ],
      "name": "mint",
      "outputs": [],
      "stateMutability": "nonpayable",
      "type": "function"
    },
    {
      "inputs": [
        {
          "internalType": "uint256",
          "name": "tokenId",
          "type": "uint256"
        }
      ],
      "name": "burn",
      "outputs": [],
      "stateMutability": "nonpayable",
      "type": "function"
    },
    {
      "inputs": [
        {
          "internalType": "address",
          "name": "recipient",
          "type": "address"
        },
        {
          "internalType": "string",
          "name": "hash",
          "type": "string"
        },
        {
          "internalType": "string",
          "name": "metadata",
          "type": "string"
        }
      ],
      "name": "awardItem",
      "outputs": [
        {
          "internalType": "uint256",
          "name": "",
          "type": "uint256"
        }
      ],
      "stateMutability": "nonpayable",
      "type": "function"
    },
    {
      "inputs": [
        {
          "internalType": "address",
          "name": "from",
          "type": "address"
        },
        {
          "internalType": "address",
          "name": "to",
          "type": "address"
        },
        {
          "internalType": "uint256",
          "name": "tokenId",
          "type": "uint256"
        }
      ],
      "name": "safeTransferFrom",
      "outputs": [],
      "stateMutability": "nonpayable",
      "type": "function"
    },
    {
      "inputs": [
        {
          "internalType": "address",
          "name": "from",
          "type": "address"
        },
        {
          "internalType": "address",
          "name": "to",
          "type": "address"
        },
        {
          "internalType": "uint256",
          "name": "tokenId",
          "type": "uint256"
        },
        {
          "internalType": "bytes",
          "name": "_data",
          "type": "bytes"
        }
      ],
      "name": "safeTransferFrom",
      "outputs": [],
      "stateMutability": "nonpayable",
      "type": "function"
    },
    {
      "inputs": [
        {
          "internalType": "address",
          "name": "from",
          "type": "address"
        },
        {
          "internalType": "address",
          "name": "to",
          "type": "address"
        },
        {
          "internalType": "uint256",
          "name": "tokenId",
          "type": "uint256"
        }
      ],
      "name": "transferFrom",
      "outputs": [],
      "stateMutability": "nonpayable",
      "type": "function"
    }
  ],
  "bytecode": "0x60806040523480156200001157600080fd5b506040518060400160405280600c81526020017f566972696469616e204e465400000000000000000000000000000000000000008152506040518060400160405280600481526020017f564e465400000000000000000000000000000000000000000000000000000000815250816000908051906020019062000096929190620001a6565b508060019080519060200190620000af929190620001a6565b505050620000d2620000c6620000d860201b60201c565b620000e060201b60201c565b620002bb565b600033905090565b6000600660009054906101000a900473ffffffffffffffffffffffffffffffffffffffff16905081600660006101000a81548173ffffffffffffffffffffffffffffffffffffffff021916908373ffffffffffffffffffffffffffffffffffffffff1602179055508173ffffffffffffffffffffffffffffffffffffffff168173ffffffffffffffffffffffffffffffffffffffff167f8be0079c531659141344cd1fd0a4f28419497f9722a3daafe3b4186f6b6457e060405160405180910390a35050565b828054620001b49062000256565b90600052602060002090601f016020900481019282620001d8576000855562000224565b82601f10620001f357805160ff191683800117855562000224565b8280016001018555821562000224579182015b828111156200022357825182559160200191906001019062000206565b5b50905062000233919062000237565b5090565b5b808211156200025257600081600090555060010162000238565b5090565b600060028204905060018216806200026f57607f821691505b602082108114156200028657620002856200028c565b5b50919050565b7f4e487b7100000000000000000000000000000000000000000000000000000000600052602260045260246000fd5b613b0f80620002cb6000396000f3fe608060405234801561001057600080fd5b50600436106101375760003560e01c806370a08231116100b8578063a22cb4651161007c578063a22cb4651461033a578063b88d4fde14610356578063c87b56dd14610372578063d0def521146103a2578063e985e9c5146103be578063f2fde38b146103ee57610137565b806370a0823114610294578063715018a6146102c45780638bfaf101146102ce5780638da5cb5b146102fe57806395d89b411461031c57610137565b806342842e0e116100ff57806342842e0e146101f257806342966c681461020e5780634c0eb7d91461022a57806355f804b3146102485780636352211e1461026457610137565b806301ffc9a71461013c57806306fdde031461016c578063081812fc1461018a578063095ea7b3146101ba57806323b872dd146101d6575b600080fd5b61015660048036038101906101519190612992565b61040a565b6040516101639190612ece565b60405180910390f35b6101746104ec565b6040516101819190612ee9565b60405180910390f35b6101a4600480360381019061019f9190612a35565b61057e565b6040516101b19190612e45565b60405180910390f35b6101d460048036038101906101cf9190612952565b610603565b005b6101f060048036038101906101eb9190612755565b61071b565b005b61020c60048036038101906102079190612755565b6109ca565b005b61022860048036038101906102239190612a35565b610ca4565b005b610232610cc3565b60405161023f9190612eac565b60405180910390f35b610262600480360381019061025d91906129ec565b610d5e565b005b61027e60048036038101906102799190612a35565b610df4565b60405161028b9190612e45565b60405180910390f35b6102ae60048036038101906102a991906126e8565b610ea6565b6040516102bb919061312b565b60405180910390f35b6102cc610f5e565b005b6102e860048036038101906102e391906128c7565b610fe6565b6040516102f5919061312b565b60405180910390f35b610306611093565b6040516103139190612e45565b60405180910390f35b6103246110bd565b6040516103319190612ee9565b60405180910390f35b610354600480360381019061034f919061282b565b61114f565b005b610370600480360381019061036b91906127a8565b6112d0565b005b61038c60048036038101906103879190612a35565b611332565b6040516103999190612ee9565b60405180910390f35b6103bc60048036038101906103b7919061286b565b6114a5565b005b6103d860048036038101906103d39190612715565b6115e4565b6040516103e59190612ece565b60405180910390f35b610408600480360381019061040391906126e8565b611678565b005b60007f80ac58cd000000000000000000000000000000000000000000000000000000007bffffffffffffffffffffffffffffffffffffffffffffffffffffffff1916827bffffffffffffffffffffffffffffffffffffffffffffffffffffffff191614806104d557507f5b5e139f000000000000000000000000000000000000000000000000000000007bffffffffffffffffffffffffffffffffffffffffffffffffffffffff1916827bffffffffffffffffffffffffffffffffffffffffffffffffffffffff1916145b806104e557506104e482611770565b5b9050919050565b6060600080546104fb906133ba565b80601f0160208091040260200160405190810160405280929190818152602001828054610527906133ba565b80156105745780601f1061054957610100808354040283529160200191610574565b820191906000526020600020905b81548152906001019060200180831161055757829003601f168201915b5050505050905090565b6000610589826117da565b6105c8576040517f08c379a00000000000000000000000000000000000000000000000000000000081526004016105bf9061304b565b60405180910390fd5b6004600083815260200190815260200160002060009054906101000a900473ffffffffffffffffffffffffffffffffffffffff169050919050565b600061060e82610df4565b90508073ffffffffffffffffffffffffffffffffffffffff168373ffffffffffffffffffffffffffffffffffffffff16141561067f576040517f08c379a0000000000000000000000000000000000000000000000000000000008152600401610676906130eb565b60405180910390fd5b8073ffffffffffffffffffffffffffffffffffffffff1661069e611846565b73ffffffffffffffffffffffffffffffffffffffff1614806106cd57506106cc816106c7611846565b6115e4565b5b61070c576040517f08c379a000000000000000000000000000000000000000000000000000000000815260040161070390612fcb565b60405180910390fd5b610716838361184e565b505050565b60005b600b60003373ffffffffffffffffffffffffffffffffffffffff1673ffffffffffffffffffffffffffffffffffffffff16815260200190815260200160002080549050811015610953576000600b60003373ffffffffffffffffffffffffffffffffffffffff1673ffffffffffffffffffffffffffffffffffffffff16815260200190815260200160002082815481106107bb576107ba613553565b5b906000526020600020015490508281141561093f57600b60003373ffffffffffffffffffffffffffffffffffffffff1673ffffffffffffffffffffffffffffffffffffffff1681526020019081526020016000206001600b60003373ffffffffffffffffffffffffffffffffffffffff1673ffffffffffffffffffffffffffffffffffffffff1681526020019081526020016000208054905061085e91906132d0565b8154811061086f5761086e613553565b5b9060005260206000200154600b60003373ffffffffffffffffffffffffffffffffffffffff1673ffffffffffffffffffffffffffffffffffffffff16815260200190815260200160002083815481106108cb576108ca613553565b5b9060005260206000200181905550600b60003373ffffffffffffffffffffffffffffffffffffffff1673ffffffffffffffffffffffffffffffffffffffff16815260200190815260200160002080548061092857610927613524565b5b600190038181906000526020600020016000905590555b50808061094b9061341d565b91505061071e565b50600b60008373ffffffffffffffffffffffffffffffffffffffff1673ffffffffffffffffffffffffffffffffffffffff1681526020019081526020016000208190806001815401808255809150506001900390600052602060002001600090919091909150556109c5838383611907565b505050565b600a600082815260200190815260200160002060009054906101000a900460ff16156109f557600080fd5b60005b600b60003373ffffffffffffffffffffffffffffffffffffffff1673ffffffffffffffffffffffffffffffffffffffff16815260200190815260200160002080549050811015610c2d576000600b60003373ffffffffffffffffffffffffffffffffffffffff1673ffffffffffffffffffffffffffffffffffffffff1681526020019081526020016000208281548110610a9557610a94613553565b5b9060005260206000200154905082811415610c1957600b60003373ffffffffffffffffffffffffffffffffffffffff1673ffffffffffffffffffffffffffffffffffffffff1681526020019081526020016000206001600b60003373ffffffffffffffffffffffffffffffffffffffff1673ffffffffffffffffffffffffffffffffffffffff16815260200190815260200160002080549050610b3891906132d0565b81548110610b4957610b48613553565b5b9060005260206000200154600b60003373ffffffffffffffffffffffffffffffffffffffff1673ffffffffffffffffffffffffffffffffffffffff1681526020019081526020016000208381548110610ba557610ba4613553565b5b9060005260206000200181905550600b60003373ffffffffffffffffffffffffffffffffffffffff1673ffffffffffffffffffffffffffffffffffffffff168152602001908152602001600020805480610c0257610c01613524565b5b600190038181906000526020600020016000905590555b508080610c259061341d565b9150506109f8565b50600b60008373ffffffffffffffffffffffffffffffffffffffff1673ffffffffffffffffffffffffffffffffffffffff168152602001908152602001600020819080600181540180825580915050600190039060005260206000200160009091909190915055610c9f838383611967565b505050565b610cae3382611987565b610cb757600080fd5b610cc081611a65565b50565b60606000600b60003373ffffffffffffffffffffffffffffffffffffffff1673ffffffffffffffffffffffffffffffffffffffff168152602001908152602001600020805480602002602001604051908101604052809291908181526020018280548015610d5057602002820191906000526020600020905b815481526020019060010190808311610d3c575b505050505090508091505090565b610d66611846565b73ffffffffffffffffffffffffffffffffffffffff16610d84611093565b73ffffffffffffffffffffffffffffffffffffffff1614610dda576040517f08c379a0000000000000000000000000000000000000000000000000000000008152600401610dd19061308b565b60405180910390fd5b80600c9080519060200190610df09291906124fc565b5050565b6000806002600084815260200190815260200160002060009054906101000a900473ffffffffffffffffffffffffffffffffffffffff169050600073ffffffffffffffffffffffffffffffffffffffff168173ffffffffffffffffffffffffffffffffffffffff161415610e9d576040517f08c379a0000000000000000000000000000000000000000000000000000000008152600401610e949061300b565b60405180910390fd5b80915050919050565b60008073ffffffffffffffffffffffffffffffffffffffff168273ffffffffffffffffffffffffffffffffffffffff161415610f17576040517f08c379a0000000000000000000000000000000000000000000000000000000008152600401610f0e90612feb565b60405180910390fd5b600360008373ffffffffffffffffffffffffffffffffffffffff1673ffffffffffffffffffffffffffffffffffffffff168152602001908152602001600020549050919050565b610f66611846565b73ffffffffffffffffffffffffffffffffffffffff16610f84611093565b73ffffffffffffffffffffffffffffffffffffffff1614610fda576040517f08c379a0000000000000000000000000000000000000000000000000000000008152600401610fd19061308b565b60405180910390fd5b610fe46000611b76565b565b60006001600884604051610ffa9190612e0a565b908152602001604051809103902060009054906101000a900460ff1660ff16141561102457600080fd5b60016008846040516110369190612e0a565b908152602001604051809103902060006101000a81548160ff021916908360ff1602179055506110666007611c3c565b60006110726007611c52565b905061107e8582611c60565b6110888184611e2e565b809150509392505050565b6000600660009054906101000a900473ffffffffffffffffffffffffffffffffffffffff16905090565b6060600180546110cc906133ba565b80601f01602080910402602001604051908101604052809291908181526020018280546110f8906133ba565b80156111455780601f1061111a57610100808354040283529160200191611145565b820191906000526020600020905b81548152906001019060200180831161112857829003601f168201915b5050505050905090565b611157611846565b73ffffffffffffffffffffffffffffffffffffffff168273ffffffffffffffffffffffffffffffffffffffff1614156111c5576040517f08c379a00000000000000000000000000000000000000000000000000000000081526004016111bc90612f8b565b60405180910390fd5b80600560006111d2611846565b73ffffffffffffffffffffffffffffffffffffffff1673ffffffffffffffffffffffffffffffffffffffff16815260200190815260200160002060008473ffffffffffffffffffffffffffffffffffffffff1673ffffffffffffffffffffffffffffffffffffffff16815260200190815260200160002060006101000a81548160ff0219169083151502179055508173ffffffffffffffffffffffffffffffffffffffff1661127f611846565b73ffffffffffffffffffffffffffffffffffffffff167f17307eab39ab6107e8899845ad3d59bd9653f200f220920489ca2b5937696c31836040516112c49190612ece565b60405180910390a35050565b6112e16112db611846565b83611987565b611320576040517f08c379a00000000000000000000000000000000000000000000000000000000081526004016113179061310b565b60405180910390fd5b61132c84848484611ea2565b50505050565b606061133d826117da565b61137c576040517f08c379a0000000000000000000000000000000000000000000000000000000008152600401611373906130cb565b60405180910390fd5b600060096000848152602001908152602001600020805461139c906133ba565b80601f01602080910402602001604051908101604052809291908181526020018280546113c8906133ba565b80156114155780601f106113ea57610100808354040283529160200191611415565b820191906000526020600020905b8154815290600101906020018083116113f857829003601f168201915b505050505090506000611426611efe565b905060008151141561143c5781925050506114a0565b600082511115611471578082604051602001611459929190612e21565b604051602081830303815290604052925050506114a0565b8061147b85611f90565b60405160200161148c929190612e21565b604051602081830303815290604052925050505b919050565b6114ad611846565b73ffffffffffffffffffffffffffffffffffffffff166114cb611093565b73ffffffffffffffffffffffffffffffffffffffff1614611521576040517f08c379a00000000000000000000000000000000000000000000000000000000081526004016115189061308b565b60405180910390fd5b61152b6007611c3c565b60006115376007611c52565b90506115438382611c60565b600b60008473ffffffffffffffffffffffffffffffffffffffff1673ffffffffffffffffffffffffffffffffffffffff1681526020019081526020016000208190806001815401808255809150506001900390600052602060002001600090919091909150556000600a600083815260200190815260200160002060006101000a81548160ff0219169083151502179055506115df8183611e2e565b505050565b6000600560008473ffffffffffffffffffffffffffffffffffffffff1673ffffffffffffffffffffffffffffffffffffffff16815260200190815260200160002060008373ffffffffffffffffffffffffffffffffffffffff1673ffffffffffffffffffffffffffffffffffffffff16815260200190815260200160002060009054906101000a900460ff16905092915050565b611680611846565b73ffffffffffffffffffffffffffffffffffffffff1661169e611093565b73ffffffffffffffffffffffffffffffffffffffff16146116f4576040517f08c379a00000000000000000000000000000000000000000000000000000000081526004016116eb9061308b565b60405180910390fd5b600073ffffffffffffffffffffffffffffffffffffffff168173ffffffffffffffffffffffffffffffffffffffff161415611764576040517f08c379a000000000000000000000000000000000000000000000000000000000815260040161175b90612f2b565b60405180910390fd5b61176d81611b76565b50565b60007f01ffc9a7000000000000000000000000000000000000000000000000000000007bffffffffffffffffffffffffffffffffffffffffffffffffffffffff1916827bffffffffffffffffffffffffffffffffffffffffffffffffffffffff1916149050919050565b60008073ffffffffffffffffffffffffffffffffffffffff166002600084815260200190815260200160002060009054906101000a900473ffffffffffffffffffffffffffffffffffffffff1673ffffffffffffffffffffffffffffffffffffffff1614159050919050565b600033905090565b816004600083815260200190815260200160002060006101000a81548173ffffffffffffffffffffffffffffffffffffffff021916908373ffffffffffffffffffffffffffffffffffffffff160217905550808273ffffffffffffffffffffffffffffffffffffffff166118c183610df4565b73ffffffffffffffffffffffffffffffffffffffff167f8c5be1e5ebec7d5bd14f71427d1e84f3dd0314c0f7b2291e5b200ac8c7c3b92560405160405180910390a45050565b611918611912611846565b82611987565b611957576040517f08c379a000000000000000000000000000000000000000000000000000000000815260040161194e9061310b565b60405180910390fd5b6119628383836120f1565b505050565b611982838383604051806020016040528060008152506112d0565b505050565b6000611992826117da565b6119d1576040517f08c379a00000000000000000000000000000000000000000000000000000000081526004016119c890612fab565b60405180910390fd5b60006119dc83610df4565b90508073ffffffffffffffffffffffffffffffffffffffff168473ffffffffffffffffffffffffffffffffffffffff161480611a4b57508373ffffffffffffffffffffffffffffffffffffffff16611a338461057e565b73ffffffffffffffffffffffffffffffffffffffff16145b80611a5c5750611a5b81856115e4565b5b91505092915050565b6000611a7082610df4565b9050611a7e8160008461234d565b611a8960008361184e565b6001600360008373ffffffffffffffffffffffffffffffffffffffff1673ffffffffffffffffffffffffffffffffffffffff1681526020019081526020016000206000828254611ad991906132d0565b925050819055506002600083815260200190815260200160002060006101000a81549073ffffffffffffffffffffffffffffffffffffffff021916905581600073ffffffffffffffffffffffffffffffffffffffff168273ffffffffffffffffffffffffffffffffffffffff167fddf252ad1be2c89b69c2b068fc378daa952ba7f163c4a11628f55a4df523b3ef60405160405180910390a45050565b6000600660009054906101000a900473ffffffffffffffffffffffffffffffffffffffff16905081600660006101000a81548173ffffffffffffffffffffffffffffffffffffffff021916908373ffffffffffffffffffffffffffffffffffffffff1602179055508173ffffffffffffffffffffffffffffffffffffffff168173ffffffffffffffffffffffffffffffffffffffff167f8be0079c531659141344cd1fd0a4f28419497f9722a3daafe3b4186f6b6457e060405160405180910390a35050565b6001816000016000828254019250508190555050565b600081600001549050919050565b600073ffffffffffffffffffffffffffffffffffffffff168273ffffffffffffffffffffffffffffffffffffffff161415611cd0576040517f08c379a0000000000000000000000000000000000000000000000000000000008152600401611cc79061302b565b60405180910390fd5b611cd9816117da565b15611d19576040517f08c379a0000000000000000000000000000000000000000000000000000000008152600401611d1090612f4b565b60405180910390fd5b611d256000838361234d565b6001600360008473ffffffffffffffffffffffffffffffffffffffff1673ffffffffffffffffffffffffffffffffffffffff1681526020019081526020016000206000828254611d759190613249565b92505081905550816002600083815260200190815260200160002060006101000a81548173ffffffffffffffffffffffffffffffffffffffff021916908373ffffffffffffffffffffffffffffffffffffffff160217905550808273ffffffffffffffffffffffffffffffffffffffff16600073ffffffffffffffffffffffffffffffffffffffff167fddf252ad1be2c89b69c2b068fc378daa952ba7f163c4a11628f55a4df523b3ef60405160405180910390a45050565b611e37826117da565b611e76576040517f08c379a0000000000000000000000000000000000000000000000000000000008152600401611e6d9061306b565b60405180910390fd5b80600960008481526020019081526020016000209080519060200190611e9d9291906124fc565b505050565b611ead8484846120f1565b611eb984848484612352565b611ef8576040517f08c379a0000000000000000000000000000000000000000000000000000000008152600401611eef90612f0b565b60405180910390fd5b50505050565b6060600c8054611f0d906133ba565b80601f0160208091040260200160405190810160405280929190818152602001828054611f39906133ba565b8015611f865780601f10611f5b57610100808354040283529160200191611f86565b820191906000526020600020905b815481529060010190602001808311611f6957829003601f168201915b5050505050905090565b60606000821415611fd8576040518060400160405280600181526020017f300000000000000000000000000000000000000000000000000000000000000081525090506120ec565b600082905060005b6000821461200a578080611ff39061341d565b915050600a82612003919061329f565b9150611fe0565b60008167ffffffffffffffff81111561202657612025613582565b5b6040519080825280601f01601f1916602001820160405280156120585781602001600182028036833780820191505090505b5090505b600085146120e55760018261207191906132d0565b9150600a856120809190613466565b603061208c9190613249565b60f81b8183815181106120a2576120a1613553565b5b60200101907effffffffffffffffffffffffffffffffffffffffffffffffffffffffffffff1916908160001a905350600a856120de919061329f565b945061205c565b8093505050505b919050565b8273ffffffffffffffffffffffffffffffffffffffff1661211182610df4565b73ffffffffffffffffffffffffffffffffffffffff1614612167576040517f08c379a000000000000000000000000000000000000000000000000000000000815260040161215e906130ab565b60405180910390fd5b600073ffffffffffffffffffffffffffffffffffffffff168273ffffffffffffffffffffffffffffffffffffffff1614156121d7576040517f08c379a00000000000000000000000000000000000000000000000000000000081526004016121ce90612f6b565b60405180910390fd5b6121e283838361234d565b6121ed60008261184e565b6001600360008573ffffffffffffffffffffffffffffffffffffffff1673ffffffffffffffffffffffffffffffffffffffff168152602001908152602001600020600082825461223d91906132d0565b925050819055506001600360008473ffffffffffffffffffffffffffffffffffffffff1673ffffffffffffffffffffffffffffffffffffffff16815260200190815260200160002060008282546122949190613249565b92505081905550816002600083815260200190815260200160002060006101000a81548173ffffffffffffffffffffffffffffffffffffffff021916908373ffffffffffffffffffffffffffffffffffffffff160217905550808273ffffffffffffffffffffffffffffffffffffffff168473ffffffffffffffffffffffffffffffffffffffff167fddf252ad1be2c89b69c2b068fc378daa952ba7f163c4a11628f55a4df523b3ef60405160405180910390a4505050565b505050565b60006123738473ffffffffffffffffffffffffffffffffffffffff166124e9565b156124dc578373ffffffffffffffffffffffffffffffffffffffff1663150b7a0261239c611846565b8786866040518563ffffffff1660e01b81526004016123be9493929190612e60565b602060405180830381600087803b1580156123d857600080fd5b505af192505050801561240957506040513d601f19601f8201168201806040525081019061240691906129bf565b60015b61248c573d8060008114612439576040519150601f19603f3d011682016040523d82523d6000602084013e61243e565b606091505b50600081511415612484576040517f08c379a000000000000000000000000000000000000000000000000000000000815260040161247b90612f0b565b60405180910390fd5b805181602001fd5b63150b7a0260e01b7bffffffffffffffffffffffffffffffffffffffffffffffffffffffff1916817bffffffffffffffffffffffffffffffffffffffffffffffffffffffff1916149150506124e1565b600190505b949350505050565b600080823b905060008111915050919050565b828054612508906133ba565b90600052602060002090601f01602090048101928261252a5760008555612571565b82601f1061254357805160ff1916838001178555612571565b82800160010185558215612571579182015b82811115612570578251825591602001919060010190612555565b5b50905061257e9190612582565b5090565b5b8082111561259b576000816000905550600101612583565b5090565b60006125b26125ad8461316b565b613146565b9050828152602081018484840111156125ce576125cd6135b6565b5b6125d9848285613378565b509392505050565b60006125f46125ef8461319c565b613146565b9050828152602081018484840111156126105761260f6135b6565b5b61261b848285613378565b509392505050565b60008135905061263281613a7d565b92915050565b60008135905061264781613a94565b92915050565b60008135905061265c81613aab565b92915050565b60008151905061267181613aab565b92915050565b600082601f83011261268c5761268b6135b1565b5b813561269c84826020860161259f565b91505092915050565b600082601f8301126126ba576126b96135b1565b5b81356126ca8482602086016125e1565b91505092915050565b6000813590506126e281613ac2565b92915050565b6000602082840312156126fe576126fd6135c0565b5b600061270c84828501612623565b91505092915050565b6000806040838503121561272c5761272b6135c0565b5b600061273a85828601612623565b925050602061274b85828601612623565b9150509250929050565b60008060006060848603121561276e5761276d6135c0565b5b600061277c86828701612623565b935050602061278d86828701612623565b925050604061279e868287016126d3565b9150509250925092565b600080600080608085870312156127c2576127c16135c0565b5b60006127d087828801612623565b94505060206127e187828801612623565b93505060406127f2878288016126d3565b925050606085013567ffffffffffffffff811115612813576128126135bb565b5b61281f87828801612677565b91505092959194509250565b60008060408385031215612842576128416135c0565b5b600061285085828601612623565b925050602061286185828601612638565b9150509250929050565b60008060408385031215612882576128816135c0565b5b600061289085828601612623565b925050602083013567ffffffffffffffff8111156128b1576128b06135bb565b5b6128bd858286016126a5565b9150509250929050565b6000806000606084860312156128e0576128df6135c0565b5b60006128ee86828701612623565b935050602084013567ffffffffffffffff81111561290f5761290e6135bb565b5b61291b868287016126a5565b925050604084013567ffffffffffffffff81111561293c5761293b6135bb565b5b612948868287016126a5565b9150509250925092565b60008060408385031215612969576129686135c0565b5b600061297785828601612623565b9250506020612988858286016126d3565b9150509250929050565b6000602082840312156129a8576129a76135c0565b5b60006129b68482850161264d565b91505092915050565b6000602082840312156129d5576129d46135c0565b5b60006129e384828501612662565b91505092915050565b600060208284031215612a0257612a016135c0565b5b600082013567ffffffffffffffff811115612a2057612a1f6135bb565b5b612a2c848285016126a5565b91505092915050565b600060208284031215612a4b57612a4a6135c0565b5b6000612a59848285016126d3565b91505092915050565b6000612a6e8383612dec565b60208301905092915050565b612a8381613304565b82525050565b6000612a94826131dd565b612a9e818561320b565b9350612aa9836131cd565b8060005b83811015612ada578151612ac18882612a62565b9750612acc836131fe565b925050600181019050612aad565b5085935050505092915050565b612af081613316565b82525050565b6000612b01826131e8565b612b0b818561321c565b9350612b1b818560208601613387565b612b24816135c5565b840191505092915050565b6000612b3a826131f3565b612b44818561322d565b9350612b54818560208601613387565b612b5d816135c5565b840191505092915050565b6000612b73826131f3565b612b7d818561323e565b9350612b8d818560208601613387565b80840191505092915050565b6000612ba660328361322d565b9150612bb1826135d6565b604082019050919050565b6000612bc960268361322d565b9150612bd482613625565b604082019050919050565b6000612bec601c8361322d565b9150612bf782613674565b602082019050919050565b6000612c0f60248361322d565b9150612c1a8261369d565b604082019050919050565b6000612c3260198361322d565b9150612c3d826136ec565b602082019050919050565b6000612c55602c8361322d565b9150612c6082613715565b604082019050919050565b6000612c7860388361322d565b9150612c8382613764565b604082019050919050565b6000612c9b602a8361322d565b9150612ca6826137b3565b604082019050919050565b6000612cbe60298361322d565b9150612cc982613802565b604082019050919050565b6000612ce160208361322d565b9150612cec82613851565b602082019050919050565b6000612d04602c8361322d565b9150612d0f8261387a565b604082019050919050565b6000612d27602c8361322d565b9150612d32826138c9565b604082019050919050565b6000612d4a60208361322d565b9150612d5582613918565b602082019050919050565b6000612d6d60298361322d565b9150612d7882613941565b604082019050919050565b6000612d90602f8361322d565b9150612d9b82613990565b604082019050919050565b6000612db360218361322d565b9150612dbe826139df565b604082019050919050565b6000612dd660318361322d565b9150612de182613a2e565b604082019050919050565b612df58161336e565b82525050565b612e048161336e565b82525050565b6000612e168284612b68565b915081905092915050565b6000612e2d8285612b68565b9150612e398284612b68565b91508190509392505050565b6000602082019050612e5a6000830184612a7a565b92915050565b6000608082019050612e756000830187612a7a565b612e826020830186612a7a565b612e8f6040830185612dfb565b8181036060830152612ea18184612af6565b905095945050505050565b60006020820190508181036000830152612ec68184612a89565b905092915050565b6000602082019050612ee36000830184612ae7565b92915050565b60006020820190508181036000830152612f038184612b2f565b905092915050565b60006020820190508181036000830152612f2481612b99565b9050919050565b60006020820190508181036000830152612f4481612bbc565b9050919050565b60006020820190508181036000830152612f6481612bdf565b9050919050565b60006020820190508181036000830152612f8481612c02565b9050919050565b60006020820190508181036000830152612fa481612c25565b9050919050565b60006020820190508181036000830152612fc481612c48565b9050919050565b60006020820190508181036000830152612fe481612c6b565b9050919050565b6000602082019050818103600083015261300481612c8e565b9050919050565b6000602082019050818103600083015261302481612cb1565b9050919050565b6000602082019050818103600083015261304481612cd4565b9050919050565b6000602082019050818103600083015261306481612cf7565b9050919050565b6000602082019050818103600083015261308481612d1a565b9050919050565b600060208201905081810360008301526130a481612d3d565b9050919050565b600060208201905081810360008301526130c481612d60565b9050919050565b600060208201905081810360008301526130e481612d83565b9050919050565b6000602082019050818103600083015261310481612da6565b9050919050565b6000602082019050818103600083015261312481612dc9565b9050919050565b60006020820190506131406000830184612dfb565b92915050565b6000613150613161565b905061315c82826133ec565b919050565b6000604051905090565b600067ffffffffffffffff82111561318657613185613582565b5b61318f826135c5565b9050602081019050919050565b600067ffffffffffffffff8211156131b7576131b6613582565b5b6131c0826135c5565b9050602081019050919050565b6000819050602082019050919050565b600081519050919050565b600081519050919050565b600081519050919050565b6000602082019050919050565b600082825260208201905092915050565b600082825260208201905092915050565b600082825260208201905092915050565b600081905092915050565b60006132548261336e565b915061325f8361336e565b9250827fffffffffffffffffffffffffffffffffffffffffffffffffffffffffffffffff0382111561329457613293613497565b5b828201905092915050565b60006132aa8261336e565b91506132b58361336e565b9250826132c5576132c46134c6565b5b828204905092915050565b60006132db8261336e565b91506132e68361336e565b9250828210156132f9576132f8613497565b5b828203905092915050565b600061330f8261334e565b9050919050565b60008115159050919050565b60007fffffffff0000000000000000000000000000000000000000000000000000000082169050919050565b600073ffffffffffffffffffffffffffffffffffffffff82169050919050565b6000819050919050565b82818337600083830152505050565b60005b838110156133a557808201518184015260208101905061338a565b838111156133b4576000848401525b50505050565b600060028204905060018216806133d257607f821691505b602082108114156133e6576133e56134f5565b5b50919050565b6133f5826135c5565b810181811067ffffffffffffffff8211171561341457613413613582565b5b80604052505050565b60006134288261336e565b91507fffffffffffffffffffffffffffffffffffffffffffffffffffffffffffffffff82141561345b5761345a613497565b5b600182019050919050565b60006134718261336e565b915061347c8361336e565b92508261348c5761348b6134c6565b5b828206905092915050565b7f4e487b7100000000000000000000000000000000000000000000000000000000600052601160045260246000fd5b7f4e487b7100000000000000000000000000000000000000000000000000000000600052601260045260246000fd5b7f4e487b7100000000000000000000000000000000000000000000000000000000600052602260045260246000fd5b7f4e487b7100000000000000000000000000000000000000000000000000000000600052603160045260246000fd5b7f4e487b7100000000000000000000000000000000000000000000000000000000600052603260045260246000fd5b7f4e487b7100000000000000000000000000000000000000000000000000000000600052604160045260246000fd5b600080fd5b600080fd5b600080fd5b600080fd5b6000601f19601f8301169050919050565b7f4552433732313a207472616e7366657220746f206e6f6e20455243373231526560008201527f63656976657220696d706c656d656e7465720000000000000000000000000000602082015250565b7f4f776e61626c653a206e6577206f776e657220697320746865207a65726f206160008201527f6464726573730000000000000000000000000000000000000000000000000000602082015250565b7f4552433732313a20746f6b656e20616c7265616479206d696e74656400000000600082015250565b7f4552433732313a207472616e7366657220746f20746865207a65726f2061646460008201527f7265737300000000000000000000000000000000000000000000000000000000602082015250565b7f4552433732313a20617070726f766520746f2063616c6c657200000000000000600082015250565b7f4552433732313a206f70657261746f7220717565727920666f72206e6f6e657860008201527f697374656e7420746f6b656e0000000000000000000000000000000000000000602082015250565b7f4552433732313a20617070726f76652063616c6c6572206973206e6f74206f7760008201527f6e6572206e6f7220617070726f76656420666f7220616c6c0000000000000000602082015250565b7f4552433732313a2062616c616e636520717565727920666f7220746865207a6560008201527f726f206164647265737300000000000000000000000000000000000000000000602082015250565b7f4552433732313a206f776e657220717565727920666f72206e6f6e657869737460008201527f656e7420746f6b656e0000000000000000000000000000000000000000000000602082015250565b7f4552433732313a206d696e7420746f20746865207a65726f2061646472657373600082015250565b7f4552433732313a20617070726f76656420717565727920666f72206e6f6e657860008201527f697374656e7420746f6b656e0000000000000000000000000000000000000000602082015250565b7f4552433732314d657461646174613a2055524920736574206f66206e6f6e657860008201527f697374656e7420746f6b656e0000000000000000000000000000000000000000602082015250565b7f4f776e61626c653a2063616c6c6572206973206e6f7420746865206f776e6572600082015250565b7f4552433732313a207472616e73666572206f6620746f6b656e2074686174206960008201527f73206e6f74206f776e0000000000000000000000000000000000000000000000602082015250565b7f4552433732314d657461646174613a2055524920717565727920666f72206e6f60008201527f6e6578697374656e7420746f6b656e0000000000000000000000000000000000602082015250565b7f4552433732313a20617070726f76616c20746f2063757272656e74206f776e6560008201527f7200000000000000000000000000000000000000000000000000000000000000602082015250565b7f4552433732313a207472616e736665722063616c6c6572206973206e6f74206f60008201527f776e6572206e6f7220617070726f766564000000000000000000000000000000602082015250565b613a8681613304565b8114613a9157600080fd5b50565b613a9d81613316565b8114613aa857600080fd5b50565b613ab481613322565b8114613abf57600080fd5b50565b613acb8161336e565b8114613ad657600080fd5b5056fea2646970667358221220268ab58c985626a411c3a1b5b8da2c8b9ff15fc8d5ebe20e028b572ea8472f8a64736f6c63430008060033",
  "immutableReferences": {},
  "source": "pragma solidity ^0.8.0;\n\nimport \"@openzeppelin/contracts/token/ERC721/ERC721.sol\";\nimport \"@openzeppelin/contracts/utils/Counters.sol\";\nimport \"@openzeppelin/contracts/access/Ownable.sol\";\n\ncontract ViridianNFT is ERC721, Ownable {\n\n    using Counters for Counters.Counter;\n    Counters.Counter private _tokenIds;\n    mapping(string => uint8) hashes;\n    \n    constructor() ERC721(\"Viridian NFT\", \"VNFT\") {}\n\n    using Strings for uint256;\n\n\n    //TODO: Maybe add restrictions to NFT usage when it is listed on the exchange, do not allow ownership transfer \n    // while it is listed for sale or offer to avoid issues with invalid purchasing, or just protect from transactions going through\n    // on exchange, ask someone about this scenario.\n    struct NFT {\n        uint256 id;\n        string uri;\n    }\n    \n    // Optional mapping for token URIs\n    mapping (uint256 => string) private _tokenURIs;\n\n    mapping (uint256 => bool) private _tokensListed;\n\n    mapping (address => uint256[]) private _ownedNFTs;\n\n    //address private viridianExchangeAddress;\n\n    // Base URI\n    string private _baseURIextended;\n\n    // function setExchangeAddress(address ea) public onlyOwner() {\n    //     viridianExchangeAddress = ea;\n    // }\n    \n    function setBaseURI(string memory baseURI_) external onlyOwner() {\n        _baseURIextended = baseURI_;\n    }\n    \n    function _setTokenURI(uint256 tokenId, string memory _tokenURI) internal virtual {\n        require(_exists(tokenId), \"ERC721Metadata: URI set of nonexistent token\");\n        _tokenURIs[tokenId] = _tokenURI;\n    }\n    \n    function _baseURI() internal view virtual override returns (string memory) {\n        return _baseURIextended;\n    }\n    \n    function tokenURI(uint256 tokenId) public view virtual override returns (string memory) {\n        require(_exists(tokenId), \"ERC721Metadata: URI query for nonexistent token\");\n\n        string memory _tokenURI = _tokenURIs[tokenId];\n        string memory base = _baseURI();\n        \n        // If there is no base URI, return the token URI.\n        if (bytes(base).length == 0) {\n            return _tokenURI;\n        }\n        // If both are set, concatenate the baseURI and tokenURI (via abi.encodePacked).\n        if (bytes(_tokenURI).length > 0) {\n            return string(abi.encodePacked(base, _tokenURI));\n        }\n        // If there is a baseURI but no tokenURI, concatenate the tokenID to the baseURI.\n        return string(abi.encodePacked(base, tokenId.toString()));\n    }\n\n    function getOwnedNFTs() public view virtual returns (uint256[] memory) {\n        uint256[] memory _tokens = _ownedNFTs[msg.sender];\n        \n        return _tokens;\n    }\n\n    function mint(\n        address _to,\n        string memory tokenURI_\n    ) external onlyOwner() {\n        _tokenIds.increment();\n        uint256 _tokenId = _tokenIds.current();\n\n        _mint(_to, _tokenId);\n        _ownedNFTs[_to].push(_tokenId);\n        _tokensListed[_tokenId] = false;\n        _setTokenURI(_tokenId, tokenURI_);\n    }\n\n    function burn(uint256 tokenId) public {\n        require(_isApprovedOrOwner(msg.sender, tokenId));\n        _burn(tokenId);\n    }\n\n    function awardItem(address recipient, string memory hash, string memory metadata) public returns (uint256) {\n        require(hashes[hash] != 1);\n        hashes[hash] = 1;\n        _tokenIds.increment();\n        uint256 newItemId = _tokenIds.current();\n        _mint(recipient, newItemId);\n        _setTokenURI(newItemId, metadata);\n        return newItemId;\n    }\n\n    function safeTransferFrom(address from, address to, uint256 tokenId) public override {\n        require(!_tokensListed[tokenId]);\n        for (uint256 i = 0; i < _ownedNFTs[msg.sender].length; i++) {\n            uint256 ownedNFT = _ownedNFTs[msg.sender][i];\n            if (ownedNFT == tokenId) {\n                _ownedNFTs[msg.sender][i] = _ownedNFTs[msg.sender][_ownedNFTs[msg.sender].length - 1];\n                _ownedNFTs[msg.sender].pop();\n            }\n        }\n        _ownedNFTs[to].push(tokenId);\n\n        super.safeTransferFrom(from, to, tokenId);\n    }\n\n    function transferFrom(address from, address to, uint256 tokenId) public override {\n        for (uint256 i = 0; i < _ownedNFTs[msg.sender].length; i++) {\n            uint256 ownedNFT = _ownedNFTs[msg.sender][i];\n            if (ownedNFT == tokenId) {\n                _ownedNFTs[msg.sender][i] = _ownedNFTs[msg.sender][_ownedNFTs[msg.sender].length - 1];\n                _ownedNFTs[msg.sender].pop();\n            }\n        }\n        _ownedNFTs[to].push(tokenId);\n\n        super.transferFrom(from, to, tokenId);\n    }\n}",
  "sourcePath": "/Users/blakehatch/Viridian-Exchange-Contracts/contracts/ViridianNFT.sol",
  "compiler": {
    "name": "solc",
    "version": "0.8.6+commit.11564f7e.Emscripten.clang"
  },
  "schemaVersion": "3.4.1",
  "updatedAt": "2021-08-04T16:02:38.201Z",
  "networkType": "ethereum",
  "devdoc": {
    "kind": "dev",
    "methods": {
      "approve(address,uint256)": {
        "details": "See {IERC721-approve}."
      },
      "balanceOf(address)": {
        "details": "See {IERC721-balanceOf}."
      },
      "getApproved(uint256)": {
        "details": "See {IERC721-getApproved}."
      },
      "isApprovedForAll(address,address)": {
        "details": "See {IERC721-isApprovedForAll}."
      },
      "name()": {
        "details": "See {IERC721Metadata-name}."
      },
      "owner()": {
        "details": "Returns the address of the current owner."
      },
      "ownerOf(uint256)": {
        "details": "See {IERC721-ownerOf}."
      },
      "renounceOwnership()": {
        "details": "Leaves the contract without owner. It will not be possible to call `onlyOwner` functions anymore. Can only be called by the current owner. NOTE: Renouncing ownership will leave the contract without an owner, thereby removing any functionality that is only available to the owner."
      },
      "safeTransferFrom(address,address,uint256)": {
        "details": "See {IERC721-safeTransferFrom}."
      },
      "safeTransferFrom(address,address,uint256,bytes)": {
        "details": "See {IERC721-safeTransferFrom}."
      },
      "setApprovalForAll(address,bool)": {
        "details": "See {IERC721-setApprovalForAll}."
      },
      "supportsInterface(bytes4)": {
        "details": "See {IERC165-supportsInterface}."
      },
      "symbol()": {
        "details": "See {IERC721Metadata-symbol}."
      },
      "tokenURI(uint256)": {
        "details": "See {IERC721Metadata-tokenURI}."
      },
      "transferFrom(address,address,uint256)": {
        "details": "See {IERC721-transferFrom}."
      },
      "transferOwnership(address)": {
        "details": "Transfers ownership of the contract to a new account (`newOwner`). Can only be called by the current owner."
      }
    },
    "version": 1
  },
  "userdoc": {
    "kind": "user",
    "methods": {},
    "version": 1
  }
}