{
  "contractName": "ViridianExchangeOffers",
  "abi": [
    {
      "inputs": [
        {
          "internalType": "address",
          "name": "_viridianToken",
          "type": "address"
        },
        {
          "internalType": "address",
          "name": "_viridianNFT",
          "type": "address"
        },
        {
          "internalType": "address",
          "name": "_viridianPack",
          "type": "address"
        }
      ],
      "stateMutability": "nonpayable",
      "type": "constructor"
    },
    {
      "anonymous": false,
      "inputs": [
        {
          "indexed": false,
          "internalType": "uint256",
          "name": "offerId",
          "type": "uint256"
        },
        {
          "indexed": false,
          "internalType": "address",
          "name": "wallet",
          "type": "address"
        },
        {
          "indexed": false,
          "internalType": "bool",
          "name": "accepted",
          "type": "bool"
        }
      ],
      "name": "AcceptedOffer",
      "type": "event"
    },
    {
      "anonymous": false,
      "inputs": [
        {
          "indexed": false,
          "internalType": "uint256",
          "name": "offerId",
          "type": "uint256"
        },
        {
          "indexed": false,
          "internalType": "address",
          "name": "wallet",
          "type": "address"
        },
        {
          "indexed": false,
          "internalType": "bool",
          "name": "cancelled",
          "type": "bool"
        }
      ],
      "name": "CancelledOffer",
      "type": "event"
    },
    {
      "anonymous": false,
      "inputs": [
        {
          "indexed": false,
          "internalType": "uint256",
          "name": "offerId",
          "type": "uint256"
        },
        {
          "indexed": false,
          "internalType": "address",
          "name": "wallet",
          "type": "address"
        },
        {
          "indexed": false,
          "internalType": "bool",
          "name": "created",
          "type": "bool"
        }
      ],
      "name": "CreatedOffer",
      "type": "event"
    },
    {
      "anonymous": false,
      "inputs": [
        {
          "indexed": true,
          "internalType": "address",
          "name": "previousOwner",
          "type": "address"
        },
        {
          "indexed": true,
          "internalType": "address",
          "name": "newOwner",
          "type": "address"
        }
      ],
      "name": "OwnershipTransferred",
      "type": "event"
    },
    {
      "inputs": [],
      "name": "owner",
      "outputs": [
        {
          "internalType": "address",
          "name": "",
          "type": "address"
        }
      ],
      "stateMutability": "view",
      "type": "function",
      "constant": true
    },
    {
      "inputs": [],
      "name": "renounceOwnership",
      "outputs": [],
      "stateMutability": "nonpayable",
      "type": "function"
    },
    {
      "inputs": [
        {
          "internalType": "address",
          "name": "newOwner",
          "type": "address"
        }
      ],
      "name": "transferOwnership",
      "outputs": [],
      "stateMutability": "nonpayable",
      "type": "function"
    },
    {
      "inputs": [],
      "name": "viridianNFT",
      "outputs": [
        {
          "internalType": "address",
          "name": "",
          "type": "address"
        }
      ],
      "stateMutability": "view",
      "type": "function",
      "constant": true
    },
    {
      "inputs": [],
      "name": "viridianPack",
      "outputs": [
        {
          "internalType": "address",
          "name": "",
          "type": "address"
        }
      ],
      "stateMutability": "view",
      "type": "function",
      "constant": true
    },
    {
      "inputs": [],
      "name": "viridianToken",
      "outputs": [
        {
          "internalType": "address",
          "name": "",
          "type": "address"
        }
      ],
      "stateMutability": "view",
      "type": "function",
      "constant": true
    },
    {
      "stateMutability": "payable",
      "type": "receive",
      "payable": true
    },
    {
      "inputs": [],
      "name": "getOffers",
      "outputs": [
        {
          "internalType": "uint256[]",
          "name": "",
          "type": "uint256[]"
        }
      ],
      "stateMutability": "view",
      "type": "function",
      "constant": true
    },
    {
      "inputs": [
        {
          "internalType": "uint256",
          "name": "_offerId",
          "type": "uint256"
        }
      ],
      "name": "getOffersFromId",
      "outputs": [
        {
          "components": [
            {
              "internalType": "uint256",
              "name": "offerId",
              "type": "uint256"
            },
            {
              "internalType": "uint256[]",
              "name": "toNftIds",
              "type": "uint256[]"
            },
            {
              "internalType": "uint256[]",
              "name": "toPackIds",
              "type": "uint256[]"
            },
            {
              "internalType": "uint256",
              "name": "toAmt",
              "type": "uint256"
            },
            {
              "internalType": "uint256[]",
              "name": "fromNftIds",
              "type": "uint256[]"
            },
            {
              "internalType": "uint256[]",
              "name": "fromPackIds",
              "type": "uint256[]"
            },
            {
              "internalType": "uint256",
              "name": "fromAmt",
              "type": "uint256"
            },
            {
              "internalType": "address payable",
              "name": "to",
              "type": "address"
            },
            {
              "internalType": "address payable",
              "name": "from",
              "type": "address"
            },
            {
              "internalType": "bool",
              "name": "isVEXT",
              "type": "bool"
            },
            {
              "internalType": "bool",
              "name": "pending",
              "type": "bool"
            },
            {
              "internalType": "bool",
              "name": "toAccepted",
              "type": "bool"
            },
            {
              "internalType": "bool",
              "name": "fromAccepted",
              "type": "bool"
            },
            {
              "internalType": "uint256",
              "name": "startTime",
              "type": "uint256"
            },
            {
              "internalType": "uint256",
              "name": "endTime",
              "type": "uint256"
            }
          ],
          "internalType": "struct ViridianExchangeOffers.Offer",
          "name": "",
          "type": "tuple"
        }
      ],
      "stateMutability": "view",
      "type": "function",
      "constant": true
    },
    {
      "inputs": [
        {
          "internalType": "address",
          "name": "_userAddr",
          "type": "address"
        }
      ],
      "name": "getOffersFromUser",
      "outputs": [
        {
          "components": [
            {
              "internalType": "uint256",
              "name": "offerId",
              "type": "uint256"
            },
            {
              "internalType": "uint256[]",
              "name": "toNftIds",
              "type": "uint256[]"
            },
            {
              "internalType": "uint256[]",
              "name": "toPackIds",
              "type": "uint256[]"
            },
            {
              "internalType": "uint256",
              "name": "toAmt",
              "type": "uint256"
            },
            {
              "internalType": "uint256[]",
              "name": "fromNftIds",
              "type": "uint256[]"
            },
            {
              "internalType": "uint256[]",
              "name": "fromPackIds",
              "type": "uint256[]"
            },
            {
              "internalType": "uint256",
              "name": "fromAmt",
              "type": "uint256"
            },
            {
              "internalType": "address payable",
              "name": "to",
              "type": "address"
            },
            {
              "internalType": "address payable",
              "name": "from",
              "type": "address"
            },
            {
              "internalType": "bool",
              "name": "isVEXT",
              "type": "bool"
            },
            {
              "internalType": "bool",
              "name": "pending",
              "type": "bool"
            },
            {
              "internalType": "bool",
              "name": "toAccepted",
              "type": "bool"
            },
            {
              "internalType": "bool",
              "name": "fromAccepted",
              "type": "bool"
            },
            {
              "internalType": "uint256",
              "name": "startTime",
              "type": "uint256"
            },
            {
              "internalType": "uint256",
              "name": "endTime",
              "type": "uint256"
            }
          ],
          "internalType": "struct ViridianExchangeOffers.Offer[]",
          "name": "",
          "type": "tuple[]"
        }
      ],
      "stateMutability": "view",
      "type": "function",
      "constant": true
    },
    {
      "inputs": [
        {
          "internalType": "uint256",
          "name": "_offerId",
          "type": "uint256"
        }
      ],
      "name": "hasOfferExpired",
      "outputs": [
        {
          "internalType": "bool",
          "name": "",
          "type": "bool"
        }
      ],
      "stateMutability": "view",
      "type": "function",
      "constant": true
    },
    {
      "inputs": [
        {
          "internalType": "address payable",
          "name": "_to",
          "type": "address"
        },
        {
          "internalType": "uint256[]",
          "name": "_nftIds",
          "type": "uint256[]"
        },
        {
          "internalType": "uint256[]",
          "name": "_packIds",
          "type": "uint256[]"
        },
        {
          "internalType": "uint256",
          "name": "_amount",
          "type": "uint256"
        },
        {
          "internalType": "uint256[]",
          "name": "_recNftIds",
          "type": "uint256[]"
        },
        {
          "internalType": "uint256[]",
          "name": "_recPackIds",
          "type": "uint256[]"
        },
        {
          "internalType": "uint256",
          "name": "_recAmount",
          "type": "uint256"
        },
        {
          "internalType": "bool",
          "name": "isVEXT",
          "type": "bool"
        },
        {
          "internalType": "uint256",
          "name": "_daysValid",
          "type": "uint256"
        }
      ],
      "name": "makeOffer",
      "outputs": [],
      "stateMutability": "nonpayable",
      "type": "function"
    },
    {
      "inputs": [
        {
          "internalType": "uint256",
          "name": "_offerId",
          "type": "uint256"
        }
      ],
      "name": "cancelOffer",
      "outputs": [],
      "stateMutability": "nonpayable",
      "type": "function"
    },
    {
      "inputs": [
        {
          "internalType": "uint256",
          "name": "_offerId",
          "type": "uint256"
        }
      ],
      "name": "cancelAcceptedETHOffer",
      "outputs": [],
      "stateMutability": "payable",
      "type": "function",
      "payable": true
    },
    {
      "inputs": [
        {
          "internalType": "uint256",
          "name": "_offerId",
          "type": "uint256"
        }
      ],
      "name": "acceptOfferWithVEXT",
      "outputs": [],
      "stateMutability": "nonpayable",
      "type": "function"
    },
    {
      "inputs": [
        {
          "internalType": "uint256",
          "name": "_offerId",
          "type": "uint256"
        }
      ],
      "name": "acceptOfferWithETH",
      "outputs": [],
      "stateMutability": "payable",
      "type": "function",
      "payable": true
    },
    {
      "inputs": [
        {
          "internalType": "uint256",
          "name": "_offerId",
          "type": "uint256"
        }
      ],
      "name": "finalApprovalWithETH",
      "outputs": [],
      "stateMutability": "payable",
      "type": "function",
      "payable": true
    }
  ],
  "bytecode": "0x60806040523480156200001157600080fd5b50604051620060683803806200606883398181016040528101906200003791906200038c565b620000576200004b6200025660201b60201c565b6200025e60201b60201c565b600073ffffffffffffffffffffffffffffffffffffffff168373ffffffffffffffffffffffffffffffffffffffff1614156200009257600080fd5b600073ffffffffffffffffffffffffffffffffffffffff168273ffffffffffffffffffffffffffffffffffffffff161415620000cd57600080fd5b600073ffffffffffffffffffffffffffffffffffffffff168173ffffffffffffffffffffffffffffffffffffffff1614156200010857600080fd5b82600a60006101000a81548173ffffffffffffffffffffffffffffffffffffffff021916908373ffffffffffffffffffffffffffffffffffffffff16021790555081600860006101000a81548173ffffffffffffffffffffffffffffffffffffffff021916908373ffffffffffffffffffffffffffffffffffffffff16021790555080600960006101000a81548173ffffffffffffffffffffffffffffffffffffffff021916908373ffffffffffffffffffffffffffffffffffffffff16021790555081600260006101000a81548173ffffffffffffffffffffffffffffffffffffffff021916908373ffffffffffffffffffffffffffffffffffffffff16021790555080600360006101000a81548173ffffffffffffffffffffffffffffffffffffffff021916908373ffffffffffffffffffffffffffffffffffffffff160217905550505050620003e8565b600033905090565b60008060009054906101000a900473ffffffffffffffffffffffffffffffffffffffff169050816000806101000a81548173ffffffffffffffffffffffffffffffffffffffff021916908373ffffffffffffffffffffffffffffffffffffffff1602179055508173ffffffffffffffffffffffffffffffffffffffff168173ffffffffffffffffffffffffffffffffffffffff167f8be0079c531659141344cd1fd0a4f28419497f9722a3daafe3b4186f6b6457e060405160405180910390a35050565b600080fd5b600073ffffffffffffffffffffffffffffffffffffffff82169050919050565b6000620003548262000327565b9050919050565b620003668162000347565b81146200037257600080fd5b50565b60008151905062000386816200035b565b92915050565b600080600060608486031215620003a857620003a762000322565b5b6000620003b88682870162000375565b9350506020620003cb8682870162000375565b9250506040620003de8682870162000375565b9150509250925092565b615c7080620003f86000396000f3fe6080604052600436106100f75760003560e01c8063aec99da21161008a578063f2f57e9511610059578063f2f57e95146102e4578063f2fde38b1461030f578063fe257afc14610338578063ff1080df14610363576100fe565b8063aec99da214610239578063d382335a14610262578063e48bac9b1461029f578063ef706adf146102bb576100fe565b8063715018a6116100c6578063715018a6146101b057806374ecfaf6146101c75780638da5cb5b146101e35780639a7012881461020e576100fe565b8063273e287e146101035780632da967c11461011f5780633eaf56b0146101485780633ee992ee14610185576100fe565b366100fe57005b600080fd5b61011d6004803603810190610118919061469c565b6103a0565b005b34801561012b57600080fd5b50610146600480360381019061014191906148b8565b61070a565b005b34801561015457600080fd5b5061016f600480360381019061016a919061469c565b610ec4565b60405161017c9190614c26565b60405180910390f35b34801561019157600080fd5b5061019a61119c565b6040516101a79190614cb7565b60405180910390f35b3480156101bc57600080fd5b506101c56111f4565b005b6101e160048036038101906101dc919061469c565b61127c565b005b3480156101ef57600080fd5b506101f86116e3565b6040516102059190614cfa565b60405180910390f35b34801561021a57600080fd5b5061022361170c565b6040516102309190614cfa565b60405180910390f35b34801561024557600080fd5b50610260600480360381019061025b919061469c565b611732565b005b34801561026e57600080fd5b5061028960048036038101906102849190614d41565b611bb7565b6040516102969190614f88565b60405180910390f35b6102b960048036038101906102b4919061469c565b611f00565b005b3480156102c757600080fd5b506102e260048036038101906102dd919061469c565b612446565b005b3480156102f057600080fd5b506102f9612918565b6040516103069190614cfa565b60405180910390f35b34801561031b57600080fd5b5061033660048036038101906103319190614d41565b61293e565b005b34801561034457600080fd5b5061034d612a36565b60405161035a9190614cfa565b60405180910390f35b34801561036f57600080fd5b5061038a6004803603810190610385919061469c565b612a5c565b6040516103979190614fb9565b60405180910390f35b60006005600083815260200190815260200160002090503373ffffffffffffffffffffffffffffffffffffffff168160070160009054906101000a900473ffffffffffffffffffffffffffffffffffffffff1673ffffffffffffffffffffffffffffffffffffffff1614610449576040517f08c379a000000000000000000000000000000000000000000000000000000000815260040161044090615057565b60405180910390fd5b61045282612a5c565b15610492576040517f08c379a0000000000000000000000000000000000000000000000000000000008152600401610489906150c3565b60405180910390fd5b348160060154146104d8576040517f08c379a00000000000000000000000000000000000000000000000000000000081526004016104cf9061517b565b60405180910390fd5b8060080160179054906101000a900460ff161561052a576040517f08c379a00000000000000000000000000000000000000000000000000000000081526004016105219061520d565b60405180910390fd5b8060080160169054906101000a900460ff161561057c576040517f08c379a0000000000000000000000000000000000000000000000000000000008152600401610573906152c5565b60405180910390fd5b60018160080160166101000a81548160ff0219169083151502179055506000600460008360070160009054906101000a900473ffffffffffffffffffffffffffffffffffffffff1673ffffffffffffffffffffffffffffffffffffffff1673ffffffffffffffffffffffffffffffffffffffff16815260200190815260200160002090506000600460008460080160009054906101000a900473ffffffffffffffffffffffffffffffffffffffff1673ffffffffffffffffffffffffffffffffffffffff1673ffffffffffffffffffffffffffffffffffffffff168152602001908152602001600020905060006106738484612ae0565b905060018160080160166101000a81548160ff021916908315150217905550600061069e8584612ae0565b905060018160080160166101000a81548160ff0219169083151502179055506106c685612e49565b7f6e60cb526aec55a6ba5a6dc3ca50f55a218d217233703ba4088b0bf46ca1f3a0863360016040516106fa939291906152f4565b60405180910390a1505050505050565b3373ffffffffffffffffffffffffffffffffffffffff168973ffffffffffffffffffffffffffffffffffffffff16141561074357600080fd5b61074d6001613454565b6000610759600161346a565b90506000620151808361076c919061535a565b4261077791906153b4565b90506000604051806101e001604052808481526020018c81526020018b81526020018a81526020018981526020018881526020018781526020018d73ffffffffffffffffffffffffffffffffffffffff1681526020013373ffffffffffffffffffffffffffffffffffffffff1681526020018615158152602001600115158152602001600015158152602001600015158152602001428152602001838152509050600460008d73ffffffffffffffffffffffffffffffffffffffff1673ffffffffffffffffffffffffffffffffffffffff1681526020019081526020016000208190806001815401808255809150506001900390600052602060002090600b02016000909190919091506000820151816000015560208201518160010190805190602001906108a7929190614146565b5060408201518160020190805190602001906108c4929190614146565b506060820151816003015560808201518160040190805190602001906108eb929190614146565b5060a0820151816005019080519060200190610908929190614146565b5060c0820151816006015560e08201518160070160006101000a81548173ffffffffffffffffffffffffffffffffffffffff021916908373ffffffffffffffffffffffffffffffffffffffff1602179055506101008201518160080160006101000a81548173ffffffffffffffffffffffffffffffffffffffff021916908373ffffffffffffffffffffffffffffffffffffffff1602179055506101208201518160080160146101000a81548160ff0219169083151502179055506101408201518160080160156101000a81548160ff0219169083151502179055506101608201518160080160166101000a81548160ff0219169083151502179055506101808201518160080160176101000a81548160ff0219169083151502179055506101a082015181600901556101c082015181600a01555050600460003373ffffffffffffffffffffffffffffffffffffffff1673ffffffffffffffffffffffffffffffffffffffff1681526020019081526020016000208190806001815401808255809150506001900390600052602060002090600b0201600090919091909150600082015181600001556020820151816001019080519060200190610acd929190614146565b506040820151816002019080519060200190610aea929190614146565b50606082015181600301556080820151816004019080519060200190610b11929190614146565b5060a0820151816005019080519060200190610b2e929190614146565b5060c0820151816006015560e08201518160070160006101000a81548173ffffffffffffffffffffffffffffffffffffffff021916908373ffffffffffffffffffffffffffffffffffffffff1602179055506101008201518160080160006101000a81548173ffffffffffffffffffffffffffffffffffffffff021916908373ffffffffffffffffffffffffffffffffffffffff1602179055506101208201518160080160146101000a81548160ff0219169083151502179055506101408201518160080160156101000a81548160ff0219169083151502179055506101608201518160080160166101000a81548160ff0219169083151502179055506101808201518160080160176101000a81548160ff0219169083151502179055506101a082015181600901556101c082015181600a015550508060056000858152602001908152602001600020600082015181600001556020820151816001019080519060200190610c9e929190614146565b506040820151816002019080519060200190610cbb929190614146565b50606082015181600301556080820151816004019080519060200190610ce2929190614146565b5060a0820151816005019080519060200190610cff929190614146565b5060c0820151816006015560e08201518160070160006101000a81548173ffffffffffffffffffffffffffffffffffffffff021916908373ffffffffffffffffffffffffffffffffffffffff1602179055506101008201518160080160006101000a81548173ffffffffffffffffffffffffffffffffffffffff021916908373ffffffffffffffffffffffffffffffffffffffff1602179055506101208201518160080160146101000a81548160ff0219169083151502179055506101408201518160080160156101000a81548160ff0219169083151502179055506101608201518160080160166101000a81548160ff0219169083151502179055506101808201518160080160176101000a81548160ff0219169083151502179055506101a082015181600901556101c082015181600a0155905050610e5160056000858152602001908152602001600020612e49565b60068390806001815401808255809150506001900390600052602060002001600090919091909150557f0e1e6c2a26cf18d0005bc889ce86850afca20d6269a6a08aefa554b3a154b41c83336001604051610eae939291906152f4565b60405180910390a1505050505050505050505050565b610ecc614193565b60056000838152602001908152602001600020604051806101e00160405290816000820154815260200160018201805480602002602001604051908101604052809291908181526020018280548015610f4457602002820191906000526020600020905b815481526020019060010190808311610f30575b5050505050815260200160028201805480602002602001604051908101604052809291908181526020018280548015610f9c57602002820191906000526020600020905b815481526020019060010190808311610f88575b505050505081526020016003820154815260200160048201805480602002602001604051908101604052809291908181526020018280548015610ffe57602002820191906000526020600020905b815481526020019060010190808311610fea575b505050505081526020016005820180548060200260200160405190810160405280929190818152602001828054801561105657602002820191906000526020600020905b815481526020019060010190808311611042575b50505050508152602001600682015481526020016007820160009054906101000a900473ffffffffffffffffffffffffffffffffffffffff1673ffffffffffffffffffffffffffffffffffffffff1673ffffffffffffffffffffffffffffffffffffffff1681526020016008820160009054906101000a900473ffffffffffffffffffffffffffffffffffffffff1673ffffffffffffffffffffffffffffffffffffffff1673ffffffffffffffffffffffffffffffffffffffff1681526020016008820160149054906101000a900460ff161515151581526020016008820160159054906101000a900460ff161515151581526020016008820160169054906101000a900460ff161515151581526020016008820160179054906101000a900460ff1615151515815260200160098201548152602001600a820154815250509050919050565b606060068054806020026020016040519081016040528092919081815260200182805480156111ea57602002820191906000526020600020905b8154815260200190600101908083116111d6575b5050505050905090565b6111fc613478565b73ffffffffffffffffffffffffffffffffffffffff1661121a6116e3565b73ffffffffffffffffffffffffffffffffffffffff1614611270576040517f08c379a000000000000000000000000000000000000000000000000000000000815260040161126790615456565b60405180910390fd5b61127a6000613480565b565b60006005600083815260200190815260200160002090503373ffffffffffffffffffffffffffffffffffffffff168160080160009054906101000a900473ffffffffffffffffffffffffffffffffffffffff1673ffffffffffffffffffffffffffffffffffffffff1614611325576040517f08c379a000000000000000000000000000000000000000000000000000000000815260040161131c906154e8565b60405180910390fd5b8060080160169054906101000a900460ff16611376576040517f08c379a000000000000000000000000000000000000000000000000000000000815260040161136d9061557a565b60405180910390fd5b8060080160179054906101000a900460ff16156113c8576040517f08c379a00000000000000000000000000000000000000000000000000000000081526004016113bf9061560c565b60405180910390fd5b6113d182612a5c565b15611411576040517f08c379a0000000000000000000000000000000000000000000000000000000008152600401611408906150c3565b60405180910390fd5b60008160080160156101000a81548160ff02191690831515021790555060018160080160176101000a81548160ff0219169083151502179055506000600460008360070160009054906101000a900473ffffffffffffffffffffffffffffffffffffffff1673ffffffffffffffffffffffffffffffffffffffff1673ffffffffffffffffffffffffffffffffffffffff16815260200190815260200160002090506000600460008460080160009054906101000a900473ffffffffffffffffffffffffffffffffffffffff1673ffffffffffffffffffffffffffffffffffffffff1673ffffffffffffffffffffffffffffffffffffffff168152602001908152602001600020905060006115258484612ae0565b905060018160080160176101000a81548160ff02191690831515021790555060008160080160156101000a81548160ff021916908315150217905550600061156d8584612ae0565b905060018160080160176101000a81548160ff02191690831515021790555060008160080160156101000a81548160ff0219169083151502179055506115b285612e49565b8460080160009054906101000a900473ffffffffffffffffffffffffffffffffffffffff1673ffffffffffffffffffffffffffffffffffffffff166108fc86600601549081150290604051600060405180830381858888f19350505050158015611620573d6000803e3d6000fd5b5034856003015414611667576040517f08c379a000000000000000000000000000000000000000000000000000000000815260040161165e9061569e565b60405180910390fd5b8460070160009054906101000a900473ffffffffffffffffffffffffffffffffffffffff1673ffffffffffffffffffffffffffffffffffffffff166108fc349081150290604051600060405180830381858888f193505050501580156116d1573d6000803e3d6000fd5b506116db85613544565b505050505050565b60008060009054906101000a900473ffffffffffffffffffffffffffffffffffffffff16905090565b600860009054906101000a900473ffffffffffffffffffffffffffffffffffffffff1681565b60006005600083815260200190815260200160002090503373ffffffffffffffffffffffffffffffffffffffff168160070160009054906101000a900473ffffffffffffffffffffffffffffffffffffffff1673ffffffffffffffffffffffffffffffffffffffff16146117db576040517f08c379a00000000000000000000000000000000000000000000000000000000081526004016117d290615057565b60405180910390fd5b6117e482612a5c565b15611824576040517f08c379a000000000000000000000000000000000000000000000000000000000815260040161181b906150c3565b60405180910390fd5b60008160080160156101000a81548160ff0219169083151502179055506000600460008360070160009054906101000a900473ffffffffffffffffffffffffffffffffffffffff1673ffffffffffffffffffffffffffffffffffffffff1673ffffffffffffffffffffffffffffffffffffffff16815260200190815260200160002090506000600460008460080160009054906101000a900473ffffffffffffffffffffffffffffffffffffffff1673ffffffffffffffffffffffffffffffffffffffff1673ffffffffffffffffffffffffffffffffffffffff1681526020019081526020016000209050600061191b8484612ae0565b905060008160080160156101000a81548160ff02191690831515021790555060006119468584612ae0565b905060008160080160156101000a81548160ff02191690831515021790555061196e85612e49565b600a60009054906101000a900473ffffffffffffffffffffffffffffffffffffffff1673ffffffffffffffffffffffffffffffffffffffff166323b872dd8660080160009054906101000a900473ffffffffffffffffffffffffffffffffffffffff168760070160009054906101000a900473ffffffffffffffffffffffffffffffffffffffff1688600301546040518463ffffffff1660e01b8152600401611a199392919061571d565b602060405180830381600087803b158015611a3357600080fd5b505af1158015611a47573d6000803e3d6000fd5b505050506040513d601f19601f82011682018060405250810190611a6b9190615769565b50600a60009054906101000a900473ffffffffffffffffffffffffffffffffffffffff1673ffffffffffffffffffffffffffffffffffffffff166323b872dd8660070160009054906101000a900473ffffffffffffffffffffffffffffffffffffffff168760080160009054906101000a900473ffffffffffffffffffffffffffffffffffffffff1688600601546040518463ffffffff1660e01b8152600401611b179392919061571d565b602060405180830381600087803b158015611b3157600080fd5b505af1158015611b45573d6000803e3d6000fd5b505050506040513d601f19601f82011682018060405250810190611b699190615769565b50611b7385613544565b7f6e60cb526aec55a6ba5a6dc3ca50f55a218d217233703ba4088b0bf46ca1f3a086336001604051611ba7939291906152f4565b60405180910390a1505050505050565b6060600460008373ffffffffffffffffffffffffffffffffffffffff1673ffffffffffffffffffffffffffffffffffffffff168152602001908152602001600020805480602002602001604051908101604052809291908181526020016000905b82821015611ef557838290600052602060002090600b0201604051806101e00160405290816000820154815260200160018201805480602002602001604051908101604052809291908181526020018280548015611c9557602002820191906000526020600020905b815481526020019060010190808311611c81575b5050505050815260200160028201805480602002602001604051908101604052809291908181526020018280548015611ced57602002820191906000526020600020905b815481526020019060010190808311611cd9575b505050505081526020016003820154815260200160048201805480602002602001604051908101604052809291908181526020018280548015611d4f57602002820191906000526020600020905b815481526020019060010190808311611d3b575b5050505050815260200160058201805480602002602001604051908101604052809291908181526020018280548015611da757602002820191906000526020600020905b815481526020019060010190808311611d93575b50505050508152602001600682015481526020016007820160009054906101000a900473ffffffffffffffffffffffffffffffffffffffff1673ffffffffffffffffffffffffffffffffffffffff1673ffffffffffffffffffffffffffffffffffffffff1681526020016008820160009054906101000a900473ffffffffffffffffffffffffffffffffffffffff1673ffffffffffffffffffffffffffffffffffffffff1673ffffffffffffffffffffffffffffffffffffffff1681526020016008820160149054906101000a900460ff161515151581526020016008820160159054906101000a900460ff161515151581526020016008820160169054906101000a900460ff161515151581526020016008820160179054906101000a900460ff1615151515815260200160098201548152602001600a8201548152505081526020019060010190611c18565b505050509050919050565b60006005600083815260200190815260200160002090503373ffffffffffffffffffffffffffffffffffffffff168160080160009054906101000a900473ffffffffffffffffffffffffffffffffffffffff1673ffffffffffffffffffffffffffffffffffffffff161480611fc457503373ffffffffffffffffffffffffffffffffffffffff168160070160009054906101000a900473ffffffffffffffffffffffffffffffffffffffff1673ffffffffffffffffffffffffffffffffffffffff16145b611fcd57600080fd5b611fd682612a5c565b15612016576040517f08c379a000000000000000000000000000000000000000000000000000000000815260040161200d906150c3565b60405180910390fd5b8060080160179054906101000a900460ff1615612068576040517f08c379a000000000000000000000000000000000000000000000000000000000815260040161205f90615808565b60405180910390fd5b8060080160169054906101000a900460ff166120b9576040517f08c379a00000000000000000000000000000000000000000000000000000000081526004016120b09061589a565b60405180910390fd5b348160060154146120ff576040517f08c379a00000000000000000000000000000000000000000000000000000000081526004016120f69061592c565b60405180910390fd5b8060070160009054906101000a900473ffffffffffffffffffffffffffffffffffffffff1673ffffffffffffffffffffffffffffffffffffffff166108fc82600601549081150290604051600060405180830381858888f1935050505015801561216d573d6000803e3d6000fd5b506000600460008360070160009054906101000a900473ffffffffffffffffffffffffffffffffffffffff1673ffffffffffffffffffffffffffffffffffffffff1673ffffffffffffffffffffffffffffffffffffffff16815260200190815260200160002090506000600460008460080160009054906101000a900473ffffffffffffffffffffffffffffffffffffffff1673ffffffffffffffffffffffffffffffffffffffff1673ffffffffffffffffffffffffffffffffffffffff168152602001908152602001600020905061224683836139c3565b61225083826139c3565b60005b600680549050811015612323576000600682815481106122765761227561594c565b5b90600052602060002001549050846000015481141561230f57600660016006805490506122a3919061597b565b815481106122b4576122b361594c565b5b9060005260206000200154600683815481106122d3576122d261594c565b5b906000526020600020018190555060068054806122f3576122f26159af565b5b6001900381819060005260206000200160009055905550612323565b50808061231b906159de565b915050612253565b5060056000858152602001908152602001600020600080820160009055600182016000612350919061423d565b600282016000612360919061423d565b6003820160009055600482016000612378919061423d565b600582016000612388919061423d565b60068201600090556007820160006101000a81549073ffffffffffffffffffffffffffffffffffffffff02191690556008820160006101000a81549073ffffffffffffffffffffffffffffffffffffffff02191690556008820160146101000a81549060ff02191690556008820160156101000a81549060ff02191690556008820160166101000a81549060ff02191690556008820160176101000a81549060ff02191690556009820160009055600a820160009055505050505050565b60006005600083815260200190815260200160002090503373ffffffffffffffffffffffffffffffffffffffff168160080160009054906101000a900473ffffffffffffffffffffffffffffffffffffffff1673ffffffffffffffffffffffffffffffffffffffff16148061250a57503373ffffffffffffffffffffffffffffffffffffffff168160070160009054906101000a900473ffffffffffffffffffffffffffffffffffffffff1673ffffffffffffffffffffffffffffffffffffffff16145b61251357600080fd5b61251c82612a5c565b1561255c576040517f08c379a0000000000000000000000000000000000000000000000000000000008152600401612553906150c3565b60405180910390fd5b8060080160179054906101000a900460ff16156125ae576040517f08c379a00000000000000000000000000000000000000000000000000000000081526004016125a590615808565b60405180910390fd5b8060080160169054906101000a900460ff1615612600576040517f08c379a00000000000000000000000000000000000000000000000000000000081526004016125f79061589a565b60405180910390fd5b6000600460008360070160009054906101000a900473ffffffffffffffffffffffffffffffffffffffff1673ffffffffffffffffffffffffffffffffffffffff1673ffffffffffffffffffffffffffffffffffffffff16815260200190815260200160002090506000600460008460080160009054906101000a900473ffffffffffffffffffffffffffffffffffffffff1673ffffffffffffffffffffffffffffffffffffffff1673ffffffffffffffffffffffffffffffffffffffff16815260200190815260200160002090506126d883836139c3565b6126e283826139c3565b60005b6006805490508110156127b5576000600682815481106127085761270761594c565b5b9060005260206000200154905084600001548114156127a15760066001600680549050612735919061597b565b815481106127465761274561594c565b5b9060005260206000200154600683815481106127655761276461594c565b5b90600052602060002001819055506006805480612785576127846159af565b5b60019003818190600052602060002001600090559055506127b5565b5080806127ad906159de565b9150506126e5565b50600560008581526020019081526020016000206000808201600090556001820160006127e2919061423d565b6002820160006127f2919061423d565b600382016000905560048201600061280a919061423d565b60058201600061281a919061423d565b60068201600090556007820160006101000a81549073ffffffffffffffffffffffffffffffffffffffff02191690556008820160006101000a81549073ffffffffffffffffffffffffffffffffffffffff02191690556008820160146101000a81549060ff02191690556008820160156101000a81549060ff02191690556008820160166101000a81549060ff02191690556008820160176101000a81549060ff02191690556009820160009055600a82016000905550507fa79cbd780b972df9dc5822d85a863fda61705b34f061ccf817936889652190ca836000015433600160405161290a939291906152f4565b60405180910390a150505050565b600a60009054906101000a900473ffffffffffffffffffffffffffffffffffffffff1681565b612946613478565b73ffffffffffffffffffffffffffffffffffffffff166129646116e3565b73ffffffffffffffffffffffffffffffffffffffff16146129ba576040517f08c379a00000000000000000000000000000000000000000000000000000000081526004016129b190615456565b60405180910390fd5b600073ffffffffffffffffffffffffffffffffffffffff168173ffffffffffffffffffffffffffffffffffffffff161415612a2a576040517f08c379a0000000000000000000000000000000000000000000000000000000008152600401612a2190615a99565b60405180910390fd5b612a3381613480565b50565b600960009054906101000a900473ffffffffffffffffffffffffffffffffffffffff1681565b6000806005600084815260200190815260200160002090508060080160169054906101000a900460ff168015612aa157508060080160179054906101000a900460ff16155b15612ab0576000915050612adb565b8060080160159054906101000a900460ff16612ad0576001915050612adb565b4281600a0154109150505b919050565b600080600090505b8280549050811015612e1d576000838281548110612b0957612b0861594c565b5b90600052602060002090600b0201604051806101e00160405290816000820154815260200160018201805480602002602001604051908101604052809291908181526020018280548015612b7c57602002820191906000526020600020905b815481526020019060010190808311612b68575b5050505050815260200160028201805480602002602001604051908101604052809291908181526020018280548015612bd457602002820191906000526020600020905b815481526020019060010190808311612bc0575b505050505081526020016003820154815260200160048201805480602002602001604051908101604052809291908181526020018280548015612c3657602002820191906000526020600020905b815481526020019060010190808311612c22575b5050505050815260200160058201805480602002602001604051908101604052809291908181526020018280548015612c8e57602002820191906000526020600020905b815481526020019060010190808311612c7a575b50505050508152602001600682015481526020016007820160009054906101000a900473ffffffffffffffffffffffffffffffffffffffff1673ffffffffffffffffffffffffffffffffffffffff1673ffffffffffffffffffffffffffffffffffffffff1681526020016008820160009054906101000a900473ffffffffffffffffffffffffffffffffffffffff1673ffffffffffffffffffffffffffffffffffffffff1673ffffffffffffffffffffffffffffffffffffffff1681526020016008820160149054906101000a900460ff161515151581526020016008820160159054906101000a900460ff161515151581526020016008820160169054906101000a900460ff161515151581526020016008820160179054906101000a900460ff1615151515815260200160098201548152602001600a820154815250509050846000015481600001511415612e0957838281548110612df257612df161594c565b5b90600052602060002090600b020192505050612e43565b508080612e15906159de565b915050612ae8565b5081600081548110612e3257612e3161594c565b5b90600052602060002090600b020190505b92915050565b60005b8160010180549050811015612fca578160080160009054906101000a900473ffffffffffffffffffffffffffffffffffffffff1673ffffffffffffffffffffffffffffffffffffffff16600860009054906101000a900473ffffffffffffffffffffffffffffffffffffffff1673ffffffffffffffffffffffffffffffffffffffff16636352211e846001018481548110612eea57612ee961594c565b5b90600052602060002001546040518263ffffffff1660e01b8152600401612f119190615ab9565b60206040518083038186803b158015612f2957600080fd5b505afa158015612f3d573d6000803e3d6000fd5b505050506040513d601f19601f82011682018060405250810190612f619190615ae9565b73ffffffffffffffffffffffffffffffffffffffff1614612fb7576040517f08c379a0000000000000000000000000000000000000000000000000000000008152600401612fae90615b88565b60405180910390fd5b8080612fc2906159de565b915050612e4c565b5060005b816004018054905081101561314c578160070160009054906101000a900473ffffffffffffffffffffffffffffffffffffffff1673ffffffffffffffffffffffffffffffffffffffff16600860009054906101000a900473ffffffffffffffffffffffffffffffffffffffff1673ffffffffffffffffffffffffffffffffffffffff16636352211e84600401848154811061306c5761306b61594c565b5b90600052602060002001546040518263ffffffff1660e01b81526004016130939190615ab9565b60206040518083038186803b1580156130ab57600080fd5b505afa1580156130bf573d6000803e3d6000fd5b505050506040513d601f19601f820116820180604052508101906130e39190615ae9565b73ffffffffffffffffffffffffffffffffffffffff1614613139576040517f08c379a000000000000000000000000000000000000000000000000000000000815260040161313090615c1a565b60405180910390fd5b8080613144906159de565b915050612fce565b5060005b81600201805490508110156132ce578160080160009054906101000a900473ffffffffffffffffffffffffffffffffffffffff1673ffffffffffffffffffffffffffffffffffffffff16600960009054906101000a900473ffffffffffffffffffffffffffffffffffffffff1673ffffffffffffffffffffffffffffffffffffffff16636352211e8460020184815481106131ee576131ed61594c565b5b90600052602060002001546040518263ffffffff1660e01b81526004016132159190615ab9565b60206040518083038186803b15801561322d57600080fd5b505afa158015613241573d6000803e3d6000fd5b505050506040513d601f19601f820116820180604052508101906132659190615ae9565b73ffffffffffffffffffffffffffffffffffffffff16146132bb576040517f08c379a00000000000000000000000000000000000000000000000000000000081526004016132b290615b88565b60405180910390fd5b80806132c6906159de565b915050613150565b5060005b8160050180549050811015613450578160070160009054906101000a900473ffffffffffffffffffffffffffffffffffffffff1673ffffffffffffffffffffffffffffffffffffffff16600960009054906101000a900473ffffffffffffffffffffffffffffffffffffffff1673ffffffffffffffffffffffffffffffffffffffff16636352211e8460050184815481106133705761336f61594c565b5b90600052602060002001546040518263ffffffff1660e01b81526004016133979190615ab9565b60206040518083038186803b1580156133af57600080fd5b505afa1580156133c3573d6000803e3d6000fd5b505050506040513d601f19601f820116820180604052508101906133e79190615ae9565b73ffffffffffffffffffffffffffffffffffffffff161461343d576040517f08c379a000000000000000000000000000000000000000000000000000000000815260040161343490615c1a565b60405180910390fd5b8080613448906159de565b9150506132d2565b5050565b6001816000016000828254019250508190555050565b600081600001549050919050565b600033905090565b60008060009054906101000a900473ffffffffffffffffffffffffffffffffffffffff169050816000806101000a81548173ffffffffffffffffffffffffffffffffffffffff021916908373ffffffffffffffffffffffffffffffffffffffff1602179055508173ffffffffffffffffffffffffffffffffffffffff168173ffffffffffffffffffffffffffffffffffffffff167f8be0079c531659141344cd1fd0a4f28419497f9722a3daafe3b4186f6b6457e060405160405180910390a35050565b60005b816001018054905081101561366257600860009054906101000a900473ffffffffffffffffffffffffffffffffffffffff1673ffffffffffffffffffffffffffffffffffffffff166342842e0e8360080160009054906101000a900473ffffffffffffffffffffffffffffffffffffffff168460070160009054906101000a900473ffffffffffffffffffffffffffffffffffffffff168560010185815481106135f4576135f361594c565b5b90600052602060002001546040518463ffffffff1660e01b815260040161361d9392919061571d565b600060405180830381600087803b15801561363757600080fd5b505af115801561364b573d6000803e3d6000fd5b50505050808061365a906159de565b915050613547565b5060005b816004018054905081101561378157600860009054906101000a900473ffffffffffffffffffffffffffffffffffffffff1673ffffffffffffffffffffffffffffffffffffffff166342842e0e8360070160009054906101000a900473ffffffffffffffffffffffffffffffffffffffff168460080160009054906101000a900473ffffffffffffffffffffffffffffffffffffffff168560040185815481106137135761371261594c565b5b90600052602060002001546040518463ffffffff1660e01b815260040161373c9392919061571d565b600060405180830381600087803b15801561375657600080fd5b505af115801561376a573d6000803e3d6000fd5b505050508080613779906159de565b915050613666565b5060005b81600201805490508110156138a057600960009054906101000a900473ffffffffffffffffffffffffffffffffffffffff1673ffffffffffffffffffffffffffffffffffffffff166342842e0e8360080160009054906101000a900473ffffffffffffffffffffffffffffffffffffffff168460070160009054906101000a900473ffffffffffffffffffffffffffffffffffffffff168560020185815481106138325761383161594c565b5b90600052602060002001546040518463ffffffff1660e01b815260040161385b9392919061571d565b600060405180830381600087803b15801561387557600080fd5b505af1158015613889573d6000803e3d6000fd5b505050508080613898906159de565b915050613785565b5060005b81600501805490508110156139bf57600960009054906101000a900473ffffffffffffffffffffffffffffffffffffffff1673ffffffffffffffffffffffffffffffffffffffff166342842e0e8360070160009054906101000a900473ffffffffffffffffffffffffffffffffffffffff168460080160009054906101000a900473ffffffffffffffffffffffffffffffffffffffff168560050185815481106139515761395061594c565b5b90600052602060002001546040518463ffffffff1660e01b815260040161397a9392919061571d565b600060405180830381600087803b15801561399457600080fd5b505af11580156139a8573d6000803e3d6000fd5b5050505080806139b7906159de565b9150506138a4565b5050565b60005b81805490508110156141415760008282815481106139e7576139e661594c565b5b90600052602060002090600b0201604051806101e00160405290816000820154815260200160018201805480602002602001604051908101604052809291908181526020018280548015613a5a57602002820191906000526020600020905b815481526020019060010190808311613a46575b5050505050815260200160028201805480602002602001604051908101604052809291908181526020018280548015613ab257602002820191906000526020600020905b815481526020019060010190808311613a9e575b505050505081526020016003820154815260200160048201805480602002602001604051908101604052809291908181526020018280548015613b1457602002820191906000526020600020905b815481526020019060010190808311613b00575b5050505050815260200160058201805480602002602001604051908101604052809291908181526020018280548015613b6c57602002820191906000526020600020905b815481526020019060010190808311613b58575b50505050508152602001600682015481526020016007820160009054906101000a900473ffffffffffffffffffffffffffffffffffffffff1673ffffffffffffffffffffffffffffffffffffffff1673ffffffffffffffffffffffffffffffffffffffff1681526020016008820160009054906101000a900473ffffffffffffffffffffffffffffffffffffffff1673ffffffffffffffffffffffffffffffffffffffff1673ffffffffffffffffffffffffffffffffffffffff1681526020016008820160149054906101000a900460ff161515151581526020016008820160159054906101000a900460ff161515151581526020016008820160169054906101000a900460ff161515151581526020016008820160179054906101000a900460ff1615151515815260200160098201548152602001600a82015481525050905083600001548160000151141561412d578260018480549050613ccf919061597b565b81548110613ce057613cdf61594c565b5b90600052602060002090600b0201838381548110613d0157613d0061594c565b5b90600052602060002090600b0201600082015481600001556001820181600101908054613d2f92919061425e565b506002820181600201908054613d4692919061425e565b50600382015481600301556004820181600401908054613d6792919061425e565b506005820181600501908054613d7e92919061425e565b50600682015481600601556007820160009054906101000a900473ffffffffffffffffffffffffffffffffffffffff168160070160006101000a81548173ffffffffffffffffffffffffffffffffffffffff021916908373ffffffffffffffffffffffffffffffffffffffff1602179055506008820160009054906101000a900473ffffffffffffffffffffffffffffffffffffffff168160080160006101000a81548173ffffffffffffffffffffffffffffffffffffffff021916908373ffffffffffffffffffffffffffffffffffffffff1602179055506008820160149054906101000a900460ff168160080160146101000a81548160ff0219169083151502179055506008820160159054906101000a900460ff168160080160156101000a81548160ff0219169083151502179055506008820160169054906101000a900460ff168160080160166101000a81548160ff0219169083151502179055506008820160179054906101000a900460ff168160080160176101000a81548160ff02191690831515021790555060098201548160090155600a82015481600a015590505082600460008660070160009054906101000a900473ffffffffffffffffffffffffffffffffffffffff1673ffffffffffffffffffffffffffffffffffffffff1673ffffffffffffffffffffffffffffffffffffffff168152602001908152602001600020908054613f949291906142b0565b50600460008560070160009054906101000a900473ffffffffffffffffffffffffffffffffffffffff1673ffffffffffffffffffffffffffffffffffffffff1673ffffffffffffffffffffffffffffffffffffffff168152602001908152602001600020805480614008576140076159af565b5b60019003818190600052602060002090600b0201600080820160009055600182016000614035919061423d565b600282016000614045919061423d565b600382016000905560048201600061405d919061423d565b60058201600061406d919061423d565b60068201600090556007820160006101000a81549073ffffffffffffffffffffffffffffffffffffffff02191690556008820160006101000a81549073ffffffffffffffffffffffffffffffffffffffff02191690556008820160146101000a81549060ff02191690556008820160156101000a81549060ff02191690556008820160166101000a81549060ff02191690556008820160176101000a81549060ff02191690556009820160009055600a8201600090555050905550614141565b508080614139906159de565b9150506139c6565b505050565b828054828255906000526020600020908101928215614182579160200282015b82811115614181578251825591602001919060010190614166565b5b50905061418f9190614518565b5090565b604051806101e0016040528060008152602001606081526020016060815260200160008152602001606081526020016060815260200160008152602001600073ffffffffffffffffffffffffffffffffffffffff168152602001600073ffffffffffffffffffffffffffffffffffffffff16815260200160001515815260200160001515815260200160001515815260200160001515815260200160008152602001600081525090565b508054600082559060005260206000209081019061425b9190614518565b50565b82805482825590600052602060002090810192821561429f5760005260206000209182015b8281111561429e578254825591600101919060010190614283565b5b5090506142ac9190614518565b5090565b82805482825590600052602060002090600b02810192821561450757600052602060002091600b0282015b8281111561450657828260008201548160000155600182018160010190805461430592919061425e565b50600282018160020190805461431c92919061425e565b5060038201548160030155600482018160040190805461433d92919061425e565b50600582018160050190805461435492919061425e565b50600682015481600601556007820160009054906101000a900473ffffffffffffffffffffffffffffffffffffffff168160070160006101000a81548173ffffffffffffffffffffffffffffffffffffffff021916908373ffffffffffffffffffffffffffffffffffffffff1602179055506008820160009054906101000a900473ffffffffffffffffffffffffffffffffffffffff168160080160006101000a81548173ffffffffffffffffffffffffffffffffffffffff021916908373ffffffffffffffffffffffffffffffffffffffff1602179055506008820160149054906101000a900460ff168160080160146101000a81548160ff0219169083151502179055506008820160159054906101000a900460ff168160080160156101000a81548160ff0219169083151502179055506008820160169054906101000a900460ff168160080160166101000a81548160ff0219169083151502179055506008820160179054906101000a900460ff168160080160176101000a81548160ff02191690831515021790555060098201548160090155600a82015481600a0155505091600b019190600b01906142db565b5b5090506145149190614535565b5090565b5b80821115614531576000816000905550600101614519565b5090565b5b8082111561464e57600080820160009055600182016000614557919061423d565b600282016000614567919061423d565b600382016000905560048201600061457f919061423d565b60058201600061458f919061423d565b60068201600090556007820160006101000a81549073ffffffffffffffffffffffffffffffffffffffff02191690556008820160006101000a81549073ffffffffffffffffffffffffffffffffffffffff02191690556008820160146101000a81549060ff02191690556008820160156101000a81549060ff02191690556008820160166101000a81549060ff02191690556008820160176101000a81549060ff02191690556009820160009055600a82016000905550600b01614536565b5090565b6000604051905090565b600080fd5b600080fd5b6000819050919050565b61467981614666565b811461468457600080fd5b50565b60008135905061469681614670565b92915050565b6000602082840312156146b2576146b161465c565b5b60006146c084828501614687565b91505092915050565b600073ffffffffffffffffffffffffffffffffffffffff82169050919050565b60006146f4826146c9565b9050919050565b614704816146e9565b811461470f57600080fd5b50565b600081359050614721816146fb565b92915050565b600080fd5b6000601f19601f8301169050919050565b7f4e487b7100000000000000000000000000000000000000000000000000000000600052604160045260246000fd5b6147758261472c565b810181811067ffffffffffffffff821117156147945761479361473d565b5b80604052505050565b60006147a7614652565b90506147b3828261476c565b919050565b600067ffffffffffffffff8211156147d3576147d261473d565b5b602082029050602081019050919050565b600080fd5b60006147fc6147f7846147b8565b61479d565b9050808382526020820190506020840283018581111561481f5761481e6147e4565b5b835b8181101561484857806148348882614687565b845260208401935050602081019050614821565b5050509392505050565b600082601f83011261486757614866614727565b5b81356148778482602086016147e9565b91505092915050565b60008115159050919050565b61489581614880565b81146148a057600080fd5b50565b6000813590506148b28161488c565b92915050565b60008060008060008060008060006101208a8c0312156148db576148da61465c565b5b60006148e98c828d01614712565b99505060208a013567ffffffffffffffff81111561490a57614909614661565b5b6149168c828d01614852565b98505060408a013567ffffffffffffffff81111561493757614936614661565b5b6149438c828d01614852565b97505060606149548c828d01614687565b96505060808a013567ffffffffffffffff81111561497557614974614661565b5b6149818c828d01614852565b95505060a08a013567ffffffffffffffff8111156149a2576149a1614661565b5b6149ae8c828d01614852565b94505060c06149bf8c828d01614687565b93505060e06149d08c828d016148a3565b9250506101006149e28c828d01614687565b9150509295985092959850929598565b6149fb81614666565b82525050565b600081519050919050565b600082825260208201905092915050565b6000819050602082019050919050565b6000614a3983836149f2565b60208301905092915050565b6000602082019050919050565b6000614a5d82614a01565b614a678185614a0c565b9350614a7283614a1d565b8060005b83811015614aa3578151614a8a8882614a2d565b9750614a9583614a45565b925050600181019050614a76565b5085935050505092915050565b614ab9816146e9565b82525050565b614ac881614880565b82525050565b60006101e083016000830151614ae760008601826149f2565b5060208301518482036020860152614aff8282614a52565b91505060408301518482036040860152614b198282614a52565b9150506060830151614b2e60608601826149f2565b5060808301518482036080860152614b468282614a52565b91505060a083015184820360a0860152614b608282614a52565b91505060c0830151614b7560c08601826149f2565b5060e0830151614b8860e0860182614ab0565b50610100830151614b9d610100860182614ab0565b50610120830151614bb2610120860182614abf565b50610140830151614bc7610140860182614abf565b50610160830151614bdc610160860182614abf565b50610180830151614bf1610180860182614abf565b506101a0830151614c066101a08601826149f2565b506101c0830151614c1b6101c08601826149f2565b508091505092915050565b60006020820190508181036000830152614c408184614ace565b905092915050565b600082825260208201905092915050565b6000614c6482614a01565b614c6e8185614c48565b9350614c7983614a1d565b8060005b83811015614caa578151614c918882614a2d565b9750614c9c83614a45565b925050600181019050614c7d565b5085935050505092915050565b60006020820190508181036000830152614cd18184614c59565b905092915050565b6000614ce4826146c9565b9050919050565b614cf481614cd9565b82525050565b6000602082019050614d0f6000830184614ceb565b92915050565b614d1e81614cd9565b8114614d2957600080fd5b50565b600081359050614d3b81614d15565b92915050565b600060208284031215614d5757614d5661465c565b5b6000614d6584828501614d2c565b91505092915050565b600081519050919050565b600082825260208201905092915050565b6000819050602082019050919050565b60006101e083016000830151614db360008601826149f2565b5060208301518482036020860152614dcb8282614a52565b91505060408301518482036040860152614de58282614a52565b9150506060830151614dfa60608601826149f2565b5060808301518482036080860152614e128282614a52565b91505060a083015184820360a0860152614e2c8282614a52565b91505060c0830151614e4160c08601826149f2565b5060e0830151614e5460e0860182614ab0565b50610100830151614e69610100860182614ab0565b50610120830151614e7e610120860182614abf565b50610140830151614e93610140860182614abf565b50610160830151614ea8610160860182614abf565b50610180830151614ebd610180860182614abf565b506101a0830151614ed26101a08601826149f2565b506101c0830151614ee76101c08601826149f2565b508091505092915050565b6000614efe8383614d9a565b905092915050565b6000602082019050919050565b6000614f1e82614d6e565b614f288185614d79565b935083602082028501614f3a85614d8a565b8060005b85811015614f765784840389528151614f578582614ef2565b9450614f6283614f06565b925060208a01995050600181019050614f3e565b50829750879550505050505092915050565b60006020820190508181036000830152614fa28184614f13565b905092915050565b614fb381614880565b82525050565b6000602082019050614fce6000830184614faa565b92915050565b600082825260208201905092915050565b7f4f6e6c79206f666665726564206163636f756e742063616e206163636570742060008201527f6f66666572000000000000000000000000000000000000000000000000000000602082015250565b6000615041602583614fd4565b915061504c82614fe5565b604082019050919050565b6000602082019050818103600083015261507081615034565b9050919050565b7f4f66666572206861732065787069726564000000000000000000000000000000600082015250565b60006150ad601183614fd4565b91506150b882615077565b602082019050919050565b600060208201905081810360008301526150dc816150a0565b9050919050565b7f4d7573742073656e6420636f727265637420616d6f756e74206f66204554482060008201527f746f2074686520736d61727420636f6e747261637420666f7220686f6c64696e60208201527f6700000000000000000000000000000000000000000000000000000000000000604082015250565b6000615165604183614fd4565b9150615170826150e3565b606082019050919050565b6000602082019050818103600083015261519481615158565b9050919050565b7f4f6666657220697320616c726561647920616363657074656420616e6420617060008201527f70726f7665640000000000000000000000000000000000000000000000000000602082015250565b60006151f7602683614fd4565b91506152028261519b565b604082019050919050565b60006020820190508181036000830152615226816151ea565b9050919050565b7f4f6666657265642070617274792068617320616c72656164792061636365707460008201527f65642c207761697420666f7220746865206f726967696e616c206f666665726560208201527f7220746f206d616b652066696e616c20617070726f76616c0000000000000000604082015250565b60006152af605883614fd4565b91506152ba8261522d565b606082019050919050565b600060208201905081810360008301526152de816152a2565b9050919050565b6152ee81614666565b82525050565b600060608201905061530960008301866152e5565b6153166020830185614ceb565b6153236040830184614faa565b949350505050565b7f4e487b7100000000000000000000000000000000000000000000000000000000600052601160045260246000fd5b600061536582614666565b915061537083614666565b9250817fffffffffffffffffffffffffffffffffffffffffffffffffffffffffffffffff04831182151516156153a9576153a861532b565b5b828202905092915050565b60006153bf82614666565b91506153ca83614666565b9250827fffffffffffffffffffffffffffffffffffffffffffffffffffffffffffffffff038211156153ff576153fe61532b565b5b828201905092915050565b7f4f776e61626c653a2063616c6c6572206973206e6f7420746865206f776e6572600082015250565b6000615440602083614fd4565b915061544b8261540a565b602082019050919050565b6000602082019050818103600083015261546f81615433565b9050919050565b7f4f6e6c79206f66666572696e67206163636f756e742063616e206d616b65206660008201527f696e616c20617070726f76616c00000000000000000000000000000000000000602082015250565b60006154d2602d83614fd4565b91506154dd82615476565b604082019050919050565b60006020820190508181036000830152615501816154c5565b9050919050565b7f4f666665726564207061727479206d75737420616363657074206265666f726560008201527f2066696e616c20617070726f76616c0000000000000000000000000000000000602082015250565b6000615564602f83614fd4565b915061556f82615508565b604082019050919050565b6000602082019050818103600083015261559381615557565b9050919050565b7f4f66666572696e672070617274792068617320616c726561647920616363657060008201527f7465640000000000000000000000000000000000000000000000000000000000602082015250565b60006155f6602383614fd4565b91506156018261559a565b604082019050919050565b60006020820190508181036000830152615625816155e9565b9050919050565b7f4d7573742073656e6420636f727265637420616d6f756e74206f66204554482060008201527f746f20746865206f666665726564207061727479000000000000000000000000602082015250565b6000615688603483614fd4565b91506156938261562c565b604082019050919050565b600060208201905081810360008301526156b78161567b565b9050919050565b6000819050919050565b60006156e36156de6156d9846146c9565b6156be565b6146c9565b9050919050565b60006156f5826156c8565b9050919050565b6000615707826156ea565b9050919050565b615717816156fc565b82525050565b6000606082019050615732600083018661570e565b61573f602083018561570e565b61574c60408301846152e5565b949350505050565b6000815190506157638161488c565b92915050565b60006020828403121561577f5761577e61465c565b5b600061578d84828501615754565b91505092915050565b7f43616e6e6f7420726567756c61722063616e63656c207768656e2066726f6d2060008201527f7061727479206861732061636365707465640000000000000000000000000000602082015250565b60006157f2603283614fd4565b91506157fd82615796565b604082019050919050565b60006020820190508181036000830152615821816157e5565b9050919050565b7f43616e6e6f7420726567756c61722063616e63656c207768656e20746f20706160008201527f7274792068617320616363657074656400000000000000000000000000000000602082015250565b6000615884603083614fd4565b915061588f82615828565b604082019050919050565b600060208201905081810360008301526158b381615877565b9050919050565b7f4d7573742073656e6420636f727265637420616d6f756e74206f66204554482060008201527f746f206f776e6572206f66206c697374696e6700000000000000000000000000602082015250565b6000615916603383614fd4565b9150615921826158ba565b604082019050919050565b6000602082019050818103600083015261594581615909565b9050919050565b7f4e487b7100000000000000000000000000000000000000000000000000000000600052603260045260246000fd5b600061598682614666565b915061599183614666565b9250828210156159a4576159a361532b565b5b828203905092915050565b7f4e487b7100000000000000000000000000000000000000000000000000000000600052603160045260246000fd5b60006159e982614666565b91507fffffffffffffffffffffffffffffffffffffffffffffffffffffffffffffffff821415615a1c57615a1b61532b565b5b600182019050919050565b7f4f776e61626c653a206e6577206f776e657220697320746865207a65726f206160008201527f6464726573730000000000000000000000000000000000000000000000000000602082015250565b6000615a83602683614fd4565b9150615a8e82615a27565b604082019050919050565b60006020820190508181036000830152615ab281615a76565b9050919050565b6000602082019050615ace60008301846152e5565b92915050565b600081519050615ae381614d15565b92915050565b600060208284031215615aff57615afe61465c565b5b6000615b0d84828501615ad4565b91505092915050565b7f4f666665726564206163636f756e74206d757374206f776e20616c6c2072657160008201527f756573746564204e465473000000000000000000000000000000000000000000602082015250565b6000615b72602b83614fd4565b9150615b7d82615b16565b604082019050919050565b60006020820190508181036000830152615ba181615b65565b9050919050565b7f4f66666572696e67206163636f756e74206d757374206f776e20616c6c206f6660008201527f6665726564204e46547300000000000000000000000000000000000000000000602082015250565b6000615c04602a83614fd4565b9150615c0f82615ba8565b604082019050919050565b60006020820190508181036000830152615c3381615bf7565b905091905056fea2646970667358221220d4085020763b30a6cf8e2c860aaa0fa7a6a426a1f0d6655eb028ed378e6d097264736f6c63430008090033",
  "immutableReferences": {},
  "source": "pragma solidity ^0.8.0;\n\nimport \"@openzeppelin/contracts/access/Ownable.sol\";\nimport \"@openzeppelin/contracts/token/ERC721/ERC721.sol\";\nimport \"@openzeppelin/contracts/token/ERC20/IERC20.sol\";\nimport \"@openzeppelin/contracts/token/ERC20/ERC20.sol\";\nimport \"@openzeppelin/contracts/token/ERC721/IERC721.sol\";\nimport \"@openzeppelin/contracts/utils/Counters.sol\";\n\nimport \"./ViridianNFT.sol\";\nimport \"./ViridianPack.sol\";\n\ncontract ViridianExchangeOffers is Ownable {\n\n    //EVENTS\n    event CreatedOffer(uint256 offerId, address wallet, bool created);\n    event CancelledOffer(uint256 offerId, address wallet, bool cancelled);\n    event AcceptedOffer(uint256 offerId, address wallet, bool accepted);\n\n\n    using Counters for Counters.Counter;\n    Counters.Counter private _offerIds;\n\n    ViridianNFT vNFT;\n    ViridianPack vPack;\n\n    struct Offer {\n        uint256 offerId;\n        uint256[] toNftIds;\n        uint256[] toPackIds;\n        uint toAmt;\n        uint256[] fromNftIds;\n        uint256[] fromPackIds;\n        uint fromAmt;\n        address payable to;\n        address payable from;\n        bool isVEXT;\n        bool pending;\n        bool toAccepted;\n        bool fromAccepted;\n        uint256 startTime;\n        uint256 endTime;\n    }\n\n    mapping (address => Offer[]) userOffers;\n    mapping (uint256 => Offer) offers;\n    uint256[] private offerIds;\n    mapping (uint256 => uint256) highestCardOffer;\n\n    address public viridianNFT;\n    address public viridianPack;\n    address public viridianToken;\n\n    constructor(address _viridianToken, address _viridianNFT, address _viridianPack) {\n        require(address(_viridianToken) != address(0));\n        require(address(_viridianNFT) != address(0));\n        require(address(_viridianPack) != address(0));\n\n        viridianToken = _viridianToken;\n        //address _ETH, ETH = _ETH;\n        viridianNFT = _viridianNFT;\n        viridianPack = _viridianPack;\n\n        vNFT = ViridianNFT(_viridianNFT);\n        vPack = ViridianPack(_viridianPack);\n    }\n\n    function getOffers() public view returns (uint256[] memory) {\n        return offerIds;\n    }\n\n    function getOffersFromId(uint256 _offerId) public view returns (Offer memory) {\n        return offers[_offerId];\n    }\n\n    function getOffersFromUser(address _userAddr) public view returns (Offer[] memory) {\n        return userOffers[_userAddr];\n    }\n\n    function hasOfferExpired(uint256 _offerId) public view returns (bool) {\n        Offer storage curOffer = offers[_offerId];\n\n        // Always return false if the current offer is pending final approval\n        if (curOffer.toAccepted && !curOffer.fromAccepted) {\n            return false;\n        }\n\n        if (!curOffer.pending) {\n            return true;\n        }\n        else {\n            return curOffer.endTime < block.timestamp;\n        }\n    }\n\n    function makeOffer(address payable _to, uint256[] memory _nftIds, uint256[] memory _packIds, uint256 _amount, uint256[] memory _recNftIds, uint256[] memory _recPackIds, uint256 _recAmount, bool isVEXT, uint256 _daysValid) public {\n        require(_to != msg.sender);\n\n        // if(!IERC721(viridianNFT).isApprovedForAll(msg.sender, address(this))) {\n        //     IERC721(viridianNFT).setApprovalForAll(address(this), true);\n        // }\n\n        _offerIds.increment();\n        uint256 _offerId = _offerIds.current();\n\n        uint256 endTime = block.timestamp + (_daysValid * 1 days);\n\n        Offer memory newOffer = Offer(_offerId, _nftIds, _packIds, _amount, _recNftIds, _recPackIds, _recAmount, _to, payable(msg.sender), isVEXT, true, false, false, block.timestamp, endTime);\n        \n        userOffers[_to].push(newOffer);\n        userOffers[msg.sender].push(newOffer);\n        offers[_offerId] = newOffer;\n\n        doOfferingPartiesOwnContents(offers[_offerId]);\n        offerIds.push(_offerId);\n\n        emit CreatedOffer(_offerId, msg.sender, true);\n    }\n\n    function removeOffer(Offer storage curOffer, Offer[] storage curUserOffers) private {\n        for (uint i = 0; i < curUserOffers.length; i++) {\n            Offer memory offer = curUserOffers[i];\n            if (offer.offerId == curOffer.offerId) {\n                curUserOffers[i] = curUserOffers[curUserOffers.length - 1];\n                userOffers[curOffer.to] = curUserOffers;\n                userOffers[curOffer.to].pop();\n                break;\n            }\n        } \n    }\n \n    function cancelOffer(uint256 _offerId) public {\n        Offer storage curOffer = offers[_offerId];\n        require(curOffer.from == msg.sender || curOffer.to == msg.sender);\n        require(!hasOfferExpired(_offerId), \"Offer has expired\");\n        require(!curOffer.fromAccepted, \"Cannot regular cancel when from party has accepted\");\n        require(!curOffer.toAccepted, \"Cannot regular cancel when to party has accepted\");\n\n        Offer[] storage curUserOffers = userOffers[curOffer.to];\n        Offer[] storage otherUserOffers = userOffers[curOffer.from];\n        \n        //TODO: Check who is cancelling and cancel that person's offers.\n\n        // Remove offer from current user's offers\n        removeOffer(curOffer, curUserOffers);\n\n        // Remove offer from other user's offers\n        removeOffer(curOffer, otherUserOffers);\n\n        // Remove offer id from global list of offer ids\n        for (uint256 i = 0; i < offerIds.length; i++) {\n            uint256 offerId = offerIds[i];\n            if (offerId == curOffer.offerId) {\n                offerIds[i] = offerIds[offerIds.length - 1];\n                offerIds.pop();\n                break;\n            }\n        }\n\n        // Remove offer from global mapping of offers\n        delete offers[_offerId];\n\n        emit CancelledOffer(curOffer.offerId, msg.sender, true);\n    }\n\n    function cancelAcceptedETHOffer(uint256 _offerId) public payable {\n        Offer storage curOffer = offers[_offerId];\n        require(curOffer.from == msg.sender || curOffer.to == msg.sender);\n        require(!hasOfferExpired(_offerId), \"Offer has expired\");\n        require(!curOffer.fromAccepted, \"Cannot regular cancel when from party has accepted\");\n        require(curOffer.toAccepted, \"Cannot regular cancel when to party has accepted\");\n        //Offer[] storage curUserOffers = userOffers[curOffer.to];\n        \n        //TODO: Check who is cancelling and cancel that person's offers.\n\n        //Send money back to acceptor\n        require(curOffer.fromAmt == msg.value, \"Must send correct amount of ETH to owner of listing\");\n            curOffer.to.transfer(curOffer.fromAmt);\n\n        Offer[] storage curUserOffers = userOffers[curOffer.to];\n        Offer[] storage otherUserOffers = userOffers[curOffer.from];\n\n        // Remove offer from current user's offers\n        removeOffer(curOffer, curUserOffers);\n\n        // Remove offer from other user's offers\n        removeOffer(curOffer, otherUserOffers);\n\n        // Remove offer id from global list of offer ids\n        for (uint256 i = 0; i < offerIds.length; i++) {\n            uint256 offerId = offerIds[i];\n            if (offerId == curOffer.offerId) {\n                offerIds[i] = offerIds[offerIds.length - 1];\n                offerIds.pop();\n                break;\n            }\n        }\n\n        // Remove offer from global mapping of offers\n        delete offers[_offerId];\n    }\n\n    function doOfferingPartiesOwnContents(Offer storage _curOffer) private view {\n        for (uint i = 0; i < _curOffer.toNftIds.length; i++) {\n            require(IERC721(viridianNFT).ownerOf(_curOffer.toNftIds[i]) == _curOffer.from, \"Offered account must own all requested NFTs\");\n        }\n\n        for (uint i = 0; i < _curOffer.fromNftIds.length; i++) {\n            require(IERC721(viridianNFT).ownerOf(_curOffer.fromNftIds[i]) == _curOffer.to, \"Offering account must own all offered NFTs\");\n        }\n\n        for (uint i = 0; i < _curOffer.toPackIds.length; i++) {\n            require(IERC721(viridianPack).ownerOf(_curOffer.toPackIds[i]) == _curOffer.from, \"Offered account must own all requested NFTs\");\n        }\n\n        for (uint i = 0; i < _curOffer.fromPackIds.length; i++) {\n            require(IERC721(viridianPack).ownerOf(_curOffer.fromPackIds[i]) == _curOffer.to, \"Offering account must own all offered NFTs\");\n        }\n    }\n\n    function transferAllOfferContents(Offer storage _curOffer) private {\n        // Loop through all of the to items in the offer.\n        for (uint i = 0; i < _curOffer.toNftIds.length; i++) {\n            //IERC721(viridianNFT).approve(curOffer.to, curOffer.fromNftIds[i]);\n            IERC721(viridianNFT).safeTransferFrom(_curOffer.from, _curOffer.to, _curOffer.toNftIds[i]);\n        }\n\n        // Loop through all of the from items in the offer.\n        for (uint i = 0; i < _curOffer.fromNftIds.length; i++) {\n            //IERC721(viridianNFT).approve(curOffer.to, curOffer.fromNftIds[i]);\n            IERC721(viridianNFT).safeTransferFrom(_curOffer.to, _curOffer.from, _curOffer.fromNftIds[i]);\n        }\n\n        for (uint i = 0; i < _curOffer.toPackIds.length; i++) {\n            //IERC721(viridianNFT).approve(curOffer.to, curOffer.fromNftIds[i]);\n            IERC721(viridianPack).safeTransferFrom(_curOffer.from, _curOffer.to, _curOffer.toPackIds[i]);\n        }\n\n        // Loop through all of the from items in the offer.\n        for (uint i = 0; i < _curOffer.fromPackIds.length; i++) {\n            //IERC721(viridianNFT).approve(curOffer.to, curOffer.fromNftIds[i]);\n            IERC721(viridianPack).safeTransferFrom(_curOffer.to, _curOffer.from, _curOffer.fromPackIds[i]);\n        }\n    }\n\n    function getCurOffer(Offer storage curOffer, Offer[] storage curUserOffers) private returns (Offer storage) {\n        for (uint i = 0; i < curUserOffers.length; i++) {\n            Offer memory offer = curUserOffers[i];\n            if (offer.offerId == curOffer.offerId) {\n                return curUserOffers[i]; //.pending = false;\n            }\n        }\n\n        return curUserOffers[0];\n    }\n    \n    function acceptOfferWithVEXT(uint256 _offerId) public {\n        Offer storage curOffer = offers[_offerId];\n\n        require(curOffer.to == msg.sender, \"Only offered account can accept offer\");\n        require(!hasOfferExpired(_offerId), \"Offer has expired\");\n\n        curOffer.pending = false;\n\n        Offer[] storage curUserOffers = userOffers[curOffer.to];\n        Offer[] storage otherUserOffers = userOffers[curOffer.from];\n\n        // for (uint i = 0; i < curUserOffers.length; i++) {\n        //     Offer memory offer = curUserOffers[i];\n        //     if (offer.offerId == curOffer.offerId) {\n        //         curUserOffers[i].pending = false;\n        //         break;\n        //     }\n        // }\n\n        Offer storage setOffer = getCurOffer(curOffer, curUserOffers);\n        setOffer.pending = false;\n\n        // for (uint i = 0; i < otherUserOffers.length; i++) {\n        //     Offer memory offer = otherUserOffers[i];\n        //     if (offer.offerId == curOffer.offerId) {\n        //         otherUserOffers[i].pending = false;\n        //         break;\n        //     }\n        // }\n\n        Offer storage setOfferO = getCurOffer(curOffer, otherUserOffers);\n        setOfferO.pending = false;\n\n        doOfferingPartiesOwnContents(curOffer);\n\n        // if(!IERC721(viridianNFT).isApprovedForAll(msg.sender, address(this))) {\n        //     IERC721(viridianNFT).setApprovalForAll(address(this), true);\n        // }\n\n        IERC20(viridianToken).transferFrom(curOffer.from, curOffer.to, curOffer.toAmt);\n        IERC20(viridianToken).transferFrom(curOffer.to, curOffer.from, curOffer.fromAmt);\n\n        transferAllOfferContents(curOffer);\n        emit AcceptedOffer(_offerId, msg.sender, true);\n    }\n\n    function acceptOfferWithETH(uint256 _offerId) public payable {\n        Offer storage curOffer = offers[_offerId];\n\n        require(curOffer.to == msg.sender, \"Only offered account can accept offer\");\n        require(!hasOfferExpired(_offerId), \"Offer has expired\");\n        require(curOffer.fromAmt == msg.value, \"Must send correct amount of ETH to the smart contract for holding\");\n        require(!curOffer.fromAccepted, \"Offer is already accepted and approved\");\n        require(!curOffer.toAccepted, \"Offered party has already accepted, wait for the original offerer to make final approval\");\n\n        //curOffer.pending = true;\n        curOffer.toAccepted = true;\n\n        Offer[] storage curUserOffers = userOffers[curOffer.to];\n        Offer[] storage otherUserOffers = userOffers[curOffer.from];\n\n        // for (uint i = 0; i < curUserOffers.length; i++) {\n        //     Offer memory offer = curUserOffers[i];\n        //     if (offer.offerId == curOffer.offerId) {\n        //         curUserOffers[i].toAccepted = true;\n        //         break;\n        //     }\n        // } \n\n        Offer storage setOffer = getCurOffer(curOffer, curUserOffers);\n        setOffer.toAccepted = true;\n\n        // for (uint i = 0; i < otherUserOffers.length; i++) {\n        //     Offer memory offer = otherUserOffers[i];\n        //     if (offer.offerId == curOffer.offerId) {\n        //         otherUserOffers[i].toAccepted = true;\n        //         break;\n        //     }\n        // }\n\n        Offer storage setOfferO = getCurOffer(curOffer, otherUserOffers);\n        setOfferO.toAccepted = true;\n\n        doOfferingPartiesOwnContents(curOffer);\n\n        emit AcceptedOffer(_offerId, msg.sender, true);\n\n        // if(!IERC721(viridianNFT).isApprovedForAll(msg.sender, address(this))) {\n        //     IERC721(viridianNFT).setApprovalForAll(address(this), true);\n        // }\n\n        // IERC20(viridianToken).transferFrom(curOffer.from, curOffer.to, curOffer.toAmt);\n        // IERC20(viridianToken).transferFrom(curOffer.to, curOffer.from, curOffer.fromAmt);\n\n        // // Loop through all of the to items in the offer.\n        // for (uint i = 0; i < curOffer.toNftIds.length; i++) {\n        //     //IERC721(viridianNFT).approve(curOffer.to, curOffer.fromNftIds[i]);\n        //     IERC721(viridianNFT).safeTransferFrom(curOffer.from, curOffer.to, curOffer.toNftIds[i]);\n        // }\n\n        // // Loop through all of the from items in the offer.\n        // for (uint i = 0; i < curOffer.fromNftIds.length; i++) {\n        //     //IERC721(viridianNFT).approve(curOffer.to, curOffer.fromNftIds[i]);\n        //     IERC721(viridianNFT).safeTransferFrom(curOffer.to, curOffer.from, curOffer.fromNftIds[i]);\n        // }\n\n        // for (uint i = 0; i < curOffer.toPackIds.length; i++) {\n        //     //IERC721(viridianNFT).approve(curOffer.to, curOffer.fromNftIds[i]);\n        //     IERC721(viridianPack).safeTransferFrom(curOffer.from, curOffer.to, curOffer.toPackIds[i]);\n        // }\n\n        // // Loop through all of the from items in the offer.\n        // for (uint i = 0; i < curOffer.fromPackIds.length; i++) {\n        //     //IERC721(viridianNFT).approve(curOffer.to, curOffer.fromNftIds[i]);\n        //     IERC721(viridianPack).safeTransferFrom(curOffer.to, curOffer.from, curOffer.fromPackIds[i]);\n        // }\n        \n    }\n\n    function finalApprovalWithETH(uint256 _offerId) public payable {\n        Offer storage curOffer = offers[_offerId];\n\n        require(curOffer.from == msg.sender, \"Only offering account can make final approval\");\n        require(curOffer.toAccepted, \"Offered party must accept before final approval\");\n        require(!curOffer.fromAccepted, \"Offering party has already accepted\");\n        require(!hasOfferExpired(_offerId), \"Offer has expired\");\n\n        curOffer.pending = false;\n        curOffer.fromAccepted = true;\n\n        Offer[] storage curUserOffers = userOffers[curOffer.to];\n        Offer[] storage otherUserOffers = userOffers[curOffer.from];\n\n        // for (uint i = 0; i < curUserOffers.length; i++) {\n        //     Offer memory offer = curUserOffers[i];\n        //     if (offer.offerId == curOffer.offerId) {\n        //         curUserOffers[i].fromAccepted = true;\n        //         curUserOffers[i].pending = false;\n        //         break;\n        //     }\n        // }\n\n        Offer storage setOffer = getCurOffer(curOffer, curUserOffers);\n        setOffer.fromAccepted = true;\n        setOffer.pending = false;\n\n\n        // for (uint i = 0; i < otherUserOffers.length; i++) {\n        //     Offer memory offer = otherUserOffers[i];\n        //     if (offer.offerId == curOffer.offerId) {\n        //         otherUserOffers[i].fromAccepted = true;\n        //         otherUserOffers[i].pending = false;\n        //         break;\n        //     }\n        // } \n\n        Offer storage setOfferO = getCurOffer(curOffer, otherUserOffers);\n        setOfferO.fromAccepted = true;\n        setOfferO.pending = false;\n\n        doOfferingPartiesOwnContents(curOffer);\n\n        // if(!IERC721(viridianNFT).isApprovedForAll(msg.sender, address(this))) {\n        //     IERC721(viridianNFT).setApprovalForAll(address(this), true);\n        // }\n\n        // Transfer held ETH in smart contract to caller.\n        curOffer.from.transfer(curOffer.fromAmt);\n        \n        // Transfer to ETH to offered party.\n        require(curOffer.toAmt == msg.value, \"Must send correct amount of ETH to the offered party\");\n        curOffer.to.transfer(msg.value);\n\n\n        // IERC20(viridianToken).transferFrom(curOffer.from, curOffer.to, curOffer.toAmt);\n        // IERC20(viridianToken).transferFrom(curOffer.to, curOffer.from, curOffer.fromAmt);\n\n        // Loop through all of the to items in the offer.\n        transferAllOfferContents(curOffer);\n    }\n\n    receive() external payable {}\n}",
  "sourcePath": "/Users/blakehatch/Viridian-Exchange-Contracts/contracts/ViridianExchangeOffers.sol",
  "compiler": {
    "name": "solc",
    "version": "0.8.9+commit.e5eed63a.Emscripten.clang"
  },
  "schemaVersion": "3.4.1",
  "updatedAt": "2021-10-15T05:27:23.318Z",
  "networkType": "ethereum",
  "devdoc": {
    "kind": "dev",
    "methods": {
      "owner()": {
        "details": "Returns the address of the current owner."
      },
      "renounceOwnership()": {
        "details": "Leaves the contract without owner. It will not be possible to call `onlyOwner` functions anymore. Can only be called by the current owner. NOTE: Renouncing ownership will leave the contract without an owner, thereby removing any functionality that is only available to the owner."
      },
      "transferOwnership(address)": {
        "details": "Transfers ownership of the contract to a new account (`newOwner`). Can only be called by the current owner."
      }
    },
    "version": 1
  },
  "userdoc": {
    "kind": "user",
    "methods": {},
    "version": 1
  }
}