{
  "contractName": "ViridianExchangeOffers",
  "abi": [
    {
      "inputs": [
        {
          "internalType": "address",
          "name": "_erc20Token",
          "type": "address"
        },
        {
          "internalType": "address",
          "name": "_viridianNFT",
          "type": "address"
        },
        {
          "internalType": "address",
          "name": "_viridianPack",
          "type": "address"
        }
      ],
      "stateMutability": "nonpayable",
      "type": "constructor"
    },
    {
      "anonymous": false,
      "inputs": [
        {
          "indexed": false,
          "internalType": "uint256",
          "name": "offerId",
          "type": "uint256"
        },
        {
          "indexed": false,
          "internalType": "address",
          "name": "wallet",
          "type": "address"
        },
        {
          "indexed": false,
          "internalType": "bool",
          "name": "accepted",
          "type": "bool"
        }
      ],
      "name": "AcceptedOffer",
      "type": "event"
    },
    {
      "anonymous": false,
      "inputs": [
        {
          "indexed": false,
          "internalType": "uint256",
          "name": "offerId",
          "type": "uint256"
        },
        {
          "indexed": false,
          "internalType": "address",
          "name": "wallet",
          "type": "address"
        },
        {
          "indexed": false,
          "internalType": "bool",
          "name": "cancelled",
          "type": "bool"
        }
      ],
      "name": "CancelledOffer",
      "type": "event"
    },
    {
      "anonymous": false,
      "inputs": [
        {
          "indexed": false,
          "internalType": "uint256",
          "name": "offerId",
          "type": "uint256"
        },
        {
          "indexed": false,
          "internalType": "address",
          "name": "wallet",
          "type": "address"
        },
        {
          "indexed": false,
          "internalType": "bool",
          "name": "created",
          "type": "bool"
        }
      ],
      "name": "CreatedOffer",
      "type": "event"
    },
    {
      "anonymous": false,
      "inputs": [
        {
          "indexed": true,
          "internalType": "address",
          "name": "previousOwner",
          "type": "address"
        },
        {
          "indexed": true,
          "internalType": "address",
          "name": "newOwner",
          "type": "address"
        }
      ],
      "name": "OwnershipTransferred",
      "type": "event"
    },
    {
      "inputs": [
        {
          "internalType": "address",
          "name": "",
          "type": "address"
        }
      ],
      "name": "approvedTokens",
      "outputs": [
        {
          "internalType": "bool",
          "name": "",
          "type": "bool"
        }
      ],
      "stateMutability": "view",
      "type": "function",
      "constant": true
    },
    {
      "inputs": [],
      "name": "owner",
      "outputs": [
        {
          "internalType": "address",
          "name": "",
          "type": "address"
        }
      ],
      "stateMutability": "view",
      "type": "function",
      "constant": true
    },
    {
      "inputs": [],
      "name": "renounceOwnership",
      "outputs": [],
      "stateMutability": "nonpayable",
      "type": "function"
    },
    {
      "inputs": [
        {
          "internalType": "address",
          "name": "newOwner",
          "type": "address"
        }
      ],
      "name": "transferOwnership",
      "outputs": [],
      "stateMutability": "nonpayable",
      "type": "function"
    },
    {
      "inputs": [],
      "name": "viridianNFT",
      "outputs": [
        {
          "internalType": "address",
          "name": "",
          "type": "address"
        }
      ],
      "stateMutability": "view",
      "type": "function",
      "constant": true
    },
    {
      "inputs": [],
      "name": "viridianPack",
      "outputs": [
        {
          "internalType": "address",
          "name": "",
          "type": "address"
        }
      ],
      "stateMutability": "view",
      "type": "function",
      "constant": true
    },
    {
      "inputs": [
        {
          "internalType": "address",
          "name": "_erc20Address",
          "type": "address"
        }
      ],
      "name": "addERC20Token",
      "outputs": [
        {
          "internalType": "uint256",
          "name": "",
          "type": "uint256"
        }
      ],
      "stateMutability": "nonpayable",
      "type": "function"
    },
    {
      "inputs": [],
      "name": "getOffers",
      "outputs": [
        {
          "internalType": "uint256[]",
          "name": "",
          "type": "uint256[]"
        }
      ],
      "stateMutability": "view",
      "type": "function",
      "constant": true
    },
    {
      "inputs": [
        {
          "internalType": "uint256",
          "name": "_offerId",
          "type": "uint256"
        }
      ],
      "name": "getOffersFromId",
      "outputs": [
        {
          "components": [
            {
              "internalType": "uint256",
              "name": "offerId",
              "type": "uint256"
            },
            {
              "internalType": "uint256[]",
              "name": "toNftIds",
              "type": "uint256[]"
            },
            {
              "internalType": "uint256[]",
              "name": "toPackIds",
              "type": "uint256[]"
            },
            {
              "internalType": "uint256",
              "name": "toAmt",
              "type": "uint256"
            },
            {
              "internalType": "uint256[]",
              "name": "fromNftIds",
              "type": "uint256[]"
            },
            {
              "internalType": "uint256[]",
              "name": "fromPackIds",
              "type": "uint256[]"
            },
            {
              "internalType": "uint256",
              "name": "fromAmt",
              "type": "uint256"
            },
            {
              "internalType": "address",
              "name": "to",
              "type": "address"
            },
            {
              "internalType": "address",
              "name": "from",
              "type": "address"
            },
            {
              "internalType": "address",
              "name": "erc20Address",
              "type": "address"
            },
            {
              "internalType": "bool",
              "name": "pending",
              "type": "bool"
            },
            {
              "internalType": "bool",
              "name": "toAccepted",
              "type": "bool"
            },
            {
              "internalType": "bool",
              "name": "fromAccepted",
              "type": "bool"
            },
            {
              "internalType": "uint256",
              "name": "startTime",
              "type": "uint256"
            },
            {
              "internalType": "uint256",
              "name": "endTime",
              "type": "uint256"
            }
          ],
          "internalType": "struct ViridianExchangeOffers.Offer",
          "name": "",
          "type": "tuple"
        }
      ],
      "stateMutability": "view",
      "type": "function",
      "constant": true
    },
    {
      "inputs": [
        {
          "internalType": "address",
          "name": "_userAddr",
          "type": "address"
        }
      ],
      "name": "getOffersFromUser",
      "outputs": [
        {
          "components": [
            {
              "internalType": "uint256",
              "name": "offerId",
              "type": "uint256"
            },
            {
              "internalType": "uint256[]",
              "name": "toNftIds",
              "type": "uint256[]"
            },
            {
              "internalType": "uint256[]",
              "name": "toPackIds",
              "type": "uint256[]"
            },
            {
              "internalType": "uint256",
              "name": "toAmt",
              "type": "uint256"
            },
            {
              "internalType": "uint256[]",
              "name": "fromNftIds",
              "type": "uint256[]"
            },
            {
              "internalType": "uint256[]",
              "name": "fromPackIds",
              "type": "uint256[]"
            },
            {
              "internalType": "uint256",
              "name": "fromAmt",
              "type": "uint256"
            },
            {
              "internalType": "address",
              "name": "to",
              "type": "address"
            },
            {
              "internalType": "address",
              "name": "from",
              "type": "address"
            },
            {
              "internalType": "address",
              "name": "erc20Address",
              "type": "address"
            },
            {
              "internalType": "bool",
              "name": "pending",
              "type": "bool"
            },
            {
              "internalType": "bool",
              "name": "toAccepted",
              "type": "bool"
            },
            {
              "internalType": "bool",
              "name": "fromAccepted",
              "type": "bool"
            },
            {
              "internalType": "uint256",
              "name": "startTime",
              "type": "uint256"
            },
            {
              "internalType": "uint256",
              "name": "endTime",
              "type": "uint256"
            }
          ],
          "internalType": "struct ViridianExchangeOffers.Offer[]",
          "name": "",
          "type": "tuple[]"
        }
      ],
      "stateMutability": "view",
      "type": "function",
      "constant": true
    },
    {
      "inputs": [
        {
          "internalType": "uint256",
          "name": "_offerId",
          "type": "uint256"
        }
      ],
      "name": "hasOfferExpired",
      "outputs": [
        {
          "internalType": "bool",
          "name": "",
          "type": "bool"
        }
      ],
      "stateMutability": "view",
      "type": "function",
      "constant": true
    },
    {
      "inputs": [
        {
          "internalType": "address payable",
          "name": "_to",
          "type": "address"
        },
        {
          "internalType": "uint256[]",
          "name": "_nftIds",
          "type": "uint256[]"
        },
        {
          "internalType": "uint256[]",
          "name": "_packIds",
          "type": "uint256[]"
        },
        {
          "internalType": "uint256",
          "name": "_amount",
          "type": "uint256"
        },
        {
          "internalType": "uint256[]",
          "name": "_recNftIds",
          "type": "uint256[]"
        },
        {
          "internalType": "uint256[]",
          "name": "_recPackIds",
          "type": "uint256[]"
        },
        {
          "internalType": "uint256",
          "name": "_recAmount",
          "type": "uint256"
        },
        {
          "internalType": "address",
          "name": "_erc20Address",
          "type": "address"
        },
        {
          "internalType": "uint256",
          "name": "_daysValid",
          "type": "uint256"
        }
      ],
      "name": "makeOffer",
      "outputs": [],
      "stateMutability": "nonpayable",
      "type": "function"
    },
    {
      "inputs": [
        {
          "internalType": "uint256",
          "name": "_offerId",
          "type": "uint256"
        }
      ],
      "name": "cancelOffer",
      "outputs": [],
      "stateMutability": "nonpayable",
      "type": "function"
    },
    {
      "inputs": [
        {
          "internalType": "uint256",
          "name": "_offerId",
          "type": "uint256"
        }
      ],
      "name": "acceptOfferWithERC20",
      "outputs": [],
      "stateMutability": "nonpayable",
      "type": "function"
    }
  ],
  "bytecode": "0x60806040523480156200001157600080fd5b50604051620051e4380380620051e48339818101604052810190620000379190620003a3565b620000576200004b6200026d60201b60201c565b6200027560201b60201c565b600073ffffffffffffffffffffffffffffffffffffffff168373ffffffffffffffffffffffffffffffffffffffff1614156200009257600080fd5b600073ffffffffffffffffffffffffffffffffffffffff168273ffffffffffffffffffffffffffffffffffffffff161415620000cd57600080fd5b600073ffffffffffffffffffffffffffffffffffffffff168173ffffffffffffffffffffffffffffffffffffffff1614156200010857600080fd5b6001600a60008573ffffffffffffffffffffffffffffffffffffffff1673ffffffffffffffffffffffffffffffffffffffff16815260200190815260200160002060006101000a81548160ff02191690831515021790555081600860006101000a81548173ffffffffffffffffffffffffffffffffffffffff021916908373ffffffffffffffffffffffffffffffffffffffff16021790555080600960006101000a81548173ffffffffffffffffffffffffffffffffffffffff021916908373ffffffffffffffffffffffffffffffffffffffff16021790555081600260006101000a81548173ffffffffffffffffffffffffffffffffffffffff021916908373ffffffffffffffffffffffffffffffffffffffff16021790555080600360006101000a81548173ffffffffffffffffffffffffffffffffffffffff021916908373ffffffffffffffffffffffffffffffffffffffff160217905550505050620003ff565b600033905090565b60008060009054906101000a900473ffffffffffffffffffffffffffffffffffffffff169050816000806101000a81548173ffffffffffffffffffffffffffffffffffffffff021916908373ffffffffffffffffffffffffffffffffffffffff1602179055508173ffffffffffffffffffffffffffffffffffffffff168173ffffffffffffffffffffffffffffffffffffffff167f8be0079c531659141344cd1fd0a4f28419497f9722a3daafe3b4186f6b6457e060405160405180910390a35050565b600080fd5b600073ffffffffffffffffffffffffffffffffffffffff82169050919050565b60006200036b826200033e565b9050919050565b6200037d816200035e565b81146200038957600080fd5b50565b6000815190506200039d8162000372565b92915050565b600080600060608486031215620003bf57620003be62000339565b5b6000620003cf868287016200038c565b9350506020620003e2868287016200038c565b9250506040620003f5868287016200038c565b9150509250925092565b614dd5806200040f6000396000f3fe608060405234801561001057600080fd5b50600436106100ea5760003560e01c8063971ccc161161008c578063ef706adf11610066578063ef706adf1461024b578063f2fde38b14610267578063fe257afc14610283578063ff1080df146102a1576100ea565b8063971ccc16146101cd5780639a701288146101fd578063d382335a1461021b576100ea565b80636d1ea3fa116100c85780636d1ea3fa14610159578063715018a6146101895780638d974207146101935780638da5cb5b146101af576100ea565b80633eaf56b0146100ef5780633ee992ee1461011f57806342e1717c1461013d575b600080fd5b61010960048036038101906101049190613c2d565b6102d1565b6040516101169190613ecc565b60405180910390f35b6101276105e4565b6040516101349190613f5d565b60405180910390f35b61015760048036038101906101529190614142565b61063c565b005b610173600480360381019061016e919061427c565b610f0b565b60405161018091906142b8565b60405180910390f35b610191610f2b565b005b6101ad60048036038101906101a89190613c2d565b610fb3565b005b6101b761141e565b6040516101c491906142e2565b60405180910390f35b6101e760048036038101906101e2919061427c565b611447565b6040516101f4919061430c565b60405180910390f35b610205611522565b60405161021291906142e2565b60405180910390f35b6102356004803603810190610230919061427c565b611548565b6040516102429190614541565b60405180910390f35b61026560048036038101906102609190613c2d565b6118cc565b005b610281600480360381019061027c919061427c565b611de7565b005b61028b611edf565b60405161029891906142e2565b60405180910390f35b6102bb60048036038101906102b69190613c2d565b611f05565b6040516102c891906142b8565b60405180910390f35b6102d9613676565b60056000838152602001908152602001600020604051806101e0016040529081600082015481526020016001820180548060200260200160405190810160405280929190818152602001828054801561035157602002820191906000526020600020905b81548152602001906001019080831161033d575b50505050508152602001600282018054806020026020016040519081016040528092919081815260200182805480156103a957602002820191906000526020600020905b815481526020019060010190808311610395575b50505050508152602001600382015481526020016004820180548060200260200160405190810160405280929190818152602001828054801561040b57602002820191906000526020600020905b8154815260200190600101908083116103f7575b505050505081526020016005820180548060200260200160405190810160405280929190818152602001828054801561046357602002820191906000526020600020905b81548152602001906001019080831161044f575b50505050508152602001600682015481526020016007820160009054906101000a900473ffffffffffffffffffffffffffffffffffffffff1673ffffffffffffffffffffffffffffffffffffffff1673ffffffffffffffffffffffffffffffffffffffff1681526020016008820160009054906101000a900473ffffffffffffffffffffffffffffffffffffffff1673ffffffffffffffffffffffffffffffffffffffff1673ffffffffffffffffffffffffffffffffffffffff1681526020016009820160009054906101000a900473ffffffffffffffffffffffffffffffffffffffff1673ffffffffffffffffffffffffffffffffffffffff1673ffffffffffffffffffffffffffffffffffffffff1681526020016009820160149054906101000a900460ff161515151581526020016009820160159054906101000a900460ff161515151581526020016009820160169054906101000a900460ff16151515158152602001600a8201548152602001600b820154815250509050919050565b6060600680548060200260200160405190810160405280929190818152602001828054801561063257602002820191906000526020600020905b81548152602001906001019080831161061e575b5050505050905090565b600a60008373ffffffffffffffffffffffffffffffffffffffff1673ffffffffffffffffffffffffffffffffffffffff16815260200190815260200160002060009054906101000a900460ff166106c8576040517f08c379a00000000000000000000000000000000000000000000000000000000081526004016106bf906145e6565b60405180910390fd5b3373ffffffffffffffffffffffffffffffffffffffff168973ffffffffffffffffffffffffffffffffffffffff16141561070157600080fd5b61070b6001611f89565b60006107176001611f9f565b90506000620151808361072a9190614635565b42610735919061468f565b90506000604051806101e001604052808481526020018c81526020018b81526020018a81526020018981526020018881526020018781526020018d73ffffffffffffffffffffffffffffffffffffffff1681526020013373ffffffffffffffffffffffffffffffffffffffff1681526020018673ffffffffffffffffffffffffffffffffffffffff168152602001600115158152602001600015158152602001600015158152602001428152602001838152509050600460008d73ffffffffffffffffffffffffffffffffffffffff1673ffffffffffffffffffffffffffffffffffffffff1681526020019081526020016000208190806001815401808255809150506001900390600052602060002090600c0201600090919091909150600082015181600001556020820151816001019080519060200190610879929190613734565b506040820151816002019080519060200190610896929190613734565b506060820151816003015560808201518160040190805190602001906108bd929190613734565b5060a08201518160050190805190602001906108da929190613734565b5060c0820151816006015560e08201518160070160006101000a81548173ffffffffffffffffffffffffffffffffffffffff021916908373ffffffffffffffffffffffffffffffffffffffff1602179055506101008201518160080160006101000a81548173ffffffffffffffffffffffffffffffffffffffff021916908373ffffffffffffffffffffffffffffffffffffffff1602179055506101208201518160090160006101000a81548173ffffffffffffffffffffffffffffffffffffffff021916908373ffffffffffffffffffffffffffffffffffffffff1602179055506101408201518160090160146101000a81548160ff0219169083151502179055506101608201518160090160156101000a81548160ff0219169083151502179055506101808201518160090160166101000a81548160ff0219169083151502179055506101a082015181600a01556101c082015181600b01555050600460003373ffffffffffffffffffffffffffffffffffffffff1673ffffffffffffffffffffffffffffffffffffffff1681526020019081526020016000208190806001815401808255809150506001900390600052602060002090600c0201600090919091909150600082015181600001556020820151816001019080519060200190610ac6929190613734565b506040820151816002019080519060200190610ae3929190613734565b50606082015181600301556080820151816004019080519060200190610b0a929190613734565b5060a0820151816005019080519060200190610b27929190613734565b5060c0820151816006015560e08201518160070160006101000a81548173ffffffffffffffffffffffffffffffffffffffff021916908373ffffffffffffffffffffffffffffffffffffffff1602179055506101008201518160080160006101000a81548173ffffffffffffffffffffffffffffffffffffffff021916908373ffffffffffffffffffffffffffffffffffffffff1602179055506101208201518160090160006101000a81548173ffffffffffffffffffffffffffffffffffffffff021916908373ffffffffffffffffffffffffffffffffffffffff1602179055506101408201518160090160146101000a81548160ff0219169083151502179055506101608201518160090160156101000a81548160ff0219169083151502179055506101808201518160090160166101000a81548160ff0219169083151502179055506101a082015181600a01556101c082015181600b015550508060056000858152602001908152602001600020600082015181600001556020820151816001019080519060200190610cbe929190613734565b506040820151816002019080519060200190610cdb929190613734565b50606082015181600301556080820151816004019080519060200190610d02929190613734565b5060a0820151816005019080519060200190610d1f929190613734565b5060c0820151816006015560e08201518160070160006101000a81548173ffffffffffffffffffffffffffffffffffffffff021916908373ffffffffffffffffffffffffffffffffffffffff1602179055506101008201518160080160006101000a81548173ffffffffffffffffffffffffffffffffffffffff021916908373ffffffffffffffffffffffffffffffffffffffff1602179055506101208201518160090160006101000a81548173ffffffffffffffffffffffffffffffffffffffff021916908373ffffffffffffffffffffffffffffffffffffffff1602179055506101408201518160090160146101000a81548160ff0219169083151502179055506101608201518160090160156101000a81548160ff0219169083151502179055506101808201518160090160166101000a81548160ff0219169083151502179055506101a082015181600a01556101c082015181600b0155905050610e9860056000858152602001908152602001600020611fad565b60068390806001815401808255809150506001900390600052602060002001600090919091909150557f0e1e6c2a26cf18d0005bc889ce86850afca20d6269a6a08aefa554b3a154b41c83336001604051610ef5939291906146e5565b60405180910390a1505050505050505050505050565b600a6020528060005260406000206000915054906101000a900460ff1681565b610f3361257c565b73ffffffffffffffffffffffffffffffffffffffff16610f5161141e565b73ffffffffffffffffffffffffffffffffffffffff1614610fa7576040517f08c379a0000000000000000000000000000000000000000000000000000000008152600401610f9e90614768565b60405180910390fd5b610fb16000612584565b565b60006005600083815260200190815260200160002090503373ffffffffffffffffffffffffffffffffffffffff168160070160009054906101000a900473ffffffffffffffffffffffffffffffffffffffff1673ffffffffffffffffffffffffffffffffffffffff161461105c576040517f08c379a0000000000000000000000000000000000000000000000000000000008152600401611053906147fa565b60405180910390fd5b61106582611f05565b156110a5576040517f08c379a000000000000000000000000000000000000000000000000000000000815260040161109c90614866565b60405180910390fd5b6000600460008360070160009054906101000a900473ffffffffffffffffffffffffffffffffffffffff1673ffffffffffffffffffffffffffffffffffffffff1673ffffffffffffffffffffffffffffffffffffffff16815260200190815260200160002090506000600460008460080160009054906101000a900473ffffffffffffffffffffffffffffffffffffffff1673ffffffffffffffffffffffffffffffffffffffff1673ffffffffffffffffffffffffffffffffffffffff1681526020019081526020016000209050600061117f8484612648565b9050600061118d8584612648565b905061119885611fad565b8460090160009054906101000a900473ffffffffffffffffffffffffffffffffffffffff1673ffffffffffffffffffffffffffffffffffffffff166323b872dd8660080160009054906101000a900473ffffffffffffffffffffffffffffffffffffffff168760070160009054906101000a900473ffffffffffffffffffffffffffffffffffffffff1688600301546040518463ffffffff1660e01b815260040161124593929190614886565b6020604051808303816000875af1158015611264573d6000803e3d6000fd5b505050506040513d601f19601f8201168201806040525081019061128891906148e9565b508460090160009054906101000a900473ffffffffffffffffffffffffffffffffffffffff1673ffffffffffffffffffffffffffffffffffffffff166323b872dd8660070160009054906101000a900473ffffffffffffffffffffffffffffffffffffffff168760080160009054906101000a900473ffffffffffffffffffffffffffffffffffffffff1688600601546040518463ffffffff1660e01b815260040161133693929190614886565b6020604051808303816000875af1158015611355573d6000803e3d6000fd5b505050506040513d601f19601f8201168201806040525081019061137991906148e9565b50611383856129ec565b60008560090160146101000a81548160ff02191690831515021790555060008260090160146101000a81548160ff02191690831515021790555060008160090160146101000a81548160ff0219169083151502179055507f6e60cb526aec55a6ba5a6dc3ca50f55a218d217233703ba4088b0bf46ca1f3a08633600160405161140e939291906146e5565b60405180910390a1505050505050565b60008060009054906101000a900473ffffffffffffffffffffffffffffffffffffffff16905090565b600061145161257c565b73ffffffffffffffffffffffffffffffffffffffff1661146f61141e565b73ffffffffffffffffffffffffffffffffffffffff16146114c5576040517f08c379a00000000000000000000000000000000000000000000000000000000081526004016114bc90614768565b60405180910390fd5b6001600a60008473ffffffffffffffffffffffffffffffffffffffff1673ffffffffffffffffffffffffffffffffffffffff16815260200190815260200160002060006101000a81548160ff021916908315150217905550919050565b600860009054906101000a900473ffffffffffffffffffffffffffffffffffffffff1681565b6060600460008373ffffffffffffffffffffffffffffffffffffffff1673ffffffffffffffffffffffffffffffffffffffff168152602001908152602001600020805480602002602001604051908101604052809291908181526020016000905b828210156118c157838290600052602060002090600c0201604051806101e0016040529081600082015481526020016001820180548060200260200160405190810160405280929190818152602001828054801561162657602002820191906000526020600020905b815481526020019060010190808311611612575b505050505081526020016002820180548060200260200160405190810160405280929190818152602001828054801561167e57602002820191906000526020600020905b81548152602001906001019080831161166a575b5050505050815260200160038201548152602001600482018054806020026020016040519081016040528092919081815260200182805480156116e057602002820191906000526020600020905b8154815260200190600101908083116116cc575b505050505081526020016005820180548060200260200160405190810160405280929190818152602001828054801561173857602002820191906000526020600020905b815481526020019060010190808311611724575b50505050508152602001600682015481526020016007820160009054906101000a900473ffffffffffffffffffffffffffffffffffffffff1673ffffffffffffffffffffffffffffffffffffffff1673ffffffffffffffffffffffffffffffffffffffff1681526020016008820160009054906101000a900473ffffffffffffffffffffffffffffffffffffffff1673ffffffffffffffffffffffffffffffffffffffff1673ffffffffffffffffffffffffffffffffffffffff1681526020016009820160009054906101000a900473ffffffffffffffffffffffffffffffffffffffff1673ffffffffffffffffffffffffffffffffffffffff1673ffffffffffffffffffffffffffffffffffffffff1681526020016009820160149054906101000a900460ff161515151581526020016009820160159054906101000a900460ff161515151581526020016009820160169054906101000a900460ff16151515158152602001600a8201548152602001600b82015481525050815260200190600101906115a9565b505050509050919050565b60006005600083815260200190815260200160002090503373ffffffffffffffffffffffffffffffffffffffff168160080160009054906101000a900473ffffffffffffffffffffffffffffffffffffffff1673ffffffffffffffffffffffffffffffffffffffff16148061199057503373ffffffffffffffffffffffffffffffffffffffff168160070160009054906101000a900473ffffffffffffffffffffffffffffffffffffffff1673ffffffffffffffffffffffffffffffffffffffff16145b6119cf576040517f08c379a00000000000000000000000000000000000000000000000000000000081526004016119c690614988565b60405180910390fd5b6119d882611f05565b15611a18576040517f08c379a0000000000000000000000000000000000000000000000000000000008152600401611a0f90614866565b60405180910390fd5b8060090160169054906101000a900460ff1615611a6a576040517f08c379a0000000000000000000000000000000000000000000000000000000008152600401611a6190614a1a565b60405180910390fd5b8060090160159054906101000a900460ff1615611abc576040517f08c379a0000000000000000000000000000000000000000000000000000000008152600401611ab390614aac565b60405180910390fd5b6000600460008360070160009054906101000a900473ffffffffffffffffffffffffffffffffffffffff1673ffffffffffffffffffffffffffffffffffffffff1673ffffffffffffffffffffffffffffffffffffffff16815260200190815260200160002090506000600460008460080160009054906101000a900473ffffffffffffffffffffffffffffffffffffffff1673ffffffffffffffffffffffffffffffffffffffff1673ffffffffffffffffffffffffffffffffffffffff1681526020019081526020016000209050611b948383612e6b565b611b9e8382612e6b565b60005b600680549050811015611c7157600060068281548110611bc457611bc3614acc565b5b906000526020600020015490508460000154811415611c5d5760066001600680549050611bf19190614afb565b81548110611c0257611c01614acc565b5b906000526020600020015460068381548110611c2157611c20614acc565b5b90600052602060002001819055506006805480611c4157611c40614b2f565b5b6001900381819060005260206000200160009055905550611c71565b508080611c6990614b5e565b915050611ba1565b5060056000858152602001908152602001600020600080820160009055600182016000611c9e9190613781565b600282016000611cae9190613781565b6003820160009055600482016000611cc69190613781565b600582016000611cd69190613781565b60068201600090556007820160006101000a81549073ffffffffffffffffffffffffffffffffffffffff02191690556008820160006101000a81549073ffffffffffffffffffffffffffffffffffffffff02191690556009820160006101000a81549073ffffffffffffffffffffffffffffffffffffffff02191690556009820160146101000a81549060ff02191690556009820160156101000a81549060ff02191690556009820160166101000a81549060ff0219169055600a820160009055600b82016000905550507fa79cbd780b972df9dc5822d85a863fda61705b34f061ccf817936889652190ca8360000154336001604051611dd9939291906146e5565b60405180910390a150505050565b611def61257c565b73ffffffffffffffffffffffffffffffffffffffff16611e0d61141e565b73ffffffffffffffffffffffffffffffffffffffff1614611e63576040517f08c379a0000000000000000000000000000000000000000000000000000000008152600401611e5a90614768565b60405180910390fd5b600073ffffffffffffffffffffffffffffffffffffffff168173ffffffffffffffffffffffffffffffffffffffff161415611ed3576040517f08c379a0000000000000000000000000000000000000000000000000000000008152600401611eca90614c19565b60405180910390fd5b611edc81612584565b50565b600960009054906101000a900473ffffffffffffffffffffffffffffffffffffffff1681565b6000806005600084815260200190815260200160002090508060090160159054906101000a900460ff168015611f4a57508060090160169054906101000a900460ff16155b15611f59576000915050611f84565b8060090160149054906101000a900460ff16611f79576001915050611f84565b4281600b0154109150505b919050565b6001816000016000828254019250508190555050565b600081600001549050919050565b60005b816001018054905081101561211f578160080160009054906101000a900473ffffffffffffffffffffffffffffffffffffffff1673ffffffffffffffffffffffffffffffffffffffff16600860009054906101000a900473ffffffffffffffffffffffffffffffffffffffff1673ffffffffffffffffffffffffffffffffffffffff16636352211e84600101848154811061204e5761204d614acc565b5b90600052602060002001546040518263ffffffff1660e01b8152600401612075919061430c565b602060405180830381865afa158015612092573d6000803e3d6000fd5b505050506040513d601f19601f820116820180604052508101906120b69190614c4e565b73ffffffffffffffffffffffffffffffffffffffff161461210c576040517f08c379a000000000000000000000000000000000000000000000000000000000815260040161210390614ced565b60405180910390fd5b808061211790614b5e565b915050611fb0565b5060005b8160040180549050811015612292578160070160009054906101000a900473ffffffffffffffffffffffffffffffffffffffff1673ffffffffffffffffffffffffffffffffffffffff16600860009054906101000a900473ffffffffffffffffffffffffffffffffffffffff1673ffffffffffffffffffffffffffffffffffffffff16636352211e8460040184815481106121c1576121c0614acc565b5b90600052602060002001546040518263ffffffff1660e01b81526004016121e8919061430c565b602060405180830381865afa158015612205573d6000803e3d6000fd5b505050506040513d601f19601f820116820180604052508101906122299190614c4e565b73ffffffffffffffffffffffffffffffffffffffff161461227f576040517f08c379a000000000000000000000000000000000000000000000000000000000815260040161227690614d7f565b60405180910390fd5b808061228a90614b5e565b915050612123565b5060005b8160020180549050811015612405578160080160009054906101000a900473ffffffffffffffffffffffffffffffffffffffff1673ffffffffffffffffffffffffffffffffffffffff16600960009054906101000a900473ffffffffffffffffffffffffffffffffffffffff1673ffffffffffffffffffffffffffffffffffffffff16636352211e84600201848154811061233457612333614acc565b5b90600052602060002001546040518263ffffffff1660e01b815260040161235b919061430c565b602060405180830381865afa158015612378573d6000803e3d6000fd5b505050506040513d601f19601f8201168201806040525081019061239c9190614c4e565b73ffffffffffffffffffffffffffffffffffffffff16146123f2576040517f08c379a00000000000000000000000000000000000000000000000000000000081526004016123e990614ced565b60405180910390fd5b80806123fd90614b5e565b915050612296565b5060005b8160050180549050811015612578578160070160009054906101000a900473ffffffffffffffffffffffffffffffffffffffff1673ffffffffffffffffffffffffffffffffffffffff16600960009054906101000a900473ffffffffffffffffffffffffffffffffffffffff1673ffffffffffffffffffffffffffffffffffffffff16636352211e8460050184815481106124a7576124a6614acc565b5b90600052602060002001546040518263ffffffff1660e01b81526004016124ce919061430c565b602060405180830381865afa1580156124eb573d6000803e3d6000fd5b505050506040513d601f19601f8201168201806040525081019061250f9190614c4e565b73ffffffffffffffffffffffffffffffffffffffff1614612565576040517f08c379a000000000000000000000000000000000000000000000000000000000815260040161255c90614d7f565b60405180910390fd5b808061257090614b5e565b915050612409565b5050565b600033905090565b60008060009054906101000a900473ffffffffffffffffffffffffffffffffffffffff169050816000806101000a81548173ffffffffffffffffffffffffffffffffffffffff021916908373ffffffffffffffffffffffffffffffffffffffff1602179055508173ffffffffffffffffffffffffffffffffffffffff168173ffffffffffffffffffffffffffffffffffffffff167f8be0079c531659141344cd1fd0a4f28419497f9722a3daafe3b4186f6b6457e060405160405180910390a35050565b600080600090505b82805490508110156129c057600083828154811061267157612670614acc565b5b90600052602060002090600c0201604051806101e001604052908160008201548152602001600182018054806020026020016040519081016040528092919081815260200182805480156126e457602002820191906000526020600020905b8154815260200190600101908083116126d0575b505050505081526020016002820180548060200260200160405190810160405280929190818152602001828054801561273c57602002820191906000526020600020905b815481526020019060010190808311612728575b50505050508152602001600382015481526020016004820180548060200260200160405190810160405280929190818152602001828054801561279e57602002820191906000526020600020905b81548152602001906001019080831161278a575b50505050508152602001600582018054806020026020016040519081016040528092919081815260200182805480156127f657602002820191906000526020600020905b8154815260200190600101908083116127e2575b50505050508152602001600682015481526020016007820160009054906101000a900473ffffffffffffffffffffffffffffffffffffffff1673ffffffffffffffffffffffffffffffffffffffff1673ffffffffffffffffffffffffffffffffffffffff1681526020016008820160009054906101000a900473ffffffffffffffffffffffffffffffffffffffff1673ffffffffffffffffffffffffffffffffffffffff1673ffffffffffffffffffffffffffffffffffffffff1681526020016009820160009054906101000a900473ffffffffffffffffffffffffffffffffffffffff1673ffffffffffffffffffffffffffffffffffffffff1673ffffffffffffffffffffffffffffffffffffffff1681526020016009820160149054906101000a900460ff161515151581526020016009820160159054906101000a900460ff161515151581526020016009820160169054906101000a900460ff16151515158152602001600a8201548152602001600b8201548152505090508460000154816000015114156129ac5783828154811061299557612994614acc565b5b90600052602060002090600c0201925050506129e6565b5080806129b890614b5e565b915050612650565b50816000815481106129d5576129d4614acc565b5b90600052602060002090600c020190505b92915050565b60005b8160010180549050811015612b0a57600860009054906101000a900473ffffffffffffffffffffffffffffffffffffffff1673ffffffffffffffffffffffffffffffffffffffff166342842e0e8360080160009054906101000a900473ffffffffffffffffffffffffffffffffffffffff168460070160009054906101000a900473ffffffffffffffffffffffffffffffffffffffff16856001018581548110612a9c57612a9b614acc565b5b90600052602060002001546040518463ffffffff1660e01b8152600401612ac593929190614886565b600060405180830381600087803b158015612adf57600080fd5b505af1158015612af3573d6000803e3d6000fd5b505050508080612b0290614b5e565b9150506129ef565b5060005b8160040180549050811015612c2957600860009054906101000a900473ffffffffffffffffffffffffffffffffffffffff1673ffffffffffffffffffffffffffffffffffffffff166342842e0e8360070160009054906101000a900473ffffffffffffffffffffffffffffffffffffffff168460080160009054906101000a900473ffffffffffffffffffffffffffffffffffffffff16856004018581548110612bbb57612bba614acc565b5b90600052602060002001546040518463ffffffff1660e01b8152600401612be493929190614886565b600060405180830381600087803b158015612bfe57600080fd5b505af1158015612c12573d6000803e3d6000fd5b505050508080612c2190614b5e565b915050612b0e565b5060005b8160020180549050811015612d4857600960009054906101000a900473ffffffffffffffffffffffffffffffffffffffff1673ffffffffffffffffffffffffffffffffffffffff166342842e0e8360080160009054906101000a900473ffffffffffffffffffffffffffffffffffffffff168460070160009054906101000a900473ffffffffffffffffffffffffffffffffffffffff16856002018581548110612cda57612cd9614acc565b5b90600052602060002001546040518463ffffffff1660e01b8152600401612d0393929190614886565b600060405180830381600087803b158015612d1d57600080fd5b505af1158015612d31573d6000803e3d6000fd5b505050508080612d4090614b5e565b915050612c2d565b5060005b8160050180549050811015612e6757600960009054906101000a900473ffffffffffffffffffffffffffffffffffffffff1673ffffffffffffffffffffffffffffffffffffffff166342842e0e8360070160009054906101000a900473ffffffffffffffffffffffffffffffffffffffff168460080160009054906101000a900473ffffffffffffffffffffffffffffffffffffffff16856005018581548110612df957612df8614acc565b5b90600052602060002001546040518463ffffffff1660e01b8152600401612e2293929190614886565b600060405180830381600087803b158015612e3c57600080fd5b505af1158015612e50573d6000803e3d6000fd5b505050508080612e5f90614b5e565b915050612d4c565b5050565b60005b8180549050811015613671576000828281548110612e8f57612e8e614acc565b5b90600052602060002090600c0201604051806101e00160405290816000820154815260200160018201805480602002602001604051908101604052809291908181526020018280548015612f0257602002820191906000526020600020905b815481526020019060010190808311612eee575b5050505050815260200160028201805480602002602001604051908101604052809291908181526020018280548015612f5a57602002820191906000526020600020905b815481526020019060010190808311612f46575b505050505081526020016003820154815260200160048201805480602002602001604051908101604052809291908181526020018280548015612fbc57602002820191906000526020600020905b815481526020019060010190808311612fa8575b505050505081526020016005820180548060200260200160405190810160405280929190818152602001828054801561301457602002820191906000526020600020905b815481526020019060010190808311613000575b50505050508152602001600682015481526020016007820160009054906101000a900473ffffffffffffffffffffffffffffffffffffffff1673ffffffffffffffffffffffffffffffffffffffff1673ffffffffffffffffffffffffffffffffffffffff1681526020016008820160009054906101000a900473ffffffffffffffffffffffffffffffffffffffff1673ffffffffffffffffffffffffffffffffffffffff1673ffffffffffffffffffffffffffffffffffffffff1681526020016009820160009054906101000a900473ffffffffffffffffffffffffffffffffffffffff1673ffffffffffffffffffffffffffffffffffffffff1673ffffffffffffffffffffffffffffffffffffffff1681526020016009820160149054906101000a900460ff161515151581526020016009820160159054906101000a900460ff161515151581526020016009820160169054906101000a900460ff16151515158152602001600a8201548152602001600b82015481525050905083600001548160000151141561365d5782600184805490506131b29190614afb565b815481106131c3576131c2614acc565b5b90600052602060002090600c02018383815481106131e4576131e3614acc565b5b90600052602060002090600c02016000820154816000015560018201816001019080546132129291906137a2565b5060028201816002019080546132299291906137a2565b5060038201548160030155600482018160040190805461324a9291906137a2565b5060058201816005019080546132619291906137a2565b50600682015481600601556007820160009054906101000a900473ffffffffffffffffffffffffffffffffffffffff168160070160006101000a81548173ffffffffffffffffffffffffffffffffffffffff021916908373ffffffffffffffffffffffffffffffffffffffff1602179055506008820160009054906101000a900473ffffffffffffffffffffffffffffffffffffffff168160080160006101000a81548173ffffffffffffffffffffffffffffffffffffffff021916908373ffffffffffffffffffffffffffffffffffffffff1602179055506009820160009054906101000a900473ffffffffffffffffffffffffffffffffffffffff168160090160006101000a81548173ffffffffffffffffffffffffffffffffffffffff021916908373ffffffffffffffffffffffffffffffffffffffff1602179055506009820160149054906101000a900460ff168160090160146101000a81548160ff0219169083151502179055506009820160159054906101000a900460ff168160090160156101000a81548160ff0219169083151502179055506009820160169054906101000a900460ff168160090160166101000a81548160ff021916908315150217905550600a82015481600a0155600b82015481600b015590505082600460008660070160009054906101000a900473ffffffffffffffffffffffffffffffffffffffff1673ffffffffffffffffffffffffffffffffffffffff1673ffffffffffffffffffffffffffffffffffffffff1681526020019081526020016000209080546134b19291906137f4565b50600460008560070160009054906101000a900473ffffffffffffffffffffffffffffffffffffffff1673ffffffffffffffffffffffffffffffffffffffff1673ffffffffffffffffffffffffffffffffffffffff16815260200190815260200160002080548061352557613524614b2f565b5b60019003818190600052602060002090600c02016000808201600090556001820160006135529190613781565b6002820160006135629190613781565b600382016000905560048201600061357a9190613781565b60058201600061358a9190613781565b60068201600090556007820160006101000a81549073ffffffffffffffffffffffffffffffffffffffff02191690556008820160006101000a81549073ffffffffffffffffffffffffffffffffffffffff02191690556009820160006101000a81549073ffffffffffffffffffffffffffffffffffffffff02191690556009820160146101000a81549060ff02191690556009820160156101000a81549060ff02191690556009820160166101000a81549060ff0219169055600a820160009055600b8201600090555050905550613671565b50808061366990614b5e565b915050612e6e565b505050565b604051806101e0016040528060008152602001606081526020016060815260200160008152602001606081526020016060815260200160008152602001600073ffffffffffffffffffffffffffffffffffffffff168152602001600073ffffffffffffffffffffffffffffffffffffffff168152602001600073ffffffffffffffffffffffffffffffffffffffff16815260200160001515815260200160001515815260200160001515815260200160008152602001600081525090565b828054828255906000526020600020908101928215613770579160200282015b8281111561376f578251825591602001919060010190613754565b5b50905061377d9190613a96565b5090565b508054600082559060005260206000209081019061379f9190613a96565b50565b8280548282559060005260206000209081019282156137e35760005260206000209182015b828111156137e25782548255916001019190600101906137c7565b5b5090506137f09190613a96565b5090565b82805482825590600052602060002090600c028101928215613a8557600052602060002091600c0282015b82811115613a845782826000820154816000015560018201816001019080546138499291906137a2565b5060028201816002019080546138609291906137a2565b506003820154816003015560048201816004019080546138819291906137a2565b5060058201816005019080546138989291906137a2565b50600682015481600601556007820160009054906101000a900473ffffffffffffffffffffffffffffffffffffffff168160070160006101000a81548173ffffffffffffffffffffffffffffffffffffffff021916908373ffffffffffffffffffffffffffffffffffffffff1602179055506008820160009054906101000a900473ffffffffffffffffffffffffffffffffffffffff168160080160006101000a81548173ffffffffffffffffffffffffffffffffffffffff021916908373ffffffffffffffffffffffffffffffffffffffff1602179055506009820160009054906101000a900473ffffffffffffffffffffffffffffffffffffffff168160090160006101000a81548173ffffffffffffffffffffffffffffffffffffffff021916908373ffffffffffffffffffffffffffffffffffffffff1602179055506009820160149054906101000a900460ff168160090160146101000a81548160ff0219169083151502179055506009820160159054906101000a900460ff168160090160156101000a81548160ff0219169083151502179055506009820160169054906101000a900460ff168160090160166101000a81548160ff021916908315150217905550600a82015481600a0155600b82015481600b0155505091600c019190600c019061381f565b5b509050613a929190613ab3565b5090565b5b80821115613aaf576000816000905550600101613a97565b5090565b5b80821115613bdf57600080820160009055600182016000613ad59190613781565b600282016000613ae59190613781565b6003820160009055600482016000613afd9190613781565b600582016000613b0d9190613781565b60068201600090556007820160006101000a81549073ffffffffffffffffffffffffffffffffffffffff02191690556008820160006101000a81549073ffffffffffffffffffffffffffffffffffffffff02191690556009820160006101000a81549073ffffffffffffffffffffffffffffffffffffffff02191690556009820160146101000a81549060ff02191690556009820160156101000a81549060ff02191690556009820160166101000a81549060ff0219169055600a820160009055600b82016000905550600c01613ab4565b5090565b6000604051905090565b600080fd5b600080fd5b6000819050919050565b613c0a81613bf7565b8114613c1557600080fd5b50565b600081359050613c2781613c01565b92915050565b600060208284031215613c4357613c42613bed565b5b6000613c5184828501613c18565b91505092915050565b613c6381613bf7565b82525050565b600081519050919050565b600082825260208201905092915050565b6000819050602082019050919050565b6000613ca18383613c5a565b60208301905092915050565b6000602082019050919050565b6000613cc582613c69565b613ccf8185613c74565b9350613cda83613c85565b8060005b83811015613d0b578151613cf28882613c95565b9750613cfd83613cad565b925050600181019050613cde565b5085935050505092915050565b600073ffffffffffffffffffffffffffffffffffffffff82169050919050565b6000613d4382613d18565b9050919050565b613d5381613d38565b82525050565b60008115159050919050565b613d6e81613d59565b82525050565b60006101e083016000830151613d8d6000860182613c5a565b5060208301518482036020860152613da58282613cba565b91505060408301518482036040860152613dbf8282613cba565b9150506060830151613dd46060860182613c5a565b5060808301518482036080860152613dec8282613cba565b91505060a083015184820360a0860152613e068282613cba565b91505060c0830151613e1b60c0860182613c5a565b5060e0830151613e2e60e0860182613d4a565b50610100830151613e43610100860182613d4a565b50610120830151613e58610120860182613d4a565b50610140830151613e6d610140860182613d65565b50610160830151613e82610160860182613d65565b50610180830151613e97610180860182613d65565b506101a0830151613eac6101a0860182613c5a565b506101c0830151613ec16101c0860182613c5a565b508091505092915050565b60006020820190508181036000830152613ee68184613d74565b905092915050565b600082825260208201905092915050565b6000613f0a82613c69565b613f148185613eee565b9350613f1f83613c85565b8060005b83811015613f50578151613f378882613c95565b9750613f4283613cad565b925050600181019050613f23565b5085935050505092915050565b60006020820190508181036000830152613f778184613eff565b905092915050565b6000613f8a82613d18565b9050919050565b613f9a81613f7f565b8114613fa557600080fd5b50565b600081359050613fb781613f91565b92915050565b600080fd5b6000601f19601f8301169050919050565b7f4e487b7100000000000000000000000000000000000000000000000000000000600052604160045260246000fd5b61400b82613fc2565b810181811067ffffffffffffffff8211171561402a57614029613fd3565b5b80604052505050565b600061403d613be3565b90506140498282614002565b919050565b600067ffffffffffffffff82111561406957614068613fd3565b5b602082029050602081019050919050565b600080fd5b600061409261408d8461404e565b614033565b905080838252602082019050602084028301858111156140b5576140b461407a565b5b835b818110156140de57806140ca8882613c18565b8452602084019350506020810190506140b7565b5050509392505050565b600082601f8301126140fd576140fc613fbd565b5b813561410d84826020860161407f565b91505092915050565b61411f81613d38565b811461412a57600080fd5b50565b60008135905061413c81614116565b92915050565b60008060008060008060008060006101208a8c03121561416557614164613bed565b5b60006141738c828d01613fa8565b99505060208a013567ffffffffffffffff81111561419457614193613bf2565b5b6141a08c828d016140e8565b98505060408a013567ffffffffffffffff8111156141c1576141c0613bf2565b5b6141cd8c828d016140e8565b97505060606141de8c828d01613c18565b96505060808a013567ffffffffffffffff8111156141ff576141fe613bf2565b5b61420b8c828d016140e8565b95505060a08a013567ffffffffffffffff81111561422c5761422b613bf2565b5b6142388c828d016140e8565b94505060c06142498c828d01613c18565b93505060e061425a8c828d0161412d565b92505061010061426c8c828d01613c18565b9150509295985092959850929598565b60006020828403121561429257614291613bed565b5b60006142a08482850161412d565b91505092915050565b6142b281613d59565b82525050565b60006020820190506142cd60008301846142a9565b92915050565b6142dc81613d38565b82525050565b60006020820190506142f760008301846142d3565b92915050565b61430681613bf7565b82525050565b600060208201905061432160008301846142fd565b92915050565b600081519050919050565b600082825260208201905092915050565b6000819050602082019050919050565b60006101e08301600083015161436c6000860182613c5a565b50602083015184820360208601526143848282613cba565b9150506040830151848203604086015261439e8282613cba565b91505060608301516143b36060860182613c5a565b50608083015184820360808601526143cb8282613cba565b91505060a083015184820360a08601526143e58282613cba565b91505060c08301516143fa60c0860182613c5a565b5060e083015161440d60e0860182613d4a565b50610100830151614422610100860182613d4a565b50610120830151614437610120860182613d4a565b5061014083015161444c610140860182613d65565b50610160830151614461610160860182613d65565b50610180830151614476610180860182613d65565b506101a083015161448b6101a0860182613c5a565b506101c08301516144a06101c0860182613c5a565b508091505092915050565b60006144b78383614353565b905092915050565b6000602082019050919050565b60006144d782614327565b6144e18185614332565b9350836020820285016144f385614343565b8060005b8581101561452f578484038952815161451085826144ab565b945061451b836144bf565b925060208a019950506001810190506144f7565b50829750879550505050505092915050565b6000602082019050818103600083015261455b81846144cc565b905092915050565b600082825260208201905092915050565b7f4d757374206265206c697374656420707269636520696e20617070726f76656460008201527f20746f6b656e0000000000000000000000000000000000000000000000000000602082015250565b60006145d0602683614563565b91506145db82614574565b604082019050919050565b600060208201905081810360008301526145ff816145c3565b9050919050565b7f4e487b7100000000000000000000000000000000000000000000000000000000600052601160045260246000fd5b600061464082613bf7565b915061464b83613bf7565b9250817fffffffffffffffffffffffffffffffffffffffffffffffffffffffffffffffff048311821515161561468457614683614606565b5b828202905092915050565b600061469a82613bf7565b91506146a583613bf7565b9250827fffffffffffffffffffffffffffffffffffffffffffffffffffffffffffffffff038211156146da576146d9614606565b5b828201905092915050565b60006060820190506146fa60008301866142fd565b61470760208301856142d3565b61471460408301846142a9565b949350505050565b7f4f776e61626c653a2063616c6c6572206973206e6f7420746865206f776e6572600082015250565b6000614752602083614563565b915061475d8261471c565b602082019050919050565b6000602082019050818103600083015261478181614745565b9050919050565b7f4f6e6c79206f666665726564206163636f756e742063616e206163636570742060008201527f6f66666572000000000000000000000000000000000000000000000000000000602082015250565b60006147e4602583614563565b91506147ef82614788565b604082019050919050565b60006020820190508181036000830152614813816147d7565b9050919050565b7f4f66666572206861732065787069726564000000000000000000000000000000600082015250565b6000614850601183614563565b915061485b8261481a565b602082019050919050565b6000602082019050818103600083015261487f81614843565b9050919050565b600060608201905061489b60008301866142d3565b6148a860208301856142d3565b6148b560408301846142fd565b949350505050565b6148c681613d59565b81146148d157600080fd5b50565b6000815190506148e3816148bd565b92915050565b6000602082840312156148ff576148fe613bed565b5b600061490d848285016148d4565b91505092915050565b7f43616e6e6f742062652063616e63656c6c6564206279206e6f6e20696e766f6c60008201527f7665642070617274696573000000000000000000000000000000000000000000602082015250565b6000614972602b83614563565b915061497d82614916565b604082019050919050565b600060208201905081810360008301526149a181614965565b9050919050565b7f43616e6e6f7420726567756c61722063616e63656c207768656e2066726f6d2060008201527f7061727479206861732061636365707465640000000000000000000000000000602082015250565b6000614a04603283614563565b9150614a0f826149a8565b604082019050919050565b60006020820190508181036000830152614a33816149f7565b9050919050565b7f43616e6e6f7420726567756c61722063616e63656c207768656e20746f20706160008201527f7274792068617320616363657074656400000000000000000000000000000000602082015250565b6000614a96603083614563565b9150614aa182614a3a565b604082019050919050565b60006020820190508181036000830152614ac581614a89565b9050919050565b7f4e487b7100000000000000000000000000000000000000000000000000000000600052603260045260246000fd5b6000614b0682613bf7565b9150614b1183613bf7565b925082821015614b2457614b23614606565b5b828203905092915050565b7f4e487b7100000000000000000000000000000000000000000000000000000000600052603160045260246000fd5b6000614b6982613bf7565b91507fffffffffffffffffffffffffffffffffffffffffffffffffffffffffffffffff821415614b9c57614b9b614606565b5b600182019050919050565b7f4f776e61626c653a206e6577206f776e657220697320746865207a65726f206160008201527f6464726573730000000000000000000000000000000000000000000000000000602082015250565b6000614c03602683614563565b9150614c0e82614ba7565b604082019050919050565b60006020820190508181036000830152614c3281614bf6565b9050919050565b600081519050614c4881614116565b92915050565b600060208284031215614c6457614c63613bed565b5b6000614c7284828501614c39565b91505092915050565b7f4f666665726564206163636f756e74206d757374206f776e20616c6c2072657160008201527f756573746564204e465473000000000000000000000000000000000000000000602082015250565b6000614cd7602b83614563565b9150614ce282614c7b565b604082019050919050565b60006020820190508181036000830152614d0681614cca565b9050919050565b7f4f66666572696e67206163636f756e74206d757374206f776e20616c6c206f6660008201527f6665726564204e46547300000000000000000000000000000000000000000000602082015250565b6000614d69602a83614563565b9150614d7482614d0d565b604082019050919050565b60006020820190508181036000830152614d9881614d5c565b905091905056fea264697066735822122014a96ca9b189fb9721b4d9a81f70d4bf013b1ddef6cedc43502af7553a405f4664736f6c634300080a0033",
  "immutableReferences": {},
  "source": "pragma solidity ^0.8.0;\n\nimport \"@openzeppelin/contracts/access/Ownable.sol\";\nimport \"@openzeppelin/contracts/token/ERC721/ERC721.sol\";\nimport \"@openzeppelin/contracts/token/ERC20/IERC20.sol\";\nimport \"@openzeppelin/contracts/token/ERC20/ERC20.sol\";\nimport \"@openzeppelin/contracts/token/ERC721/IERC721.sol\";\nimport \"@openzeppelin/contracts/utils/Counters.sol\";\n\nimport \"./ViridianNFT.sol\";\nimport \"./ViridianPack.sol\";\n\ncontract ViridianExchangeOffers is Ownable {\n\n    //EVENTS\n    event CreatedOffer(uint256 offerId, address wallet, bool created);\n    event CancelledOffer(uint256 offerId, address wallet, bool cancelled);\n    event AcceptedOffer(uint256 offerId, address wallet, bool accepted);\n\n\n    using Counters for Counters.Counter;\n    Counters.Counter private _offerIds;\n\n    ViridianNFT vNFT;\n    ViridianPack vPack;\n\n    struct Offer {\n        uint256 offerId;\n        uint256[] toNftIds;\n        uint256[] toPackIds;\n        uint toAmt;\n        uint256[] fromNftIds;\n        uint256[] fromPackIds;\n        uint fromAmt;\n        address to;\n        address from;\n        address erc20Address;\n        bool pending;\n        bool toAccepted;\n        bool fromAccepted;\n        uint256 startTime;\n        uint256 endTime;\n    }\n\n    mapping (address => Offer[]) userOffers;\n    mapping (uint256 => Offer) offers;\n    uint256[] private offerIds;\n    mapping (uint256 => uint256) highestCardOffer;\n\n    address public viridianNFT;\n    address public viridianPack;\n    mapping (address => bool) public approvedTokens;\n\n    constructor(address _erc20Token, address _viridianNFT, address _viridianPack) {\n        require(address(_erc20Token) != address(0));\n        require(address(_viridianNFT) != address(0));\n        require(address(_viridianPack) != address(0));\n\n        approvedTokens[_erc20Token] = true;\n        //address _ETH, ETH = _ETH;\n        viridianNFT = _viridianNFT;\n        viridianPack = _viridianPack;\n\n        vNFT = ViridianNFT(_viridianNFT);\n        vPack = ViridianPack(_viridianPack);\n    }\n\n    function addERC20Token(address _erc20Address) public onlyOwner() returns (uint) {\n        approvedTokens[_erc20Address] = true;\n    }\n\n    function getOffers() public view returns (uint256[] memory) {\n        return offerIds;\n    }\n\n    function getOffersFromId(uint256 _offerId) public view returns (Offer memory) {\n        return offers[_offerId];\n    }\n\n    function getOffersFromUser(address _userAddr) public view returns (Offer[] memory) {\n        return userOffers[_userAddr];\n    }\n\n    function hasOfferExpired(uint256 _offerId) public view returns (bool) {\n        Offer storage curOffer = offers[_offerId];\n\n        // Always return false if the current offer is pending final approval\n        if (curOffer.toAccepted && !curOffer.fromAccepted) {\n            return false;\n        }\n\n        if (!curOffer.pending) {\n            return true;\n        }\n        else {\n            return curOffer.endTime < block.timestamp;\n        }\n    }\n\n    function makeOffer(address payable _to, uint256[] memory _nftIds, uint256[] memory _packIds, uint256 _amount, uint256[] memory _recNftIds, uint256[] memory _recPackIds, uint256 _recAmount, address _erc20Address, uint256 _daysValid) public {\n        require(approvedTokens[_erc20Address], \"Must be listed price in approved token\");\n        require(_to != msg.sender);\n\n        // if(!IERC721(viridianNFT).isApprovedForAll(msg.sender, address(this))) {\n        //     IERC721(viridianNFT).setApprovalForAll(address(this), true);\n        // }\n\n        _offerIds.increment();\n        uint256 _offerId = _offerIds.current();\n\n        uint256 endTime = block.timestamp + (_daysValid * 1 days);\n\n        Offer memory newOffer = Offer(_offerId, _nftIds, _packIds, _amount, _recNftIds, _recPackIds, _recAmount, _to, payable(msg.sender), _erc20Address, true, false, false, block.timestamp, endTime);\n        \n        userOffers[_to].push(newOffer);\n        userOffers[msg.sender].push(newOffer);\n        offers[_offerId] = newOffer;\n\n        doOfferingPartiesOwnContents(offers[_offerId]);\n        offerIds.push(_offerId);\n\n        emit CreatedOffer(_offerId, msg.sender, true);\n    }\n\n    function removeOffer(Offer storage curOffer, Offer[] storage curUserOffers) private {\n        for (uint i = 0; i < curUserOffers.length; i++) {\n            Offer memory offer = curUserOffers[i];\n            if (offer.offerId == curOffer.offerId) {\n                curUserOffers[i] = curUserOffers[curUserOffers.length - 1];\n                userOffers[curOffer.to] = curUserOffers;\n                userOffers[curOffer.to].pop();\n                break;\n            }\n        } \n    }\n \n    function cancelOffer(uint256 _offerId) public {\n        Offer storage curOffer = offers[_offerId];\n        require(curOffer.from == msg.sender || curOffer.to == msg.sender, \"Cannot be cancelled by non involved parties\");\n        require(!hasOfferExpired(_offerId), \"Offer has expired\");\n        require(!curOffer.fromAccepted, \"Cannot regular cancel when from party has accepted\");\n        require(!curOffer.toAccepted, \"Cannot regular cancel when to party has accepted\");\n\n        Offer[] storage curUserOffers = userOffers[curOffer.to];\n        Offer[] storage otherUserOffers = userOffers[curOffer.from];\n        \n        //TODO: Check who is cancelling and cancel that person's offers.\n\n        // Remove offer from current user's offers\n        removeOffer(curOffer, curUserOffers);\n\n        // Remove offer from other user's offers\n        removeOffer(curOffer, otherUserOffers);\n\n        // Remove offer id from global list of offer ids\n        for (uint256 i = 0; i < offerIds.length; i++) {\n            uint256 offerId = offerIds[i];\n            if (offerId == curOffer.offerId) {\n                offerIds[i] = offerIds[offerIds.length - 1];\n                offerIds.pop();\n                break;\n            }\n        }\n\n        // Remove offer from global mapping of offers\n        delete offers[_offerId];\n\n        emit CancelledOffer(curOffer.offerId, msg.sender, true);\n    }\n\n    function doOfferingPartiesOwnContents(Offer storage _curOffer) private view {\n        for (uint i = 0; i < _curOffer.toNftIds.length; i++) {\n            require(IERC721(viridianNFT).ownerOf(_curOffer.toNftIds[i]) == _curOffer.from, \"Offered account must own all requested NFTs\");\n        }\n\n        for (uint i = 0; i < _curOffer.fromNftIds.length; i++) {\n            require(IERC721(viridianNFT).ownerOf(_curOffer.fromNftIds[i]) == _curOffer.to, \"Offering account must own all offered NFTs\");\n        }\n\n        for (uint i = 0; i < _curOffer.toPackIds.length; i++) {\n            require(IERC721(viridianPack).ownerOf(_curOffer.toPackIds[i]) == _curOffer.from, \"Offered account must own all requested NFTs\");\n        }\n\n        for (uint i = 0; i < _curOffer.fromPackIds.length; i++) {\n            require(IERC721(viridianPack).ownerOf(_curOffer.fromPackIds[i]) == _curOffer.to, \"Offering account must own all offered NFTs\");\n        }\n    }\n\n    function transferAllOfferContents(Offer storage _curOffer) private {\n        // Loop through all of the to items in the offer.\n        for (uint i = 0; i < _curOffer.toNftIds.length; i++) {\n            //IERC721(viridianNFT).approve(curOffer.to, curOffer.fromNftIds[i]);\n            IERC721(viridianNFT).safeTransferFrom(_curOffer.from, _curOffer.to, _curOffer.toNftIds[i]);\n        }\n\n        // Loop through all of the from items in the offer.\n        for (uint i = 0; i < _curOffer.fromNftIds.length; i++) {\n            //IERC721(viridianNFT).approve(curOffer.to, curOffer.fromNftIds[i]);\n            IERC721(viridianNFT).safeTransferFrom(_curOffer.to, _curOffer.from, _curOffer.fromNftIds[i]);\n        }\n\n        for (uint i = 0; i < _curOffer.toPackIds.length; i++) {\n            //IERC721(viridianNFT).approve(curOffer.to, curOffer.fromNftIds[i]);\n            IERC721(viridianPack).safeTransferFrom(_curOffer.from, _curOffer.to, _curOffer.toPackIds[i]);\n        }\n\n        // Loop through all of the from items in the offer.\n        for (uint i = 0; i < _curOffer.fromPackIds.length; i++) {\n            //IERC721(viridianNFT).approve(curOffer.to, curOffer.fromNftIds[i]);\n            IERC721(viridianPack).safeTransferFrom(_curOffer.to, _curOffer.from, _curOffer.fromPackIds[i]);\n        }\n    }\n\n    function getCurOffer(Offer storage curOffer, Offer[] storage curUserOffers) private view returns (Offer storage) {\n        for (uint i = 0; i < curUserOffers.length; i++) {\n            Offer memory offer = curUserOffers[i];\n            if (offer.offerId == curOffer.offerId) {\n                return curUserOffers[i]; //.pending = false;\n            }\n        }\n\n        return curUserOffers[0];\n    }\n    \n    function acceptOfferWithERC20(uint256 _offerId) public {\n        Offer storage curOffer = offers[_offerId];\n\n        require(curOffer.to == msg.sender, \"Only offered account can accept offer\");\n        require(!hasOfferExpired(_offerId), \"Offer has expired\");\n\n        Offer[] storage curUserOffers = userOffers[curOffer.to];\n        Offer[] storage otherUserOffers = userOffers[curOffer.from];\n\n        // for (uint i = 0; i < curUserOffers.length; i++) {\n        //     Offer memory offer = curUserOffers[i];\n        //     if (offer.offerId == curOffer.offerId) {\n        //         curUserOffers[i].pending = false;\n        //         break;\n        //     }\n        // }\n\n        Offer storage setOffer = getCurOffer(curOffer, curUserOffers);\n\n        // for (uint i = 0; i < otherUserOffers.length; i++) {\n        //     Offer memory offer = otherUserOffers[i];\n        //     if (offer.offerId == curOffer.offerId) {\n        //         otherUserOffers[i].pending = false;\n        //         break;\n        //     }\n        // }\n\n        Offer storage setOfferO = getCurOffer(curOffer, otherUserOffers);\n\n        doOfferingPartiesOwnContents(curOffer);\n\n        // if(!IERC721(viridianNFT).isApprovedForAll(msg.sender, address(this))) {\n        //     IERC721(viridianNFT).setApprovalForAll(address(this), true);\n        // }\n\n        IERC20(curOffer.erc20Address).transferFrom(curOffer.from, curOffer.to, curOffer.toAmt);\n        IERC20(curOffer.erc20Address).transferFrom(curOffer.to, curOffer.from, curOffer.fromAmt);\n\n        transferAllOfferContents(curOffer);\n\n        curOffer.pending = false;\n        setOffer.pending = false;\n        setOfferO.pending = false;\n        emit AcceptedOffer(_offerId, msg.sender, true);\n    }\n}",
  "sourcePath": "/Users/blakehatch/Viridian-Exchange-Contracts/contracts/ViridianExchangeOffers.sol",
  "compiler": {
    "name": "solc",
    "version": "0.8.10+commit.fc410830.Emscripten.clang"
  },
  "schemaVersion": "3.4.1",
  "updatedAt": "2021-11-18T22:35:36.016Z",
  "networkType": "ethereum",
  "devdoc": {
    "kind": "dev",
    "methods": {
      "owner()": {
        "details": "Returns the address of the current owner."
      },
      "renounceOwnership()": {
        "details": "Leaves the contract without owner. It will not be possible to call `onlyOwner` functions anymore. Can only be called by the current owner. NOTE: Renouncing ownership will leave the contract without an owner, thereby removing any functionality that is only available to the owner."
      },
      "transferOwnership(address)": {
        "details": "Transfers ownership of the contract to a new account (`newOwner`). Can only be called by the current owner."
      }
    },
    "version": 1
  },
  "userdoc": {
    "kind": "user",
    "methods": {},
    "version": 1
  }
}