{
  "contractName": "ViridianNFT",
  "abi": [
    {
      "inputs": [],
      "stateMutability": "nonpayable",
      "type": "constructor"
    },
    {
      "anonymous": false,
      "inputs": [
        {
          "indexed": true,
          "internalType": "address",
          "name": "owner",
          "type": "address"
        },
        {
          "indexed": true,
          "internalType": "address",
          "name": "approved",
          "type": "address"
        },
        {
          "indexed": true,
          "internalType": "uint256",
          "name": "tokenId",
          "type": "uint256"
        }
      ],
      "name": "Approval",
      "type": "event"
    },
    {
      "anonymous": false,
      "inputs": [
        {
          "indexed": true,
          "internalType": "address",
          "name": "owner",
          "type": "address"
        },
        {
          "indexed": true,
          "internalType": "address",
          "name": "operator",
          "type": "address"
        },
        {
          "indexed": false,
          "internalType": "bool",
          "name": "approved",
          "type": "bool"
        }
      ],
      "name": "ApprovalForAll",
      "type": "event"
    },
    {
      "anonymous": false,
      "inputs": [
        {
          "indexed": true,
          "internalType": "address",
          "name": "previousOwner",
          "type": "address"
        },
        {
          "indexed": true,
          "internalType": "address",
          "name": "newOwner",
          "type": "address"
        }
      ],
      "name": "OwnershipTransferred",
      "type": "event"
    },
    {
      "anonymous": false,
      "inputs": [
        {
          "indexed": true,
          "internalType": "address",
          "name": "from",
          "type": "address"
        },
        {
          "indexed": true,
          "internalType": "address",
          "name": "to",
          "type": "address"
        },
        {
          "indexed": true,
          "internalType": "uint256",
          "name": "tokenId",
          "type": "uint256"
        }
      ],
      "name": "Transfer",
      "type": "event"
    },
    {
      "inputs": [
        {
          "internalType": "address",
          "name": "to",
          "type": "address"
        },
        {
          "internalType": "uint256",
          "name": "tokenId",
          "type": "uint256"
        }
      ],
      "name": "approve",
      "outputs": [],
      "stateMutability": "nonpayable",
      "type": "function"
    },
    {
      "inputs": [
        {
          "internalType": "address",
          "name": "owner",
          "type": "address"
        }
      ],
      "name": "balanceOf",
      "outputs": [
        {
          "internalType": "uint256",
          "name": "",
          "type": "uint256"
        }
      ],
      "stateMutability": "view",
      "type": "function",
      "constant": true
    },
    {
      "inputs": [
        {
          "internalType": "uint256",
          "name": "tokenId",
          "type": "uint256"
        }
      ],
      "name": "getApproved",
      "outputs": [
        {
          "internalType": "address",
          "name": "",
          "type": "address"
        }
      ],
      "stateMutability": "view",
      "type": "function",
      "constant": true
    },
    {
      "inputs": [
        {
          "internalType": "address",
          "name": "owner",
          "type": "address"
        },
        {
          "internalType": "address",
          "name": "operator",
          "type": "address"
        }
      ],
      "name": "isApprovedForAll",
      "outputs": [
        {
          "internalType": "bool",
          "name": "",
          "type": "bool"
        }
      ],
      "stateMutability": "view",
      "type": "function",
      "constant": true
    },
    {
      "inputs": [],
      "name": "name",
      "outputs": [
        {
          "internalType": "string",
          "name": "",
          "type": "string"
        }
      ],
      "stateMutability": "view",
      "type": "function",
      "constant": true
    },
    {
      "inputs": [],
      "name": "owner",
      "outputs": [
        {
          "internalType": "address",
          "name": "",
          "type": "address"
        }
      ],
      "stateMutability": "view",
      "type": "function",
      "constant": true
    },
    {
      "inputs": [
        {
          "internalType": "uint256",
          "name": "tokenId",
          "type": "uint256"
        }
      ],
      "name": "ownerOf",
      "outputs": [
        {
          "internalType": "address",
          "name": "",
          "type": "address"
        }
      ],
      "stateMutability": "view",
      "type": "function",
      "constant": true
    },
    {
      "inputs": [],
      "name": "renounceOwnership",
      "outputs": [],
      "stateMutability": "nonpayable",
      "type": "function"
    },
    {
      "inputs": [
        {
          "internalType": "address",
          "name": "operator",
          "type": "address"
        },
        {
          "internalType": "bool",
          "name": "approved",
          "type": "bool"
        }
      ],
      "name": "setApprovalForAll",
      "outputs": [],
      "stateMutability": "nonpayable",
      "type": "function"
    },
    {
      "inputs": [
        {
          "internalType": "bytes4",
          "name": "interfaceId",
          "type": "bytes4"
        }
      ],
      "name": "supportsInterface",
      "outputs": [
        {
          "internalType": "bool",
          "name": "",
          "type": "bool"
        }
      ],
      "stateMutability": "view",
      "type": "function",
      "constant": true
    },
    {
      "inputs": [],
      "name": "symbol",
      "outputs": [
        {
          "internalType": "string",
          "name": "",
          "type": "string"
        }
      ],
      "stateMutability": "view",
      "type": "function",
      "constant": true
    },
    {
      "inputs": [
        {
          "internalType": "address",
          "name": "newOwner",
          "type": "address"
        }
      ],
      "name": "transferOwnership",
      "outputs": [],
      "stateMutability": "nonpayable",
      "type": "function"
    },
    {
      "inputs": [
        {
          "internalType": "string",
          "name": "baseURI_",
          "type": "string"
        }
      ],
      "name": "setBaseURI",
      "outputs": [],
      "stateMutability": "nonpayable",
      "type": "function"
    },
    {
      "inputs": [
        {
          "internalType": "uint256",
          "name": "tokenId",
          "type": "uint256"
        }
      ],
      "name": "tokenURI",
      "outputs": [
        {
          "internalType": "string",
          "name": "",
          "type": "string"
        }
      ],
      "stateMutability": "view",
      "type": "function",
      "constant": true
    },
    {
      "inputs": [],
      "name": "getOwnedNFTs",
      "outputs": [
        {
          "internalType": "uint256[]",
          "name": "",
          "type": "uint256[]"
        }
      ],
      "stateMutability": "view",
      "type": "function",
      "constant": true
    },
    {
      "inputs": [
        {
          "internalType": "address",
          "name": "_newAdmin",
          "type": "address"
        }
      ],
      "name": "addAdmin",
      "outputs": [],
      "stateMutability": "nonpayable",
      "type": "function"
    },
    {
      "inputs": [
        {
          "internalType": "address",
          "name": "_to",
          "type": "address"
        },
        {
          "internalType": "string",
          "name": "tokenURI_",
          "type": "string"
        }
      ],
      "name": "mint",
      "outputs": [],
      "stateMutability": "nonpayable",
      "type": "function"
    },
    {
      "inputs": [
        {
          "internalType": "uint256",
          "name": "tokenId",
          "type": "uint256"
        }
      ],
      "name": "isListed",
      "outputs": [
        {
          "internalType": "bool",
          "name": "",
          "type": "bool"
        }
      ],
      "stateMutability": "view",
      "type": "function",
      "constant": true
    },
    {
      "inputs": [
        {
          "internalType": "uint256",
          "name": "tokenId",
          "type": "uint256"
        }
      ],
      "name": "burn",
      "outputs": [],
      "stateMutability": "nonpayable",
      "type": "function"
    },
    {
      "inputs": [
        {
          "internalType": "address",
          "name": "recipient",
          "type": "address"
        },
        {
          "internalType": "string",
          "name": "hash",
          "type": "string"
        },
        {
          "internalType": "string",
          "name": "metadata",
          "type": "string"
        }
      ],
      "name": "awardItem",
      "outputs": [
        {
          "internalType": "uint256",
          "name": "",
          "type": "uint256"
        }
      ],
      "stateMutability": "nonpayable",
      "type": "function"
    },
    {
      "inputs": [
        {
          "internalType": "address",
          "name": "from",
          "type": "address"
        },
        {
          "internalType": "address",
          "name": "to",
          "type": "address"
        },
        {
          "internalType": "uint256",
          "name": "tokenId",
          "type": "uint256"
        }
      ],
      "name": "safeTransferFrom",
      "outputs": [],
      "stateMutability": "nonpayable",
      "type": "function"
    },
    {
      "inputs": [
        {
          "internalType": "address",
          "name": "from",
          "type": "address"
        },
        {
          "internalType": "address",
          "name": "to",
          "type": "address"
        },
        {
          "internalType": "uint256",
          "name": "tokenId",
          "type": "uint256"
        },
        {
          "internalType": "bytes",
          "name": "_data",
          "type": "bytes"
        }
      ],
      "name": "safeTransferFrom",
      "outputs": [],
      "stateMutability": "nonpayable",
      "type": "function"
    },
    {
      "inputs": [
        {
          "internalType": "address",
          "name": "from",
          "type": "address"
        },
        {
          "internalType": "address",
          "name": "to",
          "type": "address"
        },
        {
          "internalType": "uint256",
          "name": "tokenId",
          "type": "uint256"
        }
      ],
      "name": "transferFrom",
      "outputs": [],
      "stateMutability": "nonpayable",
      "type": "function"
    },
    {
      "inputs": [
        {
          "internalType": "uint256",
          "name": "_tokenId",
          "type": "uint256"
        }
      ],
      "name": "listToken",
      "outputs": [],
      "stateMutability": "nonpayable",
      "type": "function"
    },
    {
      "inputs": [
        {
          "internalType": "uint256",
          "name": "_tokenId",
          "type": "uint256"
        }
      ],
      "name": "unlistToken",
      "outputs": [],
      "stateMutability": "nonpayable",
      "type": "function"
    }
  ],
  "bytecode": "0x60806040523480156200001157600080fd5b506040518060400160405280600c81526020017f566972696469616e204e465400000000000000000000000000000000000000008152506040518060400160405280600481526020017f564e465400000000000000000000000000000000000000000000000000000000815250816000908051906020019062000096929190620001fe565b508060019080519060200190620000af929190620001fe565b505050620000d2620000c66200013060201b60201c565b6200013860201b60201c565b6001600960003373ffffffffffffffffffffffffffffffffffffffff1673ffffffffffffffffffffffffffffffffffffffff16815260200190815260200160002060006101000a81548160ff02191690831515021790555062000313565b600033905090565b6000600660009054906101000a900473ffffffffffffffffffffffffffffffffffffffff16905081600660006101000a81548173ffffffffffffffffffffffffffffffffffffffff021916908373ffffffffffffffffffffffffffffffffffffffff1602179055508173ffffffffffffffffffffffffffffffffffffffff168173ffffffffffffffffffffffffffffffffffffffff167f8be0079c531659141344cd1fd0a4f28419497f9722a3daafe3b4186f6b6457e060405160405180910390a35050565b8280546200020c90620002ae565b90600052602060002090601f0160209004810192826200023057600085556200027c565b82601f106200024b57805160ff19168380011785556200027c565b828001600101855582156200027c579182015b828111156200027b5782518255916020019190600101906200025e565b5b5090506200028b91906200028f565b5090565b5b80821115620002aa57600081600090555060010162000290565b5090565b60006002820490506001821680620002c757607f821691505b60208210811415620002de57620002dd620002e4565b5b50919050565b7f4e487b7100000000000000000000000000000000000000000000000000000000600052602260045260246000fd5b6140ea80620003236000396000f3fe608060405234801561001057600080fd5b50600436106101735760003560e01c8063715018a6116100de578063b88d4fde11610097578063e6148d5f11610071578063e6148d5f14610432578063e985e9c51461044e578063f2fde38b1461047e578063fcce48831461049a57610173565b8063b88d4fde146103ca578063c87b56dd146103e6578063d0def5211461041657610173565b8063715018a61461031c5780638bfaf101146103265780638da5cb5b1461035657806395d89b4114610374578063a22cb46514610392578063ad3a358c146103ae57610173565b806342966c681161013057806342966c681461024a5780634c0eb7d91461026657806355f804b3146102845780636352211e146102a057806370480275146102d057806370a08231146102ec57610173565b806301ffc9a71461017857806306fdde03146101a8578063081812fc146101c6578063095ea7b3146101f657806323b872dd1461021257806342842e0e1461022e575b600080fd5b610192600480360381019061018d9190612edb565b6104ca565b60405161019f919061343a565b60405180910390f35b6101b06105ac565b6040516101bd9190613455565b60405180910390f35b6101e060048036038101906101db9190612f7e565b61063e565b6040516101ed91906133b1565b60405180910390f35b610210600480360381019061020b9190612e9b565b6106c3565b005b61022c60048036038101906102279190612c9e565b6107db565b005b61024860048036038101906102439190612c9e565b610aeb565b005b610264600480360381019061025f9190612f7e565b610dfb565b005b61026e611053565b60405161027b9190613418565b60405180910390f35b61029e60048036038101906102999190612f35565b6110ee565b005b6102ba60048036038101906102b59190612f7e565b611184565b6040516102c791906133b1565b60405180910390f35b6102ea60048036038101906102e59190612c31565b611236565b005b61030660048036038101906103019190612c31565b61130d565b60405161031391906136b7565b60405180910390f35b6103246113c5565b005b610340600480360381019061033b9190612e10565b61144d565b60405161034d91906136b7565b60405180910390f35b61035e6114fa565b60405161036b91906133b1565b60405180910390f35b61037c611524565b6040516103899190613455565b60405180910390f35b6103ac60048036038101906103a79190612d74565b6115b6565b005b6103c860048036038101906103c39190612f7e565b611737565b005b6103e460048036038101906103df9190612cf1565b611766565b005b61040060048036038101906103fb9190612f7e565b6117c8565b60405161040d9190613455565b60405180910390f35b610430600480360381019061042b9190612db4565b61193b565b005b61044c60048036038101906104479190612f7e565b611a5b565b005b61046860048036038101906104639190612c5e565b611a8a565b604051610475919061343a565b60405180910390f35b61049860048036038101906104939190612c31565b611b1e565b005b6104b460048036038101906104af9190612f7e565b611c16565b6040516104c1919061343a565b60405180910390f35b60007f80ac58cd000000000000000000000000000000000000000000000000000000007bffffffffffffffffffffffffffffffffffffffffffffffffffffffff1916827bffffffffffffffffffffffffffffffffffffffffffffffffffffffff1916148061059557507f5b5e139f000000000000000000000000000000000000000000000000000000007bffffffffffffffffffffffffffffffffffffffffffffffffffffffff1916827bffffffffffffffffffffffffffffffffffffffffffffffffffffffff1916145b806105a557506105a482611c40565b5b9050919050565b6060600080546105bb90613946565b80601f01602080910402602001604051908101604052809291908181526020018280546105e790613946565b80156106345780601f1061060957610100808354040283529160200191610634565b820191906000526020600020905b81548152906001019060200180831161061757829003601f168201915b5050505050905090565b600061064982611caa565b610688576040517f08c379a000000000000000000000000000000000000000000000000000000000815260040161067f906135b7565b60405180910390fd5b6004600083815260200190815260200160002060009054906101000a900473ffffffffffffffffffffffffffffffffffffffff169050919050565b60006106ce82611184565b90508073ffffffffffffffffffffffffffffffffffffffff168373ffffffffffffffffffffffffffffffffffffffff16141561073f576040517f08c379a000000000000000000000000000000000000000000000000000000000815260040161073690613657565b60405180910390fd5b8073ffffffffffffffffffffffffffffffffffffffff1661075e611d16565b73ffffffffffffffffffffffffffffffffffffffff16148061078d575061078c81610787611d16565b611a8a565b5b6107cc576040517f08c379a00000000000000000000000000000000000000000000000000000000081526004016107c390613537565b60405180910390fd5b6107d68383611d1e565b505050565b600b600082815260200190815260200160002060009054906101000a900460ff161561083c576040517f08c379a000000000000000000000000000000000000000000000000000000000815260040161083390613697565b60405180910390fd5b60005b600c60008573ffffffffffffffffffffffffffffffffffffffff1673ffffffffffffffffffffffffffffffffffffffff16815260200190815260200160002080549050811015610a74576000600c60008673ffffffffffffffffffffffffffffffffffffffff1673ffffffffffffffffffffffffffffffffffffffff16815260200190815260200160002082815481106108dc576108db613adf565b5b9060005260206000200154905082811415610a6057600c60008673ffffffffffffffffffffffffffffffffffffffff1673ffffffffffffffffffffffffffffffffffffffff1681526020019081526020016000206001600c60008873ffffffffffffffffffffffffffffffffffffffff1673ffffffffffffffffffffffffffffffffffffffff1681526020019081526020016000208054905061097f919061385c565b815481106109905761098f613adf565b5b9060005260206000200154600c60008773ffffffffffffffffffffffffffffffffffffffff1673ffffffffffffffffffffffffffffffffffffffff16815260200190815260200160002083815481106109ec576109eb613adf565b5b9060005260206000200181905550600c60008673ffffffffffffffffffffffffffffffffffffffff1673ffffffffffffffffffffffffffffffffffffffff168152602001908152602001600020805480610a4957610a48613ab0565b5b600190038181906000526020600020016000905590555b508080610a6c906139a9565b91505061083f565b50600c60008373ffffffffffffffffffffffffffffffffffffffff1673ffffffffffffffffffffffffffffffffffffffff168152602001908152602001600020819080600181540180825580915050600190039060005260206000200160009091909190915055610ae6838383611dd7565b505050565b600b600082815260200190815260200160002060009054906101000a900460ff1615610b4c576040517f08c379a0000000000000000000000000000000000000000000000000000000008152600401610b4390613697565b60405180910390fd5b60005b600c60008573ffffffffffffffffffffffffffffffffffffffff1673ffffffffffffffffffffffffffffffffffffffff16815260200190815260200160002080549050811015610d84576000600c60008673ffffffffffffffffffffffffffffffffffffffff1673ffffffffffffffffffffffffffffffffffffffff1681526020019081526020016000208281548110610bec57610beb613adf565b5b9060005260206000200154905082811415610d7057600c60008673ffffffffffffffffffffffffffffffffffffffff1673ffffffffffffffffffffffffffffffffffffffff1681526020019081526020016000206001600c60008873ffffffffffffffffffffffffffffffffffffffff1673ffffffffffffffffffffffffffffffffffffffff16815260200190815260200160002080549050610c8f919061385c565b81548110610ca057610c9f613adf565b5b9060005260206000200154600c60008773ffffffffffffffffffffffffffffffffffffffff1673ffffffffffffffffffffffffffffffffffffffff1681526020019081526020016000208381548110610cfc57610cfb613adf565b5b9060005260206000200181905550600c60008673ffffffffffffffffffffffffffffffffffffffff1673ffffffffffffffffffffffffffffffffffffffff168152602001908152602001600020805480610d5957610d58613ab0565b5b600190038181906000526020600020016000905590555b508080610d7c906139a9565b915050610b4f565b50600c60008373ffffffffffffffffffffffffffffffffffffffff1673ffffffffffffffffffffffffffffffffffffffff168152602001908152602001600020819080600181540180825580915050600190039060005260206000200160009091909190915055610df6838383611e37565b505050565b610e053382611e57565b610e0e57600080fd5b60005b600c60003373ffffffffffffffffffffffffffffffffffffffff1673ffffffffffffffffffffffffffffffffffffffff16815260200190815260200160002080549050811015611046576000600c60003373ffffffffffffffffffffffffffffffffffffffff1673ffffffffffffffffffffffffffffffffffffffff1681526020019081526020016000208281548110610eae57610ead613adf565b5b906000526020600020015490508281141561103257600c60003373ffffffffffffffffffffffffffffffffffffffff1673ffffffffffffffffffffffffffffffffffffffff1681526020019081526020016000206001600c60003373ffffffffffffffffffffffffffffffffffffffff1673ffffffffffffffffffffffffffffffffffffffff16815260200190815260200160002080549050610f51919061385c565b81548110610f6257610f61613adf565b5b9060005260206000200154600c60003373ffffffffffffffffffffffffffffffffffffffff1673ffffffffffffffffffffffffffffffffffffffff1681526020019081526020016000208381548110610fbe57610fbd613adf565b5b9060005260206000200181905550600c60003373ffffffffffffffffffffffffffffffffffffffff1673ffffffffffffffffffffffffffffffffffffffff16815260200190815260200160002080548061101b5761101a613ab0565b5b600190038181906000526020600020016000905590555b50808061103e906139a9565b915050610e11565b5061105081611f35565b50565b60606000600c60003373ffffffffffffffffffffffffffffffffffffffff1673ffffffffffffffffffffffffffffffffffffffff1681526020019081526020016000208054806020026020016040519081016040528092919081815260200182805480156110e057602002820191906000526020600020905b8154815260200190600101908083116110cc575b505050505090508091505090565b6110f6611d16565b73ffffffffffffffffffffffffffffffffffffffff166111146114fa565b73ffffffffffffffffffffffffffffffffffffffff161461116a576040517f08c379a0000000000000000000000000000000000000000000000000000000008152600401611161906135f7565b60405180910390fd5b80600d9080519060200190611180929190612a45565b5050565b6000806002600084815260200190815260200160002060009054906101000a900473ffffffffffffffffffffffffffffffffffffffff169050600073ffffffffffffffffffffffffffffffffffffffff168173ffffffffffffffffffffffffffffffffffffffff16141561122d576040517f08c379a000000000000000000000000000000000000000000000000000000000815260040161122490613577565b60405180910390fd5b80915050919050565b61123e611d16565b73ffffffffffffffffffffffffffffffffffffffff1661125c6114fa565b73ffffffffffffffffffffffffffffffffffffffff16146112b2576040517f08c379a00000000000000000000000000000000000000000000000000000000081526004016112a9906135f7565b60405180910390fd5b6001600960008373ffffffffffffffffffffffffffffffffffffffff1673ffffffffffffffffffffffffffffffffffffffff16815260200190815260200160002060006101000a81548160ff02191690831515021790555050565b60008073ffffffffffffffffffffffffffffffffffffffff168273ffffffffffffffffffffffffffffffffffffffff16141561137e576040517f08c379a000000000000000000000000000000000000000000000000000000000815260040161137590613557565b60405180910390fd5b600360008373ffffffffffffffffffffffffffffffffffffffff1673ffffffffffffffffffffffffffffffffffffffff168152602001908152602001600020549050919050565b6113cd611d16565b73ffffffffffffffffffffffffffffffffffffffff166113eb6114fa565b73ffffffffffffffffffffffffffffffffffffffff1614611441576040517f08c379a0000000000000000000000000000000000000000000000000000000008152600401611438906135f7565b60405180910390fd5b61144b6000612046565b565b600060016008846040516114619190613376565b908152602001604051809103902060009054906101000a900460ff1660ff16141561148b57600080fd5b600160088460405161149d9190613376565b908152602001604051809103902060006101000a81548160ff021916908360ff1602179055506114cd600761210c565b60006114d96007612122565b90506114e58582612130565b6114ef81846122fe565b809150509392505050565b6000600660009054906101000a900473ffffffffffffffffffffffffffffffffffffffff16905090565b60606001805461153390613946565b80601f016020809104026020016040519081016040528092919081815260200182805461155f90613946565b80156115ac5780601f10611581576101008083540402835291602001916115ac565b820191906000526020600020905b81548152906001019060200180831161158f57829003601f168201915b5050505050905090565b6115be611d16565b73ffffffffffffffffffffffffffffffffffffffff168273ffffffffffffffffffffffffffffffffffffffff16141561162c576040517f08c379a0000000000000000000000000000000000000000000000000000000008152600401611623906134f7565b60405180910390fd5b8060056000611639611d16565b73ffffffffffffffffffffffffffffffffffffffff1673ffffffffffffffffffffffffffffffffffffffff16815260200190815260200160002060008473ffffffffffffffffffffffffffffffffffffffff1673ffffffffffffffffffffffffffffffffffffffff16815260200190815260200160002060006101000a81548160ff0219169083151502179055508173ffffffffffffffffffffffffffffffffffffffff166116e6611d16565b73ffffffffffffffffffffffffffffffffffffffff167f17307eab39ab6107e8899845ad3d59bd9653f200f220920489ca2b5937696c318360405161172b919061343a565b60405180910390a35050565b6000600b600083815260200190815260200160002060006101000a81548160ff02191690831515021790555050565b611777611771611d16565b83611e57565b6117b6576040517f08c379a00000000000000000000000000000000000000000000000000000000081526004016117ad90613677565b60405180910390fd5b6117c284848484612372565b50505050565b60606117d382611caa565b611812576040517f08c379a000000000000000000000000000000000000000000000000000000000815260040161180990613637565b60405180910390fd5b6000600a6000848152602001908152602001600020805461183290613946565b80601f016020809104026020016040519081016040528092919081815260200182805461185e90613946565b80156118ab5780601f10611880576101008083540402835291602001916118ab565b820191906000526020600020905b81548152906001019060200180831161188e57829003601f168201915b5050505050905060006118bc6123ce565b90506000815114156118d2578192505050611936565b6000825111156119075780826040516020016118ef92919061338d565b60405160208183030381529060405292505050611936565b8061191185612460565b60405160200161192292919061338d565b604051602081830303815290604052925050505b919050565b60011515600960003373ffffffffffffffffffffffffffffffffffffffff1673ffffffffffffffffffffffffffffffffffffffff16815260200190815260200160002060009054906101000a900460ff1615151461199857600080fd5b6119a2600761210c565b60006119ae6007612122565b90506119ba83826125c1565b600c60008473ffffffffffffffffffffffffffffffffffffffff1673ffffffffffffffffffffffffffffffffffffffff1681526020019081526020016000208190806001815401808255809150506001900390600052602060002001600090919091909150556000600b600083815260200190815260200160002060006101000a81548160ff021916908315150217905550611a5681836122fe565b505050565b6001600b600083815260200190815260200160002060006101000a81548160ff02191690831515021790555050565b6000600560008473ffffffffffffffffffffffffffffffffffffffff1673ffffffffffffffffffffffffffffffffffffffff16815260200190815260200160002060008373ffffffffffffffffffffffffffffffffffffffff1673ffffffffffffffffffffffffffffffffffffffff16815260200190815260200160002060009054906101000a900460ff16905092915050565b611b26611d16565b73ffffffffffffffffffffffffffffffffffffffff16611b446114fa565b73ffffffffffffffffffffffffffffffffffffffff1614611b9a576040517f08c379a0000000000000000000000000000000000000000000000000000000008152600401611b91906135f7565b60405180910390fd5b600073ffffffffffffffffffffffffffffffffffffffff168173ffffffffffffffffffffffffffffffffffffffff161415611c0a576040517f08c379a0000000000000000000000000000000000000000000000000000000008152600401611c0190613497565b60405180910390fd5b611c1381612046565b50565b6000600b600083815260200190815260200160002060009054906101000a900460ff169050919050565b60007f01ffc9a7000000000000000000000000000000000000000000000000000000007bffffffffffffffffffffffffffffffffffffffffffffffffffffffff1916827bffffffffffffffffffffffffffffffffffffffffffffffffffffffff1916149050919050565b60008073ffffffffffffffffffffffffffffffffffffffff166002600084815260200190815260200160002060009054906101000a900473ffffffffffffffffffffffffffffffffffffffff1673ffffffffffffffffffffffffffffffffffffffff1614159050919050565b600033905090565b816004600083815260200190815260200160002060006101000a81548173ffffffffffffffffffffffffffffffffffffffff021916908373ffffffffffffffffffffffffffffffffffffffff160217905550808273ffffffffffffffffffffffffffffffffffffffff16611d9183611184565b73ffffffffffffffffffffffffffffffffffffffff167f8c5be1e5ebec7d5bd14f71427d1e84f3dd0314c0f7b2291e5b200ac8c7c3b92560405160405180910390a45050565b611de8611de2611d16565b82611e57565b611e27576040517f08c379a0000000000000000000000000000000000000000000000000000000008152600401611e1e90613677565b60405180910390fd5b611e328383836125df565b505050565b611e5283838360405180602001604052806000815250611766565b505050565b6000611e6282611caa565b611ea1576040517f08c379a0000000000000000000000000000000000000000000000000000000008152600401611e9890613517565b60405180910390fd5b6000611eac83611184565b90508073ffffffffffffffffffffffffffffffffffffffff168473ffffffffffffffffffffffffffffffffffffffff161480611f1b57508373ffffffffffffffffffffffffffffffffffffffff16611f038461063e565b73ffffffffffffffffffffffffffffffffffffffff16145b80611f2c5750611f2b8185611a8a565b5b91505092915050565b6000611f4082611184565b9050611f4e8160008461283b565b611f59600083611d1e565b6001600360008373ffffffffffffffffffffffffffffffffffffffff1673ffffffffffffffffffffffffffffffffffffffff1681526020019081526020016000206000828254611fa9919061385c565b925050819055506002600083815260200190815260200160002060006101000a81549073ffffffffffffffffffffffffffffffffffffffff021916905581600073ffffffffffffffffffffffffffffffffffffffff168273ffffffffffffffffffffffffffffffffffffffff167fddf252ad1be2c89b69c2b068fc378daa952ba7f163c4a11628f55a4df523b3ef60405160405180910390a45050565b6000600660009054906101000a900473ffffffffffffffffffffffffffffffffffffffff16905081600660006101000a81548173ffffffffffffffffffffffffffffffffffffffff021916908373ffffffffffffffffffffffffffffffffffffffff1602179055508173ffffffffffffffffffffffffffffffffffffffff168173ffffffffffffffffffffffffffffffffffffffff167f8be0079c531659141344cd1fd0a4f28419497f9722a3daafe3b4186f6b6457e060405160405180910390a35050565b6001816000016000828254019250508190555050565b600081600001549050919050565b600073ffffffffffffffffffffffffffffffffffffffff168273ffffffffffffffffffffffffffffffffffffffff1614156121a0576040517f08c379a000000000000000000000000000000000000000000000000000000000815260040161219790613597565b60405180910390fd5b6121a981611caa565b156121e9576040517f08c379a00000000000000000000000000000000000000000000000000000000081526004016121e0906134b7565b60405180910390fd5b6121f56000838361283b565b6001600360008473ffffffffffffffffffffffffffffffffffffffff1673ffffffffffffffffffffffffffffffffffffffff168152602001908152602001600020600082825461224591906137d5565b92505081905550816002600083815260200190815260200160002060006101000a81548173ffffffffffffffffffffffffffffffffffffffff021916908373ffffffffffffffffffffffffffffffffffffffff160217905550808273ffffffffffffffffffffffffffffffffffffffff16600073ffffffffffffffffffffffffffffffffffffffff167fddf252ad1be2c89b69c2b068fc378daa952ba7f163c4a11628f55a4df523b3ef60405160405180910390a45050565b61230782611caa565b612346576040517f08c379a000000000000000000000000000000000000000000000000000000000815260040161233d906135d7565b60405180910390fd5b80600a6000848152602001908152602001600020908051906020019061236d929190612a45565b505050565b61237d8484846125df565b61238984848484612840565b6123c8576040517f08c379a00000000000000000000000000000000000000000000000000000000081526004016123bf90613477565b60405180910390fd5b50505050565b6060600d80546123dd90613946565b80601f016020809104026020016040519081016040528092919081815260200182805461240990613946565b80156124565780601f1061242b57610100808354040283529160200191612456565b820191906000526020600020905b81548152906001019060200180831161243957829003601f168201915b5050505050905090565b606060008214156124a8576040518060400160405280600181526020017f300000000000000000000000000000000000000000000000000000000000000081525090506125bc565b600082905060005b600082146124da5780806124c3906139a9565b915050600a826124d3919061382b565b91506124b0565b60008167ffffffffffffffff8111156124f6576124f5613b0e565b5b6040519080825280601f01601f1916602001820160405280156125285781602001600182028036833780820191505090505b5090505b600085146125b557600182612541919061385c565b9150600a8561255091906139f2565b603061255c91906137d5565b60f81b81838151811061257257612571613adf565b5b60200101907effffffffffffffffffffffffffffffffffffffffffffffffffffffffffffff1916908160001a905350600a856125ae919061382b565b945061252c565b8093505050505b919050565b6125db8282604051806020016040528060008152506129d7565b5050565b8273ffffffffffffffffffffffffffffffffffffffff166125ff82611184565b73ffffffffffffffffffffffffffffffffffffffff1614612655576040517f08c379a000000000000000000000000000000000000000000000000000000000815260040161264c90613617565b60405180910390fd5b600073ffffffffffffffffffffffffffffffffffffffff168273ffffffffffffffffffffffffffffffffffffffff1614156126c5576040517f08c379a00000000000000000000000000000000000000000000000000000000081526004016126bc906134d7565b60405180910390fd5b6126d083838361283b565b6126db600082611d1e565b6001600360008573ffffffffffffffffffffffffffffffffffffffff1673ffffffffffffffffffffffffffffffffffffffff168152602001908152602001600020600082825461272b919061385c565b925050819055506001600360008473ffffffffffffffffffffffffffffffffffffffff1673ffffffffffffffffffffffffffffffffffffffff168152602001908152602001600020600082825461278291906137d5565b92505081905550816002600083815260200190815260200160002060006101000a81548173ffffffffffffffffffffffffffffffffffffffff021916908373ffffffffffffffffffffffffffffffffffffffff160217905550808273ffffffffffffffffffffffffffffffffffffffff168473ffffffffffffffffffffffffffffffffffffffff167fddf252ad1be2c89b69c2b068fc378daa952ba7f163c4a11628f55a4df523b3ef60405160405180910390a4505050565b505050565b60006128618473ffffffffffffffffffffffffffffffffffffffff16612a32565b156129ca578373ffffffffffffffffffffffffffffffffffffffff1663150b7a0261288a611d16565b8786866040518563ffffffff1660e01b81526004016128ac94939291906133cc565b602060405180830381600087803b1580156128c657600080fd5b505af19250505080156128f757506040513d601f19601f820116820180604052508101906128f49190612f08565b60015b61297a573d8060008114612927576040519150601f19603f3d011682016040523d82523d6000602084013e61292c565b606091505b50600081511415612972576040517f08c379a000000000000000000000000000000000000000000000000000000000815260040161296990613477565b60405180910390fd5b805181602001fd5b63150b7a0260e01b7bffffffffffffffffffffffffffffffffffffffffffffffffffffffff1916817bffffffffffffffffffffffffffffffffffffffffffffffffffffffff1916149150506129cf565b600190505b949350505050565b6129e18383612130565b6129ee6000848484612840565b612a2d576040517f08c379a0000000000000000000000000000000000000000000000000000000008152600401612a2490613477565b60405180910390fd5b505050565b600080823b905060008111915050919050565b828054612a5190613946565b90600052602060002090601f016020900481019282612a735760008555612aba565b82601f10612a8c57805160ff1916838001178555612aba565b82800160010185558215612aba579182015b82811115612ab9578251825591602001919060010190612a9e565b5b509050612ac79190612acb565b5090565b5b80821115612ae4576000816000905550600101612acc565b5090565b6000612afb612af6846136f7565b6136d2565b905082815260208101848484011115612b1757612b16613b42565b5b612b22848285613904565b509392505050565b6000612b3d612b3884613728565b6136d2565b905082815260208101848484011115612b5957612b58613b42565b5b612b64848285613904565b509392505050565b600081359050612b7b81614058565b92915050565b600081359050612b908161406f565b92915050565b600081359050612ba581614086565b92915050565b600081519050612bba81614086565b92915050565b600082601f830112612bd557612bd4613b3d565b5b8135612be5848260208601612ae8565b91505092915050565b600082601f830112612c0357612c02613b3d565b5b8135612c13848260208601612b2a565b91505092915050565b600081359050612c2b8161409d565b92915050565b600060208284031215612c4757612c46613b4c565b5b6000612c5584828501612b6c565b91505092915050565b60008060408385031215612c7557612c74613b4c565b5b6000612c8385828601612b6c565b9250506020612c9485828601612b6c565b9150509250929050565b600080600060608486031215612cb757612cb6613b4c565b5b6000612cc586828701612b6c565b9350506020612cd686828701612b6c565b9250506040612ce786828701612c1c565b9150509250925092565b60008060008060808587031215612d0b57612d0a613b4c565b5b6000612d1987828801612b6c565b9450506020612d2a87828801612b6c565b9350506040612d3b87828801612c1c565b925050606085013567ffffffffffffffff811115612d5c57612d5b613b47565b5b612d6887828801612bc0565b91505092959194509250565b60008060408385031215612d8b57612d8a613b4c565b5b6000612d9985828601612b6c565b9250506020612daa85828601612b81565b9150509250929050565b60008060408385031215612dcb57612dca613b4c565b5b6000612dd985828601612b6c565b925050602083013567ffffffffffffffff811115612dfa57612df9613b47565b5b612e0685828601612bee565b9150509250929050565b600080600060608486031215612e2957612e28613b4c565b5b6000612e3786828701612b6c565b935050602084013567ffffffffffffffff811115612e5857612e57613b47565b5b612e6486828701612bee565b925050604084013567ffffffffffffffff811115612e8557612e84613b47565b5b612e9186828701612bee565b9150509250925092565b60008060408385031215612eb257612eb1613b4c565b5b6000612ec085828601612b6c565b9250506020612ed185828601612c1c565b9150509250929050565b600060208284031215612ef157612ef0613b4c565b5b6000612eff84828501612b96565b91505092915050565b600060208284031215612f1e57612f1d613b4c565b5b6000612f2c84828501612bab565b91505092915050565b600060208284031215612f4b57612f4a613b4c565b5b600082013567ffffffffffffffff811115612f6957612f68613b47565b5b612f7584828501612bee565b91505092915050565b600060208284031215612f9457612f93613b4c565b5b6000612fa284828501612c1c565b91505092915050565b6000612fb78383613358565b60208301905092915050565b612fcc81613890565b82525050565b6000612fdd82613769565b612fe78185613797565b9350612ff283613759565b8060005b8381101561302357815161300a8882612fab565b97506130158361378a565b925050600181019050612ff6565b5085935050505092915050565b613039816138a2565b82525050565b600061304a82613774565b61305481856137a8565b9350613064818560208601613913565b61306d81613b51565b840191505092915050565b60006130838261377f565b61308d81856137b9565b935061309d818560208601613913565b6130a681613b51565b840191505092915050565b60006130bc8261377f565b6130c681856137ca565b93506130d6818560208601613913565b80840191505092915050565b60006130ef6032836137b9565b91506130fa82613b62565b604082019050919050565b60006131126026836137b9565b915061311d82613bb1565b604082019050919050565b6000613135601c836137b9565b915061314082613c00565b602082019050919050565b60006131586024836137b9565b915061316382613c29565b604082019050919050565b600061317b6019836137b9565b915061318682613c78565b602082019050919050565b600061319e602c836137b9565b91506131a982613ca1565b604082019050919050565b60006131c16038836137b9565b91506131cc82613cf0565b604082019050919050565b60006131e4602a836137b9565b91506131ef82613d3f565b604082019050919050565b60006132076029836137b9565b915061321282613d8e565b604082019050919050565b600061322a6020836137b9565b915061323582613ddd565b602082019050919050565b600061324d602c836137b9565b915061325882613e06565b604082019050919050565b6000613270602c836137b9565b915061327b82613e55565b604082019050919050565b60006132936020836137b9565b915061329e82613ea4565b602082019050919050565b60006132b66029836137b9565b91506132c182613ecd565b604082019050919050565b60006132d9602f836137b9565b91506132e482613f1c565b604082019050919050565b60006132fc6021836137b9565b915061330782613f6b565b604082019050919050565b600061331f6031836137b9565b915061332a82613fba565b604082019050919050565b6000613342603f836137b9565b915061334d82614009565b604082019050919050565b613361816138fa565b82525050565b613370816138fa565b82525050565b600061338282846130b1565b915081905092915050565b600061339982856130b1565b91506133a582846130b1565b91508190509392505050565b60006020820190506133c66000830184612fc3565b92915050565b60006080820190506133e16000830187612fc3565b6133ee6020830186612fc3565b6133fb6040830185613367565b818103606083015261340d818461303f565b905095945050505050565b600060208201905081810360008301526134328184612fd2565b905092915050565b600060208201905061344f6000830184613030565b92915050565b6000602082019050818103600083015261346f8184613078565b905092915050565b60006020820190508181036000830152613490816130e2565b9050919050565b600060208201905081810360008301526134b081613105565b9050919050565b600060208201905081810360008301526134d081613128565b9050919050565b600060208201905081810360008301526134f08161314b565b9050919050565b600060208201905081810360008301526135108161316e565b9050919050565b6000602082019050818103600083015261353081613191565b9050919050565b60006020820190508181036000830152613550816131b4565b9050919050565b60006020820190508181036000830152613570816131d7565b9050919050565b60006020820190508181036000830152613590816131fa565b9050919050565b600060208201905081810360008301526135b08161321d565b9050919050565b600060208201905081810360008301526135d081613240565b9050919050565b600060208201905081810360008301526135f081613263565b9050919050565b6000602082019050818103600083015261361081613286565b9050919050565b60006020820190508181036000830152613630816132a9565b9050919050565b60006020820190508181036000830152613650816132cc565b9050919050565b60006020820190508181036000830152613670816132ef565b9050919050565b6000602082019050818103600083015261369081613312565b9050919050565b600060208201905081810360008301526136b081613335565b9050919050565b60006020820190506136cc6000830184613367565b92915050565b60006136dc6136ed565b90506136e88282613978565b919050565b6000604051905090565b600067ffffffffffffffff82111561371257613711613b0e565b5b61371b82613b51565b9050602081019050919050565b600067ffffffffffffffff82111561374357613742613b0e565b5b61374c82613b51565b9050602081019050919050565b6000819050602082019050919050565b600081519050919050565b600081519050919050565b600081519050919050565b6000602082019050919050565b600082825260208201905092915050565b600082825260208201905092915050565b600082825260208201905092915050565b600081905092915050565b60006137e0826138fa565b91506137eb836138fa565b9250827fffffffffffffffffffffffffffffffffffffffffffffffffffffffffffffffff038211156138205761381f613a23565b5b828201905092915050565b6000613836826138fa565b9150613841836138fa565b92508261385157613850613a52565b5b828204905092915050565b6000613867826138fa565b9150613872836138fa565b92508282101561388557613884613a23565b5b828203905092915050565b600061389b826138da565b9050919050565b60008115159050919050565b60007fffffffff0000000000000000000000000000000000000000000000000000000082169050919050565b600073ffffffffffffffffffffffffffffffffffffffff82169050919050565b6000819050919050565b82818337600083830152505050565b60005b83811015613931578082015181840152602081019050613916565b83811115613940576000848401525b50505050565b6000600282049050600182168061395e57607f821691505b6020821081141561397257613971613a81565b5b50919050565b61398182613b51565b810181811067ffffffffffffffff821117156139a05761399f613b0e565b5b80604052505050565b60006139b4826138fa565b91507fffffffffffffffffffffffffffffffffffffffffffffffffffffffffffffffff8214156139e7576139e6613a23565b5b600182019050919050565b60006139fd826138fa565b9150613a08836138fa565b925082613a1857613a17613a52565b5b828206905092915050565b7f4e487b7100000000000000000000000000000000000000000000000000000000600052601160045260246000fd5b7f4e487b7100000000000000000000000000000000000000000000000000000000600052601260045260246000fd5b7f4e487b7100000000000000000000000000000000000000000000000000000000600052602260045260246000fd5b7f4e487b7100000000000000000000000000000000000000000000000000000000600052603160045260246000fd5b7f4e487b7100000000000000000000000000000000000000000000000000000000600052603260045260246000fd5b7f4e487b7100000000000000000000000000000000000000000000000000000000600052604160045260246000fd5b600080fd5b600080fd5b600080fd5b600080fd5b6000601f19601f8301169050919050565b7f4552433732313a207472616e7366657220746f206e6f6e20455243373231526560008201527f63656976657220696d706c656d656e7465720000000000000000000000000000602082015250565b7f4f776e61626c653a206e6577206f776e657220697320746865207a65726f206160008201527f6464726573730000000000000000000000000000000000000000000000000000602082015250565b7f4552433732313a20746f6b656e20616c7265616479206d696e74656400000000600082015250565b7f4552433732313a207472616e7366657220746f20746865207a65726f2061646460008201527f7265737300000000000000000000000000000000000000000000000000000000602082015250565b7f4552433732313a20617070726f766520746f2063616c6c657200000000000000600082015250565b7f4552433732313a206f70657261746f7220717565727920666f72206e6f6e657860008201527f697374656e7420746f6b656e0000000000000000000000000000000000000000602082015250565b7f4552433732313a20617070726f76652063616c6c6572206973206e6f74206f7760008201527f6e6572206e6f7220617070726f76656420666f7220616c6c0000000000000000602082015250565b7f4552433732313a2062616c616e636520717565727920666f7220746865207a6560008201527f726f206164647265737300000000000000000000000000000000000000000000602082015250565b7f4552433732313a206f776e657220717565727920666f72206e6f6e657869737460008201527f656e7420746f6b656e0000000000000000000000000000000000000000000000602082015250565b7f4552433732313a206d696e7420746f20746865207a65726f2061646472657373600082015250565b7f4552433732313a20617070726f76656420717565727920666f72206e6f6e657860008201527f697374656e7420746f6b656e0000000000000000000000000000000000000000602082015250565b7f4552433732314d657461646174613a2055524920736574206f66206e6f6e657860008201527f697374656e7420746f6b656e0000000000000000000000000000000000000000602082015250565b7f4f776e61626c653a2063616c6c6572206973206e6f7420746865206f776e6572600082015250565b7f4552433732313a207472616e73666572206f6620746f6b656e2074686174206960008201527f73206e6f74206f776e0000000000000000000000000000000000000000000000602082015250565b7f4552433732314d657461646174613a2055524920717565727920666f72206e6f60008201527f6e6578697374656e7420746f6b656e0000000000000000000000000000000000602082015250565b7f4552433732313a20617070726f76616c20746f2063757272656e74206f776e6560008201527f7200000000000000000000000000000000000000000000000000000000000000602082015250565b7f4552433732313a207472616e736665722063616c6c6572206973206e6f74206f60008201527f776e6572206e6f7220617070726f766564000000000000000000000000000000602082015250565b7f566972696469616e204e46543a2043616e6e6f74207472616e7366657220776860008201527f696c65206c6973746564206f6e20566972696469616e2045786368616e676500602082015250565b61406181613890565b811461406c57600080fd5b50565b614078816138a2565b811461408357600080fd5b50565b61408f816138ae565b811461409a57600080fd5b50565b6140a6816138fa565b81146140b157600080fd5b5056fea2646970667358221220482cb7710a4fa8b3eab18ac0dc2864f689de70d4157fe9a9fa8bbaea3428c4ff64736f6c63430008070033",
  "immutableReferences": {},
  "source": "pragma solidity ^0.8.0;\n\nimport \"@openzeppelin/contracts/token/ERC721/ERC721.sol\";\nimport \"@openzeppelin/contracts/utils/Counters.sol\";\nimport \"@openzeppelin/contracts/access/Ownable.sol\";\n\ncontract ViridianNFT is ERC721, Ownable {\n\n    using Counters for Counters.Counter;\n    Counters.Counter private _tokenIds;\n    mapping(string => uint8) hashes;\n    \n    mapping(address => bool) admins;\n    \n    constructor() ERC721(\"Viridian NFT\", \"VNFT\") {\n        admins[msg.sender] = true;\n    }\n\n    using Strings for uint256;\n\n\n    //TODO: Maybe add restrictions to NFT usage when it is listed on the exchange, do not allow ownership transfer \n    // while it is listed for sale or offer to avoid issues with invalid purchasing, or just protect from transactions going through\n    // on exchange, ask someone about this scenario.\n    struct NFT {\n        uint256 id;\n        string uri;\n    }\n    \n    // Optional mapping for token URIs\n    mapping (uint256 => string) private _tokenURIs;\n\n    mapping (uint256 => bool) private _tokensListed;\n\n    mapping (address => uint256[]) private _ownedNFTs;\n\n    //address private viridianExchangeAddress;\n\n    // Base URI\n    string private _baseURIextended;\n\n    // function setExchangeAddress(address ea) public onlyOwner() {\n    //     viridianExchangeAddress = ea;\n    // }\n    \n    function setBaseURI(string memory baseURI_) external onlyOwner() {\n        _baseURIextended = baseURI_;\n    }\n    \n    function _setTokenURI(uint256 tokenId, string memory _tokenURI) internal virtual {\n        require(_exists(tokenId), \"ERC721Metadata: URI set of nonexistent token\");\n        _tokenURIs[tokenId] = _tokenURI;\n    }\n    \n    function _baseURI() internal view virtual override returns (string memory) {\n        return _baseURIextended;\n    }\n    \n    function tokenURI(uint256 tokenId) public view virtual override returns (string memory) {\n        require(_exists(tokenId), \"ERC721Metadata: URI query for nonexistent token\");\n\n        string memory _tokenURI = _tokenURIs[tokenId];\n        string memory base = _baseURI();\n        \n        // If there is no base URI, return the token URI.\n        if (bytes(base).length == 0) {\n            return _tokenURI;\n        }\n        // If both are set, concatenate the baseURI and tokenURI (via abi.encodePacked).\n        if (bytes(_tokenURI).length > 0) {\n            return string(abi.encodePacked(base, _tokenURI));\n        }\n        // If there is a baseURI but no tokenURI, concatenate the tokenID to the baseURI.\n        return string(abi.encodePacked(base, tokenId.toString()));\n    }\n\n    function getOwnedNFTs() public view virtual returns (uint256[] memory) {\n        uint256[] memory _tokens = _ownedNFTs[msg.sender];\n        \n        return _tokens;\n    }\n\n    modifier onlyAdmin() {\n        require(admins[msg.sender] == true);\n            _;\n    }\n\n    function addAdmin(address _newAdmin) external onlyOwner() {\n        admins[_newAdmin] = true;\n    }\n\n    function mint(\n        address _to,\n        string memory tokenURI_\n    ) external onlyAdmin() {\n        _tokenIds.increment();\n        uint256 _tokenId = _tokenIds.current();\n\n        _safeMint(_to, _tokenId);\n        _ownedNFTs[_to].push(_tokenId);\n        _tokensListed[_tokenId] = false;\n        _setTokenURI(_tokenId, tokenURI_);\n    }\n\n    function isListed(uint256 tokenId) public view returns (bool) {\n        return _tokensListed[tokenId];\n    }\n\n    function burn(uint256 tokenId) public {\n        require(_isApprovedOrOwner(msg.sender, tokenId));\n\n        for (uint256 i = 0; i < _ownedNFTs[msg.sender].length; i++) {\n            uint256 ownedNFT = _ownedNFTs[msg.sender][i];\n            if (ownedNFT == tokenId) {\n                _ownedNFTs[msg.sender][i] = _ownedNFTs[msg.sender][_ownedNFTs[msg.sender].length - 1];\n                _ownedNFTs[msg.sender].pop();\n            }\n        }\n\n        _burn(tokenId);\n    }\n\n    function awardItem(address recipient, string memory hash, string memory metadata) public returns (uint256) {\n        require(hashes[hash] != 1);\n        hashes[hash] = 1;\n        _tokenIds.increment();\n        uint256 newItemId = _tokenIds.current();\n        _mint(recipient, newItemId);\n        _setTokenURI(newItemId, metadata);\n        return newItemId;\n    }\n\n    function safeTransferFrom(address from, address to, uint256 tokenId) public override {\n        require(!_tokensListed[tokenId], \"Viridian NFT: Cannot transfer while listed on Viridian Exchange\");\n\n        for (uint256 i = 0; i < _ownedNFTs[from].length; i++) {\n            uint256 ownedNFT = _ownedNFTs[from][i];\n            if (ownedNFT == tokenId) {\n                _ownedNFTs[from][i] = _ownedNFTs[from][_ownedNFTs[from].length - 1];\n                _ownedNFTs[from].pop();\n            }\n        }\n        _ownedNFTs[to].push(tokenId);\n\n        super.safeTransferFrom(from, to, tokenId);\n    }\n\n    function transferFrom(address from, address to, uint256 tokenId) public override {\n        require(!_tokensListed[tokenId], \"Viridian NFT: Cannot transfer while listed on Viridian Exchange\");\n\n        for (uint256 i = 0; i < _ownedNFTs[from].length; i++) {\n            uint256 ownedNFT = _ownedNFTs[from][i];\n            if (ownedNFT == tokenId) {\n                _ownedNFTs[from][i] = _ownedNFTs[from][_ownedNFTs[from].length - 1];\n                _ownedNFTs[from].pop();\n            }\n        }\n        _ownedNFTs[to].push(tokenId);\n\n        super.transferFrom(from, to, tokenId);\n    }\n\n    function listToken(uint256 _tokenId) public {\n        _tokensListed[_tokenId] = true;\n    }\n\n    function unlistToken(uint256 _tokenId) public {\n        _tokensListed[_tokenId] = false;\n    }\n}",
  "sourcePath": "/Users/blakehatch/Viridian-Exchange-Contracts/contracts/ViridianNFT.sol",
  "compiler": {
    "name": "solc",
    "version": "0.8.7+commit.e28d00a7.Emscripten.clang"
  },
  "schemaVersion": "3.4.1",
  "updatedAt": "2021-09-15T19:25:32.833Z",
  "networkType": "ethereum",
  "devdoc": {
    "kind": "dev",
    "methods": {
      "approve(address,uint256)": {
        "details": "See {IERC721-approve}."
      },
      "balanceOf(address)": {
        "details": "See {IERC721-balanceOf}."
      },
      "getApproved(uint256)": {
        "details": "See {IERC721-getApproved}."
      },
      "isApprovedForAll(address,address)": {
        "details": "See {IERC721-isApprovedForAll}."
      },
      "name()": {
        "details": "See {IERC721Metadata-name}."
      },
      "owner()": {
        "details": "Returns the address of the current owner."
      },
      "ownerOf(uint256)": {
        "details": "See {IERC721-ownerOf}."
      },
      "renounceOwnership()": {
        "details": "Leaves the contract without owner. It will not be possible to call `onlyOwner` functions anymore. Can only be called by the current owner. NOTE: Renouncing ownership will leave the contract without an owner, thereby removing any functionality that is only available to the owner."
      },
      "safeTransferFrom(address,address,uint256)": {
        "details": "See {IERC721-safeTransferFrom}."
      },
      "safeTransferFrom(address,address,uint256,bytes)": {
        "details": "See {IERC721-safeTransferFrom}."
      },
      "setApprovalForAll(address,bool)": {
        "details": "See {IERC721-setApprovalForAll}."
      },
      "supportsInterface(bytes4)": {
        "details": "See {IERC165-supportsInterface}."
      },
      "symbol()": {
        "details": "See {IERC721Metadata-symbol}."
      },
      "tokenURI(uint256)": {
        "details": "See {IERC721Metadata-tokenURI}."
      },
      "transferFrom(address,address,uint256)": {
        "details": "See {IERC721-transferFrom}."
      },
      "transferOwnership(address)": {
        "details": "Transfers ownership of the contract to a new account (`newOwner`). Can only be called by the current owner."
      }
    },
    "version": 1
  },
  "userdoc": {
    "kind": "user",
    "methods": {},
    "version": 1
  }
}