{
  "contractName": "ViridianNFT",
  "abi": [
    {
      "inputs": [],
      "stateMutability": "nonpayable",
      "type": "constructor"
    },
    {
      "anonymous": false,
      "inputs": [
        {
          "indexed": true,
          "internalType": "address",
          "name": "owner",
          "type": "address"
        },
        {
          "indexed": true,
          "internalType": "address",
          "name": "approved",
          "type": "address"
        },
        {
          "indexed": true,
          "internalType": "uint256",
          "name": "tokenId",
          "type": "uint256"
        }
      ],
      "name": "Approval",
      "type": "event"
    },
    {
      "anonymous": false,
      "inputs": [
        {
          "indexed": true,
          "internalType": "address",
          "name": "owner",
          "type": "address"
        },
        {
          "indexed": true,
          "internalType": "address",
          "name": "operator",
          "type": "address"
        },
        {
          "indexed": false,
          "internalType": "bool",
          "name": "approved",
          "type": "bool"
        }
      ],
      "name": "ApprovalForAll",
      "type": "event"
    },
    {
      "anonymous": false,
      "inputs": [
        {
          "indexed": true,
          "internalType": "address",
          "name": "previousOwner",
          "type": "address"
        },
        {
          "indexed": true,
          "internalType": "address",
          "name": "newOwner",
          "type": "address"
        }
      ],
      "name": "OwnershipTransferred",
      "type": "event"
    },
    {
      "anonymous": false,
      "inputs": [
        {
          "indexed": true,
          "internalType": "address",
          "name": "from",
          "type": "address"
        },
        {
          "indexed": true,
          "internalType": "address",
          "name": "to",
          "type": "address"
        },
        {
          "indexed": true,
          "internalType": "uint256",
          "name": "tokenId",
          "type": "uint256"
        }
      ],
      "name": "Transfer",
      "type": "event"
    },
    {
      "inputs": [
        {
          "internalType": "address",
          "name": "to",
          "type": "address"
        },
        {
          "internalType": "uint256",
          "name": "tokenId",
          "type": "uint256"
        }
      ],
      "name": "approve",
      "outputs": [],
      "stateMutability": "nonpayable",
      "type": "function"
    },
    {
      "inputs": [
        {
          "internalType": "address",
          "name": "owner",
          "type": "address"
        }
      ],
      "name": "balanceOf",
      "outputs": [
        {
          "internalType": "uint256",
          "name": "",
          "type": "uint256"
        }
      ],
      "stateMutability": "view",
      "type": "function",
      "constant": true
    },
    {
      "inputs": [
        {
          "internalType": "uint256",
          "name": "tokenId",
          "type": "uint256"
        }
      ],
      "name": "getApproved",
      "outputs": [
        {
          "internalType": "address",
          "name": "",
          "type": "address"
        }
      ],
      "stateMutability": "view",
      "type": "function",
      "constant": true
    },
    {
      "inputs": [
        {
          "internalType": "address",
          "name": "owner",
          "type": "address"
        },
        {
          "internalType": "address",
          "name": "operator",
          "type": "address"
        }
      ],
      "name": "isApprovedForAll",
      "outputs": [
        {
          "internalType": "bool",
          "name": "",
          "type": "bool"
        }
      ],
      "stateMutability": "view",
      "type": "function",
      "constant": true
    },
    {
      "inputs": [],
      "name": "name",
      "outputs": [
        {
          "internalType": "string",
          "name": "",
          "type": "string"
        }
      ],
      "stateMutability": "view",
      "type": "function",
      "constant": true
    },
    {
      "inputs": [],
      "name": "owner",
      "outputs": [
        {
          "internalType": "address",
          "name": "",
          "type": "address"
        }
      ],
      "stateMutability": "view",
      "type": "function",
      "constant": true
    },
    {
      "inputs": [
        {
          "internalType": "uint256",
          "name": "tokenId",
          "type": "uint256"
        }
      ],
      "name": "ownerOf",
      "outputs": [
        {
          "internalType": "address",
          "name": "",
          "type": "address"
        }
      ],
      "stateMutability": "view",
      "type": "function",
      "constant": true
    },
    {
      "inputs": [],
      "name": "renounceOwnership",
      "outputs": [],
      "stateMutability": "nonpayable",
      "type": "function"
    },
    {
      "inputs": [
        {
          "internalType": "address",
          "name": "from",
          "type": "address"
        },
        {
          "internalType": "address",
          "name": "to",
          "type": "address"
        },
        {
          "internalType": "uint256",
          "name": "tokenId",
          "type": "uint256"
        }
      ],
      "name": "safeTransferFrom",
      "outputs": [],
      "stateMutability": "nonpayable",
      "type": "function"
    },
    {
      "inputs": [
        {
          "internalType": "address",
          "name": "from",
          "type": "address"
        },
        {
          "internalType": "address",
          "name": "to",
          "type": "address"
        },
        {
          "internalType": "uint256",
          "name": "tokenId",
          "type": "uint256"
        },
        {
          "internalType": "bytes",
          "name": "_data",
          "type": "bytes"
        }
      ],
      "name": "safeTransferFrom",
      "outputs": [],
      "stateMutability": "nonpayable",
      "type": "function"
    },
    {
      "inputs": [
        {
          "internalType": "address",
          "name": "operator",
          "type": "address"
        },
        {
          "internalType": "bool",
          "name": "approved",
          "type": "bool"
        }
      ],
      "name": "setApprovalForAll",
      "outputs": [],
      "stateMutability": "nonpayable",
      "type": "function"
    },
    {
      "inputs": [
        {
          "internalType": "bytes4",
          "name": "interfaceId",
          "type": "bytes4"
        }
      ],
      "name": "supportsInterface",
      "outputs": [
        {
          "internalType": "bool",
          "name": "",
          "type": "bool"
        }
      ],
      "stateMutability": "view",
      "type": "function",
      "constant": true
    },
    {
      "inputs": [],
      "name": "symbol",
      "outputs": [
        {
          "internalType": "string",
          "name": "",
          "type": "string"
        }
      ],
      "stateMutability": "view",
      "type": "function",
      "constant": true
    },
    {
      "inputs": [
        {
          "internalType": "address",
          "name": "from",
          "type": "address"
        },
        {
          "internalType": "address",
          "name": "to",
          "type": "address"
        },
        {
          "internalType": "uint256",
          "name": "tokenId",
          "type": "uint256"
        }
      ],
      "name": "transferFrom",
      "outputs": [],
      "stateMutability": "nonpayable",
      "type": "function"
    },
    {
      "inputs": [
        {
          "internalType": "address",
          "name": "newOwner",
          "type": "address"
        }
      ],
      "name": "transferOwnership",
      "outputs": [],
      "stateMutability": "nonpayable",
      "type": "function"
    },
    {
      "inputs": [
        {
          "internalType": "string",
          "name": "baseURI_",
          "type": "string"
        }
      ],
      "name": "setBaseURI",
      "outputs": [],
      "stateMutability": "nonpayable",
      "type": "function"
    },
    {
      "inputs": [
        {
          "internalType": "uint256",
          "name": "tokenId",
          "type": "uint256"
        }
      ],
      "name": "tokenURI",
      "outputs": [
        {
          "internalType": "string",
          "name": "",
          "type": "string"
        }
      ],
      "stateMutability": "view",
      "type": "function",
      "constant": true
    },
    {
      "inputs": [],
      "name": "getOwnedNFTs",
      "outputs": [
        {
          "components": [
            {
              "internalType": "uint256",
              "name": "id",
              "type": "uint256"
            },
            {
              "internalType": "string",
              "name": "uri",
              "type": "string"
            }
          ],
          "internalType": "struct ViridianNFT.NFT[]",
          "name": "",
          "type": "tuple[]"
        }
      ],
      "stateMutability": "view",
      "type": "function",
      "constant": true
    },
    {
      "inputs": [
        {
          "internalType": "address",
          "name": "_to",
          "type": "address"
        },
        {
          "internalType": "uint256",
          "name": "_tokenId",
          "type": "uint256"
        },
        {
          "internalType": "string",
          "name": "tokenURI_",
          "type": "string"
        }
      ],
      "name": "mint",
      "outputs": [],
      "stateMutability": "nonpayable",
      "type": "function"
    },
    {
      "inputs": [
        {
          "internalType": "address",
          "name": "recipient",
          "type": "address"
        },
        {
          "internalType": "string",
          "name": "hash",
          "type": "string"
        },
        {
          "internalType": "string",
          "name": "metadata",
          "type": "string"
        }
      ],
      "name": "awardItem",
      "outputs": [
        {
          "internalType": "uint256",
          "name": "",
          "type": "uint256"
        }
      ],
      "stateMutability": "nonpayable",
      "type": "function"
    }
  ],
  "bytecode": "0x60806040523480156200001157600080fd5b506040518060400160405280600c81526020017f566972696469616e204e465400000000000000000000000000000000000000008152506040518060400160405280600481526020017f564e46540000000000000000000000000000000000000000000000000000000081525081600090805190602001906200009692919062000171565b508060019080519060200190620000af92919062000171565b5050506000620000c46200016960201b60201c565b905080600660006101000a81548173ffffffffffffffffffffffffffffffffffffffff021916908373ffffffffffffffffffffffffffffffffffffffff1602179055508073ffffffffffffffffffffffffffffffffffffffff16600073ffffffffffffffffffffffffffffffffffffffff167f8be0079c531659141344cd1fd0a4f28419497f9722a3daafe3b4186f6b6457e060405160405180910390a35062000286565b600033905090565b8280546200017f9062000221565b90600052602060002090601f016020900481019282620001a35760008555620001ef565b82601f10620001be57805160ff1916838001178555620001ef565b82800160010185558215620001ef579182015b82811115620001ee578251825591602001919060010190620001d1565b5b509050620001fe919062000202565b5090565b5b808211156200021d57600081600090555060010162000203565b5090565b600060028204905060018216806200023a57607f821691505b6020821081141562000251576200025062000257565b5b50919050565b7f4e487b7100000000000000000000000000000000000000000000000000000000600052602260045260246000fd5b6135ef80620002966000396000f3fe608060405234801561001057600080fd5b506004361061012c5760003560e01c8063715018a6116100ad578063b88d4fde11610071578063b88d4fde1461032f578063c87b56dd1461034b578063d3fc98641461037b578063e985e9c514610397578063f2fde38b146103c75761012c565b8063715018a61461029d5780638bfaf101146102a75780638da5cb5b146102d757806395d89b41146102f5578063a22cb465146103135761012c565b806342842e0e116100f457806342842e0e146101e75780634c0eb7d91461020357806355f804b3146102215780636352211e1461023d57806370a082311461026d5761012c565b806301ffc9a71461013157806306fdde0314610161578063081812fc1461017f578063095ea7b3146101af57806323b872dd146101cb575b600080fd5b61014b60048036038101906101469190612407565b6103e3565b60405161015891906129cc565b60405180910390f35b6101696104c5565b60405161017691906129e7565b60405180910390f35b610199600480360381019061019491906124aa565b610557565b6040516101a69190612943565b60405180910390f35b6101c960048036038101906101c49190612358565b6105dc565b005b6101e560048036038101906101e091906121b7565b6106f4565b005b61020160048036038101906101fc91906121b7565b610754565b005b61020b610774565b60405161021891906129aa565b60405180910390f35b61023b60048036038101906102369190612461565b6108b2565b005b610257600480360381019061025291906124aa565b610948565b6040516102649190612943565b60405180910390f35b6102876004803603810190610282919061214a565b6109fa565b6040516102949190612c29565b60405180910390f35b6102a5610ab2565b005b6102c160048036038101906102bc91906122cd565b610bef565b6040516102ce9190612c29565b60405180910390f35b6102df610c9c565b6040516102ec9190612943565b60405180910390f35b6102fd610cc6565b60405161030a91906129e7565b60405180910390f35b61032d6004803603810190610328919061228d565b610d58565b005b6103496004803603810190610344919061220a565b610ed9565b005b610365600480360381019061036091906124aa565b610f3b565b60405161037291906129e7565b60405180910390f35b61039560048036038101906103909190612398565b6110ae565b005b6103b160048036038101906103ac9190612177565b6111e9565b6040516103be91906129cc565b60405180910390f35b6103e160048036038101906103dc919061214a565b61127d565b005b60007f80ac58cd000000000000000000000000000000000000000000000000000000007bffffffffffffffffffffffffffffffffffffffffffffffffffffffff1916827bffffffffffffffffffffffffffffffffffffffffffffffffffffffff191614806104ae57507f5b5e139f000000000000000000000000000000000000000000000000000000007bffffffffffffffffffffffffffffffffffffffffffffffffffffffff1916827bffffffffffffffffffffffffffffffffffffffffffffffffffffffff1916145b806104be57506104bd82611429565b5b9050919050565b6060600080546104d490612ec9565b80601f016020809104026020016040519081016040528092919081815260200182805461050090612ec9565b801561054d5780601f106105225761010080835404028352916020019161054d565b820191906000526020600020905b81548152906001019060200180831161053057829003601f168201915b5050505050905090565b600061056282611493565b6105a1576040517f08c379a000000000000000000000000000000000000000000000000000000000815260040161059890612b49565b60405180910390fd5b6004600083815260200190815260200160002060009054906101000a900473ffffffffffffffffffffffffffffffffffffffff169050919050565b60006105e782610948565b90508073ffffffffffffffffffffffffffffffffffffffff168373ffffffffffffffffffffffffffffffffffffffff161415610658576040517f08c379a000000000000000000000000000000000000000000000000000000000815260040161064f90612be9565b60405180910390fd5b8073ffffffffffffffffffffffffffffffffffffffff166106776114ff565b73ffffffffffffffffffffffffffffffffffffffff1614806106a657506106a5816106a06114ff565b6111e9565b5b6106e5576040517f08c379a00000000000000000000000000000000000000000000000000000000081526004016106dc90612ac9565b60405180910390fd5b6106ef8383611507565b505050565b6107056106ff6114ff565b826115c0565b610744576040517f08c379a000000000000000000000000000000000000000000000000000000000815260040161073b90612c09565b60405180910390fd5b61074f83838361169e565b505050565b61076f83838360405180602001604052806000815250610ed9565b505050565b60606000600a60003373ffffffffffffffffffffffffffffffffffffffff1673ffffffffffffffffffffffffffffffffffffffff168152602001908152602001600020805480602002602001604051908101604052809291908181526020016000905b828210156108a557838290600052602060002090600202016040518060400160405290816000820154815260200160018201805461081490612ec9565b80601f016020809104026020016040519081016040528092919081815260200182805461084090612ec9565b801561088d5780601f106108625761010080835404028352916020019161088d565b820191906000526020600020905b81548152906001019060200180831161087057829003601f168201915b505050505081525050815260200190600101906107d7565b5050505090508091505090565b6108ba6114ff565b73ffffffffffffffffffffffffffffffffffffffff166108d8610c9c565b73ffffffffffffffffffffffffffffffffffffffff161461092e576040517f08c379a000000000000000000000000000000000000000000000000000000000815260040161092590612b89565b60405180910390fd5b80600b9080519060200190610944929190611f5e565b5050565b6000806002600084815260200190815260200160002060009054906101000a900473ffffffffffffffffffffffffffffffffffffffff169050600073ffffffffffffffffffffffffffffffffffffffff168173ffffffffffffffffffffffffffffffffffffffff1614156109f1576040517f08c379a00000000000000000000000000000000000000000000000000000000081526004016109e890612b09565b60405180910390fd5b80915050919050565b60008073ffffffffffffffffffffffffffffffffffffffff168273ffffffffffffffffffffffffffffffffffffffff161415610a6b576040517f08c379a0000000000000000000000000000000000000000000000000000000008152600401610a6290612ae9565b60405180910390fd5b600360008373ffffffffffffffffffffffffffffffffffffffff1673ffffffffffffffffffffffffffffffffffffffff168152602001908152602001600020549050919050565b610aba6114ff565b73ffffffffffffffffffffffffffffffffffffffff16610ad8610c9c565b73ffffffffffffffffffffffffffffffffffffffff1614610b2e576040517f08c379a0000000000000000000000000000000000000000000000000000000008152600401610b2590612b89565b60405180910390fd5b600073ffffffffffffffffffffffffffffffffffffffff16600660009054906101000a900473ffffffffffffffffffffffffffffffffffffffff1673ffffffffffffffffffffffffffffffffffffffff167f8be0079c531659141344cd1fd0a4f28419497f9722a3daafe3b4186f6b6457e060405160405180910390a36000600660006101000a81548173ffffffffffffffffffffffffffffffffffffffff021916908373ffffffffffffffffffffffffffffffffffffffff160217905550565b60006001600884604051610c039190612908565b908152602001604051809103902060009054906101000a900460ff1660ff161415610c2d57600080fd5b6001600884604051610c3f9190612908565b908152602001604051809103902060006101000a81548160ff021916908360ff160217905550610c6f60076118fa565b6000610c7b6007611910565b9050610c87858261191e565b610c918184611aec565b809150509392505050565b6000600660009054906101000a900473ffffffffffffffffffffffffffffffffffffffff16905090565b606060018054610cd590612ec9565b80601f0160208091040260200160405190810160405280929190818152602001828054610d0190612ec9565b8015610d4e5780601f10610d2357610100808354040283529160200191610d4e565b820191906000526020600020905b815481529060010190602001808311610d3157829003601f168201915b5050505050905090565b610d606114ff565b73ffffffffffffffffffffffffffffffffffffffff168273ffffffffffffffffffffffffffffffffffffffff161415610dce576040517f08c379a0000000000000000000000000000000000000000000000000000000008152600401610dc590612a89565b60405180910390fd5b8060056000610ddb6114ff565b73ffffffffffffffffffffffffffffffffffffffff1673ffffffffffffffffffffffffffffffffffffffff16815260200190815260200160002060008473ffffffffffffffffffffffffffffffffffffffff1673ffffffffffffffffffffffffffffffffffffffff16815260200190815260200160002060006101000a81548160ff0219169083151502179055508173ffffffffffffffffffffffffffffffffffffffff16610e886114ff565b73ffffffffffffffffffffffffffffffffffffffff167f17307eab39ab6107e8899845ad3d59bd9653f200f220920489ca2b5937696c3183604051610ecd91906129cc565b60405180910390a35050565b610eea610ee46114ff565b836115c0565b610f29576040517f08c379a0000000000000000000000000000000000000000000000000000000008152600401610f2090612c09565b60405180910390fd5b610f3584848484611b60565b50505050565b6060610f4682611493565b610f85576040517f08c379a0000000000000000000000000000000000000000000000000000000008152600401610f7c90612bc9565b60405180910390fd5b6000600960008481526020019081526020016000208054610fa590612ec9565b80601f0160208091040260200160405190810160405280929190818152602001828054610fd190612ec9565b801561101e5780601f10610ff35761010080835404028352916020019161101e565b820191906000526020600020905b81548152906001019060200180831161100157829003601f168201915b50505050509050600061102f611bbc565b90506000815114156110455781925050506110a9565b60008251111561107a57808260405160200161106292919061291f565b604051602081830303815290604052925050506110a9565b8061108485611c4e565b60405160200161109592919061291f565b604051602081830303815290604052925050505b919050565b6110b66114ff565b73ffffffffffffffffffffffffffffffffffffffff166110d4610c9c565b73ffffffffffffffffffffffffffffffffffffffff161461112a576040517f08c379a000000000000000000000000000000000000000000000000000000000815260040161112190612b89565b60405180910390fd5b611134838361191e565b600a60008473ffffffffffffffffffffffffffffffffffffffff1673ffffffffffffffffffffffffffffffffffffffff16815260200190815260200160002060405180604001604052808481526020018381525090806001815401808255809150506001900390600052602060002090600202016000909190919091506000820151816000015560208201518160010190805190602001906111d7929190611f5e565b5050506111e48282611aec565b505050565b6000600560008473ffffffffffffffffffffffffffffffffffffffff1673ffffffffffffffffffffffffffffffffffffffff16815260200190815260200160002060008373ffffffffffffffffffffffffffffffffffffffff1673ffffffffffffffffffffffffffffffffffffffff16815260200190815260200160002060009054906101000a900460ff16905092915050565b6112856114ff565b73ffffffffffffffffffffffffffffffffffffffff166112a3610c9c565b73ffffffffffffffffffffffffffffffffffffffff16146112f9576040517f08c379a00000000000000000000000000000000000000000000000000000000081526004016112f090612b89565b60405180910390fd5b600073ffffffffffffffffffffffffffffffffffffffff168173ffffffffffffffffffffffffffffffffffffffff161415611369576040517f08c379a000000000000000000000000000000000000000000000000000000000815260040161136090612a29565b60405180910390fd5b8073ffffffffffffffffffffffffffffffffffffffff16600660009054906101000a900473ffffffffffffffffffffffffffffffffffffffff1673ffffffffffffffffffffffffffffffffffffffff167f8be0079c531659141344cd1fd0a4f28419497f9722a3daafe3b4186f6b6457e060405160405180910390a380600660006101000a81548173ffffffffffffffffffffffffffffffffffffffff021916908373ffffffffffffffffffffffffffffffffffffffff16021790555050565b60007f01ffc9a7000000000000000000000000000000000000000000000000000000007bffffffffffffffffffffffffffffffffffffffffffffffffffffffff1916827bffffffffffffffffffffffffffffffffffffffffffffffffffffffff1916149050919050565b60008073ffffffffffffffffffffffffffffffffffffffff166002600084815260200190815260200160002060009054906101000a900473ffffffffffffffffffffffffffffffffffffffff1673ffffffffffffffffffffffffffffffffffffffff1614159050919050565b600033905090565b816004600083815260200190815260200160002060006101000a81548173ffffffffffffffffffffffffffffffffffffffff021916908373ffffffffffffffffffffffffffffffffffffffff160217905550808273ffffffffffffffffffffffffffffffffffffffff1661157a83610948565b73ffffffffffffffffffffffffffffffffffffffff167f8c5be1e5ebec7d5bd14f71427d1e84f3dd0314c0f7b2291e5b200ac8c7c3b92560405160405180910390a45050565b60006115cb82611493565b61160a576040517f08c379a000000000000000000000000000000000000000000000000000000000815260040161160190612aa9565b60405180910390fd5b600061161583610948565b90508073ffffffffffffffffffffffffffffffffffffffff168473ffffffffffffffffffffffffffffffffffffffff16148061168457508373ffffffffffffffffffffffffffffffffffffffff1661166c84610557565b73ffffffffffffffffffffffffffffffffffffffff16145b80611695575061169481856111e9565b5b91505092915050565b8273ffffffffffffffffffffffffffffffffffffffff166116be82610948565b73ffffffffffffffffffffffffffffffffffffffff1614611714576040517f08c379a000000000000000000000000000000000000000000000000000000000815260040161170b90612ba9565b60405180910390fd5b600073ffffffffffffffffffffffffffffffffffffffff168273ffffffffffffffffffffffffffffffffffffffff161415611784576040517f08c379a000000000000000000000000000000000000000000000000000000000815260040161177b90612a69565b60405180910390fd5b61178f838383611daf565b61179a600082611507565b6001600360008573ffffffffffffffffffffffffffffffffffffffff1673ffffffffffffffffffffffffffffffffffffffff16815260200190815260200160002060008282546117ea9190612ddf565b925050819055506001600360008473ffffffffffffffffffffffffffffffffffffffff1673ffffffffffffffffffffffffffffffffffffffff16815260200190815260200160002060008282546118419190612d58565b92505081905550816002600083815260200190815260200160002060006101000a81548173ffffffffffffffffffffffffffffffffffffffff021916908373ffffffffffffffffffffffffffffffffffffffff160217905550808273ffffffffffffffffffffffffffffffffffffffff168473ffffffffffffffffffffffffffffffffffffffff167fddf252ad1be2c89b69c2b068fc378daa952ba7f163c4a11628f55a4df523b3ef60405160405180910390a4505050565b6001816000016000828254019250508190555050565b600081600001549050919050565b600073ffffffffffffffffffffffffffffffffffffffff168273ffffffffffffffffffffffffffffffffffffffff16141561198e576040517f08c379a000000000000000000000000000000000000000000000000000000000815260040161198590612b29565b60405180910390fd5b61199781611493565b156119d7576040517f08c379a00000000000000000000000000000000000000000000000000000000081526004016119ce90612a49565b60405180910390fd5b6119e360008383611daf565b6001600360008473ffffffffffffffffffffffffffffffffffffffff1673ffffffffffffffffffffffffffffffffffffffff1681526020019081526020016000206000828254611a339190612d58565b92505081905550816002600083815260200190815260200160002060006101000a81548173ffffffffffffffffffffffffffffffffffffffff021916908373ffffffffffffffffffffffffffffffffffffffff160217905550808273ffffffffffffffffffffffffffffffffffffffff16600073ffffffffffffffffffffffffffffffffffffffff167fddf252ad1be2c89b69c2b068fc378daa952ba7f163c4a11628f55a4df523b3ef60405160405180910390a45050565b611af582611493565b611b34576040517f08c379a0000000000000000000000000000000000000000000000000000000008152600401611b2b90612b69565b60405180910390fd5b80600960008481526020019081526020016000209080519060200190611b5b929190611f5e565b505050565b611b6b84848461169e565b611b7784848484611db4565b611bb6576040517f08c379a0000000000000000000000000000000000000000000000000000000008152600401611bad90612a09565b60405180910390fd5b50505050565b6060600b8054611bcb90612ec9565b80601f0160208091040260200160405190810160405280929190818152602001828054611bf790612ec9565b8015611c445780601f10611c1957610100808354040283529160200191611c44565b820191906000526020600020905b815481529060010190602001808311611c2757829003601f168201915b5050505050905090565b60606000821415611c96576040518060400160405280600181526020017f30000000000000000000000000000000000000000000000000000000000000008152509050611daa565b600082905060005b60008214611cc8578080611cb190612f2c565b915050600a82611cc19190612dae565b9150611c9e565b60008167ffffffffffffffff811115611ce457611ce3613062565b5b6040519080825280601f01601f191660200182016040528015611d165781602001600182028036833780820191505090505b5090505b60008514611da357600182611d2f9190612ddf565b9150600a85611d3e9190612f75565b6030611d4a9190612d58565b60f81b818381518110611d6057611d5f613033565b5b60200101907effffffffffffffffffffffffffffffffffffffffffffffffffffffffffffff1916908160001a905350600a85611d9c9190612dae565b9450611d1a565b8093505050505b919050565b505050565b6000611dd58473ffffffffffffffffffffffffffffffffffffffff16611f4b565b15611f3e578373ffffffffffffffffffffffffffffffffffffffff1663150b7a02611dfe6114ff565b8786866040518563ffffffff1660e01b8152600401611e20949392919061295e565b602060405180830381600087803b158015611e3a57600080fd5b505af1925050508015611e6b57506040513d601f19601f82011682018060405250810190611e689190612434565b60015b611eee573d8060008114611e9b576040519150601f19603f3d011682016040523d82523d6000602084013e611ea0565b606091505b50600081511415611ee6576040517f08c379a0000000000000000000000000000000000000000000000000000000008152600401611edd90612a09565b60405180910390fd5b805181602001fd5b63150b7a0260e01b7bffffffffffffffffffffffffffffffffffffffffffffffffffffffff1916817bffffffffffffffffffffffffffffffffffffffffffffffffffffffff191614915050611f43565b600190505b949350505050565b600080823b905060008111915050919050565b828054611f6a90612ec9565b90600052602060002090601f016020900481019282611f8c5760008555611fd3565b82601f10611fa557805160ff1916838001178555611fd3565b82800160010185558215611fd3579182015b82811115611fd2578251825591602001919060010190611fb7565b5b509050611fe09190611fe4565b5090565b5b80821115611ffd576000816000905550600101611fe5565b5090565b600061201461200f84612c69565b612c44565b9050828152602081018484840111156120305761202f613096565b5b61203b848285612e87565b509392505050565b600061205661205184612c9a565b612c44565b90508281526020810184848401111561207257612071613096565b5b61207d848285612e87565b509392505050565b6000813590506120948161355d565b92915050565b6000813590506120a981613574565b92915050565b6000813590506120be8161358b565b92915050565b6000815190506120d38161358b565b92915050565b600082601f8301126120ee576120ed613091565b5b81356120fe848260208601612001565b91505092915050565b600082601f83011261211c5761211b613091565b5b813561212c848260208601612043565b91505092915050565b600081359050612144816135a2565b92915050565b6000602082840312156121605761215f6130a0565b5b600061216e84828501612085565b91505092915050565b6000806040838503121561218e5761218d6130a0565b5b600061219c85828601612085565b92505060206121ad85828601612085565b9150509250929050565b6000806000606084860312156121d0576121cf6130a0565b5b60006121de86828701612085565b93505060206121ef86828701612085565b925050604061220086828701612135565b9150509250925092565b60008060008060808587031215612224576122236130a0565b5b600061223287828801612085565b945050602061224387828801612085565b935050604061225487828801612135565b925050606085013567ffffffffffffffff8111156122755761227461309b565b5b612281878288016120d9565b91505092959194509250565b600080604083850312156122a4576122a36130a0565b5b60006122b285828601612085565b92505060206122c38582860161209a565b9150509250929050565b6000806000606084860312156122e6576122e56130a0565b5b60006122f486828701612085565b935050602084013567ffffffffffffffff8111156123155761231461309b565b5b61232186828701612107565b925050604084013567ffffffffffffffff8111156123425761234161309b565b5b61234e86828701612107565b9150509250925092565b6000806040838503121561236f5761236e6130a0565b5b600061237d85828601612085565b925050602061238e85828601612135565b9150509250929050565b6000806000606084860312156123b1576123b06130a0565b5b60006123bf86828701612085565b93505060206123d086828701612135565b925050604084013567ffffffffffffffff8111156123f1576123f061309b565b5b6123fd86828701612107565b9150509250925092565b60006020828403121561241d5761241c6130a0565b5b600061242b848285016120af565b91505092915050565b60006020828403121561244a576124496130a0565b5b6000612458848285016120c4565b91505092915050565b600060208284031215612477576124766130a0565b5b600082013567ffffffffffffffff8111156124955761249461309b565b5b6124a184828501612107565b91505092915050565b6000602082840312156124c0576124bf6130a0565b5b60006124ce84828501612135565b91505092915050565b60006124e383836128ad565b905092915050565b6124f481612e13565b82525050565b600061250582612cdb565b61250f8185612d09565b93508360208202850161252185612ccb565b8060005b8581101561255d578484038952815161253e85826124d7565b945061254983612cfc565b925060208a01995050600181019050612525565b50829750879550505050505092915050565b61257881612e25565b82525050565b600061258982612ce6565b6125938185612d1a565b93506125a3818560208601612e96565b6125ac816130a5565b840191505092915050565b60006125c282612cf1565b6125cc8185612d2b565b93506125dc818560208601612e96565b6125e5816130a5565b840191505092915050565b60006125fb82612cf1565b6126058185612d3c565b9350612615818560208601612e96565b61261e816130a5565b840191505092915050565b600061263482612cf1565b61263e8185612d4d565b935061264e818560208601612e96565b80840191505092915050565b6000612667603283612d3c565b9150612672826130b6565b604082019050919050565b600061268a602683612d3c565b915061269582613105565b604082019050919050565b60006126ad601c83612d3c565b91506126b882613154565b602082019050919050565b60006126d0602483612d3c565b91506126db8261317d565b604082019050919050565b60006126f3601983612d3c565b91506126fe826131cc565b602082019050919050565b6000612716602c83612d3c565b9150612721826131f5565b604082019050919050565b6000612739603883612d3c565b915061274482613244565b604082019050919050565b600061275c602a83612d3c565b915061276782613293565b604082019050919050565b600061277f602983612d3c565b915061278a826132e2565b604082019050919050565b60006127a2602083612d3c565b91506127ad82613331565b602082019050919050565b60006127c5602c83612d3c565b91506127d08261335a565b604082019050919050565b60006127e8602c83612d3c565b91506127f3826133a9565b604082019050919050565b600061280b602083612d3c565b9150612816826133f8565b602082019050919050565b600061282e602983612d3c565b915061283982613421565b604082019050919050565b6000612851602f83612d3c565b915061285c82613470565b604082019050919050565b6000612874602183612d3c565b915061287f826134bf565b604082019050919050565b6000612897603183612d3c565b91506128a28261350e565b604082019050919050565b60006040830160008301516128c560008601826128ea565b50602083015184820360208601526128dd82826125b7565b9150508091505092915050565b6128f381612e7d565b82525050565b61290281612e7d565b82525050565b60006129148284612629565b915081905092915050565b600061292b8285612629565b91506129378284612629565b91508190509392505050565b600060208201905061295860008301846124eb565b92915050565b600060808201905061297360008301876124eb565b61298060208301866124eb565b61298d60408301856128f9565b818103606083015261299f818461257e565b905095945050505050565b600060208201905081810360008301526129c481846124fa565b905092915050565b60006020820190506129e1600083018461256f565b92915050565b60006020820190508181036000830152612a0181846125f0565b905092915050565b60006020820190508181036000830152612a228161265a565b9050919050565b60006020820190508181036000830152612a428161267d565b9050919050565b60006020820190508181036000830152612a62816126a0565b9050919050565b60006020820190508181036000830152612a82816126c3565b9050919050565b60006020820190508181036000830152612aa2816126e6565b9050919050565b60006020820190508181036000830152612ac281612709565b9050919050565b60006020820190508181036000830152612ae28161272c565b9050919050565b60006020820190508181036000830152612b028161274f565b9050919050565b60006020820190508181036000830152612b2281612772565b9050919050565b60006020820190508181036000830152612b4281612795565b9050919050565b60006020820190508181036000830152612b62816127b8565b9050919050565b60006020820190508181036000830152612b82816127db565b9050919050565b60006020820190508181036000830152612ba2816127fe565b9050919050565b60006020820190508181036000830152612bc281612821565b9050919050565b60006020820190508181036000830152612be281612844565b9050919050565b60006020820190508181036000830152612c0281612867565b9050919050565b60006020820190508181036000830152612c228161288a565b9050919050565b6000602082019050612c3e60008301846128f9565b92915050565b6000612c4e612c5f565b9050612c5a8282612efb565b919050565b6000604051905090565b600067ffffffffffffffff821115612c8457612c83613062565b5b612c8d826130a5565b9050602081019050919050565b600067ffffffffffffffff821115612cb557612cb4613062565b5b612cbe826130a5565b9050602081019050919050565b6000819050602082019050919050565b600081519050919050565b600081519050919050565b600081519050919050565b6000602082019050919050565b600082825260208201905092915050565b600082825260208201905092915050565b600082825260208201905092915050565b600082825260208201905092915050565b600081905092915050565b6000612d6382612e7d565b9150612d6e83612e7d565b9250827fffffffffffffffffffffffffffffffffffffffffffffffffffffffffffffffff03821115612da357612da2612fa6565b5b828201905092915050565b6000612db982612e7d565b9150612dc483612e7d565b925082612dd457612dd3612fd5565b5b828204905092915050565b6000612dea82612e7d565b9150612df583612e7d565b925082821015612e0857612e07612fa6565b5b828203905092915050565b6000612e1e82612e5d565b9050919050565b60008115159050919050565b60007fffffffff0000000000000000000000000000000000000000000000000000000082169050919050565b600073ffffffffffffffffffffffffffffffffffffffff82169050919050565b6000819050919050565b82818337600083830152505050565b60005b83811015612eb4578082015181840152602081019050612e99565b83811115612ec3576000848401525b50505050565b60006002820490506001821680612ee157607f821691505b60208210811415612ef557612ef4613004565b5b50919050565b612f04826130a5565b810181811067ffffffffffffffff82111715612f2357612f22613062565b5b80604052505050565b6000612f3782612e7d565b91507fffffffffffffffffffffffffffffffffffffffffffffffffffffffffffffffff821415612f6a57612f69612fa6565b5b600182019050919050565b6000612f8082612e7d565b9150612f8b83612e7d565b925082612f9b57612f9a612fd5565b5b828206905092915050565b7f4e487b7100000000000000000000000000000000000000000000000000000000600052601160045260246000fd5b7f4e487b7100000000000000000000000000000000000000000000000000000000600052601260045260246000fd5b7f4e487b7100000000000000000000000000000000000000000000000000000000600052602260045260246000fd5b7f4e487b7100000000000000000000000000000000000000000000000000000000600052603260045260246000fd5b7f4e487b7100000000000000000000000000000000000000000000000000000000600052604160045260246000fd5b600080fd5b600080fd5b600080fd5b600080fd5b6000601f19601f8301169050919050565b7f4552433732313a207472616e7366657220746f206e6f6e20455243373231526560008201527f63656976657220696d706c656d656e7465720000000000000000000000000000602082015250565b7f4f776e61626c653a206e6577206f776e657220697320746865207a65726f206160008201527f6464726573730000000000000000000000000000000000000000000000000000602082015250565b7f4552433732313a20746f6b656e20616c7265616479206d696e74656400000000600082015250565b7f4552433732313a207472616e7366657220746f20746865207a65726f2061646460008201527f7265737300000000000000000000000000000000000000000000000000000000602082015250565b7f4552433732313a20617070726f766520746f2063616c6c657200000000000000600082015250565b7f4552433732313a206f70657261746f7220717565727920666f72206e6f6e657860008201527f697374656e7420746f6b656e0000000000000000000000000000000000000000602082015250565b7f4552433732313a20617070726f76652063616c6c6572206973206e6f74206f7760008201527f6e6572206e6f7220617070726f76656420666f7220616c6c0000000000000000602082015250565b7f4552433732313a2062616c616e636520717565727920666f7220746865207a6560008201527f726f206164647265737300000000000000000000000000000000000000000000602082015250565b7f4552433732313a206f776e657220717565727920666f72206e6f6e657869737460008201527f656e7420746f6b656e0000000000000000000000000000000000000000000000602082015250565b7f4552433732313a206d696e7420746f20746865207a65726f2061646472657373600082015250565b7f4552433732313a20617070726f76656420717565727920666f72206e6f6e657860008201527f697374656e7420746f6b656e0000000000000000000000000000000000000000602082015250565b7f4552433732314d657461646174613a2055524920736574206f66206e6f6e657860008201527f697374656e7420746f6b656e0000000000000000000000000000000000000000602082015250565b7f4f776e61626c653a2063616c6c6572206973206e6f7420746865206f776e6572600082015250565b7f4552433732313a207472616e73666572206f6620746f6b656e2074686174206960008201527f73206e6f74206f776e0000000000000000000000000000000000000000000000602082015250565b7f4552433732314d657461646174613a2055524920717565727920666f72206e6f60008201527f6e6578697374656e7420746f6b656e0000000000000000000000000000000000602082015250565b7f4552433732313a20617070726f76616c20746f2063757272656e74206f776e6560008201527f7200000000000000000000000000000000000000000000000000000000000000602082015250565b7f4552433732313a207472616e736665722063616c6c6572206973206e6f74206f60008201527f776e6572206e6f7220617070726f766564000000000000000000000000000000602082015250565b61356681612e13565b811461357157600080fd5b50565b61357d81612e25565b811461358857600080fd5b50565b61359481612e31565b811461359f57600080fd5b50565b6135ab81612e7d565b81146135b657600080fd5b5056fea26469706673582212201807dcfaeb54cdf855d5dd4d57f54617b5bf563099ba9351ae2fd759379ec7d264736f6c63430008060033",
  "immutableReferences": {},
  "source": "pragma solidity ^0.8.0;\n\nimport \"@openzeppelin/contracts/token/ERC721/ERC721.sol\";\nimport \"@openzeppelin/contracts/utils/Counters.sol\";\nimport \"@openzeppelin/contracts/access/Ownable.sol\";\n\ncontract ViridianNFT is ERC721, Ownable {\n\n    using Counters for Counters.Counter;\n    Counters.Counter private _tokenIds;\n    mapping(string => uint8) hashes;\n    \n    constructor() ERC721(\"Viridian NFT\", \"VNFT\") {}\n\n    using Strings for uint256;\n\n    struct NFT {\n        uint256 id;\n        string uri;\n    }\n    \n    // Optional mapping for token URIs\n    mapping (uint256 => string) private _tokenURIs;\n\n    mapping (address => NFT[]) private _ownedNFTs;\n\n    // Base URI\n    string private _baseURIextended;\n    \n    function setBaseURI(string memory baseURI_) external onlyOwner() {\n        _baseURIextended = baseURI_;\n    }\n    \n    function _setTokenURI(uint256 tokenId, string memory _tokenURI) internal virtual {\n        require(_exists(tokenId), \"ERC721Metadata: URI set of nonexistent token\");\n        _tokenURIs[tokenId] = _tokenURI;\n    }\n    \n    function _baseURI() internal view virtual override returns (string memory) {\n        return _baseURIextended;\n    }\n    \n    function tokenURI(uint256 tokenId) public view virtual override returns (string memory) {\n        require(_exists(tokenId), \"ERC721Metadata: URI query for nonexistent token\");\n\n        string memory _tokenURI = _tokenURIs[tokenId];\n        string memory base = _baseURI();\n        \n        // If there is no base URI, return the token URI.\n        if (bytes(base).length == 0) {\n            return _tokenURI;\n        }\n        // If both are set, concatenate the baseURI and tokenURI (via abi.encodePacked).\n        if (bytes(_tokenURI).length > 0) {\n            return string(abi.encodePacked(base, _tokenURI));\n        }\n        // If there is a baseURI but no tokenURI, concatenate the tokenID to the baseURI.\n        return string(abi.encodePacked(base, tokenId.toString()));\n    }\n\n    function getOwnedNFTs() public view virtual returns (NFT[] memory) {\n        NFT[] memory _tokens = _ownedNFTs[msg.sender];\n        \n        return _tokens;\n    }\n    \n\n    function mint(\n        address _to,\n        uint256 _tokenId,\n        string memory tokenURI_\n    ) external onlyOwner() {\n        _mint(_to, _tokenId);\n        _ownedNFTs[_to].push(NFT(_tokenId, tokenURI_));\n        _setTokenURI(_tokenId, tokenURI_);\n    }\n\n    function awardItem(address recipient, string memory hash, string memory metadata) public returns (uint256) {\n        require(hashes[hash] != 1);\n        hashes[hash] = 1;\n        _tokenIds.increment();\n        uint256 newItemId = _tokenIds.current();\n        _mint(recipient, newItemId);\n        _setTokenURI(newItemId, metadata);\n        return newItemId;\n    }\n}",
  "sourcePath": "/Users/blakehatch/Viridian-Exchange-Contracts/contracts/ViridianNFT.sol",
  "compiler": {
    "name": "solc",
    "version": "0.8.6+commit.11564f7e.Emscripten.clang"
  },
  "schemaVersion": "3.4.1",
  "updatedAt": "2021-07-14T16:31:41.884Z",
  "networkType": "ethereum",
  "devdoc": {
    "kind": "dev",
    "methods": {
      "approve(address,uint256)": {
        "details": "See {IERC721-approve}."
      },
      "balanceOf(address)": {
        "details": "See {IERC721-balanceOf}."
      },
      "getApproved(uint256)": {
        "details": "See {IERC721-getApproved}."
      },
      "isApprovedForAll(address,address)": {
        "details": "See {IERC721-isApprovedForAll}."
      },
      "name()": {
        "details": "See {IERC721Metadata-name}."
      },
      "owner()": {
        "details": "Returns the address of the current owner."
      },
      "ownerOf(uint256)": {
        "details": "See {IERC721-ownerOf}."
      },
      "renounceOwnership()": {
        "details": "Leaves the contract without owner. It will not be possible to call `onlyOwner` functions anymore. Can only be called by the current owner. NOTE: Renouncing ownership will leave the contract without an owner, thereby removing any functionality that is only available to the owner."
      },
      "safeTransferFrom(address,address,uint256)": {
        "details": "See {IERC721-safeTransferFrom}."
      },
      "safeTransferFrom(address,address,uint256,bytes)": {
        "details": "See {IERC721-safeTransferFrom}."
      },
      "setApprovalForAll(address,bool)": {
        "details": "See {IERC721-setApprovalForAll}."
      },
      "supportsInterface(bytes4)": {
        "details": "See {IERC165-supportsInterface}."
      },
      "symbol()": {
        "details": "See {IERC721Metadata-symbol}."
      },
      "tokenURI(uint256)": {
        "details": "See {IERC721Metadata-tokenURI}."
      },
      "transferFrom(address,address,uint256)": {
        "details": "See {IERC721-transferFrom}."
      },
      "transferOwnership(address)": {
        "details": "Transfers ownership of the contract to a new account (`newOwner`). Can only be called by the current owner."
      }
    },
    "version": 1
  },
  "userdoc": {
    "kind": "user",
    "methods": {},
    "version": 1
  }
}