{
  "contractName": "ViridianPack",
  "abi": [
    {
      "inputs": [
        {
          "internalType": "address",
          "name": "_viridianNFT",
          "type": "address"
        }
      ],
      "stateMutability": "nonpayable",
      "type": "constructor"
    },
    {
      "anonymous": false,
      "inputs": [
        {
          "indexed": true,
          "internalType": "address",
          "name": "owner",
          "type": "address"
        },
        {
          "indexed": true,
          "internalType": "address",
          "name": "approved",
          "type": "address"
        },
        {
          "indexed": true,
          "internalType": "uint256",
          "name": "tokenId",
          "type": "uint256"
        }
      ],
      "name": "Approval",
      "type": "event"
    },
    {
      "anonymous": false,
      "inputs": [
        {
          "indexed": true,
          "internalType": "address",
          "name": "owner",
          "type": "address"
        },
        {
          "indexed": true,
          "internalType": "address",
          "name": "operator",
          "type": "address"
        },
        {
          "indexed": false,
          "internalType": "bool",
          "name": "approved",
          "type": "bool"
        }
      ],
      "name": "ApprovalForAll",
      "type": "event"
    },
    {
      "anonymous": false,
      "inputs": [
        {
          "indexed": false,
          "internalType": "string[10]",
          "name": "newUris",
          "type": "string[10]"
        }
      ],
      "name": "Open",
      "type": "event"
    },
    {
      "anonymous": false,
      "inputs": [
        {
          "indexed": true,
          "internalType": "address",
          "name": "previousOwner",
          "type": "address"
        },
        {
          "indexed": true,
          "internalType": "address",
          "name": "newOwner",
          "type": "address"
        }
      ],
      "name": "OwnershipTransferred",
      "type": "event"
    },
    {
      "anonymous": false,
      "inputs": [
        {
          "indexed": false,
          "internalType": "uint256",
          "name": "tokenId",
          "type": "uint256"
        }
      ],
      "name": "PackResultDecided",
      "type": "event"
    },
    {
      "anonymous": false,
      "inputs": [
        {
          "indexed": true,
          "internalType": "address",
          "name": "from",
          "type": "address"
        },
        {
          "indexed": true,
          "internalType": "address",
          "name": "to",
          "type": "address"
        },
        {
          "indexed": true,
          "internalType": "uint256",
          "name": "tokenId",
          "type": "uint256"
        }
      ],
      "name": "Transfer",
      "type": "event"
    },
    {
      "inputs": [
        {
          "internalType": "address",
          "name": "to",
          "type": "address"
        },
        {
          "internalType": "uint256",
          "name": "tokenId",
          "type": "uint256"
        }
      ],
      "name": "approve",
      "outputs": [],
      "stateMutability": "nonpayable",
      "type": "function"
    },
    {
      "inputs": [
        {
          "internalType": "address",
          "name": "owner",
          "type": "address"
        }
      ],
      "name": "balanceOf",
      "outputs": [
        {
          "internalType": "uint256",
          "name": "",
          "type": "uint256"
        }
      ],
      "stateMutability": "view",
      "type": "function",
      "constant": true
    },
    {
      "inputs": [
        {
          "internalType": "uint256",
          "name": "tokenId",
          "type": "uint256"
        }
      ],
      "name": "getApproved",
      "outputs": [
        {
          "internalType": "address",
          "name": "",
          "type": "address"
        }
      ],
      "stateMutability": "view",
      "type": "function",
      "constant": true
    },
    {
      "inputs": [
        {
          "internalType": "address",
          "name": "owner",
          "type": "address"
        },
        {
          "internalType": "address",
          "name": "operator",
          "type": "address"
        }
      ],
      "name": "isApprovedForAll",
      "outputs": [
        {
          "internalType": "bool",
          "name": "",
          "type": "bool"
        }
      ],
      "stateMutability": "view",
      "type": "function",
      "constant": true
    },
    {
      "inputs": [
        {
          "internalType": "address",
          "name": "forwarder",
          "type": "address"
        }
      ],
      "name": "isTrustedForwarder",
      "outputs": [
        {
          "internalType": "bool",
          "name": "",
          "type": "bool"
        }
      ],
      "stateMutability": "view",
      "type": "function",
      "constant": true
    },
    {
      "inputs": [],
      "name": "name",
      "outputs": [
        {
          "internalType": "string",
          "name": "",
          "type": "string"
        }
      ],
      "stateMutability": "view",
      "type": "function",
      "constant": true
    },
    {
      "inputs": [],
      "name": "owner",
      "outputs": [
        {
          "internalType": "address",
          "name": "",
          "type": "address"
        }
      ],
      "stateMutability": "view",
      "type": "function",
      "constant": true
    },
    {
      "inputs": [
        {
          "internalType": "uint256",
          "name": "tokenId",
          "type": "uint256"
        }
      ],
      "name": "ownerOf",
      "outputs": [
        {
          "internalType": "address",
          "name": "",
          "type": "address"
        }
      ],
      "stateMutability": "view",
      "type": "function",
      "constant": true
    },
    {
      "inputs": [],
      "name": "renounceOwnership",
      "outputs": [],
      "stateMutability": "nonpayable",
      "type": "function"
    },
    {
      "inputs": [
        {
          "internalType": "address",
          "name": "operator",
          "type": "address"
        },
        {
          "internalType": "bool",
          "name": "approved",
          "type": "bool"
        }
      ],
      "name": "setApprovalForAll",
      "outputs": [],
      "stateMutability": "nonpayable",
      "type": "function"
    },
    {
      "inputs": [
        {
          "internalType": "bytes4",
          "name": "interfaceId",
          "type": "bytes4"
        }
      ],
      "name": "supportsInterface",
      "outputs": [
        {
          "internalType": "bool",
          "name": "",
          "type": "bool"
        }
      ],
      "stateMutability": "view",
      "type": "function",
      "constant": true
    },
    {
      "inputs": [],
      "name": "symbol",
      "outputs": [
        {
          "internalType": "string",
          "name": "",
          "type": "string"
        }
      ],
      "stateMutability": "view",
      "type": "function",
      "constant": true
    },
    {
      "inputs": [
        {
          "internalType": "address",
          "name": "newOwner",
          "type": "address"
        }
      ],
      "name": "transferOwnership",
      "outputs": [],
      "stateMutability": "nonpayable",
      "type": "function"
    },
    {
      "inputs": [],
      "name": "trustedForwarder",
      "outputs": [
        {
          "internalType": "address",
          "name": "",
          "type": "address"
        }
      ],
      "stateMutability": "view",
      "type": "function",
      "constant": true
    },
    {
      "inputs": [],
      "name": "versionRecipient",
      "outputs": [
        {
          "internalType": "string",
          "name": "",
          "type": "string"
        }
      ],
      "stateMutability": "view",
      "type": "function",
      "constant": true
    },
    {
      "inputs": [],
      "name": "viridianNFTAddr",
      "outputs": [
        {
          "internalType": "address",
          "name": "",
          "type": "address"
        }
      ],
      "stateMutability": "view",
      "type": "function",
      "constant": true
    },
    {
      "inputs": [
        {
          "internalType": "address",
          "name": "_forwarder",
          "type": "address"
        }
      ],
      "name": "setTrustedForwarder",
      "outputs": [],
      "stateMutability": "nonpayable",
      "type": "function"
    },
    {
      "inputs": [
        {
          "internalType": "address",
          "name": "_newAdmin",
          "type": "address"
        }
      ],
      "name": "addAdmin",
      "outputs": [],
      "stateMutability": "nonpayable",
      "type": "function"
    },
    {
      "inputs": [
        {
          "internalType": "address",
          "name": "_newAdmin",
          "type": "address"
        }
      ],
      "name": "removeAdmin",
      "outputs": [],
      "stateMutability": "nonpayable",
      "type": "function"
    },
    {
      "inputs": [
        {
          "internalType": "string",
          "name": "baseURI_",
          "type": "string"
        }
      ],
      "name": "setBaseURI",
      "outputs": [],
      "stateMutability": "nonpayable",
      "type": "function"
    },
    {
      "inputs": [
        {
          "internalType": "uint256",
          "name": "tokenId",
          "type": "uint256"
        },
        {
          "internalType": "string",
          "name": "_tokenURI",
          "type": "string"
        }
      ],
      "name": "_setTokenURI",
      "outputs": [],
      "stateMutability": "nonpayable",
      "type": "function"
    },
    {
      "inputs": [
        {
          "internalType": "uint256",
          "name": "tokenId",
          "type": "uint256"
        }
      ],
      "name": "tokenURI",
      "outputs": [
        {
          "internalType": "string",
          "name": "",
          "type": "string"
        }
      ],
      "stateMutability": "view",
      "type": "function",
      "constant": true
    },
    {
      "inputs": [
        {
          "internalType": "uint256",
          "name": "_rarity",
          "type": "uint256"
        }
      ],
      "name": "getUriRarityPools",
      "outputs": [
        {
          "internalType": "string[]",
          "name": "",
          "type": "string[]"
        }
      ],
      "stateMutability": "view",
      "type": "function",
      "constant": true
    },
    {
      "inputs": [],
      "name": "getNumNFTs",
      "outputs": [
        {
          "internalType": "uint256",
          "name": "n",
          "type": "uint256"
        }
      ],
      "stateMutability": "view",
      "type": "function",
      "constant": true
    },
    {
      "inputs": [],
      "name": "getNumOwnedNFTs",
      "outputs": [
        {
          "internalType": "uint256",
          "name": "",
          "type": "uint256"
        }
      ],
      "stateMutability": "view",
      "type": "function",
      "constant": true
    },
    {
      "inputs": [],
      "name": "getOwnedNFTs",
      "outputs": [
        {
          "internalType": "uint256[]",
          "name": "",
          "type": "uint256[]"
        }
      ],
      "stateMutability": "view",
      "type": "function",
      "constant": true
    },
    {
      "inputs": [
        {
          "internalType": "uint256",
          "name": "_rarity",
          "type": "uint256"
        },
        {
          "internalType": "uint256",
          "name": "_rarityOdd",
          "type": "uint256"
        },
        {
          "internalType": "uint256",
          "name": "_newOdds",
          "type": "uint256"
        }
      ],
      "name": "setRarityOdds",
      "outputs": [],
      "stateMutability": "nonpayable",
      "type": "function"
    },
    {
      "inputs": [
        {
          "internalType": "uint256",
          "name": "tokenId",
          "type": "uint256"
        }
      ],
      "name": "isListed",
      "outputs": [
        {
          "internalType": "bool",
          "name": "",
          "type": "bool"
        }
      ],
      "stateMutability": "view",
      "type": "function",
      "constant": true
    },
    {
      "inputs": [
        {
          "internalType": "address",
          "name": "_to",
          "type": "address"
        },
        {
          "internalType": "string",
          "name": "tokenURI_",
          "type": "string"
        }
      ],
      "name": "mint",
      "outputs": [],
      "stateMutability": "nonpayable",
      "type": "function"
    },
    {
      "inputs": [
        {
          "internalType": "string",
          "name": "uri",
          "type": "string"
        },
        {
          "internalType": "uint256",
          "name": "rarity",
          "type": "uint256"
        }
      ],
      "name": "softMintNFT",
      "outputs": [],
      "stateMutability": "nonpayable",
      "type": "function"
    },
    {
      "inputs": [
        {
          "internalType": "uint256",
          "name": "rarity",
          "type": "uint256"
        },
        {
          "internalType": "uint256",
          "name": "index",
          "type": "uint256"
        }
      ],
      "name": "burnSoftMintedNFTAtRarityIndex",
      "outputs": [],
      "stateMutability": "nonpayable",
      "type": "function"
    },
    {
      "inputs": [
        {
          "internalType": "string",
          "name": "_s",
          "type": "string"
        },
        {
          "internalType": "string",
          "name": "_s1",
          "type": "string"
        }
      ],
      "name": "compareStrings",
      "outputs": [
        {
          "internalType": "bool",
          "name": "",
          "type": "bool"
        }
      ],
      "stateMutability": "pure",
      "type": "function",
      "constant": true
    },
    {
      "inputs": [
        {
          "internalType": "address",
          "name": "_vrfAddress",
          "type": "address"
        }
      ],
      "name": "configureVRF",
      "outputs": [],
      "stateMutability": "nonpayable",
      "type": "function"
    },
    {
      "inputs": [
        {
          "internalType": "uint256",
          "name": "_tokenId",
          "type": "uint256"
        }
      ],
      "name": "lockInPackResult",
      "outputs": [],
      "stateMutability": "nonpayable",
      "type": "function"
    },
    {
      "inputs": [
        {
          "internalType": "uint256",
          "name": "_tokenId",
          "type": "uint256"
        }
      ],
      "name": "isPackResultDecided",
      "outputs": [
        {
          "internalType": "bool",
          "name": "",
          "type": "bool"
        }
      ],
      "stateMutability": "view",
      "type": "function",
      "constant": true
    },
    {
      "inputs": [
        {
          "internalType": "uint256",
          "name": "_tokenId",
          "type": "uint256"
        }
      ],
      "name": "getRandIndexPercentOdds",
      "outputs": [
        {
          "internalType": "uint256",
          "name": "",
          "type": "uint256"
        }
      ],
      "stateMutability": "view",
      "type": "function",
      "constant": true
    },
    {
      "inputs": [
        {
          "internalType": "uint256",
          "name": "_tokenId",
          "type": "uint256"
        }
      ],
      "name": "getRandIndexRarity",
      "outputs": [
        {
          "internalType": "uint256",
          "name": "",
          "type": "uint256"
        }
      ],
      "stateMutability": "view",
      "type": "function",
      "constant": true
    },
    {
      "inputs": [
        {
          "internalType": "uint256",
          "name": "_tokenId",
          "type": "uint256"
        }
      ],
      "name": "openPack",
      "outputs": [],
      "stateMutability": "nonpayable",
      "type": "function"
    },
    {
      "inputs": [
        {
          "internalType": "uint256",
          "name": "tokenId",
          "type": "uint256"
        }
      ],
      "name": "burn",
      "outputs": [],
      "stateMutability": "nonpayable",
      "type": "function"
    },
    {
      "inputs": [
        {
          "internalType": "address",
          "name": "recipient",
          "type": "address"
        },
        {
          "internalType": "string",
          "name": "hash",
          "type": "string"
        },
        {
          "internalType": "string",
          "name": "metadata",
          "type": "string"
        }
      ],
      "name": "awardItem",
      "outputs": [
        {
          "internalType": "uint256",
          "name": "",
          "type": "uint256"
        }
      ],
      "stateMutability": "nonpayable",
      "type": "function"
    },
    {
      "inputs": [
        {
          "internalType": "address",
          "name": "from",
          "type": "address"
        },
        {
          "internalType": "address",
          "name": "to",
          "type": "address"
        },
        {
          "internalType": "uint256",
          "name": "tokenId",
          "type": "uint256"
        }
      ],
      "name": "safeTransferFrom",
      "outputs": [],
      "stateMutability": "nonpayable",
      "type": "function"
    },
    {
      "inputs": [
        {
          "internalType": "address",
          "name": "from",
          "type": "address"
        },
        {
          "internalType": "address",
          "name": "to",
          "type": "address"
        },
        {
          "internalType": "uint256",
          "name": "tokenId",
          "type": "uint256"
        },
        {
          "internalType": "bytes",
          "name": "_data",
          "type": "bytes"
        }
      ],
      "name": "safeTransferFrom",
      "outputs": [],
      "stateMutability": "nonpayable",
      "type": "function"
    },
    {
      "inputs": [
        {
          "internalType": "address",
          "name": "from",
          "type": "address"
        },
        {
          "internalType": "address",
          "name": "to",
          "type": "address"
        },
        {
          "internalType": "uint256",
          "name": "tokenId",
          "type": "uint256"
        }
      ],
      "name": "transferFrom",
      "outputs": [],
      "stateMutability": "nonpayable",
      "type": "function"
    },
    {
      "inputs": [
        {
          "internalType": "uint256",
          "name": "_tokenId",
          "type": "uint256"
        }
      ],
      "name": "listToken",
      "outputs": [],
      "stateMutability": "nonpayable",
      "type": "function"
    },
    {
      "inputs": [
        {
          "internalType": "uint256",
          "name": "_tokenId",
          "type": "uint256"
        }
      ],
      "name": "unlistToken",
      "outputs": [],
      "stateMutability": "nonpayable",
      "type": "function"
    }
  ],
  "bytecode": "0x60806040526040518060400160405280600581526020017f322e322e30000000000000000000000000000000000000000000000000000000815250601690805190602001906200005192919062000739565b503480156200005f57600080fd5b506040516200674238038062006742833981810160405281019062000085919062000853565b6040518060400160405280600d81526020017f566972696469616e205061636b000000000000000000000000000000000000008152506040518060400160405280600281526020017f565000000000000000000000000000000000000000000000000000000000000081525081600090805190602001906200010992919062000739565b5080600190805190602001906200012292919062000739565b5050506200014562000139620005bb60201b60201c565b620005d760201b60201c565b600073ffffffffffffffffffffffffffffffffffffffff168173ffffffffffffffffffffffffffffffffffffffff1614156200018057600080fd5b80601360006101000a81548173ffffffffffffffffffffffffffffffffffffffff021916908373ffffffffffffffffffffffffffffffffffffffff160217905550601360009054906101000a900473ffffffffffffffffffffffffffffffffffffffff16601460006101000a81548173ffffffffffffffffffffffffffffffffffffffff021916908373ffffffffffffffffffffffffffffffffffffffff1602179055506019600b60008081526020019081526020016000206000808152602001908152602001600020819055506064600b60008081526020019081526020016000206000600181526020019081526020016000208190555061012c600b6000808152602001908152602001600020600060028152602001908152602001600020819055506103e8600b6000808152602001908152602001600020600060038152602001908152602001600020819055506003600c6000808152602001908152602001600020819055506001600b6000600181526020019081526020016000206000808152602001908152602001600020819055506032600b6000600181526020019081526020016000206000600181526020019081526020016000208190555060c8600b600060018152602001908152602001600020600060028152602001908152602001600020819055506103e8600b600060018152602001908152602001600020600060038152602001908152602001600020819055506003600c6000808152602001908152602001600020819055506000600b6000600281526020019081526020016000206000808152602001908152602001600020819055506032600b600060028152602001908152602001600020600060018152602001908152602001600020819055506064600b600060028152602001908152602001600020600060028152602001908152602001600020819055506103e8600b600060028152602001908152602001600020600060038152602001908152602001600020819055506003600c6000808152602001908152602001600020819055506000600b600060038152602001908152602001600020600080815260200190815260200160002081905550600a600b600060038152602001908152602001600020600060018152602001908152602001600020819055506032600b600060038152602001908152602001600020600060028152602001908152602001600020819055506103e8600b600060038152602001908152602001600020600060038152602001908152602001600020819055506003600c600080815260200190815260200160002081905550600360108190555060016012600062000563620005bb60201b60201c565b73ffffffffffffffffffffffffffffffffffffffff1673ffffffffffffffffffffffffffffffffffffffff16815260200190815260200160002060006101000a81548160ff02191690831515021790555050620008ea565b6000620005d26200069d60201b62002fc81760201c565b905090565b6000600660009054906101000a900473ffffffffffffffffffffffffffffffffffffffff16905081600660006101000a81548173ffffffffffffffffffffffffffffffffffffffff021916908373ffffffffffffffffffffffffffffffffffffffff1602179055508173ffffffffffffffffffffffffffffffffffffffff168173ffffffffffffffffffffffffffffffffffffffff167f8be0079c531659141344cd1fd0a4f28419497f9722a3daafe3b4186f6b6457e060405160405180910390a35050565b60006014600036905010158015620006c25750620006c133620006df60201b60201c565b5b15620006d857601436033560601c9050620006dc565b3390505b90565b6000600760009054906101000a900473ffffffffffffffffffffffffffffffffffffffff1673ffffffffffffffffffffffffffffffffffffffff168273ffffffffffffffffffffffffffffffffffffffff16149050919050565b8280546200074790620008b4565b90600052602060002090601f0160209004810192826200076b5760008555620007b7565b82601f106200078657805160ff1916838001178555620007b7565b82800160010185558215620007b7579182015b82811115620007b657825182559160200191906001019062000799565b5b509050620007c69190620007ca565b5090565b5b80821115620007e5576000816000905550600101620007cb565b5090565b600080fd5b600073ffffffffffffffffffffffffffffffffffffffff82169050919050565b60006200081b82620007ee565b9050919050565b6200082d816200080e565b81146200083957600080fd5b50565b6000815190506200084d8162000822565b92915050565b6000602082840312156200086c576200086b620007e9565b5b60006200087c848285016200083c565b91505092915050565b7f4e487b7100000000000000000000000000000000000000000000000000000000600052602260045260246000fd5b60006002820490506001821680620008cd57607f821691505b60208210811415620008e457620008e362000885565b5b50919050565b615e4880620008fa6000396000f3fe608060405234801561001057600080fd5b506004361061027f5760003560e01c80638bfaf1011161015c578063bda4e797116100ce578063e1e3e4e211610087578063e1e3e4e2146107a4578063e6148d5f146107d4578063e985e9c5146107f0578063ece769e714610820578063f2fde38b1461083c578063fcce4883146108585761027f565b8063bda4e797146106d2578063bed34bba146106f0578063c87b56dd14610720578063d0def52114610750578063da7422281461076c578063dc5df54e146107885761027f565b8063a22cb46511610120578063a22cb46514610626578063a3524a0414610642578063a80f1e9c14610660578063ad3a358c1461067c578063b88d4fde14610698578063bb92c248146106b45761027f565b80638bfaf1011461055a5780638da5cb5b1461058a57806395d89b41146105a85780639e607a3f146105c6578063a203428c146105f65761027f565b8063486ff0cd116101f55780636352211e116101b95780636352211e1461048657806370480275146104b657806370a08231146104d2578063715018a6146105025780637da0a8771461050c5780638a2a1fda1461052a5761027f565b8063486ff0cd146103e25780634c0eb7d91461040057806350a88c7e1461041e57806355f804b31461043a578063572b6c05146104565761027f565b80630e065931116102475780630e0659311461033a5780631785f53c14610356578063228061cc1461037257806323b872dd1461038e57806342842e0e146103aa57806342966c68146103c65761027f565b8063015388681461028457806301ffc9a7146102a057806306fdde03146102d0578063081812fc146102ee578063095ea7b31461031e575b600080fd5b61029e6004803603810190610299919061413d565b610888565b005b6102ba60048036038101906102b591906141f1565b610960565b6040516102c79190614239565b60405180910390f35b6102d8610a42565b6040516102e591906142dc565b60405180910390f35b610308600480360381019061030391906142fe565b610ad4565b604051610315919061436c565b60405180910390f35b610338600480360381019061033391906143b3565b610b59565b005b610354600480360381019061034f91906143f3565b610c71565b005b610370600480360381019061036b919061444f565b610d26565b005b61038c6004803603810190610387919061444f565b610dfd565b005b6103a860048036038101906103a3919061447c565b610e41565b005b6103c460048036038101906103bf919061447c565b610f13565b005b6103e060048036038101906103db91906142fe565b610fe5565b005b6103ea61100b565b6040516103f791906142dc565b60405180910390f35b610408611099565b604051610415919061458d565b60405180910390f35b610438600480360381019061043391906142fe565b6111a4565b005b610454600480360381019061044f91906145af565b61191a565b005b610470600480360381019061046b919061444f565b611998565b60405161047d9190614239565b60405180910390f35b6104a0600480360381019061049b91906142fe565b6119f2565b6040516104ad919061436c565b60405180910390f35b6104d060048036038101906104cb919061444f565b611aa4565b005b6104ec60048036038101906104e7919061444f565b611b7b565b6040516104f99190614607565b60405180910390f35b61050a611c33565b005b610514611cbb565b604051610521919061436c565b60405180910390f35b610544600480360381019061053f91906142fe565b611ce5565b6040516105519190614607565b60405180910390f35b610574600480360381019061056f9190614622565b611e2e565b6040516105819190614607565b60405180910390f35b610592611edb565b60405161059f919061436c565b60405180910390f35b6105b0611f05565b6040516105bd91906142dc565b60405180910390f35b6105e060048036038101906105db91906142fe565b611f97565b6040516105ed9190614239565b60405180910390f35b610610600480360381019061060b91906142fe565b611fc1565b60405161061d91906147b9565b60405180910390f35b610640600480360381019061063b9190614807565b612111565b005b61064a612292565b604051610657919061436c565b60405180910390f35b61067a60048036038101906106759190614847565b6122b8565b005b610696600480360381019061069191906142fe565b61234a565b005b6106b260048036038101906106ad919061493b565b612393565b005b6106bc6123f5565b6040516106c99190614607565b60405180910390f35b6106da61248f565b6040516106e79190614607565b60405180910390f35b61070a600480360381019061070591906149be565b6124a0565b6040516107179190614239565b60405180910390f35b61073a600480360381019061073591906142fe565b6124f9565b60405161074791906142dc565b60405180910390f35b61076a60048036038101906107659190614a36565b61266c565b005b6107866004803603810190610781919061444f565b61272d565b005b6107a2600480360381019061079d9190614a92565b6127b5565b005b6107be60048036038101906107b991906142fe565b6129f6565b6040516107cb9190614607565b60405180910390f35b6107ee60048036038101906107e991906142fe565b612c13565b005b61080a60048036038101906108059190614ad2565b612c5c565b6040516108179190614239565b60405180910390f35b61083a600480360381019061083591906142fe565b612cf0565b005b6108566004803603810190610851919061444f565b612ea6565b005b610872600480360381019061086d91906142fe565b612f9e565b60405161087f9190614239565b60405180910390f35b6001151560126000610898612fff565b73ffffffffffffffffffffffffffffffffffffffff1673ffffffffffffffffffffffffffffffffffffffff16815260200190815260200160002060009054906101000a900460ff161515146108ec57600080fd5b6108f58261300e565b610934576040517f08c379a000000000000000000000000000000000000000000000000000000000815260040161092b90614b84565b60405180910390fd5b8060176000848152602001908152602001600020908051906020019061095b929190613e1e565b505050565b60007f80ac58cd000000000000000000000000000000000000000000000000000000007bffffffffffffffffffffffffffffffffffffffffffffffffffffffff1916827bffffffffffffffffffffffffffffffffffffffffffffffffffffffff19161480610a2b57507f5b5e139f000000000000000000000000000000000000000000000000000000007bffffffffffffffffffffffffffffffffffffffffffffffffffffffff1916827bffffffffffffffffffffffffffffffffffffffffffffffffffffffff1916145b80610a3b5750610a3a8261307a565b5b9050919050565b606060008054610a5190614bd3565b80601f0160208091040260200160405190810160405280929190818152602001828054610a7d90614bd3565b8015610aca5780601f10610a9f57610100808354040283529160200191610aca565b820191906000526020600020905b815481529060010190602001808311610aad57829003601f168201915b5050505050905090565b6000610adf8261300e565b610b1e576040517f08c379a0000000000000000000000000000000000000000000000000000000008152600401610b1590614c77565b60405180910390fd5b6004600083815260200190815260200160002060009054906101000a900473ffffffffffffffffffffffffffffffffffffffff169050919050565b6000610b64826119f2565b90508073ffffffffffffffffffffffffffffffffffffffff168373ffffffffffffffffffffffffffffffffffffffff161415610bd5576040517f08c379a0000000000000000000000000000000000000000000000000000000008152600401610bcc90614d09565b60405180910390fd5b8073ffffffffffffffffffffffffffffffffffffffff16610bf4612fff565b73ffffffffffffffffffffffffffffffffffffffff161480610c235750610c2281610c1d612fff565b612c5c565b5b610c62576040517f08c379a0000000000000000000000000000000000000000000000000000000008152600401610c5990614d9b565b60405180910390fd5b610c6c83836130e4565b505050565b6001151560126000610c81612fff565b73ffffffffffffffffffffffffffffffffffffffff1673ffffffffffffffffffffffffffffffffffffffff16815260200190815260200160002060009054906101000a900460ff16151514610cd557600080fd5b600f600082815260200190815260200160002082908060018154018082558091505060019003906000526020600020016000909190919091509080519060200190610d21929190613e1e565b505050565b610d2e612fff565b73ffffffffffffffffffffffffffffffffffffffff16610d4c611edb565b73ffffffffffffffffffffffffffffffffffffffff1614610da2576040517f08c379a0000000000000000000000000000000000000000000000000000000008152600401610d9990614e07565b60405180910390fd5b6000601260008373ffffffffffffffffffffffffffffffffffffffff1673ffffffffffffffffffffffffffffffffffffffff16815260200190815260200160002060006101000a81548160ff02191690831515021790555050565b80601560006101000a81548173ffffffffffffffffffffffffffffffffffffffff021916908373ffffffffffffffffffffffffffffffffffffffff16021790555050565b600d600082815260200190815260200160002060009054906101000a900460ff1615610ea2576040517f08c379a0000000000000000000000000000000000000000000000000000000008152600401610e9990614e99565b60405180910390fd5b6011600082815260200190815260200160002060009054906101000a900460ff1615610f03576040517f08c379a0000000000000000000000000000000000000000000000000000000008152600401610efa90614f2b565b60405180910390fd5b610f0e83838361319d565b505050565b600d600082815260200190815260200160002060009054906101000a900460ff1615610f74576040517f08c379a0000000000000000000000000000000000000000000000000000000008152600401610f6b90614e99565b60405180910390fd5b6011600082815260200190815260200160002060009054906101000a900460ff1615610fd5576040517f08c379a0000000000000000000000000000000000000000000000000000000008152600401610fcc90614f2b565b60405180910390fd5b610fe08383836131fd565b505050565b610ff6610ff0612fff565b8261321d565b610fff57600080fd5b611008816132fb565b50565b6016805461101890614bd3565b80601f016020809104026020016040519081016040528092919081815260200182805461104490614bd3565b80156110915780601f1061106657610100808354040283529160200191611091565b820191906000526020600020905b81548152906001019060200180831161107457829003601f168201915b505050505081565b606060006110a56123f5565b67ffffffffffffffff8111156110be576110bd614012565b5b6040519080825280602002602001820160405280156110ec5781602001602082028036833780820191505090505b509050600080600190505b611101600861340c565b811161119b576111108161300e565b156111885761111d612fff565b73ffffffffffffffffffffffffffffffffffffffff1661113c826119f2565b73ffffffffffffffffffffffffffffffffffffffff161415611187578083838151811061116c5761116b614f4b565b5b602002602001018181525050818061118390614fa9565b9250505b5b808061119390614fa9565b9150506110f7565b50819250505090565b6111b56111af612fff565b8261321d565b6111f4576040517f08c379a00000000000000000000000000000000000000000000000000000000081526004016111eb90615064565b60405180910390fd5b6011600082815260200190815260200160002060009054906101000a900460ff16611254576040517f08c379a000000000000000000000000000000000000000000000000000000000815260040161124b906150f6565b60405180910390fd5b6000601560009054906101000a900473ffffffffffffffffffffffffffffffffffffffff1673ffffffffffffffffffffffffffffffffffffffff166397597bfd836040518263ffffffff1660e01b81526004016112b19190614607565b602060405180830381865afa1580156112ce573d6000803e3d6000fd5b505050506040513d601f19601f820116820180604052508101906112f2919061512b565b90506000601560009054906101000a900473ffffffffffffffffffffffffffffffffffffffff1673ffffffffffffffffffffffffffffffffffffffff1663d972fa1c846040518263ffffffff1660e01b81526004016113519190614607565b602060405180830381865afa15801561136e573d6000803e3d6000fd5b505050506040513d601f19601f82011682018060405250810190611392919061512b565b9050600082116113d7576040517f08c379a00000000000000000000000000000000000000000000000000000000081526004016113ce906151ca565b60405180910390fd5b6000811161141a576040517f08c379a00000000000000000000000000000000000000000000000000000000081526004016114119061525c565b60405180910390fd5b6000600e600085815260200190815260200160002054905061143a613ea4565b60005b600c6000848152602001908152602001600020548160ff1610156118d257600061147985600b600087815260200190815260200160002061341a565b905060006001600f6000848152602001908152602001600020805490506114a0919061527c565b876114ab91906152df565b90506000600f600084815260200190815260200160002082815481106114d4576114d3614f4b565b5b9060005260206000200180546114e990614bd3565b80601f016020809104026020016040519081016040528092919081815260200182805461151590614bd3565b80156115625780601f1061153757610100808354040283529160200191611562565b820191906000526020600020905b81548152906001019060200180831161154557829003601f168201915b50505050509050601460009054906101000a900473ffffffffffffffffffffffffffffffffffffffff1673ffffffffffffffffffffffffffffffffffffffff1663d0def5216115af612fff565b836040518363ffffffff1660e01b81526004016115cd929190615310565b600060405180830381600087803b1580156115e757600080fd5b505af11580156115fb573d6000803e3d6000fd5b5050505080858560ff16600a811061161657611615614f4b565b5b60200201819052506000600f6000858152602001908152602001600020805480602002602001604051908101604052809291908181526020016000905b828210156116ff57838290600052602060002001805461167290614bd3565b80601f016020809104026020016040519081016040528092919081815260200182805461169e90614bd3565b80156116eb5780601f106116c0576101008083540402835291602001916116eb565b820191906000526020600020905b8154815290600101906020018083116116ce57829003601f168201915b505050505081526020019060010190611653565b50505050905060005b600f6000868152602001908152602001600020805490508110156118ba576000600f6000878152602001908152602001600020828154811061174d5761174c614f4b565b5b90600052602060002001805461176290614bd3565b80601f016020809104026020016040519081016040528092919081815260200182805461178e90614bd3565b80156117db5780601f106117b0576101008083540402835291602001916117db565b820191906000526020600020905b8154815290600101906020018083116117be57829003601f168201915b505050505090506117ec81856124a0565b156118a6578260018451611800919061527c565b8151811061181157611810614f4b565b5b602002602001015183838151811061182c5761182b614f4b565b5b602002602001018190525082600f6000888152602001908152602001600020908051906020019061185e929190613ecc565b50600f600087815260200190815260200160002080548061188257611881615340565b5b60019003818190600052602060002001600061189e9190613f2c565b9055506118ba565b5080806118b290614fa9565b915050611708565b505050505080806118ca9061537c565b91505061143d565b506118dc85610fe5565b7f7a8f71ffa367c677061e81db64480595dffec51888e92c29fd97f628ad7be9bc8160405161190b9190615448565b60405180910390a15050505050565b600115156012600061192a612fff565b73ffffffffffffffffffffffffffffffffffffffff1673ffffffffffffffffffffffffffffffffffffffff16815260200190815260200160002060009054906101000a900460ff1615151461197e57600080fd5b8060189080519060200190611994929190613e1e565b5050565b6000600760009054906101000a900473ffffffffffffffffffffffffffffffffffffffff1673ffffffffffffffffffffffffffffffffffffffff168273ffffffffffffffffffffffffffffffffffffffff16149050919050565b6000806002600084815260200190815260200160002060009054906101000a900473ffffffffffffffffffffffffffffffffffffffff169050600073ffffffffffffffffffffffffffffffffffffffff168173ffffffffffffffffffffffffffffffffffffffff161415611a9b576040517f08c379a0000000000000000000000000000000000000000000000000000000008152600401611a92906154dc565b60405180910390fd5b80915050919050565b611aac612fff565b73ffffffffffffffffffffffffffffffffffffffff16611aca611edb565b73ffffffffffffffffffffffffffffffffffffffff1614611b20576040517f08c379a0000000000000000000000000000000000000000000000000000000008152600401611b1790614e07565b60405180910390fd5b6001601260008373ffffffffffffffffffffffffffffffffffffffff1673ffffffffffffffffffffffffffffffffffffffff16815260200190815260200160002060006101000a81548160ff02191690831515021790555050565b60008073ffffffffffffffffffffffffffffffffffffffff168273ffffffffffffffffffffffffffffffffffffffff161415611bec576040517f08c379a0000000000000000000000000000000000000000000000000000000008152600401611be39061556e565b60405180910390fd5b600360008373ffffffffffffffffffffffffffffffffffffffff1673ffffffffffffffffffffffffffffffffffffffff168152602001908152602001600020549050919050565b611c3b612fff565b73ffffffffffffffffffffffffffffffffffffffff16611c59611edb565b73ffffffffffffffffffffffffffffffffffffffff1614611caf576040517f08c379a0000000000000000000000000000000000000000000000000000000008152600401611ca690614e07565b60405180910390fd5b611cb9600061346c565b565b6000600760009054906101000a900473ffffffffffffffffffffffffffffffffffffffff16905090565b60006001151560126000611cf7612fff565b73ffffffffffffffffffffffffffffffffffffffff1673ffffffffffffffffffffffffffffffffffffffff16815260200190815260200160002060009054906101000a900460ff16151514611d4b57600080fd5b6000601560009054906101000a900473ffffffffffffffffffffffffffffffffffffffff1673ffffffffffffffffffffffffffffffffffffffff1663d972fa1c846040518263ffffffff1660e01b8152600401611da89190614607565b602060405180830381865afa158015611dc5573d6000803e3d6000fd5b505050506040513d601f19601f82011682018060405250810190611de9919061512b565b90506000600e60008581526020019081526020016000205490506000611e2183600b600085815260200190815260200160002061341a565b9050809350505050919050565b60006001600a84604051611e4291906155ca565b908152602001604051809103902060009054906101000a900460ff1660ff161415611e6c57600080fd5b6001600a84604051611e7e91906155ca565b908152602001604051809103902060006101000a81548160ff021916908360ff160217905550611eae6008613532565b6000611eba600861340c565b9050611ec68582613548565b611ed08184610888565b809150509392505050565b6000600660009054906101000a900473ffffffffffffffffffffffffffffffffffffffff16905090565b606060018054611f1490614bd3565b80601f0160208091040260200160405190810160405280929190818152602001828054611f4090614bd3565b8015611f8d5780601f10611f6257610100808354040283529160200191611f8d565b820191906000526020600020905b815481529060010190602001808311611f7057829003601f168201915b5050505050905090565b60006011600083815260200190815260200160002060009054906101000a900460ff169050919050565b60606001151560126000611fd3612fff565b73ffffffffffffffffffffffffffffffffffffffff1673ffffffffffffffffffffffffffffffffffffffff16815260200190815260200160002060009054906101000a900460ff1615151461202757600080fd5b600f6000838152602001908152602001600020805480602002602001604051908101604052809291908181526020016000905b8282101561210657838290600052602060002001805461207990614bd3565b80601f01602080910402602001604051908101604052809291908181526020018280546120a590614bd3565b80156120f25780601f106120c7576101008083540402835291602001916120f2565b820191906000526020600020905b8154815290600101906020018083116120d557829003601f168201915b50505050508152602001906001019061205a565b505050509050919050565b612119612fff565b73ffffffffffffffffffffffffffffffffffffffff168273ffffffffffffffffffffffffffffffffffffffff161415612187576040517f08c379a000000000000000000000000000000000000000000000000000000000815260040161217e9061562d565b60405180910390fd5b8060056000612194612fff565b73ffffffffffffffffffffffffffffffffffffffff1673ffffffffffffffffffffffffffffffffffffffff16815260200190815260200160002060008473ffffffffffffffffffffffffffffffffffffffff1673ffffffffffffffffffffffffffffffffffffffff16815260200190815260200160002060006101000a81548160ff0219169083151502179055508173ffffffffffffffffffffffffffffffffffffffff16612241612fff565b73ffffffffffffffffffffffffffffffffffffffff167f17307eab39ab6107e8899845ad3d59bd9653f200f220920489ca2b5937696c31836040516122869190614239565b60405180910390a35050565b601360009054906101000a900473ffffffffffffffffffffffffffffffffffffffff1681565b60011515601260006122c8612fff565b73ffffffffffffffffffffffffffffffffffffffff1673ffffffffffffffffffffffffffffffffffffffff16815260200190815260200160002060009054906101000a900460ff1615151461231c57600080fd5b80600b6000858152602001908152602001600020600084815260200190815260200160002081905550505050565b61235b612355612fff565b8261321d565b61236457600080fd5b6000600d600083815260200190815260200160002060006101000a81548160ff02191690831515021790555050565b6123a461239e612fff565b8361321d565b6123e3576040517f08c379a00000000000000000000000000000000000000000000000000000000081526004016123da906156bf565b60405180910390fd5b6123ef84848484613716565b50505050565b600080600090506000600190505b61240d600861340c565b81116124875761241c8161300e565b1561247457612429612fff565b73ffffffffffffffffffffffffffffffffffffffff16612448826119f2565b73ffffffffffffffffffffffffffffffffffffffff16141561247357818061246f90614fa9565b9250505b5b808061247f90614fa9565b915050612403565b508091505090565b600061249b600861340c565b905090565b6000816040516020016124b391906155ca565b60405160208183030381529060405280519060200120836040516020016124da91906155ca565b6040516020818303038152906040528051906020012014905092915050565b60606125048261300e565b612543576040517f08c379a000000000000000000000000000000000000000000000000000000000815260040161253a90615751565b60405180910390fd5b600060176000848152602001908152602001600020805461256390614bd3565b80601f016020809104026020016040519081016040528092919081815260200182805461258f90614bd3565b80156125dc5780601f106125b1576101008083540402835291602001916125dc565b820191906000526020600020905b8154815290600101906020018083116125bf57829003601f168201915b5050505050905060006125ed613772565b9050600081511415612603578192505050612667565b600082511115612638578082604051602001612620929190615771565b60405160208183030381529060405292505050612667565b8061264285613804565b604051602001612653929190615771565b604051602081830303815290604052925050505b919050565b600115156012600061267c612fff565b73ffffffffffffffffffffffffffffffffffffffff1673ffffffffffffffffffffffffffffffffffffffff16815260200190815260200160002060009054906101000a900460ff161515146126d057600080fd5b6126da6008613532565b60006126e6600861340c565b90506126f28382613965565b6000600d600083815260200190815260200160002060006101000a81548160ff0219169083151502179055506127288183610888565b505050565b612735612fff565b73ffffffffffffffffffffffffffffffffffffffff16612753611edb565b73ffffffffffffffffffffffffffffffffffffffff16146127a9576040517f08c379a00000000000000000000000000000000000000000000000000000000081526004016127a090614e07565b60405180910390fd5b6127b281613983565b50565b60011515601260006127c5612fff565b73ffffffffffffffffffffffffffffffffffffffff1673ffffffffffffffffffffffffffffffffffffffff16815260200190815260200160002060009054906101000a900460ff1615151461281957600080fd5b6000600f6000848152602001908152602001600020805480602002602001604051908101604052809291908181526020016000905b828210156128fa57838290600052602060002001805461286d90614bd3565b80601f016020809104026020016040519081016040528092919081815260200182805461289990614bd3565b80156128e65780601f106128bb576101008083540402835291602001916128e6565b820191906000526020600020905b8154815290600101906020018083116128c957829003601f168201915b50505050508152602001906001019061284e565b50505050905060005b600f6000858152602001908152602001600020805490508110156129f057828114156129dd578160018351612938919061527c565b8151811061294957612948614f4b565b5b602002602001015182828151811061296457612963614f4b565b5b602002602001018190525081600f60008681526020019081526020016000209080519060200190612996929190613ecc565b50600f60008581526020019081526020016000208054806129ba576129b9615340565b5b6001900381819060005260206000200160006129d69190613f2c565b90556129f0565b80806129e890614fa9565b915050612903565b50505050565b60006001151560126000612a08612fff565b73ffffffffffffffffffffffffffffffffffffffff1673ffffffffffffffffffffffffffffffffffffffff16815260200190815260200160002060009054906101000a900460ff16151514612a5c57600080fd5b6000601560009054906101000a900473ffffffffffffffffffffffffffffffffffffffff1673ffffffffffffffffffffffffffffffffffffffff166397597bfd846040518263ffffffff1660e01b8152600401612ab99190614607565b602060405180830381865afa158015612ad6573d6000803e3d6000fd5b505050506040513d601f19601f82011682018060405250810190612afa919061512b565b90506000601560009054906101000a900473ffffffffffffffffffffffffffffffffffffffff1673ffffffffffffffffffffffffffffffffffffffff1663d972fa1c856040518263ffffffff1660e01b8152600401612b599190614607565b602060405180830381865afa158015612b76573d6000803e3d6000fd5b505050506040513d601f19601f82011682018060405250810190612b9a919061512b565b90506000600e60008681526020019081526020016000205490506000612bd283600b600085815260200190815260200160002061341a565b905060006001600f600084815260200190815260200160002080549050612bf9919061527c565b85612c0491906152df565b90508095505050505050919050565b612c24612c1e612fff565b8261321d565b612c2d57600080fd5b6001600d600083815260200190815260200160002060006101000a81548160ff02191690831515021790555050565b6000600560008473ffffffffffffffffffffffffffffffffffffffff1673ffffffffffffffffffffffffffffffffffffffff16815260200190815260200160002060008373ffffffffffffffffffffffffffffffffffffffff1673ffffffffffffffffffffffffffffffffffffffff16815260200190815260200160002060009054906101000a900460ff16905092915050565b612d01612cfb612fff565b8261321d565b612d40576040517f08c379a0000000000000000000000000000000000000000000000000000000008152600401612d37906157e1565b60405180910390fd5b6011600082815260200190815260200160002060009054906101000a900460ff1615612da1576040517f08c379a0000000000000000000000000000000000000000000000000000000008152600401612d9890615873565b60405180910390fd5b60016011600083815260200190815260200160002060006101000a81548160ff021916908315150217905550601560009054906101000a900473ffffffffffffffffffffffffffffffffffffffff1673ffffffffffffffffffffffffffffffffffffffff1663b37217a4826040518263ffffffff1660e01b8152600401612e289190614607565b6020604051808303816000875af1158015612e47573d6000803e3d6000fd5b505050506040513d601f19601f82011682018060405250810190612e6b91906158c9565b507f702dd7be132b87b70a9e03694fa9b6f9a690d86a1a8f92a6a741dca24ed82e8581604051612e9b9190614607565b60405180910390a150565b612eae612fff565b73ffffffffffffffffffffffffffffffffffffffff16612ecc611edb565b73ffffffffffffffffffffffffffffffffffffffff1614612f22576040517f08c379a0000000000000000000000000000000000000000000000000000000008152600401612f1990614e07565b60405180910390fd5b600073ffffffffffffffffffffffffffffffffffffffff168173ffffffffffffffffffffffffffffffffffffffff161415612f92576040517f08c379a0000000000000000000000000000000000000000000000000000000008152600401612f8990615968565b60405180910390fd5b612f9b8161346c565b50565b6000600d600083815260200190815260200160002060009054906101000a900460ff169050919050565b60006014600036905010158015612fe45750612fe333611998565b5b15612ff857601436033560601c9050612ffc565b3390505b90565b6000613009612fc8565b905090565b60008073ffffffffffffffffffffffffffffffffffffffff166002600084815260200190815260200160002060009054906101000a900473ffffffffffffffffffffffffffffffffffffffff1673ffffffffffffffffffffffffffffffffffffffff1614159050919050565b60007f01ffc9a7000000000000000000000000000000000000000000000000000000007bffffffffffffffffffffffffffffffffffffffffffffffffffffffff1916827bffffffffffffffffffffffffffffffffffffffffffffffffffffffff1916149050919050565b816004600083815260200190815260200160002060006101000a81548173ffffffffffffffffffffffffffffffffffffffff021916908373ffffffffffffffffffffffffffffffffffffffff160217905550808273ffffffffffffffffffffffffffffffffffffffff16613157836119f2565b73ffffffffffffffffffffffffffffffffffffffff167f8c5be1e5ebec7d5bd14f71427d1e84f3dd0314c0f7b2291e5b200ac8c7c3b92560405160405180910390a45050565b6131ae6131a8612fff565b8261321d565b6131ed576040517f08c379a00000000000000000000000000000000000000000000000000000000081526004016131e4906156bf565b60405180910390fd5b6131f88383836139c7565b505050565b61321883838360405180602001604052806000815250612393565b505050565b60006132288261300e565b613267576040517f08c379a000000000000000000000000000000000000000000000000000000000815260040161325e906159fa565b60405180910390fd5b6000613272836119f2565b90508073ffffffffffffffffffffffffffffffffffffffff168473ffffffffffffffffffffffffffffffffffffffff1614806132e157508373ffffffffffffffffffffffffffffffffffffffff166132c984610ad4565b73ffffffffffffffffffffffffffffffffffffffff16145b806132f257506132f18185612c5c565b5b91505092915050565b6000613306826119f2565b905061331481600084613c23565b61331f6000836130e4565b6001600360008373ffffffffffffffffffffffffffffffffffffffff1673ffffffffffffffffffffffffffffffffffffffff168152602001908152602001600020600082825461336f919061527c565b925050819055506002600083815260200190815260200160002060006101000a81549073ffffffffffffffffffffffffffffffffffffffff021916905581600073ffffffffffffffffffffffffffffffffffffffff168273ffffffffffffffffffffffffffffffffffffffff167fddf252ad1be2c89b69c2b068fc378daa952ba7f163c4a11628f55a4df523b3ef60405160405180910390a45050565b600081600001549050919050565b600080600090505b6010548112156134615782600082815260200190815260200160002054841161344e5780915050613466565b808061345990614fa9565b915050613422565b809150505b92915050565b6000600660009054906101000a900473ffffffffffffffffffffffffffffffffffffffff16905081600660006101000a81548173ffffffffffffffffffffffffffffffffffffffff021916908373ffffffffffffffffffffffffffffffffffffffff1602179055508173ffffffffffffffffffffffffffffffffffffffff168173ffffffffffffffffffffffffffffffffffffffff167f8be0079c531659141344cd1fd0a4f28419497f9722a3daafe3b4186f6b6457e060405160405180910390a35050565b6001816000016000828254019250508190555050565b600073ffffffffffffffffffffffffffffffffffffffff168273ffffffffffffffffffffffffffffffffffffffff1614156135b8576040517f08c379a00000000000000000000000000000000000000000000000000000000081526004016135af90615a66565b60405180910390fd5b6135c18161300e565b15613601576040517f08c379a00000000000000000000000000000000000000000000000000000000081526004016135f890615ad2565b60405180910390fd5b61360d60008383613c23565b6001600360008473ffffffffffffffffffffffffffffffffffffffff1673ffffffffffffffffffffffffffffffffffffffff168152602001908152602001600020600082825461365d9190615af2565b92505081905550816002600083815260200190815260200160002060006101000a81548173ffffffffffffffffffffffffffffffffffffffff021916908373ffffffffffffffffffffffffffffffffffffffff160217905550808273ffffffffffffffffffffffffffffffffffffffff16600073ffffffffffffffffffffffffffffffffffffffff167fddf252ad1be2c89b69c2b068fc378daa952ba7f163c4a11628f55a4df523b3ef60405160405180910390a45050565b6137218484846139c7565b61372d84848484613c28565b61376c576040517f08c379a000000000000000000000000000000000000000000000000000000000815260040161376390615bba565b60405180910390fd5b50505050565b60606018805461378190614bd3565b80601f01602080910402602001604051908101604052809291908181526020018280546137ad90614bd3565b80156137fa5780601f106137cf576101008083540402835291602001916137fa565b820191906000526020600020905b8154815290600101906020018083116137dd57829003601f168201915b5050505050905090565b6060600082141561384c576040518060400160405280600181526020017f30000000000000000000000000000000000000000000000000000000000000008152509050613960565b600082905060005b6000821461387e57808061386790614fa9565b915050600a826138779190615bda565b9150613854565b60008167ffffffffffffffff81111561389a57613899614012565b5b6040519080825280601f01601f1916602001820160405280156138cc5781602001600182028036833780820191505090505b5090505b60008514613959576001826138e5919061527c565b9150600a856138f491906152df565b60306139009190615af2565b60f81b81838151811061391657613915614f4b565b5b60200101907effffffffffffffffffffffffffffffffffffffffffffffffffffffffffffff1916908160001a905350600a856139529190615bda565b94506138d0565b8093505050505b919050565b61397f828260405180602001604052806000815250613db0565b5050565b80600760006101000a81548173ffffffffffffffffffffffffffffffffffffffff021916908373ffffffffffffffffffffffffffffffffffffffff16021790555050565b8273ffffffffffffffffffffffffffffffffffffffff166139e7826119f2565b73ffffffffffffffffffffffffffffffffffffffff1614613a3d576040517f08c379a0000000000000000000000000000000000000000000000000000000008152600401613a3490615c7d565b60405180910390fd5b600073ffffffffffffffffffffffffffffffffffffffff168273ffffffffffffffffffffffffffffffffffffffff161415613aad576040517f08c379a0000000000000000000000000000000000000000000000000000000008152600401613aa490615d0f565b60405180910390fd5b613ab8838383613c23565b613ac36000826130e4565b6001600360008573ffffffffffffffffffffffffffffffffffffffff1673ffffffffffffffffffffffffffffffffffffffff1681526020019081526020016000206000828254613b13919061527c565b925050819055506001600360008473ffffffffffffffffffffffffffffffffffffffff1673ffffffffffffffffffffffffffffffffffffffff1681526020019081526020016000206000828254613b6a9190615af2565b92505081905550816002600083815260200190815260200160002060006101000a81548173ffffffffffffffffffffffffffffffffffffffff021916908373ffffffffffffffffffffffffffffffffffffffff160217905550808273ffffffffffffffffffffffffffffffffffffffff168473ffffffffffffffffffffffffffffffffffffffff167fddf252ad1be2c89b69c2b068fc378daa952ba7f163c4a11628f55a4df523b3ef60405160405180910390a4505050565b505050565b6000613c498473ffffffffffffffffffffffffffffffffffffffff16613e0b565b15613da3578373ffffffffffffffffffffffffffffffffffffffff1663150b7a02613c72612fff565b8786866040518563ffffffff1660e01b8152600401613c949493929190615d84565b6020604051808303816000875af1925050508015613cd057506040513d601f19601f82011682018060405250810190613ccd9190615de5565b60015b613d53573d8060008114613d00576040519150601f19603f3d011682016040523d82523d6000602084013e613d05565b606091505b50600081511415613d4b576040517f08c379a0000000000000000000000000000000000000000000000000000000008152600401613d4290615bba565b60405180910390fd5b805181602001fd5b63150b7a0260e01b7bffffffffffffffffffffffffffffffffffffffffffffffffffffffff1916817bffffffffffffffffffffffffffffffffffffffffffffffffffffffff191614915050613da8565b600190505b949350505050565b613dba8383613548565b613dc76000848484613c28565b613e06576040517f08c379a0000000000000000000000000000000000000000000000000000000008152600401613dfd90615bba565b60405180910390fd5b505050565b600080823b905060008111915050919050565b828054613e2a90614bd3565b90600052602060002090601f016020900481019282613e4c5760008555613e93565b82601f10613e6557805160ff1916838001178555613e93565b82800160010185558215613e93579182015b82811115613e92578251825591602001919060010190613e77565b5b509050613ea09190613f6c565b5090565b604051806101400160405280600a905b6060815260200190600190039081613eb45790505090565b828054828255906000526020600020908101928215613f1b579160200282015b82811115613f1a578251829080519060200190613f0a929190613e1e565b5091602001919060010190613eec565b5b509050613f289190613f89565b5090565b508054613f3890614bd3565b6000825580601f10613f4a5750613f69565b601f016020900490600052602060002090810190613f689190613f6c565b5b50565b5b80821115613f85576000816000905550600101613f6d565b5090565b5b80821115613fa95760008181613fa09190613f2c565b50600101613f8a565b5090565b6000604051905090565b600080fd5b600080fd5b6000819050919050565b613fd481613fc1565b8114613fdf57600080fd5b50565b600081359050613ff181613fcb565b92915050565b600080fd5b600080fd5b6000601f19601f8301169050919050565b7f4e487b7100000000000000000000000000000000000000000000000000000000600052604160045260246000fd5b61404a82614001565b810181811067ffffffffffffffff8211171561406957614068614012565b5b80604052505050565b600061407c613fad565b90506140888282614041565b919050565b600067ffffffffffffffff8211156140a8576140a7614012565b5b6140b182614001565b9050602081019050919050565b82818337600083830152505050565b60006140e06140db8461408d565b614072565b9050828152602081018484840111156140fc576140fb613ffc565b5b6141078482856140be565b509392505050565b600082601f83011261412457614123613ff7565b5b81356141348482602086016140cd565b91505092915050565b6000806040838503121561415457614153613fb7565b5b600061416285828601613fe2565b925050602083013567ffffffffffffffff81111561418357614182613fbc565b5b61418f8582860161410f565b9150509250929050565b60007fffffffff0000000000000000000000000000000000000000000000000000000082169050919050565b6141ce81614199565b81146141d957600080fd5b50565b6000813590506141eb816141c5565b92915050565b60006020828403121561420757614206613fb7565b5b6000614215848285016141dc565b91505092915050565b60008115159050919050565b6142338161421e565b82525050565b600060208201905061424e600083018461422a565b92915050565b600081519050919050565b600082825260208201905092915050565b60005b8381101561428e578082015181840152602081019050614273565b8381111561429d576000848401525b50505050565b60006142ae82614254565b6142b8818561425f565b93506142c8818560208601614270565b6142d181614001565b840191505092915050565b600060208201905081810360008301526142f681846142a3565b905092915050565b60006020828403121561431457614313613fb7565b5b600061432284828501613fe2565b91505092915050565b600073ffffffffffffffffffffffffffffffffffffffff82169050919050565b60006143568261432b565b9050919050565b6143668161434b565b82525050565b6000602082019050614381600083018461435d565b92915050565b6143908161434b565b811461439b57600080fd5b50565b6000813590506143ad81614387565b92915050565b600080604083850312156143ca576143c9613fb7565b5b60006143d88582860161439e565b92505060206143e985828601613fe2565b9150509250929050565b6000806040838503121561440a57614409613fb7565b5b600083013567ffffffffffffffff81111561442857614427613fbc565b5b6144348582860161410f565b925050602061444585828601613fe2565b9150509250929050565b60006020828403121561446557614464613fb7565b5b60006144738482850161439e565b91505092915050565b60008060006060848603121561449557614494613fb7565b5b60006144a38682870161439e565b93505060206144b48682870161439e565b92505060406144c586828701613fe2565b9150509250925092565b600081519050919050565b600082825260208201905092915050565b6000819050602082019050919050565b61450481613fc1565b82525050565b600061451683836144fb565b60208301905092915050565b6000602082019050919050565b600061453a826144cf565b61454481856144da565b935061454f836144eb565b8060005b83811015614580578151614567888261450a565b975061457283614522565b925050600181019050614553565b5085935050505092915050565b600060208201905081810360008301526145a7818461452f565b905092915050565b6000602082840312156145c5576145c4613fb7565b5b600082013567ffffffffffffffff8111156145e3576145e2613fbc565b5b6145ef8482850161410f565b91505092915050565b61460181613fc1565b82525050565b600060208201905061461c60008301846145f8565b92915050565b60008060006060848603121561463b5761463a613fb7565b5b60006146498682870161439e565b935050602084013567ffffffffffffffff81111561466a57614669613fbc565b5b6146768682870161410f565b925050604084013567ffffffffffffffff81111561469757614696613fbc565b5b6146a38682870161410f565b9150509250925092565b600081519050919050565b600082825260208201905092915050565b6000819050602082019050919050565b600082825260208201905092915050565b60006146f582614254565b6146ff81856146d9565b935061470f818560208601614270565b61471881614001565b840191505092915050565b600061472f83836146ea565b905092915050565b6000602082019050919050565b600061474f826146ad565b61475981856146b8565b93508360208202850161476b856146c9565b8060005b858110156147a757848403895281516147888582614723565b945061479383614737565b925060208a0199505060018101905061476f565b50829750879550505050505092915050565b600060208201905081810360008301526147d38184614744565b905092915050565b6147e48161421e565b81146147ef57600080fd5b50565b600081359050614801816147db565b92915050565b6000806040838503121561481e5761481d613fb7565b5b600061482c8582860161439e565b925050602061483d858286016147f2565b9150509250929050565b6000806000606084860312156148605761485f613fb7565b5b600061486e86828701613fe2565b935050602061487f86828701613fe2565b925050604061489086828701613fe2565b9150509250925092565b600067ffffffffffffffff8211156148b5576148b4614012565b5b6148be82614001565b9050602081019050919050565b60006148de6148d98461489a565b614072565b9050828152602081018484840111156148fa576148f9613ffc565b5b6149058482856140be565b509392505050565b600082601f83011261492257614921613ff7565b5b81356149328482602086016148cb565b91505092915050565b6000806000806080858703121561495557614954613fb7565b5b60006149638782880161439e565b94505060206149748782880161439e565b935050604061498587828801613fe2565b925050606085013567ffffffffffffffff8111156149a6576149a5613fbc565b5b6149b28782880161490d565b91505092959194509250565b600080604083850312156149d5576149d4613fb7565b5b600083013567ffffffffffffffff8111156149f3576149f2613fbc565b5b6149ff8582860161410f565b925050602083013567ffffffffffffffff811115614a2057614a1f613fbc565b5b614a2c8582860161410f565b9150509250929050565b60008060408385031215614a4d57614a4c613fb7565b5b6000614a5b8582860161439e565b925050602083013567ffffffffffffffff811115614a7c57614a7b613fbc565b5b614a888582860161410f565b9150509250929050565b60008060408385031215614aa957614aa8613fb7565b5b6000614ab785828601613fe2565b9250506020614ac885828601613fe2565b9150509250929050565b60008060408385031215614ae957614ae8613fb7565b5b6000614af78582860161439e565b9250506020614b088582860161439e565b9150509250929050565b7f4552433732314d657461646174613a2055524920736574206f66206e6f6e657860008201527f697374656e7420746f6b656e0000000000000000000000000000000000000000602082015250565b6000614b6e602c8361425f565b9150614b7982614b12565b604082019050919050565b60006020820190508181036000830152614b9d81614b61565b9050919050565b7f4e487b7100000000000000000000000000000000000000000000000000000000600052602260045260246000fd5b60006002820490506001821680614beb57607f821691505b60208210811415614bff57614bfe614ba4565b5b50919050565b7f4552433732313a20617070726f76656420717565727920666f72206e6f6e657860008201527f697374656e7420746f6b656e0000000000000000000000000000000000000000602082015250565b6000614c61602c8361425f565b9150614c6c82614c05565b604082019050919050565b60006020820190508181036000830152614c9081614c54565b9050919050565b7f4552433732313a20617070726f76616c20746f2063757272656e74206f776e6560008201527f7200000000000000000000000000000000000000000000000000000000000000602082015250565b6000614cf360218361425f565b9150614cfe82614c97565b604082019050919050565b60006020820190508181036000830152614d2281614ce6565b9050919050565b7f4552433732313a20617070726f76652063616c6c6572206973206e6f74206f7760008201527f6e6572206e6f7220617070726f76656420666f7220616c6c0000000000000000602082015250565b6000614d8560388361425f565b9150614d9082614d29565b604082019050919050565b60006020820190508181036000830152614db481614d78565b9050919050565b7f4f776e61626c653a2063616c6c6572206973206e6f7420746865206f776e6572600082015250565b6000614df160208361425f565b9150614dfc82614dbb565b602082019050919050565b60006020820190508181036000830152614e2081614de4565b9050919050565b7f566972696469616e204e46543a2043616e6e6f74207472616e7366657220776860008201527f696c65206c6973746564206f6e20566972696469616e2045786368616e676500602082015250565b6000614e83603f8361425f565b9150614e8e82614e27565b604082019050919050565b60006020820190508181036000830152614eb281614e76565b9050919050565b7f566972696469616e204e46543a2043616e206f6e6c79206f70656e207061636b60008201527f206f6e636520726573756c742069732064656369646564000000000000000000602082015250565b6000614f1560378361425f565b9150614f2082614eb9565b604082019050919050565b60006020820190508181036000830152614f4481614f08565b9050919050565b7f4e487b7100000000000000000000000000000000000000000000000000000000600052603260045260246000fd5b7f4e487b7100000000000000000000000000000000000000000000000000000000600052601160045260246000fd5b6000614fb482613fc1565b91507fffffffffffffffffffffffffffffffffffffffffffffffffffffffffffffffff821415614fe757614fe6614f7a565b5b600182019050919050565b7f566972696469616e205061636b3a206d75737420626520617070726f7665642060008201527f6f72206f776e657220746f206f70656e00000000000000000000000000000000602082015250565b600061504e60308361425f565b915061505982614ff2565b604082019050919050565b6000602082019050818103600083015261507d81615041565b9050919050565b7f566972696469616e205061636b3a207061636b20726573756c74206e6f74206460008201527f6563696465642079657400000000000000000000000000000000000000000000602082015250565b60006150e0602a8361425f565b91506150eb82615084565b604082019050919050565b6000602082019050818103600083015261510f816150d3565b9050919050565b60008151905061512581613fcb565b92915050565b60006020828403121561514157615140613fb7565b5b600061514f84828501615116565b91505092915050565b7f566972696469616e205061636b3a20565246206861736e27742067656e65726160008201527f7465642072616e646f6d2072617720726573756c742079657400000000000000602082015250565b60006151b460398361425f565b91506151bf82615158565b604082019050919050565b600060208201905081810360008301526151e3816151a7565b9050919050565b7f566972696469616e205061636b3a20565246206861736e27742067656e65726160008201527f7465642072616e646f6d20726573756c74207965740000000000000000000000602082015250565b600061524660358361425f565b9150615251826151ea565b604082019050919050565b6000602082019050818103600083015261527581615239565b9050919050565b600061528782613fc1565b915061529283613fc1565b9250828210156152a5576152a4614f7a565b5b828203905092915050565b7f4e487b7100000000000000000000000000000000000000000000000000000000600052601260045260246000fd5b60006152ea82613fc1565b91506152f583613fc1565b925082615305576153046152b0565b5b828206905092915050565b6000604082019050615325600083018561435d565b818103602083015261533781846142a3565b90509392505050565b7f4e487b7100000000000000000000000000000000000000000000000000000000600052603160045260246000fd5b600060ff82169050919050565b60006153878261536f565b915060ff82141561539b5761539a614f7a565b5b600182019050919050565b6000600a9050919050565b600081905092915050565b6000819050919050565b6000602082019050919050565b60006153de826153a6565b6153e881856153b1565b9350836020820285016153fa856153bc565b8060005b8581101561543657848403895281516154178582614723565b9450615422836153c6565b925060208a019950506001810190506153fe565b50829750879550505050505092915050565b6000602082019050818103600083015261546281846153d3565b905092915050565b7f4552433732313a206f776e657220717565727920666f72206e6f6e657869737460008201527f656e7420746f6b656e0000000000000000000000000000000000000000000000602082015250565b60006154c660298361425f565b91506154d18261546a565b604082019050919050565b600060208201905081810360008301526154f5816154b9565b9050919050565b7f4552433732313a2062616c616e636520717565727920666f7220746865207a6560008201527f726f206164647265737300000000000000000000000000000000000000000000602082015250565b6000615558602a8361425f565b9150615563826154fc565b604082019050919050565b600060208201905081810360008301526155878161554b565b9050919050565b600081905092915050565b60006155a482614254565b6155ae818561558e565b93506155be818560208601614270565b80840191505092915050565b60006155d68284615599565b915081905092915050565b7f4552433732313a20617070726f766520746f2063616c6c657200000000000000600082015250565b600061561760198361425f565b9150615622826155e1565b602082019050919050565b600060208201905081810360008301526156468161560a565b9050919050565b7f4552433732313a207472616e736665722063616c6c6572206973206e6f74206f60008201527f776e6572206e6f7220617070726f766564000000000000000000000000000000602082015250565b60006156a960318361425f565b91506156b48261564d565b604082019050919050565b600060208201905081810360008301526156d88161569c565b9050919050565b7f4552433732314d657461646174613a2055524920717565727920666f72206e6f60008201527f6e6578697374656e7420746f6b656e0000000000000000000000000000000000602082015250565b600061573b602f8361425f565b9150615746826156df565b604082019050919050565b6000602082019050818103600083015261576a8161572e565b9050919050565b600061577d8285615599565b91506157898284615599565b91508190509392505050565b7f4e6f7420617070726f766564206f72206f776e65720000000000000000000000600082015250565b60006157cb60158361425f565b91506157d682615795565b602082019050919050565b600060208201905081810360008301526157fa816157be565b9050919050565b7f566972696469616e205061636b3a2043616e6e6f74207265646f207061636b2060008201527f726573756c740000000000000000000000000000000000000000000000000000602082015250565b600061585d60268361425f565b915061586882615801565b604082019050919050565b6000602082019050818103600083015261588c81615850565b9050919050565b6000819050919050565b6158a681615893565b81146158b157600080fd5b50565b6000815190506158c38161589d565b92915050565b6000602082840312156158df576158de613fb7565b5b60006158ed848285016158b4565b91505092915050565b7f4f776e61626c653a206e6577206f776e657220697320746865207a65726f206160008201527f6464726573730000000000000000000000000000000000000000000000000000602082015250565b600061595260268361425f565b915061595d826158f6565b604082019050919050565b6000602082019050818103600083015261598181615945565b9050919050565b7f4552433732313a206f70657261746f7220717565727920666f72206e6f6e657860008201527f697374656e7420746f6b656e0000000000000000000000000000000000000000602082015250565b60006159e4602c8361425f565b91506159ef82615988565b604082019050919050565b60006020820190508181036000830152615a13816159d7565b9050919050565b7f4552433732313a206d696e7420746f20746865207a65726f2061646472657373600082015250565b6000615a5060208361425f565b9150615a5b82615a1a565b602082019050919050565b60006020820190508181036000830152615a7f81615a43565b9050919050565b7f4552433732313a20746f6b656e20616c7265616479206d696e74656400000000600082015250565b6000615abc601c8361425f565b9150615ac782615a86565b602082019050919050565b60006020820190508181036000830152615aeb81615aaf565b9050919050565b6000615afd82613fc1565b9150615b0883613fc1565b9250827fffffffffffffffffffffffffffffffffffffffffffffffffffffffffffffffff03821115615b3d57615b3c614f7a565b5b828201905092915050565b7f4552433732313a207472616e7366657220746f206e6f6e20455243373231526560008201527f63656976657220696d706c656d656e7465720000000000000000000000000000602082015250565b6000615ba460328361425f565b9150615baf82615b48565b604082019050919050565b60006020820190508181036000830152615bd381615b97565b9050919050565b6000615be582613fc1565b9150615bf083613fc1565b925082615c0057615bff6152b0565b5b828204905092915050565b7f4552433732313a207472616e73666572206f6620746f6b656e2074686174206960008201527f73206e6f74206f776e0000000000000000000000000000000000000000000000602082015250565b6000615c6760298361425f565b9150615c7282615c0b565b604082019050919050565b60006020820190508181036000830152615c9681615c5a565b9050919050565b7f4552433732313a207472616e7366657220746f20746865207a65726f2061646460008201527f7265737300000000000000000000000000000000000000000000000000000000602082015250565b6000615cf960248361425f565b9150615d0482615c9d565b604082019050919050565b60006020820190508181036000830152615d2881615cec565b9050919050565b600081519050919050565b600082825260208201905092915050565b6000615d5682615d2f565b615d608185615d3a565b9350615d70818560208601614270565b615d7981614001565b840191505092915050565b6000608082019050615d99600083018761435d565b615da6602083018661435d565b615db360408301856145f8565b8181036060830152615dc58184615d4b565b905095945050505050565b600081519050615ddf816141c5565b92915050565b600060208284031215615dfb57615dfa613fb7565b5b6000615e0984828501615dd0565b9150509291505056fea2646970667358221220a93313f0125ecc6cdf22d7e7706779ccb9eff114563017ff81dfec6a063b06ea64736f6c634300080b0033",
  "immutableReferences": {},
  "source": "pragma solidity ^0.8.0;\n\nimport \"@openzeppelin/contracts/token/ERC721/ERC721.sol\";\nimport \"@openzeppelin/contracts/utils/Counters.sol\";\nimport \"@openzeppelin/contracts/access/Ownable.sol\";\nimport \"@opengsn/contracts/src/BaseRelayRecipient.sol\";\n\nimport \"./RandomNumber.sol\";\nimport \"./ViridianNFT.sol\";\n\ncontract ViridianPack is ERC721, Ownable, BaseRelayRecipient {\n\n    using Counters for Counters.Counter;\n    Counters.Counter private _tokenIds;\n    Counters.Counter private _unmintedTokenIds;\n    mapping(string => uint8) hashes;\n    mapping(uint256 => mapping(uint256 => uint256)) private rarityOdds;\n    mapping(uint256 => uint256) private numNFTs;\n    //mapping(uint256 => string) private unmintedURIs;\n    mapping(uint256 => bool) private _tokensListed;\n    mapping(uint256 => uint256) tokenRarity;\n    mapping(uint256 => string[]) private uriRarityPools;\n    int private maxRarityIndex;\n\n    mapping(uint256 => bool) private packResultDecided;\n\n    mapping(address => bool) admins;\n\n    address public viridianNFTAddr;\n\n    ViridianNFT vNFT;\n    RandomNumberConsumer vrf;\n\n    using Strings for uint256;\n\n    constructor(address _viridianNFT/*, address _forwarder*/) ERC721(\"Viridian Pack\", \"VP\") {\n\n        require(address(_viridianNFT) != address(0));\n\n        viridianNFTAddr = _viridianNFT;\n\n        //_setTrustedForwarder(_forwarder);\n\n        vNFT = ViridianNFT(viridianNFTAddr);\n\n        //Set all beginning rarities\n\n        // Legendary rarity and cards in pack\n        rarityOdds[0][0] = 25;\n        rarityOdds[0][1] = 100;\n        rarityOdds[0][2] = 300;\n        rarityOdds[0][3] = 1000;\n        numNFTs[0] = 3;\n\n        // Mystical rarity and cards in pack\n        rarityOdds[1][0] = 1;\n        rarityOdds[1][1] = 50;\n        rarityOdds[1][2] = 200;\n        rarityOdds[1][3] = 1000;\n        numNFTs[0] = 3;\n\n        // Rare rarity and cards in pack\n        rarityOdds[2][0] = 0;\n        rarityOdds[2][1] = 50;\n        rarityOdds[2][2] = 100;\n        rarityOdds[2][3] = 1000;\n        numNFTs[0] = 3;\n\n        // Common rarity and cards in pack\n        rarityOdds[3][0] = 0;\n        rarityOdds[3][1] = 10;\n        rarityOdds[3][2] = 50;\n        rarityOdds[3][3] = 1000;\n        numNFTs[0] = 3;\n\n        maxRarityIndex = 3;\n\n        admins[_msgSender()] = true;\n    }\n\n    string public override versionRecipient = \"2.2.0\";\n\n    function setTrustedForwarder(address _forwarder) public onlyOwner() {\n        _setTrustedForwarder(_forwarder);\n    }\n\n    event Open(string[10] newUris);\n    event PackResultDecided(uint256 tokenId);\n    \n    // Optional mapping for token URIs\n    mapping (uint256 => string) private _tokenURIs;\n\n    //address private viridianExchangeAddress;\n\n    // Base URI\n    string private _baseURIextended;\n\n    modifier onlyAdmin() {\n        require(admins[_msgSender()] == true);\n            _;\n    }\n\n    function _msgSender() internal view override(Context, BaseRelayRecipient) returns (address sender) {\n        sender = BaseRelayRecipient._msgSender();\n    }\n\n    function _msgData() internal view override(Context, BaseRelayRecipient) returns (bytes memory) {\n        return BaseRelayRecipient._msgData();\n    }\n\n    function addAdmin(address _newAdmin) external onlyOwner() {\n        admins[_newAdmin] = true;\n    }\n\n    function removeAdmin(address _newAdmin) external onlyOwner() {\n        admins[_newAdmin] = false;\n    }\n    \n    function setBaseURI(string memory baseURI_) external onlyAdmin() {\n        _baseURIextended = baseURI_;\n    }\n    \n    function _setTokenURI(uint256 tokenId, string memory _tokenURI) public virtual onlyAdmin() {\n        require(_exists(tokenId), \"ERC721Metadata: URI set of nonexistent token\");\n        _tokenURIs[tokenId] = _tokenURI;\n    }\n    \n    function _baseURI() internal view virtual override returns (string memory) {\n        return _baseURIextended;\n    }\n    \n    function tokenURI(uint256 tokenId) public view virtual override returns (string memory) {\n        require(_exists(tokenId), \"ERC721Metadata: URI query for nonexistent token\");\n\n        string memory _tokenURI = _tokenURIs[tokenId];\n        string memory base = _baseURI();\n        \n        // If there is no base URI, return the token URI.\n        if (bytes(base).length == 0) {\n            return _tokenURI;\n        }\n        // If both are set, concatenate the baseURI and tokenURI (via abi.encodePacked).\n        if (bytes(_tokenURI).length > 0) {\n            return string(abi.encodePacked(base, _tokenURI));\n        }\n        // If there is a baseURI but no tokenURI, concatenate the tokenID to the baseURI.\n        return string(abi.encodePacked(base, tokenId.toString()));\n    }\n\n    function getUriRarityPools(uint256 _rarity) public view onlyAdmin() returns (string[] memory) {\n        return uriRarityPools[_rarity];\n    }\n\n    function getNumNFTs() public view returns (uint256 n) {\n        return _tokenIds.current();\n    }\n\n    function getNumOwnedNFTs() public view virtual returns (uint256) {\n        uint256 numOwnedNFTs = 0;\n\n        for (uint256 i = 1; i <= _tokenIds.current(); i++) {\n            if (_exists(i)) {\n                if (ownerOf(i) == _msgSender()) {\n                    numOwnedNFTs++;\n                }\n            }\n        }\n\n        return numOwnedNFTs;\n    }\n \n    function getOwnedNFTs() public view virtual returns (uint256[] memory) {\n\n        uint256[] memory _tokens = new uint256[](getNumOwnedNFTs());\n\n        uint256 curIndex = 0;\n\n        for (uint256 i = 1; i <= _tokenIds.current(); i++) {\n            if (_exists(i)) {\n                if (ownerOf(i) == _msgSender()) {\n                    _tokens[curIndex] = i;\n                    curIndex++;\n                }\n            }\n        }\n        \n        return _tokens;\n    }\n\n    function setRarityOdds(uint256 _rarity, uint256 _rarityOdd, uint256 _newOdds) external onlyAdmin() {\n        rarityOdds[_rarity][_rarityOdd] = _newOdds;\n    }\n\n    function isListed(uint256 tokenId) public view returns (bool) {\n        return _tokensListed[tokenId];\n    }\n\n    function mint(\n        address _to,\n        string memory tokenURI_\n    ) external onlyAdmin() {\n        _tokenIds.increment();\n        uint256 _tokenId = _tokenIds.current();\n\n        _safeMint(_to, _tokenId);\n        _tokensListed[_tokenId] = false;\n        _setTokenURI(_tokenId, tokenURI_);\n    }\n\n    //TODO: THIS IS NOT TO BE USED IN FINAL DEPLOYED IMPLEMENTATION, convert to LINK VRF for TESTNET and ESPECIALLY MAINNET!!!\n    uint nonce;\n\n    function calculateWeightedOdds(uint256 randomNum, mapping(uint256 => uint256) storage rarityOdd) private view returns (uint) {\n        uint256 n;\n\n        for (n = 0; int(n) < int(maxRarityIndex); n++) {\n            if (randomNum <= rarityOdd[n]) {\n                return n;\n            }\n        }\n\n        return n;\n    }\n\n    function softMintNFT(string memory uri, uint256 rarity) public onlyAdmin() {\n        uriRarityPools[rarity].push(uri);\n    }\n\n    function burnSoftMintedNFTAtRarityIndex(uint256 rarity, uint256 index) public onlyAdmin() {\n        string[] memory curRarityPool = uriRarityPools[rarity];\n            for (uint i = 0; i < uriRarityPools[rarity].length; i++) {\n                if (i == index) {\n                    curRarityPool[i] = curRarityPool[curRarityPool.length - 1];\n                    uriRarityPools[rarity] = curRarityPool;\n                    uriRarityPools[rarity].pop();\n                    break;\n                }\n            }\n    }\n\n    function compareStrings(string memory _s, string memory _s1) public pure returns (bool) {\n        return (keccak256(abi.encodePacked((_s))) == keccak256(abi.encodePacked((_s1))));\n    }\n\n    function configureVRF(address _vrfAddress) public {\n        vrf = RandomNumberConsumer(_vrfAddress);\n    }\n\n    function lockInPackResult(uint256 _tokenId) public {\n        require(_isApprovedOrOwner(_msgSender(), _tokenId), \"Not approved or owner\");\n        require(!packResultDecided[_tokenId], \"Viridian Pack: Cannot redo pack result\");\n        packResultDecided[_tokenId] = true;\n        vrf.getRandomNumber(_tokenId);\n\n        emit PackResultDecided(_tokenId);\n    }\n\n    function isPackResultDecided(uint256 _tokenId) public view returns (bool) {\n        return packResultDecided[_tokenId];\n    }\n\n    function getRandIndexPercentOdds(uint256 _tokenId) public view onlyAdmin() returns (uint256) {\n        uint256 randRes = vrf.getRandomResultForToken(_tokenId);\n        uint256 tr = tokenRarity[_tokenId];\n        uint256 randIndexWithPercentOdds = calculateWeightedOdds(randRes, rarityOdds[tr]);\n        return randIndexWithPercentOdds;\n    }\n\n    function getRandIndexRarity(uint256 _tokenId) public view onlyAdmin() returns (uint256) {\n        uint256 rawRandRes = vrf.getRandomRawResultForToken(_tokenId);\n\n        uint256 randRes = vrf.getRandomResultForToken(_tokenId);\n        uint256 tr = tokenRarity[_tokenId];\n        uint256 randIndexWithPercentOdds = calculateWeightedOdds(randRes, rarityOdds[tr]);\n\n        uint256 randIndexInRarity = rawRandRes % (uriRarityPools[randIndexWithPercentOdds].length - 1);\n\n        return randIndexInRarity;\n    }\n\n    function openPack(uint256 _tokenId) public {\n        // Randomly \n        require(_isApprovedOrOwner(_msgSender(), _tokenId), \"Viridian Pack: must be approved or owner to open\");\n        require(packResultDecided[_tokenId], \"Viridian Pack: pack result not decided yet\");\n\n        uint256 rawRandRes = vrf.getRandomRawResultForToken(_tokenId);\n        uint256 randRes = vrf.getRandomResultForToken(_tokenId);\n\n        require(rawRandRes > 0, \"Viridian Pack: VRF hasn't generated random raw result yet\");\n        require(randRes > 0, \"Viridian Pack: VRF hasn't generated random result yet\");\n\n        uint256 tr = tokenRarity[_tokenId];\n\n        string[10] memory newUris;\n\n        //Need to delete the item from the rarity pool before minting happens again\n        for (uint8 n = 0; n < numNFTs[tr]; n++) {\n            uint256 randIndexWithPercentOdds = calculateWeightedOdds(randRes, rarityOdds[tr]);\n            uint256 randIndexInRarity = rawRandRes % (uriRarityPools[randIndexWithPercentOdds].length - 1);\n\n            string memory newURI = uriRarityPools[randIndexWithPercentOdds][randIndexInRarity];\n\n            vNFT.mint(_msgSender(), newURI);\n\n            newUris[n] = newURI;\n\n            string[] memory curRarityPool = uriRarityPools[randIndexWithPercentOdds];\n            for (uint i = 0; i < uriRarityPools[randIndexWithPercentOdds].length; i++) {\n                string memory uri = uriRarityPools[randIndexWithPercentOdds][i];\n                if (compareStrings(uri, newURI)) {\n                    curRarityPool[i] = curRarityPool[curRarityPool.length - 1];\n                    uriRarityPools[randIndexWithPercentOdds] = curRarityPool;\n                    uriRarityPools[randIndexWithPercentOdds].pop();\n                    break;\n                }\n            }\n        }\n\n        burn(_tokenId);\n\n        emit Open(newUris);\n    }\n\n    function burn(uint256 tokenId) public {\n        require(_isApprovedOrOwner(_msgSender(), tokenId));\n\n        _burn(tokenId);\n    }\n\n    function awardItem(address recipient, string memory hash, string memory metadata) public returns (uint256) {\n        require(hashes[hash] != 1);\n        hashes[hash] = 1;\n        _tokenIds.increment();\n        uint256 newItemId = _tokenIds.current();\n        _mint(recipient, newItemId);\n        _setTokenURI(newItemId, metadata);\n        return newItemId;\n    }\n\n    function safeTransferFrom(address from, address to, uint256 tokenId) public override {\n        require(!_tokensListed[tokenId], \"Viridian NFT: Cannot transfer while listed on Viridian Exchange\");\n        require(!packResultDecided[tokenId], \"Viridian NFT: Can only open pack once result is decided\");\n\n        super.safeTransferFrom(from, to, tokenId);\n    }\n\n    function transferFrom(address from, address to, uint256 tokenId) public override {\n        require(!_tokensListed[tokenId], \"Viridian NFT: Cannot transfer while listed on Viridian Exchange\");\n        require(!packResultDecided[tokenId], \"Viridian NFT: Can only open pack once result is decided\");\n\n        super.transferFrom(from, to, tokenId);\n    }\n\n    function listToken(uint256 _tokenId) public {\n        require(_isApprovedOrOwner(_msgSender(), _tokenId));\n        _tokensListed[_tokenId] = true;\n    }\n\n    function unlistToken(uint256 _tokenId) public {\n        require(_isApprovedOrOwner(_msgSender(), _tokenId));\n        _tokensListed[_tokenId] = false;\n    }\n}",
  "sourcePath": "/Users/blakehatch/Viridian-Exchange-Contracts/contracts/ViridianPack.sol",
  "compiler": {
    "name": "solc",
    "version": "0.8.11+commit.d7f03943.Emscripten.clang"
  },
  "schemaVersion": "3.4.1",
  "updatedAt": "2022-01-01T21:48:31.877Z",
  "networkType": "ethereum",
  "devdoc": {
    "kind": "dev",
    "methods": {
      "approve(address,uint256)": {
        "details": "See {IERC721-approve}."
      },
      "balanceOf(address)": {
        "details": "See {IERC721-balanceOf}."
      },
      "getApproved(uint256)": {
        "details": "See {IERC721-getApproved}."
      },
      "isApprovedForAll(address,address)": {
        "details": "See {IERC721-isApprovedForAll}."
      },
      "name()": {
        "details": "See {IERC721Metadata-name}."
      },
      "owner()": {
        "details": "Returns the address of the current owner."
      },
      "ownerOf(uint256)": {
        "details": "See {IERC721-ownerOf}."
      },
      "renounceOwnership()": {
        "details": "Leaves the contract without owner. It will not be possible to call `onlyOwner` functions anymore. Can only be called by the current owner. NOTE: Renouncing ownership will leave the contract without an owner, thereby removing any functionality that is only available to the owner."
      },
      "safeTransferFrom(address,address,uint256)": {
        "details": "See {IERC721-safeTransferFrom}."
      },
      "safeTransferFrom(address,address,uint256,bytes)": {
        "details": "See {IERC721-safeTransferFrom}."
      },
      "setApprovalForAll(address,bool)": {
        "details": "See {IERC721-setApprovalForAll}."
      },
      "supportsInterface(bytes4)": {
        "details": "See {IERC165-supportsInterface}."
      },
      "symbol()": {
        "details": "See {IERC721Metadata-symbol}."
      },
      "tokenURI(uint256)": {
        "details": "See {IERC721Metadata-tokenURI}."
      },
      "transferFrom(address,address,uint256)": {
        "details": "See {IERC721-transferFrom}."
      },
      "transferOwnership(address)": {
        "details": "Transfers ownership of the contract to a new account (`newOwner`). Can only be called by the current owner."
      }
    },
    "version": 1
  },
  "userdoc": {
    "kind": "user",
    "methods": {
      "isTrustedForwarder(address)": {
        "notice": "return if the forwarder is trusted to forward relayed transactions to us. the forwarder is required to verify the sender's signature, and verify the call is not a replay."
      }
    },
    "version": 1
  }
}