{
  "contractName": "ViridianToken",
  "abi": [
    {
      "inputs": [],
      "stateMutability": "nonpayable",
      "type": "constructor"
    },
    {
      "anonymous": false,
      "inputs": [
        {
          "indexed": true,
          "internalType": "address",
          "name": "_owner",
          "type": "address"
        },
        {
          "indexed": true,
          "internalType": "address",
          "name": "_spender",
          "type": "address"
        },
        {
          "indexed": false,
          "internalType": "uint256",
          "name": "_value",
          "type": "uint256"
        }
      ],
      "name": "Approval",
      "type": "event"
    },
    {
      "anonymous": false,
      "inputs": [
        {
          "indexed": true,
          "internalType": "address",
          "name": "_from",
          "type": "address"
        },
        {
          "indexed": true,
          "internalType": "address",
          "name": "_to",
          "type": "address"
        },
        {
          "indexed": false,
          "internalType": "uint256",
          "name": "_value",
          "type": "uint256"
        }
      ],
      "name": "Transfer",
      "type": "event"
    },
    {
      "stateMutability": "nonpayable",
      "type": "fallback"
    },
    {
      "inputs": [
        {
          "internalType": "address",
          "name": "_owner",
          "type": "address"
        },
        {
          "internalType": "address",
          "name": "_spender",
          "type": "address"
        }
      ],
      "name": "allowance",
      "outputs": [
        {
          "internalType": "uint256",
          "name": "remaining",
          "type": "uint256"
        }
      ],
      "stateMutability": "view",
      "type": "function",
      "constant": true
    },
    {
      "inputs": [
        {
          "internalType": "address",
          "name": "_spender",
          "type": "address"
        },
        {
          "internalType": "uint256",
          "name": "_value",
          "type": "uint256"
        }
      ],
      "name": "approve",
      "outputs": [
        {
          "internalType": "bool",
          "name": "success",
          "type": "bool"
        }
      ],
      "stateMutability": "nonpayable",
      "type": "function"
    },
    {
      "inputs": [
        {
          "internalType": "address",
          "name": "_owner",
          "type": "address"
        }
      ],
      "name": "balanceOf",
      "outputs": [
        {
          "internalType": "uint256",
          "name": "balance",
          "type": "uint256"
        }
      ],
      "stateMutability": "view",
      "type": "function",
      "constant": true
    },
    {
      "inputs": [],
      "name": "decimals",
      "outputs": [
        {
          "internalType": "uint8",
          "name": "",
          "type": "uint8"
        }
      ],
      "stateMutability": "view",
      "type": "function",
      "constant": true
    },
    {
      "inputs": [],
      "name": "name",
      "outputs": [
        {
          "internalType": "string",
          "name": "",
          "type": "string"
        }
      ],
      "stateMutability": "view",
      "type": "function",
      "constant": true
    },
    {
      "inputs": [],
      "name": "symbol",
      "outputs": [
        {
          "internalType": "string",
          "name": "",
          "type": "string"
        }
      ],
      "stateMutability": "view",
      "type": "function",
      "constant": true
    },
    {
      "inputs": [],
      "name": "totalSupply",
      "outputs": [
        {
          "internalType": "uint256",
          "name": "",
          "type": "uint256"
        }
      ],
      "stateMutability": "view",
      "type": "function",
      "constant": true
    },
    {
      "inputs": [
        {
          "internalType": "address",
          "name": "_to",
          "type": "address"
        },
        {
          "internalType": "uint256",
          "name": "_value",
          "type": "uint256"
        }
      ],
      "name": "transfer",
      "outputs": [
        {
          "internalType": "bool",
          "name": "success",
          "type": "bool"
        }
      ],
      "stateMutability": "nonpayable",
      "type": "function"
    },
    {
      "inputs": [
        {
          "internalType": "address",
          "name": "_from",
          "type": "address"
        },
        {
          "internalType": "address",
          "name": "_to",
          "type": "address"
        },
        {
          "internalType": "uint256",
          "name": "_value",
          "type": "uint256"
        }
      ],
      "name": "transferFrom",
      "outputs": [
        {
          "internalType": "bool",
          "name": "success",
          "type": "bool"
        }
      ],
      "stateMutability": "nonpayable",
      "type": "function"
    },
    {
      "inputs": [],
      "name": "version",
      "outputs": [
        {
          "internalType": "string",
          "name": "",
          "type": "string"
        }
      ],
      "stateMutability": "view",
      "type": "function",
      "constant": true
    },
    {
      "inputs": [
        {
          "internalType": "address",
          "name": "_spender",
          "type": "address"
        },
        {
          "internalType": "uint256",
          "name": "_value",
          "type": "uint256"
        },
        {
          "internalType": "bytes",
          "name": "_extraData",
          "type": "bytes"
        }
      ],
      "name": "approveAndCall",
      "outputs": [
        {
          "internalType": "bool",
          "name": "success",
          "type": "bool"
        }
      ],
      "stateMutability": "payable",
      "type": "function",
      "payable": true
    }
  ],
  "bytecode": "0x6080604052620151806000556040518060400160405280600481526020017f48312e30000000000000000000000000000000000000000000000000000000008152506008908051906020019062000058929190620001bc565b503480156200006657600080fd5b5062e4e1c0600160003373ffffffffffffffffffffffffffffffffffffffff1673ffffffffffffffffffffffffffffffffffffffff168152602001908152602001600020819055506305f5e1006004819055506040518060400160405280600e81526020017f566972696469616e20546f6b656e0000000000000000000000000000000000008152506005908051906020019062000106929190620001bc565b506000600660006101000a81548160ff021916908360ff1602179055506040518060400160405280600481526020017f56455854000000000000000000000000000000000000000000000000000000008152506007908051906020019062000170929190620001bc565b506000600260003373ffffffffffffffffffffffffffffffffffffffff1673ffffffffffffffffffffffffffffffffffffffff16815260200190815260200160002081905550620002d1565b828054620001ca906200026c565b90600052602060002090601f016020900481019282620001ee57600085556200023a565b82601f106200020957805160ff19168380011785556200023a565b828001600101855582156200023a579182015b82811115620002395782518255916020019190600101906200021c565b5b5090506200024991906200024d565b5090565b5b80821115620002685760008160009055506001016200024e565b5090565b600060028204905060018216806200028557607f821691505b602082108114156200029c576200029b620002a2565b5b50919050565b7f4e487b7100000000000000000000000000000000000000000000000000000000600052602260045260246000fd5b6113b780620002e16000396000f3fe6080604052600436106100a05760003560e01c806354fd4d501161006457806354fd4d50146101ae57806370a08231146101d957806395d89b4114610216578063a9059cbb14610241578063cae9ca511461027e578063dd62ed3e146102ae576100a1565b806306fdde03146100b3578063095ea7b3146100de57806318160ddd1461011b57806323b872dd14610146578063313ce56714610183576100a1565b5b3480156100ad57600080fd5b50600080fd5b3480156100bf57600080fd5b506100c86102eb565b6040516100d59190611008565b60405180910390f35b3480156100ea57600080fd5b5061010560048036038101906101009190610ded565b610379565b6040516101129190610fed565b60405180910390f35b34801561012757600080fd5b5061013061046b565b60405161013d919061102a565b60405180910390f35b34801561015257600080fd5b5061016d60048036038101906101689190610d9a565b610471565b60405161017a9190610fed565b60405180910390f35b34801561018f57600080fd5b50610198610724565b6040516101a59190611045565b60405180910390f35b3480156101ba57600080fd5b506101c3610737565b6040516101d09190611008565b60405180910390f35b3480156101e557600080fd5b5061020060048036038101906101fb9190610d2d565b6107c5565b60405161020d919061102a565b60405180910390f35b34801561022257600080fd5b5061022b61080e565b6040516102389190611008565b60405180910390f35b34801561024d57600080fd5b5061026860048036038101906102639190610ded565b61089c565b6040516102759190610fed565b60405180910390f35b61029860048036038101906102939190610e2d565b610a05565b6040516102a59190610fed565b60405180910390f35b3480156102ba57600080fd5b506102d560048036038101906102d09190610d5a565b610c0c565b6040516102e2919061102a565b60405180910390f35b600580546102f89061123e565b80601f01602080910402602001604051908101604052809291908181526020018280546103249061123e565b80156103715780601f1061034657610100808354040283529160200191610371565b820191906000526020600020905b81548152906001019060200180831161035457829003601f168201915b505050505081565b600081600360003373ffffffffffffffffffffffffffffffffffffffff1673ffffffffffffffffffffffffffffffffffffffff16815260200190815260200160002060008573ffffffffffffffffffffffffffffffffffffffff1673ffffffffffffffffffffffffffffffffffffffff168152602001908152602001600020819055508273ffffffffffffffffffffffffffffffffffffffff163373ffffffffffffffffffffffffffffffffffffffff167f8c5be1e5ebec7d5bd14f71427d1e84f3dd0314c0f7b2291e5b200ac8c7c3b92584604051610459919061102a565b60405180910390a36001905092915050565b60045481565b600080600360008673ffffffffffffffffffffffffffffffffffffffff1673ffffffffffffffffffffffffffffffffffffffff16815260200190815260200160002060003373ffffffffffffffffffffffffffffffffffffffff1673ffffffffffffffffffffffffffffffffffffffff16815260200190815260200160002054905082600160008773ffffffffffffffffffffffffffffffffffffffff1673ffffffffffffffffffffffffffffffffffffffff16815260200190815260200160002054101580156105425750828110155b61054b57600080fd5b82600160008673ffffffffffffffffffffffffffffffffffffffff1673ffffffffffffffffffffffffffffffffffffffff168152602001908152602001600020600082825461059a91906110f9565b9250508190555082600160008773ffffffffffffffffffffffffffffffffffffffff1673ffffffffffffffffffffffffffffffffffffffff16815260200190815260200160002060008282546105f0919061114f565b925050819055507fffffffffffffffffffffffffffffffffffffffffffffffffffffffffffffffff8110156106b35782600360008773ffffffffffffffffffffffffffffffffffffffff1673ffffffffffffffffffffffffffffffffffffffff16815260200190815260200160002060003373ffffffffffffffffffffffffffffffffffffffff1673ffffffffffffffffffffffffffffffffffffffff16815260200190815260200160002060008282546106ab919061114f565b925050819055505b8373ffffffffffffffffffffffffffffffffffffffff168573ffffffffffffffffffffffffffffffffffffffff167fddf252ad1be2c89b69c2b068fc378daa952ba7f163c4a11628f55a4df523b3ef85604051610710919061102a565b60405180910390a360019150509392505050565b600660009054906101000a900460ff1681565b600880546107449061123e565b80601f01602080910402602001604051908101604052809291908181526020018280546107709061123e565b80156107bd5780601f10610792576101008083540402835291602001916107bd565b820191906000526020600020905b8154815290600101906020018083116107a057829003601f168201915b505050505081565b6000600160008373ffffffffffffffffffffffffffffffffffffffff1673ffffffffffffffffffffffffffffffffffffffff168152602001908152602001600020549050919050565b6007805461081b9061123e565b80601f01602080910402602001604051908101604052809291908181526020018280546108479061123e565b80156108945780601f1061086957610100808354040283529160200191610894565b820191906000526020600020905b81548152906001019060200180831161087757829003601f168201915b505050505081565b600081600160003373ffffffffffffffffffffffffffffffffffffffff1673ffffffffffffffffffffffffffffffffffffffff1681526020019081526020016000205410156108ea57600080fd5b81600160003373ffffffffffffffffffffffffffffffffffffffff1673ffffffffffffffffffffffffffffffffffffffff1681526020019081526020016000206000828254610939919061114f565b9250508190555081600160008573ffffffffffffffffffffffffffffffffffffffff1673ffffffffffffffffffffffffffffffffffffffff168152602001908152602001600020600082825461098f91906110f9565b925050819055508273ffffffffffffffffffffffffffffffffffffffff163373ffffffffffffffffffffffffffffffffffffffff167fddf252ad1be2c89b69c2b068fc378daa952ba7f163c4a11628f55a4df523b3ef846040516109f3919061102a565b60405180910390a36001905092915050565b600082600360003373ffffffffffffffffffffffffffffffffffffffff1673ffffffffffffffffffffffffffffffffffffffff16815260200190815260200160002060008673ffffffffffffffffffffffffffffffffffffffff1673ffffffffffffffffffffffffffffffffffffffff168152602001908152602001600020819055508373ffffffffffffffffffffffffffffffffffffffff163373ffffffffffffffffffffffffffffffffffffffff167f8c5be1e5ebec7d5bd14f71427d1e84f3dd0314c0f7b2291e5b200ac8c7c3b92585604051610ae5919061102a565b60405180910390a36000808573ffffffffffffffffffffffffffffffffffffffff16346113889033883089604051602401610b239493929190610fa1565b6040516020818303038152906040527f8f4ffcb1000000000000000000000000000000000000000000000000000000007bffffffffffffffffffffffffffffffffffffffffffffffffffffffff19166020820180517bffffffffffffffffffffffffffffffffffffffffffffffffffffffff8381831617835250505050604051610bad9190610f8a565b600060405180830381858888f193505050503d8060008114610beb576040519150601f19603f3d011682016040523d82523d6000602084013e610bf0565b606091505b509150915081610bff57600080fd5b6001925050509392505050565b6000600360008473ffffffffffffffffffffffffffffffffffffffff1673ffffffffffffffffffffffffffffffffffffffff16815260200190815260200160002060008373ffffffffffffffffffffffffffffffffffffffff1673ffffffffffffffffffffffffffffffffffffffff16815260200190815260200160002054905092915050565b6000610ca6610ca184611085565b611060565b905082815260208101848484011115610cc257610cc1611333565b5b610ccd8482856111fc565b509392505050565b600081359050610ce481611353565b92915050565b600082601f830112610cff57610cfe61132e565b5b8135610d0f848260208601610c93565b91505092915050565b600081359050610d278161136a565b92915050565b600060208284031215610d4357610d4261133d565b5b6000610d5184828501610cd5565b91505092915050565b60008060408385031215610d7157610d7061133d565b5b6000610d7f85828601610cd5565b9250506020610d9085828601610cd5565b9150509250929050565b600080600060608486031215610db357610db261133d565b5b6000610dc186828701610cd5565b9350506020610dd286828701610cd5565b9250506040610de386828701610d18565b9150509250925092565b60008060408385031215610e0457610e0361133d565b5b6000610e1285828601610cd5565b9250506020610e2385828601610d18565b9150509250929050565b600080600060608486031215610e4657610e4561133d565b5b6000610e5486828701610cd5565b9350506020610e6586828701610d18565b925050604084013567ffffffffffffffff811115610e8657610e85611338565b5b610e9286828701610cea565b9150509250925092565b610ea581611183565b82525050565b610eb481611195565b82525050565b6000610ec5826110b6565b610ecf81856110cc565b9350610edf81856020860161120b565b610ee881611342565b840191505092915050565b6000610efe826110b6565b610f0881856110dd565b9350610f1881856020860161120b565b80840191505092915050565b610f2d816111d8565b82525050565b6000610f3e826110c1565b610f4881856110e8565b9350610f5881856020860161120b565b610f6181611342565b840191505092915050565b610f75816111c1565b82525050565b610f84816111cb565b82525050565b6000610f968284610ef3565b915081905092915050565b6000608082019050610fb66000830187610e9c565b610fc36020830186610f6c565b610fd06040830185610f24565b8181036060830152610fe28184610eba565b905095945050505050565b60006020820190506110026000830184610eab565b92915050565b600060208201905081810360008301526110228184610f33565b905092915050565b600060208201905061103f6000830184610f6c565b92915050565b600060208201905061105a6000830184610f7b565b92915050565b600061106a61107b565b90506110768282611270565b919050565b6000604051905090565b600067ffffffffffffffff8211156110a05761109f6112ff565b5b6110a982611342565b9050602081019050919050565b600081519050919050565b600081519050919050565b600082825260208201905092915050565b600081905092915050565b600082825260208201905092915050565b6000611104826111c1565b915061110f836111c1565b9250827fffffffffffffffffffffffffffffffffffffffffffffffffffffffffffffffff03821115611144576111436112a1565b5b828201905092915050565b600061115a826111c1565b9150611165836111c1565b925082821015611178576111776112a1565b5b828203905092915050565b600061118e826111a1565b9050919050565b60008115159050919050565b600073ffffffffffffffffffffffffffffffffffffffff82169050919050565b6000819050919050565b600060ff82169050919050565b60006111e3826111ea565b9050919050565b60006111f5826111a1565b9050919050565b82818337600083830152505050565b60005b8381101561122957808201518184015260208101905061120e565b83811115611238576000848401525b50505050565b6000600282049050600182168061125657607f821691505b6020821081141561126a576112696112d0565b5b50919050565b61127982611342565b810181811067ffffffffffffffff82111715611298576112976112ff565b5b80604052505050565b7f4e487b7100000000000000000000000000000000000000000000000000000000600052601160045260246000fd5b7f4e487b7100000000000000000000000000000000000000000000000000000000600052602260045260246000fd5b7f4e487b7100000000000000000000000000000000000000000000000000000000600052604160045260246000fd5b600080fd5b600080fd5b600080fd5b600080fd5b6000601f19601f8301169050919050565b61135c81611183565b811461136757600080fd5b50565b611373816111c1565b811461137e57600080fd5b5056fea2646970667358221220938932983c6a1a5f0a55dc918cb5a0fe880b53f924c32898b7f32858329353ec64736f6c63430008060033",
  "immutableReferences": {},
  "source": "pragma solidity ^0.8.0;\n\nimport \"@openzeppelin/contracts/token/ERC20/IERC20.sol\";\nimport \"@openzeppelin/contracts/access/Ownable.sol\";\n\ncontract Token {\n    /// @return supply : total amount of tokens\n    function totalSupply() virtual external view returns (uint256 supply) {}\n\n    /// @param _owner The address from which the balance will be retrieved\n    /// @return balance : The balance\n    function balanceOf(address _owner) virtual public view returns (uint256 balance) {}\n\n    /// @notice send `_value` token to `_to` from `msg.sender`\n    /// @param _to The address of the recipient\n    /// @param _value The amount of token to be transferred\n    /// @return success : Whether the transfer was successful or not\n    function transfer(address _to, uint256 _value) virtual public returns (bool success) {}\n\n    /// @notice send `_value` token to `_to` from `_from` on the condition it is approved by `_from`\n    /// @param _from The address of the sender\n    /// @param _to The address of the recipient\n    /// @param _value The amount of token to be transferred\n    /// @return success : Whether the transfer was successful or not\n    function transferFrom(address _from, address _to, uint256 _value) virtual public returns (bool success) {}\n\n    /// @notice `msg.sender` approves `_addr` to spend `_value` tokens\n    /// @param _spender The address of the account able to transfer the tokens\n    /// @param _value The amount of wei to be approved for transfer\n    /// @return success : Whether the approval was successful or not\n    function approve(address _spender, uint256 _value) virtual public returns (bool success) {}\n\n    /// @param _owner The address of the account owning tokens\n    /// @param _spender The address of the account able to transfer the tokens\n    /// @return remaining : Amount of remaining tokens allowed to spent\n    function allowance(address _owner, address _spender) virtual public view returns (uint256 remaining) {}\n\n    event Transfer(address indexed _from, address indexed _to, uint256 _value);\n    event Approval(address indexed _owner, address indexed _spender, uint256 _value);\n    \n}\n\n\ncontract StandardToken is Token {\n    uint256 whaleCooldown = 1 days;\n\n    function transfer(address _to, uint256 _value) public override returns (bool success) {\n        //Default assumes totalSupply can't be over max (2^256 - 1).\n        //If your token leaves out totalSupply and can issue more tokens as time goes on, you need to check if it doesn't wrap.\n        //Replace the if with this one instead.\n        //if (balances[msg.sender] >= _value && balances[_to] + _value > balances[_to]) {\n        require(balances[msg.sender] >= _value);\n        // if (balances[msg.sender] >= 1000000) {\n        //     require(_value <= balances[msg.sender] / 4);\n        //     require(cooldowns[msg.sender] <= block.timestamp);\n        //     cooldowns[msg.sender] = block.timestamp + whaleCooldown;\n        // }\n        balances[msg.sender] -= _value;\n        balances[_to] += _value;\n        emit Transfer(msg.sender, _to, _value); //solhint-disable-line indent, no-unused-vars\n        return true;\n    }\n\n    function transferFrom(address _from, address _to, uint256 _value) public override returns (bool success) {\n        //same as above. Replace this line with the following if you want to protect against wrapping uints.\n        //if (balances[_from] >= _value && allowed[_from][msg.sender] >= _value && balances[_to] + _value > balances[_to]) {\n        uint256 allowance_ = allowed[_from][msg.sender];\n        require(balances[_from] >= _value && allowance_ >= _value);\n        // if (balances[_from] >= 1000000) {\n        //     require(_value <= balances[_from] / 4);\n        //     require(cooldowns[msg.sender] <= block.timestamp);\n        //     cooldowns[msg.sender] = block.timestamp + whaleCooldown;\n        // }\n        balances[_to] += _value;\n        balances[_from] -= _value;\n        if (allowance_ < 2**256 - 1) {\n            allowed[_from][msg.sender] -= _value;\n        }\n        emit Transfer(_from, _to, _value); //solhint-disable-line indent, no-unused-vars\n        return true;\n    }\n\n    function balanceOf(address _owner) view public override returns (uint256 balance) {\n        return balances[_owner];\n    }\n\n    function approve(address _spender, uint256 _value) public override returns (bool success) {\n        allowed[msg.sender][_spender] = _value;\n        emit Approval(msg.sender, _spender, _value);\n        return true;\n    }\n\n    function allowance(address _owner, address _spender) view public override returns (uint256 remaining) {\n      return allowed[_owner][_spender];\n    }\n\n    mapping (address => uint256) balances;\n    mapping (address => uint256) cooldowns;\n    mapping (address => mapping (address => uint256)) allowed;\n    uint256 public override totalSupply;\n}\n\n\n//name this contract whatever you'd like\ncontract ViridianToken is StandardToken {\n\n    fallback () external {\n        //if ether is sent to this address, send it back.\n        revert();\n    }\n\n    /* Public variables of the token */\n\n    /*\n    NOTE:\n    The following variables are OPTIONAL vanities. One does not have to include them.\n    They allow one to customise the token contract & in no way influences the core functionality.\n    Some wallets/interfaces might not even bother to look at this information.\n    */\n    string public name;                   //fancy name: eg Simon Bucks\n    uint8 public decimals;                //How many decimals to show. ie. There could 1000 base units with 3 decimals. Meaning 0.980 SBX = 980 base units. It's like comparing 1 wei to 1 ether.\n    string public symbol;                 //An identifier: eg SBX\n    string public version = 'H1.0';       //human 0.1 standard. Just an arbitrary versioning scheme.\n\n    //\n    // CHANGE THESE VALUES FOR YOUR TOKEN\n    //\n\n    //make sure this function name matches the contract name above. So if you're token is called TutorialToken, make sure the //contract name above is also TutorialToken instead of ERC20Token\n\n    constructor() {\n        balances[msg.sender] = 15000000;               // Give the creator all initial tokens (100000 for example)\n        totalSupply = 100000000;                        // Update total supply (100000 for example)\n        name = \"Viridian Token\";                                   // Set the name for display purposes\n        decimals = 0;                            // Amount of decimals for display purposes\n        symbol = \"VEXT\";                               // Set the symbol for display purposes\n        cooldowns[msg.sender] = 0;               // Set the cooldowns to 0 to start\n    }\n\n    /* Approves and then calls the receiving contract */\n    function approveAndCall(address _spender, uint256 _value, bytes memory _extraData) public payable returns (bool success) {\n        allowed[msg.sender][_spender] = _value;\n        emit Approval(msg.sender, _spender, _value);\n\n        //call the receiveApproval function on the contract you want to be notified. This crafts the function signature manually so one doesn't have to include a contract in here just for this.\n        //receiveApproval(address _from, uint256 _value, address _tokenContract, bytes _extraData)\n        //it is assumed that when does this that the call *should* succeed, otherwise one would use vanilla approve instead.\n        // if(!_spender.call(bytes4(bytes32(sha3(\"receiveApproval(address,uint256,address,bytes)\"))), msg.sender, _value, this, _extraData)) { revert(); }\n        (bool call_success, bytes memory data) = _spender.call{value: msg.value, gas: 5000}(\n                abi.encodeWithSignature(\"receiveApproval(address,uint256,address,bytes)\", msg.sender, _value, this, _extraData)\n            );\n        \n        if (!call_success) {\n            revert();\n        }\n        return true;\n    }\n}\n",
  "sourcePath": "/Users/blakehatch/Viridian-Exchange-Contracts/contracts/ViridianToken.sol",
  "compiler": {
    "name": "solc",
    "version": "0.8.6+commit.11564f7e.Emscripten.clang"
  },
  "schemaVersion": "3.4.1",
  "updatedAt": "2021-07-18T18:09:32.680Z",
  "networkType": "ethereum",
  "devdoc": {
    "kind": "dev",
    "methods": {
      "allowance(address,address)": {
        "params": {
          "_owner": "The address of the account owning tokens",
          "_spender": "The address of the account able to transfer the tokens"
        },
        "returns": {
          "remaining": ": Amount of remaining tokens allowed to spent"
        }
      },
      "approve(address,uint256)": {
        "params": {
          "_spender": "The address of the account able to transfer the tokens",
          "_value": "The amount of wei to be approved for transfer"
        },
        "returns": {
          "success": ": Whether the approval was successful or not"
        }
      },
      "balanceOf(address)": {
        "params": {
          "_owner": "The address from which the balance will be retrieved"
        },
        "returns": {
          "balance": ": The balance"
        }
      },
      "transfer(address,uint256)": {
        "params": {
          "_to": "The address of the recipient",
          "_value": "The amount of token to be transferred"
        },
        "returns": {
          "success": ": Whether the transfer was successful or not"
        }
      },
      "transferFrom(address,address,uint256)": {
        "params": {
          "_from": "The address of the sender",
          "_to": "The address of the recipient",
          "_value": "The amount of token to be transferred"
        },
        "returns": {
          "success": ": Whether the transfer was successful or not"
        }
      }
    },
    "version": 1
  },
  "userdoc": {
    "kind": "user",
    "methods": {
      "approve(address,uint256)": {
        "notice": "`msg.sender` approves `_addr` to spend `_value` tokens"
      },
      "transfer(address,uint256)": {
        "notice": "send `_value` token to `_to` from `msg.sender`"
      },
      "transferFrom(address,address,uint256)": {
        "notice": "send `_value` token to `_to` from `_from` on the condition it is approved by `_from`"
      }
    },
    "version": 1
  }
}