{
  "contractName": "ViridianExchange",
  "abi": [
    {
      "inputs": [
        {
          "internalType": "address",
          "name": "_viridianToken",
          "type": "address"
        },
        {
          "internalType": "address",
          "name": "_viridianNFT",
          "type": "address"
        }
      ],
      "stateMutability": "nonpayable",
      "type": "constructor"
    },
    {
      "anonymous": false,
      "inputs": [
        {
          "indexed": true,
          "internalType": "address",
          "name": "previousOwner",
          "type": "address"
        },
        {
          "indexed": true,
          "internalType": "address",
          "name": "newOwner",
          "type": "address"
        }
      ],
      "name": "OwnershipTransferred",
      "type": "event"
    },
    {
      "stateMutability": "payable",
      "type": "fallback",
      "payable": true
    },
    {
      "inputs": [],
      "name": "ETH",
      "outputs": [
        {
          "internalType": "address",
          "name": "",
          "type": "address"
        }
      ],
      "stateMutability": "view",
      "type": "function",
      "constant": true
    },
    {
      "inputs": [],
      "name": "owner",
      "outputs": [
        {
          "internalType": "address",
          "name": "",
          "type": "address"
        }
      ],
      "stateMutability": "view",
      "type": "function",
      "constant": true
    },
    {
      "inputs": [],
      "name": "renounceOwnership",
      "outputs": [],
      "stateMutability": "nonpayable",
      "type": "function"
    },
    {
      "inputs": [
        {
          "internalType": "address",
          "name": "newOwner",
          "type": "address"
        }
      ],
      "name": "transferOwnership",
      "outputs": [],
      "stateMutability": "nonpayable",
      "type": "function"
    },
    {
      "inputs": [],
      "name": "viridianNFT",
      "outputs": [
        {
          "internalType": "address",
          "name": "",
          "type": "address"
        }
      ],
      "stateMutability": "view",
      "type": "function",
      "constant": true
    },
    {
      "inputs": [],
      "name": "viridianToken",
      "outputs": [
        {
          "internalType": "address",
          "name": "",
          "type": "address"
        }
      ],
      "stateMutability": "view",
      "type": "function",
      "constant": true
    },
    {
      "stateMutability": "payable",
      "type": "receive",
      "payable": true
    },
    {
      "inputs": [],
      "name": "getBalance",
      "outputs": [
        {
          "internalType": "uint256",
          "name": "",
          "type": "uint256"
        }
      ],
      "stateMutability": "view",
      "type": "function",
      "constant": true
    },
    {
      "inputs": [],
      "name": "getListings",
      "outputs": [
        {
          "internalType": "uint256[]",
          "name": "",
          "type": "uint256[]"
        }
      ],
      "stateMutability": "view",
      "type": "function",
      "constant": true
    },
    {
      "inputs": [],
      "name": "getOffers",
      "outputs": [
        {
          "internalType": "uint256[]",
          "name": "",
          "type": "uint256[]"
        }
      ],
      "stateMutability": "view",
      "type": "function",
      "constant": true
    },
    {
      "inputs": [
        {
          "internalType": "uint256",
          "name": "_listingId",
          "type": "uint256"
        }
      ],
      "name": "getListingFromId",
      "outputs": [
        {
          "components": [
            {
              "internalType": "uint256",
              "name": "listingId",
              "type": "uint256"
            },
            {
              "internalType": "uint256",
              "name": "tokenId",
              "type": "uint256"
            },
            {
              "internalType": "address",
              "name": "owner",
              "type": "address"
            },
            {
              "internalType": "uint256",
              "name": "price",
              "type": "uint256"
            },
            {
              "internalType": "bool",
              "name": "purchased",
              "type": "bool"
            },
            {
              "internalType": "uint256",
              "name": "royalty",
              "type": "uint256"
            },
            {
              "internalType": "uint256",
              "name": "endTime",
              "type": "uint256"
            },
            {
              "internalType": "bool",
              "name": "sold",
              "type": "bool"
            },
            {
              "internalType": "bool",
              "name": "isVEXT",
              "type": "bool"
            }
          ],
          "internalType": "struct ViridianExchange.Listing",
          "name": "",
          "type": "tuple"
        }
      ],
      "stateMutability": "view",
      "type": "function",
      "constant": true
    },
    {
      "inputs": [
        {
          "internalType": "uint256",
          "name": "_offerId",
          "type": "uint256"
        }
      ],
      "name": "getOffersFromId",
      "outputs": [
        {
          "components": [
            {
              "internalType": "uint256",
              "name": "offerId",
              "type": "uint256"
            },
            {
              "internalType": "uint256[]",
              "name": "toNftIds",
              "type": "uint256[]"
            },
            {
              "internalType": "uint256",
              "name": "toAmt",
              "type": "uint256"
            },
            {
              "internalType": "uint256[]",
              "name": "fromNftIds",
              "type": "uint256[]"
            },
            {
              "internalType": "uint256",
              "name": "fromAmt",
              "type": "uint256"
            },
            {
              "internalType": "address",
              "name": "to",
              "type": "address"
            },
            {
              "internalType": "address",
              "name": "from",
              "type": "address"
            },
            {
              "internalType": "bool",
              "name": "isVEXT",
              "type": "bool"
            },
            {
              "internalType": "bool",
              "name": "pending",
              "type": "bool"
            }
          ],
          "internalType": "struct ViridianExchange.Offer",
          "name": "",
          "type": "tuple"
        }
      ],
      "stateMutability": "view",
      "type": "function",
      "constant": true
    },
    {
      "inputs": [
        {
          "internalType": "address",
          "name": "_userAddr",
          "type": "address"
        }
      ],
      "name": "getListingsFromUser",
      "outputs": [
        {
          "components": [
            {
              "internalType": "uint256",
              "name": "listingId",
              "type": "uint256"
            },
            {
              "internalType": "uint256",
              "name": "tokenId",
              "type": "uint256"
            },
            {
              "internalType": "address",
              "name": "owner",
              "type": "address"
            },
            {
              "internalType": "uint256",
              "name": "price",
              "type": "uint256"
            },
            {
              "internalType": "bool",
              "name": "purchased",
              "type": "bool"
            },
            {
              "internalType": "uint256",
              "name": "royalty",
              "type": "uint256"
            },
            {
              "internalType": "uint256",
              "name": "endTime",
              "type": "uint256"
            },
            {
              "internalType": "bool",
              "name": "sold",
              "type": "bool"
            },
            {
              "internalType": "bool",
              "name": "isVEXT",
              "type": "bool"
            }
          ],
          "internalType": "struct ViridianExchange.Listing[]",
          "name": "",
          "type": "tuple[]"
        }
      ],
      "stateMutability": "view",
      "type": "function",
      "constant": true
    },
    {
      "inputs": [
        {
          "internalType": "address",
          "name": "_userAddr",
          "type": "address"
        }
      ],
      "name": "getOffersFromUser",
      "outputs": [
        {
          "components": [
            {
              "internalType": "uint256",
              "name": "offerId",
              "type": "uint256"
            },
            {
              "internalType": "uint256[]",
              "name": "toNftIds",
              "type": "uint256[]"
            },
            {
              "internalType": "uint256",
              "name": "toAmt",
              "type": "uint256"
            },
            {
              "internalType": "uint256[]",
              "name": "fromNftIds",
              "type": "uint256[]"
            },
            {
              "internalType": "uint256",
              "name": "fromAmt",
              "type": "uint256"
            },
            {
              "internalType": "address",
              "name": "to",
              "type": "address"
            },
            {
              "internalType": "address",
              "name": "from",
              "type": "address"
            },
            {
              "internalType": "bool",
              "name": "isVEXT",
              "type": "bool"
            },
            {
              "internalType": "bool",
              "name": "pending",
              "type": "bool"
            }
          ],
          "internalType": "struct ViridianExchange.Offer[]",
          "name": "",
          "type": "tuple[]"
        }
      ],
      "stateMutability": "view",
      "type": "function",
      "constant": true
    },
    {
      "inputs": [
        {
          "internalType": "uint256",
          "name": "_nftId",
          "type": "uint256"
        }
      ],
      "name": "getNftOwner",
      "outputs": [
        {
          "internalType": "address",
          "name": "",
          "type": "address"
        }
      ],
      "stateMutability": "view",
      "type": "function",
      "constant": true
    },
    {
      "inputs": [
        {
          "internalType": "address payable",
          "name": "_to",
          "type": "address"
        }
      ],
      "name": "sendEther",
      "outputs": [],
      "stateMutability": "payable",
      "type": "function",
      "payable": true
    },
    {
      "inputs": [
        {
          "internalType": "uint256",
          "name": "_nftId",
          "type": "uint256"
        },
        {
          "internalType": "uint256",
          "name": "_price",
          "type": "uint256"
        },
        {
          "internalType": "uint256",
          "name": "_royalty",
          "type": "uint256"
        },
        {
          "internalType": "uint256",
          "name": "_endTime",
          "type": "uint256"
        },
        {
          "internalType": "bool",
          "name": "_isVEXT",
          "type": "bool"
        }
      ],
      "name": "putUpForSale",
      "outputs": [],
      "stateMutability": "payable",
      "type": "function",
      "payable": true
    },
    {
      "inputs": [
        {
          "internalType": "uint256",
          "name": "_listingId",
          "type": "uint256"
        }
      ],
      "name": "pullFromSale",
      "outputs": [],
      "stateMutability": "payable",
      "type": "function",
      "payable": true
    },
    {
      "inputs": [
        {
          "internalType": "uint256",
          "name": "_listingId",
          "type": "uint256"
        }
      ],
      "name": "buyNFTWithETH",
      "outputs": [],
      "stateMutability": "payable",
      "type": "function",
      "payable": true
    },
    {
      "inputs": [
        {
          "internalType": "uint256",
          "name": "_listingId",
          "type": "uint256"
        }
      ],
      "name": "buyNFTWithVEXT",
      "outputs": [],
      "stateMutability": "payable",
      "type": "function",
      "payable": true
    },
    {
      "inputs": [
        {
          "internalType": "address",
          "name": "_to",
          "type": "address"
        },
        {
          "internalType": "uint256[]",
          "name": "_nftIds",
          "type": "uint256[]"
        },
        {
          "internalType": "uint256",
          "name": "_amount",
          "type": "uint256"
        },
        {
          "internalType": "uint256[]",
          "name": "_recNftIds",
          "type": "uint256[]"
        },
        {
          "internalType": "uint256",
          "name": "_recAmount",
          "type": "uint256"
        },
        {
          "internalType": "bool",
          "name": "isVEXT",
          "type": "bool"
        }
      ],
      "name": "makeOffer",
      "outputs": [],
      "stateMutability": "nonpayable",
      "type": "function"
    },
    {
      "inputs": [
        {
          "internalType": "uint256",
          "name": "_offerId",
          "type": "uint256"
        }
      ],
      "name": "cancelOffer",
      "outputs": [],
      "stateMutability": "nonpayable",
      "type": "function"
    },
    {
      "inputs": [
        {
          "internalType": "uint256",
          "name": "_offerId",
          "type": "uint256"
        }
      ],
      "name": "acceptOfferWithETH",
      "outputs": [],
      "stateMutability": "payable",
      "type": "function",
      "payable": true
    },
    {
      "inputs": [
        {
          "internalType": "uint256",
          "name": "_offerId",
          "type": "uint256"
        }
      ],
      "name": "acceptOfferWithVEXT",
      "outputs": [],
      "stateMutability": "nonpayable",
      "type": "function"
    }
  ],
  "bytecode": "0x60806040523480156200001157600080fd5b50604051620053f5380380620053f583398181016040528101906200003791906200023a565b620000576200004b6200015760201b60201c565b6200015f60201b60201c565b600073ffffffffffffffffffffffffffffffffffffffff168273ffffffffffffffffffffffffffffffffffffffff1614156200009257600080fd5b600073ffffffffffffffffffffffffffffffffffffffff168173ffffffffffffffffffffffffffffffffffffffff161415620000cd57600080fd5b81600d60006101000a81548173ffffffffffffffffffffffffffffffffffffffff021916908373ffffffffffffffffffffffffffffffffffffffff16021790555080600b60006101000a81548173ffffffffffffffffffffffffffffffffffffffff021916908373ffffffffffffffffffffffffffffffffffffffff1602179055505050620002d4565b600033905090565b60008060009054906101000a900473ffffffffffffffffffffffffffffffffffffffff169050816000806101000a81548173ffffffffffffffffffffffffffffffffffffffff021916908373ffffffffffffffffffffffffffffffffffffffff1602179055508173ffffffffffffffffffffffffffffffffffffffff168173ffffffffffffffffffffffffffffffffffffffff167f8be0079c531659141344cd1fd0a4f28419497f9722a3daafe3b4186f6b6457e060405160405180910390a35050565b6000815190506200023481620002ba565b92915050565b60008060408385031215620002545762000253620002b5565b5b6000620002648582860162000223565b9250506020620002778582860162000223565b9150509250929050565b60006200028e8262000295565b9050919050565b600073ffffffffffffffffffffffffffffffffffffffff82169050919050565b600080fd5b620002c58162000281565b8114620002d157600080fd5b50565b61511180620002e46000396000f3fe6080604052600436106101445760003560e01c8063a19b56ac116100b6578063dd42c3b31161006f578063dd42c3b31461042e578063ec186db31461044a578063ef706adf14610466578063f1b2d6a31461048f578063f2f57e95146104ba578063f2fde38b146104e55761014b565b8063a19b56ac14610316578063ac0b27c214610353578063aec99da21461036f578063af62c68414610398578063bddb06f3146103d5578063d382335a146103f15761014b565b8063715018a611610108578063715018a6146102185780638322fff21461022f5780638ad2d5a71461025a5780638da5cb5b146102975780639a701288146102c25780639cbccc2c146102ed5761014b565b806312065fe01461014d578063273e287e146101785780633eaf56b0146101945780633ee992ee146101d157806348c981e2146101fc5761014b565b3661014b57005b005b34801561015957600080fd5b5061016261050e565b60405161016f9190614c10565b60405180910390f35b610192600480360381019061018d9190614370565b610516565b005b3480156101a057600080fd5b506101bb60048036038101906101b69190614370565b6105ca565b6040516101c89190614bee565b60405180910390f35b3480156101dd57600080fd5b506101e66107a8565b6040516101f39190614b10565b60405180910390f35b61021660048036038101906102119190614251565b610800565b005b34801561022457600080fd5b5061022d6108b3565b005b34801561023b57600080fd5b5061024461093b565b6040516102519190614a51565b60405180910390f35b34801561026657600080fd5b50610281600480360381019061027c9190614370565b610961565b60405161028e9190614a51565b60405180910390f35b3480156102a357600080fd5b506102ac610a15565b6040516102b99190614a51565b60405180910390f35b3480156102ce57600080fd5b506102d7610a3e565b6040516102e49190614a51565b60405180910390f35b3480156102f957600080fd5b50610314600480360381019061030f919061427e565b610a64565b005b34801561032257600080fd5b5061033d60048036038101906103389190614370565b610e2d565b60405161034a9190614bd2565b60405180910390f35b61036d60048036038101906103689190614370565b610f34565b005b34801561037b57600080fd5b5061039660048036038101906103919190614370565b611314565b005b3480156103a457600080fd5b506103bf60048036038101906103ba91906141f7565b611859565b6040516103cc9190614acc565b60405180910390f35b6103ef60048036038101906103ea9190614370565b6119d1565b005b3480156103fd57600080fd5b50610418600480360381019061041391906141f7565b6120c1565b6040516104259190614aee565b60405180910390f35b610448600480360381019061044391906143ca565b612310565b005b610464600480360381019061045f9190614370565b612679565b005b34801561047257600080fd5b5061048d60048036038101906104889190614370565b6128d2565b005b34801561049b57600080fd5b506104a4613134565b6040516104b19190614b10565b60405180910390f35b3480156104c657600080fd5b506104cf61318c565b6040516104dc9190614a51565b60405180910390f35b3480156104f157600080fd5b5061050c600480360381019061050791906141f7565b6131b2565b005b600047905090565b60006006600083815260200190815260200160002090503373ffffffffffffffffffffffffffffffffffffffff168160050160009054906101000a900473ffffffffffffffffffffffffffffffffffffffff1673ffffffffffffffffffffffffffffffffffffffff16141561058a57600080fd5b60008160060160009054906101000a900473ffffffffffffffffffffffffffffffffffffffff1690506105bc81610800565b6105c5836128d2565b505050565b6105d2613a5a565b6006600083815260200190815260200160002060405180610120016040529081600082015481526020016001820180548060200260200160405190810160405280929190818152602001828054801561064a57602002820191906000526020600020905b815481526020019060010190808311610636575b5050505050815260200160028201548152602001600382018054806020026020016040519081016040528092919081815260200182805480156106ac57602002820191906000526020600020905b815481526020019060010190808311610698575b50505050508152602001600482015481526020016005820160009054906101000a900473ffffffffffffffffffffffffffffffffffffffff1673ffffffffffffffffffffffffffffffffffffffff1673ffffffffffffffffffffffffffffffffffffffff1681526020016006820160009054906101000a900473ffffffffffffffffffffffffffffffffffffffff1673ffffffffffffffffffffffffffffffffffffffff1673ffffffffffffffffffffffffffffffffffffffff1681526020016006820160149054906101000a900460ff161515151581526020016006820160159054906101000a900460ff1615151515815250509050919050565b6060600a8054806020026020016040519081016040528092919081815260200182805480156107f657602002820191906000526020600020905b8154815260200190600101908083116107e2575b5050505050905090565b6000808273ffffffffffffffffffffffffffffffffffffffff163460405161082790614a3c565b60006040518083038185875af1925050503d8060008114610864576040519150601f19603f3d011682016040523d82523d6000602084013e610869565b606091505b5091509150816108ae576040517f08c379a00000000000000000000000000000000000000000000000000000000081526004016108a590614b72565b60405180910390fd5b505050565b6108bb6132aa565b73ffffffffffffffffffffffffffffffffffffffff166108d9610a15565b73ffffffffffffffffffffffffffffffffffffffff161461092f576040517f08c379a000000000000000000000000000000000000000000000000000000000815260040161092690614b92565b60405180910390fd5b61093960006132b2565b565b600c60009054906101000a900473ffffffffffffffffffffffffffffffffffffffff1681565b6000600b60009054906101000a900473ffffffffffffffffffffffffffffffffffffffff1673ffffffffffffffffffffffffffffffffffffffff16636352211e836040518263ffffffff1660e01b81526004016109be9190614c10565b60206040518083038186803b1580156109d657600080fd5b505afa1580156109ea573d6000803e3d6000fd5b505050506040513d601f19601f82011682018060405250810190610a0e9190614224565b9050919050565b60008060009054906101000a900473ffffffffffffffffffffffffffffffffffffffff16905090565b600b60009054906101000a900473ffffffffffffffffffffffffffffffffffffffff1681565b3373ffffffffffffffffffffffffffffffffffffffff168673ffffffffffffffffffffffffffffffffffffffff161415610a9d57600080fd5b610aa76002613376565b6000610ab3600261338c565b905060006040518061012001604052808381526020018881526020018781526020018681526020018581526020018973ffffffffffffffffffffffffffffffffffffffff1681526020013373ffffffffffffffffffffffffffffffffffffffff1681526020018415158152602001600115158152509050600560008973ffffffffffffffffffffffffffffffffffffffff1673ffffffffffffffffffffffffffffffffffffffff168152602001908152602001600020819080600181540180825580915050600190039060005260206000209060070201600090919091909150600082015181600001556020820151816001019080519060200190610bb9929190613ad6565b50604082015181600201556060820151816003019080519060200190610be0929190613ad6565b506080820151816004015560a08201518160050160006101000a81548173ffffffffffffffffffffffffffffffffffffffff021916908373ffffffffffffffffffffffffffffffffffffffff16021790555060c08201518160060160006101000a81548173ffffffffffffffffffffffffffffffffffffffff021916908373ffffffffffffffffffffffffffffffffffffffff16021790555060e08201518160060160146101000a81548160ff0219169083151502179055506101008201518160060160156101000a81548160ff02191690831515021790555050508060066000848152602001908152602001600020600082015181600001556020820151816001019080519060200190610cf6929190613ad6565b50604082015181600201556060820151816003019080519060200190610d1d929190613ad6565b506080820151816004015560a08201518160050160006101000a81548173ffffffffffffffffffffffffffffffffffffffff021916908373ffffffffffffffffffffffffffffffffffffffff16021790555060c08201518160060160006101000a81548173ffffffffffffffffffffffffffffffffffffffff021916908373ffffffffffffffffffffffffffffffffffffffff16021790555060e08201518160060160146101000a81548160ff0219169083151502179055506101008201518160060160156101000a81548160ff021916908315150217905550905050600a8290806001815401808255809150506001900390600052602060002001600090919091909150555050505050505050565b610e35613b23565b600760008381526020019081526020016000206040518061012001604052908160008201548152602001600182015481526020016002820160009054906101000a900473ffffffffffffffffffffffffffffffffffffffff1673ffffffffffffffffffffffffffffffffffffffff1673ffffffffffffffffffffffffffffffffffffffff168152602001600382015481526020016004820160009054906101000a900460ff1615151515815260200160058201548152602001600682015481526020016007820160009054906101000a900460ff161515151581526020016007820160019054906101000a900460ff1615151515815250509050919050565b6000600760008381526020019081526020016000206040518061012001604052908160008201548152602001600182015481526020016002820160009054906101000a900473ffffffffffffffffffffffffffffffffffffffff1673ffffffffffffffffffffffffffffffffffffffff1673ffffffffffffffffffffffffffffffffffffffff168152602001600382015481526020016004820160009054906101000a900460ff1615151515815260200160058201548152602001600682015481526020016007820160009054906101000a900460ff161515151581526020016007820160019054906101000a900460ff16151515158152505090508060600151600d60009054906101000a900473ffffffffffffffffffffffffffffffffffffffff1673ffffffffffffffffffffffffffffffffffffffff166370a08231336040518263ffffffff1660e01b81526004016110909190614a51565b60206040518083038186803b1580156110a857600080fd5b505afa1580156110bc573d6000803e3d6000fd5b505050506040513d601f19601f820116820180604052508101906110e0919061439d565b1015611121576040517f08c379a000000000000000000000000000000000000000000000000000000000815260040161111890614bb2565b60405180910390fd5b600d60009054906101000a900473ffffffffffffffffffffffffffffffffffffffff1673ffffffffffffffffffffffffffffffffffffffff166323b872dd33836040015184606001516040518463ffffffff1660e01b815260040161118893929190614a6c565b602060405180830381600087803b1580156111a257600080fd5b505af11580156111b6573d6000803e3d6000fd5b505050506040513d601f19601f820116820180604052508101906111da9190614343565b50600b60009054906101000a900473ffffffffffffffffffffffffffffffffffffffff1673ffffffffffffffffffffffffffffffffffffffff1663095ea7b33383602001516040518363ffffffff1660e01b815260040161123c929190614aa3565b600060405180830381600087803b15801561125657600080fd5b505af115801561126a573d6000803e3d6000fd5b50505050600b60009054906101000a900473ffffffffffffffffffffffffffffffffffffffff1673ffffffffffffffffffffffffffffffffffffffff166342842e0e82604001513384602001516040518463ffffffff1660e01b81526004016112d593929190614a6c565b600060405180830381600087803b1580156112ef57600080fd5b505af1158015611303573d6000803e3d6000fd5b505050506113108261339a565b5050565b6000600660008381526020019081526020016000209050600d60009054906101000a900473ffffffffffffffffffffffffffffffffffffffff1673ffffffffffffffffffffffffffffffffffffffff166323b872dd8260060160009054906101000a900473ffffffffffffffffffffffffffffffffffffffff163384600401546040518463ffffffff1660e01b81526004016113b293929190614a6c565b602060405180830381600087803b1580156113cc57600080fd5b505af11580156113e0573d6000803e3d6000fd5b505050506040513d601f19601f820116820180604052508101906114049190614343565b50600d60009054906101000a900473ffffffffffffffffffffffffffffffffffffffff1673ffffffffffffffffffffffffffffffffffffffff1663a9059cbb8260060160009054906101000a900473ffffffffffffffffffffffffffffffffffffffff1683600201546040518363ffffffff1660e01b815260040161148a929190614aa3565b602060405180830381600087803b1580156114a457600080fd5b505af11580156114b8573d6000803e3d6000fd5b505050506040513d601f19601f820116820180604052508101906114dc9190614343565b5060005b816001018054905081101561168657600b60009054906101000a900473ffffffffffffffffffffffffffffffffffffffff1673ffffffffffffffffffffffffffffffffffffffff1663095ea7b33384600301848154811061154457611543614eba565b5b90600052602060002001546040518363ffffffff1660e01b815260040161156c929190614aa3565b600060405180830381600087803b15801561158657600080fd5b505af115801561159a573d6000803e3d6000fd5b50505050600b60009054906101000a900473ffffffffffffffffffffffffffffffffffffffff1673ffffffffffffffffffffffffffffffffffffffff166342842e0e8360060160009054906101000a900473ffffffffffffffffffffffffffffffffffffffff163385600101858154811061161857611617614eba565b5b90600052602060002001546040518463ffffffff1660e01b815260040161164193929190614a6c565b600060405180830381600087803b15801561165b57600080fd5b505af115801561166f573d6000803e3d6000fd5b50505050808061167e90614e13565b9150506114e0565b5060005b816003018054905081101561185457600b60009054906101000a900473ffffffffffffffffffffffffffffffffffffffff1673ffffffffffffffffffffffffffffffffffffffff1663095ea7b3338460030184815481106116ee576116ed614eba565b5b90600052602060002001546040518363ffffffff1660e01b8152600401611716929190614aa3565b600060405180830381600087803b15801561173057600080fd5b505af1158015611744573d6000803e3d6000fd5b50505050600b60009054906101000a900473ffffffffffffffffffffffffffffffffffffffff1673ffffffffffffffffffffffffffffffffffffffff166342842e0e8360050160009054906101000a900473ffffffffffffffffffffffffffffffffffffffff168460060160009054906101000a900473ffffffffffffffffffffffffffffffffffffffff168560030185815481106117e6576117e5614eba565b5b90600052602060002001546040518463ffffffff1660e01b815260040161180f93929190614a6c565b600060405180830381600087803b15801561182957600080fd5b505af115801561183d573d6000803e3d6000fd5b50505050808061184c90614e13565b91505061168a565b505050565b6060600460008373ffffffffffffffffffffffffffffffffffffffff1673ffffffffffffffffffffffffffffffffffffffff168152602001908152602001600020805480602002602001604051908101604052809291908181526020016000905b828210156119c657838290600052602060002090600802016040518061012001604052908160008201548152602001600182015481526020016002820160009054906101000a900473ffffffffffffffffffffffffffffffffffffffff1673ffffffffffffffffffffffffffffffffffffffff1673ffffffffffffffffffffffffffffffffffffffff168152602001600382015481526020016004820160009054906101000a900460ff1615151515815260200160058201548152602001600682015481526020016007820160009054906101000a900460ff161515151581526020016007820160019054906101000a900460ff161515151581525050815260200190600101906118ba565b505050509050919050565b6000600760008381526020019081526020016000206040518061012001604052908160008201548152602001600182015481526020016002820160009054906101000a900473ffffffffffffffffffffffffffffffffffffffff1673ffffffffffffffffffffffffffffffffffffffff1673ffffffffffffffffffffffffffffffffffffffff168152602001600382015481526020016004820160009054906101000a900460ff1615151515815260200160058201548152602001600682015481526020016007820160009054906101000a900460ff161515151581526020016007820160019054906101000a900460ff16151515158152505090503373ffffffffffffffffffffffffffffffffffffffff16816040015173ffffffffffffffffffffffffffffffffffffffff1614611b0957600080fd5b6000600460003373ffffffffffffffffffffffffffffffffffffffff1673ffffffffffffffffffffffffffffffffffffffff168152602001908152602001600020905060005b8180549050811015611f46576000828281548110611b7057611b6f614eba565b5b90600052602060002090600802016040518061012001604052908160008201548152602001600182015481526020016002820160009054906101000a900473ffffffffffffffffffffffffffffffffffffffff1673ffffffffffffffffffffffffffffffffffffffff1673ffffffffffffffffffffffffffffffffffffffff168152602001600382015481526020016004820160009054906101000a900460ff1615151515815260200160058201548152602001600682015481526020016007820160009054906101000a900460ff161515151581526020016007820160019054906101000a900460ff1615151515815250509050836000015181600001511415611f32578260018480549050611c879190614d54565b81548110611c9857611c97614eba565b5b9060005260206000209060080201838381548110611cb957611cb8614eba565b5b906000526020600020906008020160008201548160000155600182015481600101556002820160009054906101000a900473ffffffffffffffffffffffffffffffffffffffff168160020160006101000a81548173ffffffffffffffffffffffffffffffffffffffff021916908373ffffffffffffffffffffffffffffffffffffffff160217905550600382015481600301556004820160009054906101000a900460ff168160040160006101000a81548160ff02191690831515021790555060058201548160050155600682015481600601556007820160009054906101000a900460ff168160070160006101000a81548160ff0219169083151502179055506007820160019054906101000a900460ff168160070160016101000a81548160ff02191690831515021790555090505082600460003373ffffffffffffffffffffffffffffffffffffffff1673ffffffffffffffffffffffffffffffffffffffff168152602001908152602001600020908054611e38929190613b8b565b50600460003373ffffffffffffffffffffffffffffffffffffffff1673ffffffffffffffffffffffffffffffffffffffff168152602001908152602001600020805480611e8857611e87614e8b565b5b600190038181906000526020600020906008020160008082016000905560018201600090556002820160006101000a81549073ffffffffffffffffffffffffffffffffffffffff021916905560038201600090556004820160006101000a81549060ff0219169055600582016000905560068201600090556007820160006101000a81549060ff02191690556007820160016101000a81549060ff02191690555050905550611f46565b508080611f3e90614e13565b915050611b4f565b5060005b60098054905081101561201a57600060098281548110611f6d57611f6c614eba565b5b9060005260206000200154905083600001518114156120065760096001600980549050611f9a9190614d54565b81548110611fab57611faa614eba565b5b906000526020600020015460098381548110611fca57611fc9614eba565b5b90600052602060002001819055506009805480611fea57611fe9614e8b565b5b600190038181906000526020600020016000905590555061201a565b50808061201290614e13565b915050611f4a565b506007600084815260200190815260200160002060008082016000905560018201600090556002820160006101000a81549073ffffffffffffffffffffffffffffffffffffffff021916905560038201600090556004820160006101000a81549060ff0219169055600582016000905560068201600090556007820160006101000a81549060ff02191690556007820160016101000a81549060ff02191690555050505050565b6060600560008373ffffffffffffffffffffffffffffffffffffffff1673ffffffffffffffffffffffffffffffffffffffff168152602001908152602001600020805480602002602001604051908101604052809291908181526020016000905b82821015612305578382906000526020600020906007020160405180610120016040529081600082015481526020016001820180548060200260200160405190810160405280929190818152602001828054801561219f57602002820191906000526020600020905b81548152602001906001019080831161218b575b50505050508152602001600282015481526020016003820180548060200260200160405190810160405280929190818152602001828054801561220157602002820191906000526020600020905b8154815260200190600101908083116121ed575b50505050508152602001600482015481526020016005820160009054906101000a900473ffffffffffffffffffffffffffffffffffffffff1673ffffffffffffffffffffffffffffffffffffffff1673ffffffffffffffffffffffffffffffffffffffff1681526020016006820160009054906101000a900473ffffffffffffffffffffffffffffffffffffffff1673ffffffffffffffffffffffffffffffffffffffff1673ffffffffffffffffffffffffffffffffffffffff1681526020016006820160149054906101000a900460ff161515151581526020016006820160159054906101000a900460ff16151515158152505081526020019060010190612122565b505050509050919050565b3373ffffffffffffffffffffffffffffffffffffffff1661233086610961565b73ffffffffffffffffffffffffffffffffffffffff161461235057600080fd5b61235a6001613376565b6000612366600161338c565b9050612370613b23565b818160000181815250508681602001818152505033816040019073ffffffffffffffffffffffffffffffffffffffff16908173ffffffffffffffffffffffffffffffffffffffff1681525050858160600181815250506000816080019015159081151581525050848160a0018181525050838160c001818152505060008160e00190151590811515815250508281610100019015159081151581525050600460003373ffffffffffffffffffffffffffffffffffffffff1673ffffffffffffffffffffffffffffffffffffffff168152602001908152602001600020819080600181540180825580915050600190039060005260206000209060080201600090919091909150600082015181600001556020820151816001015560408201518160020160006101000a81548173ffffffffffffffffffffffffffffffffffffffff021916908373ffffffffffffffffffffffffffffffffffffffff1602179055506060820151816003015560808201518160040160006101000a81548160ff02191690831515021790555060a0820151816005015560c0820151816006015560e08201518160070160006101000a81548160ff0219169083151502179055506101008201518160070160016101000a81548160ff02191690831515021790555050508060076000848152602001908152602001600020600082015181600001556020820151816001015560408201518160020160006101000a81548173ffffffffffffffffffffffffffffffffffffffff021916908373ffffffffffffffffffffffffffffffffffffffff1602179055506060820151816003015560808201518160040160006101000a81548160ff02191690831515021790555060a0820151816005015560c0820151816006015560e08201518160070160006101000a81548160ff0219169083151502179055506101008201518160070160016101000a81548160ff02191690831515021790555090505060098160000151908060018154018082558091505060019003906000526020600020016000909190919091505550505050505050565b6000600760008381526020019081526020016000206040518061012001604052908160008201548152602001600182015481526020016002820160009054906101000a900473ffffffffffffffffffffffffffffffffffffffff1673ffffffffffffffffffffffffffffffffffffffff1673ffffffffffffffffffffffffffffffffffffffff168152602001600382015481526020016004820160009054906101000a900460ff1615151515815260200160058201548152602001600682015481526020016007820160009054906101000a900460ff161515151581526020016007820160019054906101000a900460ff161515151581525050905080606001513373ffffffffffffffffffffffffffffffffffffffff163110156127d3576040517f08c379a00000000000000000000000000000000000000000000000000000000081526004016127ca90614bb2565b60405180910390fd5b60008160400151905081606001513414612822576040517f08c379a000000000000000000000000000000000000000000000000000000000815260040161281990614b32565b60405180910390fd5b61282b81610800565b6128348361339a565b600b60009054906101000a900473ffffffffffffffffffffffffffffffffffffffff1673ffffffffffffffffffffffffffffffffffffffff166342842e0e83604001513385602001516040518463ffffffff1660e01b815260040161289b93929190614a6c565b600060405180830381600087803b1580156128b557600080fd5b505af11580156128c9573d6000803e3d6000fd5b50505050505050565b60006006600083815260200190815260200160002090503373ffffffffffffffffffffffffffffffffffffffff168160060160009054906101000a900473ffffffffffffffffffffffffffffffffffffffff1673ffffffffffffffffffffffffffffffffffffffff16148061299657503373ffffffffffffffffffffffffffffffffffffffff168160050160009054906101000a900473ffffffffffffffffffffffffffffffffffffffff1673ffffffffffffffffffffffffffffffffffffffff16145b61299f57600080fd5b6000600560008360050160009054906101000a900473ffffffffffffffffffffffffffffffffffffffff1673ffffffffffffffffffffffffffffffffffffffff1673ffffffffffffffffffffffffffffffffffffffff168152602001908152602001600020905060005b8180549050811015612f96576000828281548110612a2a57612a29614eba565b5b9060005260206000209060070201604051806101200160405290816000820154815260200160018201805480602002602001604051908101604052809291908181526020018280548015612a9d57602002820191906000526020600020905b815481526020019060010190808311612a89575b505050505081526020016002820154815260200160038201805480602002602001604051908101604052809291908181526020018280548015612aff57602002820191906000526020600020905b815481526020019060010190808311612aeb575b50505050508152602001600482015481526020016005820160009054906101000a900473ffffffffffffffffffffffffffffffffffffffff1673ffffffffffffffffffffffffffffffffffffffff1673ffffffffffffffffffffffffffffffffffffffff1681526020016006820160009054906101000a900473ffffffffffffffffffffffffffffffffffffffff1673ffffffffffffffffffffffffffffffffffffffff1673ffffffffffffffffffffffffffffffffffffffff1681526020016006820160149054906101000a900460ff161515151581526020016006820160159054906101000a900460ff1615151515815250509050836000015481600001511415612f82578260018480549050612c189190614d54565b81548110612c2957612c28614eba565b5b9060005260206000209060070201838381548110612c4a57612c49614eba565b5b9060005260206000209060070201600082015481600001556001820181600101908054612c78929190613d03565b50600282015481600201556003820181600301908054612c99929190613d03565b50600482015481600401556005820160009054906101000a900473ffffffffffffffffffffffffffffffffffffffff168160050160006101000a81548173ffffffffffffffffffffffffffffffffffffffff021916908373ffffffffffffffffffffffffffffffffffffffff1602179055506006820160009054906101000a900473ffffffffffffffffffffffffffffffffffffffff168160060160006101000a81548173ffffffffffffffffffffffffffffffffffffffff021916908373ffffffffffffffffffffffffffffffffffffffff1602179055506006820160149054906101000a900460ff168160060160146101000a81548160ff0219169083151502179055506006820160159054906101000a900460ff168160060160156101000a81548160ff02191690831515021790555090505082600560008660050160009054906101000a900473ffffffffffffffffffffffffffffffffffffffff1673ffffffffffffffffffffffffffffffffffffffff1673ffffffffffffffffffffffffffffffffffffffff168152602001908152602001600020908054612e41929190613d55565b50600560008560050160009054906101000a900473ffffffffffffffffffffffffffffffffffffffff1673ffffffffffffffffffffffffffffffffffffffff1673ffffffffffffffffffffffffffffffffffffffff168152602001908152602001600020805480612eb557612eb4614e8b565b5b6001900381819060005260206000209060070201600080820160009055600182016000612ee29190613f21565b6002820160009055600382016000612efa9190613f21565b60048201600090556005820160006101000a81549073ffffffffffffffffffffffffffffffffffffffff02191690556006820160006101000a81549073ffffffffffffffffffffffffffffffffffffffff02191690556006820160146101000a81549060ff02191690556006820160156101000a81549060ff02191690555050905550612f96565b508080612f8e90614e13565b915050612a09565b5060005b600a8054905081101561306a576000600a8281548110612fbd57612fbc614eba565b5b90600052602060002001549050836000015481141561305657600a6001600a80549050612fea9190614d54565b81548110612ffb57612ffa614eba565b5b9060005260206000200154600a838154811061301a57613019614eba565b5b9060005260206000200181905550600a80548061303a57613039614e8b565b5b600190038181906000526020600020016000905590555061306a565b50808061306290614e13565b915050612f9a565b50600660008481526020019081526020016000206000808201600090556001820160006130979190613f21565b60028201600090556003820160006130af9190613f21565b60048201600090556005820160006101000a81549073ffffffffffffffffffffffffffffffffffffffff02191690556006820160006101000a81549073ffffffffffffffffffffffffffffffffffffffff02191690556006820160146101000a81549060ff02191690556006820160156101000a81549060ff02191690555050505050565b6060600980548060200260200160405190810160405280929190818152602001828054801561318257602002820191906000526020600020905b81548152602001906001019080831161316e575b5050505050905090565b600d60009054906101000a900473ffffffffffffffffffffffffffffffffffffffff1681565b6131ba6132aa565b73ffffffffffffffffffffffffffffffffffffffff166131d8610a15565b73ffffffffffffffffffffffffffffffffffffffff161461322e576040517f08c379a000000000000000000000000000000000000000000000000000000000815260040161322590614b92565b60405180910390fd5b600073ffffffffffffffffffffffffffffffffffffffff168173ffffffffffffffffffffffffffffffffffffffff16141561329e576040517f08c379a000000000000000000000000000000000000000000000000000000000815260040161329590614b52565b60405180910390fd5b6132a7816132b2565b50565b600033905090565b60008060009054906101000a900473ffffffffffffffffffffffffffffffffffffffff169050816000806101000a81548173ffffffffffffffffffffffffffffffffffffffff021916908373ffffffffffffffffffffffffffffffffffffffff1602179055508173ffffffffffffffffffffffffffffffffffffffff168173ffffffffffffffffffffffffffffffffffffffff167f8be0079c531659141344cd1fd0a4f28419497f9722a3daafe3b4186f6b6457e060405160405180910390a35050565b6001816000016000828254019250508190555050565b600081600001549050919050565b6000600760008381526020019081526020016000206040518061012001604052908160008201548152602001600182015481526020016002820160009054906101000a900473ffffffffffffffffffffffffffffffffffffffff1673ffffffffffffffffffffffffffffffffffffffff1673ffffffffffffffffffffffffffffffffffffffff168152602001600382015481526020016004820160009054906101000a900460ff1615151515815260200160058201548152602001600682015481526020016007820160009054906101000a900460ff161515151581526020016007820160019054906101000a900460ff1615151515815250509050600060046000836040015173ffffffffffffffffffffffffffffffffffffffff1673ffffffffffffffffffffffffffffffffffffffff168152602001908152602001600020905060005b81805490508110156138df57600082828154811061350157613500614eba565b5b90600052602060002090600802016040518061012001604052908160008201548152602001600182015481526020016002820160009054906101000a900473ffffffffffffffffffffffffffffffffffffffff1673ffffffffffffffffffffffffffffffffffffffff1673ffffffffffffffffffffffffffffffffffffffff168152602001600382015481526020016004820160009054906101000a900460ff1615151515815260200160058201548152602001600682015481526020016007820160009054906101000a900460ff161515151581526020016007820160019054906101000a900460ff16151515158152505090508360000151816000015114156138cb5782600184805490506136189190614d54565b8154811061362957613628614eba565b5b906000526020600020906008020183838154811061364a57613649614eba565b5b906000526020600020906008020160008201548160000155600182015481600101556002820160009054906101000a900473ffffffffffffffffffffffffffffffffffffffff168160020160006101000a81548173ffffffffffffffffffffffffffffffffffffffff021916908373ffffffffffffffffffffffffffffffffffffffff160217905550600382015481600301556004820160009054906101000a900460ff168160040160006101000a81548160ff02191690831515021790555060058201548160050155600682015481600601556007820160009054906101000a900460ff168160070160006101000a81548160ff0219169083151502179055506007820160019054906101000a900460ff168160070160016101000a81548160ff0219169083151502179055509050508260046000866040015173ffffffffffffffffffffffffffffffffffffffff1673ffffffffffffffffffffffffffffffffffffffff1681526020019081526020016000209080546137cd929190613b8b565b5060046000856040015173ffffffffffffffffffffffffffffffffffffffff1673ffffffffffffffffffffffffffffffffffffffff16815260200190815260200160002080548061382157613820614e8b565b5b600190038181906000526020600020906008020160008082016000905560018201600090556002820160006101000a81549073ffffffffffffffffffffffffffffffffffffffff021916905560038201600090556004820160006101000a81549060ff0219169055600582016000905560068201600090556007820160006101000a81549060ff02191690556007820160016101000a81549060ff021916905550509055506138df565b5080806138d790614e13565b9150506134e0565b5060005b6009805490508110156139b35760006009828154811061390657613905614eba565b5b90600052602060002001549050836000015181141561399f57600960016009805490506139339190614d54565b8154811061394457613943614eba565b5b90600052602060002001546009838154811061396357613962614eba565b5b9060005260206000200181905550600980548061398357613982614e8b565b5b60019003818190600052602060002001600090559055506139b3565b5080806139ab90614e13565b9150506138e3565b506007600084815260200190815260200160002060008082016000905560018201600090556002820160006101000a81549073ffffffffffffffffffffffffffffffffffffffff021916905560038201600090556004820160006101000a81549060ff0219169055600582016000905560068201600090556007820160006101000a81549060ff02191690556007820160016101000a81549060ff02191690555050505050565b6040518061012001604052806000815260200160608152602001600081526020016060815260200160008152602001600073ffffffffffffffffffffffffffffffffffffffff168152602001600073ffffffffffffffffffffffffffffffffffffffff1681526020016000151581526020016000151581525090565b828054828255906000526020600020908101928215613b12579160200282015b82811115613b11578251825591602001919060010190613af6565b5b509050613b1f9190613f42565b5090565b6040518061012001604052806000815260200160008152602001600073ffffffffffffffffffffffffffffffffffffffff1681526020016000815260200160001515815260200160008152602001600081526020016000151581526020016000151581525090565b828054828255906000526020600020906008028101928215613cf25760005260206000209160080282015b82811115613cf157828260008201548160000155600182015481600101556002820160009054906101000a900473ffffffffffffffffffffffffffffffffffffffff168160020160006101000a81548173ffffffffffffffffffffffffffffffffffffffff021916908373ffffffffffffffffffffffffffffffffffffffff160217905550600382015481600301556004820160009054906101000a900460ff168160040160006101000a81548160ff02191690831515021790555060058201548160050155600682015481600601556007820160009054906101000a900460ff168160070160006101000a81548160ff0219169083151502179055506007820160019054906101000a900460ff168160070160016101000a81548160ff021916908315150217905550505091600801919060080190613bb6565b5b509050613cff9190613f5f565b5090565b828054828255906000526020600020908101928215613d445760005260206000209182015b82811115613d43578254825591600101919060010190613d28565b5b509050613d519190613f42565b5090565b828054828255906000526020600020906007028101928215613f105760005260206000209160070282015b82811115613f0f578282600082015481600001556001820181600101908054613daa929190613d03565b50600282015481600201556003820181600301908054613dcb929190613d03565b50600482015481600401556005820160009054906101000a900473ffffffffffffffffffffffffffffffffffffffff168160050160006101000a81548173ffffffffffffffffffffffffffffffffffffffff021916908373ffffffffffffffffffffffffffffffffffffffff1602179055506006820160009054906101000a900473ffffffffffffffffffffffffffffffffffffffff168160060160006101000a81548173ffffffffffffffffffffffffffffffffffffffff021916908373ffffffffffffffffffffffffffffffffffffffff1602179055506006820160149054906101000a900460ff168160060160146101000a81548160ff0219169083151502179055506006820160159054906101000a900460ff168160060160156101000a81548160ff021916908315150217905550505091600701919060070190613d80565b5b509050613f1d9190614001565b5090565b5080546000825590600052602060002090810190613f3f9190613f42565b50565b5b80821115613f5b576000816000905550600101613f43565b5090565b5b80821115613ffd5760008082016000905560018201600090556002820160006101000a81549073ffffffffffffffffffffffffffffffffffffffff021916905560038201600090556004820160006101000a81549060ff0219169055600582016000905560068201600090556007820160006101000a81549060ff02191690556007820160016101000a81549060ff021916905550600801613f60565b5090565b5b808211156140c2576000808201600090556001820160006140239190613f21565b600282016000905560038201600061403b9190613f21565b60048201600090556005820160006101000a81549073ffffffffffffffffffffffffffffffffffffffff02191690556006820160006101000a81549073ffffffffffffffffffffffffffffffffffffffff02191690556006820160146101000a81549060ff02191690556006820160156101000a81549060ff021916905550600701614002565b5090565b60006140d96140d484614c50565b614c2b565b905080838252602082019050828560208602820111156140fc576140fb614f1d565b5b60005b8581101561412c578161411288826141cd565b8452602084019350602083019250506001810190506140ff565b5050509392505050565b6000813590506141458161507f565b92915050565b60008151905061415a8161507f565b92915050565b60008135905061416f81615096565b92915050565b600082601f83011261418a57614189614f18565b5b813561419a8482602086016140c6565b91505092915050565b6000813590506141b2816150ad565b92915050565b6000815190506141c7816150ad565b92915050565b6000813590506141dc816150c4565b92915050565b6000815190506141f1816150c4565b92915050565b60006020828403121561420d5761420c614f27565b5b600061421b84828501614136565b91505092915050565b60006020828403121561423a57614239614f27565b5b60006142488482850161414b565b91505092915050565b60006020828403121561426757614266614f27565b5b600061427584828501614160565b91505092915050565b60008060008060008060c0878903121561429b5761429a614f27565b5b60006142a989828a01614136565b965050602087013567ffffffffffffffff8111156142ca576142c9614f22565b5b6142d689828a01614175565b95505060406142e789828a016141cd565b945050606087013567ffffffffffffffff81111561430857614307614f22565b5b61431489828a01614175565b935050608061432589828a016141cd565b92505060a061433689828a016141a3565b9150509295509295509295565b60006020828403121561435957614358614f27565b5b6000614367848285016141b8565b91505092915050565b60006020828403121561438657614385614f27565b5b6000614394848285016141cd565b91505092915050565b6000602082840312156143b3576143b2614f27565b5b60006143c1848285016141e2565b91505092915050565b600080600080600060a086880312156143e6576143e5614f27565b5b60006143f4888289016141cd565b9550506020614405888289016141cd565b9450506040614416888289016141cd565b9350506060614427888289016141cd565b9250506080614438888289016141a3565b9150509295509295909350565b60006144518383614718565b6101208301905092915050565b600061446a8383614886565b905092915050565b600061447e8383614a1e565b60208301905092915050565b61449381614d88565b82525050565b6144a281614d88565b82525050565b60006144b382614cac565b6144bd8185614cf4565b93506144c883614c7c565b8060005b838110156144f95781516144e08882614445565b97506144eb83614ccd565b9250506001810190506144cc565b5085935050505092915050565b600061451182614cb7565b61451b8185614d05565b93508360208202850161452d85614c8c565b8060005b85811015614569578484038952815161454a858261445e565b945061455583614cda565b925060208a01995050600181019050614531565b50829750879550505050505092915050565b600061458682614cc2565b6145908185614d16565b935061459b83614c9c565b8060005b838110156145cc5781516145b38882614472565b97506145be83614ce7565b92505060018101905061459f565b5085935050505092915050565b60006145e482614cc2565b6145ee8185614d27565b93506145f983614c9c565b8060005b8381101561462a5781516146118882614472565b975061461c83614ce7565b9250506001810190506145fd565b5085935050505092915050565b61464081614dac565b82525050565b6000614653603383614d43565b915061465e82614f3d565b604082019050919050565b6000614676602683614d43565b915061468182614f8c565b604082019050919050565b6000614699601483614d43565b91506146a482614fdb565b602082019050919050565b60006146bc602083614d43565b91506146c782615004565b602082019050919050565b60006146df600083614d38565b91506146ea8261502d565b600082019050919050565b6000614702603383614d43565b915061470d82615030565b604082019050919050565b6101208201600082015161472f6000850182614a1e565b5060208201516147426020850182614a1e565b506040820151614755604085018261448a565b5060608201516147686060850182614a1e565b50608082015161477b6080850182614637565b5060a082015161478e60a0850182614a1e565b5060c08201516147a160c0850182614a1e565b5060e08201516147b460e0850182614637565b506101008201516147c9610100850182614637565b50505050565b610120820160008201516147e66000850182614a1e565b5060208201516147f96020850182614a1e565b50604082015161480c604085018261448a565b50606082015161481f6060850182614a1e565b5060808201516148326080850182614637565b5060a082015161484560a0850182614a1e565b5060c082015161485860c0850182614a1e565b5060e082015161486b60e0850182614637565b50610100820151614880610100850182614637565b50505050565b60006101208301600083015161489f6000860182614a1e565b50602083015184820360208601526148b7828261457b565b91505060408301516148cc6040860182614a1e565b50606083015184820360608601526148e4828261457b565b91505060808301516148f96080860182614a1e565b5060a083015161490c60a086018261448a565b5060c083015161491f60c086018261448a565b5060e083015161493260e0860182614637565b50610100830151614947610100860182614637565b508091505092915050565b60006101208301600083015161496b6000860182614a1e565b5060208301518482036020860152614983828261457b565b91505060408301516149986040860182614a1e565b50606083015184820360608601526149b0828261457b565b91505060808301516149c56080860182614a1e565b5060a08301516149d860a086018261448a565b5060c08301516149eb60c086018261448a565b5060e08301516149fe60e0860182614637565b50610100830151614a13610100860182614637565b508091505092915050565b614a2781614dd8565b82525050565b614a3681614dd8565b82525050565b6000614a47826146d2565b9150819050919050565b6000602082019050614a666000830184614499565b92915050565b6000606082019050614a816000830186614499565b614a8e6020830185614499565b614a9b6040830184614a2d565b949350505050565b6000604082019050614ab86000830185614499565b614ac56020830184614a2d565b9392505050565b60006020820190508181036000830152614ae681846144a8565b905092915050565b60006020820190508181036000830152614b088184614506565b905092915050565b60006020820190508181036000830152614b2a81846145d9565b905092915050565b60006020820190508181036000830152614b4b81614646565b9050919050565b60006020820190508181036000830152614b6b81614669565b9050919050565b60006020820190508181036000830152614b8b8161468c565b9050919050565b60006020820190508181036000830152614bab816146af565b9050919050565b60006020820190508181036000830152614bcb816146f5565b9050919050565b600061012082019050614be860008301846147cf565b92915050565b60006020820190508181036000830152614c088184614952565b905092915050565b6000602082019050614c256000830184614a2d565b92915050565b6000614c35614c46565b9050614c418282614de2565b919050565b6000604051905090565b600067ffffffffffffffff821115614c6b57614c6a614ee9565b5b602082029050602081019050919050565b6000819050602082019050919050565b6000819050602082019050919050565b6000819050602082019050919050565b600081519050919050565b600081519050919050565b600081519050919050565b6000602082019050919050565b6000602082019050919050565b6000602082019050919050565b600082825260208201905092915050565b600082825260208201905092915050565b600082825260208201905092915050565b600082825260208201905092915050565b600081905092915050565b600082825260208201905092915050565b6000614d5f82614dd8565b9150614d6a83614dd8565b925082821015614d7d57614d7c614e5c565b5b828203905092915050565b6000614d9382614db8565b9050919050565b6000614da582614db8565b9050919050565b60008115159050919050565b600073ffffffffffffffffffffffffffffffffffffffff82169050919050565b6000819050919050565b614deb82614f2c565b810181811067ffffffffffffffff82111715614e0a57614e09614ee9565b5b80604052505050565b6000614e1e82614dd8565b91507fffffffffffffffffffffffffffffffffffffffffffffffffffffffffffffffff821415614e5157614e50614e5c565b5b600182019050919050565b7f4e487b7100000000000000000000000000000000000000000000000000000000600052601160045260246000fd5b7f4e487b7100000000000000000000000000000000000000000000000000000000600052603160045260246000fd5b7f4e487b7100000000000000000000000000000000000000000000000000000000600052603260045260246000fd5b7f4e487b7100000000000000000000000000000000000000000000000000000000600052604160045260246000fd5b600080fd5b600080fd5b600080fd5b600080fd5b6000601f19601f8301169050919050565b7f566972696469616e45786368616e67653a20496e636f727265637420616d6f7560008201527f6e74207061696420746f2066756e6374696f6e00000000000000000000000000602082015250565b7f4f776e61626c653a206e6577206f776e657220697320746865207a65726f206160008201527f6464726573730000000000000000000000000000000000000000000000000000602082015250565b7f4661696c656420746f2073656e64204574686572000000000000000000000000600082015250565b7f4f776e61626c653a2063616c6c6572206973206e6f7420746865206f776e6572600082015250565b50565b7f566972696469616e45786368616e67653a205573657220646f6573206e6f742060008201527f6861766520656e6f7567682062616c616e636500000000000000000000000000602082015250565b61508881614d88565b811461509357600080fd5b50565b61509f81614d9a565b81146150aa57600080fd5b50565b6150b681614dac565b81146150c157600080fd5b50565b6150cd81614dd8565b81146150d857600080fd5b5056fea264697066735822122020180d75a89efac2392c5b5d9d905577efb3a2d8f20941be5659dc23a4c5f31564736f6c63430008070033",
  "immutableReferences": {},
  "source": "pragma solidity ^0.8.0;\n\nimport \"@openzeppelin/contracts/access/Ownable.sol\";\nimport \"@openzeppelin/contracts/token/ERC721/ERC721.sol\";\nimport \"@openzeppelin/contracts/token/ERC20/IERC20.sol\";\nimport \"@openzeppelin/contracts/token/ERC20/ERC20.sol\";\nimport \"@openzeppelin/contracts/token/ERC721/IERC721.sol\";\n\nimport \"./ViridianNFT.sol\";\n\ncontract ViridianExchange is Ownable {\n\n    struct Offer {\n        uint256 offerId;\n        uint256[] toNftIds;\n        uint toAmt;\n        uint256[] fromNftIds;\n        uint fromAmt;\n        address to;\n        address from;\n        bool isVEXT;\n        bool pending;\n    }\n\n    using Counters for Counters.Counter;\n    Counters.Counter private _listingIds;\n    Counters.Counter private _offerIds;\n\n    //address vNFTContract = \n    \n    struct Listing {\n        uint256 listingId;\n        uint256 tokenId;\n        address owner;\n        uint256 price;\n        bool purchased;\n        uint256 royalty;\n        uint256 endTime;\n        bool sold;\n        bool isVEXT;\n    }\n\n    struct Collection {\n        string description;\n        uint256[] collectionNFTs;\n    }\n\n    //string[] public nftIds;\n    mapping (address => Collection) displayCases;\n    mapping (address => Listing[]) userListings;\n    mapping (address => Offer[]) userOffers;\n    mapping (uint256 => Offer) offers;\n    mapping (uint256 => Listing) listings;\n    address[] private userAddresses;\n    uint256[] private listingIds;\n    uint256[] private offerIds;\n\n    address public viridianNFT;\n    address public ETH;\n    address public viridianToken;\n\n    constructor(address _viridianToken, address _viridianNFT) {\n        require(address(_viridianToken) != address(0)); \n        //require(address(_ETH) != address(0));\n        require(address(_viridianNFT) != address(0));\n\n        viridianToken = _viridianToken;\n        //address _ETH, ETH = _ETH;\n        viridianNFT = _viridianNFT;\n    }\n\n    function getBalance() public view returns (uint) {\n        return address(this).balance;\n    }\n\n    function getListings() public view returns (uint256[] memory) {\n        return listingIds;\n    }\n\n    function getOffers() public view returns (uint256[] memory) {\n        return offerIds;\n    }\n\n    function getListingFromId(uint256 _listingId) public view returns (Listing memory) {\n        return listings[_listingId];\n    }\n\n    function getOffersFromId(uint256 _offerId) public view returns (Offer memory) {\n        return offers[_offerId];\n    }\n\n    function getListingsFromUser(address _userAddr) public view returns (Listing[] memory) {\n        return userListings[_userAddr];\n    }\n\n    function getOffersFromUser(address _userAddr) public view returns (Offer[] memory) {\n        return userOffers[_userAddr];\n    }\n\n    function getNftOwner(uint256 _nftId) public view returns (address) {\n        return IERC721(viridianNFT).ownerOf(_nftId);\n    }\n\n    function sendEther(address payable _to) public payable {\n        // Call returns a boolean value indicating success or failure.\n        // This is the current recommended method to use.\n        (bool sent, bytes memory data) = _to.call{value: msg.value}(\"\");\n        require(sent, \"Failed to send Ether\");\n    }\n\n    function putUpForSale(uint256 _nftId, uint256 _price, uint256 _royalty, uint256 _endTime, bool _isVEXT) public payable {\n        require(getNftOwner(_nftId) == msg.sender);\n\n        _listingIds.increment();\n        uint256 _listingId = _listingIds.current();\n        Listing memory saleListing;\n        saleListing.listingId = _listingId;\n        saleListing.tokenId = _nftId;\n        saleListing.owner = msg.sender;\n        saleListing.price = _price;\n        saleListing.purchased = false;\n        saleListing.royalty = _royalty;\n        saleListing.endTime = _endTime;\n        saleListing.sold = false;\n        saleListing.isVEXT = _isVEXT;\n\n        //_listingId, _nftId, msg.sender, _price, false, \n        //                                    _royalty, _isAuction, _endTime, Bid(msg.sender, 0, _isVEXT), new Bid[](0), false, _isVEXT);\n        userListings[msg.sender].push(saleListing);\n        listings[_listingId] = saleListing;\n        listingIds.push(saleListing.listingId);\n\n        //IERC721(viridianNFT).approve(address(this), _nftId);\n        //IERC721(viridianNFT).safeTransferFrom(msg.sender, address(this), _nftId);\n    }\n    \n    function pullFromSale(uint256 _listingId) public payable {\n        Listing memory curListing = listings[_listingId];\n        require(curListing.owner == msg.sender);\n        //IERC721(viridianNFT).safeTransferFrom(address(this), msg.sender, curListing.tokenId);\n        Listing[] storage curUserListings = userListings[msg.sender];\n        for (uint i = 0; i < curUserListings.length; i++) {\n            Listing memory listing = curUserListings[i];\n            if (listing.listingId == curListing.listingId) {\n                curUserListings[i] = curUserListings[curUserListings.length - 1];\n                userListings[msg.sender] = curUserListings;\n                userListings[msg.sender].pop();\n                break;\n            }\n        }\n\n        for (uint256 i = 0; i < listingIds.length; i++) {\n            uint256 listingId = listingIds[i];\n            if (listingId == curListing.listingId) {\n                listingIds[i] = listingIds[listingIds.length - 1];\n                listingIds.pop();\n                break;\n            }\n        }\n\n        delete listings[_listingId];\n    }\n\n    function pullFromSaleOnBuy(uint256 _listingId) private {\n        Listing memory curListing = listings[_listingId];\n        //IERC721(viridianNFT).safeTransferFrom(address(this), msg.sender, curListing.tokenId);\n        Listing[] storage curUserListings = userListings[curListing.owner];\n        for (uint i = 0; i < curUserListings.length; i++) {\n            Listing memory listing = curUserListings[i];\n            if (listing.listingId == curListing.listingId) {\n                curUserListings[i] = curUserListings[curUserListings.length - 1];\n                userListings[curListing.owner] = curUserListings;\n                userListings[curListing.owner].pop();\n                break;\n            }\n        }\n\n        for (uint256 i = 0; i < listingIds.length; i++) {\n            uint256 listingId = listingIds[i];\n            if (listingId == curListing.listingId) {\n                listingIds[i] = listingIds[listingIds.length - 1];\n                listingIds.pop();\n                break;\n            }\n        }\n\n        delete listings[_listingId];\n    }\n\n    function buyNFTWithETH(uint256 _listingId) public payable {\n        Listing memory curListing = listings[_listingId];\n\n        require(msg.sender.balance >= curListing.price, 'ViridianExchange: User does not have enough balance');\n        address payable ownerWallet = payable(curListing.owner);\n\n        require(msg.value == curListing.price, 'ViridianExchange: Incorrect amount paid to function');\n\n        sendEther(ownerWallet);\n\n        pullFromSaleOnBuy(_listingId);\n        \n        IERC721(viridianNFT).safeTransferFrom(curListing.owner, msg.sender, curListing.tokenId);\n    }\n\n    function buyNFTWithVEXT(uint256 _listingId) public payable {\n        Listing memory curListing = listings[_listingId];\n\n        require(IERC20(viridianToken).balanceOf(msg.sender) >= curListing.price, 'ViridianExchange: User does not have enough balance');\n\n        // TODO: See if this implementation is preferrable\n        // // Approve and transfer VEXT from sender to contract\n        //IERC20(viridianToken).approve(msg.sender, curListing.price);\n        //IERC20(viridianToken).transferFrom(msg.sender, address(this), curListing.price);\n\n        // Approve and transfer VEXT from contract to listing owner\n        //IERC20(viridianToken).approve(address(this), curListing.price);\n        //IERC20(viridianToken).transfer(curListing.owner, curListing.price);\n\n        // Approve and transfer NFT from sender to contract\n        //IERC721(viridianNFT).approve(msg.sender, curListing.tokenId);\n\n        // Approve and transfer NFT from contract to listing owner\n        //IERC721(viridianNFT).approve(address(this), curListing.tokenId);\n        //IERC721(viridianNFT).safeTransferFrom(address(this), msg.sender, curListing.tokenId);\n\n        //IERC20(viridianToken).approve(msg.sender, curListing.price);\n        IERC20(viridianToken).transferFrom(msg.sender, curListing.owner, curListing.price);\n\n        IERC721(viridianNFT).approve(msg.sender, curListing.tokenId);\n        IERC721(viridianNFT).safeTransferFrom(curListing.owner, msg.sender, curListing.tokenId);\n        pullFromSaleOnBuy(_listingId);\n    }\n\n    receive() external payable {}\n\n    // Fallback function is called when msg.data is not empty\n    fallback() external payable {}\n\n    function makeOffer(address _to, uint256[] memory _nftIds, uint256 _amount, uint256[] memory _recNftIds, uint256 _recAmount, bool isVEXT) public {\n        require(_to != msg.sender);\n\n        _offerIds.increment();\n        uint256 _offerId = _offerIds.current();\n\n        Offer memory newOffer = Offer(_offerId, _nftIds, _amount, _recNftIds, _recAmount, _to, msg.sender, isVEXT, true);\n        \n        userOffers[_to].push(newOffer);\n        offers[_offerId] = newOffer;\n        offerIds.push(_offerId);\n    }\n\n    function cancelOffer(uint256 _offerId) public {\n        Offer storage curOffer = offers[_offerId];\n        require(curOffer.from == msg.sender || curOffer.to == msg.sender);\n        Offer[] storage curUserOffers = userOffers[curOffer.to];\n        \n        //TODO: Check who is cancelling and cancel that person's offers.\n\n        // Remove offer from current user's offers\n        for (uint i = 0; i < curUserOffers.length; i++) {\n            Offer memory offer = curUserOffers[i];\n            if (offer.offerId == curOffer.offerId) {\n                curUserOffers[i] = curUserOffers[curUserOffers.length - 1];\n                userOffers[curOffer.to] = curUserOffers;\n                userOffers[curOffer.to].pop();\n                break;\n            }\n        } \n\n        // Remove offer id from global list of offer ids\n        for (uint256 i = 0; i < offerIds.length; i++) {\n            uint256 offerId = offerIds[i];\n            if (offerId == curOffer.offerId) {\n                offerIds[i] = offerIds[offerIds.length - 1];\n                offerIds.pop();\n                break;\n            }\n        }\n\n        // Remove offer from global mapping of offers\n        delete offers[_offerId];\n    }\n\n    //TODO: Figure out how to send eth from \"from\" wallet to \"to\" wallet.\n    function acceptOfferWithETH(uint256 _offerId) public payable {\n        Offer storage curOffer = offers[_offerId];\n\n        require(curOffer.to != msg.sender);\n\n        address payable ownerWallet = payable(curOffer.from);\n\n        sendEther(ownerWallet);\n\n        cancelOffer(_offerId);\n    }\n\n    function acceptOfferWithVEXT(uint256 _offerId) public {\n        Offer storage curOffer = offers[_offerId];\n\n        IERC20(viridianToken).transferFrom(curOffer.from, msg.sender, curOffer.fromAmt);\n        IERC20(viridianToken).transfer(curOffer.from, curOffer.toAmt);\n\n        // Loop through all of the to items in the offer.\n        for (uint i = 0; i < curOffer.toNftIds.length; i++) {\n            IERC721(viridianNFT).approve(msg.sender, curOffer.fromNftIds[i]);\n            IERC721(viridianNFT).safeTransferFrom(curOffer.from, msg.sender, curOffer.toNftIds[i]);\n        }\n\n        // Loop through all of the from items in the offer.\n        for (uint i = 0; i < curOffer.fromNftIds.length; i++) {\n            IERC721(viridianNFT).approve(msg.sender, curOffer.fromNftIds[i]);\n            IERC721(viridianNFT).safeTransferFrom(curOffer.to, curOffer.from, curOffer.fromNftIds[i]);\n        }\n    }\n}",
  "sourcePath": "/Users/blakehatch/Viridian-Exchange-Contracts/contracts/ViridianExchange.sol",
  "compiler": {
    "name": "solc",
    "version": "0.8.7+commit.e28d00a7.Emscripten.clang"
  },
  "schemaVersion": "3.4.1",
  "updatedAt": "2021-08-17T21:11:38.685Z",
  "networkType": "ethereum",
  "devdoc": {
    "kind": "dev",
    "methods": {
      "owner()": {
        "details": "Returns the address of the current owner."
      },
      "renounceOwnership()": {
        "details": "Leaves the contract without owner. It will not be possible to call `onlyOwner` functions anymore. Can only be called by the current owner. NOTE: Renouncing ownership will leave the contract without an owner, thereby removing any functionality that is only available to the owner."
      },
      "transferOwnership(address)": {
        "details": "Transfers ownership of the contract to a new account (`newOwner`). Can only be called by the current owner."
      }
    },
    "version": 1
  },
  "userdoc": {
    "kind": "user",
    "methods": {},
    "version": 1
  }
}