{
  "contractName": "ViridianExchange",
  "abi": [
    {
      "inputs": [
        {
          "internalType": "address",
          "name": "_erc20Token",
          "type": "address"
        },
        {
          "internalType": "address",
          "name": "_viridianNFT",
          "type": "address"
        },
        {
          "internalType": "address",
          "name": "_viridianPack",
          "type": "address"
        }
      ],
      "stateMutability": "nonpayable",
      "type": "constructor"
    },
    {
      "anonymous": false,
      "inputs": [
        {
          "indexed": false,
          "internalType": "uint256",
          "name": "listingId",
          "type": "uint256"
        },
        {
          "indexed": false,
          "internalType": "address",
          "name": "wallet",
          "type": "address"
        },
        {
          "indexed": false,
          "internalType": "bool",
          "name": "listed",
          "type": "bool"
        }
      ],
      "name": "ItemListed",
      "type": "event"
    },
    {
      "anonymous": false,
      "inputs": [
        {
          "indexed": false,
          "internalType": "uint256",
          "name": "listingId",
          "type": "uint256"
        },
        {
          "indexed": false,
          "internalType": "address",
          "name": "wallet",
          "type": "address"
        },
        {
          "indexed": false,
          "internalType": "bool",
          "name": "listed",
          "type": "bool"
        }
      ],
      "name": "ItemUnlisted",
      "type": "event"
    },
    {
      "anonymous": false,
      "inputs": [
        {
          "indexed": true,
          "internalType": "address",
          "name": "previousOwner",
          "type": "address"
        },
        {
          "indexed": true,
          "internalType": "address",
          "name": "newOwner",
          "type": "address"
        }
      ],
      "name": "OwnershipTransferred",
      "type": "event"
    },
    {
      "anonymous": false,
      "inputs": [
        {
          "indexed": false,
          "internalType": "uint256",
          "name": "listingId",
          "type": "uint256"
        },
        {
          "indexed": false,
          "internalType": "address",
          "name": "wallet",
          "type": "address"
        },
        {
          "indexed": false,
          "internalType": "bool",
          "name": "purchased",
          "type": "bool"
        }
      ],
      "name": "PurchasedListing",
      "type": "event"
    },
    {
      "inputs": [
        {
          "internalType": "address",
          "name": "",
          "type": "address"
        }
      ],
      "name": "approvedTokens",
      "outputs": [
        {
          "internalType": "bool",
          "name": "",
          "type": "bool"
        }
      ],
      "stateMutability": "view",
      "type": "function",
      "constant": true
    },
    {
      "inputs": [],
      "name": "owner",
      "outputs": [
        {
          "internalType": "address",
          "name": "",
          "type": "address"
        }
      ],
      "stateMutability": "view",
      "type": "function",
      "constant": true
    },
    {
      "inputs": [],
      "name": "renounceOwnership",
      "outputs": [],
      "stateMutability": "nonpayable",
      "type": "function"
    },
    {
      "inputs": [
        {
          "internalType": "address",
          "name": "newOwner",
          "type": "address"
        }
      ],
      "name": "transferOwnership",
      "outputs": [],
      "stateMutability": "nonpayable",
      "type": "function"
    },
    {
      "inputs": [],
      "name": "viridianNFT",
      "outputs": [
        {
          "internalType": "address",
          "name": "",
          "type": "address"
        }
      ],
      "stateMutability": "view",
      "type": "function",
      "constant": true
    },
    {
      "inputs": [],
      "name": "viridianPack",
      "outputs": [
        {
          "internalType": "address",
          "name": "",
          "type": "address"
        }
      ],
      "stateMutability": "view",
      "type": "function",
      "constant": true
    },
    {
      "inputs": [
        {
          "internalType": "address",
          "name": "_erc20Address",
          "type": "address"
        }
      ],
      "name": "addERC20Token",
      "outputs": [
        {
          "internalType": "uint256",
          "name": "",
          "type": "uint256"
        }
      ],
      "stateMutability": "nonpayable",
      "type": "function"
    },
    {
      "inputs": [],
      "name": "getBalance",
      "outputs": [
        {
          "internalType": "uint256",
          "name": "",
          "type": "uint256"
        }
      ],
      "stateMutability": "view",
      "type": "function",
      "constant": true
    },
    {
      "inputs": [],
      "name": "getListings",
      "outputs": [
        {
          "internalType": "uint256[]",
          "name": "",
          "type": "uint256[]"
        }
      ],
      "stateMutability": "view",
      "type": "function",
      "constant": true
    },
    {
      "inputs": [
        {
          "internalType": "uint256",
          "name": "_listingId",
          "type": "uint256"
        }
      ],
      "name": "getListingFromId",
      "outputs": [
        {
          "components": [
            {
              "internalType": "uint256",
              "name": "listingId",
              "type": "uint256"
            },
            {
              "internalType": "uint256",
              "name": "tokenId",
              "type": "uint256"
            },
            {
              "internalType": "address",
              "name": "owner",
              "type": "address"
            },
            {
              "internalType": "uint256",
              "name": "price",
              "type": "uint256"
            },
            {
              "internalType": "bool",
              "name": "purchased",
              "type": "bool"
            },
            {
              "internalType": "uint256",
              "name": "royalty",
              "type": "uint256"
            },
            {
              "internalType": "uint256",
              "name": "endTime",
              "type": "uint256"
            },
            {
              "internalType": "bool",
              "name": "sold",
              "type": "bool"
            },
            {
              "internalType": "address",
              "name": "erc20Address",
              "type": "address"
            },
            {
              "internalType": "bool",
              "name": "isVNFT",
              "type": "bool"
            },
            {
              "internalType": "uint256",
              "name": "timeListed",
              "type": "uint256"
            }
          ],
          "internalType": "struct ViridianExchange.Listing",
          "name": "",
          "type": "tuple"
        }
      ],
      "stateMutability": "view",
      "type": "function",
      "constant": true
    },
    {
      "inputs": [
        {
          "internalType": "address",
          "name": "_userAddr",
          "type": "address"
        }
      ],
      "name": "getListingsFromUser",
      "outputs": [
        {
          "components": [
            {
              "internalType": "uint256",
              "name": "listingId",
              "type": "uint256"
            },
            {
              "internalType": "uint256",
              "name": "tokenId",
              "type": "uint256"
            },
            {
              "internalType": "address",
              "name": "owner",
              "type": "address"
            },
            {
              "internalType": "uint256",
              "name": "price",
              "type": "uint256"
            },
            {
              "internalType": "bool",
              "name": "purchased",
              "type": "bool"
            },
            {
              "internalType": "uint256",
              "name": "royalty",
              "type": "uint256"
            },
            {
              "internalType": "uint256",
              "name": "endTime",
              "type": "uint256"
            },
            {
              "internalType": "bool",
              "name": "sold",
              "type": "bool"
            },
            {
              "internalType": "address",
              "name": "erc20Address",
              "type": "address"
            },
            {
              "internalType": "bool",
              "name": "isVNFT",
              "type": "bool"
            },
            {
              "internalType": "uint256",
              "name": "timeListed",
              "type": "uint256"
            }
          ],
          "internalType": "struct ViridianExchange.Listing[]",
          "name": "",
          "type": "tuple[]"
        }
      ],
      "stateMutability": "view",
      "type": "function",
      "constant": true
    },
    {
      "inputs": [
        {
          "internalType": "uint256",
          "name": "_nftId",
          "type": "uint256"
        }
      ],
      "name": "getNftOwner",
      "outputs": [
        {
          "internalType": "address",
          "name": "",
          "type": "address"
        }
      ],
      "stateMutability": "view",
      "type": "function",
      "constant": true
    },
    {
      "inputs": [
        {
          "internalType": "uint256",
          "name": "_nftId",
          "type": "uint256"
        }
      ],
      "name": "getPackOwner",
      "outputs": [
        {
          "internalType": "address",
          "name": "",
          "type": "address"
        }
      ],
      "stateMutability": "view",
      "type": "function",
      "constant": true
    },
    {
      "inputs": [
        {
          "internalType": "uint256",
          "name": "_nftId",
          "type": "uint256"
        },
        {
          "internalType": "uint256",
          "name": "_price",
          "type": "uint256"
        },
        {
          "internalType": "uint256",
          "name": "_royalty",
          "type": "uint256"
        },
        {
          "internalType": "uint256",
          "name": "_endTime",
          "type": "uint256"
        },
        {
          "internalType": "address",
          "name": "_erc20Address",
          "type": "address"
        },
        {
          "internalType": "bool",
          "name": "_isVNFT",
          "type": "bool"
        }
      ],
      "name": "putUpForSale",
      "outputs": [],
      "stateMutability": "nonpayable",
      "type": "function"
    },
    {
      "inputs": [
        {
          "internalType": "uint256",
          "name": "_listingId",
          "type": "uint256"
        },
        {
          "internalType": "uint256",
          "name": "_newPrice",
          "type": "uint256"
        }
      ],
      "name": "changeSalePrice",
      "outputs": [],
      "stateMutability": "nonpayable",
      "type": "function"
    },
    {
      "inputs": [
        {
          "internalType": "uint256",
          "name": "_listingId",
          "type": "uint256"
        }
      ],
      "name": "pullFromSale",
      "outputs": [],
      "stateMutability": "nonpayable",
      "type": "function"
    },
    {
      "inputs": [
        {
          "internalType": "uint256",
          "name": "_listingId",
          "type": "uint256"
        }
      ],
      "name": "buyNFTWithERC20",
      "outputs": [],
      "stateMutability": "nonpayable",
      "type": "function"
    }
  ],
  "bytecode": "0x60806040523480156200001157600080fd5b50604051620043163803806200431683398181016040528101906200003791906200044b565b620000576200004b6200031560201b60201c565b6200031d60201b60201c565b600073ffffffffffffffffffffffffffffffffffffffff168373ffffffffffffffffffffffffffffffffffffffff161415620000ca576040517f08c379a0000000000000000000000000000000000000000000000000000000008152600401620000c1906200052e565b60405180910390fd5b600073ffffffffffffffffffffffffffffffffffffffff168273ffffffffffffffffffffffffffffffffffffffff1614156200013d576040517f08c379a000000000000000000000000000000000000000000000000000000000815260040162000134906200052e565b60405180910390fd5b600073ffffffffffffffffffffffffffffffffffffffff168173ffffffffffffffffffffffffffffffffffffffff161415620001b0576040517f08c379a0000000000000000000000000000000000000000000000000000000008152600401620001a7906200052e565b60405180910390fd5b6001600a60008573ffffffffffffffffffffffffffffffffffffffff1673ffffffffffffffffffffffffffffffffffffffff16815260200190815260200160002060006101000a81548160ff02191690831515021790555081600860006101000a81548173ffffffffffffffffffffffffffffffffffffffff021916908373ffffffffffffffffffffffffffffffffffffffff16021790555080600960006101000a81548173ffffffffffffffffffffffffffffffffffffffff021916908373ffffffffffffffffffffffffffffffffffffffff16021790555081600260006101000a81548173ffffffffffffffffffffffffffffffffffffffff021916908373ffffffffffffffffffffffffffffffffffffffff16021790555080600360006101000a81548173ffffffffffffffffffffffffffffffffffffffff021916908373ffffffffffffffffffffffffffffffffffffffff16021790555050505062000550565b600033905090565b60008060009054906101000a900473ffffffffffffffffffffffffffffffffffffffff169050816000806101000a81548173ffffffffffffffffffffffffffffffffffffffff021916908373ffffffffffffffffffffffffffffffffffffffff1602179055508173ffffffffffffffffffffffffffffffffffffffff168173ffffffffffffffffffffffffffffffffffffffff167f8be0079c531659141344cd1fd0a4f28419497f9722a3daafe3b4186f6b6457e060405160405180910390a35050565b600080fd5b600073ffffffffffffffffffffffffffffffffffffffff82169050919050565b60006200041382620003e6565b9050919050565b620004258162000406565b81146200043157600080fd5b50565b60008151905062000445816200041a565b92915050565b600080600060608486031215620004675762000466620003e1565b5b6000620004778682870162000434565b93505060206200048a8682870162000434565b92505060406200049d8682870162000434565b9150509250925092565b600082825260208201905092915050565b7f546f6b656e2061646472657373206d757374206e6f742062652074686520302060008201527f6164647265737300000000000000000000000000000000000000000000000000602082015250565b600062000516602783620004a7565b91506200052382620004b8565b604082019050919050565b60006020820190508181036000830152620005498162000507565b9050919050565b613db680620005606000396000f3fe608060405234801561001057600080fd5b506004361061010b5760003560e01c80639dfc183a116100a2578063c82e474b11610071578063c82e474b146102b8578063d3e6a7ad146102d4578063f1b2d6a314610304578063f2fde38b14610322578063fe257afc1461033e5761010b565b80639dfc183a14610220578063a19b56ac1461023c578063af62c6841461026c578063bddb06f31461029c5761010b565b80638ad2d5a7116100de5780638ad2d5a7146101845780638da5cb5b146101b4578063971ccc16146101d25780639a701288146102025761010b565b806312065fe01461011057806366e3e1221461012e5780636d1ea3fa1461014a578063715018a61461017a575b600080fd5b61011861035c565b6040516101259190613121565b60405180910390f35b6101486004803603810190610143919061316d565b610364565b005b610164600480360381019061015f91906131f8565b6109b9565b6040516101719190613240565b60405180910390f35b6101826109d9565b005b61019e6004803603810190610199919061316d565b610a61565b6040516101ab919061326a565b60405180910390f35b6101bc610b06565b6040516101c9919061326a565b60405180910390f35b6101ec60048036038101906101e791906131f8565b610b2f565b6040516101f99190613121565b60405180910390f35b61020a610c0a565b604051610217919061326a565b60405180910390f35b61023a600480360381019061023591906132b1565b610c30565b005b6102566004803603810190610251919061316d565b6114e6565b604051610263919061344c565b60405180910390f35b610286600480360381019061028191906131f8565b61164d565b60405161029391906135f9565b60405180910390f35b6102b660048036038101906102b1919061316d565b611825565b005b6102d260048036038101906102cd919061361b565b612249565b005b6102ee60048036038101906102e9919061316d565b612268565b6040516102fb919061326a565b60405180910390f35b61030c61230d565b604051610319919061370a565b60405180910390f35b61033c600480360381019061033791906131f8565b612365565b005b61034661245d565b604051610353919061326a565b60405180910390f35b600047905090565b6000600560008381526020019081526020016000206040518061016001604052908160008201548152602001600182015481526020016002820160009054906101000a900473ffffffffffffffffffffffffffffffffffffffff1673ffffffffffffffffffffffffffffffffffffffff1673ffffffffffffffffffffffffffffffffffffffff168152602001600382015481526020016004820160009054906101000a900460ff1615151515815260200160058201548152602001600682015481526020016007820160009054906101000a900460ff161515151581526020016007820160019054906101000a900473ffffffffffffffffffffffffffffffffffffffff1673ffffffffffffffffffffffffffffffffffffffff1673ffffffffffffffffffffffffffffffffffffffff1681526020016007820160159054906101000a900460ff1615151515815260200160088201548152505090508061012001511561072457600260009054906101000a900473ffffffffffffffffffffffffffffffffffffffff1673ffffffffffffffffffffffffffffffffffffffff1663ad3a358c82602001516040518263ffffffff1660e01b815260040161052a9190613121565b600060405180830381600087803b15801561054457600080fd5b505af1158015610558573d6000803e3d6000fd5b5050505080610100015173ffffffffffffffffffffffffffffffffffffffff166323b872dd33836040015184606001516040518463ffffffff1660e01b81526004016105a69392919061372c565b6020604051808303816000875af11580156105c5573d6000803e3d6000fd5b505050506040513d601f19601f820116820180604052508101906105e99190613778565b50600860009054906101000a900473ffffffffffffffffffffffffffffffffffffffff1673ffffffffffffffffffffffffffffffffffffffff1663095ea7b33383602001516040518363ffffffff1660e01b815260040161064b9291906137a5565b600060405180830381600087803b15801561066557600080fd5b505af1158015610679573d6000803e3d6000fd5b50505050600860009054906101000a900473ffffffffffffffffffffffffffffffffffffffff1673ffffffffffffffffffffffffffffffffffffffff166342842e0e82604001513384602001516040518463ffffffff1660e01b81526004016106e49392919061372c565b600060405180830381600087803b1580156106fe57600080fd5b505af1158015610712573d6000803e3d6000fd5b5050505061071f82612483565b610979565b600360009054906101000a900473ffffffffffffffffffffffffffffffffffffffff1673ffffffffffffffffffffffffffffffffffffffff1663ad3a358c82602001516040518263ffffffff1660e01b81526004016107839190613121565b600060405180830381600087803b15801561079d57600080fd5b505af11580156107b1573d6000803e3d6000fd5b5050505080610100015173ffffffffffffffffffffffffffffffffffffffff166323b872dd33836040015184606001516040518463ffffffff1660e01b81526004016107ff9392919061372c565b6020604051808303816000875af115801561081e573d6000803e3d6000fd5b505050506040513d601f19601f820116820180604052508101906108429190613778565b50600960009054906101000a900473ffffffffffffffffffffffffffffffffffffffff1673ffffffffffffffffffffffffffffffffffffffff1663095ea7b33383602001516040518363ffffffff1660e01b81526004016108a49291906137a5565b600060405180830381600087803b1580156108be57600080fd5b505af11580156108d2573d6000803e3d6000fd5b50505050600960009054906101000a900473ffffffffffffffffffffffffffffffffffffffff1673ffffffffffffffffffffffffffffffffffffffff166342842e0e82604001513384602001516040518463ffffffff1660e01b815260040161093d9392919061372c565b600060405180830381600087803b15801561095757600080fd5b505af115801561096b573d6000803e3d6000fd5b5050505061097882612483565b5b7fbfd6b7eeb755419d1bc8be178762543a689ac6c5f6e24275edf61440f8ad3410823360016040516109ad939291906137ce565b60405180910390a15050565b600a6020528060005260406000206000915054906101000a900460ff1681565b6109e1612cd2565b73ffffffffffffffffffffffffffffffffffffffff166109ff610b06565b73ffffffffffffffffffffffffffffffffffffffff1614610a55576040517f08c379a0000000000000000000000000000000000000000000000000000000008152600401610a4c90613862565b60405180910390fd5b610a5f6000612cda565b565b6000600860009054906101000a900473ffffffffffffffffffffffffffffffffffffffff1673ffffffffffffffffffffffffffffffffffffffff16636352211e836040518263ffffffff1660e01b8152600401610abe9190613121565b602060405180830381865afa158015610adb573d6000803e3d6000fd5b505050506040513d601f19601f82011682018060405250810190610aff9190613897565b9050919050565b60008060009054906101000a900473ffffffffffffffffffffffffffffffffffffffff16905090565b6000610b39612cd2565b73ffffffffffffffffffffffffffffffffffffffff16610b57610b06565b73ffffffffffffffffffffffffffffffffffffffff1614610bad576040517f08c379a0000000000000000000000000000000000000000000000000000000008152600401610ba490613862565b60405180910390fd5b6001600a60008473ffffffffffffffffffffffffffffffffffffffff1673ffffffffffffffffffffffffffffffffffffffff16815260200190815260200160002060006101000a81548160ff021916908315150217905550919050565b600860009054906101000a900473ffffffffffffffffffffffffffffffffffffffff1681565b600a60008373ffffffffffffffffffffffffffffffffffffffff1673ffffffffffffffffffffffffffffffffffffffff16815260200190815260200160002060009054906101000a900460ff16610cbc576040517f08c379a0000000000000000000000000000000000000000000000000000000008152600401610cb390613936565b60405180910390fd5b8015610e19573373ffffffffffffffffffffffffffffffffffffffff16610ce287610a61565b73ffffffffffffffffffffffffffffffffffffffff1614610d38576040517f08c379a0000000000000000000000000000000000000000000000000000000008152600401610d2f906139a2565b60405180910390fd5b600260009054906101000a900473ffffffffffffffffffffffffffffffffffffffff1673ffffffffffffffffffffffffffffffffffffffff1663fcce4883876040518263ffffffff1660e01b8152600401610d939190613121565b602060405180830381865afa158015610db0573d6000803e3d6000fd5b505050506040513d601f19601f82011682018060405250810190610dd49190613778565b15610e14576040517f08c379a0000000000000000000000000000000000000000000000000000000008152600401610e0b90613a34565b60405180910390fd5b610f6c565b3373ffffffffffffffffffffffffffffffffffffffff16610e3987612268565b73ffffffffffffffffffffffffffffffffffffffff1614610e8f576040517f08c379a0000000000000000000000000000000000000000000000000000000008152600401610e8690613aa0565b60405180910390fd5b600360009054906101000a900473ffffffffffffffffffffffffffffffffffffffff1673ffffffffffffffffffffffffffffffffffffffff1663fcce4883876040518263ffffffff1660e01b8152600401610eea9190613121565b602060405180830381865afa158015610f07573d6000803e3d6000fd5b505050506040513d601f19601f82011682018060405250810190610f2b9190613778565b15610f6b576040517f08c379a0000000000000000000000000000000000000000000000000000000008152600401610f6290613b32565b60405180910390fd5b5b610f766001612d9e565b6000610f826001612db4565b9050610f8c612dc2565b818160000181815250508781602001818152505033816040019073ffffffffffffffffffffffffffffffffffffffff16908173ffffffffffffffffffffffffffffffffffffffff1681525050868160600181815250506000816080019015159081151581525050858160a0018181525050848160c001818152505060008160e00190151590811515815250508381610100019073ffffffffffffffffffffffffffffffffffffffff16908173ffffffffffffffffffffffffffffffffffffffff168152505082816101200190151590811515815250504281610140018181525050600460003373ffffffffffffffffffffffffffffffffffffffff1673ffffffffffffffffffffffffffffffffffffffff168152602001908152602001600020819080600181540180825580915050600190039060005260206000209060090201600090919091909150600082015181600001556020820151816001015560408201518160020160006101000a81548173ffffffffffffffffffffffffffffffffffffffff021916908373ffffffffffffffffffffffffffffffffffffffff1602179055506060820151816003015560808201518160040160006101000a81548160ff02191690831515021790555060a0820151816005015560c0820151816006015560e08201518160070160006101000a81548160ff0219169083151502179055506101008201518160070160016101000a81548173ffffffffffffffffffffffffffffffffffffffff021916908373ffffffffffffffffffffffffffffffffffffffff1602179055506101208201518160070160156101000a81548160ff021916908315150217905550610140820151816008015550508060056000848152602001908152602001600020600082015181600001556020820151816001015560408201518160020160006101000a81548173ffffffffffffffffffffffffffffffffffffffff021916908373ffffffffffffffffffffffffffffffffffffffff1602179055506060820151816003015560808201518160040160006101000a81548160ff02191690831515021790555060a0820151816005015560c0820151816006015560e08201518160070160006101000a81548160ff0219169083151502179055506101008201518160070160016101000a81548173ffffffffffffffffffffffffffffffffffffffff021916908373ffffffffffffffffffffffffffffffffffffffff1602179055506101208201518160070160156101000a81548160ff0219169083151502179055506101408201518160080155905050600781600001519080600181540180825580915050600190039060005260206000200160009091909190915055821561140e57600260009054906101000a900473ffffffffffffffffffffffffffffffffffffffff1673ffffffffffffffffffffffffffffffffffffffff1663e6148d5f896040518263ffffffff1660e01b81526004016113d79190613121565b600060405180830381600087803b1580156113f157600080fd5b505af1158015611405573d6000803e3d6000fd5b5050505061149c565b600360009054906101000a900473ffffffffffffffffffffffffffffffffffffffff1673ffffffffffffffffffffffffffffffffffffffff1663e6148d5f896040518263ffffffff1660e01b81526004016114699190613121565b600060405180830381600087803b15801561148357600080fd5b505af1158015611497573d6000803e3d6000fd5b505050505b7fb2e1c7607b9530ee637cb783bfacdf6ddabafccde2b516c0b340bce2c46f674b82826040015160016040516114d4939291906137ce565b60405180910390a15050505050505050565b6114ee612dc2565b600560008381526020019081526020016000206040518061016001604052908160008201548152602001600182015481526020016002820160009054906101000a900473ffffffffffffffffffffffffffffffffffffffff1673ffffffffffffffffffffffffffffffffffffffff1673ffffffffffffffffffffffffffffffffffffffff168152602001600382015481526020016004820160009054906101000a900460ff1615151515815260200160058201548152602001600682015481526020016007820160009054906101000a900460ff161515151581526020016007820160019054906101000a900473ffffffffffffffffffffffffffffffffffffffff1673ffffffffffffffffffffffffffffffffffffffff1673ffffffffffffffffffffffffffffffffffffffff1681526020016007820160159054906101000a900460ff161515151581526020016008820154815250509050919050565b6060600460008373ffffffffffffffffffffffffffffffffffffffff1673ffffffffffffffffffffffffffffffffffffffff168152602001908152602001600020805480602002602001604051908101604052809291908181526020016000905b8282101561181a57838290600052602060002090600902016040518061016001604052908160008201548152602001600182015481526020016002820160009054906101000a900473ffffffffffffffffffffffffffffffffffffffff1673ffffffffffffffffffffffffffffffffffffffff1673ffffffffffffffffffffffffffffffffffffffff168152602001600382015481526020016004820160009054906101000a900460ff1615151515815260200160058201548152602001600682015481526020016007820160009054906101000a900460ff161515151581526020016007820160019054906101000a900473ffffffffffffffffffffffffffffffffffffffff1673ffffffffffffffffffffffffffffffffffffffff1673ffffffffffffffffffffffffffffffffffffffff1681526020016007820160159054906101000a900460ff16151515158152602001600882015481525050815260200190600101906116ae565b505050509050919050565b6000600560008381526020019081526020016000206040518061016001604052908160008201548152602001600182015481526020016002820160009054906101000a900473ffffffffffffffffffffffffffffffffffffffff1673ffffffffffffffffffffffffffffffffffffffff1673ffffffffffffffffffffffffffffffffffffffff168152602001600382015481526020016004820160009054906101000a900460ff1615151515815260200160058201548152602001600682015481526020016007820160009054906101000a900460ff161515151581526020016007820160019054906101000a900473ffffffffffffffffffffffffffffffffffffffff1673ffffffffffffffffffffffffffffffffffffffff1673ffffffffffffffffffffffffffffffffffffffff1681526020016007820160159054906101000a900460ff1615151515815260200160088201548152505090503373ffffffffffffffffffffffffffffffffffffffff16816040015173ffffffffffffffffffffffffffffffffffffffff16146119f3576040517f08c379a00000000000000000000000000000000000000000000000000000000081526004016119ea90613bc4565b60405180910390fd5b80610120015115611a9457600260009054906101000a900473ffffffffffffffffffffffffffffffffffffffff1673ffffffffffffffffffffffffffffffffffffffff1663ad3a358c82602001516040518263ffffffff1660e01b8152600401611a5d9190613121565b600060405180830381600087803b158015611a7757600080fd5b505af1158015611a8b573d6000803e3d6000fd5b50505050611b26565b600360009054906101000a900473ffffffffffffffffffffffffffffffffffffffff1673ffffffffffffffffffffffffffffffffffffffff1663ad3a358c82602001516040518263ffffffff1660e01b8152600401611af39190613121565b600060405180830381600087803b158015611b0d57600080fd5b505af1158015611b21573d6000803e3d6000fd5b505050505b6000600460003373ffffffffffffffffffffffffffffffffffffffff1673ffffffffffffffffffffffffffffffffffffffff168152602001908152602001600020905060005b8180549050811015612063576000828281548110611b8d57611b8c613be4565b5b90600052602060002090600902016040518061016001604052908160008201548152602001600182015481526020016002820160009054906101000a900473ffffffffffffffffffffffffffffffffffffffff1673ffffffffffffffffffffffffffffffffffffffff1673ffffffffffffffffffffffffffffffffffffffff168152602001600382015481526020016004820160009054906101000a900460ff1615151515815260200160058201548152602001600682015481526020016007820160009054906101000a900460ff161515151581526020016007820160019054906101000a900473ffffffffffffffffffffffffffffffffffffffff1673ffffffffffffffffffffffffffffffffffffffff1673ffffffffffffffffffffffffffffffffffffffff1681526020016007820160159054906101000a900460ff16151515158152602001600882015481525050905083600001518160000151141561204f578260018480549050611d049190613c42565b81548110611d1557611d14613be4565b5b9060005260206000209060090201838381548110611d3657611d35613be4565b5b906000526020600020906009020160008201548160000155600182015481600101556002820160009054906101000a900473ffffffffffffffffffffffffffffffffffffffff168160020160006101000a81548173ffffffffffffffffffffffffffffffffffffffff021916908373ffffffffffffffffffffffffffffffffffffffff160217905550600382015481600301556004820160009054906101000a900460ff168160040160006101000a81548160ff02191690831515021790555060058201548160050155600682015481600601556007820160009054906101000a900460ff168160070160006101000a81548160ff0219169083151502179055506007820160019054906101000a900473ffffffffffffffffffffffffffffffffffffffff168160070160016101000a81548173ffffffffffffffffffffffffffffffffffffffff021916908373ffffffffffffffffffffffffffffffffffffffff1602179055506007820160159054906101000a900460ff168160070160156101000a81548160ff0219169083151502179055506008820154816008015590505082600460003373ffffffffffffffffffffffffffffffffffffffff1673ffffffffffffffffffffffffffffffffffffffff168152602001908152602001600020908054611f26929190612e4e565b50600460003373ffffffffffffffffffffffffffffffffffffffff1673ffffffffffffffffffffffffffffffffffffffff168152602001908152602001600020805480611f7657611f75613c76565b5b600190038181906000526020600020906009020160008082016000905560018201600090556002820160006101000a81549073ffffffffffffffffffffffffffffffffffffffff021916905560038201600090556004820160006101000a81549060ff0219169055600582016000905560068201600090556007820160006101000a81549060ff02191690556007820160016101000a81549073ffffffffffffffffffffffffffffffffffffffff02191690556007820160156101000a81549060ff021916905560088201600090555050905550612063565b50808061205b90613ca5565b915050611b6c565b5060005b6007805490508110156121375760006007828154811061208a57612089613be4565b5b90600052602060002001549050836000015181141561212357600760016007805490506120b79190613c42565b815481106120c8576120c7613be4565b5b9060005260206000200154600783815481106120e7576120e6613be4565b5b9060005260206000200181905550600780548061210757612106613c76565b5b6001900381819060005260206000200160009055905550612137565b50808061212f90613ca5565b915050612067565b506005600084815260200190815260200160002060008082016000905560018201600090556002820160006101000a81549073ffffffffffffffffffffffffffffffffffffffff021916905560038201600090556004820160006101000a81549060ff0219169055600582016000905560068201600090556007820160006101000a81549060ff02191690556007820160016101000a81549073ffffffffffffffffffffffffffffffffffffffff02191690556007820160156101000a81549060ff0219169055600882016000905550507ff32daf49a924c389e57b78e5f56f1094cc79cd3f52b01e22bd9452bde337b2bb8333600060405161223c939291906137ce565b60405180910390a1505050565b8060056000848152602001908152602001600020600301819055505050565b6000600960009054906101000a900473ffffffffffffffffffffffffffffffffffffffff1673ffffffffffffffffffffffffffffffffffffffff16636352211e836040518263ffffffff1660e01b81526004016122c59190613121565b602060405180830381865afa1580156122e2573d6000803e3d6000fd5b505050506040513d601f19601f820116820180604052508101906123069190613897565b9050919050565b6060600780548060200260200160405190810160405280929190818152602001828054801561235b57602002820191906000526020600020905b815481526020019060010190808311612347575b5050505050905090565b61236d612cd2565b73ffffffffffffffffffffffffffffffffffffffff1661238b610b06565b73ffffffffffffffffffffffffffffffffffffffff16146123e1576040517f08c379a00000000000000000000000000000000000000000000000000000000081526004016123d890613862565b60405180910390fd5b600073ffffffffffffffffffffffffffffffffffffffff168173ffffffffffffffffffffffffffffffffffffffff161415612451576040517f08c379a000000000000000000000000000000000000000000000000000000000815260040161244890613d60565b60405180910390fd5b61245a81612cda565b50565b600960009054906101000a900473ffffffffffffffffffffffffffffffffffffffff1681565b6000600560008381526020019081526020016000206040518061016001604052908160008201548152602001600182015481526020016002820160009054906101000a900473ffffffffffffffffffffffffffffffffffffffff1673ffffffffffffffffffffffffffffffffffffffff1673ffffffffffffffffffffffffffffffffffffffff168152602001600382015481526020016004820160009054906101000a900460ff1615151515815260200160058201548152602001600682015481526020016007820160009054906101000a900460ff161515151581526020016007820160019054906101000a900473ffffffffffffffffffffffffffffffffffffffff1673ffffffffffffffffffffffffffffffffffffffff1673ffffffffffffffffffffffffffffffffffffffff1681526020016007820160159054906101000a900460ff161515151581526020016008820154815250509050600060046000836040015173ffffffffffffffffffffffffffffffffffffffff1673ffffffffffffffffffffffffffffffffffffffff168152602001908152602001600020905060005b8180549050811015612b2857600082828154811061264a57612649613be4565b5b90600052602060002090600902016040518061016001604052908160008201548152602001600182015481526020016002820160009054906101000a900473ffffffffffffffffffffffffffffffffffffffff1673ffffffffffffffffffffffffffffffffffffffff1673ffffffffffffffffffffffffffffffffffffffff168152602001600382015481526020016004820160009054906101000a900460ff1615151515815260200160058201548152602001600682015481526020016007820160009054906101000a900460ff161515151581526020016007820160019054906101000a900473ffffffffffffffffffffffffffffffffffffffff1673ffffffffffffffffffffffffffffffffffffffff1673ffffffffffffffffffffffffffffffffffffffff1681526020016007820160159054906101000a900460ff161515151581526020016008820154815250509050836000015181600001511415612b145782600184805490506127c19190613c42565b815481106127d2576127d1613be4565b5b90600052602060002090600902018383815481106127f3576127f2613be4565b5b906000526020600020906009020160008201548160000155600182015481600101556002820160009054906101000a900473ffffffffffffffffffffffffffffffffffffffff168160020160006101000a81548173ffffffffffffffffffffffffffffffffffffffff021916908373ffffffffffffffffffffffffffffffffffffffff160217905550600382015481600301556004820160009054906101000a900460ff168160040160006101000a81548160ff02191690831515021790555060058201548160050155600682015481600601556007820160009054906101000a900460ff168160070160006101000a81548160ff0219169083151502179055506007820160019054906101000a900473ffffffffffffffffffffffffffffffffffffffff168160070160016101000a81548173ffffffffffffffffffffffffffffffffffffffff021916908373ffffffffffffffffffffffffffffffffffffffff1602179055506007820160159054906101000a900460ff168160070160156101000a81548160ff021916908315150217905550600882015481600801559050508260046000866040015173ffffffffffffffffffffffffffffffffffffffff1673ffffffffffffffffffffffffffffffffffffffff1681526020019081526020016000209080546129e7929190612e4e565b5060046000856040015173ffffffffffffffffffffffffffffffffffffffff1673ffffffffffffffffffffffffffffffffffffffff168152602001908152602001600020805480612a3b57612a3a613c76565b5b600190038181906000526020600020906009020160008082016000905560018201600090556002820160006101000a81549073ffffffffffffffffffffffffffffffffffffffff021916905560038201600090556004820160006101000a81549060ff0219169055600582016000905560068201600090556007820160006101000a81549060ff02191690556007820160016101000a81549073ffffffffffffffffffffffffffffffffffffffff02191690556007820160156101000a81549060ff021916905560088201600090555050905550612b28565b508080612b2090613ca5565b915050612629565b5060005b600780549050811015612bfc57600060078281548110612b4f57612b4e613be4565b5b906000526020600020015490508360000151811415612be85760076001600780549050612b7c9190613c42565b81548110612b8d57612b8c613be4565b5b906000526020600020015460078381548110612bac57612bab613be4565b5b90600052602060002001819055506007805480612bcc57612bcb613c76565b5b6001900381819060005260206000200160009055905550612bfc565b508080612bf490613ca5565b915050612b2c565b506005600084815260200190815260200160002060008082016000905560018201600090556002820160006101000a81549073ffffffffffffffffffffffffffffffffffffffff021916905560038201600090556004820160006101000a81549060ff0219169055600582016000905560068201600090556007820160006101000a81549060ff02191690556007820160016101000a81549073ffffffffffffffffffffffffffffffffffffffff02191690556007820160156101000a81549060ff021916905560088201600090555050505050565b600033905090565b60008060009054906101000a900473ffffffffffffffffffffffffffffffffffffffff169050816000806101000a81548173ffffffffffffffffffffffffffffffffffffffff021916908373ffffffffffffffffffffffffffffffffffffffff1602179055508173ffffffffffffffffffffffffffffffffffffffff168173ffffffffffffffffffffffffffffffffffffffff167f8be0079c531659141344cd1fd0a4f28419497f9722a3daafe3b4186f6b6457e060405160405180910390a35050565b6001816000016000828254019250508190555050565b600081600001549050919050565b6040518061016001604052806000815260200160008152602001600073ffffffffffffffffffffffffffffffffffffffff168152602001600081526020016000151581526020016000815260200160008152602001600015158152602001600073ffffffffffffffffffffffffffffffffffffffff168152602001600015158152602001600081525090565b8280548282559060005260206000209060090281019282156130265760005260206000209160090282015b8281111561302557828260008201548160000155600182015481600101556002820160009054906101000a900473ffffffffffffffffffffffffffffffffffffffff168160020160006101000a81548173ffffffffffffffffffffffffffffffffffffffff021916908373ffffffffffffffffffffffffffffffffffffffff160217905550600382015481600301556004820160009054906101000a900460ff168160040160006101000a81548160ff02191690831515021790555060058201548160050155600682015481600601556007820160009054906101000a900460ff168160070160006101000a81548160ff0219169083151502179055506007820160019054906101000a900473ffffffffffffffffffffffffffffffffffffffff168160070160016101000a81548173ffffffffffffffffffffffffffffffffffffffff021916908373ffffffffffffffffffffffffffffffffffffffff1602179055506007820160159054906101000a900460ff168160070160156101000a81548160ff02191690831515021790555060088201548160080155505091600901919060090190612e79565b5b5090506130339190613037565b5090565b5b808211156131045760008082016000905560018201600090556002820160006101000a81549073ffffffffffffffffffffffffffffffffffffffff021916905560038201600090556004820160006101000a81549060ff0219169055600582016000905560068201600090556007820160006101000a81549060ff02191690556007820160016101000a81549073ffffffffffffffffffffffffffffffffffffffff02191690556007820160156101000a81549060ff0219169055600882016000905550600901613038565b5090565b6000819050919050565b61311b81613108565b82525050565b60006020820190506131366000830184613112565b92915050565b600080fd5b61314a81613108565b811461315557600080fd5b50565b60008135905061316781613141565b92915050565b6000602082840312156131835761318261313c565b5b600061319184828501613158565b91505092915050565b600073ffffffffffffffffffffffffffffffffffffffff82169050919050565b60006131c58261319a565b9050919050565b6131d5816131ba565b81146131e057600080fd5b50565b6000813590506131f2816131cc565b92915050565b60006020828403121561320e5761320d61313c565b5b600061321c848285016131e3565b91505092915050565b60008115159050919050565b61323a81613225565b82525050565b60006020820190506132556000830184613231565b92915050565b613264816131ba565b82525050565b600060208201905061327f600083018461325b565b92915050565b61328e81613225565b811461329957600080fd5b50565b6000813590506132ab81613285565b92915050565b60008060008060008060c087890312156132ce576132cd61313c565b5b60006132dc89828a01613158565b96505060206132ed89828a01613158565b95505060406132fe89828a01613158565b945050606061330f89828a01613158565b935050608061332089828a016131e3565b92505060a061333189828a0161329c565b9150509295509295509295565b61334781613108565b82525050565b613356816131ba565b82525050565b61336581613225565b82525050565b61016082016000820151613382600085018261333e565b506020820151613395602085018261333e565b5060408201516133a8604085018261334d565b5060608201516133bb606085018261333e565b5060808201516133ce608085018261335c565b5060a08201516133e160a085018261333e565b5060c08201516133f460c085018261333e565b5060e082015161340760e085018261335c565b5061010082015161341c61010085018261334d565b5061012082015161343161012085018261335c565b5061014082015161344661014085018261333e565b50505050565b600061016082019050613462600083018461336b565b92915050565b600081519050919050565b600082825260208201905092915050565b6000819050602082019050919050565b610160820160008201516134ab600085018261333e565b5060208201516134be602085018261333e565b5060408201516134d1604085018261334d565b5060608201516134e4606085018261333e565b5060808201516134f7608085018261335c565b5060a082015161350a60a085018261333e565b5060c082015161351d60c085018261333e565b5060e082015161353060e085018261335c565b5061010082015161354561010085018261334d565b5061012082015161355a61012085018261335c565b5061014082015161356f61014085018261333e565b50505050565b60006135818383613494565b6101608301905092915050565b6000602082019050919050565b60006135a682613468565b6135b08185613473565b93506135bb83613484565b8060005b838110156135ec5781516135d38882613575565b97506135de8361358e565b9250506001810190506135bf565b5085935050505092915050565b60006020820190508181036000830152613613818461359b565b905092915050565b600080604083850312156136325761363161313c565b5b600061364085828601613158565b925050602061365185828601613158565b9150509250929050565b600081519050919050565b600082825260208201905092915050565b6000819050602082019050919050565b6000613693838361333e565b60208301905092915050565b6000602082019050919050565b60006136b78261365b565b6136c18185613666565b93506136cc83613677565b8060005b838110156136fd5781516136e48882613687565b97506136ef8361369f565b9250506001810190506136d0565b5085935050505092915050565b6000602082019050818103600083015261372481846136ac565b905092915050565b6000606082019050613741600083018661325b565b61374e602083018561325b565b61375b6040830184613112565b949350505050565b60008151905061377281613285565b92915050565b60006020828403121561378e5761378d61313c565b5b600061379c84828501613763565b91505092915050565b60006040820190506137ba600083018561325b565b6137c76020830184613112565b9392505050565b60006060820190506137e36000830186613112565b6137f0602083018561325b565b6137fd6040830184613231565b949350505050565b600082825260208201905092915050565b7f4f776e61626c653a2063616c6c6572206973206e6f7420746865206f776e6572600082015250565b600061384c602083613805565b915061385782613816565b602082019050919050565b6000602082019050818103600083015261387b8161383f565b9050919050565b600081519050613891816131cc565b92915050565b6000602082840312156138ad576138ac61313c565b5b60006138bb84828501613882565b91505092915050565b7f4d757374206265206c697374656420707269636520696e20617070726f76656460008201527f20746f6b656e0000000000000000000000000000000000000000000000000000602082015250565b6000613920602683613805565b915061392b826138c4565b604082019050919050565b6000602082019050818103600083015261394f81613913565b9050919050565b7f4d757374206265206f776e657220746f206c69737420766e6674000000000000600082015250565b600061398c601a83613805565b915061399782613956565b602082019050919050565b600060208201905081810360008301526139bb8161397f565b9050919050565b7f43616e6e6f7420637265617465206d756c7469706c65206c697374696e67732060008201527f666f72206f6e65206e6674000000000000000000000000000000000000000000602082015250565b6000613a1e602b83613805565b9150613a29826139c2565b604082019050919050565b60006020820190508181036000830152613a4d81613a11565b9050919050565b7f4d757374206265206f776e657220746f206c697374207061636b000000000000600082015250565b6000613a8a601a83613805565b9150613a9582613a54565b602082019050919050565b60006020820190508181036000830152613ab981613a7d565b9050919050565b7f43616e6e6f7420637265617465206d756c7469706c65206c697374696e67732060008201527f666f72206f6e65207061636b0000000000000000000000000000000000000000602082015250565b6000613b1c602c83613805565b9150613b2782613ac0565b604082019050919050565b60006020820190508181036000830152613b4b81613b0f565b9050919050565b7f4d75737420626520746865206f776e657220746f2070756c6c2066726f6d207360008201527f616c650000000000000000000000000000000000000000000000000000000000602082015250565b6000613bae602383613805565b9150613bb982613b52565b604082019050919050565b60006020820190508181036000830152613bdd81613ba1565b9050919050565b7f4e487b7100000000000000000000000000000000000000000000000000000000600052603260045260246000fd5b7f4e487b7100000000000000000000000000000000000000000000000000000000600052601160045260246000fd5b6000613c4d82613108565b9150613c5883613108565b925082821015613c6b57613c6a613c13565b5b828203905092915050565b7f4e487b7100000000000000000000000000000000000000000000000000000000600052603160045260246000fd5b6000613cb082613108565b91507fffffffffffffffffffffffffffffffffffffffffffffffffffffffffffffffff821415613ce357613ce2613c13565b5b600182019050919050565b7f4f776e61626c653a206e6577206f776e657220697320746865207a65726f206160008201527f6464726573730000000000000000000000000000000000000000000000000000602082015250565b6000613d4a602683613805565b9150613d5582613cee565b604082019050919050565b60006020820190508181036000830152613d7981613d3d565b905091905056fea2646970667358221220b46f5cf1e8486db33293bd24b8aa4d7ffa22ec4002ba81177cb08289349f696264736f6c634300080a0033",
  "immutableReferences": {},
  "source": "pragma solidity ^0.8.0;\n\nimport \"@openzeppelin/contracts/access/Ownable.sol\";\nimport \"@openzeppelin/contracts/token/ERC721/ERC721.sol\";\nimport \"@openzeppelin/contracts/token/ERC20/IERC20.sol\";\nimport \"@openzeppelin/contracts/token/ERC20/ERC20.sol\";\nimport \"@openzeppelin/contracts/token/ERC721/IERC721.sol\";\n\nimport \"./ViridianNFT.sol\";\nimport \"./ViridianPack.sol\";\n\ncontract ViridianExchange is Ownable {\n\n    event ItemListed(uint256 listingId, address wallet, bool listed);\n    event ItemUnlisted(uint256 listingId, address wallet, bool listed);\n    event PurchasedListing(uint256 listingId, address wallet, bool purchased);\n\n    using Counters for Counters.Counter;\n    Counters.Counter private _listingIds;\n\n    ViridianNFT vNFT;\n    ViridianPack vPack;\n    \n    struct Listing {\n        uint256 listingId;\n        uint256 tokenId;\n        address owner;\n        uint256 price;\n        bool purchased;\n        uint256 royalty;\n        uint256 endTime;\n        bool sold;\n        address erc20Address;\n        bool isVNFT;\n        uint256 timeListed;\n    }\n\n    mapping (address => Listing[]) userListings;\n    mapping (uint256 => Listing) listings;\n    address[] private userAddresses;\n    uint256[] private listingIds;\n\n    address public viridianNFT;\n    address public viridianPack;\n    mapping (address => bool) public approvedTokens;\n\n    constructor(address _erc20Token, address _viridianNFT, address _viridianPack) {\n        require(address(_erc20Token) != address(0), \"Token address must not be the 0 address\");\n        require(address(_viridianNFT) != address(0), \"Token address must not be the 0 address\");\n        require(address(_viridianPack) != address(0), \"Token address must not be the 0 address\");\n\n        approvedTokens[_erc20Token] = true;\n        viridianNFT = _viridianNFT;\n        viridianPack = _viridianPack;\n\n        vNFT = ViridianNFT(_viridianNFT);\n        vPack = ViridianPack(_viridianPack);\n    }\n\n    function addERC20Token(address _erc20Address) public onlyOwner() returns (uint) {\n        approvedTokens[_erc20Address] = true;\n    }\n\n    function getBalance() public view returns (uint) {\n        return address(this).balance;\n    }\n\n    function getListings() public view returns (uint256[] memory) {\n        return listingIds;\n    }\n\n    function getListingFromId(uint256 _listingId) public view returns (Listing memory) {\n        return listings[_listingId];\n    }\n\n    function getListingsFromUser(address _userAddr) public view returns (Listing[] memory) {\n        return userListings[_userAddr];\n    }\n\n    function getNftOwner(uint256 _nftId) public view returns (address) {\n        return IERC721(viridianNFT).ownerOf(_nftId);\n    }\n\n    function getPackOwner(uint256 _nftId) public view returns (address) {\n        return IERC721(viridianPack).ownerOf(_nftId);\n    }\n\n    function putUpForSale(uint256 _nftId, uint256 _price, uint256 _royalty, uint256 _endTime, address _erc20Address, bool _isVNFT) public {\n        require(approvedTokens[_erc20Address], \"Must be listed price in approved token\");\n        if (_isVNFT) {\n            require(getNftOwner(_nftId) == msg.sender, \"Must be owner to list vnft\");\n            require(!vNFT.isListed(_nftId), \"Cannot create multiple listings for one nft\");\n        }\n        else {\n            require(getPackOwner(_nftId) == msg.sender, \"Must be owner to list pack\");\n            require(!vPack.isListed(_nftId), \"Cannot create multiple listings for one pack\");\n        }\n        \n        //TODO: Maybe put this back\n        // if(!IERC721(viridianNFT).isApprovedForAll(msg.sender, address(this))) {\n        //     IERC721(viridianNFT).setApprovalForAll(address(this), true);\n        // }\n\n        // if(!IERC721(viridianPack).isApprovedForAll(msg.sender, address(this))) {\n        //     IERC721(viridianPack).setApprovalForAll(address(this), true);\n        // }\n\n        _listingIds.increment();\n        uint256 _listingId = _listingIds.current();\n        Listing memory saleListing;\n        saleListing.listingId = _listingId;\n        saleListing.tokenId = _nftId;\n        saleListing.owner = msg.sender;\n        saleListing.price = _price;\n        saleListing.purchased = false;\n        saleListing.royalty = _royalty;\n        saleListing.endTime = _endTime;\n        saleListing.sold = false;\n        saleListing.erc20Address = _erc20Address;\n        saleListing.isVNFT = _isVNFT;\n        saleListing.timeListed = block.timestamp;\n\n\n        userListings[msg.sender].push(saleListing);\n        listings[_listingId] = saleListing;\n        listingIds.push(saleListing.listingId);\n\n        if (_isVNFT) {\n            vNFT.listToken(_nftId);\n        }\n        else {\n            vPack.listToken(_nftId);\n        }\n\n        //ERC20(viridianToken).approve(address(this), _price);\n\n        //IERC721(viridianNFT).approve(address(this), _nftId);\n        //IERC721(viridianNFT).safeTransferFrom(msg.sender, address(this), _nftId);\n\n        emit ItemListed(_listingId, saleListing.owner, true);\n    }\n\n    function changeSalePrice(uint256 _listingId, uint256 _newPrice) public {\n        listings[_listingId].price = _newPrice;\n    }\n    \n    function pullFromSale(uint256 _listingId) public {\n        Listing memory curListing = listings[_listingId];\n        require(curListing.owner == msg.sender, \"Must be the owner to pull from sale\");\n        //IERC721(viridianNFT).safeTransferFrom(address(this), msg.sender, curListing.tokenId);\n        if(curListing.isVNFT) {\n            vNFT.unlistToken(curListing.tokenId);\n        }\n        else {\n            vPack.unlistToken(curListing.tokenId);\n        }\n\n        Listing[] storage curUserListings = userListings[msg.sender];\n        for (uint i = 0; i < curUserListings.length; i++) {\n            Listing memory listing = curUserListings[i];\n            if (listing.listingId == curListing.listingId) {\n                curUserListings[i] = curUserListings[curUserListings.length - 1];\n                userListings[msg.sender] = curUserListings;\n                userListings[msg.sender].pop();\n                break;\n            }\n        }\n\n        for (uint256 i = 0; i < listingIds.length; i++) {\n            uint256 listingId = listingIds[i];\n            if (listingId == curListing.listingId) {\n                listingIds[i] = listingIds[listingIds.length - 1];\n                listingIds.pop();\n                break;\n            }\n        }\n\n        delete listings[_listingId];\n\n        emit ItemUnlisted(_listingId, msg.sender, false);\n    }\n\n    function pullFromSaleOnBuy(uint256 _listingId) private {\n        Listing memory curListing = listings[_listingId];\n        //IERC721(viridianNFT).safeTransferFrom(address(this), msg.sender, curListing.tokenId);\n        Listing[] storage curUserListings = userListings[curListing.owner];\n        for (uint i = 0; i < curUserListings.length; i++) {\n            Listing memory listing = curUserListings[i];\n            if (listing.listingId == curListing.listingId) {\n                curUserListings[i] = curUserListings[curUserListings.length - 1];\n                userListings[curListing.owner] = curUserListings;\n                userListings[curListing.owner].pop();\n                break;\n            }\n        }\n\n        for (uint256 i = 0; i < listingIds.length; i++) {\n            uint256 listingId = listingIds[i];\n            if (listingId == curListing.listingId) {\n                listingIds[i] = listingIds[listingIds.length - 1];\n                listingIds.pop();\n                break;\n            }\n        }\n\n        delete listings[_listingId];\n    }\n\n    function buyNFTWithERC20(uint256 _listingId) public {\n        Listing memory curListing = listings[_listingId];\n\n        if(curListing.isVNFT) {\n            vNFT.unlistToken(curListing.tokenId);\n\n            IERC20(curListing.erc20Address).transferFrom(msg.sender, curListing.owner, curListing.price);\n\n            IERC721(viridianNFT).approve(msg.sender, curListing.tokenId);\n            IERC721(viridianNFT).safeTransferFrom(curListing.owner, msg.sender, curListing.tokenId);\n            pullFromSaleOnBuy(_listingId);\n        }\n        else {\n            vPack.unlistToken(curListing.tokenId);\n\n            IERC20(curListing.erc20Address).transferFrom(msg.sender, curListing.owner, curListing.price);\n\n            IERC721(viridianPack).approve(msg.sender, curListing.tokenId);\n            IERC721(viridianPack).safeTransferFrom(curListing.owner, msg.sender, curListing.tokenId);\n            pullFromSaleOnBuy(_listingId);\n        }\n        emit PurchasedListing(_listingId, msg.sender, true);\n    }\n}",
  "sourcePath": "/Users/blakehatch/Viridian-Exchange-Contracts/contracts/ViridianExchange.sol",
  "compiler": {
    "name": "solc",
    "version": "0.8.10+commit.fc410830.Emscripten.clang"
  },
  "schemaVersion": "3.4.1",
  "updatedAt": "2021-11-18T22:35:35.995Z",
  "networkType": "ethereum",
  "devdoc": {
    "kind": "dev",
    "methods": {
      "owner()": {
        "details": "Returns the address of the current owner."
      },
      "renounceOwnership()": {
        "details": "Leaves the contract without owner. It will not be possible to call `onlyOwner` functions anymore. Can only be called by the current owner. NOTE: Renouncing ownership will leave the contract without an owner, thereby removing any functionality that is only available to the owner."
      },
      "transferOwnership(address)": {
        "details": "Transfers ownership of the contract to a new account (`newOwner`). Can only be called by the current owner."
      }
    },
    "version": 1
  },
  "userdoc": {
    "kind": "user",
    "methods": {},
    "version": 1
  }
}