{
  "contractName": "ViridianExchange",
  "abi": [
    {
      "inputs": [
        {
          "internalType": "address",
          "name": "_viridianToken",
          "type": "address"
        },
        {
          "internalType": "address",
          "name": "_viridianNFT",
          "type": "address"
        }
      ],
      "stateMutability": "nonpayable",
      "type": "constructor"
    },
    {
      "anonymous": false,
      "inputs": [
        {
          "indexed": true,
          "internalType": "address",
          "name": "previousOwner",
          "type": "address"
        },
        {
          "indexed": true,
          "internalType": "address",
          "name": "newOwner",
          "type": "address"
        }
      ],
      "name": "OwnershipTransferred",
      "type": "event"
    },
    {
      "stateMutability": "payable",
      "type": "fallback",
      "payable": true
    },
    {
      "inputs": [],
      "name": "ETH",
      "outputs": [
        {
          "internalType": "address",
          "name": "",
          "type": "address"
        }
      ],
      "stateMutability": "view",
      "type": "function",
      "constant": true
    },
    {
      "inputs": [],
      "name": "owner",
      "outputs": [
        {
          "internalType": "address",
          "name": "",
          "type": "address"
        }
      ],
      "stateMutability": "view",
      "type": "function",
      "constant": true
    },
    {
      "inputs": [],
      "name": "renounceOwnership",
      "outputs": [],
      "stateMutability": "nonpayable",
      "type": "function"
    },
    {
      "inputs": [
        {
          "internalType": "address",
          "name": "newOwner",
          "type": "address"
        }
      ],
      "name": "transferOwnership",
      "outputs": [],
      "stateMutability": "nonpayable",
      "type": "function"
    },
    {
      "inputs": [],
      "name": "viridianNFT",
      "outputs": [
        {
          "internalType": "address",
          "name": "",
          "type": "address"
        }
      ],
      "stateMutability": "view",
      "type": "function",
      "constant": true
    },
    {
      "inputs": [],
      "name": "viridianToken",
      "outputs": [
        {
          "internalType": "address",
          "name": "",
          "type": "address"
        }
      ],
      "stateMutability": "view",
      "type": "function",
      "constant": true
    },
    {
      "stateMutability": "payable",
      "type": "receive",
      "payable": true
    },
    {
      "inputs": [],
      "name": "getBalance",
      "outputs": [
        {
          "internalType": "uint256",
          "name": "",
          "type": "uint256"
        }
      ],
      "stateMutability": "view",
      "type": "function",
      "constant": true
    },
    {
      "inputs": [],
      "name": "getListings",
      "outputs": [
        {
          "internalType": "uint256[]",
          "name": "",
          "type": "uint256[]"
        }
      ],
      "stateMutability": "view",
      "type": "function",
      "constant": true
    },
    {
      "inputs": [],
      "name": "getOffers",
      "outputs": [
        {
          "internalType": "uint256[]",
          "name": "",
          "type": "uint256[]"
        }
      ],
      "stateMutability": "view",
      "type": "function",
      "constant": true
    },
    {
      "inputs": [
        {
          "internalType": "uint256",
          "name": "_listingId",
          "type": "uint256"
        }
      ],
      "name": "getListingsFromId",
      "outputs": [
        {
          "components": [
            {
              "internalType": "uint256",
              "name": "listingId",
              "type": "uint256"
            },
            {
              "internalType": "uint256",
              "name": "tokenId",
              "type": "uint256"
            },
            {
              "internalType": "address",
              "name": "owner",
              "type": "address"
            },
            {
              "internalType": "uint256",
              "name": "price",
              "type": "uint256"
            },
            {
              "internalType": "bool",
              "name": "purchased",
              "type": "bool"
            },
            {
              "internalType": "uint256",
              "name": "royalty",
              "type": "uint256"
            },
            {
              "internalType": "uint256",
              "name": "endTime",
              "type": "uint256"
            },
            {
              "internalType": "bool",
              "name": "sold",
              "type": "bool"
            },
            {
              "internalType": "bool",
              "name": "isVEXT",
              "type": "bool"
            }
          ],
          "internalType": "struct ViridianExchange.Listing",
          "name": "",
          "type": "tuple"
        }
      ],
      "stateMutability": "view",
      "type": "function",
      "constant": true
    },
    {
      "inputs": [
        {
          "internalType": "uint256",
          "name": "_offerId",
          "type": "uint256"
        }
      ],
      "name": "getOffersFromId",
      "outputs": [
        {
          "components": [
            {
              "internalType": "uint256",
              "name": "offerId",
              "type": "uint256"
            },
            {
              "internalType": "uint256[]",
              "name": "toNftIds",
              "type": "uint256[]"
            },
            {
              "internalType": "uint256",
              "name": "toAmt",
              "type": "uint256"
            },
            {
              "internalType": "uint256[]",
              "name": "fromNftIds",
              "type": "uint256[]"
            },
            {
              "internalType": "uint256",
              "name": "fromAmt",
              "type": "uint256"
            },
            {
              "internalType": "address",
              "name": "to",
              "type": "address"
            },
            {
              "internalType": "address",
              "name": "from",
              "type": "address"
            },
            {
              "internalType": "bool",
              "name": "isVEXT",
              "type": "bool"
            },
            {
              "internalType": "bool",
              "name": "pending",
              "type": "bool"
            }
          ],
          "internalType": "struct ViridianExchange.Offer",
          "name": "",
          "type": "tuple"
        }
      ],
      "stateMutability": "view",
      "type": "function",
      "constant": true
    },
    {
      "inputs": [
        {
          "internalType": "address",
          "name": "_userAddr",
          "type": "address"
        }
      ],
      "name": "getListingsFromUser",
      "outputs": [
        {
          "components": [
            {
              "internalType": "uint256",
              "name": "listingId",
              "type": "uint256"
            },
            {
              "internalType": "uint256",
              "name": "tokenId",
              "type": "uint256"
            },
            {
              "internalType": "address",
              "name": "owner",
              "type": "address"
            },
            {
              "internalType": "uint256",
              "name": "price",
              "type": "uint256"
            },
            {
              "internalType": "bool",
              "name": "purchased",
              "type": "bool"
            },
            {
              "internalType": "uint256",
              "name": "royalty",
              "type": "uint256"
            },
            {
              "internalType": "uint256",
              "name": "endTime",
              "type": "uint256"
            },
            {
              "internalType": "bool",
              "name": "sold",
              "type": "bool"
            },
            {
              "internalType": "bool",
              "name": "isVEXT",
              "type": "bool"
            }
          ],
          "internalType": "struct ViridianExchange.Listing[]",
          "name": "",
          "type": "tuple[]"
        }
      ],
      "stateMutability": "view",
      "type": "function",
      "constant": true
    },
    {
      "inputs": [
        {
          "internalType": "address",
          "name": "_userAddr",
          "type": "address"
        }
      ],
      "name": "getOffersFromUser",
      "outputs": [
        {
          "components": [
            {
              "internalType": "uint256",
              "name": "offerId",
              "type": "uint256"
            },
            {
              "internalType": "uint256[]",
              "name": "toNftIds",
              "type": "uint256[]"
            },
            {
              "internalType": "uint256",
              "name": "toAmt",
              "type": "uint256"
            },
            {
              "internalType": "uint256[]",
              "name": "fromNftIds",
              "type": "uint256[]"
            },
            {
              "internalType": "uint256",
              "name": "fromAmt",
              "type": "uint256"
            },
            {
              "internalType": "address",
              "name": "to",
              "type": "address"
            },
            {
              "internalType": "address",
              "name": "from",
              "type": "address"
            },
            {
              "internalType": "bool",
              "name": "isVEXT",
              "type": "bool"
            },
            {
              "internalType": "bool",
              "name": "pending",
              "type": "bool"
            }
          ],
          "internalType": "struct ViridianExchange.Offer[]",
          "name": "",
          "type": "tuple[]"
        }
      ],
      "stateMutability": "view",
      "type": "function",
      "constant": true
    },
    {
      "inputs": [
        {
          "internalType": "uint256",
          "name": "_nftId",
          "type": "uint256"
        }
      ],
      "name": "getNftOwner",
      "outputs": [
        {
          "internalType": "address",
          "name": "",
          "type": "address"
        }
      ],
      "stateMutability": "view",
      "type": "function",
      "constant": true
    },
    {
      "inputs": [
        {
          "internalType": "address",
          "name": "_userAddr",
          "type": "address"
        }
      ],
      "name": "getUserFromAddress",
      "outputs": [
        {
          "components": [
            {
              "internalType": "address",
              "name": "wallet",
              "type": "address"
            },
            {
              "internalType": "string",
              "name": "displayName",
              "type": "string"
            },
            {
              "internalType": "string",
              "name": "coverPhotoURL",
              "type": "string"
            },
            {
              "internalType": "string",
              "name": "profilePhotoURL",
              "type": "string"
            },
            {
              "internalType": "string",
              "name": "bio",
              "type": "string"
            },
            {
              "internalType": "address[]",
              "name": "following",
              "type": "address[]"
            },
            {
              "internalType": "address[]",
              "name": "followers",
              "type": "address[]"
            },
            {
              "internalType": "uint256[]",
              "name": "likes",
              "type": "uint256[]"
            }
          ],
          "internalType": "struct ViridianExchange.User",
          "name": "",
          "type": "tuple"
        }
      ],
      "stateMutability": "view",
      "type": "function",
      "constant": true
    },
    {
      "inputs": [
        {
          "internalType": "address",
          "name": "_userAddr",
          "type": "address"
        },
        {
          "internalType": "string",
          "name": "_displayName",
          "type": "string"
        },
        {
          "internalType": "string",
          "name": "_coverPhotoURL",
          "type": "string"
        },
        {
          "internalType": "string",
          "name": "_profilePhotoURL",
          "type": "string"
        },
        {
          "internalType": "string",
          "name": "_bio",
          "type": "string"
        }
      ],
      "name": "editUser",
      "outputs": [],
      "stateMutability": "nonpayable",
      "type": "function"
    },
    {
      "inputs": [
        {
          "internalType": "address payable",
          "name": "_to",
          "type": "address"
        }
      ],
      "name": "sendEther",
      "outputs": [],
      "stateMutability": "payable",
      "type": "function",
      "payable": true
    },
    {
      "inputs": [
        {
          "internalType": "uint256",
          "name": "_nftId",
          "type": "uint256"
        },
        {
          "internalType": "uint256",
          "name": "_price",
          "type": "uint256"
        },
        {
          "internalType": "uint256",
          "name": "_royalty",
          "type": "uint256"
        },
        {
          "internalType": "uint256",
          "name": "_endTime",
          "type": "uint256"
        },
        {
          "internalType": "bool",
          "name": "_isVEXT",
          "type": "bool"
        }
      ],
      "name": "putUpForSale",
      "outputs": [],
      "stateMutability": "payable",
      "type": "function",
      "payable": true
    },
    {
      "inputs": [
        {
          "internalType": "uint256",
          "name": "_listingId",
          "type": "uint256"
        }
      ],
      "name": "pullFromSale",
      "outputs": [],
      "stateMutability": "payable",
      "type": "function",
      "payable": true
    },
    {
      "inputs": [
        {
          "internalType": "uint256",
          "name": "_listingId",
          "type": "uint256"
        }
      ],
      "name": "buyNFTWithETH",
      "outputs": [],
      "stateMutability": "payable",
      "type": "function",
      "payable": true
    },
    {
      "inputs": [
        {
          "internalType": "uint256",
          "name": "_listingId",
          "type": "uint256"
        }
      ],
      "name": "buyNFTWithVEXT",
      "outputs": [],
      "stateMutability": "payable",
      "type": "function",
      "payable": true
    },
    {
      "inputs": [
        {
          "internalType": "address",
          "name": "_to",
          "type": "address"
        },
        {
          "internalType": "uint256[]",
          "name": "_nftIds",
          "type": "uint256[]"
        },
        {
          "internalType": "uint256",
          "name": "_amount",
          "type": "uint256"
        },
        {
          "internalType": "uint256[]",
          "name": "_recNftIds",
          "type": "uint256[]"
        },
        {
          "internalType": "uint256",
          "name": "_recAmount",
          "type": "uint256"
        },
        {
          "internalType": "bool",
          "name": "isVEXT",
          "type": "bool"
        }
      ],
      "name": "makeOffer",
      "outputs": [],
      "stateMutability": "nonpayable",
      "type": "function"
    },
    {
      "inputs": [
        {
          "internalType": "uint256",
          "name": "_offerId",
          "type": "uint256"
        }
      ],
      "name": "cancelOffer",
      "outputs": [],
      "stateMutability": "nonpayable",
      "type": "function"
    },
    {
      "inputs": [
        {
          "internalType": "uint256",
          "name": "_offerId",
          "type": "uint256"
        }
      ],
      "name": "acceptOfferWithETH",
      "outputs": [],
      "stateMutability": "payable",
      "type": "function",
      "payable": true
    },
    {
      "inputs": [
        {
          "internalType": "uint256",
          "name": "_offerId",
          "type": "uint256"
        }
      ],
      "name": "acceptOfferWithVEXT",
      "outputs": [],
      "stateMutability": "nonpayable",
      "type": "function"
    }
  ],
  "bytecode": "0x60806040523480156200001157600080fd5b50604051620059b7380380620059b783398181016040528101906200003791906200023a565b620000576200004b6200015760201b60201c565b6200015f60201b60201c565b600073ffffffffffffffffffffffffffffffffffffffff168273ffffffffffffffffffffffffffffffffffffffff1614156200009257600080fd5b600073ffffffffffffffffffffffffffffffffffffffff168173ffffffffffffffffffffffffffffffffffffffff161415620000cd57600080fd5b81600d60006101000a81548173ffffffffffffffffffffffffffffffffffffffff021916908373ffffffffffffffffffffffffffffffffffffffff16021790555080600b60006101000a81548173ffffffffffffffffffffffffffffffffffffffff021916908373ffffffffffffffffffffffffffffffffffffffff1602179055505050620002d4565b600033905090565b60008060009054906101000a900473ffffffffffffffffffffffffffffffffffffffff169050816000806101000a81548173ffffffffffffffffffffffffffffffffffffffff021916908373ffffffffffffffffffffffffffffffffffffffff1602179055508173ffffffffffffffffffffffffffffffffffffffff168173ffffffffffffffffffffffffffffffffffffffff167f8be0079c531659141344cd1fd0a4f28419497f9722a3daafe3b4186f6b6457e060405160405180910390a35050565b6000815190506200023481620002ba565b92915050565b60008060408385031215620002545762000253620002b5565b5b6000620002648582860162000223565b9250506020620002778582860162000223565b9150509250929050565b60006200028e8262000295565b9050919050565b600073ffffffffffffffffffffffffffffffffffffffff82169050919050565b600080fd5b620002c58162000281565b8114620002d157600080fd5b50565b6156d380620002e46000396000f3fe60806040526004361061016a5760003560e01c8063ac0b27c2116100d1578063dd42c3b31161008a578063ef706adf11610064578063ef706adf146104f2578063f1b2d6a31461051b578063f2f57e9514610546578063f2fde38b1461057157610171565b8063dd42c3b31461047d578063e14f50d414610499578063ec186db3146104d657610171565b8063ac0b27c214610379578063aeb7978214610395578063aec99da2146103be578063af62c684146103e7578063bddb06f314610424578063d382335a1461044057610171565b8063715018a611610123578063715018a61461027b5780638322fff2146102925780638ad2d5a7146102bd5780638da5cb5b146102fa5780639a701288146103255780639cbccc2c1461035057610171565b806312065fe01461017357806313b2361e1461019e578063273e287e146101db5780633eaf56b0146101f75780633ee992ee1461023457806348c981e21461025f57610171565b3661017157005b005b34801561017f57600080fd5b5061018861059a565b60405161019591906150a4565b60405180910390f35b3480156101aa57600080fd5b506101c560048036038101906101c09190614659565b6105a2565b6040516101d29190615044565b60405180910390f35b6101f560048036038101906101f09190614659565b6106a9565b005b34801561020357600080fd5b5061021e60048036038101906102199190614659565b61075d565b60405161022b9190615060565b60405180910390f35b34801561024057600080fd5b5061024961093b565b6040516102569190614f82565b60405180910390f35b6102796004803603810190610274919061444f565b610993565b005b34801561028757600080fd5b50610290610a46565b005b34801561029e57600080fd5b506102a7610ace565b6040516102b49190614ec3565b60405180910390f35b3480156102c957600080fd5b506102e460048036038101906102df9190614659565b610af4565b6040516102f19190614ec3565b60405180910390f35b34801561030657600080fd5b5061030f610ba8565b60405161031c9190614ec3565b60405180910390f35b34801561033157600080fd5b5061033a610bd1565b6040516103479190614ec3565b60405180910390f35b34801561035c57600080fd5b506103776004803603810190610372919061447c565b610bf7565b005b610393600480360381019061038e9190614659565b610fc0565b005b3480156103a157600080fd5b506103bc60048036038101906103b79190614541565b611397565b005b3480156103ca57600080fd5b506103e560048036038101906103e09190614659565b611594565b005b3480156103f357600080fd5b5061040e600480360381019061040991906143f5565b611ad9565b60405161041b9190614f3e565b60405180910390f35b61043e60048036038101906104399190614659565b611c51565b005b34801561044c57600080fd5b50610467600480360381019061046291906143f5565b612341565b6040516104749190614f60565b60405180910390f35b610497600480360381019061049291906146b3565b612590565b005b3480156104a557600080fd5b506104c060048036038101906104bb91906143f5565b6128f9565b6040516104cd9190615082565b60405180910390f35b6104f060048036038101906104eb9190614659565b612d65565b005b3480156104fe57600080fd5b5061051960048036038101906105149190614659565b612fb5565b005b34801561052757600080fd5b50610530613817565b60405161053d9190614f82565b60405180910390f35b34801561055257600080fd5b5061055b61386f565b6040516105689190614ec3565b60405180910390f35b34801561057d57600080fd5b50610598600480360381019061059391906143f5565b613895565b005b600047905090565b6105aa613a7d565b600760008381526020019081526020016000206040518061012001604052908160008201548152602001600182015481526020016002820160009054906101000a900473ffffffffffffffffffffffffffffffffffffffff1673ffffffffffffffffffffffffffffffffffffffff1673ffffffffffffffffffffffffffffffffffffffff168152602001600382015481526020016004820160009054906101000a900460ff1615151515815260200160058201548152602001600682015481526020016007820160009054906101000a900460ff161515151581526020016007820160019054906101000a900460ff1615151515815250509050919050565b60006006600083815260200190815260200160002090503373ffffffffffffffffffffffffffffffffffffffff168160050160009054906101000a900473ffffffffffffffffffffffffffffffffffffffff1673ffffffffffffffffffffffffffffffffffffffff16141561071d57600080fd5b60008160060160009054906101000a900473ffffffffffffffffffffffffffffffffffffffff16905061074f81610993565b61075883612fb5565b505050565b610765613ae5565b600660008381526020019081526020016000206040518061012001604052908160008201548152602001600182018054806020026020016040519081016040528092919081815260200182805480156107dd57602002820191906000526020600020905b8154815260200190600101908083116107c9575b50505050508152602001600282015481526020016003820180548060200260200160405190810160405280929190818152602001828054801561083f57602002820191906000526020600020905b81548152602001906001019080831161082b575b50505050508152602001600482015481526020016005820160009054906101000a900473ffffffffffffffffffffffffffffffffffffffff1673ffffffffffffffffffffffffffffffffffffffff1673ffffffffffffffffffffffffffffffffffffffff1681526020016006820160009054906101000a900473ffffffffffffffffffffffffffffffffffffffff1673ffffffffffffffffffffffffffffffffffffffff1673ffffffffffffffffffffffffffffffffffffffff1681526020016006820160149054906101000a900460ff161515151581526020016006820160159054906101000a900460ff1615151515815250509050919050565b6060600a80548060200260200160405190810160405280929190818152602001828054801561098957602002820191906000526020600020905b815481526020019060010190808311610975575b5050505050905090565b6000808273ffffffffffffffffffffffffffffffffffffffff16346040516109ba90614eae565b60006040518083038185875af1925050503d80600081146109f7576040519150601f19603f3d011682016040523d82523d6000602084013e6109fc565b606091505b509150915081610a41576040517f08c379a0000000000000000000000000000000000000000000000000000000008152600401610a3890614fe4565b60405180910390fd5b505050565b610a4e61398d565b73ffffffffffffffffffffffffffffffffffffffff16610a6c610ba8565b73ffffffffffffffffffffffffffffffffffffffff1614610ac2576040517f08c379a0000000000000000000000000000000000000000000000000000000008152600401610ab990615004565b60405180910390fd5b610acc6000613995565b565b600c60009054906101000a900473ffffffffffffffffffffffffffffffffffffffff1681565b6000600b60009054906101000a900473ffffffffffffffffffffffffffffffffffffffff1673ffffffffffffffffffffffffffffffffffffffff16636352211e836040518263ffffffff1660e01b8152600401610b5191906150a4565b60206040518083038186803b158015610b6957600080fd5b505afa158015610b7d573d6000803e3d6000fd5b505050506040513d601f19601f82011682018060405250810190610ba19190614422565b9050919050565b60008060009054906101000a900473ffffffffffffffffffffffffffffffffffffffff16905090565b600b60009054906101000a900473ffffffffffffffffffffffffffffffffffffffff1681565b3373ffffffffffffffffffffffffffffffffffffffff168673ffffffffffffffffffffffffffffffffffffffff161415610c3057600080fd5b610c3a6002613a59565b6000610c466002613a6f565b905060006040518061012001604052808381526020018881526020018781526020018681526020018581526020018973ffffffffffffffffffffffffffffffffffffffff1681526020013373ffffffffffffffffffffffffffffffffffffffff1681526020018415158152602001600115158152509050600560008973ffffffffffffffffffffffffffffffffffffffff1673ffffffffffffffffffffffffffffffffffffffff168152602001908152602001600020819080600181540180825580915050600190039060005260206000209060070201600090919091909150600082015181600001556020820151816001019080519060200190610d4c929190613b61565b50604082015181600201556060820151816003019080519060200190610d73929190613b61565b506080820151816004015560a08201518160050160006101000a81548173ffffffffffffffffffffffffffffffffffffffff021916908373ffffffffffffffffffffffffffffffffffffffff16021790555060c08201518160060160006101000a81548173ffffffffffffffffffffffffffffffffffffffff021916908373ffffffffffffffffffffffffffffffffffffffff16021790555060e08201518160060160146101000a81548160ff0219169083151502179055506101008201518160060160156101000a81548160ff02191690831515021790555050508060066000848152602001908152602001600020600082015181600001556020820151816001019080519060200190610e89929190613b61565b50604082015181600201556060820151816003019080519060200190610eb0929190613b61565b506080820151816004015560a08201518160050160006101000a81548173ffffffffffffffffffffffffffffffffffffffff021916908373ffffffffffffffffffffffffffffffffffffffff16021790555060c08201518160060160006101000a81548173ffffffffffffffffffffffffffffffffffffffff021916908373ffffffffffffffffffffffffffffffffffffffff16021790555060e08201518160060160146101000a81548160ff0219169083151502179055506101008201518160060160156101000a81548160ff021916908315150217905550905050600a8290806001815401808255809150506001900390600052602060002001600090919091909150555050505050505050565b6000600760008381526020019081526020016000206040518061012001604052908160008201548152602001600182015481526020016002820160009054906101000a900473ffffffffffffffffffffffffffffffffffffffff1673ffffffffffffffffffffffffffffffffffffffff1673ffffffffffffffffffffffffffffffffffffffff168152602001600382015481526020016004820160009054906101000a900460ff1615151515815260200160058201548152602001600682015481526020016007820160009054906101000a900460ff161515151581526020016007820160019054906101000a900460ff16151515158152505090508060600151600d60009054906101000a900473ffffffffffffffffffffffffffffffffffffffff1673ffffffffffffffffffffffffffffffffffffffff166370a08231336040518263ffffffff1660e01b815260040161111c9190614ec3565b60206040518083038186803b15801561113457600080fd5b505afa158015611148573d6000803e3d6000fd5b505050506040513d601f19601f8201168201806040525081019061116c9190614686565b10156111ad576040517f08c379a00000000000000000000000000000000000000000000000000000000081526004016111a490615024565b60405180910390fd5b600d60009054906101000a900473ffffffffffffffffffffffffffffffffffffffff1673ffffffffffffffffffffffffffffffffffffffff166323b872dd33836040015184606001516040518463ffffffff1660e01b815260040161121493929190614ede565b602060405180830381600087803b15801561122e57600080fd5b505af1158015611242573d6000803e3d6000fd5b505050506040513d601f19601f82011682018060405250810190611266919061462c565b50600b60009054906101000a900473ffffffffffffffffffffffffffffffffffffffff1673ffffffffffffffffffffffffffffffffffffffff1663095ea7b33383602001516040518363ffffffff1660e01b81526004016112c8929190614f15565b600060405180830381600087803b1580156112e257600080fd5b505af11580156112f6573d6000803e3d6000fd5b50505050600b60009054906101000a900473ffffffffffffffffffffffffffffffffffffffff1673ffffffffffffffffffffffffffffffffffffffff166342842e0e82604001513384602001516040518463ffffffff1660e01b815260040161136193929190614ede565b600060405180830381600087803b15801561137b57600080fd5b505af115801561138f573d6000803e3d6000fd5b505050505050565b8473ffffffffffffffffffffffffffffffffffffffff163373ffffffffffffffffffffffffffffffffffffffff16146113cf57600080fd5b60006113da866128f9565b90506040518061010001604052803373ffffffffffffffffffffffffffffffffffffffff1681526020018681526020018581526020018481526020018381526020018260c0015181526020018260a0015181526020018260e00151815250600860003373ffffffffffffffffffffffffffffffffffffffff1673ffffffffffffffffffffffffffffffffffffffff16815260200190815260200160002060008201518160000160006101000a81548173ffffffffffffffffffffffffffffffffffffffff021916908373ffffffffffffffffffffffffffffffffffffffff16021790555060208201518160010190805190602001906114da929190613bae565b5060408201518160020190805190602001906114f7929190613bae565b506060820151816003019080519060200190611514929190613bae565b506080820151816004019080519060200190611531929190613bae565b5060a082015181600501908051906020019061154e929190613c34565b5060c082015181600601908051906020019061156b929190613c34565b5060e0820151816007019080519060200190611588929190613b61565b50905050505050505050565b6000600660008381526020019081526020016000209050600d60009054906101000a900473ffffffffffffffffffffffffffffffffffffffff1673ffffffffffffffffffffffffffffffffffffffff166323b872dd8260060160009054906101000a900473ffffffffffffffffffffffffffffffffffffffff163384600401546040518463ffffffff1660e01b815260040161163293929190614ede565b602060405180830381600087803b15801561164c57600080fd5b505af1158015611660573d6000803e3d6000fd5b505050506040513d601f19601f82011682018060405250810190611684919061462c565b50600d60009054906101000a900473ffffffffffffffffffffffffffffffffffffffff1673ffffffffffffffffffffffffffffffffffffffff1663a9059cbb8260060160009054906101000a900473ffffffffffffffffffffffffffffffffffffffff1683600201546040518363ffffffff1660e01b815260040161170a929190614f15565b602060405180830381600087803b15801561172457600080fd5b505af1158015611738573d6000803e3d6000fd5b505050506040513d601f19601f8201168201806040525081019061175c919061462c565b5060005b816001018054905081101561190657600b60009054906101000a900473ffffffffffffffffffffffffffffffffffffffff1673ffffffffffffffffffffffffffffffffffffffff1663095ea7b3338460030184815481106117c4576117c3615477565b5b90600052602060002001546040518363ffffffff1660e01b81526004016117ec929190614f15565b600060405180830381600087803b15801561180657600080fd5b505af115801561181a573d6000803e3d6000fd5b50505050600b60009054906101000a900473ffffffffffffffffffffffffffffffffffffffff1673ffffffffffffffffffffffffffffffffffffffff166342842e0e8360060160009054906101000a900473ffffffffffffffffffffffffffffffffffffffff163385600101858154811061189857611897615477565b5b90600052602060002001546040518463ffffffff1660e01b81526004016118c193929190614ede565b600060405180830381600087803b1580156118db57600080fd5b505af11580156118ef573d6000803e3d6000fd5b5050505080806118fe906153a1565b915050611760565b5060005b8160030180549050811015611ad457600b60009054906101000a900473ffffffffffffffffffffffffffffffffffffffff1673ffffffffffffffffffffffffffffffffffffffff1663095ea7b33384600301848154811061196e5761196d615477565b5b90600052602060002001546040518363ffffffff1660e01b8152600401611996929190614f15565b600060405180830381600087803b1580156119b057600080fd5b505af11580156119c4573d6000803e3d6000fd5b50505050600b60009054906101000a900473ffffffffffffffffffffffffffffffffffffffff1673ffffffffffffffffffffffffffffffffffffffff166342842e0e8360050160009054906101000a900473ffffffffffffffffffffffffffffffffffffffff168460060160009054906101000a900473ffffffffffffffffffffffffffffffffffffffff16856003018581548110611a6657611a65615477565b5b90600052602060002001546040518463ffffffff1660e01b8152600401611a8f93929190614ede565b600060405180830381600087803b158015611aa957600080fd5b505af1158015611abd573d6000803e3d6000fd5b505050508080611acc906153a1565b91505061190a565b505050565b6060600460008373ffffffffffffffffffffffffffffffffffffffff1673ffffffffffffffffffffffffffffffffffffffff168152602001908152602001600020805480602002602001604051908101604052809291908181526020016000905b82821015611c4657838290600052602060002090600802016040518061012001604052908160008201548152602001600182015481526020016002820160009054906101000a900473ffffffffffffffffffffffffffffffffffffffff1673ffffffffffffffffffffffffffffffffffffffff1673ffffffffffffffffffffffffffffffffffffffff168152602001600382015481526020016004820160009054906101000a900460ff1615151515815260200160058201548152602001600682015481526020016007820160009054906101000a900460ff161515151581526020016007820160019054906101000a900460ff16151515158152505081526020019060010190611b3a565b505050509050919050565b6000600760008381526020019081526020016000206040518061012001604052908160008201548152602001600182015481526020016002820160009054906101000a900473ffffffffffffffffffffffffffffffffffffffff1673ffffffffffffffffffffffffffffffffffffffff1673ffffffffffffffffffffffffffffffffffffffff168152602001600382015481526020016004820160009054906101000a900460ff1615151515815260200160058201548152602001600682015481526020016007820160009054906101000a900460ff161515151581526020016007820160019054906101000a900460ff16151515158152505090503373ffffffffffffffffffffffffffffffffffffffff16816040015173ffffffffffffffffffffffffffffffffffffffff1614611d8957600080fd5b6000600460003373ffffffffffffffffffffffffffffffffffffffff1673ffffffffffffffffffffffffffffffffffffffff168152602001908152602001600020905060005b81805490508110156121c6576000828281548110611df057611def615477565b5b90600052602060002090600802016040518061012001604052908160008201548152602001600182015481526020016002820160009054906101000a900473ffffffffffffffffffffffffffffffffffffffff1673ffffffffffffffffffffffffffffffffffffffff1673ffffffffffffffffffffffffffffffffffffffff168152602001600382015481526020016004820160009054906101000a900460ff1615151515815260200160058201548152602001600682015481526020016007820160009054906101000a900460ff161515151581526020016007820160019054906101000a900460ff16151515158152505090508360000151816000015114156121b2578260018480549050611f07919061526e565b81548110611f1857611f17615477565b5b9060005260206000209060080201838381548110611f3957611f38615477565b5b906000526020600020906008020160008201548160000155600182015481600101556002820160009054906101000a900473ffffffffffffffffffffffffffffffffffffffff168160020160006101000a81548173ffffffffffffffffffffffffffffffffffffffff021916908373ffffffffffffffffffffffffffffffffffffffff160217905550600382015481600301556004820160009054906101000a900460ff168160040160006101000a81548160ff02191690831515021790555060058201548160050155600682015481600601556007820160009054906101000a900460ff168160070160006101000a81548160ff0219169083151502179055506007820160019054906101000a900460ff168160070160016101000a81548160ff02191690831515021790555090505082600460003373ffffffffffffffffffffffffffffffffffffffff1673ffffffffffffffffffffffffffffffffffffffff1681526020019081526020016000209080546120b8929190613cbe565b50600460003373ffffffffffffffffffffffffffffffffffffffff1673ffffffffffffffffffffffffffffffffffffffff16815260200190815260200160002080548061210857612107615448565b5b600190038181906000526020600020906008020160008082016000905560018201600090556002820160006101000a81549073ffffffffffffffffffffffffffffffffffffffff021916905560038201600090556004820160006101000a81549060ff0219169055600582016000905560068201600090556007820160006101000a81549060ff02191690556007820160016101000a81549060ff021916905550509055506121c6565b5080806121be906153a1565b915050611dcf565b5060005b60098054905081101561229a576000600982815481106121ed576121ec615477565b5b906000526020600020015490508360000151811415612286576009600160098054905061221a919061526e565b8154811061222b5761222a615477565b5b90600052602060002001546009838154811061224a57612249615477565b5b9060005260206000200181905550600980548061226a57612269615448565b5b600190038181906000526020600020016000905590555061229a565b508080612292906153a1565b9150506121ca565b506007600084815260200190815260200160002060008082016000905560018201600090556002820160006101000a81549073ffffffffffffffffffffffffffffffffffffffff021916905560038201600090556004820160006101000a81549060ff0219169055600582016000905560068201600090556007820160006101000a81549060ff02191690556007820160016101000a81549060ff02191690555050505050565b6060600560008373ffffffffffffffffffffffffffffffffffffffff1673ffffffffffffffffffffffffffffffffffffffff168152602001908152602001600020805480602002602001604051908101604052809291908181526020016000905b82821015612585578382906000526020600020906007020160405180610120016040529081600082015481526020016001820180548060200260200160405190810160405280929190818152602001828054801561241f57602002820191906000526020600020905b81548152602001906001019080831161240b575b50505050508152602001600282015481526020016003820180548060200260200160405190810160405280929190818152602001828054801561248157602002820191906000526020600020905b81548152602001906001019080831161246d575b50505050508152602001600482015481526020016005820160009054906101000a900473ffffffffffffffffffffffffffffffffffffffff1673ffffffffffffffffffffffffffffffffffffffff1673ffffffffffffffffffffffffffffffffffffffff1681526020016006820160009054906101000a900473ffffffffffffffffffffffffffffffffffffffff1673ffffffffffffffffffffffffffffffffffffffff1673ffffffffffffffffffffffffffffffffffffffff1681526020016006820160149054906101000a900460ff161515151581526020016006820160159054906101000a900460ff161515151581525050815260200190600101906123a2565b505050509050919050565b3373ffffffffffffffffffffffffffffffffffffffff166125b086610af4565b73ffffffffffffffffffffffffffffffffffffffff16146125d057600080fd5b6125da6001613a59565b60006125e66001613a6f565b90506125f0613a7d565b818160000181815250508681602001818152505033816040019073ffffffffffffffffffffffffffffffffffffffff16908173ffffffffffffffffffffffffffffffffffffffff1681525050858160600181815250506000816080019015159081151581525050848160a0018181525050838160c001818152505060008160e00190151590811515815250508281610100019015159081151581525050600460003373ffffffffffffffffffffffffffffffffffffffff1673ffffffffffffffffffffffffffffffffffffffff168152602001908152602001600020819080600181540180825580915050600190039060005260206000209060080201600090919091909150600082015181600001556020820151816001015560408201518160020160006101000a81548173ffffffffffffffffffffffffffffffffffffffff021916908373ffffffffffffffffffffffffffffffffffffffff1602179055506060820151816003015560808201518160040160006101000a81548160ff02191690831515021790555060a0820151816005015560c0820151816006015560e08201518160070160006101000a81548160ff0219169083151502179055506101008201518160070160016101000a81548160ff02191690831515021790555050508060076000848152602001908152602001600020600082015181600001556020820151816001015560408201518160020160006101000a81548173ffffffffffffffffffffffffffffffffffffffff021916908373ffffffffffffffffffffffffffffffffffffffff1602179055506060820151816003015560808201518160040160006101000a81548160ff02191690831515021790555060a0820151816005015560c0820151816006015560e08201518160070160006101000a81548160ff0219169083151502179055506101008201518160070160016101000a81548160ff02191690831515021790555090505060098160000151908060018154018082558091505060019003906000526020600020016000909190919091505550505050505050565b612901613e36565b600860008373ffffffffffffffffffffffffffffffffffffffff1673ffffffffffffffffffffffffffffffffffffffff168152602001908152602001600020604051806101000160405290816000820160009054906101000a900473ffffffffffffffffffffffffffffffffffffffff1673ffffffffffffffffffffffffffffffffffffffff1673ffffffffffffffffffffffffffffffffffffffff1681526020016001820180546129b29061533e565b80601f01602080910402602001604051908101604052809291908181526020018280546129de9061533e565b8015612a2b5780601f10612a0057610100808354040283529160200191612a2b565b820191906000526020600020905b815481529060010190602001808311612a0e57829003601f168201915b50505050508152602001600282018054612a449061533e565b80601f0160208091040260200160405190810160405280929190818152602001828054612a709061533e565b8015612abd5780601f10612a9257610100808354040283529160200191612abd565b820191906000526020600020905b815481529060010190602001808311612aa057829003601f168201915b50505050508152602001600382018054612ad69061533e565b80601f0160208091040260200160405190810160405280929190818152602001828054612b029061533e565b8015612b4f5780601f10612b2457610100808354040283529160200191612b4f565b820191906000526020600020905b815481529060010190602001808311612b3257829003601f168201915b50505050508152602001600482018054612b689061533e565b80601f0160208091040260200160405190810160405280929190818152602001828054612b949061533e565b8015612be15780601f10612bb657610100808354040283529160200191612be1565b820191906000526020600020905b815481529060010190602001808311612bc457829003601f168201915b5050505050815260200160058201805480602002602001604051908101604052809291908181526020018280548015612c6f57602002820191906000526020600020905b8160009054906101000a900473ffffffffffffffffffffffffffffffffffffffff1673ffffffffffffffffffffffffffffffffffffffff1681526020019060010190808311612c25575b5050505050815260200160068201805480602002602001604051908101604052809291908181526020018280548015612cfd57602002820191906000526020600020905b8160009054906101000a900473ffffffffffffffffffffffffffffffffffffffff1673ffffffffffffffffffffffffffffffffffffffff1681526020019060010190808311612cb3575b5050505050815260200160078201805480602002602001604051908101604052809291908181526020018280548015612d5557602002820191906000526020600020905b815481526020019060010190808311612d41575b5050505050815250509050919050565b6000600760008381526020019081526020016000206040518061012001604052908160008201548152602001600182015481526020016002820160009054906101000a900473ffffffffffffffffffffffffffffffffffffffff1673ffffffffffffffffffffffffffffffffffffffff1673ffffffffffffffffffffffffffffffffffffffff168152602001600382015481526020016004820160009054906101000a900460ff1615151515815260200160058201548152602001600682015481526020016007820160009054906101000a900460ff161515151581526020016007820160019054906101000a900460ff161515151581525050905080606001513373ffffffffffffffffffffffffffffffffffffffff16311015612ebf576040517f08c379a0000000000000000000000000000000000000000000000000000000008152600401612eb690615024565b60405180910390fd5b60008160400151905081606001513414612f0e576040517f08c379a0000000000000000000000000000000000000000000000000000000008152600401612f0590614fa4565b60405180910390fd5b612f1781610993565b600b60009054906101000a900473ffffffffffffffffffffffffffffffffffffffff1673ffffffffffffffffffffffffffffffffffffffff166342842e0e83604001513385602001516040518463ffffffff1660e01b8152600401612f7e93929190614ede565b600060405180830381600087803b158015612f9857600080fd5b505af1158015612fac573d6000803e3d6000fd5b50505050505050565b60006006600083815260200190815260200160002090503373ffffffffffffffffffffffffffffffffffffffff168160060160009054906101000a900473ffffffffffffffffffffffffffffffffffffffff1673ffffffffffffffffffffffffffffffffffffffff16148061307957503373ffffffffffffffffffffffffffffffffffffffff168160050160009054906101000a900473ffffffffffffffffffffffffffffffffffffffff1673ffffffffffffffffffffffffffffffffffffffff16145b61308257600080fd5b6000600560008360050160009054906101000a900473ffffffffffffffffffffffffffffffffffffffff1673ffffffffffffffffffffffffffffffffffffffff1673ffffffffffffffffffffffffffffffffffffffff168152602001908152602001600020905060005b818054905081101561367957600082828154811061310d5761310c615477565b5b906000526020600020906007020160405180610120016040529081600082015481526020016001820180548060200260200160405190810160405280929190818152602001828054801561318057602002820191906000526020600020905b81548152602001906001019080831161316c575b5050505050815260200160028201548152602001600382018054806020026020016040519081016040528092919081815260200182805480156131e257602002820191906000526020600020905b8154815260200190600101908083116131ce575b50505050508152602001600482015481526020016005820160009054906101000a900473ffffffffffffffffffffffffffffffffffffffff1673ffffffffffffffffffffffffffffffffffffffff1673ffffffffffffffffffffffffffffffffffffffff1681526020016006820160009054906101000a900473ffffffffffffffffffffffffffffffffffffffff1673ffffffffffffffffffffffffffffffffffffffff1673ffffffffffffffffffffffffffffffffffffffff1681526020016006820160149054906101000a900460ff161515151581526020016006820160159054906101000a900460ff16151515158152505090508360000154816000015114156136655782600184805490506132fb919061526e565b8154811061330c5761330b615477565b5b906000526020600020906007020183838154811061332d5761332c615477565b5b906000526020600020906007020160008201548160000155600182018160010190805461335b929190613e91565b5060028201548160020155600382018160030190805461337c929190613e91565b50600482015481600401556005820160009054906101000a900473ffffffffffffffffffffffffffffffffffffffff168160050160006101000a81548173ffffffffffffffffffffffffffffffffffffffff021916908373ffffffffffffffffffffffffffffffffffffffff1602179055506006820160009054906101000a900473ffffffffffffffffffffffffffffffffffffffff168160060160006101000a81548173ffffffffffffffffffffffffffffffffffffffff021916908373ffffffffffffffffffffffffffffffffffffffff1602179055506006820160149054906101000a900460ff168160060160146101000a81548160ff0219169083151502179055506006820160159054906101000a900460ff168160060160156101000a81548160ff02191690831515021790555090505082600560008660050160009054906101000a900473ffffffffffffffffffffffffffffffffffffffff1673ffffffffffffffffffffffffffffffffffffffff1673ffffffffffffffffffffffffffffffffffffffff168152602001908152602001600020908054613524929190613ee3565b50600560008560050160009054906101000a900473ffffffffffffffffffffffffffffffffffffffff1673ffffffffffffffffffffffffffffffffffffffff1673ffffffffffffffffffffffffffffffffffffffff16815260200190815260200160002080548061359857613597615448565b5b60019003818190600052602060002090600702016000808201600090556001820160006135c591906140af565b60028201600090556003820160006135dd91906140af565b60048201600090556005820160006101000a81549073ffffffffffffffffffffffffffffffffffffffff02191690556006820160006101000a81549073ffffffffffffffffffffffffffffffffffffffff02191690556006820160146101000a81549060ff02191690556006820160156101000a81549060ff02191690555050905550613679565b508080613671906153a1565b9150506130ec565b5060005b600a8054905081101561374d576000600a82815481106136a05761369f615477565b5b90600052602060002001549050836000015481141561373957600a6001600a805490506136cd919061526e565b815481106136de576136dd615477565b5b9060005260206000200154600a83815481106136fd576136fc615477565b5b9060005260206000200181905550600a80548061371d5761371c615448565b5b600190038181906000526020600020016000905590555061374d565b508080613745906153a1565b91505061367d565b506006600084815260200190815260200160002060008082016000905560018201600061377a91906140af565b600282016000905560038201600061379291906140af565b60048201600090556005820160006101000a81549073ffffffffffffffffffffffffffffffffffffffff02191690556006820160006101000a81549073ffffffffffffffffffffffffffffffffffffffff02191690556006820160146101000a81549060ff02191690556006820160156101000a81549060ff02191690555050505050565b6060600980548060200260200160405190810160405280929190818152602001828054801561386557602002820191906000526020600020905b815481526020019060010190808311613851575b5050505050905090565b600d60009054906101000a900473ffffffffffffffffffffffffffffffffffffffff1681565b61389d61398d565b73ffffffffffffffffffffffffffffffffffffffff166138bb610ba8565b73ffffffffffffffffffffffffffffffffffffffff1614613911576040517f08c379a000000000000000000000000000000000000000000000000000000000815260040161390890615004565b60405180910390fd5b600073ffffffffffffffffffffffffffffffffffffffff168173ffffffffffffffffffffffffffffffffffffffff161415613981576040517f08c379a000000000000000000000000000000000000000000000000000000000815260040161397890614fc4565b60405180910390fd5b61398a81613995565b50565b600033905090565b60008060009054906101000a900473ffffffffffffffffffffffffffffffffffffffff169050816000806101000a81548173ffffffffffffffffffffffffffffffffffffffff021916908373ffffffffffffffffffffffffffffffffffffffff1602179055508173ffffffffffffffffffffffffffffffffffffffff168173ffffffffffffffffffffffffffffffffffffffff167f8be0079c531659141344cd1fd0a4f28419497f9722a3daafe3b4186f6b6457e060405160405180910390a35050565b6001816000016000828254019250508190555050565b600081600001549050919050565b6040518061012001604052806000815260200160008152602001600073ffffffffffffffffffffffffffffffffffffffff1681526020016000815260200160001515815260200160008152602001600081526020016000151581526020016000151581525090565b6040518061012001604052806000815260200160608152602001600081526020016060815260200160008152602001600073ffffffffffffffffffffffffffffffffffffffff168152602001600073ffffffffffffffffffffffffffffffffffffffff1681526020016000151581526020016000151581525090565b828054828255906000526020600020908101928215613b9d579160200282015b82811115613b9c578251825591602001919060010190613b81565b5b509050613baa91906140d0565b5090565b828054613bba9061533e565b90600052602060002090601f016020900481019282613bdc5760008555613c23565b82601f10613bf557805160ff1916838001178555613c23565b82800160010185558215613c23579182015b82811115613c22578251825591602001919060010190613c07565b5b509050613c3091906140d0565b5090565b828054828255906000526020600020908101928215613cad579160200282015b82811115613cac5782518260006101000a81548173ffffffffffffffffffffffffffffffffffffffff021916908373ffffffffffffffffffffffffffffffffffffffff16021790555091602001919060010190613c54565b5b509050613cba91906140d0565b5090565b828054828255906000526020600020906008028101928215613e255760005260206000209160080282015b82811115613e2457828260008201548160000155600182015481600101556002820160009054906101000a900473ffffffffffffffffffffffffffffffffffffffff168160020160006101000a81548173ffffffffffffffffffffffffffffffffffffffff021916908373ffffffffffffffffffffffffffffffffffffffff160217905550600382015481600301556004820160009054906101000a900460ff168160040160006101000a81548160ff02191690831515021790555060058201548160050155600682015481600601556007820160009054906101000a900460ff168160070160006101000a81548160ff0219169083151502179055506007820160019054906101000a900460ff168160070160016101000a81548160ff021916908315150217905550505091600801919060080190613ce9565b5b509050613e3291906140ed565b5090565b604051806101000160405280600073ffffffffffffffffffffffffffffffffffffffff168152602001606081526020016060815260200160608152602001606081526020016060815260200160608152602001606081525090565b828054828255906000526020600020908101928215613ed25760005260206000209182015b82811115613ed1578254825591600101919060010190613eb6565b5b509050613edf91906140d0565b5090565b82805482825590600052602060002090600702810192821561409e5760005260206000209160070282015b8281111561409d578282600082015481600001556001820181600101908054613f38929190613e91565b50600282015481600201556003820181600301908054613f59929190613e91565b50600482015481600401556005820160009054906101000a900473ffffffffffffffffffffffffffffffffffffffff168160050160006101000a81548173ffffffffffffffffffffffffffffffffffffffff021916908373ffffffffffffffffffffffffffffffffffffffff1602179055506006820160009054906101000a900473ffffffffffffffffffffffffffffffffffffffff168160060160006101000a81548173ffffffffffffffffffffffffffffffffffffffff021916908373ffffffffffffffffffffffffffffffffffffffff1602179055506006820160149054906101000a900460ff168160060160146101000a81548160ff0219169083151502179055506006820160159054906101000a900460ff168160060160156101000a81548160ff021916908315150217905550505091600701919060070190613f0e565b5b5090506140ab919061418f565b5090565b50805460008255906000526020600020908101906140cd91906140d0565b50565b5b808211156140e95760008160009055506001016140d1565b5090565b5b8082111561418b5760008082016000905560018201600090556002820160006101000a81549073ffffffffffffffffffffffffffffffffffffffff021916905560038201600090556004820160006101000a81549060ff0219169055600582016000905560068201600090556007820160006101000a81549060ff02191690556007820160016101000a81549060ff0219169055506008016140ee565b5090565b5b80821115614250576000808201600090556001820160006141b191906140af565b60028201600090556003820160006141c991906140af565b60048201600090556005820160006101000a81549073ffffffffffffffffffffffffffffffffffffffff02191690556006820160006101000a81549073ffffffffffffffffffffffffffffffffffffffff02191690556006820160146101000a81549060ff02191690556006820160156101000a81549060ff021916905550600701614190565b5090565b6000614267614262846150e4565b6150bf565b9050808382526020820190508285602086028201111561428a576142896154da565b5b60005b858110156142ba57816142a088826143cb565b84526020840193506020830192505060018101905061428d565b5050509392505050565b60006142d76142d284615110565b6150bf565b9050828152602081018484840111156142f3576142f26154df565b5b6142fe8482856152fc565b509392505050565b60008135905061431581615641565b92915050565b60008151905061432a81615641565b92915050565b60008135905061433f81615658565b92915050565b600082601f83011261435a576143596154d5565b5b813561436a848260208601614254565b91505092915050565b6000813590506143828161566f565b92915050565b6000815190506143978161566f565b92915050565b600082601f8301126143b2576143b16154d5565b5b81356143c28482602086016142c4565b91505092915050565b6000813590506143da81615686565b92915050565b6000815190506143ef81615686565b92915050565b60006020828403121561440b5761440a6154e9565b5b600061441984828501614306565b91505092915050565b600060208284031215614438576144376154e9565b5b60006144468482850161431b565b91505092915050565b600060208284031215614465576144646154e9565b5b600061447384828501614330565b91505092915050565b60008060008060008060c08789031215614499576144986154e9565b5b60006144a789828a01614306565b965050602087013567ffffffffffffffff8111156144c8576144c76154e4565b5b6144d489828a01614345565b95505060406144e589828a016143cb565b945050606087013567ffffffffffffffff811115614506576145056154e4565b5b61451289828a01614345565b935050608061452389828a016143cb565b92505060a061453489828a01614373565b9150509295509295509295565b600080600080600060a0868803121561455d5761455c6154e9565b5b600061456b88828901614306565b955050602086013567ffffffffffffffff81111561458c5761458b6154e4565b5b6145988882890161439d565b945050604086013567ffffffffffffffff8111156145b9576145b86154e4565b5b6145c58882890161439d565b935050606086013567ffffffffffffffff8111156145e6576145e56154e4565b5b6145f28882890161439d565b925050608086013567ffffffffffffffff811115614613576146126154e4565b5b61461f8882890161439d565b9150509295509295909350565b600060208284031215614642576146416154e9565b5b600061465084828501614388565b91505092915050565b60006020828403121561466f5761466e6154e9565b5b600061467d848285016143cb565b91505092915050565b60006020828403121561469c5761469b6154e9565b5b60006146aa848285016143e0565b91505092915050565b600080600080600060a086880312156146cf576146ce6154e9565b5b60006146dd888289016143cb565b95505060206146ee888289016143cb565b94505060406146ff888289016143cb565b9350506060614710888289016143cb565b925050608061472188828901614373565b9150509295509295909350565b600061473a838361478b565b60208301905092915050565b60006147528383614ab0565b6101208301905092915050565b600061476b8383614c1e565b905092915050565b600061477f8383614e90565b60208301905092915050565b614794816152a2565b82525050565b6147a3816152a2565b82525050565b60006147b482615181565b6147be81856151ec565b93506147c983615141565b8060005b838110156147fa5781516147e1888261472e565b97506147ec836151b8565b9250506001810190506147cd565b5085935050505092915050565b60006148128261518c565b61481c81856151fd565b935061482783615151565b8060005b8381101561485857815161483f8882614746565b975061484a836151c5565b92505060018101905061482b565b5085935050505092915050565b600061487082615197565b61487a818561520e565b93508360208202850161488c85615161565b8060005b858110156148c857848403895281516148a9858261475f565b94506148b4836151d2565b925060208a01995050600181019050614890565b50829750879550505050505092915050565b60006148e5826151a2565b6148ef818561521f565b93506148fa83615171565b8060005b8381101561492b5781516149128882614773565b975061491d836151df565b9250506001810190506148fe565b5085935050505092915050565b6000614943826151a2565b61494d8185615230565b935061495883615171565b8060005b838110156149895781516149708882614773565b975061497b836151df565b92505060018101905061495c565b5085935050505092915050565b61499f816152c6565b82525050565b60006149b0826151ad565b6149ba818561524c565b93506149ca81856020860161530b565b6149d3816154ee565b840191505092915050565b60006149eb60338361525d565b91506149f6826154ff565b604082019050919050565b6000614a0e60268361525d565b9150614a198261554e565b604082019050919050565b6000614a3160148361525d565b9150614a3c8261559d565b602082019050919050565b6000614a5460208361525d565b9150614a5f826155c6565b602082019050919050565b6000614a77600083615241565b9150614a82826155ef565b600082019050919050565b6000614a9a60338361525d565b9150614aa5826155f2565b604082019050919050565b61012082016000820151614ac76000850182614e90565b506020820151614ada6020850182614e90565b506040820151614aed604085018261478b565b506060820151614b006060850182614e90565b506080820151614b136080850182614996565b5060a0820151614b2660a0850182614e90565b5060c0820151614b3960c0850182614e90565b5060e0820151614b4c60e0850182614996565b50610100820151614b61610100850182614996565b50505050565b61012082016000820151614b7e6000850182614e90565b506020820151614b916020850182614e90565b506040820151614ba4604085018261478b565b506060820151614bb76060850182614e90565b506080820151614bca6080850182614996565b5060a0820151614bdd60a0850182614e90565b5060c0820151614bf060c0850182614e90565b5060e0820151614c0360e0850182614996565b50610100820151614c18610100850182614996565b50505050565b600061012083016000830151614c376000860182614e90565b5060208301518482036020860152614c4f82826148da565b9150506040830151614c646040860182614e90565b5060608301518482036060860152614c7c82826148da565b9150506080830151614c916080860182614e90565b5060a0830151614ca460a086018261478b565b5060c0830151614cb760c086018261478b565b5060e0830151614cca60e0860182614996565b50610100830151614cdf610100860182614996565b508091505092915050565b600061012083016000830151614d036000860182614e90565b5060208301518482036020860152614d1b82826148da565b9150506040830151614d306040860182614e90565b5060608301518482036060860152614d4882826148da565b9150506080830151614d5d6080860182614e90565b5060a0830151614d7060a086018261478b565b5060c0830151614d8360c086018261478b565b5060e0830151614d9660e0860182614996565b50610100830151614dab610100860182614996565b508091505092915050565b600061010083016000830151614dcf600086018261478b565b5060208301518482036020860152614de782826149a5565b91505060408301518482036040860152614e0182826149a5565b91505060608301518482036060860152614e1b82826149a5565b91505060808301518482036080860152614e3582826149a5565b91505060a083015184820360a0860152614e4f82826147a9565b91505060c083015184820360c0860152614e6982826147a9565b91505060e083015184820360e0860152614e8382826148da565b9150508091505092915050565b614e99816152f2565b82525050565b614ea8816152f2565b82525050565b6000614eb982614a6a565b9150819050919050565b6000602082019050614ed8600083018461479a565b92915050565b6000606082019050614ef3600083018661479a565b614f00602083018561479a565b614f0d6040830184614e9f565b949350505050565b6000604082019050614f2a600083018561479a565b614f376020830184614e9f565b9392505050565b60006020820190508181036000830152614f588184614807565b905092915050565b60006020820190508181036000830152614f7a8184614865565b905092915050565b60006020820190508181036000830152614f9c8184614938565b905092915050565b60006020820190508181036000830152614fbd816149de565b9050919050565b60006020820190508181036000830152614fdd81614a01565b9050919050565b60006020820190508181036000830152614ffd81614a24565b9050919050565b6000602082019050818103600083015261501d81614a47565b9050919050565b6000602082019050818103600083015261503d81614a8d565b9050919050565b60006101208201905061505a6000830184614b67565b92915050565b6000602082019050818103600083015261507a8184614cea565b905092915050565b6000602082019050818103600083015261509c8184614db6565b905092915050565b60006020820190506150b96000830184614e9f565b92915050565b60006150c96150da565b90506150d58282615370565b919050565b6000604051905090565b600067ffffffffffffffff8211156150ff576150fe6154a6565b5b602082029050602081019050919050565b600067ffffffffffffffff82111561512b5761512a6154a6565b5b615134826154ee565b9050602081019050919050565b6000819050602082019050919050565b6000819050602082019050919050565b6000819050602082019050919050565b6000819050602082019050919050565b600081519050919050565b600081519050919050565b600081519050919050565b600081519050919050565b600081519050919050565b6000602082019050919050565b6000602082019050919050565b6000602082019050919050565b6000602082019050919050565b600082825260208201905092915050565b600082825260208201905092915050565b600082825260208201905092915050565b600082825260208201905092915050565b600082825260208201905092915050565b600081905092915050565b600082825260208201905092915050565b600082825260208201905092915050565b6000615279826152f2565b9150615284836152f2565b925082821015615297576152966153ea565b5b828203905092915050565b60006152ad826152d2565b9050919050565b60006152bf826152d2565b9050919050565b60008115159050919050565b600073ffffffffffffffffffffffffffffffffffffffff82169050919050565b6000819050919050565b82818337600083830152505050565b60005b8381101561532957808201518184015260208101905061530e565b83811115615338576000848401525b50505050565b6000600282049050600182168061535657607f821691505b6020821081141561536a57615369615419565b5b50919050565b615379826154ee565b810181811067ffffffffffffffff82111715615398576153976154a6565b5b80604052505050565b60006153ac826152f2565b91507fffffffffffffffffffffffffffffffffffffffffffffffffffffffffffffffff8214156153df576153de6153ea565b5b600182019050919050565b7f4e487b7100000000000000000000000000000000000000000000000000000000600052601160045260246000fd5b7f4e487b7100000000000000000000000000000000000000000000000000000000600052602260045260246000fd5b7f4e487b7100000000000000000000000000000000000000000000000000000000600052603160045260246000fd5b7f4e487b7100000000000000000000000000000000000000000000000000000000600052603260045260246000fd5b7f4e487b7100000000000000000000000000000000000000000000000000000000600052604160045260246000fd5b600080fd5b600080fd5b600080fd5b600080fd5b600080fd5b6000601f19601f8301169050919050565b7f566972696469616e45786368616e67653a20496e636f727265637420616d6f7560008201527f6e74207061696420746f2066756e6374696f6e00000000000000000000000000602082015250565b7f4f776e61626c653a206e6577206f776e657220697320746865207a65726f206160008201527f6464726573730000000000000000000000000000000000000000000000000000602082015250565b7f4661696c656420746f2073656e64204574686572000000000000000000000000600082015250565b7f4f776e61626c653a2063616c6c6572206973206e6f7420746865206f776e6572600082015250565b50565b7f566972696469616e45786368616e67653a205573657220646f6573206e6f742060008201527f6861766520656e6f7567682062616c616e636500000000000000000000000000602082015250565b61564a816152a2565b811461565557600080fd5b50565b615661816152b4565b811461566c57600080fd5b50565b615678816152c6565b811461568357600080fd5b50565b61568f816152f2565b811461569a57600080fd5b5056fea26469706673582212209a926bf020a844885fd721d6142f94d5e669af56812d110ff715a32af1bb077964736f6c63430008060033",
  "immutableReferences": {},
  "source": "pragma solidity ^0.8.0;\n\nimport \"@openzeppelin/contracts/access/Ownable.sol\";\nimport \"@openzeppelin/contracts/token/ERC721/ERC721.sol\";\nimport \"@openzeppelin/contracts/token/ERC20/IERC20.sol\";\nimport \"@openzeppelin/contracts/token/ERC20/ERC20.sol\";\nimport \"@openzeppelin/contracts/token/ERC721/IERC721.sol\";\n\nimport \"./ViridianNFT.sol\";\n\ncontract ViridianExchange is Ownable {\n\n    struct User {\n        address wallet;\n        string displayName;\n        string coverPhotoURL;\n        string profilePhotoURL;\n        string bio;\n        address[] following;\n        address[] followers;\n        uint256[] likes;\n    }\n\n    struct Offer {\n        uint256 offerId;\n        uint256[] toNftIds;\n        uint toAmt;\n        uint256[] fromNftIds;\n        uint fromAmt;\n        address to;\n        address from;\n        bool isVEXT;\n        bool pending;\n    }\n\n    using Counters for Counters.Counter;\n    Counters.Counter private _listingIds;\n    Counters.Counter private _offerIds;\n\n    //address vNFTContract = \n    \n    struct Listing {\n        uint256 listingId;\n        uint256 tokenId;\n        address owner;\n        uint256 price;\n        bool purchased;\n        uint256 royalty;\n        uint256 endTime;\n        bool sold;\n        bool isVEXT;\n    }\n\n    struct Collection {\n        string description;\n        uint256[] collectionNFTs;\n    }\n\n    //string[] public nftIds;\n    mapping (address => Collection) displayCases;\n    mapping (address => Listing[]) userListings;\n    mapping (address => Offer[]) userOffers;\n    mapping (uint256 => Offer) offers;\n    mapping (uint256 => Listing) listings;\n    mapping (address => User) users;\n    uint256[] private listingIds;\n    uint256[] private offerIds;\n\n    address public viridianNFT;\n    address public ETH;\n    address public viridianToken;\n\n    constructor(address _viridianToken, address _viridianNFT) {\n        require(address(_viridianToken) != address(0)); \n        //require(address(_ETH) != address(0));\n        require(address(_viridianNFT) != address(0));\n\n        viridianToken = _viridianToken;\n        //address _ETH, ETH = _ETH;\n        viridianNFT = _viridianNFT;\n    }\n\n    function getBalance() public view returns (uint) {\n        return address(this).balance;\n    }\n\n    function getListings() public view returns (uint256[] memory) {\n        return listingIds;\n    }\n\n    function getOffers() public view returns (uint256[] memory) {\n        return offerIds;\n    }\n\n    function getListingsFromId(uint256 _listingId) public view returns (Listing memory) {\n        return listings[_listingId];\n    }\n\n    function getOffersFromId(uint256 _offerId) public view returns (Offer memory) {\n        return offers[_offerId];\n    }\n\n    function getListingsFromUser(address _userAddr) public view returns (Listing[] memory) {\n        return userListings[_userAddr];\n    }\n\n    function getOffersFromUser(address _userAddr) public view returns (Offer[] memory) {\n        return userOffers[_userAddr];\n    }\n\n    function getNftOwner(uint256 _nftId) public view returns (address) {\n        return IERC721(viridianNFT).ownerOf(_nftId);\n    }\n\n    function getUserFromAddress(address _userAddr) public view returns (User memory) {\n        return users[_userAddr];\n    }\n\n    function editUser(address _userAddr, string memory _displayName, string memory _coverPhotoURL, string memory _profilePhotoURL, string memory _bio) public {\n        require(msg.sender == _userAddr);\n\n        User memory curUser = getUserFromAddress(_userAddr);\n\n        users[msg.sender] = User(msg.sender, _displayName, _coverPhotoURL, _profilePhotoURL, _bio, curUser.followers, curUser.following, curUser.likes);\n    }\n\n    function sendEther(address payable _to) public payable {\n        // Call returns a boolean value indicating success or failure.\n        // This is the current recommended method to use.\n        (bool sent, bytes memory data) = _to.call{value: msg.value}(\"\");\n        require(sent, \"Failed to send Ether\");\n    }\n\n    function putUpForSale(uint256 _nftId, uint256 _price, uint256 _royalty, uint256 _endTime, bool _isVEXT) public payable {\n        require(getNftOwner(_nftId) == msg.sender);\n\n        _listingIds.increment();\n        uint256 _listingId = _listingIds.current();\n        Listing memory saleListing;\n        saleListing.listingId = _listingId;\n        saleListing.tokenId = _nftId;\n        saleListing.owner = msg.sender;\n        saleListing.price = _price;\n        saleListing.purchased = false;\n        saleListing.royalty = _royalty;\n        saleListing.endTime = _endTime;\n        saleListing.sold = false;\n        saleListing.isVEXT = _isVEXT;\n\n        //_listingId, _nftId, msg.sender, _price, false, \n        //                                    _royalty, _isAuction, _endTime, Bid(msg.sender, 0, _isVEXT), new Bid[](0), false, _isVEXT);\n        userListings[msg.sender].push(saleListing);\n        listings[_listingId] = saleListing;\n        listingIds.push(saleListing.listingId);\n\n        //IERC721(viridianNFT).approve(address(this), _nftId);\n        //IERC721(viridianNFT).safeTransferFrom(msg.sender, address(this), _nftId);\n    }\n    \n    function pullFromSale(uint256 _listingId) public payable {\n        Listing memory curListing = listings[_listingId];\n        require(curListing.owner == msg.sender);\n        //IERC721(viridianNFT).safeTransferFrom(address(this), msg.sender, curListing.tokenId);\n        Listing[] storage curUserListings = userListings[msg.sender];\n        for (uint i = 0; i < curUserListings.length; i++) {\n            Listing memory listing = curUserListings[i];\n            if (listing.listingId == curListing.listingId) {\n                curUserListings[i] = curUserListings[curUserListings.length - 1];\n                userListings[msg.sender] = curUserListings;\n                userListings[msg.sender].pop();\n                break;\n            }\n        }\n\n        for (uint256 i = 0; i < listingIds.length; i++) {\n            uint256 listingId = listingIds[i];\n            if (listingId == curListing.listingId) {\n                listingIds[i] = listingIds[listingIds.length - 1];\n                listingIds.pop();\n                break;\n            }\n        }\n\n        delete listings[_listingId];\n    }\n\n    function buyNFTWithETH(uint256 _listingId) public payable {\n        Listing memory curListing = listings[_listingId];\n\n        require(msg.sender.balance >= curListing.price, 'ViridianExchange: User does not have enough balance');\n        address payable ownerWallet = payable(curListing.owner);\n\n        require(msg.value == curListing.price, 'ViridianExchange: Incorrect amount paid to function');\n\n        sendEther(ownerWallet);\n        \n        IERC721(viridianNFT).safeTransferFrom(curListing.owner, msg.sender, curListing.tokenId);\n    }\n\n    function buyNFTWithVEXT(uint256 _listingId) public payable {\n        Listing memory curListing = listings[_listingId];\n\n        require(IERC20(viridianToken).balanceOf(msg.sender) >= curListing.price, 'ViridianExchange: User does not have enough balance');\n\n        // TODO: See if this implementation is preferrable\n        // // Approve and transfer VEXT from sender to contract\n        //IERC20(viridianToken).approve(msg.sender, curListing.price);\n        //IERC20(viridianToken).transferFrom(msg.sender, address(this), curListing.price);\n\n        // Approve and transfer VEXT from contract to listing owner\n        //IERC20(viridianToken).approve(address(this), curListing.price);\n        //IERC20(viridianToken).transfer(curListing.owner, curListing.price);\n\n        // Approve and transfer NFT from sender to contract\n        //IERC721(viridianNFT).approve(msg.sender, curListing.tokenId);\n\n        // Approve and transfer NFT from contract to listing owner\n        //IERC721(viridianNFT).approve(address(this), curListing.tokenId);\n        //IERC721(viridianNFT).safeTransferFrom(address(this), msg.sender, curListing.tokenId);\n\n        //IERC20(viridianToken).approve(msg.sender, curListing.price);\n        IERC20(viridianToken).transferFrom(msg.sender, curListing.owner, curListing.price);\n\n        IERC721(viridianNFT).approve(msg.sender, curListing.tokenId);\n        IERC721(viridianNFT).safeTransferFrom(curListing.owner, msg.sender, curListing.tokenId);\n    }\n\n    receive() external payable {}\n\n    // Fallback function is called when msg.data is not empty\n    fallback() external payable {}\n\n    function makeOffer(address _to, uint256[] memory _nftIds, uint256 _amount, uint256[] memory _recNftIds, uint256 _recAmount, bool isVEXT) public {\n        require(_to != msg.sender);\n\n        _offerIds.increment();\n        uint256 _offerId = _offerIds.current();\n\n        Offer memory newOffer = Offer(_offerId, _nftIds, _amount, _recNftIds, _recAmount, _to, msg.sender, isVEXT, true);\n        \n        userOffers[_to].push(newOffer);\n        offers[_offerId] = newOffer;\n        offerIds.push(_offerId);\n    }\n\n    function cancelOffer(uint256 _offerId) public {\n        Offer storage curOffer = offers[_offerId];\n        require(curOffer.from == msg.sender || curOffer.to == msg.sender);\n        Offer[] storage curUserOffers = userOffers[curOffer.to];\n        \n        //TODO: Check who is cancelling and cancel that person's offers.\n\n        // Remove offer from current user's offers\n        for (uint i = 0; i < curUserOffers.length; i++) {\n            Offer memory offer = curUserOffers[i];\n            if (offer.offerId == curOffer.offerId) {\n                curUserOffers[i] = curUserOffers[curUserOffers.length - 1];\n                userOffers[curOffer.to] = curUserOffers;\n                userOffers[curOffer.to].pop();\n                break;\n            }\n        } \n\n        // Remove offer id from global list of offer ids\n        for (uint256 i = 0; i < offerIds.length; i++) {\n            uint256 offerId = offerIds[i];\n            if (offerId == curOffer.offerId) {\n                offerIds[i] = offerIds[offerIds.length - 1];\n                offerIds.pop();\n                break;\n            }\n        }\n\n        // Remove offer from global mapping of offers\n        delete offers[_offerId];\n    }\n\n    //TODO: Figure out how to send eth from \"from\" wallet to \"to\" wallet.\n    function acceptOfferWithETH(uint256 _offerId) public payable {\n        Offer storage curOffer = offers[_offerId];\n\n        require(curOffer.to != msg.sender);\n\n        address payable ownerWallet = payable(curOffer.from);\n\n        sendEther(ownerWallet);\n\n        cancelOffer(_offerId);\n    }\n\n    function acceptOfferWithVEXT(uint256 _offerId) public {\n        Offer storage curOffer = offers[_offerId];\n\n        IERC20(viridianToken).transferFrom(curOffer.from, msg.sender, curOffer.fromAmt);\n        IERC20(viridianToken).transfer(curOffer.from, curOffer.toAmt);\n\n        // Loop through all of the to items in the offer.\n        for (uint i = 0; i < curOffer.toNftIds.length; i++) {\n            IERC721(viridianNFT).approve(msg.sender, curOffer.fromNftIds[i]);\n            IERC721(viridianNFT).safeTransferFrom(curOffer.from, msg.sender, curOffer.toNftIds[i]);\n        }\n\n        // Loop through all of the from items in the offer.\n        for (uint i = 0; i < curOffer.fromNftIds.length; i++) {\n            IERC721(viridianNFT).approve(msg.sender, curOffer.fromNftIds[i]);\n            IERC721(viridianNFT).safeTransferFrom(curOffer.to, curOffer.from, curOffer.fromNftIds[i]);\n        }\n    }\n}",
  "sourcePath": "/Users/krishmoran/Documents/GitHub/Viridian-Exchange-Contracts/contracts/ViridianExchange.sol",
  "compiler": {
    "name": "solc",
    "version": "0.8.6+commit.11564f7e.Emscripten.clang"
  },
  "schemaVersion": "3.4.1",
  "updatedAt": "2021-08-04T20:13:57.942Z",
  "networkType": "ethereum",
  "devdoc": {
    "kind": "dev",
    "methods": {
      "owner()": {
        "details": "Returns the address of the current owner."
      },
      "renounceOwnership()": {
        "details": "Leaves the contract without owner. It will not be possible to call `onlyOwner` functions anymore. Can only be called by the current owner. NOTE: Renouncing ownership will leave the contract without an owner, thereby removing any functionality that is only available to the owner."
      },
      "transferOwnership(address)": {
        "details": "Transfers ownership of the contract to a new account (`newOwner`). Can only be called by the current owner."
      }
    },
    "version": 1
  },
  "userdoc": {
    "kind": "user",
    "methods": {},
    "version": 1
  }
}