{
  "contractName": "ViridianExchange",
  "abi": [
    {
      "inputs": [
        {
          "internalType": "address",
          "name": "_viridianToken",
          "type": "address"
        },
        {
          "internalType": "address",
          "name": "_viridianNFT",
          "type": "address"
        }
      ],
      "stateMutability": "nonpayable",
      "type": "constructor"
    },
    {
      "anonymous": false,
      "inputs": [
        {
          "indexed": true,
          "internalType": "address",
          "name": "previousOwner",
          "type": "address"
        },
        {
          "indexed": true,
          "internalType": "address",
          "name": "newOwner",
          "type": "address"
        }
      ],
      "name": "OwnershipTransferred",
      "type": "event"
    },
    {
      "stateMutability": "payable",
      "type": "fallback",
      "payable": true
    },
    {
      "inputs": [],
      "name": "ETH",
      "outputs": [
        {
          "internalType": "address",
          "name": "",
          "type": "address"
        }
      ],
      "stateMutability": "view",
      "type": "function",
      "constant": true
    },
    {
      "inputs": [],
      "name": "owner",
      "outputs": [
        {
          "internalType": "address",
          "name": "",
          "type": "address"
        }
      ],
      "stateMutability": "view",
      "type": "function",
      "constant": true
    },
    {
      "inputs": [],
      "name": "renounceOwnership",
      "outputs": [],
      "stateMutability": "nonpayable",
      "type": "function"
    },
    {
      "inputs": [
        {
          "internalType": "address",
          "name": "newOwner",
          "type": "address"
        }
      ],
      "name": "transferOwnership",
      "outputs": [],
      "stateMutability": "nonpayable",
      "type": "function"
    },
    {
      "inputs": [],
      "name": "viridianNFT",
      "outputs": [
        {
          "internalType": "address",
          "name": "",
          "type": "address"
        }
      ],
      "stateMutability": "view",
      "type": "function",
      "constant": true
    },
    {
      "inputs": [],
      "name": "viridianToken",
      "outputs": [
        {
          "internalType": "address",
          "name": "",
          "type": "address"
        }
      ],
      "stateMutability": "view",
      "type": "function",
      "constant": true
    },
    {
      "stateMutability": "payable",
      "type": "receive",
      "payable": true
    },
    {
      "inputs": [],
      "name": "getBalance",
      "outputs": [
        {
          "internalType": "uint256",
          "name": "",
          "type": "uint256"
        }
      ],
      "stateMutability": "view",
      "type": "function",
      "constant": true
    },
    {
      "inputs": [],
      "name": "getListings",
      "outputs": [
        {
          "internalType": "uint256[]",
          "name": "",
          "type": "uint256[]"
        }
      ],
      "stateMutability": "view",
      "type": "function",
      "constant": true
    },
    {
      "inputs": [],
      "name": "getOffers",
      "outputs": [
        {
          "internalType": "uint256[]",
          "name": "",
          "type": "uint256[]"
        }
      ],
      "stateMutability": "view",
      "type": "function",
      "constant": true
    },
    {
      "inputs": [
        {
          "internalType": "uint256",
          "name": "_listingId",
          "type": "uint256"
        }
      ],
      "name": "getListingsFromId",
      "outputs": [
        {
          "components": [
            {
              "internalType": "uint256",
              "name": "listingId",
              "type": "uint256"
            },
            {
              "internalType": "uint256",
              "name": "tokenId",
              "type": "uint256"
            },
            {
              "internalType": "address",
              "name": "owner",
              "type": "address"
            },
            {
              "internalType": "uint256",
              "name": "price",
              "type": "uint256"
            },
            {
              "internalType": "bool",
              "name": "purchased",
              "type": "bool"
            },
            {
              "internalType": "uint256",
              "name": "royalty",
              "type": "uint256"
            },
            {
              "internalType": "uint256",
              "name": "endTime",
              "type": "uint256"
            },
            {
              "internalType": "bool",
              "name": "sold",
              "type": "bool"
            },
            {
              "internalType": "bool",
              "name": "isVEXT",
              "type": "bool"
            }
          ],
          "internalType": "struct ViridianExchange.Listing",
          "name": "",
          "type": "tuple"
        }
      ],
      "stateMutability": "view",
      "type": "function",
      "constant": true
    },
    {
      "inputs": [
        {
          "internalType": "uint256",
          "name": "_offerId",
          "type": "uint256"
        }
      ],
      "name": "getOffersFromId",
      "outputs": [
        {
          "components": [
            {
              "internalType": "uint256",
              "name": "offerId",
              "type": "uint256"
            },
            {
              "internalType": "uint256[]",
              "name": "toNftIds",
              "type": "uint256[]"
            },
            {
              "internalType": "uint256",
              "name": "toAmt",
              "type": "uint256"
            },
            {
              "internalType": "uint256[]",
              "name": "fromNftIds",
              "type": "uint256[]"
            },
            {
              "internalType": "uint256",
              "name": "fromAmt",
              "type": "uint256"
            },
            {
              "internalType": "address",
              "name": "to",
              "type": "address"
            },
            {
              "internalType": "address",
              "name": "from",
              "type": "address"
            },
            {
              "internalType": "bool",
              "name": "isVEXT",
              "type": "bool"
            },
            {
              "internalType": "bool",
              "name": "pending",
              "type": "bool"
            }
          ],
          "internalType": "struct ViridianExchange.Offer",
          "name": "",
          "type": "tuple"
        }
      ],
      "stateMutability": "view",
      "type": "function",
      "constant": true
    },
    {
      "inputs": [
        {
          "internalType": "address",
          "name": "_userAddr",
          "type": "address"
        }
      ],
      "name": "getListingsFromUser",
      "outputs": [
        {
          "components": [
            {
              "internalType": "uint256",
              "name": "listingId",
              "type": "uint256"
            },
            {
              "internalType": "uint256",
              "name": "tokenId",
              "type": "uint256"
            },
            {
              "internalType": "address",
              "name": "owner",
              "type": "address"
            },
            {
              "internalType": "uint256",
              "name": "price",
              "type": "uint256"
            },
            {
              "internalType": "bool",
              "name": "purchased",
              "type": "bool"
            },
            {
              "internalType": "uint256",
              "name": "royalty",
              "type": "uint256"
            },
            {
              "internalType": "uint256",
              "name": "endTime",
              "type": "uint256"
            },
            {
              "internalType": "bool",
              "name": "sold",
              "type": "bool"
            },
            {
              "internalType": "bool",
              "name": "isVEXT",
              "type": "bool"
            }
          ],
          "internalType": "struct ViridianExchange.Listing[]",
          "name": "",
          "type": "tuple[]"
        }
      ],
      "stateMutability": "view",
      "type": "function",
      "constant": true
    },
    {
      "inputs": [
        {
          "internalType": "address",
          "name": "_userAddr",
          "type": "address"
        }
      ],
      "name": "getOffersFromUser",
      "outputs": [
        {
          "components": [
            {
              "internalType": "uint256",
              "name": "offerId",
              "type": "uint256"
            },
            {
              "internalType": "uint256[]",
              "name": "toNftIds",
              "type": "uint256[]"
            },
            {
              "internalType": "uint256",
              "name": "toAmt",
              "type": "uint256"
            },
            {
              "internalType": "uint256[]",
              "name": "fromNftIds",
              "type": "uint256[]"
            },
            {
              "internalType": "uint256",
              "name": "fromAmt",
              "type": "uint256"
            },
            {
              "internalType": "address",
              "name": "to",
              "type": "address"
            },
            {
              "internalType": "address",
              "name": "from",
              "type": "address"
            },
            {
              "internalType": "bool",
              "name": "isVEXT",
              "type": "bool"
            },
            {
              "internalType": "bool",
              "name": "pending",
              "type": "bool"
            }
          ],
          "internalType": "struct ViridianExchange.Offer[]",
          "name": "",
          "type": "tuple[]"
        }
      ],
      "stateMutability": "view",
      "type": "function",
      "constant": true
    },
    {
      "inputs": [
        {
          "internalType": "uint256",
          "name": "_nftId",
          "type": "uint256"
        }
      ],
      "name": "getNftOwner",
      "outputs": [
        {
          "internalType": "address",
          "name": "",
          "type": "address"
        }
      ],
      "stateMutability": "view",
      "type": "function",
      "constant": true
    },
    {
      "inputs": [],
      "name": "getUsers",
      "outputs": [
        {
          "internalType": "address[]",
          "name": "",
          "type": "address[]"
        }
      ],
      "stateMutability": "view",
      "type": "function",
      "constant": true
    },
    {
      "inputs": [
        {
          "internalType": "address",
          "name": "_userAddr",
          "type": "address"
        }
      ],
      "name": "getUserFromAddress",
      "outputs": [
        {
          "components": [
            {
              "internalType": "address",
              "name": "wallet",
              "type": "address"
            },
            {
              "internalType": "string",
              "name": "displayName",
              "type": "string"
            },
            {
              "internalType": "string",
              "name": "coverPhotoURL",
              "type": "string"
            },
            {
              "internalType": "string",
              "name": "profilePhotoURL",
              "type": "string"
            },
            {
              "internalType": "string",
              "name": "bio",
              "type": "string"
            },
            {
              "internalType": "address[]",
              "name": "following",
              "type": "address[]"
            },
            {
              "internalType": "address[]",
              "name": "followers",
              "type": "address[]"
            },
            {
              "internalType": "uint256[]",
              "name": "likes",
              "type": "uint256[]"
            }
          ],
          "internalType": "struct ViridianExchange.User",
          "name": "",
          "type": "tuple"
        }
      ],
      "stateMutability": "view",
      "type": "function",
      "constant": true
    },
    {
      "inputs": [],
      "name": "signUpUser",
      "outputs": [],
      "stateMutability": "nonpayable",
      "type": "function"
    },
    {
      "inputs": [
        {
          "internalType": "address",
          "name": "_userAddr",
          "type": "address"
        },
        {
          "internalType": "string",
          "name": "_displayName",
          "type": "string"
        },
        {
          "internalType": "string",
          "name": "_coverPhotoURL",
          "type": "string"
        },
        {
          "internalType": "string",
          "name": "_profilePhotoURL",
          "type": "string"
        },
        {
          "internalType": "string",
          "name": "_bio",
          "type": "string"
        }
      ],
      "name": "editUser",
      "outputs": [],
      "stateMutability": "nonpayable",
      "type": "function"
    },
    {
      "inputs": [
        {
          "internalType": "address payable",
          "name": "_to",
          "type": "address"
        }
      ],
      "name": "sendEther",
      "outputs": [],
      "stateMutability": "payable",
      "type": "function",
      "payable": true
    },
    {
      "inputs": [
        {
          "internalType": "uint256",
          "name": "_nftId",
          "type": "uint256"
        },
        {
          "internalType": "uint256",
          "name": "_price",
          "type": "uint256"
        },
        {
          "internalType": "uint256",
          "name": "_royalty",
          "type": "uint256"
        },
        {
          "internalType": "uint256",
          "name": "_endTime",
          "type": "uint256"
        },
        {
          "internalType": "bool",
          "name": "_isVEXT",
          "type": "bool"
        }
      ],
      "name": "putUpForSale",
      "outputs": [],
      "stateMutability": "payable",
      "type": "function",
      "payable": true
    },
    {
      "inputs": [
        {
          "internalType": "uint256",
          "name": "_listingId",
          "type": "uint256"
        }
      ],
      "name": "pullFromSale",
      "outputs": [],
      "stateMutability": "payable",
      "type": "function",
      "payable": true
    },
    {
      "inputs": [
        {
          "internalType": "uint256",
          "name": "_listingId",
          "type": "uint256"
        }
      ],
      "name": "buyNFTWithETH",
      "outputs": [],
      "stateMutability": "payable",
      "type": "function",
      "payable": true
    },
    {
      "inputs": [
        {
          "internalType": "uint256",
          "name": "_listingId",
          "type": "uint256"
        }
      ],
      "name": "buyNFTWithVEXT",
      "outputs": [],
      "stateMutability": "payable",
      "type": "function",
      "payable": true
    },
    {
      "inputs": [
        {
          "internalType": "address",
          "name": "_to",
          "type": "address"
        },
        {
          "internalType": "uint256[]",
          "name": "_nftIds",
          "type": "uint256[]"
        },
        {
          "internalType": "uint256",
          "name": "_amount",
          "type": "uint256"
        },
        {
          "internalType": "uint256[]",
          "name": "_recNftIds",
          "type": "uint256[]"
        },
        {
          "internalType": "uint256",
          "name": "_recAmount",
          "type": "uint256"
        },
        {
          "internalType": "bool",
          "name": "isVEXT",
          "type": "bool"
        }
      ],
      "name": "makeOffer",
      "outputs": [],
      "stateMutability": "nonpayable",
      "type": "function"
    },
    {
      "inputs": [
        {
          "internalType": "uint256",
          "name": "_offerId",
          "type": "uint256"
        }
      ],
      "name": "cancelOffer",
      "outputs": [],
      "stateMutability": "nonpayable",
      "type": "function"
    },
    {
      "inputs": [
        {
          "internalType": "uint256",
          "name": "_offerId",
          "type": "uint256"
        }
      ],
      "name": "acceptOfferWithETH",
      "outputs": [],
      "stateMutability": "payable",
      "type": "function",
      "payable": true
    },
    {
      "inputs": [
        {
          "internalType": "uint256",
          "name": "_offerId",
          "type": "uint256"
        }
      ],
      "name": "acceptOfferWithVEXT",
      "outputs": [],
      "stateMutability": "nonpayable",
      "type": "function"
    }
  ],
  "bytecode": "0x60806040523480156200001157600080fd5b5060405162005bb238038062005bb283398181016040528101906200003791906200023a565b620000576200004b6200015760201b60201c565b6200015f60201b60201c565b600073ffffffffffffffffffffffffffffffffffffffff168273ffffffffffffffffffffffffffffffffffffffff1614156200009257600080fd5b600073ffffffffffffffffffffffffffffffffffffffff168173ffffffffffffffffffffffffffffffffffffffff161415620000cd57600080fd5b81600e60006101000a81548173ffffffffffffffffffffffffffffffffffffffff021916908373ffffffffffffffffffffffffffffffffffffffff16021790555080600c60006101000a81548173ffffffffffffffffffffffffffffffffffffffff021916908373ffffffffffffffffffffffffffffffffffffffff1602179055505050620002d4565b600033905090565b60008060009054906101000a900473ffffffffffffffffffffffffffffffffffffffff169050816000806101000a81548173ffffffffffffffffffffffffffffffffffffffff021916908373ffffffffffffffffffffffffffffffffffffffff1602179055508173ffffffffffffffffffffffffffffffffffffffff168173ffffffffffffffffffffffffffffffffffffffff167f8be0079c531659141344cd1fd0a4f28419497f9722a3daafe3b4186f6b6457e060405160405180910390a35050565b6000815190506200023481620002ba565b92915050565b60008060408385031215620002545762000253620002b5565b5b6000620002648582860162000223565b9250506020620002778582860162000223565b9150509250929050565b60006200028e8262000295565b9050919050565b600073ffffffffffffffffffffffffffffffffffffffff82169050919050565b600080fd5b620002c58162000281565b8114620002d157600080fd5b50565b6158ce80620002e46000396000f3fe60806040526004361061019f5760003560e01c8063a511e467116100ec578063dd42c3b31161008a578063ef706adf11610064578063ef706adf14610569578063f1b2d6a314610592578063f2f57e95146105bd578063f2fde38b146105e8576101a6565b8063dd42c3b3146104f4578063e14f50d414610510578063ec186db31461054d576101a6565b8063aec99da2116100c6578063aec99da214610435578063af62c6841461045e578063bddb06f31461049b578063d382335a146104b7576101a6565b8063a511e467146103d9578063ac0b27c2146103f0578063aeb797821461040c576101a6565b806348c981e2116101595780638ad2d5a7116101335780638ad2d5a71461031d5780638da5cb5b1461035a5780639a701288146103855780639cbccc2c146103b0576101a6565b806348c981e2146102bf578063715018a6146102db5780638322fff2146102f2576101a6565b8062ce8e3e146101a857806312065fe0146101d357806313b2361e146101fe578063273e287e1461023b5780633eaf56b0146102575780633ee992ee14610294576101a6565b366101a657005b005b3480156101b457600080fd5b506101bd610611565b6040516101ca9190615106565b60405180910390f35b3480156101df57600080fd5b506101e861069f565b6040516101f5919061528e565b60405180910390f35b34801561020a57600080fd5b50610225600480360381019061022091906147c3565b6106a7565b604051610232919061522e565b60405180910390f35b610255600480360381019061025091906147c3565b6107ae565b005b34801561026357600080fd5b5061027e600480360381019061027991906147c3565b610862565b60405161028b919061524a565b60405180910390f35b3480156102a057600080fd5b506102a9610a40565b6040516102b6919061516c565b60405180910390f35b6102d960048036038101906102d491906145b9565b610a98565b005b3480156102e757600080fd5b506102f0610b4b565b005b3480156102fe57600080fd5b50610307610bd3565b604051610314919061508b565b60405180910390f35b34801561032957600080fd5b50610344600480360381019061033f91906147c3565b610bf9565b604051610351919061508b565b60405180910390f35b34801561036657600080fd5b5061036f610cad565b60405161037c919061508b565b60405180910390f35b34801561039157600080fd5b5061039a610cd6565b6040516103a7919061508b565b60405180910390f35b3480156103bc57600080fd5b506103d760048036038101906103d291906145e6565b610cfc565b005b3480156103e557600080fd5b506103ee6110c5565b005b61040a600480360381019061040591906147c3565b61112a565b005b34801561041857600080fd5b50610433600480360381019061042e91906146ab565b611501565b005b34801561044157600080fd5b5061045c600480360381019061045791906147c3565b6116fe565b005b34801561046a57600080fd5b506104856004803603810190610480919061455f565b611c43565b6040516104929190615128565b60405180910390f35b6104b560048036038101906104b091906147c3565b611dbb565b005b3480156104c357600080fd5b506104de60048036038101906104d9919061455f565b6124ab565b6040516104eb919061514a565b60405180910390f35b61050e6004803603810190610509919061481d565b6126fa565b005b34801561051c57600080fd5b506105376004803603810190610532919061455f565b612a63565b604051610544919061526c565b60405180910390f35b610567600480360381019061056291906147c3565b612ecf565b005b34801561057557600080fd5b50610590600480360381019061058b91906147c3565b61311f565b005b34801561059e57600080fd5b506105a7613981565b6040516105b4919061516c565b60405180910390f35b3480156105c957600080fd5b506105d26139d9565b6040516105df919061508b565b60405180910390f35b3480156105f457600080fd5b5061060f600480360381019061060a919061455f565b6139ff565b005b6060600980548060200260200160405190810160405280929190818152602001828054801561069557602002820191906000526020600020905b8160009054906101000a900473ffffffffffffffffffffffffffffffffffffffff1673ffffffffffffffffffffffffffffffffffffffff168152602001906001019080831161064b575b5050505050905090565b600047905090565b6106af613be7565b600760008381526020019081526020016000206040518061012001604052908160008201548152602001600182015481526020016002820160009054906101000a900473ffffffffffffffffffffffffffffffffffffffff1673ffffffffffffffffffffffffffffffffffffffff1673ffffffffffffffffffffffffffffffffffffffff168152602001600382015481526020016004820160009054906101000a900460ff1615151515815260200160058201548152602001600682015481526020016007820160009054906101000a900460ff161515151581526020016007820160019054906101000a900460ff1615151515815250509050919050565b60006006600083815260200190815260200160002090503373ffffffffffffffffffffffffffffffffffffffff168160050160009054906101000a900473ffffffffffffffffffffffffffffffffffffffff1673ffffffffffffffffffffffffffffffffffffffff16141561082257600080fd5b60008160060160009054906101000a900473ffffffffffffffffffffffffffffffffffffffff16905061085481610a98565b61085d8361311f565b505050565b61086a613c4f565b600660008381526020019081526020016000206040518061012001604052908160008201548152602001600182018054806020026020016040519081016040528092919081815260200182805480156108e257602002820191906000526020600020905b8154815260200190600101908083116108ce575b50505050508152602001600282015481526020016003820180548060200260200160405190810160405280929190818152602001828054801561094457602002820191906000526020600020905b815481526020019060010190808311610930575b50505050508152602001600482015481526020016005820160009054906101000a900473ffffffffffffffffffffffffffffffffffffffff1673ffffffffffffffffffffffffffffffffffffffff1673ffffffffffffffffffffffffffffffffffffffff1681526020016006820160009054906101000a900473ffffffffffffffffffffffffffffffffffffffff1673ffffffffffffffffffffffffffffffffffffffff1673ffffffffffffffffffffffffffffffffffffffff1681526020016006820160149054906101000a900460ff161515151581526020016006820160159054906101000a900460ff1615151515815250509050919050565b6060600b805480602002602001604051908101604052809291908181526020018280548015610a8e57602002820191906000526020600020905b815481526020019060010190808311610a7a575b5050505050905090565b6000808273ffffffffffffffffffffffffffffffffffffffff1634604051610abf90615076565b60006040518083038185875af1925050503d8060008114610afc576040519150601f19603f3d011682016040523d82523d6000602084013e610b01565b606091505b509150915081610b46576040517f08c379a0000000000000000000000000000000000000000000000000000000008152600401610b3d906151ce565b60405180910390fd5b505050565b610b53613af7565b73ffffffffffffffffffffffffffffffffffffffff16610b71610cad565b73ffffffffffffffffffffffffffffffffffffffff1614610bc7576040517f08c379a0000000000000000000000000000000000000000000000000000000008152600401610bbe906151ee565b60405180910390fd5b610bd16000613aff565b565b600d60009054906101000a900473ffffffffffffffffffffffffffffffffffffffff1681565b6000600c60009054906101000a900473ffffffffffffffffffffffffffffffffffffffff1673ffffffffffffffffffffffffffffffffffffffff16636352211e836040518263ffffffff1660e01b8152600401610c56919061528e565b60206040518083038186803b158015610c6e57600080fd5b505afa158015610c82573d6000803e3d6000fd5b505050506040513d601f19601f82011682018060405250810190610ca6919061458c565b9050919050565b60008060009054906101000a900473ffffffffffffffffffffffffffffffffffffffff16905090565b600c60009054906101000a900473ffffffffffffffffffffffffffffffffffffffff1681565b3373ffffffffffffffffffffffffffffffffffffffff168673ffffffffffffffffffffffffffffffffffffffff161415610d3557600080fd5b610d3f6002613bc3565b6000610d4b6002613bd9565b905060006040518061012001604052808381526020018881526020018781526020018681526020018581526020018973ffffffffffffffffffffffffffffffffffffffff1681526020013373ffffffffffffffffffffffffffffffffffffffff1681526020018415158152602001600115158152509050600560008973ffffffffffffffffffffffffffffffffffffffff1673ffffffffffffffffffffffffffffffffffffffff168152602001908152602001600020819080600181540180825580915050600190039060005260206000209060070201600090919091909150600082015181600001556020820151816001019080519060200190610e51929190613ccb565b50604082015181600201556060820151816003019080519060200190610e78929190613ccb565b506080820151816004015560a08201518160050160006101000a81548173ffffffffffffffffffffffffffffffffffffffff021916908373ffffffffffffffffffffffffffffffffffffffff16021790555060c08201518160060160006101000a81548173ffffffffffffffffffffffffffffffffffffffff021916908373ffffffffffffffffffffffffffffffffffffffff16021790555060e08201518160060160146101000a81548160ff0219169083151502179055506101008201518160060160156101000a81548160ff02191690831515021790555050508060066000848152602001908152602001600020600082015181600001556020820151816001019080519060200190610f8e929190613ccb565b50604082015181600201556060820151816003019080519060200190610fb5929190613ccb565b506080820151816004015560a08201518160050160006101000a81548173ffffffffffffffffffffffffffffffffffffffff021916908373ffffffffffffffffffffffffffffffffffffffff16021790555060c08201518160060160006101000a81548173ffffffffffffffffffffffffffffffffffffffff021916908373ffffffffffffffffffffffffffffffffffffffff16021790555060e08201518160060160146101000a81548160ff0219169083151502179055506101008201518160060160156101000a81548160ff021916908315150217905550905050600b8290806001815401808255809150506001900390600052602060002001600090919091909150555050505050505050565b6009339080600181540180825580915050600190039060005260206000200160009091909190916101000a81548173ffffffffffffffffffffffffffffffffffffffff021916908373ffffffffffffffffffffffffffffffffffffffff160217905550565b6000600760008381526020019081526020016000206040518061012001604052908160008201548152602001600182015481526020016002820160009054906101000a900473ffffffffffffffffffffffffffffffffffffffff1673ffffffffffffffffffffffffffffffffffffffff1673ffffffffffffffffffffffffffffffffffffffff168152602001600382015481526020016004820160009054906101000a900460ff1615151515815260200160058201548152602001600682015481526020016007820160009054906101000a900460ff161515151581526020016007820160019054906101000a900460ff16151515158152505090508060600151600e60009054906101000a900473ffffffffffffffffffffffffffffffffffffffff1673ffffffffffffffffffffffffffffffffffffffff166370a08231336040518263ffffffff1660e01b8152600401611286919061508b565b60206040518083038186803b15801561129e57600080fd5b505afa1580156112b2573d6000803e3d6000fd5b505050506040513d601f19601f820116820180604052508101906112d691906147f0565b1015611317576040517f08c379a000000000000000000000000000000000000000000000000000000000815260040161130e9061520e565b60405180910390fd5b600e60009054906101000a900473ffffffffffffffffffffffffffffffffffffffff1673ffffffffffffffffffffffffffffffffffffffff166323b872dd33836040015184606001516040518463ffffffff1660e01b815260040161137e939291906150a6565b602060405180830381600087803b15801561139857600080fd5b505af11580156113ac573d6000803e3d6000fd5b505050506040513d601f19601f820116820180604052508101906113d09190614796565b50600c60009054906101000a900473ffffffffffffffffffffffffffffffffffffffff1673ffffffffffffffffffffffffffffffffffffffff1663095ea7b33383602001516040518363ffffffff1660e01b81526004016114329291906150dd565b600060405180830381600087803b15801561144c57600080fd5b505af1158015611460573d6000803e3d6000fd5b50505050600c60009054906101000a900473ffffffffffffffffffffffffffffffffffffffff1673ffffffffffffffffffffffffffffffffffffffff166342842e0e82604001513384602001516040518463ffffffff1660e01b81526004016114cb939291906150a6565b600060405180830381600087803b1580156114e557600080fd5b505af11580156114f9573d6000803e3d6000fd5b505050505050565b8473ffffffffffffffffffffffffffffffffffffffff163373ffffffffffffffffffffffffffffffffffffffff161461153957600080fd5b600061154486612a63565b90506040518061010001604052803373ffffffffffffffffffffffffffffffffffffffff1681526020018681526020018581526020018481526020018381526020018260c0015181526020018260a0015181526020018260e00151815250600860003373ffffffffffffffffffffffffffffffffffffffff1673ffffffffffffffffffffffffffffffffffffffff16815260200190815260200160002060008201518160000160006101000a81548173ffffffffffffffffffffffffffffffffffffffff021916908373ffffffffffffffffffffffffffffffffffffffff1602179055506020820151816001019080519060200190611644929190613d18565b506040820151816002019080519060200190611661929190613d18565b50606082015181600301908051906020019061167e929190613d18565b50608082015181600401908051906020019061169b929190613d18565b5060a08201518160050190805190602001906116b8929190613d9e565b5060c08201518160060190805190602001906116d5929190613d9e565b5060e08201518160070190805190602001906116f2929190613ccb565b50905050505050505050565b6000600660008381526020019081526020016000209050600e60009054906101000a900473ffffffffffffffffffffffffffffffffffffffff1673ffffffffffffffffffffffffffffffffffffffff166323b872dd8260060160009054906101000a900473ffffffffffffffffffffffffffffffffffffffff163384600401546040518463ffffffff1660e01b815260040161179c939291906150a6565b602060405180830381600087803b1580156117b657600080fd5b505af11580156117ca573d6000803e3d6000fd5b505050506040513d601f19601f820116820180604052508101906117ee9190614796565b50600e60009054906101000a900473ffffffffffffffffffffffffffffffffffffffff1673ffffffffffffffffffffffffffffffffffffffff1663a9059cbb8260060160009054906101000a900473ffffffffffffffffffffffffffffffffffffffff1683600201546040518363ffffffff1660e01b81526004016118749291906150dd565b602060405180830381600087803b15801561188e57600080fd5b505af11580156118a2573d6000803e3d6000fd5b505050506040513d601f19601f820116820180604052508101906118c69190614796565b5060005b8160010180549050811015611a7057600c60009054906101000a900473ffffffffffffffffffffffffffffffffffffffff1673ffffffffffffffffffffffffffffffffffffffff1663095ea7b33384600301848154811061192e5761192d615672565b5b90600052602060002001546040518363ffffffff1660e01b81526004016119569291906150dd565b600060405180830381600087803b15801561197057600080fd5b505af1158015611984573d6000803e3d6000fd5b50505050600c60009054906101000a900473ffffffffffffffffffffffffffffffffffffffff1673ffffffffffffffffffffffffffffffffffffffff166342842e0e8360060160009054906101000a900473ffffffffffffffffffffffffffffffffffffffff1633856001018581548110611a0257611a01615672565b5b90600052602060002001546040518463ffffffff1660e01b8152600401611a2b939291906150a6565b600060405180830381600087803b158015611a4557600080fd5b505af1158015611a59573d6000803e3d6000fd5b505050508080611a689061559c565b9150506118ca565b5060005b8160030180549050811015611c3e57600c60009054906101000a900473ffffffffffffffffffffffffffffffffffffffff1673ffffffffffffffffffffffffffffffffffffffff1663095ea7b333846003018481548110611ad857611ad7615672565b5b90600052602060002001546040518363ffffffff1660e01b8152600401611b009291906150dd565b600060405180830381600087803b158015611b1a57600080fd5b505af1158015611b2e573d6000803e3d6000fd5b50505050600c60009054906101000a900473ffffffffffffffffffffffffffffffffffffffff1673ffffffffffffffffffffffffffffffffffffffff166342842e0e8360050160009054906101000a900473ffffffffffffffffffffffffffffffffffffffff168460060160009054906101000a900473ffffffffffffffffffffffffffffffffffffffff16856003018581548110611bd057611bcf615672565b5b90600052602060002001546040518463ffffffff1660e01b8152600401611bf9939291906150a6565b600060405180830381600087803b158015611c1357600080fd5b505af1158015611c27573d6000803e3d6000fd5b505050508080611c369061559c565b915050611a74565b505050565b6060600460008373ffffffffffffffffffffffffffffffffffffffff1673ffffffffffffffffffffffffffffffffffffffff168152602001908152602001600020805480602002602001604051908101604052809291908181526020016000905b82821015611db057838290600052602060002090600802016040518061012001604052908160008201548152602001600182015481526020016002820160009054906101000a900473ffffffffffffffffffffffffffffffffffffffff1673ffffffffffffffffffffffffffffffffffffffff1673ffffffffffffffffffffffffffffffffffffffff168152602001600382015481526020016004820160009054906101000a900460ff1615151515815260200160058201548152602001600682015481526020016007820160009054906101000a900460ff161515151581526020016007820160019054906101000a900460ff16151515158152505081526020019060010190611ca4565b505050509050919050565b6000600760008381526020019081526020016000206040518061012001604052908160008201548152602001600182015481526020016002820160009054906101000a900473ffffffffffffffffffffffffffffffffffffffff1673ffffffffffffffffffffffffffffffffffffffff1673ffffffffffffffffffffffffffffffffffffffff168152602001600382015481526020016004820160009054906101000a900460ff1615151515815260200160058201548152602001600682015481526020016007820160009054906101000a900460ff161515151581526020016007820160019054906101000a900460ff16151515158152505090503373ffffffffffffffffffffffffffffffffffffffff16816040015173ffffffffffffffffffffffffffffffffffffffff1614611ef357600080fd5b6000600460003373ffffffffffffffffffffffffffffffffffffffff1673ffffffffffffffffffffffffffffffffffffffff168152602001908152602001600020905060005b8180549050811015612330576000828281548110611f5a57611f59615672565b5b90600052602060002090600802016040518061012001604052908160008201548152602001600182015481526020016002820160009054906101000a900473ffffffffffffffffffffffffffffffffffffffff1673ffffffffffffffffffffffffffffffffffffffff1673ffffffffffffffffffffffffffffffffffffffff168152602001600382015481526020016004820160009054906101000a900460ff1615151515815260200160058201548152602001600682015481526020016007820160009054906101000a900460ff161515151581526020016007820160019054906101000a900460ff161515151581525050905083600001518160000151141561231c5782600184805490506120719190615469565b8154811061208257612081615672565b5b90600052602060002090600802018383815481106120a3576120a2615672565b5b906000526020600020906008020160008201548160000155600182015481600101556002820160009054906101000a900473ffffffffffffffffffffffffffffffffffffffff168160020160006101000a81548173ffffffffffffffffffffffffffffffffffffffff021916908373ffffffffffffffffffffffffffffffffffffffff160217905550600382015481600301556004820160009054906101000a900460ff168160040160006101000a81548160ff02191690831515021790555060058201548160050155600682015481600601556007820160009054906101000a900460ff168160070160006101000a81548160ff0219169083151502179055506007820160019054906101000a900460ff168160070160016101000a81548160ff02191690831515021790555090505082600460003373ffffffffffffffffffffffffffffffffffffffff1673ffffffffffffffffffffffffffffffffffffffff168152602001908152602001600020908054612222929190613e28565b50600460003373ffffffffffffffffffffffffffffffffffffffff1673ffffffffffffffffffffffffffffffffffffffff16815260200190815260200160002080548061227257612271615643565b5b600190038181906000526020600020906008020160008082016000905560018201600090556002820160006101000a81549073ffffffffffffffffffffffffffffffffffffffff021916905560038201600090556004820160006101000a81549060ff0219169055600582016000905560068201600090556007820160006101000a81549060ff02191690556007820160016101000a81549060ff02191690555050905550612330565b5080806123289061559c565b915050611f39565b5060005b600a80549050811015612404576000600a828154811061235757612356615672565b5b9060005260206000200154905083600001518114156123f057600a6001600a805490506123849190615469565b8154811061239557612394615672565b5b9060005260206000200154600a83815481106123b4576123b3615672565b5b9060005260206000200181905550600a8054806123d4576123d3615643565b5b6001900381819060005260206000200160009055905550612404565b5080806123fc9061559c565b915050612334565b506007600084815260200190815260200160002060008082016000905560018201600090556002820160006101000a81549073ffffffffffffffffffffffffffffffffffffffff021916905560038201600090556004820160006101000a81549060ff0219169055600582016000905560068201600090556007820160006101000a81549060ff02191690556007820160016101000a81549060ff02191690555050505050565b6060600560008373ffffffffffffffffffffffffffffffffffffffff1673ffffffffffffffffffffffffffffffffffffffff168152602001908152602001600020805480602002602001604051908101604052809291908181526020016000905b828210156126ef578382906000526020600020906007020160405180610120016040529081600082015481526020016001820180548060200260200160405190810160405280929190818152602001828054801561258957602002820191906000526020600020905b815481526020019060010190808311612575575b5050505050815260200160028201548152602001600382018054806020026020016040519081016040528092919081815260200182805480156125eb57602002820191906000526020600020905b8154815260200190600101908083116125d7575b50505050508152602001600482015481526020016005820160009054906101000a900473ffffffffffffffffffffffffffffffffffffffff1673ffffffffffffffffffffffffffffffffffffffff1673ffffffffffffffffffffffffffffffffffffffff1681526020016006820160009054906101000a900473ffffffffffffffffffffffffffffffffffffffff1673ffffffffffffffffffffffffffffffffffffffff1673ffffffffffffffffffffffffffffffffffffffff1681526020016006820160149054906101000a900460ff161515151581526020016006820160159054906101000a900460ff1615151515815250508152602001906001019061250c565b505050509050919050565b3373ffffffffffffffffffffffffffffffffffffffff1661271a86610bf9565b73ffffffffffffffffffffffffffffffffffffffff161461273a57600080fd5b6127446001613bc3565b60006127506001613bd9565b905061275a613be7565b818160000181815250508681602001818152505033816040019073ffffffffffffffffffffffffffffffffffffffff16908173ffffffffffffffffffffffffffffffffffffffff1681525050858160600181815250506000816080019015159081151581525050848160a0018181525050838160c001818152505060008160e00190151590811515815250508281610100019015159081151581525050600460003373ffffffffffffffffffffffffffffffffffffffff1673ffffffffffffffffffffffffffffffffffffffff168152602001908152602001600020819080600181540180825580915050600190039060005260206000209060080201600090919091909150600082015181600001556020820151816001015560408201518160020160006101000a81548173ffffffffffffffffffffffffffffffffffffffff021916908373ffffffffffffffffffffffffffffffffffffffff1602179055506060820151816003015560808201518160040160006101000a81548160ff02191690831515021790555060a0820151816005015560c0820151816006015560e08201518160070160006101000a81548160ff0219169083151502179055506101008201518160070160016101000a81548160ff02191690831515021790555050508060076000848152602001908152602001600020600082015181600001556020820151816001015560408201518160020160006101000a81548173ffffffffffffffffffffffffffffffffffffffff021916908373ffffffffffffffffffffffffffffffffffffffff1602179055506060820151816003015560808201518160040160006101000a81548160ff02191690831515021790555060a0820151816005015560c0820151816006015560e08201518160070160006101000a81548160ff0219169083151502179055506101008201518160070160016101000a81548160ff021916908315150217905550905050600a8160000151908060018154018082558091505060019003906000526020600020016000909190919091505550505050505050565b612a6b613fa0565b600860008373ffffffffffffffffffffffffffffffffffffffff1673ffffffffffffffffffffffffffffffffffffffff168152602001908152602001600020604051806101000160405290816000820160009054906101000a900473ffffffffffffffffffffffffffffffffffffffff1673ffffffffffffffffffffffffffffffffffffffff1673ffffffffffffffffffffffffffffffffffffffff168152602001600182018054612b1c90615539565b80601f0160208091040260200160405190810160405280929190818152602001828054612b4890615539565b8015612b955780601f10612b6a57610100808354040283529160200191612b95565b820191906000526020600020905b815481529060010190602001808311612b7857829003601f168201915b50505050508152602001600282018054612bae90615539565b80601f0160208091040260200160405190810160405280929190818152602001828054612bda90615539565b8015612c275780601f10612bfc57610100808354040283529160200191612c27565b820191906000526020600020905b815481529060010190602001808311612c0a57829003601f168201915b50505050508152602001600382018054612c4090615539565b80601f0160208091040260200160405190810160405280929190818152602001828054612c6c90615539565b8015612cb95780601f10612c8e57610100808354040283529160200191612cb9565b820191906000526020600020905b815481529060010190602001808311612c9c57829003601f168201915b50505050508152602001600482018054612cd290615539565b80601f0160208091040260200160405190810160405280929190818152602001828054612cfe90615539565b8015612d4b5780601f10612d2057610100808354040283529160200191612d4b565b820191906000526020600020905b815481529060010190602001808311612d2e57829003601f168201915b5050505050815260200160058201805480602002602001604051908101604052809291908181526020018280548015612dd957602002820191906000526020600020905b8160009054906101000a900473ffffffffffffffffffffffffffffffffffffffff1673ffffffffffffffffffffffffffffffffffffffff1681526020019060010190808311612d8f575b5050505050815260200160068201805480602002602001604051908101604052809291908181526020018280548015612e6757602002820191906000526020600020905b8160009054906101000a900473ffffffffffffffffffffffffffffffffffffffff1673ffffffffffffffffffffffffffffffffffffffff1681526020019060010190808311612e1d575b5050505050815260200160078201805480602002602001604051908101604052809291908181526020018280548015612ebf57602002820191906000526020600020905b815481526020019060010190808311612eab575b5050505050815250509050919050565b6000600760008381526020019081526020016000206040518061012001604052908160008201548152602001600182015481526020016002820160009054906101000a900473ffffffffffffffffffffffffffffffffffffffff1673ffffffffffffffffffffffffffffffffffffffff1673ffffffffffffffffffffffffffffffffffffffff168152602001600382015481526020016004820160009054906101000a900460ff1615151515815260200160058201548152602001600682015481526020016007820160009054906101000a900460ff161515151581526020016007820160019054906101000a900460ff161515151581525050905080606001513373ffffffffffffffffffffffffffffffffffffffff16311015613029576040517f08c379a00000000000000000000000000000000000000000000000000000000081526004016130209061520e565b60405180910390fd5b60008160400151905081606001513414613078576040517f08c379a000000000000000000000000000000000000000000000000000000000815260040161306f9061518e565b60405180910390fd5b61308181610a98565b600c60009054906101000a900473ffffffffffffffffffffffffffffffffffffffff1673ffffffffffffffffffffffffffffffffffffffff166342842e0e83604001513385602001516040518463ffffffff1660e01b81526004016130e8939291906150a6565b600060405180830381600087803b15801561310257600080fd5b505af1158015613116573d6000803e3d6000fd5b50505050505050565b60006006600083815260200190815260200160002090503373ffffffffffffffffffffffffffffffffffffffff168160060160009054906101000a900473ffffffffffffffffffffffffffffffffffffffff1673ffffffffffffffffffffffffffffffffffffffff1614806131e357503373ffffffffffffffffffffffffffffffffffffffff168160050160009054906101000a900473ffffffffffffffffffffffffffffffffffffffff1673ffffffffffffffffffffffffffffffffffffffff16145b6131ec57600080fd5b6000600560008360050160009054906101000a900473ffffffffffffffffffffffffffffffffffffffff1673ffffffffffffffffffffffffffffffffffffffff1673ffffffffffffffffffffffffffffffffffffffff168152602001908152602001600020905060005b81805490508110156137e357600082828154811061327757613276615672565b5b90600052602060002090600702016040518061012001604052908160008201548152602001600182018054806020026020016040519081016040528092919081815260200182805480156132ea57602002820191906000526020600020905b8154815260200190600101908083116132d6575b50505050508152602001600282015481526020016003820180548060200260200160405190810160405280929190818152602001828054801561334c57602002820191906000526020600020905b815481526020019060010190808311613338575b50505050508152602001600482015481526020016005820160009054906101000a900473ffffffffffffffffffffffffffffffffffffffff1673ffffffffffffffffffffffffffffffffffffffff1673ffffffffffffffffffffffffffffffffffffffff1681526020016006820160009054906101000a900473ffffffffffffffffffffffffffffffffffffffff1673ffffffffffffffffffffffffffffffffffffffff1673ffffffffffffffffffffffffffffffffffffffff1681526020016006820160149054906101000a900460ff161515151581526020016006820160159054906101000a900460ff16151515158152505090508360000154816000015114156137cf5782600184805490506134659190615469565b8154811061347657613475615672565b5b906000526020600020906007020183838154811061349757613496615672565b5b90600052602060002090600702016000820154816000015560018201816001019080546134c5929190613ffb565b506002820154816002015560038201816003019080546134e6929190613ffb565b50600482015481600401556005820160009054906101000a900473ffffffffffffffffffffffffffffffffffffffff168160050160006101000a81548173ffffffffffffffffffffffffffffffffffffffff021916908373ffffffffffffffffffffffffffffffffffffffff1602179055506006820160009054906101000a900473ffffffffffffffffffffffffffffffffffffffff168160060160006101000a81548173ffffffffffffffffffffffffffffffffffffffff021916908373ffffffffffffffffffffffffffffffffffffffff1602179055506006820160149054906101000a900460ff168160060160146101000a81548160ff0219169083151502179055506006820160159054906101000a900460ff168160060160156101000a81548160ff02191690831515021790555090505082600560008660050160009054906101000a900473ffffffffffffffffffffffffffffffffffffffff1673ffffffffffffffffffffffffffffffffffffffff1673ffffffffffffffffffffffffffffffffffffffff16815260200190815260200160002090805461368e92919061404d565b50600560008560050160009054906101000a900473ffffffffffffffffffffffffffffffffffffffff1673ffffffffffffffffffffffffffffffffffffffff1673ffffffffffffffffffffffffffffffffffffffff16815260200190815260200160002080548061370257613701615643565b5b600190038181906000526020600020906007020160008082016000905560018201600061372f9190614219565b60028201600090556003820160006137479190614219565b60048201600090556005820160006101000a81549073ffffffffffffffffffffffffffffffffffffffff02191690556006820160006101000a81549073ffffffffffffffffffffffffffffffffffffffff02191690556006820160146101000a81549060ff02191690556006820160156101000a81549060ff021916905550509055506137e3565b5080806137db9061559c565b915050613256565b5060005b600b805490508110156138b7576000600b828154811061380a57613809615672565b5b9060005260206000200154905083600001548114156138a357600b6001600b805490506138379190615469565b8154811061384857613847615672565b5b9060005260206000200154600b838154811061386757613866615672565b5b9060005260206000200181905550600b80548061388757613886615643565b5b60019003818190600052602060002001600090559055506138b7565b5080806138af9061559c565b9150506137e7565b50600660008481526020019081526020016000206000808201600090556001820160006138e49190614219565b60028201600090556003820160006138fc9190614219565b60048201600090556005820160006101000a81549073ffffffffffffffffffffffffffffffffffffffff02191690556006820160006101000a81549073ffffffffffffffffffffffffffffffffffffffff02191690556006820160146101000a81549060ff02191690556006820160156101000a81549060ff02191690555050505050565b6060600a8054806020026020016040519081016040528092919081815260200182805480156139cf57602002820191906000526020600020905b8154815260200190600101908083116139bb575b5050505050905090565b600e60009054906101000a900473ffffffffffffffffffffffffffffffffffffffff1681565b613a07613af7565b73ffffffffffffffffffffffffffffffffffffffff16613a25610cad565b73ffffffffffffffffffffffffffffffffffffffff1614613a7b576040517f08c379a0000000000000000000000000000000000000000000000000000000008152600401613a72906151ee565b60405180910390fd5b600073ffffffffffffffffffffffffffffffffffffffff168173ffffffffffffffffffffffffffffffffffffffff161415613aeb576040517f08c379a0000000000000000000000000000000000000000000000000000000008152600401613ae2906151ae565b60405180910390fd5b613af481613aff565b50565b600033905090565b60008060009054906101000a900473ffffffffffffffffffffffffffffffffffffffff169050816000806101000a81548173ffffffffffffffffffffffffffffffffffffffff021916908373ffffffffffffffffffffffffffffffffffffffff1602179055508173ffffffffffffffffffffffffffffffffffffffff168173ffffffffffffffffffffffffffffffffffffffff167f8be0079c531659141344cd1fd0a4f28419497f9722a3daafe3b4186f6b6457e060405160405180910390a35050565b6001816000016000828254019250508190555050565b600081600001549050919050565b6040518061012001604052806000815260200160008152602001600073ffffffffffffffffffffffffffffffffffffffff1681526020016000815260200160001515815260200160008152602001600081526020016000151581526020016000151581525090565b6040518061012001604052806000815260200160608152602001600081526020016060815260200160008152602001600073ffffffffffffffffffffffffffffffffffffffff168152602001600073ffffffffffffffffffffffffffffffffffffffff1681526020016000151581526020016000151581525090565b828054828255906000526020600020908101928215613d07579160200282015b82811115613d06578251825591602001919060010190613ceb565b5b509050613d14919061423a565b5090565b828054613d2490615539565b90600052602060002090601f016020900481019282613d465760008555613d8d565b82601f10613d5f57805160ff1916838001178555613d8d565b82800160010185558215613d8d579182015b82811115613d8c578251825591602001919060010190613d71565b5b509050613d9a919061423a565b5090565b828054828255906000526020600020908101928215613e17579160200282015b82811115613e165782518260006101000a81548173ffffffffffffffffffffffffffffffffffffffff021916908373ffffffffffffffffffffffffffffffffffffffff16021790555091602001919060010190613dbe565b5b509050613e24919061423a565b5090565b828054828255906000526020600020906008028101928215613f8f5760005260206000209160080282015b82811115613f8e57828260008201548160000155600182015481600101556002820160009054906101000a900473ffffffffffffffffffffffffffffffffffffffff168160020160006101000a81548173ffffffffffffffffffffffffffffffffffffffff021916908373ffffffffffffffffffffffffffffffffffffffff160217905550600382015481600301556004820160009054906101000a900460ff168160040160006101000a81548160ff02191690831515021790555060058201548160050155600682015481600601556007820160009054906101000a900460ff168160070160006101000a81548160ff0219169083151502179055506007820160019054906101000a900460ff168160070160016101000a81548160ff021916908315150217905550505091600801919060080190613e53565b5b509050613f9c9190614257565b5090565b604051806101000160405280600073ffffffffffffffffffffffffffffffffffffffff168152602001606081526020016060815260200160608152602001606081526020016060815260200160608152602001606081525090565b82805482825590600052602060002090810192821561403c5760005260206000209182015b8281111561403b578254825591600101919060010190614020565b5b509050614049919061423a565b5090565b8280548282559060005260206000209060070281019282156142085760005260206000209160070282015b828111156142075782826000820154816000015560018201816001019080546140a2929190613ffb565b506002820154816002015560038201816003019080546140c3929190613ffb565b50600482015481600401556005820160009054906101000a900473ffffffffffffffffffffffffffffffffffffffff168160050160006101000a81548173ffffffffffffffffffffffffffffffffffffffff021916908373ffffffffffffffffffffffffffffffffffffffff1602179055506006820160009054906101000a900473ffffffffffffffffffffffffffffffffffffffff168160060160006101000a81548173ffffffffffffffffffffffffffffffffffffffff021916908373ffffffffffffffffffffffffffffffffffffffff1602179055506006820160149054906101000a900460ff168160060160146101000a81548160ff0219169083151502179055506006820160159054906101000a900460ff168160060160156101000a81548160ff021916908315150217905550505091600701919060070190614078565b5b50905061421591906142f9565b5090565b5080546000825590600052602060002090810190614237919061423a565b50565b5b8082111561425357600081600090555060010161423b565b5090565b5b808211156142f55760008082016000905560018201600090556002820160006101000a81549073ffffffffffffffffffffffffffffffffffffffff021916905560038201600090556004820160006101000a81549060ff0219169055600582016000905560068201600090556007820160006101000a81549060ff02191690556007820160016101000a81549060ff021916905550600801614258565b5090565b5b808211156143ba5760008082016000905560018201600061431b9190614219565b60028201600090556003820160006143339190614219565b60048201600090556005820160006101000a81549073ffffffffffffffffffffffffffffffffffffffff02191690556006820160006101000a81549073ffffffffffffffffffffffffffffffffffffffff02191690556006820160146101000a81549060ff02191690556006820160156101000a81549060ff0219169055506007016142fa565b5090565b60006143d16143cc846152ce565b6152a9565b905080838252602082019050828560208602820111156143f4576143f36156d5565b5b60005b85811015614424578161440a8882614535565b8452602084019350602083019250506001810190506143f7565b5050509392505050565b600061444161443c846152fa565b6152a9565b90508281526020810184848401111561445d5761445c6156da565b5b6144688482856154f7565b509392505050565b60008135905061447f8161583c565b92915050565b6000815190506144948161583c565b92915050565b6000813590506144a981615853565b92915050565b600082601f8301126144c4576144c36156d0565b5b81356144d48482602086016143be565b91505092915050565b6000813590506144ec8161586a565b92915050565b6000815190506145018161586a565b92915050565b600082601f83011261451c5761451b6156d0565b5b813561452c84826020860161442e565b91505092915050565b60008135905061454481615881565b92915050565b60008151905061455981615881565b92915050565b600060208284031215614575576145746156e4565b5b600061458384828501614470565b91505092915050565b6000602082840312156145a2576145a16156e4565b5b60006145b084828501614485565b91505092915050565b6000602082840312156145cf576145ce6156e4565b5b60006145dd8482850161449a565b91505092915050565b60008060008060008060c08789031215614603576146026156e4565b5b600061461189828a01614470565b965050602087013567ffffffffffffffff811115614632576146316156df565b5b61463e89828a016144af565b955050604061464f89828a01614535565b945050606087013567ffffffffffffffff8111156146705761466f6156df565b5b61467c89828a016144af565b935050608061468d89828a01614535565b92505060a061469e89828a016144dd565b9150509295509295509295565b600080600080600060a086880312156146c7576146c66156e4565b5b60006146d588828901614470565b955050602086013567ffffffffffffffff8111156146f6576146f56156df565b5b61470288828901614507565b945050604086013567ffffffffffffffff811115614723576147226156df565b5b61472f88828901614507565b935050606086013567ffffffffffffffff8111156147505761474f6156df565b5b61475c88828901614507565b925050608086013567ffffffffffffffff81111561477d5761477c6156df565b5b61478988828901614507565b9150509295509295909350565b6000602082840312156147ac576147ab6156e4565b5b60006147ba848285016144f2565b91505092915050565b6000602082840312156147d9576147d86156e4565b5b60006147e784828501614535565b91505092915050565b600060208284031215614806576148056156e4565b5b60006148148482850161454a565b91505092915050565b600080600080600060a08688031215614839576148386156e4565b5b600061484788828901614535565b955050602061485888828901614535565b945050604061486988828901614535565b935050606061487a88828901614535565b925050608061488b888289016144dd565b9150509295509295909350565b60006148a483836148f5565b60208301905092915050565b60006148bc8383614c78565b6101208301905092915050565b60006148d58383614de6565b905092915050565b60006148e98383615058565b60208301905092915050565b6148fe8161549d565b82525050565b61490d8161549d565b82525050565b600061491e8261536b565b61492881856153d6565b93506149338361532b565b8060005b8381101561496457815161494b8882614898565b9750614956836153a2565b925050600181019050614937565b5085935050505092915050565b600061497c8261536b565b61498681856153e7565b93506149918361532b565b8060005b838110156149c25781516149a98882614898565b97506149b4836153a2565b925050600181019050614995565b5085935050505092915050565b60006149da82615376565b6149e481856153f8565b93506149ef8361533b565b8060005b83811015614a20578151614a0788826148b0565b9750614a12836153af565b9250506001810190506149f3565b5085935050505092915050565b6000614a3882615381565b614a428185615409565b935083602082028501614a548561534b565b8060005b85811015614a905784840389528151614a7185826148c9565b9450614a7c836153bc565b925060208a01995050600181019050614a58565b50829750879550505050505092915050565b6000614aad8261538c565b614ab7818561541a565b9350614ac28361535b565b8060005b83811015614af3578151614ada88826148dd565b9750614ae5836153c9565b925050600181019050614ac6565b5085935050505092915050565b6000614b0b8261538c565b614b15818561542b565b9350614b208361535b565b8060005b83811015614b51578151614b3888826148dd565b9750614b43836153c9565b925050600181019050614b24565b5085935050505092915050565b614b67816154c1565b82525050565b6000614b7882615397565b614b828185615447565b9350614b92818560208601615506565b614b9b816156e9565b840191505092915050565b6000614bb3603383615458565b9150614bbe826156fa565b604082019050919050565b6000614bd6602683615458565b9150614be182615749565b604082019050919050565b6000614bf9601483615458565b9150614c0482615798565b602082019050919050565b6000614c1c602083615458565b9150614c27826157c1565b602082019050919050565b6000614c3f60008361543c565b9150614c4a826157ea565b600082019050919050565b6000614c62603383615458565b9150614c6d826157ed565b604082019050919050565b61012082016000820151614c8f6000850182615058565b506020820151614ca26020850182615058565b506040820151614cb560408501826148f5565b506060820151614cc86060850182615058565b506080820151614cdb6080850182614b5e565b5060a0820151614cee60a0850182615058565b5060c0820151614d0160c0850182615058565b5060e0820151614d1460e0850182614b5e565b50610100820151614d29610100850182614b5e565b50505050565b61012082016000820151614d466000850182615058565b506020820151614d596020850182615058565b506040820151614d6c60408501826148f5565b506060820151614d7f6060850182615058565b506080820151614d926080850182614b5e565b5060a0820151614da560a0850182615058565b5060c0820151614db860c0850182615058565b5060e0820151614dcb60e0850182614b5e565b50610100820151614de0610100850182614b5e565b50505050565b600061012083016000830151614dff6000860182615058565b5060208301518482036020860152614e178282614aa2565b9150506040830151614e2c6040860182615058565b5060608301518482036060860152614e448282614aa2565b9150506080830151614e596080860182615058565b5060a0830151614e6c60a08601826148f5565b5060c0830151614e7f60c08601826148f5565b5060e0830151614e9260e0860182614b5e565b50610100830151614ea7610100860182614b5e565b508091505092915050565b600061012083016000830151614ecb6000860182615058565b5060208301518482036020860152614ee38282614aa2565b9150506040830151614ef86040860182615058565b5060608301518482036060860152614f108282614aa2565b9150506080830151614f256080860182615058565b5060a0830151614f3860a08601826148f5565b5060c0830151614f4b60c08601826148f5565b5060e0830151614f5e60e0860182614b5e565b50610100830151614f73610100860182614b5e565b508091505092915050565b600061010083016000830151614f9760008601826148f5565b5060208301518482036020860152614faf8282614b6d565b91505060408301518482036040860152614fc98282614b6d565b91505060608301518482036060860152614fe38282614b6d565b91505060808301518482036080860152614ffd8282614b6d565b91505060a083015184820360a08601526150178282614913565b91505060c083015184820360c08601526150318282614913565b91505060e083015184820360e086015261504b8282614aa2565b9150508091505092915050565b615061816154ed565b82525050565b615070816154ed565b82525050565b600061508182614c32565b9150819050919050565b60006020820190506150a06000830184614904565b92915050565b60006060820190506150bb6000830186614904565b6150c86020830185614904565b6150d56040830184615067565b949350505050565b60006040820190506150f26000830185614904565b6150ff6020830184615067565b9392505050565b600060208201905081810360008301526151208184614971565b905092915050565b6000602082019050818103600083015261514281846149cf565b905092915050565b600060208201905081810360008301526151648184614a2d565b905092915050565b600060208201905081810360008301526151868184614b00565b905092915050565b600060208201905081810360008301526151a781614ba6565b9050919050565b600060208201905081810360008301526151c781614bc9565b9050919050565b600060208201905081810360008301526151e781614bec565b9050919050565b6000602082019050818103600083015261520781614c0f565b9050919050565b6000602082019050818103600083015261522781614c55565b9050919050565b6000610120820190506152446000830184614d2f565b92915050565b600060208201905081810360008301526152648184614eb2565b905092915050565b600060208201905081810360008301526152868184614f7e565b905092915050565b60006020820190506152a36000830184615067565b92915050565b60006152b36152c4565b90506152bf828261556b565b919050565b6000604051905090565b600067ffffffffffffffff8211156152e9576152e86156a1565b5b602082029050602081019050919050565b600067ffffffffffffffff821115615315576153146156a1565b5b61531e826156e9565b9050602081019050919050565b6000819050602082019050919050565b6000819050602082019050919050565b6000819050602082019050919050565b6000819050602082019050919050565b600081519050919050565b600081519050919050565b600081519050919050565b600081519050919050565b600081519050919050565b6000602082019050919050565b6000602082019050919050565b6000602082019050919050565b6000602082019050919050565b600082825260208201905092915050565b600082825260208201905092915050565b600082825260208201905092915050565b600082825260208201905092915050565b600082825260208201905092915050565b600082825260208201905092915050565b600081905092915050565b600082825260208201905092915050565b600082825260208201905092915050565b6000615474826154ed565b915061547f836154ed565b925082821015615492576154916155e5565b5b828203905092915050565b60006154a8826154cd565b9050919050565b60006154ba826154cd565b9050919050565b60008115159050919050565b600073ffffffffffffffffffffffffffffffffffffffff82169050919050565b6000819050919050565b82818337600083830152505050565b60005b83811015615524578082015181840152602081019050615509565b83811115615533576000848401525b50505050565b6000600282049050600182168061555157607f821691505b6020821081141561556557615564615614565b5b50919050565b615574826156e9565b810181811067ffffffffffffffff82111715615593576155926156a1565b5b80604052505050565b60006155a7826154ed565b91507fffffffffffffffffffffffffffffffffffffffffffffffffffffffffffffffff8214156155da576155d96155e5565b5b600182019050919050565b7f4e487b7100000000000000000000000000000000000000000000000000000000600052601160045260246000fd5b7f4e487b7100000000000000000000000000000000000000000000000000000000600052602260045260246000fd5b7f4e487b7100000000000000000000000000000000000000000000000000000000600052603160045260246000fd5b7f4e487b7100000000000000000000000000000000000000000000000000000000600052603260045260246000fd5b7f4e487b7100000000000000000000000000000000000000000000000000000000600052604160045260246000fd5b600080fd5b600080fd5b600080fd5b600080fd5b600080fd5b6000601f19601f8301169050919050565b7f566972696469616e45786368616e67653a20496e636f727265637420616d6f7560008201527f6e74207061696420746f2066756e6374696f6e00000000000000000000000000602082015250565b7f4f776e61626c653a206e6577206f776e657220697320746865207a65726f206160008201527f6464726573730000000000000000000000000000000000000000000000000000602082015250565b7f4661696c656420746f2073656e64204574686572000000000000000000000000600082015250565b7f4f776e61626c653a2063616c6c6572206973206e6f7420746865206f776e6572600082015250565b50565b7f566972696469616e45786368616e67653a205573657220646f6573206e6f742060008201527f6861766520656e6f7567682062616c616e636500000000000000000000000000602082015250565b6158458161549d565b811461585057600080fd5b50565b61585c816154af565b811461586757600080fd5b50565b615873816154c1565b811461587e57600080fd5b50565b61588a816154ed565b811461589557600080fd5b5056fea264697066735822122063b6b2427841ce10dcd2ddb304f72c95085ebdcbfb1742a0203b4a1b1c53f12164736f6c63430008070033",
  "immutableReferences": {},
  "source": "pragma solidity ^0.8.0;\n\nimport \"@openzeppelin/contracts/access/Ownable.sol\";\nimport \"@openzeppelin/contracts/token/ERC721/ERC721.sol\";\nimport \"@openzeppelin/contracts/token/ERC20/IERC20.sol\";\nimport \"@openzeppelin/contracts/token/ERC20/ERC20.sol\";\nimport \"@openzeppelin/contracts/token/ERC721/IERC721.sol\";\n\nimport \"./ViridianNFT.sol\";\n\ncontract ViridianExchange is Ownable {\n\n    struct User {\n        address wallet;\n        string displayName;\n        string coverPhotoURL;\n        string profilePhotoURL;\n        string bio;\n        address[] following;\n        address[] followers;\n        uint256[] likes;\n    }\n\n    struct Offer {\n        uint256 offerId;\n        uint256[] toNftIds;\n        uint toAmt;\n        uint256[] fromNftIds;\n        uint fromAmt;\n        address to;\n        address from;\n        bool isVEXT;\n        bool pending;\n    }\n\n    using Counters for Counters.Counter;\n    Counters.Counter private _listingIds;\n    Counters.Counter private _offerIds;\n\n    //address vNFTContract = \n    \n    struct Listing {\n        uint256 listingId;\n        uint256 tokenId;\n        address owner;\n        uint256 price;\n        bool purchased;\n        uint256 royalty;\n        uint256 endTime;\n        bool sold;\n        bool isVEXT;\n    }\n\n    struct Collection {\n        string description;\n        uint256[] collectionNFTs;\n    }\n\n    //string[] public nftIds;\n    mapping (address => Collection) displayCases;\n    mapping (address => Listing[]) userListings;\n    mapping (address => Offer[]) userOffers;\n    mapping (uint256 => Offer) offers;\n    mapping (uint256 => Listing) listings;\n    mapping (address => User) users;\n    address[] private userAddresses;\n    uint256[] private listingIds;\n    uint256[] private offerIds;\n\n    address public viridianNFT;\n    address public ETH;\n    address public viridianToken;\n\n    constructor(address _viridianToken, address _viridianNFT) {\n        require(address(_viridianToken) != address(0)); \n        //require(address(_ETH) != address(0));\n        require(address(_viridianNFT) != address(0));\n\n        viridianToken = _viridianToken;\n        //address _ETH, ETH = _ETH;\n        viridianNFT = _viridianNFT;\n    }\n\n    function getBalance() public view returns (uint) {\n        return address(this).balance;\n    }\n\n    function getListings() public view returns (uint256[] memory) {\n        return listingIds;\n    }\n\n    function getOffers() public view returns (uint256[] memory) {\n        return offerIds;\n    }\n\n    function getListingsFromId(uint256 _listingId) public view returns (Listing memory) {\n        return listings[_listingId];\n    }\n\n    function getOffersFromId(uint256 _offerId) public view returns (Offer memory) {\n        return offers[_offerId];\n    }\n\n    function getListingsFromUser(address _userAddr) public view returns (Listing[] memory) {\n        return userListings[_userAddr];\n    }\n\n    function getOffersFromUser(address _userAddr) public view returns (Offer[] memory) {\n        return userOffers[_userAddr];\n    }\n\n    function getNftOwner(uint256 _nftId) public view returns (address) {\n        return IERC721(viridianNFT).ownerOf(_nftId);\n    }\n\n    function getUsers() public view returns (address[] memory) {\n        return userAddresses;\n    }\n\n    function getUserFromAddress(address _userAddr) public view returns (User memory) {\n        return users[_userAddr];\n    }\n\n    function signUpUser() public {\n        userAddresses.push(msg.sender);\n    }\n\n    function editUser(address _userAddr, string memory _displayName, string memory _coverPhotoURL, string memory _profilePhotoURL, string memory _bio) public {\n        require(msg.sender == _userAddr);\n\n        User memory curUser = getUserFromAddress(_userAddr);\n\n        users[msg.sender] = User(msg.sender, _displayName, _coverPhotoURL, _profilePhotoURL, _bio, curUser.followers, curUser.following, curUser.likes);\n    \n    }\n\n    function sendEther(address payable _to) public payable {\n        // Call returns a boolean value indicating success or failure.\n        // This is the current recommended method to use.\n        (bool sent, bytes memory data) = _to.call{value: msg.value}(\"\");\n        require(sent, \"Failed to send Ether\");\n    }\n\n    function putUpForSale(uint256 _nftId, uint256 _price, uint256 _royalty, uint256 _endTime, bool _isVEXT) public payable {\n        require(getNftOwner(_nftId) == msg.sender);\n\n        _listingIds.increment();\n        uint256 _listingId = _listingIds.current();\n        Listing memory saleListing;\n        saleListing.listingId = _listingId;\n        saleListing.tokenId = _nftId;\n        saleListing.owner = msg.sender;\n        saleListing.price = _price;\n        saleListing.purchased = false;\n        saleListing.royalty = _royalty;\n        saleListing.endTime = _endTime;\n        saleListing.sold = false;\n        saleListing.isVEXT = _isVEXT;\n\n        //_listingId, _nftId, msg.sender, _price, false, \n        //                                    _royalty, _isAuction, _endTime, Bid(msg.sender, 0, _isVEXT), new Bid[](0), false, _isVEXT);\n        userListings[msg.sender].push(saleListing);\n        listings[_listingId] = saleListing;\n        listingIds.push(saleListing.listingId);\n\n        //IERC721(viridianNFT).approve(address(this), _nftId);\n        //IERC721(viridianNFT).safeTransferFrom(msg.sender, address(this), _nftId);\n    }\n    \n    function pullFromSale(uint256 _listingId) public payable {\n        Listing memory curListing = listings[_listingId];\n        require(curListing.owner == msg.sender);\n        //IERC721(viridianNFT).safeTransferFrom(address(this), msg.sender, curListing.tokenId);\n        Listing[] storage curUserListings = userListings[msg.sender];\n        for (uint i = 0; i < curUserListings.length; i++) {\n            Listing memory listing = curUserListings[i];\n            if (listing.listingId == curListing.listingId) {\n                curUserListings[i] = curUserListings[curUserListings.length - 1];\n                userListings[msg.sender] = curUserListings;\n                userListings[msg.sender].pop();\n                break;\n            }\n        }\n\n        for (uint256 i = 0; i < listingIds.length; i++) {\n            uint256 listingId = listingIds[i];\n            if (listingId == curListing.listingId) {\n                listingIds[i] = listingIds[listingIds.length - 1];\n                listingIds.pop();\n                break;\n            }\n        }\n\n        delete listings[_listingId];\n    }\n\n    function buyNFTWithETH(uint256 _listingId) public payable {\n        Listing memory curListing = listings[_listingId];\n\n        require(msg.sender.balance >= curListing.price, 'ViridianExchange: User does not have enough balance');\n        address payable ownerWallet = payable(curListing.owner);\n\n        require(msg.value == curListing.price, 'ViridianExchange: Incorrect amount paid to function');\n\n        sendEther(ownerWallet);\n        \n        IERC721(viridianNFT).safeTransferFrom(curListing.owner, msg.sender, curListing.tokenId);\n    }\n\n    function buyNFTWithVEXT(uint256 _listingId) public payable {\n        Listing memory curListing = listings[_listingId];\n\n        require(IERC20(viridianToken).balanceOf(msg.sender) >= curListing.price, 'ViridianExchange: User does not have enough balance');\n\n        // TODO: See if this implementation is preferrable\n        // // Approve and transfer VEXT from sender to contract\n        //IERC20(viridianToken).approve(msg.sender, curListing.price);\n        //IERC20(viridianToken).transferFrom(msg.sender, address(this), curListing.price);\n\n        // Approve and transfer VEXT from contract to listing owner\n        //IERC20(viridianToken).approve(address(this), curListing.price);\n        //IERC20(viridianToken).transfer(curListing.owner, curListing.price);\n\n        // Approve and transfer NFT from sender to contract\n        //IERC721(viridianNFT).approve(msg.sender, curListing.tokenId);\n\n        // Approve and transfer NFT from contract to listing owner\n        //IERC721(viridianNFT).approve(address(this), curListing.tokenId);\n        //IERC721(viridianNFT).safeTransferFrom(address(this), msg.sender, curListing.tokenId);\n\n        //IERC20(viridianToken).approve(msg.sender, curListing.price);\n        IERC20(viridianToken).transferFrom(msg.sender, curListing.owner, curListing.price);\n\n        IERC721(viridianNFT).approve(msg.sender, curListing.tokenId);\n        IERC721(viridianNFT).safeTransferFrom(curListing.owner, msg.sender, curListing.tokenId);\n    }\n\n    receive() external payable {}\n\n    // Fallback function is called when msg.data is not empty\n    fallback() external payable {}\n\n    function makeOffer(address _to, uint256[] memory _nftIds, uint256 _amount, uint256[] memory _recNftIds, uint256 _recAmount, bool isVEXT) public {\n        require(_to != msg.sender);\n\n        _offerIds.increment();\n        uint256 _offerId = _offerIds.current();\n\n        Offer memory newOffer = Offer(_offerId, _nftIds, _amount, _recNftIds, _recAmount, _to, msg.sender, isVEXT, true);\n        \n        userOffers[_to].push(newOffer);\n        offers[_offerId] = newOffer;\n        offerIds.push(_offerId);\n    }\n\n    function cancelOffer(uint256 _offerId) public {\n        Offer storage curOffer = offers[_offerId];\n        require(curOffer.from == msg.sender || curOffer.to == msg.sender);\n        Offer[] storage curUserOffers = userOffers[curOffer.to];\n        \n        //TODO: Check who is cancelling and cancel that person's offers.\n\n        // Remove offer from current user's offers\n        for (uint i = 0; i < curUserOffers.length; i++) {\n            Offer memory offer = curUserOffers[i];\n            if (offer.offerId == curOffer.offerId) {\n                curUserOffers[i] = curUserOffers[curUserOffers.length - 1];\n                userOffers[curOffer.to] = curUserOffers;\n                userOffers[curOffer.to].pop();\n                break;\n            }\n        } \n\n        // Remove offer id from global list of offer ids\n        for (uint256 i = 0; i < offerIds.length; i++) {\n            uint256 offerId = offerIds[i];\n            if (offerId == curOffer.offerId) {\n                offerIds[i] = offerIds[offerIds.length - 1];\n                offerIds.pop();\n                break;\n            }\n        }\n\n        // Remove offer from global mapping of offers\n        delete offers[_offerId];\n    }\n\n    //TODO: Figure out how to send eth from \"from\" wallet to \"to\" wallet.\n    function acceptOfferWithETH(uint256 _offerId) public payable {\n        Offer storage curOffer = offers[_offerId];\n\n        require(curOffer.to != msg.sender);\n\n        address payable ownerWallet = payable(curOffer.from);\n\n        sendEther(ownerWallet);\n\n        cancelOffer(_offerId);\n    }\n\n    function acceptOfferWithVEXT(uint256 _offerId) public {\n        Offer storage curOffer = offers[_offerId];\n\n        IERC20(viridianToken).transferFrom(curOffer.from, msg.sender, curOffer.fromAmt);\n        IERC20(viridianToken).transfer(curOffer.from, curOffer.toAmt);\n\n        // Loop through all of the to items in the offer.\n        for (uint i = 0; i < curOffer.toNftIds.length; i++) {\n            IERC721(viridianNFT).approve(msg.sender, curOffer.fromNftIds[i]);\n            IERC721(viridianNFT).safeTransferFrom(curOffer.from, msg.sender, curOffer.toNftIds[i]);\n        }\n\n        // Loop through all of the from items in the offer.\n        for (uint i = 0; i < curOffer.fromNftIds.length; i++) {\n            IERC721(viridianNFT).approve(msg.sender, curOffer.fromNftIds[i]);\n            IERC721(viridianNFT).safeTransferFrom(curOffer.to, curOffer.from, curOffer.fromNftIds[i]);\n        }\n    }\n}",
  "sourcePath": "/Users/blakehatch/Viridian-Exchange-Contracts/contracts/ViridianExchangeOld.sol",
  "compiler": {
    "name": "solc",
    "version": "0.8.7+commit.e28d00a7.Emscripten.clang"
  },
  "schemaVersion": "3.4.1",
  "updatedAt": "2021-08-13T17:39:35.829Z",
  "networkType": "ethereum",
  "devdoc": {
    "kind": "dev",
    "methods": {
      "owner()": {
        "details": "Returns the address of the current owner."
      },
      "renounceOwnership()": {
        "details": "Leaves the contract without owner. It will not be possible to call `onlyOwner` functions anymore. Can only be called by the current owner. NOTE: Renouncing ownership will leave the contract without an owner, thereby removing any functionality that is only available to the owner."
      },
      "transferOwnership(address)": {
        "details": "Transfers ownership of the contract to a new account (`newOwner`). Can only be called by the current owner."
      }
    },
    "version": 1
  },
  "userdoc": {
    "kind": "user",
    "methods": {},
    "version": 1
  }
}