{
  "contractName": "ViridianPack",
  "abi": [
    {
      "inputs": [
        {
          "internalType": "address",
          "name": "_viridianNFT",
          "type": "address"
        }
      ],
      "stateMutability": "nonpayable",
      "type": "constructor"
    },
    {
      "anonymous": false,
      "inputs": [
        {
          "indexed": true,
          "internalType": "address",
          "name": "owner",
          "type": "address"
        },
        {
          "indexed": true,
          "internalType": "address",
          "name": "approved",
          "type": "address"
        },
        {
          "indexed": true,
          "internalType": "uint256",
          "name": "tokenId",
          "type": "uint256"
        }
      ],
      "name": "Approval",
      "type": "event"
    },
    {
      "anonymous": false,
      "inputs": [
        {
          "indexed": true,
          "internalType": "address",
          "name": "owner",
          "type": "address"
        },
        {
          "indexed": true,
          "internalType": "address",
          "name": "operator",
          "type": "address"
        },
        {
          "indexed": false,
          "internalType": "bool",
          "name": "approved",
          "type": "bool"
        }
      ],
      "name": "ApprovalForAll",
      "type": "event"
    },
    {
      "anonymous": false,
      "inputs": [
        {
          "indexed": false,
          "internalType": "string[10]",
          "name": "newUris",
          "type": "string[10]"
        }
      ],
      "name": "Open",
      "type": "event"
    },
    {
      "anonymous": false,
      "inputs": [
        {
          "indexed": true,
          "internalType": "address",
          "name": "previousOwner",
          "type": "address"
        },
        {
          "indexed": true,
          "internalType": "address",
          "name": "newOwner",
          "type": "address"
        }
      ],
      "name": "OwnershipTransferred",
      "type": "event"
    },
    {
      "anonymous": false,
      "inputs": [
        {
          "indexed": false,
          "internalType": "uint256",
          "name": "tokenId",
          "type": "uint256"
        }
      ],
      "name": "PackResultDecided",
      "type": "event"
    },
    {
      "anonymous": false,
      "inputs": [
        {
          "indexed": true,
          "internalType": "address",
          "name": "from",
          "type": "address"
        },
        {
          "indexed": true,
          "internalType": "address",
          "name": "to",
          "type": "address"
        },
        {
          "indexed": true,
          "internalType": "uint256",
          "name": "tokenId",
          "type": "uint256"
        }
      ],
      "name": "Transfer",
      "type": "event"
    },
    {
      "inputs": [
        {
          "internalType": "address",
          "name": "to",
          "type": "address"
        },
        {
          "internalType": "uint256",
          "name": "tokenId",
          "type": "uint256"
        }
      ],
      "name": "approve",
      "outputs": [],
      "stateMutability": "nonpayable",
      "type": "function"
    },
    {
      "inputs": [
        {
          "internalType": "address",
          "name": "owner",
          "type": "address"
        }
      ],
      "name": "balanceOf",
      "outputs": [
        {
          "internalType": "uint256",
          "name": "",
          "type": "uint256"
        }
      ],
      "stateMutability": "view",
      "type": "function",
      "constant": true
    },
    {
      "inputs": [
        {
          "internalType": "uint256",
          "name": "tokenId",
          "type": "uint256"
        }
      ],
      "name": "getApproved",
      "outputs": [
        {
          "internalType": "address",
          "name": "",
          "type": "address"
        }
      ],
      "stateMutability": "view",
      "type": "function",
      "constant": true
    },
    {
      "inputs": [
        {
          "internalType": "address",
          "name": "owner",
          "type": "address"
        },
        {
          "internalType": "address",
          "name": "operator",
          "type": "address"
        }
      ],
      "name": "isApprovedForAll",
      "outputs": [
        {
          "internalType": "bool",
          "name": "",
          "type": "bool"
        }
      ],
      "stateMutability": "view",
      "type": "function",
      "constant": true
    },
    {
      "inputs": [
        {
          "internalType": "address",
          "name": "forwarder",
          "type": "address"
        }
      ],
      "name": "isTrustedForwarder",
      "outputs": [
        {
          "internalType": "bool",
          "name": "",
          "type": "bool"
        }
      ],
      "stateMutability": "view",
      "type": "function",
      "constant": true
    },
    {
      "inputs": [],
      "name": "name",
      "outputs": [
        {
          "internalType": "string",
          "name": "",
          "type": "string"
        }
      ],
      "stateMutability": "view",
      "type": "function",
      "constant": true
    },
    {
      "inputs": [],
      "name": "owner",
      "outputs": [
        {
          "internalType": "address",
          "name": "",
          "type": "address"
        }
      ],
      "stateMutability": "view",
      "type": "function",
      "constant": true
    },
    {
      "inputs": [
        {
          "internalType": "uint256",
          "name": "tokenId",
          "type": "uint256"
        }
      ],
      "name": "ownerOf",
      "outputs": [
        {
          "internalType": "address",
          "name": "",
          "type": "address"
        }
      ],
      "stateMutability": "view",
      "type": "function",
      "constant": true
    },
    {
      "inputs": [],
      "name": "renounceOwnership",
      "outputs": [],
      "stateMutability": "nonpayable",
      "type": "function"
    },
    {
      "inputs": [
        {
          "internalType": "address",
          "name": "operator",
          "type": "address"
        },
        {
          "internalType": "bool",
          "name": "approved",
          "type": "bool"
        }
      ],
      "name": "setApprovalForAll",
      "outputs": [],
      "stateMutability": "nonpayable",
      "type": "function"
    },
    {
      "inputs": [
        {
          "internalType": "bytes4",
          "name": "interfaceId",
          "type": "bytes4"
        }
      ],
      "name": "supportsInterface",
      "outputs": [
        {
          "internalType": "bool",
          "name": "",
          "type": "bool"
        }
      ],
      "stateMutability": "view",
      "type": "function",
      "constant": true
    },
    {
      "inputs": [],
      "name": "symbol",
      "outputs": [
        {
          "internalType": "string",
          "name": "",
          "type": "string"
        }
      ],
      "stateMutability": "view",
      "type": "function",
      "constant": true
    },
    {
      "inputs": [
        {
          "internalType": "address",
          "name": "newOwner",
          "type": "address"
        }
      ],
      "name": "transferOwnership",
      "outputs": [],
      "stateMutability": "nonpayable",
      "type": "function"
    },
    {
      "inputs": [],
      "name": "trustedForwarder",
      "outputs": [
        {
          "internalType": "address",
          "name": "",
          "type": "address"
        }
      ],
      "stateMutability": "view",
      "type": "function",
      "constant": true
    },
    {
      "inputs": [],
      "name": "versionRecipient",
      "outputs": [
        {
          "internalType": "string",
          "name": "",
          "type": "string"
        }
      ],
      "stateMutability": "view",
      "type": "function",
      "constant": true
    },
    {
      "inputs": [],
      "name": "viridianNFTAddr",
      "outputs": [
        {
          "internalType": "address",
          "name": "",
          "type": "address"
        }
      ],
      "stateMutability": "view",
      "type": "function",
      "constant": true
    },
    {
      "inputs": [
        {
          "internalType": "address",
          "name": "_forwarder",
          "type": "address"
        }
      ],
      "name": "setTrustedForwarder",
      "outputs": [],
      "stateMutability": "nonpayable",
      "type": "function"
    },
    {
      "inputs": [
        {
          "internalType": "address",
          "name": "_newAdmin",
          "type": "address"
        }
      ],
      "name": "addAdmin",
      "outputs": [],
      "stateMutability": "nonpayable",
      "type": "function"
    },
    {
      "inputs": [
        {
          "internalType": "address",
          "name": "_newAdmin",
          "type": "address"
        }
      ],
      "name": "removeAdmin",
      "outputs": [],
      "stateMutability": "nonpayable",
      "type": "function"
    },
    {
      "inputs": [
        {
          "internalType": "string",
          "name": "baseURI_",
          "type": "string"
        }
      ],
      "name": "setBaseURI",
      "outputs": [],
      "stateMutability": "nonpayable",
      "type": "function"
    },
    {
      "inputs": [
        {
          "internalType": "uint256",
          "name": "tokenId",
          "type": "uint256"
        },
        {
          "internalType": "string",
          "name": "_tokenURI",
          "type": "string"
        }
      ],
      "name": "_setTokenURI",
      "outputs": [],
      "stateMutability": "nonpayable",
      "type": "function"
    },
    {
      "inputs": [
        {
          "internalType": "uint256",
          "name": "tokenId",
          "type": "uint256"
        }
      ],
      "name": "tokenURI",
      "outputs": [
        {
          "internalType": "string",
          "name": "",
          "type": "string"
        }
      ],
      "stateMutability": "view",
      "type": "function",
      "constant": true
    },
    {
      "inputs": [
        {
          "internalType": "uint256",
          "name": "_rarity",
          "type": "uint256"
        }
      ],
      "name": "getUriRarityPools",
      "outputs": [
        {
          "internalType": "string[]",
          "name": "",
          "type": "string[]"
        }
      ],
      "stateMutability": "view",
      "type": "function",
      "constant": true
    },
    {
      "inputs": [],
      "name": "getNumNFTs",
      "outputs": [
        {
          "internalType": "uint256",
          "name": "n",
          "type": "uint256"
        }
      ],
      "stateMutability": "view",
      "type": "function",
      "constant": true
    },
    {
      "inputs": [],
      "name": "getNumOwnedNFTs",
      "outputs": [
        {
          "internalType": "uint256",
          "name": "",
          "type": "uint256"
        }
      ],
      "stateMutability": "view",
      "type": "function",
      "constant": true
    },
    {
      "inputs": [],
      "name": "getOwnedNFTs",
      "outputs": [
        {
          "internalType": "uint256[]",
          "name": "",
          "type": "uint256[]"
        }
      ],
      "stateMutability": "view",
      "type": "function",
      "constant": true
    },
    {
      "inputs": [
        {
          "internalType": "uint256",
          "name": "_rarity",
          "type": "uint256"
        },
        {
          "internalType": "uint256",
          "name": "_rarityOdd",
          "type": "uint256"
        },
        {
          "internalType": "uint256",
          "name": "_newOdds",
          "type": "uint256"
        }
      ],
      "name": "setRarityOdds",
      "outputs": [],
      "stateMutability": "nonpayable",
      "type": "function"
    },
    {
      "inputs": [
        {
          "internalType": "uint256",
          "name": "tokenId",
          "type": "uint256"
        }
      ],
      "name": "isListed",
      "outputs": [
        {
          "internalType": "bool",
          "name": "",
          "type": "bool"
        }
      ],
      "stateMutability": "view",
      "type": "function",
      "constant": true
    },
    {
      "inputs": [
        {
          "internalType": "address",
          "name": "_to",
          "type": "address"
        },
        {
          "internalType": "string",
          "name": "tokenURI_",
          "type": "string"
        }
      ],
      "name": "mint",
      "outputs": [],
      "stateMutability": "nonpayable",
      "type": "function"
    },
    {
      "inputs": [
        {
          "internalType": "string",
          "name": "uri",
          "type": "string"
        },
        {
          "internalType": "uint256",
          "name": "rarity",
          "type": "uint256"
        }
      ],
      "name": "softMintNFT",
      "outputs": [],
      "stateMutability": "nonpayable",
      "type": "function"
    },
    {
      "inputs": [
        {
          "internalType": "uint256",
          "name": "rarity",
          "type": "uint256"
        },
        {
          "internalType": "uint256",
          "name": "index",
          "type": "uint256"
        }
      ],
      "name": "burnSoftMintedNFTAtRarityIndex",
      "outputs": [],
      "stateMutability": "nonpayable",
      "type": "function"
    },
    {
      "inputs": [
        {
          "internalType": "string",
          "name": "_s",
          "type": "string"
        },
        {
          "internalType": "string",
          "name": "_s1",
          "type": "string"
        }
      ],
      "name": "compareStrings",
      "outputs": [
        {
          "internalType": "bool",
          "name": "",
          "type": "bool"
        }
      ],
      "stateMutability": "pure",
      "type": "function",
      "constant": true
    },
    {
      "inputs": [
        {
          "internalType": "uint256",
          "name": "_tokenId",
          "type": "uint256"
        }
      ],
      "name": "lockInPackResult",
      "outputs": [],
      "stateMutability": "nonpayable",
      "type": "function"
    },
    {
      "inputs": [
        {
          "internalType": "uint256",
          "name": "_tokenId",
          "type": "uint256"
        }
      ],
      "name": "isPackResultDecided",
      "outputs": [
        {
          "internalType": "bool",
          "name": "",
          "type": "bool"
        }
      ],
      "stateMutability": "view",
      "type": "function",
      "constant": true
    },
    {
      "inputs": [
        {
          "internalType": "uint256",
          "name": "_tokenId",
          "type": "uint256"
        }
      ],
      "name": "openPack",
      "outputs": [],
      "stateMutability": "nonpayable",
      "type": "function"
    },
    {
      "inputs": [
        {
          "internalType": "uint256",
          "name": "tokenId",
          "type": "uint256"
        }
      ],
      "name": "burn",
      "outputs": [],
      "stateMutability": "nonpayable",
      "type": "function"
    },
    {
      "inputs": [
        {
          "internalType": "address",
          "name": "recipient",
          "type": "address"
        },
        {
          "internalType": "string",
          "name": "hash",
          "type": "string"
        },
        {
          "internalType": "string",
          "name": "metadata",
          "type": "string"
        }
      ],
      "name": "awardItem",
      "outputs": [
        {
          "internalType": "uint256",
          "name": "",
          "type": "uint256"
        }
      ],
      "stateMutability": "nonpayable",
      "type": "function"
    },
    {
      "inputs": [
        {
          "internalType": "address",
          "name": "from",
          "type": "address"
        },
        {
          "internalType": "address",
          "name": "to",
          "type": "address"
        },
        {
          "internalType": "uint256",
          "name": "tokenId",
          "type": "uint256"
        }
      ],
      "name": "safeTransferFrom",
      "outputs": [],
      "stateMutability": "nonpayable",
      "type": "function"
    },
    {
      "inputs": [
        {
          "internalType": "address",
          "name": "from",
          "type": "address"
        },
        {
          "internalType": "address",
          "name": "to",
          "type": "address"
        },
        {
          "internalType": "uint256",
          "name": "tokenId",
          "type": "uint256"
        },
        {
          "internalType": "bytes",
          "name": "_data",
          "type": "bytes"
        }
      ],
      "name": "safeTransferFrom",
      "outputs": [],
      "stateMutability": "nonpayable",
      "type": "function"
    },
    {
      "inputs": [
        {
          "internalType": "address",
          "name": "from",
          "type": "address"
        },
        {
          "internalType": "address",
          "name": "to",
          "type": "address"
        },
        {
          "internalType": "uint256",
          "name": "tokenId",
          "type": "uint256"
        }
      ],
      "name": "transferFrom",
      "outputs": [],
      "stateMutability": "nonpayable",
      "type": "function"
    },
    {
      "inputs": [
        {
          "internalType": "uint256",
          "name": "_tokenId",
          "type": "uint256"
        }
      ],
      "name": "listToken",
      "outputs": [],
      "stateMutability": "nonpayable",
      "type": "function"
    },
    {
      "inputs": [
        {
          "internalType": "uint256",
          "name": "_tokenId",
          "type": "uint256"
        }
      ],
      "name": "unlistToken",
      "outputs": [],
      "stateMutability": "nonpayable",
      "type": "function"
    }
  ],
  "bytecode": "0x60806040526040518060400160405280600581526020017f322e322e3000000000000000000000000000000000000000000000000000000081525060169080519060200190620000519291906200076b565b503480156200005f57600080fd5b506040516200607d3803806200607d833981810160405281019062000085919062000885565b6040518060400160405280600d81526020017f566972696469616e205061636b000000000000000000000000000000000000008152506040518060400160405280600281526020017f56500000000000000000000000000000000000000000000000000000000000008152508160009080519060200190620001099291906200076b565b508060019080519060200190620001229291906200076b565b5050506200014562000139620005ed60201b60201c565b6200060960201b60201c565b600073ffffffffffffffffffffffffffffffffffffffff168173ffffffffffffffffffffffffffffffffffffffff1614156200018057600080fd5b80601360006101000a81548173ffffffffffffffffffffffffffffffffffffffff021916908373ffffffffffffffffffffffffffffffffffffffff160217905550601360009054906101000a900473ffffffffffffffffffffffffffffffffffffffff16601460006101000a81548173ffffffffffffffffffffffffffffffffffffffff021916908373ffffffffffffffffffffffffffffffffffffffff16021790555030601560006101000a81548173ffffffffffffffffffffffffffffffffffffffff021916908373ffffffffffffffffffffffffffffffffffffffff1602179055506019600b60008081526020019081526020016000206000808152602001908152602001600020819055506064600b60008081526020019081526020016000206000600181526020019081526020016000208190555061012c600b6000808152602001908152602001600020600060028152602001908152602001600020819055506103e8600b6000808152602001908152602001600020600060038152602001908152602001600020819055506003600c6000808152602001908152602001600020819055506001600b6000600181526020019081526020016000206000808152602001908152602001600020819055506032600b6000600181526020019081526020016000206000600181526020019081526020016000208190555060c8600b600060018152602001908152602001600020600060028152602001908152602001600020819055506103e8600b600060018152602001908152602001600020600060038152602001908152602001600020819055506003600c6000808152602001908152602001600020819055506000600b6000600281526020019081526020016000206000808152602001908152602001600020819055506032600b600060028152602001908152602001600020600060018152602001908152602001600020819055506064600b600060028152602001908152602001600020600060028152602001908152602001600020819055506103e8600b600060028152602001908152602001600020600060038152602001908152602001600020819055506003600c6000808152602001908152602001600020819055506000600b600060038152602001908152602001600020600080815260200190815260200160002081905550600a600b600060038152602001908152602001600020600060018152602001908152602001600020819055506032600b600060038152602001908152602001600020600060028152602001908152602001600020819055506103e8600b600060038152602001908152602001600020600060038152602001908152602001600020819055506003600c60008081526020019081526020016000208190555060036010819055506001601260003373ffffffffffffffffffffffffffffffffffffffff1673ffffffffffffffffffffffffffffffffffffffff16815260200190815260200160002060006101000a81548160ff021916908315150217905550506200091c565b600062000604620006cf60201b62002ac41760201c565b905090565b6000600660009054906101000a900473ffffffffffffffffffffffffffffffffffffffff16905081600660006101000a81548173ffffffffffffffffffffffffffffffffffffffff021916908373ffffffffffffffffffffffffffffffffffffffff1602179055508173ffffffffffffffffffffffffffffffffffffffff168173ffffffffffffffffffffffffffffffffffffffff167f8be0079c531659141344cd1fd0a4f28419497f9722a3daafe3b4186f6b6457e060405160405180910390a35050565b60006014600036905010158015620006f45750620006f3336200071160201b60201c565b5b156200070a57601436033560601c90506200070e565b3390505b90565b6000600760009054906101000a900473ffffffffffffffffffffffffffffffffffffffff1673ffffffffffffffffffffffffffffffffffffffff168273ffffffffffffffffffffffffffffffffffffffff16149050919050565b8280546200077990620008e6565b90600052602060002090601f0160209004810192826200079d5760008555620007e9565b82601f10620007b857805160ff1916838001178555620007e9565b82800160010185558215620007e9579182015b82811115620007e8578251825591602001919060010190620007cb565b5b509050620007f89190620007fc565b5090565b5b8082111562000817576000816000905550600101620007fd565b5090565b600080fd5b600073ffffffffffffffffffffffffffffffffffffffff82169050919050565b60006200084d8262000820565b9050919050565b6200085f8162000840565b81146200086b57600080fd5b50565b6000815190506200087f8162000854565b92915050565b6000602082840312156200089e576200089d6200081b565b5b6000620008ae848285016200086e565b91505092915050565b7f4e487b7100000000000000000000000000000000000000000000000000000000600052602260045260246000fd5b60006002820490506001821680620008ff57607f821691505b60208210811415620009165762000915620008b7565b5b50919050565b615751806200092c6000396000f3fe608060405234801561001057600080fd5b506004361061025e5760003560e01c80638da5cb5b11610146578063bda4e797116100c3578063dc5df54e11610087578063dc5df54e1461071b578063e6148d5f14610737578063e985e9c514610753578063ece769e714610783578063f2fde38b1461079f578063fcce4883146107bb5761025e565b8063bda4e79714610665578063bed34bba14610683578063c87b56dd146106b3578063d0def521146106e3578063da742228146106ff5761025e565b8063a3524a041161010a578063a3524a04146105d5578063a80f1e9c146105f3578063ad3a358c1461060f578063b88d4fde1461062b578063bb92c248146106475761025e565b80638da5cb5b1461051d57806395d89b411461053b5780639e607a3f14610559578063a203428c14610589578063a22cb465146105b95761025e565b8063486ff0cd116101df5780636352211e116101a35780636352211e14610449578063704802751461047957806370a0823114610495578063715018a6146104c55780637da0a877146104cf5780638bfaf101146104ed5761025e565b8063486ff0cd146103a55780634c0eb7d9146103c357806350a88c7e146103e157806355f804b3146103fd578063572b6c05146104195761025e565b80630e065931116102265780630e065931146103195780631785f53c1461033557806323b872dd1461035157806342842e0e1461036d57806342966c68146103895761025e565b8063015388681461026357806301ffc9a71461027f57806306fdde03146102af578063081812fc146102cd578063095ea7b3146102fd575b600080fd5b61027d60048036038101906102789190613c39565b6107eb565b005b61029960048036038101906102949190613ced565b6108db565b6040516102a69190613d35565b60405180910390f35b6102b76109bd565b6040516102c49190613dd8565b60405180910390f35b6102e760048036038101906102e29190613dfa565b610a4f565b6040516102f49190613e68565b60405180910390f35b61031760048036038101906103129190613eaf565b610ad4565b005b610333600480360381019061032e9190613eef565b610bec565b005b61034f600480360381019061034a9190613f4b565b610c9a565b005b61036b60048036038101906103669190613f78565b610d71565b005b61038760048036038101906103829190613f78565b610e43565b005b6103a3600480360381019061039e9190613dfa565b610f15565b005b6103ad610f34565b6040516103ba9190613dd8565b60405180910390f35b6103cb610fc2565b6040516103d89190614089565b60405180910390f35b6103fb60048036038101906103f69190613dfa565b6110b7565b005b610417600480360381019061041291906140ab565b611913565b005b610433600480360381019061042e9190613f4b565b61198a565b6040516104409190613d35565b60405180910390f35b610463600480360381019061045e9190613dfa565b6119e4565b6040516104709190613e68565b60405180910390f35b610493600480360381019061048e9190613f4b565b611a96565b005b6104af60048036038101906104aa9190613f4b565b611b6d565b6040516104bc9190614103565b60405180910390f35b6104cd611c25565b005b6104d7611cad565b6040516104e49190613e68565b60405180910390f35b6105076004803603810190610502919061411e565b611cd7565b6040516105149190614103565b60405180910390f35b610525611d84565b6040516105329190613e68565b60405180910390f35b610543611dae565b6040516105509190613dd8565b60405180910390f35b610573600480360381019061056e9190613dfa565b611e40565b6040516105809190613d35565b60405180910390f35b6105a3600480360381019061059e9190613dfa565b611e6a565b6040516105b091906142b5565b60405180910390f35b6105d360048036038101906105ce9190614303565b611fb3565b005b6105dd612134565b6040516105ea9190613e68565b60405180910390f35b61060d60048036038101906106089190614343565b61215a565b005b61062960048036038101906106249190613dfa565b6121e5565b005b61064560048036038101906106409190614437565b612227565b005b61064f612289565b60405161065c9190614103565b60405180910390f35b61066d61230d565b60405161067a9190614103565b60405180910390f35b61069d600480360381019061069891906144ba565b61231e565b6040516106aa9190613d35565b60405180910390f35b6106cd60048036038101906106c89190613dfa565b612377565b6040516106da9190613dd8565b60405180910390f35b6106fd60048036038101906106f89190614532565b6124ea565b005b61071960048036038101906107149190613f4b565b6125a4565b005b6107356004803603810190610730919061458e565b61262c565b005b610751600480360381019061074c9190613dfa565b612866565b005b61076d600480360381019061076891906145ce565b6128a8565b60405161077a9190613d35565b60405180910390f35b61079d60048036038101906107989190613dfa565b61293c565b005b6107b960048036038101906107b49190613f4b565b6129a2565b005b6107d560048036038101906107d09190613dfa565b612a9a565b6040516107e29190613d35565b60405180910390f35b6107f3612afb565b73ffffffffffffffffffffffffffffffffffffffff16610811611d84565b73ffffffffffffffffffffffffffffffffffffffff1614610867576040517f08c379a000000000000000000000000000000000000000000000000000000000815260040161085e9061465a565b60405180910390fd5b61087082612b0a565b6108af576040517f08c379a00000000000000000000000000000000000000000000000000000000081526004016108a6906146ec565b60405180910390fd5b806017600084815260200190815260200160002090805190602001906108d692919061391a565b505050565b60007f80ac58cd000000000000000000000000000000000000000000000000000000007bffffffffffffffffffffffffffffffffffffffffffffffffffffffff1916827bffffffffffffffffffffffffffffffffffffffffffffffffffffffff191614806109a657507f5b5e139f000000000000000000000000000000000000000000000000000000007bffffffffffffffffffffffffffffffffffffffffffffffffffffffff1916827bffffffffffffffffffffffffffffffffffffffffffffffffffffffff1916145b806109b657506109b582612b76565b5b9050919050565b6060600080546109cc9061473b565b80601f01602080910402602001604051908101604052809291908181526020018280546109f89061473b565b8015610a455780601f10610a1a57610100808354040283529160200191610a45565b820191906000526020600020905b815481529060010190602001808311610a2857829003601f168201915b5050505050905090565b6000610a5a82612b0a565b610a99576040517f08c379a0000000000000000000000000000000000000000000000000000000008152600401610a90906147df565b60405180910390fd5b6004600083815260200190815260200160002060009054906101000a900473ffffffffffffffffffffffffffffffffffffffff169050919050565b6000610adf826119e4565b90508073ffffffffffffffffffffffffffffffffffffffff168373ffffffffffffffffffffffffffffffffffffffff161415610b50576040517f08c379a0000000000000000000000000000000000000000000000000000000008152600401610b4790614871565b60405180910390fd5b8073ffffffffffffffffffffffffffffffffffffffff16610b6f612afb565b73ffffffffffffffffffffffffffffffffffffffff161480610b9e5750610b9d81610b98612afb565b6128a8565b5b610bdd576040517f08c379a0000000000000000000000000000000000000000000000000000000008152600401610bd490614903565b60405180910390fd5b610be78383612be0565b505050565b60011515601260003373ffffffffffffffffffffffffffffffffffffffff1673ffffffffffffffffffffffffffffffffffffffff16815260200190815260200160002060009054906101000a900460ff16151514610c4957600080fd5b600f600082815260200190815260200160002082908060018154018082558091505060019003906000526020600020016000909190919091509080519060200190610c9592919061391a565b505050565b610ca2612afb565b73ffffffffffffffffffffffffffffffffffffffff16610cc0611d84565b73ffffffffffffffffffffffffffffffffffffffff1614610d16576040517f08c379a0000000000000000000000000000000000000000000000000000000008152600401610d0d9061465a565b60405180910390fd5b6000601260008373ffffffffffffffffffffffffffffffffffffffff1673ffffffffffffffffffffffffffffffffffffffff16815260200190815260200160002060006101000a81548160ff02191690831515021790555050565b600d600082815260200190815260200160002060009054906101000a900460ff1615610dd2576040517f08c379a0000000000000000000000000000000000000000000000000000000008152600401610dc990614995565b60405180910390fd5b6011600082815260200190815260200160002060009054906101000a900460ff1615610e33576040517f08c379a0000000000000000000000000000000000000000000000000000000008152600401610e2a90614a27565b60405180910390fd5b610e3e838383612c99565b505050565b600d600082815260200190815260200160002060009054906101000a900460ff1615610ea4576040517f08c379a0000000000000000000000000000000000000000000000000000000008152600401610e9b90614995565b60405180910390fd5b6011600082815260200190815260200160002060009054906101000a900460ff1615610f05576040517f08c379a0000000000000000000000000000000000000000000000000000000008152600401610efc90614a27565b60405180910390fd5b610f10838383612cf9565b505050565b610f1f3382612d19565b610f2857600080fd5b610f3181612df7565b50565b60168054610f419061473b565b80601f0160208091040260200160405190810160405280929190818152602001828054610f6d9061473b565b8015610fba5780601f10610f8f57610100808354040283529160200191610fba565b820191906000526020600020905b815481529060010190602001808311610f9d57829003601f168201915b505050505081565b60606000610fce612289565b67ffffffffffffffff811115610fe757610fe6613b0e565b5b6040519080825280602002602001820160405280156110155781602001602082028036833780820191505090505b509050600080600190505b61102a6008612f08565b81116110ae573373ffffffffffffffffffffffffffffffffffffffff16611050826119e4565b73ffffffffffffffffffffffffffffffffffffffff16141561109b57808383815181106110805761107f614a47565b5b602002602001018181525050818061109790614aa5565b9250505b80806110a690614aa5565b915050611020565b50819250505090565b6110c13382612d19565b6110ca57600080fd5b6011600082815260200190815260200160002060009054906101000a900460ff1661112a576040517f08c379a000000000000000000000000000000000000000000000000000000000815260040161112190614b60565b60405180910390fd5b6000601560009054906101000a900473ffffffffffffffffffffffffffffffffffffffff1673ffffffffffffffffffffffffffffffffffffffff166397597bfd836040518263ffffffff1660e01b81526004016111879190614103565b602060405180830381865afa1580156111a4573d6000803e3d6000fd5b505050506040513d601f19601f820116820180604052508101906111c89190614b95565b11611208576040517f08c379a00000000000000000000000000000000000000000000000000000000081526004016111ff90614c34565b60405180910390fd5b6000601560009054906101000a900473ffffffffffffffffffffffffffffffffffffffff1673ffffffffffffffffffffffffffffffffffffffff1663d972fa1c836040518263ffffffff1660e01b81526004016112659190614103565b602060405180830381865afa158015611282573d6000803e3d6000fd5b505050506040513d601f19601f820116820180604052508101906112a69190614b95565b116112e6576040517f08c379a00000000000000000000000000000000000000000000000000000000081526004016112dd90614cc6565b60405180910390fd5b6000600e60008381526020019081526020016000205490506113066139a0565b60005b600c6000848152602001908152602001600020548160ff1610156118cd5760006113e0601560009054906101000a900473ffffffffffffffffffffffffffffffffffffffff1673ffffffffffffffffffffffffffffffffffffffff1663d972fa1c876040518263ffffffff1660e01b81526004016113879190614103565b602060405180830381865afa1580156113a4573d6000803e3d6000fd5b505050506040513d601f19601f820116820180604052508101906113c89190614b95565b600b6000878152602001908152602001600020612f16565b905060006001600f6000848152602001908152602001600020805490506114079190614ce6565b601560009054906101000a900473ffffffffffffffffffffffffffffffffffffffff1673ffffffffffffffffffffffffffffffffffffffff166397597bfd886040518263ffffffff1660e01b81526004016114629190614103565b602060405180830381865afa15801561147f573d6000803e3d6000fd5b505050506040513d601f19601f820116820180604052508101906114a39190614b95565b6114ad9190614d49565b90506000600f600084815260200190815260200160002082815481106114d6576114d5614a47565b5b9060005260206000200180546114eb9061473b565b80601f01602080910402602001604051908101604052809291908181526020018280546115179061473b565b80156115645780601f1061153957610100808354040283529160200191611564565b820191906000526020600020905b81548152906001019060200180831161154757829003601f168201915b50505050509050601460009054906101000a900473ffffffffffffffffffffffffffffffffffffffff1673ffffffffffffffffffffffffffffffffffffffff1663d0def52133836040518363ffffffff1660e01b81526004016115c8929190614d7a565b600060405180830381600087803b1580156115e257600080fd5b505af11580156115f6573d6000803e3d6000fd5b5050505080858560ff16600a811061161157611610614a47565b5b60200201819052506000600f6000858152602001908152602001600020805480602002602001604051908101604052809291908181526020016000905b828210156116fa57838290600052602060002001805461166d9061473b565b80601f01602080910402602001604051908101604052809291908181526020018280546116999061473b565b80156116e65780601f106116bb576101008083540402835291602001916116e6565b820191906000526020600020905b8154815290600101906020018083116116c957829003601f168201915b50505050508152602001906001019061164e565b50505050905060005b600f6000868152602001908152602001600020805490508110156118b5576000600f6000878152602001908152602001600020828154811061174857611747614a47565b5b90600052602060002001805461175d9061473b565b80601f01602080910402602001604051908101604052809291908181526020018280546117899061473b565b80156117d65780601f106117ab576101008083540402835291602001916117d6565b820191906000526020600020905b8154815290600101906020018083116117b957829003601f168201915b505050505090506117e7818561231e565b156118a15782600184516117fb9190614ce6565b8151811061180c5761180b614a47565b5b602002602001015183838151811061182757611826614a47565b5b602002602001018190525082600f600088815260200190815260200160002090805190602001906118599291906139c8565b50600f600087815260200190815260200160002080548061187d5761187c614daa565b5b6001900381819060005260206000200160006118999190613a28565b9055506118b5565b5080806118ad90614aa5565b915050611703565b505050505080806118c590614de6565b915050611309565b506118d783610f15565b7f7a8f71ffa367c677061e81db64480595dffec51888e92c29fd97f628ad7be9bc816040516119069190614eb2565b60405180910390a1505050565b60011515601260003373ffffffffffffffffffffffffffffffffffffffff1673ffffffffffffffffffffffffffffffffffffffff16815260200190815260200160002060009054906101000a900460ff1615151461197057600080fd5b806018908051906020019061198692919061391a565b5050565b6000600760009054906101000a900473ffffffffffffffffffffffffffffffffffffffff1673ffffffffffffffffffffffffffffffffffffffff168273ffffffffffffffffffffffffffffffffffffffff16149050919050565b6000806002600084815260200190815260200160002060009054906101000a900473ffffffffffffffffffffffffffffffffffffffff169050600073ffffffffffffffffffffffffffffffffffffffff168173ffffffffffffffffffffffffffffffffffffffff161415611a8d576040517f08c379a0000000000000000000000000000000000000000000000000000000008152600401611a8490614f46565b60405180910390fd5b80915050919050565b611a9e612afb565b73ffffffffffffffffffffffffffffffffffffffff16611abc611d84565b73ffffffffffffffffffffffffffffffffffffffff1614611b12576040517f08c379a0000000000000000000000000000000000000000000000000000000008152600401611b099061465a565b60405180910390fd5b6001601260008373ffffffffffffffffffffffffffffffffffffffff1673ffffffffffffffffffffffffffffffffffffffff16815260200190815260200160002060006101000a81548160ff02191690831515021790555050565b60008073ffffffffffffffffffffffffffffffffffffffff168273ffffffffffffffffffffffffffffffffffffffff161415611bde576040517f08c379a0000000000000000000000000000000000000000000000000000000008152600401611bd590614fd8565b60405180910390fd5b600360008373ffffffffffffffffffffffffffffffffffffffff1673ffffffffffffffffffffffffffffffffffffffff168152602001908152602001600020549050919050565b611c2d612afb565b73ffffffffffffffffffffffffffffffffffffffff16611c4b611d84565b73ffffffffffffffffffffffffffffffffffffffff1614611ca1576040517f08c379a0000000000000000000000000000000000000000000000000000000008152600401611c989061465a565b60405180910390fd5b611cab6000612f68565b565b6000600760009054906101000a900473ffffffffffffffffffffffffffffffffffffffff16905090565b60006001600a84604051611ceb9190615034565b908152602001604051809103902060009054906101000a900460ff1660ff161415611d1557600080fd5b6001600a84604051611d279190615034565b908152602001604051809103902060006101000a81548160ff021916908360ff160217905550611d57600861302e565b6000611d636008612f08565b9050611d6f8582613044565b611d7981846107eb565b809150509392505050565b6000600660009054906101000a900473ffffffffffffffffffffffffffffffffffffffff16905090565b606060018054611dbd9061473b565b80601f0160208091040260200160405190810160405280929190818152602001828054611de99061473b565b8015611e365780601f10611e0b57610100808354040283529160200191611e36565b820191906000526020600020905b815481529060010190602001808311611e1957829003601f168201915b5050505050905090565b60006011600083815260200190815260200160002060009054906101000a900460ff169050919050565b606060011515601260003373ffffffffffffffffffffffffffffffffffffffff1673ffffffffffffffffffffffffffffffffffffffff16815260200190815260200160002060009054906101000a900460ff16151514611ec957600080fd5b600f6000838152602001908152602001600020805480602002602001604051908101604052809291908181526020016000905b82821015611fa8578382906000526020600020018054611f1b9061473b565b80601f0160208091040260200160405190810160405280929190818152602001828054611f479061473b565b8015611f945780601f10611f6957610100808354040283529160200191611f94565b820191906000526020600020905b815481529060010190602001808311611f7757829003601f168201915b505050505081526020019060010190611efc565b505050509050919050565b611fbb612afb565b73ffffffffffffffffffffffffffffffffffffffff168273ffffffffffffffffffffffffffffffffffffffff161415612029576040517f08c379a000000000000000000000000000000000000000000000000000000000815260040161202090615097565b60405180910390fd5b8060056000612036612afb565b73ffffffffffffffffffffffffffffffffffffffff1673ffffffffffffffffffffffffffffffffffffffff16815260200190815260200160002060008473ffffffffffffffffffffffffffffffffffffffff1673ffffffffffffffffffffffffffffffffffffffff16815260200190815260200160002060006101000a81548160ff0219169083151502179055508173ffffffffffffffffffffffffffffffffffffffff166120e3612afb565b73ffffffffffffffffffffffffffffffffffffffff167f17307eab39ab6107e8899845ad3d59bd9653f200f220920489ca2b5937696c31836040516121289190613d35565b60405180910390a35050565b601360009054906101000a900473ffffffffffffffffffffffffffffffffffffffff1681565b60011515601260003373ffffffffffffffffffffffffffffffffffffffff1673ffffffffffffffffffffffffffffffffffffffff16815260200190815260200160002060009054906101000a900460ff161515146121b757600080fd5b80600b6000858152602001908152602001600020600084815260200190815260200160002081905550505050565b6121ef3382612d19565b6121f857600080fd5b6000600d600083815260200190815260200160002060006101000a81548160ff02191690831515021790555050565b612238612232612afb565b83612d19565b612277576040517f08c379a000000000000000000000000000000000000000000000000000000000815260040161226e90615129565b60405180910390fd5b61228384848484613212565b50505050565b600080600090506000600190505b6122a16008612f08565b8111612305573373ffffffffffffffffffffffffffffffffffffffff166122c7826119e4565b73ffffffffffffffffffffffffffffffffffffffff1614156122f25781806122ee90614aa5565b9250505b80806122fd90614aa5565b915050612297565b508091505090565b60006123196008612f08565b905090565b6000816040516020016123319190615034565b60405160208183030381529060405280519060200120836040516020016123589190615034565b6040516020818303038152906040528051906020012014905092915050565b606061238282612b0a565b6123c1576040517f08c379a00000000000000000000000000000000000000000000000000000000081526004016123b8906151bb565b60405180910390fd5b60006017600084815260200190815260200160002080546123e19061473b565b80601f016020809104026020016040519081016040528092919081815260200182805461240d9061473b565b801561245a5780601f1061242f5761010080835404028352916020019161245a565b820191906000526020600020905b81548152906001019060200180831161243d57829003601f168201915b50505050509050600061246b61326e565b90506000815114156124815781925050506124e5565b6000825111156124b657808260405160200161249e9291906151db565b604051602081830303815290604052925050506124e5565b806124c085613300565b6040516020016124d19291906151db565b604051602081830303815290604052925050505b919050565b60011515601260003373ffffffffffffffffffffffffffffffffffffffff1673ffffffffffffffffffffffffffffffffffffffff16815260200190815260200160002060009054906101000a900460ff1615151461254757600080fd5b612551600861302e565b600061255d6008612f08565b90506125698382613461565b6000600d600083815260200190815260200160002060006101000a81548160ff02191690831515021790555061259f81836107eb565b505050565b6125ac612afb565b73ffffffffffffffffffffffffffffffffffffffff166125ca611d84565b73ffffffffffffffffffffffffffffffffffffffff1614612620576040517f08c379a00000000000000000000000000000000000000000000000000000000081526004016126179061465a565b60405180910390fd5b6126298161347f565b50565b60011515601260003373ffffffffffffffffffffffffffffffffffffffff1673ffffffffffffffffffffffffffffffffffffffff16815260200190815260200160002060009054906101000a900460ff1615151461268957600080fd5b6000600f6000848152602001908152602001600020805480602002602001604051908101604052809291908181526020016000905b8282101561276a5783829060005260206000200180546126dd9061473b565b80601f01602080910402602001604051908101604052809291908181526020018280546127099061473b565b80156127565780601f1061272b57610100808354040283529160200191612756565b820191906000526020600020905b81548152906001019060200180831161273957829003601f168201915b5050505050815260200190600101906126be565b50505050905060005b600f600085815260200190815260200160002080549050811015612860578281141561284d5781600183516127a89190614ce6565b815181106127b9576127b8614a47565b5b60200260200101518282815181106127d4576127d3614a47565b5b602002602001018190525081600f600086815260200190815260200160002090805190602001906128069291906139c8565b50600f600085815260200190815260200160002080548061282a57612829614daa565b5b6001900381819060005260206000200160006128469190613a28565b9055612860565b808061285890614aa5565b915050612773565b50505050565b6128703382612d19565b61287957600080fd5b6001600d600083815260200190815260200160002060006101000a81548160ff02191690831515021790555050565b6000600560008473ffffffffffffffffffffffffffffffffffffffff1673ffffffffffffffffffffffffffffffffffffffff16815260200190815260200160002060008373ffffffffffffffffffffffffffffffffffffffff1673ffffffffffffffffffffffffffffffffffffffff16815260200190815260200160002060009054906101000a900460ff16905092915050565b60016011600083815260200190815260200160002060006101000a81548160ff0219169083151502179055507f702dd7be132b87b70a9e03694fa9b6f9a690d86a1a8f92a6a741dca24ed82e85816040516129979190614103565b60405180910390a150565b6129aa612afb565b73ffffffffffffffffffffffffffffffffffffffff166129c8611d84565b73ffffffffffffffffffffffffffffffffffffffff1614612a1e576040517f08c379a0000000000000000000000000000000000000000000000000000000008152600401612a159061465a565b60405180910390fd5b600073ffffffffffffffffffffffffffffffffffffffff168173ffffffffffffffffffffffffffffffffffffffff161415612a8e576040517f08c379a0000000000000000000000000000000000000000000000000000000008152600401612a8590615271565b60405180910390fd5b612a9781612f68565b50565b6000600d600083815260200190815260200160002060009054906101000a900460ff169050919050565b60006014600036905010158015612ae05750612adf3361198a565b5b15612af457601436033560601c9050612af8565b3390505b90565b6000612b05612ac4565b905090565b60008073ffffffffffffffffffffffffffffffffffffffff166002600084815260200190815260200160002060009054906101000a900473ffffffffffffffffffffffffffffffffffffffff1673ffffffffffffffffffffffffffffffffffffffff1614159050919050565b60007f01ffc9a7000000000000000000000000000000000000000000000000000000007bffffffffffffffffffffffffffffffffffffffffffffffffffffffff1916827bffffffffffffffffffffffffffffffffffffffffffffffffffffffff1916149050919050565b816004600083815260200190815260200160002060006101000a81548173ffffffffffffffffffffffffffffffffffffffff021916908373ffffffffffffffffffffffffffffffffffffffff160217905550808273ffffffffffffffffffffffffffffffffffffffff16612c53836119e4565b73ffffffffffffffffffffffffffffffffffffffff167f8c5be1e5ebec7d5bd14f71427d1e84f3dd0314c0f7b2291e5b200ac8c7c3b92560405160405180910390a45050565b612caa612ca4612afb565b82612d19565b612ce9576040517f08c379a0000000000000000000000000000000000000000000000000000000008152600401612ce090615129565b60405180910390fd5b612cf48383836134c3565b505050565b612d1483838360405180602001604052806000815250612227565b505050565b6000612d2482612b0a565b612d63576040517f08c379a0000000000000000000000000000000000000000000000000000000008152600401612d5a90615303565b60405180910390fd5b6000612d6e836119e4565b90508073ffffffffffffffffffffffffffffffffffffffff168473ffffffffffffffffffffffffffffffffffffffff161480612ddd57508373ffffffffffffffffffffffffffffffffffffffff16612dc584610a4f565b73ffffffffffffffffffffffffffffffffffffffff16145b80612dee5750612ded81856128a8565b5b91505092915050565b6000612e02826119e4565b9050612e108160008461371f565b612e1b600083612be0565b6001600360008373ffffffffffffffffffffffffffffffffffffffff1673ffffffffffffffffffffffffffffffffffffffff1681526020019081526020016000206000828254612e6b9190614ce6565b925050819055506002600083815260200190815260200160002060006101000a81549073ffffffffffffffffffffffffffffffffffffffff021916905581600073ffffffffffffffffffffffffffffffffffffffff168273ffffffffffffffffffffffffffffffffffffffff167fddf252ad1be2c89b69c2b068fc378daa952ba7f163c4a11628f55a4df523b3ef60405160405180910390a45050565b600081600001549050919050565b600080600090505b601054811215612f5d57826000828152602001908152602001600020548411612f4a5780915050612f62565b8080612f5590614aa5565b915050612f1e565b809150505b92915050565b6000600660009054906101000a900473ffffffffffffffffffffffffffffffffffffffff16905081600660006101000a81548173ffffffffffffffffffffffffffffffffffffffff021916908373ffffffffffffffffffffffffffffffffffffffff1602179055508173ffffffffffffffffffffffffffffffffffffffff168173ffffffffffffffffffffffffffffffffffffffff167f8be0079c531659141344cd1fd0a4f28419497f9722a3daafe3b4186f6b6457e060405160405180910390a35050565b6001816000016000828254019250508190555050565b600073ffffffffffffffffffffffffffffffffffffffff168273ffffffffffffffffffffffffffffffffffffffff1614156130b4576040517f08c379a00000000000000000000000000000000000000000000000000000000081526004016130ab9061536f565b60405180910390fd5b6130bd81612b0a565b156130fd576040517f08c379a00000000000000000000000000000000000000000000000000000000081526004016130f4906153db565b60405180910390fd5b6131096000838361371f565b6001600360008473ffffffffffffffffffffffffffffffffffffffff1673ffffffffffffffffffffffffffffffffffffffff168152602001908152602001600020600082825461315991906153fb565b92505081905550816002600083815260200190815260200160002060006101000a81548173ffffffffffffffffffffffffffffffffffffffff021916908373ffffffffffffffffffffffffffffffffffffffff160217905550808273ffffffffffffffffffffffffffffffffffffffff16600073ffffffffffffffffffffffffffffffffffffffff167fddf252ad1be2c89b69c2b068fc378daa952ba7f163c4a11628f55a4df523b3ef60405160405180910390a45050565b61321d8484846134c3565b61322984848484613724565b613268576040517f08c379a000000000000000000000000000000000000000000000000000000000815260040161325f906154c3565b60405180910390fd5b50505050565b60606018805461327d9061473b565b80601f01602080910402602001604051908101604052809291908181526020018280546132a99061473b565b80156132f65780601f106132cb576101008083540402835291602001916132f6565b820191906000526020600020905b8154815290600101906020018083116132d957829003601f168201915b5050505050905090565b60606000821415613348576040518060400160405280600181526020017f3000000000000000000000000000000000000000000000000000000000000000815250905061345c565b600082905060005b6000821461337a57808061336390614aa5565b915050600a8261337391906154e3565b9150613350565b60008167ffffffffffffffff81111561339657613395613b0e565b5b6040519080825280601f01601f1916602001820160405280156133c85781602001600182028036833780820191505090505b5090505b60008514613455576001826133e19190614ce6565b9150600a856133f09190614d49565b60306133fc91906153fb565b60f81b81838151811061341257613411614a47565b5b60200101907effffffffffffffffffffffffffffffffffffffffffffffffffffffffffffff1916908160001a905350600a8561344e91906154e3565b94506133cc565b8093505050505b919050565b61347b8282604051806020016040528060008152506138ac565b5050565b80600760006101000a81548173ffffffffffffffffffffffffffffffffffffffff021916908373ffffffffffffffffffffffffffffffffffffffff16021790555050565b8273ffffffffffffffffffffffffffffffffffffffff166134e3826119e4565b73ffffffffffffffffffffffffffffffffffffffff1614613539576040517f08c379a000000000000000000000000000000000000000000000000000000000815260040161353090615586565b60405180910390fd5b600073ffffffffffffffffffffffffffffffffffffffff168273ffffffffffffffffffffffffffffffffffffffff1614156135a9576040517f08c379a00000000000000000000000000000000000000000000000000000000081526004016135a090615618565b60405180910390fd5b6135b483838361371f565b6135bf600082612be0565b6001600360008573ffffffffffffffffffffffffffffffffffffffff1673ffffffffffffffffffffffffffffffffffffffff168152602001908152602001600020600082825461360f9190614ce6565b925050819055506001600360008473ffffffffffffffffffffffffffffffffffffffff1673ffffffffffffffffffffffffffffffffffffffff168152602001908152602001600020600082825461366691906153fb565b92505081905550816002600083815260200190815260200160002060006101000a81548173ffffffffffffffffffffffffffffffffffffffff021916908373ffffffffffffffffffffffffffffffffffffffff160217905550808273ffffffffffffffffffffffffffffffffffffffff168473ffffffffffffffffffffffffffffffffffffffff167fddf252ad1be2c89b69c2b068fc378daa952ba7f163c4a11628f55a4df523b3ef60405160405180910390a4505050565b505050565b60006137458473ffffffffffffffffffffffffffffffffffffffff16613907565b1561389f578373ffffffffffffffffffffffffffffffffffffffff1663150b7a0261376e612afb565b8786866040518563ffffffff1660e01b8152600401613790949392919061568d565b6020604051808303816000875af19250505080156137cc57506040513d601f19601f820116820180604052508101906137c991906156ee565b60015b61384f573d80600081146137fc576040519150601f19603f3d011682016040523d82523d6000602084013e613801565b606091505b50600081511415613847576040517f08c379a000000000000000000000000000000000000000000000000000000000815260040161383e906154c3565b60405180910390fd5b805181602001fd5b63150b7a0260e01b7bffffffffffffffffffffffffffffffffffffffffffffffffffffffff1916817bffffffffffffffffffffffffffffffffffffffffffffffffffffffff1916149150506138a4565b600190505b949350505050565b6138b68383613044565b6138c36000848484613724565b613902576040517f08c379a00000000000000000000000000000000000000000000000000000000081526004016138f9906154c3565b60405180910390fd5b505050565b600080823b905060008111915050919050565b8280546139269061473b565b90600052602060002090601f016020900481019282613948576000855561398f565b82601f1061396157805160ff191683800117855561398f565b8280016001018555821561398f579182015b8281111561398e578251825591602001919060010190613973565b5b50905061399c9190613a68565b5090565b604051806101400160405280600a905b60608152602001906001900390816139b05790505090565b828054828255906000526020600020908101928215613a17579160200282015b82811115613a16578251829080519060200190613a0692919061391a565b50916020019190600101906139e8565b5b509050613a249190613a85565b5090565b508054613a349061473b565b6000825580601f10613a465750613a65565b601f016020900490600052602060002090810190613a649190613a68565b5b50565b5b80821115613a81576000816000905550600101613a69565b5090565b5b80821115613aa55760008181613a9c9190613a28565b50600101613a86565b5090565b6000604051905090565b600080fd5b600080fd5b6000819050919050565b613ad081613abd565b8114613adb57600080fd5b50565b600081359050613aed81613ac7565b92915050565b600080fd5b600080fd5b6000601f19601f8301169050919050565b7f4e487b7100000000000000000000000000000000000000000000000000000000600052604160045260246000fd5b613b4682613afd565b810181811067ffffffffffffffff82111715613b6557613b64613b0e565b5b80604052505050565b6000613b78613aa9565b9050613b848282613b3d565b919050565b600067ffffffffffffffff821115613ba457613ba3613b0e565b5b613bad82613afd565b9050602081019050919050565b82818337600083830152505050565b6000613bdc613bd784613b89565b613b6e565b905082815260208101848484011115613bf857613bf7613af8565b5b613c03848285613bba565b509392505050565b600082601f830112613c2057613c1f613af3565b5b8135613c30848260208601613bc9565b91505092915050565b60008060408385031215613c5057613c4f613ab3565b5b6000613c5e85828601613ade565b925050602083013567ffffffffffffffff811115613c7f57613c7e613ab8565b5b613c8b85828601613c0b565b9150509250929050565b60007fffffffff0000000000000000000000000000000000000000000000000000000082169050919050565b613cca81613c95565b8114613cd557600080fd5b50565b600081359050613ce781613cc1565b92915050565b600060208284031215613d0357613d02613ab3565b5b6000613d1184828501613cd8565b91505092915050565b60008115159050919050565b613d2f81613d1a565b82525050565b6000602082019050613d4a6000830184613d26565b92915050565b600081519050919050565b600082825260208201905092915050565b60005b83811015613d8a578082015181840152602081019050613d6f565b83811115613d99576000848401525b50505050565b6000613daa82613d50565b613db48185613d5b565b9350613dc4818560208601613d6c565b613dcd81613afd565b840191505092915050565b60006020820190508181036000830152613df28184613d9f565b905092915050565b600060208284031215613e1057613e0f613ab3565b5b6000613e1e84828501613ade565b91505092915050565b600073ffffffffffffffffffffffffffffffffffffffff82169050919050565b6000613e5282613e27565b9050919050565b613e6281613e47565b82525050565b6000602082019050613e7d6000830184613e59565b92915050565b613e8c81613e47565b8114613e9757600080fd5b50565b600081359050613ea981613e83565b92915050565b60008060408385031215613ec657613ec5613ab3565b5b6000613ed485828601613e9a565b9250506020613ee585828601613ade565b9150509250929050565b60008060408385031215613f0657613f05613ab3565b5b600083013567ffffffffffffffff811115613f2457613f23613ab8565b5b613f3085828601613c0b565b9250506020613f4185828601613ade565b9150509250929050565b600060208284031215613f6157613f60613ab3565b5b6000613f6f84828501613e9a565b91505092915050565b600080600060608486031215613f9157613f90613ab3565b5b6000613f9f86828701613e9a565b9350506020613fb086828701613e9a565b9250506040613fc186828701613ade565b9150509250925092565b600081519050919050565b600082825260208201905092915050565b6000819050602082019050919050565b61400081613abd565b82525050565b60006140128383613ff7565b60208301905092915050565b6000602082019050919050565b600061403682613fcb565b6140408185613fd6565b935061404b83613fe7565b8060005b8381101561407c5781516140638882614006565b975061406e8361401e565b92505060018101905061404f565b5085935050505092915050565b600060208201905081810360008301526140a3818461402b565b905092915050565b6000602082840312156140c1576140c0613ab3565b5b600082013567ffffffffffffffff8111156140df576140de613ab8565b5b6140eb84828501613c0b565b91505092915050565b6140fd81613abd565b82525050565b600060208201905061411860008301846140f4565b92915050565b60008060006060848603121561413757614136613ab3565b5b600061414586828701613e9a565b935050602084013567ffffffffffffffff81111561416657614165613ab8565b5b61417286828701613c0b565b925050604084013567ffffffffffffffff81111561419357614192613ab8565b5b61419f86828701613c0b565b9150509250925092565b600081519050919050565b600082825260208201905092915050565b6000819050602082019050919050565b600082825260208201905092915050565b60006141f182613d50565b6141fb81856141d5565b935061420b818560208601613d6c565b61421481613afd565b840191505092915050565b600061422b83836141e6565b905092915050565b6000602082019050919050565b600061424b826141a9565b61425581856141b4565b935083602082028501614267856141c5565b8060005b858110156142a35784840389528151614284858261421f565b945061428f83614233565b925060208a0199505060018101905061426b565b50829750879550505050505092915050565b600060208201905081810360008301526142cf8184614240565b905092915050565b6142e081613d1a565b81146142eb57600080fd5b50565b6000813590506142fd816142d7565b92915050565b6000806040838503121561431a57614319613ab3565b5b600061432885828601613e9a565b9250506020614339858286016142ee565b9150509250929050565b60008060006060848603121561435c5761435b613ab3565b5b600061436a86828701613ade565b935050602061437b86828701613ade565b925050604061438c86828701613ade565b9150509250925092565b600067ffffffffffffffff8211156143b1576143b0613b0e565b5b6143ba82613afd565b9050602081019050919050565b60006143da6143d584614396565b613b6e565b9050828152602081018484840111156143f6576143f5613af8565b5b614401848285613bba565b509392505050565b600082601f83011261441e5761441d613af3565b5b813561442e8482602086016143c7565b91505092915050565b6000806000806080858703121561445157614450613ab3565b5b600061445f87828801613e9a565b945050602061447087828801613e9a565b935050604061448187828801613ade565b925050606085013567ffffffffffffffff8111156144a2576144a1613ab8565b5b6144ae87828801614409565b91505092959194509250565b600080604083850312156144d1576144d0613ab3565b5b600083013567ffffffffffffffff8111156144ef576144ee613ab8565b5b6144fb85828601613c0b565b925050602083013567ffffffffffffffff81111561451c5761451b613ab8565b5b61452885828601613c0b565b9150509250929050565b6000806040838503121561454957614548613ab3565b5b600061455785828601613e9a565b925050602083013567ffffffffffffffff81111561457857614577613ab8565b5b61458485828601613c0b565b9150509250929050565b600080604083850312156145a5576145a4613ab3565b5b60006145b385828601613ade565b92505060206145c485828601613ade565b9150509250929050565b600080604083850312156145e5576145e4613ab3565b5b60006145f385828601613e9a565b925050602061460485828601613e9a565b9150509250929050565b7f4f776e61626c653a2063616c6c6572206973206e6f7420746865206f776e6572600082015250565b6000614644602083613d5b565b915061464f8261460e565b602082019050919050565b6000602082019050818103600083015261467381614637565b9050919050565b7f4552433732314d657461646174613a2055524920736574206f66206e6f6e657860008201527f697374656e7420746f6b656e0000000000000000000000000000000000000000602082015250565b60006146d6602c83613d5b565b91506146e18261467a565b604082019050919050565b60006020820190508181036000830152614705816146c9565b9050919050565b7f4e487b7100000000000000000000000000000000000000000000000000000000600052602260045260246000fd5b6000600282049050600182168061475357607f821691505b602082108114156147675761476661470c565b5b50919050565b7f4552433732313a20617070726f76656420717565727920666f72206e6f6e657860008201527f697374656e7420746f6b656e0000000000000000000000000000000000000000602082015250565b60006147c9602c83613d5b565b91506147d48261476d565b604082019050919050565b600060208201905081810360008301526147f8816147bc565b9050919050565b7f4552433732313a20617070726f76616c20746f2063757272656e74206f776e6560008201527f7200000000000000000000000000000000000000000000000000000000000000602082015250565b600061485b602183613d5b565b9150614866826147ff565b604082019050919050565b6000602082019050818103600083015261488a8161484e565b9050919050565b7f4552433732313a20617070726f76652063616c6c6572206973206e6f74206f7760008201527f6e6572206e6f7220617070726f76656420666f7220616c6c0000000000000000602082015250565b60006148ed603883613d5b565b91506148f882614891565b604082019050919050565b6000602082019050818103600083015261491c816148e0565b9050919050565b7f566972696469616e204e46543a2043616e6e6f74207472616e7366657220776860008201527f696c65206c6973746564206f6e20566972696469616e2045786368616e676500602082015250565b600061497f603f83613d5b565b915061498a82614923565b604082019050919050565b600060208201905081810360008301526149ae81614972565b9050919050565b7f566972696469616e204e46543a2043616e206f6e6c79206f70656e207061636b60008201527f206f6e636520726573756c742069732064656369646564000000000000000000602082015250565b6000614a11603783613d5b565b9150614a1c826149b5565b604082019050919050565b60006020820190508181036000830152614a4081614a04565b9050919050565b7f4e487b7100000000000000000000000000000000000000000000000000000000600052603260045260246000fd5b7f4e487b7100000000000000000000000000000000000000000000000000000000600052601160045260246000fd5b6000614ab082613abd565b91507fffffffffffffffffffffffffffffffffffffffffffffffffffffffffffffffff821415614ae357614ae2614a76565b5b600182019050919050565b7f566972696469616e204e46543a207061636b20726573756c74206e6f7420646560008201527f6369646564207965740000000000000000000000000000000000000000000000602082015250565b6000614b4a602983613d5b565b9150614b5582614aee565b604082019050919050565b60006020820190508181036000830152614b7981614b3d565b9050919050565b600081519050614b8f81613ac7565b92915050565b600060208284031215614bab57614baa613ab3565b5b6000614bb984828501614b80565b91505092915050565b7f566972696469616e205061636b3a20565246206861736e27742067656e65726160008201527f7465642072616e646f6d2072617720726573756c742079657400000000000000602082015250565b6000614c1e603983613d5b565b9150614c2982614bc2565b604082019050919050565b60006020820190508181036000830152614c4d81614c11565b9050919050565b7f566972696469616e205061636b3a20565246206861736e27742067656e65726160008201527f7465642072616e646f6d20726573756c74207965740000000000000000000000602082015250565b6000614cb0603583613d5b565b9150614cbb82614c54565b604082019050919050565b60006020820190508181036000830152614cdf81614ca3565b9050919050565b6000614cf182613abd565b9150614cfc83613abd565b925082821015614d0f57614d0e614a76565b5b828203905092915050565b7f4e487b7100000000000000000000000000000000000000000000000000000000600052601260045260246000fd5b6000614d5482613abd565b9150614d5f83613abd565b925082614d6f57614d6e614d1a565b5b828206905092915050565b6000604082019050614d8f6000830185613e59565b8181036020830152614da18184613d9f565b90509392505050565b7f4e487b7100000000000000000000000000000000000000000000000000000000600052603160045260246000fd5b600060ff82169050919050565b6000614df182614dd9565b915060ff821415614e0557614e04614a76565b5b600182019050919050565b6000600a9050919050565b600081905092915050565b6000819050919050565b6000602082019050919050565b6000614e4882614e10565b614e528185614e1b565b935083602082028501614e6485614e26565b8060005b85811015614ea05784840389528151614e81858261421f565b9450614e8c83614e30565b925060208a01995050600181019050614e68565b50829750879550505050505092915050565b60006020820190508181036000830152614ecc8184614e3d565b905092915050565b7f4552433732313a206f776e657220717565727920666f72206e6f6e657869737460008201527f656e7420746f6b656e0000000000000000000000000000000000000000000000602082015250565b6000614f30602983613d5b565b9150614f3b82614ed4565b604082019050919050565b60006020820190508181036000830152614f5f81614f23565b9050919050565b7f4552433732313a2062616c616e636520717565727920666f7220746865207a6560008201527f726f206164647265737300000000000000000000000000000000000000000000602082015250565b6000614fc2602a83613d5b565b9150614fcd82614f66565b604082019050919050565b60006020820190508181036000830152614ff181614fb5565b9050919050565b600081905092915050565b600061500e82613d50565b6150188185614ff8565b9350615028818560208601613d6c565b80840191505092915050565b60006150408284615003565b915081905092915050565b7f4552433732313a20617070726f766520746f2063616c6c657200000000000000600082015250565b6000615081601983613d5b565b915061508c8261504b565b602082019050919050565b600060208201905081810360008301526150b081615074565b9050919050565b7f4552433732313a207472616e736665722063616c6c6572206973206e6f74206f60008201527f776e6572206e6f7220617070726f766564000000000000000000000000000000602082015250565b6000615113603183613d5b565b915061511e826150b7565b604082019050919050565b6000602082019050818103600083015261514281615106565b9050919050565b7f4552433732314d657461646174613a2055524920717565727920666f72206e6f60008201527f6e6578697374656e7420746f6b656e0000000000000000000000000000000000602082015250565b60006151a5602f83613d5b565b91506151b082615149565b604082019050919050565b600060208201905081810360008301526151d481615198565b9050919050565b60006151e78285615003565b91506151f38284615003565b91508190509392505050565b7f4f776e61626c653a206e6577206f776e657220697320746865207a65726f206160008201527f6464726573730000000000000000000000000000000000000000000000000000602082015250565b600061525b602683613d5b565b9150615266826151ff565b604082019050919050565b6000602082019050818103600083015261528a8161524e565b9050919050565b7f4552433732313a206f70657261746f7220717565727920666f72206e6f6e657860008201527f697374656e7420746f6b656e0000000000000000000000000000000000000000602082015250565b60006152ed602c83613d5b565b91506152f882615291565b604082019050919050565b6000602082019050818103600083015261531c816152e0565b9050919050565b7f4552433732313a206d696e7420746f20746865207a65726f2061646472657373600082015250565b6000615359602083613d5b565b915061536482615323565b602082019050919050565b600060208201905081810360008301526153888161534c565b9050919050565b7f4552433732313a20746f6b656e20616c7265616479206d696e74656400000000600082015250565b60006153c5601c83613d5b565b91506153d08261538f565b602082019050919050565b600060208201905081810360008301526153f4816153b8565b9050919050565b600061540682613abd565b915061541183613abd565b9250827fffffffffffffffffffffffffffffffffffffffffffffffffffffffffffffffff0382111561544657615445614a76565b5b828201905092915050565b7f4552433732313a207472616e7366657220746f206e6f6e20455243373231526560008201527f63656976657220696d706c656d656e7465720000000000000000000000000000602082015250565b60006154ad603283613d5b565b91506154b882615451565b604082019050919050565b600060208201905081810360008301526154dc816154a0565b9050919050565b60006154ee82613abd565b91506154f983613abd565b92508261550957615508614d1a565b5b828204905092915050565b7f4552433732313a207472616e73666572206f6620746f6b656e2074686174206960008201527f73206e6f74206f776e0000000000000000000000000000000000000000000000602082015250565b6000615570602983613d5b565b915061557b82615514565b604082019050919050565b6000602082019050818103600083015261559f81615563565b9050919050565b7f4552433732313a207472616e7366657220746f20746865207a65726f2061646460008201527f7265737300000000000000000000000000000000000000000000000000000000602082015250565b6000615602602483613d5b565b915061560d826155a6565b604082019050919050565b60006020820190508181036000830152615631816155f5565b9050919050565b600081519050919050565b600082825260208201905092915050565b600061565f82615638565b6156698185615643565b9350615679818560208601613d6c565b61568281613afd565b840191505092915050565b60006080820190506156a26000830187613e59565b6156af6020830186613e59565b6156bc60408301856140f4565b81810360608301526156ce8184615654565b905095945050505050565b6000815190506156e881613cc1565b92915050565b60006020828403121561570457615703613ab3565b5b6000615712848285016156d9565b9150509291505056fea2646970667358221220e684cc5335e2ae87e033dc2300518b78f40d035b378a8d11c664d399c4931dd364736f6c634300080b0033",
  "immutableReferences": {},
  "source": "pragma solidity ^0.8.0;\n\nimport \"@openzeppelin/contracts/token/ERC721/ERC721.sol\";\nimport \"@openzeppelin/contracts/utils/Counters.sol\";\nimport \"@openzeppelin/contracts/access/Ownable.sol\";\nimport \"@opengsn/contracts/src/BaseRelayRecipient.sol\";\n\nimport \"./RandomNumber.sol\";\nimport \"./ViridianNFT.sol\";\n\ncontract ViridianPack is ERC721, Ownable, BaseRelayRecipient {\n\n    using Counters for Counters.Counter;\n    Counters.Counter private _tokenIds;\n    Counters.Counter private _unmintedTokenIds;\n    mapping(string => uint8) hashes;\n    mapping(uint256 => mapping(uint256 => uint256)) private rarityOdds;\n    mapping(uint256 => uint256) private numNFTs;\n    //mapping(uint256 => string) private unmintedURIs;\n    mapping(uint256 => bool) private _tokensListed;\n    mapping(uint256 => uint256) tokenRarity;\n    mapping(uint256 => string[]) private uriRarityPools;\n    int private maxRarityIndex;\n\n    mapping(uint256 => bool) private packResultDecided;\n\n    mapping(address => bool) admins;\n\n    address public viridianNFTAddr;\n\n    ViridianNFT vNFT;\n    RandomNumberConsumer vrf;\n\n    using Strings for uint256;\n\n    constructor(address _viridianNFT/*, address _forwarder*/) ERC721(\"Viridian Pack\", \"VP\") {\n\n        require(address(_viridianNFT) != address(0));\n\n        viridianNFTAddr = _viridianNFT;\n\n        //_setTrustedForwarder(_forwarder);\n\n        vNFT = ViridianNFT(viridianNFTAddr);\n        vrf = RandomNumberConsumer(address(this));\n\n        //Set all beginning rarities\n\n        // Legendary rarity and cards in pack\n        rarityOdds[0][0] = 25;\n        rarityOdds[0][1] = 100;\n        rarityOdds[0][2] = 300;\n        rarityOdds[0][3] = 1000;\n        numNFTs[0] = 3;\n\n        // Mystical rarity and cards in pack\n        rarityOdds[1][0] = 1;\n        rarityOdds[1][1] = 50;\n        rarityOdds[1][2] = 200;\n        rarityOdds[1][3] = 1000;\n        numNFTs[0] = 3;\n\n        // Rare rarity and cards in pack\n        rarityOdds[2][0] = 0;\n        rarityOdds[2][1] = 50;\n        rarityOdds[2][2] = 100;\n        rarityOdds[2][3] = 1000;\n        numNFTs[0] = 3;\n\n        // Common rarity and cards in pack\n        rarityOdds[3][0] = 0;\n        rarityOdds[3][1] = 10;\n        rarityOdds[3][2] = 50;\n        rarityOdds[3][3] = 1000;\n        numNFTs[0] = 3;\n\n        maxRarityIndex = 3;\n\n        admins[msg.sender] = true;\n    }\n\n    string public override versionRecipient = \"2.2.0\";\n\n    function setTrustedForwarder(address _forwarder) public onlyOwner() {\n        _setTrustedForwarder(_forwarder);\n    }\n\n    event Open(string[10] newUris);\n    event PackResultDecided(uint256 tokenId);\n    \n    // Optional mapping for token URIs\n    mapping (uint256 => string) private _tokenURIs;\n\n    //address private viridianExchangeAddress;\n\n    // Base URI\n    string private _baseURIextended;\n\n    modifier onlyAdmin() {\n        require(admins[msg.sender] == true);\n            _;\n    }\n\n    function _msgSender() internal view override(Context, BaseRelayRecipient) returns (address sender) {\n        sender = BaseRelayRecipient._msgSender();\n    }\n\n    function _msgData() internal view override(Context, BaseRelayRecipient) returns (bytes memory) {\n        return BaseRelayRecipient._msgData();\n    }\n\n    function addAdmin(address _newAdmin) external onlyOwner() {\n        admins[_newAdmin] = true;\n    }\n\n    function removeAdmin(address _newAdmin) external onlyOwner() {\n        admins[_newAdmin] = false;\n    }\n    \n    function setBaseURI(string memory baseURI_) external onlyAdmin() {\n        _baseURIextended = baseURI_;\n    }\n    \n    function _setTokenURI(uint256 tokenId, string memory _tokenURI) public virtual onlyOwner() {\n        require(_exists(tokenId), \"ERC721Metadata: URI set of nonexistent token\");\n        _tokenURIs[tokenId] = _tokenURI;\n    }\n    \n    function _baseURI() internal view virtual override returns (string memory) {\n        return _baseURIextended;\n    }\n    \n    function tokenURI(uint256 tokenId) public view virtual override returns (string memory) {\n        require(_exists(tokenId), \"ERC721Metadata: URI query for nonexistent token\");\n\n        string memory _tokenURI = _tokenURIs[tokenId];\n        string memory base = _baseURI();\n        \n        // If there is no base URI, return the token URI.\n        if (bytes(base).length == 0) {\n            return _tokenURI;\n        }\n        // If both are set, concatenate the baseURI and tokenURI (via abi.encodePacked).\n        if (bytes(_tokenURI).length > 0) {\n            return string(abi.encodePacked(base, _tokenURI));\n        }\n        // If there is a baseURI but no tokenURI, concatenate the tokenID to the baseURI.\n        return string(abi.encodePacked(base, tokenId.toString()));\n    }\n\n    function getUriRarityPools(uint256 _rarity) public view onlyAdmin() returns (string[] memory) {\n        return uriRarityPools[_rarity];\n    }\n\n    function getNumNFTs() public view returns (uint256 n) {\n        return _tokenIds.current();\n    }\n\n    function getNumOwnedNFTs() public view virtual returns (uint256) {\n        uint256 numOwnedNFTs = 0;\n\n        for (uint256 i = 1; i <= _tokenIds.current(); i++) {\n            if (ownerOf(i) == msg.sender) {\n                numOwnedNFTs++;\n            }\n        }\n\n        return numOwnedNFTs;\n    }\n \n    function getOwnedNFTs() public view virtual returns (uint256[] memory) {\n\n        uint256[] memory _tokens = new uint256[](getNumOwnedNFTs());\n\n        uint256 curIndex = 0;\n\n        for (uint256 i = 1; i <= _tokenIds.current(); i++) {\n            if (ownerOf(i) == msg.sender) {\n                _tokens[curIndex] = i;\n                curIndex++;\n            }\n        }\n        \n        return _tokens;\n    }\n\n    function setRarityOdds(uint256 _rarity, uint256 _rarityOdd, uint256 _newOdds) external onlyAdmin() {\n        rarityOdds[_rarity][_rarityOdd] = _newOdds;\n    }\n\n    function isListed(uint256 tokenId) public view returns (bool) {\n        return _tokensListed[tokenId];\n    }\n\n    function mint(\n        address _to,\n        string memory tokenURI_\n    ) external onlyAdmin() {\n        _tokenIds.increment();\n        uint256 _tokenId = _tokenIds.current();\n\n        _safeMint(_to, _tokenId);\n        _tokensListed[_tokenId] = false;\n        _setTokenURI(_tokenId, tokenURI_);\n    }\n\n    //TODO: THIS IS NOT TO BE USED IN FINAL DEPLOYED IMPLEMENTATION, convert to LINK VRF for TESTNET and ESPECIALLY MAINNET!!!\n    uint nonce;\n\n    function calculateWeightedOdds(uint256 randomNum, mapping(uint256 => uint256) storage rarityOdd) private view returns (uint) {\n        uint256 n;\n\n        for (n = 0; int(n) < int(maxRarityIndex); n++) {\n            if (randomNum <= rarityOdd[n]) {\n                return n;\n            }\n        }\n\n        return n;\n    }\n\n    function softMintNFT(string memory uri, uint256 rarity) public onlyAdmin() {\n        uriRarityPools[rarity].push(uri);\n    }\n\n    function burnSoftMintedNFTAtRarityIndex(uint256 rarity, uint256 index) public onlyAdmin() {\n        string[] memory curRarityPool = uriRarityPools[rarity];\n            for (uint i = 0; i < uriRarityPools[rarity].length; i++) {\n                if (i == index) {\n                    curRarityPool[i] = curRarityPool[curRarityPool.length - 1];\n                    uriRarityPools[rarity] = curRarityPool;\n                    uriRarityPools[rarity].pop();\n                    break;\n                }\n            }\n    }\n\n    function compareStrings(string memory _s, string memory _s1) public pure returns (bool) {\n        return (keccak256(abi.encodePacked((_s))) == keccak256(abi.encodePacked((_s1))));\n    }\n\n    function lockInPackResult(uint256 _tokenId) public {\n        //require(_isApprovedOrOwner(msg.sender, _tokenId));\n        //equire(!packResultDecided[_tokenId], \"Viridian Pack: Cannot redo pack result\");\n        packResultDecided[_tokenId] = true;\n        //vrf.getRandomNumber(_tokenId);\n\n        emit PackResultDecided(_tokenId);\n    }\n\n    function isPackResultDecided(uint256 _tokenId) public view returns (bool) {\n        return packResultDecided[_tokenId];\n    }\n\n    function openPack(uint256 _tokenId) public {\n        // Randomly \n        require(_isApprovedOrOwner(msg.sender, _tokenId));\n        require(packResultDecided[_tokenId], \"Viridian NFT: pack result not decided yet\");\n        require(vrf.getRandomRawResultForToken(_tokenId) > 0, \"Viridian Pack: VRF hasn't generated random raw result yet\");\n        require(vrf.getRandomResultForToken(_tokenId) > 0, \"Viridian Pack: VRF hasn't generated random result yet\");\n\n        uint256 tr = tokenRarity[_tokenId];\n\n        string[10] memory newUris;\n\n        //Need to delete the item from the rarity pool before minting happens again\n        for (uint8 n = 0; n < numNFTs[tr]; n++) {\n            uint256 randIndexWithPercentOdds = calculateWeightedOdds(vrf.getRandomResultForToken(_tokenId), rarityOdds[tr]);\n            uint256 randIndexInRarity = vrf.getRandomRawResultForToken(_tokenId) % (uriRarityPools[randIndexWithPercentOdds].length - 1);\n\n            string memory newURI = uriRarityPools[randIndexWithPercentOdds][randIndexInRarity];\n\n            vNFT.mint(msg.sender, newURI);\n\n            newUris[n] = newURI;\n\n            string[] memory curRarityPool = uriRarityPools[randIndexWithPercentOdds];\n            for (uint i = 0; i < uriRarityPools[randIndexWithPercentOdds].length; i++) {\n                string memory uri = uriRarityPools[randIndexWithPercentOdds][i];\n                if (compareStrings(uri, newURI)) {\n                    curRarityPool[i] = curRarityPool[curRarityPool.length - 1];\n                    uriRarityPools[randIndexWithPercentOdds] = curRarityPool;\n                    uriRarityPools[randIndexWithPercentOdds].pop();\n                    break;\n                }\n            }\n        }\n\n        burn(_tokenId);\n\n        emit Open(newUris);\n    }\n\n    function burn(uint256 tokenId) public {\n        require(_isApprovedOrOwner(msg.sender, tokenId));\n\n        _burn(tokenId);\n    }\n\n    function awardItem(address recipient, string memory hash, string memory metadata) public returns (uint256) {\n        require(hashes[hash] != 1);\n        hashes[hash] = 1;\n        _tokenIds.increment();\n        uint256 newItemId = _tokenIds.current();\n        _mint(recipient, newItemId);\n        _setTokenURI(newItemId, metadata);\n        return newItemId;\n    }\n\n    function safeTransferFrom(address from, address to, uint256 tokenId) public override {\n        require(!_tokensListed[tokenId], \"Viridian NFT: Cannot transfer while listed on Viridian Exchange\");\n        require(!packResultDecided[tokenId], \"Viridian NFT: Can only open pack once result is decided\");\n\n        super.safeTransferFrom(from, to, tokenId);\n    }\n\n    function transferFrom(address from, address to, uint256 tokenId) public override {\n        require(!_tokensListed[tokenId], \"Viridian NFT: Cannot transfer while listed on Viridian Exchange\");\n        require(!packResultDecided[tokenId], \"Viridian NFT: Can only open pack once result is decided\");\n\n        super.transferFrom(from, to, tokenId);\n    }\n\n    function listToken(uint256 _tokenId) public {\n        require(_isApprovedOrOwner(msg.sender, _tokenId));\n        _tokensListed[_tokenId] = true;\n    }\n\n    function unlistToken(uint256 _tokenId) public {\n        require(_isApprovedOrOwner(msg.sender, _tokenId));\n        _tokensListed[_tokenId] = false;\n    }\n}",
  "sourcePath": "/Users/blakehatch/Viridian-Exchange-Contracts/contracts/ViridianPack.sol",
  "compiler": {
    "name": "solc",
    "version": "0.8.11+commit.d7f03943.Emscripten.clang"
  },
  "schemaVersion": "3.4.1",
  "updatedAt": "2021-12-28T17:51:30.592Z",
  "networkType": "ethereum",
  "devdoc": {
    "kind": "dev",
    "methods": {
      "approve(address,uint256)": {
        "details": "See {IERC721-approve}."
      },
      "balanceOf(address)": {
        "details": "See {IERC721-balanceOf}."
      },
      "getApproved(uint256)": {
        "details": "See {IERC721-getApproved}."
      },
      "isApprovedForAll(address,address)": {
        "details": "See {IERC721-isApprovedForAll}."
      },
      "name()": {
        "details": "See {IERC721Metadata-name}."
      },
      "owner()": {
        "details": "Returns the address of the current owner."
      },
      "ownerOf(uint256)": {
        "details": "See {IERC721-ownerOf}."
      },
      "renounceOwnership()": {
        "details": "Leaves the contract without owner. It will not be possible to call `onlyOwner` functions anymore. Can only be called by the current owner. NOTE: Renouncing ownership will leave the contract without an owner, thereby removing any functionality that is only available to the owner."
      },
      "safeTransferFrom(address,address,uint256)": {
        "details": "See {IERC721-safeTransferFrom}."
      },
      "safeTransferFrom(address,address,uint256,bytes)": {
        "details": "See {IERC721-safeTransferFrom}."
      },
      "setApprovalForAll(address,bool)": {
        "details": "See {IERC721-setApprovalForAll}."
      },
      "supportsInterface(bytes4)": {
        "details": "See {IERC165-supportsInterface}."
      },
      "symbol()": {
        "details": "See {IERC721Metadata-symbol}."
      },
      "tokenURI(uint256)": {
        "details": "See {IERC721Metadata-tokenURI}."
      },
      "transferFrom(address,address,uint256)": {
        "details": "See {IERC721-transferFrom}."
      },
      "transferOwnership(address)": {
        "details": "Transfers ownership of the contract to a new account (`newOwner`). Can only be called by the current owner."
      }
    },
    "version": 1
  },
  "userdoc": {
    "kind": "user",
    "methods": {
      "isTrustedForwarder(address)": {
        "notice": "return if the forwarder is trusted to forward relayed transactions to us. the forwarder is required to verify the sender's signature, and verify the call is not a replay."
      }
    },
    "version": 1
  }
}