{
  "contractName": "ViridianExchange",
  "abi": [
    {
      "inputs": [
        {
          "internalType": "address",
          "name": "_erc20Token",
          "type": "address"
        },
        {
          "internalType": "address",
          "name": "_viridianNFT",
          "type": "address"
        },
        {
          "internalType": "address",
          "name": "_viridianPack",
          "type": "address"
        }
      ],
      "stateMutability": "nonpayable",
      "type": "constructor"
    },
    {
      "anonymous": false,
      "inputs": [
        {
          "indexed": false,
          "internalType": "uint256",
          "name": "tokenId",
          "type": "uint256"
        },
        {
          "indexed": false,
          "internalType": "string",
          "name": "uri",
          "type": "string"
        },
        {
          "indexed": false,
          "internalType": "address",
          "name": "wallet",
          "type": "address"
        },
        {
          "indexed": false,
          "internalType": "bool",
          "name": "listed",
          "type": "bool"
        }
      ],
      "name": "ItemListed",
      "type": "event"
    },
    {
      "anonymous": false,
      "inputs": [
        {
          "indexed": false,
          "internalType": "uint256",
          "name": "tokenId",
          "type": "uint256"
        },
        {
          "indexed": false,
          "internalType": "string",
          "name": "uri",
          "type": "string"
        },
        {
          "indexed": false,
          "internalType": "address",
          "name": "wallet",
          "type": "address"
        },
        {
          "indexed": false,
          "internalType": "bool",
          "name": "listed",
          "type": "bool"
        }
      ],
      "name": "ItemUnlisted",
      "type": "event"
    },
    {
      "anonymous": false,
      "inputs": [
        {
          "indexed": true,
          "internalType": "address",
          "name": "previousOwner",
          "type": "address"
        },
        {
          "indexed": true,
          "internalType": "address",
          "name": "newOwner",
          "type": "address"
        }
      ],
      "name": "OwnershipTransferred",
      "type": "event"
    },
    {
      "anonymous": false,
      "inputs": [
        {
          "indexed": false,
          "internalType": "uint256",
          "name": "tokenId",
          "type": "uint256"
        },
        {
          "indexed": false,
          "internalType": "string",
          "name": "uri",
          "type": "string"
        },
        {
          "indexed": false,
          "internalType": "address",
          "name": "wallet",
          "type": "address"
        },
        {
          "indexed": false,
          "internalType": "bool",
          "name": "purchased",
          "type": "bool"
        }
      ],
      "name": "PurchasedListing",
      "type": "event"
    },
    {
      "inputs": [
        {
          "internalType": "address",
          "name": "",
          "type": "address"
        }
      ],
      "name": "approvedTokens",
      "outputs": [
        {
          "internalType": "bool",
          "name": "",
          "type": "bool"
        }
      ],
      "stateMutability": "view",
      "type": "function",
      "constant": true
    },
    {
      "inputs": [
        {
          "internalType": "address",
          "name": "forwarder",
          "type": "address"
        }
      ],
      "name": "isTrustedForwarder",
      "outputs": [
        {
          "internalType": "bool",
          "name": "",
          "type": "bool"
        }
      ],
      "stateMutability": "view",
      "type": "function",
      "constant": true
    },
    {
      "inputs": [],
      "name": "owner",
      "outputs": [
        {
          "internalType": "address",
          "name": "",
          "type": "address"
        }
      ],
      "stateMutability": "view",
      "type": "function",
      "constant": true
    },
    {
      "inputs": [],
      "name": "renounceOwnership",
      "outputs": [],
      "stateMutability": "nonpayable",
      "type": "function"
    },
    {
      "inputs": [
        {
          "internalType": "address",
          "name": "newOwner",
          "type": "address"
        }
      ],
      "name": "transferOwnership",
      "outputs": [],
      "stateMutability": "nonpayable",
      "type": "function"
    },
    {
      "inputs": [],
      "name": "trustedForwarder",
      "outputs": [
        {
          "internalType": "address",
          "name": "",
          "type": "address"
        }
      ],
      "stateMutability": "view",
      "type": "function",
      "constant": true
    },
    {
      "inputs": [],
      "name": "versionRecipient",
      "outputs": [
        {
          "internalType": "string",
          "name": "",
          "type": "string"
        }
      ],
      "stateMutability": "view",
      "type": "function",
      "constant": true
    },
    {
      "inputs": [],
      "name": "viridianNFT",
      "outputs": [
        {
          "internalType": "address",
          "name": "",
          "type": "address"
        }
      ],
      "stateMutability": "view",
      "type": "function",
      "constant": true
    },
    {
      "inputs": [],
      "name": "viridianPack",
      "outputs": [
        {
          "internalType": "address",
          "name": "",
          "type": "address"
        }
      ],
      "stateMutability": "view",
      "type": "function",
      "constant": true
    },
    {
      "inputs": [
        {
          "internalType": "address",
          "name": "_forwarder",
          "type": "address"
        }
      ],
      "name": "setTrustedForwarder",
      "outputs": [],
      "stateMutability": "nonpayable",
      "type": "function"
    },
    {
      "inputs": [
        {
          "internalType": "address",
          "name": "_erc20Address",
          "type": "address"
        }
      ],
      "name": "addERC20Token",
      "outputs": [],
      "stateMutability": "nonpayable",
      "type": "function"
    },
    {
      "inputs": [],
      "name": "getBalance",
      "outputs": [
        {
          "internalType": "uint256",
          "name": "",
          "type": "uint256"
        }
      ],
      "stateMutability": "view",
      "type": "function",
      "constant": true
    },
    {
      "inputs": [],
      "name": "getListings",
      "outputs": [
        {
          "internalType": "uint256[]",
          "name": "",
          "type": "uint256[]"
        }
      ],
      "stateMutability": "view",
      "type": "function",
      "constant": true
    },
    {
      "inputs": [
        {
          "internalType": "uint256",
          "name": "_listingId",
          "type": "uint256"
        }
      ],
      "name": "getListingFromId",
      "outputs": [
        {
          "components": [
            {
              "internalType": "uint256",
              "name": "listingId",
              "type": "uint256"
            },
            {
              "internalType": "uint256",
              "name": "tokenId",
              "type": "uint256"
            },
            {
              "internalType": "address",
              "name": "owner",
              "type": "address"
            },
            {
              "internalType": "uint256",
              "name": "price",
              "type": "uint256"
            },
            {
              "internalType": "bool",
              "name": "purchased",
              "type": "bool"
            },
            {
              "internalType": "uint256",
              "name": "royalty",
              "type": "uint256"
            },
            {
              "internalType": "uint256",
              "name": "endTime",
              "type": "uint256"
            },
            {
              "internalType": "bool",
              "name": "sold",
              "type": "bool"
            },
            {
              "internalType": "address",
              "name": "erc20Address",
              "type": "address"
            },
            {
              "internalType": "bool",
              "name": "isVNFT",
              "type": "bool"
            },
            {
              "internalType": "uint256",
              "name": "timeListed",
              "type": "uint256"
            }
          ],
          "internalType": "struct ViridianExchange.Listing",
          "name": "",
          "type": "tuple"
        }
      ],
      "stateMutability": "view",
      "type": "function",
      "constant": true
    },
    {
      "inputs": [
        {
          "internalType": "address",
          "name": "_userAddr",
          "type": "address"
        }
      ],
      "name": "getListingsFromUser",
      "outputs": [
        {
          "components": [
            {
              "internalType": "uint256",
              "name": "listingId",
              "type": "uint256"
            },
            {
              "internalType": "uint256",
              "name": "tokenId",
              "type": "uint256"
            },
            {
              "internalType": "address",
              "name": "owner",
              "type": "address"
            },
            {
              "internalType": "uint256",
              "name": "price",
              "type": "uint256"
            },
            {
              "internalType": "bool",
              "name": "purchased",
              "type": "bool"
            },
            {
              "internalType": "uint256",
              "name": "royalty",
              "type": "uint256"
            },
            {
              "internalType": "uint256",
              "name": "endTime",
              "type": "uint256"
            },
            {
              "internalType": "bool",
              "name": "sold",
              "type": "bool"
            },
            {
              "internalType": "address",
              "name": "erc20Address",
              "type": "address"
            },
            {
              "internalType": "bool",
              "name": "isVNFT",
              "type": "bool"
            },
            {
              "internalType": "uint256",
              "name": "timeListed",
              "type": "uint256"
            }
          ],
          "internalType": "struct ViridianExchange.Listing[]",
          "name": "",
          "type": "tuple[]"
        }
      ],
      "stateMutability": "view",
      "type": "function",
      "constant": true
    },
    {
      "inputs": [
        {
          "internalType": "uint256",
          "name": "_nftId",
          "type": "uint256"
        }
      ],
      "name": "getNftOwner",
      "outputs": [
        {
          "internalType": "address",
          "name": "",
          "type": "address"
        }
      ],
      "stateMutability": "view",
      "type": "function",
      "constant": true
    },
    {
      "inputs": [
        {
          "internalType": "uint256",
          "name": "_nftId",
          "type": "uint256"
        }
      ],
      "name": "getPackOwner",
      "outputs": [
        {
          "internalType": "address",
          "name": "",
          "type": "address"
        }
      ],
      "stateMutability": "view",
      "type": "function",
      "constant": true
    },
    {
      "inputs": [
        {
          "internalType": "uint256",
          "name": "_nftId",
          "type": "uint256"
        },
        {
          "internalType": "uint256",
          "name": "_price",
          "type": "uint256"
        },
        {
          "internalType": "uint256",
          "name": "_royalty",
          "type": "uint256"
        },
        {
          "internalType": "uint256",
          "name": "_endTime",
          "type": "uint256"
        },
        {
          "internalType": "address",
          "name": "_erc20Address",
          "type": "address"
        },
        {
          "internalType": "bool",
          "name": "_isVNFT",
          "type": "bool"
        }
      ],
      "name": "putUpForSale",
      "outputs": [],
      "stateMutability": "nonpayable",
      "type": "function"
    },
    {
      "inputs": [
        {
          "internalType": "uint256",
          "name": "_listingId",
          "type": "uint256"
        },
        {
          "internalType": "uint256",
          "name": "_newPrice",
          "type": "uint256"
        }
      ],
      "name": "changeSalePrice",
      "outputs": [],
      "stateMutability": "nonpayable",
      "type": "function"
    },
    {
      "inputs": [
        {
          "internalType": "uint256",
          "name": "_listingId",
          "type": "uint256"
        }
      ],
      "name": "pullFromSale",
      "outputs": [],
      "stateMutability": "nonpayable",
      "type": "function"
    },
    {
      "inputs": [
        {
          "internalType": "uint256",
          "name": "_listingId",
          "type": "uint256"
        }
      ],
      "name": "buyNFTWithERC20",
      "outputs": [],
      "stateMutability": "nonpayable",
      "type": "function"
    }
  ],
  "bytecode": "0x60806040526040518060400160405280600581526020017f322e322e30000000000000000000000000000000000000000000000000000000815250600c908051906020019062000051929190620004e0565b503480156200005f57600080fd5b5060405162004c7638038062004c768339818101604052810190620000859190620005fa565b620000a5620000996200036360201b60201c565b6200037f60201b60201c565b600073ffffffffffffffffffffffffffffffffffffffff168373ffffffffffffffffffffffffffffffffffffffff16141562000118576040517f08c379a00000000000000000000000000000000000000000000000000000000081526004016200010f90620006dd565b60405180910390fd5b600073ffffffffffffffffffffffffffffffffffffffff168273ffffffffffffffffffffffffffffffffffffffff1614156200018b576040517f08c379a00000000000000000000000000000000000000000000000000000000081526004016200018290620006dd565b60405180910390fd5b600073ffffffffffffffffffffffffffffffffffffffff168173ffffffffffffffffffffffffffffffffffffffff161415620001fe576040517f08c379a0000000000000000000000000000000000000000000000000000000008152600401620001f590620006dd565b60405180910390fd5b6001600b60008573ffffffffffffffffffffffffffffffffffffffff1673ffffffffffffffffffffffffffffffffffffffff16815260200190815260200160002060006101000a81548160ff02191690831515021790555081600960006101000a81548173ffffffffffffffffffffffffffffffffffffffff021916908373ffffffffffffffffffffffffffffffffffffffff16021790555080600a60006101000a81548173ffffffffffffffffffffffffffffffffffffffff021916908373ffffffffffffffffffffffffffffffffffffffff16021790555081600360006101000a81548173ffffffffffffffffffffffffffffffffffffffff021916908373ffffffffffffffffffffffffffffffffffffffff16021790555080600460006101000a81548173ffffffffffffffffffffffffffffffffffffffff021916908373ffffffffffffffffffffffffffffffffffffffff16021790555050505062000764565b60006200037a6200044560201b620028ae1760201c565b905090565b6000600160009054906101000a900473ffffffffffffffffffffffffffffffffffffffff16905081600160006101000a81548173ffffffffffffffffffffffffffffffffffffffff021916908373ffffffffffffffffffffffffffffffffffffffff1602179055508173ffffffffffffffffffffffffffffffffffffffff168173ffffffffffffffffffffffffffffffffffffffff167f8be0079c531659141344cd1fd0a4f28419497f9722a3daafe3b4186f6b6457e060405160405180910390a35050565b600060146000369050101580156200046a575062000469336200048760201b60201c565b5b156200048057601436033560601c905062000484565b3390505b90565b60008060009054906101000a900473ffffffffffffffffffffffffffffffffffffffff1673ffffffffffffffffffffffffffffffffffffffff168273ffffffffffffffffffffffffffffffffffffffff16149050919050565b828054620004ee906200072e565b90600052602060002090601f0160209004810192826200051257600085556200055e565b82601f106200052d57805160ff19168380011785556200055e565b828001600101855582156200055e579182015b828111156200055d57825182559160200191906001019062000540565b5b5090506200056d919062000571565b5090565b5b808211156200058c57600081600090555060010162000572565b5090565b600080fd5b600073ffffffffffffffffffffffffffffffffffffffff82169050919050565b6000620005c28262000595565b9050919050565b620005d481620005b5565b8114620005e057600080fd5b50565b600081519050620005f481620005c9565b92915050565b60008060006060848603121562000616576200061562000590565b5b60006200062686828701620005e3565b93505060206200063986828701620005e3565b92505060406200064c86828701620005e3565b9150509250925092565b600082825260208201905092915050565b7f546f6b656e2061646472657373206d757374206e6f742062652074686520302060008201527f6164647265737300000000000000000000000000000000000000000000000000602082015250565b6000620006c560278362000656565b9150620006d28262000667565b604082019050919050565b60006020820190508181036000830152620006f881620006b6565b9050919050565b7f4e487b7100000000000000000000000000000000000000000000000000000000600052602260045260246000fd5b600060028204905060018216806200074757607f821691505b602082108114156200075e576200075d620006ff565b5b50919050565b61450280620007746000396000f3fe608060405234801561001057600080fd5b50600436106101375760003560e01c80639a701288116100b8578063c82e474b1161007c578063c82e474b1461033c578063d3e6a7ad14610358578063da74222814610388578063f1b2d6a3146103a4578063f2fde38b146103c2578063fe257afc146103de57610137565b80639a701288146102865780639dfc183a146102a4578063a19b56ac146102c0578063af62c684146102f0578063bddb06f31461032057610137565b8063715018a6116100ff578063715018a6146101f45780637da0a877146101fe5780638ad2d5a71461021c5780638da5cb5b1461024c578063971ccc161461026a57610137565b806312065fe01461013c578063486ff0cd1461015a578063572b6c051461017857806366e3e122146101a85780636d1ea3fa146101c4575b600080fd5b6101446103fc565b60405161015191906135cf565b60405180910390f35b610162610404565b60405161016f9190613683565b60405180910390f35b610192600480360381019061018d9190613717565b610492565b60405161019f919061375f565b60405180910390f35b6101c260048036038101906101bd91906137a6565b6104eb565b005b6101de60048036038101906101d99190613717565b610bea565b6040516101eb919061375f565b60405180910390f35b6101fc610c0a565b005b610206610c92565b60405161021391906137e2565b60405180910390f35b610236600480360381019061023191906137a6565b610cbb565b60405161024391906137e2565b60405180910390f35b610254610d60565b60405161026191906137e2565b60405180910390f35b610284600480360381019061027f9190613717565b610d8a565b005b61028e610e61565b60405161029b91906137e2565b60405180910390f35b6102be60048036038101906102b99190613829565b610e87565b005b6102da60048036038101906102d591906137a6565b6117df565b6040516102e791906139c4565b60405180910390f35b61030a60048036038101906103059190613717565b611946565b6040516103179190613b71565b60405180910390f35b61033a600480360381019061033591906137a6565b611b1e565b005b61035660048036038101906103519190613b93565b6125ec565b005b610372600480360381019061036d91906137a6565b61260b565b60405161037f91906137e2565b60405180910390f35b6103a2600480360381019061039d9190613717565b6126b0565b005b6103ac612738565b6040516103b99190613c82565b60405180910390f35b6103dc60048036038101906103d79190613717565b612790565b005b6103e6612888565b6040516103f391906137e2565b60405180910390f35b600047905090565b600c805461041190613cd3565b80601f016020809104026020016040519081016040528092919081815260200182805461043d90613cd3565b801561048a5780601f1061045f5761010080835404028352916020019161048a565b820191906000526020600020905b81548152906001019060200180831161046d57829003601f168201915b505050505081565b60008060009054906101000a900473ffffffffffffffffffffffffffffffffffffffff1673ffffffffffffffffffffffffffffffffffffffff168273ffffffffffffffffffffffffffffffffffffffff16149050919050565b6000600660008381526020019081526020016000206040518061016001604052908160008201548152602001600182015481526020016002820160009054906101000a900473ffffffffffffffffffffffffffffffffffffffff1673ffffffffffffffffffffffffffffffffffffffff1673ffffffffffffffffffffffffffffffffffffffff168152602001600382015481526020016004820160009054906101000a900460ff1615151515815260200160058201548152602001600682015481526020016007820160009054906101000a900460ff161515151581526020016007820160019054906101000a900473ffffffffffffffffffffffffffffffffffffffff1673ffffffffffffffffffffffffffffffffffffffff1673ffffffffffffffffffffffffffffffffffffffff1681526020016007820160159054906101000a900460ff161515151581526020016008820154815250509050806101200151156108ab57600360009054906101000a900473ffffffffffffffffffffffffffffffffffffffff1673ffffffffffffffffffffffffffffffffffffffff1663ad3a358c82602001516040518263ffffffff1660e01b81526004016106b191906135cf565b600060405180830381600087803b1580156106cb57600080fd5b505af11580156106df573d6000803e3d6000fd5b5050505080610100015173ffffffffffffffffffffffffffffffffffffffff166323b872dd33836040015184606001516040518463ffffffff1660e01b815260040161072d93929190613d05565b6020604051808303816000875af115801561074c573d6000803e3d6000fd5b505050506040513d601f19601f820116820180604052508101906107709190613d51565b50600960009054906101000a900473ffffffffffffffffffffffffffffffffffffffff1673ffffffffffffffffffffffffffffffffffffffff1663095ea7b33383602001516040518363ffffffff1660e01b81526004016107d2929190613d7e565b600060405180830381600087803b1580156107ec57600080fd5b505af1158015610800573d6000803e3d6000fd5b50505050600960009054906101000a900473ffffffffffffffffffffffffffffffffffffffff1673ffffffffffffffffffffffffffffffffffffffff166342842e0e82604001513384602001516040518463ffffffff1660e01b815260040161086b93929190613d05565b600060405180830381600087803b15801561088557600080fd5b505af1158015610899573d6000803e3d6000fd5b505050506108a6826128e5565b610b00565b600460009054906101000a900473ffffffffffffffffffffffffffffffffffffffff1673ffffffffffffffffffffffffffffffffffffffff1663ad3a358c82602001516040518263ffffffff1660e01b815260040161090a91906135cf565b600060405180830381600087803b15801561092457600080fd5b505af1158015610938573d6000803e3d6000fd5b5050505080610100015173ffffffffffffffffffffffffffffffffffffffff166323b872dd33836040015184606001516040518463ffffffff1660e01b815260040161098693929190613d05565b6020604051808303816000875af11580156109a5573d6000803e3d6000fd5b505050506040513d601f19601f820116820180604052508101906109c99190613d51565b50600a60009054906101000a900473ffffffffffffffffffffffffffffffffffffffff1673ffffffffffffffffffffffffffffffffffffffff1663095ea7b33383602001516040518363ffffffff1660e01b8152600401610a2b929190613d7e565b600060405180830381600087803b158015610a4557600080fd5b505af1158015610a59573d6000803e3d6000fd5b50505050600a60009054906101000a900473ffffffffffffffffffffffffffffffffffffffff1673ffffffffffffffffffffffffffffffffffffffff166342842e0e82604001513384602001516040518463ffffffff1660e01b8152600401610ac493929190613d05565b600060405180830381600087803b158015610ade57600080fd5b505af1158015610af2573d6000803e3d6000fd5b50505050610aff826128e5565b5b7f9bca374bf5d43e80e0d2b146bd06c1437a8ce7aba0adf81b1c86799a961354e68160200151600360009054906101000a900473ffffffffffffffffffffffffffffffffffffffff1673ffffffffffffffffffffffffffffffffffffffff1663c87b56dd84602001516040518263ffffffff1660e01b8152600401610b8591906135cf565b600060405180830381865afa158015610ba2573d6000803e3d6000fd5b505050506040513d6000823e3d601f19601f82011682018060405250810190610bcb9190613ecd565b336001604051610bde9493929190613f16565b60405180910390a15050565b600b6020528060005260406000206000915054906101000a900460ff1681565b610c12613134565b73ffffffffffffffffffffffffffffffffffffffff16610c30610d60565b73ffffffffffffffffffffffffffffffffffffffff1614610c86576040517f08c379a0000000000000000000000000000000000000000000000000000000008152600401610c7d90613fae565b60405180910390fd5b610c906000613143565b565b60008060009054906101000a900473ffffffffffffffffffffffffffffffffffffffff16905090565b6000600960009054906101000a900473ffffffffffffffffffffffffffffffffffffffff1673ffffffffffffffffffffffffffffffffffffffff16636352211e836040518263ffffffff1660e01b8152600401610d1891906135cf565b602060405180830381865afa158015610d35573d6000803e3d6000fd5b505050506040513d601f19601f82011682018060405250810190610d599190613fe3565b9050919050565b6000600160009054906101000a900473ffffffffffffffffffffffffffffffffffffffff16905090565b610d92613134565b73ffffffffffffffffffffffffffffffffffffffff16610db0610d60565b73ffffffffffffffffffffffffffffffffffffffff1614610e06576040517f08c379a0000000000000000000000000000000000000000000000000000000008152600401610dfd90613fae565b60405180910390fd5b6001600b60008373ffffffffffffffffffffffffffffffffffffffff1673ffffffffffffffffffffffffffffffffffffffff16815260200190815260200160002060006101000a81548160ff02191690831515021790555050565b600960009054906101000a900473ffffffffffffffffffffffffffffffffffffffff1681565b600b60008373ffffffffffffffffffffffffffffffffffffffff1673ffffffffffffffffffffffffffffffffffffffff16815260200190815260200160002060009054906101000a900460ff16610f13576040517f08c379a0000000000000000000000000000000000000000000000000000000008152600401610f0a90614082565b60405180910390fd5b8015611070573373ffffffffffffffffffffffffffffffffffffffff16610f3987610cbb565b73ffffffffffffffffffffffffffffffffffffffff1614610f8f576040517f08c379a0000000000000000000000000000000000000000000000000000000008152600401610f86906140ee565b60405180910390fd5b600360009054906101000a900473ffffffffffffffffffffffffffffffffffffffff1673ffffffffffffffffffffffffffffffffffffffff1663fcce4883876040518263ffffffff1660e01b8152600401610fea91906135cf565b602060405180830381865afa158015611007573d6000803e3d6000fd5b505050506040513d601f19601f8201168201806040525081019061102b9190613d51565b1561106b576040517f08c379a000000000000000000000000000000000000000000000000000000000815260040161106290614180565b60405180910390fd5b6111c3565b3373ffffffffffffffffffffffffffffffffffffffff166110908761260b565b73ffffffffffffffffffffffffffffffffffffffff16146110e6576040517f08c379a00000000000000000000000000000000000000000000000000000000081526004016110dd906141ec565b60405180910390fd5b600460009054906101000a900473ffffffffffffffffffffffffffffffffffffffff1673ffffffffffffffffffffffffffffffffffffffff1663fcce4883876040518263ffffffff1660e01b815260040161114191906135cf565b602060405180830381865afa15801561115e573d6000803e3d6000fd5b505050506040513d601f19601f820116820180604052508101906111829190613d51565b156111c2576040517f08c379a00000000000000000000000000000000000000000000000000000000081526004016111b99061427e565b60405180910390fd5b5b6111cd6002613209565b60006111d9600261321f565b90506111e3613270565b818160000181815250508781602001818152505033816040019073ffffffffffffffffffffffffffffffffffffffff16908173ffffffffffffffffffffffffffffffffffffffff1681525050868160600181815250506000816080019015159081151581525050858160a0018181525050848160c001818152505060008160e00190151590811515815250508381610100019073ffffffffffffffffffffffffffffffffffffffff16908173ffffffffffffffffffffffffffffffffffffffff168152505082816101200190151590811515815250504281610140018181525050600560003373ffffffffffffffffffffffffffffffffffffffff1673ffffffffffffffffffffffffffffffffffffffff168152602001908152602001600020819080600181540180825580915050600190039060005260206000209060090201600090919091909150600082015181600001556020820151816001015560408201518160020160006101000a81548173ffffffffffffffffffffffffffffffffffffffff021916908373ffffffffffffffffffffffffffffffffffffffff1602179055506060820151816003015560808201518160040160006101000a81548160ff02191690831515021790555060a0820151816005015560c0820151816006015560e08201518160070160006101000a81548160ff0219169083151502179055506101008201518160070160016101000a81548173ffffffffffffffffffffffffffffffffffffffff021916908373ffffffffffffffffffffffffffffffffffffffff1602179055506101208201518160070160156101000a81548160ff021916908315150217905550610140820151816008015550508060066000848152602001908152602001600020600082015181600001556020820151816001015560408201518160020160006101000a81548173ffffffffffffffffffffffffffffffffffffffff021916908373ffffffffffffffffffffffffffffffffffffffff1602179055506060820151816003015560808201518160040160006101000a81548160ff02191690831515021790555060a0820151816005015560c0820151816006015560e08201518160070160006101000a81548160ff0219169083151502179055506101008201518160070160016101000a81548173ffffffffffffffffffffffffffffffffffffffff021916908373ffffffffffffffffffffffffffffffffffffffff1602179055506101208201518160070160156101000a81548160ff0219169083151502179055506101408201518160080155905050600881600001519080600181540180825580915050600190039060005260206000200160009091909190915055821561166557600360009054906101000a900473ffffffffffffffffffffffffffffffffffffffff1673ffffffffffffffffffffffffffffffffffffffff1663e6148d5f896040518263ffffffff1660e01b815260040161162e91906135cf565b600060405180830381600087803b15801561164857600080fd5b505af115801561165c573d6000803e3d6000fd5b505050506116f3565b600460009054906101000a900473ffffffffffffffffffffffffffffffffffffffff1673ffffffffffffffffffffffffffffffffffffffff1663e6148d5f896040518263ffffffff1660e01b81526004016116c091906135cf565b600060405180830381600087803b1580156116da57600080fd5b505af11580156116ee573d6000803e3d6000fd5b505050505b7ff4fed5a4ea597a866c3bf2adb1d0e0334a9980d031fce4b5e174edb01d2fab9288600360009054906101000a900473ffffffffffffffffffffffffffffffffffffffff1673ffffffffffffffffffffffffffffffffffffffff1663c87b56dd8b6040518263ffffffff1660e01b815260040161177091906135cf565b600060405180830381865afa15801561178d573d6000803e3d6000fd5b505050506040513d6000823e3d601f19601f820116820180604052508101906117b69190613ecd565b836040015160016040516117cd9493929190613f16565b60405180910390a15050505050505050565b6117e7613270565b600660008381526020019081526020016000206040518061016001604052908160008201548152602001600182015481526020016002820160009054906101000a900473ffffffffffffffffffffffffffffffffffffffff1673ffffffffffffffffffffffffffffffffffffffff1673ffffffffffffffffffffffffffffffffffffffff168152602001600382015481526020016004820160009054906101000a900460ff1615151515815260200160058201548152602001600682015481526020016007820160009054906101000a900460ff161515151581526020016007820160019054906101000a900473ffffffffffffffffffffffffffffffffffffffff1673ffffffffffffffffffffffffffffffffffffffff1673ffffffffffffffffffffffffffffffffffffffff1681526020016007820160159054906101000a900460ff161515151581526020016008820154815250509050919050565b6060600560008373ffffffffffffffffffffffffffffffffffffffff1673ffffffffffffffffffffffffffffffffffffffff168152602001908152602001600020805480602002602001604051908101604052809291908181526020016000905b82821015611b1357838290600052602060002090600902016040518061016001604052908160008201548152602001600182015481526020016002820160009054906101000a900473ffffffffffffffffffffffffffffffffffffffff1673ffffffffffffffffffffffffffffffffffffffff1673ffffffffffffffffffffffffffffffffffffffff168152602001600382015481526020016004820160009054906101000a900460ff1615151515815260200160058201548152602001600682015481526020016007820160009054906101000a900460ff161515151581526020016007820160019054906101000a900473ffffffffffffffffffffffffffffffffffffffff1673ffffffffffffffffffffffffffffffffffffffff1673ffffffffffffffffffffffffffffffffffffffff1681526020016007820160159054906101000a900460ff16151515158152602001600882015481525050815260200190600101906119a7565b505050509050919050565b6000600660008381526020019081526020016000206040518061016001604052908160008201548152602001600182015481526020016002820160009054906101000a900473ffffffffffffffffffffffffffffffffffffffff1673ffffffffffffffffffffffffffffffffffffffff1673ffffffffffffffffffffffffffffffffffffffff168152602001600382015481526020016004820160009054906101000a900460ff1615151515815260200160058201548152602001600682015481526020016007820160009054906101000a900460ff161515151581526020016007820160019054906101000a900473ffffffffffffffffffffffffffffffffffffffff1673ffffffffffffffffffffffffffffffffffffffff1673ffffffffffffffffffffffffffffffffffffffff1681526020016007820160159054906101000a900460ff1615151515815260200160088201548152505090503373ffffffffffffffffffffffffffffffffffffffff16816040015173ffffffffffffffffffffffffffffffffffffffff1614611cec576040517f08c379a0000000000000000000000000000000000000000000000000000000008152600401611ce390614310565b60405180910390fd5b80610120015115611d8d57600360009054906101000a900473ffffffffffffffffffffffffffffffffffffffff1673ffffffffffffffffffffffffffffffffffffffff1663ad3a358c82602001516040518263ffffffff1660e01b8152600401611d5691906135cf565b600060405180830381600087803b158015611d7057600080fd5b505af1158015611d84573d6000803e3d6000fd5b50505050611e1f565b600460009054906101000a900473ffffffffffffffffffffffffffffffffffffffff1673ffffffffffffffffffffffffffffffffffffffff1663ad3a358c82602001516040518263ffffffff1660e01b8152600401611dec91906135cf565b600060405180830381600087803b158015611e0657600080fd5b505af1158015611e1a573d6000803e3d6000fd5b505050505b6000600560003373ffffffffffffffffffffffffffffffffffffffff1673ffffffffffffffffffffffffffffffffffffffff168152602001908152602001600020905060005b818054905081101561235c576000828281548110611e8657611e85614330565b5b90600052602060002090600902016040518061016001604052908160008201548152602001600182015481526020016002820160009054906101000a900473ffffffffffffffffffffffffffffffffffffffff1673ffffffffffffffffffffffffffffffffffffffff1673ffffffffffffffffffffffffffffffffffffffff168152602001600382015481526020016004820160009054906101000a900460ff1615151515815260200160058201548152602001600682015481526020016007820160009054906101000a900460ff161515151581526020016007820160019054906101000a900473ffffffffffffffffffffffffffffffffffffffff1673ffffffffffffffffffffffffffffffffffffffff1673ffffffffffffffffffffffffffffffffffffffff1681526020016007820160159054906101000a900460ff161515151581526020016008820154815250509050836000015181600001511415612348578260018480549050611ffd919061438e565b8154811061200e5761200d614330565b5b906000526020600020906009020183838154811061202f5761202e614330565b5b906000526020600020906009020160008201548160000155600182015481600101556002820160009054906101000a900473ffffffffffffffffffffffffffffffffffffffff168160020160006101000a81548173ffffffffffffffffffffffffffffffffffffffff021916908373ffffffffffffffffffffffffffffffffffffffff160217905550600382015481600301556004820160009054906101000a900460ff168160040160006101000a81548160ff02191690831515021790555060058201548160050155600682015481600601556007820160009054906101000a900460ff168160070160006101000a81548160ff0219169083151502179055506007820160019054906101000a900473ffffffffffffffffffffffffffffffffffffffff168160070160016101000a81548173ffffffffffffffffffffffffffffffffffffffff021916908373ffffffffffffffffffffffffffffffffffffffff1602179055506007820160159054906101000a900460ff168160070160156101000a81548160ff0219169083151502179055506008820154816008015590505082600560003373ffffffffffffffffffffffffffffffffffffffff1673ffffffffffffffffffffffffffffffffffffffff16815260200190815260200160002090805461221f9291906132fc565b50600560003373ffffffffffffffffffffffffffffffffffffffff1673ffffffffffffffffffffffffffffffffffffffff16815260200190815260200160002080548061226f5761226e6143c2565b5b600190038181906000526020600020906009020160008082016000905560018201600090556002820160006101000a81549073ffffffffffffffffffffffffffffffffffffffff021916905560038201600090556004820160006101000a81549060ff0219169055600582016000905560068201600090556007820160006101000a81549060ff02191690556007820160016101000a81549073ffffffffffffffffffffffffffffffffffffffff02191690556007820160156101000a81549060ff02191690556008820160009055505090555061235c565b508080612354906143f1565b915050611e65565b5060005b6008805490508110156124305760006008828154811061238357612382614330565b5b90600052602060002001549050836000015181141561241c57600860016008805490506123b0919061438e565b815481106123c1576123c0614330565b5b9060005260206000200154600883815481106123e0576123df614330565b5b90600052602060002001819055506008805480612400576123ff6143c2565b5b6001900381819060005260206000200160009055905550612430565b508080612428906143f1565b915050612360565b506006600084815260200190815260200160002060008082016000905560018201600090556002820160006101000a81549073ffffffffffffffffffffffffffffffffffffffff021916905560038201600090556004820160006101000a81549060ff0219169055600582016000905560068201600090556007820160006101000a81549060ff02191690556007820160016101000a81549073ffffffffffffffffffffffffffffffffffffffff02191690556007820160156101000a81549060ff0219169055600882016000905550507fd1542b8a62548de416836f4b86ab871dfb6a539e1c8290295e1e870e3f5b0fce8260200151600360009054906101000a900473ffffffffffffffffffffffffffffffffffffffff1673ffffffffffffffffffffffffffffffffffffffff1663c87b56dd85602001516040518263ffffffff1660e01b815260040161258691906135cf565b600060405180830381865afa1580156125a3573d6000803e3d6000fd5b505050506040513d6000823e3d601f19601f820116820180604052508101906125cc9190613ecd565b3360006040516125df9493929190613f16565b60405180910390a1505050565b8060066000848152602001908152602001600020600301819055505050565b6000600a60009054906101000a900473ffffffffffffffffffffffffffffffffffffffff1673ffffffffffffffffffffffffffffffffffffffff16636352211e836040518263ffffffff1660e01b815260040161266891906135cf565b602060405180830381865afa158015612685573d6000803e3d6000fd5b505050506040513d601f19601f820116820180604052508101906126a99190613fe3565b9050919050565b6126b8613134565b73ffffffffffffffffffffffffffffffffffffffff166126d6610d60565b73ffffffffffffffffffffffffffffffffffffffff161461272c576040517f08c379a000000000000000000000000000000000000000000000000000000000815260040161272390613fae565b60405180910390fd5b6127358161322d565b50565b6060600880548060200260200160405190810160405280929190818152602001828054801561278657602002820191906000526020600020905b815481526020019060010190808311612772575b5050505050905090565b612798613134565b73ffffffffffffffffffffffffffffffffffffffff166127b6610d60565b73ffffffffffffffffffffffffffffffffffffffff161461280c576040517f08c379a000000000000000000000000000000000000000000000000000000000815260040161280390613fae565b60405180910390fd5b600073ffffffffffffffffffffffffffffffffffffffff168173ffffffffffffffffffffffffffffffffffffffff16141561287c576040517f08c379a0000000000000000000000000000000000000000000000000000000008152600401612873906144ac565b60405180910390fd5b61288581613143565b50565b600a60009054906101000a900473ffffffffffffffffffffffffffffffffffffffff1681565b600060146000369050101580156128ca57506128c933610492565b5b156128de57601436033560601c90506128e2565b3390505b90565b6000600660008381526020019081526020016000206040518061016001604052908160008201548152602001600182015481526020016002820160009054906101000a900473ffffffffffffffffffffffffffffffffffffffff1673ffffffffffffffffffffffffffffffffffffffff1673ffffffffffffffffffffffffffffffffffffffff168152602001600382015481526020016004820160009054906101000a900460ff1615151515815260200160058201548152602001600682015481526020016007820160009054906101000a900460ff161515151581526020016007820160019054906101000a900473ffffffffffffffffffffffffffffffffffffffff1673ffffffffffffffffffffffffffffffffffffffff1673ffffffffffffffffffffffffffffffffffffffff1681526020016007820160159054906101000a900460ff161515151581526020016008820154815250509050600060056000836040015173ffffffffffffffffffffffffffffffffffffffff1673ffffffffffffffffffffffffffffffffffffffff168152602001908152602001600020905060005b8180549050811015612f8a576000828281548110612aac57612aab614330565b5b90600052602060002090600902016040518061016001604052908160008201548152602001600182015481526020016002820160009054906101000a900473ffffffffffffffffffffffffffffffffffffffff1673ffffffffffffffffffffffffffffffffffffffff1673ffffffffffffffffffffffffffffffffffffffff168152602001600382015481526020016004820160009054906101000a900460ff1615151515815260200160058201548152602001600682015481526020016007820160009054906101000a900460ff161515151581526020016007820160019054906101000a900473ffffffffffffffffffffffffffffffffffffffff1673ffffffffffffffffffffffffffffffffffffffff1673ffffffffffffffffffffffffffffffffffffffff1681526020016007820160159054906101000a900460ff161515151581526020016008820154815250509050836000015181600001511415612f76578260018480549050612c23919061438e565b81548110612c3457612c33614330565b5b9060005260206000209060090201838381548110612c5557612c54614330565b5b906000526020600020906009020160008201548160000155600182015481600101556002820160009054906101000a900473ffffffffffffffffffffffffffffffffffffffff168160020160006101000a81548173ffffffffffffffffffffffffffffffffffffffff021916908373ffffffffffffffffffffffffffffffffffffffff160217905550600382015481600301556004820160009054906101000a900460ff168160040160006101000a81548160ff02191690831515021790555060058201548160050155600682015481600601556007820160009054906101000a900460ff168160070160006101000a81548160ff0219169083151502179055506007820160019054906101000a900473ffffffffffffffffffffffffffffffffffffffff168160070160016101000a81548173ffffffffffffffffffffffffffffffffffffffff021916908373ffffffffffffffffffffffffffffffffffffffff1602179055506007820160159054906101000a900460ff168160070160156101000a81548160ff021916908315150217905550600882015481600801559050508260056000866040015173ffffffffffffffffffffffffffffffffffffffff1673ffffffffffffffffffffffffffffffffffffffff168152602001908152602001600020908054612e499291906132fc565b5060056000856040015173ffffffffffffffffffffffffffffffffffffffff1673ffffffffffffffffffffffffffffffffffffffff168152602001908152602001600020805480612e9d57612e9c6143c2565b5b600190038181906000526020600020906009020160008082016000905560018201600090556002820160006101000a81549073ffffffffffffffffffffffffffffffffffffffff021916905560038201600090556004820160006101000a81549060ff0219169055600582016000905560068201600090556007820160006101000a81549060ff02191690556007820160016101000a81549073ffffffffffffffffffffffffffffffffffffffff02191690556007820160156101000a81549060ff021916905560088201600090555050905550612f8a565b508080612f82906143f1565b915050612a8b565b5060005b60088054905081101561305e57600060088281548110612fb157612fb0614330565b5b90600052602060002001549050836000015181141561304a5760086001600880549050612fde919061438e565b81548110612fef57612fee614330565b5b90600052602060002001546008838154811061300e5761300d614330565b5b9060005260206000200181905550600880548061302e5761302d6143c2565b5b600190038181906000526020600020016000905590555061305e565b508080613056906143f1565b915050612f8e565b506006600084815260200190815260200160002060008082016000905560018201600090556002820160006101000a81549073ffffffffffffffffffffffffffffffffffffffff021916905560038201600090556004820160006101000a81549060ff0219169055600582016000905560068201600090556007820160006101000a81549060ff02191690556007820160016101000a81549073ffffffffffffffffffffffffffffffffffffffff02191690556007820160156101000a81549060ff021916905560088201600090555050505050565b600061313e6128ae565b905090565b6000600160009054906101000a900473ffffffffffffffffffffffffffffffffffffffff16905081600160006101000a81548173ffffffffffffffffffffffffffffffffffffffff021916908373ffffffffffffffffffffffffffffffffffffffff1602179055508173ffffffffffffffffffffffffffffffffffffffff168173ffffffffffffffffffffffffffffffffffffffff167f8be0079c531659141344cd1fd0a4f28419497f9722a3daafe3b4186f6b6457e060405160405180910390a35050565b6001816000016000828254019250508190555050565b600081600001549050919050565b806000806101000a81548173ffffffffffffffffffffffffffffffffffffffff021916908373ffffffffffffffffffffffffffffffffffffffff16021790555050565b6040518061016001604052806000815260200160008152602001600073ffffffffffffffffffffffffffffffffffffffff168152602001600081526020016000151581526020016000815260200160008152602001600015158152602001600073ffffffffffffffffffffffffffffffffffffffff168152602001600015158152602001600081525090565b8280548282559060005260206000209060090281019282156134d45760005260206000209160090282015b828111156134d357828260008201548160000155600182015481600101556002820160009054906101000a900473ffffffffffffffffffffffffffffffffffffffff168160020160006101000a81548173ffffffffffffffffffffffffffffffffffffffff021916908373ffffffffffffffffffffffffffffffffffffffff160217905550600382015481600301556004820160009054906101000a900460ff168160040160006101000a81548160ff02191690831515021790555060058201548160050155600682015481600601556007820160009054906101000a900460ff168160070160006101000a81548160ff0219169083151502179055506007820160019054906101000a900473ffffffffffffffffffffffffffffffffffffffff168160070160016101000a81548173ffffffffffffffffffffffffffffffffffffffff021916908373ffffffffffffffffffffffffffffffffffffffff1602179055506007820160159054906101000a900460ff168160070160156101000a81548160ff02191690831515021790555060088201548160080155505091600901919060090190613327565b5b5090506134e191906134e5565b5090565b5b808211156135b25760008082016000905560018201600090556002820160006101000a81549073ffffffffffffffffffffffffffffffffffffffff021916905560038201600090556004820160006101000a81549060ff0219169055600582016000905560068201600090556007820160006101000a81549060ff02191690556007820160016101000a81549073ffffffffffffffffffffffffffffffffffffffff02191690556007820160156101000a81549060ff02191690556008820160009055506009016134e6565b5090565b6000819050919050565b6135c9816135b6565b82525050565b60006020820190506135e460008301846135c0565b92915050565b600081519050919050565b600082825260208201905092915050565b60005b83811015613624578082015181840152602081019050613609565b83811115613633576000848401525b50505050565b6000601f19601f8301169050919050565b6000613655826135ea565b61365f81856135f5565b935061366f818560208601613606565b61367881613639565b840191505092915050565b6000602082019050818103600083015261369d818461364a565b905092915050565b6000604051905090565b600080fd5b600080fd5b600073ffffffffffffffffffffffffffffffffffffffff82169050919050565b60006136e4826136b9565b9050919050565b6136f4816136d9565b81146136ff57600080fd5b50565b600081359050613711816136eb565b92915050565b60006020828403121561372d5761372c6136af565b5b600061373b84828501613702565b91505092915050565b60008115159050919050565b61375981613744565b82525050565b60006020820190506137746000830184613750565b92915050565b613783816135b6565b811461378e57600080fd5b50565b6000813590506137a08161377a565b92915050565b6000602082840312156137bc576137bb6136af565b5b60006137ca84828501613791565b91505092915050565b6137dc816136d9565b82525050565b60006020820190506137f760008301846137d3565b92915050565b61380681613744565b811461381157600080fd5b50565b600081359050613823816137fd565b92915050565b60008060008060008060c08789031215613846576138456136af565b5b600061385489828a01613791565b965050602061386589828a01613791565b955050604061387689828a01613791565b945050606061388789828a01613791565b935050608061389889828a01613702565b92505060a06138a989828a01613814565b9150509295509295509295565b6138bf816135b6565b82525050565b6138ce816136d9565b82525050565b6138dd81613744565b82525050565b610160820160008201516138fa60008501826138b6565b50602082015161390d60208501826138b6565b50604082015161392060408501826138c5565b50606082015161393360608501826138b6565b50608082015161394660808501826138d4565b5060a082015161395960a08501826138b6565b5060c082015161396c60c08501826138b6565b5060e082015161397f60e08501826138d4565b506101008201516139946101008501826138c5565b506101208201516139a96101208501826138d4565b506101408201516139be6101408501826138b6565b50505050565b6000610160820190506139da60008301846138e3565b92915050565b600081519050919050565b600082825260208201905092915050565b6000819050602082019050919050565b61016082016000820151613a2360008501826138b6565b506020820151613a3660208501826138b6565b506040820151613a4960408501826138c5565b506060820151613a5c60608501826138b6565b506080820151613a6f60808501826138d4565b5060a0820151613a8260a08501826138b6565b5060c0820151613a9560c08501826138b6565b5060e0820151613aa860e08501826138d4565b50610100820151613abd6101008501826138c5565b50610120820151613ad26101208501826138d4565b50610140820151613ae76101408501826138b6565b50505050565b6000613af98383613a0c565b6101608301905092915050565b6000602082019050919050565b6000613b1e826139e0565b613b2881856139eb565b9350613b33836139fc565b8060005b83811015613b64578151613b4b8882613aed565b9750613b5683613b06565b925050600181019050613b37565b5085935050505092915050565b60006020820190508181036000830152613b8b8184613b13565b905092915050565b60008060408385031215613baa57613ba96136af565b5b6000613bb885828601613791565b9250506020613bc985828601613791565b9150509250929050565b600081519050919050565b600082825260208201905092915050565b6000819050602082019050919050565b6000613c0b83836138b6565b60208301905092915050565b6000602082019050919050565b6000613c2f82613bd3565b613c398185613bde565b9350613c4483613bef565b8060005b83811015613c75578151613c5c8882613bff565b9750613c6783613c17565b925050600181019050613c48565b5085935050505092915050565b60006020820190508181036000830152613c9c8184613c24565b905092915050565b7f4e487b7100000000000000000000000000000000000000000000000000000000600052602260045260246000fd5b60006002820490506001821680613ceb57607f821691505b60208210811415613cff57613cfe613ca4565b5b50919050565b6000606082019050613d1a60008301866137d3565b613d2760208301856137d3565b613d3460408301846135c0565b949350505050565b600081519050613d4b816137fd565b92915050565b600060208284031215613d6757613d666136af565b5b6000613d7584828501613d3c565b91505092915050565b6000604082019050613d9360008301856137d3565b613da060208301846135c0565b9392505050565b600080fd5b600080fd5b7f4e487b7100000000000000000000000000000000000000000000000000000000600052604160045260246000fd5b613de982613639565b810181811067ffffffffffffffff82111715613e0857613e07613db1565b5b80604052505050565b6000613e1b6136a5565b9050613e278282613de0565b919050565b600067ffffffffffffffff821115613e4757613e46613db1565b5b613e5082613639565b9050602081019050919050565b6000613e70613e6b84613e2c565b613e11565b905082815260208101848484011115613e8c57613e8b613dac565b5b613e97848285613606565b509392505050565b600082601f830112613eb457613eb3613da7565b5b8151613ec4848260208601613e5d565b91505092915050565b600060208284031215613ee357613ee26136af565b5b600082015167ffffffffffffffff811115613f0157613f006136b4565b5b613f0d84828501613e9f565b91505092915050565b6000608082019050613f2b60008301876135c0565b8181036020830152613f3d818661364a565b9050613f4c60408301856137d3565b613f596060830184613750565b95945050505050565b7f4f776e61626c653a2063616c6c6572206973206e6f7420746865206f776e6572600082015250565b6000613f986020836135f5565b9150613fa382613f62565b602082019050919050565b60006020820190508181036000830152613fc781613f8b565b9050919050565b600081519050613fdd816136eb565b92915050565b600060208284031215613ff957613ff86136af565b5b600061400784828501613fce565b91505092915050565b7f4d757374206265206c697374656420707269636520696e20617070726f76656460008201527f20746f6b656e0000000000000000000000000000000000000000000000000000602082015250565b600061406c6026836135f5565b915061407782614010565b604082019050919050565b6000602082019050818103600083015261409b8161405f565b9050919050565b7f4d757374206265206f776e657220746f206c69737420766e6674000000000000600082015250565b60006140d8601a836135f5565b91506140e3826140a2565b602082019050919050565b60006020820190508181036000830152614107816140cb565b9050919050565b7f43616e6e6f7420637265617465206d756c7469706c65206c697374696e67732060008201527f666f72206f6e65206e6674000000000000000000000000000000000000000000602082015250565b600061416a602b836135f5565b91506141758261410e565b604082019050919050565b600060208201905081810360008301526141998161415d565b9050919050565b7f4d757374206265206f776e657220746f206c697374207061636b000000000000600082015250565b60006141d6601a836135f5565b91506141e1826141a0565b602082019050919050565b60006020820190508181036000830152614205816141c9565b9050919050565b7f43616e6e6f7420637265617465206d756c7469706c65206c697374696e67732060008201527f666f72206f6e65207061636b0000000000000000000000000000000000000000602082015250565b6000614268602c836135f5565b91506142738261420c565b604082019050919050565b600060208201905081810360008301526142978161425b565b9050919050565b7f4d75737420626520746865206f776e657220746f2070756c6c2066726f6d207360008201527f616c650000000000000000000000000000000000000000000000000000000000602082015250565b60006142fa6023836135f5565b91506143058261429e565b604082019050919050565b60006020820190508181036000830152614329816142ed565b9050919050565b7f4e487b7100000000000000000000000000000000000000000000000000000000600052603260045260246000fd5b7f4e487b7100000000000000000000000000000000000000000000000000000000600052601160045260246000fd5b6000614399826135b6565b91506143a4836135b6565b9250828210156143b7576143b661435f565b5b828203905092915050565b7f4e487b7100000000000000000000000000000000000000000000000000000000600052603160045260246000fd5b60006143fc826135b6565b91507fffffffffffffffffffffffffffffffffffffffffffffffffffffffffffffffff82141561442f5761442e61435f565b5b600182019050919050565b7f4f776e61626c653a206e6577206f776e657220697320746865207a65726f206160008201527f6464726573730000000000000000000000000000000000000000000000000000602082015250565b60006144966026836135f5565b91506144a18261443a565b604082019050919050565b600060208201905081810360008301526144c581614489565b905091905056fea264697066735822122053f82b3dfe380316b0ce6718ece15395da55fd8e4d81dff695d2c5d74684d13164736f6c634300080b0033",
  "immutableReferences": {},
  "source": "pragma solidity ^0.8.0;\n\nimport \"@openzeppelin/contracts/access/Ownable.sol\";\nimport \"@openzeppelin/contracts/token/ERC721/ERC721.sol\";\nimport \"@openzeppelin/contracts/token/ERC20/IERC20.sol\";\nimport \"@openzeppelin/contracts/token/ERC20/ERC20.sol\";\nimport \"@openzeppelin/contracts/token/ERC721/IERC721.sol\";\nimport \"@opengsn/contracts/src/BaseRelayRecipient.sol\";\n\nimport \"./ViridianNFT.sol\";\nimport \"./ViridianPack.sol\";\n\ncontract ViridianExchange is BaseRelayRecipient, Ownable {\n\n    event ItemListed(uint256 tokenId, string uri, address wallet, bool listed);\n    event ItemUnlisted(uint256 tokenId, string uri, address wallet, bool listed);\n    event PurchasedListing(uint256 tokenId, string uri, address wallet, bool purchased);\n\n    using Counters for Counters.Counter;\n    Counters.Counter private _listingIds;\n\n    ViridianNFT vNFT;\n    ViridianPack vPack;\n    \n    struct Listing {\n        uint256 listingId;\n        uint256 tokenId;\n        address owner;\n        uint256 price;\n        bool purchased;\n        uint256 royalty;\n        uint256 endTime;\n        bool sold;\n        address erc20Address;\n        bool isVNFT;\n        uint256 timeListed;\n    }\n\n    mapping (address => Listing[]) userListings;\n    mapping (uint256 => Listing) listings;\n    address[] private userAddresses;\n    uint256[] private listingIds;\n\n    address public viridianNFT;\n    address public viridianPack;\n    mapping (address => bool) public approvedTokens;\n\n    constructor(address _erc20Token, address _viridianNFT, address _viridianPack) {//, address _forwarder) {\n        require(address(_erc20Token) != address(0), \"Token address must not be the 0 address\");\n        require(address(_viridianNFT) != address(0), \"Token address must not be the 0 address\");\n        require(address(_viridianPack) != address(0), \"Token address must not be the 0 address\");\n\n        //_setTrustedForwarder(_forwarder);\n\n        approvedTokens[_erc20Token] = true;\n        viridianNFT = _viridianNFT;\n        viridianPack = _viridianPack;\n\n        vNFT = ViridianNFT(_viridianNFT);\n        vPack = ViridianPack(_viridianPack);\n    }\n\n    string public override versionRecipient = \"2.2.0\";\n\n    function setTrustedForwarder(address _forwarder) public onlyOwner() {\n        _setTrustedForwarder(_forwarder);\n    }\n\n\n    function _msgSender() internal view override(Context, BaseRelayRecipient) returns (address sender) {\n        sender = BaseRelayRecipient._msgSender();\n    }\n\n    function _msgData() internal view override(Context, BaseRelayRecipient) returns (bytes memory) {\n        return BaseRelayRecipient._msgData();\n    }\n\n    function addERC20Token(address _erc20Address) public onlyOwner() {\n        approvedTokens[_erc20Address] = true;\n    }\n\n    function getBalance() public view returns (uint) {\n        return address(this).balance;\n    }\n\n    function getListings() public view returns (uint256[] memory) {\n        return listingIds;\n    }\n\n    function getListingFromId(uint256 _listingId) public view returns (Listing memory) {\n        return listings[_listingId];\n    }\n\n    function getListingsFromUser(address _userAddr) public view returns (Listing[] memory) {\n        return userListings[_userAddr];\n    }\n\n    function getNftOwner(uint256 _nftId) public view returns (address) {\n        return IERC721(viridianNFT).ownerOf(_nftId);\n    }\n\n    function getPackOwner(uint256 _nftId) public view returns (address) {\n        return IERC721(viridianPack).ownerOf(_nftId);\n    }\n\n    function putUpForSale(uint256 _nftId, uint256 _price, uint256 _royalty, uint256 _endTime, address _erc20Address, bool _isVNFT) public {\n        require(approvedTokens[_erc20Address], \"Must be listed price in approved token\");\n        if (_isVNFT) {\n            require(getNftOwner(_nftId) == msg.sender, \"Must be owner to list vnft\");\n            require(!vNFT.isListed(_nftId), \"Cannot create multiple listings for one nft\");\n        }\n        else {\n            require(getPackOwner(_nftId) == msg.sender, \"Must be owner to list pack\");\n            require(!vPack.isListed(_nftId), \"Cannot create multiple listings for one pack\");\n        }\n        \n        //TODO: Maybe put this back\n        // if(!IERC721(viridianNFT).isApprovedForAll(msg.sender, address(this))) {\n        //     IERC721(viridianNFT).setApprovalForAll(address(this), true);\n        // }\n\n        // if(!IERC721(viridianPack).isApprovedForAll(msg.sender, address(this))) {\n        //     IERC721(viridianPack).setApprovalForAll(address(this), true);\n        // }\n\n        _listingIds.increment();\n        uint256 _listingId = _listingIds.current();\n        Listing memory saleListing;\n        saleListing.listingId = _listingId;\n        saleListing.tokenId = _nftId;\n        saleListing.owner = msg.sender;\n        saleListing.price = _price;\n        saleListing.purchased = false;\n        saleListing.royalty = _royalty;\n        saleListing.endTime = _endTime;\n        saleListing.sold = false;\n        saleListing.erc20Address = _erc20Address;\n        saleListing.isVNFT = _isVNFT;\n        saleListing.timeListed = block.timestamp;\n\n\n        userListings[msg.sender].push(saleListing);\n        listings[_listingId] = saleListing;\n        listingIds.push(saleListing.listingId);\n\n        if (_isVNFT) {\n            vNFT.listToken(_nftId);\n        }\n        else {\n            vPack.listToken(_nftId);\n        }\n\n        //ERC20(viridianToken).approve(address(this), _price);\n\n        //IERC721(viridianNFT).approve(address(this), _nftId);\n        //IERC721(viridianNFT).safeTransferFrom(msg.sender, address(this), _nftId);\n\n        emit ItemListed(_nftId, vNFT.tokenURI(_nftId), saleListing.owner, true);\n    }\n\n    function changeSalePrice(uint256 _listingId, uint256 _newPrice) public {\n        listings[_listingId].price = _newPrice;\n    }\n    \n    function pullFromSale(uint256 _listingId) public {\n        Listing memory curListing = listings[_listingId];\n        require(curListing.owner == msg.sender, \"Must be the owner to pull from sale\");\n        //IERC721(viridianNFT).safeTransferFrom(address(this), msg.sender, curListing.tokenId);\n        if(curListing.isVNFT) {\n            vNFT.unlistToken(curListing.tokenId);\n        }\n        else {\n            vPack.unlistToken(curListing.tokenId);\n        }\n\n        Listing[] storage curUserListings = userListings[msg.sender];\n        for (uint i = 0; i < curUserListings.length; i++) {\n            Listing memory listing = curUserListings[i];\n            if (listing.listingId == curListing.listingId) {\n                curUserListings[i] = curUserListings[curUserListings.length - 1];\n                userListings[msg.sender] = curUserListings;\n                userListings[msg.sender].pop();\n                break;\n            }\n        }\n\n        for (uint256 i = 0; i < listingIds.length; i++) {\n            uint256 listingId = listingIds[i];\n            if (listingId == curListing.listingId) {\n                listingIds[i] = listingIds[listingIds.length - 1];\n                listingIds.pop();\n                break;\n            }\n        }\n\n        delete listings[_listingId];\n\n        emit ItemUnlisted(curListing.tokenId, vNFT.tokenURI(curListing.tokenId), msg.sender, false);\n    }\n\n    function pullFromSaleOnBuy(uint256 _listingId) private {\n        Listing memory curListing = listings[_listingId];\n        //IERC721(viridianNFT).safeTransferFrom(address(this), msg.sender, curListing.tokenId);\n        Listing[] storage curUserListings = userListings[curListing.owner];\n        for (uint i = 0; i < curUserListings.length; i++) {\n            Listing memory listing = curUserListings[i];\n            if (listing.listingId == curListing.listingId) {\n                curUserListings[i] = curUserListings[curUserListings.length - 1];\n                userListings[curListing.owner] = curUserListings;\n                userListings[curListing.owner].pop();\n                break;\n            }\n        }\n\n        for (uint256 i = 0; i < listingIds.length; i++) {\n            uint256 listingId = listingIds[i];\n            if (listingId == curListing.listingId) {\n                listingIds[i] = listingIds[listingIds.length - 1];\n                listingIds.pop();\n                break;\n            }\n        }\n\n        delete listings[_listingId];\n    }\n\n    function buyNFTWithERC20(uint256 _listingId) public {\n        Listing memory curListing = listings[_listingId];\n\n        if(curListing.isVNFT) {\n            vNFT.unlistToken(curListing.tokenId);\n\n            IERC20(curListing.erc20Address).transferFrom(msg.sender, curListing.owner, curListing.price);\n\n            IERC721(viridianNFT).approve(msg.sender, curListing.tokenId);\n            IERC721(viridianNFT).safeTransferFrom(curListing.owner, msg.sender, curListing.tokenId);\n            pullFromSaleOnBuy(_listingId);\n        }\n        else {\n            vPack.unlistToken(curListing.tokenId);\n\n            IERC20(curListing.erc20Address).transferFrom(msg.sender, curListing.owner, curListing.price);\n\n            IERC721(viridianPack).approve(msg.sender, curListing.tokenId);\n            IERC721(viridianPack).safeTransferFrom(curListing.owner, msg.sender, curListing.tokenId);\n            pullFromSaleOnBuy(_listingId);\n        }\n        emit PurchasedListing(curListing.tokenId, vNFT.tokenURI(curListing.tokenId), msg.sender, true);\n    }\n}",
  "sourcePath": "/Users/blakehatch/Viridian-Exchange-Contracts/contracts/ViridianExchange.sol",
  "compiler": {
    "name": "solc",
    "version": "0.8.11+commit.d7f03943.Emscripten.clang"
  },
  "schemaVersion": "3.4.1",
  "updatedAt": "2021-12-28T17:51:30.619Z",
  "networkType": "ethereum",
  "devdoc": {
    "kind": "dev",
    "methods": {
      "owner()": {
        "details": "Returns the address of the current owner."
      },
      "renounceOwnership()": {
        "details": "Leaves the contract without owner. It will not be possible to call `onlyOwner` functions anymore. Can only be called by the current owner. NOTE: Renouncing ownership will leave the contract without an owner, thereby removing any functionality that is only available to the owner."
      },
      "transferOwnership(address)": {
        "details": "Transfers ownership of the contract to a new account (`newOwner`). Can only be called by the current owner."
      }
    },
    "version": 1
  },
  "userdoc": {
    "kind": "user",
    "methods": {
      "isTrustedForwarder(address)": {
        "notice": "return if the forwarder is trusted to forward relayed transactions to us. the forwarder is required to verify the sender's signature, and verify the call is not a replay."
      }
    },
    "version": 1
  }
}