{
  "contractName": "ViridianExchange",
  "abi": [
    {
      "inputs": [
        {
          "internalType": "address",
          "name": "_viridianToken",
          "type": "address"
        },
        {
          "internalType": "address",
          "name": "_viridianNFT",
          "type": "address"
        },
        {
          "internalType": "address",
          "name": "_viridianPack",
          "type": "address"
        }
      ],
      "stateMutability": "nonpayable",
      "type": "constructor"
    },
    {
      "anonymous": false,
      "inputs": [
        {
          "indexed": true,
          "internalType": "address",
          "name": "previousOwner",
          "type": "address"
        },
        {
          "indexed": true,
          "internalType": "address",
          "name": "newOwner",
          "type": "address"
        }
      ],
      "name": "OwnershipTransferred",
      "type": "event"
    },
    {
      "stateMutability": "payable",
      "type": "fallback",
      "payable": true
    },
    {
      "inputs": [],
      "name": "ETH",
      "outputs": [
        {
          "internalType": "address",
          "name": "",
          "type": "address"
        }
      ],
      "stateMutability": "view",
      "type": "function",
      "constant": true
    },
    {
      "inputs": [],
      "name": "owner",
      "outputs": [
        {
          "internalType": "address",
          "name": "",
          "type": "address"
        }
      ],
      "stateMutability": "view",
      "type": "function",
      "constant": true
    },
    {
      "inputs": [],
      "name": "renounceOwnership",
      "outputs": [],
      "stateMutability": "nonpayable",
      "type": "function"
    },
    {
      "inputs": [
        {
          "internalType": "address",
          "name": "newOwner",
          "type": "address"
        }
      ],
      "name": "transferOwnership",
      "outputs": [],
      "stateMutability": "nonpayable",
      "type": "function"
    },
    {
      "inputs": [],
      "name": "viridianNFT",
      "outputs": [
        {
          "internalType": "address",
          "name": "",
          "type": "address"
        }
      ],
      "stateMutability": "view",
      "type": "function",
      "constant": true
    },
    {
      "inputs": [],
      "name": "viridianPack",
      "outputs": [
        {
          "internalType": "address",
          "name": "",
          "type": "address"
        }
      ],
      "stateMutability": "view",
      "type": "function",
      "constant": true
    },
    {
      "inputs": [],
      "name": "viridianToken",
      "outputs": [
        {
          "internalType": "address",
          "name": "",
          "type": "address"
        }
      ],
      "stateMutability": "view",
      "type": "function",
      "constant": true
    },
    {
      "stateMutability": "payable",
      "type": "receive",
      "payable": true
    },
    {
      "inputs": [],
      "name": "getBalance",
      "outputs": [
        {
          "internalType": "uint256",
          "name": "",
          "type": "uint256"
        }
      ],
      "stateMutability": "view",
      "type": "function",
      "constant": true
    },
    {
      "inputs": [],
      "name": "getListings",
      "outputs": [
        {
          "internalType": "uint256[]",
          "name": "",
          "type": "uint256[]"
        }
      ],
      "stateMutability": "view",
      "type": "function",
      "constant": true
    },
    {
      "inputs": [
        {
          "internalType": "uint256",
          "name": "_listingId",
          "type": "uint256"
        }
      ],
      "name": "getListingFromId",
      "outputs": [
        {
          "components": [
            {
              "internalType": "uint256",
              "name": "listingId",
              "type": "uint256"
            },
            {
              "internalType": "uint256",
              "name": "tokenId",
              "type": "uint256"
            },
            {
              "internalType": "address payable",
              "name": "owner",
              "type": "address"
            },
            {
              "internalType": "uint256",
              "name": "price",
              "type": "uint256"
            },
            {
              "internalType": "bool",
              "name": "purchased",
              "type": "bool"
            },
            {
              "internalType": "uint256",
              "name": "royalty",
              "type": "uint256"
            },
            {
              "internalType": "uint256",
              "name": "endTime",
              "type": "uint256"
            },
            {
              "internalType": "bool",
              "name": "sold",
              "type": "bool"
            },
            {
              "internalType": "bool",
              "name": "isVEXT",
              "type": "bool"
            },
            {
              "internalType": "bool",
              "name": "isVNFT",
              "type": "bool"
            },
            {
              "internalType": "uint256",
              "name": "timeListed",
              "type": "uint256"
            }
          ],
          "internalType": "struct ViridianExchange.Listing",
          "name": "",
          "type": "tuple"
        }
      ],
      "stateMutability": "view",
      "type": "function",
      "constant": true
    },
    {
      "inputs": [
        {
          "internalType": "address",
          "name": "_userAddr",
          "type": "address"
        }
      ],
      "name": "getListingsFromUser",
      "outputs": [
        {
          "components": [
            {
              "internalType": "uint256",
              "name": "listingId",
              "type": "uint256"
            },
            {
              "internalType": "uint256",
              "name": "tokenId",
              "type": "uint256"
            },
            {
              "internalType": "address payable",
              "name": "owner",
              "type": "address"
            },
            {
              "internalType": "uint256",
              "name": "price",
              "type": "uint256"
            },
            {
              "internalType": "bool",
              "name": "purchased",
              "type": "bool"
            },
            {
              "internalType": "uint256",
              "name": "royalty",
              "type": "uint256"
            },
            {
              "internalType": "uint256",
              "name": "endTime",
              "type": "uint256"
            },
            {
              "internalType": "bool",
              "name": "sold",
              "type": "bool"
            },
            {
              "internalType": "bool",
              "name": "isVEXT",
              "type": "bool"
            },
            {
              "internalType": "bool",
              "name": "isVNFT",
              "type": "bool"
            },
            {
              "internalType": "uint256",
              "name": "timeListed",
              "type": "uint256"
            }
          ],
          "internalType": "struct ViridianExchange.Listing[]",
          "name": "",
          "type": "tuple[]"
        }
      ],
      "stateMutability": "view",
      "type": "function",
      "constant": true
    },
    {
      "inputs": [
        {
          "internalType": "uint256",
          "name": "_nftId",
          "type": "uint256"
        }
      ],
      "name": "getNftOwner",
      "outputs": [
        {
          "internalType": "address",
          "name": "",
          "type": "address"
        }
      ],
      "stateMutability": "view",
      "type": "function",
      "constant": true
    },
    {
      "inputs": [
        {
          "internalType": "uint256",
          "name": "_nftId",
          "type": "uint256"
        }
      ],
      "name": "getPackOwner",
      "outputs": [
        {
          "internalType": "address",
          "name": "",
          "type": "address"
        }
      ],
      "stateMutability": "view",
      "type": "function",
      "constant": true
    },
    {
      "inputs": [
        {
          "internalType": "address payable",
          "name": "_to",
          "type": "address"
        }
      ],
      "name": "sendEther",
      "outputs": [],
      "stateMutability": "payable",
      "type": "function",
      "payable": true
    },
    {
      "inputs": [
        {
          "internalType": "uint256",
          "name": "_nftId",
          "type": "uint256"
        },
        {
          "internalType": "uint256",
          "name": "_price",
          "type": "uint256"
        },
        {
          "internalType": "uint256",
          "name": "_royalty",
          "type": "uint256"
        },
        {
          "internalType": "uint256",
          "name": "_endTime",
          "type": "uint256"
        },
        {
          "internalType": "bool",
          "name": "_isVEXT",
          "type": "bool"
        },
        {
          "internalType": "bool",
          "name": "_isVNFT",
          "type": "bool"
        }
      ],
      "name": "putUpForSale",
      "outputs": [],
      "stateMutability": "payable",
      "type": "function",
      "payable": true
    },
    {
      "inputs": [
        {
          "internalType": "uint256",
          "name": "_listingId",
          "type": "uint256"
        },
        {
          "internalType": "uint256",
          "name": "_newPrice",
          "type": "uint256"
        }
      ],
      "name": "changeSalePrice",
      "outputs": [],
      "stateMutability": "payable",
      "type": "function",
      "payable": true
    },
    {
      "inputs": [
        {
          "internalType": "uint256",
          "name": "_listingId",
          "type": "uint256"
        }
      ],
      "name": "pullFromSale",
      "outputs": [],
      "stateMutability": "payable",
      "type": "function",
      "payable": true
    },
    {
      "inputs": [
        {
          "internalType": "uint256",
          "name": "_listingId",
          "type": "uint256"
        }
      ],
      "name": "buyNFTWithVEXT",
      "outputs": [],
      "stateMutability": "payable",
      "type": "function",
      "payable": true
    },
    {
      "inputs": [
        {
          "internalType": "uint256",
          "name": "_listingId",
          "type": "uint256"
        }
      ],
      "name": "buyNFTWithETH",
      "outputs": [],
      "stateMutability": "payable",
      "type": "function",
      "payable": true
    }
  ],
  "bytecode": "0x60806040523480156200001157600080fd5b50604051620045933803806200459383398181016040528101906200003791906200038c565b620000576200004b6200025660201b60201c565b6200025e60201b60201c565b600073ffffffffffffffffffffffffffffffffffffffff168373ffffffffffffffffffffffffffffffffffffffff1614156200009257600080fd5b600073ffffffffffffffffffffffffffffffffffffffff168273ffffffffffffffffffffffffffffffffffffffff161415620000cd57600080fd5b600073ffffffffffffffffffffffffffffffffffffffff168173ffffffffffffffffffffffffffffffffffffffff1614156200010857600080fd5b82600c60006101000a81548173ffffffffffffffffffffffffffffffffffffffff021916908373ffffffffffffffffffffffffffffffffffffffff16021790555081600960006101000a81548173ffffffffffffffffffffffffffffffffffffffff021916908373ffffffffffffffffffffffffffffffffffffffff16021790555080600a60006101000a81548173ffffffffffffffffffffffffffffffffffffffff021916908373ffffffffffffffffffffffffffffffffffffffff16021790555081600260006101000a81548173ffffffffffffffffffffffffffffffffffffffff021916908373ffffffffffffffffffffffffffffffffffffffff16021790555080600360006101000a81548173ffffffffffffffffffffffffffffffffffffffff021916908373ffffffffffffffffffffffffffffffffffffffff160217905550505050620003e8565b600033905090565b60008060009054906101000a900473ffffffffffffffffffffffffffffffffffffffff169050816000806101000a81548173ffffffffffffffffffffffffffffffffffffffff021916908373ffffffffffffffffffffffffffffffffffffffff1602179055508173ffffffffffffffffffffffffffffffffffffffff168173ffffffffffffffffffffffffffffffffffffffff167f8be0079c531659141344cd1fd0a4f28419497f9722a3daafe3b4186f6b6457e060405160405180910390a35050565b600080fd5b600073ffffffffffffffffffffffffffffffffffffffff82169050919050565b6000620003548262000327565b9050919050565b620003668162000347565b81146200037257600080fd5b50565b60008151905062000386816200035b565b92915050565b600080600060608486031215620003a857620003a762000322565b5b6000620003b88682870162000375565b9350506020620003cb8682870162000375565b9250506040620003de8682870162000375565b9150509250925092565b61419b80620003f86000396000f3fe6080604052600436106101185760003560e01c8063ac0b27c2116100a0578063ec186db311610064578063ec186db314610364578063f1b2d6a314610380578063f2f57e95146103ab578063f2fde38b146103d6578063fe257afc146103ff5761011f565b8063ac0b27c214610296578063af62c684146102b2578063bddb06f3146102ef578063c82e474b1461030b578063d3e6a7ad146103275761011f565b8063898dc3fd116100e7578063898dc3fd146101aa5780638ad2d5a7146101c65780638da5cb5b146102035780639a7012881461022e578063a19b56ac146102595761011f565b806312065fe01461012157806348c981e21461014c578063715018a6146101685780638322fff21461017f5761011f565b3661011f57005b005b34801561012d57600080fd5b5061013661042a565b6040516101439190613322565b60405180910390f35b610166600480360381019061016191906133a0565b610432565b005b34801561017457600080fd5b5061017d6104e5565b005b34801561018b57600080fd5b5061019461056d565b6040516101a191906133ee565b60405180910390f35b6101c460048036038101906101bf919061346d565b610593565b005b3480156101d257600080fd5b506101ed60048036038101906101e891906134fa565b610d25565b6040516101fa91906133ee565b60405180910390f35b34801561020f57600080fd5b50610218610dd9565b60405161022591906133ee565b60405180910390f35b34801561023a57600080fd5b50610243610e02565b60405161025091906133ee565b60405180910390f35b34801561026557600080fd5b50610280600480360381019061027b91906134fa565b610e28565b60405161028d9190613635565b60405180910390f35b6102b060048036038101906102ab91906134fa565b610f54565b005b3480156102be57600080fd5b506102d960048036038101906102d4919061367d565b6115cf565b6040516102e6919061383b565b60405180910390f35b610309600480360381019061030491906134fa565b61176c565b005b6103256004803603810190610320919061385d565b612048565b005b34801561033357600080fd5b5061034e600480360381019061034991906134fa565b612067565b60405161035b91906133ee565b60405180910390f35b61037e600480360381019061037991906134fa565b61211b565b005b34801561038c57600080fd5b5061039561261f565b6040516103a2919061394c565b60405180910390f35b3480156103b757600080fd5b506103c0612677565b6040516103cd91906133ee565b60405180910390f35b3480156103e257600080fd5b506103fd60048036038101906103f8919061367d565b61269d565b005b34801561040b57600080fd5b50610414612795565b60405161042191906133ee565b60405180910390f35b600047905090565b6000808273ffffffffffffffffffffffffffffffffffffffff16346040516104599061399f565b60006040518083038185875af1925050503d8060008114610496576040519150601f19603f3d011682016040523d82523d6000602084013e61049b565b606091505b5091509150816104e0576040517f08c379a00000000000000000000000000000000000000000000000000000000081526004016104d790613a11565b60405180910390fd5b505050565b6104ed6127bb565b73ffffffffffffffffffffffffffffffffffffffff1661050b610dd9565b73ffffffffffffffffffffffffffffffffffffffff1614610561576040517f08c379a000000000000000000000000000000000000000000000000000000000815260040161055890613a7d565b60405180910390fd5b61056b60006127c3565b565b600b60009054906101000a900473ffffffffffffffffffffffffffffffffffffffff1681565b80156106ff573373ffffffffffffffffffffffffffffffffffffffff166105b987610d25565b73ffffffffffffffffffffffffffffffffffffffff161461060f576040517f08c379a000000000000000000000000000000000000000000000000000000000815260040161060690613ae9565b60405180910390fd5b600260009054906101000a900473ffffffffffffffffffffffffffffffffffffffff1673ffffffffffffffffffffffffffffffffffffffff1663fcce4883876040518263ffffffff1660e01b815260040161066a9190613322565b60206040518083038186803b15801561068257600080fd5b505afa158015610696573d6000803e3d6000fd5b505050506040513d601f19601f820116820180604052508101906106ba9190613b1e565b156106fa576040517f08c379a00000000000000000000000000000000000000000000000000000000081526004016106f190613bbd565b60405180910390fd5b610861565b3373ffffffffffffffffffffffffffffffffffffffff1661071f87612067565b73ffffffffffffffffffffffffffffffffffffffff1614610775576040517f08c379a000000000000000000000000000000000000000000000000000000000815260040161076c90613c29565b60405180910390fd5b600360009054906101000a900473ffffffffffffffffffffffffffffffffffffffff1673ffffffffffffffffffffffffffffffffffffffff1663fcce4883876040518263ffffffff1660e01b81526004016107d09190613322565b60206040518083038186803b1580156107e857600080fd5b505afa1580156107fc573d6000803e3d6000fd5b505050506040513d601f19601f820116820180604052508101906108209190613b1e565b15610860576040517f08c379a000000000000000000000000000000000000000000000000000000000815260040161085790613cbb565b60405180910390fd5b5b61086b6001612887565b6000610877600161289d565b9050610881613024565b818160000181815250508781602001818152505033816040019073ffffffffffffffffffffffffffffffffffffffff16908173ffffffffffffffffffffffffffffffffffffffff1681525050868160600181815250506000816080019015159081151581525050858160a0018181525050848160c001818152505060008160e0019015159081151581525050838161010001901515908115158152505082816101200190151590811515815250504281610140018181525050600560003373ffffffffffffffffffffffffffffffffffffffff1673ffffffffffffffffffffffffffffffffffffffff168152602001908152602001600020819080600181540180825580915050600190039060005260206000209060090201600090919091909150600082015181600001556020820151816001015560408201518160020160006101000a81548173ffffffffffffffffffffffffffffffffffffffff021916908373ffffffffffffffffffffffffffffffffffffffff1602179055506060820151816003015560808201518160040160006101000a81548160ff02191690831515021790555060a0820151816005015560c0820151816006015560e08201518160070160006101000a81548160ff0219169083151502179055506101008201518160070160016101000a81548160ff0219169083151502179055506101208201518160070160026101000a81548160ff021916908315150217905550610140820151816008015550508060066000848152602001908152602001600020600082015181600001556020820151816001015560408201518160020160006101000a81548173ffffffffffffffffffffffffffffffffffffffff021916908373ffffffffffffffffffffffffffffffffffffffff1602179055506060820151816003015560808201518160040160006101000a81548160ff02191690831515021790555060a0820151816005015560c0820151816006015560e08201518160070160006101000a81548160ff0219169083151502179055506101008201518160070160016101000a81548160ff0219169083151502179055506101208201518160070160026101000a81548160ff02191690831515021790555061014082015181600801559050506008816000015190806001815401808255809150506001900390600052602060002001600090919091909150558215610c8d57600260009054906101000a900473ffffffffffffffffffffffffffffffffffffffff1673ffffffffffffffffffffffffffffffffffffffff1663e6148d5f896040518263ffffffff1660e01b8152600401610c569190613322565b600060405180830381600087803b158015610c7057600080fd5b505af1158015610c84573d6000803e3d6000fd5b50505050610d1b565b600360009054906101000a900473ffffffffffffffffffffffffffffffffffffffff1673ffffffffffffffffffffffffffffffffffffffff1663e6148d5f896040518263ffffffff1660e01b8152600401610ce89190613322565b600060405180830381600087803b158015610d0257600080fd5b505af1158015610d16573d6000803e3d6000fd5b505050505b5050505050505050565b6000600960009054906101000a900473ffffffffffffffffffffffffffffffffffffffff1673ffffffffffffffffffffffffffffffffffffffff16636352211e836040518263ffffffff1660e01b8152600401610d829190613322565b60206040518083038186803b158015610d9a57600080fd5b505afa158015610dae573d6000803e3d6000fd5b505050506040513d601f19601f82011682018060405250810190610dd29190613cf0565b9050919050565b60008060009054906101000a900473ffffffffffffffffffffffffffffffffffffffff16905090565b600960009054906101000a900473ffffffffffffffffffffffffffffffffffffffff1681565b610e30613024565b600660008381526020019081526020016000206040518061016001604052908160008201548152602001600182015481526020016002820160009054906101000a900473ffffffffffffffffffffffffffffffffffffffff1673ffffffffffffffffffffffffffffffffffffffff1673ffffffffffffffffffffffffffffffffffffffff168152602001600382015481526020016004820160009054906101000a900460ff1615151515815260200160058201548152602001600682015481526020016007820160009054906101000a900460ff161515151581526020016007820160019054906101000a900460ff161515151581526020016007820160029054906101000a900460ff161515151581526020016008820154815250509050919050565b6000600660008381526020019081526020016000206040518061016001604052908160008201548152602001600182015481526020016002820160009054906101000a900473ffffffffffffffffffffffffffffffffffffffff1673ffffffffffffffffffffffffffffffffffffffff1673ffffffffffffffffffffffffffffffffffffffff168152602001600382015481526020016004820160009054906101000a900460ff1615151515815260200160058201548152602001600682015481526020016007820160009054906101000a900460ff161515151581526020016007820160019054906101000a900460ff161515151581526020016007820160029054906101000a900460ff1615151515815260200160088201548152505090508061010001516110ba576040517f08c379a00000000000000000000000000000000000000000000000000000000081526004016110b190613d8f565b60405180910390fd5b8061012001511561134a57600260009054906101000a900473ffffffffffffffffffffffffffffffffffffffff1673ffffffffffffffffffffffffffffffffffffffff1663ad3a358c82602001516040518263ffffffff1660e01b81526004016111249190613322565b600060405180830381600087803b15801561113e57600080fd5b505af1158015611152573d6000803e3d6000fd5b50505050600c60009054906101000a900473ffffffffffffffffffffffffffffffffffffffff1673ffffffffffffffffffffffffffffffffffffffff166323b872dd33836040015184606001516040518463ffffffff1660e01b81526004016111bd93929190613e0e565b602060405180830381600087803b1580156111d757600080fd5b505af11580156111eb573d6000803e3d6000fd5b505050506040513d601f19601f8201168201806040525081019061120f9190613b1e565b50600960009054906101000a900473ffffffffffffffffffffffffffffffffffffffff1673ffffffffffffffffffffffffffffffffffffffff1663095ea7b33383602001516040518363ffffffff1660e01b8152600401611271929190613e45565b600060405180830381600087803b15801561128b57600080fd5b505af115801561129f573d6000803e3d6000fd5b50505050600960009054906101000a900473ffffffffffffffffffffffffffffffffffffffff1673ffffffffffffffffffffffffffffffffffffffff166342842e0e82604001513384602001516040518463ffffffff1660e01b815260040161130a93929190613e6e565b600060405180830381600087803b15801561132457600080fd5b505af1158015611338573d6000803e3d6000fd5b50505050611345826128ab565b6115cb565b600360009054906101000a900473ffffffffffffffffffffffffffffffffffffffff1673ffffffffffffffffffffffffffffffffffffffff1663ad3a358c82602001516040518263ffffffff1660e01b81526004016113a99190613322565b600060405180830381600087803b1580156113c357600080fd5b505af11580156113d7573d6000803e3d6000fd5b50505050600c60009054906101000a900473ffffffffffffffffffffffffffffffffffffffff1673ffffffffffffffffffffffffffffffffffffffff166323b872dd33836040015184606001516040518463ffffffff1660e01b815260040161144293929190613e0e565b602060405180830381600087803b15801561145c57600080fd5b505af1158015611470573d6000803e3d6000fd5b505050506040513d601f19601f820116820180604052508101906114949190613b1e565b50600a60009054906101000a900473ffffffffffffffffffffffffffffffffffffffff1673ffffffffffffffffffffffffffffffffffffffff1663095ea7b33383602001516040518363ffffffff1660e01b81526004016114f6929190613e45565b600060405180830381600087803b15801561151057600080fd5b505af1158015611524573d6000803e3d6000fd5b50505050600a60009054906101000a900473ffffffffffffffffffffffffffffffffffffffff1673ffffffffffffffffffffffffffffffffffffffff166342842e0e82604001513384602001516040518463ffffffff1660e01b815260040161158f93929190613e6e565b600060405180830381600087803b1580156115a957600080fd5b505af11580156115bd573d6000803e3d6000fd5b505050506115ca826128ab565b5b5050565b6060600560008373ffffffffffffffffffffffffffffffffffffffff1673ffffffffffffffffffffffffffffffffffffffff168152602001908152602001600020805480602002602001604051908101604052809291908181526020016000905b8282101561176157838290600052602060002090600902016040518061016001604052908160008201548152602001600182015481526020016002820160009054906101000a900473ffffffffffffffffffffffffffffffffffffffff1673ffffffffffffffffffffffffffffffffffffffff1673ffffffffffffffffffffffffffffffffffffffff168152602001600382015481526020016004820160009054906101000a900460ff1615151515815260200160058201548152602001600682015481526020016007820160009054906101000a900460ff161515151581526020016007820160019054906101000a900460ff161515151581526020016007820160029054906101000a900460ff1615151515815260200160088201548152505081526020019060010190611630565b505050509050919050565b6000600660008381526020019081526020016000206040518061016001604052908160008201548152602001600182015481526020016002820160009054906101000a900473ffffffffffffffffffffffffffffffffffffffff1673ffffffffffffffffffffffffffffffffffffffff1673ffffffffffffffffffffffffffffffffffffffff168152602001600382015481526020016004820160009054906101000a900460ff1615151515815260200160058201548152602001600682015481526020016007820160009054906101000a900460ff161515151581526020016007820160019054906101000a900460ff161515151581526020016007820160029054906101000a900460ff1615151515815260200160088201548152505090503373ffffffffffffffffffffffffffffffffffffffff16816040015173ffffffffffffffffffffffffffffffffffffffff16146118c957600080fd5b8061012001511561196a57600260009054906101000a900473ffffffffffffffffffffffffffffffffffffffff1673ffffffffffffffffffffffffffffffffffffffff1663ad3a358c82602001516040518263ffffffff1660e01b81526004016119339190613322565b600060405180830381600087803b15801561194d57600080fd5b505af1158015611961573d6000803e3d6000fd5b505050506119fc565b600360009054906101000a900473ffffffffffffffffffffffffffffffffffffffff1673ffffffffffffffffffffffffffffffffffffffff1663ad3a358c82602001516040518263ffffffff1660e01b81526004016119c99190613322565b600060405180830381600087803b1580156119e357600080fd5b505af11580156119f7573d6000803e3d6000fd5b505050505b6000600560003373ffffffffffffffffffffffffffffffffffffffff1673ffffffffffffffffffffffffffffffffffffffff168152602001908152602001600020905060005b8180549050811015611eb1576000828281548110611a6357611a62613ea5565b5b90600052602060002090600902016040518061016001604052908160008201548152602001600182015481526020016002820160009054906101000a900473ffffffffffffffffffffffffffffffffffffffff1673ffffffffffffffffffffffffffffffffffffffff1673ffffffffffffffffffffffffffffffffffffffff168152602001600382015481526020016004820160009054906101000a900460ff1615151515815260200160058201548152602001600682015481526020016007820160009054906101000a900460ff161515151581526020016007820160019054906101000a900460ff161515151581526020016007820160029054906101000a900460ff161515151581526020016008820154815250509050836000015181600001511415611e9d578260018480549050611b9f9190613f03565b81548110611bb057611baf613ea5565b5b9060005260206000209060090201838381548110611bd157611bd0613ea5565b5b906000526020600020906009020160008201548160000155600182015481600101556002820160009054906101000a900473ffffffffffffffffffffffffffffffffffffffff168160020160006101000a81548173ffffffffffffffffffffffffffffffffffffffff021916908373ffffffffffffffffffffffffffffffffffffffff160217905550600382015481600301556004820160009054906101000a900460ff168160040160006101000a81548160ff02191690831515021790555060058201548160050155600682015481600601556007820160009054906101000a900460ff168160070160006101000a81548160ff0219169083151502179055506007820160019054906101000a900460ff168160070160016101000a81548160ff0219169083151502179055506007820160029054906101000a900460ff168160070160026101000a81548160ff0219169083151502179055506008820154816008015590505082600560003373ffffffffffffffffffffffffffffffffffffffff1673ffffffffffffffffffffffffffffffffffffffff168152602001908152602001600020908054611d8792919061309c565b50600560003373ffffffffffffffffffffffffffffffffffffffff1673ffffffffffffffffffffffffffffffffffffffff168152602001908152602001600020805480611dd757611dd6613f37565b5b600190038181906000526020600020906009020160008082016000905560018201600090556002820160006101000a81549073ffffffffffffffffffffffffffffffffffffffff021916905560038201600090556004820160006101000a81549060ff0219169055600582016000905560068201600090556007820160006101000a81549060ff02191690556007820160016101000a81549060ff02191690556007820160026101000a81549060ff021916905560088201600090555050905550611eb1565b508080611ea990613f66565b915050611a42565b5060005b600880549050811015611f8557600060088281548110611ed857611ed7613ea5565b5b906000526020600020015490508360000151811415611f715760086001600880549050611f059190613f03565b81548110611f1657611f15613ea5565b5b906000526020600020015460088381548110611f3557611f34613ea5565b5b90600052602060002001819055506008805480611f5557611f54613f37565b5b6001900381819060005260206000200160009055905550611f85565b508080611f7d90613f66565b915050611eb5565b506006600084815260200190815260200160002060008082016000905560018201600090556002820160006101000a81549073ffffffffffffffffffffffffffffffffffffffff021916905560038201600090556004820160006101000a81549060ff0219169055600582016000905560068201600090556007820160006101000a81549060ff02191690556007820160016101000a81549060ff02191690556007820160026101000a81549060ff021916905560088201600090555050505050565b8060066000848152602001908152602001600020600301819055505050565b6000600a60009054906101000a900473ffffffffffffffffffffffffffffffffffffffff1673ffffffffffffffffffffffffffffffffffffffff16636352211e836040518263ffffffff1660e01b81526004016120c49190613322565b60206040518083038186803b1580156120dc57600080fd5b505afa1580156120f0573d6000803e3d6000fd5b505050506040513d601f19601f820116820180604052508101906121149190613cf0565b9050919050565b6000600660008381526020019081526020016000206040518061016001604052908160008201548152602001600182015481526020016002820160009054906101000a900473ffffffffffffffffffffffffffffffffffffffff1673ffffffffffffffffffffffffffffffffffffffff1673ffffffffffffffffffffffffffffffffffffffff168152602001600382015481526020016004820160009054906101000a900460ff1615151515815260200160058201548152602001600682015481526020016007820160009054906101000a900460ff161515151581526020016007820160019054906101000a900460ff161515151581526020016007820160029054906101000a900460ff16151515158152602001600882015481525050905080610100015115612282576040517f08c379a000000000000000000000000000000000000000000000000000000000815260040161227990614021565b60405180910390fd5b8061012001511561245657600260009054906101000a900473ffffffffffffffffffffffffffffffffffffffff1673ffffffffffffffffffffffffffffffffffffffff1663ad3a358c82602001516040518263ffffffff1660e01b81526004016122ec9190613322565b600060405180830381600087803b15801561230657600080fd5b505af115801561231a573d6000803e3d6000fd5b5050505034816060015114612364576040517f08c379a000000000000000000000000000000000000000000000000000000000815260040161235b906140b3565b60405180910390fd5b806040015173ffffffffffffffffffffffffffffffffffffffff166108fc349081150290604051600060405180830381858888f193505050501580156123ae573d6000803e3d6000fd5b50600960009054906101000a900473ffffffffffffffffffffffffffffffffffffffff1673ffffffffffffffffffffffffffffffffffffffff166342842e0e82604001513384602001516040518463ffffffff1660e01b815260040161241693929190613e6e565b600060405180830381600087803b15801561243057600080fd5b505af1158015612444573d6000803e3d6000fd5b50505050612451826128ab565b61261b565b600360009054906101000a900473ffffffffffffffffffffffffffffffffffffffff1673ffffffffffffffffffffffffffffffffffffffff1663ad3a358c82602001516040518263ffffffff1660e01b81526004016124b59190613322565b600060405180830381600087803b1580156124cf57600080fd5b505af11580156124e3573d6000803e3d6000fd5b505050503481606001511461252d576040517f08c379a0000000000000000000000000000000000000000000000000000000008152600401612524906140b3565b60405180910390fd5b806040015173ffffffffffffffffffffffffffffffffffffffff166108fc349081150290604051600060405180830381858888f19350505050158015612577573d6000803e3d6000fd5b50600a60009054906101000a900473ffffffffffffffffffffffffffffffffffffffff1673ffffffffffffffffffffffffffffffffffffffff166342842e0e82604001513384602001516040518463ffffffff1660e01b81526004016125df93929190613e6e565b600060405180830381600087803b1580156125f957600080fd5b505af115801561260d573d6000803e3d6000fd5b5050505061261a826128ab565b5b5050565b6060600880548060200260200160405190810160405280929190818152602001828054801561266d57602002820191906000526020600020905b815481526020019060010190808311612659575b5050505050905090565b600c60009054906101000a900473ffffffffffffffffffffffffffffffffffffffff1681565b6126a56127bb565b73ffffffffffffffffffffffffffffffffffffffff166126c3610dd9565b73ffffffffffffffffffffffffffffffffffffffff1614612719576040517f08c379a000000000000000000000000000000000000000000000000000000000815260040161271090613a7d565b60405180910390fd5b600073ffffffffffffffffffffffffffffffffffffffff168173ffffffffffffffffffffffffffffffffffffffff161415612789576040517f08c379a000000000000000000000000000000000000000000000000000000000815260040161278090614145565b60405180910390fd5b612792816127c3565b50565b600a60009054906101000a900473ffffffffffffffffffffffffffffffffffffffff1681565b600033905090565b60008060009054906101000a900473ffffffffffffffffffffffffffffffffffffffff169050816000806101000a81548173ffffffffffffffffffffffffffffffffffffffff021916908373ffffffffffffffffffffffffffffffffffffffff1602179055508173ffffffffffffffffffffffffffffffffffffffff168173ffffffffffffffffffffffffffffffffffffffff167f8be0079c531659141344cd1fd0a4f28419497f9722a3daafe3b4186f6b6457e060405160405180910390a35050565b6001816000016000828254019250508190555050565b600081600001549050919050565b6000600660008381526020019081526020016000206040518061016001604052908160008201548152602001600182015481526020016002820160009054906101000a900473ffffffffffffffffffffffffffffffffffffffff1673ffffffffffffffffffffffffffffffffffffffff1673ffffffffffffffffffffffffffffffffffffffff168152602001600382015481526020016004820160009054906101000a900460ff1615151515815260200160058201548152602001600682015481526020016007820160009054906101000a900460ff161515151581526020016007820160019054906101000a900460ff161515151581526020016007820160029054906101000a900460ff161515151581526020016008820154815250509050600060056000836040015173ffffffffffffffffffffffffffffffffffffffff1673ffffffffffffffffffffffffffffffffffffffff168152602001908152602001600020905060005b8180549050811015612e8d576000828281548110612a3757612a36613ea5565b5b90600052602060002090600902016040518061016001604052908160008201548152602001600182015481526020016002820160009054906101000a900473ffffffffffffffffffffffffffffffffffffffff1673ffffffffffffffffffffffffffffffffffffffff1673ffffffffffffffffffffffffffffffffffffffff168152602001600382015481526020016004820160009054906101000a900460ff1615151515815260200160058201548152602001600682015481526020016007820160009054906101000a900460ff161515151581526020016007820160019054906101000a900460ff161515151581526020016007820160029054906101000a900460ff161515151581526020016008820154815250509050836000015181600001511415612e79578260018480549050612b739190613f03565b81548110612b8457612b83613ea5565b5b9060005260206000209060090201838381548110612ba557612ba4613ea5565b5b906000526020600020906009020160008201548160000155600182015481600101556002820160009054906101000a900473ffffffffffffffffffffffffffffffffffffffff168160020160006101000a81548173ffffffffffffffffffffffffffffffffffffffff021916908373ffffffffffffffffffffffffffffffffffffffff160217905550600382015481600301556004820160009054906101000a900460ff168160040160006101000a81548160ff02191690831515021790555060058201548160050155600682015481600601556007820160009054906101000a900460ff168160070160006101000a81548160ff0219169083151502179055506007820160019054906101000a900460ff168160070160016101000a81548160ff0219169083151502179055506007820160029054906101000a900460ff168160070160026101000a81548160ff021916908315150217905550600882015481600801559050508260056000866040015173ffffffffffffffffffffffffffffffffffffffff1673ffffffffffffffffffffffffffffffffffffffff168152602001908152602001600020908054612d5f92919061309c565b5060056000856040015173ffffffffffffffffffffffffffffffffffffffff1673ffffffffffffffffffffffffffffffffffffffff168152602001908152602001600020805480612db357612db2613f37565b5b600190038181906000526020600020906009020160008082016000905560018201600090556002820160006101000a81549073ffffffffffffffffffffffffffffffffffffffff021916905560038201600090556004820160006101000a81549060ff0219169055600582016000905560068201600090556007820160006101000a81549060ff02191690556007820160016101000a81549060ff02191690556007820160026101000a81549060ff021916905560088201600090555050905550612e8d565b508080612e8590613f66565b915050612a16565b5060005b600880549050811015612f6157600060088281548110612eb457612eb3613ea5565b5b906000526020600020015490508360000151811415612f4d5760086001600880549050612ee19190613f03565b81548110612ef257612ef1613ea5565b5b906000526020600020015460088381548110612f1157612f10613ea5565b5b90600052602060002001819055506008805480612f3157612f30613f37565b5b6001900381819060005260206000200160009055905550612f61565b508080612f5990613f66565b915050612e91565b506006600084815260200190815260200160002060008082016000905560018201600090556002820160006101000a81549073ffffffffffffffffffffffffffffffffffffffff021916905560038201600090556004820160006101000a81549060ff0219169055600582016000905560068201600090556007820160006101000a81549060ff02191690556007820160016101000a81549060ff02191690556007820160026101000a81549060ff021916905560088201600090555050505050565b6040518061016001604052806000815260200160008152602001600073ffffffffffffffffffffffffffffffffffffffff168152602001600081526020016000151581526020016000815260200160008152602001600015158152602001600015158152602001600015158152602001600081525090565b82805482825590600052602060002090600902810192821561323a5760005260206000209160090282015b8281111561323957828260008201548160000155600182015481600101556002820160009054906101000a900473ffffffffffffffffffffffffffffffffffffffff168160020160006101000a81548173ffffffffffffffffffffffffffffffffffffffff021916908373ffffffffffffffffffffffffffffffffffffffff160217905550600382015481600301556004820160009054906101000a900460ff168160040160006101000a81548160ff02191690831515021790555060058201548160050155600682015481600601556007820160009054906101000a900460ff168160070160006101000a81548160ff0219169083151502179055506007820160019054906101000a900460ff168160070160016101000a81548160ff0219169083151502179055506007820160029054906101000a900460ff168160070160026101000a81548160ff021916908315150217905550600882015481600801555050916009019190600901906130c7565b5b509050613247919061324b565b5090565b5b808211156133055760008082016000905560018201600090556002820160006101000a81549073ffffffffffffffffffffffffffffffffffffffff021916905560038201600090556004820160006101000a81549060ff0219169055600582016000905560068201600090556007820160006101000a81549060ff02191690556007820160016101000a81549060ff02191690556007820160026101000a81549060ff021916905560088201600090555060090161324c565b5090565b6000819050919050565b61331c81613309565b82525050565b60006020820190506133376000830184613313565b92915050565b600080fd5b600073ffffffffffffffffffffffffffffffffffffffff82169050919050565b600061336d82613342565b9050919050565b61337d81613362565b811461338857600080fd5b50565b60008135905061339a81613374565b92915050565b6000602082840312156133b6576133b561333d565b5b60006133c48482850161338b565b91505092915050565b60006133d882613342565b9050919050565b6133e8816133cd565b82525050565b600060208201905061340360008301846133df565b92915050565b61341281613309565b811461341d57600080fd5b50565b60008135905061342f81613409565b92915050565b60008115159050919050565b61344a81613435565b811461345557600080fd5b50565b60008135905061346781613441565b92915050565b60008060008060008060c0878903121561348a5761348961333d565b5b600061349889828a01613420565b96505060206134a989828a01613420565b95505060406134ba89828a01613420565b94505060606134cb89828a01613420565b93505060806134dc89828a01613458565b92505060a06134ed89828a01613458565b9150509295509295509295565b6000602082840312156135105761350f61333d565b5b600061351e84828501613420565b91505092915050565b61353081613309565b82525050565b61353f81613362565b82525050565b61354e81613435565b82525050565b6101608201600082015161356b6000850182613527565b50602082015161357e6020850182613527565b5060408201516135916040850182613536565b5060608201516135a46060850182613527565b5060808201516135b76080850182613545565b5060a08201516135ca60a0850182613527565b5060c08201516135dd60c0850182613527565b5060e08201516135f060e0850182613545565b50610100820151613605610100850182613545565b5061012082015161361a610120850182613545565b5061014082015161362f610140850182613527565b50505050565b60006101608201905061364b6000830184613554565b92915050565b61365a816133cd565b811461366557600080fd5b50565b60008135905061367781613651565b92915050565b6000602082840312156136935761369261333d565b5b60006136a184828501613668565b91505092915050565b600081519050919050565b600082825260208201905092915050565b6000819050602082019050919050565b610160820160008201516136ed6000850182613527565b5060208201516137006020850182613527565b5060408201516137136040850182613536565b5060608201516137266060850182613527565b5060808201516137396080850182613545565b5060a082015161374c60a0850182613527565b5060c082015161375f60c0850182613527565b5060e082015161377260e0850182613545565b50610100820151613787610100850182613545565b5061012082015161379c610120850182613545565b506101408201516137b1610140850182613527565b50505050565b60006137c383836136d6565b6101608301905092915050565b6000602082019050919050565b60006137e8826136aa565b6137f281856136b5565b93506137fd836136c6565b8060005b8381101561382e57815161381588826137b7565b9750613820836137d0565b925050600181019050613801565b5085935050505092915050565b6000602082019050818103600083015261385581846137dd565b905092915050565b600080604083850312156138745761387361333d565b5b600061388285828601613420565b925050602061389385828601613420565b9150509250929050565b600081519050919050565b600082825260208201905092915050565b6000819050602082019050919050565b60006138d58383613527565b60208301905092915050565b6000602082019050919050565b60006138f98261389d565b61390381856138a8565b935061390e836138b9565b8060005b8381101561393f57815161392688826138c9565b9750613931836138e1565b925050600181019050613912565b5085935050505092915050565b6000602082019050818103600083015261396681846138ee565b905092915050565b600081905092915050565b50565b600061398960008361396e565b915061399482613979565b600082019050919050565b60006139aa8261397c565b9150819050919050565b600082825260208201905092915050565b7f4661696c656420746f2073656e64204574686572000000000000000000000000600082015250565b60006139fb6014836139b4565b9150613a06826139c5565b602082019050919050565b60006020820190508181036000830152613a2a816139ee565b9050919050565b7f4f776e61626c653a2063616c6c6572206973206e6f7420746865206f776e6572600082015250565b6000613a676020836139b4565b9150613a7282613a31565b602082019050919050565b60006020820190508181036000830152613a9681613a5a565b9050919050565b7f4d757374206265206f776e657220746f206c69737420766e6674000000000000600082015250565b6000613ad3601a836139b4565b9150613ade82613a9d565b602082019050919050565b60006020820190508181036000830152613b0281613ac6565b9050919050565b600081519050613b1881613441565b92915050565b600060208284031215613b3457613b3361333d565b5b6000613b4284828501613b09565b91505092915050565b7f43616e6e6f7420637265617465206d756c7469706c65206c697374696e67732060008201527f666f72206f6e65206e6674000000000000000000000000000000000000000000602082015250565b6000613ba7602b836139b4565b9150613bb282613b4b565b604082019050919050565b60006020820190508181036000830152613bd681613b9a565b9050919050565b7f4d757374206265206f776e657220746f206c697374207061636b000000000000600082015250565b6000613c13601a836139b4565b9150613c1e82613bdd565b602082019050919050565b60006020820190508181036000830152613c4281613c06565b9050919050565b7f43616e6e6f7420637265617465206d756c7469706c65206c697374696e67732060008201527f666f72206f6e65207061636b0000000000000000000000000000000000000000602082015250565b6000613ca5602c836139b4565b9150613cb082613c49565b604082019050919050565b60006020820190508181036000830152613cd481613c98565b9050919050565b600081519050613cea81613651565b92915050565b600060208284031215613d0657613d0561333d565b5b6000613d1484828501613cdb565b91505092915050565b7f43616e6e6f7420707572636861736520616e20455448206c697374696e67207760008201527f6974682055534454000000000000000000000000000000000000000000000000602082015250565b6000613d796028836139b4565b9150613d8482613d1d565b604082019050919050565b60006020820190508181036000830152613da881613d6c565b9050919050565b6000819050919050565b6000613dd4613dcf613dca84613342565b613daf565b613342565b9050919050565b6000613de682613db9565b9050919050565b6000613df882613ddb565b9050919050565b613e0881613ded565b82525050565b6000606082019050613e2360008301866133df565b613e306020830185613dff565b613e3d6040830184613313565b949350505050565b6000604082019050613e5a60008301856133df565b613e676020830184613313565b9392505050565b6000606082019050613e836000830186613dff565b613e9060208301856133df565b613e9d6040830184613313565b949350505050565b7f4e487b7100000000000000000000000000000000000000000000000000000000600052603260045260246000fd5b7f4e487b7100000000000000000000000000000000000000000000000000000000600052601160045260246000fd5b6000613f0e82613309565b9150613f1983613309565b925082821015613f2c57613f2b613ed4565b5b828203905092915050565b7f4e487b7100000000000000000000000000000000000000000000000000000000600052603160045260246000fd5b6000613f7182613309565b91507fffffffffffffffffffffffffffffffffffffffffffffffffffffffffffffffff821415613fa457613fa3613ed4565b5b600182019050919050565b7f43616e6e6f7420707572636861736520612055534454206c697374696e67207760008201527f6974682045544800000000000000000000000000000000000000000000000000602082015250565b600061400b6027836139b4565b915061401682613faf565b604082019050919050565b6000602082019050818103600083015261403a81613ffe565b9050919050565b7f4d7573742073656e6420636f727265637420616d6f756e74206f66204554482060008201527f746f206f776e6572206f66206c697374696e6700000000000000000000000000602082015250565b600061409d6033836139b4565b91506140a882614041565b604082019050919050565b600060208201905081810360008301526140cc81614090565b9050919050565b7f4f776e61626c653a206e6577206f776e657220697320746865207a65726f206160008201527f6464726573730000000000000000000000000000000000000000000000000000602082015250565b600061412f6026836139b4565b915061413a826140d3565b604082019050919050565b6000602082019050818103600083015261415e81614122565b905091905056fea264697066735822122040044cc9f019239ac6eba8d13e3fceec6d48a9e41d51e08686ffb15ef560b82e64736f6c63430008090033",
  "immutableReferences": {},
  "source": "pragma solidity ^0.8.0;\n\nimport \"@openzeppelin/contracts/access/Ownable.sol\";\nimport \"@openzeppelin/contracts/token/ERC721/ERC721.sol\";\nimport \"@openzeppelin/contracts/token/ERC20/IERC20.sol\";\nimport \"@openzeppelin/contracts/token/ERC20/ERC20.sol\";\nimport \"@openzeppelin/contracts/token/ERC721/IERC721.sol\";\n\nimport \"./ViridianNFT.sol\";\nimport \"./ViridianPack.sol\";\n\ncontract ViridianExchange is Ownable {\n\n    using Counters for Counters.Counter;\n    Counters.Counter private _listingIds;\n\n    //address vNFTContract = \n\n    ViridianNFT vNFT;\n    ViridianPack vPack;\n    \n    struct Listing {\n        uint256 listingId;\n        uint256 tokenId;\n        address payable owner;\n        uint256 price;\n        bool purchased;\n        uint256 royalty;\n        uint256 endTime;\n        bool sold;\n        bool isVEXT;\n        bool isVNFT;\n        uint256 timeListed;\n    }\n\n    struct Collection {\n        string description;\n        uint256[] collectionNFTs;\n    }\n\n    //string[] public nftIds;\n    mapping (address => Collection) displayCases;\n    mapping (address => Listing[]) userListings;\n    mapping (uint256 => Listing) listings;\n    address[] private userAddresses;\n    uint256[] private listingIds;\n\n    address public viridianNFT;\n    address public viridianPack;\n    address public ETH;\n    address public viridianToken;\n\n    constructor(address _viridianToken, address _viridianNFT, address _viridianPack) {\n        require(address(_viridianToken) != address(0));\n        //require(address(_ETH) != address(0));\n        require(address(_viridianNFT) != address(0));\n        require(address(_viridianPack) != address(0));\n\n        viridianToken = _viridianToken;\n        //address _ETH, ETH = _ETH;\n        viridianNFT = _viridianNFT;\n        viridianPack = _viridianPack;\n\n        vNFT = ViridianNFT(_viridianNFT);\n        vPack = ViridianPack(_viridianPack);\n    }\n\n    function getBalance() public view returns (uint) {\n        return address(this).balance;\n    }\n\n    function getListings() public view returns (uint256[] memory) {\n        return listingIds;\n    }\n\n    function getListingFromId(uint256 _listingId) public view returns (Listing memory) {\n        return listings[_listingId];\n    }\n\n    function getListingsFromUser(address _userAddr) public view returns (Listing[] memory) {\n        return userListings[_userAddr];\n    }\n\n    function getNftOwner(uint256 _nftId) public view returns (address) {\n        return IERC721(viridianNFT).ownerOf(_nftId);\n    }\n\n    function getPackOwner(uint256 _nftId) public view returns (address) {\n        return IERC721(viridianPack).ownerOf(_nftId);\n    }\n\n    function sendEther(address payable _to) public payable {\n        // Call returns a boolean value indicating success or failure.\n        // This is the current recommended method to use.\n        (bool sent, bytes memory data) = _to.call{value: msg.value}(\"\");\n        require(sent, \"Failed to send Ether\");\n    }\n\n    function putUpForSale(uint256 _nftId, uint256 _price, uint256 _royalty, uint256 _endTime, bool _isVEXT, bool _isVNFT) public payable {\n        if (_isVNFT) {\n            require(getNftOwner(_nftId) == msg.sender, 'Must be owner to list vnft');\n            require(!vNFT.isListed(_nftId), \"Cannot create multiple listings for one nft\");\n        }\n        else {\n            require(getPackOwner(_nftId) == msg.sender, 'Must be owner to list pack');\n            require(!vPack.isListed(_nftId), \"Cannot create multiple listings for one pack\");\n        }\n        \n        \n\n        //TODO: Maybe put this back\n        // if(!IERC721(viridianNFT).isApprovedForAll(msg.sender, address(this))) {\n        //     IERC721(viridianNFT).setApprovalForAll(address(this), true);\n        // }\n\n        // if(!IERC721(viridianPack).isApprovedForAll(msg.sender, address(this))) {\n        //     IERC721(viridianPack).setApprovalForAll(address(this), true);\n        // }\n\n        _listingIds.increment();\n        uint256 _listingId = _listingIds.current();\n        Listing memory saleListing;\n        saleListing.listingId = _listingId;\n        saleListing.tokenId = _nftId;\n        saleListing.owner = payable(msg.sender);\n        saleListing.price = _price;\n        saleListing.purchased = false;\n        saleListing.royalty = _royalty;\n        saleListing.endTime = _endTime;\n        saleListing.sold = false;\n        saleListing.isVEXT = _isVEXT;\n        saleListing.isVNFT = _isVNFT;\n        saleListing.timeListed = block.timestamp;\n\n        //_listingId, _nftId, msg.sender, _price, false, \n        //                                    _royalty, _isAuction, _endTime, Bid(msg.sender, 0, _isVEXT), new Bid[](0), false, _isVEXT);\n        userListings[msg.sender].push(saleListing);\n        listings[_listingId] = saleListing;\n        listingIds.push(saleListing.listingId);\n\n        if (_isVNFT) {\n            vNFT.listToken(_nftId);\n        }\n        else {\n            vPack.listToken(_nftId);\n        }\n\n        //ERC20(viridianToken).approve(address(this), _price);\n\n        //IERC721(viridianNFT).approve(address(this), _nftId);\n        //IERC721(viridianNFT).safeTransferFrom(msg.sender, address(this), _nftId);\n    }\n\n    function changeSalePrice(uint256 _listingId, uint256 _newPrice) public payable {\n        listings[_listingId].price = _newPrice;\n    }\n    \n    function pullFromSale(uint256 _listingId) public payable {\n        Listing memory curListing = listings[_listingId];\n        require(curListing.owner == msg.sender);\n        //IERC721(viridianNFT).safeTransferFrom(address(this), msg.sender, curListing.tokenId);\n        if(curListing.isVNFT) {\n            vNFT.unlistToken(curListing.tokenId);\n        }\n        else {\n            vPack.unlistToken(curListing.tokenId);\n        }\n\n        Listing[] storage curUserListings = userListings[msg.sender];\n        for (uint i = 0; i < curUserListings.length; i++) {\n            Listing memory listing = curUserListings[i];\n            if (listing.listingId == curListing.listingId) {\n                curUserListings[i] = curUserListings[curUserListings.length - 1];\n                userListings[msg.sender] = curUserListings;\n                userListings[msg.sender].pop();\n                break;\n            }\n        }\n\n        for (uint256 i = 0; i < listingIds.length; i++) {\n            uint256 listingId = listingIds[i];\n            if (listingId == curListing.listingId) {\n                listingIds[i] = listingIds[listingIds.length - 1];\n                listingIds.pop();\n                break;\n            }\n        }\n\n        delete listings[_listingId];\n    }\n\n    function pullFromSaleOnBuy(uint256 _listingId) private {\n        Listing memory curListing = listings[_listingId];\n        //IERC721(viridianNFT).safeTransferFrom(address(this), msg.sender, curListing.tokenId);\n        Listing[] storage curUserListings = userListings[curListing.owner];\n        for (uint i = 0; i < curUserListings.length; i++) {\n            Listing memory listing = curUserListings[i];\n            if (listing.listingId == curListing.listingId) {\n                curUserListings[i] = curUserListings[curUserListings.length - 1];\n                userListings[curListing.owner] = curUserListings;\n                userListings[curListing.owner].pop();\n                break;\n            }\n        }\n\n        for (uint256 i = 0; i < listingIds.length; i++) {\n            uint256 listingId = listingIds[i];\n            if (listingId == curListing.listingId) {\n                listingIds[i] = listingIds[listingIds.length - 1];\n                listingIds.pop();\n                break;\n            }\n        }\n\n        delete listings[_listingId];\n    }\n\n    function buyNFTWithVEXT(uint256 _listingId) public payable {\n        Listing memory curListing = listings[_listingId];\n        require(curListing.isVEXT, \"Cannot purchase an ETH listing with USDT\");\n\n        if(curListing.isVNFT) {\n            vNFT.unlistToken(curListing.tokenId);\n\n            IERC20(viridianToken).transferFrom(msg.sender, curListing.owner, curListing.price);\n\n            IERC721(viridianNFT).approve(msg.sender, curListing.tokenId);\n            IERC721(viridianNFT).safeTransferFrom(curListing.owner, msg.sender, curListing.tokenId);\n            pullFromSaleOnBuy(_listingId);\n        }\n        else {\n            vPack.unlistToken(curListing.tokenId);\n\n            IERC20(viridianToken).transferFrom(msg.sender, curListing.owner, curListing.price);\n\n            IERC721(viridianPack).approve(msg.sender, curListing.tokenId);\n            IERC721(viridianPack).safeTransferFrom(curListing.owner, msg.sender, curListing.tokenId);\n            pullFromSaleOnBuy(_listingId);\n        }\n        \n    }\n\n    function buyNFTWithETH(uint256 _listingId) public payable {\n        Listing memory curListing = listings[_listingId];\n        require(!curListing.isVEXT, \"Cannot purchase a USDT listing with ETH\");\n\n        if(curListing.isVNFT) {\n            vNFT.unlistToken(curListing.tokenId);\n\n            //Replace this with ETH implementation\n            //IERC20(viridianToken).transferFrom(msg.sender, curListing.owner, curListing.price);\n            require(curListing.price == msg.value, \"Must send correct amount of ETH to owner of listing\");\n            curListing.owner.transfer(msg.value);\n\n            //IERC721(viridianNFT).approve(msg.sender, curListing.tokenId);\n            IERC721(viridianNFT).safeTransferFrom(curListing.owner, msg.sender, curListing.tokenId);\n            pullFromSaleOnBuy(_listingId);\n        }\n        else {\n            vPack.unlistToken(curListing.tokenId);\n\n            //Replace this with ETH implementation\n            //IERC20(viridianToken).transferFrom(msg.sender, curListing.owner, curListing.price);\n            require(curListing.price == msg.value, \"Must send correct amount of ETH to owner of listing\");\n            curListing.owner.transfer(msg.value);\n\n            //IERC721(viridianPack).approve(msg.sender, curListing.tokenId);\n            IERC721(viridianPack).safeTransferFrom(curListing.owner, msg.sender, curListing.tokenId);\n            pullFromSaleOnBuy(_listingId);\n        }\n        \n    }\n\n    receive() external payable {}\n\n    // Fallback function is called when msg.data is not empty\n    fallback() external payable {}\n}",
  "sourcePath": "/Users/blakehatch/Viridian-Exchange-Contracts/contracts/ViridianExchange.sol",
  "compiler": {
    "name": "solc",
    "version": "0.8.9+commit.e5eed63a.Emscripten.clang"
  },
  "schemaVersion": "3.4.1",
  "updatedAt": "2021-10-13T05:50:54.889Z",
  "networkType": "ethereum",
  "devdoc": {
    "kind": "dev",
    "methods": {
      "owner()": {
        "details": "Returns the address of the current owner."
      },
      "renounceOwnership()": {
        "details": "Leaves the contract without owner. It will not be possible to call `onlyOwner` functions anymore. Can only be called by the current owner. NOTE: Renouncing ownership will leave the contract without an owner, thereby removing any functionality that is only available to the owner."
      },
      "transferOwnership(address)": {
        "details": "Transfers ownership of the contract to a new account (`newOwner`). Can only be called by the current owner."
      }
    },
    "version": 1
  },
  "userdoc": {
    "kind": "user",
    "methods": {},
    "version": 1
  }
}