{
  "contractName": "ViridianNFT",
  "abi": [
    {
      "inputs": [],
      "stateMutability": "nonpayable",
      "type": "constructor"
    },
    {
      "anonymous": false,
      "inputs": [
        {
          "indexed": true,
          "internalType": "address",
          "name": "owner",
          "type": "address"
        },
        {
          "indexed": true,
          "internalType": "address",
          "name": "approved",
          "type": "address"
        },
        {
          "indexed": true,
          "internalType": "uint256",
          "name": "tokenId",
          "type": "uint256"
        }
      ],
      "name": "Approval",
      "type": "event"
    },
    {
      "anonymous": false,
      "inputs": [
        {
          "indexed": true,
          "internalType": "address",
          "name": "owner",
          "type": "address"
        },
        {
          "indexed": true,
          "internalType": "address",
          "name": "operator",
          "type": "address"
        },
        {
          "indexed": false,
          "internalType": "bool",
          "name": "approved",
          "type": "bool"
        }
      ],
      "name": "ApprovalForAll",
      "type": "event"
    },
    {
      "anonymous": false,
      "inputs": [
        {
          "indexed": true,
          "internalType": "address",
          "name": "previousOwner",
          "type": "address"
        },
        {
          "indexed": true,
          "internalType": "address",
          "name": "newOwner",
          "type": "address"
        }
      ],
      "name": "OwnershipTransferred",
      "type": "event"
    },
    {
      "anonymous": false,
      "inputs": [
        {
          "indexed": true,
          "internalType": "address",
          "name": "from",
          "type": "address"
        },
        {
          "indexed": true,
          "internalType": "address",
          "name": "to",
          "type": "address"
        },
        {
          "indexed": true,
          "internalType": "uint256",
          "name": "tokenId",
          "type": "uint256"
        }
      ],
      "name": "Transfer",
      "type": "event"
    },
    {
      "inputs": [
        {
          "internalType": "address",
          "name": "to",
          "type": "address"
        },
        {
          "internalType": "uint256",
          "name": "tokenId",
          "type": "uint256"
        }
      ],
      "name": "approve",
      "outputs": [],
      "stateMutability": "nonpayable",
      "type": "function"
    },
    {
      "inputs": [
        {
          "internalType": "address",
          "name": "owner",
          "type": "address"
        }
      ],
      "name": "balanceOf",
      "outputs": [
        {
          "internalType": "uint256",
          "name": "",
          "type": "uint256"
        }
      ],
      "stateMutability": "view",
      "type": "function",
      "constant": true
    },
    {
      "inputs": [
        {
          "internalType": "uint256",
          "name": "tokenId",
          "type": "uint256"
        }
      ],
      "name": "getApproved",
      "outputs": [
        {
          "internalType": "address",
          "name": "",
          "type": "address"
        }
      ],
      "stateMutability": "view",
      "type": "function",
      "constant": true
    },
    {
      "inputs": [
        {
          "internalType": "address",
          "name": "owner",
          "type": "address"
        },
        {
          "internalType": "address",
          "name": "operator",
          "type": "address"
        }
      ],
      "name": "isApprovedForAll",
      "outputs": [
        {
          "internalType": "bool",
          "name": "",
          "type": "bool"
        }
      ],
      "stateMutability": "view",
      "type": "function",
      "constant": true
    },
    {
      "inputs": [
        {
          "internalType": "address",
          "name": "forwarder",
          "type": "address"
        }
      ],
      "name": "isTrustedForwarder",
      "outputs": [
        {
          "internalType": "bool",
          "name": "",
          "type": "bool"
        }
      ],
      "stateMutability": "view",
      "type": "function",
      "constant": true
    },
    {
      "inputs": [],
      "name": "name",
      "outputs": [
        {
          "internalType": "string",
          "name": "",
          "type": "string"
        }
      ],
      "stateMutability": "view",
      "type": "function",
      "constant": true
    },
    {
      "inputs": [],
      "name": "owner",
      "outputs": [
        {
          "internalType": "address",
          "name": "",
          "type": "address"
        }
      ],
      "stateMutability": "view",
      "type": "function",
      "constant": true
    },
    {
      "inputs": [
        {
          "internalType": "uint256",
          "name": "tokenId",
          "type": "uint256"
        }
      ],
      "name": "ownerOf",
      "outputs": [
        {
          "internalType": "address",
          "name": "",
          "type": "address"
        }
      ],
      "stateMutability": "view",
      "type": "function",
      "constant": true
    },
    {
      "inputs": [],
      "name": "renounceOwnership",
      "outputs": [],
      "stateMutability": "nonpayable",
      "type": "function"
    },
    {
      "inputs": [
        {
          "internalType": "address",
          "name": "operator",
          "type": "address"
        },
        {
          "internalType": "bool",
          "name": "approved",
          "type": "bool"
        }
      ],
      "name": "setApprovalForAll",
      "outputs": [],
      "stateMutability": "nonpayable",
      "type": "function"
    },
    {
      "inputs": [
        {
          "internalType": "bytes4",
          "name": "interfaceId",
          "type": "bytes4"
        }
      ],
      "name": "supportsInterface",
      "outputs": [
        {
          "internalType": "bool",
          "name": "",
          "type": "bool"
        }
      ],
      "stateMutability": "view",
      "type": "function",
      "constant": true
    },
    {
      "inputs": [],
      "name": "symbol",
      "outputs": [
        {
          "internalType": "string",
          "name": "",
          "type": "string"
        }
      ],
      "stateMutability": "view",
      "type": "function",
      "constant": true
    },
    {
      "inputs": [
        {
          "internalType": "address",
          "name": "newOwner",
          "type": "address"
        }
      ],
      "name": "transferOwnership",
      "outputs": [],
      "stateMutability": "nonpayable",
      "type": "function"
    },
    {
      "inputs": [],
      "name": "trustedForwarder",
      "outputs": [
        {
          "internalType": "address",
          "name": "",
          "type": "address"
        }
      ],
      "stateMutability": "view",
      "type": "function",
      "constant": true
    },
    {
      "inputs": [],
      "name": "versionRecipient",
      "outputs": [
        {
          "internalType": "string",
          "name": "",
          "type": "string"
        }
      ],
      "stateMutability": "view",
      "type": "function",
      "constant": true
    },
    {
      "inputs": [
        {
          "internalType": "address",
          "name": "_forwarder",
          "type": "address"
        }
      ],
      "name": "setTrustedForwarder",
      "outputs": [],
      "stateMutability": "nonpayable",
      "type": "function"
    },
    {
      "inputs": [
        {
          "internalType": "address",
          "name": "_newAdmin",
          "type": "address"
        }
      ],
      "name": "addAdmin",
      "outputs": [],
      "stateMutability": "nonpayable",
      "type": "function"
    },
    {
      "inputs": [
        {
          "internalType": "address",
          "name": "_newAdmin",
          "type": "address"
        }
      ],
      "name": "removeAdmin",
      "outputs": [],
      "stateMutability": "nonpayable",
      "type": "function"
    },
    {
      "inputs": [
        {
          "internalType": "string",
          "name": "baseURI_",
          "type": "string"
        }
      ],
      "name": "setBaseURI",
      "outputs": [],
      "stateMutability": "nonpayable",
      "type": "function"
    },
    {
      "inputs": [
        {
          "internalType": "uint256",
          "name": "tokenId",
          "type": "uint256"
        },
        {
          "internalType": "string",
          "name": "_tokenURI",
          "type": "string"
        }
      ],
      "name": "_setTokenURI",
      "outputs": [],
      "stateMutability": "nonpayable",
      "type": "function"
    },
    {
      "inputs": [
        {
          "internalType": "uint256",
          "name": "tokenId",
          "type": "uint256"
        }
      ],
      "name": "tokenURI",
      "outputs": [
        {
          "internalType": "string",
          "name": "",
          "type": "string"
        }
      ],
      "stateMutability": "view",
      "type": "function",
      "constant": true
    },
    {
      "inputs": [],
      "name": "getNumNFTs",
      "outputs": [
        {
          "internalType": "uint256",
          "name": "n",
          "type": "uint256"
        }
      ],
      "stateMutability": "view",
      "type": "function",
      "constant": true
    },
    {
      "inputs": [],
      "name": "getNumOwnedNFTs",
      "outputs": [
        {
          "internalType": "uint256",
          "name": "",
          "type": "uint256"
        }
      ],
      "stateMutability": "view",
      "type": "function",
      "constant": true
    },
    {
      "inputs": [],
      "name": "getOwnedNFTs",
      "outputs": [
        {
          "internalType": "uint256[]",
          "name": "",
          "type": "uint256[]"
        }
      ],
      "stateMutability": "view",
      "type": "function",
      "constant": true
    },
    {
      "inputs": [
        {
          "internalType": "address",
          "name": "_to",
          "type": "address"
        },
        {
          "internalType": "string",
          "name": "tokenURI_",
          "type": "string"
        }
      ],
      "name": "mint",
      "outputs": [],
      "stateMutability": "nonpayable",
      "type": "function"
    },
    {
      "inputs": [
        {
          "internalType": "uint256",
          "name": "tokenId",
          "type": "uint256"
        }
      ],
      "name": "isListed",
      "outputs": [
        {
          "internalType": "bool",
          "name": "",
          "type": "bool"
        }
      ],
      "stateMutability": "view",
      "type": "function",
      "constant": true
    },
    {
      "inputs": [
        {
          "internalType": "uint256",
          "name": "tokenId",
          "type": "uint256"
        }
      ],
      "name": "burn",
      "outputs": [],
      "stateMutability": "nonpayable",
      "type": "function"
    },
    {
      "inputs": [
        {
          "internalType": "address",
          "name": "recipient",
          "type": "address"
        },
        {
          "internalType": "string",
          "name": "hash",
          "type": "string"
        },
        {
          "internalType": "string",
          "name": "metadata",
          "type": "string"
        }
      ],
      "name": "awardItem",
      "outputs": [
        {
          "internalType": "uint256",
          "name": "",
          "type": "uint256"
        }
      ],
      "stateMutability": "nonpayable",
      "type": "function"
    },
    {
      "inputs": [
        {
          "internalType": "address",
          "name": "from",
          "type": "address"
        },
        {
          "internalType": "address",
          "name": "to",
          "type": "address"
        },
        {
          "internalType": "uint256",
          "name": "tokenId",
          "type": "uint256"
        }
      ],
      "name": "safeTransferFrom",
      "outputs": [],
      "stateMutability": "nonpayable",
      "type": "function"
    },
    {
      "inputs": [
        {
          "internalType": "address",
          "name": "from",
          "type": "address"
        },
        {
          "internalType": "address",
          "name": "to",
          "type": "address"
        },
        {
          "internalType": "uint256",
          "name": "tokenId",
          "type": "uint256"
        },
        {
          "internalType": "bytes",
          "name": "_data",
          "type": "bytes"
        }
      ],
      "name": "safeTransferFrom",
      "outputs": [],
      "stateMutability": "nonpayable",
      "type": "function"
    },
    {
      "inputs": [
        {
          "internalType": "address",
          "name": "from",
          "type": "address"
        },
        {
          "internalType": "address",
          "name": "to",
          "type": "address"
        },
        {
          "internalType": "uint256",
          "name": "tokenId",
          "type": "uint256"
        }
      ],
      "name": "transferFrom",
      "outputs": [],
      "stateMutability": "nonpayable",
      "type": "function"
    },
    {
      "inputs": [
        {
          "internalType": "uint256",
          "name": "_tokenId",
          "type": "uint256"
        }
      ],
      "name": "listToken",
      "outputs": [],
      "stateMutability": "nonpayable",
      "type": "function"
    },
    {
      "inputs": [
        {
          "internalType": "uint256",
          "name": "_tokenId",
          "type": "uint256"
        }
      ],
      "name": "unlistToken",
      "outputs": [],
      "stateMutability": "nonpayable",
      "type": "function"
    }
  ],
  "bytecode": "0x60806040526040518060400160405280600581526020017f322e322e30000000000000000000000000000000000000000000000000000000815250600b908051906020019062000051929190620002fc565b503480156200005f57600080fd5b506040518060400160405280600c81526020017f566972696469616e204e465400000000000000000000000000000000000000008152506040518060400160405280600481526020017f564e4654000000000000000000000000000000000000000000000000000000008152508160009080519060200190620000e4929190620002fc565b508060019080519060200190620000fd929190620002fc565b50505062000120620001146200017e60201b60201c565b6200019a60201b60201c565b6001600a60003373ffffffffffffffffffffffffffffffffffffffff1673ffffffffffffffffffffffffffffffffffffffff16815260200190815260200160002060006101000a81548160ff02191690831515021790555062000411565b6000620001956200026060201b62001a5d1760201c565b905090565b6000600660009054906101000a900473ffffffffffffffffffffffffffffffffffffffff16905081600660006101000a81548173ffffffffffffffffffffffffffffffffffffffff021916908373ffffffffffffffffffffffffffffffffffffffff1602179055508173ffffffffffffffffffffffffffffffffffffffff168173ffffffffffffffffffffffffffffffffffffffff167f8be0079c531659141344cd1fd0a4f28419497f9722a3daafe3b4186f6b6457e060405160405180910390a35050565b600060146000369050101580156200028557506200028433620002a260201b60201c565b5b156200029b57601436033560601c90506200029f565b3390505b90565b6000600760009054906101000a900473ffffffffffffffffffffffffffffffffffffffff1673ffffffffffffffffffffffffffffffffffffffff168273ffffffffffffffffffffffffffffffffffffffff16149050919050565b8280546200030a90620003db565b90600052602060002090601f0160209004810192826200032e57600085556200037a565b82601f106200034957805160ff19168380011785556200037a565b828001600101855582156200037a579182015b82811115620003795782518255916020019190600101906200035c565b5b5090506200038991906200038d565b5090565b5b80821115620003a85760008160009055506001016200038e565b5090565b7f4e487b7100000000000000000000000000000000000000000000000000000000600052602260045260246000fd5b60006002820490506001821680620003f457607f821691505b602082108114156200040b576200040a620003ac565b5b50919050565b613f3380620004216000396000f3fe608060405234801561001057600080fd5b50600436106101fb5760003560e01c8063715018a61161011a578063bb92c248116100ad578063da7422281161007c578063da7422281461059a578063e6148d5f146105b6578063e985e9c5146105d2578063f2fde38b14610602578063fcce48831461061e576101fb565b8063bb92c24814610512578063bda4e79714610530578063c87b56dd1461054e578063d0def5211461057e576101fb565b806395d89b41116100e957806395d89b41146104a0578063a22cb465146104be578063ad3a358c146104da578063b88d4fde146104f6576101fb565b8063715018a61461042a5780637da0a877146104345780638bfaf101146104525780638da5cb5b14610482576101fb565b806342966c6811610192578063572b6c0511610161578063572b6c051461037e5780636352211e146103ae57806370480275146103de57806370a08231146103fa576101fb565b806342966c681461030a578063486ff0cd146103265780634c0eb7d91461034457806355f804b314610362576101fb565b8063095ea7b3116101ce578063095ea7b31461029a5780631785f53c146102b657806323b872dd146102d257806342842e0e146102ee576101fb565b8063015388681461020057806301ffc9a71461021c57806306fdde031461024c578063081812fc1461026a575b600080fd5b61021a60048036038101906102159190612a94565b61064e565b005b61023660048036038101906102319190612b48565b61073e565b6040516102439190612b90565b60405180910390f35b610254610820565b6040516102619190612c33565b60405180910390f35b610284600480360381019061027f9190612c55565b6108b2565b6040516102919190612cc3565b60405180910390f35b6102b460048036038101906102af9190612d0a565b610937565b005b6102d060048036038101906102cb9190612d4a565b610a4f565b005b6102ec60048036038101906102e79190612d77565b610b26565b005b61030860048036038101906103039190612d77565b610b97565b005b610324600480360381019061031f9190612c55565b610c08565b005b61032e610c27565b60405161033b9190612c33565b60405180910390f35b61034c610cb5565b6040516103599190612e88565b60405180910390f35b61037c60048036038101906103779190612eaa565b610daa565b005b61039860048036038101906103939190612d4a565b610e40565b6040516103a59190612b90565b60405180910390f35b6103c860048036038101906103c39190612c55565b610e9a565b6040516103d59190612cc3565b60405180910390f35b6103f860048036038101906103f39190612d4a565b610f4c565b005b610414600480360381019061040f9190612d4a565b611023565b6040516104219190612f02565b60405180910390f35b6104326110db565b005b61043c611163565b6040516104499190612cc3565b60405180910390f35b61046c60048036038101906104679190612f1d565b61118d565b6040516104799190612f02565b60405180910390f35b61048a61123a565b6040516104979190612cc3565b60405180910390f35b6104a8611264565b6040516104b59190612c33565b60405180910390f35b6104d860048036038101906104d39190612fd4565b6112f6565b005b6104f460048036038101906104ef9190612c55565b611477565b005b610510600480360381019061050b91906130b5565b6114b9565b005b61051a61151b565b6040516105279190612f02565b60405180910390f35b61053861159f565b6040516105459190612f02565b60405180910390f35b61056860048036038101906105639190612c55565b6115b0565b6040516105759190612c33565b60405180910390f35b61059860048036038101906105939190613138565b611723565b005b6105b460048036038101906105af9190612d4a565b6117dd565b005b6105d060048036038101906105cb9190612c55565b611865565b005b6105ec60048036038101906105e79190613194565b6118a7565b6040516105f99190612b90565b60405180910390f35b61061c60048036038101906106179190612d4a565b61193b565b005b61063860048036038101906106339190612c55565b611a33565b6040516106459190612b90565b60405180910390f35b610656611a94565b73ffffffffffffffffffffffffffffffffffffffff1661067461123a565b73ffffffffffffffffffffffffffffffffffffffff16146106ca576040517f08c379a00000000000000000000000000000000000000000000000000000000081526004016106c190613220565b60405180910390fd5b6106d382611aa3565b610712576040517f08c379a0000000000000000000000000000000000000000000000000000000008152600401610709906132b2565b60405180910390fd5b80600c60008481526020019081526020016000209080519060200190610739929190612861565b505050565b60007f80ac58cd000000000000000000000000000000000000000000000000000000007bffffffffffffffffffffffffffffffffffffffffffffffffffffffff1916827bffffffffffffffffffffffffffffffffffffffffffffffffffffffff1916148061080957507f5b5e139f000000000000000000000000000000000000000000000000000000007bffffffffffffffffffffffffffffffffffffffffffffffffffffffff1916827bffffffffffffffffffffffffffffffffffffffffffffffffffffffff1916145b80610819575061081882611b0f565b5b9050919050565b60606000805461082f90613301565b80601f016020809104026020016040519081016040528092919081815260200182805461085b90613301565b80156108a85780601f1061087d576101008083540402835291602001916108a8565b820191906000526020600020905b81548152906001019060200180831161088b57829003601f168201915b5050505050905090565b60006108bd82611aa3565b6108fc576040517f08c379a00000000000000000000000000000000000000000000000000000000081526004016108f3906133a5565b60405180910390fd5b6004600083815260200190815260200160002060009054906101000a900473ffffffffffffffffffffffffffffffffffffffff169050919050565b600061094282610e9a565b90508073ffffffffffffffffffffffffffffffffffffffff168373ffffffffffffffffffffffffffffffffffffffff1614156109b3576040517f08c379a00000000000000000000000000000000000000000000000000000000081526004016109aa90613437565b60405180910390fd5b8073ffffffffffffffffffffffffffffffffffffffff166109d2611a94565b73ffffffffffffffffffffffffffffffffffffffff161480610a015750610a00816109fb611a94565b6118a7565b5b610a40576040517f08c379a0000000000000000000000000000000000000000000000000000000008152600401610a37906134c9565b60405180910390fd5b610a4a8383611b79565b505050565b610a57611a94565b73ffffffffffffffffffffffffffffffffffffffff16610a7561123a565b73ffffffffffffffffffffffffffffffffffffffff1614610acb576040517f08c379a0000000000000000000000000000000000000000000000000000000008152600401610ac290613220565b60405180910390fd5b6000600a60008373ffffffffffffffffffffffffffffffffffffffff1673ffffffffffffffffffffffffffffffffffffffff16815260200190815260200160002060006101000a81548160ff02191690831515021790555050565b600d600082815260200190815260200160002060009054906101000a900460ff1615610b87576040517f08c379a0000000000000000000000000000000000000000000000000000000008152600401610b7e9061355b565b60405180910390fd5b610b92838383611c32565b505050565b600d600082815260200190815260200160002060009054906101000a900460ff1615610bf8576040517f08c379a0000000000000000000000000000000000000000000000000000000008152600401610bef9061355b565b60405180910390fd5b610c03838383611c92565b505050565b610c123382611cb2565b610c1b57600080fd5b610c2481611d90565b50565b600b8054610c3490613301565b80601f0160208091040260200160405190810160405280929190818152602001828054610c6090613301565b8015610cad5780601f10610c8257610100808354040283529160200191610cad565b820191906000526020600020905b815481529060010190602001808311610c9057829003601f168201915b505050505081565b60606000610cc161151b565b67ffffffffffffffff811115610cda57610cd9612969565b5b604051908082528060200260200182016040528015610d085781602001602082028036833780820191505090505b509050600080600190505b610d1d6008611ea1565b8111610da1573373ffffffffffffffffffffffffffffffffffffffff16610d4382610e9a565b73ffffffffffffffffffffffffffffffffffffffff161415610d8e5780838381518110610d7357610d7261357b565b5b6020026020010181815250508180610d8a906135d9565b9250505b8080610d99906135d9565b915050610d13565b50819250505090565b610db2611a94565b73ffffffffffffffffffffffffffffffffffffffff16610dd061123a565b73ffffffffffffffffffffffffffffffffffffffff1614610e26576040517f08c379a0000000000000000000000000000000000000000000000000000000008152600401610e1d90613220565b60405180910390fd5b80600e9080519060200190610e3c929190612861565b5050565b6000600760009054906101000a900473ffffffffffffffffffffffffffffffffffffffff1673ffffffffffffffffffffffffffffffffffffffff168273ffffffffffffffffffffffffffffffffffffffff16149050919050565b6000806002600084815260200190815260200160002060009054906101000a900473ffffffffffffffffffffffffffffffffffffffff169050600073ffffffffffffffffffffffffffffffffffffffff168173ffffffffffffffffffffffffffffffffffffffff161415610f43576040517f08c379a0000000000000000000000000000000000000000000000000000000008152600401610f3a90613694565b60405180910390fd5b80915050919050565b610f54611a94565b73ffffffffffffffffffffffffffffffffffffffff16610f7261123a565b73ffffffffffffffffffffffffffffffffffffffff1614610fc8576040517f08c379a0000000000000000000000000000000000000000000000000000000008152600401610fbf90613220565b60405180910390fd5b6001600a60008373ffffffffffffffffffffffffffffffffffffffff1673ffffffffffffffffffffffffffffffffffffffff16815260200190815260200160002060006101000a81548160ff02191690831515021790555050565b60008073ffffffffffffffffffffffffffffffffffffffff168273ffffffffffffffffffffffffffffffffffffffff161415611094576040517f08c379a000000000000000000000000000000000000000000000000000000000815260040161108b90613726565b60405180910390fd5b600360008373ffffffffffffffffffffffffffffffffffffffff1673ffffffffffffffffffffffffffffffffffffffff168152602001908152602001600020549050919050565b6110e3611a94565b73ffffffffffffffffffffffffffffffffffffffff1661110161123a565b73ffffffffffffffffffffffffffffffffffffffff1614611157576040517f08c379a000000000000000000000000000000000000000000000000000000000815260040161114e90613220565b60405180910390fd5b6111616000611eaf565b565b6000600760009054906101000a900473ffffffffffffffffffffffffffffffffffffffff16905090565b600060016009846040516111a19190613782565b908152602001604051809103902060009054906101000a900460ff1660ff1614156111cb57600080fd5b60016009846040516111dd9190613782565b908152602001604051809103902060006101000a81548160ff021916908360ff16021790555061120d6008611f75565b60006112196008611ea1565b90506112258582611f8b565b61122f818461064e565b809150509392505050565b6000600660009054906101000a900473ffffffffffffffffffffffffffffffffffffffff16905090565b60606001805461127390613301565b80601f016020809104026020016040519081016040528092919081815260200182805461129f90613301565b80156112ec5780601f106112c1576101008083540402835291602001916112ec565b820191906000526020600020905b8154815290600101906020018083116112cf57829003601f168201915b5050505050905090565b6112fe611a94565b73ffffffffffffffffffffffffffffffffffffffff168273ffffffffffffffffffffffffffffffffffffffff16141561136c576040517f08c379a0000000000000000000000000000000000000000000000000000000008152600401611363906137e5565b60405180910390fd5b8060056000611379611a94565b73ffffffffffffffffffffffffffffffffffffffff1673ffffffffffffffffffffffffffffffffffffffff16815260200190815260200160002060008473ffffffffffffffffffffffffffffffffffffffff1673ffffffffffffffffffffffffffffffffffffffff16815260200190815260200160002060006101000a81548160ff0219169083151502179055508173ffffffffffffffffffffffffffffffffffffffff16611426611a94565b73ffffffffffffffffffffffffffffffffffffffff167f17307eab39ab6107e8899845ad3d59bd9653f200f220920489ca2b5937696c318360405161146b9190612b90565b60405180910390a35050565b6114813382611cb2565b61148a57600080fd5b6000600d600083815260200190815260200160002060006101000a81548160ff02191690831515021790555050565b6114ca6114c4611a94565b83611cb2565b611509576040517f08c379a000000000000000000000000000000000000000000000000000000000815260040161150090613877565b60405180910390fd5b61151584848484612159565b50505050565b600080600090506000600190505b6115336008611ea1565b8111611597573373ffffffffffffffffffffffffffffffffffffffff1661155982610e9a565b73ffffffffffffffffffffffffffffffffffffffff161415611584578180611580906135d9565b9250505b808061158f906135d9565b915050611529565b508091505090565b60006115ab6008611ea1565b905090565b60606115bb82611aa3565b6115fa576040517f08c379a00000000000000000000000000000000000000000000000000000000081526004016115f190613909565b60405180910390fd5b6000600c6000848152602001908152602001600020805461161a90613301565b80601f016020809104026020016040519081016040528092919081815260200182805461164690613301565b80156116935780601f1061166857610100808354040283529160200191611693565b820191906000526020600020905b81548152906001019060200180831161167657829003601f168201915b5050505050905060006116a46121b5565b90506000815114156116ba57819250505061171e565b6000825111156116ef5780826040516020016116d7929190613929565b6040516020818303038152906040529250505061171e565b806116f985612247565b60405160200161170a929190613929565b604051602081830303815290604052925050505b919050565b60011515600a60003373ffffffffffffffffffffffffffffffffffffffff1673ffffffffffffffffffffffffffffffffffffffff16815260200190815260200160002060009054906101000a900460ff1615151461178057600080fd5b61178a6008611f75565b60006117966008611ea1565b90506117a283826123a8565b6000600d600083815260200190815260200160002060006101000a81548160ff0219169083151502179055506117d8818361064e565b505050565b6117e5611a94565b73ffffffffffffffffffffffffffffffffffffffff1661180361123a565b73ffffffffffffffffffffffffffffffffffffffff1614611859576040517f08c379a000000000000000000000000000000000000000000000000000000000815260040161185090613220565b60405180910390fd5b611862816123c6565b50565b61186f3382611cb2565b61187857600080fd5b6001600d600083815260200190815260200160002060006101000a81548160ff02191690831515021790555050565b6000600560008473ffffffffffffffffffffffffffffffffffffffff1673ffffffffffffffffffffffffffffffffffffffff16815260200190815260200160002060008373ffffffffffffffffffffffffffffffffffffffff1673ffffffffffffffffffffffffffffffffffffffff16815260200190815260200160002060009054906101000a900460ff16905092915050565b611943611a94565b73ffffffffffffffffffffffffffffffffffffffff1661196161123a565b73ffffffffffffffffffffffffffffffffffffffff16146119b7576040517f08c379a00000000000000000000000000000000000000000000000000000000081526004016119ae90613220565b60405180910390fd5b600073ffffffffffffffffffffffffffffffffffffffff168173ffffffffffffffffffffffffffffffffffffffff161415611a27576040517f08c379a0000000000000000000000000000000000000000000000000000000008152600401611a1e906139bf565b60405180910390fd5b611a3081611eaf565b50565b6000600d600083815260200190815260200160002060009054906101000a900460ff169050919050565b60006014600036905010158015611a795750611a7833610e40565b5b15611a8d57601436033560601c9050611a91565b3390505b90565b6000611a9e611a5d565b905090565b60008073ffffffffffffffffffffffffffffffffffffffff166002600084815260200190815260200160002060009054906101000a900473ffffffffffffffffffffffffffffffffffffffff1673ffffffffffffffffffffffffffffffffffffffff1614159050919050565b60007f01ffc9a7000000000000000000000000000000000000000000000000000000007bffffffffffffffffffffffffffffffffffffffffffffffffffffffff1916827bffffffffffffffffffffffffffffffffffffffffffffffffffffffff1916149050919050565b816004600083815260200190815260200160002060006101000a81548173ffffffffffffffffffffffffffffffffffffffff021916908373ffffffffffffffffffffffffffffffffffffffff160217905550808273ffffffffffffffffffffffffffffffffffffffff16611bec83610e9a565b73ffffffffffffffffffffffffffffffffffffffff167f8c5be1e5ebec7d5bd14f71427d1e84f3dd0314c0f7b2291e5b200ac8c7c3b92560405160405180910390a45050565b611c43611c3d611a94565b82611cb2565b611c82576040517f08c379a0000000000000000000000000000000000000000000000000000000008152600401611c7990613877565b60405180910390fd5b611c8d83838361240a565b505050565b611cad838383604051806020016040528060008152506114b9565b505050565b6000611cbd82611aa3565b611cfc576040517f08c379a0000000000000000000000000000000000000000000000000000000008152600401611cf390613a51565b60405180910390fd5b6000611d0783610e9a565b90508073ffffffffffffffffffffffffffffffffffffffff168473ffffffffffffffffffffffffffffffffffffffff161480611d7657508373ffffffffffffffffffffffffffffffffffffffff16611d5e846108b2565b73ffffffffffffffffffffffffffffffffffffffff16145b80611d875750611d8681856118a7565b5b91505092915050565b6000611d9b82610e9a565b9050611da981600084612666565b611db4600083611b79565b6001600360008373ffffffffffffffffffffffffffffffffffffffff1673ffffffffffffffffffffffffffffffffffffffff1681526020019081526020016000206000828254611e049190613a71565b925050819055506002600083815260200190815260200160002060006101000a81549073ffffffffffffffffffffffffffffffffffffffff021916905581600073ffffffffffffffffffffffffffffffffffffffff168273ffffffffffffffffffffffffffffffffffffffff167fddf252ad1be2c89b69c2b068fc378daa952ba7f163c4a11628f55a4df523b3ef60405160405180910390a45050565b600081600001549050919050565b6000600660009054906101000a900473ffffffffffffffffffffffffffffffffffffffff16905081600660006101000a81548173ffffffffffffffffffffffffffffffffffffffff021916908373ffffffffffffffffffffffffffffffffffffffff1602179055508173ffffffffffffffffffffffffffffffffffffffff168173ffffffffffffffffffffffffffffffffffffffff167f8be0079c531659141344cd1fd0a4f28419497f9722a3daafe3b4186f6b6457e060405160405180910390a35050565b6001816000016000828254019250508190555050565b600073ffffffffffffffffffffffffffffffffffffffff168273ffffffffffffffffffffffffffffffffffffffff161415611ffb576040517f08c379a0000000000000000000000000000000000000000000000000000000008152600401611ff290613af1565b60405180910390fd5b61200481611aa3565b15612044576040517f08c379a000000000000000000000000000000000000000000000000000000000815260040161203b90613b5d565b60405180910390fd5b61205060008383612666565b6001600360008473ffffffffffffffffffffffffffffffffffffffff1673ffffffffffffffffffffffffffffffffffffffff16815260200190815260200160002060008282546120a09190613b7d565b92505081905550816002600083815260200190815260200160002060006101000a81548173ffffffffffffffffffffffffffffffffffffffff021916908373ffffffffffffffffffffffffffffffffffffffff160217905550808273ffffffffffffffffffffffffffffffffffffffff16600073ffffffffffffffffffffffffffffffffffffffff167fddf252ad1be2c89b69c2b068fc378daa952ba7f163c4a11628f55a4df523b3ef60405160405180910390a45050565b61216484848461240a565b6121708484848461266b565b6121af576040517f08c379a00000000000000000000000000000000000000000000000000000000081526004016121a690613c45565b60405180910390fd5b50505050565b6060600e80546121c490613301565b80601f01602080910402602001604051908101604052809291908181526020018280546121f090613301565b801561223d5780601f106122125761010080835404028352916020019161223d565b820191906000526020600020905b81548152906001019060200180831161222057829003601f168201915b5050505050905090565b6060600082141561228f576040518060400160405280600181526020017f300000000000000000000000000000000000000000000000000000000000000081525090506123a3565b600082905060005b600082146122c15780806122aa906135d9565b915050600a826122ba9190613c94565b9150612297565b60008167ffffffffffffffff8111156122dd576122dc612969565b5b6040519080825280601f01601f19166020018201604052801561230f5781602001600182028036833780820191505090505b5090505b6000851461239c576001826123289190613a71565b9150600a856123379190613cc5565b60306123439190613b7d565b60f81b8183815181106123595761235861357b565b5b60200101907effffffffffffffffffffffffffffffffffffffffffffffffffffffffffffff1916908160001a905350600a856123959190613c94565b9450612313565b8093505050505b919050565b6123c28282604051806020016040528060008152506127f3565b5050565b80600760006101000a81548173ffffffffffffffffffffffffffffffffffffffff021916908373ffffffffffffffffffffffffffffffffffffffff16021790555050565b8273ffffffffffffffffffffffffffffffffffffffff1661242a82610e9a565b73ffffffffffffffffffffffffffffffffffffffff1614612480576040517f08c379a000000000000000000000000000000000000000000000000000000000815260040161247790613d68565b60405180910390fd5b600073ffffffffffffffffffffffffffffffffffffffff168273ffffffffffffffffffffffffffffffffffffffff1614156124f0576040517f08c379a00000000000000000000000000000000000000000000000000000000081526004016124e790613dfa565b60405180910390fd5b6124fb838383612666565b612506600082611b79565b6001600360008573ffffffffffffffffffffffffffffffffffffffff1673ffffffffffffffffffffffffffffffffffffffff16815260200190815260200160002060008282546125569190613a71565b925050819055506001600360008473ffffffffffffffffffffffffffffffffffffffff1673ffffffffffffffffffffffffffffffffffffffff16815260200190815260200160002060008282546125ad9190613b7d565b92505081905550816002600083815260200190815260200160002060006101000a81548173ffffffffffffffffffffffffffffffffffffffff021916908373ffffffffffffffffffffffffffffffffffffffff160217905550808273ffffffffffffffffffffffffffffffffffffffff168473ffffffffffffffffffffffffffffffffffffffff167fddf252ad1be2c89b69c2b068fc378daa952ba7f163c4a11628f55a4df523b3ef60405160405180910390a4505050565b505050565b600061268c8473ffffffffffffffffffffffffffffffffffffffff1661284e565b156127e6578373ffffffffffffffffffffffffffffffffffffffff1663150b7a026126b5611a94565b8786866040518563ffffffff1660e01b81526004016126d79493929190613e6f565b6020604051808303816000875af192505050801561271357506040513d601f19601f820116820180604052508101906127109190613ed0565b60015b612796573d8060008114612743576040519150601f19603f3d011682016040523d82523d6000602084013e612748565b606091505b5060008151141561278e576040517f08c379a000000000000000000000000000000000000000000000000000000000815260040161278590613c45565b60405180910390fd5b805181602001fd5b63150b7a0260e01b7bffffffffffffffffffffffffffffffffffffffffffffffffffffffff1916817bffffffffffffffffffffffffffffffffffffffffffffffffffffffff1916149150506127eb565b600190505b949350505050565b6127fd8383611f8b565b61280a600084848461266b565b612849576040517f08c379a000000000000000000000000000000000000000000000000000000000815260040161284090613c45565b60405180910390fd5b505050565b600080823b905060008111915050919050565b82805461286d90613301565b90600052602060002090601f01602090048101928261288f57600085556128d6565b82601f106128a857805160ff19168380011785556128d6565b828001600101855582156128d6579182015b828111156128d55782518255916020019190600101906128ba565b5b5090506128e391906128e7565b5090565b5b808211156129005760008160009055506001016128e8565b5090565b6000604051905090565b600080fd5b600080fd5b6000819050919050565b61292b81612918565b811461293657600080fd5b50565b60008135905061294881612922565b92915050565b600080fd5b600080fd5b6000601f19601f8301169050919050565b7f4e487b7100000000000000000000000000000000000000000000000000000000600052604160045260246000fd5b6129a182612958565b810181811067ffffffffffffffff821117156129c0576129bf612969565b5b80604052505050565b60006129d3612904565b90506129df8282612998565b919050565b600067ffffffffffffffff8211156129ff576129fe612969565b5b612a0882612958565b9050602081019050919050565b82818337600083830152505050565b6000612a37612a32846129e4565b6129c9565b905082815260208101848484011115612a5357612a52612953565b5b612a5e848285612a15565b509392505050565b600082601f830112612a7b57612a7a61294e565b5b8135612a8b848260208601612a24565b91505092915050565b60008060408385031215612aab57612aaa61290e565b5b6000612ab985828601612939565b925050602083013567ffffffffffffffff811115612ada57612ad9612913565b5b612ae685828601612a66565b9150509250929050565b60007fffffffff0000000000000000000000000000000000000000000000000000000082169050919050565b612b2581612af0565b8114612b3057600080fd5b50565b600081359050612b4281612b1c565b92915050565b600060208284031215612b5e57612b5d61290e565b5b6000612b6c84828501612b33565b91505092915050565b60008115159050919050565b612b8a81612b75565b82525050565b6000602082019050612ba56000830184612b81565b92915050565b600081519050919050565b600082825260208201905092915050565b60005b83811015612be5578082015181840152602081019050612bca565b83811115612bf4576000848401525b50505050565b6000612c0582612bab565b612c0f8185612bb6565b9350612c1f818560208601612bc7565b612c2881612958565b840191505092915050565b60006020820190508181036000830152612c4d8184612bfa565b905092915050565b600060208284031215612c6b57612c6a61290e565b5b6000612c7984828501612939565b91505092915050565b600073ffffffffffffffffffffffffffffffffffffffff82169050919050565b6000612cad82612c82565b9050919050565b612cbd81612ca2565b82525050565b6000602082019050612cd86000830184612cb4565b92915050565b612ce781612ca2565b8114612cf257600080fd5b50565b600081359050612d0481612cde565b92915050565b60008060408385031215612d2157612d2061290e565b5b6000612d2f85828601612cf5565b9250506020612d4085828601612939565b9150509250929050565b600060208284031215612d6057612d5f61290e565b5b6000612d6e84828501612cf5565b91505092915050565b600080600060608486031215612d9057612d8f61290e565b5b6000612d9e86828701612cf5565b9350506020612daf86828701612cf5565b9250506040612dc086828701612939565b9150509250925092565b600081519050919050565b600082825260208201905092915050565b6000819050602082019050919050565b612dff81612918565b82525050565b6000612e118383612df6565b60208301905092915050565b6000602082019050919050565b6000612e3582612dca565b612e3f8185612dd5565b9350612e4a83612de6565b8060005b83811015612e7b578151612e628882612e05565b9750612e6d83612e1d565b925050600181019050612e4e565b5085935050505092915050565b60006020820190508181036000830152612ea28184612e2a565b905092915050565b600060208284031215612ec057612ebf61290e565b5b600082013567ffffffffffffffff811115612ede57612edd612913565b5b612eea84828501612a66565b91505092915050565b612efc81612918565b82525050565b6000602082019050612f176000830184612ef3565b92915050565b600080600060608486031215612f3657612f3561290e565b5b6000612f4486828701612cf5565b935050602084013567ffffffffffffffff811115612f6557612f64612913565b5b612f7186828701612a66565b925050604084013567ffffffffffffffff811115612f9257612f91612913565b5b612f9e86828701612a66565b9150509250925092565b612fb181612b75565b8114612fbc57600080fd5b50565b600081359050612fce81612fa8565b92915050565b60008060408385031215612feb57612fea61290e565b5b6000612ff985828601612cf5565b925050602061300a85828601612fbf565b9150509250929050565b600067ffffffffffffffff82111561302f5761302e612969565b5b61303882612958565b9050602081019050919050565b600061305861305384613014565b6129c9565b90508281526020810184848401111561307457613073612953565b5b61307f848285612a15565b509392505050565b600082601f83011261309c5761309b61294e565b5b81356130ac848260208601613045565b91505092915050565b600080600080608085870312156130cf576130ce61290e565b5b60006130dd87828801612cf5565b94505060206130ee87828801612cf5565b93505060406130ff87828801612939565b925050606085013567ffffffffffffffff8111156131205761311f612913565b5b61312c87828801613087565b91505092959194509250565b6000806040838503121561314f5761314e61290e565b5b600061315d85828601612cf5565b925050602083013567ffffffffffffffff81111561317e5761317d612913565b5b61318a85828601612a66565b9150509250929050565b600080604083850312156131ab576131aa61290e565b5b60006131b985828601612cf5565b92505060206131ca85828601612cf5565b9150509250929050565b7f4f776e61626c653a2063616c6c6572206973206e6f7420746865206f776e6572600082015250565b600061320a602083612bb6565b9150613215826131d4565b602082019050919050565b60006020820190508181036000830152613239816131fd565b9050919050565b7f4552433732314d657461646174613a2055524920736574206f66206e6f6e657860008201527f697374656e7420746f6b656e0000000000000000000000000000000000000000602082015250565b600061329c602c83612bb6565b91506132a782613240565b604082019050919050565b600060208201905081810360008301526132cb8161328f565b9050919050565b7f4e487b7100000000000000000000000000000000000000000000000000000000600052602260045260246000fd5b6000600282049050600182168061331957607f821691505b6020821081141561332d5761332c6132d2565b5b50919050565b7f4552433732313a20617070726f76656420717565727920666f72206e6f6e657860008201527f697374656e7420746f6b656e0000000000000000000000000000000000000000602082015250565b600061338f602c83612bb6565b915061339a82613333565b604082019050919050565b600060208201905081810360008301526133be81613382565b9050919050565b7f4552433732313a20617070726f76616c20746f2063757272656e74206f776e6560008201527f7200000000000000000000000000000000000000000000000000000000000000602082015250565b6000613421602183612bb6565b915061342c826133c5565b604082019050919050565b6000602082019050818103600083015261345081613414565b9050919050565b7f4552433732313a20617070726f76652063616c6c6572206973206e6f74206f7760008201527f6e6572206e6f7220617070726f76656420666f7220616c6c0000000000000000602082015250565b60006134b3603883612bb6565b91506134be82613457565b604082019050919050565b600060208201905081810360008301526134e2816134a6565b9050919050565b7f566972696469616e204e46543a2043616e6e6f74207472616e7366657220776860008201527f696c65206c6973746564206f6e20566972696469616e2045786368616e676500602082015250565b6000613545603f83612bb6565b9150613550826134e9565b604082019050919050565b6000602082019050818103600083015261357481613538565b9050919050565b7f4e487b7100000000000000000000000000000000000000000000000000000000600052603260045260246000fd5b7f4e487b7100000000000000000000000000000000000000000000000000000000600052601160045260246000fd5b60006135e482612918565b91507fffffffffffffffffffffffffffffffffffffffffffffffffffffffffffffffff821415613617576136166135aa565b5b600182019050919050565b7f4552433732313a206f776e657220717565727920666f72206e6f6e657869737460008201527f656e7420746f6b656e0000000000000000000000000000000000000000000000602082015250565b600061367e602983612bb6565b915061368982613622565b604082019050919050565b600060208201905081810360008301526136ad81613671565b9050919050565b7f4552433732313a2062616c616e636520717565727920666f7220746865207a6560008201527f726f206164647265737300000000000000000000000000000000000000000000602082015250565b6000613710602a83612bb6565b915061371b826136b4565b604082019050919050565b6000602082019050818103600083015261373f81613703565b9050919050565b600081905092915050565b600061375c82612bab565b6137668185613746565b9350613776818560208601612bc7565b80840191505092915050565b600061378e8284613751565b915081905092915050565b7f4552433732313a20617070726f766520746f2063616c6c657200000000000000600082015250565b60006137cf601983612bb6565b91506137da82613799565b602082019050919050565b600060208201905081810360008301526137fe816137c2565b9050919050565b7f4552433732313a207472616e736665722063616c6c6572206973206e6f74206f60008201527f776e6572206e6f7220617070726f766564000000000000000000000000000000602082015250565b6000613861603183612bb6565b915061386c82613805565b604082019050919050565b6000602082019050818103600083015261389081613854565b9050919050565b7f4552433732314d657461646174613a2055524920717565727920666f72206e6f60008201527f6e6578697374656e7420746f6b656e0000000000000000000000000000000000602082015250565b60006138f3602f83612bb6565b91506138fe82613897565b604082019050919050565b60006020820190508181036000830152613922816138e6565b9050919050565b60006139358285613751565b91506139418284613751565b91508190509392505050565b7f4f776e61626c653a206e6577206f776e657220697320746865207a65726f206160008201527f6464726573730000000000000000000000000000000000000000000000000000602082015250565b60006139a9602683612bb6565b91506139b48261394d565b604082019050919050565b600060208201905081810360008301526139d88161399c565b9050919050565b7f4552433732313a206f70657261746f7220717565727920666f72206e6f6e657860008201527f697374656e7420746f6b656e0000000000000000000000000000000000000000602082015250565b6000613a3b602c83612bb6565b9150613a46826139df565b604082019050919050565b60006020820190508181036000830152613a6a81613a2e565b9050919050565b6000613a7c82612918565b9150613a8783612918565b925082821015613a9a57613a996135aa565b5b828203905092915050565b7f4552433732313a206d696e7420746f20746865207a65726f2061646472657373600082015250565b6000613adb602083612bb6565b9150613ae682613aa5565b602082019050919050565b60006020820190508181036000830152613b0a81613ace565b9050919050565b7f4552433732313a20746f6b656e20616c7265616479206d696e74656400000000600082015250565b6000613b47601c83612bb6565b9150613b5282613b11565b602082019050919050565b60006020820190508181036000830152613b7681613b3a565b9050919050565b6000613b8882612918565b9150613b9383612918565b9250827fffffffffffffffffffffffffffffffffffffffffffffffffffffffffffffffff03821115613bc857613bc76135aa565b5b828201905092915050565b7f4552433732313a207472616e7366657220746f206e6f6e20455243373231526560008201527f63656976657220696d706c656d656e7465720000000000000000000000000000602082015250565b6000613c2f603283612bb6565b9150613c3a82613bd3565b604082019050919050565b60006020820190508181036000830152613c5e81613c22565b9050919050565b7f4e487b7100000000000000000000000000000000000000000000000000000000600052601260045260246000fd5b6000613c9f82612918565b9150613caa83612918565b925082613cba57613cb9613c65565b5b828204905092915050565b6000613cd082612918565b9150613cdb83612918565b925082613ceb57613cea613c65565b5b828206905092915050565b7f4552433732313a207472616e73666572206f6620746f6b656e2074686174206960008201527f73206e6f74206f776e0000000000000000000000000000000000000000000000602082015250565b6000613d52602983612bb6565b9150613d5d82613cf6565b604082019050919050565b60006020820190508181036000830152613d8181613d45565b9050919050565b7f4552433732313a207472616e7366657220746f20746865207a65726f2061646460008201527f7265737300000000000000000000000000000000000000000000000000000000602082015250565b6000613de4602483612bb6565b9150613def82613d88565b604082019050919050565b60006020820190508181036000830152613e1381613dd7565b9050919050565b600081519050919050565b600082825260208201905092915050565b6000613e4182613e1a565b613e4b8185613e25565b9350613e5b818560208601612bc7565b613e6481612958565b840191505092915050565b6000608082019050613e846000830187612cb4565b613e916020830186612cb4565b613e9e6040830185612ef3565b8181036060830152613eb08184613e36565b905095945050505050565b600081519050613eca81612b1c565b92915050565b600060208284031215613ee657613ee561290e565b5b6000613ef484828501613ebb565b9150509291505056fea2646970667358221220c98453698c2bc81bcca27bbb1749b1a5423205403038b29df0e393ad4877b7a364736f6c634300080b0033",
  "immutableReferences": {},
  "source": "pragma solidity ^0.8.0;\n\nimport \"@openzeppelin/contracts/token/ERC721/ERC721.sol\";\nimport \"@openzeppelin/contracts/utils/Counters.sol\";\nimport \"@openzeppelin/contracts/access/Ownable.sol\";\nimport \"@opengsn/contracts/src/BaseRelayRecipient.sol\";\n\ncontract ViridianNFT is ERC721, Ownable, BaseRelayRecipient {\n\n    using Counters for Counters.Counter;\n    Counters.Counter private _tokenIds;\n    mapping(string => uint8) hashes;\n    \n    mapping(address => bool) admins;\n    \n    // constructor(address _imx) ERC721(\"Viridian NFT\", \"VNFT\") Mintable(_msgSender(), _imx) {\n    //     admins[_msgSender()] = true;\n    // }\n\n    constructor(/*address _forwarder*/) ERC721(\"Viridian NFT\", \"VNFT\") {\n        //_setTrustedForwarder(_forwarder);\n        \n        admins[msg.sender] = true;\n    }\n\n    string public override versionRecipient = \"2.2.0\";\n\n    function setTrustedForwarder(address _forwarder) public onlyOwner() {\n        _setTrustedForwarder(_forwarder);\n    }\n\n    using Strings for uint256;\n\n    //TODO: Maybe add restrictions to NFT usage when it is listed on the exchange, do not allow ownership transfer \n    // while it is listed for sale or offer to avoid issues with invalid purchasing, or just protect from transactions going through\n    // on exchange, ask someone about this scenario.\n\n\n    // Optional mapping for token URIs\n    mapping (uint256 => string) private _tokenURIs;\n\n    //mapping(uint256 => bytes) public blueprints;\n\n    mapping (uint256 => bool) private _tokensListed;\n\n    //address private viridianExchangeAddress;\n\n    // Base URI\n    string private _baseURIextended;\n\n    modifier onlyAdmin() {\n        require(admins[msg.sender] == true);\n            _;\n    }\n\n    function _msgSender() internal view override(Context, BaseRelayRecipient) returns (address sender) {\n        sender = BaseRelayRecipient._msgSender();\n    }\n\n    function _msgData() internal view override(Context, BaseRelayRecipient) returns (bytes memory) {\n        return BaseRelayRecipient._msgData();\n    }\n\n    function addAdmin(address _newAdmin) external onlyOwner() {\n        admins[_newAdmin] = true;\n    }\n\n    function removeAdmin(address _newAdmin) external onlyOwner() {\n        admins[_newAdmin] = false;\n    }\n\n    // function setExchangeAddress(address ea) public onlyOwner() {\n    //     viridianExchangeAddress = ea;\n    // }\n    \n    function setBaseURI(string memory baseURI_) external onlyOwner() {\n        _baseURIextended = baseURI_;\n    }\n    \n    function _setTokenURI(uint256 tokenId, string memory _tokenURI) public virtual onlyOwner() {\n        require(_exists(tokenId), \"ERC721Metadata: URI set of nonexistent token\");\n        _tokenURIs[tokenId] = _tokenURI;\n    }\n    \n    function _baseURI() internal view virtual override returns (string memory) {\n        return _baseURIextended;\n    }\n    \n    function tokenURI(uint256 tokenId) public view virtual override returns (string memory) {\n        require(_exists(tokenId), \"ERC721Metadata: URI query for nonexistent token\");\n\n        string memory _tokenURI = _tokenURIs[tokenId];\n        string memory base = _baseURI();\n        \n        // If there is no base URI, return the token URI.\n        if (bytes(base).length == 0) {\n            return _tokenURI;\n        }\n        // If both are set, concatenate the baseURI and tokenURI (via abi.encodePacked).\n        if (bytes(_tokenURI).length > 0) {\n            return string(abi.encodePacked(base, _tokenURI));\n        }\n        // If there is a baseURI but no tokenURI, concatenate the tokenID to the baseURI.\n        return string(abi.encodePacked(base, tokenId.toString()));\n    }\n\n    function getNumNFTs() public view returns (uint256 n) {\n        return _tokenIds.current();\n    }\n\n    function getNumOwnedNFTs() public view virtual returns (uint256) {\n        uint256 numOwnedNFTs = 0;\n\n        for (uint256 i = 1; i <= _tokenIds.current(); i++) {\n            if (ownerOf(i) == msg.sender) {\n                numOwnedNFTs++;\n            }\n        }\n\n        return numOwnedNFTs;\n    }\n \n    function getOwnedNFTs() public view virtual returns (uint256[] memory) {\n\n        uint256[] memory _tokens = new uint256[](getNumOwnedNFTs());\n\n        uint256 curIndex = 0;\n\n        for (uint256 i = 1; i <= _tokenIds.current(); i++) {\n            if (ownerOf(i) == msg.sender) {\n                _tokens[curIndex] = i;\n                curIndex++;\n            }\n        }\n        \n        return _tokens;\n    }\n\n    function mint(\n        address _to,\n        string memory tokenURI_\n    ) external onlyAdmin() {\n        _tokenIds.increment();\n        uint256 _tokenId = _tokenIds.current();\n\n        _safeMint(_to, _tokenId);\n        _tokensListed[_tokenId] = false;\n        _setTokenURI(_tokenId, tokenURI_);\n    }\n\n    function isListed(uint256 tokenId) public view returns (bool) {\n        return _tokensListed[tokenId];\n    }\n\n    function burn(uint256 tokenId) public {\n        require(_isApprovedOrOwner(msg.sender, tokenId));\n\n        _burn(tokenId);\n    }\n\n    function awardItem(address recipient, string memory hash, string memory metadata) public returns (uint256) {\n        require(hashes[hash] != 1);\n        hashes[hash] = 1;\n        _tokenIds.increment();\n        uint256 newItemId = _tokenIds.current();\n        _mint(recipient, newItemId);\n        _setTokenURI(newItemId, metadata);\n        return newItemId;\n    }\n\n    function safeTransferFrom(address from, address to, uint256 tokenId) public override {\n        require(!_tokensListed[tokenId], \"Viridian NFT: Cannot transfer while listed on Viridian Exchange\");\n\n        super.safeTransferFrom(from, to, tokenId);\n    }\n\n    function transferFrom(address from, address to, uint256 tokenId) public override {\n        require(!_tokensListed[tokenId], \"Viridian NFT: Cannot transfer while listed on Viridian Exchange\");\n\n        super.transferFrom(from, to, tokenId);\n    }\n\n    function listToken(uint256 _tokenId) public {\n        require(_isApprovedOrOwner(msg.sender, _tokenId));\n        _tokensListed[_tokenId] = true;\n    }\n\n    function unlistToken(uint256 _tokenId) public {\n        require(_isApprovedOrOwner(msg.sender, _tokenId));\n        _tokensListed[_tokenId] = false;\n    }\n}",
  "sourcePath": "/Users/blakehatch/Viridian-Exchange-Contracts/contracts/ViridianNFT.sol",
  "compiler": {
    "name": "solc",
    "version": "0.8.11+commit.d7f03943.Emscripten.clang"
  },
  "schemaVersion": "3.4.1",
  "updatedAt": "2021-12-28T17:51:30.566Z",
  "networkType": "ethereum",
  "devdoc": {
    "kind": "dev",
    "methods": {
      "approve(address,uint256)": {
        "details": "See {IERC721-approve}."
      },
      "balanceOf(address)": {
        "details": "See {IERC721-balanceOf}."
      },
      "getApproved(uint256)": {
        "details": "See {IERC721-getApproved}."
      },
      "isApprovedForAll(address,address)": {
        "details": "See {IERC721-isApprovedForAll}."
      },
      "name()": {
        "details": "See {IERC721Metadata-name}."
      },
      "owner()": {
        "details": "Returns the address of the current owner."
      },
      "ownerOf(uint256)": {
        "details": "See {IERC721-ownerOf}."
      },
      "renounceOwnership()": {
        "details": "Leaves the contract without owner. It will not be possible to call `onlyOwner` functions anymore. Can only be called by the current owner. NOTE: Renouncing ownership will leave the contract without an owner, thereby removing any functionality that is only available to the owner."
      },
      "safeTransferFrom(address,address,uint256)": {
        "details": "See {IERC721-safeTransferFrom}."
      },
      "safeTransferFrom(address,address,uint256,bytes)": {
        "details": "See {IERC721-safeTransferFrom}."
      },
      "setApprovalForAll(address,bool)": {
        "details": "See {IERC721-setApprovalForAll}."
      },
      "supportsInterface(bytes4)": {
        "details": "See {IERC165-supportsInterface}."
      },
      "symbol()": {
        "details": "See {IERC721Metadata-symbol}."
      },
      "tokenURI(uint256)": {
        "details": "See {IERC721Metadata-tokenURI}."
      },
      "transferFrom(address,address,uint256)": {
        "details": "See {IERC721-transferFrom}."
      },
      "transferOwnership(address)": {
        "details": "Transfers ownership of the contract to a new account (`newOwner`). Can only be called by the current owner."
      }
    },
    "version": 1
  },
  "userdoc": {
    "kind": "user",
    "methods": {
      "isTrustedForwarder(address)": {
        "notice": "return if the forwarder is trusted to forward relayed transactions to us. the forwarder is required to verify the sender's signature, and verify the call is not a replay."
      }
    },
    "version": 1
  }
}