{
  "contractName": "ViridianExchangeOffers",
  "abi": [
    {
      "inputs": [
        {
          "internalType": "address",
          "name": "_viridianToken",
          "type": "address"
        },
        {
          "internalType": "address",
          "name": "_viridianNFT",
          "type": "address"
        },
        {
          "internalType": "address",
          "name": "_viridianPack",
          "type": "address"
        }
      ],
      "stateMutability": "nonpayable",
      "type": "constructor"
    },
    {
      "anonymous": false,
      "inputs": [
        {
          "indexed": true,
          "internalType": "address",
          "name": "previousOwner",
          "type": "address"
        },
        {
          "indexed": true,
          "internalType": "address",
          "name": "newOwner",
          "type": "address"
        }
      ],
      "name": "OwnershipTransferred",
      "type": "event"
    },
    {
      "inputs": [],
      "name": "ETH",
      "outputs": [
        {
          "internalType": "address",
          "name": "",
          "type": "address"
        }
      ],
      "stateMutability": "view",
      "type": "function",
      "constant": true
    },
    {
      "inputs": [],
      "name": "owner",
      "outputs": [
        {
          "internalType": "address",
          "name": "",
          "type": "address"
        }
      ],
      "stateMutability": "view",
      "type": "function",
      "constant": true
    },
    {
      "inputs": [],
      "name": "renounceOwnership",
      "outputs": [],
      "stateMutability": "nonpayable",
      "type": "function"
    },
    {
      "inputs": [
        {
          "internalType": "address",
          "name": "newOwner",
          "type": "address"
        }
      ],
      "name": "transferOwnership",
      "outputs": [],
      "stateMutability": "nonpayable",
      "type": "function"
    },
    {
      "inputs": [],
      "name": "viridianNFT",
      "outputs": [
        {
          "internalType": "address",
          "name": "",
          "type": "address"
        }
      ],
      "stateMutability": "view",
      "type": "function",
      "constant": true
    },
    {
      "inputs": [],
      "name": "viridianPack",
      "outputs": [
        {
          "internalType": "address",
          "name": "",
          "type": "address"
        }
      ],
      "stateMutability": "view",
      "type": "function",
      "constant": true
    },
    {
      "inputs": [],
      "name": "viridianToken",
      "outputs": [
        {
          "internalType": "address",
          "name": "",
          "type": "address"
        }
      ],
      "stateMutability": "view",
      "type": "function",
      "constant": true
    },
    {
      "inputs": [],
      "name": "getOffers",
      "outputs": [
        {
          "internalType": "uint256[]",
          "name": "",
          "type": "uint256[]"
        }
      ],
      "stateMutability": "view",
      "type": "function",
      "constant": true
    },
    {
      "inputs": [
        {
          "internalType": "uint256",
          "name": "_offerId",
          "type": "uint256"
        }
      ],
      "name": "getOffersFromId",
      "outputs": [
        {
          "components": [
            {
              "internalType": "uint256",
              "name": "offerId",
              "type": "uint256"
            },
            {
              "internalType": "uint256[]",
              "name": "toNftIds",
              "type": "uint256[]"
            },
            {
              "internalType": "uint256[]",
              "name": "toPackIds",
              "type": "uint256[]"
            },
            {
              "internalType": "uint256",
              "name": "toAmt",
              "type": "uint256"
            },
            {
              "internalType": "uint256[]",
              "name": "fromNftIds",
              "type": "uint256[]"
            },
            {
              "internalType": "uint256[]",
              "name": "fromPackIds",
              "type": "uint256[]"
            },
            {
              "internalType": "uint256",
              "name": "fromAmt",
              "type": "uint256"
            },
            {
              "internalType": "address",
              "name": "to",
              "type": "address"
            },
            {
              "internalType": "address",
              "name": "from",
              "type": "address"
            },
            {
              "internalType": "bool",
              "name": "isVEXT",
              "type": "bool"
            },
            {
              "internalType": "bool",
              "name": "pending",
              "type": "bool"
            }
          ],
          "internalType": "struct ViridianExchangeOffers.Offer",
          "name": "",
          "type": "tuple"
        }
      ],
      "stateMutability": "view",
      "type": "function",
      "constant": true
    },
    {
      "inputs": [
        {
          "internalType": "address",
          "name": "_userAddr",
          "type": "address"
        }
      ],
      "name": "getOffersFromUser",
      "outputs": [
        {
          "components": [
            {
              "internalType": "uint256",
              "name": "offerId",
              "type": "uint256"
            },
            {
              "internalType": "uint256[]",
              "name": "toNftIds",
              "type": "uint256[]"
            },
            {
              "internalType": "uint256[]",
              "name": "toPackIds",
              "type": "uint256[]"
            },
            {
              "internalType": "uint256",
              "name": "toAmt",
              "type": "uint256"
            },
            {
              "internalType": "uint256[]",
              "name": "fromNftIds",
              "type": "uint256[]"
            },
            {
              "internalType": "uint256[]",
              "name": "fromPackIds",
              "type": "uint256[]"
            },
            {
              "internalType": "uint256",
              "name": "fromAmt",
              "type": "uint256"
            },
            {
              "internalType": "address",
              "name": "to",
              "type": "address"
            },
            {
              "internalType": "address",
              "name": "from",
              "type": "address"
            },
            {
              "internalType": "bool",
              "name": "isVEXT",
              "type": "bool"
            },
            {
              "internalType": "bool",
              "name": "pending",
              "type": "bool"
            }
          ],
          "internalType": "struct ViridianExchangeOffers.Offer[]",
          "name": "",
          "type": "tuple[]"
        }
      ],
      "stateMutability": "view",
      "type": "function",
      "constant": true
    },
    {
      "inputs": [
        {
          "internalType": "address",
          "name": "_to",
          "type": "address"
        },
        {
          "internalType": "uint256[]",
          "name": "_nftIds",
          "type": "uint256[]"
        },
        {
          "internalType": "uint256[]",
          "name": "_packIds",
          "type": "uint256[]"
        },
        {
          "internalType": "uint256",
          "name": "_amount",
          "type": "uint256"
        },
        {
          "internalType": "uint256[]",
          "name": "_recNftIds",
          "type": "uint256[]"
        },
        {
          "internalType": "uint256[]",
          "name": "_recPackIds",
          "type": "uint256[]"
        },
        {
          "internalType": "uint256",
          "name": "_recAmount",
          "type": "uint256"
        },
        {
          "internalType": "bool",
          "name": "isVEXT",
          "type": "bool"
        }
      ],
      "name": "makeOffer",
      "outputs": [],
      "stateMutability": "nonpayable",
      "type": "function"
    },
    {
      "inputs": [
        {
          "internalType": "uint256",
          "name": "_offerId",
          "type": "uint256"
        }
      ],
      "name": "cancelOffer",
      "outputs": [],
      "stateMutability": "nonpayable",
      "type": "function"
    },
    {
      "inputs": [
        {
          "internalType": "uint256",
          "name": "_offerId",
          "type": "uint256"
        }
      ],
      "name": "acceptOfferWithVEXT",
      "outputs": [],
      "stateMutability": "nonpayable",
      "type": "function"
    }
  ],
  "bytecode": "0x60806040523480156200001157600080fd5b5060405162003c0138038062003c01833981810160405281019062000037919062000339565b620000576200004b6200025660201b60201c565b6200025e60201b60201c565b600073ffffffffffffffffffffffffffffffffffffffff168373ffffffffffffffffffffffffffffffffffffffff1614156200009257600080fd5b600073ffffffffffffffffffffffffffffffffffffffff168273ffffffffffffffffffffffffffffffffffffffff161415620000cd57600080fd5b600073ffffffffffffffffffffffffffffffffffffffff168173ffffffffffffffffffffffffffffffffffffffff1614156200010857600080fd5b82600b60006101000a81548173ffffffffffffffffffffffffffffffffffffffff021916908373ffffffffffffffffffffffffffffffffffffffff16021790555081600860006101000a81548173ffffffffffffffffffffffffffffffffffffffff021916908373ffffffffffffffffffffffffffffffffffffffff16021790555080600960006101000a81548173ffffffffffffffffffffffffffffffffffffffff021916908373ffffffffffffffffffffffffffffffffffffffff16021790555081600260006101000a81548173ffffffffffffffffffffffffffffffffffffffff021916908373ffffffffffffffffffffffffffffffffffffffff16021790555080600360006101000a81548173ffffffffffffffffffffffffffffffffffffffff021916908373ffffffffffffffffffffffffffffffffffffffff160217905550505050620003e8565b600033905090565b60008060009054906101000a900473ffffffffffffffffffffffffffffffffffffffff169050816000806101000a81548173ffffffffffffffffffffffffffffffffffffffff021916908373ffffffffffffffffffffffffffffffffffffffff1602179055508173ffffffffffffffffffffffffffffffffffffffff168173ffffffffffffffffffffffffffffffffffffffff167f8be0079c531659141344cd1fd0a4f28419497f9722a3daafe3b4186f6b6457e060405160405180910390a35050565b6000815190506200033381620003ce565b92915050565b600080600060608486031215620003555762000354620003c9565b5b6000620003658682870162000322565b9350506020620003788682870162000322565b92505060406200038b8682870162000322565b9150509250925092565b6000620003a282620003a9565b9050919050565b600073ffffffffffffffffffffffffffffffffffffffff82169050919050565b600080fd5b620003d98162000395565b8114620003e557600080fd5b50565b61380980620003f86000396000f3fe608060405234801561001057600080fd5b50600436106100cf5760003560e01c80639a7012881161008c578063ef706adf11610066578063ef706adf146101ee578063f2f57e951461020a578063f2fde38b14610228578063fe257afc14610244576100cf565b80639a70128814610184578063aec99da2146101a2578063d382335a146101be576100cf565b80633eaf56b0146100d45780633ee992ee1461010457806350e9f11b14610122578063715018a61461013e5780638322fff2146101485780638da5cb5b14610166575b600080fd5b6100ee60048036038101906100e99190612d6e565b610262565b6040516100fb9190613330565b60405180910390f35b61010c6104f0565b604051610119919061326e565b60405180910390f35b61013c60048036038101906101379190612c1b565b610548565b005b610146610997565b005b610150610a1f565b60405161015d91906131fa565b60405180910390f35b61016e610a45565b60405161017b91906131fa565b60405180910390f35b61018c610a6e565b60405161019991906131fa565b60405180910390f35b6101bc60048036038101906101b79190612d6e565b610a94565b005b6101d860048036038101906101d39190612bc1565b6117c1565b6040516101e5919061324c565b60405180910390f35b61020860048036038101906102039190612d6e565b611ac0565b005b610212612440565b60405161021f91906131fa565b60405180910390f35b610242600480360381019061023d9190612bc1565b612466565b005b61024c61255e565b60405161025991906131fa565b60405180910390f35b61026a612674565b600560008381526020019081526020016000206040518061016001604052908160008201548152602001600182018054806020026020016040519081016040528092919081815260200182805480156102e257602002820191906000526020600020905b8154815260200190600101908083116102ce575b505050505081526020016002820180548060200260200160405190810160405280929190818152602001828054801561033a57602002820191906000526020600020905b815481526020019060010190808311610326575b50505050508152602001600382015481526020016004820180548060200260200160405190810160405280929190818152602001828054801561039c57602002820191906000526020600020905b815481526020019060010190808311610388575b50505050508152602001600582018054806020026020016040519081016040528092919081815260200182805480156103f457602002820191906000526020600020905b8154815260200190600101908083116103e0575b50505050508152602001600682015481526020016007820160009054906101000a900473ffffffffffffffffffffffffffffffffffffffff1673ffffffffffffffffffffffffffffffffffffffff1673ffffffffffffffffffffffffffffffffffffffff1681526020016008820160009054906101000a900473ffffffffffffffffffffffffffffffffffffffff1673ffffffffffffffffffffffffffffffffffffffff1673ffffffffffffffffffffffffffffffffffffffff1681526020016008820160149054906101000a900460ff161515151581526020016008820160159054906101000a900460ff1615151515815250509050919050565b6060600680548060200260200160405190810160405280929190818152602001828054801561053e57602002820191906000526020600020905b81548152602001906001019080831161052a575b5050505050905090565b3373ffffffffffffffffffffffffffffffffffffffff168873ffffffffffffffffffffffffffffffffffffffff16141561058157600080fd5b61058b6001612584565b6000610597600161259a565b905060006040518061016001604052808381526020018a81526020018981526020018881526020018781526020018681526020018581526020018b73ffffffffffffffffffffffffffffffffffffffff1681526020013373ffffffffffffffffffffffffffffffffffffffff1681526020018415158152602001600115158152509050600460008b73ffffffffffffffffffffffffffffffffffffffff1673ffffffffffffffffffffffffffffffffffffffff1681526020019081526020016000208190806001815401808255809150506001900390600052602060002090600902016000909190919091506000820151816000015560208201518160010190805190602001906106a99291906126fe565b5060408201518160020190805190602001906106c69291906126fe565b506060820151816003015560808201518160040190805190602001906106ed9291906126fe565b5060a082015181600501908051906020019061070a9291906126fe565b5060c0820151816006015560e08201518160070160006101000a81548173ffffffffffffffffffffffffffffffffffffffff021916908373ffffffffffffffffffffffffffffffffffffffff1602179055506101008201518160080160006101000a81548173ffffffffffffffffffffffffffffffffffffffff021916908373ffffffffffffffffffffffffffffffffffffffff1602179055506101208201518160080160146101000a81548160ff0219169083151502179055506101408201518160080160156101000a81548160ff021916908315150217905550505080600560008481526020019081526020016000206000820151816000015560208201518160010190805190602001906108229291906126fe565b50604082015181600201908051906020019061083f9291906126fe565b506060820151816003015560808201518160040190805190602001906108669291906126fe565b5060a08201518160050190805190602001906108839291906126fe565b5060c0820151816006015560e08201518160070160006101000a81548173ffffffffffffffffffffffffffffffffffffffff021916908373ffffffffffffffffffffffffffffffffffffffff1602179055506101008201518160080160006101000a81548173ffffffffffffffffffffffffffffffffffffffff021916908373ffffffffffffffffffffffffffffffffffffffff1602179055506101208201518160080160146101000a81548160ff0219169083151502179055506101408201518160080160156101000a81548160ff021916908315150217905550905050600682908060018154018082558091505060019003906000526020600020016000909190919091505550505050505050505050565b61099f6125a8565b73ffffffffffffffffffffffffffffffffffffffff166109bd610a45565b73ffffffffffffffffffffffffffffffffffffffff1614610a13576040517f08c379a0000000000000000000000000000000000000000000000000000000008152600401610a0a906132f0565b60405180910390fd5b610a1d60006125b0565b565b600a60009054906101000a900473ffffffffffffffffffffffffffffffffffffffff1681565b60008060009054906101000a900473ffffffffffffffffffffffffffffffffffffffff16905090565b600860009054906101000a900473ffffffffffffffffffffffffffffffffffffffff1681565b60006005600083815260200190815260200160002090503373ffffffffffffffffffffffffffffffffffffffff168160070160009054906101000a900473ffffffffffffffffffffffffffffffffffffffff1673ffffffffffffffffffffffffffffffffffffffff1614610b3d576040517f08c379a0000000000000000000000000000000000000000000000000000000008152600401610b34906132b0565b60405180910390fd5b60005b8160010180549050811015610cbe578160080160009054906101000a900473ffffffffffffffffffffffffffffffffffffffff1673ffffffffffffffffffffffffffffffffffffffff16600860009054906101000a900473ffffffffffffffffffffffffffffffffffffffff1673ffffffffffffffffffffffffffffffffffffffff16636352211e846001018481548110610bde57610bdd6135a6565b5b90600052602060002001546040518263ffffffff1660e01b8152600401610c059190613352565b60206040518083038186803b158015610c1d57600080fd5b505afa158015610c31573d6000803e3d6000fd5b505050506040513d601f19601f82011682018060405250810190610c559190612bee565b73ffffffffffffffffffffffffffffffffffffffff1614610cab576040517f08c379a0000000000000000000000000000000000000000000000000000000008152600401610ca290613310565b60405180910390fd5b8080610cb6906134ff565b915050610b40565b5060005b8160040180549050811015610e40578160070160009054906101000a900473ffffffffffffffffffffffffffffffffffffffff1673ffffffffffffffffffffffffffffffffffffffff16600860009054906101000a900473ffffffffffffffffffffffffffffffffffffffff1673ffffffffffffffffffffffffffffffffffffffff16636352211e846004018481548110610d6057610d5f6135a6565b5b90600052602060002001546040518263ffffffff1660e01b8152600401610d879190613352565b60206040518083038186803b158015610d9f57600080fd5b505afa158015610db3573d6000803e3d6000fd5b505050506040513d601f19601f82011682018060405250810190610dd79190612bee565b73ffffffffffffffffffffffffffffffffffffffff1614610e2d576040517f08c379a0000000000000000000000000000000000000000000000000000000008152600401610e24906132d0565b60405180910390fd5b8080610e38906134ff565b915050610cc2565b5060005b8160020180549050811015610fc2578160080160009054906101000a900473ffffffffffffffffffffffffffffffffffffffff1673ffffffffffffffffffffffffffffffffffffffff16600960009054906101000a900473ffffffffffffffffffffffffffffffffffffffff1673ffffffffffffffffffffffffffffffffffffffff16636352211e846002018481548110610ee257610ee16135a6565b5b90600052602060002001546040518263ffffffff1660e01b8152600401610f099190613352565b60206040518083038186803b158015610f2157600080fd5b505afa158015610f35573d6000803e3d6000fd5b505050506040513d601f19601f82011682018060405250810190610f599190612bee565b73ffffffffffffffffffffffffffffffffffffffff1614610faf576040517f08c379a0000000000000000000000000000000000000000000000000000000008152600401610fa690613310565b60405180910390fd5b8080610fba906134ff565b915050610e44565b5060005b8160050180549050811015611144578160070160009054906101000a900473ffffffffffffffffffffffffffffffffffffffff1673ffffffffffffffffffffffffffffffffffffffff16600960009054906101000a900473ffffffffffffffffffffffffffffffffffffffff1673ffffffffffffffffffffffffffffffffffffffff16636352211e846005018481548110611064576110636135a6565b5b90600052602060002001546040518263ffffffff1660e01b815260040161108b9190613352565b60206040518083038186803b1580156110a357600080fd5b505afa1580156110b7573d6000803e3d6000fd5b505050506040513d601f19601f820116820180604052508101906110db9190612bee565b73ffffffffffffffffffffffffffffffffffffffff1614611131576040517f08c379a0000000000000000000000000000000000000000000000000000000008152600401611128906132d0565b60405180910390fd5b808061113c906134ff565b915050610fc6565b50600b60009054906101000a900473ffffffffffffffffffffffffffffffffffffffff1673ffffffffffffffffffffffffffffffffffffffff166323b872dd8260080160009054906101000a900473ffffffffffffffffffffffffffffffffffffffff168360070160009054906101000a900473ffffffffffffffffffffffffffffffffffffffff1684600301546040518463ffffffff1660e01b81526004016111f093929190613215565b602060405180830381600087803b15801561120a57600080fd5b505af115801561121e573d6000803e3d6000fd5b505050506040513d601f19601f820116820180604052508101906112429190612d41565b50600b60009054906101000a900473ffffffffffffffffffffffffffffffffffffffff1673ffffffffffffffffffffffffffffffffffffffff166323b872dd8260070160009054906101000a900473ffffffffffffffffffffffffffffffffffffffff168360080160009054906101000a900473ffffffffffffffffffffffffffffffffffffffff1684600601546040518463ffffffff1660e01b81526004016112ee93929190613215565b602060405180830381600087803b15801561130857600080fd5b505af115801561131c573d6000803e3d6000fd5b505050506040513d601f19601f820116820180604052508101906113409190612d41565b5060005b816001018054905081101561145f57600860009054906101000a900473ffffffffffffffffffffffffffffffffffffffff1673ffffffffffffffffffffffffffffffffffffffff166342842e0e8360080160009054906101000a900473ffffffffffffffffffffffffffffffffffffffff168460070160009054906101000a900473ffffffffffffffffffffffffffffffffffffffff168560010185815481106113f1576113f06135a6565b5b90600052602060002001546040518463ffffffff1660e01b815260040161141a93929190613215565b600060405180830381600087803b15801561143457600080fd5b505af1158015611448573d6000803e3d6000fd5b505050508080611457906134ff565b915050611344565b5060005b816004018054905081101561157e57600860009054906101000a900473ffffffffffffffffffffffffffffffffffffffff1673ffffffffffffffffffffffffffffffffffffffff166342842e0e8360070160009054906101000a900473ffffffffffffffffffffffffffffffffffffffff168460080160009054906101000a900473ffffffffffffffffffffffffffffffffffffffff168560040185815481106115105761150f6135a6565b5b90600052602060002001546040518463ffffffff1660e01b815260040161153993929190613215565b600060405180830381600087803b15801561155357600080fd5b505af1158015611567573d6000803e3d6000fd5b505050508080611576906134ff565b915050611463565b5060005b816002018054905081101561169d57600960009054906101000a900473ffffffffffffffffffffffffffffffffffffffff1673ffffffffffffffffffffffffffffffffffffffff166342842e0e8360080160009054906101000a900473ffffffffffffffffffffffffffffffffffffffff168460070160009054906101000a900473ffffffffffffffffffffffffffffffffffffffff1685600201858154811061162f5761162e6135a6565b5b90600052602060002001546040518463ffffffff1660e01b815260040161165893929190613215565b600060405180830381600087803b15801561167257600080fd5b505af1158015611686573d6000803e3d6000fd5b505050508080611695906134ff565b915050611582565b5060005b81600501805490508110156117bc57600960009054906101000a900473ffffffffffffffffffffffffffffffffffffffff1673ffffffffffffffffffffffffffffffffffffffff166342842e0e8360070160009054906101000a900473ffffffffffffffffffffffffffffffffffffffff168460080160009054906101000a900473ffffffffffffffffffffffffffffffffffffffff1685600501858154811061174e5761174d6135a6565b5b90600052602060002001546040518463ffffffff1660e01b815260040161177793929190613215565b600060405180830381600087803b15801561179157600080fd5b505af11580156117a5573d6000803e3d6000fd5b5050505080806117b4906134ff565b9150506116a1565b505050565b6060600460008373ffffffffffffffffffffffffffffffffffffffff1673ffffffffffffffffffffffffffffffffffffffff168152602001908152602001600020805480602002602001604051908101604052809291908181526020016000905b82821015611ab5578382906000526020600020906009020160405180610160016040529081600082015481526020016001820180548060200260200160405190810160405280929190818152602001828054801561189f57602002820191906000526020600020905b81548152602001906001019080831161188b575b50505050508152602001600282018054806020026020016040519081016040528092919081815260200182805480156118f757602002820191906000526020600020905b8154815260200190600101908083116118e3575b50505050508152602001600382015481526020016004820180548060200260200160405190810160405280929190818152602001828054801561195957602002820191906000526020600020905b815481526020019060010190808311611945575b50505050508152602001600582018054806020026020016040519081016040528092919081815260200182805480156119b157602002820191906000526020600020905b81548152602001906001019080831161199d575b50505050508152602001600682015481526020016007820160009054906101000a900473ffffffffffffffffffffffffffffffffffffffff1673ffffffffffffffffffffffffffffffffffffffff1673ffffffffffffffffffffffffffffffffffffffff1681526020016008820160009054906101000a900473ffffffffffffffffffffffffffffffffffffffff1673ffffffffffffffffffffffffffffffffffffffff1673ffffffffffffffffffffffffffffffffffffffff1681526020016008820160149054906101000a900460ff161515151581526020016008820160159054906101000a900460ff16151515158152505081526020019060010190611822565b505050509050919050565b60006005600083815260200190815260200160002090503373ffffffffffffffffffffffffffffffffffffffff168160080160009054906101000a900473ffffffffffffffffffffffffffffffffffffffff1673ffffffffffffffffffffffffffffffffffffffff161480611b8457503373ffffffffffffffffffffffffffffffffffffffff168160070160009054906101000a900473ffffffffffffffffffffffffffffffffffffffff1673ffffffffffffffffffffffffffffffffffffffff16145b611b8d57600080fd5b6000600460008360070160009054906101000a900473ffffffffffffffffffffffffffffffffffffffff1673ffffffffffffffffffffffffffffffffffffffff1673ffffffffffffffffffffffffffffffffffffffff168152602001908152602001600020905060005b8180549050811015612282576000828281548110611c1857611c176135a6565b5b9060005260206000209060090201604051806101600160405290816000820154815260200160018201805480602002602001604051908101604052809291908181526020018280548015611c8b57602002820191906000526020600020905b815481526020019060010190808311611c77575b5050505050815260200160028201805480602002602001604051908101604052809291908181526020018280548015611ce357602002820191906000526020600020905b815481526020019060010190808311611ccf575b505050505081526020016003820154815260200160048201805480602002602001604051908101604052809291908181526020018280548015611d4557602002820191906000526020600020905b815481526020019060010190808311611d31575b5050505050815260200160058201805480602002602001604051908101604052809291908181526020018280548015611d9d57602002820191906000526020600020905b815481526020019060010190808311611d89575b50505050508152602001600682015481526020016007820160009054906101000a900473ffffffffffffffffffffffffffffffffffffffff1673ffffffffffffffffffffffffffffffffffffffff1673ffffffffffffffffffffffffffffffffffffffff1681526020016008820160009054906101000a900473ffffffffffffffffffffffffffffffffffffffff1673ffffffffffffffffffffffffffffffffffffffff1673ffffffffffffffffffffffffffffffffffffffff1681526020016008820160149054906101000a900460ff161515151581526020016008820160159054906101000a900460ff161515151581525050905083600001548160000151141561226e578260018480549050611eb69190613452565b81548110611ec757611ec66135a6565b5b9060005260206000209060090201838381548110611ee857611ee76135a6565b5b9060005260206000209060090201600082015481600001556001820181600101908054611f1692919061274b565b506002820181600201908054611f2d92919061274b565b50600382015481600301556004820181600401908054611f4e92919061274b565b506005820181600501908054611f6592919061274b565b50600682015481600601556007820160009054906101000a900473ffffffffffffffffffffffffffffffffffffffff168160070160006101000a81548173ffffffffffffffffffffffffffffffffffffffff021916908373ffffffffffffffffffffffffffffffffffffffff1602179055506008820160009054906101000a900473ffffffffffffffffffffffffffffffffffffffff168160080160006101000a81548173ffffffffffffffffffffffffffffffffffffffff021916908373ffffffffffffffffffffffffffffffffffffffff1602179055506008820160149054906101000a900460ff168160080160146101000a81548160ff0219169083151502179055506008820160159054906101000a900460ff168160080160156101000a81548160ff02191690831515021790555090505082600460008660070160009054906101000a900473ffffffffffffffffffffffffffffffffffffffff1673ffffffffffffffffffffffffffffffffffffffff1673ffffffffffffffffffffffffffffffffffffffff16815260200190815260200160002090805461210d92919061279d565b50600460008560070160009054906101000a900473ffffffffffffffffffffffffffffffffffffffff1673ffffffffffffffffffffffffffffffffffffffff1673ffffffffffffffffffffffffffffffffffffffff16815260200190815260200160002080548061218157612180613577565b5b60019003818190600052602060002090600902016000808201600090556001820160006121ae9190612997565b6002820160006121be9190612997565b60038201600090556004820160006121d69190612997565b6005820160006121e69190612997565b60068201600090556007820160006101000a81549073ffffffffffffffffffffffffffffffffffffffff02191690556008820160006101000a81549073ffffffffffffffffffffffffffffffffffffffff02191690556008820160146101000a81549060ff02191690556008820160156101000a81549060ff02191690555050905550612282565b50808061227a906134ff565b915050611bf7565b5060005b600680549050811015612356576000600682815481106122a9576122a86135a6565b5b90600052602060002001549050836000015481141561234257600660016006805490506122d69190613452565b815481106122e7576122e66135a6565b5b906000526020600020015460068381548110612306576123056135a6565b5b9060005260206000200181905550600680548061232657612325613577565b5b6001900381819060005260206000200160009055905550612356565b50808061234e906134ff565b915050612286565b50600560008481526020019081526020016000206000808201600090556001820160006123839190612997565b6002820160006123939190612997565b60038201600090556004820160006123ab9190612997565b6005820160006123bb9190612997565b60068201600090556007820160006101000a81549073ffffffffffffffffffffffffffffffffffffffff02191690556008820160006101000a81549073ffffffffffffffffffffffffffffffffffffffff02191690556008820160146101000a81549060ff02191690556008820160156101000a81549060ff02191690555050505050565b600b60009054906101000a900473ffffffffffffffffffffffffffffffffffffffff1681565b61246e6125a8565b73ffffffffffffffffffffffffffffffffffffffff1661248c610a45565b73ffffffffffffffffffffffffffffffffffffffff16146124e2576040517f08c379a00000000000000000000000000000000000000000000000000000000081526004016124d9906132f0565b60405180910390fd5b600073ffffffffffffffffffffffffffffffffffffffff168173ffffffffffffffffffffffffffffffffffffffff161415612552576040517f08c379a000000000000000000000000000000000000000000000000000000000815260040161254990613290565b60405180910390fd5b61255b816125b0565b50565b600960009054906101000a900473ffffffffffffffffffffffffffffffffffffffff1681565b6001816000016000828254019250508190555050565b600081600001549050919050565b600033905090565b60008060009054906101000a900473ffffffffffffffffffffffffffffffffffffffff169050816000806101000a81548173ffffffffffffffffffffffffffffffffffffffff021916908373ffffffffffffffffffffffffffffffffffffffff1602179055508173ffffffffffffffffffffffffffffffffffffffff168173ffffffffffffffffffffffffffffffffffffffff167f8be0079c531659141344cd1fd0a4f28419497f9722a3daafe3b4186f6b6457e060405160405180910390a35050565b60405180610160016040528060008152602001606081526020016060815260200160008152602001606081526020016060815260200160008152602001600073ffffffffffffffffffffffffffffffffffffffff168152602001600073ffffffffffffffffffffffffffffffffffffffff1681526020016000151581526020016000151581525090565b82805482825590600052602060002090810192821561273a579160200282015b8281111561273957825182559160200191906001019061271e565b5b50905061274791906129b8565b5090565b82805482825590600052602060002090810192821561278c5760005260206000209182015b8281111561278b578254825591600101919060010190612770565b5b50905061279991906129b8565b5090565b8280548282559060005260206000209060090281019282156129865760005260206000209160090282015b828111156129855782826000820154816000015560018201816001019080546127f292919061274b565b50600282018160020190805461280992919061274b565b5060038201548160030155600482018160040190805461282a92919061274b565b50600582018160050190805461284192919061274b565b50600682015481600601556007820160009054906101000a900473ffffffffffffffffffffffffffffffffffffffff168160070160006101000a81548173ffffffffffffffffffffffffffffffffffffffff021916908373ffffffffffffffffffffffffffffffffffffffff1602179055506008820160009054906101000a900473ffffffffffffffffffffffffffffffffffffffff168160080160006101000a81548173ffffffffffffffffffffffffffffffffffffffff021916908373ffffffffffffffffffffffffffffffffffffffff1602179055506008820160149054906101000a900460ff168160080160146101000a81548160ff0219169083151502179055506008820160159054906101000a900460ff168160080160156101000a81548160ff0219169083151502179055505050916009019190600901906127c8565b5b50905061299391906129d5565b5090565b50805460008255906000526020600020908101906129b591906129b8565b50565b5b808211156129d15760008160009055506001016129b9565b5090565b5b80821115612ab6576000808201600090556001820160006129f79190612997565b600282016000612a079190612997565b6003820160009055600482016000612a1f9190612997565b600582016000612a2f9190612997565b60068201600090556007820160006101000a81549073ffffffffffffffffffffffffffffffffffffffff02191690556008820160006101000a81549073ffffffffffffffffffffffffffffffffffffffff02191690556008820160146101000a81549060ff02191690556008820160156101000a81549060ff0219169055506009016129d6565b5090565b6000612acd612ac884613392565b61336d565b90508083825260208201905082856020860282011115612af057612aef613609565b5b60005b85811015612b205781612b068882612bac565b845260208401935060208301925050600181019050612af3565b5050509392505050565b600081359050612b398161378e565b92915050565b600081519050612b4e8161378e565b92915050565b600082601f830112612b6957612b68613604565b5b8135612b79848260208601612aba565b91505092915050565b600081359050612b91816137a5565b92915050565b600081519050612ba6816137a5565b92915050565b600081359050612bbb816137bc565b92915050565b600060208284031215612bd757612bd6613613565b5b6000612be584828501612b2a565b91505092915050565b600060208284031215612c0457612c03613613565b5b6000612c1284828501612b3f565b91505092915050565b600080600080600080600080610100898b031215612c3c57612c3b613613565b5b6000612c4a8b828c01612b2a565b985050602089013567ffffffffffffffff811115612c6b57612c6a61360e565b5b612c778b828c01612b54565b975050604089013567ffffffffffffffff811115612c9857612c9761360e565b5b612ca48b828c01612b54565b9650506060612cb58b828c01612bac565b955050608089013567ffffffffffffffff811115612cd657612cd561360e565b5b612ce28b828c01612b54565b94505060a089013567ffffffffffffffff811115612d0357612d0261360e565b5b612d0f8b828c01612b54565b93505060c0612d208b828c01612bac565b92505060e0612d318b828c01612b82565b9150509295985092959890939650565b600060208284031215612d5757612d56613613565b5b6000612d6584828501612b97565b91505092915050565b600060208284031215612d8457612d83613613565b5b6000612d9284828501612bac565b91505092915050565b6000612da78383612fd4565b905092915050565b6000612dbb83836131dc565b60208301905092915050565b612dd081613486565b82525050565b612ddf81613486565b82525050565b6000612df0826133de565b612dfa818561340e565b935083602082028501612e0c856133be565b8060005b85811015612e485784840389528151612e298582612d9b565b9450612e34836133f4565b925060208a01995050600181019050612e10565b50829750879550505050505092915050565b6000612e65826133e9565b612e6f818561341f565b9350612e7a836133ce565b8060005b83811015612eab578151612e928882612daf565b9750612e9d83613401565b925050600181019050612e7e565b5085935050505092915050565b6000612ec3826133e9565b612ecd8185613430565b9350612ed8836133ce565b8060005b83811015612f09578151612ef08882612daf565b9750612efb83613401565b925050600181019050612edc565b5085935050505092915050565b612f1f81613498565b82525050565b6000612f32602683613441565b9150612f3d82613629565b604082019050919050565b6000612f55602583613441565b9150612f6082613678565b604082019050919050565b6000612f78602a83613441565b9150612f83826136c7565b604082019050919050565b6000612f9b602083613441565b9150612fa682613716565b602082019050919050565b6000612fbe602b83613441565b9150612fc98261373f565b604082019050919050565b600061016083016000830151612fed60008601826131dc565b50602083015184820360208601526130058282612e5a565b9150506040830151848203604086015261301f8282612e5a565b915050606083015161303460608601826131dc565b506080830151848203608086015261304c8282612e5a565b91505060a083015184820360a08601526130668282612e5a565b91505060c083015161307b60c08601826131dc565b5060e083015161308e60e0860182612dc7565b506101008301516130a3610100860182612dc7565b506101208301516130b8610120860182612f16565b506101408301516130cd610140860182612f16565b508091505092915050565b6000610160830160008301516130f160008601826131dc565b50602083015184820360208601526131098282612e5a565b915050604083015184820360408601526131238282612e5a565b915050606083015161313860608601826131dc565b50608083015184820360808601526131508282612e5a565b91505060a083015184820360a086015261316a8282612e5a565b91505060c083015161317f60c08601826131dc565b5060e083015161319260e0860182612dc7565b506101008301516131a7610100860182612dc7565b506101208301516131bc610120860182612f16565b506101408301516131d1610140860182612f16565b508091505092915050565b6131e5816134c4565b82525050565b6131f4816134c4565b82525050565b600060208201905061320f6000830184612dd6565b92915050565b600060608201905061322a6000830186612dd6565b6132376020830185612dd6565b61324460408301846131eb565b949350505050565b600060208201905081810360008301526132668184612de5565b905092915050565b600060208201905081810360008301526132888184612eb8565b905092915050565b600060208201905081810360008301526132a981612f25565b9050919050565b600060208201905081810360008301526132c981612f48565b9050919050565b600060208201905081810360008301526132e981612f6b565b9050919050565b6000602082019050818103600083015261330981612f8e565b9050919050565b6000602082019050818103600083015261332981612fb1565b9050919050565b6000602082019050818103600083015261334a81846130d8565b905092915050565b600060208201905061336760008301846131eb565b92915050565b6000613377613388565b905061338382826134ce565b919050565b6000604051905090565b600067ffffffffffffffff8211156133ad576133ac6135d5565b5b602082029050602081019050919050565b6000819050602082019050919050565b6000819050602082019050919050565b600081519050919050565b600081519050919050565b6000602082019050919050565b6000602082019050919050565b600082825260208201905092915050565b600082825260208201905092915050565b600082825260208201905092915050565b600082825260208201905092915050565b600061345d826134c4565b9150613468836134c4565b92508282101561347b5761347a613548565b5b828203905092915050565b6000613491826134a4565b9050919050565b60008115159050919050565b600073ffffffffffffffffffffffffffffffffffffffff82169050919050565b6000819050919050565b6134d782613618565b810181811067ffffffffffffffff821117156134f6576134f56135d5565b5b80604052505050565b600061350a826134c4565b91507fffffffffffffffffffffffffffffffffffffffffffffffffffffffffffffffff82141561353d5761353c613548565b5b600182019050919050565b7f4e487b7100000000000000000000000000000000000000000000000000000000600052601160045260246000fd5b7f4e487b7100000000000000000000000000000000000000000000000000000000600052603160045260246000fd5b7f4e487b7100000000000000000000000000000000000000000000000000000000600052603260045260246000fd5b7f4e487b7100000000000000000000000000000000000000000000000000000000600052604160045260246000fd5b600080fd5b600080fd5b600080fd5b600080fd5b6000601f19601f8301169050919050565b7f4f776e61626c653a206e6577206f776e657220697320746865207a65726f206160008201527f6464726573730000000000000000000000000000000000000000000000000000602082015250565b7f4f6e6c79206f666665726564206163636f756e742063616e206163636570742060008201527f6f66666572000000000000000000000000000000000000000000000000000000602082015250565b7f4f66666572696e67206163636f756e74206d757374206f776e20616c6c206f6660008201527f6665726564204e46547300000000000000000000000000000000000000000000602082015250565b7f4f776e61626c653a2063616c6c6572206973206e6f7420746865206f776e6572600082015250565b7f4f666665726564206163636f756e74206d757374206f776e20616c6c2072657160008201527f756573746564204e465473000000000000000000000000000000000000000000602082015250565b61379781613486565b81146137a257600080fd5b50565b6137ae81613498565b81146137b957600080fd5b50565b6137c5816134c4565b81146137d057600080fd5b5056fea26469706673582212209612af005f7b778915364a23f59fdb4be5aa0430d70c2d95be437499727b369664736f6c63430008070033",
  "immutableReferences": {},
  "source": "pragma solidity ^0.8.0;\n\nimport \"@openzeppelin/contracts/access/Ownable.sol\";\nimport \"@openzeppelin/contracts/token/ERC721/ERC721.sol\";\nimport \"@openzeppelin/contracts/token/ERC20/IERC20.sol\";\nimport \"@openzeppelin/contracts/token/ERC20/ERC20.sol\";\nimport \"@openzeppelin/contracts/token/ERC721/IERC721.sol\";\nimport \"@openzeppelin/contracts/utils/Counters.sol\";\n\nimport \"./ViridianNFT.sol\";\nimport \"./ViridianPack.sol\";\n\ncontract ViridianExchangeOffers is Ownable {\n\n    using Counters for Counters.Counter;\n    Counters.Counter private _offerIds;\n\n    ViridianNFT vNFT;\n    ViridianPack vPack;\n\n    struct Offer {\n        uint256 offerId;\n        uint256[] toNftIds;\n        uint256[] toPackIds;\n        uint toAmt;\n        uint256[] fromNftIds;\n        uint256[] fromPackIds;\n        uint fromAmt;\n        address to;\n        address from;\n        bool isVEXT;\n        bool pending;\n    }\n\n    mapping (address => Offer[]) userOffers;\n    mapping (uint256 => Offer) offers;\n    uint256[] private offerIds;\n    mapping (uint256 => uint256) highestCardOffer;\n\n    address public viridianNFT;\n    address public viridianPack;\n    address public ETH;\n    address public viridianToken;\n\n    constructor(address _viridianToken, address _viridianNFT, address _viridianPack) {\n        require(address(_viridianToken) != address(0));\n        //require(address(_ETH) != address(0));\n        require(address(_viridianNFT) != address(0));\n        require(address(_viridianPack) != address(0));\n\n        viridianToken = _viridianToken;\n        //address _ETH, ETH = _ETH;\n        viridianNFT = _viridianNFT;\n        viridianPack = _viridianPack;\n\n        vNFT = ViridianNFT(_viridianNFT);\n        vPack = ViridianPack(_viridianPack);\n    }\n\n    function getOffers() public view returns (uint256[] memory) {\n        return offerIds;\n    }\n\n    function getOffersFromId(uint256 _offerId) public view returns (Offer memory) {\n        return offers[_offerId];\n    }\n\n    function getOffersFromUser(address _userAddr) public view returns (Offer[] memory) {\n        return userOffers[_userAddr];\n    }\n\n    function makeOffer(address _to, uint256[] memory _nftIds, uint256[] memory _packIds, uint256 _amount, uint256[] memory _recNftIds, uint256[] memory _recPackIds, uint256 _recAmount, bool isVEXT) public {\n        require(_to != msg.sender);\n\n        // if(!IERC721(viridianNFT).isApprovedForAll(msg.sender, address(this))) {\n        //     IERC721(viridianNFT).setApprovalForAll(address(this), true);\n        // }\n\n        _offerIds.increment();\n        uint256 _offerId = _offerIds.current();\n\n        Offer memory newOffer = Offer(_offerId, _nftIds, _packIds, _amount, _recNftIds, _recPackIds, _recAmount, _to, msg.sender, isVEXT, true);\n        \n        userOffers[_to].push(newOffer);\n        offers[_offerId] = newOffer;\n        offerIds.push(_offerId);\n    }\n\n    function cancelOffer(uint256 _offerId) public {\n        Offer storage curOffer = offers[_offerId];\n        require(curOffer.from == msg.sender || curOffer.to == msg.sender);\n        Offer[] storage curUserOffers = userOffers[curOffer.to];\n        \n        //TODO: Check who is cancelling and cancel that person's offers.\n\n        // Remove offer from current user's offers\n        for (uint i = 0; i < curUserOffers.length; i++) {\n            Offer memory offer = curUserOffers[i];\n            if (offer.offerId == curOffer.offerId) {\n                curUserOffers[i] = curUserOffers[curUserOffers.length - 1];\n                userOffers[curOffer.to] = curUserOffers;\n                userOffers[curOffer.to].pop();\n                break;\n            }\n        } \n\n        // Remove offer id from global list of offer ids\n        for (uint256 i = 0; i < offerIds.length; i++) {\n            uint256 offerId = offerIds[i];\n            if (offerId == curOffer.offerId) {\n                offerIds[i] = offerIds[offerIds.length - 1];\n                offerIds.pop();\n                break;\n            }\n        }\n\n        // Remove offer from global mapping of offers\n        delete offers[_offerId];\n    }\n    \n    function acceptOfferWithVEXT(uint256 _offerId) public {\n        Offer storage curOffer = offers[_offerId];\n\n        require(curOffer.to == msg.sender, \"Only offered account can accept offer\");\n\n        for (uint i = 0; i < curOffer.toNftIds.length; i++) {\n            require(IERC721(viridianNFT).ownerOf(curOffer.toNftIds[i]) == curOffer.from, \"Offered account must own all requested NFTs\");\n        }\n\n        for (uint i = 0; i < curOffer.fromNftIds.length; i++) {\n            require(IERC721(viridianNFT).ownerOf(curOffer.fromNftIds[i]) == curOffer.to, \"Offering account must own all offered NFTs\");\n        }\n\n        for (uint i = 0; i < curOffer.toPackIds.length; i++) {\n            require(IERC721(viridianPack).ownerOf(curOffer.toPackIds[i]) == curOffer.from, \"Offered account must own all requested NFTs\");\n        }\n\n        for (uint i = 0; i < curOffer.fromPackIds.length; i++) {\n            require(IERC721(viridianPack).ownerOf(curOffer.fromPackIds[i]) == curOffer.to, \"Offering account must own all offered NFTs\");\n        }\n        \n\n        // if(!IERC721(viridianNFT).isApprovedForAll(msg.sender, address(this))) {\n        //     IERC721(viridianNFT).setApprovalForAll(address(this), true);\n        // }\n\n        IERC20(viridianToken).transferFrom(curOffer.from, curOffer.to, curOffer.toAmt);\n        IERC20(viridianToken).transferFrom(curOffer.to, curOffer.from, curOffer.fromAmt);\n\n        // Loop through all of the to items in the offer.\n        for (uint i = 0; i < curOffer.toNftIds.length; i++) {\n            //IERC721(viridianNFT).approve(curOffer.to, curOffer.fromNftIds[i]);\n            IERC721(viridianNFT).safeTransferFrom(curOffer.from, curOffer.to, curOffer.toNftIds[i]);\n        }\n\n        // Loop through all of the from items in the offer.\n        for (uint i = 0; i < curOffer.fromNftIds.length; i++) {\n            //IERC721(viridianNFT).approve(curOffer.to, curOffer.fromNftIds[i]);\n            IERC721(viridianNFT).safeTransferFrom(curOffer.to, curOffer.from, curOffer.fromNftIds[i]);\n        }\n\n        for (uint i = 0; i < curOffer.toPackIds.length; i++) {\n            //IERC721(viridianNFT).approve(curOffer.to, curOffer.fromNftIds[i]);\n            IERC721(viridianPack).safeTransferFrom(curOffer.from, curOffer.to, curOffer.toPackIds[i]);\n        }\n\n        // Loop through all of the from items in the offer.\n        for (uint i = 0; i < curOffer.fromPackIds.length; i++) {\n            //IERC721(viridianNFT).approve(curOffer.to, curOffer.fromNftIds[i]);\n            IERC721(viridianPack).safeTransferFrom(curOffer.to, curOffer.from, curOffer.fromPackIds[i]);\n        }\n    }\n\n    //TODO: Maybe change this to MATIC?\n    // function buyNFTWithETH(uint256 _listingId) public payable {\n    //     Listing memory curListing = listings[_listingId];\n\n    //     vNFT.unlistToken(curListing.tokenId);\n\n    //     require(msg.sender.balance >= curListing.price, 'ViridianExchange: User does not have enough balance');\n    //     address payable ownerWallet = payable(curListing.owner);\n\n    //     require(msg.value == curListing.price, 'ViridianExchange: Incorrect amount paid to function');\n\n    //     if(!IERC721(viridianNFT).isApprovedForAll(msg.sender, address(this))) {\n    //         IERC721(viridianNFT).setApprovalForAll(address(this), true);\n    //     }\n\n    //     sendEther(ownerWallet);\n\n    //     pullFromSaleOnBuy(_listingId);\n        \n    //     IERC721(viridianNFT).safeTransferFrom(curListing.owner, msg.sender, curListing.tokenId);\n    // }\n\n    // //TODO: Figure out how to send eth from \"from\" wallet to \"to\" wallet.\n    //TODO: Figure out how to accept other cryptoCurrencies besides VEXT\n    // function acceptOfferWithETH(uint256 _offerId) public payable {\n    //     Offer storage curOffer = offers[_offerId];\n\n    //     require(curOffer.to != msg.sender);\n\n    //     // if(!IERC721(viridianNFT).isApprovedForAll(msg.sender, address(this))) {\n    //     //     IERC721(viridianNFT).setApprovalForAll(address(this), true);\n    //     // }\n\n    //     address payable ownerWallet = payable(curOffer.from);\n\n    //     sendEther(ownerWallet);\n\n    //     cancelOffer(_offerId);\n    // }\n}",
  "sourcePath": "/Users/blakehatch/Viridian-Exchange-Contracts/contracts/ViridianExchangeOffers.sol",
  "compiler": {
    "name": "solc",
    "version": "0.8.7+commit.e28d00a7.Emscripten.clang"
  },
  "schemaVersion": "3.4.1",
  "updatedAt": "2021-09-29T20:29:23.479Z",
  "networkType": "ethereum",
  "devdoc": {
    "kind": "dev",
    "methods": {
      "owner()": {
        "details": "Returns the address of the current owner."
      },
      "renounceOwnership()": {
        "details": "Leaves the contract without owner. It will not be possible to call `onlyOwner` functions anymore. Can only be called by the current owner. NOTE: Renouncing ownership will leave the contract without an owner, thereby removing any functionality that is only available to the owner."
      },
      "transferOwnership(address)": {
        "details": "Transfers ownership of the contract to a new account (`newOwner`). Can only be called by the current owner."
      }
    },
    "version": 1
  },
  "userdoc": {
    "kind": "user",
    "methods": {},
    "version": 1
  }
}