{
  "contractName": "ViridianExchange",
  "abi": [
    {
      "inputs": [
        {
          "internalType": "uint256",
          "name": "",
          "type": "uint256"
        }
      ],
      "name": "users",
      "outputs": [
        {
          "internalType": "address",
          "name": "wallet",
          "type": "address"
        },
        {
          "internalType": "string",
          "name": "displayName",
          "type": "string"
        },
        {
          "internalType": "string",
          "name": "coverPhotoURL",
          "type": "string"
        },
        {
          "internalType": "string",
          "name": "profilePhotoURL",
          "type": "string"
        },
        {
          "internalType": "string",
          "name": "bio",
          "type": "string"
        }
      ],
      "stateMutability": "view",
      "type": "function",
      "constant": true
    },
    {
      "inputs": [],
      "name": "getListings",
      "outputs": [
        {
          "components": [
            {
              "internalType": "uint256",
              "name": "listingId",
              "type": "uint256"
            },
            {
              "internalType": "uint256",
              "name": "tokenId",
              "type": "uint256"
            },
            {
              "internalType": "address",
              "name": "owner",
              "type": "address"
            },
            {
              "internalType": "uint256",
              "name": "price",
              "type": "uint256"
            },
            {
              "internalType": "bool",
              "name": "purchased",
              "type": "bool"
            },
            {
              "internalType": "uint256",
              "name": "royalty",
              "type": "uint256"
            },
            {
              "internalType": "bool",
              "name": "isAuction",
              "type": "bool"
            },
            {
              "internalType": "uint256",
              "name": "endTime",
              "type": "uint256"
            }
          ],
          "internalType": "struct ViridianExchange.Listing[]",
          "name": "",
          "type": "tuple[]"
        }
      ],
      "stateMutability": "view",
      "type": "function",
      "constant": true
    },
    {
      "inputs": [
        {
          "internalType": "uint256",
          "name": "_nftId",
          "type": "uint256"
        },
        {
          "internalType": "uint256",
          "name": "_price",
          "type": "uint256"
        },
        {
          "internalType": "uint256",
          "name": "_royalty",
          "type": "uint256"
        },
        {
          "internalType": "bool",
          "name": "_isAuction",
          "type": "bool"
        },
        {
          "internalType": "uint256",
          "name": "_endTime",
          "type": "uint256"
        }
      ],
      "name": "putUpForSale",
      "outputs": [],
      "stateMutability": "nonpayable",
      "type": "function"
    },
    {
      "inputs": [
        {
          "components": [
            {
              "internalType": "uint256",
              "name": "listingId",
              "type": "uint256"
            },
            {
              "internalType": "uint256",
              "name": "tokenId",
              "type": "uint256"
            },
            {
              "internalType": "address",
              "name": "owner",
              "type": "address"
            },
            {
              "internalType": "uint256",
              "name": "price",
              "type": "uint256"
            },
            {
              "internalType": "bool",
              "name": "purchased",
              "type": "bool"
            },
            {
              "internalType": "uint256",
              "name": "royalty",
              "type": "uint256"
            },
            {
              "internalType": "bool",
              "name": "isAuction",
              "type": "bool"
            },
            {
              "internalType": "uint256",
              "name": "endTime",
              "type": "uint256"
            }
          ],
          "internalType": "struct ViridianExchange.Listing",
          "name": "_listing",
          "type": "tuple"
        }
      ],
      "name": "pullFromSale",
      "outputs": [],
      "stateMutability": "nonpayable",
      "type": "function"
    },
    {
      "inputs": [],
      "name": "withdrawNFT",
      "outputs": [],
      "stateMutability": "nonpayable",
      "type": "function"
    }
  ],
  "bytecode": "0x608060405234801561001057600080fd5b506115dc806100206000396000f3fe608060405234801561001057600080fd5b50600436106100575760003560e01c80632f7cdce31461005c578063365b98b2146100785780635e38c954146100ac578063ad2f00d4146100b6578063f1b2d6a3146100d2575b600080fd5b61007660048036038101906100719190610fc2565b6100f0565b005b610092600480360381019061008d9190610f95565b610457565b6040516100a39594939291906111da565b60405180910390f35b6100b46106dd565b005b6100d060048036038101906100cb9190610f67565b6106df565b005b6100da610b01565b6040516100e79190611249565b60405180910390f35b3373ffffffffffffffffffffffffffffffffffffffff16600160009054906101000a900473ffffffffffffffffffffffffffffffffffffffff1673ffffffffffffffffffffffffffffffffffffffff16636352211e876040518263ffffffff1660e01b8152600401610162919061126b565b60206040518083038186803b15801561017a57600080fd5b505afa15801561018e573d6000803e3d6000fd5b505050506040513d601f19601f820116820180604052508101906101b29190610f3a565b73ffffffffffffffffffffffffffffffffffffffff16146101d257600080fd5b6101dc6000610c1f565b60006101e86000610c35565b905060006040518061010001604052808381526020018881526020013373ffffffffffffffffffffffffffffffffffffffff1681526020018781526020016000151581526020018681526020018515158152602001848152509050600360003373ffffffffffffffffffffffffffffffffffffffff1673ffffffffffffffffffffffffffffffffffffffff168152602001908152602001600020819080600181540180825580915050600190039060005260206000209060080201600090919091909150600082015181600001556020820151816001015560408201518160020160006101000a81548173ffffffffffffffffffffffffffffffffffffffff021916908373ffffffffffffffffffffffffffffffffffffffff1602179055506060820151816003015560808201518160040160006101000a81548160ff02191690831515021790555060a0820151816005015560c08201518160060160006101000a81548160ff02191690831515021790555060e0820151816007015550506004819080600181540180825580915050600190039060005260206000209060080201600090919091909150600082015181600001556020820151816001015560408201518160020160006101000a81548173ffffffffffffffffffffffffffffffffffffffff021916908373ffffffffffffffffffffffffffffffffffffffff1602179055506060820151816003015560808201518160040160006101000a81548160ff02191690831515021790555060a0820151816005015560c08201518160060160006101000a81548160ff02191690831515021790555060e08201518160070155505050505050505050565b6005818154811061046757600080fd5b90600052602060002090600802016000915090508060000160009054906101000a900473ffffffffffffffffffffffffffffffffffffffff16908060010180546104b0906113af565b80601f01602080910402602001604051908101604052809291908181526020018280546104dc906113af565b80156105295780601f106104fe57610100808354040283529160200191610529565b820191906000526020600020905b81548152906001019060200180831161050c57829003601f168201915b50505050509080600201805461053e906113af565b80601f016020809104026020016040519081016040528092919081815260200182805461056a906113af565b80156105b75780601f1061058c576101008083540402835291602001916105b7565b820191906000526020600020905b81548152906001019060200180831161059a57829003601f168201915b5050505050908060030180546105cc906113af565b80601f01602080910402602001604051908101604052809291908181526020018280546105f8906113af565b80156106455780601f1061061a57610100808354040283529160200191610645565b820191906000526020600020905b81548152906001019060200180831161062857829003601f168201915b50505050509080600401805461065a906113af565b80601f0160208091040260200160405190810160405280929190818152602001828054610686906113af565b80156106d35780601f106106a8576101008083540402835291602001916106d3565b820191906000526020600020905b8154815290600101906020018083116106b657829003601f168201915b5050505050905085565b565b3373ffffffffffffffffffffffffffffffffffffffff16816040015173ffffffffffffffffffffffffffffffffffffffff161461071b57600080fd5b6000600360003373ffffffffffffffffffffffffffffffffffffffff1673ffffffffffffffffffffffffffffffffffffffff168152602001908152602001600020905060005b8180549050811015610afc576000828281548110610782576107816114e8565b5b90600052602060002090600802016040518061010001604052908160008201548152602001600182015481526020016002820160009054906101000a900473ffffffffffffffffffffffffffffffffffffffff1673ffffffffffffffffffffffffffffffffffffffff1673ffffffffffffffffffffffffffffffffffffffff168152602001600382015481526020016004820160009054906101000a900460ff16151515158152602001600582015481526020016006820160009054906101000a900460ff161515151581526020016007820154815250509050836000015181600001511415610ae857826001848054905061087e9190611300565b8154811061088f5761088e6114e8565b5b90600052602060002090600802018383815481106108b0576108af6114e8565b5b906000526020600020906008020160008201548160000155600182015481600101556002820160009054906101000a900473ffffffffffffffffffffffffffffffffffffffff168160020160006101000a81548173ffffffffffffffffffffffffffffffffffffffff021916908373ffffffffffffffffffffffffffffffffffffffff160217905550600382015481600301556004820160009054906101000a900460ff168160040160006101000a81548160ff021916908315150217905550600582015481600501556006820160009054906101000a900460ff168160060160006101000a81548160ff0219169083151502179055506007820154816007015590505082600360003373ffffffffffffffffffffffffffffffffffffffff1673ffffffffffffffffffffffffffffffffffffffff168152602001908152602001600020908054610a02929190610c43565b50600360003373ffffffffffffffffffffffffffffffffffffffff1673ffffffffffffffffffffffffffffffffffffffff168152602001908152602001600020805480610a5257610a516114b9565b5b600190038181906000526020600020906008020160008082016000905560018201600090556002820160006101000a81549073ffffffffffffffffffffffffffffffffffffffff021916905560038201600090556004820160006101000a81549060ff021916905560058201600090556006820160006101000a81549060ff021916905560078201600090555050905550610afc565b508080610af490611412565b915050610761565b505050565b60606004805480602002602001604051908101604052809291908181526020016000905b82821015610c1657838290600052602060002090600802016040518061010001604052908160008201548152602001600182015481526020016002820160009054906101000a900473ffffffffffffffffffffffffffffffffffffffff1673ffffffffffffffffffffffffffffffffffffffff1673ffffffffffffffffffffffffffffffffffffffff168152602001600382015481526020016004820160009054906101000a900460ff16151515158152602001600582015481526020016006820160009054906101000a900460ff1615151515815260200160078201548152505081526020019060010190610b25565b50505050905090565b6001816000016000828254019250508190555050565b600081600001549050919050565b828054828255906000526020600020906008028101928215610d7d5760005260206000209160080282015b82811115610d7c57828260008201548160000155600182015481600101556002820160009054906101000a900473ffffffffffffffffffffffffffffffffffffffff168160020160006101000a81548173ffffffffffffffffffffffffffffffffffffffff021916908373ffffffffffffffffffffffffffffffffffffffff160217905550600382015481600301556004820160009054906101000a900460ff168160040160006101000a81548160ff021916908315150217905550600582015481600501556006820160009054906101000a900460ff168160060160006101000a81548160ff02191690831515021790555060078201548160070155505091600801919060080190610c6e565b5b509050610d8a9190610d8e565b5090565b5b80821115610e185760008082016000905560018201600090556002820160006101000a81549073ffffffffffffffffffffffffffffffffffffffff021916905560038201600090556004820160006101000a81549060ff021916905560058201600090556006820160006101000a81549060ff0219169055600782016000905550600801610d8f565b5090565b600081359050610e2b81611561565b92915050565b600081519050610e4081611561565b92915050565b600081359050610e5581611578565b92915050565b60006101008284031215610e7257610e71611546565b5b610e7d610100611286565b90506000610e8d84828501610f25565b6000830152506020610ea184828501610f25565b6020830152506040610eb584828501610e1c565b6040830152506060610ec984828501610f25565b6060830152506080610edd84828501610e46565b60808301525060a0610ef184828501610f25565b60a08301525060c0610f0584828501610e46565b60c08301525060e0610f1984828501610f25565b60e08301525092915050565b600081359050610f348161158f565b92915050565b600060208284031215610f5057610f4f61154b565b5b6000610f5e84828501610e31565b91505092915050565b60006101008284031215610f7e57610f7d61154b565b5b6000610f8c84828501610e5b565b91505092915050565b600060208284031215610fab57610faa61154b565b5b6000610fb984828501610f25565b91505092915050565b600080600080600060a08688031215610fde57610fdd61154b565b5b6000610fec88828901610f25565b9550506020610ffd88828901610f25565b945050604061100e88828901610f25565b935050606061101f88828901610e46565b925050608061103088828901610f25565b9150509295509295909350565b6000611049838361111a565b6101008301905092915050565b61105f81611334565b82525050565b61106e81611334565b82525050565b600061107f826112bb565b61108981856112de565b9350611094836112ab565b8060005b838110156110c55781516110ac888261103d565b97506110b7836112d1565b925050600181019050611098565b5085935050505092915050565b6110db81611346565b82525050565b60006110ec826112c6565b6110f681856112ef565b935061110681856020860161137c565b61110f81611550565b840191505092915050565b6101008201600082015161113160008501826111bc565b50602082015161114460208501826111bc565b5060408201516111576040850182611056565b50606082015161116a60608501826111bc565b50608082015161117d60808501826110d2565b5060a082015161119060a08501826111bc565b5060c08201516111a360c08501826110d2565b5060e08201516111b660e08501826111bc565b50505050565b6111c581611372565b82525050565b6111d481611372565b82525050565b600060a0820190506111ef6000830188611065565b818103602083015261120181876110e1565b9050818103604083015261121581866110e1565b9050818103606083015261122981856110e1565b9050818103608083015261123d81846110e1565b90509695505050505050565b600060208201905081810360008301526112638184611074565b905092915050565b600060208201905061128060008301846111cb565b92915050565b60006112906112a1565b905061129c82826113e1565b919050565b6000604051905090565b6000819050602082019050919050565b600081519050919050565b600081519050919050565b6000602082019050919050565b600082825260208201905092915050565b600082825260208201905092915050565b600061130b82611372565b915061131683611372565b9250828210156113295761132861145b565b5b828203905092915050565b600061133f82611352565b9050919050565b60008115159050919050565b600073ffffffffffffffffffffffffffffffffffffffff82169050919050565b6000819050919050565b60005b8381101561139a57808201518184015260208101905061137f565b838111156113a9576000848401525b50505050565b600060028204905060018216806113c757607f821691505b602082108114156113db576113da61148a565b5b50919050565b6113ea82611550565b810181811067ffffffffffffffff8211171561140957611408611517565b5b80604052505050565b600061141d82611372565b91507fffffffffffffffffffffffffffffffffffffffffffffffffffffffffffffffff8214156114505761144f61145b565b5b600182019050919050565b7f4e487b7100000000000000000000000000000000000000000000000000000000600052601160045260246000fd5b7f4e487b7100000000000000000000000000000000000000000000000000000000600052602260045260246000fd5b7f4e487b7100000000000000000000000000000000000000000000000000000000600052603160045260246000fd5b7f4e487b7100000000000000000000000000000000000000000000000000000000600052603260045260246000fd5b7f4e487b7100000000000000000000000000000000000000000000000000000000600052604160045260246000fd5b600080fd5b600080fd5b6000601f19601f8301169050919050565b61156a81611334565b811461157557600080fd5b50565b61158181611346565b811461158c57600080fd5b50565b61159881611372565b81146115a357600080fd5b5056fea2646970667358221220507c4289f8aa95c8b6bbebfa0954dbdac3870bc79a717e7afd979783243bac0c64736f6c63430008060033",
  "immutableReferences": {},
  "source": "pragma solidity ^0.8.0;\n\nimport \"@openzeppelin/contracts/access/Ownable.sol\";\nimport \"@openzeppelin/contracts/token/ERC721/ERC721.sol\";\nimport \"@openzeppelin/contracts/token/ERC20/IERC20.sol\";\nimport \"./ViridianNFT.sol\";\n\ncontract ViridianExchange {\n\n    struct User {\n        address wallet;\n        string displayName;\n        string coverPhotoURL;\n        string profilePhotoURL;\n        string bio;\n        User[] following;\n        User[] followers;\n        uint256[] likes;\n    }\n\n    struct Trade {\n        uint256[] nftIds;\n        uint vextAmt;\n        address _to;\n        address _from;\n        bool pending;\n    }\n\n    using Counters for Counters.Counter;\n    Counters.Counter private _listingIds;\n\n    ViridianNFT vNFTContract;\n    \n    struct Listing {\n        uint256 listingId;\n        uint256 tokenId;\n        address owner;\n        uint256 price;\n        bool purchased;\n        uint256 royalty;\n        bool isAuction;\n        uint256 endTime;\n    }\n\n    struct Collection {\n        string description;\n        uint256[] collectionNFTs;\n    }\n\n    //string[] public nftIds;\n    mapping (address => Collection) displayCases;\n    mapping (address => Listing[]) userListings;\n    Listing[] private listings;\n    User[] public users;\n\n    function getListings() public view returns (Listing[] memory) {\n        return listings;\n    }\n\n    function putUpForSale(uint256 _nftId, uint256 _price, uint256 _royalty, bool _isAuction, uint256 _endTime) public {\n        require(vNFTContract.ownerOf(_nftId) == msg.sender);\n        _listingIds.increment();\n        uint256 _listingId = _listingIds.current();\n        Listing memory saleListing = Listing(_listingId, _nftId, msg.sender, _price, false, _royalty, _isAuction, _endTime);\n        userListings[msg.sender].push(saleListing);\n        listings.push(saleListing);\n    }\n\n    function pullFromSale(Listing memory _listing) public {\n        require(_listing.owner == msg.sender);\n        Listing[] storage curUserListings = userListings[msg.sender];\n        for (uint i = 0; i < curUserListings.length; i++) {\n            Listing memory listing = curUserListings[i];\n            if (listing.listingId == _listing.listingId) {\n                curUserListings[i] = curUserListings[curUserListings.length - 1];\n                userListings[msg.sender] = curUserListings;\n                userListings[msg.sender].pop();\n                break;\n            }\n        }\n    }\n\n    function withdrawNFT() public {\n        //Burn NFT\n        //Send message to prompt front-end email sending\n    }\n}",
  "sourcePath": "/Users/blakehatch/Viridian-Exchange-Contracts/contracts/ViridianExchange.sol",
  "compiler": {
    "name": "solc",
    "version": "0.8.6+commit.11564f7e.Emscripten.clang"
  },
  "schemaVersion": "3.4.1",
  "updatedAt": "2021-07-16T17:45:51.787Z",
  "networkType": "ethereum",
  "devdoc": {
    "kind": "dev",
    "methods": {},
    "version": 1
  },
  "userdoc": {
    "kind": "user",
    "methods": {},
    "version": 1
  }
}