{
  "contractName": "ViridianExchangeOffers",
  "abi": [
    {
      "inputs": [
        {
          "internalType": "address",
          "name": "_viridianToken",
          "type": "address"
        },
        {
          "internalType": "address",
          "name": "_viridianNFT",
          "type": "address"
        },
        {
          "internalType": "address",
          "name": "_viridianPack",
          "type": "address"
        }
      ],
      "stateMutability": "nonpayable",
      "type": "constructor"
    },
    {
      "anonymous": false,
      "inputs": [
        {
          "indexed": true,
          "internalType": "address",
          "name": "previousOwner",
          "type": "address"
        },
        {
          "indexed": true,
          "internalType": "address",
          "name": "newOwner",
          "type": "address"
        }
      ],
      "name": "OwnershipTransferred",
      "type": "event"
    },
    {
      "inputs": [],
      "name": "owner",
      "outputs": [
        {
          "internalType": "address",
          "name": "",
          "type": "address"
        }
      ],
      "stateMutability": "view",
      "type": "function",
      "constant": true
    },
    {
      "inputs": [],
      "name": "renounceOwnership",
      "outputs": [],
      "stateMutability": "nonpayable",
      "type": "function"
    },
    {
      "inputs": [
        {
          "internalType": "address",
          "name": "newOwner",
          "type": "address"
        }
      ],
      "name": "transferOwnership",
      "outputs": [],
      "stateMutability": "nonpayable",
      "type": "function"
    },
    {
      "inputs": [],
      "name": "viridianNFT",
      "outputs": [
        {
          "internalType": "address",
          "name": "",
          "type": "address"
        }
      ],
      "stateMutability": "view",
      "type": "function",
      "constant": true
    },
    {
      "inputs": [],
      "name": "viridianPack",
      "outputs": [
        {
          "internalType": "address",
          "name": "",
          "type": "address"
        }
      ],
      "stateMutability": "view",
      "type": "function",
      "constant": true
    },
    {
      "inputs": [],
      "name": "viridianToken",
      "outputs": [
        {
          "internalType": "address",
          "name": "",
          "type": "address"
        }
      ],
      "stateMutability": "view",
      "type": "function",
      "constant": true
    },
    {
      "inputs": [],
      "name": "getOffers",
      "outputs": [
        {
          "internalType": "uint256[]",
          "name": "",
          "type": "uint256[]"
        }
      ],
      "stateMutability": "view",
      "type": "function",
      "constant": true
    },
    {
      "inputs": [
        {
          "internalType": "uint256",
          "name": "_offerId",
          "type": "uint256"
        }
      ],
      "name": "getOffersFromId",
      "outputs": [
        {
          "components": [
            {
              "internalType": "uint256",
              "name": "offerId",
              "type": "uint256"
            },
            {
              "internalType": "uint256[]",
              "name": "toNftIds",
              "type": "uint256[]"
            },
            {
              "internalType": "uint256[]",
              "name": "toPackIds",
              "type": "uint256[]"
            },
            {
              "internalType": "uint256",
              "name": "toAmt",
              "type": "uint256"
            },
            {
              "internalType": "uint256[]",
              "name": "fromNftIds",
              "type": "uint256[]"
            },
            {
              "internalType": "uint256[]",
              "name": "fromPackIds",
              "type": "uint256[]"
            },
            {
              "internalType": "uint256",
              "name": "fromAmt",
              "type": "uint256"
            },
            {
              "internalType": "address",
              "name": "to",
              "type": "address"
            },
            {
              "internalType": "address",
              "name": "from",
              "type": "address"
            },
            {
              "internalType": "bool",
              "name": "isVEXT",
              "type": "bool"
            },
            {
              "internalType": "bool",
              "name": "pending",
              "type": "bool"
            },
            {
              "internalType": "uint256",
              "name": "startTime",
              "type": "uint256"
            },
            {
              "internalType": "uint256",
              "name": "endTime",
              "type": "uint256"
            }
          ],
          "internalType": "struct ViridianExchangeOffers.Offer",
          "name": "",
          "type": "tuple"
        }
      ],
      "stateMutability": "view",
      "type": "function",
      "constant": true
    },
    {
      "inputs": [
        {
          "internalType": "address",
          "name": "_userAddr",
          "type": "address"
        }
      ],
      "name": "getOffersFromUser",
      "outputs": [
        {
          "components": [
            {
              "internalType": "uint256",
              "name": "offerId",
              "type": "uint256"
            },
            {
              "internalType": "uint256[]",
              "name": "toNftIds",
              "type": "uint256[]"
            },
            {
              "internalType": "uint256[]",
              "name": "toPackIds",
              "type": "uint256[]"
            },
            {
              "internalType": "uint256",
              "name": "toAmt",
              "type": "uint256"
            },
            {
              "internalType": "uint256[]",
              "name": "fromNftIds",
              "type": "uint256[]"
            },
            {
              "internalType": "uint256[]",
              "name": "fromPackIds",
              "type": "uint256[]"
            },
            {
              "internalType": "uint256",
              "name": "fromAmt",
              "type": "uint256"
            },
            {
              "internalType": "address",
              "name": "to",
              "type": "address"
            },
            {
              "internalType": "address",
              "name": "from",
              "type": "address"
            },
            {
              "internalType": "bool",
              "name": "isVEXT",
              "type": "bool"
            },
            {
              "internalType": "bool",
              "name": "pending",
              "type": "bool"
            },
            {
              "internalType": "uint256",
              "name": "startTime",
              "type": "uint256"
            },
            {
              "internalType": "uint256",
              "name": "endTime",
              "type": "uint256"
            }
          ],
          "internalType": "struct ViridianExchangeOffers.Offer[]",
          "name": "",
          "type": "tuple[]"
        }
      ],
      "stateMutability": "view",
      "type": "function",
      "constant": true
    },
    {
      "inputs": [
        {
          "internalType": "uint256",
          "name": "_offerId",
          "type": "uint256"
        }
      ],
      "name": "hasOfferExpired",
      "outputs": [
        {
          "internalType": "bool",
          "name": "",
          "type": "bool"
        }
      ],
      "stateMutability": "view",
      "type": "function",
      "constant": true
    },
    {
      "inputs": [
        {
          "internalType": "address",
          "name": "_to",
          "type": "address"
        },
        {
          "internalType": "uint256[]",
          "name": "_nftIds",
          "type": "uint256[]"
        },
        {
          "internalType": "uint256[]",
          "name": "_packIds",
          "type": "uint256[]"
        },
        {
          "internalType": "uint256",
          "name": "_amount",
          "type": "uint256"
        },
        {
          "internalType": "uint256[]",
          "name": "_recNftIds",
          "type": "uint256[]"
        },
        {
          "internalType": "uint256[]",
          "name": "_recPackIds",
          "type": "uint256[]"
        },
        {
          "internalType": "uint256",
          "name": "_recAmount",
          "type": "uint256"
        },
        {
          "internalType": "bool",
          "name": "isVEXT",
          "type": "bool"
        },
        {
          "internalType": "uint256",
          "name": "_daysValid",
          "type": "uint256"
        }
      ],
      "name": "makeOffer",
      "outputs": [],
      "stateMutability": "nonpayable",
      "type": "function"
    },
    {
      "inputs": [
        {
          "internalType": "uint256",
          "name": "_offerId",
          "type": "uint256"
        }
      ],
      "name": "cancelOffer",
      "outputs": [],
      "stateMutability": "nonpayable",
      "type": "function"
    },
    {
      "inputs": [
        {
          "internalType": "uint256",
          "name": "_offerId",
          "type": "uint256"
        }
      ],
      "name": "acceptOfferWithVEXT",
      "outputs": [],
      "stateMutability": "nonpayable",
      "type": "function"
    }
  ],
  "bytecode": "0x60806040523480156200001157600080fd5b5060405162003f3b38038062003f3b83398181016040528101906200003791906200038c565b620000576200004b6200025660201b60201c565b6200025e60201b60201c565b600073ffffffffffffffffffffffffffffffffffffffff168373ffffffffffffffffffffffffffffffffffffffff1614156200009257600080fd5b600073ffffffffffffffffffffffffffffffffffffffff168273ffffffffffffffffffffffffffffffffffffffff161415620000cd57600080fd5b600073ffffffffffffffffffffffffffffffffffffffff168173ffffffffffffffffffffffffffffffffffffffff1614156200010857600080fd5b82600a60006101000a81548173ffffffffffffffffffffffffffffffffffffffff021916908373ffffffffffffffffffffffffffffffffffffffff16021790555081600860006101000a81548173ffffffffffffffffffffffffffffffffffffffff021916908373ffffffffffffffffffffffffffffffffffffffff16021790555080600960006101000a81548173ffffffffffffffffffffffffffffffffffffffff021916908373ffffffffffffffffffffffffffffffffffffffff16021790555081600260006101000a81548173ffffffffffffffffffffffffffffffffffffffff021916908373ffffffffffffffffffffffffffffffffffffffff16021790555080600360006101000a81548173ffffffffffffffffffffffffffffffffffffffff021916908373ffffffffffffffffffffffffffffffffffffffff160217905550505050620003e8565b600033905090565b60008060009054906101000a900473ffffffffffffffffffffffffffffffffffffffff169050816000806101000a81548173ffffffffffffffffffffffffffffffffffffffff021916908373ffffffffffffffffffffffffffffffffffffffff1602179055508173ffffffffffffffffffffffffffffffffffffffff168173ffffffffffffffffffffffffffffffffffffffff167f8be0079c531659141344cd1fd0a4f28419497f9722a3daafe3b4186f6b6457e060405160405180910390a35050565b600080fd5b600073ffffffffffffffffffffffffffffffffffffffff82169050919050565b6000620003548262000327565b9050919050565b620003668162000347565b81146200037257600080fd5b50565b60008151905062000386816200035b565b92915050565b600080600060608486031215620003a857620003a762000322565b5b6000620003b88682870162000375565b9350506020620003cb8682870162000375565b9250506040620003de8682870162000375565b9150509250925092565b613b4380620003f86000396000f3fe608060405234801561001057600080fd5b50600436106100cf5760003560e01c8063aec99da21161008c578063f2f57e9511610066578063f2f57e95146101ec578063f2fde38b1461020a578063fe257afc14610226578063ff1080df14610244576100cf565b8063aec99da214610184578063d382335a146101a0578063ef706adf146101d0576100cf565b80632da967c1146100d45780633eaf56b0146100f05780633ee992ee14610120578063715018a61461013e5780638da5cb5b146101485780639a70128814610166575b600080fd5b6100ee60048036038101906100e99190612e86565b610274565b005b61010a60048036038101906101059190612fc0565b61071b565b60405161011791906131f7565b60405180910390f35b6101286109bd565b6040516101359190613288565b60405180910390f35b610146610a15565b005b610150610a9d565b60405161015d91906132b9565b60405180910390f35b61016e610ac6565b60405161017b91906132b9565b60405180910390f35b61019e60048036038101906101999190612fc0565b610aec565b005b6101ba60048036038101906101b591906132d4565b61187e565b6040516101c791906134f1565b60405180910390f35b6101ea60048036038101906101e59190612fc0565b611b91565b005b6101f4612559565b60405161020191906132b9565b60405180910390f35b610224600480360381019061021f91906132d4565b61257f565b005b61022e612677565b60405161023b91906132b9565b60405180910390f35b61025e60048036038101906102599190612fc0565b61269d565b60405161026b9190613522565b60405180910390f35b3373ffffffffffffffffffffffffffffffffffffffff168973ffffffffffffffffffffffffffffffffffffffff1614156102ad57600080fd5b6102b760016126e5565b60006102c360016126fb565b9050600062015180836102d6919061356c565b426102e191906135c6565b90506000604051806101a001604052808481526020018c81526020018b81526020018a81526020018981526020018881526020018781526020018d73ffffffffffffffffffffffffffffffffffffffff1681526020013373ffffffffffffffffffffffffffffffffffffffff1681526020018615158152602001600115158152602001428152602001838152509050600460008d73ffffffffffffffffffffffffffffffffffffffff1673ffffffffffffffffffffffffffffffffffffffff1681526020019081526020016000208190806001815401808255809150506001900390600052602060002090600b02016000909190919091506000820151816000015560208201518160010190805190602001906103ff9291906127d5565b50604082015181600201908051906020019061041c9291906127d5565b506060820151816003015560808201518160040190805190602001906104439291906127d5565b5060a08201518160050190805190602001906104609291906127d5565b5060c0820151816006015560e08201518160070160006101000a81548173ffffffffffffffffffffffffffffffffffffffff021916908373ffffffffffffffffffffffffffffffffffffffff1602179055506101008201518160080160006101000a81548173ffffffffffffffffffffffffffffffffffffffff021916908373ffffffffffffffffffffffffffffffffffffffff1602179055506101208201518160080160146101000a81548160ff0219169083151502179055506101408201518160080160156101000a81548160ff021916908315150217905550610160820151816009015561018082015181600a01555050806005600085815260200190815260200160002060008201518160000155602082015181600101908051906020019061058e9291906127d5565b5060408201518160020190805190602001906105ab9291906127d5565b506060820151816003015560808201518160040190805190602001906105d29291906127d5565b5060a08201518160050190805190602001906105ef9291906127d5565b5060c0820151816006015560e08201518160070160006101000a81548173ffffffffffffffffffffffffffffffffffffffff021916908373ffffffffffffffffffffffffffffffffffffffff1602179055506101008201518160080160006101000a81548173ffffffffffffffffffffffffffffffffffffffff021916908373ffffffffffffffffffffffffffffffffffffffff1602179055506101208201518160080160146101000a81548160ff0219169083151502179055506101408201518160080160156101000a81548160ff021916908315150217905550610160820151816009015561018082015181600a01559050506006839080600181540180825580915050600190039060005260206000200160009091909190915055505050505050505050505050565b610723612822565b60056000838152602001908152602001600020604051806101a0016040529081600082015481526020016001820180548060200260200160405190810160405280929190818152602001828054801561079b57602002820191906000526020600020905b815481526020019060010190808311610787575b50505050508152602001600282018054806020026020016040519081016040528092919081815260200182805480156107f357602002820191906000526020600020905b8154815260200190600101908083116107df575b50505050508152602001600382015481526020016004820180548060200260200160405190810160405280929190818152602001828054801561085557602002820191906000526020600020905b815481526020019060010190808311610841575b50505050508152602001600582018054806020026020016040519081016040528092919081815260200182805480156108ad57602002820191906000526020600020905b815481526020019060010190808311610899575b50505050508152602001600682015481526020016007820160009054906101000a900473ffffffffffffffffffffffffffffffffffffffff1673ffffffffffffffffffffffffffffffffffffffff1673ffffffffffffffffffffffffffffffffffffffff1681526020016008820160009054906101000a900473ffffffffffffffffffffffffffffffffffffffff1673ffffffffffffffffffffffffffffffffffffffff1673ffffffffffffffffffffffffffffffffffffffff1681526020016008820160149054906101000a900460ff161515151581526020016008820160159054906101000a900460ff1615151515815260200160098201548152602001600a820154815250509050919050565b60606006805480602002602001604051908101604052809291908181526020018280548015610a0b57602002820191906000526020600020905b8154815260200190600101908083116109f7575b5050505050905090565b610a1d612709565b73ffffffffffffffffffffffffffffffffffffffff16610a3b610a9d565b73ffffffffffffffffffffffffffffffffffffffff1614610a91576040517f08c379a0000000000000000000000000000000000000000000000000000000008152600401610a8890613679565b60405180910390fd5b610a9b6000612711565b565b60008060009054906101000a900473ffffffffffffffffffffffffffffffffffffffff16905090565b600860009054906101000a900473ffffffffffffffffffffffffffffffffffffffff1681565b60006005600083815260200190815260200160002090503373ffffffffffffffffffffffffffffffffffffffff168160070160009054906101000a900473ffffffffffffffffffffffffffffffffffffffff1673ffffffffffffffffffffffffffffffffffffffff1614610b95576040517f08c379a0000000000000000000000000000000000000000000000000000000008152600401610b8c9061370b565b60405180910390fd5b610b9e8261269d565b610bdd576040517f08c379a0000000000000000000000000000000000000000000000000000000008152600401610bd490613777565b60405180910390fd5b60008160080160156101000a81548160ff02191690831515021790555060005b8160010180549050811015610d7b578160080160009054906101000a900473ffffffffffffffffffffffffffffffffffffffff1673ffffffffffffffffffffffffffffffffffffffff16600860009054906101000a900473ffffffffffffffffffffffffffffffffffffffff1673ffffffffffffffffffffffffffffffffffffffff16636352211e846001018481548110610c9b57610c9a613797565b5b90600052602060002001546040518263ffffffff1660e01b8152600401610cc291906137d5565b60206040518083038186803b158015610cda57600080fd5b505afa158015610cee573d6000803e3d6000fd5b505050506040513d601f19601f82011682018060405250810190610d129190613805565b73ffffffffffffffffffffffffffffffffffffffff1614610d68576040517f08c379a0000000000000000000000000000000000000000000000000000000008152600401610d5f906138a4565b60405180910390fd5b8080610d73906138c4565b915050610bfd565b5060005b8160040180549050811015610efd578160070160009054906101000a900473ffffffffffffffffffffffffffffffffffffffff1673ffffffffffffffffffffffffffffffffffffffff16600860009054906101000a900473ffffffffffffffffffffffffffffffffffffffff1673ffffffffffffffffffffffffffffffffffffffff16636352211e846004018481548110610e1d57610e1c613797565b5b90600052602060002001546040518263ffffffff1660e01b8152600401610e4491906137d5565b60206040518083038186803b158015610e5c57600080fd5b505afa158015610e70573d6000803e3d6000fd5b505050506040513d601f19601f82011682018060405250810190610e949190613805565b73ffffffffffffffffffffffffffffffffffffffff1614610eea576040517f08c379a0000000000000000000000000000000000000000000000000000000008152600401610ee19061397f565b60405180910390fd5b8080610ef5906138c4565b915050610d7f565b5060005b816002018054905081101561107f578160080160009054906101000a900473ffffffffffffffffffffffffffffffffffffffff1673ffffffffffffffffffffffffffffffffffffffff16600960009054906101000a900473ffffffffffffffffffffffffffffffffffffffff1673ffffffffffffffffffffffffffffffffffffffff16636352211e846002018481548110610f9f57610f9e613797565b5b90600052602060002001546040518263ffffffff1660e01b8152600401610fc691906137d5565b60206040518083038186803b158015610fde57600080fd5b505afa158015610ff2573d6000803e3d6000fd5b505050506040513d601f19601f820116820180604052508101906110169190613805565b73ffffffffffffffffffffffffffffffffffffffff161461106c576040517f08c379a0000000000000000000000000000000000000000000000000000000008152600401611063906138a4565b60405180910390fd5b8080611077906138c4565b915050610f01565b5060005b8160050180549050811015611201578160070160009054906101000a900473ffffffffffffffffffffffffffffffffffffffff1673ffffffffffffffffffffffffffffffffffffffff16600960009054906101000a900473ffffffffffffffffffffffffffffffffffffffff1673ffffffffffffffffffffffffffffffffffffffff16636352211e84600501848154811061112157611120613797565b5b90600052602060002001546040518263ffffffff1660e01b815260040161114891906137d5565b60206040518083038186803b15801561116057600080fd5b505afa158015611174573d6000803e3d6000fd5b505050506040513d601f19601f820116820180604052508101906111989190613805565b73ffffffffffffffffffffffffffffffffffffffff16146111ee576040517f08c379a00000000000000000000000000000000000000000000000000000000081526004016111e59061397f565b60405180910390fd5b80806111f9906138c4565b915050611083565b50600a60009054906101000a900473ffffffffffffffffffffffffffffffffffffffff1673ffffffffffffffffffffffffffffffffffffffff166323b872dd8260080160009054906101000a900473ffffffffffffffffffffffffffffffffffffffff168360070160009054906101000a900473ffffffffffffffffffffffffffffffffffffffff1684600301546040518463ffffffff1660e01b81526004016112ad9392919061399f565b602060405180830381600087803b1580156112c757600080fd5b505af11580156112db573d6000803e3d6000fd5b505050506040513d601f19601f820116820180604052508101906112ff91906139eb565b50600a60009054906101000a900473ffffffffffffffffffffffffffffffffffffffff1673ffffffffffffffffffffffffffffffffffffffff166323b872dd8260070160009054906101000a900473ffffffffffffffffffffffffffffffffffffffff168360080160009054906101000a900473ffffffffffffffffffffffffffffffffffffffff1684600601546040518463ffffffff1660e01b81526004016113ab9392919061399f565b602060405180830381600087803b1580156113c557600080fd5b505af11580156113d9573d6000803e3d6000fd5b505050506040513d601f19601f820116820180604052508101906113fd91906139eb565b5060005b816001018054905081101561151c57600860009054906101000a900473ffffffffffffffffffffffffffffffffffffffff1673ffffffffffffffffffffffffffffffffffffffff166342842e0e8360080160009054906101000a900473ffffffffffffffffffffffffffffffffffffffff168460070160009054906101000a900473ffffffffffffffffffffffffffffffffffffffff168560010185815481106114ae576114ad613797565b5b90600052602060002001546040518463ffffffff1660e01b81526004016114d79392919061399f565b600060405180830381600087803b1580156114f157600080fd5b505af1158015611505573d6000803e3d6000fd5b505050508080611514906138c4565b915050611401565b5060005b816004018054905081101561163b57600860009054906101000a900473ffffffffffffffffffffffffffffffffffffffff1673ffffffffffffffffffffffffffffffffffffffff166342842e0e8360070160009054906101000a900473ffffffffffffffffffffffffffffffffffffffff168460080160009054906101000a900473ffffffffffffffffffffffffffffffffffffffff168560040185815481106115cd576115cc613797565b5b90600052602060002001546040518463ffffffff1660e01b81526004016115f69392919061399f565b600060405180830381600087803b15801561161057600080fd5b505af1158015611624573d6000803e3d6000fd5b505050508080611633906138c4565b915050611520565b5060005b816002018054905081101561175a57600960009054906101000a900473ffffffffffffffffffffffffffffffffffffffff1673ffffffffffffffffffffffffffffffffffffffff166342842e0e8360080160009054906101000a900473ffffffffffffffffffffffffffffffffffffffff168460070160009054906101000a900473ffffffffffffffffffffffffffffffffffffffff168560020185815481106116ec576116eb613797565b5b90600052602060002001546040518463ffffffff1660e01b81526004016117159392919061399f565b600060405180830381600087803b15801561172f57600080fd5b505af1158015611743573d6000803e3d6000fd5b505050508080611752906138c4565b91505061163f565b5060005b816005018054905081101561187957600960009054906101000a900473ffffffffffffffffffffffffffffffffffffffff1673ffffffffffffffffffffffffffffffffffffffff166342842e0e8360070160009054906101000a900473ffffffffffffffffffffffffffffffffffffffff168460080160009054906101000a900473ffffffffffffffffffffffffffffffffffffffff1685600501858154811061180b5761180a613797565b5b90600052602060002001546040518463ffffffff1660e01b81526004016118349392919061399f565b600060405180830381600087803b15801561184e57600080fd5b505af1158015611862573d6000803e3d6000fd5b505050508080611871906138c4565b91505061175e565b505050565b6060600460008373ffffffffffffffffffffffffffffffffffffffff1673ffffffffffffffffffffffffffffffffffffffff168152602001908152602001600020805480602002602001604051908101604052809291908181526020016000905b82821015611b8657838290600052602060002090600b0201604051806101a0016040529081600082015481526020016001820180548060200260200160405190810160405280929190818152602001828054801561195c57602002820191906000526020600020905b815481526020019060010190808311611948575b50505050508152602001600282018054806020026020016040519081016040528092919081815260200182805480156119b457602002820191906000526020600020905b8154815260200190600101908083116119a0575b505050505081526020016003820154815260200160048201805480602002602001604051908101604052809291908181526020018280548015611a1657602002820191906000526020600020905b815481526020019060010190808311611a02575b5050505050815260200160058201805480602002602001604051908101604052809291908181526020018280548015611a6e57602002820191906000526020600020905b815481526020019060010190808311611a5a575b50505050508152602001600682015481526020016007820160009054906101000a900473ffffffffffffffffffffffffffffffffffffffff1673ffffffffffffffffffffffffffffffffffffffff1673ffffffffffffffffffffffffffffffffffffffff1681526020016008820160009054906101000a900473ffffffffffffffffffffffffffffffffffffffff1673ffffffffffffffffffffffffffffffffffffffff1673ffffffffffffffffffffffffffffffffffffffff1681526020016008820160149054906101000a900460ff161515151581526020016008820160159054906101000a900460ff1615151515815260200160098201548152602001600a82015481525050815260200190600101906118df565b505050509050919050565b60006005600083815260200190815260200160002090503373ffffffffffffffffffffffffffffffffffffffff168160080160009054906101000a900473ffffffffffffffffffffffffffffffffffffffff1673ffffffffffffffffffffffffffffffffffffffff161480611c5557503373ffffffffffffffffffffffffffffffffffffffff168160070160009054906101000a900473ffffffffffffffffffffffffffffffffffffffff1673ffffffffffffffffffffffffffffffffffffffff16145b611c5e57600080fd5b6000600460008360070160009054906101000a900473ffffffffffffffffffffffffffffffffffffffff1673ffffffffffffffffffffffffffffffffffffffff1673ffffffffffffffffffffffffffffffffffffffff168152602001908152602001600020905060005b818054905081101561238b576000828281548110611ce957611ce8613797565b5b90600052602060002090600b0201604051806101a00160405290816000820154815260200160018201805480602002602001604051908101604052809291908181526020018280548015611d5c57602002820191906000526020600020905b815481526020019060010190808311611d48575b5050505050815260200160028201805480602002602001604051908101604052809291908181526020018280548015611db457602002820191906000526020600020905b815481526020019060010190808311611da0575b505050505081526020016003820154815260200160048201805480602002602001604051908101604052809291908181526020018280548015611e1657602002820191906000526020600020905b815481526020019060010190808311611e02575b5050505050815260200160058201805480602002602001604051908101604052809291908181526020018280548015611e6e57602002820191906000526020600020905b815481526020019060010190808311611e5a575b50505050508152602001600682015481526020016007820160009054906101000a900473ffffffffffffffffffffffffffffffffffffffff1673ffffffffffffffffffffffffffffffffffffffff1673ffffffffffffffffffffffffffffffffffffffff1681526020016008820160009054906101000a900473ffffffffffffffffffffffffffffffffffffffff1673ffffffffffffffffffffffffffffffffffffffff1673ffffffffffffffffffffffffffffffffffffffff1681526020016008820160149054906101000a900460ff161515151581526020016008820160159054906101000a900460ff1615151515815260200160098201548152602001600a820154815250509050836000015481600001511415612377578260018480549050611f9b9190613a18565b81548110611fac57611fab613797565b5b90600052602060002090600b0201838381548110611fcd57611fcc613797565b5b90600052602060002090600b0201600082015481600001556001820181600101908054611ffb9291906128ba565b5060028201816002019080546120129291906128ba565b506003820154816003015560048201816004019080546120339291906128ba565b50600582018160050190805461204a9291906128ba565b50600682015481600601556007820160009054906101000a900473ffffffffffffffffffffffffffffffffffffffff168160070160006101000a81548173ffffffffffffffffffffffffffffffffffffffff021916908373ffffffffffffffffffffffffffffffffffffffff1602179055506008820160009054906101000a900473ffffffffffffffffffffffffffffffffffffffff168160080160006101000a81548173ffffffffffffffffffffffffffffffffffffffff021916908373ffffffffffffffffffffffffffffffffffffffff1602179055506008820160149054906101000a900460ff168160080160146101000a81548160ff0219169083151502179055506008820160159054906101000a900460ff168160080160156101000a81548160ff02191690831515021790555060098201548160090155600a82015481600a015590505082600460008660070160009054906101000a900473ffffffffffffffffffffffffffffffffffffffff1673ffffffffffffffffffffffffffffffffffffffff1673ffffffffffffffffffffffffffffffffffffffff16815260200190815260200160002090805461220692919061290c565b50600460008560070160009054906101000a900473ffffffffffffffffffffffffffffffffffffffff1673ffffffffffffffffffffffffffffffffffffffff1673ffffffffffffffffffffffffffffffffffffffff16815260200190815260200160002080548061227a57612279613a4c565b5b60019003818190600052602060002090600b02016000808201600090556001820160006122a79190612b1a565b6002820160006122b79190612b1a565b60038201600090556004820160006122cf9190612b1a565b6005820160006122df9190612b1a565b60068201600090556007820160006101000a81549073ffffffffffffffffffffffffffffffffffffffff02191690556008820160006101000a81549073ffffffffffffffffffffffffffffffffffffffff02191690556008820160146101000a81549060ff02191690556008820160156101000a81549060ff02191690556009820160009055600a820160009055505090555061238b565b508080612383906138c4565b915050611cc8565b5060005b60068054905081101561245f576000600682815481106123b2576123b1613797565b5b90600052602060002001549050836000015481141561244b57600660016006805490506123df9190613a18565b815481106123f0576123ef613797565b5b90600052602060002001546006838154811061240f5761240e613797565b5b9060005260206000200181905550600680548061242f5761242e613a4c565b5b600190038181906000526020600020016000905590555061245f565b508080612457906138c4565b91505061238f565b506005600084815260200190815260200160002060008082016000905560018201600061248c9190612b1a565b60028201600061249c9190612b1a565b60038201600090556004820160006124b49190612b1a565b6005820160006124c49190612b1a565b60068201600090556007820160006101000a81549073ffffffffffffffffffffffffffffffffffffffff02191690556008820160006101000a81549073ffffffffffffffffffffffffffffffffffffffff02191690556008820160146101000a81549060ff02191690556008820160156101000a81549060ff02191690556009820160009055600a8201600090555050505050565b600a60009054906101000a900473ffffffffffffffffffffffffffffffffffffffff1681565b612587612709565b73ffffffffffffffffffffffffffffffffffffffff166125a5610a9d565b73ffffffffffffffffffffffffffffffffffffffff16146125fb576040517f08c379a00000000000000000000000000000000000000000000000000000000081526004016125f290613679565b60405180910390fd5b600073ffffffffffffffffffffffffffffffffffffffff168173ffffffffffffffffffffffffffffffffffffffff16141561266b576040517f08c379a000000000000000000000000000000000000000000000000000000000815260040161266290613aed565b60405180910390fd5b61267481612711565b50565b600960009054906101000a900473ffffffffffffffffffffffffffffffffffffffff1681565b6000806005600084815260200190815260200160002090508060080160159054906101000a900460ff166126d55760009150506126e0565b4281600a0154119150505b919050565b6001816000016000828254019250508190555050565b600081600001549050919050565b600033905090565b60008060009054906101000a900473ffffffffffffffffffffffffffffffffffffffff169050816000806101000a81548173ffffffffffffffffffffffffffffffffffffffff021916908373ffffffffffffffffffffffffffffffffffffffff1602179055508173ffffffffffffffffffffffffffffffffffffffff168173ffffffffffffffffffffffffffffffffffffffff167f8be0079c531659141344cd1fd0a4f28419497f9722a3daafe3b4186f6b6457e060405160405180910390a35050565b828054828255906000526020600020908101928215612811579160200282015b828111156128105782518255916020019190600101906127f5565b5b50905061281e9190612b3b565b5090565b604051806101a0016040528060008152602001606081526020016060815260200160008152602001606081526020016060815260200160008152602001600073ffffffffffffffffffffffffffffffffffffffff168152602001600073ffffffffffffffffffffffffffffffffffffffff16815260200160001515815260200160001515815260200160008152602001600081525090565b8280548282559060005260206000209081019282156128fb5760005260206000209182015b828111156128fa5782548255916001019190600101906128df565b5b5090506129089190612b3b565b5090565b82805482825590600052602060002090600b028101928215612b0957600052602060002091600b0282015b82811115612b085782826000820154816000015560018201816001019080546129619291906128ba565b5060028201816002019080546129789291906128ba565b506003820154816003015560048201816004019080546129999291906128ba565b5060058201816005019080546129b09291906128ba565b50600682015481600601556007820160009054906101000a900473ffffffffffffffffffffffffffffffffffffffff168160070160006101000a81548173ffffffffffffffffffffffffffffffffffffffff021916908373ffffffffffffffffffffffffffffffffffffffff1602179055506008820160009054906101000a900473ffffffffffffffffffffffffffffffffffffffff168160080160006101000a81548173ffffffffffffffffffffffffffffffffffffffff021916908373ffffffffffffffffffffffffffffffffffffffff1602179055506008820160149054906101000a900460ff168160080160146101000a81548160ff0219169083151502179055506008820160159054906101000a900460ff168160080160156101000a81548160ff02191690831515021790555060098201548160090155600a82015481600a0155505091600b019190600b0190612937565b5b509050612b169190612b58565b5090565b5080546000825590600052602060002090810190612b389190612b3b565b50565b5b80821115612b54576000816000905550600101612b3c565b5090565b5b80821115612c4957600080820160009055600182016000612b7a9190612b1a565b600282016000612b8a9190612b1a565b6003820160009055600482016000612ba29190612b1a565b600582016000612bb29190612b1a565b60068201600090556007820160006101000a81549073ffffffffffffffffffffffffffffffffffffffff02191690556008820160006101000a81549073ffffffffffffffffffffffffffffffffffffffff02191690556008820160146101000a81549060ff02191690556008820160156101000a81549060ff02191690556009820160009055600a82016000905550600b01612b59565b5090565b6000604051905090565b600080fd5b600080fd5b600073ffffffffffffffffffffffffffffffffffffffff82169050919050565b6000612c8c82612c61565b9050919050565b612c9c81612c81565b8114612ca757600080fd5b50565b600081359050612cb981612c93565b92915050565b600080fd5b6000601f19601f8301169050919050565b7f4e487b7100000000000000000000000000000000000000000000000000000000600052604160045260246000fd5b612d0d82612cc4565b810181811067ffffffffffffffff82111715612d2c57612d2b612cd5565b5b80604052505050565b6000612d3f612c4d565b9050612d4b8282612d04565b919050565b600067ffffffffffffffff821115612d6b57612d6a612cd5565b5b602082029050602081019050919050565b600080fd5b6000819050919050565b612d9481612d81565b8114612d9f57600080fd5b50565b600081359050612db181612d8b565b92915050565b6000612dca612dc584612d50565b612d35565b90508083825260208201905060208402830185811115612ded57612dec612d7c565b5b835b81811015612e165780612e028882612da2565b845260208401935050602081019050612def565b5050509392505050565b600082601f830112612e3557612e34612cbf565b5b8135612e45848260208601612db7565b91505092915050565b60008115159050919050565b612e6381612e4e565b8114612e6e57600080fd5b50565b600081359050612e8081612e5a565b92915050565b60008060008060008060008060006101208a8c031215612ea957612ea8612c57565b5b6000612eb78c828d01612caa565b99505060208a013567ffffffffffffffff811115612ed857612ed7612c5c565b5b612ee48c828d01612e20565b98505060408a013567ffffffffffffffff811115612f0557612f04612c5c565b5b612f118c828d01612e20565b9750506060612f228c828d01612da2565b96505060808a013567ffffffffffffffff811115612f4357612f42612c5c565b5b612f4f8c828d01612e20565b95505060a08a013567ffffffffffffffff811115612f7057612f6f612c5c565b5b612f7c8c828d01612e20565b94505060c0612f8d8c828d01612da2565b93505060e0612f9e8c828d01612e71565b925050610100612fb08c828d01612da2565b9150509295985092959850929598565b600060208284031215612fd657612fd5612c57565b5b6000612fe484828501612da2565b91505092915050565b612ff681612d81565b82525050565b600081519050919050565b600082825260208201905092915050565b6000819050602082019050919050565b60006130348383612fed565b60208301905092915050565b6000602082019050919050565b600061305882612ffc565b6130628185613007565b935061306d83613018565b8060005b8381101561309e5781516130858882613028565b975061309083613040565b925050600181019050613071565b5085935050505092915050565b6130b481612c81565b82525050565b6130c381612e4e565b82525050565b60006101a0830160008301516130e26000860182612fed565b50602083015184820360208601526130fa828261304d565b91505060408301518482036040860152613114828261304d565b91505060608301516131296060860182612fed565b5060808301518482036080860152613141828261304d565b91505060a083015184820360a086015261315b828261304d565b91505060c083015161317060c0860182612fed565b5060e083015161318360e08601826130ab565b506101008301516131986101008601826130ab565b506101208301516131ad6101208601826130ba565b506101408301516131c26101408601826130ba565b506101608301516131d7610160860182612fed565b506101808301516131ec610180860182612fed565b508091505092915050565b6000602082019050818103600083015261321181846130c9565b905092915050565b600082825260208201905092915050565b600061323582612ffc565b61323f8185613219565b935061324a83613018565b8060005b8381101561327b5781516132628882613028565b975061326d83613040565b92505060018101905061324e565b5085935050505092915050565b600060208201905081810360008301526132a2818461322a565b905092915050565b6132b381612c81565b82525050565b60006020820190506132ce60008301846132aa565b92915050565b6000602082840312156132ea576132e9612c57565b5b60006132f884828501612caa565b91505092915050565b600081519050919050565b600082825260208201905092915050565b6000819050602082019050919050565b60006101a0830160008301516133466000860182612fed565b506020830151848203602086015261335e828261304d565b91505060408301518482036040860152613378828261304d565b915050606083015161338d6060860182612fed565b50608083015184820360808601526133a5828261304d565b91505060a083015184820360a08601526133bf828261304d565b91505060c08301516133d460c0860182612fed565b5060e08301516133e760e08601826130ab565b506101008301516133fc6101008601826130ab565b506101208301516134116101208601826130ba565b506101408301516134266101408601826130ba565b5061016083015161343b610160860182612fed565b50610180830151613450610180860182612fed565b508091505092915050565b6000613467838361332d565b905092915050565b6000602082019050919050565b600061348782613301565b613491818561330c565b9350836020820285016134a38561331d565b8060005b858110156134df57848403895281516134c0858261345b565b94506134cb8361346f565b925060208a019950506001810190506134a7565b50829750879550505050505092915050565b6000602082019050818103600083015261350b818461347c565b905092915050565b61351c81612e4e565b82525050565b60006020820190506135376000830184613513565b92915050565b7f4e487b7100000000000000000000000000000000000000000000000000000000600052601160045260246000fd5b600061357782612d81565b915061358283612d81565b9250817fffffffffffffffffffffffffffffffffffffffffffffffffffffffffffffffff04831182151516156135bb576135ba61353d565b5b828202905092915050565b60006135d182612d81565b91506135dc83612d81565b9250827fffffffffffffffffffffffffffffffffffffffffffffffffffffffffffffffff038211156136115761361061353d565b5b828201905092915050565b600082825260208201905092915050565b7f4f776e61626c653a2063616c6c6572206973206e6f7420746865206f776e6572600082015250565b600061366360208361361c565b915061366e8261362d565b602082019050919050565b6000602082019050818103600083015261369281613656565b9050919050565b7f4f6e6c79206f666665726564206163636f756e742063616e206163636570742060008201527f6f66666572000000000000000000000000000000000000000000000000000000602082015250565b60006136f560258361361c565b915061370082613699565b604082019050919050565b60006020820190508181036000830152613724816136e8565b9050919050565b7f4f66666572206861732065787069726564000000000000000000000000000000600082015250565b600061376160118361361c565b915061376c8261372b565b602082019050919050565b6000602082019050818103600083015261379081613754565b9050919050565b7f4e487b7100000000000000000000000000000000000000000000000000000000600052603260045260246000fd5b6137cf81612d81565b82525050565b60006020820190506137ea60008301846137c6565b92915050565b6000815190506137ff81612c93565b92915050565b60006020828403121561381b5761381a612c57565b5b6000613829848285016137f0565b91505092915050565b7f4f666665726564206163636f756e74206d757374206f776e20616c6c2072657160008201527f756573746564204e465473000000000000000000000000000000000000000000602082015250565b600061388e602b8361361c565b915061389982613832565b604082019050919050565b600060208201905081810360008301526138bd81613881565b9050919050565b60006138cf82612d81565b91507fffffffffffffffffffffffffffffffffffffffffffffffffffffffffffffffff8214156139025761390161353d565b5b600182019050919050565b7f4f66666572696e67206163636f756e74206d757374206f776e20616c6c206f6660008201527f6665726564204e46547300000000000000000000000000000000000000000000602082015250565b6000613969602a8361361c565b91506139748261390d565b604082019050919050565b600060208201905081810360008301526139988161395c565b9050919050565b60006060820190506139b460008301866132aa565b6139c160208301856132aa565b6139ce60408301846137c6565b949350505050565b6000815190506139e581612e5a565b92915050565b600060208284031215613a0157613a00612c57565b5b6000613a0f848285016139d6565b91505092915050565b6000613a2382612d81565b9150613a2e83612d81565b925082821015613a4157613a4061353d565b5b828203905092915050565b7f4e487b7100000000000000000000000000000000000000000000000000000000600052603160045260246000fd5b7f4f776e61626c653a206e6577206f776e657220697320746865207a65726f206160008201527f6464726573730000000000000000000000000000000000000000000000000000602082015250565b6000613ad760268361361c565b9150613ae282613a7b565b604082019050919050565b60006020820190508181036000830152613b0681613aca565b905091905056fea2646970667358221220972e3e871db0ab1316170e0d65f622f6618111c814e66c6b1c41d652705a00a564736f6c63430008090033",
  "immutableReferences": {},
  "source": "pragma solidity ^0.8.0;\n\nimport \"@openzeppelin/contracts/access/Ownable.sol\";\nimport \"@openzeppelin/contracts/token/ERC721/ERC721.sol\";\nimport \"@openzeppelin/contracts/token/ERC20/IERC20.sol\";\nimport \"@openzeppelin/contracts/token/ERC20/ERC20.sol\";\nimport \"@openzeppelin/contracts/token/ERC721/IERC721.sol\";\nimport \"@openzeppelin/contracts/utils/Counters.sol\";\n\nimport \"./ViridianNFT.sol\";\nimport \"./ViridianPack.sol\";\n\ncontract ViridianExchangeOffers is Ownable {\n\n    using Counters for Counters.Counter;\n    Counters.Counter private _offerIds;\n\n    ViridianNFT vNFT;\n    ViridianPack vPack;\n\n    struct Offer {\n        uint256 offerId;\n        uint256[] toNftIds;\n        uint256[] toPackIds;\n        uint toAmt;\n        uint256[] fromNftIds;\n        uint256[] fromPackIds;\n        uint fromAmt;\n        address to;\n        address from;\n        bool isVEXT;\n        bool pending;\n        uint256 startTime;\n        uint256 endTime;\n    }\n\n    mapping (address => Offer[]) userOffers;\n    mapping (uint256 => Offer) offers;\n    uint256[] private offerIds;\n    mapping (uint256 => uint256) highestCardOffer;\n\n    address public viridianNFT;\n    address public viridianPack;\n    address public viridianToken;\n\n    constructor(address _viridianToken, address _viridianNFT, address _viridianPack) {\n        require(address(_viridianToken) != address(0));\n        require(address(_viridianNFT) != address(0));\n        require(address(_viridianPack) != address(0));\n\n        viridianToken = _viridianToken;\n        //address _ETH, ETH = _ETH;\n        viridianNFT = _viridianNFT;\n        viridianPack = _viridianPack;\n\n        vNFT = ViridianNFT(_viridianNFT);\n        vPack = ViridianPack(_viridianPack);\n    }\n\n    function getOffers() public view returns (uint256[] memory) {\n        return offerIds;\n    }\n\n    function getOffersFromId(uint256 _offerId) public view returns (Offer memory) {\n        return offers[_offerId];\n    }\n\n    function getOffersFromUser(address _userAddr) public view returns (Offer[] memory) {\n        return userOffers[_userAddr];\n    }\n\n    function hasOfferExpired(uint256 _offerId) public view returns (bool) {\n        Offer storage curOffer = offers[_offerId];\n\n        if (!curOffer.pending) {\n            return false;\n        }\n        else {\n            return curOffer.endTime > block.timestamp;\n        }\n    }\n\n    function makeOffer(address _to, uint256[] memory _nftIds, uint256[] memory _packIds, uint256 _amount, uint256[] memory _recNftIds, uint256[] memory _recPackIds, uint256 _recAmount, bool isVEXT, uint256 _daysValid) public {\n        require(_to != msg.sender);\n\n        // if(!IERC721(viridianNFT).isApprovedForAll(msg.sender, address(this))) {\n        //     IERC721(viridianNFT).setApprovalForAll(address(this), true);\n        // }\n\n        _offerIds.increment();\n        uint256 _offerId = _offerIds.current();\n\n        uint256 endTime = block.timestamp + (_daysValid * 1 days);\n\n        Offer memory newOffer = Offer(_offerId, _nftIds, _packIds, _amount, _recNftIds, _recPackIds, _recAmount, _to, msg.sender, isVEXT, true, block.timestamp, endTime);\n        \n        userOffers[_to].push(newOffer);\n        offers[_offerId] = newOffer;\n        offerIds.push(_offerId);\n    }\n\n    function cancelOffer(uint256 _offerId) public {\n        Offer storage curOffer = offers[_offerId];\n        require(curOffer.from == msg.sender || curOffer.to == msg.sender);\n        Offer[] storage curUserOffers = userOffers[curOffer.to];\n        \n        //TODO: Check who is cancelling and cancel that person's offers.\n\n        // Remove offer from current user's offers\n        for (uint i = 0; i < curUserOffers.length; i++) {\n            Offer memory offer = curUserOffers[i];\n            if (offer.offerId == curOffer.offerId) {\n                curUserOffers[i] = curUserOffers[curUserOffers.length - 1];\n                userOffers[curOffer.to] = curUserOffers;\n                userOffers[curOffer.to].pop();\n                break;\n            }\n        } \n\n        // Remove offer id from global list of offer ids\n        for (uint256 i = 0; i < offerIds.length; i++) {\n            uint256 offerId = offerIds[i];\n            if (offerId == curOffer.offerId) {\n                offerIds[i] = offerIds[offerIds.length - 1];\n                offerIds.pop();\n                break;\n            }\n        }\n\n        // Remove offer from global mapping of offers\n        delete offers[_offerId];\n    }\n    \n    function acceptOfferWithVEXT(uint256 _offerId) public {\n        Offer storage curOffer = offers[_offerId];\n\n        require(curOffer.to == msg.sender, \"Only offered account can accept offer\");\n        require(hasOfferExpired(_offerId), \"Offer has expired\");\n\n        curOffer.pending = false;\n\n        for (uint i = 0; i < curOffer.toNftIds.length; i++) {\n            require(IERC721(viridianNFT).ownerOf(curOffer.toNftIds[i]) == curOffer.from, \"Offered account must own all requested NFTs\");\n        }\n\n        for (uint i = 0; i < curOffer.fromNftIds.length; i++) {\n            require(IERC721(viridianNFT).ownerOf(curOffer.fromNftIds[i]) == curOffer.to, \"Offering account must own all offered NFTs\");\n        }\n\n        for (uint i = 0; i < curOffer.toPackIds.length; i++) {\n            require(IERC721(viridianPack).ownerOf(curOffer.toPackIds[i]) == curOffer.from, \"Offered account must own all requested NFTs\");\n        }\n\n        for (uint i = 0; i < curOffer.fromPackIds.length; i++) {\n            require(IERC721(viridianPack).ownerOf(curOffer.fromPackIds[i]) == curOffer.to, \"Offering account must own all offered NFTs\");\n        }\n        \n\n        // if(!IERC721(viridianNFT).isApprovedForAll(msg.sender, address(this))) {\n        //     IERC721(viridianNFT).setApprovalForAll(address(this), true);\n        // }\n\n        IERC20(viridianToken).transferFrom(curOffer.from, curOffer.to, curOffer.toAmt);\n        IERC20(viridianToken).transferFrom(curOffer.to, curOffer.from, curOffer.fromAmt);\n\n        // Loop through all of the to items in the offer.\n        for (uint i = 0; i < curOffer.toNftIds.length; i++) {\n            //IERC721(viridianNFT).approve(curOffer.to, curOffer.fromNftIds[i]);\n            IERC721(viridianNFT).safeTransferFrom(curOffer.from, curOffer.to, curOffer.toNftIds[i]);\n        }\n\n        // Loop through all of the from items in the offer.\n        for (uint i = 0; i < curOffer.fromNftIds.length; i++) {\n            //IERC721(viridianNFT).approve(curOffer.to, curOffer.fromNftIds[i]);\n            IERC721(viridianNFT).safeTransferFrom(curOffer.to, curOffer.from, curOffer.fromNftIds[i]);\n        }\n\n        for (uint i = 0; i < curOffer.toPackIds.length; i++) {\n            //IERC721(viridianNFT).approve(curOffer.to, curOffer.fromNftIds[i]);\n            IERC721(viridianPack).safeTransferFrom(curOffer.from, curOffer.to, curOffer.toPackIds[i]);\n        }\n\n        // Loop through all of the from items in the offer.\n        for (uint i = 0; i < curOffer.fromPackIds.length; i++) {\n            //IERC721(viridianNFT).approve(curOffer.to, curOffer.fromNftIds[i]);\n            IERC721(viridianPack).safeTransferFrom(curOffer.to, curOffer.from, curOffer.fromPackIds[i]);\n        }\n    }\n\n    //TODO: Maybe change this to MATIC?\n    // function buyNFTWithETH(uint256 _listingId) public payable {\n    //     Listing memory curListing = listings[_listingId];\n\n    //     vNFT.unlistToken(curListing.tokenId);\n\n    //     require(msg.sender.balance >= curListing.price, 'ViridianExchange: User does not have enough balance');\n    //     address payable ownerWallet = payable(curListing.owner);\n\n    //     require(msg.value == curListing.price, 'ViridianExchange: Incorrect amount paid to function');\n\n    //     if(!IERC721(viridianNFT).isApprovedForAll(msg.sender, address(this))) {\n    //         IERC721(viridianNFT).setApprovalForAll(address(this), true);\n    //     }\n\n    //     sendEther(ownerWallet);\n\n    //     pullFromSaleOnBuy(_listingId);\n        \n    //     IERC721(viridianNFT).safeTransferFrom(curListing.owner, msg.sender, curListing.tokenId);\n    // }\n\n    // //TODO: Figure out how to send eth from \"from\" wallet to \"to\" wallet.\n    //TODO: Figure out how to accept other cryptoCurrencies besides VEXT\n    // function acceptOfferWithETH(uint256 _offerId) public payable {\n    //     Offer storage curOffer = offers[_offerId];\n\n    //     require(curOffer.to != msg.sender);\n\n    //     // if(!IERC721(viridianNFT).isApprovedForAll(msg.sender, address(this))) {\n    //     //     IERC721(viridianNFT).setApprovalForAll(address(this), true);\n    //     // }\n\n    //     address payable ownerWallet = payable(curOffer.from);\n\n    //     sendEther(ownerWallet);\n\n    //     cancelOffer(_offerId);\n    // }\n}",
  "sourcePath": "/Users/blakehatch/Viridian-Exchange-Contracts/contracts/ViridianExchangeOffers.sol",
  "compiler": {
    "name": "solc",
    "version": "0.8.9+commit.e5eed63a.Emscripten.clang"
  },
  "schemaVersion": "3.4.1",
  "updatedAt": "2021-10-13T05:50:54.911Z",
  "networkType": "ethereum",
  "devdoc": {
    "kind": "dev",
    "methods": {
      "owner()": {
        "details": "Returns the address of the current owner."
      },
      "renounceOwnership()": {
        "details": "Leaves the contract without owner. It will not be possible to call `onlyOwner` functions anymore. Can only be called by the current owner. NOTE: Renouncing ownership will leave the contract without an owner, thereby removing any functionality that is only available to the owner."
      },
      "transferOwnership(address)": {
        "details": "Transfers ownership of the contract to a new account (`newOwner`). Can only be called by the current owner."
      }
    },
    "version": 1
  },
  "userdoc": {
    "kind": "user",
    "methods": {},
    "version": 1
  }
}