{
  "contractName": "ViridianNFT",
  "abi": [
    {
      "inputs": [],
      "stateMutability": "nonpayable",
      "type": "constructor"
    },
    {
      "anonymous": false,
      "inputs": [
        {
          "indexed": true,
          "internalType": "address",
          "name": "owner",
          "type": "address"
        },
        {
          "indexed": true,
          "internalType": "address",
          "name": "approved",
          "type": "address"
        },
        {
          "indexed": true,
          "internalType": "uint256",
          "name": "tokenId",
          "type": "uint256"
        }
      ],
      "name": "Approval",
      "type": "event"
    },
    {
      "anonymous": false,
      "inputs": [
        {
          "indexed": true,
          "internalType": "address",
          "name": "owner",
          "type": "address"
        },
        {
          "indexed": true,
          "internalType": "address",
          "name": "operator",
          "type": "address"
        },
        {
          "indexed": false,
          "internalType": "bool",
          "name": "approved",
          "type": "bool"
        }
      ],
      "name": "ApprovalForAll",
      "type": "event"
    },
    {
      "anonymous": false,
      "inputs": [
        {
          "indexed": true,
          "internalType": "address",
          "name": "previousOwner",
          "type": "address"
        },
        {
          "indexed": true,
          "internalType": "address",
          "name": "newOwner",
          "type": "address"
        }
      ],
      "name": "OwnershipTransferred",
      "type": "event"
    },
    {
      "anonymous": false,
      "inputs": [
        {
          "indexed": true,
          "internalType": "address",
          "name": "from",
          "type": "address"
        },
        {
          "indexed": true,
          "internalType": "address",
          "name": "to",
          "type": "address"
        },
        {
          "indexed": true,
          "internalType": "uint256",
          "name": "tokenId",
          "type": "uint256"
        }
      ],
      "name": "Transfer",
      "type": "event"
    },
    {
      "inputs": [
        {
          "internalType": "address",
          "name": "to",
          "type": "address"
        },
        {
          "internalType": "uint256",
          "name": "tokenId",
          "type": "uint256"
        }
      ],
      "name": "approve",
      "outputs": [],
      "stateMutability": "nonpayable",
      "type": "function"
    },
    {
      "inputs": [
        {
          "internalType": "address",
          "name": "owner",
          "type": "address"
        }
      ],
      "name": "balanceOf",
      "outputs": [
        {
          "internalType": "uint256",
          "name": "",
          "type": "uint256"
        }
      ],
      "stateMutability": "view",
      "type": "function",
      "constant": true
    },
    {
      "inputs": [
        {
          "internalType": "uint256",
          "name": "tokenId",
          "type": "uint256"
        }
      ],
      "name": "getApproved",
      "outputs": [
        {
          "internalType": "address",
          "name": "",
          "type": "address"
        }
      ],
      "stateMutability": "view",
      "type": "function",
      "constant": true
    },
    {
      "inputs": [
        {
          "internalType": "address",
          "name": "owner",
          "type": "address"
        },
        {
          "internalType": "address",
          "name": "operator",
          "type": "address"
        }
      ],
      "name": "isApprovedForAll",
      "outputs": [
        {
          "internalType": "bool",
          "name": "",
          "type": "bool"
        }
      ],
      "stateMutability": "view",
      "type": "function",
      "constant": true
    },
    {
      "inputs": [],
      "name": "name",
      "outputs": [
        {
          "internalType": "string",
          "name": "",
          "type": "string"
        }
      ],
      "stateMutability": "view",
      "type": "function",
      "constant": true
    },
    {
      "inputs": [],
      "name": "owner",
      "outputs": [
        {
          "internalType": "address",
          "name": "",
          "type": "address"
        }
      ],
      "stateMutability": "view",
      "type": "function",
      "constant": true
    },
    {
      "inputs": [
        {
          "internalType": "uint256",
          "name": "tokenId",
          "type": "uint256"
        }
      ],
      "name": "ownerOf",
      "outputs": [
        {
          "internalType": "address",
          "name": "",
          "type": "address"
        }
      ],
      "stateMutability": "view",
      "type": "function",
      "constant": true
    },
    {
      "inputs": [],
      "name": "renounceOwnership",
      "outputs": [],
      "stateMutability": "nonpayable",
      "type": "function"
    },
    {
      "inputs": [
        {
          "internalType": "address",
          "name": "operator",
          "type": "address"
        },
        {
          "internalType": "bool",
          "name": "approved",
          "type": "bool"
        }
      ],
      "name": "setApprovalForAll",
      "outputs": [],
      "stateMutability": "nonpayable",
      "type": "function"
    },
    {
      "inputs": [
        {
          "internalType": "bytes4",
          "name": "interfaceId",
          "type": "bytes4"
        }
      ],
      "name": "supportsInterface",
      "outputs": [
        {
          "internalType": "bool",
          "name": "",
          "type": "bool"
        }
      ],
      "stateMutability": "view",
      "type": "function",
      "constant": true
    },
    {
      "inputs": [],
      "name": "symbol",
      "outputs": [
        {
          "internalType": "string",
          "name": "",
          "type": "string"
        }
      ],
      "stateMutability": "view",
      "type": "function",
      "constant": true
    },
    {
      "inputs": [
        {
          "internalType": "address",
          "name": "newOwner",
          "type": "address"
        }
      ],
      "name": "transferOwnership",
      "outputs": [],
      "stateMutability": "nonpayable",
      "type": "function"
    },
    {
      "inputs": [
        {
          "internalType": "string",
          "name": "baseURI_",
          "type": "string"
        }
      ],
      "name": "setBaseURI",
      "outputs": [],
      "stateMutability": "nonpayable",
      "type": "function"
    },
    {
      "inputs": [
        {
          "internalType": "uint256",
          "name": "tokenId",
          "type": "uint256"
        }
      ],
      "name": "tokenURI",
      "outputs": [
        {
          "internalType": "string",
          "name": "",
          "type": "string"
        }
      ],
      "stateMutability": "view",
      "type": "function",
      "constant": true
    },
    {
      "inputs": [],
      "name": "getOwnedNFTs",
      "outputs": [
        {
          "internalType": "uint256[]",
          "name": "",
          "type": "uint256[]"
        }
      ],
      "stateMutability": "view",
      "type": "function",
      "constant": true
    },
    {
      "inputs": [
        {
          "internalType": "address",
          "name": "_to",
          "type": "address"
        },
        {
          "internalType": "string",
          "name": "tokenURI_",
          "type": "string"
        }
      ],
      "name": "mint",
      "outputs": [],
      "stateMutability": "nonpayable",
      "type": "function"
    },
    {
      "inputs": [
        {
          "internalType": "uint256",
          "name": "tokenId",
          "type": "uint256"
        }
      ],
      "name": "burn",
      "outputs": [],
      "stateMutability": "nonpayable",
      "type": "function"
    },
    {
      "inputs": [
        {
          "internalType": "address",
          "name": "recipient",
          "type": "address"
        },
        {
          "internalType": "string",
          "name": "hash",
          "type": "string"
        },
        {
          "internalType": "string",
          "name": "metadata",
          "type": "string"
        }
      ],
      "name": "awardItem",
      "outputs": [
        {
          "internalType": "uint256",
          "name": "",
          "type": "uint256"
        }
      ],
      "stateMutability": "nonpayable",
      "type": "function"
    },
    {
      "inputs": [
        {
          "internalType": "address",
          "name": "from",
          "type": "address"
        },
        {
          "internalType": "address",
          "name": "to",
          "type": "address"
        },
        {
          "internalType": "uint256",
          "name": "tokenId",
          "type": "uint256"
        }
      ],
      "name": "safeTransferFrom",
      "outputs": [],
      "stateMutability": "nonpayable",
      "type": "function"
    },
    {
      "inputs": [
        {
          "internalType": "address",
          "name": "from",
          "type": "address"
        },
        {
          "internalType": "address",
          "name": "to",
          "type": "address"
        },
        {
          "internalType": "uint256",
          "name": "tokenId",
          "type": "uint256"
        },
        {
          "internalType": "bytes",
          "name": "_data",
          "type": "bytes"
        }
      ],
      "name": "safeTransferFrom",
      "outputs": [],
      "stateMutability": "nonpayable",
      "type": "function"
    },
    {
      "inputs": [
        {
          "internalType": "address",
          "name": "from",
          "type": "address"
        },
        {
          "internalType": "address",
          "name": "to",
          "type": "address"
        },
        {
          "internalType": "uint256",
          "name": "tokenId",
          "type": "uint256"
        }
      ],
      "name": "transferFrom",
      "outputs": [],
      "stateMutability": "nonpayable",
      "type": "function"
    },
    {
      "inputs": [
        {
          "internalType": "uint256",
          "name": "_tokenId",
          "type": "uint256"
        }
      ],
      "name": "listToken",
      "outputs": [],
      "stateMutability": "nonpayable",
      "type": "function"
    },
    {
      "inputs": [
        {
          "internalType": "uint256",
          "name": "_tokenId",
          "type": "uint256"
        }
      ],
      "name": "unlistToken",
      "outputs": [],
      "stateMutability": "nonpayable",
      "type": "function"
    }
  ],
  "bytecode": "0x60806040523480156200001157600080fd5b506040518060400160405280600c81526020017f566972696469616e204e465400000000000000000000000000000000000000008152506040518060400160405280600481526020017f564e465400000000000000000000000000000000000000000000000000000000815250816000908051906020019062000096929190620001a6565b508060019080519060200190620000af929190620001a6565b505050620000d2620000c6620000d860201b60201c565b620000e060201b60201c565b620002bb565b600033905090565b6000600660009054906101000a900473ffffffffffffffffffffffffffffffffffffffff16905081600660006101000a81548173ffffffffffffffffffffffffffffffffffffffff021916908373ffffffffffffffffffffffffffffffffffffffff1602179055508173ffffffffffffffffffffffffffffffffffffffff168173ffffffffffffffffffffffffffffffffffffffff167f8be0079c531659141344cd1fd0a4f28419497f9722a3daafe3b4186f6b6457e060405160405180910390a35050565b828054620001b49062000256565b90600052602060002090601f016020900481019282620001d8576000855562000224565b82601f10620001f357805160ff191683800117855562000224565b8280016001018555821562000224579182015b828111156200022357825182559160200191906001019062000206565b5b50905062000233919062000237565b5090565b5b808211156200025257600081600090555060010162000238565b5090565b600060028204905060018216806200026f57607f821691505b602082108114156200028657620002856200028c565b5b50919050565b7f4e487b7100000000000000000000000000000000000000000000000000000000600052602260045260246000fd5b613ce480620002cb6000396000f3fe608060405234801561001057600080fd5b506004361061014d5760003560e01c8063715018a6116100c3578063b88d4fde1161007c578063b88d4fde14610388578063c87b56dd146103a4578063d0def521146103d4578063e6148d5f146103f0578063e985e9c51461040c578063f2fde38b1461043c5761014d565b8063715018a6146102da5780638bfaf101146102e45780638da5cb5b1461031457806395d89b4114610332578063a22cb46514610350578063ad3a358c1461036c5761014d565b806342842e0e1161011557806342842e0e1461020857806342966c68146102245780634c0eb7d91461024057806355f804b31461025e5780636352211e1461027a57806370a08231146102aa5761014d565b806301ffc9a71461015257806306fdde0314610182578063081812fc146101a0578063095ea7b3146101d057806323b872dd146101ec575b600080fd5b61016c60048036038101906101679190612ad5565b610458565b6040516101799190613034565b60405180910390f35b61018a61053a565b604051610197919061304f565b60405180910390f35b6101ba60048036038101906101b59190612b78565b6105cc565b6040516101c79190612fab565b60405180910390f35b6101ea60048036038101906101e59190612a95565b610651565b005b61020660048036038101906102019190612898565b610769565b005b610222600480360381019061021d9190612898565b610a79565b005b61023e60048036038101906102399190612b78565b610d89565b005b610248610da8565b6040516102559190613012565b60405180910390f35b61027860048036038101906102739190612b2f565b610e43565b005b610294600480360381019061028f9190612b78565b610ed9565b6040516102a19190612fab565b60405180910390f35b6102c460048036038101906102bf919061282b565b610f8b565b6040516102d191906132b1565b60405180910390f35b6102e2611043565b005b6102fe60048036038101906102f99190612a0a565b6110cb565b60405161030b91906132b1565b60405180910390f35b61031c611178565b6040516103299190612fab565b60405180910390f35b61033a6111a2565b604051610347919061304f565b60405180910390f35b61036a6004803603810190610365919061296e565b611234565b005b61038660048036038101906103819190612b78565b6113b5565b005b6103a2600480360381019061039d91906128eb565b6113e4565b005b6103be60048036038101906103b99190612b78565b611446565b6040516103cb919061304f565b60405180910390f35b6103ee60048036038101906103e991906129ae565b6115b9565b005b61040a60048036038101906104059190612b78565b6116f8565b005b61042660048036038101906104219190612858565b611727565b6040516104339190613034565b60405180910390f35b6104566004803603810190610451919061282b565b6117bb565b005b60007f80ac58cd000000000000000000000000000000000000000000000000000000007bffffffffffffffffffffffffffffffffffffffffffffffffffffffff1916827bffffffffffffffffffffffffffffffffffffffffffffffffffffffff1916148061052357507f5b5e139f000000000000000000000000000000000000000000000000000000007bffffffffffffffffffffffffffffffffffffffffffffffffffffffff1916827bffffffffffffffffffffffffffffffffffffffffffffffffffffffff1916145b806105335750610532826118b3565b5b9050919050565b60606000805461054990613540565b80601f016020809104026020016040519081016040528092919081815260200182805461057590613540565b80156105c25780601f10610597576101008083540402835291602001916105c2565b820191906000526020600020905b8154815290600101906020018083116105a557829003601f168201915b5050505050905090565b60006105d78261191d565b610616576040517f08c379a000000000000000000000000000000000000000000000000000000000815260040161060d906131b1565b60405180910390fd5b6004600083815260200190815260200160002060009054906101000a900473ffffffffffffffffffffffffffffffffffffffff169050919050565b600061065c82610ed9565b90508073ffffffffffffffffffffffffffffffffffffffff168373ffffffffffffffffffffffffffffffffffffffff1614156106cd576040517f08c379a00000000000000000000000000000000000000000000000000000000081526004016106c490613251565b60405180910390fd5b8073ffffffffffffffffffffffffffffffffffffffff166106ec611989565b73ffffffffffffffffffffffffffffffffffffffff16148061071b575061071a81610715611989565b611727565b5b61075a576040517f08c379a000000000000000000000000000000000000000000000000000000000815260040161075190613131565b60405180910390fd5b6107648383611991565b505050565b600a600082815260200190815260200160002060009054906101000a900460ff16156107ca576040517f08c379a00000000000000000000000000000000000000000000000000000000081526004016107c190613291565b60405180910390fd5b60005b600b60008573ffffffffffffffffffffffffffffffffffffffff1673ffffffffffffffffffffffffffffffffffffffff16815260200190815260200160002080549050811015610a02576000600b60008673ffffffffffffffffffffffffffffffffffffffff1673ffffffffffffffffffffffffffffffffffffffff168152602001908152602001600020828154811061086a576108696136d9565b5b90600052602060002001549050828114156109ee57600b60008673ffffffffffffffffffffffffffffffffffffffff1673ffffffffffffffffffffffffffffffffffffffff1681526020019081526020016000206001600b60008873ffffffffffffffffffffffffffffffffffffffff1673ffffffffffffffffffffffffffffffffffffffff1681526020019081526020016000208054905061090d9190613456565b8154811061091e5761091d6136d9565b5b9060005260206000200154600b60008773ffffffffffffffffffffffffffffffffffffffff1673ffffffffffffffffffffffffffffffffffffffff168152602001908152602001600020838154811061097a576109796136d9565b5b9060005260206000200181905550600b60008673ffffffffffffffffffffffffffffffffffffffff1673ffffffffffffffffffffffffffffffffffffffff1681526020019081526020016000208054806109d7576109d66136aa565b5b600190038181906000526020600020016000905590555b5080806109fa906135a3565b9150506107cd565b50600b60008373ffffffffffffffffffffffffffffffffffffffff1673ffffffffffffffffffffffffffffffffffffffff168152602001908152602001600020819080600181540180825580915050600190039060005260206000200160009091909190915055610a74838383611a4a565b505050565b600a600082815260200190815260200160002060009054906101000a900460ff1615610ada576040517f08c379a0000000000000000000000000000000000000000000000000000000008152600401610ad190613291565b60405180910390fd5b60005b600b60008573ffffffffffffffffffffffffffffffffffffffff1673ffffffffffffffffffffffffffffffffffffffff16815260200190815260200160002080549050811015610d12576000600b60008673ffffffffffffffffffffffffffffffffffffffff1673ffffffffffffffffffffffffffffffffffffffff1681526020019081526020016000208281548110610b7a57610b796136d9565b5b9060005260206000200154905082811415610cfe57600b60008673ffffffffffffffffffffffffffffffffffffffff1673ffffffffffffffffffffffffffffffffffffffff1681526020019081526020016000206001600b60008873ffffffffffffffffffffffffffffffffffffffff1673ffffffffffffffffffffffffffffffffffffffff16815260200190815260200160002080549050610c1d9190613456565b81548110610c2e57610c2d6136d9565b5b9060005260206000200154600b60008773ffffffffffffffffffffffffffffffffffffffff1673ffffffffffffffffffffffffffffffffffffffff1681526020019081526020016000208381548110610c8a57610c896136d9565b5b9060005260206000200181905550600b60008673ffffffffffffffffffffffffffffffffffffffff1673ffffffffffffffffffffffffffffffffffffffff168152602001908152602001600020805480610ce757610ce66136aa565b5b600190038181906000526020600020016000905590555b508080610d0a906135a3565b915050610add565b50600b60008373ffffffffffffffffffffffffffffffffffffffff1673ffffffffffffffffffffffffffffffffffffffff168152602001908152602001600020819080600181540180825580915050600190039060005260206000200160009091909190915055610d84838383611aaa565b505050565b610d933382611aca565b610d9c57600080fd5b610da581611ba8565b50565b60606000600b60003373ffffffffffffffffffffffffffffffffffffffff1673ffffffffffffffffffffffffffffffffffffffff168152602001908152602001600020805480602002602001604051908101604052809291908181526020018280548015610e3557602002820191906000526020600020905b815481526020019060010190808311610e21575b505050505090508091505090565b610e4b611989565b73ffffffffffffffffffffffffffffffffffffffff16610e69611178565b73ffffffffffffffffffffffffffffffffffffffff1614610ebf576040517f08c379a0000000000000000000000000000000000000000000000000000000008152600401610eb6906131f1565b60405180910390fd5b80600c9080519060200190610ed592919061263f565b5050565b6000806002600084815260200190815260200160002060009054906101000a900473ffffffffffffffffffffffffffffffffffffffff169050600073ffffffffffffffffffffffffffffffffffffffff168173ffffffffffffffffffffffffffffffffffffffff161415610f82576040517f08c379a0000000000000000000000000000000000000000000000000000000008152600401610f7990613171565b60405180910390fd5b80915050919050565b60008073ffffffffffffffffffffffffffffffffffffffff168273ffffffffffffffffffffffffffffffffffffffff161415610ffc576040517f08c379a0000000000000000000000000000000000000000000000000000000008152600401610ff390613151565b60405180910390fd5b600360008373ffffffffffffffffffffffffffffffffffffffff1673ffffffffffffffffffffffffffffffffffffffff168152602001908152602001600020549050919050565b61104b611989565b73ffffffffffffffffffffffffffffffffffffffff16611069611178565b73ffffffffffffffffffffffffffffffffffffffff16146110bf576040517f08c379a00000000000000000000000000000000000000000000000000000000081526004016110b6906131f1565b60405180910390fd5b6110c96000611cb9565b565b600060016008846040516110df9190612f70565b908152602001604051809103902060009054906101000a900460ff1660ff16141561110957600080fd5b600160088460405161111b9190612f70565b908152602001604051809103902060006101000a81548160ff021916908360ff16021790555061114b6007611d7f565b60006111576007611d95565b90506111638582611da3565b61116d8184611f71565b809150509392505050565b6000600660009054906101000a900473ffffffffffffffffffffffffffffffffffffffff16905090565b6060600180546111b190613540565b80601f01602080910402602001604051908101604052809291908181526020018280546111dd90613540565b801561122a5780601f106111ff5761010080835404028352916020019161122a565b820191906000526020600020905b81548152906001019060200180831161120d57829003601f168201915b5050505050905090565b61123c611989565b73ffffffffffffffffffffffffffffffffffffffff168273ffffffffffffffffffffffffffffffffffffffff1614156112aa576040517f08c379a00000000000000000000000000000000000000000000000000000000081526004016112a1906130f1565b60405180910390fd5b80600560006112b7611989565b73ffffffffffffffffffffffffffffffffffffffff1673ffffffffffffffffffffffffffffffffffffffff16815260200190815260200160002060008473ffffffffffffffffffffffffffffffffffffffff1673ffffffffffffffffffffffffffffffffffffffff16815260200190815260200160002060006101000a81548160ff0219169083151502179055508173ffffffffffffffffffffffffffffffffffffffff16611364611989565b73ffffffffffffffffffffffffffffffffffffffff167f17307eab39ab6107e8899845ad3d59bd9653f200f220920489ca2b5937696c31836040516113a99190613034565b60405180910390a35050565b6000600a600083815260200190815260200160002060006101000a81548160ff02191690831515021790555050565b6113f56113ef611989565b83611aca565b611434576040517f08c379a000000000000000000000000000000000000000000000000000000000815260040161142b90613271565b60405180910390fd5b61144084848484611fe5565b50505050565b60606114518261191d565b611490576040517f08c379a000000000000000000000000000000000000000000000000000000000815260040161148790613231565b60405180910390fd5b60006009600084815260200190815260200160002080546114b090613540565b80601f01602080910402602001604051908101604052809291908181526020018280546114dc90613540565b80156115295780601f106114fe57610100808354040283529160200191611529565b820191906000526020600020905b81548152906001019060200180831161150c57829003601f168201915b50505050509050600061153a612041565b90506000815114156115505781925050506115b4565b60008251111561158557808260405160200161156d929190612f87565b604051602081830303815290604052925050506115b4565b8061158f856120d3565b6040516020016115a0929190612f87565b604051602081830303815290604052925050505b919050565b6115c1611989565b73ffffffffffffffffffffffffffffffffffffffff166115df611178565b73ffffffffffffffffffffffffffffffffffffffff1614611635576040517f08c379a000000000000000000000000000000000000000000000000000000000815260040161162c906131f1565b60405180910390fd5b61163f6007611d7f565b600061164b6007611d95565b90506116578382611da3565b600b60008473ffffffffffffffffffffffffffffffffffffffff1673ffffffffffffffffffffffffffffffffffffffff1681526020019081526020016000208190806001815401808255809150506001900390600052602060002001600090919091909150556000600a600083815260200190815260200160002060006101000a81548160ff0219169083151502179055506116f38183611f71565b505050565b6001600a600083815260200190815260200160002060006101000a81548160ff02191690831515021790555050565b6000600560008473ffffffffffffffffffffffffffffffffffffffff1673ffffffffffffffffffffffffffffffffffffffff16815260200190815260200160002060008373ffffffffffffffffffffffffffffffffffffffff1673ffffffffffffffffffffffffffffffffffffffff16815260200190815260200160002060009054906101000a900460ff16905092915050565b6117c3611989565b73ffffffffffffffffffffffffffffffffffffffff166117e1611178565b73ffffffffffffffffffffffffffffffffffffffff1614611837576040517f08c379a000000000000000000000000000000000000000000000000000000000815260040161182e906131f1565b60405180910390fd5b600073ffffffffffffffffffffffffffffffffffffffff168173ffffffffffffffffffffffffffffffffffffffff1614156118a7576040517f08c379a000000000000000000000000000000000000000000000000000000000815260040161189e90613091565b60405180910390fd5b6118b081611cb9565b50565b60007f01ffc9a7000000000000000000000000000000000000000000000000000000007bffffffffffffffffffffffffffffffffffffffffffffffffffffffff1916827bffffffffffffffffffffffffffffffffffffffffffffffffffffffff1916149050919050565b60008073ffffffffffffffffffffffffffffffffffffffff166002600084815260200190815260200160002060009054906101000a900473ffffffffffffffffffffffffffffffffffffffff1673ffffffffffffffffffffffffffffffffffffffff1614159050919050565b600033905090565b816004600083815260200190815260200160002060006101000a81548173ffffffffffffffffffffffffffffffffffffffff021916908373ffffffffffffffffffffffffffffffffffffffff160217905550808273ffffffffffffffffffffffffffffffffffffffff16611a0483610ed9565b73ffffffffffffffffffffffffffffffffffffffff167f8c5be1e5ebec7d5bd14f71427d1e84f3dd0314c0f7b2291e5b200ac8c7c3b92560405160405180910390a45050565b611a5b611a55611989565b82611aca565b611a9a576040517f08c379a0000000000000000000000000000000000000000000000000000000008152600401611a9190613271565b60405180910390fd5b611aa5838383612234565b505050565b611ac5838383604051806020016040528060008152506113e4565b505050565b6000611ad58261191d565b611b14576040517f08c379a0000000000000000000000000000000000000000000000000000000008152600401611b0b90613111565b60405180910390fd5b6000611b1f83610ed9565b90508073ffffffffffffffffffffffffffffffffffffffff168473ffffffffffffffffffffffffffffffffffffffff161480611b8e57508373ffffffffffffffffffffffffffffffffffffffff16611b76846105cc565b73ffffffffffffffffffffffffffffffffffffffff16145b80611b9f5750611b9e8185611727565b5b91505092915050565b6000611bb382610ed9565b9050611bc181600084612490565b611bcc600083611991565b6001600360008373ffffffffffffffffffffffffffffffffffffffff1673ffffffffffffffffffffffffffffffffffffffff1681526020019081526020016000206000828254611c1c9190613456565b925050819055506002600083815260200190815260200160002060006101000a81549073ffffffffffffffffffffffffffffffffffffffff021916905581600073ffffffffffffffffffffffffffffffffffffffff168273ffffffffffffffffffffffffffffffffffffffff167fddf252ad1be2c89b69c2b068fc378daa952ba7f163c4a11628f55a4df523b3ef60405160405180910390a45050565b6000600660009054906101000a900473ffffffffffffffffffffffffffffffffffffffff16905081600660006101000a81548173ffffffffffffffffffffffffffffffffffffffff021916908373ffffffffffffffffffffffffffffffffffffffff1602179055508173ffffffffffffffffffffffffffffffffffffffff168173ffffffffffffffffffffffffffffffffffffffff167f8be0079c531659141344cd1fd0a4f28419497f9722a3daafe3b4186f6b6457e060405160405180910390a35050565b6001816000016000828254019250508190555050565b600081600001549050919050565b600073ffffffffffffffffffffffffffffffffffffffff168273ffffffffffffffffffffffffffffffffffffffff161415611e13576040517f08c379a0000000000000000000000000000000000000000000000000000000008152600401611e0a90613191565b60405180910390fd5b611e1c8161191d565b15611e5c576040517f08c379a0000000000000000000000000000000000000000000000000000000008152600401611e53906130b1565b60405180910390fd5b611e6860008383612490565b6001600360008473ffffffffffffffffffffffffffffffffffffffff1673ffffffffffffffffffffffffffffffffffffffff1681526020019081526020016000206000828254611eb891906133cf565b92505081905550816002600083815260200190815260200160002060006101000a81548173ffffffffffffffffffffffffffffffffffffffff021916908373ffffffffffffffffffffffffffffffffffffffff160217905550808273ffffffffffffffffffffffffffffffffffffffff16600073ffffffffffffffffffffffffffffffffffffffff167fddf252ad1be2c89b69c2b068fc378daa952ba7f163c4a11628f55a4df523b3ef60405160405180910390a45050565b611f7a8261191d565b611fb9576040517f08c379a0000000000000000000000000000000000000000000000000000000008152600401611fb0906131d1565b60405180910390fd5b80600960008481526020019081526020016000209080519060200190611fe092919061263f565b505050565b611ff0848484612234565b611ffc84848484612495565b61203b576040517f08c379a000000000000000000000000000000000000000000000000000000000815260040161203290613071565b60405180910390fd5b50505050565b6060600c805461205090613540565b80601f016020809104026020016040519081016040528092919081815260200182805461207c90613540565b80156120c95780601f1061209e576101008083540402835291602001916120c9565b820191906000526020600020905b8154815290600101906020018083116120ac57829003601f168201915b5050505050905090565b6060600082141561211b576040518060400160405280600181526020017f3000000000000000000000000000000000000000000000000000000000000000815250905061222f565b600082905060005b6000821461214d578080612136906135a3565b915050600a826121469190613425565b9150612123565b60008167ffffffffffffffff81111561216957612168613708565b5b6040519080825280601f01601f19166020018201604052801561219b5781602001600182028036833780820191505090505b5090505b60008514612228576001826121b49190613456565b9150600a856121c391906135ec565b60306121cf91906133cf565b60f81b8183815181106121e5576121e46136d9565b5b60200101907effffffffffffffffffffffffffffffffffffffffffffffffffffffffffffff1916908160001a905350600a856122219190613425565b945061219f565b8093505050505b919050565b8273ffffffffffffffffffffffffffffffffffffffff1661225482610ed9565b73ffffffffffffffffffffffffffffffffffffffff16146122aa576040517f08c379a00000000000000000000000000000000000000000000000000000000081526004016122a190613211565b60405180910390fd5b600073ffffffffffffffffffffffffffffffffffffffff168273ffffffffffffffffffffffffffffffffffffffff16141561231a576040517f08c379a0000000000000000000000000000000000000000000000000000000008152600401612311906130d1565b60405180910390fd5b612325838383612490565b612330600082611991565b6001600360008573ffffffffffffffffffffffffffffffffffffffff1673ffffffffffffffffffffffffffffffffffffffff16815260200190815260200160002060008282546123809190613456565b925050819055506001600360008473ffffffffffffffffffffffffffffffffffffffff1673ffffffffffffffffffffffffffffffffffffffff16815260200190815260200160002060008282546123d791906133cf565b92505081905550816002600083815260200190815260200160002060006101000a81548173ffffffffffffffffffffffffffffffffffffffff021916908373ffffffffffffffffffffffffffffffffffffffff160217905550808273ffffffffffffffffffffffffffffffffffffffff168473ffffffffffffffffffffffffffffffffffffffff167fddf252ad1be2c89b69c2b068fc378daa952ba7f163c4a11628f55a4df523b3ef60405160405180910390a4505050565b505050565b60006124b68473ffffffffffffffffffffffffffffffffffffffff1661262c565b1561261f578373ffffffffffffffffffffffffffffffffffffffff1663150b7a026124df611989565b8786866040518563ffffffff1660e01b81526004016125019493929190612fc6565b602060405180830381600087803b15801561251b57600080fd5b505af192505050801561254c57506040513d601f19601f820116820180604052508101906125499190612b02565b60015b6125cf573d806000811461257c576040519150601f19603f3d011682016040523d82523d6000602084013e612581565b606091505b506000815114156125c7576040517f08c379a00000000000000000000000000000000000000000000000000000000081526004016125be90613071565b60405180910390fd5b805181602001fd5b63150b7a0260e01b7bffffffffffffffffffffffffffffffffffffffffffffffffffffffff1916817bffffffffffffffffffffffffffffffffffffffffffffffffffffffff191614915050612624565b600190505b949350505050565b600080823b905060008111915050919050565b82805461264b90613540565b90600052602060002090601f01602090048101928261266d57600085556126b4565b82601f1061268657805160ff19168380011785556126b4565b828001600101855582156126b4579182015b828111156126b3578251825591602001919060010190612698565b5b5090506126c191906126c5565b5090565b5b808211156126de5760008160009055506001016126c6565b5090565b60006126f56126f0846132f1565b6132cc565b9050828152602081018484840111156127115761271061373c565b5b61271c8482856134fe565b509392505050565b600061273761273284613322565b6132cc565b9050828152602081018484840111156127535761275261373c565b5b61275e8482856134fe565b509392505050565b60008135905061277581613c52565b92915050565b60008135905061278a81613c69565b92915050565b60008135905061279f81613c80565b92915050565b6000815190506127b481613c80565b92915050565b600082601f8301126127cf576127ce613737565b5b81356127df8482602086016126e2565b91505092915050565b600082601f8301126127fd576127fc613737565b5b813561280d848260208601612724565b91505092915050565b60008135905061282581613c97565b92915050565b60006020828403121561284157612840613746565b5b600061284f84828501612766565b91505092915050565b6000806040838503121561286f5761286e613746565b5b600061287d85828601612766565b925050602061288e85828601612766565b9150509250929050565b6000806000606084860312156128b1576128b0613746565b5b60006128bf86828701612766565b93505060206128d086828701612766565b92505060406128e186828701612816565b9150509250925092565b6000806000806080858703121561290557612904613746565b5b600061291387828801612766565b945050602061292487828801612766565b935050604061293587828801612816565b925050606085013567ffffffffffffffff81111561295657612955613741565b5b612962878288016127ba565b91505092959194509250565b6000806040838503121561298557612984613746565b5b600061299385828601612766565b92505060206129a48582860161277b565b9150509250929050565b600080604083850312156129c5576129c4613746565b5b60006129d385828601612766565b925050602083013567ffffffffffffffff8111156129f4576129f3613741565b5b612a00858286016127e8565b9150509250929050565b600080600060608486031215612a2357612a22613746565b5b6000612a3186828701612766565b935050602084013567ffffffffffffffff811115612a5257612a51613741565b5b612a5e868287016127e8565b925050604084013567ffffffffffffffff811115612a7f57612a7e613741565b5b612a8b868287016127e8565b9150509250925092565b60008060408385031215612aac57612aab613746565b5b6000612aba85828601612766565b9250506020612acb85828601612816565b9150509250929050565b600060208284031215612aeb57612aea613746565b5b6000612af984828501612790565b91505092915050565b600060208284031215612b1857612b17613746565b5b6000612b26848285016127a5565b91505092915050565b600060208284031215612b4557612b44613746565b5b600082013567ffffffffffffffff811115612b6357612b62613741565b5b612b6f848285016127e8565b91505092915050565b600060208284031215612b8e57612b8d613746565b5b6000612b9c84828501612816565b91505092915050565b6000612bb18383612f52565b60208301905092915050565b612bc68161348a565b82525050565b6000612bd782613363565b612be18185613391565b9350612bec83613353565b8060005b83811015612c1d578151612c048882612ba5565b9750612c0f83613384565b925050600181019050612bf0565b5085935050505092915050565b612c338161349c565b82525050565b6000612c448261336e565b612c4e81856133a2565b9350612c5e81856020860161350d565b612c678161374b565b840191505092915050565b6000612c7d82613379565b612c8781856133b3565b9350612c9781856020860161350d565b612ca08161374b565b840191505092915050565b6000612cb682613379565b612cc081856133c4565b9350612cd081856020860161350d565b80840191505092915050565b6000612ce96032836133b3565b9150612cf48261375c565b604082019050919050565b6000612d0c6026836133b3565b9150612d17826137ab565b604082019050919050565b6000612d2f601c836133b3565b9150612d3a826137fa565b602082019050919050565b6000612d526024836133b3565b9150612d5d82613823565b604082019050919050565b6000612d756019836133b3565b9150612d8082613872565b602082019050919050565b6000612d98602c836133b3565b9150612da38261389b565b604082019050919050565b6000612dbb6038836133b3565b9150612dc6826138ea565b604082019050919050565b6000612dde602a836133b3565b9150612de982613939565b604082019050919050565b6000612e016029836133b3565b9150612e0c82613988565b604082019050919050565b6000612e246020836133b3565b9150612e2f826139d7565b602082019050919050565b6000612e47602c836133b3565b9150612e5282613a00565b604082019050919050565b6000612e6a602c836133b3565b9150612e7582613a4f565b604082019050919050565b6000612e8d6020836133b3565b9150612e9882613a9e565b602082019050919050565b6000612eb06029836133b3565b9150612ebb82613ac7565b604082019050919050565b6000612ed3602f836133b3565b9150612ede82613b16565b604082019050919050565b6000612ef66021836133b3565b9150612f0182613b65565b604082019050919050565b6000612f196031836133b3565b9150612f2482613bb4565b604082019050919050565b6000612f3c603f836133b3565b9150612f4782613c03565b604082019050919050565b612f5b816134f4565b82525050565b612f6a816134f4565b82525050565b6000612f7c8284612cab565b915081905092915050565b6000612f938285612cab565b9150612f9f8284612cab565b91508190509392505050565b6000602082019050612fc06000830184612bbd565b92915050565b6000608082019050612fdb6000830187612bbd565b612fe86020830186612bbd565b612ff56040830185612f61565b81810360608301526130078184612c39565b905095945050505050565b6000602082019050818103600083015261302c8184612bcc565b905092915050565b60006020820190506130496000830184612c2a565b92915050565b600060208201905081810360008301526130698184612c72565b905092915050565b6000602082019050818103600083015261308a81612cdc565b9050919050565b600060208201905081810360008301526130aa81612cff565b9050919050565b600060208201905081810360008301526130ca81612d22565b9050919050565b600060208201905081810360008301526130ea81612d45565b9050919050565b6000602082019050818103600083015261310a81612d68565b9050919050565b6000602082019050818103600083015261312a81612d8b565b9050919050565b6000602082019050818103600083015261314a81612dae565b9050919050565b6000602082019050818103600083015261316a81612dd1565b9050919050565b6000602082019050818103600083015261318a81612df4565b9050919050565b600060208201905081810360008301526131aa81612e17565b9050919050565b600060208201905081810360008301526131ca81612e3a565b9050919050565b600060208201905081810360008301526131ea81612e5d565b9050919050565b6000602082019050818103600083015261320a81612e80565b9050919050565b6000602082019050818103600083015261322a81612ea3565b9050919050565b6000602082019050818103600083015261324a81612ec6565b9050919050565b6000602082019050818103600083015261326a81612ee9565b9050919050565b6000602082019050818103600083015261328a81612f0c565b9050919050565b600060208201905081810360008301526132aa81612f2f565b9050919050565b60006020820190506132c66000830184612f61565b92915050565b60006132d66132e7565b90506132e28282613572565b919050565b6000604051905090565b600067ffffffffffffffff82111561330c5761330b613708565b5b6133158261374b565b9050602081019050919050565b600067ffffffffffffffff82111561333d5761333c613708565b5b6133468261374b565b9050602081019050919050565b6000819050602082019050919050565b600081519050919050565b600081519050919050565b600081519050919050565b6000602082019050919050565b600082825260208201905092915050565b600082825260208201905092915050565b600082825260208201905092915050565b600081905092915050565b60006133da826134f4565b91506133e5836134f4565b9250827fffffffffffffffffffffffffffffffffffffffffffffffffffffffffffffffff0382111561341a5761341961361d565b5b828201905092915050565b6000613430826134f4565b915061343b836134f4565b92508261344b5761344a61364c565b5b828204905092915050565b6000613461826134f4565b915061346c836134f4565b92508282101561347f5761347e61361d565b5b828203905092915050565b6000613495826134d4565b9050919050565b60008115159050919050565b60007fffffffff0000000000000000000000000000000000000000000000000000000082169050919050565b600073ffffffffffffffffffffffffffffffffffffffff82169050919050565b6000819050919050565b82818337600083830152505050565b60005b8381101561352b578082015181840152602081019050613510565b8381111561353a576000848401525b50505050565b6000600282049050600182168061355857607f821691505b6020821081141561356c5761356b61367b565b5b50919050565b61357b8261374b565b810181811067ffffffffffffffff8211171561359a57613599613708565b5b80604052505050565b60006135ae826134f4565b91507fffffffffffffffffffffffffffffffffffffffffffffffffffffffffffffffff8214156135e1576135e061361d565b5b600182019050919050565b60006135f7826134f4565b9150613602836134f4565b9250826136125761361161364c565b5b828206905092915050565b7f4e487b7100000000000000000000000000000000000000000000000000000000600052601160045260246000fd5b7f4e487b7100000000000000000000000000000000000000000000000000000000600052601260045260246000fd5b7f4e487b7100000000000000000000000000000000000000000000000000000000600052602260045260246000fd5b7f4e487b7100000000000000000000000000000000000000000000000000000000600052603160045260246000fd5b7f4e487b7100000000000000000000000000000000000000000000000000000000600052603260045260246000fd5b7f4e487b7100000000000000000000000000000000000000000000000000000000600052604160045260246000fd5b600080fd5b600080fd5b600080fd5b600080fd5b6000601f19601f8301169050919050565b7f4552433732313a207472616e7366657220746f206e6f6e20455243373231526560008201527f63656976657220696d706c656d656e7465720000000000000000000000000000602082015250565b7f4f776e61626c653a206e6577206f776e657220697320746865207a65726f206160008201527f6464726573730000000000000000000000000000000000000000000000000000602082015250565b7f4552433732313a20746f6b656e20616c7265616479206d696e74656400000000600082015250565b7f4552433732313a207472616e7366657220746f20746865207a65726f2061646460008201527f7265737300000000000000000000000000000000000000000000000000000000602082015250565b7f4552433732313a20617070726f766520746f2063616c6c657200000000000000600082015250565b7f4552433732313a206f70657261746f7220717565727920666f72206e6f6e657860008201527f697374656e7420746f6b656e0000000000000000000000000000000000000000602082015250565b7f4552433732313a20617070726f76652063616c6c6572206973206e6f74206f7760008201527f6e6572206e6f7220617070726f76656420666f7220616c6c0000000000000000602082015250565b7f4552433732313a2062616c616e636520717565727920666f7220746865207a6560008201527f726f206164647265737300000000000000000000000000000000000000000000602082015250565b7f4552433732313a206f776e657220717565727920666f72206e6f6e657869737460008201527f656e7420746f6b656e0000000000000000000000000000000000000000000000602082015250565b7f4552433732313a206d696e7420746f20746865207a65726f2061646472657373600082015250565b7f4552433732313a20617070726f76656420717565727920666f72206e6f6e657860008201527f697374656e7420746f6b656e0000000000000000000000000000000000000000602082015250565b7f4552433732314d657461646174613a2055524920736574206f66206e6f6e657860008201527f697374656e7420746f6b656e0000000000000000000000000000000000000000602082015250565b7f4f776e61626c653a2063616c6c6572206973206e6f7420746865206f776e6572600082015250565b7f4552433732313a207472616e73666572206f6620746f6b656e2074686174206960008201527f73206e6f74206f776e0000000000000000000000000000000000000000000000602082015250565b7f4552433732314d657461646174613a2055524920717565727920666f72206e6f60008201527f6e6578697374656e7420746f6b656e0000000000000000000000000000000000602082015250565b7f4552433732313a20617070726f76616c20746f2063757272656e74206f776e6560008201527f7200000000000000000000000000000000000000000000000000000000000000602082015250565b7f4552433732313a207472616e736665722063616c6c6572206973206e6f74206f60008201527f776e6572206e6f7220617070726f766564000000000000000000000000000000602082015250565b7f566972696469616e204e46543a2043616e6e6f74207472616e7366657220776860008201527f696c65206c6973746564206f6e20566972696469616e2045786368616e676500602082015250565b613c5b8161348a565b8114613c6657600080fd5b50565b613c728161349c565b8114613c7d57600080fd5b50565b613c89816134a8565b8114613c9457600080fd5b50565b613ca0816134f4565b8114613cab57600080fd5b5056fea26469706673582212207a0e6c34bb5ac9a1d2fb65daf7b957eb9fb2d1bcd7aed065ae70488fd5aa2c5c64736f6c63430008070033",
  "immutableReferences": {},
  "source": "pragma solidity ^0.8.0;\n\nimport \"@openzeppelin/contracts/token/ERC721/ERC721.sol\";\nimport \"@openzeppelin/contracts/utils/Counters.sol\";\nimport \"@openzeppelin/contracts/access/Ownable.sol\";\n\ncontract ViridianNFT is ERC721, Ownable {\n\n    using Counters for Counters.Counter;\n    Counters.Counter private _tokenIds;\n    mapping(string => uint8) hashes;\n    \n    constructor() ERC721(\"Viridian NFT\", \"VNFT\") {}\n\n    using Strings for uint256;\n\n\n    //TODO: Maybe add restrictions to NFT usage when it is listed on the exchange, do not allow ownership transfer \n    // while it is listed for sale or offer to avoid issues with invalid purchasing, or just protect from transactions going through\n    // on exchange, ask someone about this scenario.\n    struct NFT {\n        uint256 id;\n        string uri;\n    }\n    \n    // Optional mapping for token URIs\n    mapping (uint256 => string) private _tokenURIs;\n\n    mapping (uint256 => bool) private _tokensListed;\n\n    mapping (address => uint256[]) private _ownedNFTs;\n\n    //address private viridianExchangeAddress;\n\n    // Base URI\n    string private _baseURIextended;\n\n    // function setExchangeAddress(address ea) public onlyOwner() {\n    //     viridianExchangeAddress = ea;\n    // }\n    \n    function setBaseURI(string memory baseURI_) external onlyOwner() {\n        _baseURIextended = baseURI_;\n    }\n    \n    function _setTokenURI(uint256 tokenId, string memory _tokenURI) internal virtual {\n        require(_exists(tokenId), \"ERC721Metadata: URI set of nonexistent token\");\n        _tokenURIs[tokenId] = _tokenURI;\n    }\n    \n    function _baseURI() internal view virtual override returns (string memory) {\n        return _baseURIextended;\n    }\n    \n    function tokenURI(uint256 tokenId) public view virtual override returns (string memory) {\n        require(_exists(tokenId), \"ERC721Metadata: URI query for nonexistent token\");\n\n        string memory _tokenURI = _tokenURIs[tokenId];\n        string memory base = _baseURI();\n        \n        // If there is no base URI, return the token URI.\n        if (bytes(base).length == 0) {\n            return _tokenURI;\n        }\n        // If both are set, concatenate the baseURI and tokenURI (via abi.encodePacked).\n        if (bytes(_tokenURI).length > 0) {\n            return string(abi.encodePacked(base, _tokenURI));\n        }\n        // If there is a baseURI but no tokenURI, concatenate the tokenID to the baseURI.\n        return string(abi.encodePacked(base, tokenId.toString()));\n    }\n\n    function getOwnedNFTs() public view virtual returns (uint256[] memory) {\n        uint256[] memory _tokens = _ownedNFTs[msg.sender];\n        \n        return _tokens;\n    }\n\n    function mint(\n        address _to,\n        string memory tokenURI_\n    ) external onlyOwner() {\n        _tokenIds.increment();\n        uint256 _tokenId = _tokenIds.current();\n\n        _mint(_to, _tokenId);\n        _ownedNFTs[_to].push(_tokenId);\n        _tokensListed[_tokenId] = false;\n        _setTokenURI(_tokenId, tokenURI_);\n    }\n\n    function burn(uint256 tokenId) public {\n        require(_isApprovedOrOwner(msg.sender, tokenId));\n        _burn(tokenId);\n    }\n\n    function awardItem(address recipient, string memory hash, string memory metadata) public returns (uint256) {\n        require(hashes[hash] != 1);\n        hashes[hash] = 1;\n        _tokenIds.increment();\n        uint256 newItemId = _tokenIds.current();\n        _mint(recipient, newItemId);\n        _setTokenURI(newItemId, metadata);\n        return newItemId;\n    }\n\n    function safeTransferFrom(address from, address to, uint256 tokenId) public override {\n        require(!_tokensListed[tokenId], \"Viridian NFT: Cannot transfer while listed on Viridian Exchange\");\n\n        for (uint256 i = 0; i < _ownedNFTs[from].length; i++) {\n            uint256 ownedNFT = _ownedNFTs[from][i];\n            if (ownedNFT == tokenId) {\n                _ownedNFTs[from][i] = _ownedNFTs[from][_ownedNFTs[from].length - 1];\n                _ownedNFTs[from].pop();\n            }\n        }\n        _ownedNFTs[to].push(tokenId);\n\n        super.safeTransferFrom(from, to, tokenId);\n    }\n\n    function transferFrom(address from, address to, uint256 tokenId) public override {\n        require(!_tokensListed[tokenId], \"Viridian NFT: Cannot transfer while listed on Viridian Exchange\");\n\n        for (uint256 i = 0; i < _ownedNFTs[from].length; i++) {\n            uint256 ownedNFT = _ownedNFTs[from][i];\n            if (ownedNFT == tokenId) {\n                _ownedNFTs[from][i] = _ownedNFTs[from][_ownedNFTs[from].length - 1];\n                _ownedNFTs[from].pop();\n            }\n        }\n        _ownedNFTs[to].push(tokenId);\n\n        super.transferFrom(from, to, tokenId);\n    }\n\n    function listToken(uint256 _tokenId) public {\n        _tokensListed[_tokenId] = true;\n    }\n\n    function unlistToken(uint256 _tokenId) public {\n        _tokensListed[_tokenId] = false;\n    }\n}",
  "sourcePath": "/Users/blakehatch/Viridian-Exchange-Contracts/contracts/ViridianNFT.sol",
  "compiler": {
    "name": "solc",
    "version": "0.8.7+commit.e28d00a7.Emscripten.clang"
  },
  "schemaVersion": "3.4.1",
  "updatedAt": "2021-08-23T21:34:12.274Z",
  "networkType": "ethereum",
  "devdoc": {
    "kind": "dev",
    "methods": {
      "approve(address,uint256)": {
        "details": "See {IERC721-approve}."
      },
      "balanceOf(address)": {
        "details": "See {IERC721-balanceOf}."
      },
      "getApproved(uint256)": {
        "details": "See {IERC721-getApproved}."
      },
      "isApprovedForAll(address,address)": {
        "details": "See {IERC721-isApprovedForAll}."
      },
      "name()": {
        "details": "See {IERC721Metadata-name}."
      },
      "owner()": {
        "details": "Returns the address of the current owner."
      },
      "ownerOf(uint256)": {
        "details": "See {IERC721-ownerOf}."
      },
      "renounceOwnership()": {
        "details": "Leaves the contract without owner. It will not be possible to call `onlyOwner` functions anymore. Can only be called by the current owner. NOTE: Renouncing ownership will leave the contract without an owner, thereby removing any functionality that is only available to the owner."
      },
      "safeTransferFrom(address,address,uint256)": {
        "details": "See {IERC721-safeTransferFrom}."
      },
      "safeTransferFrom(address,address,uint256,bytes)": {
        "details": "See {IERC721-safeTransferFrom}."
      },
      "setApprovalForAll(address,bool)": {
        "details": "See {IERC721-setApprovalForAll}."
      },
      "supportsInterface(bytes4)": {
        "details": "See {IERC165-supportsInterface}."
      },
      "symbol()": {
        "details": "See {IERC721Metadata-symbol}."
      },
      "tokenURI(uint256)": {
        "details": "See {IERC721Metadata-tokenURI}."
      },
      "transferFrom(address,address,uint256)": {
        "details": "See {IERC721-transferFrom}."
      },
      "transferOwnership(address)": {
        "details": "Transfers ownership of the contract to a new account (`newOwner`). Can only be called by the current owner."
      }
    },
    "version": 1
  },
  "userdoc": {
    "kind": "user",
    "methods": {},
    "version": 1
  }
}