{
  "contractName": "ViridianNFT",
  "abi": [
    {
      "inputs": [],
      "stateMutability": "nonpayable",
      "type": "constructor"
    },
    {
      "anonymous": false,
      "inputs": [
        {
          "indexed": true,
          "internalType": "address",
          "name": "owner",
          "type": "address"
        },
        {
          "indexed": true,
          "internalType": "address",
          "name": "approved",
          "type": "address"
        },
        {
          "indexed": true,
          "internalType": "uint256",
          "name": "tokenId",
          "type": "uint256"
        }
      ],
      "name": "Approval",
      "type": "event"
    },
    {
      "anonymous": false,
      "inputs": [
        {
          "indexed": true,
          "internalType": "address",
          "name": "owner",
          "type": "address"
        },
        {
          "indexed": true,
          "internalType": "address",
          "name": "operator",
          "type": "address"
        },
        {
          "indexed": false,
          "internalType": "bool",
          "name": "approved",
          "type": "bool"
        }
      ],
      "name": "ApprovalForAll",
      "type": "event"
    },
    {
      "anonymous": false,
      "inputs": [
        {
          "indexed": true,
          "internalType": "address",
          "name": "previousOwner",
          "type": "address"
        },
        {
          "indexed": true,
          "internalType": "address",
          "name": "newOwner",
          "type": "address"
        }
      ],
      "name": "OwnershipTransferred",
      "type": "event"
    },
    {
      "anonymous": false,
      "inputs": [
        {
          "indexed": true,
          "internalType": "address",
          "name": "from",
          "type": "address"
        },
        {
          "indexed": true,
          "internalType": "address",
          "name": "to",
          "type": "address"
        },
        {
          "indexed": true,
          "internalType": "uint256",
          "name": "tokenId",
          "type": "uint256"
        }
      ],
      "name": "Transfer",
      "type": "event"
    },
    {
      "inputs": [
        {
          "internalType": "address",
          "name": "to",
          "type": "address"
        },
        {
          "internalType": "uint256",
          "name": "tokenId",
          "type": "uint256"
        }
      ],
      "name": "approve",
      "outputs": [],
      "stateMutability": "nonpayable",
      "type": "function"
    },
    {
      "inputs": [
        {
          "internalType": "address",
          "name": "owner",
          "type": "address"
        }
      ],
      "name": "balanceOf",
      "outputs": [
        {
          "internalType": "uint256",
          "name": "",
          "type": "uint256"
        }
      ],
      "stateMutability": "view",
      "type": "function",
      "constant": true
    },
    {
      "inputs": [
        {
          "internalType": "uint256",
          "name": "tokenId",
          "type": "uint256"
        }
      ],
      "name": "getApproved",
      "outputs": [
        {
          "internalType": "address",
          "name": "",
          "type": "address"
        }
      ],
      "stateMutability": "view",
      "type": "function",
      "constant": true
    },
    {
      "inputs": [
        {
          "internalType": "address",
          "name": "owner",
          "type": "address"
        },
        {
          "internalType": "address",
          "name": "operator",
          "type": "address"
        }
      ],
      "name": "isApprovedForAll",
      "outputs": [
        {
          "internalType": "bool",
          "name": "",
          "type": "bool"
        }
      ],
      "stateMutability": "view",
      "type": "function",
      "constant": true
    },
    {
      "inputs": [
        {
          "internalType": "address",
          "name": "forwarder",
          "type": "address"
        }
      ],
      "name": "isTrustedForwarder",
      "outputs": [
        {
          "internalType": "bool",
          "name": "",
          "type": "bool"
        }
      ],
      "stateMutability": "view",
      "type": "function",
      "constant": true
    },
    {
      "inputs": [],
      "name": "name",
      "outputs": [
        {
          "internalType": "string",
          "name": "",
          "type": "string"
        }
      ],
      "stateMutability": "view",
      "type": "function",
      "constant": true
    },
    {
      "inputs": [],
      "name": "owner",
      "outputs": [
        {
          "internalType": "address",
          "name": "",
          "type": "address"
        }
      ],
      "stateMutability": "view",
      "type": "function",
      "constant": true
    },
    {
      "inputs": [
        {
          "internalType": "uint256",
          "name": "tokenId",
          "type": "uint256"
        }
      ],
      "name": "ownerOf",
      "outputs": [
        {
          "internalType": "address",
          "name": "",
          "type": "address"
        }
      ],
      "stateMutability": "view",
      "type": "function",
      "constant": true
    },
    {
      "inputs": [],
      "name": "renounceOwnership",
      "outputs": [],
      "stateMutability": "nonpayable",
      "type": "function"
    },
    {
      "inputs": [
        {
          "internalType": "address",
          "name": "operator",
          "type": "address"
        },
        {
          "internalType": "bool",
          "name": "approved",
          "type": "bool"
        }
      ],
      "name": "setApprovalForAll",
      "outputs": [],
      "stateMutability": "nonpayable",
      "type": "function"
    },
    {
      "inputs": [
        {
          "internalType": "bytes4",
          "name": "interfaceId",
          "type": "bytes4"
        }
      ],
      "name": "supportsInterface",
      "outputs": [
        {
          "internalType": "bool",
          "name": "",
          "type": "bool"
        }
      ],
      "stateMutability": "view",
      "type": "function",
      "constant": true
    },
    {
      "inputs": [],
      "name": "symbol",
      "outputs": [
        {
          "internalType": "string",
          "name": "",
          "type": "string"
        }
      ],
      "stateMutability": "view",
      "type": "function",
      "constant": true
    },
    {
      "inputs": [
        {
          "internalType": "address",
          "name": "newOwner",
          "type": "address"
        }
      ],
      "name": "transferOwnership",
      "outputs": [],
      "stateMutability": "nonpayable",
      "type": "function"
    },
    {
      "inputs": [],
      "name": "trustedForwarder",
      "outputs": [
        {
          "internalType": "address",
          "name": "",
          "type": "address"
        }
      ],
      "stateMutability": "view",
      "type": "function",
      "constant": true
    },
    {
      "inputs": [],
      "name": "versionRecipient",
      "outputs": [
        {
          "internalType": "string",
          "name": "",
          "type": "string"
        }
      ],
      "stateMutability": "view",
      "type": "function",
      "constant": true
    },
    {
      "inputs": [
        {
          "internalType": "address",
          "name": "_forwarder",
          "type": "address"
        }
      ],
      "name": "setTrustedForwarder",
      "outputs": [],
      "stateMutability": "nonpayable",
      "type": "function"
    },
    {
      "inputs": [
        {
          "internalType": "address",
          "name": "_newAdmin",
          "type": "address"
        }
      ],
      "name": "addAdmin",
      "outputs": [],
      "stateMutability": "nonpayable",
      "type": "function"
    },
    {
      "inputs": [
        {
          "internalType": "address",
          "name": "_newAdmin",
          "type": "address"
        }
      ],
      "name": "removeAdmin",
      "outputs": [],
      "stateMutability": "nonpayable",
      "type": "function"
    },
    {
      "inputs": [
        {
          "internalType": "string",
          "name": "baseURI_",
          "type": "string"
        }
      ],
      "name": "setBaseURI",
      "outputs": [],
      "stateMutability": "nonpayable",
      "type": "function"
    },
    {
      "inputs": [
        {
          "internalType": "uint256",
          "name": "tokenId",
          "type": "uint256"
        },
        {
          "internalType": "string",
          "name": "_tokenURI",
          "type": "string"
        }
      ],
      "name": "_setTokenURI",
      "outputs": [],
      "stateMutability": "nonpayable",
      "type": "function"
    },
    {
      "inputs": [
        {
          "internalType": "uint256",
          "name": "tokenId",
          "type": "uint256"
        }
      ],
      "name": "tokenURI",
      "outputs": [
        {
          "internalType": "string",
          "name": "",
          "type": "string"
        }
      ],
      "stateMutability": "view",
      "type": "function",
      "constant": true
    },
    {
      "inputs": [],
      "name": "getNumNFTs",
      "outputs": [
        {
          "internalType": "uint256",
          "name": "n",
          "type": "uint256"
        }
      ],
      "stateMutability": "view",
      "type": "function",
      "constant": true
    },
    {
      "inputs": [],
      "name": "getNumOwnedNFTs",
      "outputs": [
        {
          "internalType": "uint256",
          "name": "",
          "type": "uint256"
        }
      ],
      "stateMutability": "view",
      "type": "function",
      "constant": true
    },
    {
      "inputs": [],
      "name": "getOwnedNFTs",
      "outputs": [
        {
          "internalType": "uint256[]",
          "name": "",
          "type": "uint256[]"
        }
      ],
      "stateMutability": "view",
      "type": "function",
      "constant": true
    },
    {
      "inputs": [
        {
          "internalType": "address",
          "name": "_to",
          "type": "address"
        },
        {
          "internalType": "string",
          "name": "tokenURI_",
          "type": "string"
        }
      ],
      "name": "mint",
      "outputs": [],
      "stateMutability": "nonpayable",
      "type": "function"
    },
    {
      "inputs": [
        {
          "internalType": "uint256",
          "name": "tokenId",
          "type": "uint256"
        }
      ],
      "name": "isListed",
      "outputs": [
        {
          "internalType": "bool",
          "name": "",
          "type": "bool"
        }
      ],
      "stateMutability": "view",
      "type": "function",
      "constant": true
    },
    {
      "inputs": [
        {
          "internalType": "uint256",
          "name": "tokenId",
          "type": "uint256"
        }
      ],
      "name": "burn",
      "outputs": [],
      "stateMutability": "nonpayable",
      "type": "function"
    },
    {
      "inputs": [
        {
          "internalType": "address",
          "name": "recipient",
          "type": "address"
        },
        {
          "internalType": "string",
          "name": "hash",
          "type": "string"
        },
        {
          "internalType": "string",
          "name": "metadata",
          "type": "string"
        }
      ],
      "name": "awardItem",
      "outputs": [
        {
          "internalType": "uint256",
          "name": "",
          "type": "uint256"
        }
      ],
      "stateMutability": "nonpayable",
      "type": "function"
    },
    {
      "inputs": [
        {
          "internalType": "address",
          "name": "from",
          "type": "address"
        },
        {
          "internalType": "address",
          "name": "to",
          "type": "address"
        },
        {
          "internalType": "uint256",
          "name": "tokenId",
          "type": "uint256"
        }
      ],
      "name": "safeTransferFrom",
      "outputs": [],
      "stateMutability": "nonpayable",
      "type": "function"
    },
    {
      "inputs": [
        {
          "internalType": "address",
          "name": "from",
          "type": "address"
        },
        {
          "internalType": "address",
          "name": "to",
          "type": "address"
        },
        {
          "internalType": "uint256",
          "name": "tokenId",
          "type": "uint256"
        },
        {
          "internalType": "bytes",
          "name": "_data",
          "type": "bytes"
        }
      ],
      "name": "safeTransferFrom",
      "outputs": [],
      "stateMutability": "nonpayable",
      "type": "function"
    },
    {
      "inputs": [
        {
          "internalType": "address",
          "name": "from",
          "type": "address"
        },
        {
          "internalType": "address",
          "name": "to",
          "type": "address"
        },
        {
          "internalType": "uint256",
          "name": "tokenId",
          "type": "uint256"
        }
      ],
      "name": "transferFrom",
      "outputs": [],
      "stateMutability": "nonpayable",
      "type": "function"
    },
    {
      "inputs": [
        {
          "internalType": "uint256",
          "name": "_tokenId",
          "type": "uint256"
        }
      ],
      "name": "listToken",
      "outputs": [],
      "stateMutability": "nonpayable",
      "type": "function"
    },
    {
      "inputs": [
        {
          "internalType": "uint256",
          "name": "_tokenId",
          "type": "uint256"
        }
      ],
      "name": "unlistToken",
      "outputs": [],
      "stateMutability": "nonpayable",
      "type": "function"
    }
  ],
  "bytecode": "0x60806040526040518060400160405280600581526020017f322e322e30000000000000000000000000000000000000000000000000000000815250600b9080519060200190620000519291906200030b565b503480156200005f57600080fd5b506040518060400160405280600c81526020017f566972696469616e204e465400000000000000000000000000000000000000008152506040518060400160405280600481526020017f564e4654000000000000000000000000000000000000000000000000000000008152508160009080519060200190620000e49291906200030b565b508060019080519060200190620000fd9291906200030b565b50505062000120620001146200018d60201b60201c565b620001a960201b60201c565b6001600a6000620001366200018d60201b60201c565b73ffffffffffffffffffffffffffffffffffffffff1673ffffffffffffffffffffffffffffffffffffffff16815260200190815260200160002060006101000a81548160ff02191690831515021790555062000420565b6000620001a46200026f60201b62001a871760201c565b905090565b6000600660009054906101000a900473ffffffffffffffffffffffffffffffffffffffff16905081600660006101000a81548173ffffffffffffffffffffffffffffffffffffffff021916908373ffffffffffffffffffffffffffffffffffffffff1602179055508173ffffffffffffffffffffffffffffffffffffffff168173ffffffffffffffffffffffffffffffffffffffff167f8be0079c531659141344cd1fd0a4f28419497f9722a3daafe3b4186f6b6457e060405160405180910390a35050565b600060146000369050101580156200029457506200029333620002b160201b60201c565b5b15620002aa57601436033560601c9050620002ae565b3390505b90565b6000600760009054906101000a900473ffffffffffffffffffffffffffffffffffffffff1673ffffffffffffffffffffffffffffffffffffffff168273ffffffffffffffffffffffffffffffffffffffff16149050919050565b8280546200031990620003ea565b90600052602060002090601f0160209004810192826200033d576000855562000389565b82601f106200035857805160ff191683800117855562000389565b8280016001018555821562000389579182015b82811115620003885782518255916020019190600101906200036b565b5b5090506200039891906200039c565b5090565b5b80821115620003b75760008160009055506001016200039d565b5090565b7f4e487b7100000000000000000000000000000000000000000000000000000000600052602260045260246000fd5b600060028204905060018216806200040357607f821691505b602082108114156200041a5762000419620003bb565b5b50919050565b613f5d80620004306000396000f3fe608060405234801561001057600080fd5b50600436106101fb5760003560e01c8063715018a61161011a578063bb92c248116100ad578063da7422281161007c578063da7422281461059a578063e6148d5f146105b6578063e985e9c5146105d2578063f2fde38b14610602578063fcce48831461061e576101fb565b8063bb92c24814610512578063bda4e79714610530578063c87b56dd1461054e578063d0def5211461057e576101fb565b806395d89b41116100e957806395d89b41146104a0578063a22cb465146104be578063ad3a358c146104da578063b88d4fde146104f6576101fb565b8063715018a61461042a5780637da0a877146104345780638bfaf101146104525780638da5cb5b14610482576101fb565b806342966c6811610192578063572b6c0511610161578063572b6c051461037e5780636352211e146103ae57806370480275146103de57806370a08231146103fa576101fb565b806342966c681461030a578063486ff0cd146103265780634c0eb7d91461034457806355f804b314610362576101fb565b8063095ea7b3116101ce578063095ea7b31461029a5780631785f53c146102b657806323b872dd146102d257806342842e0e146102ee576101fb565b8063015388681461020057806301ffc9a71461021c57806306fdde031461024c578063081812fc1461026a575b600080fd5b61021a60048036038101906102159190612abe565b61064e565b005b61023660048036038101906102319190612b72565b61073e565b6040516102439190612bba565b60405180910390f35b610254610820565b6040516102619190612c5d565b60405180910390f35b610284600480360381019061027f9190612c7f565b6108b2565b6040516102919190612ced565b60405180910390f35b6102b460048036038101906102af9190612d34565b610937565b005b6102d060048036038101906102cb9190612d74565b610a4f565b005b6102ec60048036038101906102e79190612da1565b610b26565b005b61030860048036038101906103039190612da1565b610b97565b005b610324600480360381019061031f9190612c7f565b610c08565b005b61032e610c2e565b60405161033b9190612c5d565b60405180910390f35b61034c610cbc565b6040516103599190612eb2565b60405180910390f35b61037c60048036038101906103779190612ed4565b610db8565b005b61039860048036038101906103939190612d74565b610e4e565b6040516103a59190612bba565b60405180910390f35b6103c860048036038101906103c39190612c7f565b610ea8565b6040516103d59190612ced565b60405180910390f35b6103f860048036038101906103f39190612d74565b610f5a565b005b610414600480360381019061040f9190612d74565b611031565b6040516104219190612f2c565b60405180910390f35b6104326110e9565b005b61043c611171565b6040516104499190612ced565b60405180910390f35b61046c60048036038101906104679190612f47565b61119b565b6040516104799190612f2c565b60405180910390f35b61048a611248565b6040516104979190612ced565b60405180910390f35b6104a8611272565b6040516104b59190612c5d565b60405180910390f35b6104d860048036038101906104d39190612ffe565b611304565b005b6104f460048036038101906104ef9190612c7f565b611485565b005b610510600480360381019061050b91906130df565b6114ce565b005b61051a611530565b6040516105279190612f2c565b60405180910390f35b6105386115bb565b6040516105459190612f2c565b60405180910390f35b61056860048036038101906105639190612c7f565b6115cc565b6040516105759190612c5d565b60405180910390f35b61059860048036038101906105939190613162565b61173f565b005b6105b460048036038101906105af9190612d74565b611800565b005b6105d060048036038101906105cb9190612c7f565b611888565b005b6105ec60048036038101906105e791906131be565b6118d1565b6040516105f99190612bba565b60405180910390f35b61061c60048036038101906106179190612d74565b611965565b005b61063860048036038101906106339190612c7f565b611a5d565b6040516106459190612bba565b60405180910390f35b610656611abe565b73ffffffffffffffffffffffffffffffffffffffff16610674611248565b73ffffffffffffffffffffffffffffffffffffffff16146106ca576040517f08c379a00000000000000000000000000000000000000000000000000000000081526004016106c19061324a565b60405180910390fd5b6106d382611acd565b610712576040517f08c379a0000000000000000000000000000000000000000000000000000000008152600401610709906132dc565b60405180910390fd5b80600c6000848152602001908152602001600020908051906020019061073992919061288b565b505050565b60007f80ac58cd000000000000000000000000000000000000000000000000000000007bffffffffffffffffffffffffffffffffffffffffffffffffffffffff1916827bffffffffffffffffffffffffffffffffffffffffffffffffffffffff1916148061080957507f5b5e139f000000000000000000000000000000000000000000000000000000007bffffffffffffffffffffffffffffffffffffffffffffffffffffffff1916827bffffffffffffffffffffffffffffffffffffffffffffffffffffffff1916145b80610819575061081882611b39565b5b9050919050565b60606000805461082f9061332b565b80601f016020809104026020016040519081016040528092919081815260200182805461085b9061332b565b80156108a85780601f1061087d576101008083540402835291602001916108a8565b820191906000526020600020905b81548152906001019060200180831161088b57829003601f168201915b5050505050905090565b60006108bd82611acd565b6108fc576040517f08c379a00000000000000000000000000000000000000000000000000000000081526004016108f3906133cf565b60405180910390fd5b6004600083815260200190815260200160002060009054906101000a900473ffffffffffffffffffffffffffffffffffffffff169050919050565b600061094282610ea8565b90508073ffffffffffffffffffffffffffffffffffffffff168373ffffffffffffffffffffffffffffffffffffffff1614156109b3576040517f08c379a00000000000000000000000000000000000000000000000000000000081526004016109aa90613461565b60405180910390fd5b8073ffffffffffffffffffffffffffffffffffffffff166109d2611abe565b73ffffffffffffffffffffffffffffffffffffffff161480610a015750610a00816109fb611abe565b6118d1565b5b610a40576040517f08c379a0000000000000000000000000000000000000000000000000000000008152600401610a37906134f3565b60405180910390fd5b610a4a8383611ba3565b505050565b610a57611abe565b73ffffffffffffffffffffffffffffffffffffffff16610a75611248565b73ffffffffffffffffffffffffffffffffffffffff1614610acb576040517f08c379a0000000000000000000000000000000000000000000000000000000008152600401610ac29061324a565b60405180910390fd5b6000600a60008373ffffffffffffffffffffffffffffffffffffffff1673ffffffffffffffffffffffffffffffffffffffff16815260200190815260200160002060006101000a81548160ff02191690831515021790555050565b600d600082815260200190815260200160002060009054906101000a900460ff1615610b87576040517f08c379a0000000000000000000000000000000000000000000000000000000008152600401610b7e90613585565b60405180910390fd5b610b92838383611c5c565b505050565b600d600082815260200190815260200160002060009054906101000a900460ff1615610bf8576040517f08c379a0000000000000000000000000000000000000000000000000000000008152600401610bef90613585565b60405180910390fd5b610c03838383611cbc565b505050565b610c19610c13611abe565b82611cdc565b610c2257600080fd5b610c2b81611dba565b50565b600b8054610c3b9061332b565b80601f0160208091040260200160405190810160405280929190818152602001828054610c679061332b565b8015610cb45780601f10610c8957610100808354040283529160200191610cb4565b820191906000526020600020905b815481529060010190602001808311610c9757829003601f168201915b505050505081565b60606000610cc8611530565b67ffffffffffffffff811115610ce157610ce0612993565b5b604051908082528060200260200182016040528015610d0f5781602001602082028036833780820191505090505b509050600080600190505b610d246008611ecb565b8111610daf57610d32611abe565b73ffffffffffffffffffffffffffffffffffffffff16610d5182610ea8565b73ffffffffffffffffffffffffffffffffffffffff161415610d9c5780838381518110610d8157610d806135a5565b5b6020026020010181815250508180610d9890613603565b9250505b8080610da790613603565b915050610d1a565b50819250505090565b610dc0611abe565b73ffffffffffffffffffffffffffffffffffffffff16610dde611248565b73ffffffffffffffffffffffffffffffffffffffff1614610e34576040517f08c379a0000000000000000000000000000000000000000000000000000000008152600401610e2b9061324a565b60405180910390fd5b80600e9080519060200190610e4a92919061288b565b5050565b6000600760009054906101000a900473ffffffffffffffffffffffffffffffffffffffff1673ffffffffffffffffffffffffffffffffffffffff168273ffffffffffffffffffffffffffffffffffffffff16149050919050565b6000806002600084815260200190815260200160002060009054906101000a900473ffffffffffffffffffffffffffffffffffffffff169050600073ffffffffffffffffffffffffffffffffffffffff168173ffffffffffffffffffffffffffffffffffffffff161415610f51576040517f08c379a0000000000000000000000000000000000000000000000000000000008152600401610f48906136be565b60405180910390fd5b80915050919050565b610f62611abe565b73ffffffffffffffffffffffffffffffffffffffff16610f80611248565b73ffffffffffffffffffffffffffffffffffffffff1614610fd6576040517f08c379a0000000000000000000000000000000000000000000000000000000008152600401610fcd9061324a565b60405180910390fd5b6001600a60008373ffffffffffffffffffffffffffffffffffffffff1673ffffffffffffffffffffffffffffffffffffffff16815260200190815260200160002060006101000a81548160ff02191690831515021790555050565b60008073ffffffffffffffffffffffffffffffffffffffff168273ffffffffffffffffffffffffffffffffffffffff1614156110a2576040517f08c379a000000000000000000000000000000000000000000000000000000000815260040161109990613750565b60405180910390fd5b600360008373ffffffffffffffffffffffffffffffffffffffff1673ffffffffffffffffffffffffffffffffffffffff168152602001908152602001600020549050919050565b6110f1611abe565b73ffffffffffffffffffffffffffffffffffffffff1661110f611248565b73ffffffffffffffffffffffffffffffffffffffff1614611165576040517f08c379a000000000000000000000000000000000000000000000000000000000815260040161115c9061324a565b60405180910390fd5b61116f6000611ed9565b565b6000600760009054906101000a900473ffffffffffffffffffffffffffffffffffffffff16905090565b600060016009846040516111af91906137ac565b908152602001604051809103902060009054906101000a900460ff1660ff1614156111d957600080fd5b60016009846040516111eb91906137ac565b908152602001604051809103902060006101000a81548160ff021916908360ff16021790555061121b6008611f9f565b60006112276008611ecb565b90506112338582611fb5565b61123d818461064e565b809150509392505050565b6000600660009054906101000a900473ffffffffffffffffffffffffffffffffffffffff16905090565b6060600180546112819061332b565b80601f01602080910402602001604051908101604052809291908181526020018280546112ad9061332b565b80156112fa5780601f106112cf576101008083540402835291602001916112fa565b820191906000526020600020905b8154815290600101906020018083116112dd57829003601f168201915b5050505050905090565b61130c611abe565b73ffffffffffffffffffffffffffffffffffffffff168273ffffffffffffffffffffffffffffffffffffffff16141561137a576040517f08c379a00000000000000000000000000000000000000000000000000000000081526004016113719061380f565b60405180910390fd5b8060056000611387611abe565b73ffffffffffffffffffffffffffffffffffffffff1673ffffffffffffffffffffffffffffffffffffffff16815260200190815260200160002060008473ffffffffffffffffffffffffffffffffffffffff1673ffffffffffffffffffffffffffffffffffffffff16815260200190815260200160002060006101000a81548160ff0219169083151502179055508173ffffffffffffffffffffffffffffffffffffffff16611434611abe565b73ffffffffffffffffffffffffffffffffffffffff167f17307eab39ab6107e8899845ad3d59bd9653f200f220920489ca2b5937696c31836040516114799190612bba565b60405180910390a35050565b611496611490611abe565b82611cdc565b61149f57600080fd5b6000600d600083815260200190815260200160002060006101000a81548160ff02191690831515021790555050565b6114df6114d9611abe565b83611cdc565b61151e576040517f08c379a0000000000000000000000000000000000000000000000000000000008152600401611515906138a1565b60405180910390fd5b61152a84848484612183565b50505050565b600080600090506000600190505b6115486008611ecb565b81116115b357611556611abe565b73ffffffffffffffffffffffffffffffffffffffff1661157582610ea8565b73ffffffffffffffffffffffffffffffffffffffff1614156115a057818061159c90613603565b9250505b80806115ab90613603565b91505061153e565b508091505090565b60006115c76008611ecb565b905090565b60606115d782611acd565b611616576040517f08c379a000000000000000000000000000000000000000000000000000000000815260040161160d90613933565b60405180910390fd5b6000600c600084815260200190815260200160002080546116369061332b565b80601f01602080910402602001604051908101604052809291908181526020018280546116629061332b565b80156116af5780601f10611684576101008083540402835291602001916116af565b820191906000526020600020905b81548152906001019060200180831161169257829003601f168201915b5050505050905060006116c06121df565b90506000815114156116d657819250505061173a565b60008251111561170b5780826040516020016116f3929190613953565b6040516020818303038152906040529250505061173a565b8061171585612271565b604051602001611726929190613953565b604051602081830303815290604052925050505b919050565b60011515600a600061174f611abe565b73ffffffffffffffffffffffffffffffffffffffff1673ffffffffffffffffffffffffffffffffffffffff16815260200190815260200160002060009054906101000a900460ff161515146117a357600080fd5b6117ad6008611f9f565b60006117b96008611ecb565b90506117c583826123d2565b6000600d600083815260200190815260200160002060006101000a81548160ff0219169083151502179055506117fb818361064e565b505050565b611808611abe565b73ffffffffffffffffffffffffffffffffffffffff16611826611248565b73ffffffffffffffffffffffffffffffffffffffff161461187c576040517f08c379a00000000000000000000000000000000000000000000000000000000081526004016118739061324a565b60405180910390fd5b611885816123f0565b50565b611899611893611abe565b82611cdc565b6118a257600080fd5b6001600d600083815260200190815260200160002060006101000a81548160ff02191690831515021790555050565b6000600560008473ffffffffffffffffffffffffffffffffffffffff1673ffffffffffffffffffffffffffffffffffffffff16815260200190815260200160002060008373ffffffffffffffffffffffffffffffffffffffff1673ffffffffffffffffffffffffffffffffffffffff16815260200190815260200160002060009054906101000a900460ff16905092915050565b61196d611abe565b73ffffffffffffffffffffffffffffffffffffffff1661198b611248565b73ffffffffffffffffffffffffffffffffffffffff16146119e1576040517f08c379a00000000000000000000000000000000000000000000000000000000081526004016119d89061324a565b60405180910390fd5b600073ffffffffffffffffffffffffffffffffffffffff168173ffffffffffffffffffffffffffffffffffffffff161415611a51576040517f08c379a0000000000000000000000000000000000000000000000000000000008152600401611a48906139e9565b60405180910390fd5b611a5a81611ed9565b50565b6000600d600083815260200190815260200160002060009054906101000a900460ff169050919050565b60006014600036905010158015611aa35750611aa233610e4e565b5b15611ab757601436033560601c9050611abb565b3390505b90565b6000611ac8611a87565b905090565b60008073ffffffffffffffffffffffffffffffffffffffff166002600084815260200190815260200160002060009054906101000a900473ffffffffffffffffffffffffffffffffffffffff1673ffffffffffffffffffffffffffffffffffffffff1614159050919050565b60007f01ffc9a7000000000000000000000000000000000000000000000000000000007bffffffffffffffffffffffffffffffffffffffffffffffffffffffff1916827bffffffffffffffffffffffffffffffffffffffffffffffffffffffff1916149050919050565b816004600083815260200190815260200160002060006101000a81548173ffffffffffffffffffffffffffffffffffffffff021916908373ffffffffffffffffffffffffffffffffffffffff160217905550808273ffffffffffffffffffffffffffffffffffffffff16611c1683610ea8565b73ffffffffffffffffffffffffffffffffffffffff167f8c5be1e5ebec7d5bd14f71427d1e84f3dd0314c0f7b2291e5b200ac8c7c3b92560405160405180910390a45050565b611c6d611c67611abe565b82611cdc565b611cac576040517f08c379a0000000000000000000000000000000000000000000000000000000008152600401611ca3906138a1565b60405180910390fd5b611cb7838383612434565b505050565b611cd7838383604051806020016040528060008152506114ce565b505050565b6000611ce782611acd565b611d26576040517f08c379a0000000000000000000000000000000000000000000000000000000008152600401611d1d90613a7b565b60405180910390fd5b6000611d3183610ea8565b90508073ffffffffffffffffffffffffffffffffffffffff168473ffffffffffffffffffffffffffffffffffffffff161480611da057508373ffffffffffffffffffffffffffffffffffffffff16611d88846108b2565b73ffffffffffffffffffffffffffffffffffffffff16145b80611db15750611db081856118d1565b5b91505092915050565b6000611dc582610ea8565b9050611dd381600084612690565b611dde600083611ba3565b6001600360008373ffffffffffffffffffffffffffffffffffffffff1673ffffffffffffffffffffffffffffffffffffffff1681526020019081526020016000206000828254611e2e9190613a9b565b925050819055506002600083815260200190815260200160002060006101000a81549073ffffffffffffffffffffffffffffffffffffffff021916905581600073ffffffffffffffffffffffffffffffffffffffff168273ffffffffffffffffffffffffffffffffffffffff167fddf252ad1be2c89b69c2b068fc378daa952ba7f163c4a11628f55a4df523b3ef60405160405180910390a45050565b600081600001549050919050565b6000600660009054906101000a900473ffffffffffffffffffffffffffffffffffffffff16905081600660006101000a81548173ffffffffffffffffffffffffffffffffffffffff021916908373ffffffffffffffffffffffffffffffffffffffff1602179055508173ffffffffffffffffffffffffffffffffffffffff168173ffffffffffffffffffffffffffffffffffffffff167f8be0079c531659141344cd1fd0a4f28419497f9722a3daafe3b4186f6b6457e060405160405180910390a35050565b6001816000016000828254019250508190555050565b600073ffffffffffffffffffffffffffffffffffffffff168273ffffffffffffffffffffffffffffffffffffffff161415612025576040517f08c379a000000000000000000000000000000000000000000000000000000000815260040161201c90613b1b565b60405180910390fd5b61202e81611acd565b1561206e576040517f08c379a000000000000000000000000000000000000000000000000000000000815260040161206590613b87565b60405180910390fd5b61207a60008383612690565b6001600360008473ffffffffffffffffffffffffffffffffffffffff1673ffffffffffffffffffffffffffffffffffffffff16815260200190815260200160002060008282546120ca9190613ba7565b92505081905550816002600083815260200190815260200160002060006101000a81548173ffffffffffffffffffffffffffffffffffffffff021916908373ffffffffffffffffffffffffffffffffffffffff160217905550808273ffffffffffffffffffffffffffffffffffffffff16600073ffffffffffffffffffffffffffffffffffffffff167fddf252ad1be2c89b69c2b068fc378daa952ba7f163c4a11628f55a4df523b3ef60405160405180910390a45050565b61218e848484612434565b61219a84848484612695565b6121d9576040517f08c379a00000000000000000000000000000000000000000000000000000000081526004016121d090613c6f565b60405180910390fd5b50505050565b6060600e80546121ee9061332b565b80601f016020809104026020016040519081016040528092919081815260200182805461221a9061332b565b80156122675780601f1061223c57610100808354040283529160200191612267565b820191906000526020600020905b81548152906001019060200180831161224a57829003601f168201915b5050505050905090565b606060008214156122b9576040518060400160405280600181526020017f300000000000000000000000000000000000000000000000000000000000000081525090506123cd565b600082905060005b600082146122eb5780806122d490613603565b915050600a826122e49190613cbe565b91506122c1565b60008167ffffffffffffffff81111561230757612306612993565b5b6040519080825280601f01601f1916602001820160405280156123395781602001600182028036833780820191505090505b5090505b600085146123c6576001826123529190613a9b565b9150600a856123619190613cef565b603061236d9190613ba7565b60f81b818381518110612383576123826135a5565b5b60200101907effffffffffffffffffffffffffffffffffffffffffffffffffffffffffffff1916908160001a905350600a856123bf9190613cbe565b945061233d565b8093505050505b919050565b6123ec82826040518060200160405280600081525061281d565b5050565b80600760006101000a81548173ffffffffffffffffffffffffffffffffffffffff021916908373ffffffffffffffffffffffffffffffffffffffff16021790555050565b8273ffffffffffffffffffffffffffffffffffffffff1661245482610ea8565b73ffffffffffffffffffffffffffffffffffffffff16146124aa576040517f08c379a00000000000000000000000000000000000000000000000000000000081526004016124a190613d92565b60405180910390fd5b600073ffffffffffffffffffffffffffffffffffffffff168273ffffffffffffffffffffffffffffffffffffffff16141561251a576040517f08c379a000000000000000000000000000000000000000000000000000000000815260040161251190613e24565b60405180910390fd5b612525838383612690565b612530600082611ba3565b6001600360008573ffffffffffffffffffffffffffffffffffffffff1673ffffffffffffffffffffffffffffffffffffffff16815260200190815260200160002060008282546125809190613a9b565b925050819055506001600360008473ffffffffffffffffffffffffffffffffffffffff1673ffffffffffffffffffffffffffffffffffffffff16815260200190815260200160002060008282546125d79190613ba7565b92505081905550816002600083815260200190815260200160002060006101000a81548173ffffffffffffffffffffffffffffffffffffffff021916908373ffffffffffffffffffffffffffffffffffffffff160217905550808273ffffffffffffffffffffffffffffffffffffffff168473ffffffffffffffffffffffffffffffffffffffff167fddf252ad1be2c89b69c2b068fc378daa952ba7f163c4a11628f55a4df523b3ef60405160405180910390a4505050565b505050565b60006126b68473ffffffffffffffffffffffffffffffffffffffff16612878565b15612810578373ffffffffffffffffffffffffffffffffffffffff1663150b7a026126df611abe565b8786866040518563ffffffff1660e01b81526004016127019493929190613e99565b6020604051808303816000875af192505050801561273d57506040513d601f19601f8201168201806040525081019061273a9190613efa565b60015b6127c0573d806000811461276d576040519150601f19603f3d011682016040523d82523d6000602084013e612772565b606091505b506000815114156127b8576040517f08c379a00000000000000000000000000000000000000000000000000000000081526004016127af90613c6f565b60405180910390fd5b805181602001fd5b63150b7a0260e01b7bffffffffffffffffffffffffffffffffffffffffffffffffffffffff1916817bffffffffffffffffffffffffffffffffffffffffffffffffffffffff191614915050612815565b600190505b949350505050565b6128278383611fb5565b6128346000848484612695565b612873576040517f08c379a000000000000000000000000000000000000000000000000000000000815260040161286a90613c6f565b60405180910390fd5b505050565b600080823b905060008111915050919050565b8280546128979061332b565b90600052602060002090601f0160209004810192826128b95760008555612900565b82601f106128d257805160ff1916838001178555612900565b82800160010185558215612900579182015b828111156128ff5782518255916020019190600101906128e4565b5b50905061290d9190612911565b5090565b5b8082111561292a576000816000905550600101612912565b5090565b6000604051905090565b600080fd5b600080fd5b6000819050919050565b61295581612942565b811461296057600080fd5b50565b6000813590506129728161294c565b92915050565b600080fd5b600080fd5b6000601f19601f8301169050919050565b7f4e487b7100000000000000000000000000000000000000000000000000000000600052604160045260246000fd5b6129cb82612982565b810181811067ffffffffffffffff821117156129ea576129e9612993565b5b80604052505050565b60006129fd61292e565b9050612a0982826129c2565b919050565b600067ffffffffffffffff821115612a2957612a28612993565b5b612a3282612982565b9050602081019050919050565b82818337600083830152505050565b6000612a61612a5c84612a0e565b6129f3565b905082815260208101848484011115612a7d57612a7c61297d565b5b612a88848285612a3f565b509392505050565b600082601f830112612aa557612aa4612978565b5b8135612ab5848260208601612a4e565b91505092915050565b60008060408385031215612ad557612ad4612938565b5b6000612ae385828601612963565b925050602083013567ffffffffffffffff811115612b0457612b0361293d565b5b612b1085828601612a90565b9150509250929050565b60007fffffffff0000000000000000000000000000000000000000000000000000000082169050919050565b612b4f81612b1a565b8114612b5a57600080fd5b50565b600081359050612b6c81612b46565b92915050565b600060208284031215612b8857612b87612938565b5b6000612b9684828501612b5d565b91505092915050565b60008115159050919050565b612bb481612b9f565b82525050565b6000602082019050612bcf6000830184612bab565b92915050565b600081519050919050565b600082825260208201905092915050565b60005b83811015612c0f578082015181840152602081019050612bf4565b83811115612c1e576000848401525b50505050565b6000612c2f82612bd5565b612c398185612be0565b9350612c49818560208601612bf1565b612c5281612982565b840191505092915050565b60006020820190508181036000830152612c778184612c24565b905092915050565b600060208284031215612c9557612c94612938565b5b6000612ca384828501612963565b91505092915050565b600073ffffffffffffffffffffffffffffffffffffffff82169050919050565b6000612cd782612cac565b9050919050565b612ce781612ccc565b82525050565b6000602082019050612d026000830184612cde565b92915050565b612d1181612ccc565b8114612d1c57600080fd5b50565b600081359050612d2e81612d08565b92915050565b60008060408385031215612d4b57612d4a612938565b5b6000612d5985828601612d1f565b9250506020612d6a85828601612963565b9150509250929050565b600060208284031215612d8a57612d89612938565b5b6000612d9884828501612d1f565b91505092915050565b600080600060608486031215612dba57612db9612938565b5b6000612dc886828701612d1f565b9350506020612dd986828701612d1f565b9250506040612dea86828701612963565b9150509250925092565b600081519050919050565b600082825260208201905092915050565b6000819050602082019050919050565b612e2981612942565b82525050565b6000612e3b8383612e20565b60208301905092915050565b6000602082019050919050565b6000612e5f82612df4565b612e698185612dff565b9350612e7483612e10565b8060005b83811015612ea5578151612e8c8882612e2f565b9750612e9783612e47565b925050600181019050612e78565b5085935050505092915050565b60006020820190508181036000830152612ecc8184612e54565b905092915050565b600060208284031215612eea57612ee9612938565b5b600082013567ffffffffffffffff811115612f0857612f0761293d565b5b612f1484828501612a90565b91505092915050565b612f2681612942565b82525050565b6000602082019050612f416000830184612f1d565b92915050565b600080600060608486031215612f6057612f5f612938565b5b6000612f6e86828701612d1f565b935050602084013567ffffffffffffffff811115612f8f57612f8e61293d565b5b612f9b86828701612a90565b925050604084013567ffffffffffffffff811115612fbc57612fbb61293d565b5b612fc886828701612a90565b9150509250925092565b612fdb81612b9f565b8114612fe657600080fd5b50565b600081359050612ff881612fd2565b92915050565b6000806040838503121561301557613014612938565b5b600061302385828601612d1f565b925050602061303485828601612fe9565b9150509250929050565b600067ffffffffffffffff82111561305957613058612993565b5b61306282612982565b9050602081019050919050565b600061308261307d8461303e565b6129f3565b90508281526020810184848401111561309e5761309d61297d565b5b6130a9848285612a3f565b509392505050565b600082601f8301126130c6576130c5612978565b5b81356130d684826020860161306f565b91505092915050565b600080600080608085870312156130f9576130f8612938565b5b600061310787828801612d1f565b945050602061311887828801612d1f565b935050604061312987828801612963565b925050606085013567ffffffffffffffff81111561314a5761314961293d565b5b613156878288016130b1565b91505092959194509250565b6000806040838503121561317957613178612938565b5b600061318785828601612d1f565b925050602083013567ffffffffffffffff8111156131a8576131a761293d565b5b6131b485828601612a90565b9150509250929050565b600080604083850312156131d5576131d4612938565b5b60006131e385828601612d1f565b92505060206131f485828601612d1f565b9150509250929050565b7f4f776e61626c653a2063616c6c6572206973206e6f7420746865206f776e6572600082015250565b6000613234602083612be0565b915061323f826131fe565b602082019050919050565b6000602082019050818103600083015261326381613227565b9050919050565b7f4552433732314d657461646174613a2055524920736574206f66206e6f6e657860008201527f697374656e7420746f6b656e0000000000000000000000000000000000000000602082015250565b60006132c6602c83612be0565b91506132d18261326a565b604082019050919050565b600060208201905081810360008301526132f5816132b9565b9050919050565b7f4e487b7100000000000000000000000000000000000000000000000000000000600052602260045260246000fd5b6000600282049050600182168061334357607f821691505b60208210811415613357576133566132fc565b5b50919050565b7f4552433732313a20617070726f76656420717565727920666f72206e6f6e657860008201527f697374656e7420746f6b656e0000000000000000000000000000000000000000602082015250565b60006133b9602c83612be0565b91506133c48261335d565b604082019050919050565b600060208201905081810360008301526133e8816133ac565b9050919050565b7f4552433732313a20617070726f76616c20746f2063757272656e74206f776e6560008201527f7200000000000000000000000000000000000000000000000000000000000000602082015250565b600061344b602183612be0565b9150613456826133ef565b604082019050919050565b6000602082019050818103600083015261347a8161343e565b9050919050565b7f4552433732313a20617070726f76652063616c6c6572206973206e6f74206f7760008201527f6e6572206e6f7220617070726f76656420666f7220616c6c0000000000000000602082015250565b60006134dd603883612be0565b91506134e882613481565b604082019050919050565b6000602082019050818103600083015261350c816134d0565b9050919050565b7f566972696469616e204e46543a2043616e6e6f74207472616e7366657220776860008201527f696c65206c6973746564206f6e20566972696469616e2045786368616e676500602082015250565b600061356f603f83612be0565b915061357a82613513565b604082019050919050565b6000602082019050818103600083015261359e81613562565b9050919050565b7f4e487b7100000000000000000000000000000000000000000000000000000000600052603260045260246000fd5b7f4e487b7100000000000000000000000000000000000000000000000000000000600052601160045260246000fd5b600061360e82612942565b91507fffffffffffffffffffffffffffffffffffffffffffffffffffffffffffffffff821415613641576136406135d4565b5b600182019050919050565b7f4552433732313a206f776e657220717565727920666f72206e6f6e657869737460008201527f656e7420746f6b656e0000000000000000000000000000000000000000000000602082015250565b60006136a8602983612be0565b91506136b38261364c565b604082019050919050565b600060208201905081810360008301526136d78161369b565b9050919050565b7f4552433732313a2062616c616e636520717565727920666f7220746865207a6560008201527f726f206164647265737300000000000000000000000000000000000000000000602082015250565b600061373a602a83612be0565b9150613745826136de565b604082019050919050565b600060208201905081810360008301526137698161372d565b9050919050565b600081905092915050565b600061378682612bd5565b6137908185613770565b93506137a0818560208601612bf1565b80840191505092915050565b60006137b8828461377b565b915081905092915050565b7f4552433732313a20617070726f766520746f2063616c6c657200000000000000600082015250565b60006137f9601983612be0565b9150613804826137c3565b602082019050919050565b60006020820190508181036000830152613828816137ec565b9050919050565b7f4552433732313a207472616e736665722063616c6c6572206973206e6f74206f60008201527f776e6572206e6f7220617070726f766564000000000000000000000000000000602082015250565b600061388b603183612be0565b91506138968261382f565b604082019050919050565b600060208201905081810360008301526138ba8161387e565b9050919050565b7f4552433732314d657461646174613a2055524920717565727920666f72206e6f60008201527f6e6578697374656e7420746f6b656e0000000000000000000000000000000000602082015250565b600061391d602f83612be0565b9150613928826138c1565b604082019050919050565b6000602082019050818103600083015261394c81613910565b9050919050565b600061395f828561377b565b915061396b828461377b565b91508190509392505050565b7f4f776e61626c653a206e6577206f776e657220697320746865207a65726f206160008201527f6464726573730000000000000000000000000000000000000000000000000000602082015250565b60006139d3602683612be0565b91506139de82613977565b604082019050919050565b60006020820190508181036000830152613a02816139c6565b9050919050565b7f4552433732313a206f70657261746f7220717565727920666f72206e6f6e657860008201527f697374656e7420746f6b656e0000000000000000000000000000000000000000602082015250565b6000613a65602c83612be0565b9150613a7082613a09565b604082019050919050565b60006020820190508181036000830152613a9481613a58565b9050919050565b6000613aa682612942565b9150613ab183612942565b925082821015613ac457613ac36135d4565b5b828203905092915050565b7f4552433732313a206d696e7420746f20746865207a65726f2061646472657373600082015250565b6000613b05602083612be0565b9150613b1082613acf565b602082019050919050565b60006020820190508181036000830152613b3481613af8565b9050919050565b7f4552433732313a20746f6b656e20616c7265616479206d696e74656400000000600082015250565b6000613b71601c83612be0565b9150613b7c82613b3b565b602082019050919050565b60006020820190508181036000830152613ba081613b64565b9050919050565b6000613bb282612942565b9150613bbd83612942565b9250827fffffffffffffffffffffffffffffffffffffffffffffffffffffffffffffffff03821115613bf257613bf16135d4565b5b828201905092915050565b7f4552433732313a207472616e7366657220746f206e6f6e20455243373231526560008201527f63656976657220696d706c656d656e7465720000000000000000000000000000602082015250565b6000613c59603283612be0565b9150613c6482613bfd565b604082019050919050565b60006020820190508181036000830152613c8881613c4c565b9050919050565b7f4e487b7100000000000000000000000000000000000000000000000000000000600052601260045260246000fd5b6000613cc982612942565b9150613cd483612942565b925082613ce457613ce3613c8f565b5b828204905092915050565b6000613cfa82612942565b9150613d0583612942565b925082613d1557613d14613c8f565b5b828206905092915050565b7f4552433732313a207472616e73666572206f6620746f6b656e2074686174206960008201527f73206e6f74206f776e0000000000000000000000000000000000000000000000602082015250565b6000613d7c602983612be0565b9150613d8782613d20565b604082019050919050565b60006020820190508181036000830152613dab81613d6f565b9050919050565b7f4552433732313a207472616e7366657220746f20746865207a65726f2061646460008201527f7265737300000000000000000000000000000000000000000000000000000000602082015250565b6000613e0e602483612be0565b9150613e1982613db2565b604082019050919050565b60006020820190508181036000830152613e3d81613e01565b9050919050565b600081519050919050565b600082825260208201905092915050565b6000613e6b82613e44565b613e758185613e4f565b9350613e85818560208601612bf1565b613e8e81612982565b840191505092915050565b6000608082019050613eae6000830187612cde565b613ebb6020830186612cde565b613ec86040830185612f1d565b8181036060830152613eda8184613e60565b905095945050505050565b600081519050613ef481612b46565b92915050565b600060208284031215613f1057613f0f612938565b5b6000613f1e84828501613ee5565b9150509291505056fea2646970667358221220d1d7bba4d5a1d650e8fb839efc33e7f484a9fcb6e8eb8343c9ac95bbbfdce33564736f6c634300080a0033",
  "immutableReferences": {},
  "source": "pragma solidity ^0.8.0;\n\nimport \"@openzeppelin/contracts/token/ERC721/ERC721.sol\";\nimport \"@openzeppelin/contracts/utils/Counters.sol\";\nimport \"@openzeppelin/contracts/access/Ownable.sol\";\nimport \"@opengsn/contracts/src/BaseRelayRecipient.sol\";\n\ncontract ViridianNFT is ERC721, Ownable, BaseRelayRecipient {\n\n    using Counters for Counters.Counter;\n    Counters.Counter private _tokenIds;\n    mapping(string => uint8) hashes;\n    \n    mapping(address => bool) admins;\n    \n    // constructor(address _imx) ERC721(\"Viridian NFT\", \"VNFT\") Mintable(_msgSender(), _imx) {\n    //     admins[_msgSender()] = true;\n    // }\n\n    constructor(/*address _forwarder*/) ERC721(\"Viridian NFT\", \"VNFT\") {\n        //_setTrustedForwarder(_forwarder);\n        \n        admins[_msgSender()] = true;\n    }\n\n    string public override versionRecipient = \"2.2.0\";\n\n    function setTrustedForwarder(address _forwarder) public onlyOwner() {\n        _setTrustedForwarder(_forwarder);\n    }\n\n    using Strings for uint256;\n\n    //TODO: Maybe add restrictions to NFT usage when it is listed on the exchange, do not allow ownership transfer \n    // while it is listed for sale or offer to avoid issues with invalid purchasing, or just protect from transactions going through\n    // on exchange, ask someone about this scenario.\n\n\n    // Optional mapping for token URIs\n    mapping (uint256 => string) private _tokenURIs;\n\n    //mapping(uint256 => bytes) public blueprints;\n\n    mapping (uint256 => bool) private _tokensListed;\n\n    //address private viridianExchangeAddress;\n\n    // Base URI\n    string private _baseURIextended;\n\n    modifier onlyAdmin() {\n        require(admins[_msgSender()] == true);\n            _;\n    }\n\n    function _msgSender() internal view override(Context, BaseRelayRecipient) returns (address sender) {\n        sender = BaseRelayRecipient._msgSender();\n    }\n\n    function _msgData() internal view override(Context, BaseRelayRecipient) returns (bytes memory) {\n        return BaseRelayRecipient._msgData();\n    }\n\n    function addAdmin(address _newAdmin) external onlyOwner() {\n        admins[_newAdmin] = true;\n    }\n\n    function removeAdmin(address _newAdmin) external onlyOwner() {\n        admins[_newAdmin] = false;\n    }\n\n    // function setExchangeAddress(address ea) public onlyOwner() {\n    //     viridianExchangeAddress = ea;\n    // }\n    \n    function setBaseURI(string memory baseURI_) external onlyOwner() {\n        _baseURIextended = baseURI_;\n    }\n    \n    function _setTokenURI(uint256 tokenId, string memory _tokenURI) public virtual onlyOwner() {\n        require(_exists(tokenId), \"ERC721Metadata: URI set of nonexistent token\");\n        _tokenURIs[tokenId] = _tokenURI;\n    }\n    \n    function _baseURI() internal view virtual override returns (string memory) {\n        return _baseURIextended;\n    }\n    \n    function tokenURI(uint256 tokenId) public view virtual override returns (string memory) {\n        require(_exists(tokenId), \"ERC721Metadata: URI query for nonexistent token\");\n\n        string memory _tokenURI = _tokenURIs[tokenId];\n        string memory base = _baseURI();\n        \n        // If there is no base URI, return the token URI.\n        if (bytes(base).length == 0) {\n            return _tokenURI;\n        }\n        // If both are set, concatenate the baseURI and tokenURI (via abi.encodePacked).\n        if (bytes(_tokenURI).length > 0) {\n            return string(abi.encodePacked(base, _tokenURI));\n        }\n        // If there is a baseURI but no tokenURI, concatenate the tokenID to the baseURI.\n        return string(abi.encodePacked(base, tokenId.toString()));\n    }\n\n    function getNumNFTs() public view returns (uint256 n) {\n        return _tokenIds.current();\n    }\n\n    function getNumOwnedNFTs() public view virtual returns (uint256) {\n        uint256 numOwnedNFTs = 0;\n\n        for (uint256 i = 1; i <= _tokenIds.current(); i++) {\n            if (ownerOf(i) == _msgSender()) {\n                numOwnedNFTs++;\n            }\n        }\n\n        return numOwnedNFTs;\n    }\n \n    function getOwnedNFTs() public view virtual returns (uint256[] memory) {\n\n        uint256[] memory _tokens = new uint256[](getNumOwnedNFTs());\n\n        uint256 curIndex = 0;\n\n        for (uint256 i = 1; i <= _tokenIds.current(); i++) {\n            if (ownerOf(i) == _msgSender()) {\n                _tokens[curIndex] = i;\n                curIndex++;\n            }\n        }\n        \n        return _tokens;\n    }\n\n    function mint(\n        address _to,\n        string memory tokenURI_\n    ) external onlyAdmin() {\n        _tokenIds.increment();\n        uint256 _tokenId = _tokenIds.current();\n\n        _safeMint(_to, _tokenId);\n        _tokensListed[_tokenId] = false;\n        _setTokenURI(_tokenId, tokenURI_);\n    }\n\n    function isListed(uint256 tokenId) public view returns (bool) {\n        return _tokensListed[tokenId];\n    }\n\n    function burn(uint256 tokenId) public {\n        require(_isApprovedOrOwner(_msgSender(), tokenId));\n\n        _burn(tokenId);\n    }\n\n    function awardItem(address recipient, string memory hash, string memory metadata) public returns (uint256) {\n        require(hashes[hash] != 1);\n        hashes[hash] = 1;\n        _tokenIds.increment();\n        uint256 newItemId = _tokenIds.current();\n        _mint(recipient, newItemId);\n        _setTokenURI(newItemId, metadata);\n        return newItemId;\n    }\n\n    function safeTransferFrom(address from, address to, uint256 tokenId) public override {\n        require(!_tokensListed[tokenId], \"Viridian NFT: Cannot transfer while listed on Viridian Exchange\");\n\n        super.safeTransferFrom(from, to, tokenId);\n    }\n\n    function transferFrom(address from, address to, uint256 tokenId) public override {\n        require(!_tokensListed[tokenId], \"Viridian NFT: Cannot transfer while listed on Viridian Exchange\");\n\n        super.transferFrom(from, to, tokenId);\n    }\n\n    function listToken(uint256 _tokenId) public {\n        require(_isApprovedOrOwner(_msgSender(), _tokenId));\n        _tokensListed[_tokenId] = true;\n    }\n\n    function unlistToken(uint256 _tokenId) public {\n        require(_isApprovedOrOwner(_msgSender(), _tokenId));\n        _tokensListed[_tokenId] = false;\n    }\n}",
  "sourcePath": "/Users/blakehatch/Viridian-Exchange-Contracts/contracts/ViridianNFT.sol",
  "compiler": {
    "name": "solc",
    "version": "0.8.10+commit.fc410830.Emscripten.clang"
  },
  "schemaVersion": "3.4.1",
  "updatedAt": "2021-12-14T19:36:43.502Z",
  "networkType": "ethereum",
  "devdoc": {
    "kind": "dev",
    "methods": {
      "approve(address,uint256)": {
        "details": "See {IERC721-approve}."
      },
      "balanceOf(address)": {
        "details": "See {IERC721-balanceOf}."
      },
      "getApproved(uint256)": {
        "details": "See {IERC721-getApproved}."
      },
      "isApprovedForAll(address,address)": {
        "details": "See {IERC721-isApprovedForAll}."
      },
      "name()": {
        "details": "See {IERC721Metadata-name}."
      },
      "owner()": {
        "details": "Returns the address of the current owner."
      },
      "ownerOf(uint256)": {
        "details": "See {IERC721-ownerOf}."
      },
      "renounceOwnership()": {
        "details": "Leaves the contract without owner. It will not be possible to call `onlyOwner` functions anymore. Can only be called by the current owner. NOTE: Renouncing ownership will leave the contract without an owner, thereby removing any functionality that is only available to the owner."
      },
      "safeTransferFrom(address,address,uint256)": {
        "details": "See {IERC721-safeTransferFrom}."
      },
      "safeTransferFrom(address,address,uint256,bytes)": {
        "details": "See {IERC721-safeTransferFrom}."
      },
      "setApprovalForAll(address,bool)": {
        "details": "See {IERC721-setApprovalForAll}."
      },
      "supportsInterface(bytes4)": {
        "details": "See {IERC165-supportsInterface}."
      },
      "symbol()": {
        "details": "See {IERC721Metadata-symbol}."
      },
      "tokenURI(uint256)": {
        "details": "See {IERC721Metadata-tokenURI}."
      },
      "transferFrom(address,address,uint256)": {
        "details": "See {IERC721-transferFrom}."
      },
      "transferOwnership(address)": {
        "details": "Transfers ownership of the contract to a new account (`newOwner`). Can only be called by the current owner."
      }
    },
    "version": 1
  },
  "userdoc": {
    "kind": "user",
    "methods": {
      "isTrustedForwarder(address)": {
        "notice": "return if the forwarder is trusted to forward relayed transactions to us. the forwarder is required to verify the sender's signature, and verify the call is not a replay."
      }
    },
    "version": 1
  }
}