{
  "contractName": "ViridianNFT",
  "abi": [
    {
      "inputs": [],
      "stateMutability": "nonpayable",
      "type": "constructor"
    },
    {
      "anonymous": false,
      "inputs": [
        {
          "indexed": true,
          "internalType": "address",
          "name": "owner",
          "type": "address"
        },
        {
          "indexed": true,
          "internalType": "address",
          "name": "approved",
          "type": "address"
        },
        {
          "indexed": true,
          "internalType": "uint256",
          "name": "tokenId",
          "type": "uint256"
        }
      ],
      "name": "Approval",
      "type": "event"
    },
    {
      "anonymous": false,
      "inputs": [
        {
          "indexed": true,
          "internalType": "address",
          "name": "owner",
          "type": "address"
        },
        {
          "indexed": true,
          "internalType": "address",
          "name": "operator",
          "type": "address"
        },
        {
          "indexed": false,
          "internalType": "bool",
          "name": "approved",
          "type": "bool"
        }
      ],
      "name": "ApprovalForAll",
      "type": "event"
    },
    {
      "anonymous": false,
      "inputs": [
        {
          "indexed": true,
          "internalType": "address",
          "name": "previousOwner",
          "type": "address"
        },
        {
          "indexed": true,
          "internalType": "address",
          "name": "newOwner",
          "type": "address"
        }
      ],
      "name": "OwnershipTransferred",
      "type": "event"
    },
    {
      "anonymous": false,
      "inputs": [
        {
          "indexed": true,
          "internalType": "address",
          "name": "from",
          "type": "address"
        },
        {
          "indexed": true,
          "internalType": "address",
          "name": "to",
          "type": "address"
        },
        {
          "indexed": true,
          "internalType": "uint256",
          "name": "tokenId",
          "type": "uint256"
        }
      ],
      "name": "Transfer",
      "type": "event"
    },
    {
      "inputs": [
        {
          "internalType": "address",
          "name": "to",
          "type": "address"
        },
        {
          "internalType": "uint256",
          "name": "tokenId",
          "type": "uint256"
        }
      ],
      "name": "approve",
      "outputs": [],
      "stateMutability": "nonpayable",
      "type": "function"
    },
    {
      "inputs": [
        {
          "internalType": "address",
          "name": "owner",
          "type": "address"
        }
      ],
      "name": "balanceOf",
      "outputs": [
        {
          "internalType": "uint256",
          "name": "",
          "type": "uint256"
        }
      ],
      "stateMutability": "view",
      "type": "function",
      "constant": true
    },
    {
      "inputs": [
        {
          "internalType": "uint256",
          "name": "tokenId",
          "type": "uint256"
        }
      ],
      "name": "getApproved",
      "outputs": [
        {
          "internalType": "address",
          "name": "",
          "type": "address"
        }
      ],
      "stateMutability": "view",
      "type": "function",
      "constant": true
    },
    {
      "inputs": [
        {
          "internalType": "address",
          "name": "owner",
          "type": "address"
        },
        {
          "internalType": "address",
          "name": "operator",
          "type": "address"
        }
      ],
      "name": "isApprovedForAll",
      "outputs": [
        {
          "internalType": "bool",
          "name": "",
          "type": "bool"
        }
      ],
      "stateMutability": "view",
      "type": "function",
      "constant": true
    },
    {
      "inputs": [],
      "name": "name",
      "outputs": [
        {
          "internalType": "string",
          "name": "",
          "type": "string"
        }
      ],
      "stateMutability": "view",
      "type": "function",
      "constant": true
    },
    {
      "inputs": [],
      "name": "owner",
      "outputs": [
        {
          "internalType": "address",
          "name": "",
          "type": "address"
        }
      ],
      "stateMutability": "view",
      "type": "function",
      "constant": true
    },
    {
      "inputs": [
        {
          "internalType": "uint256",
          "name": "tokenId",
          "type": "uint256"
        }
      ],
      "name": "ownerOf",
      "outputs": [
        {
          "internalType": "address",
          "name": "",
          "type": "address"
        }
      ],
      "stateMutability": "view",
      "type": "function",
      "constant": true
    },
    {
      "inputs": [],
      "name": "renounceOwnership",
      "outputs": [],
      "stateMutability": "nonpayable",
      "type": "function"
    },
    {
      "inputs": [
        {
          "internalType": "address",
          "name": "operator",
          "type": "address"
        },
        {
          "internalType": "bool",
          "name": "approved",
          "type": "bool"
        }
      ],
      "name": "setApprovalForAll",
      "outputs": [],
      "stateMutability": "nonpayable",
      "type": "function"
    },
    {
      "inputs": [
        {
          "internalType": "bytes4",
          "name": "interfaceId",
          "type": "bytes4"
        }
      ],
      "name": "supportsInterface",
      "outputs": [
        {
          "internalType": "bool",
          "name": "",
          "type": "bool"
        }
      ],
      "stateMutability": "view",
      "type": "function",
      "constant": true
    },
    {
      "inputs": [],
      "name": "symbol",
      "outputs": [
        {
          "internalType": "string",
          "name": "",
          "type": "string"
        }
      ],
      "stateMutability": "view",
      "type": "function",
      "constant": true
    },
    {
      "inputs": [
        {
          "internalType": "address",
          "name": "newOwner",
          "type": "address"
        }
      ],
      "name": "transferOwnership",
      "outputs": [],
      "stateMutability": "nonpayable",
      "type": "function"
    },
    {
      "inputs": [
        {
          "internalType": "string",
          "name": "baseURI_",
          "type": "string"
        }
      ],
      "name": "setBaseURI",
      "outputs": [],
      "stateMutability": "nonpayable",
      "type": "function"
    },
    {
      "inputs": [
        {
          "internalType": "uint256",
          "name": "tokenId",
          "type": "uint256"
        }
      ],
      "name": "tokenURI",
      "outputs": [
        {
          "internalType": "string",
          "name": "",
          "type": "string"
        }
      ],
      "stateMutability": "view",
      "type": "function",
      "constant": true
    },
    {
      "inputs": [],
      "name": "getOwnedNFTs",
      "outputs": [
        {
          "internalType": "uint256[]",
          "name": "",
          "type": "uint256[]"
        }
      ],
      "stateMutability": "view",
      "type": "function",
      "constant": true
    },
    {
      "inputs": [
        {
          "internalType": "address",
          "name": "_newAdmin",
          "type": "address"
        }
      ],
      "name": "addAdmin",
      "outputs": [],
      "stateMutability": "nonpayable",
      "type": "function"
    },
    {
      "inputs": [
        {
          "internalType": "address",
          "name": "_to",
          "type": "address"
        },
        {
          "internalType": "string",
          "name": "tokenURI_",
          "type": "string"
        }
      ],
      "name": "mint",
      "outputs": [],
      "stateMutability": "nonpayable",
      "type": "function"
    },
    {
      "inputs": [
        {
          "internalType": "uint256",
          "name": "tokenId",
          "type": "uint256"
        }
      ],
      "name": "burn",
      "outputs": [],
      "stateMutability": "nonpayable",
      "type": "function"
    },
    {
      "inputs": [
        {
          "internalType": "address",
          "name": "recipient",
          "type": "address"
        },
        {
          "internalType": "string",
          "name": "hash",
          "type": "string"
        },
        {
          "internalType": "string",
          "name": "metadata",
          "type": "string"
        }
      ],
      "name": "awardItem",
      "outputs": [
        {
          "internalType": "uint256",
          "name": "",
          "type": "uint256"
        }
      ],
      "stateMutability": "nonpayable",
      "type": "function"
    },
    {
      "inputs": [
        {
          "internalType": "address",
          "name": "from",
          "type": "address"
        },
        {
          "internalType": "address",
          "name": "to",
          "type": "address"
        },
        {
          "internalType": "uint256",
          "name": "tokenId",
          "type": "uint256"
        }
      ],
      "name": "safeTransferFrom",
      "outputs": [],
      "stateMutability": "nonpayable",
      "type": "function"
    },
    {
      "inputs": [
        {
          "internalType": "address",
          "name": "from",
          "type": "address"
        },
        {
          "internalType": "address",
          "name": "to",
          "type": "address"
        },
        {
          "internalType": "uint256",
          "name": "tokenId",
          "type": "uint256"
        },
        {
          "internalType": "bytes",
          "name": "_data",
          "type": "bytes"
        }
      ],
      "name": "safeTransferFrom",
      "outputs": [],
      "stateMutability": "nonpayable",
      "type": "function"
    },
    {
      "inputs": [
        {
          "internalType": "address",
          "name": "from",
          "type": "address"
        },
        {
          "internalType": "address",
          "name": "to",
          "type": "address"
        },
        {
          "internalType": "uint256",
          "name": "tokenId",
          "type": "uint256"
        }
      ],
      "name": "transferFrom",
      "outputs": [],
      "stateMutability": "nonpayable",
      "type": "function"
    },
    {
      "inputs": [
        {
          "internalType": "uint256",
          "name": "_tokenId",
          "type": "uint256"
        }
      ],
      "name": "listToken",
      "outputs": [],
      "stateMutability": "nonpayable",
      "type": "function"
    },
    {
      "inputs": [
        {
          "internalType": "uint256",
          "name": "_tokenId",
          "type": "uint256"
        }
      ],
      "name": "unlistToken",
      "outputs": [],
      "stateMutability": "nonpayable",
      "type": "function"
    }
  ],
  "bytecode": "0x60806040523480156200001157600080fd5b506040518060400160405280600c81526020017f566972696469616e204e465400000000000000000000000000000000000000008152506040518060400160405280600481526020017f564e465400000000000000000000000000000000000000000000000000000000815250816000908051906020019062000096929190620001fe565b508060019080519060200190620000af929190620001fe565b505050620000d2620000c66200013060201b60201c565b6200013860201b60201c565b6001600960003373ffffffffffffffffffffffffffffffffffffffff1673ffffffffffffffffffffffffffffffffffffffff16815260200190815260200160002060006101000a81548160ff02191690831515021790555062000313565b600033905090565b6000600660009054906101000a900473ffffffffffffffffffffffffffffffffffffffff16905081600660006101000a81548173ffffffffffffffffffffffffffffffffffffffff021916908373ffffffffffffffffffffffffffffffffffffffff1602179055508173ffffffffffffffffffffffffffffffffffffffff168173ffffffffffffffffffffffffffffffffffffffff167f8be0079c531659141344cd1fd0a4f28419497f9722a3daafe3b4186f6b6457e060405160405180910390a35050565b8280546200020c90620002ae565b90600052602060002090601f0160209004810192826200023057600085556200027c565b82601f106200024b57805160ff19168380011785556200027c565b828001600101855582156200027c579182015b828111156200027b5782518255916020019190600101906200025e565b5b5090506200028b91906200028f565b5090565b5b80821115620002aa57600081600090555060010162000290565b5090565b60006002820490506001821680620002c757607f821691505b60208210811415620002de57620002dd620002e4565b5b50919050565b7f4e487b7100000000000000000000000000000000000000000000000000000000600052602260045260246000fd5b61407580620003236000396000f3fe608060405234801561001057600080fd5b50600436106101585760003560e01c8063715018a6116100c3578063b88d4fde1161007c578063b88d4fde146103af578063c87b56dd146103cb578063d0def521146103fb578063e6148d5f14610417578063e985e9c514610433578063f2fde38b1461046357610158565b8063715018a6146103015780638bfaf1011461030b5780638da5cb5b1461033b57806395d89b4114610359578063a22cb46514610377578063ad3a358c1461039357610158565b806342966c681161011557806342966c681461022f5780634c0eb7d91461024b57806355f804b3146102695780636352211e1461028557806370480275146102b557806370a08231146102d157610158565b806301ffc9a71461015d57806306fdde031461018d578063081812fc146101ab578063095ea7b3146101db57806323b872dd146101f757806342842e0e14610213575b600080fd5b61017760048036038101906101729190612e66565b61047f565b60405161018491906133c5565b60405180910390f35b610195610561565b6040516101a291906133e0565b60405180910390f35b6101c560048036038101906101c09190612f09565b6105f3565b6040516101d2919061333c565b60405180910390f35b6101f560048036038101906101f09190612e26565b610678565b005b610211600480360381019061020c9190612c29565b610790565b005b61022d60048036038101906102289190612c29565b610aa0565b005b61024960048036038101906102449190612f09565b610db0565b005b610253611008565b60405161026091906133a3565b60405180910390f35b610283600480360381019061027e9190612ec0565b6110a3565b005b61029f600480360381019061029a9190612f09565b611139565b6040516102ac919061333c565b60405180910390f35b6102cf60048036038101906102ca9190612bbc565b6111eb565b005b6102eb60048036038101906102e69190612bbc565b6112c2565b6040516102f89190613642565b60405180910390f35b61030961137a565b005b61032560048036038101906103209190612d9b565b611402565b6040516103329190613642565b60405180910390f35b6103436114af565b604051610350919061333c565b60405180910390f35b6103616114d9565b60405161036e91906133e0565b60405180910390f35b610391600480360381019061038c9190612cff565b61156b565b005b6103ad60048036038101906103a89190612f09565b6116ec565b005b6103c960048036038101906103c49190612c7c565b61171b565b005b6103e560048036038101906103e09190612f09565b61177d565b6040516103f291906133e0565b60405180910390f35b61041560048036038101906104109190612d3f565b6118f0565b005b610431600480360381019061042c9190612f09565b611a10565b005b61044d60048036038101906104489190612be9565b611a3f565b60405161045a91906133c5565b60405180910390f35b61047d60048036038101906104789190612bbc565b611ad3565b005b60007f80ac58cd000000000000000000000000000000000000000000000000000000007bffffffffffffffffffffffffffffffffffffffffffffffffffffffff1916827bffffffffffffffffffffffffffffffffffffffffffffffffffffffff1916148061054a57507f5b5e139f000000000000000000000000000000000000000000000000000000007bffffffffffffffffffffffffffffffffffffffffffffffffffffffff1916827bffffffffffffffffffffffffffffffffffffffffffffffffffffffff1916145b8061055a575061055982611bcb565b5b9050919050565b606060008054610570906138d1565b80601f016020809104026020016040519081016040528092919081815260200182805461059c906138d1565b80156105e95780601f106105be576101008083540402835291602001916105e9565b820191906000526020600020905b8154815290600101906020018083116105cc57829003601f168201915b5050505050905090565b60006105fe82611c35565b61063d576040517f08c379a000000000000000000000000000000000000000000000000000000000815260040161063490613542565b60405180910390fd5b6004600083815260200190815260200160002060009054906101000a900473ffffffffffffffffffffffffffffffffffffffff169050919050565b600061068382611139565b90508073ffffffffffffffffffffffffffffffffffffffff168373ffffffffffffffffffffffffffffffffffffffff1614156106f4576040517f08c379a00000000000000000000000000000000000000000000000000000000081526004016106eb906135e2565b60405180910390fd5b8073ffffffffffffffffffffffffffffffffffffffff16610713611ca1565b73ffffffffffffffffffffffffffffffffffffffff16148061074257506107418161073c611ca1565b611a3f565b5b610781576040517f08c379a0000000000000000000000000000000000000000000000000000000008152600401610778906134c2565b60405180910390fd5b61078b8383611ca9565b505050565b600b600082815260200190815260200160002060009054906101000a900460ff16156107f1576040517f08c379a00000000000000000000000000000000000000000000000000000000081526004016107e890613622565b60405180910390fd5b60005b600c60008573ffffffffffffffffffffffffffffffffffffffff1673ffffffffffffffffffffffffffffffffffffffff16815260200190815260200160002080549050811015610a29576000600c60008673ffffffffffffffffffffffffffffffffffffffff1673ffffffffffffffffffffffffffffffffffffffff168152602001908152602001600020828154811061089157610890613a6a565b5b9060005260206000200154905082811415610a1557600c60008673ffffffffffffffffffffffffffffffffffffffff1673ffffffffffffffffffffffffffffffffffffffff1681526020019081526020016000206001600c60008873ffffffffffffffffffffffffffffffffffffffff1673ffffffffffffffffffffffffffffffffffffffff1681526020019081526020016000208054905061093491906137e7565b8154811061094557610944613a6a565b5b9060005260206000200154600c60008773ffffffffffffffffffffffffffffffffffffffff1673ffffffffffffffffffffffffffffffffffffffff16815260200190815260200160002083815481106109a1576109a0613a6a565b5b9060005260206000200181905550600c60008673ffffffffffffffffffffffffffffffffffffffff1673ffffffffffffffffffffffffffffffffffffffff1681526020019081526020016000208054806109fe576109fd613a3b565b5b600190038181906000526020600020016000905590555b508080610a2190613934565b9150506107f4565b50600c60008373ffffffffffffffffffffffffffffffffffffffff1673ffffffffffffffffffffffffffffffffffffffff168152602001908152602001600020819080600181540180825580915050600190039060005260206000200160009091909190915055610a9b838383611d62565b505050565b600b600082815260200190815260200160002060009054906101000a900460ff1615610b01576040517f08c379a0000000000000000000000000000000000000000000000000000000008152600401610af890613622565b60405180910390fd5b60005b600c60008573ffffffffffffffffffffffffffffffffffffffff1673ffffffffffffffffffffffffffffffffffffffff16815260200190815260200160002080549050811015610d39576000600c60008673ffffffffffffffffffffffffffffffffffffffff1673ffffffffffffffffffffffffffffffffffffffff1681526020019081526020016000208281548110610ba157610ba0613a6a565b5b9060005260206000200154905082811415610d2557600c60008673ffffffffffffffffffffffffffffffffffffffff1673ffffffffffffffffffffffffffffffffffffffff1681526020019081526020016000206001600c60008873ffffffffffffffffffffffffffffffffffffffff1673ffffffffffffffffffffffffffffffffffffffff16815260200190815260200160002080549050610c4491906137e7565b81548110610c5557610c54613a6a565b5b9060005260206000200154600c60008773ffffffffffffffffffffffffffffffffffffffff1673ffffffffffffffffffffffffffffffffffffffff1681526020019081526020016000208381548110610cb157610cb0613a6a565b5b9060005260206000200181905550600c60008673ffffffffffffffffffffffffffffffffffffffff1673ffffffffffffffffffffffffffffffffffffffff168152602001908152602001600020805480610d0e57610d0d613a3b565b5b600190038181906000526020600020016000905590555b508080610d3190613934565b915050610b04565b50600c60008373ffffffffffffffffffffffffffffffffffffffff1673ffffffffffffffffffffffffffffffffffffffff168152602001908152602001600020819080600181540180825580915050600190039060005260206000200160009091909190915055610dab838383611dc2565b505050565b610dba3382611de2565b610dc357600080fd5b60005b600c60003373ffffffffffffffffffffffffffffffffffffffff1673ffffffffffffffffffffffffffffffffffffffff16815260200190815260200160002080549050811015610ffb576000600c60003373ffffffffffffffffffffffffffffffffffffffff1673ffffffffffffffffffffffffffffffffffffffff1681526020019081526020016000208281548110610e6357610e62613a6a565b5b9060005260206000200154905082811415610fe757600c60003373ffffffffffffffffffffffffffffffffffffffff1673ffffffffffffffffffffffffffffffffffffffff1681526020019081526020016000206001600c60003373ffffffffffffffffffffffffffffffffffffffff1673ffffffffffffffffffffffffffffffffffffffff16815260200190815260200160002080549050610f0691906137e7565b81548110610f1757610f16613a6a565b5b9060005260206000200154600c60003373ffffffffffffffffffffffffffffffffffffffff1673ffffffffffffffffffffffffffffffffffffffff1681526020019081526020016000208381548110610f7357610f72613a6a565b5b9060005260206000200181905550600c60003373ffffffffffffffffffffffffffffffffffffffff1673ffffffffffffffffffffffffffffffffffffffff168152602001908152602001600020805480610fd057610fcf613a3b565b5b600190038181906000526020600020016000905590555b508080610ff390613934565b915050610dc6565b5061100581611ec0565b50565b60606000600c60003373ffffffffffffffffffffffffffffffffffffffff1673ffffffffffffffffffffffffffffffffffffffff16815260200190815260200160002080548060200260200160405190810160405280929190818152602001828054801561109557602002820191906000526020600020905b815481526020019060010190808311611081575b505050505090508091505090565b6110ab611ca1565b73ffffffffffffffffffffffffffffffffffffffff166110c96114af565b73ffffffffffffffffffffffffffffffffffffffff161461111f576040517f08c379a000000000000000000000000000000000000000000000000000000000815260040161111690613582565b60405180910390fd5b80600d90805190602001906111359291906129d0565b5050565b6000806002600084815260200190815260200160002060009054906101000a900473ffffffffffffffffffffffffffffffffffffffff169050600073ffffffffffffffffffffffffffffffffffffffff168173ffffffffffffffffffffffffffffffffffffffff1614156111e2576040517f08c379a00000000000000000000000000000000000000000000000000000000081526004016111d990613502565b60405180910390fd5b80915050919050565b6111f3611ca1565b73ffffffffffffffffffffffffffffffffffffffff166112116114af565b73ffffffffffffffffffffffffffffffffffffffff1614611267576040517f08c379a000000000000000000000000000000000000000000000000000000000815260040161125e90613582565b60405180910390fd5b6001600960008373ffffffffffffffffffffffffffffffffffffffff1673ffffffffffffffffffffffffffffffffffffffff16815260200190815260200160002060006101000a81548160ff02191690831515021790555050565b60008073ffffffffffffffffffffffffffffffffffffffff168273ffffffffffffffffffffffffffffffffffffffff161415611333576040517f08c379a000000000000000000000000000000000000000000000000000000000815260040161132a906134e2565b60405180910390fd5b600360008373ffffffffffffffffffffffffffffffffffffffff1673ffffffffffffffffffffffffffffffffffffffff168152602001908152602001600020549050919050565b611382611ca1565b73ffffffffffffffffffffffffffffffffffffffff166113a06114af565b73ffffffffffffffffffffffffffffffffffffffff16146113f6576040517f08c379a00000000000000000000000000000000000000000000000000000000081526004016113ed90613582565b60405180910390fd5b6114006000611fd1565b565b600060016008846040516114169190613301565b908152602001604051809103902060009054906101000a900460ff1660ff16141561144057600080fd5b60016008846040516114529190613301565b908152602001604051809103902060006101000a81548160ff021916908360ff1602179055506114826007612097565b600061148e60076120ad565b905061149a85826120bb565b6114a48184612289565b809150509392505050565b6000600660009054906101000a900473ffffffffffffffffffffffffffffffffffffffff16905090565b6060600180546114e8906138d1565b80601f0160208091040260200160405190810160405280929190818152602001828054611514906138d1565b80156115615780601f1061153657610100808354040283529160200191611561565b820191906000526020600020905b81548152906001019060200180831161154457829003601f168201915b5050505050905090565b611573611ca1565b73ffffffffffffffffffffffffffffffffffffffff168273ffffffffffffffffffffffffffffffffffffffff1614156115e1576040517f08c379a00000000000000000000000000000000000000000000000000000000081526004016115d890613482565b60405180910390fd5b80600560006115ee611ca1565b73ffffffffffffffffffffffffffffffffffffffff1673ffffffffffffffffffffffffffffffffffffffff16815260200190815260200160002060008473ffffffffffffffffffffffffffffffffffffffff1673ffffffffffffffffffffffffffffffffffffffff16815260200190815260200160002060006101000a81548160ff0219169083151502179055508173ffffffffffffffffffffffffffffffffffffffff1661169b611ca1565b73ffffffffffffffffffffffffffffffffffffffff167f17307eab39ab6107e8899845ad3d59bd9653f200f220920489ca2b5937696c31836040516116e091906133c5565b60405180910390a35050565b6000600b600083815260200190815260200160002060006101000a81548160ff02191690831515021790555050565b61172c611726611ca1565b83611de2565b61176b576040517f08c379a000000000000000000000000000000000000000000000000000000000815260040161176290613602565b60405180910390fd5b611777848484846122fd565b50505050565b606061178882611c35565b6117c7576040517f08c379a00000000000000000000000000000000000000000000000000000000081526004016117be906135c2565b60405180910390fd5b6000600a600084815260200190815260200160002080546117e7906138d1565b80601f0160208091040260200160405190810160405280929190818152602001828054611813906138d1565b80156118605780601f1061183557610100808354040283529160200191611860565b820191906000526020600020905b81548152906001019060200180831161184357829003601f168201915b505050505090506000611871612359565b90506000815114156118875781925050506118eb565b6000825111156118bc5780826040516020016118a4929190613318565b604051602081830303815290604052925050506118eb565b806118c6856123eb565b6040516020016118d7929190613318565b604051602081830303815290604052925050505b919050565b60011515600960003373ffffffffffffffffffffffffffffffffffffffff1673ffffffffffffffffffffffffffffffffffffffff16815260200190815260200160002060009054906101000a900460ff1615151461194d57600080fd5b6119576007612097565b600061196360076120ad565b905061196f838261254c565b600c60008473ffffffffffffffffffffffffffffffffffffffff1673ffffffffffffffffffffffffffffffffffffffff1681526020019081526020016000208190806001815401808255809150506001900390600052602060002001600090919091909150556000600b600083815260200190815260200160002060006101000a81548160ff021916908315150217905550611a0b8183612289565b505050565b6001600b600083815260200190815260200160002060006101000a81548160ff02191690831515021790555050565b6000600560008473ffffffffffffffffffffffffffffffffffffffff1673ffffffffffffffffffffffffffffffffffffffff16815260200190815260200160002060008373ffffffffffffffffffffffffffffffffffffffff1673ffffffffffffffffffffffffffffffffffffffff16815260200190815260200160002060009054906101000a900460ff16905092915050565b611adb611ca1565b73ffffffffffffffffffffffffffffffffffffffff16611af96114af565b73ffffffffffffffffffffffffffffffffffffffff1614611b4f576040517f08c379a0000000000000000000000000000000000000000000000000000000008152600401611b4690613582565b60405180910390fd5b600073ffffffffffffffffffffffffffffffffffffffff168173ffffffffffffffffffffffffffffffffffffffff161415611bbf576040517f08c379a0000000000000000000000000000000000000000000000000000000008152600401611bb690613422565b60405180910390fd5b611bc881611fd1565b50565b60007f01ffc9a7000000000000000000000000000000000000000000000000000000007bffffffffffffffffffffffffffffffffffffffffffffffffffffffff1916827bffffffffffffffffffffffffffffffffffffffffffffffffffffffff1916149050919050565b60008073ffffffffffffffffffffffffffffffffffffffff166002600084815260200190815260200160002060009054906101000a900473ffffffffffffffffffffffffffffffffffffffff1673ffffffffffffffffffffffffffffffffffffffff1614159050919050565b600033905090565b816004600083815260200190815260200160002060006101000a81548173ffffffffffffffffffffffffffffffffffffffff021916908373ffffffffffffffffffffffffffffffffffffffff160217905550808273ffffffffffffffffffffffffffffffffffffffff16611d1c83611139565b73ffffffffffffffffffffffffffffffffffffffff167f8c5be1e5ebec7d5bd14f71427d1e84f3dd0314c0f7b2291e5b200ac8c7c3b92560405160405180910390a45050565b611d73611d6d611ca1565b82611de2565b611db2576040517f08c379a0000000000000000000000000000000000000000000000000000000008152600401611da990613602565b60405180910390fd5b611dbd83838361256a565b505050565b611ddd8383836040518060200160405280600081525061171b565b505050565b6000611ded82611c35565b611e2c576040517f08c379a0000000000000000000000000000000000000000000000000000000008152600401611e23906134a2565b60405180910390fd5b6000611e3783611139565b90508073ffffffffffffffffffffffffffffffffffffffff168473ffffffffffffffffffffffffffffffffffffffff161480611ea657508373ffffffffffffffffffffffffffffffffffffffff16611e8e846105f3565b73ffffffffffffffffffffffffffffffffffffffff16145b80611eb75750611eb68185611a3f565b5b91505092915050565b6000611ecb82611139565b9050611ed9816000846127c6565b611ee4600083611ca9565b6001600360008373ffffffffffffffffffffffffffffffffffffffff1673ffffffffffffffffffffffffffffffffffffffff1681526020019081526020016000206000828254611f3491906137e7565b925050819055506002600083815260200190815260200160002060006101000a81549073ffffffffffffffffffffffffffffffffffffffff021916905581600073ffffffffffffffffffffffffffffffffffffffff168273ffffffffffffffffffffffffffffffffffffffff167fddf252ad1be2c89b69c2b068fc378daa952ba7f163c4a11628f55a4df523b3ef60405160405180910390a45050565b6000600660009054906101000a900473ffffffffffffffffffffffffffffffffffffffff16905081600660006101000a81548173ffffffffffffffffffffffffffffffffffffffff021916908373ffffffffffffffffffffffffffffffffffffffff1602179055508173ffffffffffffffffffffffffffffffffffffffff168173ffffffffffffffffffffffffffffffffffffffff167f8be0079c531659141344cd1fd0a4f28419497f9722a3daafe3b4186f6b6457e060405160405180910390a35050565b6001816000016000828254019250508190555050565b600081600001549050919050565b600073ffffffffffffffffffffffffffffffffffffffff168273ffffffffffffffffffffffffffffffffffffffff16141561212b576040517f08c379a000000000000000000000000000000000000000000000000000000000815260040161212290613522565b60405180910390fd5b61213481611c35565b15612174576040517f08c379a000000000000000000000000000000000000000000000000000000000815260040161216b90613442565b60405180910390fd5b612180600083836127c6565b6001600360008473ffffffffffffffffffffffffffffffffffffffff1673ffffffffffffffffffffffffffffffffffffffff16815260200190815260200160002060008282546121d09190613760565b92505081905550816002600083815260200190815260200160002060006101000a81548173ffffffffffffffffffffffffffffffffffffffff021916908373ffffffffffffffffffffffffffffffffffffffff160217905550808273ffffffffffffffffffffffffffffffffffffffff16600073ffffffffffffffffffffffffffffffffffffffff167fddf252ad1be2c89b69c2b068fc378daa952ba7f163c4a11628f55a4df523b3ef60405160405180910390a45050565b61229282611c35565b6122d1576040517f08c379a00000000000000000000000000000000000000000000000000000000081526004016122c890613562565b60405180910390fd5b80600a600084815260200190815260200160002090805190602001906122f89291906129d0565b505050565b61230884848461256a565b612314848484846127cb565b612353576040517f08c379a000000000000000000000000000000000000000000000000000000000815260040161234a90613402565b60405180910390fd5b50505050565b6060600d8054612368906138d1565b80601f0160208091040260200160405190810160405280929190818152602001828054612394906138d1565b80156123e15780601f106123b6576101008083540402835291602001916123e1565b820191906000526020600020905b8154815290600101906020018083116123c457829003601f168201915b5050505050905090565b60606000821415612433576040518060400160405280600181526020017f30000000000000000000000000000000000000000000000000000000000000008152509050612547565b600082905060005b6000821461246557808061244e90613934565b915050600a8261245e91906137b6565b915061243b565b60008167ffffffffffffffff81111561248157612480613a99565b5b6040519080825280601f01601f1916602001820160405280156124b35781602001600182028036833780820191505090505b5090505b60008514612540576001826124cc91906137e7565b9150600a856124db919061397d565b60306124e79190613760565b60f81b8183815181106124fd576124fc613a6a565b5b60200101907effffffffffffffffffffffffffffffffffffffffffffffffffffffffffffff1916908160001a905350600a8561253991906137b6565b94506124b7565b8093505050505b919050565b612566828260405180602001604052806000815250612962565b5050565b8273ffffffffffffffffffffffffffffffffffffffff1661258a82611139565b73ffffffffffffffffffffffffffffffffffffffff16146125e0576040517f08c379a00000000000000000000000000000000000000000000000000000000081526004016125d7906135a2565b60405180910390fd5b600073ffffffffffffffffffffffffffffffffffffffff168273ffffffffffffffffffffffffffffffffffffffff161415612650576040517f08c379a000000000000000000000000000000000000000000000000000000000815260040161264790613462565b60405180910390fd5b61265b8383836127c6565b612666600082611ca9565b6001600360008573ffffffffffffffffffffffffffffffffffffffff1673ffffffffffffffffffffffffffffffffffffffff16815260200190815260200160002060008282546126b691906137e7565b925050819055506001600360008473ffffffffffffffffffffffffffffffffffffffff1673ffffffffffffffffffffffffffffffffffffffff168152602001908152602001600020600082825461270d9190613760565b92505081905550816002600083815260200190815260200160002060006101000a81548173ffffffffffffffffffffffffffffffffffffffff021916908373ffffffffffffffffffffffffffffffffffffffff160217905550808273ffffffffffffffffffffffffffffffffffffffff168473ffffffffffffffffffffffffffffffffffffffff167fddf252ad1be2c89b69c2b068fc378daa952ba7f163c4a11628f55a4df523b3ef60405160405180910390a4505050565b505050565b60006127ec8473ffffffffffffffffffffffffffffffffffffffff166129bd565b15612955578373ffffffffffffffffffffffffffffffffffffffff1663150b7a02612815611ca1565b8786866040518563ffffffff1660e01b81526004016128379493929190613357565b602060405180830381600087803b15801561285157600080fd5b505af192505050801561288257506040513d601f19601f8201168201806040525081019061287f9190612e93565b60015b612905573d80600081146128b2576040519150601f19603f3d011682016040523d82523d6000602084013e6128b7565b606091505b506000815114156128fd576040517f08c379a00000000000000000000000000000000000000000000000000000000081526004016128f490613402565b60405180910390fd5b805181602001fd5b63150b7a0260e01b7bffffffffffffffffffffffffffffffffffffffffffffffffffffffff1916817bffffffffffffffffffffffffffffffffffffffffffffffffffffffff19161491505061295a565b600190505b949350505050565b61296c83836120bb565b61297960008484846127cb565b6129b8576040517f08c379a00000000000000000000000000000000000000000000000000000000081526004016129af90613402565b60405180910390fd5b505050565b600080823b905060008111915050919050565b8280546129dc906138d1565b90600052602060002090601f0160209004810192826129fe5760008555612a45565b82601f10612a1757805160ff1916838001178555612a45565b82800160010185558215612a45579182015b82811115612a44578251825591602001919060010190612a29565b5b509050612a529190612a56565b5090565b5b80821115612a6f576000816000905550600101612a57565b5090565b6000612a86612a8184613682565b61365d565b905082815260208101848484011115612aa257612aa1613acd565b5b612aad84828561388f565b509392505050565b6000612ac8612ac3846136b3565b61365d565b905082815260208101848484011115612ae457612ae3613acd565b5b612aef84828561388f565b509392505050565b600081359050612b0681613fe3565b92915050565b600081359050612b1b81613ffa565b92915050565b600081359050612b3081614011565b92915050565b600081519050612b4581614011565b92915050565b600082601f830112612b6057612b5f613ac8565b5b8135612b70848260208601612a73565b91505092915050565b600082601f830112612b8e57612b8d613ac8565b5b8135612b9e848260208601612ab5565b91505092915050565b600081359050612bb681614028565b92915050565b600060208284031215612bd257612bd1613ad7565b5b6000612be084828501612af7565b91505092915050565b60008060408385031215612c0057612bff613ad7565b5b6000612c0e85828601612af7565b9250506020612c1f85828601612af7565b9150509250929050565b600080600060608486031215612c4257612c41613ad7565b5b6000612c5086828701612af7565b9350506020612c6186828701612af7565b9250506040612c7286828701612ba7565b9150509250925092565b60008060008060808587031215612c9657612c95613ad7565b5b6000612ca487828801612af7565b9450506020612cb587828801612af7565b9350506040612cc687828801612ba7565b925050606085013567ffffffffffffffff811115612ce757612ce6613ad2565b5b612cf387828801612b4b565b91505092959194509250565b60008060408385031215612d1657612d15613ad7565b5b6000612d2485828601612af7565b9250506020612d3585828601612b0c565b9150509250929050565b60008060408385031215612d5657612d55613ad7565b5b6000612d6485828601612af7565b925050602083013567ffffffffffffffff811115612d8557612d84613ad2565b5b612d9185828601612b79565b9150509250929050565b600080600060608486031215612db457612db3613ad7565b5b6000612dc286828701612af7565b935050602084013567ffffffffffffffff811115612de357612de2613ad2565b5b612def86828701612b79565b925050604084013567ffffffffffffffff811115612e1057612e0f613ad2565b5b612e1c86828701612b79565b9150509250925092565b60008060408385031215612e3d57612e3c613ad7565b5b6000612e4b85828601612af7565b9250506020612e5c85828601612ba7565b9150509250929050565b600060208284031215612e7c57612e7b613ad7565b5b6000612e8a84828501612b21565b91505092915050565b600060208284031215612ea957612ea8613ad7565b5b6000612eb784828501612b36565b91505092915050565b600060208284031215612ed657612ed5613ad7565b5b600082013567ffffffffffffffff811115612ef457612ef3613ad2565b5b612f0084828501612b79565b91505092915050565b600060208284031215612f1f57612f1e613ad7565b5b6000612f2d84828501612ba7565b91505092915050565b6000612f4283836132e3565b60208301905092915050565b612f578161381b565b82525050565b6000612f68826136f4565b612f728185613722565b9350612f7d836136e4565b8060005b83811015612fae578151612f958882612f36565b9750612fa083613715565b925050600181019050612f81565b5085935050505092915050565b612fc48161382d565b82525050565b6000612fd5826136ff565b612fdf8185613733565b9350612fef81856020860161389e565b612ff881613adc565b840191505092915050565b600061300e8261370a565b6130188185613744565b935061302881856020860161389e565b61303181613adc565b840191505092915050565b60006130478261370a565b6130518185613755565b935061306181856020860161389e565b80840191505092915050565b600061307a603283613744565b915061308582613aed565b604082019050919050565b600061309d602683613744565b91506130a882613b3c565b604082019050919050565b60006130c0601c83613744565b91506130cb82613b8b565b602082019050919050565b60006130e3602483613744565b91506130ee82613bb4565b604082019050919050565b6000613106601983613744565b915061311182613c03565b602082019050919050565b6000613129602c83613744565b915061313482613c2c565b604082019050919050565b600061314c603883613744565b915061315782613c7b565b604082019050919050565b600061316f602a83613744565b915061317a82613cca565b604082019050919050565b6000613192602983613744565b915061319d82613d19565b604082019050919050565b60006131b5602083613744565b91506131c082613d68565b602082019050919050565b60006131d8602c83613744565b91506131e382613d91565b604082019050919050565b60006131fb602c83613744565b915061320682613de0565b604082019050919050565b600061321e602083613744565b915061322982613e2f565b602082019050919050565b6000613241602983613744565b915061324c82613e58565b604082019050919050565b6000613264602f83613744565b915061326f82613ea7565b604082019050919050565b6000613287602183613744565b915061329282613ef6565b604082019050919050565b60006132aa603183613744565b91506132b582613f45565b604082019050919050565b60006132cd603f83613744565b91506132d882613f94565b604082019050919050565b6132ec81613885565b82525050565b6132fb81613885565b82525050565b600061330d828461303c565b915081905092915050565b6000613324828561303c565b9150613330828461303c565b91508190509392505050565b60006020820190506133516000830184612f4e565b92915050565b600060808201905061336c6000830187612f4e565b6133796020830186612f4e565b61338660408301856132f2565b81810360608301526133988184612fca565b905095945050505050565b600060208201905081810360008301526133bd8184612f5d565b905092915050565b60006020820190506133da6000830184612fbb565b92915050565b600060208201905081810360008301526133fa8184613003565b905092915050565b6000602082019050818103600083015261341b8161306d565b9050919050565b6000602082019050818103600083015261343b81613090565b9050919050565b6000602082019050818103600083015261345b816130b3565b9050919050565b6000602082019050818103600083015261347b816130d6565b9050919050565b6000602082019050818103600083015261349b816130f9565b9050919050565b600060208201905081810360008301526134bb8161311c565b9050919050565b600060208201905081810360008301526134db8161313f565b9050919050565b600060208201905081810360008301526134fb81613162565b9050919050565b6000602082019050818103600083015261351b81613185565b9050919050565b6000602082019050818103600083015261353b816131a8565b9050919050565b6000602082019050818103600083015261355b816131cb565b9050919050565b6000602082019050818103600083015261357b816131ee565b9050919050565b6000602082019050818103600083015261359b81613211565b9050919050565b600060208201905081810360008301526135bb81613234565b9050919050565b600060208201905081810360008301526135db81613257565b9050919050565b600060208201905081810360008301526135fb8161327a565b9050919050565b6000602082019050818103600083015261361b8161329d565b9050919050565b6000602082019050818103600083015261363b816132c0565b9050919050565b600060208201905061365760008301846132f2565b92915050565b6000613667613678565b90506136738282613903565b919050565b6000604051905090565b600067ffffffffffffffff82111561369d5761369c613a99565b5b6136a682613adc565b9050602081019050919050565b600067ffffffffffffffff8211156136ce576136cd613a99565b5b6136d782613adc565b9050602081019050919050565b6000819050602082019050919050565b600081519050919050565b600081519050919050565b600081519050919050565b6000602082019050919050565b600082825260208201905092915050565b600082825260208201905092915050565b600082825260208201905092915050565b600081905092915050565b600061376b82613885565b915061377683613885565b9250827fffffffffffffffffffffffffffffffffffffffffffffffffffffffffffffffff038211156137ab576137aa6139ae565b5b828201905092915050565b60006137c182613885565b91506137cc83613885565b9250826137dc576137db6139dd565b5b828204905092915050565b60006137f282613885565b91506137fd83613885565b9250828210156138105761380f6139ae565b5b828203905092915050565b600061382682613865565b9050919050565b60008115159050919050565b60007fffffffff0000000000000000000000000000000000000000000000000000000082169050919050565b600073ffffffffffffffffffffffffffffffffffffffff82169050919050565b6000819050919050565b82818337600083830152505050565b60005b838110156138bc5780820151818401526020810190506138a1565b838111156138cb576000848401525b50505050565b600060028204905060018216806138e957607f821691505b602082108114156138fd576138fc613a0c565b5b50919050565b61390c82613adc565b810181811067ffffffffffffffff8211171561392b5761392a613a99565b5b80604052505050565b600061393f82613885565b91507fffffffffffffffffffffffffffffffffffffffffffffffffffffffffffffffff821415613972576139716139ae565b5b600182019050919050565b600061398882613885565b915061399383613885565b9250826139a3576139a26139dd565b5b828206905092915050565b7f4e487b7100000000000000000000000000000000000000000000000000000000600052601160045260246000fd5b7f4e487b7100000000000000000000000000000000000000000000000000000000600052601260045260246000fd5b7f4e487b7100000000000000000000000000000000000000000000000000000000600052602260045260246000fd5b7f4e487b7100000000000000000000000000000000000000000000000000000000600052603160045260246000fd5b7f4e487b7100000000000000000000000000000000000000000000000000000000600052603260045260246000fd5b7f4e487b7100000000000000000000000000000000000000000000000000000000600052604160045260246000fd5b600080fd5b600080fd5b600080fd5b600080fd5b6000601f19601f8301169050919050565b7f4552433732313a207472616e7366657220746f206e6f6e20455243373231526560008201527f63656976657220696d706c656d656e7465720000000000000000000000000000602082015250565b7f4f776e61626c653a206e6577206f776e657220697320746865207a65726f206160008201527f6464726573730000000000000000000000000000000000000000000000000000602082015250565b7f4552433732313a20746f6b656e20616c7265616479206d696e74656400000000600082015250565b7f4552433732313a207472616e7366657220746f20746865207a65726f2061646460008201527f7265737300000000000000000000000000000000000000000000000000000000602082015250565b7f4552433732313a20617070726f766520746f2063616c6c657200000000000000600082015250565b7f4552433732313a206f70657261746f7220717565727920666f72206e6f6e657860008201527f697374656e7420746f6b656e0000000000000000000000000000000000000000602082015250565b7f4552433732313a20617070726f76652063616c6c6572206973206e6f74206f7760008201527f6e6572206e6f7220617070726f76656420666f7220616c6c0000000000000000602082015250565b7f4552433732313a2062616c616e636520717565727920666f7220746865207a6560008201527f726f206164647265737300000000000000000000000000000000000000000000602082015250565b7f4552433732313a206f776e657220717565727920666f72206e6f6e657869737460008201527f656e7420746f6b656e0000000000000000000000000000000000000000000000602082015250565b7f4552433732313a206d696e7420746f20746865207a65726f2061646472657373600082015250565b7f4552433732313a20617070726f76656420717565727920666f72206e6f6e657860008201527f697374656e7420746f6b656e0000000000000000000000000000000000000000602082015250565b7f4552433732314d657461646174613a2055524920736574206f66206e6f6e657860008201527f697374656e7420746f6b656e0000000000000000000000000000000000000000602082015250565b7f4f776e61626c653a2063616c6c6572206973206e6f7420746865206f776e6572600082015250565b7f4552433732313a207472616e73666572206f6620746f6b656e2074686174206960008201527f73206e6f74206f776e0000000000000000000000000000000000000000000000602082015250565b7f4552433732314d657461646174613a2055524920717565727920666f72206e6f60008201527f6e6578697374656e7420746f6b656e0000000000000000000000000000000000602082015250565b7f4552433732313a20617070726f76616c20746f2063757272656e74206f776e6560008201527f7200000000000000000000000000000000000000000000000000000000000000602082015250565b7f4552433732313a207472616e736665722063616c6c6572206973206e6f74206f60008201527f776e6572206e6f7220617070726f766564000000000000000000000000000000602082015250565b7f566972696469616e204e46543a2043616e6e6f74207472616e7366657220776860008201527f696c65206c6973746564206f6e20566972696469616e2045786368616e676500602082015250565b613fec8161381b565b8114613ff757600080fd5b50565b6140038161382d565b811461400e57600080fd5b50565b61401a81613839565b811461402557600080fd5b50565b61403181613885565b811461403c57600080fd5b5056fea2646970667358221220ff5c11a941f86a175ab7d753c3c5ab9a2b0969c692383f5e2d64fc601115e15164736f6c63430008070033",
  "immutableReferences": {},
  "source": "pragma solidity ^0.8.0;\n\nimport \"@openzeppelin/contracts/token/ERC721/ERC721.sol\";\nimport \"@openzeppelin/contracts/utils/Counters.sol\";\nimport \"@openzeppelin/contracts/access/Ownable.sol\";\n\ncontract ViridianNFT is ERC721, Ownable {\n\n    using Counters for Counters.Counter;\n    Counters.Counter private _tokenIds;\n    mapping(string => uint8) hashes;\n    \n    mapping(address => bool) admins;\n    \n    constructor() ERC721(\"Viridian NFT\", \"VNFT\") {\n        admins[msg.sender] = true;\n    }\n\n    using Strings for uint256;\n\n\n    //TODO: Maybe add restrictions to NFT usage when it is listed on the exchange, do not allow ownership transfer \n    // while it is listed for sale or offer to avoid issues with invalid purchasing, or just protect from transactions going through\n    // on exchange, ask someone about this scenario.\n    struct NFT {\n        uint256 id;\n        string uri;\n    }\n    \n    // Optional mapping for token URIs\n    mapping (uint256 => string) private _tokenURIs;\n\n    mapping (uint256 => bool) private _tokensListed;\n\n    mapping (address => uint256[]) private _ownedNFTs;\n\n    //address private viridianExchangeAddress;\n\n    // Base URI\n    string private _baseURIextended;\n\n    // function setExchangeAddress(address ea) public onlyOwner() {\n    //     viridianExchangeAddress = ea;\n    // }\n    \n    function setBaseURI(string memory baseURI_) external onlyOwner() {\n        _baseURIextended = baseURI_;\n    }\n    \n    function _setTokenURI(uint256 tokenId, string memory _tokenURI) internal virtual {\n        require(_exists(tokenId), \"ERC721Metadata: URI set of nonexistent token\");\n        _tokenURIs[tokenId] = _tokenURI;\n    }\n    \n    function _baseURI() internal view virtual override returns (string memory) {\n        return _baseURIextended;\n    }\n    \n    function tokenURI(uint256 tokenId) public view virtual override returns (string memory) {\n        require(_exists(tokenId), \"ERC721Metadata: URI query for nonexistent token\");\n\n        string memory _tokenURI = _tokenURIs[tokenId];\n        string memory base = _baseURI();\n        \n        // If there is no base URI, return the token URI.\n        if (bytes(base).length == 0) {\n            return _tokenURI;\n        }\n        // If both are set, concatenate the baseURI and tokenURI (via abi.encodePacked).\n        if (bytes(_tokenURI).length > 0) {\n            return string(abi.encodePacked(base, _tokenURI));\n        }\n        // If there is a baseURI but no tokenURI, concatenate the tokenID to the baseURI.\n        return string(abi.encodePacked(base, tokenId.toString()));\n    }\n\n    function getOwnedNFTs() public view virtual returns (uint256[] memory) {\n        uint256[] memory _tokens = _ownedNFTs[msg.sender];\n        \n        return _tokens;\n    }\n\n    modifier onlyAdmin() {\n        require(admins[msg.sender] == true);\n            _;\n    }\n\n    function addAdmin(address _newAdmin) external onlyOwner() {\n        admins[_newAdmin] = true;\n    }\n\n    function mint(\n        address _to,\n        string memory tokenURI_\n    ) external onlyAdmin() {\n        _tokenIds.increment();\n        uint256 _tokenId = _tokenIds.current();\n\n        _safeMint(_to, _tokenId);\n        _ownedNFTs[_to].push(_tokenId);\n        _tokensListed[_tokenId] = false;\n        _setTokenURI(_tokenId, tokenURI_);\n    }\n\n    function burn(uint256 tokenId) public {\n        require(_isApprovedOrOwner(msg.sender, tokenId));\n\n        for (uint256 i = 0; i < _ownedNFTs[msg.sender].length; i++) {\n            uint256 ownedNFT = _ownedNFTs[msg.sender][i];\n            if (ownedNFT == tokenId) {\n                _ownedNFTs[msg.sender][i] = _ownedNFTs[msg.sender][_ownedNFTs[msg.sender].length - 1];\n                _ownedNFTs[msg.sender].pop();\n            }\n        }\n\n        _burn(tokenId);\n    }\n\n    function awardItem(address recipient, string memory hash, string memory metadata) public returns (uint256) {\n        require(hashes[hash] != 1);\n        hashes[hash] = 1;\n        _tokenIds.increment();\n        uint256 newItemId = _tokenIds.current();\n        _mint(recipient, newItemId);\n        _setTokenURI(newItemId, metadata);\n        return newItemId;\n    }\n\n    function safeTransferFrom(address from, address to, uint256 tokenId) public override {\n        require(!_tokensListed[tokenId], \"Viridian NFT: Cannot transfer while listed on Viridian Exchange\");\n\n        for (uint256 i = 0; i < _ownedNFTs[from].length; i++) {\n            uint256 ownedNFT = _ownedNFTs[from][i];\n            if (ownedNFT == tokenId) {\n                _ownedNFTs[from][i] = _ownedNFTs[from][_ownedNFTs[from].length - 1];\n                _ownedNFTs[from].pop();\n            }\n        }\n        _ownedNFTs[to].push(tokenId);\n\n        super.safeTransferFrom(from, to, tokenId);\n    }\n\n    function transferFrom(address from, address to, uint256 tokenId) public override {\n        require(!_tokensListed[tokenId], \"Viridian NFT: Cannot transfer while listed on Viridian Exchange\");\n\n        for (uint256 i = 0; i < _ownedNFTs[from].length; i++) {\n            uint256 ownedNFT = _ownedNFTs[from][i];\n            if (ownedNFT == tokenId) {\n                _ownedNFTs[from][i] = _ownedNFTs[from][_ownedNFTs[from].length - 1];\n                _ownedNFTs[from].pop();\n            }\n        }\n        _ownedNFTs[to].push(tokenId);\n\n        super.transferFrom(from, to, tokenId);\n    }\n\n    function listToken(uint256 _tokenId) public {\n        _tokensListed[_tokenId] = true;\n    }\n\n    function unlistToken(uint256 _tokenId) public {\n        _tokensListed[_tokenId] = false;\n    }\n}",
  "sourcePath": "/Users/blakehatch/Viridian-Exchange-Contracts/contracts/ViridianNFT.sol",
  "compiler": {
    "name": "solc",
    "version": "0.8.7+commit.e28d00a7.Emscripten.clang"
  },
  "schemaVersion": "3.4.1",
  "updatedAt": "2021-09-03T18:44:48.702Z",
  "networkType": "ethereum",
  "devdoc": {
    "kind": "dev",
    "methods": {
      "approve(address,uint256)": {
        "details": "See {IERC721-approve}."
      },
      "balanceOf(address)": {
        "details": "See {IERC721-balanceOf}."
      },
      "getApproved(uint256)": {
        "details": "See {IERC721-getApproved}."
      },
      "isApprovedForAll(address,address)": {
        "details": "See {IERC721-isApprovedForAll}."
      },
      "name()": {
        "details": "See {IERC721Metadata-name}."
      },
      "owner()": {
        "details": "Returns the address of the current owner."
      },
      "ownerOf(uint256)": {
        "details": "See {IERC721-ownerOf}."
      },
      "renounceOwnership()": {
        "details": "Leaves the contract without owner. It will not be possible to call `onlyOwner` functions anymore. Can only be called by the current owner. NOTE: Renouncing ownership will leave the contract without an owner, thereby removing any functionality that is only available to the owner."
      },
      "safeTransferFrom(address,address,uint256)": {
        "details": "See {IERC721-safeTransferFrom}."
      },
      "safeTransferFrom(address,address,uint256,bytes)": {
        "details": "See {IERC721-safeTransferFrom}."
      },
      "setApprovalForAll(address,bool)": {
        "details": "See {IERC721-setApprovalForAll}."
      },
      "supportsInterface(bytes4)": {
        "details": "See {IERC165-supportsInterface}."
      },
      "symbol()": {
        "details": "See {IERC721Metadata-symbol}."
      },
      "tokenURI(uint256)": {
        "details": "See {IERC721Metadata-tokenURI}."
      },
      "transferFrom(address,address,uint256)": {
        "details": "See {IERC721-transferFrom}."
      },
      "transferOwnership(address)": {
        "details": "Transfers ownership of the contract to a new account (`newOwner`). Can only be called by the current owner."
      }
    },
    "version": 1
  },
  "userdoc": {
    "kind": "user",
    "methods": {},
    "version": 1
  }
}