{
  "contractName": "ViridianPack",
  "abi": [
    {
      "inputs": [
        {
          "internalType": "address",
          "name": "_viridianNFT",
          "type": "address"
        }
      ],
      "stateMutability": "nonpayable",
      "type": "constructor"
    },
    {
      "anonymous": false,
      "inputs": [
        {
          "indexed": true,
          "internalType": "address",
          "name": "owner",
          "type": "address"
        },
        {
          "indexed": true,
          "internalType": "address",
          "name": "approved",
          "type": "address"
        },
        {
          "indexed": true,
          "internalType": "uint256",
          "name": "tokenId",
          "type": "uint256"
        }
      ],
      "name": "Approval",
      "type": "event"
    },
    {
      "anonymous": false,
      "inputs": [
        {
          "indexed": true,
          "internalType": "address",
          "name": "owner",
          "type": "address"
        },
        {
          "indexed": true,
          "internalType": "address",
          "name": "operator",
          "type": "address"
        },
        {
          "indexed": false,
          "internalType": "bool",
          "name": "approved",
          "type": "bool"
        }
      ],
      "name": "ApprovalForAll",
      "type": "event"
    },
    {
      "anonymous": false,
      "inputs": [
        {
          "indexed": false,
          "internalType": "uint256",
          "name": "raw",
          "type": "uint256"
        },
        {
          "indexed": false,
          "internalType": "uint256",
          "name": "res",
          "type": "uint256"
        }
      ],
      "name": "DebugVRFData",
      "type": "event"
    },
    {
      "anonymous": false,
      "inputs": [
        {
          "indexed": false,
          "internalType": "string[10]",
          "name": "newUris",
          "type": "string[10]"
        }
      ],
      "name": "Open",
      "type": "event"
    },
    {
      "anonymous": false,
      "inputs": [
        {
          "indexed": true,
          "internalType": "address",
          "name": "previousOwner",
          "type": "address"
        },
        {
          "indexed": true,
          "internalType": "address",
          "name": "newOwner",
          "type": "address"
        }
      ],
      "name": "OwnershipTransferred",
      "type": "event"
    },
    {
      "anonymous": false,
      "inputs": [
        {
          "indexed": false,
          "internalType": "uint256",
          "name": "tokenId",
          "type": "uint256"
        }
      ],
      "name": "PackResultDecided",
      "type": "event"
    },
    {
      "anonymous": false,
      "inputs": [
        {
          "indexed": true,
          "internalType": "address",
          "name": "from",
          "type": "address"
        },
        {
          "indexed": true,
          "internalType": "address",
          "name": "to",
          "type": "address"
        },
        {
          "indexed": true,
          "internalType": "uint256",
          "name": "tokenId",
          "type": "uint256"
        }
      ],
      "name": "Transfer",
      "type": "event"
    },
    {
      "inputs": [
        {
          "internalType": "address",
          "name": "to",
          "type": "address"
        },
        {
          "internalType": "uint256",
          "name": "tokenId",
          "type": "uint256"
        }
      ],
      "name": "approve",
      "outputs": [],
      "stateMutability": "nonpayable",
      "type": "function"
    },
    {
      "inputs": [
        {
          "internalType": "address",
          "name": "owner",
          "type": "address"
        }
      ],
      "name": "balanceOf",
      "outputs": [
        {
          "internalType": "uint256",
          "name": "",
          "type": "uint256"
        }
      ],
      "stateMutability": "view",
      "type": "function",
      "constant": true
    },
    {
      "inputs": [
        {
          "internalType": "uint256",
          "name": "tokenId",
          "type": "uint256"
        }
      ],
      "name": "getApproved",
      "outputs": [
        {
          "internalType": "address",
          "name": "",
          "type": "address"
        }
      ],
      "stateMutability": "view",
      "type": "function",
      "constant": true
    },
    {
      "inputs": [
        {
          "internalType": "address",
          "name": "owner",
          "type": "address"
        },
        {
          "internalType": "address",
          "name": "operator",
          "type": "address"
        }
      ],
      "name": "isApprovedForAll",
      "outputs": [
        {
          "internalType": "bool",
          "name": "",
          "type": "bool"
        }
      ],
      "stateMutability": "view",
      "type": "function",
      "constant": true
    },
    {
      "inputs": [
        {
          "internalType": "address",
          "name": "forwarder",
          "type": "address"
        }
      ],
      "name": "isTrustedForwarder",
      "outputs": [
        {
          "internalType": "bool",
          "name": "",
          "type": "bool"
        }
      ],
      "stateMutability": "view",
      "type": "function",
      "constant": true
    },
    {
      "inputs": [],
      "name": "name",
      "outputs": [
        {
          "internalType": "string",
          "name": "",
          "type": "string"
        }
      ],
      "stateMutability": "view",
      "type": "function",
      "constant": true
    },
    {
      "inputs": [],
      "name": "owner",
      "outputs": [
        {
          "internalType": "address",
          "name": "",
          "type": "address"
        }
      ],
      "stateMutability": "view",
      "type": "function",
      "constant": true
    },
    {
      "inputs": [
        {
          "internalType": "uint256",
          "name": "tokenId",
          "type": "uint256"
        }
      ],
      "name": "ownerOf",
      "outputs": [
        {
          "internalType": "address",
          "name": "",
          "type": "address"
        }
      ],
      "stateMutability": "view",
      "type": "function",
      "constant": true
    },
    {
      "inputs": [],
      "name": "renounceOwnership",
      "outputs": [],
      "stateMutability": "nonpayable",
      "type": "function"
    },
    {
      "inputs": [
        {
          "internalType": "address",
          "name": "operator",
          "type": "address"
        },
        {
          "internalType": "bool",
          "name": "approved",
          "type": "bool"
        }
      ],
      "name": "setApprovalForAll",
      "outputs": [],
      "stateMutability": "nonpayable",
      "type": "function"
    },
    {
      "inputs": [
        {
          "internalType": "bytes4",
          "name": "interfaceId",
          "type": "bytes4"
        }
      ],
      "name": "supportsInterface",
      "outputs": [
        {
          "internalType": "bool",
          "name": "",
          "type": "bool"
        }
      ],
      "stateMutability": "view",
      "type": "function",
      "constant": true
    },
    {
      "inputs": [],
      "name": "symbol",
      "outputs": [
        {
          "internalType": "string",
          "name": "",
          "type": "string"
        }
      ],
      "stateMutability": "view",
      "type": "function",
      "constant": true
    },
    {
      "inputs": [
        {
          "internalType": "address",
          "name": "newOwner",
          "type": "address"
        }
      ],
      "name": "transferOwnership",
      "outputs": [],
      "stateMutability": "nonpayable",
      "type": "function"
    },
    {
      "inputs": [],
      "name": "trustedForwarder",
      "outputs": [
        {
          "internalType": "address",
          "name": "",
          "type": "address"
        }
      ],
      "stateMutability": "view",
      "type": "function",
      "constant": true
    },
    {
      "inputs": [],
      "name": "versionRecipient",
      "outputs": [
        {
          "internalType": "string",
          "name": "",
          "type": "string"
        }
      ],
      "stateMutability": "view",
      "type": "function",
      "constant": true
    },
    {
      "inputs": [],
      "name": "viridianNFTAddr",
      "outputs": [
        {
          "internalType": "address",
          "name": "",
          "type": "address"
        }
      ],
      "stateMutability": "view",
      "type": "function",
      "constant": true
    },
    {
      "inputs": [
        {
          "internalType": "address",
          "name": "_forwarder",
          "type": "address"
        }
      ],
      "name": "setTrustedForwarder",
      "outputs": [],
      "stateMutability": "nonpayable",
      "type": "function"
    },
    {
      "inputs": [
        {
          "internalType": "address",
          "name": "_newAdmin",
          "type": "address"
        }
      ],
      "name": "addAdmin",
      "outputs": [],
      "stateMutability": "nonpayable",
      "type": "function"
    },
    {
      "inputs": [
        {
          "internalType": "address",
          "name": "_newAdmin",
          "type": "address"
        }
      ],
      "name": "removeAdmin",
      "outputs": [],
      "stateMutability": "nonpayable",
      "type": "function"
    },
    {
      "inputs": [
        {
          "internalType": "string",
          "name": "baseURI_",
          "type": "string"
        }
      ],
      "name": "setBaseURI",
      "outputs": [],
      "stateMutability": "nonpayable",
      "type": "function"
    },
    {
      "inputs": [
        {
          "internalType": "uint256",
          "name": "tokenId",
          "type": "uint256"
        },
        {
          "internalType": "string",
          "name": "_tokenURI",
          "type": "string"
        }
      ],
      "name": "_setTokenURI",
      "outputs": [],
      "stateMutability": "nonpayable",
      "type": "function"
    },
    {
      "inputs": [
        {
          "internalType": "uint256",
          "name": "tokenId",
          "type": "uint256"
        }
      ],
      "name": "tokenURI",
      "outputs": [
        {
          "internalType": "string",
          "name": "",
          "type": "string"
        }
      ],
      "stateMutability": "view",
      "type": "function",
      "constant": true
    },
    {
      "inputs": [
        {
          "internalType": "uint256",
          "name": "_rarity",
          "type": "uint256"
        }
      ],
      "name": "getUriRarityPools",
      "outputs": [
        {
          "internalType": "string[]",
          "name": "",
          "type": "string[]"
        }
      ],
      "stateMutability": "view",
      "type": "function",
      "constant": true
    },
    {
      "inputs": [],
      "name": "getNumNFTs",
      "outputs": [
        {
          "internalType": "uint256",
          "name": "n",
          "type": "uint256"
        }
      ],
      "stateMutability": "view",
      "type": "function",
      "constant": true
    },
    {
      "inputs": [],
      "name": "getNumOwnedNFTs",
      "outputs": [
        {
          "internalType": "uint256",
          "name": "",
          "type": "uint256"
        }
      ],
      "stateMutability": "view",
      "type": "function",
      "constant": true
    },
    {
      "inputs": [],
      "name": "getOwnedNFTs",
      "outputs": [
        {
          "internalType": "uint256[]",
          "name": "",
          "type": "uint256[]"
        }
      ],
      "stateMutability": "view",
      "type": "function",
      "constant": true
    },
    {
      "inputs": [
        {
          "internalType": "uint256",
          "name": "_rarity",
          "type": "uint256"
        },
        {
          "internalType": "uint256",
          "name": "_rarityOdd",
          "type": "uint256"
        },
        {
          "internalType": "uint256",
          "name": "_newOdds",
          "type": "uint256"
        }
      ],
      "name": "setRarityOdds",
      "outputs": [],
      "stateMutability": "nonpayable",
      "type": "function"
    },
    {
      "inputs": [
        {
          "internalType": "uint256",
          "name": "tokenId",
          "type": "uint256"
        }
      ],
      "name": "isListed",
      "outputs": [
        {
          "internalType": "bool",
          "name": "",
          "type": "bool"
        }
      ],
      "stateMutability": "view",
      "type": "function",
      "constant": true
    },
    {
      "inputs": [
        {
          "internalType": "address",
          "name": "_to",
          "type": "address"
        },
        {
          "internalType": "string",
          "name": "tokenURI_",
          "type": "string"
        }
      ],
      "name": "mint",
      "outputs": [],
      "stateMutability": "nonpayable",
      "type": "function"
    },
    {
      "inputs": [
        {
          "internalType": "string",
          "name": "uri",
          "type": "string"
        },
        {
          "internalType": "uint256",
          "name": "rarity",
          "type": "uint256"
        }
      ],
      "name": "softMintNFT",
      "outputs": [],
      "stateMutability": "nonpayable",
      "type": "function"
    },
    {
      "inputs": [
        {
          "internalType": "uint256",
          "name": "rarity",
          "type": "uint256"
        },
        {
          "internalType": "uint256",
          "name": "index",
          "type": "uint256"
        }
      ],
      "name": "burnSoftMintedNFTAtRarityIndex",
      "outputs": [],
      "stateMutability": "nonpayable",
      "type": "function"
    },
    {
      "inputs": [
        {
          "internalType": "string",
          "name": "_s",
          "type": "string"
        },
        {
          "internalType": "string",
          "name": "_s1",
          "type": "string"
        }
      ],
      "name": "compareStrings",
      "outputs": [
        {
          "internalType": "bool",
          "name": "",
          "type": "bool"
        }
      ],
      "stateMutability": "pure",
      "type": "function",
      "constant": true
    },
    {
      "inputs": [
        {
          "internalType": "address",
          "name": "_vrfAddress",
          "type": "address"
        }
      ],
      "name": "configureVRF",
      "outputs": [],
      "stateMutability": "nonpayable",
      "type": "function"
    },
    {
      "inputs": [
        {
          "internalType": "uint256",
          "name": "_tokenId",
          "type": "uint256"
        }
      ],
      "name": "lockInPackResult",
      "outputs": [],
      "stateMutability": "nonpayable",
      "type": "function"
    },
    {
      "inputs": [
        {
          "internalType": "uint256",
          "name": "_tokenId",
          "type": "uint256"
        }
      ],
      "name": "isPackResultDecided",
      "outputs": [
        {
          "internalType": "bool",
          "name": "",
          "type": "bool"
        }
      ],
      "stateMutability": "view",
      "type": "function",
      "constant": true
    },
    {
      "inputs": [
        {
          "internalType": "uint256",
          "name": "_tokenId",
          "type": "uint256"
        }
      ],
      "name": "openPack",
      "outputs": [],
      "stateMutability": "nonpayable",
      "type": "function"
    },
    {
      "inputs": [
        {
          "internalType": "uint256",
          "name": "tokenId",
          "type": "uint256"
        }
      ],
      "name": "burn",
      "outputs": [],
      "stateMutability": "nonpayable",
      "type": "function"
    },
    {
      "inputs": [
        {
          "internalType": "address",
          "name": "recipient",
          "type": "address"
        },
        {
          "internalType": "string",
          "name": "hash",
          "type": "string"
        },
        {
          "internalType": "string",
          "name": "metadata",
          "type": "string"
        }
      ],
      "name": "awardItem",
      "outputs": [
        {
          "internalType": "uint256",
          "name": "",
          "type": "uint256"
        }
      ],
      "stateMutability": "nonpayable",
      "type": "function"
    },
    {
      "inputs": [
        {
          "internalType": "address",
          "name": "from",
          "type": "address"
        },
        {
          "internalType": "address",
          "name": "to",
          "type": "address"
        },
        {
          "internalType": "uint256",
          "name": "tokenId",
          "type": "uint256"
        }
      ],
      "name": "safeTransferFrom",
      "outputs": [],
      "stateMutability": "nonpayable",
      "type": "function"
    },
    {
      "inputs": [
        {
          "internalType": "address",
          "name": "from",
          "type": "address"
        },
        {
          "internalType": "address",
          "name": "to",
          "type": "address"
        },
        {
          "internalType": "uint256",
          "name": "tokenId",
          "type": "uint256"
        },
        {
          "internalType": "bytes",
          "name": "_data",
          "type": "bytes"
        }
      ],
      "name": "safeTransferFrom",
      "outputs": [],
      "stateMutability": "nonpayable",
      "type": "function"
    },
    {
      "inputs": [
        {
          "internalType": "address",
          "name": "from",
          "type": "address"
        },
        {
          "internalType": "address",
          "name": "to",
          "type": "address"
        },
        {
          "internalType": "uint256",
          "name": "tokenId",
          "type": "uint256"
        }
      ],
      "name": "transferFrom",
      "outputs": [],
      "stateMutability": "nonpayable",
      "type": "function"
    },
    {
      "inputs": [
        {
          "internalType": "uint256",
          "name": "_tokenId",
          "type": "uint256"
        }
      ],
      "name": "listToken",
      "outputs": [],
      "stateMutability": "nonpayable",
      "type": "function"
    },
    {
      "inputs": [
        {
          "internalType": "uint256",
          "name": "_tokenId",
          "type": "uint256"
        }
      ],
      "name": "unlistToken",
      "outputs": [],
      "stateMutability": "nonpayable",
      "type": "function"
    }
  ],
  "bytecode": "0x60806040526040518060400160405280600581526020017f322e322e30000000000000000000000000000000000000000000000000000000815250601690805190602001906200005192919062000739565b503480156200005f57600080fd5b50604051620063aa380380620063aa833981810160405281019062000085919062000853565b6040518060400160405280600d81526020017f566972696469616e205061636b000000000000000000000000000000000000008152506040518060400160405280600281526020017f565000000000000000000000000000000000000000000000000000000000000081525081600090805190602001906200010992919062000739565b5080600190805190602001906200012292919062000739565b5050506200014562000139620005bb60201b60201c565b620005d760201b60201c565b600073ffffffffffffffffffffffffffffffffffffffff168173ffffffffffffffffffffffffffffffffffffffff1614156200018057600080fd5b80601360006101000a81548173ffffffffffffffffffffffffffffffffffffffff021916908373ffffffffffffffffffffffffffffffffffffffff160217905550601360009054906101000a900473ffffffffffffffffffffffffffffffffffffffff16601460006101000a81548173ffffffffffffffffffffffffffffffffffffffff021916908373ffffffffffffffffffffffffffffffffffffffff1602179055506019600b60008081526020019081526020016000206000808152602001908152602001600020819055506064600b60008081526020019081526020016000206000600181526020019081526020016000208190555061012c600b6000808152602001908152602001600020600060028152602001908152602001600020819055506103e8600b6000808152602001908152602001600020600060038152602001908152602001600020819055506003600c6000808152602001908152602001600020819055506001600b6000600181526020019081526020016000206000808152602001908152602001600020819055506032600b6000600181526020019081526020016000206000600181526020019081526020016000208190555060c8600b600060018152602001908152602001600020600060028152602001908152602001600020819055506103e8600b600060018152602001908152602001600020600060038152602001908152602001600020819055506003600c6000808152602001908152602001600020819055506000600b6000600281526020019081526020016000206000808152602001908152602001600020819055506032600b600060028152602001908152602001600020600060018152602001908152602001600020819055506064600b600060028152602001908152602001600020600060028152602001908152602001600020819055506103e8600b600060028152602001908152602001600020600060038152602001908152602001600020819055506003600c6000808152602001908152602001600020819055506000600b600060038152602001908152602001600020600080815260200190815260200160002081905550600a600b600060038152602001908152602001600020600060018152602001908152602001600020819055506032600b600060038152602001908152602001600020600060028152602001908152602001600020819055506103e8600b600060038152602001908152602001600020600060038152602001908152602001600020819055506003600c600080815260200190815260200160002081905550600360108190555060016012600062000563620005bb60201b60201c565b73ffffffffffffffffffffffffffffffffffffffff1673ffffffffffffffffffffffffffffffffffffffff16815260200190815260200160002060006101000a81548160ff02191690831515021790555050620008ea565b6000620005d26200069d60201b62002c071760201c565b905090565b6000600660009054906101000a900473ffffffffffffffffffffffffffffffffffffffff16905081600660006101000a81548173ffffffffffffffffffffffffffffffffffffffff021916908373ffffffffffffffffffffffffffffffffffffffff1602179055508173ffffffffffffffffffffffffffffffffffffffff168173ffffffffffffffffffffffffffffffffffffffff167f8be0079c531659141344cd1fd0a4f28419497f9722a3daafe3b4186f6b6457e060405160405180910390a35050565b60006014600036905010158015620006c25750620006c133620006df60201b60201c565b5b15620006d857601436033560601c9050620006dc565b3390505b90565b6000600760009054906101000a900473ffffffffffffffffffffffffffffffffffffffff1673ffffffffffffffffffffffffffffffffffffffff168273ffffffffffffffffffffffffffffffffffffffff16149050919050565b8280546200074790620008b4565b90600052602060002090601f0160209004810192826200076b5760008555620007b7565b82601f106200078657805160ff1916838001178555620007b7565b82800160010185558215620007b7579182015b82811115620007b657825182559160200191906001019062000799565b5b509050620007c69190620007ca565b5090565b5b80821115620007e5576000816000905550600101620007cb565b5090565b600080fd5b600073ffffffffffffffffffffffffffffffffffffffff82169050919050565b60006200081b82620007ee565b9050919050565b6200082d816200080e565b81146200083957600080fd5b50565b6000815190506200084d8162000822565b92915050565b6000602082840312156200086c576200086b620007e9565b5b60006200087c848285016200083c565b91505092915050565b7f4e487b7100000000000000000000000000000000000000000000000000000000600052602260045260246000fd5b60006002820490506001821680620008cd57607f821691505b60208210811415620008e457620008e362000885565b5b50919050565b615ab080620008fa6000396000f3fe608060405234801561001057600080fd5b50600436106102695760003560e01c80638bfaf10111610151578063bda4e797116100c3578063dc5df54e11610087578063dc5df54e14610742578063e6148d5f1461075e578063e985e9c51461077a578063ece769e7146107aa578063f2fde38b146107c6578063fcce4883146107e257610269565b8063bda4e7971461068c578063bed34bba146106aa578063c87b56dd146106da578063d0def5211461070a578063da7422281461072657610269565b8063a22cb46511610115578063a22cb465146105e0578063a3524a04146105fc578063a80f1e9c1461061a578063ad3a358c14610636578063b88d4fde14610652578063bb92c2481461066e57610269565b80638bfaf101146105145780638da5cb5b1461054457806395d89b41146105625780639e607a3f14610580578063a203428c146105b057610269565b806342966c68116101ea578063572b6c05116101ae578063572b6c05146104405780636352211e1461047057806370480275146104a057806370a08231146104bc578063715018a6146104ec5780637da0a877146104f657610269565b806342966c68146103b0578063486ff0cd146103cc5780634c0eb7d9146103ea57806350a88c7e1461040857806355f804b31461042457610269565b80630e065931116102315780630e065931146103245780631785f53c14610340578063228061cc1461035c57806323b872dd1461037857806342842e0e1461039457610269565b8063015388681461026e57806301ffc9a71461028a57806306fdde03146102ba578063081812fc146102d8578063095ea7b314610308575b600080fd5b61028860048036038101906102839190613d7c565b610812565b005b6102a4600480360381019061029f9190613e30565b6108ea565b6040516102b19190613e78565b60405180910390f35b6102c26109cc565b6040516102cf9190613f1b565b60405180910390f35b6102f260048036038101906102ed9190613f3d565b610a5e565b6040516102ff9190613fab565b60405180910390f35b610322600480360381019061031d9190613ff2565b610ae3565b005b61033e60048036038101906103399190614032565b610bfb565b005b61035a6004803603810190610355919061408e565b610cb0565b005b6103766004803603810190610371919061408e565b610d87565b005b610392600480360381019061038d91906140bb565b610dcb565b005b6103ae60048036038101906103a991906140bb565b610e9d565b005b6103ca60048036038101906103c59190613f3d565b610f6f565b005b6103d4610f95565b6040516103e19190613f1b565b60405180910390f35b6103f2611023565b6040516103ff91906141cc565b60405180910390f35b610422600480360381019061041d9190613f3d565b61111f565b005b61043e600480360381019061043991906141ee565b6118ce565b005b61045a6004803603810190610455919061408e565b61194c565b6040516104679190613e78565b60405180910390f35b61048a60048036038101906104859190613f3d565b6119a6565b6040516104979190613fab565b60405180910390f35b6104ba60048036038101906104b5919061408e565b611a58565b005b6104d660048036038101906104d1919061408e565b611b2f565b6040516104e39190614246565b60405180910390f35b6104f4611be7565b005b6104fe611c6f565b60405161050b9190613fab565b60405180910390f35b61052e60048036038101906105299190614261565b611c99565b60405161053b9190614246565b60405180910390f35b61054c611d46565b6040516105599190613fab565b60405180910390f35b61056a611d70565b6040516105779190613f1b565b60405180910390f35b61059a60048036038101906105959190613f3d565b611e02565b6040516105a79190613e78565b60405180910390f35b6105ca60048036038101906105c59190613f3d565b611e2c565b6040516105d791906143f8565b60405180910390f35b6105fa60048036038101906105f59190614446565b611f7c565b005b6106046120fd565b6040516106119190613fab565b60405180910390f35b610634600480360381019061062f9190614486565b612123565b005b610650600480360381019061064b9190613f3d565b6121b5565b005b61066c6004803603810190610667919061457a565b6121fe565b005b610676612260565b6040516106839190614246565b60405180910390f35b6106946122eb565b6040516106a19190614246565b60405180910390f35b6106c460048036038101906106bf91906145fd565b6122fc565b6040516106d19190613e78565b60405180910390f35b6106f460048036038101906106ef9190613f3d565b612355565b6040516107019190613f1b565b60405180910390f35b610724600480360381019061071f9190614675565b6124c8565b005b610740600480360381019061073b919061408e565b612589565b005b61075c600480360381019061075791906146d1565b612611565b005b61077860048036038101906107739190613f3d565b612852565b005b610794600480360381019061078f9190614711565b61289b565b6040516107a19190613e78565b60405180910390f35b6107c460048036038101906107bf9190613f3d565b61292f565b005b6107e060048036038101906107db919061408e565b612ae5565b005b6107fc60048036038101906107f79190613f3d565b612bdd565b6040516108099190613e78565b60405180910390f35b6001151560126000610822612c3e565b73ffffffffffffffffffffffffffffffffffffffff1673ffffffffffffffffffffffffffffffffffffffff16815260200190815260200160002060009054906101000a900460ff1615151461087657600080fd5b61087f82612c4d565b6108be576040517f08c379a00000000000000000000000000000000000000000000000000000000081526004016108b5906147c3565b60405180910390fd5b806017600084815260200190815260200160002090805190602001906108e5929190613a5d565b505050565b60007f80ac58cd000000000000000000000000000000000000000000000000000000007bffffffffffffffffffffffffffffffffffffffffffffffffffffffff1916827bffffffffffffffffffffffffffffffffffffffffffffffffffffffff191614806109b557507f5b5e139f000000000000000000000000000000000000000000000000000000007bffffffffffffffffffffffffffffffffffffffffffffffffffffffff1916827bffffffffffffffffffffffffffffffffffffffffffffffffffffffff1916145b806109c557506109c482612cb9565b5b9050919050565b6060600080546109db90614812565b80601f0160208091040260200160405190810160405280929190818152602001828054610a0790614812565b8015610a545780601f10610a2957610100808354040283529160200191610a54565b820191906000526020600020905b815481529060010190602001808311610a3757829003601f168201915b5050505050905090565b6000610a6982612c4d565b610aa8576040517f08c379a0000000000000000000000000000000000000000000000000000000008152600401610a9f906148b6565b60405180910390fd5b6004600083815260200190815260200160002060009054906101000a900473ffffffffffffffffffffffffffffffffffffffff169050919050565b6000610aee826119a6565b90508073ffffffffffffffffffffffffffffffffffffffff168373ffffffffffffffffffffffffffffffffffffffff161415610b5f576040517f08c379a0000000000000000000000000000000000000000000000000000000008152600401610b5690614948565b60405180910390fd5b8073ffffffffffffffffffffffffffffffffffffffff16610b7e612c3e565b73ffffffffffffffffffffffffffffffffffffffff161480610bad5750610bac81610ba7612c3e565b61289b565b5b610bec576040517f08c379a0000000000000000000000000000000000000000000000000000000008152600401610be3906149da565b60405180910390fd5b610bf68383612d23565b505050565b6001151560126000610c0b612c3e565b73ffffffffffffffffffffffffffffffffffffffff1673ffffffffffffffffffffffffffffffffffffffff16815260200190815260200160002060009054906101000a900460ff16151514610c5f57600080fd5b600f600082815260200190815260200160002082908060018154018082558091505060019003906000526020600020016000909190919091509080519060200190610cab929190613a5d565b505050565b610cb8612c3e565b73ffffffffffffffffffffffffffffffffffffffff16610cd6611d46565b73ffffffffffffffffffffffffffffffffffffffff1614610d2c576040517f08c379a0000000000000000000000000000000000000000000000000000000008152600401610d2390614a46565b60405180910390fd5b6000601260008373ffffffffffffffffffffffffffffffffffffffff1673ffffffffffffffffffffffffffffffffffffffff16815260200190815260200160002060006101000a81548160ff02191690831515021790555050565b80601560006101000a81548173ffffffffffffffffffffffffffffffffffffffff021916908373ffffffffffffffffffffffffffffffffffffffff16021790555050565b600d600082815260200190815260200160002060009054906101000a900460ff1615610e2c576040517f08c379a0000000000000000000000000000000000000000000000000000000008152600401610e2390614ad8565b60405180910390fd5b6011600082815260200190815260200160002060009054906101000a900460ff1615610e8d576040517f08c379a0000000000000000000000000000000000000000000000000000000008152600401610e8490614b6a565b60405180910390fd5b610e98838383612ddc565b505050565b600d600082815260200190815260200160002060009054906101000a900460ff1615610efe576040517f08c379a0000000000000000000000000000000000000000000000000000000008152600401610ef590614ad8565b60405180910390fd5b6011600082815260200190815260200160002060009054906101000a900460ff1615610f5f576040517f08c379a0000000000000000000000000000000000000000000000000000000008152600401610f5690614b6a565b60405180910390fd5b610f6a838383612e3c565b505050565b610f80610f7a612c3e565b82612e5c565b610f8957600080fd5b610f9281612f3a565b50565b60168054610fa290614812565b80601f0160208091040260200160405190810160405280929190818152602001828054610fce90614812565b801561101b5780601f10610ff05761010080835404028352916020019161101b565b820191906000526020600020905b815481529060010190602001808311610ffe57829003601f168201915b505050505081565b6060600061102f612260565b67ffffffffffffffff81111561104857611047613c51565b5b6040519080825280602002602001820160405280156110765781602001602082028036833780820191505090505b509050600080600190505b61108b600861304b565b811161111657611099612c3e565b73ffffffffffffffffffffffffffffffffffffffff166110b8826119a6565b73ffffffffffffffffffffffffffffffffffffffff16141561110357808383815181106110e8576110e7614b8a565b5b60200260200101818152505081806110ff90614be8565b9250505b808061110e90614be8565b915050611081565b50819250505090565b61113061112a612c3e565b82612e5c565b61116f576040517f08c379a000000000000000000000000000000000000000000000000000000000815260040161116690614ca3565b60405180910390fd5b6011600082815260200190815260200160002060009054906101000a900460ff166111cf576040517f08c379a00000000000000000000000000000000000000000000000000000000081526004016111c690614d35565b60405180910390fd5b6000601560009054906101000a900473ffffffffffffffffffffffffffffffffffffffff1673ffffffffffffffffffffffffffffffffffffffff166397597bfd836040518263ffffffff1660e01b815260040161122c9190614246565b602060405180830381865afa158015611249573d6000803e3d6000fd5b505050506040513d601f19601f8201168201806040525081019061126d9190614d6a565b90506000601560009054906101000a900473ffffffffffffffffffffffffffffffffffffffff1673ffffffffffffffffffffffffffffffffffffffff1663d972fa1c846040518263ffffffff1660e01b81526004016112cc9190614246565b602060405180830381865afa1580156112e9573d6000803e3d6000fd5b505050506040513d601f19601f8201168201806040525081019061130d9190614d6a565b90507f2a207e84527e97d2fb4fe0d7c5eb86ee71d9608898e2da44e3e1585932f4f8748282604051611340929190614d97565b60405180910390a16000821161138b576040517f08c379a000000000000000000000000000000000000000000000000000000000815260040161138290614e32565b60405180910390fd5b600081116113ce576040517f08c379a00000000000000000000000000000000000000000000000000000000081526004016113c590614ec4565b60405180910390fd5b6000600e60008581526020019081526020016000205490506113ee613ae3565b60005b600c6000848152602001908152602001600020548160ff16101561188657600061142d85600b6000878152602001908152602001600020613059565b905060006001600f6000848152602001908152602001600020805490506114549190614ee4565b8761145f9190614f47565b90506000600f6000848152602001908152602001600020828154811061148857611487614b8a565b5b90600052602060002001805461149d90614812565b80601f01602080910402602001604051908101604052809291908181526020018280546114c990614812565b80156115165780601f106114eb57610100808354040283529160200191611516565b820191906000526020600020905b8154815290600101906020018083116114f957829003601f168201915b50505050509050601460009054906101000a900473ffffffffffffffffffffffffffffffffffffffff1673ffffffffffffffffffffffffffffffffffffffff1663d0def521611563612c3e565b836040518363ffffffff1660e01b8152600401611581929190614f78565b600060405180830381600087803b15801561159b57600080fd5b505af11580156115af573d6000803e3d6000fd5b5050505080858560ff16600a81106115ca576115c9614b8a565b5b60200201819052506000600f6000858152602001908152602001600020805480602002602001604051908101604052809291908181526020016000905b828210156116b357838290600052602060002001805461162690614812565b80601f016020809104026020016040519081016040528092919081815260200182805461165290614812565b801561169f5780601f106116745761010080835404028352916020019161169f565b820191906000526020600020905b81548152906001019060200180831161168257829003601f168201915b505050505081526020019060010190611607565b50505050905060005b600f60008681526020019081526020016000208054905081101561186e576000600f6000878152602001908152602001600020828154811061170157611700614b8a565b5b90600052602060002001805461171690614812565b80601f016020809104026020016040519081016040528092919081815260200182805461174290614812565b801561178f5780601f106117645761010080835404028352916020019161178f565b820191906000526020600020905b81548152906001019060200180831161177257829003601f168201915b505050505090506117a081856122fc565b1561185a5782600184516117b49190614ee4565b815181106117c5576117c4614b8a565b5b60200260200101518383815181106117e0576117df614b8a565b5b602002602001018190525082600f60008881526020019081526020016000209080519060200190611812929190613b0b565b50600f600087815260200190815260200160002080548061183657611835614fa8565b5b6001900381819060005260206000200160006118529190613b6b565b90555061186e565b50808061186690614be8565b9150506116bc565b5050505050808061187e90614fe4565b9150506113f1565b5061189085610f6f565b7f7a8f71ffa367c677061e81db64480595dffec51888e92c29fd97f628ad7be9bc816040516118bf91906150b0565b60405180910390a15050505050565b60011515601260006118de612c3e565b73ffffffffffffffffffffffffffffffffffffffff1673ffffffffffffffffffffffffffffffffffffffff16815260200190815260200160002060009054906101000a900460ff1615151461193257600080fd5b8060189080519060200190611948929190613a5d565b5050565b6000600760009054906101000a900473ffffffffffffffffffffffffffffffffffffffff1673ffffffffffffffffffffffffffffffffffffffff168273ffffffffffffffffffffffffffffffffffffffff16149050919050565b6000806002600084815260200190815260200160002060009054906101000a900473ffffffffffffffffffffffffffffffffffffffff169050600073ffffffffffffffffffffffffffffffffffffffff168173ffffffffffffffffffffffffffffffffffffffff161415611a4f576040517f08c379a0000000000000000000000000000000000000000000000000000000008152600401611a4690615144565b60405180910390fd5b80915050919050565b611a60612c3e565b73ffffffffffffffffffffffffffffffffffffffff16611a7e611d46565b73ffffffffffffffffffffffffffffffffffffffff1614611ad4576040517f08c379a0000000000000000000000000000000000000000000000000000000008152600401611acb90614a46565b60405180910390fd5b6001601260008373ffffffffffffffffffffffffffffffffffffffff1673ffffffffffffffffffffffffffffffffffffffff16815260200190815260200160002060006101000a81548160ff02191690831515021790555050565b60008073ffffffffffffffffffffffffffffffffffffffff168273ffffffffffffffffffffffffffffffffffffffff161415611ba0576040517f08c379a0000000000000000000000000000000000000000000000000000000008152600401611b97906151d6565b60405180910390fd5b600360008373ffffffffffffffffffffffffffffffffffffffff1673ffffffffffffffffffffffffffffffffffffffff168152602001908152602001600020549050919050565b611bef612c3e565b73ffffffffffffffffffffffffffffffffffffffff16611c0d611d46565b73ffffffffffffffffffffffffffffffffffffffff1614611c63576040517f08c379a0000000000000000000000000000000000000000000000000000000008152600401611c5a90614a46565b60405180910390fd5b611c6d60006130ab565b565b6000600760009054906101000a900473ffffffffffffffffffffffffffffffffffffffff16905090565b60006001600a84604051611cad9190615232565b908152602001604051809103902060009054906101000a900460ff1660ff161415611cd757600080fd5b6001600a84604051611ce99190615232565b908152602001604051809103902060006101000a81548160ff021916908360ff160217905550611d196008613171565b6000611d25600861304b565b9050611d318582613187565b611d3b8184610812565b809150509392505050565b6000600660009054906101000a900473ffffffffffffffffffffffffffffffffffffffff16905090565b606060018054611d7f90614812565b80601f0160208091040260200160405190810160405280929190818152602001828054611dab90614812565b8015611df85780601f10611dcd57610100808354040283529160200191611df8565b820191906000526020600020905b815481529060010190602001808311611ddb57829003601f168201915b5050505050905090565b60006011600083815260200190815260200160002060009054906101000a900460ff169050919050565b60606001151560126000611e3e612c3e565b73ffffffffffffffffffffffffffffffffffffffff1673ffffffffffffffffffffffffffffffffffffffff16815260200190815260200160002060009054906101000a900460ff16151514611e9257600080fd5b600f6000838152602001908152602001600020805480602002602001604051908101604052809291908181526020016000905b82821015611f71578382906000526020600020018054611ee490614812565b80601f0160208091040260200160405190810160405280929190818152602001828054611f1090614812565b8015611f5d5780601f10611f3257610100808354040283529160200191611f5d565b820191906000526020600020905b815481529060010190602001808311611f4057829003601f168201915b505050505081526020019060010190611ec5565b505050509050919050565b611f84612c3e565b73ffffffffffffffffffffffffffffffffffffffff168273ffffffffffffffffffffffffffffffffffffffff161415611ff2576040517f08c379a0000000000000000000000000000000000000000000000000000000008152600401611fe990615295565b60405180910390fd5b8060056000611fff612c3e565b73ffffffffffffffffffffffffffffffffffffffff1673ffffffffffffffffffffffffffffffffffffffff16815260200190815260200160002060008473ffffffffffffffffffffffffffffffffffffffff1673ffffffffffffffffffffffffffffffffffffffff16815260200190815260200160002060006101000a81548160ff0219169083151502179055508173ffffffffffffffffffffffffffffffffffffffff166120ac612c3e565b73ffffffffffffffffffffffffffffffffffffffff167f17307eab39ab6107e8899845ad3d59bd9653f200f220920489ca2b5937696c31836040516120f19190613e78565b60405180910390a35050565b601360009054906101000a900473ffffffffffffffffffffffffffffffffffffffff1681565b6001151560126000612133612c3e565b73ffffffffffffffffffffffffffffffffffffffff1673ffffffffffffffffffffffffffffffffffffffff16815260200190815260200160002060009054906101000a900460ff1615151461218757600080fd5b80600b6000858152602001908152602001600020600084815260200190815260200160002081905550505050565b6121c66121c0612c3e565b82612e5c565b6121cf57600080fd5b6000600d600083815260200190815260200160002060006101000a81548160ff02191690831515021790555050565b61220f612209612c3e565b83612e5c565b61224e576040517f08c379a000000000000000000000000000000000000000000000000000000000815260040161224590615327565b60405180910390fd5b61225a84848484613355565b50505050565b600080600090506000600190505b612278600861304b565b81116122e357612286612c3e565b73ffffffffffffffffffffffffffffffffffffffff166122a5826119a6565b73ffffffffffffffffffffffffffffffffffffffff1614156122d05781806122cc90614be8565b9250505b80806122db90614be8565b91505061226e565b508091505090565b60006122f7600861304b565b905090565b60008160405160200161230f9190615232565b60405160208183030381529060405280519060200120836040516020016123369190615232565b6040516020818303038152906040528051906020012014905092915050565b606061236082612c4d565b61239f576040517f08c379a0000000000000000000000000000000000000000000000000000000008152600401612396906153b9565b60405180910390fd5b60006017600084815260200190815260200160002080546123bf90614812565b80601f01602080910402602001604051908101604052809291908181526020018280546123eb90614812565b80156124385780601f1061240d57610100808354040283529160200191612438565b820191906000526020600020905b81548152906001019060200180831161241b57829003601f168201915b5050505050905060006124496133b1565b905060008151141561245f5781925050506124c3565b60008251111561249457808260405160200161247c9291906153d9565b604051602081830303815290604052925050506124c3565b8061249e85613443565b6040516020016124af9291906153d9565b604051602081830303815290604052925050505b919050565b60011515601260006124d8612c3e565b73ffffffffffffffffffffffffffffffffffffffff1673ffffffffffffffffffffffffffffffffffffffff16815260200190815260200160002060009054906101000a900460ff1615151461252c57600080fd5b6125366008613171565b6000612542600861304b565b905061254e83826135a4565b6000600d600083815260200190815260200160002060006101000a81548160ff0219169083151502179055506125848183610812565b505050565b612591612c3e565b73ffffffffffffffffffffffffffffffffffffffff166125af611d46565b73ffffffffffffffffffffffffffffffffffffffff1614612605576040517f08c379a00000000000000000000000000000000000000000000000000000000081526004016125fc90614a46565b60405180910390fd5b61260e816135c2565b50565b6001151560126000612621612c3e565b73ffffffffffffffffffffffffffffffffffffffff1673ffffffffffffffffffffffffffffffffffffffff16815260200190815260200160002060009054906101000a900460ff1615151461267557600080fd5b6000600f6000848152602001908152602001600020805480602002602001604051908101604052809291908181526020016000905b828210156127565783829060005260206000200180546126c990614812565b80601f01602080910402602001604051908101604052809291908181526020018280546126f590614812565b80156127425780601f1061271757610100808354040283529160200191612742565b820191906000526020600020905b81548152906001019060200180831161272557829003601f168201915b5050505050815260200190600101906126aa565b50505050905060005b600f60008581526020019081526020016000208054905081101561284c57828114156128395781600183516127949190614ee4565b815181106127a5576127a4614b8a565b5b60200260200101518282815181106127c0576127bf614b8a565b5b602002602001018190525081600f600086815260200190815260200160002090805190602001906127f2929190613b0b565b50600f600085815260200190815260200160002080548061281657612815614fa8565b5b6001900381819060005260206000200160006128329190613b6b565b905561284c565b808061284490614be8565b91505061275f565b50505050565b61286361285d612c3e565b82612e5c565b61286c57600080fd5b6001600d600083815260200190815260200160002060006101000a81548160ff02191690831515021790555050565b6000600560008473ffffffffffffffffffffffffffffffffffffffff1673ffffffffffffffffffffffffffffffffffffffff16815260200190815260200160002060008373ffffffffffffffffffffffffffffffffffffffff1673ffffffffffffffffffffffffffffffffffffffff16815260200190815260200160002060009054906101000a900460ff16905092915050565b61294061293a612c3e565b82612e5c565b61297f576040517f08c379a000000000000000000000000000000000000000000000000000000000815260040161297690615449565b60405180910390fd5b6011600082815260200190815260200160002060009054906101000a900460ff16156129e0576040517f08c379a00000000000000000000000000000000000000000000000000000000081526004016129d7906154db565b60405180910390fd5b60016011600083815260200190815260200160002060006101000a81548160ff021916908315150217905550601560009054906101000a900473ffffffffffffffffffffffffffffffffffffffff1673ffffffffffffffffffffffffffffffffffffffff1663b37217a4826040518263ffffffff1660e01b8152600401612a679190614246565b6020604051808303816000875af1158015612a86573d6000803e3d6000fd5b505050506040513d601f19601f82011682018060405250810190612aaa9190615531565b507f702dd7be132b87b70a9e03694fa9b6f9a690d86a1a8f92a6a741dca24ed82e8581604051612ada9190614246565b60405180910390a150565b612aed612c3e565b73ffffffffffffffffffffffffffffffffffffffff16612b0b611d46565b73ffffffffffffffffffffffffffffffffffffffff1614612b61576040517f08c379a0000000000000000000000000000000000000000000000000000000008152600401612b5890614a46565b60405180910390fd5b600073ffffffffffffffffffffffffffffffffffffffff168173ffffffffffffffffffffffffffffffffffffffff161415612bd1576040517f08c379a0000000000000000000000000000000000000000000000000000000008152600401612bc8906155d0565b60405180910390fd5b612bda816130ab565b50565b6000600d600083815260200190815260200160002060009054906101000a900460ff169050919050565b60006014600036905010158015612c235750612c223361194c565b5b15612c3757601436033560601c9050612c3b565b3390505b90565b6000612c48612c07565b905090565b60008073ffffffffffffffffffffffffffffffffffffffff166002600084815260200190815260200160002060009054906101000a900473ffffffffffffffffffffffffffffffffffffffff1673ffffffffffffffffffffffffffffffffffffffff1614159050919050565b60007f01ffc9a7000000000000000000000000000000000000000000000000000000007bffffffffffffffffffffffffffffffffffffffffffffffffffffffff1916827bffffffffffffffffffffffffffffffffffffffffffffffffffffffff1916149050919050565b816004600083815260200190815260200160002060006101000a81548173ffffffffffffffffffffffffffffffffffffffff021916908373ffffffffffffffffffffffffffffffffffffffff160217905550808273ffffffffffffffffffffffffffffffffffffffff16612d96836119a6565b73ffffffffffffffffffffffffffffffffffffffff167f8c5be1e5ebec7d5bd14f71427d1e84f3dd0314c0f7b2291e5b200ac8c7c3b92560405160405180910390a45050565b612ded612de7612c3e565b82612e5c565b612e2c576040517f08c379a0000000000000000000000000000000000000000000000000000000008152600401612e2390615327565b60405180910390fd5b612e37838383613606565b505050565b612e57838383604051806020016040528060008152506121fe565b505050565b6000612e6782612c4d565b612ea6576040517f08c379a0000000000000000000000000000000000000000000000000000000008152600401612e9d90615662565b60405180910390fd5b6000612eb1836119a6565b90508073ffffffffffffffffffffffffffffffffffffffff168473ffffffffffffffffffffffffffffffffffffffff161480612f2057508373ffffffffffffffffffffffffffffffffffffffff16612f0884610a5e565b73ffffffffffffffffffffffffffffffffffffffff16145b80612f315750612f30818561289b565b5b91505092915050565b6000612f45826119a6565b9050612f5381600084613862565b612f5e600083612d23565b6001600360008373ffffffffffffffffffffffffffffffffffffffff1673ffffffffffffffffffffffffffffffffffffffff1681526020019081526020016000206000828254612fae9190614ee4565b925050819055506002600083815260200190815260200160002060006101000a81549073ffffffffffffffffffffffffffffffffffffffff021916905581600073ffffffffffffffffffffffffffffffffffffffff168273ffffffffffffffffffffffffffffffffffffffff167fddf252ad1be2c89b69c2b068fc378daa952ba7f163c4a11628f55a4df523b3ef60405160405180910390a45050565b600081600001549050919050565b600080600090505b6010548112156130a05782600082815260200190815260200160002054841161308d57809150506130a5565b808061309890614be8565b915050613061565b809150505b92915050565b6000600660009054906101000a900473ffffffffffffffffffffffffffffffffffffffff16905081600660006101000a81548173ffffffffffffffffffffffffffffffffffffffff021916908373ffffffffffffffffffffffffffffffffffffffff1602179055508173ffffffffffffffffffffffffffffffffffffffff168173ffffffffffffffffffffffffffffffffffffffff167f8be0079c531659141344cd1fd0a4f28419497f9722a3daafe3b4186f6b6457e060405160405180910390a35050565b6001816000016000828254019250508190555050565b600073ffffffffffffffffffffffffffffffffffffffff168273ffffffffffffffffffffffffffffffffffffffff1614156131f7576040517f08c379a00000000000000000000000000000000000000000000000000000000081526004016131ee906156ce565b60405180910390fd5b61320081612c4d565b15613240576040517f08c379a00000000000000000000000000000000000000000000000000000000081526004016132379061573a565b60405180910390fd5b61324c60008383613862565b6001600360008473ffffffffffffffffffffffffffffffffffffffff1673ffffffffffffffffffffffffffffffffffffffff168152602001908152602001600020600082825461329c919061575a565b92505081905550816002600083815260200190815260200160002060006101000a81548173ffffffffffffffffffffffffffffffffffffffff021916908373ffffffffffffffffffffffffffffffffffffffff160217905550808273ffffffffffffffffffffffffffffffffffffffff16600073ffffffffffffffffffffffffffffffffffffffff167fddf252ad1be2c89b69c2b068fc378daa952ba7f163c4a11628f55a4df523b3ef60405160405180910390a45050565b613360848484613606565b61336c84848484613867565b6133ab576040517f08c379a00000000000000000000000000000000000000000000000000000000081526004016133a290615822565b60405180910390fd5b50505050565b6060601880546133c090614812565b80601f01602080910402602001604051908101604052809291908181526020018280546133ec90614812565b80156134395780601f1061340e57610100808354040283529160200191613439565b820191906000526020600020905b81548152906001019060200180831161341c57829003601f168201915b5050505050905090565b6060600082141561348b576040518060400160405280600181526020017f3000000000000000000000000000000000000000000000000000000000000000815250905061359f565b600082905060005b600082146134bd5780806134a690614be8565b915050600a826134b69190615842565b9150613493565b60008167ffffffffffffffff8111156134d9576134d8613c51565b5b6040519080825280601f01601f19166020018201604052801561350b5781602001600182028036833780820191505090505b5090505b60008514613598576001826135249190614ee4565b9150600a856135339190614f47565b603061353f919061575a565b60f81b81838151811061355557613554614b8a565b5b60200101907effffffffffffffffffffffffffffffffffffffffffffffffffffffffffffff1916908160001a905350600a856135919190615842565b945061350f565b8093505050505b919050565b6135be8282604051806020016040528060008152506139ef565b5050565b80600760006101000a81548173ffffffffffffffffffffffffffffffffffffffff021916908373ffffffffffffffffffffffffffffffffffffffff16021790555050565b8273ffffffffffffffffffffffffffffffffffffffff16613626826119a6565b73ffffffffffffffffffffffffffffffffffffffff161461367c576040517f08c379a0000000000000000000000000000000000000000000000000000000008152600401613673906158e5565b60405180910390fd5b600073ffffffffffffffffffffffffffffffffffffffff168273ffffffffffffffffffffffffffffffffffffffff1614156136ec576040517f08c379a00000000000000000000000000000000000000000000000000000000081526004016136e390615977565b60405180910390fd5b6136f7838383613862565b613702600082612d23565b6001600360008573ffffffffffffffffffffffffffffffffffffffff1673ffffffffffffffffffffffffffffffffffffffff16815260200190815260200160002060008282546137529190614ee4565b925050819055506001600360008473ffffffffffffffffffffffffffffffffffffffff1673ffffffffffffffffffffffffffffffffffffffff16815260200190815260200160002060008282546137a9919061575a565b92505081905550816002600083815260200190815260200160002060006101000a81548173ffffffffffffffffffffffffffffffffffffffff021916908373ffffffffffffffffffffffffffffffffffffffff160217905550808273ffffffffffffffffffffffffffffffffffffffff168473ffffffffffffffffffffffffffffffffffffffff167fddf252ad1be2c89b69c2b068fc378daa952ba7f163c4a11628f55a4df523b3ef60405160405180910390a4505050565b505050565b60006138888473ffffffffffffffffffffffffffffffffffffffff16613a4a565b156139e2578373ffffffffffffffffffffffffffffffffffffffff1663150b7a026138b1612c3e565b8786866040518563ffffffff1660e01b81526004016138d394939291906159ec565b6020604051808303816000875af192505050801561390f57506040513d601f19601f8201168201806040525081019061390c9190615a4d565b60015b613992573d806000811461393f576040519150601f19603f3d011682016040523d82523d6000602084013e613944565b606091505b5060008151141561398a576040517f08c379a000000000000000000000000000000000000000000000000000000000815260040161398190615822565b60405180910390fd5b805181602001fd5b63150b7a0260e01b7bffffffffffffffffffffffffffffffffffffffffffffffffffffffff1916817bffffffffffffffffffffffffffffffffffffffffffffffffffffffff1916149150506139e7565b600190505b949350505050565b6139f98383613187565b613a066000848484613867565b613a45576040517f08c379a0000000000000000000000000000000000000000000000000000000008152600401613a3c90615822565b60405180910390fd5b505050565b600080823b905060008111915050919050565b828054613a6990614812565b90600052602060002090601f016020900481019282613a8b5760008555613ad2565b82601f10613aa457805160ff1916838001178555613ad2565b82800160010185558215613ad2579182015b82811115613ad1578251825591602001919060010190613ab6565b5b509050613adf9190613bab565b5090565b604051806101400160405280600a905b6060815260200190600190039081613af35790505090565b828054828255906000526020600020908101928215613b5a579160200282015b82811115613b59578251829080519060200190613b49929190613a5d565b5091602001919060010190613b2b565b5b509050613b679190613bc8565b5090565b508054613b7790614812565b6000825580601f10613b895750613ba8565b601f016020900490600052602060002090810190613ba79190613bab565b5b50565b5b80821115613bc4576000816000905550600101613bac565b5090565b5b80821115613be85760008181613bdf9190613b6b565b50600101613bc9565b5090565b6000604051905090565b600080fd5b600080fd5b6000819050919050565b613c1381613c00565b8114613c1e57600080fd5b50565b600081359050613c3081613c0a565b92915050565b600080fd5b600080fd5b6000601f19601f8301169050919050565b7f4e487b7100000000000000000000000000000000000000000000000000000000600052604160045260246000fd5b613c8982613c40565b810181811067ffffffffffffffff82111715613ca857613ca7613c51565b5b80604052505050565b6000613cbb613bec565b9050613cc78282613c80565b919050565b600067ffffffffffffffff821115613ce757613ce6613c51565b5b613cf082613c40565b9050602081019050919050565b82818337600083830152505050565b6000613d1f613d1a84613ccc565b613cb1565b905082815260208101848484011115613d3b57613d3a613c3b565b5b613d46848285613cfd565b509392505050565b600082601f830112613d6357613d62613c36565b5b8135613d73848260208601613d0c565b91505092915050565b60008060408385031215613d9357613d92613bf6565b5b6000613da185828601613c21565b925050602083013567ffffffffffffffff811115613dc257613dc1613bfb565b5b613dce85828601613d4e565b9150509250929050565b60007fffffffff0000000000000000000000000000000000000000000000000000000082169050919050565b613e0d81613dd8565b8114613e1857600080fd5b50565b600081359050613e2a81613e04565b92915050565b600060208284031215613e4657613e45613bf6565b5b6000613e5484828501613e1b565b91505092915050565b60008115159050919050565b613e7281613e5d565b82525050565b6000602082019050613e8d6000830184613e69565b92915050565b600081519050919050565b600082825260208201905092915050565b60005b83811015613ecd578082015181840152602081019050613eb2565b83811115613edc576000848401525b50505050565b6000613eed82613e93565b613ef78185613e9e565b9350613f07818560208601613eaf565b613f1081613c40565b840191505092915050565b60006020820190508181036000830152613f358184613ee2565b905092915050565b600060208284031215613f5357613f52613bf6565b5b6000613f6184828501613c21565b91505092915050565b600073ffffffffffffffffffffffffffffffffffffffff82169050919050565b6000613f9582613f6a565b9050919050565b613fa581613f8a565b82525050565b6000602082019050613fc06000830184613f9c565b92915050565b613fcf81613f8a565b8114613fda57600080fd5b50565b600081359050613fec81613fc6565b92915050565b6000806040838503121561400957614008613bf6565b5b600061401785828601613fdd565b925050602061402885828601613c21565b9150509250929050565b6000806040838503121561404957614048613bf6565b5b600083013567ffffffffffffffff81111561406757614066613bfb565b5b61407385828601613d4e565b925050602061408485828601613c21565b9150509250929050565b6000602082840312156140a4576140a3613bf6565b5b60006140b284828501613fdd565b91505092915050565b6000806000606084860312156140d4576140d3613bf6565b5b60006140e286828701613fdd565b93505060206140f386828701613fdd565b925050604061410486828701613c21565b9150509250925092565b600081519050919050565b600082825260208201905092915050565b6000819050602082019050919050565b61414381613c00565b82525050565b6000614155838361413a565b60208301905092915050565b6000602082019050919050565b60006141798261410e565b6141838185614119565b935061418e8361412a565b8060005b838110156141bf5781516141a68882614149565b97506141b183614161565b925050600181019050614192565b5085935050505092915050565b600060208201905081810360008301526141e6818461416e565b905092915050565b60006020828403121561420457614203613bf6565b5b600082013567ffffffffffffffff81111561422257614221613bfb565b5b61422e84828501613d4e565b91505092915050565b61424081613c00565b82525050565b600060208201905061425b6000830184614237565b92915050565b60008060006060848603121561427a57614279613bf6565b5b600061428886828701613fdd565b935050602084013567ffffffffffffffff8111156142a9576142a8613bfb565b5b6142b586828701613d4e565b925050604084013567ffffffffffffffff8111156142d6576142d5613bfb565b5b6142e286828701613d4e565b9150509250925092565b600081519050919050565b600082825260208201905092915050565b6000819050602082019050919050565b600082825260208201905092915050565b600061433482613e93565b61433e8185614318565b935061434e818560208601613eaf565b61435781613c40565b840191505092915050565b600061436e8383614329565b905092915050565b6000602082019050919050565b600061438e826142ec565b61439881856142f7565b9350836020820285016143aa85614308565b8060005b858110156143e657848403895281516143c78582614362565b94506143d283614376565b925060208a019950506001810190506143ae565b50829750879550505050505092915050565b600060208201905081810360008301526144128184614383565b905092915050565b61442381613e5d565b811461442e57600080fd5b50565b6000813590506144408161441a565b92915050565b6000806040838503121561445d5761445c613bf6565b5b600061446b85828601613fdd565b925050602061447c85828601614431565b9150509250929050565b60008060006060848603121561449f5761449e613bf6565b5b60006144ad86828701613c21565b93505060206144be86828701613c21565b92505060406144cf86828701613c21565b9150509250925092565b600067ffffffffffffffff8211156144f4576144f3613c51565b5b6144fd82613c40565b9050602081019050919050565b600061451d614518846144d9565b613cb1565b90508281526020810184848401111561453957614538613c3b565b5b614544848285613cfd565b509392505050565b600082601f83011261456157614560613c36565b5b813561457184826020860161450a565b91505092915050565b6000806000806080858703121561459457614593613bf6565b5b60006145a287828801613fdd565b94505060206145b387828801613fdd565b93505060406145c487828801613c21565b925050606085013567ffffffffffffffff8111156145e5576145e4613bfb565b5b6145f18782880161454c565b91505092959194509250565b6000806040838503121561461457614613613bf6565b5b600083013567ffffffffffffffff81111561463257614631613bfb565b5b61463e85828601613d4e565b925050602083013567ffffffffffffffff81111561465f5761465e613bfb565b5b61466b85828601613d4e565b9150509250929050565b6000806040838503121561468c5761468b613bf6565b5b600061469a85828601613fdd565b925050602083013567ffffffffffffffff8111156146bb576146ba613bfb565b5b6146c785828601613d4e565b9150509250929050565b600080604083850312156146e8576146e7613bf6565b5b60006146f685828601613c21565b925050602061470785828601613c21565b9150509250929050565b6000806040838503121561472857614727613bf6565b5b600061473685828601613fdd565b925050602061474785828601613fdd565b9150509250929050565b7f4552433732314d657461646174613a2055524920736574206f66206e6f6e657860008201527f697374656e7420746f6b656e0000000000000000000000000000000000000000602082015250565b60006147ad602c83613e9e565b91506147b882614751565b604082019050919050565b600060208201905081810360008301526147dc816147a0565b9050919050565b7f4e487b7100000000000000000000000000000000000000000000000000000000600052602260045260246000fd5b6000600282049050600182168061482a57607f821691505b6020821081141561483e5761483d6147e3565b5b50919050565b7f4552433732313a20617070726f76656420717565727920666f72206e6f6e657860008201527f697374656e7420746f6b656e0000000000000000000000000000000000000000602082015250565b60006148a0602c83613e9e565b91506148ab82614844565b604082019050919050565b600060208201905081810360008301526148cf81614893565b9050919050565b7f4552433732313a20617070726f76616c20746f2063757272656e74206f776e6560008201527f7200000000000000000000000000000000000000000000000000000000000000602082015250565b6000614932602183613e9e565b915061493d826148d6565b604082019050919050565b6000602082019050818103600083015261496181614925565b9050919050565b7f4552433732313a20617070726f76652063616c6c6572206973206e6f74206f7760008201527f6e6572206e6f7220617070726f76656420666f7220616c6c0000000000000000602082015250565b60006149c4603883613e9e565b91506149cf82614968565b604082019050919050565b600060208201905081810360008301526149f3816149b7565b9050919050565b7f4f776e61626c653a2063616c6c6572206973206e6f7420746865206f776e6572600082015250565b6000614a30602083613e9e565b9150614a3b826149fa565b602082019050919050565b60006020820190508181036000830152614a5f81614a23565b9050919050565b7f566972696469616e204e46543a2043616e6e6f74207472616e7366657220776860008201527f696c65206c6973746564206f6e20566972696469616e2045786368616e676500602082015250565b6000614ac2603f83613e9e565b9150614acd82614a66565b604082019050919050565b60006020820190508181036000830152614af181614ab5565b9050919050565b7f566972696469616e204e46543a2043616e206f6e6c79206f70656e207061636b60008201527f206f6e636520726573756c742069732064656369646564000000000000000000602082015250565b6000614b54603783613e9e565b9150614b5f82614af8565b604082019050919050565b60006020820190508181036000830152614b8381614b47565b9050919050565b7f4e487b7100000000000000000000000000000000000000000000000000000000600052603260045260246000fd5b7f4e487b7100000000000000000000000000000000000000000000000000000000600052601160045260246000fd5b6000614bf382613c00565b91507fffffffffffffffffffffffffffffffffffffffffffffffffffffffffffffffff821415614c2657614c25614bb9565b5b600182019050919050565b7f566972696469616e205061636b3a206d75737420626520617070726f7665642060008201527f6f72206f776e657220746f206f70656e00000000000000000000000000000000602082015250565b6000614c8d603083613e9e565b9150614c9882614c31565b604082019050919050565b60006020820190508181036000830152614cbc81614c80565b9050919050565b7f566972696469616e205061636b3a207061636b20726573756c74206e6f74206460008201527f6563696465642079657400000000000000000000000000000000000000000000602082015250565b6000614d1f602a83613e9e565b9150614d2a82614cc3565b604082019050919050565b60006020820190508181036000830152614d4e81614d12565b9050919050565b600081519050614d6481613c0a565b92915050565b600060208284031215614d8057614d7f613bf6565b5b6000614d8e84828501614d55565b91505092915050565b6000604082019050614dac6000830185614237565b614db96020830184614237565b9392505050565b7f566972696469616e205061636b3a20565246206861736e27742067656e65726160008201527f7465642072616e646f6d2072617720726573756c742079657400000000000000602082015250565b6000614e1c603983613e9e565b9150614e2782614dc0565b604082019050919050565b60006020820190508181036000830152614e4b81614e0f565b9050919050565b7f566972696469616e205061636b3a20565246206861736e27742067656e65726160008201527f7465642072616e646f6d20726573756c74207965740000000000000000000000602082015250565b6000614eae603583613e9e565b9150614eb982614e52565b604082019050919050565b60006020820190508181036000830152614edd81614ea1565b9050919050565b6000614eef82613c00565b9150614efa83613c00565b925082821015614f0d57614f0c614bb9565b5b828203905092915050565b7f4e487b7100000000000000000000000000000000000000000000000000000000600052601260045260246000fd5b6000614f5282613c00565b9150614f5d83613c00565b925082614f6d57614f6c614f18565b5b828206905092915050565b6000604082019050614f8d6000830185613f9c565b8181036020830152614f9f8184613ee2565b90509392505050565b7f4e487b7100000000000000000000000000000000000000000000000000000000600052603160045260246000fd5b600060ff82169050919050565b6000614fef82614fd7565b915060ff82141561500357615002614bb9565b5b600182019050919050565b6000600a9050919050565b600081905092915050565b6000819050919050565b6000602082019050919050565b60006150468261500e565b6150508185615019565b93508360208202850161506285615024565b8060005b8581101561509e578484038952815161507f8582614362565b945061508a8361502e565b925060208a01995050600181019050615066565b50829750879550505050505092915050565b600060208201905081810360008301526150ca818461503b565b905092915050565b7f4552433732313a206f776e657220717565727920666f72206e6f6e657869737460008201527f656e7420746f6b656e0000000000000000000000000000000000000000000000602082015250565b600061512e602983613e9e565b9150615139826150d2565b604082019050919050565b6000602082019050818103600083015261515d81615121565b9050919050565b7f4552433732313a2062616c616e636520717565727920666f7220746865207a6560008201527f726f206164647265737300000000000000000000000000000000000000000000602082015250565b60006151c0602a83613e9e565b91506151cb82615164565b604082019050919050565b600060208201905081810360008301526151ef816151b3565b9050919050565b600081905092915050565b600061520c82613e93565b61521681856151f6565b9350615226818560208601613eaf565b80840191505092915050565b600061523e8284615201565b915081905092915050565b7f4552433732313a20617070726f766520746f2063616c6c657200000000000000600082015250565b600061527f601983613e9e565b915061528a82615249565b602082019050919050565b600060208201905081810360008301526152ae81615272565b9050919050565b7f4552433732313a207472616e736665722063616c6c6572206973206e6f74206f60008201527f776e6572206e6f7220617070726f766564000000000000000000000000000000602082015250565b6000615311603183613e9e565b915061531c826152b5565b604082019050919050565b6000602082019050818103600083015261534081615304565b9050919050565b7f4552433732314d657461646174613a2055524920717565727920666f72206e6f60008201527f6e6578697374656e7420746f6b656e0000000000000000000000000000000000602082015250565b60006153a3602f83613e9e565b91506153ae82615347565b604082019050919050565b600060208201905081810360008301526153d281615396565b9050919050565b60006153e58285615201565b91506153f18284615201565b91508190509392505050565b7f4e6f7420617070726f766564206f72206f776e65720000000000000000000000600082015250565b6000615433601583613e9e565b915061543e826153fd565b602082019050919050565b6000602082019050818103600083015261546281615426565b9050919050565b7f566972696469616e205061636b3a2043616e6e6f74207265646f207061636b2060008201527f726573756c740000000000000000000000000000000000000000000000000000602082015250565b60006154c5602683613e9e565b91506154d082615469565b604082019050919050565b600060208201905081810360008301526154f4816154b8565b9050919050565b6000819050919050565b61550e816154fb565b811461551957600080fd5b50565b60008151905061552b81615505565b92915050565b60006020828403121561554757615546613bf6565b5b60006155558482850161551c565b91505092915050565b7f4f776e61626c653a206e6577206f776e657220697320746865207a65726f206160008201527f6464726573730000000000000000000000000000000000000000000000000000602082015250565b60006155ba602683613e9e565b91506155c58261555e565b604082019050919050565b600060208201905081810360008301526155e9816155ad565b9050919050565b7f4552433732313a206f70657261746f7220717565727920666f72206e6f6e657860008201527f697374656e7420746f6b656e0000000000000000000000000000000000000000602082015250565b600061564c602c83613e9e565b9150615657826155f0565b604082019050919050565b6000602082019050818103600083015261567b8161563f565b9050919050565b7f4552433732313a206d696e7420746f20746865207a65726f2061646472657373600082015250565b60006156b8602083613e9e565b91506156c382615682565b602082019050919050565b600060208201905081810360008301526156e7816156ab565b9050919050565b7f4552433732313a20746f6b656e20616c7265616479206d696e74656400000000600082015250565b6000615724601c83613e9e565b915061572f826156ee565b602082019050919050565b6000602082019050818103600083015261575381615717565b9050919050565b600061576582613c00565b915061577083613c00565b9250827fffffffffffffffffffffffffffffffffffffffffffffffffffffffffffffffff038211156157a5576157a4614bb9565b5b828201905092915050565b7f4552433732313a207472616e7366657220746f206e6f6e20455243373231526560008201527f63656976657220696d706c656d656e7465720000000000000000000000000000602082015250565b600061580c603283613e9e565b9150615817826157b0565b604082019050919050565b6000602082019050818103600083015261583b816157ff565b9050919050565b600061584d82613c00565b915061585883613c00565b92508261586857615867614f18565b5b828204905092915050565b7f4552433732313a207472616e73666572206f6620746f6b656e2074686174206960008201527f73206e6f74206f776e0000000000000000000000000000000000000000000000602082015250565b60006158cf602983613e9e565b91506158da82615873565b604082019050919050565b600060208201905081810360008301526158fe816158c2565b9050919050565b7f4552433732313a207472616e7366657220746f20746865207a65726f2061646460008201527f7265737300000000000000000000000000000000000000000000000000000000602082015250565b6000615961602483613e9e565b915061596c82615905565b604082019050919050565b6000602082019050818103600083015261599081615954565b9050919050565b600081519050919050565b600082825260208201905092915050565b60006159be82615997565b6159c881856159a2565b93506159d8818560208601613eaf565b6159e181613c40565b840191505092915050565b6000608082019050615a016000830187613f9c565b615a0e6020830186613f9c565b615a1b6040830185614237565b8181036060830152615a2d81846159b3565b905095945050505050565b600081519050615a4781613e04565b92915050565b600060208284031215615a6357615a62613bf6565b5b6000615a7184828501615a38565b9150509291505056fea2646970667358221220821ec3385481c413c0f2047c3ed9c843e55ce8cc45c6e1cc37e5f8311a7e25b864736f6c634300080b0033",
  "immutableReferences": {},
  "source": "pragma solidity ^0.8.0;\n\nimport \"@openzeppelin/contracts/token/ERC721/ERC721.sol\";\nimport \"@openzeppelin/contracts/utils/Counters.sol\";\nimport \"@openzeppelin/contracts/access/Ownable.sol\";\nimport \"@opengsn/contracts/src/BaseRelayRecipient.sol\";\n\nimport \"./RandomNumber.sol\";\nimport \"./ViridianNFT.sol\";\n\ncontract ViridianPack is ERC721, Ownable, BaseRelayRecipient {\n\n    using Counters for Counters.Counter;\n    Counters.Counter private _tokenIds;\n    Counters.Counter private _unmintedTokenIds;\n    mapping(string => uint8) hashes;\n    mapping(uint256 => mapping(uint256 => uint256)) private rarityOdds;\n    mapping(uint256 => uint256) private numNFTs;\n    //mapping(uint256 => string) private unmintedURIs;\n    mapping(uint256 => bool) private _tokensListed;\n    mapping(uint256 => uint256) tokenRarity;\n    mapping(uint256 => string[]) private uriRarityPools;\n    int private maxRarityIndex;\n\n    mapping(uint256 => bool) private packResultDecided;\n\n    mapping(address => bool) admins;\n\n    address public viridianNFTAddr;\n\n    ViridianNFT vNFT;\n    RandomNumberConsumer vrf;\n\n    using Strings for uint256;\n\n    constructor(address _viridianNFT/*, address _forwarder*/) ERC721(\"Viridian Pack\", \"VP\") {\n\n        require(address(_viridianNFT) != address(0));\n\n        viridianNFTAddr = _viridianNFT;\n\n        //_setTrustedForwarder(_forwarder);\n\n        vNFT = ViridianNFT(viridianNFTAddr);\n\n        //Set all beginning rarities\n\n        // Legendary rarity and cards in pack\n        rarityOdds[0][0] = 25;\n        rarityOdds[0][1] = 100;\n        rarityOdds[0][2] = 300;\n        rarityOdds[0][3] = 1000;\n        numNFTs[0] = 3;\n\n        // Mystical rarity and cards in pack\n        rarityOdds[1][0] = 1;\n        rarityOdds[1][1] = 50;\n        rarityOdds[1][2] = 200;\n        rarityOdds[1][3] = 1000;\n        numNFTs[0] = 3;\n\n        // Rare rarity and cards in pack\n        rarityOdds[2][0] = 0;\n        rarityOdds[2][1] = 50;\n        rarityOdds[2][2] = 100;\n        rarityOdds[2][3] = 1000;\n        numNFTs[0] = 3;\n\n        // Common rarity and cards in pack\n        rarityOdds[3][0] = 0;\n        rarityOdds[3][1] = 10;\n        rarityOdds[3][2] = 50;\n        rarityOdds[3][3] = 1000;\n        numNFTs[0] = 3;\n\n        maxRarityIndex = 3;\n\n        admins[_msgSender()] = true;\n    }\n\n    string public override versionRecipient = \"2.2.0\";\n\n    function setTrustedForwarder(address _forwarder) public onlyOwner() {\n        _setTrustedForwarder(_forwarder);\n    }\n\n    event Open(string[10] newUris);\n    event PackResultDecided(uint256 tokenId);\n\n    //TODO: Remove this after debugging\n    event DebugVRFData(uint256 raw, uint256 res);\n    \n    // Optional mapping for token URIs\n    mapping (uint256 => string) private _tokenURIs;\n\n    //address private viridianExchangeAddress;\n\n    // Base URI\n    string private _baseURIextended;\n\n    modifier onlyAdmin() {\n        require(admins[_msgSender()] == true);\n            _;\n    }\n\n    function _msgSender() internal view override(Context, BaseRelayRecipient) returns (address sender) {\n        sender = BaseRelayRecipient._msgSender();\n    }\n\n    function _msgData() internal view override(Context, BaseRelayRecipient) returns (bytes memory) {\n        return BaseRelayRecipient._msgData();\n    }\n\n    function addAdmin(address _newAdmin) external onlyOwner() {\n        admins[_newAdmin] = true;\n    }\n\n    function removeAdmin(address _newAdmin) external onlyOwner() {\n        admins[_newAdmin] = false;\n    }\n    \n    function setBaseURI(string memory baseURI_) external onlyAdmin() {\n        _baseURIextended = baseURI_;\n    }\n    \n    function _setTokenURI(uint256 tokenId, string memory _tokenURI) public virtual onlyAdmin() {\n        require(_exists(tokenId), \"ERC721Metadata: URI set of nonexistent token\");\n        _tokenURIs[tokenId] = _tokenURI;\n    }\n    \n    function _baseURI() internal view virtual override returns (string memory) {\n        return _baseURIextended;\n    }\n    \n    function tokenURI(uint256 tokenId) public view virtual override returns (string memory) {\n        require(_exists(tokenId), \"ERC721Metadata: URI query for nonexistent token\");\n\n        string memory _tokenURI = _tokenURIs[tokenId];\n        string memory base = _baseURI();\n        \n        // If there is no base URI, return the token URI.\n        if (bytes(base).length == 0) {\n            return _tokenURI;\n        }\n        // If both are set, concatenate the baseURI and tokenURI (via abi.encodePacked).\n        if (bytes(_tokenURI).length > 0) {\n            return string(abi.encodePacked(base, _tokenURI));\n        }\n        // If there is a baseURI but no tokenURI, concatenate the tokenID to the baseURI.\n        return string(abi.encodePacked(base, tokenId.toString()));\n    }\n\n    function getUriRarityPools(uint256 _rarity) public view onlyAdmin() returns (string[] memory) {\n        return uriRarityPools[_rarity];\n    }\n\n    function getNumNFTs() public view returns (uint256 n) {\n        return _tokenIds.current();\n    }\n\n    function getNumOwnedNFTs() public view virtual returns (uint256) {\n        uint256 numOwnedNFTs = 0;\n\n        for (uint256 i = 1; i <= _tokenIds.current(); i++) {\n            if (ownerOf(i) == _msgSender()) {\n                numOwnedNFTs++;\n            }\n        }\n\n        return numOwnedNFTs;\n    }\n \n    function getOwnedNFTs() public view virtual returns (uint256[] memory) {\n\n        uint256[] memory _tokens = new uint256[](getNumOwnedNFTs());\n\n        uint256 curIndex = 0;\n\n        for (uint256 i = 1; i <= _tokenIds.current(); i++) {\n            if (ownerOf(i) == _msgSender()) {\n                _tokens[curIndex] = i;\n                curIndex++;\n            }\n        }\n        \n        return _tokens;\n    }\n\n    function setRarityOdds(uint256 _rarity, uint256 _rarityOdd, uint256 _newOdds) external onlyAdmin() {\n        rarityOdds[_rarity][_rarityOdd] = _newOdds;\n    }\n\n    function isListed(uint256 tokenId) public view returns (bool) {\n        return _tokensListed[tokenId];\n    }\n\n    function mint(\n        address _to,\n        string memory tokenURI_\n    ) external onlyAdmin() {\n        _tokenIds.increment();\n        uint256 _tokenId = _tokenIds.current();\n\n        _safeMint(_to, _tokenId);\n        _tokensListed[_tokenId] = false;\n        _setTokenURI(_tokenId, tokenURI_);\n    }\n\n    //TODO: THIS IS NOT TO BE USED IN FINAL DEPLOYED IMPLEMENTATION, convert to LINK VRF for TESTNET and ESPECIALLY MAINNET!!!\n    uint nonce;\n\n    function calculateWeightedOdds(uint256 randomNum, mapping(uint256 => uint256) storage rarityOdd) private view returns (uint) {\n        uint256 n;\n\n        for (n = 0; int(n) < int(maxRarityIndex); n++) {\n            if (randomNum <= rarityOdd[n]) {\n                return n;\n            }\n        }\n\n        return n;\n    }\n\n    function softMintNFT(string memory uri, uint256 rarity) public onlyAdmin() {\n        uriRarityPools[rarity].push(uri);\n    }\n\n    function burnSoftMintedNFTAtRarityIndex(uint256 rarity, uint256 index) public onlyAdmin() {\n        string[] memory curRarityPool = uriRarityPools[rarity];\n            for (uint i = 0; i < uriRarityPools[rarity].length; i++) {\n                if (i == index) {\n                    curRarityPool[i] = curRarityPool[curRarityPool.length - 1];\n                    uriRarityPools[rarity] = curRarityPool;\n                    uriRarityPools[rarity].pop();\n                    break;\n                }\n            }\n    }\n\n    function compareStrings(string memory _s, string memory _s1) public pure returns (bool) {\n        return (keccak256(abi.encodePacked((_s))) == keccak256(abi.encodePacked((_s1))));\n    }\n\n    function configureVRF(address _vrfAddress) public {\n        vrf = RandomNumberConsumer(_vrfAddress);\n    }\n\n    function lockInPackResult(uint256 _tokenId) public {\n        require(_isApprovedOrOwner(_msgSender(), _tokenId), \"Not approved or owner\");\n        require(!packResultDecided[_tokenId], \"Viridian Pack: Cannot redo pack result\");\n        packResultDecided[_tokenId] = true;\n        vrf.getRandomNumber(_tokenId);\n\n        emit PackResultDecided(_tokenId);\n    }\n\n    function isPackResultDecided(uint256 _tokenId) public view returns (bool) {\n        return packResultDecided[_tokenId];\n    }\n\n    function openPack(uint256 _tokenId) public {\n        // Randomly \n        require(_isApprovedOrOwner(_msgSender(), _tokenId), \"Viridian Pack: must be approved or owner to open\");\n        require(packResultDecided[_tokenId], \"Viridian Pack: pack result not decided yet\");\n\n        uint256 rawRandRes = vrf.getRandomRawResultForToken(_tokenId);\n        uint256 randRes = vrf.getRandomResultForToken(_tokenId);\n\n        emit DebugVRFData(rawRandRes, randRes);\n\n        require(rawRandRes > 0, \"Viridian Pack: VRF hasn't generated random raw result yet\");\n        require(randRes > 0, \"Viridian Pack: VRF hasn't generated random result yet\");\n\n        uint256 tr = tokenRarity[_tokenId];\n\n        string[10] memory newUris;\n\n        //Need to delete the item from the rarity pool before minting happens again\n        for (uint8 n = 0; n < numNFTs[tr]; n++) {\n            uint256 randIndexWithPercentOdds = calculateWeightedOdds(randRes, rarityOdds[tr]);\n            uint256 randIndexInRarity = rawRandRes % (uriRarityPools[randIndexWithPercentOdds].length - 1);\n\n            string memory newURI = uriRarityPools[randIndexWithPercentOdds][randIndexInRarity];\n\n            vNFT.mint(_msgSender(), newURI);\n\n            newUris[n] = newURI;\n\n            string[] memory curRarityPool = uriRarityPools[randIndexWithPercentOdds];\n            for (uint i = 0; i < uriRarityPools[randIndexWithPercentOdds].length; i++) {\n                string memory uri = uriRarityPools[randIndexWithPercentOdds][i];\n                if (compareStrings(uri, newURI)) {\n                    curRarityPool[i] = curRarityPool[curRarityPool.length - 1];\n                    uriRarityPools[randIndexWithPercentOdds] = curRarityPool;\n                    uriRarityPools[randIndexWithPercentOdds].pop();\n                    break;\n                }\n            }\n        }\n\n        burn(_tokenId);\n\n        emit Open(newUris);\n    }\n\n    function burn(uint256 tokenId) public {\n        require(_isApprovedOrOwner(_msgSender(), tokenId));\n\n        _burn(tokenId);\n    }\n\n    function awardItem(address recipient, string memory hash, string memory metadata) public returns (uint256) {\n        require(hashes[hash] != 1);\n        hashes[hash] = 1;\n        _tokenIds.increment();\n        uint256 newItemId = _tokenIds.current();\n        _mint(recipient, newItemId);\n        _setTokenURI(newItemId, metadata);\n        return newItemId;\n    }\n\n    function safeTransferFrom(address from, address to, uint256 tokenId) public override {\n        require(!_tokensListed[tokenId], \"Viridian NFT: Cannot transfer while listed on Viridian Exchange\");\n        require(!packResultDecided[tokenId], \"Viridian NFT: Can only open pack once result is decided\");\n\n        super.safeTransferFrom(from, to, tokenId);\n    }\n\n    function transferFrom(address from, address to, uint256 tokenId) public override {\n        require(!_tokensListed[tokenId], \"Viridian NFT: Cannot transfer while listed on Viridian Exchange\");\n        require(!packResultDecided[tokenId], \"Viridian NFT: Can only open pack once result is decided\");\n\n        super.transferFrom(from, to, tokenId);\n    }\n\n    function listToken(uint256 _tokenId) public {\n        require(_isApprovedOrOwner(_msgSender(), _tokenId));\n        _tokensListed[_tokenId] = true;\n    }\n\n    function unlistToken(uint256 _tokenId) public {\n        require(_isApprovedOrOwner(_msgSender(), _tokenId));\n        _tokensListed[_tokenId] = false;\n    }\n}",
  "sourcePath": "/Users/blakehatch/Viridian-Exchange-Contracts/contracts/ViridianPack.sol",
  "compiler": {
    "name": "solc",
    "version": "0.8.11+commit.d7f03943.Emscripten.clang"
  },
  "schemaVersion": "3.4.1",
  "updatedAt": "2021-12-30T21:09:00.300Z",
  "networkType": "ethereum",
  "devdoc": {
    "kind": "dev",
    "methods": {
      "approve(address,uint256)": {
        "details": "See {IERC721-approve}."
      },
      "balanceOf(address)": {
        "details": "See {IERC721-balanceOf}."
      },
      "getApproved(uint256)": {
        "details": "See {IERC721-getApproved}."
      },
      "isApprovedForAll(address,address)": {
        "details": "See {IERC721-isApprovedForAll}."
      },
      "name()": {
        "details": "See {IERC721Metadata-name}."
      },
      "owner()": {
        "details": "Returns the address of the current owner."
      },
      "ownerOf(uint256)": {
        "details": "See {IERC721-ownerOf}."
      },
      "renounceOwnership()": {
        "details": "Leaves the contract without owner. It will not be possible to call `onlyOwner` functions anymore. Can only be called by the current owner. NOTE: Renouncing ownership will leave the contract without an owner, thereby removing any functionality that is only available to the owner."
      },
      "safeTransferFrom(address,address,uint256)": {
        "details": "See {IERC721-safeTransferFrom}."
      },
      "safeTransferFrom(address,address,uint256,bytes)": {
        "details": "See {IERC721-safeTransferFrom}."
      },
      "setApprovalForAll(address,bool)": {
        "details": "See {IERC721-setApprovalForAll}."
      },
      "supportsInterface(bytes4)": {
        "details": "See {IERC165-supportsInterface}."
      },
      "symbol()": {
        "details": "See {IERC721Metadata-symbol}."
      },
      "tokenURI(uint256)": {
        "details": "See {IERC721Metadata-tokenURI}."
      },
      "transferFrom(address,address,uint256)": {
        "details": "See {IERC721-transferFrom}."
      },
      "transferOwnership(address)": {
        "details": "Transfers ownership of the contract to a new account (`newOwner`). Can only be called by the current owner."
      }
    },
    "version": 1
  },
  "userdoc": {
    "kind": "user",
    "methods": {
      "isTrustedForwarder(address)": {
        "notice": "return if the forwarder is trusted to forward relayed transactions to us. the forwarder is required to verify the sender's signature, and verify the call is not a replay."
      }
    },
    "version": 1
  }
}